{
	"contracts/4_Product.sol": {
		"ProductSC": {
			"abi": [
				{
					"inputs": [
						{
							"internalType": "string",
							"name": "_name",
							"type": "string"
						},
						{
							"internalType": "string",
							"name": "_symbol",
							"type": "string"
						},
						{
							"internalType": "uint256",
							"name": "_initialSupply",
							"type": "uint256"
						}
					],
					"stateMutability": "nonpayable",
					"type": "constructor"
				},
				{
					"inputs": [
						{
							"internalType": "address",
							"name": "_account",
							"type": "address"
						},
						{
							"internalType": "uint256",
							"name": "_amount",
							"type": "uint256"
						}
					],
					"name": "burn",
					"outputs": [],
					"stateMutability": "nonpayable",
					"type": "function"
				},
				{
					"inputs": [
						{
							"internalType": "uint256",
							"name": "_id",
							"type": "uint256"
						},
						{
							"internalType": "uint256",
							"name": "_timestamp",
							"type": "uint256"
						}
					],
					"name": "buyProduct",
					"outputs": [],
					"stateMutability": "nonpayable",
					"type": "function"
				},
				{
					"inputs": [],
					"name": "buyToken",
					"outputs": [],
					"stateMutability": "payable",
					"type": "function"
				},
				{
					"inputs": [
						{
							"internalType": "address",
							"name": "_addr",
							"type": "address"
						}
					],
					"name": "etherBalance",
					"outputs": [
						{
							"internalType": "uint256",
							"name": "",
							"type": "uint256"
						}
					],
					"stateMutability": "view",
					"type": "function"
				},
				{
					"inputs": [
						{
							"internalType": "address",
							"name": "_addr",
							"type": "address"
						}
					],
					"name": "getActorInfo",
					"outputs": [
						{
							"internalType": "enum ProductSC.Role",
							"name": "_role",
							"type": "uint8"
						},
						{
							"internalType": "string",
							"name": "_name",
							"type": "string"
						}
					],
					"stateMutability": "view",
					"type": "function"
				},
				{
					"inputs": [
						{
							"internalType": "uint256",
							"name": "_id",
							"type": "uint256"
						}
					],
					"name": "getProductDetails",
					"outputs": [
						{
							"internalType": "uint256",
							"name": "product_id",
							"type": "uint256"
						},
						{
							"internalType": "address",
							"name": "owner_id",
							"type": "address"
						},
						{
							"internalType": "enum ProductSC.State",
							"name": "currentProductState",
							"type": "uint8"
						},
						{
							"internalType": "uint256",
							"name": "productPrice",
							"type": "uint256"
						},
						{
							"internalType": "string",
							"name": "product_name",
							"type": "string"
						},
						{
							"internalType": "string",
							"name": "product_brand",
							"type": "string"
						},
						{
							"internalType": "string",
							"name": "product_size",
							"type": "string"
						},
						{
							"internalType": "string",
							"name": "product_weight",
							"type": "string"
						},
						{
							"internalType": "string",
							"name": "product_length",
							"type": "string"
						},
						{
							"internalType": "string",
							"name": "product_width",
							"type": "string"
						},
						{
							"internalType": "string",
							"name": "product_height",
							"type": "string"
						}
					],
					"stateMutability": "view",
					"type": "function"
				},
				{
					"inputs": [
						{
							"internalType": "uint256",
							"name": "_id",
							"type": "uint256"
						}
					],
					"name": "getProductInfo",
					"outputs": [
						{
							"internalType": "uint256",
							"name": "product_id",
							"type": "uint256"
						},
						{
							"internalType": "address",
							"name": "producer_id",
							"type": "address"
						},
						{
							"internalType": "address",
							"name": "owner_id",
							"type": "address"
						},
						{
							"internalType": "enum ProductSC.State",
							"name": "currentProductState",
							"type": "uint8"
						},
						{
							"internalType": "uint256",
							"name": "productPrice",
							"type": "uint256"
						},
						{
							"internalType": "address",
							"name": "distributor_id",
							"type": "address"
						},
						{
							"internalType": "address",
							"name": "retailer_id",
							"type": "address"
						},
						{
							"internalType": "address",
							"name": "consumer_id",
							"type": "address"
						},
						{
							"components": [
								{
									"internalType": "string",
									"name": "name",
									"type": "string"
								},
								{
									"internalType": "string",
									"name": "brand",
									"type": "string"
								},
								{
									"internalType": "string",
									"name": "size",
									"type": "string"
								},
								{
									"internalType": "string",
									"name": "weight",
									"type": "string"
								},
								{
									"internalType": "string",
									"name": "length",
									"type": "string"
								},
								{
									"internalType": "string",
									"name": "width",
									"type": "string"
								},
								{
									"internalType": "string",
									"name": "height",
									"type": "string"
								}
							],
							"internalType": "struct ProductSC.Details",
							"name": "details",
							"type": "tuple"
						}
					],
					"stateMutability": "view",
					"type": "function"
				},
				{
					"inputs": [
						{
							"internalType": "uint256",
							"name": "_amount",
							"type": "uint256"
						}
					],
					"name": "mint",
					"outputs": [],
					"stateMutability": "nonpayable",
					"type": "function"
				},
				{
					"inputs": [],
					"name": "name",
					"outputs": [
						{
							"internalType": "string",
							"name": "",
							"type": "string"
						}
					],
					"stateMutability": "view",
					"type": "function"
				},
				{
					"inputs": [
						{
							"internalType": "uint256",
							"name": "_id",
							"type": "uint256"
						},
						{
							"internalType": "uint256",
							"name": "_timestamp",
							"type": "uint256"
						},
						{
							"internalType": "uint256",
							"name": "_price",
							"type": "uint256"
						},
						{
							"internalType": "string",
							"name": "_name",
							"type": "string"
						},
						{
							"internalType": "string",
							"name": "_brand",
							"type": "string"
						},
						{
							"internalType": "string",
							"name": "_size",
							"type": "string"
						},
						{
							"internalType": "string",
							"name": "_weight",
							"type": "string"
						},
						{
							"internalType": "string",
							"name": "_length",
							"type": "string"
						},
						{
							"internalType": "string",
							"name": "_width",
							"type": "string"
						},
						{
							"internalType": "string",
							"name": "_height",
							"type": "string"
						}
					],
					"name": "produceProduct",
					"outputs": [],
					"stateMutability": "nonpayable",
					"type": "function"
				},
				{
					"inputs": [
						{
							"internalType": "address",
							"name": "_addr",
							"type": "address"
						},
						{
							"internalType": "enum ProductSC.Role",
							"name": "_role",
							"type": "uint8"
						},
						{
							"internalType": "string",
							"name": "_name",
							"type": "string"
						}
					],
					"name": "register",
					"outputs": [],
					"stateMutability": "nonpayable",
					"type": "function"
				},
				{
					"inputs": [],
					"name": "symbol",
					"outputs": [
						{
							"internalType": "string",
							"name": "",
							"type": "string"
						}
					],
					"stateMutability": "view",
					"type": "function"
				},
				{
					"inputs": [
						{
							"internalType": "address",
							"name": "_addr",
							"type": "address"
						}
					],
					"name": "tokenBalance",
					"outputs": [
						{
							"internalType": "uint256",
							"name": "",
							"type": "uint256"
						}
					],
					"stateMutability": "view",
					"type": "function"
				},
				{
					"inputs": [],
					"name": "tokenOwner",
					"outputs": [
						{
							"internalType": "address payable",
							"name": "",
							"type": "address"
						}
					],
					"stateMutability": "view",
					"type": "function"
				},
				{
					"inputs": [
						{
							"internalType": "address",
							"name": "_to",
							"type": "address"
						},
						{
							"internalType": "uint256",
							"name": "_amount",
							"type": "uint256"
						}
					],
					"name": "tokenTransfer",
					"outputs": [
						{
							"internalType": "bool",
							"name": "",
							"type": "bool"
						}
					],
					"stateMutability": "nonpayable",
					"type": "function"
				}
			],
			"devdoc": {
				"kind": "dev",
				"methods": {},
				"version": 1
			},
			"evm": {
				"assembly": "    /* \"contracts/4_Product.sol\":35:11577  contract ProductSC {\r... */\n  mstore(0x40, 0x80)\n    /* \"contracts/4_Product.sol\":2158:2538  constructor (string memory _name, string memory _symbol, uint256 _initialSupply) {\r... */\n  callvalue\n  dup1\n  iszero\n  tag_1\n  jumpi\n  0x00\n  dup1\n  revert\ntag_1:\n  pop\n  mload(0x40)\n  sub(codesize, bytecodeSize)\n  dup1\n  bytecodeSize\n  dup4\n  codecopy\n  dup2\n  dup2\n  add\n  0x40\n  mstore\n  dup2\n  add\n  swap1\n  tag_2\n  swap2\n  swap1\n  tag_3\n  jump\t// in\ntag_2:\n    /* \"contracts/4_Product.sol\":2257:2262  _name */\n  dup3\n    /* \"contracts/4_Product.sol\":2250:2254  name */\n  0x00\n    /* \"contracts/4_Product.sol\":2250:2262  name = _name */\n  swap1\n  dup1\n  mload\n  swap1\n  0x20\n  add\n  swap1\n  tag_6\n  swap3\n  swap2\n  swap1\n  tag_7\n  jump\t// in\ntag_6:\n  pop\n    /* \"contracts/4_Product.sol\":2282:2289  _symbol */\n  dup2\n    /* \"contracts/4_Product.sol\":2273:2279  symbol */\n  0x01\n    /* \"contracts/4_Product.sol\":2273:2289  symbol = _symbol */\n  swap1\n  dup1\n  mload\n  swap1\n  0x20\n  add\n  swap1\n  tag_8\n  swap3\n  swap2\n  swap1\n  tag_7\n  jump\t// in\ntag_8:\n  pop\n    /* \"contracts/4_Product.sol\":2315:2329  _initialSupply */\n  dup1\n    /* \"contracts/4_Product.sol\":2300:2312  _totalSupply */\n  0x03\n    /* \"contracts/4_Product.sol\":2300:2329  _totalSupply = _initialSupply */\n  dup2\n  swap1\n  sstore\n  pop\n    /* \"contracts/4_Product.sol\":2361:2371  msg.sender */\n  caller\n    /* \"contracts/4_Product.sol\":2340:2350  tokenOwner */\n  0x02\n  0x00\n    /* \"contracts/4_Product.sol\":2340:2372  tokenOwner = payable(msg.sender) */\n  0x0100\n  exp\n  dup2\n  sload\n  dup2\n  0xffffffffffffffffffffffffffffffffffffffff\n  mul\n  not\n  and\n  swap1\n  dup4\n  0xffffffffffffffffffffffffffffffffffffffff\n  and\n  mul\n  or\n  swap1\n  sstore\n  pop\n    /* \"contracts/4_Product.sol\":2449:2463  _initialSupply */\n  dup1\n    /* \"contracts/4_Product.sol\":2426:2434  balances */\n  0x04\n    /* \"contracts/4_Product.sol\":2426:2446  balances[msg.sender] */\n  0x00\n    /* \"contracts/4_Product.sol\":2435:2445  msg.sender */\n  caller\n    /* \"contracts/4_Product.sol\":2426:2446  balances[msg.sender] */\n  0xffffffffffffffffffffffffffffffffffffffff\n  and\n  0xffffffffffffffffffffffffffffffffffffffff\n  and\n  dup2\n  mstore\n  0x20\n  add\n  swap1\n  dup2\n  mstore\n  0x20\n  add\n  0x00\n  keccak256\n    /* \"contracts/4_Product.sol\":2426:2463  balances[msg.sender] = _initialSupply */\n  dup2\n  swap1\n  sstore\n  pop\n    /* \"contracts/4_Product.sol\":2158:2538  constructor (string memory _name, string memory _symbol, uint256 _initialSupply) {\r... */\n  pop\n  pop\n  pop\n    /* \"contracts/4_Product.sol\":35:11577  contract ProductSC {\r... */\n  jump(tag_9)\ntag_7:\n  dup3\n  dup1\n  sload\n  tag_10\n  swap1\n  tag_11\n  jump\t// in\ntag_10:\n  swap1\n  0x00\n  mstore\n  keccak256(0x00, 0x20)\n  swap1\n  0x1f\n  add\n  0x20\n  swap1\n  div\n  dup2\n  add\n  swap3\n  dup3\n  tag_13\n  jumpi\n  0x00\n  dup6\n  sstore\n  jump(tag_12)\ntag_13:\n  dup3\n  0x1f\n  lt\n  tag_14\n  jumpi\n  dup1\n  mload\n  not(0xff)\n  and\n  dup4\n  dup1\n  add\n  or\n  dup6\n  sstore\n  jump(tag_12)\ntag_14:\n  dup3\n  dup1\n  add\n  0x01\n  add\n  dup6\n  sstore\n  dup3\n  iszero\n  tag_12\n  jumpi\n  swap2\n  dup3\n  add\ntag_15:\n  dup3\n  dup2\n  gt\n  iszero\n  tag_16\n  jumpi\n  dup3\n  mload\n  dup3\n  sstore\n  swap2\n  0x20\n  add\n  swap2\n  swap1\n  0x01\n  add\n  swap1\n  jump(tag_15)\ntag_16:\ntag_12:\n  pop\n  swap1\n  pop\n  tag_17\n  swap2\n  swap1\n  tag_18\n  jump\t// in\ntag_17:\n  pop\n  swap1\n  jump\t// out\ntag_18:\ntag_19:\n  dup1\n  dup3\n  gt\n  iszero\n  tag_20\n  jumpi\n  0x00\n  dup2\n  0x00\n  swap1\n  sstore\n  pop\n  0x01\n  add\n  jump(tag_19)\ntag_20:\n  pop\n  swap1\n  jump\t// out\n    /* \"#utility.yul\":7:428   */\ntag_22:\n    /* \"#utility.yul\":96:101   */\n  0x00\n    /* \"#utility.yul\":121:187   */\n  tag_24\n    /* \"#utility.yul\":137:186   */\n  tag_25\n    /* \"#utility.yul\":179:185   */\n  dup5\n    /* \"#utility.yul\":137:186   */\n  tag_26\n  jump\t// in\ntag_25:\n    /* \"#utility.yul\":121:187   */\n  tag_27\n  jump\t// in\ntag_24:\n    /* \"#utility.yul\":112:187   */\n  swap1\n  pop\n    /* \"#utility.yul\":210:216   */\n  dup3\n    /* \"#utility.yul\":203:208   */\n  dup2\n    /* \"#utility.yul\":196:217   */\n  mstore\n    /* \"#utility.yul\":248:252   */\n  0x20\n    /* \"#utility.yul\":241:246   */\n  dup2\n    /* \"#utility.yul\":237:253   */\n  add\n    /* \"#utility.yul\":286:289   */\n  dup5\n    /* \"#utility.yul\":277:283   */\n  dup5\n    /* \"#utility.yul\":272:275   */\n  dup5\n    /* \"#utility.yul\":268:284   */\n  add\n    /* \"#utility.yul\":265:290   */\n  gt\n    /* \"#utility.yul\":262:374   */\n  iszero\n  tag_28\n  jumpi\n    /* \"#utility.yul\":293:372   */\n  tag_29\n  tag_30\n  jump\t// in\ntag_29:\n    /* \"#utility.yul\":262:374   */\ntag_28:\n    /* \"#utility.yul\":383:422   */\n  tag_31\n    /* \"#utility.yul\":415:421   */\n  dup5\n    /* \"#utility.yul\":410:413   */\n  dup3\n    /* \"#utility.yul\":405:408   */\n  dup6\n    /* \"#utility.yul\":383:422   */\n  tag_32\n  jump\t// in\ntag_31:\n    /* \"#utility.yul\":102:428   */\n  pop\n    /* \"#utility.yul\":7:428   */\n  swap4\n  swap3\n  pop\n  pop\n  pop\n  jump\t// out\n    /* \"#utility.yul\":448:803   */\ntag_33:\n    /* \"#utility.yul\":515:520   */\n  0x00\n    /* \"#utility.yul\":564:567   */\n  dup3\n    /* \"#utility.yul\":557:561   */\n  0x1f\n    /* \"#utility.yul\":549:555   */\n  dup4\n    /* \"#utility.yul\":545:562   */\n  add\n    /* \"#utility.yul\":541:568   */\n  slt\n    /* \"#utility.yul\":531:653   */\n  tag_35\n  jumpi\n    /* \"#utility.yul\":572:651   */\n  tag_36\n  tag_37\n  jump\t// in\ntag_36:\n    /* \"#utility.yul\":531:653   */\ntag_35:\n    /* \"#utility.yul\":682:688   */\n  dup2\n    /* \"#utility.yul\":676:689   */\n  mload\n    /* \"#utility.yul\":707:797   */\n  tag_38\n    /* \"#utility.yul\":793:796   */\n  dup5\n    /* \"#utility.yul\":785:791   */\n  dup3\n    /* \"#utility.yul\":778:782   */\n  0x20\n    /* \"#utility.yul\":770:776   */\n  dup7\n    /* \"#utility.yul\":766:783   */\n  add\n    /* \"#utility.yul\":707:797   */\n  tag_22\n  jump\t// in\ntag_38:\n    /* \"#utility.yul\":698:797   */\n  swap2\n  pop\n    /* \"#utility.yul\":521:803   */\n  pop\n    /* \"#utility.yul\":448:803   */\n  swap3\n  swap2\n  pop\n  pop\n  jump\t// out\n    /* \"#utility.yul\":809:952   */\ntag_39:\n    /* \"#utility.yul\":866:871   */\n  0x00\n    /* \"#utility.yul\":897:903   */\n  dup2\n    /* \"#utility.yul\":891:904   */\n  mload\n    /* \"#utility.yul\":882:904   */\n  swap1\n  pop\n    /* \"#utility.yul\":913:946   */\n  tag_41\n    /* \"#utility.yul\":940:945   */\n  dup2\n    /* \"#utility.yul\":913:946   */\n  tag_42\n  jump\t// in\ntag_41:\n    /* \"#utility.yul\":809:952   */\n  swap3\n  swap2\n  pop\n  pop\n  jump\t// out\n    /* \"#utility.yul\":958:1967   */\ntag_3:\n    /* \"#utility.yul\":1066:1072   */\n  0x00\n    /* \"#utility.yul\":1074:1080   */\n  dup1\n    /* \"#utility.yul\":1082:1088   */\n  0x00\n    /* \"#utility.yul\":1131:1133   */\n  0x60\n    /* \"#utility.yul\":1119:1128   */\n  dup5\n    /* \"#utility.yul\":1110:1117   */\n  dup7\n    /* \"#utility.yul\":1106:1129   */\n  sub\n    /* \"#utility.yul\":1102:1134   */\n  slt\n    /* \"#utility.yul\":1099:1218   */\n  iszero\n  tag_44\n  jumpi\n    /* \"#utility.yul\":1137:1216   */\n  tag_45\n  tag_46\n  jump\t// in\ntag_45:\n    /* \"#utility.yul\":1099:1218   */\ntag_44:\n    /* \"#utility.yul\":1278:1279   */\n  0x00\n    /* \"#utility.yul\":1267:1276   */\n  dup5\n    /* \"#utility.yul\":1263:1280   */\n  add\n    /* \"#utility.yul\":1257:1281   */\n  mload\n    /* \"#utility.yul\":1308:1326   */\n  0xffffffffffffffff\n    /* \"#utility.yul\":1300:1306   */\n  dup2\n    /* \"#utility.yul\":1297:1327   */\n  gt\n    /* \"#utility.yul\":1294:1411   */\n  iszero\n  tag_47\n  jumpi\n    /* \"#utility.yul\":1330:1409   */\n  tag_48\n  tag_49\n  jump\t// in\ntag_48:\n    /* \"#utility.yul\":1294:1411   */\ntag_47:\n    /* \"#utility.yul\":1435:1509   */\n  tag_50\n    /* \"#utility.yul\":1501:1508   */\n  dup7\n    /* \"#utility.yul\":1492:1498   */\n  dup3\n    /* \"#utility.yul\":1481:1490   */\n  dup8\n    /* \"#utility.yul\":1477:1499   */\n  add\n    /* \"#utility.yul\":1435:1509   */\n  tag_33\n  jump\t// in\ntag_50:\n    /* \"#utility.yul\":1425:1509   */\n  swap4\n  pop\n    /* \"#utility.yul\":1228:1519   */\n  pop\n    /* \"#utility.yul\":1579:1581   */\n  0x20\n    /* \"#utility.yul\":1568:1577   */\n  dup5\n    /* \"#utility.yul\":1564:1582   */\n  add\n    /* \"#utility.yul\":1558:1583   */\n  mload\n    /* \"#utility.yul\":1610:1628   */\n  0xffffffffffffffff\n    /* \"#utility.yul\":1602:1608   */\n  dup2\n    /* \"#utility.yul\":1599:1629   */\n  gt\n    /* \"#utility.yul\":1596:1713   */\n  iszero\n  tag_51\n  jumpi\n    /* \"#utility.yul\":1632:1711   */\n  tag_52\n  tag_49\n  jump\t// in\ntag_52:\n    /* \"#utility.yul\":1596:1713   */\ntag_51:\n    /* \"#utility.yul\":1737:1811   */\n  tag_53\n    /* \"#utility.yul\":1803:1810   */\n  dup7\n    /* \"#utility.yul\":1794:1800   */\n  dup3\n    /* \"#utility.yul\":1783:1792   */\n  dup8\n    /* \"#utility.yul\":1779:1801   */\n  add\n    /* \"#utility.yul\":1737:1811   */\n  tag_33\n  jump\t// in\ntag_53:\n    /* \"#utility.yul\":1727:1811   */\n  swap3\n  pop\n    /* \"#utility.yul\":1529:1821   */\n  pop\n    /* \"#utility.yul\":1860:1862   */\n  0x40\n    /* \"#utility.yul\":1886:1950   */\n  tag_54\n    /* \"#utility.yul\":1942:1949   */\n  dup7\n    /* \"#utility.yul\":1933:1939   */\n  dup3\n    /* \"#utility.yul\":1922:1931   */\n  dup8\n    /* \"#utility.yul\":1918:1940   */\n  add\n    /* \"#utility.yul\":1886:1950   */\n  tag_39\n  jump\t// in\ntag_54:\n    /* \"#utility.yul\":1876:1950   */\n  swap2\n  pop\n    /* \"#utility.yul\":1831:1960   */\n  pop\n    /* \"#utility.yul\":958:1967   */\n  swap3\n  pop\n  swap3\n  pop\n  swap3\n  jump\t// out\n    /* \"#utility.yul\":1973:2102   */\ntag_27:\n    /* \"#utility.yul\":2007:2013   */\n  0x00\n    /* \"#utility.yul\":2034:2054   */\n  tag_56\n  tag_57\n  jump\t// in\ntag_56:\n    /* \"#utility.yul\":2024:2054   */\n  swap1\n  pop\n    /* \"#utility.yul\":2063:2096   */\n  tag_58\n    /* \"#utility.yul\":2091:2095   */\n  dup3\n    /* \"#utility.yul\":2083:2089   */\n  dup3\n    /* \"#utility.yul\":2063:2096   */\n  tag_59\n  jump\t// in\ntag_58:\n    /* \"#utility.yul\":1973:2102   */\n  swap2\n  swap1\n  pop\n  jump\t// out\n    /* \"#utility.yul\":2108:2183   */\ntag_57:\n    /* \"#utility.yul\":2141:2147   */\n  0x00\n    /* \"#utility.yul\":2174:2176   */\n  0x40\n    /* \"#utility.yul\":2168:2177   */\n  mload\n    /* \"#utility.yul\":2158:2177   */\n  swap1\n  pop\n    /* \"#utility.yul\":2108:2183   */\n  swap1\n  jump\t// out\n    /* \"#utility.yul\":2189:2497   */\ntag_26:\n    /* \"#utility.yul\":2251:2255   */\n  0x00\n    /* \"#utility.yul\":2341:2359   */\n  0xffffffffffffffff\n    /* \"#utility.yul\":2333:2339   */\n  dup3\n    /* \"#utility.yul\":2330:2360   */\n  gt\n    /* \"#utility.yul\":2327:2383   */\n  iszero\n  tag_62\n  jumpi\n    /* \"#utility.yul\":2363:2381   */\n  tag_63\n  tag_64\n  jump\t// in\ntag_63:\n    /* \"#utility.yul\":2327:2383   */\ntag_62:\n    /* \"#utility.yul\":2401:2430   */\n  tag_65\n    /* \"#utility.yul\":2423:2429   */\n  dup3\n    /* \"#utility.yul\":2401:2430   */\n  tag_66\n  jump\t// in\ntag_65:\n    /* \"#utility.yul\":2393:2430   */\n  swap1\n  pop\n    /* \"#utility.yul\":2485:2489   */\n  0x20\n    /* \"#utility.yul\":2479:2483   */\n  dup2\n    /* \"#utility.yul\":2475:2490   */\n  add\n    /* \"#utility.yul\":2467:2490   */\n  swap1\n  pop\n    /* \"#utility.yul\":2189:2497   */\n  swap2\n  swap1\n  pop\n  jump\t// out\n    /* \"#utility.yul\":2503:2580   */\ntag_67:\n    /* \"#utility.yul\":2540:2547   */\n  0x00\n    /* \"#utility.yul\":2569:2574   */\n  dup2\n    /* \"#utility.yul\":2558:2574   */\n  swap1\n  pop\n    /* \"#utility.yul\":2503:2580   */\n  swap2\n  swap1\n  pop\n  jump\t// out\n    /* \"#utility.yul\":2586:2893   */\ntag_32:\n    /* \"#utility.yul\":2654:2655   */\n  0x00\n    /* \"#utility.yul\":2664:2777   */\ntag_70:\n    /* \"#utility.yul\":2678:2684   */\n  dup4\n    /* \"#utility.yul\":2675:2676   */\n  dup2\n    /* \"#utility.yul\":2672:2685   */\n  lt\n    /* \"#utility.yul\":2664:2777   */\n  iszero\n  tag_72\n  jumpi\n    /* \"#utility.yul\":2763:2764   */\n  dup1\n    /* \"#utility.yul\":2758:2761   */\n  dup3\n    /* \"#utility.yul\":2754:2765   */\n  add\n    /* \"#utility.yul\":2748:2766   */\n  mload\n    /* \"#utility.yul\":2744:2745   */\n  dup2\n    /* \"#utility.yul\":2739:2742   */\n  dup5\n    /* \"#utility.yul\":2735:2746   */\n  add\n    /* \"#utility.yul\":2728:2767   */\n  mstore\n    /* \"#utility.yul\":2700:2702   */\n  0x20\n    /* \"#utility.yul\":2697:2698   */\n  dup2\n    /* \"#utility.yul\":2693:2703   */\n  add\n    /* \"#utility.yul\":2688:2703   */\n  swap1\n  pop\n    /* \"#utility.yul\":2664:2777   */\n  jump(tag_70)\ntag_72:\n    /* \"#utility.yul\":2795:2801   */\n  dup4\n    /* \"#utility.yul\":2792:2793   */\n  dup2\n    /* \"#utility.yul\":2789:2802   */\n  gt\n    /* \"#utility.yul\":2786:2887   */\n  iszero\n  tag_73\n  jumpi\n    /* \"#utility.yul\":2875:2876   */\n  0x00\n    /* \"#utility.yul\":2866:2872   */\n  dup5\n    /* \"#utility.yul\":2861:2864   */\n  dup5\n    /* \"#utility.yul\":2857:2873   */\n  add\n    /* \"#utility.yul\":2850:2877   */\n  mstore\n    /* \"#utility.yul\":2786:2887   */\ntag_73:\n    /* \"#utility.yul\":2635:2893   */\n  pop\n    /* \"#utility.yul\":2586:2893   */\n  pop\n  pop\n  pop\n  jump\t// out\n    /* \"#utility.yul\":2899:3219   */\ntag_11:\n    /* \"#utility.yul\":2943:2949   */\n  0x00\n    /* \"#utility.yul\":2980:2981   */\n  0x02\n    /* \"#utility.yul\":2974:2978   */\n  dup3\n    /* \"#utility.yul\":2970:2982   */\n  div\n    /* \"#utility.yul\":2960:2982   */\n  swap1\n  pop\n    /* \"#utility.yul\":3027:3028   */\n  0x01\n    /* \"#utility.yul\":3021:3025   */\n  dup3\n    /* \"#utility.yul\":3017:3029   */\n  and\n    /* \"#utility.yul\":3048:3066   */\n  dup1\n    /* \"#utility.yul\":3038:3119   */\n  tag_75\n  jumpi\n    /* \"#utility.yul\":3104:3108   */\n  0x7f\n    /* \"#utility.yul\":3096:3102   */\n  dup3\n    /* \"#utility.yul\":3092:3109   */\n  and\n    /* \"#utility.yul\":3082:3109   */\n  swap2\n  pop\n    /* \"#utility.yul\":3038:3119   */\ntag_75:\n    /* \"#utility.yul\":3166:3168   */\n  0x20\n    /* \"#utility.yul\":3158:3164   */\n  dup3\n    /* \"#utility.yul\":3155:3169   */\n  lt\n    /* \"#utility.yul\":3135:3153   */\n  dup2\n    /* \"#utility.yul\":3132:3170   */\n  eq\n    /* \"#utility.yul\":3129:3213   */\n  iszero\n  tag_76\n  jumpi\n    /* \"#utility.yul\":3185:3203   */\n  tag_77\n  tag_78\n  jump\t// in\ntag_77:\n    /* \"#utility.yul\":3129:3213   */\ntag_76:\n    /* \"#utility.yul\":2950:3219   */\n  pop\n    /* \"#utility.yul\":2899:3219   */\n  swap2\n  swap1\n  pop\n  jump\t// out\n    /* \"#utility.yul\":3225:3506   */\ntag_59:\n    /* \"#utility.yul\":3308:3335   */\n  tag_80\n    /* \"#utility.yul\":3330:3334   */\n  dup3\n    /* \"#utility.yul\":3308:3335   */\n  tag_66\n  jump\t// in\ntag_80:\n    /* \"#utility.yul\":3300:3306   */\n  dup2\n    /* \"#utility.yul\":3296:3336   */\n  add\n    /* \"#utility.yul\":3438:3444   */\n  dup2\n    /* \"#utility.yul\":3426:3436   */\n  dup2\n    /* \"#utility.yul\":3423:3445   */\n  lt\n    /* \"#utility.yul\":3402:3420   */\n  0xffffffffffffffff\n    /* \"#utility.yul\":3390:3400   */\n  dup3\n    /* \"#utility.yul\":3387:3421   */\n  gt\n    /* \"#utility.yul\":3384:3446   */\n  or\n    /* \"#utility.yul\":3381:3469   */\n  iszero\n  tag_81\n  jumpi\n    /* \"#utility.yul\":3449:3467   */\n  tag_82\n  tag_64\n  jump\t// in\ntag_82:\n    /* \"#utility.yul\":3381:3469   */\ntag_81:\n    /* \"#utility.yul\":3489:3499   */\n  dup1\n    /* \"#utility.yul\":3485:3487   */\n  0x40\n    /* \"#utility.yul\":3478:3500   */\n  mstore\n    /* \"#utility.yul\":3268:3506   */\n  pop\n    /* \"#utility.yul\":3225:3506   */\n  pop\n  pop\n  jump\t// out\n    /* \"#utility.yul\":3512:3692   */\ntag_78:\n    /* \"#utility.yul\":3560:3637   */\n  0x4e487b7100000000000000000000000000000000000000000000000000000000\n    /* \"#utility.yul\":3557:3558   */\n  0x00\n    /* \"#utility.yul\":3550:3638   */\n  mstore\n    /* \"#utility.yul\":3657:3661   */\n  0x22\n    /* \"#utility.yul\":3654:3655   */\n  0x04\n    /* \"#utility.yul\":3647:3662   */\n  mstore\n    /* \"#utility.yul\":3681:3685   */\n  0x24\n    /* \"#utility.yul\":3678:3679   */\n  0x00\n    /* \"#utility.yul\":3671:3686   */\n  revert\n    /* \"#utility.yul\":3698:3878   */\ntag_64:\n    /* \"#utility.yul\":3746:3823   */\n  0x4e487b7100000000000000000000000000000000000000000000000000000000\n    /* \"#utility.yul\":3743:3744   */\n  0x00\n    /* \"#utility.yul\":3736:3824   */\n  mstore\n    /* \"#utility.yul\":3843:3847   */\n  0x41\n    /* \"#utility.yul\":3840:3841   */\n  0x04\n    /* \"#utility.yul\":3833:3848   */\n  mstore\n    /* \"#utility.yul\":3867:3871   */\n  0x24\n    /* \"#utility.yul\":3864:3865   */\n  0x00\n    /* \"#utility.yul\":3857:3872   */\n  revert\n    /* \"#utility.yul\":3884:4001   */\ntag_37:\n    /* \"#utility.yul\":3993:3994   */\n  0x00\n    /* \"#utility.yul\":3990:3991   */\n  dup1\n    /* \"#utility.yul\":3983:3995   */\n  revert\n    /* \"#utility.yul\":4007:4124   */\ntag_30:\n    /* \"#utility.yul\":4116:4117   */\n  0x00\n    /* \"#utility.yul\":4113:4114   */\n  dup1\n    /* \"#utility.yul\":4106:4118   */\n  revert\n    /* \"#utility.yul\":4130:4247   */\ntag_49:\n    /* \"#utility.yul\":4239:4240   */\n  0x00\n    /* \"#utility.yul\":4236:4237   */\n  dup1\n    /* \"#utility.yul\":4229:4241   */\n  revert\n    /* \"#utility.yul\":4253:4370   */\ntag_46:\n    /* \"#utility.yul\":4362:4363   */\n  0x00\n    /* \"#utility.yul\":4359:4360   */\n  dup1\n    /* \"#utility.yul\":4352:4364   */\n  revert\n    /* \"#utility.yul\":4376:4478   */\ntag_66:\n    /* \"#utility.yul\":4417:4423   */\n  0x00\n    /* \"#utility.yul\":4468:4470   */\n  0x1f\n    /* \"#utility.yul\":4464:4471   */\n  not\n    /* \"#utility.yul\":4459:4461   */\n  0x1f\n    /* \"#utility.yul\":4452:4457   */\n  dup4\n    /* \"#utility.yul\":4448:4462   */\n  add\n    /* \"#utility.yul\":4444:4472   */\n  and\n    /* \"#utility.yul\":4434:4472   */\n  swap1\n  pop\n    /* \"#utility.yul\":4376:4478   */\n  swap2\n  swap1\n  pop\n  jump\t// out\n    /* \"#utility.yul\":4484:4606   */\ntag_42:\n    /* \"#utility.yul\":4557:4581   */\n  tag_91\n    /* \"#utility.yul\":4575:4580   */\n  dup2\n    /* \"#utility.yul\":4557:4581   */\n  tag_67\n  jump\t// in\ntag_91:\n    /* \"#utility.yul\":4550:4555   */\n  dup2\n    /* \"#utility.yul\":4547:4582   */\n  eq\n    /* \"#utility.yul\":4537:4600   */\n  tag_92\n  jumpi\n    /* \"#utility.yul\":4596:4597   */\n  0x00\n    /* \"#utility.yul\":4593:4594   */\n  dup1\n    /* \"#utility.yul\":4586:4598   */\n  revert\n    /* \"#utility.yul\":4537:4600   */\ntag_92:\n    /* \"#utility.yul\":4484:4606   */\n  pop\n  jump\t// out\n    /* \"contracts/4_Product.sol\":35:11577  contract ProductSC {\r... */\ntag_9:\n  dataSize(sub_0)\n  dup1\n  dataOffset(sub_0)\n  0x00\n  codecopy\n  0x00\n  return\nstop\n\nsub_0: assembly {\n        /* \"contracts/4_Product.sol\":35:11577  contract ProductSC {\r... */\n      mstore(0x40, 0x80)\n      jumpi(tag_1, lt(calldatasize, 0x04))\n      shr(0xe0, calldataload(0x00))\n      dup1\n      0x95d89b41\n      gt\n      tag_17\n      jumpi\n      dup1\n      0xa4821719\n      gt\n      tag_18\n      jumpi\n      dup1\n      0xa4821719\n      eq\n      tag_13\n      jumpi\n      dup1\n      0xb292abf1\n      eq\n      tag_14\n      jumpi\n      dup1\n      0xcd0c5896\n      eq\n      tag_15\n      jumpi\n      dup1\n      0xeedc966a\n      eq\n      tag_16\n      jumpi\n      jump(tag_1)\n    tag_18:\n      dup1\n      0x95d89b41\n      eq\n      tag_9\n      jumpi\n      dup1\n      0x9dc29fac\n      eq\n      tag_10\n      jumpi\n      dup1\n      0xa0712d68\n      eq\n      tag_11\n      jumpi\n      dup1\n      0xa3e67610\n      eq\n      tag_12\n      jumpi\n      jump(tag_1)\n    tag_17:\n      dup1\n      0x561e0e98\n      gt\n      tag_19\n      jumpi\n      dup1\n      0x561e0e98\n      eq\n      tag_5\n      jumpi\n      dup1\n      0x6813b53b\n      eq\n      tag_6\n      jumpi\n      dup1\n      0x68cdafe6\n      eq\n      tag_7\n      jumpi\n      dup1\n      0x79a85e6c\n      eq\n      tag_8\n      jumpi\n      jump(tag_1)\n    tag_19:\n      dup1\n      0x06fdde03\n      eq\n      tag_2\n      jumpi\n      dup1\n      0x40932fc2\n      eq\n      tag_3\n      jumpi\n      dup1\n      0x53b62866\n      eq\n      tag_4\n      jumpi\n    tag_1:\n      0x00\n      dup1\n      revert\n        /* \"contracts/4_Product.sol\":67:85  string public name */\n    tag_2:\n      callvalue\n      dup1\n      iszero\n      tag_20\n      jumpi\n      0x00\n      dup1\n      revert\n    tag_20:\n      pop\n      tag_21\n      tag_22\n      jump\t// in\n    tag_21:\n      mload(0x40)\n      tag_23\n      swap2\n      swap1\n      tag_24\n      jump\t// in\n    tag_23:\n      mload(0x40)\n      dup1\n      swap2\n      sub\n      swap1\n      return\n        /* \"contracts/4_Product.sol\":7198:7457  function register(address _addr, Role _role, string memory _name) public {\r... */\n    tag_3:\n      callvalue\n      dup1\n      iszero\n      tag_25\n      jumpi\n      0x00\n      dup1\n      revert\n    tag_25:\n      pop\n      tag_26\n      0x04\n      dup1\n      calldatasize\n      sub\n      dup2\n      add\n      swap1\n      tag_27\n      swap2\n      swap1\n      tag_28\n      jump\t// in\n    tag_27:\n      tag_29\n      jump\t// in\n    tag_26:\n      stop\n        /* \"contracts/4_Product.sol\":8647:9297  function buyProduct(uint256 _id, uint256 _timestamp) public OnlyDistributor{\r... */\n    tag_4:\n      callvalue\n      dup1\n      iszero\n      tag_30\n      jumpi\n      0x00\n      dup1\n      revert\n    tag_30:\n      pop\n      tag_31\n      0x04\n      dup1\n      calldatasize\n      sub\n      dup2\n      add\n      swap1\n      tag_32\n      swap2\n      swap1\n      tag_33\n      jump\t// in\n    tag_32:\n      tag_34\n      jump\t// in\n    tag_31:\n      stop\n        /* \"contracts/4_Product.sol\":7576:8600  function produceProduct(uint256 _id, uint256 _timestamp, uint256 _price, string memory _name, string memory _brand, string memory _size, string memory _weight, string memory _length ,string memory _width ,string memory _height) public OnlyProducer{\r... */\n    tag_5:\n      callvalue\n      dup1\n      iszero\n      tag_35\n      jumpi\n      0x00\n      dup1\n      revert\n    tag_35:\n      pop\n      tag_36\n      0x04\n      dup1\n      calldatasize\n      sub\n      dup2\n      add\n      swap1\n      tag_37\n      swap2\n      swap1\n      tag_38\n      jump\t// in\n    tag_37:\n      tag_39\n      jump\t// in\n    tag_36:\n      stop\n        /* \"contracts/4_Product.sol\":10258:11354  function getProductDetails(uint256 _id) public view returns \r... */\n    tag_6:\n      callvalue\n      dup1\n      iszero\n      tag_40\n      jumpi\n      0x00\n      dup1\n      revert\n    tag_40:\n      pop\n      tag_41\n      0x04\n      dup1\n      calldatasize\n      sub\n      dup2\n      add\n      swap1\n      tag_42\n      swap2\n      swap1\n      tag_43\n      jump\t// in\n    tag_42:\n      tag_44\n      jump\t// in\n    tag_41:\n      mload(0x40)\n      tag_45\n      swap12\n      swap11\n      swap10\n      swap9\n      swap8\n      swap7\n      swap6\n      swap5\n      swap4\n      swap3\n      swap2\n      swap1\n      tag_46\n      jump\t// in\n    tag_45:\n      mload(0x40)\n      dup1\n      swap2\n      sub\n      swap1\n      return\n        /* \"contracts/4_Product.sol\":6830:7186  function tokenTransfer(address _to, uint256 _amount) public returns (bool) {\r... */\n    tag_7:\n      callvalue\n      dup1\n      iszero\n      tag_47\n      jumpi\n      0x00\n      dup1\n      revert\n    tag_47:\n      pop\n      tag_48\n      0x04\n      dup1\n      calldatasize\n      sub\n      dup2\n      add\n      swap1\n      tag_49\n      swap2\n      swap1\n      tag_50\n      jump\t// in\n    tag_49:\n      tag_51\n      jump\t// in\n    tag_48:\n      mload(0x40)\n      tag_52\n      swap2\n      swap1\n      tag_53\n      jump\t// in\n    tag_52:\n      mload(0x40)\n      dup1\n      swap2\n      sub\n      swap1\n      return\n        /* \"contracts/4_Product.sol\":9370:10252  function getProductInfo(uint256 _id) public view returns \r... */\n    tag_8:\n      callvalue\n      dup1\n      iszero\n      tag_54\n      jumpi\n      0x00\n      dup1\n      revert\n    tag_54:\n      pop\n      tag_55\n      0x04\n      dup1\n      calldatasize\n      sub\n      dup2\n      add\n      swap1\n      tag_56\n      swap2\n      swap1\n      tag_43\n      jump\t// in\n    tag_56:\n      tag_57\n      jump\t// in\n    tag_55:\n      mload(0x40)\n      tag_58\n      swap10\n      swap9\n      swap8\n      swap7\n      swap6\n      swap5\n      swap4\n      swap3\n      swap2\n      swap1\n      tag_59\n      jump\t// in\n    tag_58:\n      mload(0x40)\n      dup1\n      swap2\n      sub\n      swap1\n      return\n        /* \"contracts/4_Product.sol\":114:134  string public symbol */\n    tag_9:\n      callvalue\n      dup1\n      iszero\n      tag_60\n      jumpi\n      0x00\n      dup1\n      revert\n    tag_60:\n      pop\n      tag_61\n      tag_62\n      jump\t// in\n    tag_61:\n      mload(0x40)\n      tag_63\n      swap2\n      swap1\n      tag_24\n      jump\t// in\n    tag_63:\n      mload(0x40)\n      dup1\n      swap2\n      sub\n      swap1\n      return\n        /* \"contracts/4_Product.sol\":5784:6201  function burn(address _account, uint256 _amount) public OnlyTokenOwner {\r... */\n    tag_10:\n      callvalue\n      dup1\n      iszero\n      tag_64\n      jumpi\n      0x00\n      dup1\n      revert\n    tag_64:\n      pop\n      tag_65\n      0x04\n      dup1\n      calldatasize\n      sub\n      dup2\n      add\n      swap1\n      tag_66\n      swap2\n      swap1\n      tag_50\n      jump\t// in\n    tag_66:\n      tag_67\n      jump\t// in\n    tag_65:\n      stop\n        /* \"contracts/4_Product.sol\":4075:4297  function mint(uint256 _amount) public OnlyTokenOwner {\r... */\n    tag_11:\n      callvalue\n      dup1\n      iszero\n      tag_68\n      jumpi\n      0x00\n      dup1\n      revert\n    tag_68:\n      pop\n      tag_69\n      0x04\n      dup1\n      calldatasize\n      sub\n      dup2\n      add\n      swap1\n      tag_70\n      swap2\n      swap1\n      tag_43\n      jump\t// in\n    tag_70:\n      tag_71\n      jump\t// in\n    tag_69:\n      stop\n        /* \"contracts/4_Product.sol\":165:199  address payable public  tokenOwner */\n    tag_12:\n      callvalue\n      dup1\n      iszero\n      tag_72\n      jumpi\n      0x00\n      dup1\n      revert\n    tag_72:\n      pop\n      tag_73\n      tag_74\n      jump\t// in\n    tag_73:\n      mload(0x40)\n      tag_75\n      swap2\n      swap1\n      tag_76\n      jump\t// in\n    tag_75:\n      mload(0x40)\n      dup1\n      swap2\n      sub\n      swap1\n      return\n        /* \"contracts/4_Product.sol\":6259:6756  function buyToken() public payable {\r... */\n    tag_13:\n      tag_77\n      tag_78\n      jump\t// in\n    tag_77:\n      stop\n        /* \"contracts/4_Product.sol\":11396:11572  function getActorInfo(address _addr) public view returns\r... */\n    tag_14:\n      callvalue\n      dup1\n      iszero\n      tag_79\n      jumpi\n      0x00\n      dup1\n      revert\n    tag_79:\n      pop\n      tag_80\n      0x04\n      dup1\n      calldatasize\n      sub\n      dup2\n      add\n      swap1\n      tag_81\n      swap2\n      swap1\n      tag_82\n      jump\t// in\n    tag_81:\n      tag_83\n      jump\t// in\n    tag_80:\n      mload(0x40)\n      tag_84\n      swap3\n      swap2\n      swap1\n      tag_85\n      jump\t// in\n    tag_84:\n      mload(0x40)\n      dup1\n      swap2\n      sub\n      swap1\n      return\n        /* \"contracts/4_Product.sol\":3853:3959  function etherBalance(address _addr) public view returns (uint256) {\r... */\n    tag_15:\n      callvalue\n      dup1\n      iszero\n      tag_86\n      jumpi\n      0x00\n      dup1\n      revert\n    tag_86:\n      pop\n      tag_87\n      0x04\n      dup1\n      calldatasize\n      sub\n      dup2\n      add\n      swap1\n      tag_88\n      swap2\n      swap1\n      tag_82\n      jump\t// in\n    tag_88:\n      tag_89\n      jump\t// in\n    tag_87:\n      mload(0x40)\n      tag_90\n      swap2\n      swap1\n      tag_91\n      jump\t// in\n    tag_90:\n      mload(0x40)\n      dup1\n      swap2\n      sub\n      swap1\n      return\n        /* \"contracts/4_Product.sol\":3679:3787  function tokenBalance(address _addr) public view returns (uint256) {\r... */\n    tag_16:\n      callvalue\n      dup1\n      iszero\n      tag_92\n      jumpi\n      0x00\n      dup1\n      revert\n    tag_92:\n      pop\n      tag_93\n      0x04\n      dup1\n      calldatasize\n      sub\n      dup2\n      add\n      swap1\n      tag_94\n      swap2\n      swap1\n      tag_82\n      jump\t// in\n    tag_94:\n      tag_95\n      jump\t// in\n    tag_93:\n      mload(0x40)\n      tag_96\n      swap2\n      swap1\n      tag_91\n      jump\t// in\n    tag_96:\n      mload(0x40)\n      dup1\n      swap2\n      sub\n      swap1\n      return\n        /* \"contracts/4_Product.sol\":67:85  string public name */\n    tag_22:\n      0x00\n      dup1\n      sload\n      tag_97\n      swap1\n      tag_98\n      jump\t// in\n    tag_97:\n      dup1\n      0x1f\n      add\n      0x20\n      dup1\n      swap2\n      div\n      mul\n      0x20\n      add\n      mload(0x40)\n      swap1\n      dup2\n      add\n      0x40\n      mstore\n      dup1\n      swap3\n      swap2\n      swap1\n      dup2\n      dup2\n      mstore\n      0x20\n      add\n      dup3\n      dup1\n      sload\n      tag_99\n      swap1\n      tag_98\n      jump\t// in\n    tag_99:\n      dup1\n      iszero\n      tag_100\n      jumpi\n      dup1\n      0x1f\n      lt\n      tag_101\n      jumpi\n      0x0100\n      dup1\n      dup4\n      sload\n      div\n      mul\n      dup4\n      mstore\n      swap2\n      0x20\n      add\n      swap2\n      jump(tag_100)\n    tag_101:\n      dup3\n      add\n      swap2\n      swap1\n      0x00\n      mstore\n      keccak256(0x00, 0x20)\n      swap1\n    tag_102:\n      dup2\n      sload\n      dup2\n      mstore\n      swap1\n      0x01\n      add\n      swap1\n      0x20\n      add\n      dup1\n      dup4\n      gt\n      tag_102\n      jumpi\n      dup3\n      swap1\n      sub\n      0x1f\n      and\n      dup3\n      add\n      swap2\n    tag_100:\n      pop\n      pop\n      pop\n      pop\n      pop\n      dup2\n      jump\t// out\n        /* \"contracts/4_Product.sol\":7198:7457  function register(address _addr, Role _role, string memory _name) public {\r... */\n    tag_29:\n        /* \"contracts/4_Product.sol\":7282:7300  Actor memory actor */\n      0x00\n        /* \"contracts/4_Product.sol\":7303:7309  actors */\n      0x05\n        /* \"contracts/4_Product.sol\":7303:7316  actors[_addr] */\n      0x00\n        /* \"contracts/4_Product.sol\":7310:7315  _addr */\n      dup6\n        /* \"contracts/4_Product.sol\":7303:7316  actors[_addr] */\n      0xffffffffffffffffffffffffffffffffffffffff\n      and\n      0xffffffffffffffffffffffffffffffffffffffff\n      and\n      dup2\n      mstore\n      0x20\n      add\n      swap1\n      dup2\n      mstore\n      0x20\n      add\n      0x00\n      keccak256\n        /* \"contracts/4_Product.sol\":7282:7316  Actor memory actor = actors[_addr] */\n      mload(0x40)\n      dup1\n      0x60\n      add\n      0x40\n      mstore\n      swap1\n      dup2\n      0x00\n      dup3\n      add\n      0x00\n      swap1\n      sload\n      swap1\n      0x0100\n      exp\n      swap1\n      div\n      0xff\n      and\n      0x04\n      dup2\n      gt\n      iszero\n      tag_104\n      jumpi\n      tag_105\n      tag_106\n      jump\t// in\n    tag_105:\n    tag_104:\n      0x04\n      dup2\n      gt\n      iszero\n      tag_107\n      jumpi\n      tag_108\n      tag_106\n      jump\t// in\n    tag_108:\n    tag_107:\n      dup2\n      mstore\n      0x20\n      add\n      0x01\n      dup3\n      add\n      dup1\n      sload\n      tag_109\n      swap1\n      tag_98\n      jump\t// in\n    tag_109:\n      dup1\n      0x1f\n      add\n      0x20\n      dup1\n      swap2\n      div\n      mul\n      0x20\n      add\n      mload(0x40)\n      swap1\n      dup2\n      add\n      0x40\n      mstore\n      dup1\n      swap3\n      swap2\n      swap1\n      dup2\n      dup2\n      mstore\n      0x20\n      add\n      dup3\n      dup1\n      sload\n      tag_110\n      swap1\n      tag_98\n      jump\t// in\n    tag_110:\n      dup1\n      iszero\n      tag_111\n      jumpi\n      dup1\n      0x1f\n      lt\n      tag_112\n      jumpi\n      0x0100\n      dup1\n      dup4\n      sload\n      div\n      mul\n      dup4\n      mstore\n      swap2\n      0x20\n      add\n      swap2\n      jump(tag_111)\n    tag_112:\n      dup3\n      add\n      swap2\n      swap1\n      0x00\n      mstore\n      keccak256(0x00, 0x20)\n      swap1\n    tag_113:\n      dup2\n      sload\n      dup2\n      mstore\n      swap1\n      0x01\n      add\n      swap1\n      0x20\n      add\n      dup1\n      dup4\n      gt\n      tag_113\n      jumpi\n      dup3\n      swap1\n      sub\n      0x1f\n      and\n      dup3\n      add\n      swap2\n    tag_111:\n      pop\n      pop\n      pop\n      pop\n      pop\n      dup2\n      mstore\n      0x20\n      add\n      0x02\n      dup3\n      add\n      0x00\n      swap1\n      sload\n      swap1\n      0x0100\n      exp\n      swap1\n      div\n      0xff\n      and\n      iszero\n      iszero\n      iszero\n      iszero\n      dup2\n      mstore\n      pop\n      pop\n      swap1\n      pop\n        /* \"contracts/4_Product.sol\":7340:7345  _role */\n      dup3\n        /* \"contracts/4_Product.sol\":7327:7332  actor */\n      dup2\n        /* \"contracts/4_Product.sol\":7327:7337  actor.role */\n      0x00\n      add\n        /* \"contracts/4_Product.sol\":7327:7345  actor.role = _role */\n      swap1\n      0x04\n      dup2\n      gt\n      iszero\n      tag_114\n      jumpi\n      tag_115\n      tag_106\n      jump\t// in\n    tag_115:\n    tag_114:\n      swap1\n      dup2\n      0x04\n      dup2\n      gt\n      iszero\n      tag_116\n      jumpi\n      tag_117\n      tag_106\n      jump\t// in\n    tag_117:\n    tag_116:\n      dup2\n      mstore\n      pop\n      pop\n        /* \"contracts/4_Product.sol\":7369:7374  _name */\n      dup2\n        /* \"contracts/4_Product.sol\":7356:7361  actor */\n      dup2\n        /* \"contracts/4_Product.sol\":7356:7366  actor.name */\n      0x20\n      add\n        /* \"contracts/4_Product.sol\":7356:7374  actor.name = _name */\n      dup2\n      swap1\n      mstore\n      pop\n        /* \"contracts/4_Product.sol\":7403:7407  true */\n      0x01\n        /* \"contracts/4_Product.sol\":7385:7390  actor */\n      dup2\n        /* \"contracts/4_Product.sol\":7385:7400  actor.isDefined */\n      0x40\n      add\n        /* \"contracts/4_Product.sol\":7385:7407  actor.isDefined = true */\n      swap1\n      iszero\n      iszero\n      swap1\n      dup2\n      iszero\n      iszero\n      dup2\n      mstore\n      pop\n      pop\n        /* \"contracts/4_Product.sol\":7434:7439  actor */\n      dup1\n        /* \"contracts/4_Product.sol\":7418:7424  actors */\n      0x05\n        /* \"contracts/4_Product.sol\":7418:7431  actors[_addr] */\n      0x00\n        /* \"contracts/4_Product.sol\":7425:7430  _addr */\n      dup7\n        /* \"contracts/4_Product.sol\":7418:7431  actors[_addr] */\n      0xffffffffffffffffffffffffffffffffffffffff\n      and\n      0xffffffffffffffffffffffffffffffffffffffff\n      and\n      dup2\n      mstore\n      0x20\n      add\n      swap1\n      dup2\n      mstore\n      0x20\n      add\n      0x00\n      keccak256\n        /* \"contracts/4_Product.sol\":7418:7439  actors[_addr] = actor */\n      0x00\n      dup3\n      add\n      mload\n      dup2\n      0x00\n      add\n      exp(0x0100, 0x00)\n      dup2\n      sload\n      dup2\n      0xff\n      mul\n      not\n      and\n      swap1\n      dup4\n      0x04\n      dup2\n      gt\n      iszero\n      tag_118\n      jumpi\n      tag_119\n      tag_106\n      jump\t// in\n    tag_119:\n    tag_118:\n      mul\n      or\n      swap1\n      sstore\n      pop\n      0x20\n      dup3\n      add\n      mload\n      dup2\n      0x01\n      add\n      swap1\n      dup1\n      mload\n      swap1\n      0x20\n      add\n      swap1\n      tag_120\n      swap3\n      swap2\n      swap1\n      tag_121\n      jump\t// in\n    tag_120:\n      pop\n      0x40\n      dup3\n      add\n      mload\n      dup2\n      0x02\n      add\n      exp(0x0100, 0x00)\n      dup2\n      sload\n      dup2\n      0xff\n      mul\n      not\n      and\n      swap1\n      dup4\n      iszero\n      iszero\n      mul\n      or\n      swap1\n      sstore\n      pop\n      swap1\n      pop\n      pop\n        /* \"contracts/4_Product.sol\":7271:7457  {\r... */\n      pop\n        /* \"contracts/4_Product.sol\":7198:7457  function register(address _addr, Role _role, string memory _name) public {\r... */\n      pop\n      pop\n      pop\n      jump\t// out\n        /* \"contracts/4_Product.sol\":8647:9297  function buyProduct(uint256 _id, uint256 _timestamp) public OnlyDistributor{\r... */\n    tag_34:\n        /* \"contracts/4_Product.sol\":2969:2985  Role.Distributor */\n      0x01\n        /* \"contracts/4_Product.sol\":2942:2985  actors[msg.sender].role == Role.Distributor */\n      0x04\n      dup2\n      gt\n      iszero\n      tag_123\n      jumpi\n      tag_124\n      tag_106\n      jump\t// in\n    tag_124:\n    tag_123:\n        /* \"contracts/4_Product.sol\":2942:2948  actors */\n      0x05\n        /* \"contracts/4_Product.sol\":2942:2960  actors[msg.sender] */\n      0x00\n        /* \"contracts/4_Product.sol\":2949:2959  msg.sender */\n      caller\n        /* \"contracts/4_Product.sol\":2942:2960  actors[msg.sender] */\n      0xffffffffffffffffffffffffffffffffffffffff\n      and\n      0xffffffffffffffffffffffffffffffffffffffff\n      and\n      dup2\n      mstore\n      0x20\n      add\n      swap1\n      dup2\n      mstore\n      0x20\n      add\n      0x00\n      keccak256\n        /* \"contracts/4_Product.sol\":2942:2965  actors[msg.sender].role */\n      0x00\n      add\n      0x00\n      swap1\n      sload\n      swap1\n      0x0100\n      exp\n      swap1\n      div\n      0xff\n      and\n        /* \"contracts/4_Product.sol\":2942:2985  actors[msg.sender].role == Role.Distributor */\n      0x04\n      dup2\n      gt\n      iszero\n      tag_125\n      jumpi\n      tag_126\n      tag_106\n      jump\t// in\n    tag_126:\n    tag_125:\n      eq\n        /* \"contracts/4_Product.sol\":2934:3018  require(actors[msg.sender].role == Role.Distributor, 'caller is not a distributor.') */\n      tag_127\n      jumpi\n      mload(0x40)\n      0x08c379a000000000000000000000000000000000000000000000000000000000\n      dup2\n      mstore\n      0x04\n      add\n      tag_128\n      swap1\n      tag_129\n      jump\t// in\n    tag_128:\n      mload(0x40)\n      dup1\n      swap2\n      sub\n      swap1\n      revert\n    tag_127:\n        /* \"contracts/4_Product.sol\":8733:8762  Product storage boughtProduct */\n      0x00\n        /* \"contracts/4_Product.sol\":8765:8772  product */\n      0x06\n        /* \"contracts/4_Product.sol\":8765:8777  product[_id] */\n      0x00\n        /* \"contracts/4_Product.sol\":8773:8776  _id */\n      dup5\n        /* \"contracts/4_Product.sol\":8765:8777  product[_id] */\n      dup2\n      mstore\n      0x20\n      add\n      swap1\n      dup2\n      mstore\n      0x20\n      add\n      0x00\n      keccak256\n        /* \"contracts/4_Product.sol\":8733:8777  Product storage boughtProduct = product[_id] */\n      swap1\n      pop\n        /* \"contracts/4_Product.sol\":8788:8807  uint256 tokenNumber */\n      0x00\n        /* \"contracts/4_Product.sol\":8810:8818  balances */\n      0x04\n        /* \"contracts/4_Product.sol\":8810:8830  balances[msg.sender] */\n      0x00\n        /* \"contracts/4_Product.sol\":8819:8829  msg.sender */\n      caller\n        /* \"contracts/4_Product.sol\":8810:8830  balances[msg.sender] */\n      0xffffffffffffffffffffffffffffffffffffffff\n      and\n      0xffffffffffffffffffffffffffffffffffffffff\n      and\n      dup2\n      mstore\n      0x20\n      add\n      swap1\n      dup2\n      mstore\n      0x20\n      add\n      0x00\n      keccak256\n      sload\n        /* \"contracts/4_Product.sol\":8788:8830  uint256 tokenNumber = balances[msg.sender] */\n      swap1\n      pop\n        /* \"contracts/4_Product.sol\":8864:8877  boughtProduct */\n      dup2\n        /* \"contracts/4_Product.sol\":8864:8890  boughtProduct.productPrice */\n      0x0a\n      add\n      sload\n        /* \"contracts/4_Product.sol\":8849:8860  tokenNumber */\n      dup2\n        /* \"contracts/4_Product.sol\":8849:8890  tokenNumber >= boughtProduct.productPrice */\n      lt\n      iszero\n        /* \"contracts/4_Product.sol\":8841:8891  require(tokenNumber >= boughtProduct.productPrice) */\n      tag_131\n      jumpi\n      0x00\n      dup1\n      revert\n    tag_131:\n        /* \"contracts/4_Product.sol\":8940:8954  State.Produced */\n      0x01\n        /* \"contracts/4_Product.sol\":8910:8954  boughtProduct.productState == State.Produced */\n      0x05\n      dup2\n      gt\n      iszero\n      tag_132\n      jumpi\n      tag_133\n      tag_106\n      jump\t// in\n    tag_133:\n    tag_132:\n        /* \"contracts/4_Product.sol\":8910:8923  boughtProduct */\n      dup3\n        /* \"contracts/4_Product.sol\":8910:8936  boughtProduct.productState */\n      0x09\n      add\n      0x00\n      swap1\n      sload\n      swap1\n      0x0100\n      exp\n      swap1\n      div\n      0xff\n      and\n        /* \"contracts/4_Product.sol\":8910:8954  boughtProduct.productState == State.Produced */\n      0x05\n      dup2\n      gt\n      iszero\n      tag_134\n      jumpi\n      tag_135\n      tag_106\n      jump\t// in\n    tag_135:\n    tag_134:\n      eq\n        /* \"contracts/4_Product.sol\":8902:8955  require(boughtProduct.productState == State.Produced) */\n      tag_136\n      jumpi\n      0x00\n      dup1\n      revert\n    tag_136:\n        /* \"contracts/4_Product.sol\":9004:9014  _timestamp */\n      dup3\n        /* \"contracts/4_Product.sol\":8976:8983  product */\n      0x06\n        /* \"contracts/4_Product.sol\":8976:8988  product[_id] */\n      0x00\n        /* \"contracts/4_Product.sol\":8984:8987  _id */\n      dup7\n        /* \"contracts/4_Product.sol\":8976:8988  product[_id] */\n      dup2\n      mstore\n      0x20\n      add\n      swap1\n      dup2\n      mstore\n      0x20\n      add\n      0x00\n      keccak256\n        /* \"contracts/4_Product.sol\":8976:8998  product[_id].timestamp */\n      0x03\n      add\n        /* \"contracts/4_Product.sol\":8999:9000  1 */\n      0x01\n        /* \"contracts/4_Product.sol\":8976:9001  product[_id].timestamp[1] */\n      0x06\n      dup2\n      lt\n      tag_137\n      jumpi\n      tag_138\n      tag_139\n      jump\t// in\n    tag_138:\n    tag_137:\n      add\n        /* \"contracts/4_Product.sol\":8976:9014  product[_id].timestamp[1] = _timestamp */\n      dup2\n      swap1\n      sstore\n      pop\n        /* \"contracts/4_Product.sol\":9091:9101  msg.sender */\n      caller\n        /* \"contracts/4_Product.sol\":9062:9069  product */\n      0x06\n        /* \"contracts/4_Product.sol\":9062:9074  product[_id] */\n      0x00\n        /* \"contracts/4_Product.sol\":9070:9073  _id */\n      dup7\n        /* \"contracts/4_Product.sol\":9062:9074  product[_id] */\n      dup2\n      mstore\n      0x20\n      add\n      swap1\n      dup2\n      mstore\n      0x20\n      add\n      0x00\n      keccak256\n        /* \"contracts/4_Product.sol\":9062:9088  product[_id].distributorID */\n      0x0b\n      add\n      0x00\n        /* \"contracts/4_Product.sol\":9062:9101  product[_id].distributorID = msg.sender */\n      0x0100\n      exp\n      dup2\n      sload\n      dup2\n      0xffffffffffffffffffffffffffffffffffffffff\n      mul\n      not\n      and\n      swap1\n      dup4\n      0xffffffffffffffffffffffffffffffffffffffff\n      and\n      mul\n      or\n      swap1\n      sstore\n      pop\n        /* \"contracts/4_Product.sol\":9117:9179  tokenTransfer(product[_id].ownerID,boughtProduct.productPrice) */\n      tag_141\n        /* \"contracts/4_Product.sol\":9131:9138  product */\n      0x06\n        /* \"contracts/4_Product.sol\":9131:9143  product[_id] */\n      0x00\n        /* \"contracts/4_Product.sol\":9139:9142  _id */\n      dup7\n        /* \"contracts/4_Product.sol\":9131:9143  product[_id] */\n      dup2\n      mstore\n      0x20\n      add\n      swap1\n      dup2\n      mstore\n      0x20\n      add\n      0x00\n      keccak256\n        /* \"contracts/4_Product.sol\":9131:9151  product[_id].ownerID */\n      0x01\n      add\n      0x00\n      swap1\n      sload\n      swap1\n      0x0100\n      exp\n      swap1\n      div\n      0xffffffffffffffffffffffffffffffffffffffff\n      and\n        /* \"contracts/4_Product.sol\":9152:9165  boughtProduct */\n      dup4\n        /* \"contracts/4_Product.sol\":9152:9178  boughtProduct.productPrice */\n      0x0a\n      add\n      sload\n        /* \"contracts/4_Product.sol\":9117:9130  tokenTransfer */\n      tag_51\n        /* \"contracts/4_Product.sol\":9117:9179  tokenTransfer(product[_id].ownerID,boughtProduct.productPrice) */\n      jump\t// in\n    tag_141:\n      pop\n        /* \"contracts/4_Product.sol\":9219:9234  State.Purchased */\n      0x05\n        /* \"contracts/4_Product.sol\":9191:9198  product */\n      0x06\n        /* \"contracts/4_Product.sol\":9191:9203  product[_id] */\n      0x00\n        /* \"contracts/4_Product.sol\":9199:9202  _id */\n      dup7\n        /* \"contracts/4_Product.sol\":9191:9203  product[_id] */\n      dup2\n      mstore\n      0x20\n      add\n      swap1\n      dup2\n      mstore\n      0x20\n      add\n      0x00\n      keccak256\n        /* \"contracts/4_Product.sol\":9191:9216  product[_id].productState */\n      0x09\n      add\n      0x00\n        /* \"contracts/4_Product.sol\":9191:9234  product[_id].productState = State.Purchased */\n      0x0100\n      exp\n      dup2\n      sload\n      dup2\n      0xff\n      mul\n      not\n      and\n      swap1\n      dup4\n      0x05\n      dup2\n      gt\n      iszero\n      tag_142\n      jumpi\n      tag_143\n      tag_106\n      jump\t// in\n    tag_143:\n    tag_142:\n      mul\n      or\n      swap1\n      sstore\n      pop\n        /* \"contracts/4_Product.sol\":9269:9279  msg.sender */\n      caller\n        /* \"contracts/4_Product.sol\":9246:9253  product */\n      0x06\n        /* \"contracts/4_Product.sol\":9246:9258  product[_id] */\n      0x00\n        /* \"contracts/4_Product.sol\":9254:9257  _id */\n      dup7\n        /* \"contracts/4_Product.sol\":9246:9258  product[_id] */\n      dup2\n      mstore\n      0x20\n      add\n      swap1\n      dup2\n      mstore\n      0x20\n      add\n      0x00\n      keccak256\n        /* \"contracts/4_Product.sol\":9246:9266  product[_id].ownerID */\n      0x01\n      add\n      0x00\n        /* \"contracts/4_Product.sol\":9246:9279  product[_id].ownerID = msg.sender */\n      0x0100\n      exp\n      dup2\n      sload\n      dup2\n      0xffffffffffffffffffffffffffffffffffffffff\n      mul\n      not\n      and\n      swap1\n      dup4\n      0xffffffffffffffffffffffffffffffffffffffff\n      and\n      mul\n      or\n      swap1\n      sstore\n      pop\n        /* \"contracts/4_Product.sol\":8722:9297  {\r... */\n      pop\n      pop\n        /* \"contracts/4_Product.sol\":8647:9297  function buyProduct(uint256 _id, uint256 _timestamp) public OnlyDistributor{\r... */\n      pop\n      pop\n      jump\t// out\n        /* \"contracts/4_Product.sol\":7576:8600  function produceProduct(uint256 _id, uint256 _timestamp, uint256 _price, string memory _name, string memory _brand, string memory _size, string memory _weight, string memory _length ,string memory _width ,string memory _height) public OnlyProducer{\r... */\n    tag_39:\n        /* \"contracts/4_Product.sol\":2821:2834  Role.Producer */\n      0x00\n        /* \"contracts/4_Product.sol\":2794:2834  actors[msg.sender].role == Role.Producer */\n      0x04\n      dup2\n      gt\n      iszero\n      tag_145\n      jumpi\n      tag_146\n      tag_106\n      jump\t// in\n    tag_146:\n    tag_145:\n        /* \"contracts/4_Product.sol\":2794:2800  actors */\n      0x05\n        /* \"contracts/4_Product.sol\":2794:2812  actors[msg.sender] */\n      0x00\n        /* \"contracts/4_Product.sol\":2801:2811  msg.sender */\n      caller\n        /* \"contracts/4_Product.sol\":2794:2812  actors[msg.sender] */\n      0xffffffffffffffffffffffffffffffffffffffff\n      and\n      0xffffffffffffffffffffffffffffffffffffffff\n      and\n      dup2\n      mstore\n      0x20\n      add\n      swap1\n      dup2\n      mstore\n      0x20\n      add\n      0x00\n      keccak256\n        /* \"contracts/4_Product.sol\":2794:2817  actors[msg.sender].role */\n      0x00\n      add\n      0x00\n      swap1\n      sload\n      swap1\n      0x0100\n      exp\n      swap1\n      div\n      0xff\n      and\n        /* \"contracts/4_Product.sol\":2794:2834  actors[msg.sender].role == Role.Producer */\n      0x04\n      dup2\n      gt\n      iszero\n      tag_147\n      jumpi\n      tag_148\n      tag_106\n      jump\t// in\n    tag_148:\n    tag_147:\n      eq\n        /* \"contracts/4_Product.sol\":2786:2863  require(actors[msg.sender].role == Role.Producer,'caller is not a producer.') */\n      tag_149\n      jumpi\n      mload(0x40)\n      0x08c379a000000000000000000000000000000000000000000000000000000000\n      dup2\n      mstore\n      0x04\n      add\n      tag_150\n      swap1\n      tag_151\n      jump\t// in\n    tag_150:\n      mload(0x40)\n      dup1\n      swap2\n      sub\n      swap1\n      revert\n    tag_149:\n        /* \"contracts/4_Product.sol\":7834:7860  Product storage newProduct */\n      0x00\n        /* \"contracts/4_Product.sol\":7863:7870  product */\n      0x06\n        /* \"contracts/4_Product.sol\":7863:7875  product[_id] */\n      0x00\n        /* \"contracts/4_Product.sol\":7871:7874  _id */\n      dup13\n        /* \"contracts/4_Product.sol\":7863:7875  product[_id] */\n      dup2\n      mstore\n      0x20\n      add\n      swap1\n      dup2\n      mstore\n      0x20\n      add\n      0x00\n      keccak256\n        /* \"contracts/4_Product.sol\":7834:7875  Product storage newProduct = product[_id] */\n      swap1\n      pop\n        /* \"contracts/4_Product.sol\":7902:7905  _id */\n      dup11\n        /* \"contracts/4_Product.sol\":7886:7896  newProduct */\n      dup2\n        /* \"contracts/4_Product.sol\":7886:7899  newProduct.ID */\n      0x00\n      add\n        /* \"contracts/4_Product.sol\":7886:7905  newProduct.ID = _id */\n      dup2\n      swap1\n      sstore\n      pop\n        /* \"contracts/4_Product.sol\":7937:7947  msg.sender */\n      caller\n        /* \"contracts/4_Product.sol\":7916:7926  newProduct */\n      dup2\n        /* \"contracts/4_Product.sol\":7916:7934  newProduct.ownerID */\n      0x01\n      add\n      0x00\n        /* \"contracts/4_Product.sol\":7916:7947  newProduct.ownerID = msg.sender */\n      0x0100\n      exp\n      dup2\n      sload\n      dup2\n      0xffffffffffffffffffffffffffffffffffffffff\n      mul\n      not\n      and\n      swap1\n      dup4\n      0xffffffffffffffffffffffffffffffffffffffff\n      and\n      mul\n      or\n      swap1\n      sstore\n      pop\n        /* \"contracts/4_Product.sol\":7982:7992  msg.sender */\n      caller\n        /* \"contracts/4_Product.sol\":7958:7968  newProduct */\n      dup2\n        /* \"contracts/4_Product.sol\":7958:7979  newProduct.producerID */\n      0x02\n      add\n      0x00\n        /* \"contracts/4_Product.sol\":7958:7992  newProduct.producerID = msg.sender */\n      0x0100\n      exp\n      dup2\n      sload\n      dup2\n      0xffffffffffffffffffffffffffffffffffffffff\n      mul\n      not\n      and\n      swap1\n      dup4\n      0xffffffffffffffffffffffffffffffffffffffff\n      and\n      mul\n      or\n      swap1\n      sstore\n      pop\n        /* \"contracts/4_Product.sol\":8029:8039  _timestamp */\n      dup10\n        /* \"contracts/4_Product.sol\":8003:8013  newProduct */\n      dup2\n        /* \"contracts/4_Product.sol\":8003:8023  newProduct.timestamp */\n      0x03\n      add\n        /* \"contracts/4_Product.sol\":8024:8025  0 */\n      0x00\n        /* \"contracts/4_Product.sol\":8003:8026  newProduct.timestamp[0] */\n      0x06\n      dup2\n      lt\n      tag_153\n      jumpi\n      tag_154\n      tag_139\n      jump\t// in\n    tag_154:\n    tag_153:\n      add\n        /* \"contracts/4_Product.sol\":8003:8039  newProduct.timestamp[0] = _timestamp */\n      dup2\n      swap1\n      sstore\n      pop\n        /* \"contracts/4_Product.sol\":8083:8097  State.Produced */\n      0x01\n        /* \"contracts/4_Product.sol\":8058:8068  newProduct */\n      dup2\n        /* \"contracts/4_Product.sol\":8058:8081  newProduct.productState */\n      0x09\n      add\n      0x00\n        /* \"contracts/4_Product.sol\":8058:8097  newProduct.productState= State.Produced */\n      0x0100\n      exp\n      dup2\n      sload\n      dup2\n      0xff\n      mul\n      not\n      and\n      swap1\n      dup4\n      0x05\n      dup2\n      gt\n      iszero\n      tag_156\n      jumpi\n      tag_157\n      tag_106\n      jump\t// in\n    tag_157:\n    tag_156:\n      mul\n      or\n      swap1\n      sstore\n      pop\n        /* \"contracts/4_Product.sol\":8140:8146  _price */\n      dup9\n        /* \"contracts/4_Product.sol\":8116:8126  newProduct */\n      dup2\n        /* \"contracts/4_Product.sol\":8116:8139  newProduct.productPrice */\n      0x0a\n      add\n        /* \"contracts/4_Product.sol\":8116:8146  newProduct.productPrice=_price */\n      dup2\n      swap1\n      sstore\n      pop\n        /* \"contracts/4_Product.sol\":8191:8192  0 */\n      0x00\n        /* \"contracts/4_Product.sol\":8158:8168  newProduct */\n      dup2\n        /* \"contracts/4_Product.sol\":8158:8182  newProduct.distributorID */\n      0x0b\n      add\n      0x00\n        /* \"contracts/4_Product.sol\":8158:8193  newProduct.distributorID=address(0) */\n      0x0100\n      exp\n      dup2\n      sload\n      dup2\n      0xffffffffffffffffffffffffffffffffffffffff\n      mul\n      not\n      and\n      swap1\n      dup4\n      0xffffffffffffffffffffffffffffffffffffffff\n      and\n      mul\n      or\n      swap1\n      sstore\n      pop\n        /* \"contracts/4_Product.sol\":8234:8235  0 */\n      0x00\n        /* \"contracts/4_Product.sol\":8204:8214  newProduct */\n      dup2\n        /* \"contracts/4_Product.sol\":8204:8225  newProduct.retailerID */\n      0x0c\n      add\n      0x00\n        /* \"contracts/4_Product.sol\":8204:8236  newProduct.retailerID=address(0) */\n      0x0100\n      exp\n      dup2\n      sload\n      dup2\n      0xffffffffffffffffffffffffffffffffffffffff\n      mul\n      not\n      and\n      swap1\n      dup4\n      0xffffffffffffffffffffffffffffffffffffffff\n      and\n      mul\n      or\n      swap1\n      sstore\n      pop\n        /* \"contracts/4_Product.sol\":8277:8278  0 */\n      0x00\n        /* \"contracts/4_Product.sol\":8247:8257  newProduct */\n      dup2\n        /* \"contracts/4_Product.sol\":8247:8268  newProduct.consumerID */\n      0x0d\n      add\n      0x00\n        /* \"contracts/4_Product.sol\":8247:8279  newProduct.consumerID=address(0) */\n      0x0100\n      exp\n      dup2\n      sload\n      dup2\n      0xffffffffffffffffffffffffffffffffffffffff\n      mul\n      not\n      and\n      swap1\n      dup4\n      0xffffffffffffffffffffffffffffffffffffffff\n      and\n      mul\n      or\n      swap1\n      sstore\n      pop\n        /* \"contracts/4_Product.sol\":8316:8321  _name */\n      dup8\n        /* \"contracts/4_Product.sol\":8290:8300  newProduct */\n      dup2\n        /* \"contracts/4_Product.sol\":8290:8308  newProduct.details */\n      0x0e\n      add\n        /* \"contracts/4_Product.sol\":8290:8313  newProduct.details.name */\n      0x00\n      add\n        /* \"contracts/4_Product.sol\":8290:8321  newProduct.details.name = _name */\n      swap1\n      dup1\n      mload\n      swap1\n      0x20\n      add\n      swap1\n      tag_158\n      swap3\n      swap2\n      swap1\n      tag_121\n      jump\t// in\n    tag_158:\n      pop\n        /* \"contracts/4_Product.sol\":8358:8364  _brand */\n      dup7\n        /* \"contracts/4_Product.sol\":8332:8342  newProduct */\n      dup2\n        /* \"contracts/4_Product.sol\":8332:8350  newProduct.details */\n      0x0e\n      add\n        /* \"contracts/4_Product.sol\":8332:8356  newProduct.details.brand */\n      0x01\n      add\n        /* \"contracts/4_Product.sol\":8332:8364  newProduct.details.brand= _brand */\n      swap1\n      dup1\n      mload\n      swap1\n      0x20\n      add\n      swap1\n      tag_159\n      swap3\n      swap2\n      swap1\n      tag_121\n      jump\t// in\n    tag_159:\n      pop\n        /* \"contracts/4_Product.sol\":8401:8406  _size */\n      dup6\n        /* \"contracts/4_Product.sol\":8375:8385  newProduct */\n      dup2\n        /* \"contracts/4_Product.sol\":8375:8393  newProduct.details */\n      0x0e\n      add\n        /* \"contracts/4_Product.sol\":8375:8398  newProduct.details.size */\n      0x02\n      add\n        /* \"contracts/4_Product.sol\":8375:8406  newProduct.details.size = _size */\n      swap1\n      dup1\n      mload\n      swap1\n      0x20\n      add\n      swap1\n      tag_160\n      swap3\n      swap2\n      swap1\n      tag_121\n      jump\t// in\n    tag_160:\n      pop\n        /* \"contracts/4_Product.sol\":8445:8452  _weight */\n      dup5\n        /* \"contracts/4_Product.sol\":8417:8427  newProduct */\n      dup2\n        /* \"contracts/4_Product.sol\":8417:8435  newProduct.details */\n      0x0e\n      add\n        /* \"contracts/4_Product.sol\":8417:8442  newProduct.details.weight */\n      0x03\n      add\n        /* \"contracts/4_Product.sol\":8417:8452  newProduct.details.weight = _weight */\n      swap1\n      dup1\n      mload\n      swap1\n      0x20\n      add\n      swap1\n      tag_161\n      swap3\n      swap2\n      swap1\n      tag_121\n      jump\t// in\n    tag_161:\n      pop\n        /* \"contracts/4_Product.sol\":8491:8498  _length */\n      dup4\n        /* \"contracts/4_Product.sol\":8463:8473  newProduct */\n      dup2\n        /* \"contracts/4_Product.sol\":8463:8481  newProduct.details */\n      0x0e\n      add\n        /* \"contracts/4_Product.sol\":8463:8488  newProduct.details.length */\n      0x04\n      add\n        /* \"contracts/4_Product.sol\":8463:8498  newProduct.details.length = _length */\n      swap1\n      dup1\n      mload\n      swap1\n      0x20\n      add\n      swap1\n      tag_162\n      swap3\n      swap2\n      swap1\n      tag_121\n      jump\t// in\n    tag_162:\n      pop\n        /* \"contracts/4_Product.sol\":8538:8544  _width */\n      dup3\n        /* \"contracts/4_Product.sol\":8511:8521  newProduct */\n      dup2\n        /* \"contracts/4_Product.sol\":8511:8529  newProduct.details */\n      0x0e\n      add\n        /* \"contracts/4_Product.sol\":8511:8535  newProduct.details.width */\n      0x05\n      add\n        /* \"contracts/4_Product.sol\":8511:8544  newProduct.details.width = _width */\n      swap1\n      dup1\n      mload\n      swap1\n      0x20\n      add\n      swap1\n      tag_163\n      swap3\n      swap2\n      swap1\n      tag_121\n      jump\t// in\n    tag_163:\n      pop\n        /* \"contracts/4_Product.sol\":8585:8592  _height */\n      dup2\n        /* \"contracts/4_Product.sol\":8557:8567  newProduct */\n      dup2\n        /* \"contracts/4_Product.sol\":8557:8575  newProduct.details */\n      0x0e\n      add\n        /* \"contracts/4_Product.sol\":8557:8582  newProduct.details.height */\n      0x06\n      add\n        /* \"contracts/4_Product.sol\":8557:8592  newProduct.details.height = _height */\n      swap1\n      dup1\n      mload\n      swap1\n      0x20\n      add\n      swap1\n      tag_164\n      swap3\n      swap2\n      swap1\n      tag_121\n      jump\t// in\n    tag_164:\n      pop\n        /* \"contracts/4_Product.sol\":7823:8600  {\r... */\n      pop\n        /* \"contracts/4_Product.sol\":7576:8600  function produceProduct(uint256 _id, uint256 _timestamp, uint256 _price, string memory _name, string memory _brand, string memory _size, string memory _weight, string memory _length ,string memory _width ,string memory _height) public OnlyProducer{\r... */\n      pop\n      pop\n      pop\n      pop\n      pop\n      pop\n      pop\n      pop\n      pop\n      pop\n      jump\t// out\n        /* \"contracts/4_Product.sol\":10258:11354  function getProductDetails(uint256 _id) public view returns \r... */\n    tag_44:\n        /* \"contracts/4_Product.sol\":10335:10353  uint256 product_id */\n      0x00\n        /* \"contracts/4_Product.sol\":10390:10406  address owner_id */\n      dup1\n        /* \"contracts/4_Product.sol\":10483:10508  State currentProductState */\n      0x00\n        /* \"contracts/4_Product.sol\":10519:10539  uint256 productPrice */\n      dup1\n        /* \"contracts/4_Product.sol\":10553:10579  string memory product_name */\n      0x60\n        /* \"contracts/4_Product.sol\":10590:10617  string memory product_brand */\n      dup1\n        /* \"contracts/4_Product.sol\":10628:10654  string memory product_size */\n      0x60\n        /* \"contracts/4_Product.sol\":10665:10693  string memory product_weight */\n      dup1\n        /* \"contracts/4_Product.sol\":10704:10732  string memory product_length */\n      0x60\n        /* \"contracts/4_Product.sol\":10745:10772  string memory product_width */\n      dup1\n        /* \"contracts/4_Product.sol\":10785:10813  string memory product_height */\n      0x60\n        /* \"contracts/4_Product.sol\":10852:10859  product */\n      0x06\n        /* \"contracts/4_Product.sol\":10852:10864  product[_id] */\n      0x00\n        /* \"contracts/4_Product.sol\":10860:10863  _id */\n      dup14\n        /* \"contracts/4_Product.sol\":10852:10864  product[_id] */\n      dup2\n      mstore\n      0x20\n      add\n      swap1\n      dup2\n      mstore\n      0x20\n      add\n      0x00\n      keccak256\n        /* \"contracts/4_Product.sol\":10852:10867  product[_id].ID */\n      0x00\n      add\n      sload\n        /* \"contracts/4_Product.sol\":10839:10867  product_id = product[_id].ID */\n      swap11\n      pop\n        /* \"contracts/4_Product.sol\":10886:10893  product */\n      0x06\n        /* \"contracts/4_Product.sol\":10886:10898  product[_id] */\n      0x00\n        /* \"contracts/4_Product.sol\":10894:10897  _id */\n      dup14\n        /* \"contracts/4_Product.sol\":10886:10898  product[_id] */\n      dup2\n      mstore\n      0x20\n      add\n      swap1\n      dup2\n      mstore\n      0x20\n      add\n      0x00\n      keccak256\n        /* \"contracts/4_Product.sol\":10886:10906  product[_id].ownerID */\n      0x01\n      add\n      0x00\n      swap1\n      sload\n      swap1\n      0x0100\n      exp\n      swap1\n      div\n      0xffffffffffffffffffffffffffffffffffffffff\n      and\n        /* \"contracts/4_Product.sol\":10875:10906  owner_id = product[_id].ownerID */\n      swap10\n      pop\n        /* \"contracts/4_Product.sol\":10937:10944  product */\n      0x06\n        /* \"contracts/4_Product.sol\":10937:10949  product[_id] */\n      0x00\n        /* \"contracts/4_Product.sol\":10945:10948  _id */\n      dup14\n        /* \"contracts/4_Product.sol\":10937:10949  product[_id] */\n      dup2\n      mstore\n      0x20\n      add\n      swap1\n      dup2\n      mstore\n      0x20\n      add\n      0x00\n      keccak256\n        /* \"contracts/4_Product.sol\":10937:10962  product[_id].productState */\n      0x09\n      add\n      0x00\n      swap1\n      sload\n      swap1\n      0x0100\n      exp\n      swap1\n      div\n      0xff\n      and\n        /* \"contracts/4_Product.sol\":10915:10962  currentProductState = product[_id].productState */\n      swap9\n      pop\n        /* \"contracts/4_Product.sol\":10984:10991  product */\n      0x06\n        /* \"contracts/4_Product.sol\":10984:10996  product[_id] */\n      0x00\n        /* \"contracts/4_Product.sol\":10992:10995  _id */\n      dup14\n        /* \"contracts/4_Product.sol\":10984:10996  product[_id] */\n      dup2\n      mstore\n      0x20\n      add\n      swap1\n      dup2\n      mstore\n      0x20\n      add\n      0x00\n      keccak256\n        /* \"contracts/4_Product.sol\":10984:11009  product[_id].productPrice */\n      0x0a\n      add\n      sload\n        /* \"contracts/4_Product.sol\":10969:11009  productPrice = product[_id].productPrice */\n      swap8\n      pop\n        /* \"contracts/4_Product.sol\":11031:11038  product */\n      0x06\n        /* \"contracts/4_Product.sol\":11031:11043  product[_id] */\n      0x00\n        /* \"contracts/4_Product.sol\":11039:11042  _id */\n      dup14\n        /* \"contracts/4_Product.sol\":11031:11043  product[_id] */\n      dup2\n      mstore\n      0x20\n      add\n      swap1\n      dup2\n      mstore\n      0x20\n      add\n      0x00\n      keccak256\n        /* \"contracts/4_Product.sol\":11031:11051  product[_id].details */\n      0x0e\n      add\n        /* \"contracts/4_Product.sol\":11031:11056  product[_id].details.name */\n      0x00\n      add\n        /* \"contracts/4_Product.sol\":11016:11056  product_name = product[_id].details.name */\n      dup1\n      sload\n      tag_166\n      swap1\n      tag_98\n      jump\t// in\n    tag_166:\n      dup1\n      0x1f\n      add\n      0x20\n      dup1\n      swap2\n      div\n      mul\n      0x20\n      add\n      mload(0x40)\n      swap1\n      dup2\n      add\n      0x40\n      mstore\n      dup1\n      swap3\n      swap2\n      swap1\n      dup2\n      dup2\n      mstore\n      0x20\n      add\n      dup3\n      dup1\n      sload\n      tag_167\n      swap1\n      tag_98\n      jump\t// in\n    tag_167:\n      dup1\n      iszero\n      tag_168\n      jumpi\n      dup1\n      0x1f\n      lt\n      tag_169\n      jumpi\n      0x0100\n      dup1\n      dup4\n      sload\n      div\n      mul\n      dup4\n      mstore\n      swap2\n      0x20\n      add\n      swap2\n      jump(tag_168)\n    tag_169:\n      dup3\n      add\n      swap2\n      swap1\n      0x00\n      mstore\n      keccak256(0x00, 0x20)\n      swap1\n    tag_170:\n      dup2\n      sload\n      dup2\n      mstore\n      swap1\n      0x01\n      add\n      swap1\n      0x20\n      add\n      dup1\n      dup4\n      gt\n      tag_170\n      jumpi\n      dup3\n      swap1\n      sub\n      0x1f\n      and\n      dup3\n      add\n      swap2\n    tag_168:\n      pop\n      pop\n      pop\n      pop\n      pop\n      swap7\n      pop\n        /* \"contracts/4_Product.sol\":11078:11085  product */\n      0x06\n        /* \"contracts/4_Product.sol\":11078:11090  product[_id] */\n      0x00\n        /* \"contracts/4_Product.sol\":11086:11089  _id */\n      dup14\n        /* \"contracts/4_Product.sol\":11078:11090  product[_id] */\n      dup2\n      mstore\n      0x20\n      add\n      swap1\n      dup2\n      mstore\n      0x20\n      add\n      0x00\n      keccak256\n        /* \"contracts/4_Product.sol\":11078:11098  product[_id].details */\n      0x0e\n      add\n        /* \"contracts/4_Product.sol\":11078:11104  product[_id].details.brand */\n      0x01\n      add\n        /* \"contracts/4_Product.sol\":11063:11104  product_brand= product[_id].details.brand */\n      dup1\n      sload\n      tag_171\n      swap1\n      tag_98\n      jump\t// in\n    tag_171:\n      dup1\n      0x1f\n      add\n      0x20\n      dup1\n      swap2\n      div\n      mul\n      0x20\n      add\n      mload(0x40)\n      swap1\n      dup2\n      add\n      0x40\n      mstore\n      dup1\n      swap3\n      swap2\n      swap1\n      dup2\n      dup2\n      mstore\n      0x20\n      add\n      dup3\n      dup1\n      sload\n      tag_172\n      swap1\n      tag_98\n      jump\t// in\n    tag_172:\n      dup1\n      iszero\n      tag_173\n      jumpi\n      dup1\n      0x1f\n      lt\n      tag_174\n      jumpi\n      0x0100\n      dup1\n      dup4\n      sload\n      div\n      mul\n      dup4\n      mstore\n      swap2\n      0x20\n      add\n      swap2\n      jump(tag_173)\n    tag_174:\n      dup3\n      add\n      swap2\n      swap1\n      0x00\n      mstore\n      keccak256(0x00, 0x20)\n      swap1\n    tag_175:\n      dup2\n      sload\n      dup2\n      mstore\n      swap1\n      0x01\n      add\n      swap1\n      0x20\n      add\n      dup1\n      dup4\n      gt\n      tag_175\n      jumpi\n      dup3\n      swap1\n      sub\n      0x1f\n      and\n      dup3\n      add\n      swap2\n    tag_173:\n      pop\n      pop\n      pop\n      pop\n      pop\n      swap6\n      pop\n        /* \"contracts/4_Product.sol\":11125:11132  product */\n      0x06\n        /* \"contracts/4_Product.sol\":11125:11137  product[_id] */\n      0x00\n        /* \"contracts/4_Product.sol\":11133:11136  _id */\n      dup14\n        /* \"contracts/4_Product.sol\":11125:11137  product[_id] */\n      dup2\n      mstore\n      0x20\n      add\n      swap1\n      dup2\n      mstore\n      0x20\n      add\n      0x00\n      keccak256\n        /* \"contracts/4_Product.sol\":11125:11145  product[_id].details */\n      0x0e\n      add\n        /* \"contracts/4_Product.sol\":11125:11150  product[_id].details.size */\n      0x02\n      add\n        /* \"contracts/4_Product.sol\":11111:11150  product_size= product[_id].details.size */\n      dup1\n      sload\n      tag_176\n      swap1\n      tag_98\n      jump\t// in\n    tag_176:\n      dup1\n      0x1f\n      add\n      0x20\n      dup1\n      swap2\n      div\n      mul\n      0x20\n      add\n      mload(0x40)\n      swap1\n      dup2\n      add\n      0x40\n      mstore\n      dup1\n      swap3\n      swap2\n      swap1\n      dup2\n      dup2\n      mstore\n      0x20\n      add\n      dup3\n      dup1\n      sload\n      tag_177\n      swap1\n      tag_98\n      jump\t// in\n    tag_177:\n      dup1\n      iszero\n      tag_178\n      jumpi\n      dup1\n      0x1f\n      lt\n      tag_179\n      jumpi\n      0x0100\n      dup1\n      dup4\n      sload\n      div\n      mul\n      dup4\n      mstore\n      swap2\n      0x20\n      add\n      swap2\n      jump(tag_178)\n    tag_179:\n      dup3\n      add\n      swap2\n      swap1\n      0x00\n      mstore\n      keccak256(0x00, 0x20)\n      swap1\n    tag_180:\n      dup2\n      sload\n      dup2\n      mstore\n      swap1\n      0x01\n      add\n      swap1\n      0x20\n      add\n      dup1\n      dup4\n      gt\n      tag_180\n      jumpi\n      dup3\n      swap1\n      sub\n      0x1f\n      and\n      dup3\n      add\n      swap2\n    tag_178:\n      pop\n      pop\n      pop\n      pop\n      pop\n      swap5\n      pop\n        /* \"contracts/4_Product.sol\":11173:11180  product */\n      0x06\n        /* \"contracts/4_Product.sol\":11173:11185  product[_id] */\n      0x00\n        /* \"contracts/4_Product.sol\":11181:11184  _id */\n      dup14\n        /* \"contracts/4_Product.sol\":11173:11185  product[_id] */\n      dup2\n      mstore\n      0x20\n      add\n      swap1\n      dup2\n      mstore\n      0x20\n      add\n      0x00\n      keccak256\n        /* \"contracts/4_Product.sol\":11173:11193  product[_id].details */\n      0x0e\n      add\n        /* \"contracts/4_Product.sol\":11173:11200  product[_id].details.weight */\n      0x03\n      add\n        /* \"contracts/4_Product.sol\":11157:11200  product_weight= product[_id].details.weight */\n      dup1\n      sload\n      tag_181\n      swap1\n      tag_98\n      jump\t// in\n    tag_181:\n      dup1\n      0x1f\n      add\n      0x20\n      dup1\n      swap2\n      div\n      mul\n      0x20\n      add\n      mload(0x40)\n      swap1\n      dup2\n      add\n      0x40\n      mstore\n      dup1\n      swap3\n      swap2\n      swap1\n      dup2\n      dup2\n      mstore\n      0x20\n      add\n      dup3\n      dup1\n      sload\n      tag_182\n      swap1\n      tag_98\n      jump\t// in\n    tag_182:\n      dup1\n      iszero\n      tag_183\n      jumpi\n      dup1\n      0x1f\n      lt\n      tag_184\n      jumpi\n      0x0100\n      dup1\n      dup4\n      sload\n      div\n      mul\n      dup4\n      mstore\n      swap2\n      0x20\n      add\n      swap2\n      jump(tag_183)\n    tag_184:\n      dup3\n      add\n      swap2\n      swap1\n      0x00\n      mstore\n      keccak256(0x00, 0x20)\n      swap1\n    tag_185:\n      dup2\n      sload\n      dup2\n      mstore\n      swap1\n      0x01\n      add\n      swap1\n      0x20\n      add\n      dup1\n      dup4\n      gt\n      tag_185\n      jumpi\n      dup3\n      swap1\n      sub\n      0x1f\n      and\n      dup3\n      add\n      swap2\n    tag_183:\n      pop\n      pop\n      pop\n      pop\n      pop\n      swap4\n      pop\n        /* \"contracts/4_Product.sol\":11223:11230  product */\n      0x06\n        /* \"contracts/4_Product.sol\":11223:11235  product[_id] */\n      0x00\n        /* \"contracts/4_Product.sol\":11231:11234  _id */\n      dup14\n        /* \"contracts/4_Product.sol\":11223:11235  product[_id] */\n      dup2\n      mstore\n      0x20\n      add\n      swap1\n      dup2\n      mstore\n      0x20\n      add\n      0x00\n      keccak256\n        /* \"contracts/4_Product.sol\":11223:11243  product[_id].details */\n      0x0e\n      add\n        /* \"contracts/4_Product.sol\":11223:11250  product[_id].details.length */\n      0x04\n      add\n        /* \"contracts/4_Product.sol\":11207:11250  product_length= product[_id].details.length */\n      dup1\n      sload\n      tag_186\n      swap1\n      tag_98\n      jump\t// in\n    tag_186:\n      dup1\n      0x1f\n      add\n      0x20\n      dup1\n      swap2\n      div\n      mul\n      0x20\n      add\n      mload(0x40)\n      swap1\n      dup2\n      add\n      0x40\n      mstore\n      dup1\n      swap3\n      swap2\n      swap1\n      dup2\n      dup2\n      mstore\n      0x20\n      add\n      dup3\n      dup1\n      sload\n      tag_187\n      swap1\n      tag_98\n      jump\t// in\n    tag_187:\n      dup1\n      iszero\n      tag_188\n      jumpi\n      dup1\n      0x1f\n      lt\n      tag_189\n      jumpi\n      0x0100\n      dup1\n      dup4\n      sload\n      div\n      mul\n      dup4\n      mstore\n      swap2\n      0x20\n      add\n      swap2\n      jump(tag_188)\n    tag_189:\n      dup3\n      add\n      swap2\n      swap1\n      0x00\n      mstore\n      keccak256(0x00, 0x20)\n      swap1\n    tag_190:\n      dup2\n      sload\n      dup2\n      mstore\n      swap1\n      0x01\n      add\n      swap1\n      0x20\n      add\n      dup1\n      dup4\n      gt\n      tag_190\n      jumpi\n      dup3\n      swap1\n      sub\n      0x1f\n      and\n      dup3\n      add\n      swap2\n    tag_188:\n      pop\n      pop\n      pop\n      pop\n      pop\n      swap3\n      pop\n        /* \"contracts/4_Product.sol\":11272:11279  product */\n      0x06\n        /* \"contracts/4_Product.sol\":11272:11284  product[_id] */\n      0x00\n        /* \"contracts/4_Product.sol\":11280:11283  _id */\n      dup14\n        /* \"contracts/4_Product.sol\":11272:11284  product[_id] */\n      dup2\n      mstore\n      0x20\n      add\n      swap1\n      dup2\n      mstore\n      0x20\n      add\n      0x00\n      keccak256\n        /* \"contracts/4_Product.sol\":11272:11292  product[_id].details */\n      0x0e\n      add\n        /* \"contracts/4_Product.sol\":11272:11298  product[_id].details.width */\n      0x05\n      add\n        /* \"contracts/4_Product.sol\":11257:11298  product_width= product[_id].details.width */\n      dup1\n      sload\n      tag_191\n      swap1\n      tag_98\n      jump\t// in\n    tag_191:\n      dup1\n      0x1f\n      add\n      0x20\n      dup1\n      swap2\n      div\n      mul\n      0x20\n      add\n      mload(0x40)\n      swap1\n      dup2\n      add\n      0x40\n      mstore\n      dup1\n      swap3\n      swap2\n      swap1\n      dup2\n      dup2\n      mstore\n      0x20\n      add\n      dup3\n      dup1\n      sload\n      tag_192\n      swap1\n      tag_98\n      jump\t// in\n    tag_192:\n      dup1\n      iszero\n      tag_193\n      jumpi\n      dup1\n      0x1f\n      lt\n      tag_194\n      jumpi\n      0x0100\n      dup1\n      dup4\n      sload\n      div\n      mul\n      dup4\n      mstore\n      swap2\n      0x20\n      add\n      swap2\n      jump(tag_193)\n    tag_194:\n      dup3\n      add\n      swap2\n      swap1\n      0x00\n      mstore\n      keccak256(0x00, 0x20)\n      swap1\n    tag_195:\n      dup2\n      sload\n      dup2\n      mstore\n      swap1\n      0x01\n      add\n      swap1\n      0x20\n      add\n      dup1\n      dup4\n      gt\n      tag_195\n      jumpi\n      dup3\n      swap1\n      sub\n      0x1f\n      and\n      dup3\n      add\n      swap2\n    tag_193:\n      pop\n      pop\n      pop\n      pop\n      pop\n      swap2\n      pop\n        /* \"contracts/4_Product.sol\":11321:11328  product */\n      0x06\n        /* \"contracts/4_Product.sol\":11321:11333  product[_id] */\n      0x00\n        /* \"contracts/4_Product.sol\":11329:11332  _id */\n      dup14\n        /* \"contracts/4_Product.sol\":11321:11333  product[_id] */\n      dup2\n      mstore\n      0x20\n      add\n      swap1\n      dup2\n      mstore\n      0x20\n      add\n      0x00\n      keccak256\n        /* \"contracts/4_Product.sol\":11321:11341  product[_id].details */\n      0x0e\n      add\n        /* \"contracts/4_Product.sol\":11321:11348  product[_id].details.height */\n      0x06\n      add\n        /* \"contracts/4_Product.sol\":11305:11348  product_height= product[_id].details.height */\n      dup1\n      sload\n      tag_196\n      swap1\n      tag_98\n      jump\t// in\n    tag_196:\n      dup1\n      0x1f\n      add\n      0x20\n      dup1\n      swap2\n      div\n      mul\n      0x20\n      add\n      mload(0x40)\n      swap1\n      dup2\n      add\n      0x40\n      mstore\n      dup1\n      swap3\n      swap2\n      swap1\n      dup2\n      dup2\n      mstore\n      0x20\n      add\n      dup3\n      dup1\n      sload\n      tag_197\n      swap1\n      tag_98\n      jump\t// in\n    tag_197:\n      dup1\n      iszero\n      tag_198\n      jumpi\n      dup1\n      0x1f\n      lt\n      tag_199\n      jumpi\n      0x0100\n      dup1\n      dup4\n      sload\n      div\n      mul\n      dup4\n      mstore\n      swap2\n      0x20\n      add\n      swap2\n      jump(tag_198)\n    tag_199:\n      dup3\n      add\n      swap2\n      swap1\n      0x00\n      mstore\n      keccak256(0x00, 0x20)\n      swap1\n    tag_200:\n      dup2\n      sload\n      dup2\n      mstore\n      swap1\n      0x01\n      add\n      swap1\n      0x20\n      add\n      dup1\n      dup4\n      gt\n      tag_200\n      jumpi\n      dup3\n      swap1\n      sub\n      0x1f\n      and\n      dup3\n      add\n      swap2\n    tag_198:\n      pop\n      pop\n      pop\n      pop\n      pop\n      swap1\n      pop\n        /* \"contracts/4_Product.sol\":10258:11354  function getProductDetails(uint256 _id) public view returns \r... */\n      swap2\n      swap4\n      swap6\n      swap8\n      swap10\n      swap12\n      swap1\n      swap3\n      swap5\n      swap7\n      swap9\n      swap11\n      pop\n      jump\t// out\n        /* \"contracts/4_Product.sol\":6830:7186  function tokenTransfer(address _to, uint256 _amount) public returns (bool) {\r... */\n    tag_51:\n        /* \"contracts/4_Product.sol\":6899:6903  bool */\n      0x00\n        /* \"contracts/4_Product.sol\":6948:6955  _amount */\n      dup2\n        /* \"contracts/4_Product.sol\":6924:6932  balances */\n      0x04\n        /* \"contracts/4_Product.sol\":6924:6944  balances[msg.sender] */\n      0x00\n        /* \"contracts/4_Product.sol\":6933:6943  msg.sender */\n      caller\n        /* \"contracts/4_Product.sol\":6924:6944  balances[msg.sender] */\n      0xffffffffffffffffffffffffffffffffffffffff\n      and\n      0xffffffffffffffffffffffffffffffffffffffff\n      and\n      dup2\n      mstore\n      0x20\n      add\n      swap1\n      dup2\n      mstore\n      0x20\n      add\n      0x00\n      keccak256\n      sload\n        /* \"contracts/4_Product.sol\":6924:6955  balances[msg.sender] >= _amount */\n      lt\n      iszero\n        /* \"contracts/4_Product.sol\":6916:6956  require(balances[msg.sender] >= _amount) */\n      tag_202\n      jumpi\n      0x00\n      dup1\n      revert\n    tag_202:\n        /* \"contracts/4_Product.sol\":7066:7067  0 */\n      0x00\n        /* \"contracts/4_Product.sol\":7051:7068  _to != address(0) */\n      0xffffffffffffffffffffffffffffffffffffffff\n      and\n        /* \"contracts/4_Product.sol\":7051:7054  _to */\n      dup4\n        /* \"contracts/4_Product.sol\":7051:7068  _to != address(0) */\n      0xffffffffffffffffffffffffffffffffffffffff\n      and\n      eq\n      iszero\n        /* \"contracts/4_Product.sol\":7043:7069  require(_to != address(0)) */\n      tag_203\n      jumpi\n      0x00\n      dup1\n      revert\n    tag_203:\n        /* \"contracts/4_Product.sol\":7114:7121  _amount */\n      dup2\n        /* \"contracts/4_Product.sol\":7090:7098  balances */\n      0x04\n        /* \"contracts/4_Product.sol\":7090:7110  balances[msg.sender] */\n      0x00\n        /* \"contracts/4_Product.sol\":7099:7109  msg.sender */\n      caller\n        /* \"contracts/4_Product.sol\":7090:7110  balances[msg.sender] */\n      0xffffffffffffffffffffffffffffffffffffffff\n      and\n      0xffffffffffffffffffffffffffffffffffffffff\n      and\n      dup2\n      mstore\n      0x20\n      add\n      swap1\n      dup2\n      mstore\n      0x20\n      add\n      0x00\n      keccak256\n      0x00\n        /* \"contracts/4_Product.sol\":7090:7121  balances[msg.sender] -= _amount */\n      dup3\n      dup3\n      sload\n      tag_204\n      swap2\n      swap1\n      tag_205\n      jump\t// in\n    tag_204:\n      swap3\n      pop\n      pop\n      dup2\n      swap1\n      sstore\n      pop\n        /* \"contracts/4_Product.sol\":7149:7156  _amount */\n      dup2\n        /* \"contracts/4_Product.sol\":7132:7140  balances */\n      0x04\n        /* \"contracts/4_Product.sol\":7132:7145  balances[_to] */\n      0x00\n        /* \"contracts/4_Product.sol\":7141:7144  _to */\n      dup6\n        /* \"contracts/4_Product.sol\":7132:7145  balances[_to] */\n      0xffffffffffffffffffffffffffffffffffffffff\n      and\n      0xffffffffffffffffffffffffffffffffffffffff\n      and\n      dup2\n      mstore\n      0x20\n      add\n      swap1\n      dup2\n      mstore\n      0x20\n      add\n      0x00\n      keccak256\n      0x00\n        /* \"contracts/4_Product.sol\":7132:7156  balances[_to] += _amount */\n      dup3\n      dup3\n      sload\n      tag_206\n      swap2\n      swap1\n      tag_207\n      jump\t// in\n    tag_206:\n      swap3\n      pop\n      pop\n      dup2\n      swap1\n      sstore\n      pop\n        /* \"contracts/4_Product.sol\":7174:7178  true */\n      0x01\n        /* \"contracts/4_Product.sol\":7167:7178  return true */\n      swap1\n      pop\n        /* \"contracts/4_Product.sol\":6830:7186  function tokenTransfer(address _to, uint256 _amount) public returns (bool) {\r... */\n      swap3\n      swap2\n      pop\n      pop\n      jump\t// out\n        /* \"contracts/4_Product.sol\":9370:10252  function getProductInfo(uint256 _id) public view returns \r... */\n    tag_57:\n        /* \"contracts/4_Product.sol\":9444:9462  uint256 product_id */\n      0x00\n        /* \"contracts/4_Product.sol\":9499:9518  address producer_id */\n      dup1\n        /* \"contracts/4_Product.sol\":9559:9575  address owner_id */\n      0x00\n        /* \"contracts/4_Product.sol\":9652:9677  State currentProductState */\n      dup1\n        /* \"contracts/4_Product.sol\":9688:9708  uint256 productPrice */\n      0x00\n        /* \"contracts/4_Product.sol\":9720:9742  address distributor_id */\n      dup1\n        /* \"contracts/4_Product.sol\":9753:9772  address retailer_id */\n      0x00\n        /* \"contracts/4_Product.sol\":9783:9802  address consumer_id */\n      dup1\n        /* \"contracts/4_Product.sol\":9813:9835  Details memory details */\n      tag_208\n      tag_209\n      jump\t// in\n    tag_208:\n        /* \"contracts/4_Product.sol\":9874:9881  product */\n      0x06\n        /* \"contracts/4_Product.sol\":9874:9886  product[_id] */\n      0x00\n        /* \"contracts/4_Product.sol\":9882:9885  _id */\n      dup12\n        /* \"contracts/4_Product.sol\":9874:9886  product[_id] */\n      dup2\n      mstore\n      0x20\n      add\n      swap1\n      dup2\n      mstore\n      0x20\n      add\n      0x00\n      keccak256\n        /* \"contracts/4_Product.sol\":9874:9889  product[_id].ID */\n      0x00\n      add\n      sload\n        /* \"contracts/4_Product.sol\":9861:9889  product_id = product[_id].ID */\n      swap9\n      pop\n        /* \"contracts/4_Product.sol\":9911:9918  product */\n      0x06\n        /* \"contracts/4_Product.sol\":9911:9923  product[_id] */\n      0x00\n        /* \"contracts/4_Product.sol\":9919:9922  _id */\n      dup12\n        /* \"contracts/4_Product.sol\":9911:9923  product[_id] */\n      dup2\n      mstore\n      0x20\n      add\n      swap1\n      dup2\n      mstore\n      0x20\n      add\n      0x00\n      keccak256\n        /* \"contracts/4_Product.sol\":9911:9934  product[_id].producerID */\n      0x02\n      add\n      0x00\n      swap1\n      sload\n      swap1\n      0x0100\n      exp\n      swap1\n      div\n      0xffffffffffffffffffffffffffffffffffffffff\n      and\n        /* \"contracts/4_Product.sol\":9897:9934  producer_id = product[_id].producerID */\n      swap8\n      pop\n        /* \"contracts/4_Product.sol\":9952:9959  product */\n      0x06\n        /* \"contracts/4_Product.sol\":9952:9964  product[_id] */\n      0x00\n        /* \"contracts/4_Product.sol\":9960:9963  _id */\n      dup12\n        /* \"contracts/4_Product.sol\":9952:9964  product[_id] */\n      dup2\n      mstore\n      0x20\n      add\n      swap1\n      dup2\n      mstore\n      0x20\n      add\n      0x00\n      keccak256\n        /* \"contracts/4_Product.sol\":9952:9972  product[_id].ownerID */\n      0x01\n      add\n      0x00\n      swap1\n      sload\n      swap1\n      0x0100\n      exp\n      swap1\n      div\n      0xffffffffffffffffffffffffffffffffffffffff\n      and\n        /* \"contracts/4_Product.sol\":9941:9972  owner_id = product[_id].ownerID */\n      swap7\n      pop\n        /* \"contracts/4_Product.sol\":9995:10002  product */\n      0x06\n        /* \"contracts/4_Product.sol\":9995:10007  product[_id] */\n      0x00\n        /* \"contracts/4_Product.sol\":10003:10006  _id */\n      dup12\n        /* \"contracts/4_Product.sol\":9995:10007  product[_id] */\n      dup2\n      mstore\n      0x20\n      add\n      swap1\n      dup2\n      mstore\n      0x20\n      add\n      0x00\n      keccak256\n        /* \"contracts/4_Product.sol\":9995:10021  product[_id].distributorID */\n      0x0b\n      add\n      0x00\n      swap1\n      sload\n      swap1\n      0x0100\n      exp\n      swap1\n      div\n      0xffffffffffffffffffffffffffffffffffffffff\n      and\n        /* \"contracts/4_Product.sol\":9979:10021  distributor_id= product[_id].distributorID */\n      swap4\n      pop\n        /* \"contracts/4_Product.sol\":10041:10048  product */\n      0x06\n        /* \"contracts/4_Product.sol\":10041:10053  product[_id] */\n      0x00\n        /* \"contracts/4_Product.sol\":10049:10052  _id */\n      dup12\n        /* \"contracts/4_Product.sol\":10041:10053  product[_id] */\n      dup2\n      mstore\n      0x20\n      add\n      swap1\n      dup2\n      mstore\n      0x20\n      add\n      0x00\n      keccak256\n        /* \"contracts/4_Product.sol\":10041:10064  product[_id].retailerID */\n      0x0c\n      add\n      0x00\n      swap1\n      sload\n      swap1\n      0x0100\n      exp\n      swap1\n      div\n      0xffffffffffffffffffffffffffffffffffffffff\n      and\n        /* \"contracts/4_Product.sol\":10028:10064  retailer_id= product[_id].retailerID */\n      swap3\n      pop\n        /* \"contracts/4_Product.sol\":10084:10091  product */\n      0x06\n        /* \"contracts/4_Product.sol\":10084:10096  product[_id] */\n      0x00\n        /* \"contracts/4_Product.sol\":10092:10095  _id */\n      dup12\n        /* \"contracts/4_Product.sol\":10084:10096  product[_id] */\n      dup2\n      mstore\n      0x20\n      add\n      swap1\n      dup2\n      mstore\n      0x20\n      add\n      0x00\n      keccak256\n        /* \"contracts/4_Product.sol\":10084:10107  product[_id].consumerID */\n      0x0d\n      add\n      0x00\n      swap1\n      sload\n      swap1\n      0x0100\n      exp\n      swap1\n      div\n      0xffffffffffffffffffffffffffffffffffffffff\n      and\n        /* \"contracts/4_Product.sol\":10071:10107  consumer_id= product[_id].consumerID */\n      swap2\n      pop\n        /* \"contracts/4_Product.sol\":10138:10145  product */\n      0x06\n        /* \"contracts/4_Product.sol\":10138:10150  product[_id] */\n      0x00\n        /* \"contracts/4_Product.sol\":10146:10149  _id */\n      dup12\n        /* \"contracts/4_Product.sol\":10138:10150  product[_id] */\n      dup2\n      mstore\n      0x20\n      add\n      swap1\n      dup2\n      mstore\n      0x20\n      add\n      0x00\n      keccak256\n        /* \"contracts/4_Product.sol\":10138:10163  product[_id].productState */\n      0x09\n      add\n      0x00\n      swap1\n      sload\n      swap1\n      0x0100\n      exp\n      swap1\n      div\n      0xff\n      and\n        /* \"contracts/4_Product.sol\":10116:10163  currentProductState = product[_id].productState */\n      swap6\n      pop\n        /* \"contracts/4_Product.sol\":10185:10192  product */\n      0x06\n        /* \"contracts/4_Product.sol\":10185:10197  product[_id] */\n      0x00\n        /* \"contracts/4_Product.sol\":10193:10196  _id */\n      dup12\n        /* \"contracts/4_Product.sol\":10185:10197  product[_id] */\n      dup2\n      mstore\n      0x20\n      add\n      swap1\n      dup2\n      mstore\n      0x20\n      add\n      0x00\n      keccak256\n        /* \"contracts/4_Product.sol\":10185:10210  product[_id].productPrice */\n      0x0a\n      add\n      sload\n        /* \"contracts/4_Product.sol\":10170:10210  productPrice = product[_id].productPrice */\n      swap5\n      pop\n        /* \"contracts/4_Product.sol\":10228:10235  product */\n      0x06\n        /* \"contracts/4_Product.sol\":10228:10240  product[_id] */\n      0x00\n        /* \"contracts/4_Product.sol\":10236:10239  _id */\n      dup12\n        /* \"contracts/4_Product.sol\":10228:10240  product[_id] */\n      dup2\n      mstore\n      0x20\n      add\n      swap1\n      dup2\n      mstore\n      0x20\n      add\n      0x00\n      keccak256\n        /* \"contracts/4_Product.sol\":10228:10248  product[_id].details */\n      0x0e\n      add\n        /* \"contracts/4_Product.sol\":10219:10248  details= product[_id].details */\n      mload(0x40)\n      dup1\n      0xe0\n      add\n      0x40\n      mstore\n      swap1\n      dup2\n      0x00\n      dup3\n      add\n      dup1\n      sload\n      tag_211\n      swap1\n      tag_98\n      jump\t// in\n    tag_211:\n      dup1\n      0x1f\n      add\n      0x20\n      dup1\n      swap2\n      div\n      mul\n      0x20\n      add\n      mload(0x40)\n      swap1\n      dup2\n      add\n      0x40\n      mstore\n      dup1\n      swap3\n      swap2\n      swap1\n      dup2\n      dup2\n      mstore\n      0x20\n      add\n      dup3\n      dup1\n      sload\n      tag_212\n      swap1\n      tag_98\n      jump\t// in\n    tag_212:\n      dup1\n      iszero\n      tag_213\n      jumpi\n      dup1\n      0x1f\n      lt\n      tag_214\n      jumpi\n      0x0100\n      dup1\n      dup4\n      sload\n      div\n      mul\n      dup4\n      mstore\n      swap2\n      0x20\n      add\n      swap2\n      jump(tag_213)\n    tag_214:\n      dup3\n      add\n      swap2\n      swap1\n      0x00\n      mstore\n      keccak256(0x00, 0x20)\n      swap1\n    tag_215:\n      dup2\n      sload\n      dup2\n      mstore\n      swap1\n      0x01\n      add\n      swap1\n      0x20\n      add\n      dup1\n      dup4\n      gt\n      tag_215\n      jumpi\n      dup3\n      swap1\n      sub\n      0x1f\n      and\n      dup3\n      add\n      swap2\n    tag_213:\n      pop\n      pop\n      pop\n      pop\n      pop\n      dup2\n      mstore\n      0x20\n      add\n      0x01\n      dup3\n      add\n      dup1\n      sload\n      tag_216\n      swap1\n      tag_98\n      jump\t// in\n    tag_216:\n      dup1\n      0x1f\n      add\n      0x20\n      dup1\n      swap2\n      div\n      mul\n      0x20\n      add\n      mload(0x40)\n      swap1\n      dup2\n      add\n      0x40\n      mstore\n      dup1\n      swap3\n      swap2\n      swap1\n      dup2\n      dup2\n      mstore\n      0x20\n      add\n      dup3\n      dup1\n      sload\n      tag_217\n      swap1\n      tag_98\n      jump\t// in\n    tag_217:\n      dup1\n      iszero\n      tag_218\n      jumpi\n      dup1\n      0x1f\n      lt\n      tag_219\n      jumpi\n      0x0100\n      dup1\n      dup4\n      sload\n      div\n      mul\n      dup4\n      mstore\n      swap2\n      0x20\n      add\n      swap2\n      jump(tag_218)\n    tag_219:\n      dup3\n      add\n      swap2\n      swap1\n      0x00\n      mstore\n      keccak256(0x00, 0x20)\n      swap1\n    tag_220:\n      dup2\n      sload\n      dup2\n      mstore\n      swap1\n      0x01\n      add\n      swap1\n      0x20\n      add\n      dup1\n      dup4\n      gt\n      tag_220\n      jumpi\n      dup3\n      swap1\n      sub\n      0x1f\n      and\n      dup3\n      add\n      swap2\n    tag_218:\n      pop\n      pop\n      pop\n      pop\n      pop\n      dup2\n      mstore\n      0x20\n      add\n      0x02\n      dup3\n      add\n      dup1\n      sload\n      tag_221\n      swap1\n      tag_98\n      jump\t// in\n    tag_221:\n      dup1\n      0x1f\n      add\n      0x20\n      dup1\n      swap2\n      div\n      mul\n      0x20\n      add\n      mload(0x40)\n      swap1\n      dup2\n      add\n      0x40\n      mstore\n      dup1\n      swap3\n      swap2\n      swap1\n      dup2\n      dup2\n      mstore\n      0x20\n      add\n      dup3\n      dup1\n      sload\n      tag_222\n      swap1\n      tag_98\n      jump\t// in\n    tag_222:\n      dup1\n      iszero\n      tag_223\n      jumpi\n      dup1\n      0x1f\n      lt\n      tag_224\n      jumpi\n      0x0100\n      dup1\n      dup4\n      sload\n      div\n      mul\n      dup4\n      mstore\n      swap2\n      0x20\n      add\n      swap2\n      jump(tag_223)\n    tag_224:\n      dup3\n      add\n      swap2\n      swap1\n      0x00\n      mstore\n      keccak256(0x00, 0x20)\n      swap1\n    tag_225:\n      dup2\n      sload\n      dup2\n      mstore\n      swap1\n      0x01\n      add\n      swap1\n      0x20\n      add\n      dup1\n      dup4\n      gt\n      tag_225\n      jumpi\n      dup3\n      swap1\n      sub\n      0x1f\n      and\n      dup3\n      add\n      swap2\n    tag_223:\n      pop\n      pop\n      pop\n      pop\n      pop\n      dup2\n      mstore\n      0x20\n      add\n      0x03\n      dup3\n      add\n      dup1\n      sload\n      tag_226\n      swap1\n      tag_98\n      jump\t// in\n    tag_226:\n      dup1\n      0x1f\n      add\n      0x20\n      dup1\n      swap2\n      div\n      mul\n      0x20\n      add\n      mload(0x40)\n      swap1\n      dup2\n      add\n      0x40\n      mstore\n      dup1\n      swap3\n      swap2\n      swap1\n      dup2\n      dup2\n      mstore\n      0x20\n      add\n      dup3\n      dup1\n      sload\n      tag_227\n      swap1\n      tag_98\n      jump\t// in\n    tag_227:\n      dup1\n      iszero\n      tag_228\n      jumpi\n      dup1\n      0x1f\n      lt\n      tag_229\n      jumpi\n      0x0100\n      dup1\n      dup4\n      sload\n      div\n      mul\n      dup4\n      mstore\n      swap2\n      0x20\n      add\n      swap2\n      jump(tag_228)\n    tag_229:\n      dup3\n      add\n      swap2\n      swap1\n      0x00\n      mstore\n      keccak256(0x00, 0x20)\n      swap1\n    tag_230:\n      dup2\n      sload\n      dup2\n      mstore\n      swap1\n      0x01\n      add\n      swap1\n      0x20\n      add\n      dup1\n      dup4\n      gt\n      tag_230\n      jumpi\n      dup3\n      swap1\n      sub\n      0x1f\n      and\n      dup3\n      add\n      swap2\n    tag_228:\n      pop\n      pop\n      pop\n      pop\n      pop\n      dup2\n      mstore\n      0x20\n      add\n      0x04\n      dup3\n      add\n      dup1\n      sload\n      tag_231\n      swap1\n      tag_98\n      jump\t// in\n    tag_231:\n      dup1\n      0x1f\n      add\n      0x20\n      dup1\n      swap2\n      div\n      mul\n      0x20\n      add\n      mload(0x40)\n      swap1\n      dup2\n      add\n      0x40\n      mstore\n      dup1\n      swap3\n      swap2\n      swap1\n      dup2\n      dup2\n      mstore\n      0x20\n      add\n      dup3\n      dup1\n      sload\n      tag_232\n      swap1\n      tag_98\n      jump\t// in\n    tag_232:\n      dup1\n      iszero\n      tag_233\n      jumpi\n      dup1\n      0x1f\n      lt\n      tag_234\n      jumpi\n      0x0100\n      dup1\n      dup4\n      sload\n      div\n      mul\n      dup4\n      mstore\n      swap2\n      0x20\n      add\n      swap2\n      jump(tag_233)\n    tag_234:\n      dup3\n      add\n      swap2\n      swap1\n      0x00\n      mstore\n      keccak256(0x00, 0x20)\n      swap1\n    tag_235:\n      dup2\n      sload\n      dup2\n      mstore\n      swap1\n      0x01\n      add\n      swap1\n      0x20\n      add\n      dup1\n      dup4\n      gt\n      tag_235\n      jumpi\n      dup3\n      swap1\n      sub\n      0x1f\n      and\n      dup3\n      add\n      swap2\n    tag_233:\n      pop\n      pop\n      pop\n      pop\n      pop\n      dup2\n      mstore\n      0x20\n      add\n      0x05\n      dup3\n      add\n      dup1\n      sload\n      tag_236\n      swap1\n      tag_98\n      jump\t// in\n    tag_236:\n      dup1\n      0x1f\n      add\n      0x20\n      dup1\n      swap2\n      div\n      mul\n      0x20\n      add\n      mload(0x40)\n      swap1\n      dup2\n      add\n      0x40\n      mstore\n      dup1\n      swap3\n      swap2\n      swap1\n      dup2\n      dup2\n      mstore\n      0x20\n      add\n      dup3\n      dup1\n      sload\n      tag_237\n      swap1\n      tag_98\n      jump\t// in\n    tag_237:\n      dup1\n      iszero\n      tag_238\n      jumpi\n      dup1\n      0x1f\n      lt\n      tag_239\n      jumpi\n      0x0100\n      dup1\n      dup4\n      sload\n      div\n      mul\n      dup4\n      mstore\n      swap2\n      0x20\n      add\n      swap2\n      jump(tag_238)\n    tag_239:\n      dup3\n      add\n      swap2\n      swap1\n      0x00\n      mstore\n      keccak256(0x00, 0x20)\n      swap1\n    tag_240:\n      dup2\n      sload\n      dup2\n      mstore\n      swap1\n      0x01\n      add\n      swap1\n      0x20\n      add\n      dup1\n      dup4\n      gt\n      tag_240\n      jumpi\n      dup3\n      swap1\n      sub\n      0x1f\n      and\n      dup3\n      add\n      swap2\n    tag_238:\n      pop\n      pop\n      pop\n      pop\n      pop\n      dup2\n      mstore\n      0x20\n      add\n      0x06\n      dup3\n      add\n      dup1\n      sload\n      tag_241\n      swap1\n      tag_98\n      jump\t// in\n    tag_241:\n      dup1\n      0x1f\n      add\n      0x20\n      dup1\n      swap2\n      div\n      mul\n      0x20\n      add\n      mload(0x40)\n      swap1\n      dup2\n      add\n      0x40\n      mstore\n      dup1\n      swap3\n      swap2\n      swap1\n      dup2\n      dup2\n      mstore\n      0x20\n      add\n      dup3\n      dup1\n      sload\n      tag_242\n      swap1\n      tag_98\n      jump\t// in\n    tag_242:\n      dup1\n      iszero\n      tag_243\n      jumpi\n      dup1\n      0x1f\n      lt\n      tag_244\n      jumpi\n      0x0100\n      dup1\n      dup4\n      sload\n      div\n      mul\n      dup4\n      mstore\n      swap2\n      0x20\n      add\n      swap2\n      jump(tag_243)\n    tag_244:\n      dup3\n      add\n      swap2\n      swap1\n      0x00\n      mstore\n      keccak256(0x00, 0x20)\n      swap1\n    tag_245:\n      dup2\n      sload\n      dup2\n      mstore\n      swap1\n      0x01\n      add\n      swap1\n      0x20\n      add\n      dup1\n      dup4\n      gt\n      tag_245\n      jumpi\n      dup3\n      swap1\n      sub\n      0x1f\n      and\n      dup3\n      add\n      swap2\n    tag_243:\n      pop\n      pop\n      pop\n      pop\n      pop\n      dup2\n      mstore\n      pop\n      pop\n      swap1\n      pop\n        /* \"contracts/4_Product.sol\":9370:10252  function getProductInfo(uint256 _id) public view returns \r... */\n      swap2\n      swap4\n      swap6\n      swap8\n      swap10\n      swap1\n      swap3\n      swap5\n      swap7\n      swap9\n      pop\n      jump\t// out\n        /* \"contracts/4_Product.sol\":114:134  string public symbol */\n    tag_62:\n      0x01\n      dup1\n      sload\n      tag_246\n      swap1\n      tag_98\n      jump\t// in\n    tag_246:\n      dup1\n      0x1f\n      add\n      0x20\n      dup1\n      swap2\n      div\n      mul\n      0x20\n      add\n      mload(0x40)\n      swap1\n      dup2\n      add\n      0x40\n      mstore\n      dup1\n      swap3\n      swap2\n      swap1\n      dup2\n      dup2\n      mstore\n      0x20\n      add\n      dup3\n      dup1\n      sload\n      tag_247\n      swap1\n      tag_98\n      jump\t// in\n    tag_247:\n      dup1\n      iszero\n      tag_248\n      jumpi\n      dup1\n      0x1f\n      lt\n      tag_249\n      jumpi\n      0x0100\n      dup1\n      dup4\n      sload\n      div\n      mul\n      dup4\n      mstore\n      swap2\n      0x20\n      add\n      swap2\n      jump(tag_248)\n    tag_249:\n      dup3\n      add\n      swap2\n      swap1\n      0x00\n      mstore\n      keccak256(0x00, 0x20)\n      swap1\n    tag_250:\n      dup2\n      sload\n      dup2\n      mstore\n      swap1\n      0x01\n      add\n      swap1\n      0x20\n      add\n      dup1\n      dup4\n      gt\n      tag_250\n      jumpi\n      dup3\n      swap1\n      sub\n      0x1f\n      and\n      dup3\n      add\n      swap2\n    tag_248:\n      pop\n      pop\n      pop\n      pop\n      pop\n      dup2\n      jump\t// out\n        /* \"contracts/4_Product.sol\":5784:6201  function burn(address _account, uint256 _amount) public OnlyTokenOwner {\r... */\n    tag_67:\n        /* \"contracts/4_Product.sol\":2674:2684  tokenOwner */\n      0x02\n      0x00\n      swap1\n      sload\n      swap1\n      0x0100\n      exp\n      swap1\n      div\n      0xffffffffffffffffffffffffffffffffffffffff\n      and\n        /* \"contracts/4_Product.sol\":2660:2684  msg.sender == tokenOwner */\n      0xffffffffffffffffffffffffffffffffffffffff\n      and\n        /* \"contracts/4_Product.sol\":2660:2670  msg.sender */\n      caller\n        /* \"contracts/4_Product.sol\":2660:2684  msg.sender == tokenOwner */\n      0xffffffffffffffffffffffffffffffffffffffff\n      and\n      eq\n        /* \"contracts/4_Product.sol\":2652:2719  require(msg.sender == tokenOwner, 'caller is not the token owner.') */\n      tag_252\n      jumpi\n      mload(0x40)\n      0x08c379a000000000000000000000000000000000000000000000000000000000\n      dup2\n      mstore\n      0x04\n      add\n      tag_253\n      swap1\n      tag_254\n      jump\t// in\n    tag_253:\n      mload(0x40)\n      dup1\n      swap2\n      sub\n      swap1\n      revert\n    tag_252:\n        /* \"contracts/4_Product.sol\":5894:5895  0 */\n      0x00\n        /* \"contracts/4_Product.sol\":5874:5896  _account != address(0) */\n      0xffffffffffffffffffffffffffffffffffffffff\n      and\n        /* \"contracts/4_Product.sol\":5874:5882  _account */\n      dup3\n        /* \"contracts/4_Product.sol\":5874:5896  _account != address(0) */\n      0xffffffffffffffffffffffffffffffffffffffff\n      and\n      eq\n      iszero\n        /* \"contracts/4_Product.sol\":5866:5897  require(_account != address(0)) */\n      tag_256\n      jumpi\n      0x00\n      dup1\n      revert\n    tag_256:\n        /* \"contracts/4_Product.sol\":6022:6030  balances */\n      0x04\n        /* \"contracts/4_Product.sol\":6022:6040  balances[_account] */\n      0x00\n        /* \"contracts/4_Product.sol\":6031:6039  _account */\n      dup4\n        /* \"contracts/4_Product.sol\":6022:6040  balances[_account] */\n      0xffffffffffffffffffffffffffffffffffffffff\n      and\n      0xffffffffffffffffffffffffffffffffffffffff\n      and\n      dup2\n      mstore\n      0x20\n      add\n      swap1\n      dup2\n      mstore\n      0x20\n      add\n      0x00\n      keccak256\n      sload\n        /* \"contracts/4_Product.sol\":6011:6018  _amount */\n      dup2\n        /* \"contracts/4_Product.sol\":6011:6040  _amount <= balances[_account] */\n      gt\n      iszero\n        /* \"contracts/4_Product.sol\":6003:6041  require(_amount <= balances[_account]) */\n      tag_257\n      jumpi\n      0x00\n      dup1\n      revert\n    tag_257:\n        /* \"contracts/4_Product.sol\":6146:6153  _amount */\n      dup1\n        /* \"contracts/4_Product.sol\":6130:6142  _totalSupply */\n      0x03\n      0x00\n        /* \"contracts/4_Product.sol\":6130:6153  _totalSupply -= _amount */\n      dup3\n      dup3\n      sload\n      tag_258\n      swap2\n      swap1\n      tag_205\n      jump\t// in\n    tag_258:\n      swap3\n      pop\n      pop\n      dup2\n      swap1\n      sstore\n      pop\n        /* \"contracts/4_Product.sol\":6186:6193  _amount */\n      dup1\n        /* \"contracts/4_Product.sol\":6164:6172  balances */\n      0x04\n        /* \"contracts/4_Product.sol\":6164:6182  balances[_account] */\n      0x00\n        /* \"contracts/4_Product.sol\":6173:6181  _account */\n      dup5\n        /* \"contracts/4_Product.sol\":6164:6182  balances[_account] */\n      0xffffffffffffffffffffffffffffffffffffffff\n      and\n      0xffffffffffffffffffffffffffffffffffffffff\n      and\n      dup2\n      mstore\n      0x20\n      add\n      swap1\n      dup2\n      mstore\n      0x20\n      add\n      0x00\n      keccak256\n      0x00\n        /* \"contracts/4_Product.sol\":6164:6193  balances[_account] -= _amount */\n      dup3\n      dup3\n      sload\n      tag_259\n      swap2\n      swap1\n      tag_205\n      jump\t// in\n    tag_259:\n      swap3\n      pop\n      pop\n      dup2\n      swap1\n      sstore\n      pop\n        /* \"contracts/4_Product.sol\":5784:6201  function burn(address _account, uint256 _amount) public OnlyTokenOwner {\r... */\n      pop\n      pop\n      jump\t// out\n        /* \"contracts/4_Product.sol\":4075:4297  function mint(uint256 _amount) public OnlyTokenOwner {\r... */\n    tag_71:\n        /* \"contracts/4_Product.sol\":2674:2684  tokenOwner */\n      0x02\n      0x00\n      swap1\n      sload\n      swap1\n      0x0100\n      exp\n      swap1\n      div\n      0xffffffffffffffffffffffffffffffffffffffff\n      and\n        /* \"contracts/4_Product.sol\":2660:2684  msg.sender == tokenOwner */\n      0xffffffffffffffffffffffffffffffffffffffff\n      and\n        /* \"contracts/4_Product.sol\":2660:2670  msg.sender */\n      caller\n        /* \"contracts/4_Product.sol\":2660:2684  msg.sender == tokenOwner */\n      0xffffffffffffffffffffffffffffffffffffffff\n      and\n      eq\n        /* \"contracts/4_Product.sol\":2652:2719  require(msg.sender == tokenOwner, 'caller is not the token owner.') */\n      tag_261\n      jumpi\n      mload(0x40)\n      0x08c379a000000000000000000000000000000000000000000000000000000000\n      dup2\n      mstore\n      0x04\n      add\n      tag_262\n      swap1\n      tag_254\n      jump\t// in\n    tag_262:\n      mload(0x40)\n      dup1\n      swap2\n      sub\n      swap1\n      revert\n    tag_261:\n        /* \"contracts/4_Product.sol\":4155:4162  _amount */\n      dup1\n        /* \"contracts/4_Product.sol\":4139:4151  _totalSupply */\n      0x03\n      0x00\n        /* \"contracts/4_Product.sol\":4139:4162  _totalSupply += _amount */\n      dup3\n      dup3\n      sload\n      tag_264\n      swap2\n      swap1\n      tag_207\n      jump\t// in\n    tag_264:\n      swap3\n      pop\n      pop\n      dup2\n      swap1\n      sstore\n      pop\n        /* \"contracts/4_Product.sol\":4233:4240  _amount */\n      dup1\n        /* \"contracts/4_Product.sol\":4209:4217  balances */\n      0x04\n        /* \"contracts/4_Product.sol\":4209:4229  balances[msg.sender] */\n      0x00\n        /* \"contracts/4_Product.sol\":4218:4228  msg.sender */\n      caller\n        /* \"contracts/4_Product.sol\":4209:4229  balances[msg.sender] */\n      0xffffffffffffffffffffffffffffffffffffffff\n      and\n      0xffffffffffffffffffffffffffffffffffffffff\n      and\n      dup2\n      mstore\n      0x20\n      add\n      swap1\n      dup2\n      mstore\n      0x20\n      add\n      0x00\n      keccak256\n      0x00\n        /* \"contracts/4_Product.sol\":4209:4240  balances[msg.sender] += _amount */\n      dup3\n      dup3\n      sload\n      tag_265\n      swap2\n      swap1\n      tag_207\n      jump\t// in\n    tag_265:\n      swap3\n      pop\n      pop\n      dup2\n      swap1\n      sstore\n      pop\n        /* \"contracts/4_Product.sol\":4075:4297  function mint(uint256 _amount) public OnlyTokenOwner {\r... */\n      pop\n      jump\t// out\n        /* \"contracts/4_Product.sol\":165:199  address payable public  tokenOwner */\n    tag_74:\n      0x02\n      0x00\n      swap1\n      sload\n      swap1\n      0x0100\n      exp\n      swap1\n      div\n      0xffffffffffffffffffffffffffffffffffffffff\n      and\n      dup2\n      jump\t// out\n        /* \"contracts/4_Product.sol\":6259:6756  function buyToken() public payable {\r... */\n    tag_78:\n        /* \"contracts/4_Product.sol\":6304:6320  uint256 tokenNum */\n      0x00\n        /* \"contracts/4_Product.sol\":287:290  100 */\n      0x64\n        /* \"contracts/4_Product.sol\":6323:6332  msg.value */\n      callvalue\n        /* \"contracts/4_Product.sol\":6323:6343  msg.value/tokenPrice */\n      tag_267\n      swap2\n      swap1\n      tag_268\n      jump\t// in\n    tag_267:\n        /* \"contracts/4_Product.sol\":6304:6343  uint256 tokenNum = msg.value/tokenPrice */\n      swap1\n      pop\n        /* \"contracts/4_Product.sol\":6405:6406  0 */\n      0x00\n        /* \"contracts/4_Product.sol\":6393:6402  msg.value */\n      callvalue\n        /* \"contracts/4_Product.sol\":6393:6406  msg.value > 0 */\n      gt\n        /* \"contracts/4_Product.sol\":6385:6407  require(msg.value > 0) */\n      tag_269\n      jumpi\n      0x00\n      dup1\n      revert\n    tag_269:\n        /* \"contracts/4_Product.sol\":6455:6465  tokenOwner */\n      0x02\n      0x00\n      swap1\n      sload\n      swap1\n      0x0100\n      exp\n      swap1\n      div\n      0xffffffffffffffffffffffffffffffffffffffff\n      and\n        /* \"contracts/4_Product.sol\":6455:6474  tokenOwner.transfer */\n      0xffffffffffffffffffffffffffffffffffffffff\n      and\n        /* \"contracts/4_Product.sol\":6455:6485  tokenOwner.transfer(msg.value) */\n      0x08fc\n        /* \"contracts/4_Product.sol\":6475:6484  msg.value */\n      callvalue\n        /* \"contracts/4_Product.sol\":6455:6485  tokenOwner.transfer(msg.value) */\n      swap1\n      dup2\n      iszero\n      mul\n      swap1\n      mload(0x40)\n      0x00\n      mload(0x40)\n      dup1\n      dup4\n      sub\n      dup2\n      dup6\n      dup9\n      dup9\n      call\n      swap4\n      pop\n      pop\n      pop\n      pop\n      iszero\n      dup1\n      iszero\n      tag_271\n      jumpi\n      returndatasize\n      0x00\n      dup1\n      returndatacopy\n      revert(0x00, returndatasize)\n    tag_271:\n      pop\n        /* \"contracts/4_Product.sol\":6585:6593  tokenNum */\n      dup1\n        /* \"contracts/4_Product.sol\":6561:6569  balances */\n      0x04\n        /* \"contracts/4_Product.sol\":6561:6581  balances[tokenOwner] */\n      0x00\n        /* \"contracts/4_Product.sol\":6570:6580  tokenOwner */\n      0x02\n      0x00\n      swap1\n      sload\n      swap1\n      0x0100\n      exp\n      swap1\n      div\n      0xffffffffffffffffffffffffffffffffffffffff\n      and\n        /* \"contracts/4_Product.sol\":6561:6581  balances[tokenOwner] */\n      0xffffffffffffffffffffffffffffffffffffffff\n      and\n      0xffffffffffffffffffffffffffffffffffffffff\n      and\n      dup2\n      mstore\n      0x20\n      add\n      swap1\n      dup2\n      mstore\n      0x20\n      add\n      0x00\n      keccak256\n      0x00\n        /* \"contracts/4_Product.sol\":6561:6593  balances[tokenOwner] -= tokenNum */\n      dup3\n      dup3\n      sload\n      tag_272\n      swap2\n      swap1\n      tag_205\n      jump\t// in\n    tag_272:\n      swap3\n      pop\n      pop\n      dup2\n      swap1\n      sstore\n      pop\n        /* \"contracts/4_Product.sol\":6686:6694  tokenNum */\n      dup1\n        /* \"contracts/4_Product.sol\":6662:6670  balances */\n      0x04\n        /* \"contracts/4_Product.sol\":6662:6682  balances[msg.sender] */\n      0x00\n        /* \"contracts/4_Product.sol\":6671:6681  msg.sender */\n      caller\n        /* \"contracts/4_Product.sol\":6662:6682  balances[msg.sender] */\n      0xffffffffffffffffffffffffffffffffffffffff\n      and\n      0xffffffffffffffffffffffffffffffffffffffff\n      and\n      dup2\n      mstore\n      0x20\n      add\n      swap1\n      dup2\n      mstore\n      0x20\n      add\n      0x00\n      keccak256\n      0x00\n        /* \"contracts/4_Product.sol\":6662:6694  balances[msg.sender] += tokenNum */\n      dup3\n      dup3\n      sload\n      tag_273\n      swap2\n      swap1\n      tag_207\n      jump\t// in\n    tag_273:\n      swap3\n      pop\n      pop\n      dup2\n      swap1\n      sstore\n      pop\n        /* \"contracts/4_Product.sol\":6294:6756  {\r... */\n      pop\n        /* \"contracts/4_Product.sol\":6259:6756  function buyToken() public payable {\r... */\n      jump\t// out\n        /* \"contracts/4_Product.sol\":11396:11572  function getActorInfo(address _addr) public view returns\r... */\n    tag_83:\n        /* \"contracts/4_Product.sol\":11461:11471  Role _role */\n      0x00\n        /* \"contracts/4_Product.sol\":11478:11497  string memory _name */\n      0x60\n        /* \"contracts/4_Product.sol\":11517:11523  actors */\n      0x05\n        /* \"contracts/4_Product.sol\":11517:11530  actors[_addr] */\n      0x00\n        /* \"contracts/4_Product.sol\":11524:11529  _addr */\n      dup5\n        /* \"contracts/4_Product.sol\":11517:11530  actors[_addr] */\n      0xffffffffffffffffffffffffffffffffffffffff\n      and\n      0xffffffffffffffffffffffffffffffffffffffff\n      and\n      dup2\n      mstore\n      0x20\n      add\n      swap1\n      dup2\n      mstore\n      0x20\n      add\n      0x00\n      keccak256\n        /* \"contracts/4_Product.sol\":11517:11535  actors[_addr].role */\n      0x00\n      add\n      0x00\n      swap1\n      sload\n      swap1\n      0x0100\n      exp\n      swap1\n      div\n      0xff\n      and\n        /* \"contracts/4_Product.sol\":11509:11535  _role = actors[_addr].role */\n      swap2\n      pop\n        /* \"contracts/4_Product.sol\":11550:11556  actors */\n      0x05\n        /* \"contracts/4_Product.sol\":11550:11563  actors[_addr] */\n      0x00\n        /* \"contracts/4_Product.sol\":11557:11562  _addr */\n      dup5\n        /* \"contracts/4_Product.sol\":11550:11563  actors[_addr] */\n      0xffffffffffffffffffffffffffffffffffffffff\n      and\n      0xffffffffffffffffffffffffffffffffffffffff\n      and\n      dup2\n      mstore\n      0x20\n      add\n      swap1\n      dup2\n      mstore\n      0x20\n      add\n      0x00\n      keccak256\n        /* \"contracts/4_Product.sol\":11550:11568  actors[_addr].name */\n      0x01\n      add\n        /* \"contracts/4_Product.sol\":11542:11568  _name = actors[_addr].name */\n      dup1\n      sload\n      tag_275\n      swap1\n      tag_98\n      jump\t// in\n    tag_275:\n      dup1\n      0x1f\n      add\n      0x20\n      dup1\n      swap2\n      div\n      mul\n      0x20\n      add\n      mload(0x40)\n      swap1\n      dup2\n      add\n      0x40\n      mstore\n      dup1\n      swap3\n      swap2\n      swap1\n      dup2\n      dup2\n      mstore\n      0x20\n      add\n      dup3\n      dup1\n      sload\n      tag_276\n      swap1\n      tag_98\n      jump\t// in\n    tag_276:\n      dup1\n      iszero\n      tag_277\n      jumpi\n      dup1\n      0x1f\n      lt\n      tag_278\n      jumpi\n      0x0100\n      dup1\n      dup4\n      sload\n      div\n      mul\n      dup4\n      mstore\n      swap2\n      0x20\n      add\n      swap2\n      jump(tag_277)\n    tag_278:\n      dup3\n      add\n      swap2\n      swap1\n      0x00\n      mstore\n      keccak256(0x00, 0x20)\n      swap1\n    tag_279:\n      dup2\n      sload\n      dup2\n      mstore\n      swap1\n      0x01\n      add\n      swap1\n      0x20\n      add\n      dup1\n      dup4\n      gt\n      tag_279\n      jumpi\n      dup3\n      swap1\n      sub\n      0x1f\n      and\n      dup3\n      add\n      swap2\n    tag_277:\n      pop\n      pop\n      pop\n      pop\n      pop\n      swap1\n      pop\n        /* \"contracts/4_Product.sol\":11396:11572  function getActorInfo(address _addr) public view returns\r... */\n      swap2\n      pop\n      swap2\n      jump\t// out\n        /* \"contracts/4_Product.sol\":3853:3959  function etherBalance(address _addr) public view returns (uint256) {\r... */\n    tag_89:\n        /* \"contracts/4_Product.sol\":3911:3918  uint256 */\n      0x00\n        /* \"contracts/4_Product.sol\":3938:3943  _addr */\n      dup2\n        /* \"contracts/4_Product.sol\":3938:3951  _addr.balance */\n      0xffffffffffffffffffffffffffffffffffffffff\n      and\n      balance\n        /* \"contracts/4_Product.sol\":3931:3951  return _addr.balance */\n      swap1\n      pop\n        /* \"contracts/4_Product.sol\":3853:3959  function etherBalance(address _addr) public view returns (uint256) {\r... */\n      swap2\n      swap1\n      pop\n      jump\t// out\n        /* \"contracts/4_Product.sol\":3679:3787  function tokenBalance(address _addr) public view returns (uint256) {\r... */\n    tag_95:\n        /* \"contracts/4_Product.sol\":3737:3744  uint256 */\n      0x00\n        /* \"contracts/4_Product.sol\":3764:3772  balances */\n      0x04\n        /* \"contracts/4_Product.sol\":3764:3779  balances[_addr] */\n      0x00\n        /* \"contracts/4_Product.sol\":3773:3778  _addr */\n      dup4\n        /* \"contracts/4_Product.sol\":3764:3779  balances[_addr] */\n      0xffffffffffffffffffffffffffffffffffffffff\n      and\n      0xffffffffffffffffffffffffffffffffffffffff\n      and\n      dup2\n      mstore\n      0x20\n      add\n      swap1\n      dup2\n      mstore\n      0x20\n      add\n      0x00\n      keccak256\n      sload\n        /* \"contracts/4_Product.sol\":3757:3779  return balances[_addr] */\n      swap1\n      pop\n        /* \"contracts/4_Product.sol\":3679:3787  function tokenBalance(address _addr) public view returns (uint256) {\r... */\n      swap2\n      swap1\n      pop\n      jump\t// out\n    tag_121:\n      dup3\n      dup1\n      sload\n      tag_282\n      swap1\n      tag_98\n      jump\t// in\n    tag_282:\n      swap1\n      0x00\n      mstore\n      keccak256(0x00, 0x20)\n      swap1\n      0x1f\n      add\n      0x20\n      swap1\n      div\n      dup2\n      add\n      swap3\n      dup3\n      tag_284\n      jumpi\n      0x00\n      dup6\n      sstore\n      jump(tag_283)\n    tag_284:\n      dup3\n      0x1f\n      lt\n      tag_285\n      jumpi\n      dup1\n      mload\n      not(0xff)\n      and\n      dup4\n      dup1\n      add\n      or\n      dup6\n      sstore\n      jump(tag_283)\n    tag_285:\n      dup3\n      dup1\n      add\n      0x01\n      add\n      dup6\n      sstore\n      dup3\n      iszero\n      tag_283\n      jumpi\n      swap2\n      dup3\n      add\n    tag_286:\n      dup3\n      dup2\n      gt\n      iszero\n      tag_287\n      jumpi\n      dup3\n      mload\n      dup3\n      sstore\n      swap2\n      0x20\n      add\n      swap2\n      swap1\n      0x01\n      add\n      swap1\n      jump(tag_286)\n    tag_287:\n    tag_283:\n      pop\n      swap1\n      pop\n      tag_288\n      swap2\n      swap1\n      tag_289\n      jump\t// in\n    tag_288:\n      pop\n      swap1\n      jump\t// out\n    tag_209:\n      mload(0x40)\n      dup1\n      0xe0\n      add\n      0x40\n      mstore\n      dup1\n      0x60\n      dup2\n      mstore\n      0x20\n      add\n      0x60\n      dup2\n      mstore\n      0x20\n      add\n      0x60\n      dup2\n      mstore\n      0x20\n      add\n      0x60\n      dup2\n      mstore\n      0x20\n      add\n      0x60\n      dup2\n      mstore\n      0x20\n      add\n      0x60\n      dup2\n      mstore\n      0x20\n      add\n      0x60\n      dup2\n      mstore\n      pop\n      swap1\n      jump\t// out\n    tag_289:\n    tag_290:\n      dup1\n      dup3\n      gt\n      iszero\n      tag_291\n      jumpi\n      0x00\n      dup2\n      0x00\n      swap1\n      sstore\n      pop\n      0x01\n      add\n      jump(tag_290)\n    tag_291:\n      pop\n      swap1\n      jump\t// out\n        /* \"#utility.yul\":7:419   */\n    tag_293:\n        /* \"#utility.yul\":85:90   */\n      0x00\n        /* \"#utility.yul\":110:176   */\n      tag_295\n        /* \"#utility.yul\":126:175   */\n      tag_296\n        /* \"#utility.yul\":168:174   */\n      dup5\n        /* \"#utility.yul\":126:175   */\n      tag_297\n      jump\t// in\n    tag_296:\n        /* \"#utility.yul\":110:176   */\n      tag_298\n      jump\t// in\n    tag_295:\n        /* \"#utility.yul\":101:176   */\n      swap1\n      pop\n        /* \"#utility.yul\":199:205   */\n      dup3\n        /* \"#utility.yul\":192:197   */\n      dup2\n        /* \"#utility.yul\":185:206   */\n      mstore\n        /* \"#utility.yul\":237:241   */\n      0x20\n        /* \"#utility.yul\":230:235   */\n      dup2\n        /* \"#utility.yul\":226:242   */\n      add\n        /* \"#utility.yul\":275:278   */\n      dup5\n        /* \"#utility.yul\":266:272   */\n      dup5\n        /* \"#utility.yul\":261:264   */\n      dup5\n        /* \"#utility.yul\":257:273   */\n      add\n        /* \"#utility.yul\":254:279   */\n      gt\n        /* \"#utility.yul\":251:363   */\n      iszero\n      tag_299\n      jumpi\n        /* \"#utility.yul\":282:361   */\n      tag_300\n      tag_301\n      jump\t// in\n    tag_300:\n        /* \"#utility.yul\":251:363   */\n    tag_299:\n        /* \"#utility.yul\":372:413   */\n      tag_302\n        /* \"#utility.yul\":406:412   */\n      dup5\n        /* \"#utility.yul\":401:404   */\n      dup3\n        /* \"#utility.yul\":396:399   */\n      dup6\n        /* \"#utility.yul\":372:413   */\n      tag_303\n      jump\t// in\n    tag_302:\n        /* \"#utility.yul\":91:419   */\n      pop\n        /* \"#utility.yul\":7:419   */\n      swap4\n      swap3\n      pop\n      pop\n      pop\n      jump\t// out\n        /* \"#utility.yul\":425:564   */\n    tag_304:\n        /* \"#utility.yul\":471:476   */\n      0x00\n        /* \"#utility.yul\":509:515   */\n      dup2\n        /* \"#utility.yul\":496:516   */\n      calldataload\n        /* \"#utility.yul\":487:516   */\n      swap1\n      pop\n        /* \"#utility.yul\":525:558   */\n      tag_306\n        /* \"#utility.yul\":552:557   */\n      dup2\n        /* \"#utility.yul\":525:558   */\n      tag_307\n      jump\t// in\n    tag_306:\n        /* \"#utility.yul\":425:564   */\n      swap3\n      swap2\n      pop\n      pop\n      jump\t// out\n        /* \"#utility.yul\":570:723   */\n    tag_308:\n        /* \"#utility.yul\":623:628   */\n      0x00\n        /* \"#utility.yul\":661:667   */\n      dup2\n        /* \"#utility.yul\":648:668   */\n      calldataload\n        /* \"#utility.yul\":639:668   */\n      swap1\n      pop\n        /* \"#utility.yul\":677:717   */\n      tag_310\n        /* \"#utility.yul\":711:716   */\n      dup2\n        /* \"#utility.yul\":677:717   */\n      tag_311\n      jump\t// in\n    tag_310:\n        /* \"#utility.yul\":570:723   */\n      swap3\n      swap2\n      pop\n      pop\n      jump\t// out\n        /* \"#utility.yul\":743:1083   */\n    tag_312:\n        /* \"#utility.yul\":799:804   */\n      0x00\n        /* \"#utility.yul\":848:851   */\n      dup3\n        /* \"#utility.yul\":841:845   */\n      0x1f\n        /* \"#utility.yul\":833:839   */\n      dup4\n        /* \"#utility.yul\":829:846   */\n      add\n        /* \"#utility.yul\":825:852   */\n      slt\n        /* \"#utility.yul\":815:937   */\n      tag_314\n      jumpi\n        /* \"#utility.yul\":856:935   */\n      tag_315\n      tag_316\n      jump\t// in\n    tag_315:\n        /* \"#utility.yul\":815:937   */\n    tag_314:\n        /* \"#utility.yul\":973:979   */\n      dup2\n        /* \"#utility.yul\":960:980   */\n      calldataload\n        /* \"#utility.yul\":998:1077   */\n      tag_317\n        /* \"#utility.yul\":1073:1076   */\n      dup5\n        /* \"#utility.yul\":1065:1071   */\n      dup3\n        /* \"#utility.yul\":1058:1062   */\n      0x20\n        /* \"#utility.yul\":1050:1056   */\n      dup7\n        /* \"#utility.yul\":1046:1063   */\n      add\n        /* \"#utility.yul\":998:1077   */\n      tag_293\n      jump\t// in\n    tag_317:\n        /* \"#utility.yul\":989:1077   */\n      swap2\n      pop\n        /* \"#utility.yul\":805:1083   */\n      pop\n        /* \"#utility.yul\":743:1083   */\n      swap3\n      swap2\n      pop\n      pop\n      jump\t// out\n        /* \"#utility.yul\":1089:1228   */\n    tag_318:\n        /* \"#utility.yul\":1135:1140   */\n      0x00\n        /* \"#utility.yul\":1173:1179   */\n      dup2\n        /* \"#utility.yul\":1160:1180   */\n      calldataload\n        /* \"#utility.yul\":1151:1180   */\n      swap1\n      pop\n        /* \"#utility.yul\":1189:1222   */\n      tag_320\n        /* \"#utility.yul\":1216:1221   */\n      dup2\n        /* \"#utility.yul\":1189:1222   */\n      tag_321\n      jump\t// in\n    tag_320:\n        /* \"#utility.yul\":1089:1228   */\n      swap3\n      swap2\n      pop\n      pop\n      jump\t// out\n        /* \"#utility.yul\":1234:1563   */\n    tag_82:\n        /* \"#utility.yul\":1293:1299   */\n      0x00\n        /* \"#utility.yul\":1342:1344   */\n      0x20\n        /* \"#utility.yul\":1330:1339   */\n      dup3\n        /* \"#utility.yul\":1321:1328   */\n      dup5\n        /* \"#utility.yul\":1317:1340   */\n      sub\n        /* \"#utility.yul\":1313:1345   */\n      slt\n        /* \"#utility.yul\":1310:1429   */\n      iszero\n      tag_323\n      jumpi\n        /* \"#utility.yul\":1348:1427   */\n      tag_324\n      tag_325\n      jump\t// in\n    tag_324:\n        /* \"#utility.yul\":1310:1429   */\n    tag_323:\n        /* \"#utility.yul\":1468:1469   */\n      0x00\n        /* \"#utility.yul\":1493:1546   */\n      tag_326\n        /* \"#utility.yul\":1538:1545   */\n      dup5\n        /* \"#utility.yul\":1529:1535   */\n      dup3\n        /* \"#utility.yul\":1518:1527   */\n      dup6\n        /* \"#utility.yul\":1514:1536   */\n      add\n        /* \"#utility.yul\":1493:1546   */\n      tag_304\n      jump\t// in\n    tag_326:\n        /* \"#utility.yul\":1483:1546   */\n      swap2\n      pop\n        /* \"#utility.yul\":1439:1556   */\n      pop\n        /* \"#utility.yul\":1234:1563   */\n      swap3\n      swap2\n      pop\n      pop\n      jump\t// out\n        /* \"#utility.yul\":1569:2382   */\n    tag_28:\n        /* \"#utility.yul\":1663:1669   */\n      0x00\n        /* \"#utility.yul\":1671:1677   */\n      dup1\n        /* \"#utility.yul\":1679:1685   */\n      0x00\n        /* \"#utility.yul\":1728:1730   */\n      0x60\n        /* \"#utility.yul\":1716:1725   */\n      dup5\n        /* \"#utility.yul\":1707:1714   */\n      dup7\n        /* \"#utility.yul\":1703:1726   */\n      sub\n        /* \"#utility.yul\":1699:1731   */\n      slt\n        /* \"#utility.yul\":1696:1815   */\n      iszero\n      tag_328\n      jumpi\n        /* \"#utility.yul\":1734:1813   */\n      tag_329\n      tag_325\n      jump\t// in\n    tag_329:\n        /* \"#utility.yul\":1696:1815   */\n    tag_328:\n        /* \"#utility.yul\":1854:1855   */\n      0x00\n        /* \"#utility.yul\":1879:1932   */\n      tag_330\n        /* \"#utility.yul\":1924:1931   */\n      dup7\n        /* \"#utility.yul\":1915:1921   */\n      dup3\n        /* \"#utility.yul\":1904:1913   */\n      dup8\n        /* \"#utility.yul\":1900:1922   */\n      add\n        /* \"#utility.yul\":1879:1932   */\n      tag_304\n      jump\t// in\n    tag_330:\n        /* \"#utility.yul\":1869:1932   */\n      swap4\n      pop\n        /* \"#utility.yul\":1825:1942   */\n      pop\n        /* \"#utility.yul\":1981:1983   */\n      0x20\n        /* \"#utility.yul\":2007:2067   */\n      tag_331\n        /* \"#utility.yul\":2059:2066   */\n      dup7\n        /* \"#utility.yul\":2050:2056   */\n      dup3\n        /* \"#utility.yul\":2039:2048   */\n      dup8\n        /* \"#utility.yul\":2035:2057   */\n      add\n        /* \"#utility.yul\":2007:2067   */\n      tag_308\n      jump\t// in\n    tag_331:\n        /* \"#utility.yul\":1997:2067   */\n      swap3\n      pop\n        /* \"#utility.yul\":1952:2077   */\n      pop\n        /* \"#utility.yul\":2144:2146   */\n      0x40\n        /* \"#utility.yul\":2133:2142   */\n      dup5\n        /* \"#utility.yul\":2129:2147   */\n      add\n        /* \"#utility.yul\":2116:2148   */\n      calldataload\n        /* \"#utility.yul\":2175:2193   */\n      0xffffffffffffffff\n        /* \"#utility.yul\":2167:2173   */\n      dup2\n        /* \"#utility.yul\":2164:2194   */\n      gt\n        /* \"#utility.yul\":2161:2278   */\n      iszero\n      tag_332\n      jumpi\n        /* \"#utility.yul\":2197:2276   */\n      tag_333\n      tag_334\n      jump\t// in\n    tag_333:\n        /* \"#utility.yul\":2161:2278   */\n    tag_332:\n        /* \"#utility.yul\":2302:2365   */\n      tag_335\n        /* \"#utility.yul\":2357:2364   */\n      dup7\n        /* \"#utility.yul\":2348:2354   */\n      dup3\n        /* \"#utility.yul\":2337:2346   */\n      dup8\n        /* \"#utility.yul\":2333:2355   */\n      add\n        /* \"#utility.yul\":2302:2365   */\n      tag_312\n      jump\t// in\n    tag_335:\n        /* \"#utility.yul\":2292:2365   */\n      swap2\n      pop\n        /* \"#utility.yul\":2087:2375   */\n      pop\n        /* \"#utility.yul\":1569:2382   */\n      swap3\n      pop\n      swap3\n      pop\n      swap3\n      jump\t// out\n        /* \"#utility.yul\":2388:2862   */\n    tag_50:\n        /* \"#utility.yul\":2456:2462   */\n      0x00\n        /* \"#utility.yul\":2464:2470   */\n      dup1\n        /* \"#utility.yul\":2513:2515   */\n      0x40\n        /* \"#utility.yul\":2501:2510   */\n      dup4\n        /* \"#utility.yul\":2492:2499   */\n      dup6\n        /* \"#utility.yul\":2488:2511   */\n      sub\n        /* \"#utility.yul\":2484:2516   */\n      slt\n        /* \"#utility.yul\":2481:2600   */\n      iszero\n      tag_337\n      jumpi\n        /* \"#utility.yul\":2519:2598   */\n      tag_338\n      tag_325\n      jump\t// in\n    tag_338:\n        /* \"#utility.yul\":2481:2600   */\n    tag_337:\n        /* \"#utility.yul\":2639:2640   */\n      0x00\n        /* \"#utility.yul\":2664:2717   */\n      tag_339\n        /* \"#utility.yul\":2709:2716   */\n      dup6\n        /* \"#utility.yul\":2700:2706   */\n      dup3\n        /* \"#utility.yul\":2689:2698   */\n      dup7\n        /* \"#utility.yul\":2685:2707   */\n      add\n        /* \"#utility.yul\":2664:2717   */\n      tag_304\n      jump\t// in\n    tag_339:\n        /* \"#utility.yul\":2654:2717   */\n      swap3\n      pop\n        /* \"#utility.yul\":2610:2727   */\n      pop\n        /* \"#utility.yul\":2766:2768   */\n      0x20\n        /* \"#utility.yul\":2792:2845   */\n      tag_340\n        /* \"#utility.yul\":2837:2844   */\n      dup6\n        /* \"#utility.yul\":2828:2834   */\n      dup3\n        /* \"#utility.yul\":2817:2826   */\n      dup7\n        /* \"#utility.yul\":2813:2835   */\n      add\n        /* \"#utility.yul\":2792:2845   */\n      tag_318\n      jump\t// in\n    tag_340:\n        /* \"#utility.yul\":2782:2845   */\n      swap2\n      pop\n        /* \"#utility.yul\":2737:2855   */\n      pop\n        /* \"#utility.yul\":2388:2862   */\n      swap3\n      pop\n      swap3\n      swap1\n      pop\n      jump\t// out\n        /* \"#utility.yul\":2868:3197   */\n    tag_43:\n        /* \"#utility.yul\":2927:2933   */\n      0x00\n        /* \"#utility.yul\":2976:2978   */\n      0x20\n        /* \"#utility.yul\":2964:2973   */\n      dup3\n        /* \"#utility.yul\":2955:2962   */\n      dup5\n        /* \"#utility.yul\":2951:2974   */\n      sub\n        /* \"#utility.yul\":2947:2979   */\n      slt\n        /* \"#utility.yul\":2944:3063   */\n      iszero\n      tag_342\n      jumpi\n        /* \"#utility.yul\":2982:3061   */\n      tag_343\n      tag_325\n      jump\t// in\n    tag_343:\n        /* \"#utility.yul\":2944:3063   */\n    tag_342:\n        /* \"#utility.yul\":3102:3103   */\n      0x00\n        /* \"#utility.yul\":3127:3180   */\n      tag_344\n        /* \"#utility.yul\":3172:3179   */\n      dup5\n        /* \"#utility.yul\":3163:3169   */\n      dup3\n        /* \"#utility.yul\":3152:3161   */\n      dup6\n        /* \"#utility.yul\":3148:3170   */\n      add\n        /* \"#utility.yul\":3127:3180   */\n      tag_318\n      jump\t// in\n    tag_344:\n        /* \"#utility.yul\":3117:3180   */\n      swap2\n      pop\n        /* \"#utility.yul\":3073:3190   */\n      pop\n        /* \"#utility.yul\":2868:3197   */\n      swap3\n      swap2\n      pop\n      pop\n      jump\t// out\n        /* \"#utility.yul\":3203:3677   */\n    tag_33:\n        /* \"#utility.yul\":3271:3277   */\n      0x00\n        /* \"#utility.yul\":3279:3285   */\n      dup1\n        /* \"#utility.yul\":3328:3330   */\n      0x40\n        /* \"#utility.yul\":3316:3325   */\n      dup4\n        /* \"#utility.yul\":3307:3314   */\n      dup6\n        /* \"#utility.yul\":3303:3326   */\n      sub\n        /* \"#utility.yul\":3299:3331   */\n      slt\n        /* \"#utility.yul\":3296:3415   */\n      iszero\n      tag_346\n      jumpi\n        /* \"#utility.yul\":3334:3413   */\n      tag_347\n      tag_325\n      jump\t// in\n    tag_347:\n        /* \"#utility.yul\":3296:3415   */\n    tag_346:\n        /* \"#utility.yul\":3454:3455   */\n      0x00\n        /* \"#utility.yul\":3479:3532   */\n      tag_348\n        /* \"#utility.yul\":3524:3531   */\n      dup6\n        /* \"#utility.yul\":3515:3521   */\n      dup3\n        /* \"#utility.yul\":3504:3513   */\n      dup7\n        /* \"#utility.yul\":3500:3522   */\n      add\n        /* \"#utility.yul\":3479:3532   */\n      tag_318\n      jump\t// in\n    tag_348:\n        /* \"#utility.yul\":3469:3532   */\n      swap3\n      pop\n        /* \"#utility.yul\":3425:3542   */\n      pop\n        /* \"#utility.yul\":3581:3583   */\n      0x20\n        /* \"#utility.yul\":3607:3660   */\n      tag_349\n        /* \"#utility.yul\":3652:3659   */\n      dup6\n        /* \"#utility.yul\":3643:3649   */\n      dup3\n        /* \"#utility.yul\":3632:3641   */\n      dup7\n        /* \"#utility.yul\":3628:3650   */\n      add\n        /* \"#utility.yul\":3607:3660   */\n      tag_318\n      jump\t// in\n    tag_349:\n        /* \"#utility.yul\":3597:3660   */\n      swap2\n      pop\n        /* \"#utility.yul\":3552:3670   */\n      pop\n        /* \"#utility.yul\":3203:3677   */\n      swap3\n      pop\n      swap3\n      swap1\n      pop\n      jump\t// out\n        /* \"#utility.yul\":3683:6584   */\n    tag_38:\n        /* \"#utility.yul\":3893:3899   */\n      0x00\n        /* \"#utility.yul\":3901:3907   */\n      dup1\n        /* \"#utility.yul\":3909:3915   */\n      0x00\n        /* \"#utility.yul\":3917:3923   */\n      dup1\n        /* \"#utility.yul\":3925:3931   */\n      0x00\n        /* \"#utility.yul\":3933:3939   */\n      dup1\n        /* \"#utility.yul\":3941:3947   */\n      0x00\n        /* \"#utility.yul\":3949:3955   */\n      dup1\n        /* \"#utility.yul\":3957:3963   */\n      0x00\n        /* \"#utility.yul\":3965:3971   */\n      dup1\n        /* \"#utility.yul\":4014:4017   */\n      0x0140\n        /* \"#utility.yul\":4002:4011   */\n      dup12\n        /* \"#utility.yul\":3993:4000   */\n      dup14\n        /* \"#utility.yul\":3989:4012   */\n      sub\n        /* \"#utility.yul\":3985:4018   */\n      slt\n        /* \"#utility.yul\":3982:4102   */\n      iszero\n      tag_351\n      jumpi\n        /* \"#utility.yul\":4021:4100   */\n      tag_352\n      tag_325\n      jump\t// in\n    tag_352:\n        /* \"#utility.yul\":3982:4102   */\n    tag_351:\n        /* \"#utility.yul\":4141:4142   */\n      0x00\n        /* \"#utility.yul\":4166:4219   */\n      tag_353\n        /* \"#utility.yul\":4211:4218   */\n      dup14\n        /* \"#utility.yul\":4202:4208   */\n      dup3\n        /* \"#utility.yul\":4191:4200   */\n      dup15\n        /* \"#utility.yul\":4187:4209   */\n      add\n        /* \"#utility.yul\":4166:4219   */\n      tag_318\n      jump\t// in\n    tag_353:\n        /* \"#utility.yul\":4156:4219   */\n      swap11\n      pop\n        /* \"#utility.yul\":4112:4229   */\n      pop\n        /* \"#utility.yul\":4268:4270   */\n      0x20\n        /* \"#utility.yul\":4294:4347   */\n      tag_354\n        /* \"#utility.yul\":4339:4346   */\n      dup14\n        /* \"#utility.yul\":4330:4336   */\n      dup3\n        /* \"#utility.yul\":4319:4328   */\n      dup15\n        /* \"#utility.yul\":4315:4337   */\n      add\n        /* \"#utility.yul\":4294:4347   */\n      tag_318\n      jump\t// in\n    tag_354:\n        /* \"#utility.yul\":4284:4347   */\n      swap10\n      pop\n        /* \"#utility.yul\":4239:4357   */\n      pop\n        /* \"#utility.yul\":4396:4398   */\n      0x40\n        /* \"#utility.yul\":4422:4475   */\n      tag_355\n        /* \"#utility.yul\":4467:4474   */\n      dup14\n        /* \"#utility.yul\":4458:4464   */\n      dup3\n        /* \"#utility.yul\":4447:4456   */\n      dup15\n        /* \"#utility.yul\":4443:4465   */\n      add\n        /* \"#utility.yul\":4422:4475   */\n      tag_318\n      jump\t// in\n    tag_355:\n        /* \"#utility.yul\":4412:4475   */\n      swap9\n      pop\n        /* \"#utility.yul\":4367:4485   */\n      pop\n        /* \"#utility.yul\":4552:4554   */\n      0x60\n        /* \"#utility.yul\":4541:4550   */\n      dup12\n        /* \"#utility.yul\":4537:4555   */\n      add\n        /* \"#utility.yul\":4524:4556   */\n      calldataload\n        /* \"#utility.yul\":4583:4601   */\n      0xffffffffffffffff\n        /* \"#utility.yul\":4575:4581   */\n      dup2\n        /* \"#utility.yul\":4572:4602   */\n      gt\n        /* \"#utility.yul\":4569:4686   */\n      iszero\n      tag_356\n      jumpi\n        /* \"#utility.yul\":4605:4684   */\n      tag_357\n      tag_334\n      jump\t// in\n    tag_357:\n        /* \"#utility.yul\":4569:4686   */\n    tag_356:\n        /* \"#utility.yul\":4710:4773   */\n      tag_358\n        /* \"#utility.yul\":4765:4772   */\n      dup14\n        /* \"#utility.yul\":4756:4762   */\n      dup3\n        /* \"#utility.yul\":4745:4754   */\n      dup15\n        /* \"#utility.yul\":4741:4763   */\n      add\n        /* \"#utility.yul\":4710:4773   */\n      tag_312\n      jump\t// in\n    tag_358:\n        /* \"#utility.yul\":4700:4773   */\n      swap8\n      pop\n        /* \"#utility.yul\":4495:4783   */\n      pop\n        /* \"#utility.yul\":4850:4853   */\n      0x80\n        /* \"#utility.yul\":4839:4848   */\n      dup12\n        /* \"#utility.yul\":4835:4854   */\n      add\n        /* \"#utility.yul\":4822:4855   */\n      calldataload\n        /* \"#utility.yul\":4882:4900   */\n      0xffffffffffffffff\n        /* \"#utility.yul\":4874:4880   */\n      dup2\n        /* \"#utility.yul\":4871:4901   */\n      gt\n        /* \"#utility.yul\":4868:4985   */\n      iszero\n      tag_359\n      jumpi\n        /* \"#utility.yul\":4904:4983   */\n      tag_360\n      tag_334\n      jump\t// in\n    tag_360:\n        /* \"#utility.yul\":4868:4985   */\n    tag_359:\n        /* \"#utility.yul\":5009:5072   */\n      tag_361\n        /* \"#utility.yul\":5064:5071   */\n      dup14\n        /* \"#utility.yul\":5055:5061   */\n      dup3\n        /* \"#utility.yul\":5044:5053   */\n      dup15\n        /* \"#utility.yul\":5040:5062   */\n      add\n        /* \"#utility.yul\":5009:5072   */\n      tag_312\n      jump\t// in\n    tag_361:\n        /* \"#utility.yul\":4999:5072   */\n      swap7\n      pop\n        /* \"#utility.yul\":4793:5082   */\n      pop\n        /* \"#utility.yul\":5149:5152   */\n      0xa0\n        /* \"#utility.yul\":5138:5147   */\n      dup12\n        /* \"#utility.yul\":5134:5153   */\n      add\n        /* \"#utility.yul\":5121:5154   */\n      calldataload\n        /* \"#utility.yul\":5181:5199   */\n      0xffffffffffffffff\n        /* \"#utility.yul\":5173:5179   */\n      dup2\n        /* \"#utility.yul\":5170:5200   */\n      gt\n        /* \"#utility.yul\":5167:5284   */\n      iszero\n      tag_362\n      jumpi\n        /* \"#utility.yul\":5203:5282   */\n      tag_363\n      tag_334\n      jump\t// in\n    tag_363:\n        /* \"#utility.yul\":5167:5284   */\n    tag_362:\n        /* \"#utility.yul\":5308:5371   */\n      tag_364\n        /* \"#utility.yul\":5363:5370   */\n      dup14\n        /* \"#utility.yul\":5354:5360   */\n      dup3\n        /* \"#utility.yul\":5343:5352   */\n      dup15\n        /* \"#utility.yul\":5339:5361   */\n      add\n        /* \"#utility.yul\":5308:5371   */\n      tag_312\n      jump\t// in\n    tag_364:\n        /* \"#utility.yul\":5298:5371   */\n      swap6\n      pop\n        /* \"#utility.yul\":5092:5381   */\n      pop\n        /* \"#utility.yul\":5448:5451   */\n      0xc0\n        /* \"#utility.yul\":5437:5446   */\n      dup12\n        /* \"#utility.yul\":5433:5452   */\n      add\n        /* \"#utility.yul\":5420:5453   */\n      calldataload\n        /* \"#utility.yul\":5480:5498   */\n      0xffffffffffffffff\n        /* \"#utility.yul\":5472:5478   */\n      dup2\n        /* \"#utility.yul\":5469:5499   */\n      gt\n        /* \"#utility.yul\":5466:5583   */\n      iszero\n      tag_365\n      jumpi\n        /* \"#utility.yul\":5502:5581   */\n      tag_366\n      tag_334\n      jump\t// in\n    tag_366:\n        /* \"#utility.yul\":5466:5583   */\n    tag_365:\n        /* \"#utility.yul\":5607:5670   */\n      tag_367\n        /* \"#utility.yul\":5662:5669   */\n      dup14\n        /* \"#utility.yul\":5653:5659   */\n      dup3\n        /* \"#utility.yul\":5642:5651   */\n      dup15\n        /* \"#utility.yul\":5638:5660   */\n      add\n        /* \"#utility.yul\":5607:5670   */\n      tag_312\n      jump\t// in\n    tag_367:\n        /* \"#utility.yul\":5597:5670   */\n      swap5\n      pop\n        /* \"#utility.yul\":5391:5680   */\n      pop\n        /* \"#utility.yul\":5747:5750   */\n      0xe0\n        /* \"#utility.yul\":5736:5745   */\n      dup12\n        /* \"#utility.yul\":5732:5751   */\n      add\n        /* \"#utility.yul\":5719:5752   */\n      calldataload\n        /* \"#utility.yul\":5779:5797   */\n      0xffffffffffffffff\n        /* \"#utility.yul\":5771:5777   */\n      dup2\n        /* \"#utility.yul\":5768:5798   */\n      gt\n        /* \"#utility.yul\":5765:5882   */\n      iszero\n      tag_368\n      jumpi\n        /* \"#utility.yul\":5801:5880   */\n      tag_369\n      tag_334\n      jump\t// in\n    tag_369:\n        /* \"#utility.yul\":5765:5882   */\n    tag_368:\n        /* \"#utility.yul\":5906:5969   */\n      tag_370\n        /* \"#utility.yul\":5961:5968   */\n      dup14\n        /* \"#utility.yul\":5952:5958   */\n      dup3\n        /* \"#utility.yul\":5941:5950   */\n      dup15\n        /* \"#utility.yul\":5937:5959   */\n      add\n        /* \"#utility.yul\":5906:5969   */\n      tag_312\n      jump\t// in\n    tag_370:\n        /* \"#utility.yul\":5896:5969   */\n      swap4\n      pop\n        /* \"#utility.yul\":5690:5979   */\n      pop\n        /* \"#utility.yul\":6046:6049   */\n      0x0100\n        /* \"#utility.yul\":6035:6044   */\n      dup12\n        /* \"#utility.yul\":6031:6050   */\n      add\n        /* \"#utility.yul\":6018:6051   */\n      calldataload\n        /* \"#utility.yul\":6078:6096   */\n      0xffffffffffffffff\n        /* \"#utility.yul\":6070:6076   */\n      dup2\n        /* \"#utility.yul\":6067:6097   */\n      gt\n        /* \"#utility.yul\":6064:6181   */\n      iszero\n      tag_371\n      jumpi\n        /* \"#utility.yul\":6100:6179   */\n      tag_372\n      tag_334\n      jump\t// in\n    tag_372:\n        /* \"#utility.yul\":6064:6181   */\n    tag_371:\n        /* \"#utility.yul\":6205:6268   */\n      tag_373\n        /* \"#utility.yul\":6260:6267   */\n      dup14\n        /* \"#utility.yul\":6251:6257   */\n      dup3\n        /* \"#utility.yul\":6240:6249   */\n      dup15\n        /* \"#utility.yul\":6236:6258   */\n      add\n        /* \"#utility.yul\":6205:6268   */\n      tag_312\n      jump\t// in\n    tag_373:\n        /* \"#utility.yul\":6195:6268   */\n      swap3\n      pop\n        /* \"#utility.yul\":5989:6278   */\n      pop\n        /* \"#utility.yul\":6345:6348   */\n      0x0120\n        /* \"#utility.yul\":6334:6343   */\n      dup12\n        /* \"#utility.yul\":6330:6349   */\n      add\n        /* \"#utility.yul\":6317:6350   */\n      calldataload\n        /* \"#utility.yul\":6377:6395   */\n      0xffffffffffffffff\n        /* \"#utility.yul\":6369:6375   */\n      dup2\n        /* \"#utility.yul\":6366:6396   */\n      gt\n        /* \"#utility.yul\":6363:6480   */\n      iszero\n      tag_374\n      jumpi\n        /* \"#utility.yul\":6399:6478   */\n      tag_375\n      tag_334\n      jump\t// in\n    tag_375:\n        /* \"#utility.yul\":6363:6480   */\n    tag_374:\n        /* \"#utility.yul\":6504:6567   */\n      tag_376\n        /* \"#utility.yul\":6559:6566   */\n      dup14\n        /* \"#utility.yul\":6550:6556   */\n      dup3\n        /* \"#utility.yul\":6539:6548   */\n      dup15\n        /* \"#utility.yul\":6535:6557   */\n      add\n        /* \"#utility.yul\":6504:6567   */\n      tag_312\n      jump\t// in\n    tag_376:\n        /* \"#utility.yul\":6494:6567   */\n      swap2\n      pop\n        /* \"#utility.yul\":6288:6577   */\n      pop\n        /* \"#utility.yul\":3683:6584   */\n      swap3\n      swap6\n      swap9\n      swap12\n      swap2\n      swap5\n      swap8\n      swap11\n      pop\n      swap3\n      swap6\n      swap9\n      pop\n      jump\t// out\n        /* \"#utility.yul\":6590:6732   */\n    tag_377:\n        /* \"#utility.yul\":6693:6725   */\n      tag_379\n        /* \"#utility.yul\":6719:6724   */\n      dup2\n        /* \"#utility.yul\":6693:6725   */\n      tag_380\n      jump\t// in\n    tag_379:\n        /* \"#utility.yul\":6688:6691   */\n      dup3\n        /* \"#utility.yul\":6681:6726   */\n      mstore\n        /* \"#utility.yul\":6590:6732   */\n      pop\n      pop\n      jump\t// out\n        /* \"#utility.yul\":6738:6856   */\n    tag_381:\n        /* \"#utility.yul\":6825:6849   */\n      tag_383\n        /* \"#utility.yul\":6843:6848   */\n      dup2\n        /* \"#utility.yul\":6825:6849   */\n      tag_384\n      jump\t// in\n    tag_383:\n        /* \"#utility.yul\":6820:6823   */\n      dup3\n        /* \"#utility.yul\":6813:6850   */\n      mstore\n        /* \"#utility.yul\":6738:6856   */\n      pop\n      pop\n      jump\t// out\n        /* \"#utility.yul\":6862:6971   */\n    tag_385:\n        /* \"#utility.yul\":6943:6964   */\n      tag_387\n        /* \"#utility.yul\":6958:6963   */\n      dup2\n        /* \"#utility.yul\":6943:6964   */\n      tag_388\n      jump\t// in\n    tag_387:\n        /* \"#utility.yul\":6938:6941   */\n      dup3\n        /* \"#utility.yul\":6931:6965   */\n      mstore\n        /* \"#utility.yul\":6862:6971   */\n      pop\n      pop\n      jump\t// out\n        /* \"#utility.yul\":6977:7118   */\n    tag_389:\n        /* \"#utility.yul\":7069:7111   */\n      tag_391\n        /* \"#utility.yul\":7105:7110   */\n      dup2\n        /* \"#utility.yul\":7069:7111   */\n      tag_392\n      jump\t// in\n    tag_391:\n        /* \"#utility.yul\":7064:7067   */\n      dup3\n        /* \"#utility.yul\":7057:7112   */\n      mstore\n        /* \"#utility.yul\":6977:7118   */\n      pop\n      pop\n      jump\t// out\n        /* \"#utility.yul\":7124:7267   */\n    tag_393:\n        /* \"#utility.yul\":7217:7260   */\n      tag_395\n        /* \"#utility.yul\":7254:7259   */\n      dup2\n        /* \"#utility.yul\":7217:7260   */\n      tag_396\n      jump\t// in\n    tag_395:\n        /* \"#utility.yul\":7212:7215   */\n      dup3\n        /* \"#utility.yul\":7205:7261   */\n      mstore\n        /* \"#utility.yul\":7124:7267   */\n      pop\n      pop\n      jump\t// out\n        /* \"#utility.yul\":7273:7617   */\n    tag_397:\n        /* \"#utility.yul\":7351:7354   */\n      0x00\n        /* \"#utility.yul\":7379:7418   */\n      tag_399\n        /* \"#utility.yul\":7412:7417   */\n      dup3\n        /* \"#utility.yul\":7379:7418   */\n      tag_400\n      jump\t// in\n    tag_399:\n        /* \"#utility.yul\":7434:7495   */\n      tag_401\n        /* \"#utility.yul\":7488:7494   */\n      dup2\n        /* \"#utility.yul\":7483:7486   */\n      dup6\n        /* \"#utility.yul\":7434:7495   */\n      tag_402\n      jump\t// in\n    tag_401:\n        /* \"#utility.yul\":7427:7495   */\n      swap4\n      pop\n        /* \"#utility.yul\":7504:7556   */\n      tag_403\n        /* \"#utility.yul\":7549:7555   */\n      dup2\n        /* \"#utility.yul\":7544:7547   */\n      dup6\n        /* \"#utility.yul\":7537:7541   */\n      0x20\n        /* \"#utility.yul\":7530:7535   */\n      dup7\n        /* \"#utility.yul\":7526:7542   */\n      add\n        /* \"#utility.yul\":7504:7556   */\n      tag_404\n      jump\t// in\n    tag_403:\n        /* \"#utility.yul\":7581:7610   */\n      tag_405\n        /* \"#utility.yul\":7603:7609   */\n      dup2\n        /* \"#utility.yul\":7581:7610   */\n      tag_406\n      jump\t// in\n    tag_405:\n        /* \"#utility.yul\":7576:7579   */\n      dup5\n        /* \"#utility.yul\":7572:7611   */\n      add\n        /* \"#utility.yul\":7565:7611   */\n      swap2\n      pop\n        /* \"#utility.yul\":7355:7617   */\n      pop\n        /* \"#utility.yul\":7273:7617   */\n      swap3\n      swap2\n      pop\n      pop\n      jump\t// out\n        /* \"#utility.yul\":7623:7987   */\n    tag_407:\n        /* \"#utility.yul\":7711:7714   */\n      0x00\n        /* \"#utility.yul\":7739:7778   */\n      tag_409\n        /* \"#utility.yul\":7772:7777   */\n      dup3\n        /* \"#utility.yul\":7739:7778   */\n      tag_400\n      jump\t// in\n    tag_409:\n        /* \"#utility.yul\":7794:7865   */\n      tag_410\n        /* \"#utility.yul\":7858:7864   */\n      dup2\n        /* \"#utility.yul\":7853:7856   */\n      dup6\n        /* \"#utility.yul\":7794:7865   */\n      tag_411\n      jump\t// in\n    tag_410:\n        /* \"#utility.yul\":7787:7865   */\n      swap4\n      pop\n        /* \"#utility.yul\":7874:7926   */\n      tag_412\n        /* \"#utility.yul\":7919:7925   */\n      dup2\n        /* \"#utility.yul\":7914:7917   */\n      dup6\n        /* \"#utility.yul\":7907:7911   */\n      0x20\n        /* \"#utility.yul\":7900:7905   */\n      dup7\n        /* \"#utility.yul\":7896:7912   */\n      add\n        /* \"#utility.yul\":7874:7926   */\n      tag_404\n      jump\t// in\n    tag_412:\n        /* \"#utility.yul\":7951:7980   */\n      tag_413\n        /* \"#utility.yul\":7973:7979   */\n      dup2\n        /* \"#utility.yul\":7951:7980   */\n      tag_406\n      jump\t// in\n    tag_413:\n        /* \"#utility.yul\":7946:7949   */\n      dup5\n        /* \"#utility.yul\":7942:7981   */\n      add\n        /* \"#utility.yul\":7935:7981   */\n      swap2\n      pop\n        /* \"#utility.yul\":7715:7987   */\n      pop\n        /* \"#utility.yul\":7623:7987   */\n      swap3\n      swap2\n      pop\n      pop\n      jump\t// out\n        /* \"#utility.yul\":7993:8359   */\n    tag_414:\n        /* \"#utility.yul\":8135:8138   */\n      0x00\n        /* \"#utility.yul\":8156:8223   */\n      tag_416\n        /* \"#utility.yul\":8220:8222   */\n      0x1c\n        /* \"#utility.yul\":8215:8218   */\n      dup4\n        /* \"#utility.yul\":8156:8223   */\n      tag_411\n      jump\t// in\n    tag_416:\n        /* \"#utility.yul\":8149:8223   */\n      swap2\n      pop\n        /* \"#utility.yul\":8232:8325   */\n      tag_417\n        /* \"#utility.yul\":8321:8324   */\n      dup3\n        /* \"#utility.yul\":8232:8325   */\n      tag_418\n      jump\t// in\n    tag_417:\n        /* \"#utility.yul\":8350:8352   */\n      0x20\n        /* \"#utility.yul\":8345:8348   */\n      dup3\n        /* \"#utility.yul\":8341:8353   */\n      add\n        /* \"#utility.yul\":8334:8353   */\n      swap1\n      pop\n        /* \"#utility.yul\":7993:8359   */\n      swap2\n      swap1\n      pop\n      jump\t// out\n        /* \"#utility.yul\":8365:8731   */\n    tag_419:\n        /* \"#utility.yul\":8507:8510   */\n      0x00\n        /* \"#utility.yul\":8528:8595   */\n      tag_421\n        /* \"#utility.yul\":8592:8594   */\n      0x19\n        /* \"#utility.yul\":8587:8590   */\n      dup4\n        /* \"#utility.yul\":8528:8595   */\n      tag_411\n      jump\t// in\n    tag_421:\n        /* \"#utility.yul\":8521:8595   */\n      swap2\n      pop\n        /* \"#utility.yul\":8604:8697   */\n      tag_422\n        /* \"#utility.yul\":8693:8696   */\n      dup3\n        /* \"#utility.yul\":8604:8697   */\n      tag_423\n      jump\t// in\n    tag_422:\n        /* \"#utility.yul\":8722:8724   */\n      0x20\n        /* \"#utility.yul\":8717:8720   */\n      dup3\n        /* \"#utility.yul\":8713:8725   */\n      add\n        /* \"#utility.yul\":8706:8725   */\n      swap1\n      pop\n        /* \"#utility.yul\":8365:8731   */\n      swap2\n      swap1\n      pop\n      jump\t// out\n        /* \"#utility.yul\":8737:9103   */\n    tag_424:\n        /* \"#utility.yul\":8879:8882   */\n      0x00\n        /* \"#utility.yul\":8900:8967   */\n      tag_426\n        /* \"#utility.yul\":8964:8966   */\n      0x1e\n        /* \"#utility.yul\":8959:8962   */\n      dup4\n        /* \"#utility.yul\":8900:8967   */\n      tag_411\n      jump\t// in\n    tag_426:\n        /* \"#utility.yul\":8893:8967   */\n      swap2\n      pop\n        /* \"#utility.yul\":8976:9069   */\n      tag_427\n        /* \"#utility.yul\":9065:9068   */\n      dup3\n        /* \"#utility.yul\":8976:9069   */\n      tag_428\n      jump\t// in\n    tag_427:\n        /* \"#utility.yul\":9094:9096   */\n      0x20\n        /* \"#utility.yul\":9089:9092   */\n      dup3\n        /* \"#utility.yul\":9085:9097   */\n      add\n        /* \"#utility.yul\":9078:9097   */\n      swap1\n      pop\n        /* \"#utility.yul\":8737:9103   */\n      swap2\n      swap1\n      pop\n      jump\t// out\n        /* \"#utility.yul\":9169:11075   */\n    tag_429:\n        /* \"#utility.yul\":9284:9287   */\n      0x00\n        /* \"#utility.yul\":9320:9324   */\n      0xe0\n        /* \"#utility.yul\":9315:9318   */\n      dup4\n        /* \"#utility.yul\":9311:9325   */\n      add\n        /* \"#utility.yul\":9407:9411   */\n      0x00\n        /* \"#utility.yul\":9400:9405   */\n      dup4\n        /* \"#utility.yul\":9396:9412   */\n      add\n        /* \"#utility.yul\":9390:9413   */\n      mload\n        /* \"#utility.yul\":9460:9463   */\n      dup5\n        /* \"#utility.yul\":9454:9458   */\n      dup3\n        /* \"#utility.yul\":9450:9464   */\n      sub\n        /* \"#utility.yul\":9443:9447   */\n      0x00\n        /* \"#utility.yul\":9438:9441   */\n      dup7\n        /* \"#utility.yul\":9434:9448   */\n      add\n        /* \"#utility.yul\":9427:9465   */\n      mstore\n        /* \"#utility.yul\":9486:9559   */\n      tag_431\n        /* \"#utility.yul\":9554:9558   */\n      dup3\n        /* \"#utility.yul\":9540:9552   */\n      dup3\n        /* \"#utility.yul\":9486:9559   */\n      tag_397\n      jump\t// in\n    tag_431:\n        /* \"#utility.yul\":9478:9559   */\n      swap2\n      pop\n        /* \"#utility.yul\":9335:9570   */\n      pop\n        /* \"#utility.yul\":9653:9657   */\n      0x20\n        /* \"#utility.yul\":9646:9651   */\n      dup4\n        /* \"#utility.yul\":9642:9658   */\n      add\n        /* \"#utility.yul\":9636:9659   */\n      mload\n        /* \"#utility.yul\":9706:9709   */\n      dup5\n        /* \"#utility.yul\":9700:9704   */\n      dup3\n        /* \"#utility.yul\":9696:9710   */\n      sub\n        /* \"#utility.yul\":9689:9693   */\n      0x20\n        /* \"#utility.yul\":9684:9687   */\n      dup7\n        /* \"#utility.yul\":9680:9694   */\n      add\n        /* \"#utility.yul\":9673:9711   */\n      mstore\n        /* \"#utility.yul\":9732:9805   */\n      tag_432\n        /* \"#utility.yul\":9800:9804   */\n      dup3\n        /* \"#utility.yul\":9786:9798   */\n      dup3\n        /* \"#utility.yul\":9732:9805   */\n      tag_397\n      jump\t// in\n    tag_432:\n        /* \"#utility.yul\":9724:9805   */\n      swap2\n      pop\n        /* \"#utility.yul\":9580:9816   */\n      pop\n        /* \"#utility.yul\":9898:9902   */\n      0x40\n        /* \"#utility.yul\":9891:9896   */\n      dup4\n        /* \"#utility.yul\":9887:9903   */\n      add\n        /* \"#utility.yul\":9881:9904   */\n      mload\n        /* \"#utility.yul\":9951:9954   */\n      dup5\n        /* \"#utility.yul\":9945:9949   */\n      dup3\n        /* \"#utility.yul\":9941:9955   */\n      sub\n        /* \"#utility.yul\":9934:9938   */\n      0x40\n        /* \"#utility.yul\":9929:9932   */\n      dup7\n        /* \"#utility.yul\":9925:9939   */\n      add\n        /* \"#utility.yul\":9918:9956   */\n      mstore\n        /* \"#utility.yul\":9977:10050   */\n      tag_433\n        /* \"#utility.yul\":10045:10049   */\n      dup3\n        /* \"#utility.yul\":10031:10043   */\n      dup3\n        /* \"#utility.yul\":9977:10050   */\n      tag_397\n      jump\t// in\n    tag_433:\n        /* \"#utility.yul\":9969:10050   */\n      swap2\n      pop\n        /* \"#utility.yul\":9826:10061   */\n      pop\n        /* \"#utility.yul\":10145:10149   */\n      0x60\n        /* \"#utility.yul\":10138:10143   */\n      dup4\n        /* \"#utility.yul\":10134:10150   */\n      add\n        /* \"#utility.yul\":10128:10151   */\n      mload\n        /* \"#utility.yul\":10198:10201   */\n      dup5\n        /* \"#utility.yul\":10192:10196   */\n      dup3\n        /* \"#utility.yul\":10188:10202   */\n      sub\n        /* \"#utility.yul\":10181:10185   */\n      0x60\n        /* \"#utility.yul\":10176:10179   */\n      dup7\n        /* \"#utility.yul\":10172:10186   */\n      add\n        /* \"#utility.yul\":10165:10203   */\n      mstore\n        /* \"#utility.yul\":10224:10297   */\n      tag_434\n        /* \"#utility.yul\":10292:10296   */\n      dup3\n        /* \"#utility.yul\":10278:10290   */\n      dup3\n        /* \"#utility.yul\":10224:10297   */\n      tag_397\n      jump\t// in\n    tag_434:\n        /* \"#utility.yul\":10216:10297   */\n      swap2\n      pop\n        /* \"#utility.yul\":10071:10308   */\n      pop\n        /* \"#utility.yul\":10392:10396   */\n      0x80\n        /* \"#utility.yul\":10385:10390   */\n      dup4\n        /* \"#utility.yul\":10381:10397   */\n      add\n        /* \"#utility.yul\":10375:10398   */\n      mload\n        /* \"#utility.yul\":10445:10448   */\n      dup5\n        /* \"#utility.yul\":10439:10443   */\n      dup3\n        /* \"#utility.yul\":10435:10449   */\n      sub\n        /* \"#utility.yul\":10428:10432   */\n      0x80\n        /* \"#utility.yul\":10423:10426   */\n      dup7\n        /* \"#utility.yul\":10419:10433   */\n      add\n        /* \"#utility.yul\":10412:10450   */\n      mstore\n        /* \"#utility.yul\":10471:10544   */\n      tag_435\n        /* \"#utility.yul\":10539:10543   */\n      dup3\n        /* \"#utility.yul\":10525:10537   */\n      dup3\n        /* \"#utility.yul\":10471:10544   */\n      tag_397\n      jump\t// in\n    tag_435:\n        /* \"#utility.yul\":10463:10544   */\n      swap2\n      pop\n        /* \"#utility.yul\":10318:10555   */\n      pop\n        /* \"#utility.yul\":10638:10642   */\n      0xa0\n        /* \"#utility.yul\":10631:10636   */\n      dup4\n        /* \"#utility.yul\":10627:10643   */\n      add\n        /* \"#utility.yul\":10621:10644   */\n      mload\n        /* \"#utility.yul\":10691:10694   */\n      dup5\n        /* \"#utility.yul\":10685:10689   */\n      dup3\n        /* \"#utility.yul\":10681:10695   */\n      sub\n        /* \"#utility.yul\":10674:10678   */\n      0xa0\n        /* \"#utility.yul\":10669:10672   */\n      dup7\n        /* \"#utility.yul\":10665:10679   */\n      add\n        /* \"#utility.yul\":10658:10696   */\n      mstore\n        /* \"#utility.yul\":10717:10790   */\n      tag_436\n        /* \"#utility.yul\":10785:10789   */\n      dup3\n        /* \"#utility.yul\":10771:10783   */\n      dup3\n        /* \"#utility.yul\":10717:10790   */\n      tag_397\n      jump\t// in\n    tag_436:\n        /* \"#utility.yul\":10709:10790   */\n      swap2\n      pop\n        /* \"#utility.yul\":10565:10801   */\n      pop\n        /* \"#utility.yul\":10885:10889   */\n      0xc0\n        /* \"#utility.yul\":10878:10883   */\n      dup4\n        /* \"#utility.yul\":10874:10890   */\n      add\n        /* \"#utility.yul\":10868:10891   */\n      mload\n        /* \"#utility.yul\":10938:10941   */\n      dup5\n        /* \"#utility.yul\":10932:10936   */\n      dup3\n        /* \"#utility.yul\":10928:10942   */\n      sub\n        /* \"#utility.yul\":10921:10925   */\n      0xc0\n        /* \"#utility.yul\":10916:10919   */\n      dup7\n        /* \"#utility.yul\":10912:10926   */\n      add\n        /* \"#utility.yul\":10905:10943   */\n      mstore\n        /* \"#utility.yul\":10964:11037   */\n      tag_437\n        /* \"#utility.yul\":11032:11036   */\n      dup3\n        /* \"#utility.yul\":11018:11030   */\n      dup3\n        /* \"#utility.yul\":10964:11037   */\n      tag_397\n      jump\t// in\n    tag_437:\n        /* \"#utility.yul\":10956:11037   */\n      swap2\n      pop\n        /* \"#utility.yul\":10811:11048   */\n      pop\n        /* \"#utility.yul\":11065:11069   */\n      dup1\n        /* \"#utility.yul\":11058:11069   */\n      swap2\n      pop\n        /* \"#utility.yul\":9289:11075   */\n      pop\n        /* \"#utility.yul\":9169:11075   */\n      swap3\n      swap2\n      pop\n      pop\n      jump\t// out\n        /* \"#utility.yul\":11081:11199   */\n    tag_438:\n        /* \"#utility.yul\":11168:11192   */\n      tag_440\n        /* \"#utility.yul\":11186:11191   */\n      dup2\n        /* \"#utility.yul\":11168:11192   */\n      tag_441\n      jump\t// in\n    tag_440:\n        /* \"#utility.yul\":11163:11166   */\n      dup3\n        /* \"#utility.yul\":11156:11193   */\n      mstore\n        /* \"#utility.yul\":11081:11199   */\n      pop\n      pop\n      jump\t// out\n        /* \"#utility.yul\":11205:11459   */\n    tag_76:\n        /* \"#utility.yul\":11314:11318   */\n      0x00\n        /* \"#utility.yul\":11352:11354   */\n      0x20\n        /* \"#utility.yul\":11341:11350   */\n      dup3\n        /* \"#utility.yul\":11337:11355   */\n      add\n        /* \"#utility.yul\":11329:11355   */\n      swap1\n      pop\n        /* \"#utility.yul\":11365:11452   */\n      tag_443\n        /* \"#utility.yul\":11449:11450   */\n      0x00\n        /* \"#utility.yul\":11438:11447   */\n      dup4\n        /* \"#utility.yul\":11434:11451   */\n      add\n        /* \"#utility.yul\":11425:11431   */\n      dup5\n        /* \"#utility.yul\":11365:11452   */\n      tag_377\n      jump\t// in\n    tag_443:\n        /* \"#utility.yul\":11205:11459   */\n      swap3\n      swap2\n      pop\n      pop\n      jump\t// out\n        /* \"#utility.yul\":11465:11675   */\n    tag_53:\n        /* \"#utility.yul\":11552:11556   */\n      0x00\n        /* \"#utility.yul\":11590:11592   */\n      0x20\n        /* \"#utility.yul\":11579:11588   */\n      dup3\n        /* \"#utility.yul\":11575:11593   */\n      add\n        /* \"#utility.yul\":11567:11593   */\n      swap1\n      pop\n        /* \"#utility.yul\":11603:11668   */\n      tag_445\n        /* \"#utility.yul\":11665:11666   */\n      0x00\n        /* \"#utility.yul\":11654:11663   */\n      dup4\n        /* \"#utility.yul\":11650:11667   */\n      add\n        /* \"#utility.yul\":11641:11647   */\n      dup5\n        /* \"#utility.yul\":11603:11668   */\n      tag_385\n      jump\t// in\n    tag_445:\n        /* \"#utility.yul\":11465:11675   */\n      swap3\n      swap2\n      pop\n      pop\n      jump\t// out\n        /* \"#utility.yul\":11681:12114   */\n    tag_85:\n        /* \"#utility.yul\":11827:11831   */\n      0x00\n        /* \"#utility.yul\":11865:11867   */\n      0x40\n        /* \"#utility.yul\":11854:11863   */\n      dup3\n        /* \"#utility.yul\":11850:11868   */\n      add\n        /* \"#utility.yul\":11842:11868   */\n      swap1\n      pop\n        /* \"#utility.yul\":11878:11954   */\n      tag_447\n        /* \"#utility.yul\":11951:11952   */\n      0x00\n        /* \"#utility.yul\":11940:11949   */\n      dup4\n        /* \"#utility.yul\":11936:11953   */\n      add\n        /* \"#utility.yul\":11927:11933   */\n      dup6\n        /* \"#utility.yul\":11878:11954   */\n      tag_389\n      jump\t// in\n    tag_447:\n        /* \"#utility.yul\":12001:12010   */\n      dup2\n        /* \"#utility.yul\":11995:11999   */\n      dup2\n        /* \"#utility.yul\":11991:12011   */\n      sub\n        /* \"#utility.yul\":11986:11988   */\n      0x20\n        /* \"#utility.yul\":11975:11984   */\n      dup4\n        /* \"#utility.yul\":11971:11989   */\n      add\n        /* \"#utility.yul\":11964:12012   */\n      mstore\n        /* \"#utility.yul\":12029:12107   */\n      tag_448\n        /* \"#utility.yul\":12102:12106   */\n      dup2\n        /* \"#utility.yul\":12093:12099   */\n      dup5\n        /* \"#utility.yul\":12029:12107   */\n      tag_407\n      jump\t// in\n    tag_448:\n        /* \"#utility.yul\":12021:12107   */\n      swap1\n      pop\n        /* \"#utility.yul\":11681:12114   */\n      swap4\n      swap3\n      pop\n      pop\n      pop\n      jump\t// out\n        /* \"#utility.yul\":12120:12433   */\n    tag_24:\n        /* \"#utility.yul\":12233:12237   */\n      0x00\n        /* \"#utility.yul\":12271:12273   */\n      0x20\n        /* \"#utility.yul\":12260:12269   */\n      dup3\n        /* \"#utility.yul\":12256:12274   */\n      add\n        /* \"#utility.yul\":12248:12274   */\n      swap1\n      pop\n        /* \"#utility.yul\":12320:12329   */\n      dup2\n        /* \"#utility.yul\":12314:12318   */\n      dup2\n        /* \"#utility.yul\":12310:12330   */\n      sub\n        /* \"#utility.yul\":12306:12307   */\n      0x00\n        /* \"#utility.yul\":12295:12304   */\n      dup4\n        /* \"#utility.yul\":12291:12308   */\n      add\n        /* \"#utility.yul\":12284:12331   */\n      mstore\n        /* \"#utility.yul\":12348:12426   */\n      tag_450\n        /* \"#utility.yul\":12421:12425   */\n      dup2\n        /* \"#utility.yul\":12412:12418   */\n      dup5\n        /* \"#utility.yul\":12348:12426   */\n      tag_407\n      jump\t// in\n    tag_450:\n        /* \"#utility.yul\":12340:12426   */\n      swap1\n      pop\n        /* \"#utility.yul\":12120:12433   */\n      swap3\n      swap2\n      pop\n      pop\n      jump\t// out\n        /* \"#utility.yul\":12439:12858   */\n    tag_129:\n        /* \"#utility.yul\":12605:12609   */\n      0x00\n        /* \"#utility.yul\":12643:12645   */\n      0x20\n        /* \"#utility.yul\":12632:12641   */\n      dup3\n        /* \"#utility.yul\":12628:12646   */\n      add\n        /* \"#utility.yul\":12620:12646   */\n      swap1\n      pop\n        /* \"#utility.yul\":12692:12701   */\n      dup2\n        /* \"#utility.yul\":12686:12690   */\n      dup2\n        /* \"#utility.yul\":12682:12702   */\n      sub\n        /* \"#utility.yul\":12678:12679   */\n      0x00\n        /* \"#utility.yul\":12667:12676   */\n      dup4\n        /* \"#utility.yul\":12663:12680   */\n      add\n        /* \"#utility.yul\":12656:12703   */\n      mstore\n        /* \"#utility.yul\":12720:12851   */\n      tag_452\n        /* \"#utility.yul\":12846:12850   */\n      dup2\n        /* \"#utility.yul\":12720:12851   */\n      tag_414\n      jump\t// in\n    tag_452:\n        /* \"#utility.yul\":12712:12851   */\n      swap1\n      pop\n        /* \"#utility.yul\":12439:12858   */\n      swap2\n      swap1\n      pop\n      jump\t// out\n        /* \"#utility.yul\":12864:13283   */\n    tag_151:\n        /* \"#utility.yul\":13030:13034   */\n      0x00\n        /* \"#utility.yul\":13068:13070   */\n      0x20\n        /* \"#utility.yul\":13057:13066   */\n      dup3\n        /* \"#utility.yul\":13053:13071   */\n      add\n        /* \"#utility.yul\":13045:13071   */\n      swap1\n      pop\n        /* \"#utility.yul\":13117:13126   */\n      dup2\n        /* \"#utility.yul\":13111:13115   */\n      dup2\n        /* \"#utility.yul\":13107:13127   */\n      sub\n        /* \"#utility.yul\":13103:13104   */\n      0x00\n        /* \"#utility.yul\":13092:13101   */\n      dup4\n        /* \"#utility.yul\":13088:13105   */\n      add\n        /* \"#utility.yul\":13081:13128   */\n      mstore\n        /* \"#utility.yul\":13145:13276   */\n      tag_454\n        /* \"#utility.yul\":13271:13275   */\n      dup2\n        /* \"#utility.yul\":13145:13276   */\n      tag_419\n      jump\t// in\n    tag_454:\n        /* \"#utility.yul\":13137:13276   */\n      swap1\n      pop\n        /* \"#utility.yul\":12864:13283   */\n      swap2\n      swap1\n      pop\n      jump\t// out\n        /* \"#utility.yul\":13289:13708   */\n    tag_254:\n        /* \"#utility.yul\":13455:13459   */\n      0x00\n        /* \"#utility.yul\":13493:13495   */\n      0x20\n        /* \"#utility.yul\":13482:13491   */\n      dup3\n        /* \"#utility.yul\":13478:13496   */\n      add\n        /* \"#utility.yul\":13470:13496   */\n      swap1\n      pop\n        /* \"#utility.yul\":13542:13551   */\n      dup2\n        /* \"#utility.yul\":13536:13540   */\n      dup2\n        /* \"#utility.yul\":13532:13552   */\n      sub\n        /* \"#utility.yul\":13528:13529   */\n      0x00\n        /* \"#utility.yul\":13517:13526   */\n      dup4\n        /* \"#utility.yul\":13513:13530   */\n      add\n        /* \"#utility.yul\":13506:13553   */\n      mstore\n        /* \"#utility.yul\":13570:13701   */\n      tag_456\n        /* \"#utility.yul\":13696:13700   */\n      dup2\n        /* \"#utility.yul\":13570:13701   */\n      tag_424\n      jump\t// in\n    tag_456:\n        /* \"#utility.yul\":13562:13701   */\n      swap1\n      pop\n        /* \"#utility.yul\":13289:13708   */\n      swap2\n      swap1\n      pop\n      jump\t// out\n        /* \"#utility.yul\":13714:13936   */\n    tag_91:\n        /* \"#utility.yul\":13807:13811   */\n      0x00\n        /* \"#utility.yul\":13845:13847   */\n      0x20\n        /* \"#utility.yul\":13834:13843   */\n      dup3\n        /* \"#utility.yul\":13830:13848   */\n      add\n        /* \"#utility.yul\":13822:13848   */\n      swap1\n      pop\n        /* \"#utility.yul\":13858:13929   */\n      tag_458\n        /* \"#utility.yul\":13926:13927   */\n      0x00\n        /* \"#utility.yul\":13915:13924   */\n      dup4\n        /* \"#utility.yul\":13911:13928   */\n      add\n        /* \"#utility.yul\":13902:13908   */\n      dup5\n        /* \"#utility.yul\":13858:13929   */\n      tag_438\n      jump\t// in\n    tag_458:\n        /* \"#utility.yul\":13714:13936   */\n      swap3\n      swap2\n      pop\n      pop\n      jump\t// out\n        /* \"#utility.yul\":13942:15205   */\n    tag_59:\n        /* \"#utility.yul\":14311:14315   */\n      0x00\n        /* \"#utility.yul\":14349:14352   */\n      0x0120\n        /* \"#utility.yul\":14338:14347   */\n      dup3\n        /* \"#utility.yul\":14334:14353   */\n      add\n        /* \"#utility.yul\":14326:14353   */\n      swap1\n      pop\n        /* \"#utility.yul\":14363:14434   */\n      tag_460\n        /* \"#utility.yul\":14431:14432   */\n      0x00\n        /* \"#utility.yul\":14420:14429   */\n      dup4\n        /* \"#utility.yul\":14416:14433   */\n      add\n        /* \"#utility.yul\":14407:14413   */\n      dup13\n        /* \"#utility.yul\":14363:14434   */\n      tag_438\n      jump\t// in\n    tag_460:\n        /* \"#utility.yul\":14444:14516   */\n      tag_461\n        /* \"#utility.yul\":14512:14514   */\n      0x20\n        /* \"#utility.yul\":14501:14510   */\n      dup4\n        /* \"#utility.yul\":14497:14515   */\n      add\n        /* \"#utility.yul\":14488:14494   */\n      dup12\n        /* \"#utility.yul\":14444:14516   */\n      tag_381\n      jump\t// in\n    tag_461:\n        /* \"#utility.yul\":14526:14598   */\n      tag_462\n        /* \"#utility.yul\":14594:14596   */\n      0x40\n        /* \"#utility.yul\":14583:14592   */\n      dup4\n        /* \"#utility.yul\":14579:14597   */\n      add\n        /* \"#utility.yul\":14570:14576   */\n      dup11\n        /* \"#utility.yul\":14526:14598   */\n      tag_381\n      jump\t// in\n    tag_462:\n        /* \"#utility.yul\":14608:14686   */\n      tag_463\n        /* \"#utility.yul\":14682:14684   */\n      0x60\n        /* \"#utility.yul\":14671:14680   */\n      dup4\n        /* \"#utility.yul\":14667:14685   */\n      add\n        /* \"#utility.yul\":14658:14664   */\n      dup10\n        /* \"#utility.yul\":14608:14686   */\n      tag_393\n      jump\t// in\n    tag_463:\n        /* \"#utility.yul\":14696:14769   */\n      tag_464\n        /* \"#utility.yul\":14764:14767   */\n      0x80\n        /* \"#utility.yul\":14753:14762   */\n      dup4\n        /* \"#utility.yul\":14749:14768   */\n      add\n        /* \"#utility.yul\":14740:14746   */\n      dup9\n        /* \"#utility.yul\":14696:14769   */\n      tag_438\n      jump\t// in\n    tag_464:\n        /* \"#utility.yul\":14779:14852   */\n      tag_465\n        /* \"#utility.yul\":14847:14850   */\n      0xa0\n        /* \"#utility.yul\":14836:14845   */\n      dup4\n        /* \"#utility.yul\":14832:14851   */\n      add\n        /* \"#utility.yul\":14823:14829   */\n      dup8\n        /* \"#utility.yul\":14779:14852   */\n      tag_381\n      jump\t// in\n    tag_465:\n        /* \"#utility.yul\":14862:14935   */\n      tag_466\n        /* \"#utility.yul\":14930:14933   */\n      0xc0\n        /* \"#utility.yul\":14919:14928   */\n      dup4\n        /* \"#utility.yul\":14915:14934   */\n      add\n        /* \"#utility.yul\":14906:14912   */\n      dup7\n        /* \"#utility.yul\":14862:14935   */\n      tag_381\n      jump\t// in\n    tag_466:\n        /* \"#utility.yul\":14945:15018   */\n      tag_467\n        /* \"#utility.yul\":15013:15016   */\n      0xe0\n        /* \"#utility.yul\":15002:15011   */\n      dup4\n        /* \"#utility.yul\":14998:15017   */\n      add\n        /* \"#utility.yul\":14989:14995   */\n      dup6\n        /* \"#utility.yul\":14945:15018   */\n      tag_381\n      jump\t// in\n    tag_467:\n        /* \"#utility.yul\":15066:15075   */\n      dup2\n        /* \"#utility.yul\":15060:15064   */\n      dup2\n        /* \"#utility.yul\":15056:15076   */\n      sub\n        /* \"#utility.yul\":15050:15053   */\n      0x0100\n        /* \"#utility.yul\":15039:15048   */\n      dup4\n        /* \"#utility.yul\":15035:15054   */\n      add\n        /* \"#utility.yul\":15028:15077   */\n      mstore\n        /* \"#utility.yul\":15094:15198   */\n      tag_468\n        /* \"#utility.yul\":15193:15197   */\n      dup2\n        /* \"#utility.yul\":15184:15190   */\n      dup5\n        /* \"#utility.yul\":15094:15198   */\n      tag_429\n      jump\t// in\n    tag_468:\n        /* \"#utility.yul\":15086:15198   */\n      swap1\n      pop\n        /* \"#utility.yul\":13942:15205   */\n      swap11\n      swap10\n      pop\n      pop\n      pop\n      pop\n      pop\n      pop\n      pop\n      pop\n      pop\n      pop\n      jump\t// out\n        /* \"#utility.yul\":15211:17192   */\n    tag_46:\n        /* \"#utility.yul\":15731:15735   */\n      0x00\n        /* \"#utility.yul\":15769:15772   */\n      0x0160\n        /* \"#utility.yul\":15758:15767   */\n      dup3\n        /* \"#utility.yul\":15754:15773   */\n      add\n        /* \"#utility.yul\":15746:15773   */\n      swap1\n      pop\n        /* \"#utility.yul\":15783:15854   */\n      tag_470\n        /* \"#utility.yul\":15851:15852   */\n      0x00\n        /* \"#utility.yul\":15840:15849   */\n      dup4\n        /* \"#utility.yul\":15836:15853   */\n      add\n        /* \"#utility.yul\":15827:15833   */\n      dup15\n        /* \"#utility.yul\":15783:15854   */\n      tag_438\n      jump\t// in\n    tag_470:\n        /* \"#utility.yul\":15864:15936   */\n      tag_471\n        /* \"#utility.yul\":15932:15934   */\n      0x20\n        /* \"#utility.yul\":15921:15930   */\n      dup4\n        /* \"#utility.yul\":15917:15935   */\n      add\n        /* \"#utility.yul\":15908:15914   */\n      dup14\n        /* \"#utility.yul\":15864:15936   */\n      tag_381\n      jump\t// in\n    tag_471:\n        /* \"#utility.yul\":15946:16024   */\n      tag_472\n        /* \"#utility.yul\":16020:16022   */\n      0x40\n        /* \"#utility.yul\":16009:16018   */\n      dup4\n        /* \"#utility.yul\":16005:16023   */\n      add\n        /* \"#utility.yul\":15996:16002   */\n      dup13\n        /* \"#utility.yul\":15946:16024   */\n      tag_393\n      jump\t// in\n    tag_472:\n        /* \"#utility.yul\":16034:16106   */\n      tag_473\n        /* \"#utility.yul\":16102:16104   */\n      0x60\n        /* \"#utility.yul\":16091:16100   */\n      dup4\n        /* \"#utility.yul\":16087:16105   */\n      add\n        /* \"#utility.yul\":16078:16084   */\n      dup12\n        /* \"#utility.yul\":16034:16106   */\n      tag_438\n      jump\t// in\n    tag_473:\n        /* \"#utility.yul\":16154:16163   */\n      dup2\n        /* \"#utility.yul\":16148:16152   */\n      dup2\n        /* \"#utility.yul\":16144:16164   */\n      sub\n        /* \"#utility.yul\":16138:16141   */\n      0x80\n        /* \"#utility.yul\":16127:16136   */\n      dup4\n        /* \"#utility.yul\":16123:16142   */\n      add\n        /* \"#utility.yul\":16116:16165   */\n      mstore\n        /* \"#utility.yul\":16182:16260   */\n      tag_474\n        /* \"#utility.yul\":16255:16259   */\n      dup2\n        /* \"#utility.yul\":16246:16252   */\n      dup11\n        /* \"#utility.yul\":16182:16260   */\n      tag_407\n      jump\t// in\n    tag_474:\n        /* \"#utility.yul\":16174:16260   */\n      swap1\n      pop\n        /* \"#utility.yul\":16308:16317   */\n      dup2\n        /* \"#utility.yul\":16302:16306   */\n      dup2\n        /* \"#utility.yul\":16298:16318   */\n      sub\n        /* \"#utility.yul\":16292:16295   */\n      0xa0\n        /* \"#utility.yul\":16281:16290   */\n      dup4\n        /* \"#utility.yul\":16277:16296   */\n      add\n        /* \"#utility.yul\":16270:16319   */\n      mstore\n        /* \"#utility.yul\":16336:16414   */\n      tag_475\n        /* \"#utility.yul\":16409:16413   */\n      dup2\n        /* \"#utility.yul\":16400:16406   */\n      dup10\n        /* \"#utility.yul\":16336:16414   */\n      tag_407\n      jump\t// in\n    tag_475:\n        /* \"#utility.yul\":16328:16414   */\n      swap1\n      pop\n        /* \"#utility.yul\":16462:16471   */\n      dup2\n        /* \"#utility.yul\":16456:16460   */\n      dup2\n        /* \"#utility.yul\":16452:16472   */\n      sub\n        /* \"#utility.yul\":16446:16449   */\n      0xc0\n        /* \"#utility.yul\":16435:16444   */\n      dup4\n        /* \"#utility.yul\":16431:16450   */\n      add\n        /* \"#utility.yul\":16424:16473   */\n      mstore\n        /* \"#utility.yul\":16490:16568   */\n      tag_476\n        /* \"#utility.yul\":16563:16567   */\n      dup2\n        /* \"#utility.yul\":16554:16560   */\n      dup9\n        /* \"#utility.yul\":16490:16568   */\n      tag_407\n      jump\t// in\n    tag_476:\n        /* \"#utility.yul\":16482:16568   */\n      swap1\n      pop\n        /* \"#utility.yul\":16616:16625   */\n      dup2\n        /* \"#utility.yul\":16610:16614   */\n      dup2\n        /* \"#utility.yul\":16606:16626   */\n      sub\n        /* \"#utility.yul\":16600:16603   */\n      0xe0\n        /* \"#utility.yul\":16589:16598   */\n      dup4\n        /* \"#utility.yul\":16585:16604   */\n      add\n        /* \"#utility.yul\":16578:16627   */\n      mstore\n        /* \"#utility.yul\":16644:16722   */\n      tag_477\n        /* \"#utility.yul\":16717:16721   */\n      dup2\n        /* \"#utility.yul\":16708:16714   */\n      dup8\n        /* \"#utility.yul\":16644:16722   */\n      tag_407\n      jump\t// in\n    tag_477:\n        /* \"#utility.yul\":16636:16722   */\n      swap1\n      pop\n        /* \"#utility.yul\":16770:16779   */\n      dup2\n        /* \"#utility.yul\":16764:16768   */\n      dup2\n        /* \"#utility.yul\":16760:16780   */\n      sub\n        /* \"#utility.yul\":16754:16757   */\n      0x0100\n        /* \"#utility.yul\":16743:16752   */\n      dup4\n        /* \"#utility.yul\":16739:16758   */\n      add\n        /* \"#utility.yul\":16732:16781   */\n      mstore\n        /* \"#utility.yul\":16798:16876   */\n      tag_478\n        /* \"#utility.yul\":16871:16875   */\n      dup2\n        /* \"#utility.yul\":16862:16868   */\n      dup7\n        /* \"#utility.yul\":16798:16876   */\n      tag_407\n      jump\t// in\n    tag_478:\n        /* \"#utility.yul\":16790:16876   */\n      swap1\n      pop\n        /* \"#utility.yul\":16924:16933   */\n      dup2\n        /* \"#utility.yul\":16918:16922   */\n      dup2\n        /* \"#utility.yul\":16914:16934   */\n      sub\n        /* \"#utility.yul\":16908:16911   */\n      0x0120\n        /* \"#utility.yul\":16897:16906   */\n      dup4\n        /* \"#utility.yul\":16893:16912   */\n      add\n        /* \"#utility.yul\":16886:16935   */\n      mstore\n        /* \"#utility.yul\":16952:17030   */\n      tag_479\n        /* \"#utility.yul\":17025:17029   */\n      dup2\n        /* \"#utility.yul\":17016:17022   */\n      dup6\n        /* \"#utility.yul\":16952:17030   */\n      tag_407\n      jump\t// in\n    tag_479:\n        /* \"#utility.yul\":16944:17030   */\n      swap1\n      pop\n        /* \"#utility.yul\":17078:17087   */\n      dup2\n        /* \"#utility.yul\":17072:17076   */\n      dup2\n        /* \"#utility.yul\":17068:17088   */\n      sub\n        /* \"#utility.yul\":17062:17065   */\n      0x0140\n        /* \"#utility.yul\":17051:17060   */\n      dup4\n        /* \"#utility.yul\":17047:17066   */\n      add\n        /* \"#utility.yul\":17040:17089   */\n      mstore\n        /* \"#utility.yul\":17106:17185   */\n      tag_480\n        /* \"#utility.yul\":17180:17184   */\n      dup2\n        /* \"#utility.yul\":17170:17177   */\n      dup5\n        /* \"#utility.yul\":17106:17185   */\n      tag_407\n      jump\t// in\n    tag_480:\n        /* \"#utility.yul\":17098:17185   */\n      swap1\n      pop\n        /* \"#utility.yul\":15211:17192   */\n      swap13\n      swap12\n      pop\n      pop\n      pop\n      pop\n      pop\n      pop\n      pop\n      pop\n      pop\n      pop\n      pop\n      pop\n      jump\t// out\n        /* \"#utility.yul\":17198:17327   */\n    tag_298:\n        /* \"#utility.yul\":17232:17238   */\n      0x00\n        /* \"#utility.yul\":17259:17279   */\n      tag_482\n      tag_483\n      jump\t// in\n    tag_482:\n        /* \"#utility.yul\":17249:17279   */\n      swap1\n      pop\n        /* \"#utility.yul\":17288:17321   */\n      tag_484\n        /* \"#utility.yul\":17316:17320   */\n      dup3\n        /* \"#utility.yul\":17308:17314   */\n      dup3\n        /* \"#utility.yul\":17288:17321   */\n      tag_485\n      jump\t// in\n    tag_484:\n        /* \"#utility.yul\":17198:17327   */\n      swap2\n      swap1\n      pop\n      jump\t// out\n        /* \"#utility.yul\":17333:17408   */\n    tag_483:\n        /* \"#utility.yul\":17366:17372   */\n      0x00\n        /* \"#utility.yul\":17399:17401   */\n      0x40\n        /* \"#utility.yul\":17393:17402   */\n      mload\n        /* \"#utility.yul\":17383:17402   */\n      swap1\n      pop\n        /* \"#utility.yul\":17333:17408   */\n      swap1\n      jump\t// out\n        /* \"#utility.yul\":17414:17722   */\n    tag_297:\n        /* \"#utility.yul\":17476:17480   */\n      0x00\n        /* \"#utility.yul\":17566:17584   */\n      0xffffffffffffffff\n        /* \"#utility.yul\":17558:17564   */\n      dup3\n        /* \"#utility.yul\":17555:17585   */\n      gt\n        /* \"#utility.yul\":17552:17608   */\n      iszero\n      tag_488\n      jumpi\n        /* \"#utility.yul\":17588:17606   */\n      tag_489\n      tag_490\n      jump\t// in\n    tag_489:\n        /* \"#utility.yul\":17552:17608   */\n    tag_488:\n        /* \"#utility.yul\":17626:17655   */\n      tag_491\n        /* \"#utility.yul\":17648:17654   */\n      dup3\n        /* \"#utility.yul\":17626:17655   */\n      tag_406\n      jump\t// in\n    tag_491:\n        /* \"#utility.yul\":17618:17655   */\n      swap1\n      pop\n        /* \"#utility.yul\":17710:17714   */\n      0x20\n        /* \"#utility.yul\":17704:17708   */\n      dup2\n        /* \"#utility.yul\":17700:17715   */\n      add\n        /* \"#utility.yul\":17692:17715   */\n      swap1\n      pop\n        /* \"#utility.yul\":17414:17722   */\n      swap2\n      swap1\n      pop\n      jump\t// out\n        /* \"#utility.yul\":17728:17827   */\n    tag_400:\n        /* \"#utility.yul\":17780:17786   */\n      0x00\n        /* \"#utility.yul\":17814:17819   */\n      dup2\n        /* \"#utility.yul\":17808:17820   */\n      mload\n        /* \"#utility.yul\":17798:17820   */\n      swap1\n      pop\n        /* \"#utility.yul\":17728:17827   */\n      swap2\n      swap1\n      pop\n      jump\t// out\n        /* \"#utility.yul\":17833:17992   */\n    tag_402:\n        /* \"#utility.yul\":17907:17918   */\n      0x00\n        /* \"#utility.yul\":17941:17947   */\n      dup3\n        /* \"#utility.yul\":17936:17939   */\n      dup3\n        /* \"#utility.yul\":17929:17948   */\n      mstore\n        /* \"#utility.yul\":17981:17985   */\n      0x20\n        /* \"#utility.yul\":17976:17979   */\n      dup3\n        /* \"#utility.yul\":17972:17986   */\n      add\n        /* \"#utility.yul\":17957:17986   */\n      swap1\n      pop\n        /* \"#utility.yul\":17833:17992   */\n      swap3\n      swap2\n      pop\n      pop\n      jump\t// out\n        /* \"#utility.yul\":17998:18167   */\n    tag_411:\n        /* \"#utility.yul\":18082:18093   */\n      0x00\n        /* \"#utility.yul\":18116:18122   */\n      dup3\n        /* \"#utility.yul\":18111:18114   */\n      dup3\n        /* \"#utility.yul\":18104:18123   */\n      mstore\n        /* \"#utility.yul\":18156:18160   */\n      0x20\n        /* \"#utility.yul\":18151:18154   */\n      dup3\n        /* \"#utility.yul\":18147:18161   */\n      add\n        /* \"#utility.yul\":18132:18161   */\n      swap1\n      pop\n        /* \"#utility.yul\":17998:18167   */\n      swap3\n      swap2\n      pop\n      pop\n      jump\t// out\n        /* \"#utility.yul\":18173:18478   */\n    tag_207:\n        /* \"#utility.yul\":18213:18216   */\n      0x00\n        /* \"#utility.yul\":18232:18252   */\n      tag_496\n        /* \"#utility.yul\":18250:18251   */\n      dup3\n        /* \"#utility.yul\":18232:18252   */\n      tag_441\n      jump\t// in\n    tag_496:\n        /* \"#utility.yul\":18227:18252   */\n      swap2\n      pop\n        /* \"#utility.yul\":18266:18286   */\n      tag_497\n        /* \"#utility.yul\":18284:18285   */\n      dup4\n        /* \"#utility.yul\":18266:18286   */\n      tag_441\n      jump\t// in\n    tag_497:\n        /* \"#utility.yul\":18261:18286   */\n      swap3\n      pop\n        /* \"#utility.yul\":18420:18421   */\n      dup3\n        /* \"#utility.yul\":18352:18418   */\n      0xffffffffffffffffffffffffffffffffffffffffffffffffffffffffffffffff\n        /* \"#utility.yul\":18348:18422   */\n      sub\n        /* \"#utility.yul\":18345:18346   */\n      dup3\n        /* \"#utility.yul\":18342:18423   */\n      gt\n        /* \"#utility.yul\":18339:18446   */\n      iszero\n      tag_498\n      jumpi\n        /* \"#utility.yul\":18426:18444   */\n      tag_499\n      tag_500\n      jump\t// in\n    tag_499:\n        /* \"#utility.yul\":18339:18446   */\n    tag_498:\n        /* \"#utility.yul\":18470:18471   */\n      dup3\n        /* \"#utility.yul\":18467:18468   */\n      dup3\n        /* \"#utility.yul\":18463:18472   */\n      add\n        /* \"#utility.yul\":18456:18472   */\n      swap1\n      pop\n        /* \"#utility.yul\":18173:18478   */\n      swap3\n      swap2\n      pop\n      pop\n      jump\t// out\n        /* \"#utility.yul\":18484:18669   */\n    tag_268:\n        /* \"#utility.yul\":18524:18525   */\n      0x00\n        /* \"#utility.yul\":18541:18561   */\n      tag_502\n        /* \"#utility.yul\":18559:18560   */\n      dup3\n        /* \"#utility.yul\":18541:18561   */\n      tag_441\n      jump\t// in\n    tag_502:\n        /* \"#utility.yul\":18536:18561   */\n      swap2\n      pop\n        /* \"#utility.yul\":18575:18595   */\n      tag_503\n        /* \"#utility.yul\":18593:18594   */\n      dup4\n        /* \"#utility.yul\":18575:18595   */\n      tag_441\n      jump\t// in\n    tag_503:\n        /* \"#utility.yul\":18570:18595   */\n      swap3\n      pop\n        /* \"#utility.yul\":18614:18615   */\n      dup3\n        /* \"#utility.yul\":18604:18639   */\n      tag_504\n      jumpi\n        /* \"#utility.yul\":18619:18637   */\n      tag_505\n      tag_506\n      jump\t// in\n    tag_505:\n        /* \"#utility.yul\":18604:18639   */\n    tag_504:\n        /* \"#utility.yul\":18661:18662   */\n      dup3\n        /* \"#utility.yul\":18658:18659   */\n      dup3\n        /* \"#utility.yul\":18654:18663   */\n      div\n        /* \"#utility.yul\":18649:18663   */\n      swap1\n      pop\n        /* \"#utility.yul\":18484:18669   */\n      swap3\n      swap2\n      pop\n      pop\n      jump\t// out\n        /* \"#utility.yul\":18675:18866   */\n    tag_205:\n        /* \"#utility.yul\":18715:18719   */\n      0x00\n        /* \"#utility.yul\":18735:18755   */\n      tag_508\n        /* \"#utility.yul\":18753:18754   */\n      dup3\n        /* \"#utility.yul\":18735:18755   */\n      tag_441\n      jump\t// in\n    tag_508:\n        /* \"#utility.yul\":18730:18755   */\n      swap2\n      pop\n        /* \"#utility.yul\":18769:18789   */\n      tag_509\n        /* \"#utility.yul\":18787:18788   */\n      dup4\n        /* \"#utility.yul\":18769:18789   */\n      tag_441\n      jump\t// in\n    tag_509:\n        /* \"#utility.yul\":18764:18789   */\n      swap3\n      pop\n        /* \"#utility.yul\":18808:18809   */\n      dup3\n        /* \"#utility.yul\":18805:18806   */\n      dup3\n        /* \"#utility.yul\":18802:18810   */\n      lt\n        /* \"#utility.yul\":18799:18833   */\n      iszero\n      tag_510\n      jumpi\n        /* \"#utility.yul\":18813:18831   */\n      tag_511\n      tag_500\n      jump\t// in\n    tag_511:\n        /* \"#utility.yul\":18799:18833   */\n    tag_510:\n        /* \"#utility.yul\":18858:18859   */\n      dup3\n        /* \"#utility.yul\":18855:18856   */\n      dup3\n        /* \"#utility.yul\":18851:18860   */\n      sub\n        /* \"#utility.yul\":18843:18860   */\n      swap1\n      pop\n        /* \"#utility.yul\":18675:18866   */\n      swap3\n      swap2\n      pop\n      pop\n      jump\t// out\n        /* \"#utility.yul\":18872:18968   */\n    tag_384:\n        /* \"#utility.yul\":18909:18916   */\n      0x00\n        /* \"#utility.yul\":18938:18962   */\n      tag_513\n        /* \"#utility.yul\":18956:18961   */\n      dup3\n        /* \"#utility.yul\":18938:18962   */\n      tag_514\n      jump\t// in\n    tag_513:\n        /* \"#utility.yul\":18927:18962   */\n      swap1\n      pop\n        /* \"#utility.yul\":18872:18968   */\n      swap2\n      swap1\n      pop\n      jump\t// out\n        /* \"#utility.yul\":18974:19078   */\n    tag_380:\n        /* \"#utility.yul\":19019:19026   */\n      0x00\n        /* \"#utility.yul\":19048:19072   */\n      tag_516\n        /* \"#utility.yul\":19066:19071   */\n      dup3\n        /* \"#utility.yul\":19048:19072   */\n      tag_514\n      jump\t// in\n    tag_516:\n        /* \"#utility.yul\":19037:19072   */\n      swap1\n      pop\n        /* \"#utility.yul\":18974:19078   */\n      swap2\n      swap1\n      pop\n      jump\t// out\n        /* \"#utility.yul\":19084:19174   */\n    tag_388:\n        /* \"#utility.yul\":19118:19125   */\n      0x00\n        /* \"#utility.yul\":19161:19166   */\n      dup2\n        /* \"#utility.yul\":19154:19167   */\n      iszero\n        /* \"#utility.yul\":19147:19168   */\n      iszero\n        /* \"#utility.yul\":19136:19168   */\n      swap1\n      pop\n        /* \"#utility.yul\":19084:19174   */\n      swap2\n      swap1\n      pop\n      jump\t// out\n        /* \"#utility.yul\":19180:19305   */\n    tag_518:\n        /* \"#utility.yul\":19224:19231   */\n      0x00\n        /* \"#utility.yul\":19253:19258   */\n      dup2\n        /* \"#utility.yul\":19242:19258   */\n      swap1\n      pop\n        /* \"#utility.yul\":19259:19299   */\n      tag_520\n        /* \"#utility.yul\":19293:19298   */\n      dup3\n        /* \"#utility.yul\":19259:19299   */\n      tag_521\n      jump\t// in\n    tag_520:\n        /* \"#utility.yul\":19180:19305   */\n      swap2\n      swap1\n      pop\n      jump\t// out\n        /* \"#utility.yul\":19311:19438   */\n    tag_522:\n        /* \"#utility.yul\":19356:19363   */\n      0x00\n        /* \"#utility.yul\":19385:19390   */\n      dup2\n        /* \"#utility.yul\":19374:19390   */\n      swap1\n      pop\n        /* \"#utility.yul\":19391:19432   */\n      tag_524\n        /* \"#utility.yul\":19426:19431   */\n      dup3\n        /* \"#utility.yul\":19391:19432   */\n      tag_525\n      jump\t// in\n    tag_524:\n        /* \"#utility.yul\":19311:19438   */\n      swap2\n      swap1\n      pop\n      jump\t// out\n        /* \"#utility.yul\":19444:19570   */\n    tag_514:\n        /* \"#utility.yul\":19481:19488   */\n      0x00\n        /* \"#utility.yul\":19521:19563   */\n      0xffffffffffffffffffffffffffffffffffffffff\n        /* \"#utility.yul\":19514:19519   */\n      dup3\n        /* \"#utility.yul\":19510:19564   */\n      and\n        /* \"#utility.yul\":19499:19564   */\n      swap1\n      pop\n        /* \"#utility.yul\":19444:19570   */\n      swap2\n      swap1\n      pop\n      jump\t// out\n        /* \"#utility.yul\":19576:19653   */\n    tag_441:\n        /* \"#utility.yul\":19613:19620   */\n      0x00\n        /* \"#utility.yul\":19642:19647   */\n      dup2\n        /* \"#utility.yul\":19631:19647   */\n      swap1\n      pop\n        /* \"#utility.yul\":19576:19653   */\n      swap2\n      swap1\n      pop\n      jump\t// out\n        /* \"#utility.yul\":19659:19784   */\n    tag_392:\n        /* \"#utility.yul\":19714:19723   */\n      0x00\n        /* \"#utility.yul\":19747:19778   */\n      tag_529\n        /* \"#utility.yul\":19772:19777   */\n      dup3\n        /* \"#utility.yul\":19747:19778   */\n      tag_518\n      jump\t// in\n    tag_529:\n        /* \"#utility.yul\":19734:19778   */\n      swap1\n      pop\n        /* \"#utility.yul\":19659:19784   */\n      swap2\n      swap1\n      pop\n      jump\t// out\n        /* \"#utility.yul\":19790:19917   */\n    tag_396:\n        /* \"#utility.yul\":19846:19855   */\n      0x00\n        /* \"#utility.yul\":19879:19911   */\n      tag_531\n        /* \"#utility.yul\":19905:19910   */\n      dup3\n        /* \"#utility.yul\":19879:19911   */\n      tag_522\n      jump\t// in\n    tag_531:\n        /* \"#utility.yul\":19866:19911   */\n      swap1\n      pop\n        /* \"#utility.yul\":19790:19917   */\n      swap2\n      swap1\n      pop\n      jump\t// out\n        /* \"#utility.yul\":19923:20077   */\n    tag_303:\n        /* \"#utility.yul\":20007:20013   */\n      dup3\n        /* \"#utility.yul\":20002:20005   */\n      dup2\n        /* \"#utility.yul\":19997:20000   */\n      dup4\n        /* \"#utility.yul\":19984:20014   */\n      calldatacopy\n        /* \"#utility.yul\":20069:20070   */\n      0x00\n        /* \"#utility.yul\":20060:20066   */\n      dup4\n        /* \"#utility.yul\":20055:20058   */\n      dup4\n        /* \"#utility.yul\":20051:20067   */\n      add\n        /* \"#utility.yul\":20044:20071   */\n      mstore\n        /* \"#utility.yul\":19923:20077   */\n      pop\n      pop\n      pop\n      jump\t// out\n        /* \"#utility.yul\":20083:20390   */\n    tag_404:\n        /* \"#utility.yul\":20151:20152   */\n      0x00\n        /* \"#utility.yul\":20161:20274   */\n    tag_534:\n        /* \"#utility.yul\":20175:20181   */\n      dup4\n        /* \"#utility.yul\":20172:20173   */\n      dup2\n        /* \"#utility.yul\":20169:20182   */\n      lt\n        /* \"#utility.yul\":20161:20274   */\n      iszero\n      tag_536\n      jumpi\n        /* \"#utility.yul\":20260:20261   */\n      dup1\n        /* \"#utility.yul\":20255:20258   */\n      dup3\n        /* \"#utility.yul\":20251:20262   */\n      add\n        /* \"#utility.yul\":20245:20263   */\n      mload\n        /* \"#utility.yul\":20241:20242   */\n      dup2\n        /* \"#utility.yul\":20236:20239   */\n      dup5\n        /* \"#utility.yul\":20232:20243   */\n      add\n        /* \"#utility.yul\":20225:20264   */\n      mstore\n        /* \"#utility.yul\":20197:20199   */\n      0x20\n        /* \"#utility.yul\":20194:20195   */\n      dup2\n        /* \"#utility.yul\":20190:20200   */\n      add\n        /* \"#utility.yul\":20185:20200   */\n      swap1\n      pop\n        /* \"#utility.yul\":20161:20274   */\n      jump(tag_534)\n    tag_536:\n        /* \"#utility.yul\":20292:20298   */\n      dup4\n        /* \"#utility.yul\":20289:20290   */\n      dup2\n        /* \"#utility.yul\":20286:20299   */\n      gt\n        /* \"#utility.yul\":20283:20384   */\n      iszero\n      tag_537\n      jumpi\n        /* \"#utility.yul\":20372:20373   */\n      0x00\n        /* \"#utility.yul\":20363:20369   */\n      dup5\n        /* \"#utility.yul\":20358:20361   */\n      dup5\n        /* \"#utility.yul\":20354:20370   */\n      add\n        /* \"#utility.yul\":20347:20374   */\n      mstore\n        /* \"#utility.yul\":20283:20384   */\n    tag_537:\n        /* \"#utility.yul\":20132:20390   */\n      pop\n        /* \"#utility.yul\":20083:20390   */\n      pop\n      pop\n      pop\n      jump\t// out\n        /* \"#utility.yul\":20396:20716   */\n    tag_98:\n        /* \"#utility.yul\":20440:20446   */\n      0x00\n        /* \"#utility.yul\":20477:20478   */\n      0x02\n        /* \"#utility.yul\":20471:20475   */\n      dup3\n        /* \"#utility.yul\":20467:20479   */\n      div\n        /* \"#utility.yul\":20457:20479   */\n      swap1\n      pop\n        /* \"#utility.yul\":20524:20525   */\n      0x01\n        /* \"#utility.yul\":20518:20522   */\n      dup3\n        /* \"#utility.yul\":20514:20526   */\n      and\n        /* \"#utility.yul\":20545:20563   */\n      dup1\n        /* \"#utility.yul\":20535:20616   */\n      tag_539\n      jumpi\n        /* \"#utility.yul\":20601:20605   */\n      0x7f\n        /* \"#utility.yul\":20593:20599   */\n      dup3\n        /* \"#utility.yul\":20589:20606   */\n      and\n        /* \"#utility.yul\":20579:20606   */\n      swap2\n      pop\n        /* \"#utility.yul\":20535:20616   */\n    tag_539:\n        /* \"#utility.yul\":20663:20665   */\n      0x20\n        /* \"#utility.yul\":20655:20661   */\n      dup3\n        /* \"#utility.yul\":20652:20666   */\n      lt\n        /* \"#utility.yul\":20632:20650   */\n      dup2\n        /* \"#utility.yul\":20629:20667   */\n      eq\n        /* \"#utility.yul\":20626:20710   */\n      iszero\n      tag_540\n      jumpi\n        /* \"#utility.yul\":20682:20700   */\n      tag_541\n      tag_542\n      jump\t// in\n    tag_541:\n        /* \"#utility.yul\":20626:20710   */\n    tag_540:\n        /* \"#utility.yul\":20447:20716   */\n      pop\n        /* \"#utility.yul\":20396:20716   */\n      swap2\n      swap1\n      pop\n      jump\t// out\n        /* \"#utility.yul\":20722:21003   */\n    tag_485:\n        /* \"#utility.yul\":20805:20832   */\n      tag_544\n        /* \"#utility.yul\":20827:20831   */\n      dup3\n        /* \"#utility.yul\":20805:20832   */\n      tag_406\n      jump\t// in\n    tag_544:\n        /* \"#utility.yul\":20797:20803   */\n      dup2\n        /* \"#utility.yul\":20793:20833   */\n      add\n        /* \"#utility.yul\":20935:20941   */\n      dup2\n        /* \"#utility.yul\":20923:20933   */\n      dup2\n        /* \"#utility.yul\":20920:20942   */\n      lt\n        /* \"#utility.yul\":20899:20917   */\n      0xffffffffffffffff\n        /* \"#utility.yul\":20887:20897   */\n      dup3\n        /* \"#utility.yul\":20884:20918   */\n      gt\n        /* \"#utility.yul\":20881:20943   */\n      or\n        /* \"#utility.yul\":20878:20966   */\n      iszero\n      tag_545\n      jumpi\n        /* \"#utility.yul\":20946:20964   */\n      tag_546\n      tag_490\n      jump\t// in\n    tag_546:\n        /* \"#utility.yul\":20878:20966   */\n    tag_545:\n        /* \"#utility.yul\":20986:20996   */\n      dup1\n        /* \"#utility.yul\":20982:20984   */\n      0x40\n        /* \"#utility.yul\":20975:20997   */\n      mstore\n        /* \"#utility.yul\":20765:21003   */\n      pop\n        /* \"#utility.yul\":20722:21003   */\n      pop\n      pop\n      jump\t// out\n        /* \"#utility.yul\":21009:21189   */\n    tag_500:\n        /* \"#utility.yul\":21057:21134   */\n      0x4e487b7100000000000000000000000000000000000000000000000000000000\n        /* \"#utility.yul\":21054:21055   */\n      0x00\n        /* \"#utility.yul\":21047:21135   */\n      mstore\n        /* \"#utility.yul\":21154:21158   */\n      0x11\n        /* \"#utility.yul\":21151:21152   */\n      0x04\n        /* \"#utility.yul\":21144:21159   */\n      mstore\n        /* \"#utility.yul\":21178:21182   */\n      0x24\n        /* \"#utility.yul\":21175:21176   */\n      0x00\n        /* \"#utility.yul\":21168:21183   */\n      revert\n        /* \"#utility.yul\":21195:21375   */\n    tag_506:\n        /* \"#utility.yul\":21243:21320   */\n      0x4e487b7100000000000000000000000000000000000000000000000000000000\n        /* \"#utility.yul\":21240:21241   */\n      0x00\n        /* \"#utility.yul\":21233:21321   */\n      mstore\n        /* \"#utility.yul\":21340:21344   */\n      0x12\n        /* \"#utility.yul\":21337:21338   */\n      0x04\n        /* \"#utility.yul\":21330:21345   */\n      mstore\n        /* \"#utility.yul\":21364:21368   */\n      0x24\n        /* \"#utility.yul\":21361:21362   */\n      0x00\n        /* \"#utility.yul\":21354:21369   */\n      revert\n        /* \"#utility.yul\":21381:21561   */\n    tag_106:\n        /* \"#utility.yul\":21429:21506   */\n      0x4e487b7100000000000000000000000000000000000000000000000000000000\n        /* \"#utility.yul\":21426:21427   */\n      0x00\n        /* \"#utility.yul\":21419:21507   */\n      mstore\n        /* \"#utility.yul\":21526:21530   */\n      0x21\n        /* \"#utility.yul\":21523:21524   */\n      0x04\n        /* \"#utility.yul\":21516:21531   */\n      mstore\n        /* \"#utility.yul\":21550:21554   */\n      0x24\n        /* \"#utility.yul\":21547:21548   */\n      0x00\n        /* \"#utility.yul\":21540:21555   */\n      revert\n        /* \"#utility.yul\":21567:21747   */\n    tag_542:\n        /* \"#utility.yul\":21615:21692   */\n      0x4e487b7100000000000000000000000000000000000000000000000000000000\n        /* \"#utility.yul\":21612:21613   */\n      0x00\n        /* \"#utility.yul\":21605:21693   */\n      mstore\n        /* \"#utility.yul\":21712:21716   */\n      0x22\n        /* \"#utility.yul\":21709:21710   */\n      0x04\n        /* \"#utility.yul\":21702:21717   */\n      mstore\n        /* \"#utility.yul\":21736:21740   */\n      0x24\n        /* \"#utility.yul\":21733:21734   */\n      0x00\n        /* \"#utility.yul\":21726:21741   */\n      revert\n        /* \"#utility.yul\":21753:21933   */\n    tag_139:\n        /* \"#utility.yul\":21801:21878   */\n      0x4e487b7100000000000000000000000000000000000000000000000000000000\n        /* \"#utility.yul\":21798:21799   */\n      0x00\n        /* \"#utility.yul\":21791:21879   */\n      mstore\n        /* \"#utility.yul\":21898:21902   */\n      0x32\n        /* \"#utility.yul\":21895:21896   */\n      0x04\n        /* \"#utility.yul\":21888:21903   */\n      mstore\n        /* \"#utility.yul\":21922:21926   */\n      0x24\n        /* \"#utility.yul\":21919:21920   */\n      0x00\n        /* \"#utility.yul\":21912:21927   */\n      revert\n        /* \"#utility.yul\":21939:22119   */\n    tag_490:\n        /* \"#utility.yul\":21987:22064   */\n      0x4e487b7100000000000000000000000000000000000000000000000000000000\n        /* \"#utility.yul\":21984:21985   */\n      0x00\n        /* \"#utility.yul\":21977:22065   */\n      mstore\n        /* \"#utility.yul\":22084:22088   */\n      0x41\n        /* \"#utility.yul\":22081:22082   */\n      0x04\n        /* \"#utility.yul\":22074:22089   */\n      mstore\n        /* \"#utility.yul\":22108:22112   */\n      0x24\n        /* \"#utility.yul\":22105:22106   */\n      0x00\n        /* \"#utility.yul\":22098:22113   */\n      revert\n        /* \"#utility.yul\":22125:22242   */\n    tag_316:\n        /* \"#utility.yul\":22234:22235   */\n      0x00\n        /* \"#utility.yul\":22231:22232   */\n      dup1\n        /* \"#utility.yul\":22224:22236   */\n      revert\n        /* \"#utility.yul\":22248:22365   */\n    tag_301:\n        /* \"#utility.yul\":22357:22358   */\n      0x00\n        /* \"#utility.yul\":22354:22355   */\n      dup1\n        /* \"#utility.yul\":22347:22359   */\n      revert\n        /* \"#utility.yul\":22371:22488   */\n    tag_334:\n        /* \"#utility.yul\":22480:22481   */\n      0x00\n        /* \"#utility.yul\":22477:22478   */\n      dup1\n        /* \"#utility.yul\":22470:22482   */\n      revert\n        /* \"#utility.yul\":22494:22611   */\n    tag_325:\n        /* \"#utility.yul\":22603:22604   */\n      0x00\n        /* \"#utility.yul\":22600:22601   */\n      dup1\n        /* \"#utility.yul\":22593:22605   */\n      revert\n        /* \"#utility.yul\":22617:22719   */\n    tag_406:\n        /* \"#utility.yul\":22658:22664   */\n      0x00\n        /* \"#utility.yul\":22709:22711   */\n      0x1f\n        /* \"#utility.yul\":22705:22712   */\n      not\n        /* \"#utility.yul\":22700:22702   */\n      0x1f\n        /* \"#utility.yul\":22693:22698   */\n      dup4\n        /* \"#utility.yul\":22689:22703   */\n      add\n        /* \"#utility.yul\":22685:22713   */\n      and\n        /* \"#utility.yul\":22675:22713   */\n      swap1\n      pop\n        /* \"#utility.yul\":22617:22719   */\n      swap2\n      swap1\n      pop\n      jump\t// out\n        /* \"#utility.yul\":22725:22903   */\n    tag_418:\n        /* \"#utility.yul\":22865:22895   */\n      0x63616c6c6572206973206e6f742061206469737472696275746f722e00000000\n        /* \"#utility.yul\":22861:22862   */\n      0x00\n        /* \"#utility.yul\":22853:22859   */\n      dup3\n        /* \"#utility.yul\":22849:22863   */\n      add\n        /* \"#utility.yul\":22842:22896   */\n      mstore\n        /* \"#utility.yul\":22725:22903   */\n      pop\n      jump\t// out\n        /* \"#utility.yul\":22909:23084   */\n    tag_423:\n        /* \"#utility.yul\":23049:23076   */\n      0x63616c6c6572206973206e6f7420612070726f64756365722e00000000000000\n        /* \"#utility.yul\":23045:23046   */\n      0x00\n        /* \"#utility.yul\":23037:23043   */\n      dup3\n        /* \"#utility.yul\":23033:23047   */\n      add\n        /* \"#utility.yul\":23026:23077   */\n      mstore\n        /* \"#utility.yul\":22909:23084   */\n      pop\n      jump\t// out\n        /* \"#utility.yul\":23090:23270   */\n    tag_428:\n        /* \"#utility.yul\":23230:23262   */\n      0x63616c6c6572206973206e6f742074686520746f6b656e206f776e65722e0000\n        /* \"#utility.yul\":23226:23227   */\n      0x00\n        /* \"#utility.yul\":23218:23224   */\n      dup3\n        /* \"#utility.yul\":23214:23228   */\n      add\n        /* \"#utility.yul\":23207:23263   */\n      mstore\n        /* \"#utility.yul\":23090:23270   */\n      pop\n      jump\t// out\n        /* \"#utility.yul\":23276:23388   */\n    tag_521:\n        /* \"#utility.yul\":23356:23357   */\n      0x05\n        /* \"#utility.yul\":23349:23354   */\n      dup2\n        /* \"#utility.yul\":23346:23358   */\n      lt\n        /* \"#utility.yul\":23336:23382   */\n      tag_562\n      jumpi\n        /* \"#utility.yul\":23362:23380   */\n      tag_563\n      tag_106\n      jump\t// in\n    tag_563:\n        /* \"#utility.yul\":23336:23382   */\n    tag_562:\n        /* \"#utility.yul\":23276:23388   */\n      pop\n      jump\t// out\n        /* \"#utility.yul\":23394:23507   */\n    tag_525:\n        /* \"#utility.yul\":23475:23476   */\n      0x06\n        /* \"#utility.yul\":23468:23473   */\n      dup2\n        /* \"#utility.yul\":23465:23477   */\n      lt\n        /* \"#utility.yul\":23455:23501   */\n      tag_565\n      jumpi\n        /* \"#utility.yul\":23481:23499   */\n      tag_566\n      tag_106\n      jump\t// in\n    tag_566:\n        /* \"#utility.yul\":23455:23501   */\n    tag_565:\n        /* \"#utility.yul\":23394:23507   */\n      pop\n      jump\t// out\n        /* \"#utility.yul\":23513:23635   */\n    tag_307:\n        /* \"#utility.yul\":23586:23610   */\n      tag_568\n        /* \"#utility.yul\":23604:23609   */\n      dup2\n        /* \"#utility.yul\":23586:23610   */\n      tag_384\n      jump\t// in\n    tag_568:\n        /* \"#utility.yul\":23579:23584   */\n      dup2\n        /* \"#utility.yul\":23576:23611   */\n      eq\n        /* \"#utility.yul\":23566:23629   */\n      tag_569\n      jumpi\n        /* \"#utility.yul\":23625:23626   */\n      0x00\n        /* \"#utility.yul\":23622:23623   */\n      dup1\n        /* \"#utility.yul\":23615:23627   */\n      revert\n        /* \"#utility.yul\":23566:23629   */\n    tag_569:\n        /* \"#utility.yul\":23513:23635   */\n      pop\n      jump\t// out\n        /* \"#utility.yul\":23641:23747   */\n    tag_311:\n        /* \"#utility.yul\":23721:23722   */\n      0x05\n        /* \"#utility.yul\":23714:23719   */\n      dup2\n        /* \"#utility.yul\":23711:23723   */\n      lt\n        /* \"#utility.yul\":23701:23741   */\n      tag_571\n      jumpi\n        /* \"#utility.yul\":23737:23738   */\n      0x00\n        /* \"#utility.yul\":23734:23735   */\n      dup1\n        /* \"#utility.yul\":23727:23739   */\n      revert\n        /* \"#utility.yul\":23701:23741   */\n    tag_571:\n        /* \"#utility.yul\":23641:23747   */\n      pop\n      jump\t// out\n        /* \"#utility.yul\":23753:23875   */\n    tag_321:\n        /* \"#utility.yul\":23826:23850   */\n      tag_573\n        /* \"#utility.yul\":23844:23849   */\n      dup2\n        /* \"#utility.yul\":23826:23850   */\n      tag_441\n      jump\t// in\n    tag_573:\n        /* \"#utility.yul\":23819:23824   */\n      dup2\n        /* \"#utility.yul\":23816:23851   */\n      eq\n        /* \"#utility.yul\":23806:23869   */\n      tag_574\n      jumpi\n        /* \"#utility.yul\":23865:23866   */\n      0x00\n        /* \"#utility.yul\":23862:23863   */\n      dup1\n        /* \"#utility.yul\":23855:23867   */\n      revert\n        /* \"#utility.yul\":23806:23869   */\n    tag_574:\n        /* \"#utility.yul\":23753:23875   */\n      pop\n      jump\t// out\n\n    auxdata: 0xa26469706673582212200e991642c4b4ca65cf703ac77b755b833027e3c47a2eafb0ceb2d9e1fb84dfb864736f6c63430008070033\n}\n",
				"bytecode": {
					"linkReferences": {},
					"object": "60806040523480156200001157600080fd5b506040516200314338038062003143833981810160405281019062000037919062000243565b82600090805190602001906200004f929190620000fe565b50816001908051906020019062000068929190620000fe565b508060038190555033600260006101000a81548173ffffffffffffffffffffffffffffffffffffffff021916908373ffffffffffffffffffffffffffffffffffffffff16021790555080600460003373ffffffffffffffffffffffffffffffffffffffff1673ffffffffffffffffffffffffffffffffffffffff1681526020019081526020016000208190555050505062000485565b8280546200010c906200037c565b90600052602060002090601f0160209004810192826200013057600085556200017c565b82601f106200014b57805160ff19168380011785556200017c565b828001600101855582156200017c579182015b828111156200017b5782518255916020019190600101906200015e565b5b5090506200018b91906200018f565b5090565b5b80821115620001aa57600081600090555060010162000190565b5090565b6000620001c5620001bf8462000306565b620002dd565b905082815260208101848484011115620001e457620001e36200044b565b5b620001f184828562000346565b509392505050565b600082601f83011262000211576200021062000446565b5b815162000223848260208601620001ae565b91505092915050565b6000815190506200023d816200046b565b92915050565b6000806000606084860312156200025f576200025e62000455565b5b600084015167ffffffffffffffff81111562000280576200027f62000450565b5b6200028e86828701620001f9565b935050602084015167ffffffffffffffff811115620002b257620002b162000450565b5b620002c086828701620001f9565b9250506040620002d3868287016200022c565b9150509250925092565b6000620002e9620002fc565b9050620002f78282620003b2565b919050565b6000604051905090565b600067ffffffffffffffff82111562000324576200032362000417565b5b6200032f826200045a565b9050602081019050919050565b6000819050919050565b60005b838110156200036657808201518184015260208101905062000349565b8381111562000376576000848401525b50505050565b600060028204905060018216806200039557607f821691505b60208210811415620003ac57620003ab620003e8565b5b50919050565b620003bd826200045a565b810181811067ffffffffffffffff82111715620003df57620003de62000417565b5b80604052505050565b7f4e487b7100000000000000000000000000000000000000000000000000000000600052602260045260246000fd5b7f4e487b7100000000000000000000000000000000000000000000000000000000600052604160045260246000fd5b600080fd5b600080fd5b600080fd5b600080fd5b6000601f19601f8301169050919050565b62000476816200033c565b81146200048257600080fd5b50565b612cae80620004956000396000f3fe6080604052600436106100e85760003560e01c806395d89b411161008a578063a482171911610059578063a482171914610304578063b292abf11461030e578063cd0c58961461034c578063eedc966a14610389576100e8565b806395d89b411461025c5780639dc29fac14610287578063a0712d68146102b0578063a3e67610146102d9576100e8565b8063561e0e98116100c6578063561e0e981461016a5780636813b53b1461019357806368cdafe6146101da57806379a85e6c14610217576100e8565b806306fdde03146100ed57806340932fc21461011857806353b6286614610141575b600080fd5b3480156100f957600080fd5b506101026103c6565b60405161010f91906125c4565b60405180910390f35b34801561012457600080fd5b5061013f600480360381019061013a91906120a4565b610454565b005b34801561014d57600080fd5b5061016860048036038101906101639190612180565b61068a565b005b34801561017657600080fd5b50610191600480360381019061018c91906121c0565b610951565b005b34801561019f57600080fd5b506101ba60048036038101906101b59190612153565b610c9d565b6040516101d19b9a999897969594939291906126f5565b60405180910390f35b3480156101e657600080fd5b5061020160048036038101906101fc9190612113565b6111ca565b60405161020e9190612579565b60405180910390f35b34801561022357600080fd5b5061023e60048036038101906102399190612153565b611308565b60405161025399989796959493929190612661565b60405180910390f35b34801561026857600080fd5b506102716118bf565b60405161027e91906125c4565b60405180910390f35b34801561029357600080fd5b506102ae60048036038101906102a99190612113565b61194d565b005b3480156102bc57600080fd5b506102d760048036038101906102d29190612153565b611ad6565b005b3480156102e557600080fd5b506102ee611bd8565b6040516102fb919061255e565b60405180910390f35b61030c611bfe565b005b34801561031a57600080fd5b5061033560048036038101906103309190612077565b611d56565b604051610343929190612594565b60405180910390f35b34801561035857600080fd5b50610373600480360381019061036e9190612077565b611e7e565b6040516103809190612646565b60405180910390f35b34801561039557600080fd5b506103b060048036038101906103ab9190612077565b611e9f565b6040516103bd9190612646565b60405180910390f35b600080546103d3906129f5565b80601f01602080910402602001604051908101604052809291908181526020018280546103ff906129f5565b801561044c5780601f106104215761010080835404028352916020019161044c565b820191906000526020600020905b81548152906001019060200180831161042f57829003601f168201915b505050505081565b6000600560008573ffffffffffffffffffffffffffffffffffffffff1673ffffffffffffffffffffffffffffffffffffffff1681526020019081526020016000206040518060600160405290816000820160009054906101000a900460ff1660048111156104c5576104c4612ab6565b5b60048111156104d7576104d6612ab6565b5b81526020016001820180546104eb906129f5565b80601f0160208091040260200160405190810160405280929190818152602001828054610517906129f5565b80156105645780601f1061053957610100808354040283529160200191610564565b820191906000526020600020905b81548152906001019060200180831161054757829003601f168201915b505050505081526020016002820160009054906101000a900460ff161515151581525050905082816000019060048111156105a2576105a1612ab6565b5b908160048111156105b6576105b5612ab6565b5b81525050818160200181905250600181604001901515908115158152505080600560008673ffffffffffffffffffffffffffffffffffffffff1673ffffffffffffffffffffffffffffffffffffffff16815260200190815260200160002060008201518160000160006101000a81548160ff0219169083600481111561063f5761063e612ab6565b5b02179055506020820151816001019080519060200190610660929190611ee8565b5060408201518160020160006101000a81548160ff02191690831515021790555090505050505050565b6001600481111561069e5761069d612ab6565b5b600560003373ffffffffffffffffffffffffffffffffffffffff1673ffffffffffffffffffffffffffffffffffffffff16815260200190815260200160002060000160009054906101000a900460ff166004811115610700576106ff612ab6565b5b14610740576040517f08c379a0000000000000000000000000000000000000000000000000000000008152600401610737906125e6565b60405180910390fd5b60006006600084815260200190815260200160002090506000600460003373ffffffffffffffffffffffffffffffffffffffff1673ffffffffffffffffffffffffffffffffffffffff16815260200190815260200160002054905081600a01548110156107ac57600080fd5b600160058111156107c0576107bf612ab6565b5b8260090160009054906101000a900460ff1660058111156107e4576107e3612ab6565b5b146107ee57600080fd5b826006600086815260200190815260200160002060030160016006811061081857610817612b14565b5b01819055503360066000868152602001908152602001600020600b0160006101000a81548173ffffffffffffffffffffffffffffffffffffffff021916908373ffffffffffffffffffffffffffffffffffffffff1602179055506108b66006600086815260200190815260200160002060010160009054906101000a900473ffffffffffffffffffffffffffffffffffffffff1683600a01546111ca565b5060056006600086815260200190815260200160002060090160006101000a81548160ff021916908360058111156108f1576108f0612ab6565b5b0217905550336006600086815260200190815260200160002060010160006101000a81548173ffffffffffffffffffffffffffffffffffffffff021916908373ffffffffffffffffffffffffffffffffffffffff16021790555050505050565b6000600481111561096557610964612ab6565b5b600560003373ffffffffffffffffffffffffffffffffffffffff1673ffffffffffffffffffffffffffffffffffffffff16815260200190815260200160002060000160009054906101000a900460ff1660048111156109c7576109c6612ab6565b5b14610a07576040517f08c379a00000000000000000000000000000000000000000000000000000000081526004016109fe90612606565b60405180910390fd5b6000600660008c815260200190815260200160002090508a8160000181905550338160010160006101000a81548173ffffffffffffffffffffffffffffffffffffffff021916908373ffffffffffffffffffffffffffffffffffffffff160217905550338160020160006101000a81548173ffffffffffffffffffffffffffffffffffffffff021916908373ffffffffffffffffffffffffffffffffffffffff1602179055508981600301600060068110610ac557610ac4612b14565b5b018190555060018160090160006101000a81548160ff02191690836005811115610af257610af1612ab6565b5b02179055508881600a0181905550600081600b0160006101000a81548173ffffffffffffffffffffffffffffffffffffffff021916908373ffffffffffffffffffffffffffffffffffffffff160217905550600081600c0160006101000a81548173ffffffffffffffffffffffffffffffffffffffff021916908373ffffffffffffffffffffffffffffffffffffffff160217905550600081600d0160006101000a81548173ffffffffffffffffffffffffffffffffffffffff021916908373ffffffffffffffffffffffffffffffffffffffff1602179055508781600e016000019080519060200190610be7929190611ee8565b508681600e016001019080519060200190610c03929190611ee8565b508581600e016002019080519060200190610c1f929190611ee8565b508481600e016003019080519060200190610c3b929190611ee8565b508381600e016004019080519060200190610c57929190611ee8565b508281600e016005019080519060200190610c73929190611ee8565b508181600e016006019080519060200190610c8f929190611ee8565b505050505050505050505050565b6000806000806060806060806060806060600660008d8152602001908152602001600020600001549a50600660008d815260200190815260200160002060010160009054906101000a900473ffffffffffffffffffffffffffffffffffffffff169950600660008d815260200190815260200160002060090160009054906101000a900460ff169850600660008d8152602001908152602001600020600a01549750600660008d8152602001908152602001600020600e016000018054610d63906129f5565b80601f0160208091040260200160405190810160405280929190818152602001828054610d8f906129f5565b8015610ddc5780601f10610db157610100808354040283529160200191610ddc565b820191906000526020600020905b815481529060010190602001808311610dbf57829003601f168201915b50505050509650600660008d8152602001908152602001600020600e016001018054610e07906129f5565b80601f0160208091040260200160405190810160405280929190818152602001828054610e33906129f5565b8015610e805780601f10610e5557610100808354040283529160200191610e80565b820191906000526020600020905b815481529060010190602001808311610e6357829003601f168201915b50505050509550600660008d8152602001908152602001600020600e016002018054610eab906129f5565b80601f0160208091040260200160405190810160405280929190818152602001828054610ed7906129f5565b8015610f245780601f10610ef957610100808354040283529160200191610f24565b820191906000526020600020905b815481529060010190602001808311610f0757829003601f168201915b50505050509450600660008d8152602001908152602001600020600e016003018054610f4f906129f5565b80601f0160208091040260200160405190810160405280929190818152602001828054610f7b906129f5565b8015610fc85780601f10610f9d57610100808354040283529160200191610fc8565b820191906000526020600020905b815481529060010190602001808311610fab57829003601f168201915b50505050509350600660008d8152602001908152602001600020600e016004018054610ff3906129f5565b80601f016020809104026020016040519081016040528092919081815260200182805461101f906129f5565b801561106c5780601f106110415761010080835404028352916020019161106c565b820191906000526020600020905b81548152906001019060200180831161104f57829003601f168201915b50505050509250600660008d8152602001908152602001600020600e016005018054611097906129f5565b80601f01602080910402602001604051908101604052809291908181526020018280546110c3906129f5565b80156111105780601f106110e557610100808354040283529160200191611110565b820191906000526020600020905b8154815290600101906020018083116110f357829003601f168201915b50505050509150600660008d8152602001908152602001600020600e01600601805461113b906129f5565b80601f0160208091040260200160405190810160405280929190818152602001828054611167906129f5565b80156111b45780601f10611189576101008083540402835291602001916111b4565b820191906000526020600020905b81548152906001019060200180831161119757829003601f168201915b5050505050905091939597999b90929496989a50565b600081600460003373ffffffffffffffffffffffffffffffffffffffff1673ffffffffffffffffffffffffffffffffffffffff16815260200190815260200160002054101561121857600080fd5b600073ffffffffffffffffffffffffffffffffffffffff168373ffffffffffffffffffffffffffffffffffffffff16141561125257600080fd5b81600460003373ffffffffffffffffffffffffffffffffffffffff1673ffffffffffffffffffffffffffffffffffffffff16815260200190815260200160002060008282546112a191906128db565b9250508190555081600460008573ffffffffffffffffffffffffffffffffffffffff1673ffffffffffffffffffffffffffffffffffffffff16815260200190815260200160002060008282546112f79190612854565b925050819055506001905092915050565b60008060008060008060008061131c611f6e565b600660008b8152602001908152602001600020600001549850600660008b815260200190815260200160002060020160009054906101000a900473ffffffffffffffffffffffffffffffffffffffff169750600660008b815260200190815260200160002060010160009054906101000a900473ffffffffffffffffffffffffffffffffffffffff169650600660008b8152602001908152602001600020600b0160009054906101000a900473ffffffffffffffffffffffffffffffffffffffff169350600660008b8152602001908152602001600020600c0160009054906101000a900473ffffffffffffffffffffffffffffffffffffffff169250600660008b8152602001908152602001600020600d0160009054906101000a900473ffffffffffffffffffffffffffffffffffffffff169150600660008b815260200190815260200160002060090160009054906101000a900460ff169550600660008b8152602001908152602001600020600a01549450600660008b8152602001908152602001600020600e016040518060e00160405290816000820180546114c2906129f5565b80601f01602080910402602001604051908101604052809291908181526020018280546114ee906129f5565b801561153b5780601f106115105761010080835404028352916020019161153b565b820191906000526020600020905b81548152906001019060200180831161151e57829003601f168201915b50505050508152602001600182018054611554906129f5565b80601f0160208091040260200160405190810160405280929190818152602001828054611580906129f5565b80156115cd5780601f106115a2576101008083540402835291602001916115cd565b820191906000526020600020905b8154815290600101906020018083116115b057829003601f168201915b505050505081526020016002820180546115e6906129f5565b80601f0160208091040260200160405190810160405280929190818152602001828054611612906129f5565b801561165f5780601f106116345761010080835404028352916020019161165f565b820191906000526020600020905b81548152906001019060200180831161164257829003601f168201915b50505050508152602001600382018054611678906129f5565b80601f01602080910402602001604051908101604052809291908181526020018280546116a4906129f5565b80156116f15780601f106116c6576101008083540402835291602001916116f1565b820191906000526020600020905b8154815290600101906020018083116116d457829003601f168201915b5050505050815260200160048201805461170a906129f5565b80601f0160208091040260200160405190810160405280929190818152602001828054611736906129f5565b80156117835780601f1061175857610100808354040283529160200191611783565b820191906000526020600020905b81548152906001019060200180831161176657829003601f168201915b5050505050815260200160058201805461179c906129f5565b80601f01602080910402602001604051908101604052809291908181526020018280546117c8906129f5565b80156118155780601f106117ea57610100808354040283529160200191611815565b820191906000526020600020905b8154815290600101906020018083116117f857829003601f168201915b5050505050815260200160068201805461182e906129f5565b80601f016020809104026020016040519081016040528092919081815260200182805461185a906129f5565b80156118a75780601f1061187c576101008083540402835291602001916118a7565b820191906000526020600020905b81548152906001019060200180831161188a57829003601f168201915b50505050508152505090509193959799909294969850565b600180546118cc906129f5565b80601f01602080910402602001604051908101604052809291908181526020018280546118f8906129f5565b80156119455780601f1061191a57610100808354040283529160200191611945565b820191906000526020600020905b81548152906001019060200180831161192857829003601f168201915b505050505081565b600260009054906101000a900473ffffffffffffffffffffffffffffffffffffffff1673ffffffffffffffffffffffffffffffffffffffff163373ffffffffffffffffffffffffffffffffffffffff16146119dd576040517f08c379a00000000000000000000000000000000000000000000000000000000081526004016119d490612626565b60405180910390fd5b600073ffffffffffffffffffffffffffffffffffffffff168273ffffffffffffffffffffffffffffffffffffffff161415611a1757600080fd5b600460008373ffffffffffffffffffffffffffffffffffffffff1673ffffffffffffffffffffffffffffffffffffffff16815260200190815260200160002054811115611a6357600080fd5b8060036000828254611a7591906128db565b9250508190555080600460008473ffffffffffffffffffffffffffffffffffffffff1673ffffffffffffffffffffffffffffffffffffffff1681526020019081526020016000206000828254611acb91906128db565b925050819055505050565b600260009054906101000a900473ffffffffffffffffffffffffffffffffffffffff1673ffffffffffffffffffffffffffffffffffffffff163373ffffffffffffffffffffffffffffffffffffffff1614611b66576040517f08c379a0000000000000000000000000000000000000000000000000000000008152600401611b5d90612626565b60405180910390fd5b8060036000828254611b789190612854565b9250508190555080600460003373ffffffffffffffffffffffffffffffffffffffff1673ffffffffffffffffffffffffffffffffffffffff1681526020019081526020016000206000828254611bce9190612854565b9250508190555050565b600260009054906101000a900473ffffffffffffffffffffffffffffffffffffffff1681565b6000606434611c0d91906128aa565b905060003411611c1c57600080fd5b600260009054906101000a900473ffffffffffffffffffffffffffffffffffffffff1673ffffffffffffffffffffffffffffffffffffffff166108fc349081150290604051600060405180830381858888f19350505050158015611c84573d6000803e3d6000fd5b508060046000600260009054906101000a900473ffffffffffffffffffffffffffffffffffffffff1673ffffffffffffffffffffffffffffffffffffffff1673ffffffffffffffffffffffffffffffffffffffff1681526020019081526020016000206000828254611cf691906128db565b9250508190555080600460003373ffffffffffffffffffffffffffffffffffffffff1673ffffffffffffffffffffffffffffffffffffffff1681526020019081526020016000206000828254611d4c9190612854565b9250508190555050565b60006060600560008473ffffffffffffffffffffffffffffffffffffffff1673ffffffffffffffffffffffffffffffffffffffff16815260200190815260200160002060000160009054906101000a900460ff169150600560008473ffffffffffffffffffffffffffffffffffffffff1673ffffffffffffffffffffffffffffffffffffffff1681526020019081526020016000206001018054611df9906129f5565b80601f0160208091040260200160405190810160405280929190818152602001828054611e25906129f5565b8015611e725780601f10611e4757610100808354040283529160200191611e72565b820191906000526020600020905b815481529060010190602001808311611e5557829003601f168201915b50505050509050915091565b60008173ffffffffffffffffffffffffffffffffffffffff16319050919050565b6000600460008373ffffffffffffffffffffffffffffffffffffffff1673ffffffffffffffffffffffffffffffffffffffff168152602001908152602001600020549050919050565b828054611ef4906129f5565b90600052602060002090601f016020900481019282611f165760008555611f5d565b82601f10611f2f57805160ff1916838001178555611f5d565b82800160010185558215611f5d579182015b82811115611f5c578251825591602001919060010190611f41565b5b509050611f6a9190611fab565b5090565b6040518060e00160405280606081526020016060815260200160608152602001606081526020016060815260200160608152602001606081525090565b5b80821115611fc4576000816000905550600101611fac565b5090565b6000611fdb611fd6846127f6565b6127d1565b905082815260208101848484011115611ff757611ff6612b77565b5b6120028482856129b3565b509392505050565b60008135905061201981612c3a565b92915050565b60008135905061202e81612c51565b92915050565b600082601f83011261204957612048612b72565b5b8135612059848260208601611fc8565b91505092915050565b60008135905061207181612c61565b92915050565b60006020828403121561208d5761208c612b81565b5b600061209b8482850161200a565b91505092915050565b6000806000606084860312156120bd576120bc612b81565b5b60006120cb8682870161200a565b93505060206120dc8682870161201f565b925050604084013567ffffffffffffffff8111156120fd576120fc612b7c565b5b61210986828701612034565b9150509250925092565b6000806040838503121561212a57612129612b81565b5b60006121388582860161200a565b925050602061214985828601612062565b9150509250929050565b60006020828403121561216957612168612b81565b5b600061217784828501612062565b91505092915050565b6000806040838503121561219757612196612b81565b5b60006121a585828601612062565b92505060206121b685828601612062565b9150509250929050565b6000806000806000806000806000806101408b8d0312156121e4576121e3612b81565b5b60006121f28d828e01612062565b9a505060206122038d828e01612062565b99505060406122148d828e01612062565b98505060608b013567ffffffffffffffff81111561223557612234612b7c565b5b6122418d828e01612034565b97505060808b013567ffffffffffffffff81111561226257612261612b7c565b5b61226e8d828e01612034565b96505060a08b013567ffffffffffffffff81111561228f5761228e612b7c565b5b61229b8d828e01612034565b95505060c08b013567ffffffffffffffff8111156122bc576122bb612b7c565b5b6122c88d828e01612034565b94505060e08b013567ffffffffffffffff8111156122e9576122e8612b7c565b5b6122f58d828e01612034565b9350506101008b013567ffffffffffffffff81111561231757612316612b7c565b5b6123238d828e01612034565b9250506101208b013567ffffffffffffffff81111561234557612344612b7c565b5b6123518d828e01612034565b9150509295989b9194979a5092959850565b61236c81612921565b82525050565b61237b8161290f565b82525050565b61238a81612933565b82525050565b6123998161298f565b82525050565b6123a8816129a1565b82525050565b60006123b982612827565b6123c38185612832565b93506123d38185602086016129c2565b6123dc81612b86565b840191505092915050565b60006123f282612827565b6123fc8185612843565b935061240c8185602086016129c2565b61241581612b86565b840191505092915050565b600061242d601c83612843565b915061243882612b97565b602082019050919050565b6000612450601983612843565b915061245b82612bc0565b602082019050919050565b6000612473601e83612843565b915061247e82612be9565b602082019050919050565b600060e08301600083015184820360008601526124a682826123ae565b915050602083015184820360208601526124c082826123ae565b915050604083015184820360408601526124da82826123ae565b915050606083015184820360608601526124f482826123ae565b9150506080830151848203608086015261250e82826123ae565b91505060a083015184820360a086015261252882826123ae565b91505060c083015184820360c086015261254282826123ae565b9150508091505092915050565b61255881612985565b82525050565b60006020820190506125736000830184612363565b92915050565b600060208201905061258e6000830184612381565b92915050565b60006040820190506125a96000830185612390565b81810360208301526125bb81846123e7565b90509392505050565b600060208201905081810360008301526125de81846123e7565b905092915050565b600060208201905081810360008301526125ff81612420565b9050919050565b6000602082019050818103600083015261261f81612443565b9050919050565b6000602082019050818103600083015261263f81612466565b9050919050565b600060208201905061265b600083018461254f565b92915050565b600061012082019050612677600083018c61254f565b612684602083018b612372565b612691604083018a612372565b61269e606083018961239f565b6126ab608083018861254f565b6126b860a0830187612372565b6126c560c0830186612372565b6126d260e0830185612372565b8181036101008301526126e58184612489565b90509a9950505050505050505050565b60006101608201905061270b600083018e61254f565b612718602083018d612372565b612725604083018c61239f565b612732606083018b61254f565b8181036080830152612744818a6123e7565b905081810360a083015261275881896123e7565b905081810360c083015261276c81886123e7565b905081810360e083015261278081876123e7565b905081810361010083015261279581866123e7565b90508181036101208301526127aa81856123e7565b90508181036101408301526127bf81846123e7565b90509c9b505050505050505050505050565b60006127db6127ec565b90506127e78282612a27565b919050565b6000604051905090565b600067ffffffffffffffff82111561281157612810612b43565b5b61281a82612b86565b9050602081019050919050565b600081519050919050565b600082825260208201905092915050565b600082825260208201905092915050565b600061285f82612985565b915061286a83612985565b9250827fffffffffffffffffffffffffffffffffffffffffffffffffffffffffffffffff0382111561289f5761289e612a58565b5b828201905092915050565b60006128b582612985565b91506128c083612985565b9250826128d0576128cf612a87565b5b828204905092915050565b60006128e682612985565b91506128f183612985565b92508282101561290457612903612a58565b5b828203905092915050565b600061291a82612965565b9050919050565b600061292c82612965565b9050919050565b60008115159050919050565b600081905061294d82612c12565b919050565b600081905061296082612c26565b919050565b600073ffffffffffffffffffffffffffffffffffffffff82169050919050565b6000819050919050565b600061299a8261293f565b9050919050565b60006129ac82612952565b9050919050565b82818337600083830152505050565b60005b838110156129e05780820151818401526020810190506129c5565b838111156129ef576000848401525b50505050565b60006002820490506001821680612a0d57607f821691505b60208210811415612a2157612a20612ae5565b5b50919050565b612a3082612b86565b810181811067ffffffffffffffff82111715612a4f57612a4e612b43565b5b80604052505050565b7f4e487b7100000000000000000000000000000000000000000000000000000000600052601160045260246000fd5b7f4e487b7100000000000000000000000000000000000000000000000000000000600052601260045260246000fd5b7f4e487b7100000000000000000000000000000000000000000000000000000000600052602160045260246000fd5b7f4e487b7100000000000000000000000000000000000000000000000000000000600052602260045260246000fd5b7f4e487b7100000000000000000000000000000000000000000000000000000000600052603260045260246000fd5b7f4e487b7100000000000000000000000000000000000000000000000000000000600052604160045260246000fd5b600080fd5b600080fd5b600080fd5b600080fd5b6000601f19601f8301169050919050565b7f63616c6c6572206973206e6f742061206469737472696275746f722e00000000600082015250565b7f63616c6c6572206973206e6f7420612070726f64756365722e00000000000000600082015250565b7f63616c6c6572206973206e6f742074686520746f6b656e206f776e65722e0000600082015250565b60058110612c2357612c22612ab6565b5b50565b60068110612c3757612c36612ab6565b5b50565b612c438161290f565b8114612c4e57600080fd5b50565b60058110612c5e57600080fd5b50565b612c6a81612985565b8114612c7557600080fd5b5056fea26469706673582212200e991642c4b4ca65cf703ac77b755b833027e3c47a2eafb0ceb2d9e1fb84dfb864736f6c63430008070033",
					"opcodes": "PUSH1 0x80 PUSH1 0x40 MSTORE CALLVALUE DUP1 ISZERO PUSH3 0x11 JUMPI PUSH1 0x0 DUP1 REVERT JUMPDEST POP PUSH1 0x40 MLOAD PUSH3 0x3143 CODESIZE SUB DUP1 PUSH3 0x3143 DUP4 CODECOPY DUP2 DUP2 ADD PUSH1 0x40 MSTORE DUP2 ADD SWAP1 PUSH3 0x37 SWAP2 SWAP1 PUSH3 0x243 JUMP JUMPDEST DUP3 PUSH1 0x0 SWAP1 DUP1 MLOAD SWAP1 PUSH1 0x20 ADD SWAP1 PUSH3 0x4F SWAP3 SWAP2 SWAP1 PUSH3 0xFE JUMP JUMPDEST POP DUP2 PUSH1 0x1 SWAP1 DUP1 MLOAD SWAP1 PUSH1 0x20 ADD SWAP1 PUSH3 0x68 SWAP3 SWAP2 SWAP1 PUSH3 0xFE JUMP JUMPDEST POP DUP1 PUSH1 0x3 DUP2 SWAP1 SSTORE POP CALLER PUSH1 0x2 PUSH1 0x0 PUSH2 0x100 EXP DUP2 SLOAD DUP2 PUSH20 0xFFFFFFFFFFFFFFFFFFFFFFFFFFFFFFFFFFFFFFFF MUL NOT AND SWAP1 DUP4 PUSH20 0xFFFFFFFFFFFFFFFFFFFFFFFFFFFFFFFFFFFFFFFF AND MUL OR SWAP1 SSTORE POP DUP1 PUSH1 0x4 PUSH1 0x0 CALLER PUSH20 0xFFFFFFFFFFFFFFFFFFFFFFFFFFFFFFFFFFFFFFFF AND PUSH20 0xFFFFFFFFFFFFFFFFFFFFFFFFFFFFFFFFFFFFFFFF AND DUP2 MSTORE PUSH1 0x20 ADD SWAP1 DUP2 MSTORE PUSH1 0x20 ADD PUSH1 0x0 KECCAK256 DUP2 SWAP1 SSTORE POP POP POP POP PUSH3 0x485 JUMP JUMPDEST DUP3 DUP1 SLOAD PUSH3 0x10C SWAP1 PUSH3 0x37C JUMP JUMPDEST SWAP1 PUSH1 0x0 MSTORE PUSH1 0x20 PUSH1 0x0 KECCAK256 SWAP1 PUSH1 0x1F ADD PUSH1 0x20 SWAP1 DIV DUP2 ADD SWAP3 DUP3 PUSH3 0x130 JUMPI PUSH1 0x0 DUP6 SSTORE PUSH3 0x17C JUMP JUMPDEST DUP3 PUSH1 0x1F LT PUSH3 0x14B JUMPI DUP1 MLOAD PUSH1 0xFF NOT AND DUP4 DUP1 ADD OR DUP6 SSTORE PUSH3 0x17C JUMP JUMPDEST DUP3 DUP1 ADD PUSH1 0x1 ADD DUP6 SSTORE DUP3 ISZERO PUSH3 0x17C JUMPI SWAP2 DUP3 ADD JUMPDEST DUP3 DUP2 GT ISZERO PUSH3 0x17B JUMPI DUP3 MLOAD DUP3 SSTORE SWAP2 PUSH1 0x20 ADD SWAP2 SWAP1 PUSH1 0x1 ADD SWAP1 PUSH3 0x15E JUMP JUMPDEST JUMPDEST POP SWAP1 POP PUSH3 0x18B SWAP2 SWAP1 PUSH3 0x18F JUMP JUMPDEST POP SWAP1 JUMP JUMPDEST JUMPDEST DUP1 DUP3 GT ISZERO PUSH3 0x1AA JUMPI PUSH1 0x0 DUP2 PUSH1 0x0 SWAP1 SSTORE POP PUSH1 0x1 ADD PUSH3 0x190 JUMP JUMPDEST POP SWAP1 JUMP JUMPDEST PUSH1 0x0 PUSH3 0x1C5 PUSH3 0x1BF DUP5 PUSH3 0x306 JUMP JUMPDEST PUSH3 0x2DD JUMP JUMPDEST SWAP1 POP DUP3 DUP2 MSTORE PUSH1 0x20 DUP2 ADD DUP5 DUP5 DUP5 ADD GT ISZERO PUSH3 0x1E4 JUMPI PUSH3 0x1E3 PUSH3 0x44B JUMP JUMPDEST JUMPDEST PUSH3 0x1F1 DUP5 DUP3 DUP6 PUSH3 0x346 JUMP JUMPDEST POP SWAP4 SWAP3 POP POP POP JUMP JUMPDEST PUSH1 0x0 DUP3 PUSH1 0x1F DUP4 ADD SLT PUSH3 0x211 JUMPI PUSH3 0x210 PUSH3 0x446 JUMP JUMPDEST JUMPDEST DUP2 MLOAD PUSH3 0x223 DUP5 DUP3 PUSH1 0x20 DUP7 ADD PUSH3 0x1AE JUMP JUMPDEST SWAP2 POP POP SWAP3 SWAP2 POP POP JUMP JUMPDEST PUSH1 0x0 DUP2 MLOAD SWAP1 POP PUSH3 0x23D DUP2 PUSH3 0x46B JUMP JUMPDEST SWAP3 SWAP2 POP POP JUMP JUMPDEST PUSH1 0x0 DUP1 PUSH1 0x0 PUSH1 0x60 DUP5 DUP7 SUB SLT ISZERO PUSH3 0x25F JUMPI PUSH3 0x25E PUSH3 0x455 JUMP JUMPDEST JUMPDEST PUSH1 0x0 DUP5 ADD MLOAD PUSH8 0xFFFFFFFFFFFFFFFF DUP2 GT ISZERO PUSH3 0x280 JUMPI PUSH3 0x27F PUSH3 0x450 JUMP JUMPDEST JUMPDEST PUSH3 0x28E DUP7 DUP3 DUP8 ADD PUSH3 0x1F9 JUMP JUMPDEST SWAP4 POP POP PUSH1 0x20 DUP5 ADD MLOAD PUSH8 0xFFFFFFFFFFFFFFFF DUP2 GT ISZERO PUSH3 0x2B2 JUMPI PUSH3 0x2B1 PUSH3 0x450 JUMP JUMPDEST JUMPDEST PUSH3 0x2C0 DUP7 DUP3 DUP8 ADD PUSH3 0x1F9 JUMP JUMPDEST SWAP3 POP POP PUSH1 0x40 PUSH3 0x2D3 DUP7 DUP3 DUP8 ADD PUSH3 0x22C JUMP JUMPDEST SWAP2 POP POP SWAP3 POP SWAP3 POP SWAP3 JUMP JUMPDEST PUSH1 0x0 PUSH3 0x2E9 PUSH3 0x2FC JUMP JUMPDEST SWAP1 POP PUSH3 0x2F7 DUP3 DUP3 PUSH3 0x3B2 JUMP JUMPDEST SWAP2 SWAP1 POP JUMP JUMPDEST PUSH1 0x0 PUSH1 0x40 MLOAD SWAP1 POP SWAP1 JUMP JUMPDEST PUSH1 0x0 PUSH8 0xFFFFFFFFFFFFFFFF DUP3 GT ISZERO PUSH3 0x324 JUMPI PUSH3 0x323 PUSH3 0x417 JUMP JUMPDEST JUMPDEST PUSH3 0x32F DUP3 PUSH3 0x45A JUMP JUMPDEST SWAP1 POP PUSH1 0x20 DUP2 ADD SWAP1 POP SWAP2 SWAP1 POP JUMP JUMPDEST PUSH1 0x0 DUP2 SWAP1 POP SWAP2 SWAP1 POP JUMP JUMPDEST PUSH1 0x0 JUMPDEST DUP4 DUP2 LT ISZERO PUSH3 0x366 JUMPI DUP1 DUP3 ADD MLOAD DUP2 DUP5 ADD MSTORE PUSH1 0x20 DUP2 ADD SWAP1 POP PUSH3 0x349 JUMP JUMPDEST DUP4 DUP2 GT ISZERO PUSH3 0x376 JUMPI PUSH1 0x0 DUP5 DUP5 ADD MSTORE JUMPDEST POP POP POP POP JUMP JUMPDEST PUSH1 0x0 PUSH1 0x2 DUP3 DIV SWAP1 POP PUSH1 0x1 DUP3 AND DUP1 PUSH3 0x395 JUMPI PUSH1 0x7F DUP3 AND SWAP2 POP JUMPDEST PUSH1 0x20 DUP3 LT DUP2 EQ ISZERO PUSH3 0x3AC JUMPI PUSH3 0x3AB PUSH3 0x3E8 JUMP JUMPDEST JUMPDEST POP SWAP2 SWAP1 POP JUMP JUMPDEST PUSH3 0x3BD DUP3 PUSH3 0x45A JUMP JUMPDEST DUP2 ADD DUP2 DUP2 LT PUSH8 0xFFFFFFFFFFFFFFFF DUP3 GT OR ISZERO PUSH3 0x3DF JUMPI PUSH3 0x3DE PUSH3 0x417 JUMP JUMPDEST JUMPDEST DUP1 PUSH1 0x40 MSTORE POP POP POP JUMP JUMPDEST PUSH32 0x4E487B7100000000000000000000000000000000000000000000000000000000 PUSH1 0x0 MSTORE PUSH1 0x22 PUSH1 0x4 MSTORE PUSH1 0x24 PUSH1 0x0 REVERT JUMPDEST PUSH32 0x4E487B7100000000000000000000000000000000000000000000000000000000 PUSH1 0x0 MSTORE PUSH1 0x41 PUSH1 0x4 MSTORE PUSH1 0x24 PUSH1 0x0 REVERT JUMPDEST PUSH1 0x0 DUP1 REVERT JUMPDEST PUSH1 0x0 DUP1 REVERT JUMPDEST PUSH1 0x0 DUP1 REVERT JUMPDEST PUSH1 0x0 DUP1 REVERT JUMPDEST PUSH1 0x0 PUSH1 0x1F NOT PUSH1 0x1F DUP4 ADD AND SWAP1 POP SWAP2 SWAP1 POP JUMP JUMPDEST PUSH3 0x476 DUP2 PUSH3 0x33C JUMP JUMPDEST DUP2 EQ PUSH3 0x482 JUMPI PUSH1 0x0 DUP1 REVERT JUMPDEST POP JUMP JUMPDEST PUSH2 0x2CAE DUP1 PUSH3 0x495 PUSH1 0x0 CODECOPY PUSH1 0x0 RETURN INVALID PUSH1 0x80 PUSH1 0x40 MSTORE PUSH1 0x4 CALLDATASIZE LT PUSH2 0xE8 JUMPI PUSH1 0x0 CALLDATALOAD PUSH1 0xE0 SHR DUP1 PUSH4 0x95D89B41 GT PUSH2 0x8A JUMPI DUP1 PUSH4 0xA4821719 GT PUSH2 0x59 JUMPI DUP1 PUSH4 0xA4821719 EQ PUSH2 0x304 JUMPI DUP1 PUSH4 0xB292ABF1 EQ PUSH2 0x30E JUMPI DUP1 PUSH4 0xCD0C5896 EQ PUSH2 0x34C JUMPI DUP1 PUSH4 0xEEDC966A EQ PUSH2 0x389 JUMPI PUSH2 0xE8 JUMP JUMPDEST DUP1 PUSH4 0x95D89B41 EQ PUSH2 0x25C JUMPI DUP1 PUSH4 0x9DC29FAC EQ PUSH2 0x287 JUMPI DUP1 PUSH4 0xA0712D68 EQ PUSH2 0x2B0 JUMPI DUP1 PUSH4 0xA3E67610 EQ PUSH2 0x2D9 JUMPI PUSH2 0xE8 JUMP JUMPDEST DUP1 PUSH4 0x561E0E98 GT PUSH2 0xC6 JUMPI DUP1 PUSH4 0x561E0E98 EQ PUSH2 0x16A JUMPI DUP1 PUSH4 0x6813B53B EQ PUSH2 0x193 JUMPI DUP1 PUSH4 0x68CDAFE6 EQ PUSH2 0x1DA JUMPI DUP1 PUSH4 0x79A85E6C EQ PUSH2 0x217 JUMPI PUSH2 0xE8 JUMP JUMPDEST DUP1 PUSH4 0x6FDDE03 EQ PUSH2 0xED JUMPI DUP1 PUSH4 0x40932FC2 EQ PUSH2 0x118 JUMPI DUP1 PUSH4 0x53B62866 EQ PUSH2 0x141 JUMPI JUMPDEST PUSH1 0x0 DUP1 REVERT JUMPDEST CALLVALUE DUP1 ISZERO PUSH2 0xF9 JUMPI PUSH1 0x0 DUP1 REVERT JUMPDEST POP PUSH2 0x102 PUSH2 0x3C6 JUMP JUMPDEST PUSH1 0x40 MLOAD PUSH2 0x10F SWAP2 SWAP1 PUSH2 0x25C4 JUMP JUMPDEST PUSH1 0x40 MLOAD DUP1 SWAP2 SUB SWAP1 RETURN JUMPDEST CALLVALUE DUP1 ISZERO PUSH2 0x124 JUMPI PUSH1 0x0 DUP1 REVERT JUMPDEST POP PUSH2 0x13F PUSH1 0x4 DUP1 CALLDATASIZE SUB DUP2 ADD SWAP1 PUSH2 0x13A SWAP2 SWAP1 PUSH2 0x20A4 JUMP JUMPDEST PUSH2 0x454 JUMP JUMPDEST STOP JUMPDEST CALLVALUE DUP1 ISZERO PUSH2 0x14D JUMPI PUSH1 0x0 DUP1 REVERT JUMPDEST POP PUSH2 0x168 PUSH1 0x4 DUP1 CALLDATASIZE SUB DUP2 ADD SWAP1 PUSH2 0x163 SWAP2 SWAP1 PUSH2 0x2180 JUMP JUMPDEST PUSH2 0x68A JUMP JUMPDEST STOP JUMPDEST CALLVALUE DUP1 ISZERO PUSH2 0x176 JUMPI PUSH1 0x0 DUP1 REVERT JUMPDEST POP PUSH2 0x191 PUSH1 0x4 DUP1 CALLDATASIZE SUB DUP2 ADD SWAP1 PUSH2 0x18C SWAP2 SWAP1 PUSH2 0x21C0 JUMP JUMPDEST PUSH2 0x951 JUMP JUMPDEST STOP JUMPDEST CALLVALUE DUP1 ISZERO PUSH2 0x19F JUMPI PUSH1 0x0 DUP1 REVERT JUMPDEST POP PUSH2 0x1BA PUSH1 0x4 DUP1 CALLDATASIZE SUB DUP2 ADD SWAP1 PUSH2 0x1B5 SWAP2 SWAP1 PUSH2 0x2153 JUMP JUMPDEST PUSH2 0xC9D JUMP JUMPDEST PUSH1 0x40 MLOAD PUSH2 0x1D1 SWAP12 SWAP11 SWAP10 SWAP9 SWAP8 SWAP7 SWAP6 SWAP5 SWAP4 SWAP3 SWAP2 SWAP1 PUSH2 0x26F5 JUMP JUMPDEST PUSH1 0x40 MLOAD DUP1 SWAP2 SUB SWAP1 RETURN JUMPDEST CALLVALUE DUP1 ISZERO PUSH2 0x1E6 JUMPI PUSH1 0x0 DUP1 REVERT JUMPDEST POP PUSH2 0x201 PUSH1 0x4 DUP1 CALLDATASIZE SUB DUP2 ADD SWAP1 PUSH2 0x1FC SWAP2 SWAP1 PUSH2 0x2113 JUMP JUMPDEST PUSH2 0x11CA JUMP JUMPDEST PUSH1 0x40 MLOAD PUSH2 0x20E SWAP2 SWAP1 PUSH2 0x2579 JUMP JUMPDEST PUSH1 0x40 MLOAD DUP1 SWAP2 SUB SWAP1 RETURN JUMPDEST CALLVALUE DUP1 ISZERO PUSH2 0x223 JUMPI PUSH1 0x0 DUP1 REVERT JUMPDEST POP PUSH2 0x23E PUSH1 0x4 DUP1 CALLDATASIZE SUB DUP2 ADD SWAP1 PUSH2 0x239 SWAP2 SWAP1 PUSH2 0x2153 JUMP JUMPDEST PUSH2 0x1308 JUMP JUMPDEST PUSH1 0x40 MLOAD PUSH2 0x253 SWAP10 SWAP9 SWAP8 SWAP7 SWAP6 SWAP5 SWAP4 SWAP3 SWAP2 SWAP1 PUSH2 0x2661 JUMP JUMPDEST PUSH1 0x40 MLOAD DUP1 SWAP2 SUB SWAP1 RETURN JUMPDEST CALLVALUE DUP1 ISZERO PUSH2 0x268 JUMPI PUSH1 0x0 DUP1 REVERT JUMPDEST POP PUSH2 0x271 PUSH2 0x18BF JUMP JUMPDEST PUSH1 0x40 MLOAD PUSH2 0x27E SWAP2 SWAP1 PUSH2 0x25C4 JUMP JUMPDEST PUSH1 0x40 MLOAD DUP1 SWAP2 SUB SWAP1 RETURN JUMPDEST CALLVALUE DUP1 ISZERO PUSH2 0x293 JUMPI PUSH1 0x0 DUP1 REVERT JUMPDEST POP PUSH2 0x2AE PUSH1 0x4 DUP1 CALLDATASIZE SUB DUP2 ADD SWAP1 PUSH2 0x2A9 SWAP2 SWAP1 PUSH2 0x2113 JUMP JUMPDEST PUSH2 0x194D JUMP JUMPDEST STOP JUMPDEST CALLVALUE DUP1 ISZERO PUSH2 0x2BC JUMPI PUSH1 0x0 DUP1 REVERT JUMPDEST POP PUSH2 0x2D7 PUSH1 0x4 DUP1 CALLDATASIZE SUB DUP2 ADD SWAP1 PUSH2 0x2D2 SWAP2 SWAP1 PUSH2 0x2153 JUMP JUMPDEST PUSH2 0x1AD6 JUMP JUMPDEST STOP JUMPDEST CALLVALUE DUP1 ISZERO PUSH2 0x2E5 JUMPI PUSH1 0x0 DUP1 REVERT JUMPDEST POP PUSH2 0x2EE PUSH2 0x1BD8 JUMP JUMPDEST PUSH1 0x40 MLOAD PUSH2 0x2FB SWAP2 SWAP1 PUSH2 0x255E JUMP JUMPDEST PUSH1 0x40 MLOAD DUP1 SWAP2 SUB SWAP1 RETURN JUMPDEST PUSH2 0x30C PUSH2 0x1BFE JUMP JUMPDEST STOP JUMPDEST CALLVALUE DUP1 ISZERO PUSH2 0x31A JUMPI PUSH1 0x0 DUP1 REVERT JUMPDEST POP PUSH2 0x335 PUSH1 0x4 DUP1 CALLDATASIZE SUB DUP2 ADD SWAP1 PUSH2 0x330 SWAP2 SWAP1 PUSH2 0x2077 JUMP JUMPDEST PUSH2 0x1D56 JUMP JUMPDEST PUSH1 0x40 MLOAD PUSH2 0x343 SWAP3 SWAP2 SWAP1 PUSH2 0x2594 JUMP JUMPDEST PUSH1 0x40 MLOAD DUP1 SWAP2 SUB SWAP1 RETURN JUMPDEST CALLVALUE DUP1 ISZERO PUSH2 0x358 JUMPI PUSH1 0x0 DUP1 REVERT JUMPDEST POP PUSH2 0x373 PUSH1 0x4 DUP1 CALLDATASIZE SUB DUP2 ADD SWAP1 PUSH2 0x36E SWAP2 SWAP1 PUSH2 0x2077 JUMP JUMPDEST PUSH2 0x1E7E JUMP JUMPDEST PUSH1 0x40 MLOAD PUSH2 0x380 SWAP2 SWAP1 PUSH2 0x2646 JUMP JUMPDEST PUSH1 0x40 MLOAD DUP1 SWAP2 SUB SWAP1 RETURN JUMPDEST CALLVALUE DUP1 ISZERO PUSH2 0x395 JUMPI PUSH1 0x0 DUP1 REVERT JUMPDEST POP PUSH2 0x3B0 PUSH1 0x4 DUP1 CALLDATASIZE SUB DUP2 ADD SWAP1 PUSH2 0x3AB SWAP2 SWAP1 PUSH2 0x2077 JUMP JUMPDEST PUSH2 0x1E9F JUMP JUMPDEST PUSH1 0x40 MLOAD PUSH2 0x3BD SWAP2 SWAP1 PUSH2 0x2646 JUMP JUMPDEST PUSH1 0x40 MLOAD DUP1 SWAP2 SUB SWAP1 RETURN JUMPDEST PUSH1 0x0 DUP1 SLOAD PUSH2 0x3D3 SWAP1 PUSH2 0x29F5 JUMP JUMPDEST DUP1 PUSH1 0x1F ADD PUSH1 0x20 DUP1 SWAP2 DIV MUL PUSH1 0x20 ADD PUSH1 0x40 MLOAD SWAP1 DUP2 ADD PUSH1 0x40 MSTORE DUP1 SWAP3 SWAP2 SWAP1 DUP2 DUP2 MSTORE PUSH1 0x20 ADD DUP3 DUP1 SLOAD PUSH2 0x3FF SWAP1 PUSH2 0x29F5 JUMP JUMPDEST DUP1 ISZERO PUSH2 0x44C JUMPI DUP1 PUSH1 0x1F LT PUSH2 0x421 JUMPI PUSH2 0x100 DUP1 DUP4 SLOAD DIV MUL DUP4 MSTORE SWAP2 PUSH1 0x20 ADD SWAP2 PUSH2 0x44C JUMP JUMPDEST DUP3 ADD SWAP2 SWAP1 PUSH1 0x0 MSTORE PUSH1 0x20 PUSH1 0x0 KECCAK256 SWAP1 JUMPDEST DUP2 SLOAD DUP2 MSTORE SWAP1 PUSH1 0x1 ADD SWAP1 PUSH1 0x20 ADD DUP1 DUP4 GT PUSH2 0x42F JUMPI DUP3 SWAP1 SUB PUSH1 0x1F AND DUP3 ADD SWAP2 JUMPDEST POP POP POP POP POP DUP2 JUMP JUMPDEST PUSH1 0x0 PUSH1 0x5 PUSH1 0x0 DUP6 PUSH20 0xFFFFFFFFFFFFFFFFFFFFFFFFFFFFFFFFFFFFFFFF AND PUSH20 0xFFFFFFFFFFFFFFFFFFFFFFFFFFFFFFFFFFFFFFFF AND DUP2 MSTORE PUSH1 0x20 ADD SWAP1 DUP2 MSTORE PUSH1 0x20 ADD PUSH1 0x0 KECCAK256 PUSH1 0x40 MLOAD DUP1 PUSH1 0x60 ADD PUSH1 0x40 MSTORE SWAP1 DUP2 PUSH1 0x0 DUP3 ADD PUSH1 0x0 SWAP1 SLOAD SWAP1 PUSH2 0x100 EXP SWAP1 DIV PUSH1 0xFF AND PUSH1 0x4 DUP2 GT ISZERO PUSH2 0x4C5 JUMPI PUSH2 0x4C4 PUSH2 0x2AB6 JUMP JUMPDEST JUMPDEST PUSH1 0x4 DUP2 GT ISZERO PUSH2 0x4D7 JUMPI PUSH2 0x4D6 PUSH2 0x2AB6 JUMP JUMPDEST JUMPDEST DUP2 MSTORE PUSH1 0x20 ADD PUSH1 0x1 DUP3 ADD DUP1 SLOAD PUSH2 0x4EB SWAP1 PUSH2 0x29F5 JUMP JUMPDEST DUP1 PUSH1 0x1F ADD PUSH1 0x20 DUP1 SWAP2 DIV MUL PUSH1 0x20 ADD PUSH1 0x40 MLOAD SWAP1 DUP2 ADD PUSH1 0x40 MSTORE DUP1 SWAP3 SWAP2 SWAP1 DUP2 DUP2 MSTORE PUSH1 0x20 ADD DUP3 DUP1 SLOAD PUSH2 0x517 SWAP1 PUSH2 0x29F5 JUMP JUMPDEST DUP1 ISZERO PUSH2 0x564 JUMPI DUP1 PUSH1 0x1F LT PUSH2 0x539 JUMPI PUSH2 0x100 DUP1 DUP4 SLOAD DIV MUL DUP4 MSTORE SWAP2 PUSH1 0x20 ADD SWAP2 PUSH2 0x564 JUMP JUMPDEST DUP3 ADD SWAP2 SWAP1 PUSH1 0x0 MSTORE PUSH1 0x20 PUSH1 0x0 KECCAK256 SWAP1 JUMPDEST DUP2 SLOAD DUP2 MSTORE SWAP1 PUSH1 0x1 ADD SWAP1 PUSH1 0x20 ADD DUP1 DUP4 GT PUSH2 0x547 JUMPI DUP3 SWAP1 SUB PUSH1 0x1F AND DUP3 ADD SWAP2 JUMPDEST POP POP POP POP POP DUP2 MSTORE PUSH1 0x20 ADD PUSH1 0x2 DUP3 ADD PUSH1 0x0 SWAP1 SLOAD SWAP1 PUSH2 0x100 EXP SWAP1 DIV PUSH1 0xFF AND ISZERO ISZERO ISZERO ISZERO DUP2 MSTORE POP POP SWAP1 POP DUP3 DUP2 PUSH1 0x0 ADD SWAP1 PUSH1 0x4 DUP2 GT ISZERO PUSH2 0x5A2 JUMPI PUSH2 0x5A1 PUSH2 0x2AB6 JUMP JUMPDEST JUMPDEST SWAP1 DUP2 PUSH1 0x4 DUP2 GT ISZERO PUSH2 0x5B6 JUMPI PUSH2 0x5B5 PUSH2 0x2AB6 JUMP JUMPDEST JUMPDEST DUP2 MSTORE POP POP DUP2 DUP2 PUSH1 0x20 ADD DUP2 SWAP1 MSTORE POP PUSH1 0x1 DUP2 PUSH1 0x40 ADD SWAP1 ISZERO ISZERO SWAP1 DUP2 ISZERO ISZERO DUP2 MSTORE POP POP DUP1 PUSH1 0x5 PUSH1 0x0 DUP7 PUSH20 0xFFFFFFFFFFFFFFFFFFFFFFFFFFFFFFFFFFFFFFFF AND PUSH20 0xFFFFFFFFFFFFFFFFFFFFFFFFFFFFFFFFFFFFFFFF AND DUP2 MSTORE PUSH1 0x20 ADD SWAP1 DUP2 MSTORE PUSH1 0x20 ADD PUSH1 0x0 KECCAK256 PUSH1 0x0 DUP3 ADD MLOAD DUP2 PUSH1 0x0 ADD PUSH1 0x0 PUSH2 0x100 EXP DUP2 SLOAD DUP2 PUSH1 0xFF MUL NOT AND SWAP1 DUP4 PUSH1 0x4 DUP2 GT ISZERO PUSH2 0x63F JUMPI PUSH2 0x63E PUSH2 0x2AB6 JUMP JUMPDEST JUMPDEST MUL OR SWAP1 SSTORE POP PUSH1 0x20 DUP3 ADD MLOAD DUP2 PUSH1 0x1 ADD SWAP1 DUP1 MLOAD SWAP1 PUSH1 0x20 ADD SWAP1 PUSH2 0x660 SWAP3 SWAP2 SWAP1 PUSH2 0x1EE8 JUMP JUMPDEST POP PUSH1 0x40 DUP3 ADD MLOAD DUP2 PUSH1 0x2 ADD PUSH1 0x0 PUSH2 0x100 EXP DUP2 SLOAD DUP2 PUSH1 0xFF MUL NOT AND SWAP1 DUP4 ISZERO ISZERO MUL OR SWAP1 SSTORE POP SWAP1 POP POP POP POP POP POP JUMP JUMPDEST PUSH1 0x1 PUSH1 0x4 DUP2 GT ISZERO PUSH2 0x69E JUMPI PUSH2 0x69D PUSH2 0x2AB6 JUMP JUMPDEST JUMPDEST PUSH1 0x5 PUSH1 0x0 CALLER PUSH20 0xFFFFFFFFFFFFFFFFFFFFFFFFFFFFFFFFFFFFFFFF AND PUSH20 0xFFFFFFFFFFFFFFFFFFFFFFFFFFFFFFFFFFFFFFFF AND DUP2 MSTORE PUSH1 0x20 ADD SWAP1 DUP2 MSTORE PUSH1 0x20 ADD PUSH1 0x0 KECCAK256 PUSH1 0x0 ADD PUSH1 0x0 SWAP1 SLOAD SWAP1 PUSH2 0x100 EXP SWAP1 DIV PUSH1 0xFF AND PUSH1 0x4 DUP2 GT ISZERO PUSH2 0x700 JUMPI PUSH2 0x6FF PUSH2 0x2AB6 JUMP JUMPDEST JUMPDEST EQ PUSH2 0x740 JUMPI PUSH1 0x40 MLOAD PUSH32 0x8C379A000000000000000000000000000000000000000000000000000000000 DUP2 MSTORE PUSH1 0x4 ADD PUSH2 0x737 SWAP1 PUSH2 0x25E6 JUMP JUMPDEST PUSH1 0x40 MLOAD DUP1 SWAP2 SUB SWAP1 REVERT JUMPDEST PUSH1 0x0 PUSH1 0x6 PUSH1 0x0 DUP5 DUP2 MSTORE PUSH1 0x20 ADD SWAP1 DUP2 MSTORE PUSH1 0x20 ADD PUSH1 0x0 KECCAK256 SWAP1 POP PUSH1 0x0 PUSH1 0x4 PUSH1 0x0 CALLER PUSH20 0xFFFFFFFFFFFFFFFFFFFFFFFFFFFFFFFFFFFFFFFF AND PUSH20 0xFFFFFFFFFFFFFFFFFFFFFFFFFFFFFFFFFFFFFFFF AND DUP2 MSTORE PUSH1 0x20 ADD SWAP1 DUP2 MSTORE PUSH1 0x20 ADD PUSH1 0x0 KECCAK256 SLOAD SWAP1 POP DUP2 PUSH1 0xA ADD SLOAD DUP2 LT ISZERO PUSH2 0x7AC JUMPI PUSH1 0x0 DUP1 REVERT JUMPDEST PUSH1 0x1 PUSH1 0x5 DUP2 GT ISZERO PUSH2 0x7C0 JUMPI PUSH2 0x7BF PUSH2 0x2AB6 JUMP JUMPDEST JUMPDEST DUP3 PUSH1 0x9 ADD PUSH1 0x0 SWAP1 SLOAD SWAP1 PUSH2 0x100 EXP SWAP1 DIV PUSH1 0xFF AND PUSH1 0x5 DUP2 GT ISZERO PUSH2 0x7E4 JUMPI PUSH2 0x7E3 PUSH2 0x2AB6 JUMP JUMPDEST JUMPDEST EQ PUSH2 0x7EE JUMPI PUSH1 0x0 DUP1 REVERT JUMPDEST DUP3 PUSH1 0x6 PUSH1 0x0 DUP7 DUP2 MSTORE PUSH1 0x20 ADD SWAP1 DUP2 MSTORE PUSH1 0x20 ADD PUSH1 0x0 KECCAK256 PUSH1 0x3 ADD PUSH1 0x1 PUSH1 0x6 DUP2 LT PUSH2 0x818 JUMPI PUSH2 0x817 PUSH2 0x2B14 JUMP JUMPDEST JUMPDEST ADD DUP2 SWAP1 SSTORE POP CALLER PUSH1 0x6 PUSH1 0x0 DUP7 DUP2 MSTORE PUSH1 0x20 ADD SWAP1 DUP2 MSTORE PUSH1 0x20 ADD PUSH1 0x0 KECCAK256 PUSH1 0xB ADD PUSH1 0x0 PUSH2 0x100 EXP DUP2 SLOAD DUP2 PUSH20 0xFFFFFFFFFFFFFFFFFFFFFFFFFFFFFFFFFFFFFFFF MUL NOT AND SWAP1 DUP4 PUSH20 0xFFFFFFFFFFFFFFFFFFFFFFFFFFFFFFFFFFFFFFFF AND MUL OR SWAP1 SSTORE POP PUSH2 0x8B6 PUSH1 0x6 PUSH1 0x0 DUP7 DUP2 MSTORE PUSH1 0x20 ADD SWAP1 DUP2 MSTORE PUSH1 0x20 ADD PUSH1 0x0 KECCAK256 PUSH1 0x1 ADD PUSH1 0x0 SWAP1 SLOAD SWAP1 PUSH2 0x100 EXP SWAP1 DIV PUSH20 0xFFFFFFFFFFFFFFFFFFFFFFFFFFFFFFFFFFFFFFFF AND DUP4 PUSH1 0xA ADD SLOAD PUSH2 0x11CA JUMP JUMPDEST POP PUSH1 0x5 PUSH1 0x6 PUSH1 0x0 DUP7 DUP2 MSTORE PUSH1 0x20 ADD SWAP1 DUP2 MSTORE PUSH1 0x20 ADD PUSH1 0x0 KECCAK256 PUSH1 0x9 ADD PUSH1 0x0 PUSH2 0x100 EXP DUP2 SLOAD DUP2 PUSH1 0xFF MUL NOT AND SWAP1 DUP4 PUSH1 0x5 DUP2 GT ISZERO PUSH2 0x8F1 JUMPI PUSH2 0x8F0 PUSH2 0x2AB6 JUMP JUMPDEST JUMPDEST MUL OR SWAP1 SSTORE POP CALLER PUSH1 0x6 PUSH1 0x0 DUP7 DUP2 MSTORE PUSH1 0x20 ADD SWAP1 DUP2 MSTORE PUSH1 0x20 ADD PUSH1 0x0 KECCAK256 PUSH1 0x1 ADD PUSH1 0x0 PUSH2 0x100 EXP DUP2 SLOAD DUP2 PUSH20 0xFFFFFFFFFFFFFFFFFFFFFFFFFFFFFFFFFFFFFFFF MUL NOT AND SWAP1 DUP4 PUSH20 0xFFFFFFFFFFFFFFFFFFFFFFFFFFFFFFFFFFFFFFFF AND MUL OR SWAP1 SSTORE POP POP POP POP POP JUMP JUMPDEST PUSH1 0x0 PUSH1 0x4 DUP2 GT ISZERO PUSH2 0x965 JUMPI PUSH2 0x964 PUSH2 0x2AB6 JUMP JUMPDEST JUMPDEST PUSH1 0x5 PUSH1 0x0 CALLER PUSH20 0xFFFFFFFFFFFFFFFFFFFFFFFFFFFFFFFFFFFFFFFF AND PUSH20 0xFFFFFFFFFFFFFFFFFFFFFFFFFFFFFFFFFFFFFFFF AND DUP2 MSTORE PUSH1 0x20 ADD SWAP1 DUP2 MSTORE PUSH1 0x20 ADD PUSH1 0x0 KECCAK256 PUSH1 0x0 ADD PUSH1 0x0 SWAP1 SLOAD SWAP1 PUSH2 0x100 EXP SWAP1 DIV PUSH1 0xFF AND PUSH1 0x4 DUP2 GT ISZERO PUSH2 0x9C7 JUMPI PUSH2 0x9C6 PUSH2 0x2AB6 JUMP JUMPDEST JUMPDEST EQ PUSH2 0xA07 JUMPI PUSH1 0x40 MLOAD PUSH32 0x8C379A000000000000000000000000000000000000000000000000000000000 DUP2 MSTORE PUSH1 0x4 ADD PUSH2 0x9FE SWAP1 PUSH2 0x2606 JUMP JUMPDEST PUSH1 0x40 MLOAD DUP1 SWAP2 SUB SWAP1 REVERT JUMPDEST PUSH1 0x0 PUSH1 0x6 PUSH1 0x0 DUP13 DUP2 MSTORE PUSH1 0x20 ADD SWAP1 DUP2 MSTORE PUSH1 0x20 ADD PUSH1 0x0 KECCAK256 SWAP1 POP DUP11 DUP2 PUSH1 0x0 ADD DUP2 SWAP1 SSTORE POP CALLER DUP2 PUSH1 0x1 ADD PUSH1 0x0 PUSH2 0x100 EXP DUP2 SLOAD DUP2 PUSH20 0xFFFFFFFFFFFFFFFFFFFFFFFFFFFFFFFFFFFFFFFF MUL NOT AND SWAP1 DUP4 PUSH20 0xFFFFFFFFFFFFFFFFFFFFFFFFFFFFFFFFFFFFFFFF AND MUL OR SWAP1 SSTORE POP CALLER DUP2 PUSH1 0x2 ADD PUSH1 0x0 PUSH2 0x100 EXP DUP2 SLOAD DUP2 PUSH20 0xFFFFFFFFFFFFFFFFFFFFFFFFFFFFFFFFFFFFFFFF MUL NOT AND SWAP1 DUP4 PUSH20 0xFFFFFFFFFFFFFFFFFFFFFFFFFFFFFFFFFFFFFFFF AND MUL OR SWAP1 SSTORE POP DUP10 DUP2 PUSH1 0x3 ADD PUSH1 0x0 PUSH1 0x6 DUP2 LT PUSH2 0xAC5 JUMPI PUSH2 0xAC4 PUSH2 0x2B14 JUMP JUMPDEST JUMPDEST ADD DUP2 SWAP1 SSTORE POP PUSH1 0x1 DUP2 PUSH1 0x9 ADD PUSH1 0x0 PUSH2 0x100 EXP DUP2 SLOAD DUP2 PUSH1 0xFF MUL NOT AND SWAP1 DUP4 PUSH1 0x5 DUP2 GT ISZERO PUSH2 0xAF2 JUMPI PUSH2 0xAF1 PUSH2 0x2AB6 JUMP JUMPDEST JUMPDEST MUL OR SWAP1 SSTORE POP DUP9 DUP2 PUSH1 0xA ADD DUP2 SWAP1 SSTORE POP PUSH1 0x0 DUP2 PUSH1 0xB ADD PUSH1 0x0 PUSH2 0x100 EXP DUP2 SLOAD DUP2 PUSH20 0xFFFFFFFFFFFFFFFFFFFFFFFFFFFFFFFFFFFFFFFF MUL NOT AND SWAP1 DUP4 PUSH20 0xFFFFFFFFFFFFFFFFFFFFFFFFFFFFFFFFFFFFFFFF AND MUL OR SWAP1 SSTORE POP PUSH1 0x0 DUP2 PUSH1 0xC ADD PUSH1 0x0 PUSH2 0x100 EXP DUP2 SLOAD DUP2 PUSH20 0xFFFFFFFFFFFFFFFFFFFFFFFFFFFFFFFFFFFFFFFF MUL NOT AND SWAP1 DUP4 PUSH20 0xFFFFFFFFFFFFFFFFFFFFFFFFFFFFFFFFFFFFFFFF AND MUL OR SWAP1 SSTORE POP PUSH1 0x0 DUP2 PUSH1 0xD ADD PUSH1 0x0 PUSH2 0x100 EXP DUP2 SLOAD DUP2 PUSH20 0xFFFFFFFFFFFFFFFFFFFFFFFFFFFFFFFFFFFFFFFF MUL NOT AND SWAP1 DUP4 PUSH20 0xFFFFFFFFFFFFFFFFFFFFFFFFFFFFFFFFFFFFFFFF AND MUL OR SWAP1 SSTORE POP DUP8 DUP2 PUSH1 0xE ADD PUSH1 0x0 ADD SWAP1 DUP1 MLOAD SWAP1 PUSH1 0x20 ADD SWAP1 PUSH2 0xBE7 SWAP3 SWAP2 SWAP1 PUSH2 0x1EE8 JUMP JUMPDEST POP DUP7 DUP2 PUSH1 0xE ADD PUSH1 0x1 ADD SWAP1 DUP1 MLOAD SWAP1 PUSH1 0x20 ADD SWAP1 PUSH2 0xC03 SWAP3 SWAP2 SWAP1 PUSH2 0x1EE8 JUMP JUMPDEST POP DUP6 DUP2 PUSH1 0xE ADD PUSH1 0x2 ADD SWAP1 DUP1 MLOAD SWAP1 PUSH1 0x20 ADD SWAP1 PUSH2 0xC1F SWAP3 SWAP2 SWAP1 PUSH2 0x1EE8 JUMP JUMPDEST POP DUP5 DUP2 PUSH1 0xE ADD PUSH1 0x3 ADD SWAP1 DUP1 MLOAD SWAP1 PUSH1 0x20 ADD SWAP1 PUSH2 0xC3B SWAP3 SWAP2 SWAP1 PUSH2 0x1EE8 JUMP JUMPDEST POP DUP4 DUP2 PUSH1 0xE ADD PUSH1 0x4 ADD SWAP1 DUP1 MLOAD SWAP1 PUSH1 0x20 ADD SWAP1 PUSH2 0xC57 SWAP3 SWAP2 SWAP1 PUSH2 0x1EE8 JUMP JUMPDEST POP DUP3 DUP2 PUSH1 0xE ADD PUSH1 0x5 ADD SWAP1 DUP1 MLOAD SWAP1 PUSH1 0x20 ADD SWAP1 PUSH2 0xC73 SWAP3 SWAP2 SWAP1 PUSH2 0x1EE8 JUMP JUMPDEST POP DUP2 DUP2 PUSH1 0xE ADD PUSH1 0x6 ADD SWAP1 DUP1 MLOAD SWAP1 PUSH1 0x20 ADD SWAP1 PUSH2 0xC8F SWAP3 SWAP2 SWAP1 PUSH2 0x1EE8 JUMP JUMPDEST POP POP POP POP POP POP POP POP POP POP POP POP JUMP JUMPDEST PUSH1 0x0 DUP1 PUSH1 0x0 DUP1 PUSH1 0x60 DUP1 PUSH1 0x60 DUP1 PUSH1 0x60 DUP1 PUSH1 0x60 PUSH1 0x6 PUSH1 0x0 DUP14 DUP2 MSTORE PUSH1 0x20 ADD SWAP1 DUP2 MSTORE PUSH1 0x20 ADD PUSH1 0x0 KECCAK256 PUSH1 0x0 ADD SLOAD SWAP11 POP PUSH1 0x6 PUSH1 0x0 DUP14 DUP2 MSTORE PUSH1 0x20 ADD SWAP1 DUP2 MSTORE PUSH1 0x20 ADD PUSH1 0x0 KECCAK256 PUSH1 0x1 ADD PUSH1 0x0 SWAP1 SLOAD SWAP1 PUSH2 0x100 EXP SWAP1 DIV PUSH20 0xFFFFFFFFFFFFFFFFFFFFFFFFFFFFFFFFFFFFFFFF AND SWAP10 POP PUSH1 0x6 PUSH1 0x0 DUP14 DUP2 MSTORE PUSH1 0x20 ADD SWAP1 DUP2 MSTORE PUSH1 0x20 ADD PUSH1 0x0 KECCAK256 PUSH1 0x9 ADD PUSH1 0x0 SWAP1 SLOAD SWAP1 PUSH2 0x100 EXP SWAP1 DIV PUSH1 0xFF AND SWAP9 POP PUSH1 0x6 PUSH1 0x0 DUP14 DUP2 MSTORE PUSH1 0x20 ADD SWAP1 DUP2 MSTORE PUSH1 0x20 ADD PUSH1 0x0 KECCAK256 PUSH1 0xA ADD SLOAD SWAP8 POP PUSH1 0x6 PUSH1 0x0 DUP14 DUP2 MSTORE PUSH1 0x20 ADD SWAP1 DUP2 MSTORE PUSH1 0x20 ADD PUSH1 0x0 KECCAK256 PUSH1 0xE ADD PUSH1 0x0 ADD DUP1 SLOAD PUSH2 0xD63 SWAP1 PUSH2 0x29F5 JUMP JUMPDEST DUP1 PUSH1 0x1F ADD PUSH1 0x20 DUP1 SWAP2 DIV MUL PUSH1 0x20 ADD PUSH1 0x40 MLOAD SWAP1 DUP2 ADD PUSH1 0x40 MSTORE DUP1 SWAP3 SWAP2 SWAP1 DUP2 DUP2 MSTORE PUSH1 0x20 ADD DUP3 DUP1 SLOAD PUSH2 0xD8F SWAP1 PUSH2 0x29F5 JUMP JUMPDEST DUP1 ISZERO PUSH2 0xDDC JUMPI DUP1 PUSH1 0x1F LT PUSH2 0xDB1 JUMPI PUSH2 0x100 DUP1 DUP4 SLOAD DIV MUL DUP4 MSTORE SWAP2 PUSH1 0x20 ADD SWAP2 PUSH2 0xDDC JUMP JUMPDEST DUP3 ADD SWAP2 SWAP1 PUSH1 0x0 MSTORE PUSH1 0x20 PUSH1 0x0 KECCAK256 SWAP1 JUMPDEST DUP2 SLOAD DUP2 MSTORE SWAP1 PUSH1 0x1 ADD SWAP1 PUSH1 0x20 ADD DUP1 DUP4 GT PUSH2 0xDBF JUMPI DUP3 SWAP1 SUB PUSH1 0x1F AND DUP3 ADD SWAP2 JUMPDEST POP POP POP POP POP SWAP7 POP PUSH1 0x6 PUSH1 0x0 DUP14 DUP2 MSTORE PUSH1 0x20 ADD SWAP1 DUP2 MSTORE PUSH1 0x20 ADD PUSH1 0x0 KECCAK256 PUSH1 0xE ADD PUSH1 0x1 ADD DUP1 SLOAD PUSH2 0xE07 SWAP1 PUSH2 0x29F5 JUMP JUMPDEST DUP1 PUSH1 0x1F ADD PUSH1 0x20 DUP1 SWAP2 DIV MUL PUSH1 0x20 ADD PUSH1 0x40 MLOAD SWAP1 DUP2 ADD PUSH1 0x40 MSTORE DUP1 SWAP3 SWAP2 SWAP1 DUP2 DUP2 MSTORE PUSH1 0x20 ADD DUP3 DUP1 SLOAD PUSH2 0xE33 SWAP1 PUSH2 0x29F5 JUMP JUMPDEST DUP1 ISZERO PUSH2 0xE80 JUMPI DUP1 PUSH1 0x1F LT PUSH2 0xE55 JUMPI PUSH2 0x100 DUP1 DUP4 SLOAD DIV MUL DUP4 MSTORE SWAP2 PUSH1 0x20 ADD SWAP2 PUSH2 0xE80 JUMP JUMPDEST DUP3 ADD SWAP2 SWAP1 PUSH1 0x0 MSTORE PUSH1 0x20 PUSH1 0x0 KECCAK256 SWAP1 JUMPDEST DUP2 SLOAD DUP2 MSTORE SWAP1 PUSH1 0x1 ADD SWAP1 PUSH1 0x20 ADD DUP1 DUP4 GT PUSH2 0xE63 JUMPI DUP3 SWAP1 SUB PUSH1 0x1F AND DUP3 ADD SWAP2 JUMPDEST POP POP POP POP POP SWAP6 POP PUSH1 0x6 PUSH1 0x0 DUP14 DUP2 MSTORE PUSH1 0x20 ADD SWAP1 DUP2 MSTORE PUSH1 0x20 ADD PUSH1 0x0 KECCAK256 PUSH1 0xE ADD PUSH1 0x2 ADD DUP1 SLOAD PUSH2 0xEAB SWAP1 PUSH2 0x29F5 JUMP JUMPDEST DUP1 PUSH1 0x1F ADD PUSH1 0x20 DUP1 SWAP2 DIV MUL PUSH1 0x20 ADD PUSH1 0x40 MLOAD SWAP1 DUP2 ADD PUSH1 0x40 MSTORE DUP1 SWAP3 SWAP2 SWAP1 DUP2 DUP2 MSTORE PUSH1 0x20 ADD DUP3 DUP1 SLOAD PUSH2 0xED7 SWAP1 PUSH2 0x29F5 JUMP JUMPDEST DUP1 ISZERO PUSH2 0xF24 JUMPI DUP1 PUSH1 0x1F LT PUSH2 0xEF9 JUMPI PUSH2 0x100 DUP1 DUP4 SLOAD DIV MUL DUP4 MSTORE SWAP2 PUSH1 0x20 ADD SWAP2 PUSH2 0xF24 JUMP JUMPDEST DUP3 ADD SWAP2 SWAP1 PUSH1 0x0 MSTORE PUSH1 0x20 PUSH1 0x0 KECCAK256 SWAP1 JUMPDEST DUP2 SLOAD DUP2 MSTORE SWAP1 PUSH1 0x1 ADD SWAP1 PUSH1 0x20 ADD DUP1 DUP4 GT PUSH2 0xF07 JUMPI DUP3 SWAP1 SUB PUSH1 0x1F AND DUP3 ADD SWAP2 JUMPDEST POP POP POP POP POP SWAP5 POP PUSH1 0x6 PUSH1 0x0 DUP14 DUP2 MSTORE PUSH1 0x20 ADD SWAP1 DUP2 MSTORE PUSH1 0x20 ADD PUSH1 0x0 KECCAK256 PUSH1 0xE ADD PUSH1 0x3 ADD DUP1 SLOAD PUSH2 0xF4F SWAP1 PUSH2 0x29F5 JUMP JUMPDEST DUP1 PUSH1 0x1F ADD PUSH1 0x20 DUP1 SWAP2 DIV MUL PUSH1 0x20 ADD PUSH1 0x40 MLOAD SWAP1 DUP2 ADD PUSH1 0x40 MSTORE DUP1 SWAP3 SWAP2 SWAP1 DUP2 DUP2 MSTORE PUSH1 0x20 ADD DUP3 DUP1 SLOAD PUSH2 0xF7B SWAP1 PUSH2 0x29F5 JUMP JUMPDEST DUP1 ISZERO PUSH2 0xFC8 JUMPI DUP1 PUSH1 0x1F LT PUSH2 0xF9D JUMPI PUSH2 0x100 DUP1 DUP4 SLOAD DIV MUL DUP4 MSTORE SWAP2 PUSH1 0x20 ADD SWAP2 PUSH2 0xFC8 JUMP JUMPDEST DUP3 ADD SWAP2 SWAP1 PUSH1 0x0 MSTORE PUSH1 0x20 PUSH1 0x0 KECCAK256 SWAP1 JUMPDEST DUP2 SLOAD DUP2 MSTORE SWAP1 PUSH1 0x1 ADD SWAP1 PUSH1 0x20 ADD DUP1 DUP4 GT PUSH2 0xFAB JUMPI DUP3 SWAP1 SUB PUSH1 0x1F AND DUP3 ADD SWAP2 JUMPDEST POP POP POP POP POP SWAP4 POP PUSH1 0x6 PUSH1 0x0 DUP14 DUP2 MSTORE PUSH1 0x20 ADD SWAP1 DUP2 MSTORE PUSH1 0x20 ADD PUSH1 0x0 KECCAK256 PUSH1 0xE ADD PUSH1 0x4 ADD DUP1 SLOAD PUSH2 0xFF3 SWAP1 PUSH2 0x29F5 JUMP JUMPDEST DUP1 PUSH1 0x1F ADD PUSH1 0x20 DUP1 SWAP2 DIV MUL PUSH1 0x20 ADD PUSH1 0x40 MLOAD SWAP1 DUP2 ADD PUSH1 0x40 MSTORE DUP1 SWAP3 SWAP2 SWAP1 DUP2 DUP2 MSTORE PUSH1 0x20 ADD DUP3 DUP1 SLOAD PUSH2 0x101F SWAP1 PUSH2 0x29F5 JUMP JUMPDEST DUP1 ISZERO PUSH2 0x106C JUMPI DUP1 PUSH1 0x1F LT PUSH2 0x1041 JUMPI PUSH2 0x100 DUP1 DUP4 SLOAD DIV MUL DUP4 MSTORE SWAP2 PUSH1 0x20 ADD SWAP2 PUSH2 0x106C JUMP JUMPDEST DUP3 ADD SWAP2 SWAP1 PUSH1 0x0 MSTORE PUSH1 0x20 PUSH1 0x0 KECCAK256 SWAP1 JUMPDEST DUP2 SLOAD DUP2 MSTORE SWAP1 PUSH1 0x1 ADD SWAP1 PUSH1 0x20 ADD DUP1 DUP4 GT PUSH2 0x104F JUMPI DUP3 SWAP1 SUB PUSH1 0x1F AND DUP3 ADD SWAP2 JUMPDEST POP POP POP POP POP SWAP3 POP PUSH1 0x6 PUSH1 0x0 DUP14 DUP2 MSTORE PUSH1 0x20 ADD SWAP1 DUP2 MSTORE PUSH1 0x20 ADD PUSH1 0x0 KECCAK256 PUSH1 0xE ADD PUSH1 0x5 ADD DUP1 SLOAD PUSH2 0x1097 SWAP1 PUSH2 0x29F5 JUMP JUMPDEST DUP1 PUSH1 0x1F ADD PUSH1 0x20 DUP1 SWAP2 DIV MUL PUSH1 0x20 ADD PUSH1 0x40 MLOAD SWAP1 DUP2 ADD PUSH1 0x40 MSTORE DUP1 SWAP3 SWAP2 SWAP1 DUP2 DUP2 MSTORE PUSH1 0x20 ADD DUP3 DUP1 SLOAD PUSH2 0x10C3 SWAP1 PUSH2 0x29F5 JUMP JUMPDEST DUP1 ISZERO PUSH2 0x1110 JUMPI DUP1 PUSH1 0x1F LT PUSH2 0x10E5 JUMPI PUSH2 0x100 DUP1 DUP4 SLOAD DIV MUL DUP4 MSTORE SWAP2 PUSH1 0x20 ADD SWAP2 PUSH2 0x1110 JUMP JUMPDEST DUP3 ADD SWAP2 SWAP1 PUSH1 0x0 MSTORE PUSH1 0x20 PUSH1 0x0 KECCAK256 SWAP1 JUMPDEST DUP2 SLOAD DUP2 MSTORE SWAP1 PUSH1 0x1 ADD SWAP1 PUSH1 0x20 ADD DUP1 DUP4 GT PUSH2 0x10F3 JUMPI DUP3 SWAP1 SUB PUSH1 0x1F AND DUP3 ADD SWAP2 JUMPDEST POP POP POP POP POP SWAP2 POP PUSH1 0x6 PUSH1 0x0 DUP14 DUP2 MSTORE PUSH1 0x20 ADD SWAP1 DUP2 MSTORE PUSH1 0x20 ADD PUSH1 0x0 KECCAK256 PUSH1 0xE ADD PUSH1 0x6 ADD DUP1 SLOAD PUSH2 0x113B SWAP1 PUSH2 0x29F5 JUMP JUMPDEST DUP1 PUSH1 0x1F ADD PUSH1 0x20 DUP1 SWAP2 DIV MUL PUSH1 0x20 ADD PUSH1 0x40 MLOAD SWAP1 DUP2 ADD PUSH1 0x40 MSTORE DUP1 SWAP3 SWAP2 SWAP1 DUP2 DUP2 MSTORE PUSH1 0x20 ADD DUP3 DUP1 SLOAD PUSH2 0x1167 SWAP1 PUSH2 0x29F5 JUMP JUMPDEST DUP1 ISZERO PUSH2 0x11B4 JUMPI DUP1 PUSH1 0x1F LT PUSH2 0x1189 JUMPI PUSH2 0x100 DUP1 DUP4 SLOAD DIV MUL DUP4 MSTORE SWAP2 PUSH1 0x20 ADD SWAP2 PUSH2 0x11B4 JUMP JUMPDEST DUP3 ADD SWAP2 SWAP1 PUSH1 0x0 MSTORE PUSH1 0x20 PUSH1 0x0 KECCAK256 SWAP1 JUMPDEST DUP2 SLOAD DUP2 MSTORE SWAP1 PUSH1 0x1 ADD SWAP1 PUSH1 0x20 ADD DUP1 DUP4 GT PUSH2 0x1197 JUMPI DUP3 SWAP1 SUB PUSH1 0x1F AND DUP3 ADD SWAP2 JUMPDEST POP POP POP POP POP SWAP1 POP SWAP2 SWAP4 SWAP6 SWAP8 SWAP10 SWAP12 SWAP1 SWAP3 SWAP5 SWAP7 SWAP9 SWAP11 POP JUMP JUMPDEST PUSH1 0x0 DUP2 PUSH1 0x4 PUSH1 0x0 CALLER PUSH20 0xFFFFFFFFFFFFFFFFFFFFFFFFFFFFFFFFFFFFFFFF AND PUSH20 0xFFFFFFFFFFFFFFFFFFFFFFFFFFFFFFFFFFFFFFFF AND DUP2 MSTORE PUSH1 0x20 ADD SWAP1 DUP2 MSTORE PUSH1 0x20 ADD PUSH1 0x0 KECCAK256 SLOAD LT ISZERO PUSH2 0x1218 JUMPI PUSH1 0x0 DUP1 REVERT JUMPDEST PUSH1 0x0 PUSH20 0xFFFFFFFFFFFFFFFFFFFFFFFFFFFFFFFFFFFFFFFF AND DUP4 PUSH20 0xFFFFFFFFFFFFFFFFFFFFFFFFFFFFFFFFFFFFFFFF AND EQ ISZERO PUSH2 0x1252 JUMPI PUSH1 0x0 DUP1 REVERT JUMPDEST DUP2 PUSH1 0x4 PUSH1 0x0 CALLER PUSH20 0xFFFFFFFFFFFFFFFFFFFFFFFFFFFFFFFFFFFFFFFF AND PUSH20 0xFFFFFFFFFFFFFFFFFFFFFFFFFFFFFFFFFFFFFFFF AND DUP2 MSTORE PUSH1 0x20 ADD SWAP1 DUP2 MSTORE PUSH1 0x20 ADD PUSH1 0x0 KECCAK256 PUSH1 0x0 DUP3 DUP3 SLOAD PUSH2 0x12A1 SWAP2 SWAP1 PUSH2 0x28DB JUMP JUMPDEST SWAP3 POP POP DUP2 SWAP1 SSTORE POP DUP2 PUSH1 0x4 PUSH1 0x0 DUP6 PUSH20 0xFFFFFFFFFFFFFFFFFFFFFFFFFFFFFFFFFFFFFFFF AND PUSH20 0xFFFFFFFFFFFFFFFFFFFFFFFFFFFFFFFFFFFFFFFF AND DUP2 MSTORE PUSH1 0x20 ADD SWAP1 DUP2 MSTORE PUSH1 0x20 ADD PUSH1 0x0 KECCAK256 PUSH1 0x0 DUP3 DUP3 SLOAD PUSH2 0x12F7 SWAP2 SWAP1 PUSH2 0x2854 JUMP JUMPDEST SWAP3 POP POP DUP2 SWAP1 SSTORE POP PUSH1 0x1 SWAP1 POP SWAP3 SWAP2 POP POP JUMP JUMPDEST PUSH1 0x0 DUP1 PUSH1 0x0 DUP1 PUSH1 0x0 DUP1 PUSH1 0x0 DUP1 PUSH2 0x131C PUSH2 0x1F6E JUMP JUMPDEST PUSH1 0x6 PUSH1 0x0 DUP12 DUP2 MSTORE PUSH1 0x20 ADD SWAP1 DUP2 MSTORE PUSH1 0x20 ADD PUSH1 0x0 KECCAK256 PUSH1 0x0 ADD SLOAD SWAP9 POP PUSH1 0x6 PUSH1 0x0 DUP12 DUP2 MSTORE PUSH1 0x20 ADD SWAP1 DUP2 MSTORE PUSH1 0x20 ADD PUSH1 0x0 KECCAK256 PUSH1 0x2 ADD PUSH1 0x0 SWAP1 SLOAD SWAP1 PUSH2 0x100 EXP SWAP1 DIV PUSH20 0xFFFFFFFFFFFFFFFFFFFFFFFFFFFFFFFFFFFFFFFF AND SWAP8 POP PUSH1 0x6 PUSH1 0x0 DUP12 DUP2 MSTORE PUSH1 0x20 ADD SWAP1 DUP2 MSTORE PUSH1 0x20 ADD PUSH1 0x0 KECCAK256 PUSH1 0x1 ADD PUSH1 0x0 SWAP1 SLOAD SWAP1 PUSH2 0x100 EXP SWAP1 DIV PUSH20 0xFFFFFFFFFFFFFFFFFFFFFFFFFFFFFFFFFFFFFFFF AND SWAP7 POP PUSH1 0x6 PUSH1 0x0 DUP12 DUP2 MSTORE PUSH1 0x20 ADD SWAP1 DUP2 MSTORE PUSH1 0x20 ADD PUSH1 0x0 KECCAK256 PUSH1 0xB ADD PUSH1 0x0 SWAP1 SLOAD SWAP1 PUSH2 0x100 EXP SWAP1 DIV PUSH20 0xFFFFFFFFFFFFFFFFFFFFFFFFFFFFFFFFFFFFFFFF AND SWAP4 POP PUSH1 0x6 PUSH1 0x0 DUP12 DUP2 MSTORE PUSH1 0x20 ADD SWAP1 DUP2 MSTORE PUSH1 0x20 ADD PUSH1 0x0 KECCAK256 PUSH1 0xC ADD PUSH1 0x0 SWAP1 SLOAD SWAP1 PUSH2 0x100 EXP SWAP1 DIV PUSH20 0xFFFFFFFFFFFFFFFFFFFFFFFFFFFFFFFFFFFFFFFF AND SWAP3 POP PUSH1 0x6 PUSH1 0x0 DUP12 DUP2 MSTORE PUSH1 0x20 ADD SWAP1 DUP2 MSTORE PUSH1 0x20 ADD PUSH1 0x0 KECCAK256 PUSH1 0xD ADD PUSH1 0x0 SWAP1 SLOAD SWAP1 PUSH2 0x100 EXP SWAP1 DIV PUSH20 0xFFFFFFFFFFFFFFFFFFFFFFFFFFFFFFFFFFFFFFFF AND SWAP2 POP PUSH1 0x6 PUSH1 0x0 DUP12 DUP2 MSTORE PUSH1 0x20 ADD SWAP1 DUP2 MSTORE PUSH1 0x20 ADD PUSH1 0x0 KECCAK256 PUSH1 0x9 ADD PUSH1 0x0 SWAP1 SLOAD SWAP1 PUSH2 0x100 EXP SWAP1 DIV PUSH1 0xFF AND SWAP6 POP PUSH1 0x6 PUSH1 0x0 DUP12 DUP2 MSTORE PUSH1 0x20 ADD SWAP1 DUP2 MSTORE PUSH1 0x20 ADD PUSH1 0x0 KECCAK256 PUSH1 0xA ADD SLOAD SWAP5 POP PUSH1 0x6 PUSH1 0x0 DUP12 DUP2 MSTORE PUSH1 0x20 ADD SWAP1 DUP2 MSTORE PUSH1 0x20 ADD PUSH1 0x0 KECCAK256 PUSH1 0xE ADD PUSH1 0x40 MLOAD DUP1 PUSH1 0xE0 ADD PUSH1 0x40 MSTORE SWAP1 DUP2 PUSH1 0x0 DUP3 ADD DUP1 SLOAD PUSH2 0x14C2 SWAP1 PUSH2 0x29F5 JUMP JUMPDEST DUP1 PUSH1 0x1F ADD PUSH1 0x20 DUP1 SWAP2 DIV MUL PUSH1 0x20 ADD PUSH1 0x40 MLOAD SWAP1 DUP2 ADD PUSH1 0x40 MSTORE DUP1 SWAP3 SWAP2 SWAP1 DUP2 DUP2 MSTORE PUSH1 0x20 ADD DUP3 DUP1 SLOAD PUSH2 0x14EE SWAP1 PUSH2 0x29F5 JUMP JUMPDEST DUP1 ISZERO PUSH2 0x153B JUMPI DUP1 PUSH1 0x1F LT PUSH2 0x1510 JUMPI PUSH2 0x100 DUP1 DUP4 SLOAD DIV MUL DUP4 MSTORE SWAP2 PUSH1 0x20 ADD SWAP2 PUSH2 0x153B JUMP JUMPDEST DUP3 ADD SWAP2 SWAP1 PUSH1 0x0 MSTORE PUSH1 0x20 PUSH1 0x0 KECCAK256 SWAP1 JUMPDEST DUP2 SLOAD DUP2 MSTORE SWAP1 PUSH1 0x1 ADD SWAP1 PUSH1 0x20 ADD DUP1 DUP4 GT PUSH2 0x151E JUMPI DUP3 SWAP1 SUB PUSH1 0x1F AND DUP3 ADD SWAP2 JUMPDEST POP POP POP POP POP DUP2 MSTORE PUSH1 0x20 ADD PUSH1 0x1 DUP3 ADD DUP1 SLOAD PUSH2 0x1554 SWAP1 PUSH2 0x29F5 JUMP JUMPDEST DUP1 PUSH1 0x1F ADD PUSH1 0x20 DUP1 SWAP2 DIV MUL PUSH1 0x20 ADD PUSH1 0x40 MLOAD SWAP1 DUP2 ADD PUSH1 0x40 MSTORE DUP1 SWAP3 SWAP2 SWAP1 DUP2 DUP2 MSTORE PUSH1 0x20 ADD DUP3 DUP1 SLOAD PUSH2 0x1580 SWAP1 PUSH2 0x29F5 JUMP JUMPDEST DUP1 ISZERO PUSH2 0x15CD JUMPI DUP1 PUSH1 0x1F LT PUSH2 0x15A2 JUMPI PUSH2 0x100 DUP1 DUP4 SLOAD DIV MUL DUP4 MSTORE SWAP2 PUSH1 0x20 ADD SWAP2 PUSH2 0x15CD JUMP JUMPDEST DUP3 ADD SWAP2 SWAP1 PUSH1 0x0 MSTORE PUSH1 0x20 PUSH1 0x0 KECCAK256 SWAP1 JUMPDEST DUP2 SLOAD DUP2 MSTORE SWAP1 PUSH1 0x1 ADD SWAP1 PUSH1 0x20 ADD DUP1 DUP4 GT PUSH2 0x15B0 JUMPI DUP3 SWAP1 SUB PUSH1 0x1F AND DUP3 ADD SWAP2 JUMPDEST POP POP POP POP POP DUP2 MSTORE PUSH1 0x20 ADD PUSH1 0x2 DUP3 ADD DUP1 SLOAD PUSH2 0x15E6 SWAP1 PUSH2 0x29F5 JUMP JUMPDEST DUP1 PUSH1 0x1F ADD PUSH1 0x20 DUP1 SWAP2 DIV MUL PUSH1 0x20 ADD PUSH1 0x40 MLOAD SWAP1 DUP2 ADD PUSH1 0x40 MSTORE DUP1 SWAP3 SWAP2 SWAP1 DUP2 DUP2 MSTORE PUSH1 0x20 ADD DUP3 DUP1 SLOAD PUSH2 0x1612 SWAP1 PUSH2 0x29F5 JUMP JUMPDEST DUP1 ISZERO PUSH2 0x165F JUMPI DUP1 PUSH1 0x1F LT PUSH2 0x1634 JUMPI PUSH2 0x100 DUP1 DUP4 SLOAD DIV MUL DUP4 MSTORE SWAP2 PUSH1 0x20 ADD SWAP2 PUSH2 0x165F JUMP JUMPDEST DUP3 ADD SWAP2 SWAP1 PUSH1 0x0 MSTORE PUSH1 0x20 PUSH1 0x0 KECCAK256 SWAP1 JUMPDEST DUP2 SLOAD DUP2 MSTORE SWAP1 PUSH1 0x1 ADD SWAP1 PUSH1 0x20 ADD DUP1 DUP4 GT PUSH2 0x1642 JUMPI DUP3 SWAP1 SUB PUSH1 0x1F AND DUP3 ADD SWAP2 JUMPDEST POP POP POP POP POP DUP2 MSTORE PUSH1 0x20 ADD PUSH1 0x3 DUP3 ADD DUP1 SLOAD PUSH2 0x1678 SWAP1 PUSH2 0x29F5 JUMP JUMPDEST DUP1 PUSH1 0x1F ADD PUSH1 0x20 DUP1 SWAP2 DIV MUL PUSH1 0x20 ADD PUSH1 0x40 MLOAD SWAP1 DUP2 ADD PUSH1 0x40 MSTORE DUP1 SWAP3 SWAP2 SWAP1 DUP2 DUP2 MSTORE PUSH1 0x20 ADD DUP3 DUP1 SLOAD PUSH2 0x16A4 SWAP1 PUSH2 0x29F5 JUMP JUMPDEST DUP1 ISZERO PUSH2 0x16F1 JUMPI DUP1 PUSH1 0x1F LT PUSH2 0x16C6 JUMPI PUSH2 0x100 DUP1 DUP4 SLOAD DIV MUL DUP4 MSTORE SWAP2 PUSH1 0x20 ADD SWAP2 PUSH2 0x16F1 JUMP JUMPDEST DUP3 ADD SWAP2 SWAP1 PUSH1 0x0 MSTORE PUSH1 0x20 PUSH1 0x0 KECCAK256 SWAP1 JUMPDEST DUP2 SLOAD DUP2 MSTORE SWAP1 PUSH1 0x1 ADD SWAP1 PUSH1 0x20 ADD DUP1 DUP4 GT PUSH2 0x16D4 JUMPI DUP3 SWAP1 SUB PUSH1 0x1F AND DUP3 ADD SWAP2 JUMPDEST POP POP POP POP POP DUP2 MSTORE PUSH1 0x20 ADD PUSH1 0x4 DUP3 ADD DUP1 SLOAD PUSH2 0x170A SWAP1 PUSH2 0x29F5 JUMP JUMPDEST DUP1 PUSH1 0x1F ADD PUSH1 0x20 DUP1 SWAP2 DIV MUL PUSH1 0x20 ADD PUSH1 0x40 MLOAD SWAP1 DUP2 ADD PUSH1 0x40 MSTORE DUP1 SWAP3 SWAP2 SWAP1 DUP2 DUP2 MSTORE PUSH1 0x20 ADD DUP3 DUP1 SLOAD PUSH2 0x1736 SWAP1 PUSH2 0x29F5 JUMP JUMPDEST DUP1 ISZERO PUSH2 0x1783 JUMPI DUP1 PUSH1 0x1F LT PUSH2 0x1758 JUMPI PUSH2 0x100 DUP1 DUP4 SLOAD DIV MUL DUP4 MSTORE SWAP2 PUSH1 0x20 ADD SWAP2 PUSH2 0x1783 JUMP JUMPDEST DUP3 ADD SWAP2 SWAP1 PUSH1 0x0 MSTORE PUSH1 0x20 PUSH1 0x0 KECCAK256 SWAP1 JUMPDEST DUP2 SLOAD DUP2 MSTORE SWAP1 PUSH1 0x1 ADD SWAP1 PUSH1 0x20 ADD DUP1 DUP4 GT PUSH2 0x1766 JUMPI DUP3 SWAP1 SUB PUSH1 0x1F AND DUP3 ADD SWAP2 JUMPDEST POP POP POP POP POP DUP2 MSTORE PUSH1 0x20 ADD PUSH1 0x5 DUP3 ADD DUP1 SLOAD PUSH2 0x179C SWAP1 PUSH2 0x29F5 JUMP JUMPDEST DUP1 PUSH1 0x1F ADD PUSH1 0x20 DUP1 SWAP2 DIV MUL PUSH1 0x20 ADD PUSH1 0x40 MLOAD SWAP1 DUP2 ADD PUSH1 0x40 MSTORE DUP1 SWAP3 SWAP2 SWAP1 DUP2 DUP2 MSTORE PUSH1 0x20 ADD DUP3 DUP1 SLOAD PUSH2 0x17C8 SWAP1 PUSH2 0x29F5 JUMP JUMPDEST DUP1 ISZERO PUSH2 0x1815 JUMPI DUP1 PUSH1 0x1F LT PUSH2 0x17EA JUMPI PUSH2 0x100 DUP1 DUP4 SLOAD DIV MUL DUP4 MSTORE SWAP2 PUSH1 0x20 ADD SWAP2 PUSH2 0x1815 JUMP JUMPDEST DUP3 ADD SWAP2 SWAP1 PUSH1 0x0 MSTORE PUSH1 0x20 PUSH1 0x0 KECCAK256 SWAP1 JUMPDEST DUP2 SLOAD DUP2 MSTORE SWAP1 PUSH1 0x1 ADD SWAP1 PUSH1 0x20 ADD DUP1 DUP4 GT PUSH2 0x17F8 JUMPI DUP3 SWAP1 SUB PUSH1 0x1F AND DUP3 ADD SWAP2 JUMPDEST POP POP POP POP POP DUP2 MSTORE PUSH1 0x20 ADD PUSH1 0x6 DUP3 ADD DUP1 SLOAD PUSH2 0x182E SWAP1 PUSH2 0x29F5 JUMP JUMPDEST DUP1 PUSH1 0x1F ADD PUSH1 0x20 DUP1 SWAP2 DIV MUL PUSH1 0x20 ADD PUSH1 0x40 MLOAD SWAP1 DUP2 ADD PUSH1 0x40 MSTORE DUP1 SWAP3 SWAP2 SWAP1 DUP2 DUP2 MSTORE PUSH1 0x20 ADD DUP3 DUP1 SLOAD PUSH2 0x185A SWAP1 PUSH2 0x29F5 JUMP JUMPDEST DUP1 ISZERO PUSH2 0x18A7 JUMPI DUP1 PUSH1 0x1F LT PUSH2 0x187C JUMPI PUSH2 0x100 DUP1 DUP4 SLOAD DIV MUL DUP4 MSTORE SWAP2 PUSH1 0x20 ADD SWAP2 PUSH2 0x18A7 JUMP JUMPDEST DUP3 ADD SWAP2 SWAP1 PUSH1 0x0 MSTORE PUSH1 0x20 PUSH1 0x0 KECCAK256 SWAP1 JUMPDEST DUP2 SLOAD DUP2 MSTORE SWAP1 PUSH1 0x1 ADD SWAP1 PUSH1 0x20 ADD DUP1 DUP4 GT PUSH2 0x188A JUMPI DUP3 SWAP1 SUB PUSH1 0x1F AND DUP3 ADD SWAP2 JUMPDEST POP POP POP POP POP DUP2 MSTORE POP POP SWAP1 POP SWAP2 SWAP4 SWAP6 SWAP8 SWAP10 SWAP1 SWAP3 SWAP5 SWAP7 SWAP9 POP JUMP JUMPDEST PUSH1 0x1 DUP1 SLOAD PUSH2 0x18CC SWAP1 PUSH2 0x29F5 JUMP JUMPDEST DUP1 PUSH1 0x1F ADD PUSH1 0x20 DUP1 SWAP2 DIV MUL PUSH1 0x20 ADD PUSH1 0x40 MLOAD SWAP1 DUP2 ADD PUSH1 0x40 MSTORE DUP1 SWAP3 SWAP2 SWAP1 DUP2 DUP2 MSTORE PUSH1 0x20 ADD DUP3 DUP1 SLOAD PUSH2 0x18F8 SWAP1 PUSH2 0x29F5 JUMP JUMPDEST DUP1 ISZERO PUSH2 0x1945 JUMPI DUP1 PUSH1 0x1F LT PUSH2 0x191A JUMPI PUSH2 0x100 DUP1 DUP4 SLOAD DIV MUL DUP4 MSTORE SWAP2 PUSH1 0x20 ADD SWAP2 PUSH2 0x1945 JUMP JUMPDEST DUP3 ADD SWAP2 SWAP1 PUSH1 0x0 MSTORE PUSH1 0x20 PUSH1 0x0 KECCAK256 SWAP1 JUMPDEST DUP2 SLOAD DUP2 MSTORE SWAP1 PUSH1 0x1 ADD SWAP1 PUSH1 0x20 ADD DUP1 DUP4 GT PUSH2 0x1928 JUMPI DUP3 SWAP1 SUB PUSH1 0x1F AND DUP3 ADD SWAP2 JUMPDEST POP POP POP POP POP DUP2 JUMP JUMPDEST PUSH1 0x2 PUSH1 0x0 SWAP1 SLOAD SWAP1 PUSH2 0x100 EXP SWAP1 DIV PUSH20 0xFFFFFFFFFFFFFFFFFFFFFFFFFFFFFFFFFFFFFFFF AND PUSH20 0xFFFFFFFFFFFFFFFFFFFFFFFFFFFFFFFFFFFFFFFF AND CALLER PUSH20 0xFFFFFFFFFFFFFFFFFFFFFFFFFFFFFFFFFFFFFFFF AND EQ PUSH2 0x19DD JUMPI PUSH1 0x40 MLOAD PUSH32 0x8C379A000000000000000000000000000000000000000000000000000000000 DUP2 MSTORE PUSH1 0x4 ADD PUSH2 0x19D4 SWAP1 PUSH2 0x2626 JUMP JUMPDEST PUSH1 0x40 MLOAD DUP1 SWAP2 SUB SWAP1 REVERT JUMPDEST PUSH1 0x0 PUSH20 0xFFFFFFFFFFFFFFFFFFFFFFFFFFFFFFFFFFFFFFFF AND DUP3 PUSH20 0xFFFFFFFFFFFFFFFFFFFFFFFFFFFFFFFFFFFFFFFF AND EQ ISZERO PUSH2 0x1A17 JUMPI PUSH1 0x0 DUP1 REVERT JUMPDEST PUSH1 0x4 PUSH1 0x0 DUP4 PUSH20 0xFFFFFFFFFFFFFFFFFFFFFFFFFFFFFFFFFFFFFFFF AND PUSH20 0xFFFFFFFFFFFFFFFFFFFFFFFFFFFFFFFFFFFFFFFF AND DUP2 MSTORE PUSH1 0x20 ADD SWAP1 DUP2 MSTORE PUSH1 0x20 ADD PUSH1 0x0 KECCAK256 SLOAD DUP2 GT ISZERO PUSH2 0x1A63 JUMPI PUSH1 0x0 DUP1 REVERT JUMPDEST DUP1 PUSH1 0x3 PUSH1 0x0 DUP3 DUP3 SLOAD PUSH2 0x1A75 SWAP2 SWAP1 PUSH2 0x28DB JUMP JUMPDEST SWAP3 POP POP DUP2 SWAP1 SSTORE POP DUP1 PUSH1 0x4 PUSH1 0x0 DUP5 PUSH20 0xFFFFFFFFFFFFFFFFFFFFFFFFFFFFFFFFFFFFFFFF AND PUSH20 0xFFFFFFFFFFFFFFFFFFFFFFFFFFFFFFFFFFFFFFFF AND DUP2 MSTORE PUSH1 0x20 ADD SWAP1 DUP2 MSTORE PUSH1 0x20 ADD PUSH1 0x0 KECCAK256 PUSH1 0x0 DUP3 DUP3 SLOAD PUSH2 0x1ACB SWAP2 SWAP1 PUSH2 0x28DB JUMP JUMPDEST SWAP3 POP POP DUP2 SWAP1 SSTORE POP POP POP JUMP JUMPDEST PUSH1 0x2 PUSH1 0x0 SWAP1 SLOAD SWAP1 PUSH2 0x100 EXP SWAP1 DIV PUSH20 0xFFFFFFFFFFFFFFFFFFFFFFFFFFFFFFFFFFFFFFFF AND PUSH20 0xFFFFFFFFFFFFFFFFFFFFFFFFFFFFFFFFFFFFFFFF AND CALLER PUSH20 0xFFFFFFFFFFFFFFFFFFFFFFFFFFFFFFFFFFFFFFFF AND EQ PUSH2 0x1B66 JUMPI PUSH1 0x40 MLOAD PUSH32 0x8C379A000000000000000000000000000000000000000000000000000000000 DUP2 MSTORE PUSH1 0x4 ADD PUSH2 0x1B5D SWAP1 PUSH2 0x2626 JUMP JUMPDEST PUSH1 0x40 MLOAD DUP1 SWAP2 SUB SWAP1 REVERT JUMPDEST DUP1 PUSH1 0x3 PUSH1 0x0 DUP3 DUP3 SLOAD PUSH2 0x1B78 SWAP2 SWAP1 PUSH2 0x2854 JUMP JUMPDEST SWAP3 POP POP DUP2 SWAP1 SSTORE POP DUP1 PUSH1 0x4 PUSH1 0x0 CALLER PUSH20 0xFFFFFFFFFFFFFFFFFFFFFFFFFFFFFFFFFFFFFFFF AND PUSH20 0xFFFFFFFFFFFFFFFFFFFFFFFFFFFFFFFFFFFFFFFF AND DUP2 MSTORE PUSH1 0x20 ADD SWAP1 DUP2 MSTORE PUSH1 0x20 ADD PUSH1 0x0 KECCAK256 PUSH1 0x0 DUP3 DUP3 SLOAD PUSH2 0x1BCE SWAP2 SWAP1 PUSH2 0x2854 JUMP JUMPDEST SWAP3 POP POP DUP2 SWAP1 SSTORE POP POP JUMP JUMPDEST PUSH1 0x2 PUSH1 0x0 SWAP1 SLOAD SWAP1 PUSH2 0x100 EXP SWAP1 DIV PUSH20 0xFFFFFFFFFFFFFFFFFFFFFFFFFFFFFFFFFFFFFFFF AND DUP2 JUMP JUMPDEST PUSH1 0x0 PUSH1 0x64 CALLVALUE PUSH2 0x1C0D SWAP2 SWAP1 PUSH2 0x28AA JUMP JUMPDEST SWAP1 POP PUSH1 0x0 CALLVALUE GT PUSH2 0x1C1C JUMPI PUSH1 0x0 DUP1 REVERT JUMPDEST PUSH1 0x2 PUSH1 0x0 SWAP1 SLOAD SWAP1 PUSH2 0x100 EXP SWAP1 DIV PUSH20 0xFFFFFFFFFFFFFFFFFFFFFFFFFFFFFFFFFFFFFFFF AND PUSH20 0xFFFFFFFFFFFFFFFFFFFFFFFFFFFFFFFFFFFFFFFF AND PUSH2 0x8FC CALLVALUE SWAP1 DUP2 ISZERO MUL SWAP1 PUSH1 0x40 MLOAD PUSH1 0x0 PUSH1 0x40 MLOAD DUP1 DUP4 SUB DUP2 DUP6 DUP9 DUP9 CALL SWAP4 POP POP POP POP ISZERO DUP1 ISZERO PUSH2 0x1C84 JUMPI RETURNDATASIZE PUSH1 0x0 DUP1 RETURNDATACOPY RETURNDATASIZE PUSH1 0x0 REVERT JUMPDEST POP DUP1 PUSH1 0x4 PUSH1 0x0 PUSH1 0x2 PUSH1 0x0 SWAP1 SLOAD SWAP1 PUSH2 0x100 EXP SWAP1 DIV PUSH20 0xFFFFFFFFFFFFFFFFFFFFFFFFFFFFFFFFFFFFFFFF AND PUSH20 0xFFFFFFFFFFFFFFFFFFFFFFFFFFFFFFFFFFFFFFFF AND PUSH20 0xFFFFFFFFFFFFFFFFFFFFFFFFFFFFFFFFFFFFFFFF AND DUP2 MSTORE PUSH1 0x20 ADD SWAP1 DUP2 MSTORE PUSH1 0x20 ADD PUSH1 0x0 KECCAK256 PUSH1 0x0 DUP3 DUP3 SLOAD PUSH2 0x1CF6 SWAP2 SWAP1 PUSH2 0x28DB JUMP JUMPDEST SWAP3 POP POP DUP2 SWAP1 SSTORE POP DUP1 PUSH1 0x4 PUSH1 0x0 CALLER PUSH20 0xFFFFFFFFFFFFFFFFFFFFFFFFFFFFFFFFFFFFFFFF AND PUSH20 0xFFFFFFFFFFFFFFFFFFFFFFFFFFFFFFFFFFFFFFFF AND DUP2 MSTORE PUSH1 0x20 ADD SWAP1 DUP2 MSTORE PUSH1 0x20 ADD PUSH1 0x0 KECCAK256 PUSH1 0x0 DUP3 DUP3 SLOAD PUSH2 0x1D4C SWAP2 SWAP1 PUSH2 0x2854 JUMP JUMPDEST SWAP3 POP POP DUP2 SWAP1 SSTORE POP POP JUMP JUMPDEST PUSH1 0x0 PUSH1 0x60 PUSH1 0x5 PUSH1 0x0 DUP5 PUSH20 0xFFFFFFFFFFFFFFFFFFFFFFFFFFFFFFFFFFFFFFFF AND PUSH20 0xFFFFFFFFFFFFFFFFFFFFFFFFFFFFFFFFFFFFFFFF AND DUP2 MSTORE PUSH1 0x20 ADD SWAP1 DUP2 MSTORE PUSH1 0x20 ADD PUSH1 0x0 KECCAK256 PUSH1 0x0 ADD PUSH1 0x0 SWAP1 SLOAD SWAP1 PUSH2 0x100 EXP SWAP1 DIV PUSH1 0xFF AND SWAP2 POP PUSH1 0x5 PUSH1 0x0 DUP5 PUSH20 0xFFFFFFFFFFFFFFFFFFFFFFFFFFFFFFFFFFFFFFFF AND PUSH20 0xFFFFFFFFFFFFFFFFFFFFFFFFFFFFFFFFFFFFFFFF AND DUP2 MSTORE PUSH1 0x20 ADD SWAP1 DUP2 MSTORE PUSH1 0x20 ADD PUSH1 0x0 KECCAK256 PUSH1 0x1 ADD DUP1 SLOAD PUSH2 0x1DF9 SWAP1 PUSH2 0x29F5 JUMP JUMPDEST DUP1 PUSH1 0x1F ADD PUSH1 0x20 DUP1 SWAP2 DIV MUL PUSH1 0x20 ADD PUSH1 0x40 MLOAD SWAP1 DUP2 ADD PUSH1 0x40 MSTORE DUP1 SWAP3 SWAP2 SWAP1 DUP2 DUP2 MSTORE PUSH1 0x20 ADD DUP3 DUP1 SLOAD PUSH2 0x1E25 SWAP1 PUSH2 0x29F5 JUMP JUMPDEST DUP1 ISZERO PUSH2 0x1E72 JUMPI DUP1 PUSH1 0x1F LT PUSH2 0x1E47 JUMPI PUSH2 0x100 DUP1 DUP4 SLOAD DIV MUL DUP4 MSTORE SWAP2 PUSH1 0x20 ADD SWAP2 PUSH2 0x1E72 JUMP JUMPDEST DUP3 ADD SWAP2 SWAP1 PUSH1 0x0 MSTORE PUSH1 0x20 PUSH1 0x0 KECCAK256 SWAP1 JUMPDEST DUP2 SLOAD DUP2 MSTORE SWAP1 PUSH1 0x1 ADD SWAP1 PUSH1 0x20 ADD DUP1 DUP4 GT PUSH2 0x1E55 JUMPI DUP3 SWAP1 SUB PUSH1 0x1F AND DUP3 ADD SWAP2 JUMPDEST POP POP POP POP POP SWAP1 POP SWAP2 POP SWAP2 JUMP JUMPDEST PUSH1 0x0 DUP2 PUSH20 0xFFFFFFFFFFFFFFFFFFFFFFFFFFFFFFFFFFFFFFFF AND BALANCE SWAP1 POP SWAP2 SWAP1 POP JUMP JUMPDEST PUSH1 0x0 PUSH1 0x4 PUSH1 0x0 DUP4 PUSH20 0xFFFFFFFFFFFFFFFFFFFFFFFFFFFFFFFFFFFFFFFF AND PUSH20 0xFFFFFFFFFFFFFFFFFFFFFFFFFFFFFFFFFFFFFFFF AND DUP2 MSTORE PUSH1 0x20 ADD SWAP1 DUP2 MSTORE PUSH1 0x20 ADD PUSH1 0x0 KECCAK256 SLOAD SWAP1 POP SWAP2 SWAP1 POP JUMP JUMPDEST DUP3 DUP1 SLOAD PUSH2 0x1EF4 SWAP1 PUSH2 0x29F5 JUMP JUMPDEST SWAP1 PUSH1 0x0 MSTORE PUSH1 0x20 PUSH1 0x0 KECCAK256 SWAP1 PUSH1 0x1F ADD PUSH1 0x20 SWAP1 DIV DUP2 ADD SWAP3 DUP3 PUSH2 0x1F16 JUMPI PUSH1 0x0 DUP6 SSTORE PUSH2 0x1F5D JUMP JUMPDEST DUP3 PUSH1 0x1F LT PUSH2 0x1F2F JUMPI DUP1 MLOAD PUSH1 0xFF NOT AND DUP4 DUP1 ADD OR DUP6 SSTORE PUSH2 0x1F5D JUMP JUMPDEST DUP3 DUP1 ADD PUSH1 0x1 ADD DUP6 SSTORE DUP3 ISZERO PUSH2 0x1F5D JUMPI SWAP2 DUP3 ADD JUMPDEST DUP3 DUP2 GT ISZERO PUSH2 0x1F5C JUMPI DUP3 MLOAD DUP3 SSTORE SWAP2 PUSH1 0x20 ADD SWAP2 SWAP1 PUSH1 0x1 ADD SWAP1 PUSH2 0x1F41 JUMP JUMPDEST JUMPDEST POP SWAP1 POP PUSH2 0x1F6A SWAP2 SWAP1 PUSH2 0x1FAB JUMP JUMPDEST POP SWAP1 JUMP JUMPDEST PUSH1 0x40 MLOAD DUP1 PUSH1 0xE0 ADD PUSH1 0x40 MSTORE DUP1 PUSH1 0x60 DUP2 MSTORE PUSH1 0x20 ADD PUSH1 0x60 DUP2 MSTORE PUSH1 0x20 ADD PUSH1 0x60 DUP2 MSTORE PUSH1 0x20 ADD PUSH1 0x60 DUP2 MSTORE PUSH1 0x20 ADD PUSH1 0x60 DUP2 MSTORE PUSH1 0x20 ADD PUSH1 0x60 DUP2 MSTORE PUSH1 0x20 ADD PUSH1 0x60 DUP2 MSTORE POP SWAP1 JUMP JUMPDEST JUMPDEST DUP1 DUP3 GT ISZERO PUSH2 0x1FC4 JUMPI PUSH1 0x0 DUP2 PUSH1 0x0 SWAP1 SSTORE POP PUSH1 0x1 ADD PUSH2 0x1FAC JUMP JUMPDEST POP SWAP1 JUMP JUMPDEST PUSH1 0x0 PUSH2 0x1FDB PUSH2 0x1FD6 DUP5 PUSH2 0x27F6 JUMP JUMPDEST PUSH2 0x27D1 JUMP JUMPDEST SWAP1 POP DUP3 DUP2 MSTORE PUSH1 0x20 DUP2 ADD DUP5 DUP5 DUP5 ADD GT ISZERO PUSH2 0x1FF7 JUMPI PUSH2 0x1FF6 PUSH2 0x2B77 JUMP JUMPDEST JUMPDEST PUSH2 0x2002 DUP5 DUP3 DUP6 PUSH2 0x29B3 JUMP JUMPDEST POP SWAP4 SWAP3 POP POP POP JUMP JUMPDEST PUSH1 0x0 DUP2 CALLDATALOAD SWAP1 POP PUSH2 0x2019 DUP2 PUSH2 0x2C3A JUMP JUMPDEST SWAP3 SWAP2 POP POP JUMP JUMPDEST PUSH1 0x0 DUP2 CALLDATALOAD SWAP1 POP PUSH2 0x202E DUP2 PUSH2 0x2C51 JUMP JUMPDEST SWAP3 SWAP2 POP POP JUMP JUMPDEST PUSH1 0x0 DUP3 PUSH1 0x1F DUP4 ADD SLT PUSH2 0x2049 JUMPI PUSH2 0x2048 PUSH2 0x2B72 JUMP JUMPDEST JUMPDEST DUP2 CALLDATALOAD PUSH2 0x2059 DUP5 DUP3 PUSH1 0x20 DUP7 ADD PUSH2 0x1FC8 JUMP JUMPDEST SWAP2 POP POP SWAP3 SWAP2 POP POP JUMP JUMPDEST PUSH1 0x0 DUP2 CALLDATALOAD SWAP1 POP PUSH2 0x2071 DUP2 PUSH2 0x2C61 JUMP JUMPDEST SWAP3 SWAP2 POP POP JUMP JUMPDEST PUSH1 0x0 PUSH1 0x20 DUP3 DUP5 SUB SLT ISZERO PUSH2 0x208D JUMPI PUSH2 0x208C PUSH2 0x2B81 JUMP JUMPDEST JUMPDEST PUSH1 0x0 PUSH2 0x209B DUP5 DUP3 DUP6 ADD PUSH2 0x200A JUMP JUMPDEST SWAP2 POP POP SWAP3 SWAP2 POP POP JUMP JUMPDEST PUSH1 0x0 DUP1 PUSH1 0x0 PUSH1 0x60 DUP5 DUP7 SUB SLT ISZERO PUSH2 0x20BD JUMPI PUSH2 0x20BC PUSH2 0x2B81 JUMP JUMPDEST JUMPDEST PUSH1 0x0 PUSH2 0x20CB DUP7 DUP3 DUP8 ADD PUSH2 0x200A JUMP JUMPDEST SWAP4 POP POP PUSH1 0x20 PUSH2 0x20DC DUP7 DUP3 DUP8 ADD PUSH2 0x201F JUMP JUMPDEST SWAP3 POP POP PUSH1 0x40 DUP5 ADD CALLDATALOAD PUSH8 0xFFFFFFFFFFFFFFFF DUP2 GT ISZERO PUSH2 0x20FD JUMPI PUSH2 0x20FC PUSH2 0x2B7C JUMP JUMPDEST JUMPDEST PUSH2 0x2109 DUP7 DUP3 DUP8 ADD PUSH2 0x2034 JUMP JUMPDEST SWAP2 POP POP SWAP3 POP SWAP3 POP SWAP3 JUMP JUMPDEST PUSH1 0x0 DUP1 PUSH1 0x40 DUP4 DUP6 SUB SLT ISZERO PUSH2 0x212A JUMPI PUSH2 0x2129 PUSH2 0x2B81 JUMP JUMPDEST JUMPDEST PUSH1 0x0 PUSH2 0x2138 DUP6 DUP3 DUP7 ADD PUSH2 0x200A JUMP JUMPDEST SWAP3 POP POP PUSH1 0x20 PUSH2 0x2149 DUP6 DUP3 DUP7 ADD PUSH2 0x2062 JUMP JUMPDEST SWAP2 POP POP SWAP3 POP SWAP3 SWAP1 POP JUMP JUMPDEST PUSH1 0x0 PUSH1 0x20 DUP3 DUP5 SUB SLT ISZERO PUSH2 0x2169 JUMPI PUSH2 0x2168 PUSH2 0x2B81 JUMP JUMPDEST JUMPDEST PUSH1 0x0 PUSH2 0x2177 DUP5 DUP3 DUP6 ADD PUSH2 0x2062 JUMP JUMPDEST SWAP2 POP POP SWAP3 SWAP2 POP POP JUMP JUMPDEST PUSH1 0x0 DUP1 PUSH1 0x40 DUP4 DUP6 SUB SLT ISZERO PUSH2 0x2197 JUMPI PUSH2 0x2196 PUSH2 0x2B81 JUMP JUMPDEST JUMPDEST PUSH1 0x0 PUSH2 0x21A5 DUP6 DUP3 DUP7 ADD PUSH2 0x2062 JUMP JUMPDEST SWAP3 POP POP PUSH1 0x20 PUSH2 0x21B6 DUP6 DUP3 DUP7 ADD PUSH2 0x2062 JUMP JUMPDEST SWAP2 POP POP SWAP3 POP SWAP3 SWAP1 POP JUMP JUMPDEST PUSH1 0x0 DUP1 PUSH1 0x0 DUP1 PUSH1 0x0 DUP1 PUSH1 0x0 DUP1 PUSH1 0x0 DUP1 PUSH2 0x140 DUP12 DUP14 SUB SLT ISZERO PUSH2 0x21E4 JUMPI PUSH2 0x21E3 PUSH2 0x2B81 JUMP JUMPDEST JUMPDEST PUSH1 0x0 PUSH2 0x21F2 DUP14 DUP3 DUP15 ADD PUSH2 0x2062 JUMP JUMPDEST SWAP11 POP POP PUSH1 0x20 PUSH2 0x2203 DUP14 DUP3 DUP15 ADD PUSH2 0x2062 JUMP JUMPDEST SWAP10 POP POP PUSH1 0x40 PUSH2 0x2214 DUP14 DUP3 DUP15 ADD PUSH2 0x2062 JUMP JUMPDEST SWAP9 POP POP PUSH1 0x60 DUP12 ADD CALLDATALOAD PUSH8 0xFFFFFFFFFFFFFFFF DUP2 GT ISZERO PUSH2 0x2235 JUMPI PUSH2 0x2234 PUSH2 0x2B7C JUMP JUMPDEST JUMPDEST PUSH2 0x2241 DUP14 DUP3 DUP15 ADD PUSH2 0x2034 JUMP JUMPDEST SWAP8 POP POP PUSH1 0x80 DUP12 ADD CALLDATALOAD PUSH8 0xFFFFFFFFFFFFFFFF DUP2 GT ISZERO PUSH2 0x2262 JUMPI PUSH2 0x2261 PUSH2 0x2B7C JUMP JUMPDEST JUMPDEST PUSH2 0x226E DUP14 DUP3 DUP15 ADD PUSH2 0x2034 JUMP JUMPDEST SWAP7 POP POP PUSH1 0xA0 DUP12 ADD CALLDATALOAD PUSH8 0xFFFFFFFFFFFFFFFF DUP2 GT ISZERO PUSH2 0x228F JUMPI PUSH2 0x228E PUSH2 0x2B7C JUMP JUMPDEST JUMPDEST PUSH2 0x229B DUP14 DUP3 DUP15 ADD PUSH2 0x2034 JUMP JUMPDEST SWAP6 POP POP PUSH1 0xC0 DUP12 ADD CALLDATALOAD PUSH8 0xFFFFFFFFFFFFFFFF DUP2 GT ISZERO PUSH2 0x22BC JUMPI PUSH2 0x22BB PUSH2 0x2B7C JUMP JUMPDEST JUMPDEST PUSH2 0x22C8 DUP14 DUP3 DUP15 ADD PUSH2 0x2034 JUMP JUMPDEST SWAP5 POP POP PUSH1 0xE0 DUP12 ADD CALLDATALOAD PUSH8 0xFFFFFFFFFFFFFFFF DUP2 GT ISZERO PUSH2 0x22E9 JUMPI PUSH2 0x22E8 PUSH2 0x2B7C JUMP JUMPDEST JUMPDEST PUSH2 0x22F5 DUP14 DUP3 DUP15 ADD PUSH2 0x2034 JUMP JUMPDEST SWAP4 POP POP PUSH2 0x100 DUP12 ADD CALLDATALOAD PUSH8 0xFFFFFFFFFFFFFFFF DUP2 GT ISZERO PUSH2 0x2317 JUMPI PUSH2 0x2316 PUSH2 0x2B7C JUMP JUMPDEST JUMPDEST PUSH2 0x2323 DUP14 DUP3 DUP15 ADD PUSH2 0x2034 JUMP JUMPDEST SWAP3 POP POP PUSH2 0x120 DUP12 ADD CALLDATALOAD PUSH8 0xFFFFFFFFFFFFFFFF DUP2 GT ISZERO PUSH2 0x2345 JUMPI PUSH2 0x2344 PUSH2 0x2B7C JUMP JUMPDEST JUMPDEST PUSH2 0x2351 DUP14 DUP3 DUP15 ADD PUSH2 0x2034 JUMP JUMPDEST SWAP2 POP POP SWAP3 SWAP6 SWAP9 SWAP12 SWAP2 SWAP5 SWAP8 SWAP11 POP SWAP3 SWAP6 SWAP9 POP JUMP JUMPDEST PUSH2 0x236C DUP2 PUSH2 0x2921 JUMP JUMPDEST DUP3 MSTORE POP POP JUMP JUMPDEST PUSH2 0x237B DUP2 PUSH2 0x290F JUMP JUMPDEST DUP3 MSTORE POP POP JUMP JUMPDEST PUSH2 0x238A DUP2 PUSH2 0x2933 JUMP JUMPDEST DUP3 MSTORE POP POP JUMP JUMPDEST PUSH2 0x2399 DUP2 PUSH2 0x298F JUMP JUMPDEST DUP3 MSTORE POP POP JUMP JUMPDEST PUSH2 0x23A8 DUP2 PUSH2 0x29A1 JUMP JUMPDEST DUP3 MSTORE POP POP JUMP JUMPDEST PUSH1 0x0 PUSH2 0x23B9 DUP3 PUSH2 0x2827 JUMP JUMPDEST PUSH2 0x23C3 DUP2 DUP6 PUSH2 0x2832 JUMP JUMPDEST SWAP4 POP PUSH2 0x23D3 DUP2 DUP6 PUSH1 0x20 DUP7 ADD PUSH2 0x29C2 JUMP JUMPDEST PUSH2 0x23DC DUP2 PUSH2 0x2B86 JUMP JUMPDEST DUP5 ADD SWAP2 POP POP SWAP3 SWAP2 POP POP JUMP JUMPDEST PUSH1 0x0 PUSH2 0x23F2 DUP3 PUSH2 0x2827 JUMP JUMPDEST PUSH2 0x23FC DUP2 DUP6 PUSH2 0x2843 JUMP JUMPDEST SWAP4 POP PUSH2 0x240C DUP2 DUP6 PUSH1 0x20 DUP7 ADD PUSH2 0x29C2 JUMP JUMPDEST PUSH2 0x2415 DUP2 PUSH2 0x2B86 JUMP JUMPDEST DUP5 ADD SWAP2 POP POP SWAP3 SWAP2 POP POP JUMP JUMPDEST PUSH1 0x0 PUSH2 0x242D PUSH1 0x1C DUP4 PUSH2 0x2843 JUMP JUMPDEST SWAP2 POP PUSH2 0x2438 DUP3 PUSH2 0x2B97 JUMP JUMPDEST PUSH1 0x20 DUP3 ADD SWAP1 POP SWAP2 SWAP1 POP JUMP JUMPDEST PUSH1 0x0 PUSH2 0x2450 PUSH1 0x19 DUP4 PUSH2 0x2843 JUMP JUMPDEST SWAP2 POP PUSH2 0x245B DUP3 PUSH2 0x2BC0 JUMP JUMPDEST PUSH1 0x20 DUP3 ADD SWAP1 POP SWAP2 SWAP1 POP JUMP JUMPDEST PUSH1 0x0 PUSH2 0x2473 PUSH1 0x1E DUP4 PUSH2 0x2843 JUMP JUMPDEST SWAP2 POP PUSH2 0x247E DUP3 PUSH2 0x2BE9 JUMP JUMPDEST PUSH1 0x20 DUP3 ADD SWAP1 POP SWAP2 SWAP1 POP JUMP JUMPDEST PUSH1 0x0 PUSH1 0xE0 DUP4 ADD PUSH1 0x0 DUP4 ADD MLOAD DUP5 DUP3 SUB PUSH1 0x0 DUP7 ADD MSTORE PUSH2 0x24A6 DUP3 DUP3 PUSH2 0x23AE JUMP JUMPDEST SWAP2 POP POP PUSH1 0x20 DUP4 ADD MLOAD DUP5 DUP3 SUB PUSH1 0x20 DUP7 ADD MSTORE PUSH2 0x24C0 DUP3 DUP3 PUSH2 0x23AE JUMP JUMPDEST SWAP2 POP POP PUSH1 0x40 DUP4 ADD MLOAD DUP5 DUP3 SUB PUSH1 0x40 DUP7 ADD MSTORE PUSH2 0x24DA DUP3 DUP3 PUSH2 0x23AE JUMP JUMPDEST SWAP2 POP POP PUSH1 0x60 DUP4 ADD MLOAD DUP5 DUP3 SUB PUSH1 0x60 DUP7 ADD MSTORE PUSH2 0x24F4 DUP3 DUP3 PUSH2 0x23AE JUMP JUMPDEST SWAP2 POP POP PUSH1 0x80 DUP4 ADD MLOAD DUP5 DUP3 SUB PUSH1 0x80 DUP7 ADD MSTORE PUSH2 0x250E DUP3 DUP3 PUSH2 0x23AE JUMP JUMPDEST SWAP2 POP POP PUSH1 0xA0 DUP4 ADD MLOAD DUP5 DUP3 SUB PUSH1 0xA0 DUP7 ADD MSTORE PUSH2 0x2528 DUP3 DUP3 PUSH2 0x23AE JUMP JUMPDEST SWAP2 POP POP PUSH1 0xC0 DUP4 ADD MLOAD DUP5 DUP3 SUB PUSH1 0xC0 DUP7 ADD MSTORE PUSH2 0x2542 DUP3 DUP3 PUSH2 0x23AE JUMP JUMPDEST SWAP2 POP POP DUP1 SWAP2 POP POP SWAP3 SWAP2 POP POP JUMP JUMPDEST PUSH2 0x2558 DUP2 PUSH2 0x2985 JUMP JUMPDEST DUP3 MSTORE POP POP JUMP JUMPDEST PUSH1 0x0 PUSH1 0x20 DUP3 ADD SWAP1 POP PUSH2 0x2573 PUSH1 0x0 DUP4 ADD DUP5 PUSH2 0x2363 JUMP JUMPDEST SWAP3 SWAP2 POP POP JUMP JUMPDEST PUSH1 0x0 PUSH1 0x20 DUP3 ADD SWAP1 POP PUSH2 0x258E PUSH1 0x0 DUP4 ADD DUP5 PUSH2 0x2381 JUMP JUMPDEST SWAP3 SWAP2 POP POP JUMP JUMPDEST PUSH1 0x0 PUSH1 0x40 DUP3 ADD SWAP1 POP PUSH2 0x25A9 PUSH1 0x0 DUP4 ADD DUP6 PUSH2 0x2390 JUMP JUMPDEST DUP2 DUP2 SUB PUSH1 0x20 DUP4 ADD MSTORE PUSH2 0x25BB DUP2 DUP5 PUSH2 0x23E7 JUMP JUMPDEST SWAP1 POP SWAP4 SWAP3 POP POP POP JUMP JUMPDEST PUSH1 0x0 PUSH1 0x20 DUP3 ADD SWAP1 POP DUP2 DUP2 SUB PUSH1 0x0 DUP4 ADD MSTORE PUSH2 0x25DE DUP2 DUP5 PUSH2 0x23E7 JUMP JUMPDEST SWAP1 POP SWAP3 SWAP2 POP POP JUMP JUMPDEST PUSH1 0x0 PUSH1 0x20 DUP3 ADD SWAP1 POP DUP2 DUP2 SUB PUSH1 0x0 DUP4 ADD MSTORE PUSH2 0x25FF DUP2 PUSH2 0x2420 JUMP JUMPDEST SWAP1 POP SWAP2 SWAP1 POP JUMP JUMPDEST PUSH1 0x0 PUSH1 0x20 DUP3 ADD SWAP1 POP DUP2 DUP2 SUB PUSH1 0x0 DUP4 ADD MSTORE PUSH2 0x261F DUP2 PUSH2 0x2443 JUMP JUMPDEST SWAP1 POP SWAP2 SWAP1 POP JUMP JUMPDEST PUSH1 0x0 PUSH1 0x20 DUP3 ADD SWAP1 POP DUP2 DUP2 SUB PUSH1 0x0 DUP4 ADD MSTORE PUSH2 0x263F DUP2 PUSH2 0x2466 JUMP JUMPDEST SWAP1 POP SWAP2 SWAP1 POP JUMP JUMPDEST PUSH1 0x0 PUSH1 0x20 DUP3 ADD SWAP1 POP PUSH2 0x265B PUSH1 0x0 DUP4 ADD DUP5 PUSH2 0x254F JUMP JUMPDEST SWAP3 SWAP2 POP POP JUMP JUMPDEST PUSH1 0x0 PUSH2 0x120 DUP3 ADD SWAP1 POP PUSH2 0x2677 PUSH1 0x0 DUP4 ADD DUP13 PUSH2 0x254F JUMP JUMPDEST PUSH2 0x2684 PUSH1 0x20 DUP4 ADD DUP12 PUSH2 0x2372 JUMP JUMPDEST PUSH2 0x2691 PUSH1 0x40 DUP4 ADD DUP11 PUSH2 0x2372 JUMP JUMPDEST PUSH2 0x269E PUSH1 0x60 DUP4 ADD DUP10 PUSH2 0x239F JUMP JUMPDEST PUSH2 0x26AB PUSH1 0x80 DUP4 ADD DUP9 PUSH2 0x254F JUMP JUMPDEST PUSH2 0x26B8 PUSH1 0xA0 DUP4 ADD DUP8 PUSH2 0x2372 JUMP JUMPDEST PUSH2 0x26C5 PUSH1 0xC0 DUP4 ADD DUP7 PUSH2 0x2372 JUMP JUMPDEST PUSH2 0x26D2 PUSH1 0xE0 DUP4 ADD DUP6 PUSH2 0x2372 JUMP JUMPDEST DUP2 DUP2 SUB PUSH2 0x100 DUP4 ADD MSTORE PUSH2 0x26E5 DUP2 DUP5 PUSH2 0x2489 JUMP JUMPDEST SWAP1 POP SWAP11 SWAP10 POP POP POP POP POP POP POP POP POP POP JUMP JUMPDEST PUSH1 0x0 PUSH2 0x160 DUP3 ADD SWAP1 POP PUSH2 0x270B PUSH1 0x0 DUP4 ADD DUP15 PUSH2 0x254F JUMP JUMPDEST PUSH2 0x2718 PUSH1 0x20 DUP4 ADD DUP14 PUSH2 0x2372 JUMP JUMPDEST PUSH2 0x2725 PUSH1 0x40 DUP4 ADD DUP13 PUSH2 0x239F JUMP JUMPDEST PUSH2 0x2732 PUSH1 0x60 DUP4 ADD DUP12 PUSH2 0x254F JUMP JUMPDEST DUP2 DUP2 SUB PUSH1 0x80 DUP4 ADD MSTORE PUSH2 0x2744 DUP2 DUP11 PUSH2 0x23E7 JUMP JUMPDEST SWAP1 POP DUP2 DUP2 SUB PUSH1 0xA0 DUP4 ADD MSTORE PUSH2 0x2758 DUP2 DUP10 PUSH2 0x23E7 JUMP JUMPDEST SWAP1 POP DUP2 DUP2 SUB PUSH1 0xC0 DUP4 ADD MSTORE PUSH2 0x276C DUP2 DUP9 PUSH2 0x23E7 JUMP JUMPDEST SWAP1 POP DUP2 DUP2 SUB PUSH1 0xE0 DUP4 ADD MSTORE PUSH2 0x2780 DUP2 DUP8 PUSH2 0x23E7 JUMP JUMPDEST SWAP1 POP DUP2 DUP2 SUB PUSH2 0x100 DUP4 ADD MSTORE PUSH2 0x2795 DUP2 DUP7 PUSH2 0x23E7 JUMP JUMPDEST SWAP1 POP DUP2 DUP2 SUB PUSH2 0x120 DUP4 ADD MSTORE PUSH2 0x27AA DUP2 DUP6 PUSH2 0x23E7 JUMP JUMPDEST SWAP1 POP DUP2 DUP2 SUB PUSH2 0x140 DUP4 ADD MSTORE PUSH2 0x27BF DUP2 DUP5 PUSH2 0x23E7 JUMP JUMPDEST SWAP1 POP SWAP13 SWAP12 POP POP POP POP POP POP POP POP POP POP POP POP JUMP JUMPDEST PUSH1 0x0 PUSH2 0x27DB PUSH2 0x27EC JUMP JUMPDEST SWAP1 POP PUSH2 0x27E7 DUP3 DUP3 PUSH2 0x2A27 JUMP JUMPDEST SWAP2 SWAP1 POP JUMP JUMPDEST PUSH1 0x0 PUSH1 0x40 MLOAD SWAP1 POP SWAP1 JUMP JUMPDEST PUSH1 0x0 PUSH8 0xFFFFFFFFFFFFFFFF DUP3 GT ISZERO PUSH2 0x2811 JUMPI PUSH2 0x2810 PUSH2 0x2B43 JUMP JUMPDEST JUMPDEST PUSH2 0x281A DUP3 PUSH2 0x2B86 JUMP JUMPDEST SWAP1 POP PUSH1 0x20 DUP2 ADD SWAP1 POP SWAP2 SWAP1 POP JUMP JUMPDEST PUSH1 0x0 DUP2 MLOAD SWAP1 POP SWAP2 SWAP1 POP JUMP JUMPDEST PUSH1 0x0 DUP3 DUP3 MSTORE PUSH1 0x20 DUP3 ADD SWAP1 POP SWAP3 SWAP2 POP POP JUMP JUMPDEST PUSH1 0x0 DUP3 DUP3 MSTORE PUSH1 0x20 DUP3 ADD SWAP1 POP SWAP3 SWAP2 POP POP JUMP JUMPDEST PUSH1 0x0 PUSH2 0x285F DUP3 PUSH2 0x2985 JUMP JUMPDEST SWAP2 POP PUSH2 0x286A DUP4 PUSH2 0x2985 JUMP JUMPDEST SWAP3 POP DUP3 PUSH32 0xFFFFFFFFFFFFFFFFFFFFFFFFFFFFFFFFFFFFFFFFFFFFFFFFFFFFFFFFFFFFFFFF SUB DUP3 GT ISZERO PUSH2 0x289F JUMPI PUSH2 0x289E PUSH2 0x2A58 JUMP JUMPDEST JUMPDEST DUP3 DUP3 ADD SWAP1 POP SWAP3 SWAP2 POP POP JUMP JUMPDEST PUSH1 0x0 PUSH2 0x28B5 DUP3 PUSH2 0x2985 JUMP JUMPDEST SWAP2 POP PUSH2 0x28C0 DUP4 PUSH2 0x2985 JUMP JUMPDEST SWAP3 POP DUP3 PUSH2 0x28D0 JUMPI PUSH2 0x28CF PUSH2 0x2A87 JUMP JUMPDEST JUMPDEST DUP3 DUP3 DIV SWAP1 POP SWAP3 SWAP2 POP POP JUMP JUMPDEST PUSH1 0x0 PUSH2 0x28E6 DUP3 PUSH2 0x2985 JUMP JUMPDEST SWAP2 POP PUSH2 0x28F1 DUP4 PUSH2 0x2985 JUMP JUMPDEST SWAP3 POP DUP3 DUP3 LT ISZERO PUSH2 0x2904 JUMPI PUSH2 0x2903 PUSH2 0x2A58 JUMP JUMPDEST JUMPDEST DUP3 DUP3 SUB SWAP1 POP SWAP3 SWAP2 POP POP JUMP JUMPDEST PUSH1 0x0 PUSH2 0x291A DUP3 PUSH2 0x2965 JUMP JUMPDEST SWAP1 POP SWAP2 SWAP1 POP JUMP JUMPDEST PUSH1 0x0 PUSH2 0x292C DUP3 PUSH2 0x2965 JUMP JUMPDEST SWAP1 POP SWAP2 SWAP1 POP JUMP JUMPDEST PUSH1 0x0 DUP2 ISZERO ISZERO SWAP1 POP SWAP2 SWAP1 POP JUMP JUMPDEST PUSH1 0x0 DUP2 SWAP1 POP PUSH2 0x294D DUP3 PUSH2 0x2C12 JUMP JUMPDEST SWAP2 SWAP1 POP JUMP JUMPDEST PUSH1 0x0 DUP2 SWAP1 POP PUSH2 0x2960 DUP3 PUSH2 0x2C26 JUMP JUMPDEST SWAP2 SWAP1 POP JUMP JUMPDEST PUSH1 0x0 PUSH20 0xFFFFFFFFFFFFFFFFFFFFFFFFFFFFFFFFFFFFFFFF DUP3 AND SWAP1 POP SWAP2 SWAP1 POP JUMP JUMPDEST PUSH1 0x0 DUP2 SWAP1 POP SWAP2 SWAP1 POP JUMP JUMPDEST PUSH1 0x0 PUSH2 0x299A DUP3 PUSH2 0x293F JUMP JUMPDEST SWAP1 POP SWAP2 SWAP1 POP JUMP JUMPDEST PUSH1 0x0 PUSH2 0x29AC DUP3 PUSH2 0x2952 JUMP JUMPDEST SWAP1 POP SWAP2 SWAP1 POP JUMP JUMPDEST DUP3 DUP2 DUP4 CALLDATACOPY PUSH1 0x0 DUP4 DUP4 ADD MSTORE POP POP POP JUMP JUMPDEST PUSH1 0x0 JUMPDEST DUP4 DUP2 LT ISZERO PUSH2 0x29E0 JUMPI DUP1 DUP3 ADD MLOAD DUP2 DUP5 ADD MSTORE PUSH1 0x20 DUP2 ADD SWAP1 POP PUSH2 0x29C5 JUMP JUMPDEST DUP4 DUP2 GT ISZERO PUSH2 0x29EF JUMPI PUSH1 0x0 DUP5 DUP5 ADD MSTORE JUMPDEST POP POP POP POP JUMP JUMPDEST PUSH1 0x0 PUSH1 0x2 DUP3 DIV SWAP1 POP PUSH1 0x1 DUP3 AND DUP1 PUSH2 0x2A0D JUMPI PUSH1 0x7F DUP3 AND SWAP2 POP JUMPDEST PUSH1 0x20 DUP3 LT DUP2 EQ ISZERO PUSH2 0x2A21 JUMPI PUSH2 0x2A20 PUSH2 0x2AE5 JUMP JUMPDEST JUMPDEST POP SWAP2 SWAP1 POP JUMP JUMPDEST PUSH2 0x2A30 DUP3 PUSH2 0x2B86 JUMP JUMPDEST DUP2 ADD DUP2 DUP2 LT PUSH8 0xFFFFFFFFFFFFFFFF DUP3 GT OR ISZERO PUSH2 0x2A4F JUMPI PUSH2 0x2A4E PUSH2 0x2B43 JUMP JUMPDEST JUMPDEST DUP1 PUSH1 0x40 MSTORE POP POP POP JUMP JUMPDEST PUSH32 0x4E487B7100000000000000000000000000000000000000000000000000000000 PUSH1 0x0 MSTORE PUSH1 0x11 PUSH1 0x4 MSTORE PUSH1 0x24 PUSH1 0x0 REVERT JUMPDEST PUSH32 0x4E487B7100000000000000000000000000000000000000000000000000000000 PUSH1 0x0 MSTORE PUSH1 0x12 PUSH1 0x4 MSTORE PUSH1 0x24 PUSH1 0x0 REVERT JUMPDEST PUSH32 0x4E487B7100000000000000000000000000000000000000000000000000000000 PUSH1 0x0 MSTORE PUSH1 0x21 PUSH1 0x4 MSTORE PUSH1 0x24 PUSH1 0x0 REVERT JUMPDEST PUSH32 0x4E487B7100000000000000000000000000000000000000000000000000000000 PUSH1 0x0 MSTORE PUSH1 0x22 PUSH1 0x4 MSTORE PUSH1 0x24 PUSH1 0x0 REVERT JUMPDEST PUSH32 0x4E487B7100000000000000000000000000000000000000000000000000000000 PUSH1 0x0 MSTORE PUSH1 0x32 PUSH1 0x4 MSTORE PUSH1 0x24 PUSH1 0x0 REVERT JUMPDEST PUSH32 0x4E487B7100000000000000000000000000000000000000000000000000000000 PUSH1 0x0 MSTORE PUSH1 0x41 PUSH1 0x4 MSTORE PUSH1 0x24 PUSH1 0x0 REVERT JUMPDEST PUSH1 0x0 DUP1 REVERT JUMPDEST PUSH1 0x0 DUP1 REVERT JUMPDEST PUSH1 0x0 DUP1 REVERT JUMPDEST PUSH1 0x0 DUP1 REVERT JUMPDEST PUSH1 0x0 PUSH1 0x1F NOT PUSH1 0x1F DUP4 ADD AND SWAP1 POP SWAP2 SWAP1 POP JUMP JUMPDEST PUSH32 0x63616C6C6572206973206E6F742061206469737472696275746F722E00000000 PUSH1 0x0 DUP3 ADD MSTORE POP JUMP JUMPDEST PUSH32 0x63616C6C6572206973206E6F7420612070726F64756365722E00000000000000 PUSH1 0x0 DUP3 ADD MSTORE POP JUMP JUMPDEST PUSH32 0x63616C6C6572206973206E6F742074686520746F6B656E206F776E65722E0000 PUSH1 0x0 DUP3 ADD MSTORE POP JUMP JUMPDEST PUSH1 0x5 DUP2 LT PUSH2 0x2C23 JUMPI PUSH2 0x2C22 PUSH2 0x2AB6 JUMP JUMPDEST JUMPDEST POP JUMP JUMPDEST PUSH1 0x6 DUP2 LT PUSH2 0x2C37 JUMPI PUSH2 0x2C36 PUSH2 0x2AB6 JUMP JUMPDEST JUMPDEST POP JUMP JUMPDEST PUSH2 0x2C43 DUP2 PUSH2 0x290F JUMP JUMPDEST DUP2 EQ PUSH2 0x2C4E JUMPI PUSH1 0x0 DUP1 REVERT JUMPDEST POP JUMP JUMPDEST PUSH1 0x5 DUP2 LT PUSH2 0x2C5E JUMPI PUSH1 0x0 DUP1 REVERT JUMPDEST POP JUMP JUMPDEST PUSH2 0x2C6A DUP2 PUSH2 0x2985 JUMP JUMPDEST DUP2 EQ PUSH2 0x2C75 JUMPI PUSH1 0x0 DUP1 REVERT JUMPDEST POP JUMP INVALID LOG2 PUSH5 0x6970667358 0x22 SLT KECCAK256 0xE SWAP10 AND TIMESTAMP 0xC4 0xB4 0xCA PUSH6 0xCF703AC77B75 JUMPDEST DUP4 ADDRESS 0x27 0xE3 0xC4 PUSH27 0x2EAFB0CEB2D9E1FB84DFB864736F6C634300080700330000000000 "
				},
				"gasEstimates": {
					"creation": {
						"codeDepositCost": "2287600",
						"executionCost": "infinite",
						"totalCost": "infinite"
					},
					"external": {
						"burn(address,uint256)": "infinite",
						"buyProduct(uint256,uint256)": "infinite",
						"buyToken()": "infinite",
						"etherBalance(address)": "3323",
						"getActorInfo(address)": "infinite",
						"getProductDetails(uint256)": "infinite",
						"getProductInfo(uint256)": "infinite",
						"mint(uint256)": "infinite",
						"name()": "infinite",
						"produceProduct(uint256,uint256,uint256,string,string,string,string,string,string,string)": "infinite",
						"register(address,uint8,string)": "infinite",
						"symbol()": "infinite",
						"tokenBalance(address)": "2929",
						"tokenOwner()": "2603",
						"tokenTransfer(address,uint256)": "infinite"
					}
				},
				"methodIdentifiers": {
					"burn(address,uint256)": "9dc29fac",
					"buyProduct(uint256,uint256)": "53b62866",
					"buyToken()": "a4821719",
					"etherBalance(address)": "cd0c5896",
					"getActorInfo(address)": "b292abf1",
					"getProductDetails(uint256)": "6813b53b",
					"getProductInfo(uint256)": "79a85e6c",
					"mint(uint256)": "a0712d68",
					"name()": "06fdde03",
					"produceProduct(uint256,uint256,uint256,string,string,string,string,string,string,string)": "561e0e98",
					"register(address,uint8,string)": "40932fc2",
					"symbol()": "95d89b41",
					"tokenBalance(address)": "eedc966a",
					"tokenOwner()": "a3e67610",
					"tokenTransfer(address,uint256)": "68cdafe6"
				}
			},
			"storageLayout": {
				"storage": [
					{
						"astId": 3,
						"contract": "contracts/4_Product.sol:ProductSC",
						"label": "name",
						"offset": 0,
						"slot": "0",
						"type": "t_string_storage"
					},
					{
						"astId": 5,
						"contract": "contracts/4_Product.sol:ProductSC",
						"label": "symbol",
						"offset": 0,
						"slot": "1",
						"type": "t_string_storage"
					},
					{
						"astId": 7,
						"contract": "contracts/4_Product.sol:ProductSC",
						"label": "tokenOwner",
						"offset": 0,
						"slot": "2",
						"type": "t_address_payable"
					},
					{
						"astId": 15,
						"contract": "contracts/4_Product.sol:ProductSC",
						"label": "_totalSupply",
						"offset": 0,
						"slot": "3",
						"type": "t_uint256"
					},
					{
						"astId": 80,
						"contract": "contracts/4_Product.sol:ProductSC",
						"label": "balances",
						"offset": 0,
						"slot": "4",
						"type": "t_mapping(t_address,t_uint256)"
					},
					{
						"astId": 85,
						"contract": "contracts/4_Product.sol:ProductSC",
						"label": "actors",
						"offset": 0,
						"slot": "5",
						"type": "t_mapping(t_address,t_struct(Actor)61_storage)"
					},
					{
						"astId": 90,
						"contract": "contracts/4_Product.sol:ProductSC",
						"label": "product",
						"offset": 0,
						"slot": "6",
						"type": "t_mapping(t_uint256,t_struct(Product)53_storage)"
					}
				],
				"types": {
					"t_address": {
						"encoding": "inplace",
						"label": "address",
						"numberOfBytes": "20"
					},
					"t_address_payable": {
						"encoding": "inplace",
						"label": "address payable",
						"numberOfBytes": "20"
					},
					"t_array(t_uint256)6_storage": {
						"base": "t_uint256",
						"encoding": "inplace",
						"label": "uint256[6]",
						"numberOfBytes": "192"
					},
					"t_bool": {
						"encoding": "inplace",
						"label": "bool",
						"numberOfBytes": "1"
					},
					"t_enum(Role)28": {
						"encoding": "inplace",
						"label": "enum ProductSC.Role",
						"numberOfBytes": "1"
					},
					"t_enum(State)22": {
						"encoding": "inplace",
						"label": "enum ProductSC.State",
						"numberOfBytes": "1"
					},
					"t_mapping(t_address,t_struct(Actor)61_storage)": {
						"encoding": "mapping",
						"key": "t_address",
						"label": "mapping(address => struct ProductSC.Actor)",
						"numberOfBytes": "32",
						"value": "t_struct(Actor)61_storage"
					},
					"t_mapping(t_address,t_uint256)": {
						"encoding": "mapping",
						"key": "t_address",
						"label": "mapping(address => uint256)",
						"numberOfBytes": "32",
						"value": "t_uint256"
					},
					"t_mapping(t_uint256,t_struct(Product)53_storage)": {
						"encoding": "mapping",
						"key": "t_uint256",
						"label": "mapping(uint256 => struct ProductSC.Product)",
						"numberOfBytes": "32",
						"value": "t_struct(Product)53_storage"
					},
					"t_string_storage": {
						"encoding": "bytes",
						"label": "string",
						"numberOfBytes": "32"
					},
					"t_struct(Actor)61_storage": {
						"encoding": "inplace",
						"label": "struct ProductSC.Actor",
						"members": [
							{
								"astId": 56,
								"contract": "contracts/4_Product.sol:ProductSC",
								"label": "role",
								"offset": 0,
								"slot": "0",
								"type": "t_enum(Role)28"
							},
							{
								"astId": 58,
								"contract": "contracts/4_Product.sol:ProductSC",
								"label": "name",
								"offset": 0,
								"slot": "1",
								"type": "t_string_storage"
							},
							{
								"astId": 60,
								"contract": "contracts/4_Product.sol:ProductSC",
								"label": "isDefined",
								"offset": 0,
								"slot": "2",
								"type": "t_bool"
							}
						],
						"numberOfBytes": "96"
					},
					"t_struct(Details)76_storage": {
						"encoding": "inplace",
						"label": "struct ProductSC.Details",
						"members": [
							{
								"astId": 63,
								"contract": "contracts/4_Product.sol:ProductSC",
								"label": "name",
								"offset": 0,
								"slot": "0",
								"type": "t_string_storage"
							},
							{
								"astId": 65,
								"contract": "contracts/4_Product.sol:ProductSC",
								"label": "brand",
								"offset": 0,
								"slot": "1",
								"type": "t_string_storage"
							},
							{
								"astId": 67,
								"contract": "contracts/4_Product.sol:ProductSC",
								"label": "size",
								"offset": 0,
								"slot": "2",
								"type": "t_string_storage"
							},
							{
								"astId": 69,
								"contract": "contracts/4_Product.sol:ProductSC",
								"label": "weight",
								"offset": 0,
								"slot": "3",
								"type": "t_string_storage"
							},
							{
								"astId": 71,
								"contract": "contracts/4_Product.sol:ProductSC",
								"label": "length",
								"offset": 0,
								"slot": "4",
								"type": "t_string_storage"
							},
							{
								"astId": 73,
								"contract": "contracts/4_Product.sol:ProductSC",
								"label": "width",
								"offset": 0,
								"slot": "5",
								"type": "t_string_storage"
							},
							{
								"astId": 75,
								"contract": "contracts/4_Product.sol:ProductSC",
								"label": "height",
								"offset": 0,
								"slot": "6",
								"type": "t_string_storage"
							}
						],
						"numberOfBytes": "224"
					},
					"t_struct(Product)53_storage": {
						"encoding": "inplace",
						"label": "struct ProductSC.Product",
						"members": [
							{
								"astId": 30,
								"contract": "contracts/4_Product.sol:ProductSC",
								"label": "ID",
								"offset": 0,
								"slot": "0",
								"type": "t_uint256"
							},
							{
								"astId": 32,
								"contract": "contracts/4_Product.sol:ProductSC",
								"label": "ownerID",
								"offset": 0,
								"slot": "1",
								"type": "t_address"
							},
							{
								"astId": 34,
								"contract": "contracts/4_Product.sol:ProductSC",
								"label": "producerID",
								"offset": 0,
								"slot": "2",
								"type": "t_address"
							},
							{
								"astId": 38,
								"contract": "contracts/4_Product.sol:ProductSC",
								"label": "timestamp",
								"offset": 0,
								"slot": "3",
								"type": "t_array(t_uint256)6_storage"
							},
							{
								"astId": 41,
								"contract": "contracts/4_Product.sol:ProductSC",
								"label": "productState",
								"offset": 0,
								"slot": "9",
								"type": "t_enum(State)22"
							},
							{
								"astId": 43,
								"contract": "contracts/4_Product.sol:ProductSC",
								"label": "productPrice",
								"offset": 0,
								"slot": "10",
								"type": "t_uint256"
							},
							{
								"astId": 45,
								"contract": "contracts/4_Product.sol:ProductSC",
								"label": "distributorID",
								"offset": 0,
								"slot": "11",
								"type": "t_address"
							},
							{
								"astId": 47,
								"contract": "contracts/4_Product.sol:ProductSC",
								"label": "retailerID",
								"offset": 0,
								"slot": "12",
								"type": "t_address"
							},
							{
								"astId": 49,
								"contract": "contracts/4_Product.sol:ProductSC",
								"label": "consumerID",
								"offset": 0,
								"slot": "13",
								"type": "t_address"
							},
							{
								"astId": 52,
								"contract": "contracts/4_Product.sol:ProductSC",
								"label": "details",
								"offset": 0,
								"slot": "14",
								"type": "t_struct(Details)76_storage"
							}
						],
						"numberOfBytes": "672"
					},
					"t_uint256": {
						"encoding": "inplace",
						"label": "uint256",
						"numberOfBytes": "32"
					}
				}
			},
			"userdoc": {
				"kind": "user",
				"methods": {},
				"version": 1
			}
		}
	}
}