{
	"contracts/4_Product.sol": {
		"ProductSC": {
			"abi": [
				{
					"inputs": [
						{
							"internalType": "string",
							"name": "_name",
							"type": "string"
						},
						{
							"internalType": "string",
							"name": "_symbol",
							"type": "string"
						},
						{
							"internalType": "uint256",
							"name": "_initialSupply",
							"type": "uint256"
						}
					],
					"stateMutability": "nonpayable",
					"type": "constructor"
				},
				{
					"inputs": [
						{
							"internalType": "address",
							"name": "_account",
							"type": "address"
						},
						{
							"internalType": "uint256",
							"name": "_amount",
							"type": "uint256"
						}
					],
					"name": "burn",
					"outputs": [],
					"stateMutability": "nonpayable",
					"type": "function"
				},
				{
					"inputs": [],
					"name": "buyToken",
					"outputs": [],
					"stateMutability": "payable",
					"type": "function"
				},
				{
					"inputs": [
						{
							"internalType": "address",
							"name": "_addr",
							"type": "address"
						}
					],
					"name": "etherBalance",
					"outputs": [
						{
							"internalType": "uint256",
							"name": "",
							"type": "uint256"
						}
					],
					"stateMutability": "view",
					"type": "function"
				},
				{
					"inputs": [
						{
							"internalType": "address",
							"name": "_addr",
							"type": "address"
						}
					],
					"name": "getActorInfo",
					"outputs": [
						{
							"internalType": "enum ProductSC.Role",
							"name": "_role",
							"type": "uint8"
						},
						{
							"internalType": "string",
							"name": "_name",
							"type": "string"
						}
					],
					"stateMutability": "view",
					"type": "function"
				},
				{
					"inputs": [
						{
							"internalType": "uint256",
							"name": "_amount",
							"type": "uint256"
						}
					],
					"name": "mint",
					"outputs": [],
					"stateMutability": "nonpayable",
					"type": "function"
				},
				{
					"inputs": [],
					"name": "name",
					"outputs": [
						{
							"internalType": "string",
							"name": "",
							"type": "string"
						}
					],
					"stateMutability": "view",
					"type": "function"
				},
				{
					"inputs": [
						{
							"internalType": "uint256",
							"name": "_id",
							"type": "uint256"
						},
						{
							"internalType": "uint256",
							"name": "_timestamp",
							"type": "uint256"
						},
						{
							"internalType": "uint256",
							"name": "_price",
							"type": "uint256"
						},
						{
							"internalType": "string",
							"name": "_name",
							"type": "string"
						},
						{
							"internalType": "string",
							"name": "_brand",
							"type": "string"
						},
						{
							"internalType": "string",
							"name": "_size",
							"type": "string"
						},
						{
							"internalType": "string",
							"name": "_weight",
							"type": "string"
						},
						{
							"internalType": "string",
							"name": "_length",
							"type": "string"
						},
						{
							"internalType": "string",
							"name": "_width",
							"type": "string"
						},
						{
							"internalType": "string",
							"name": "_height",
							"type": "string"
						}
					],
					"name": "produceProduct",
					"outputs": [],
					"stateMutability": "nonpayable",
					"type": "function"
				},
				{
					"inputs": [
						{
							"internalType": "address",
							"name": "_addr",
							"type": "address"
						},
						{
							"internalType": "enum ProductSC.Role",
							"name": "_role",
							"type": "uint8"
						},
						{
							"internalType": "string",
							"name": "_name",
							"type": "string"
						}
					],
					"name": "register",
					"outputs": [],
					"stateMutability": "nonpayable",
					"type": "function"
				},
				{
					"inputs": [],
					"name": "symbol",
					"outputs": [
						{
							"internalType": "string",
							"name": "",
							"type": "string"
						}
					],
					"stateMutability": "view",
					"type": "function"
				},
				{
					"inputs": [
						{
							"internalType": "address",
							"name": "_addr",
							"type": "address"
						}
					],
					"name": "tokenBalance",
					"outputs": [
						{
							"internalType": "uint256",
							"name": "",
							"type": "uint256"
						}
					],
					"stateMutability": "view",
					"type": "function"
				},
				{
					"inputs": [],
					"name": "tokenOwner",
					"outputs": [
						{
							"internalType": "address payable",
							"name": "",
							"type": "address"
						}
					],
					"stateMutability": "view",
					"type": "function"
				},
				{
					"inputs": [
						{
							"internalType": "address",
							"name": "_to",
							"type": "address"
						},
						{
							"internalType": "uint256",
							"name": "_amount",
							"type": "uint256"
						}
					],
					"name": "tokenTransfer",
					"outputs": [
						{
							"internalType": "bool",
							"name": "",
							"type": "bool"
						}
					],
					"stateMutability": "nonpayable",
					"type": "function"
				}
			],
			"devdoc": {
				"kind": "dev",
				"methods": {},
				"version": 1
			},
			"evm": {
				"assembly": "    /* \"contracts/4_Product.sol\":35:10703  contract ProductSC {\r... */\n  mstore(0x40, 0x80)\n    /* \"contracts/4_Product.sol\":2204:2584  constructor (string memory _name, string memory _symbol, uint256 _initialSupply) {\r... */\n  callvalue\n  dup1\n  iszero\n  tag_1\n  jumpi\n  0x00\n  dup1\n  revert\ntag_1:\n  pop\n  mload(0x40)\n  sub(codesize, bytecodeSize)\n  dup1\n  bytecodeSize\n  dup4\n  codecopy\n  dup2\n  dup2\n  add\n  0x40\n  mstore\n  dup2\n  add\n  swap1\n  tag_2\n  swap2\n  swap1\n  tag_3\n  jump\t// in\ntag_2:\n    /* \"contracts/4_Product.sol\":2303:2308  _name */\n  dup3\n    /* \"contracts/4_Product.sol\":2296:2300  name */\n  0x00\n    /* \"contracts/4_Product.sol\":2296:2308  name = _name */\n  swap1\n  dup1\n  mload\n  swap1\n  0x20\n  add\n  swap1\n  tag_6\n  swap3\n  swap2\n  swap1\n  tag_7\n  jump\t// in\ntag_6:\n  pop\n    /* \"contracts/4_Product.sol\":2328:2335  _symbol */\n  dup2\n    /* \"contracts/4_Product.sol\":2319:2325  symbol */\n  0x01\n    /* \"contracts/4_Product.sol\":2319:2335  symbol = _symbol */\n  swap1\n  dup1\n  mload\n  swap1\n  0x20\n  add\n  swap1\n  tag_8\n  swap3\n  swap2\n  swap1\n  tag_7\n  jump\t// in\ntag_8:\n  pop\n    /* \"contracts/4_Product.sol\":2361:2375  _initialSupply */\n  dup1\n    /* \"contracts/4_Product.sol\":2346:2358  _totalSupply */\n  0x03\n    /* \"contracts/4_Product.sol\":2346:2375  _totalSupply = _initialSupply */\n  dup2\n  swap1\n  sstore\n  pop\n    /* \"contracts/4_Product.sol\":2407:2417  msg.sender */\n  caller\n    /* \"contracts/4_Product.sol\":2386:2396  tokenOwner */\n  0x02\n  0x00\n    /* \"contracts/4_Product.sol\":2386:2418  tokenOwner = payable(msg.sender) */\n  0x0100\n  exp\n  dup2\n  sload\n  dup2\n  0xffffffffffffffffffffffffffffffffffffffff\n  mul\n  not\n  and\n  swap1\n  dup4\n  0xffffffffffffffffffffffffffffffffffffffff\n  and\n  mul\n  or\n  swap1\n  sstore\n  pop\n    /* \"contracts/4_Product.sol\":2495:2509  _initialSupply */\n  dup1\n    /* \"contracts/4_Product.sol\":2472:2480  balances */\n  0x04\n    /* \"contracts/4_Product.sol\":2472:2492  balances[msg.sender] */\n  0x00\n    /* \"contracts/4_Product.sol\":2481:2491  msg.sender */\n  caller\n    /* \"contracts/4_Product.sol\":2472:2492  balances[msg.sender] */\n  0xffffffffffffffffffffffffffffffffffffffff\n  and\n  0xffffffffffffffffffffffffffffffffffffffff\n  and\n  dup2\n  mstore\n  0x20\n  add\n  swap1\n  dup2\n  mstore\n  0x20\n  add\n  0x00\n  keccak256\n    /* \"contracts/4_Product.sol\":2472:2509  balances[msg.sender] = _initialSupply */\n  dup2\n  swap1\n  sstore\n  pop\n    /* \"contracts/4_Product.sol\":2204:2584  constructor (string memory _name, string memory _symbol, uint256 _initialSupply) {\r... */\n  pop\n  pop\n  pop\n    /* \"contracts/4_Product.sol\":35:10703  contract ProductSC {\r... */\n  jump(tag_9)\ntag_7:\n  dup3\n  dup1\n  sload\n  tag_10\n  swap1\n  tag_11\n  jump\t// in\ntag_10:\n  swap1\n  0x00\n  mstore\n  keccak256(0x00, 0x20)\n  swap1\n  0x1f\n  add\n  0x20\n  swap1\n  div\n  dup2\n  add\n  swap3\n  dup3\n  tag_13\n  jumpi\n  0x00\n  dup6\n  sstore\n  jump(tag_12)\ntag_13:\n  dup3\n  0x1f\n  lt\n  tag_14\n  jumpi\n  dup1\n  mload\n  not(0xff)\n  and\n  dup4\n  dup1\n  add\n  or\n  dup6\n  sstore\n  jump(tag_12)\ntag_14:\n  dup3\n  dup1\n  add\n  0x01\n  add\n  dup6\n  sstore\n  dup3\n  iszero\n  tag_12\n  jumpi\n  swap2\n  dup3\n  add\ntag_15:\n  dup3\n  dup2\n  gt\n  iszero\n  tag_16\n  jumpi\n  dup3\n  mload\n  dup3\n  sstore\n  swap2\n  0x20\n  add\n  swap2\n  swap1\n  0x01\n  add\n  swap1\n  jump(tag_15)\ntag_16:\ntag_12:\n  pop\n  swap1\n  pop\n  tag_17\n  swap2\n  swap1\n  tag_18\n  jump\t// in\ntag_17:\n  pop\n  swap1\n  jump\t// out\ntag_18:\ntag_19:\n  dup1\n  dup3\n  gt\n  iszero\n  tag_20\n  jumpi\n  0x00\n  dup2\n  0x00\n  swap1\n  sstore\n  pop\n  0x01\n  add\n  jump(tag_19)\ntag_20:\n  pop\n  swap1\n  jump\t// out\n    /* \"#utility.yul\":7:428   */\ntag_22:\n    /* \"#utility.yul\":96:101   */\n  0x00\n    /* \"#utility.yul\":121:187   */\n  tag_24\n    /* \"#utility.yul\":137:186   */\n  tag_25\n    /* \"#utility.yul\":179:185   */\n  dup5\n    /* \"#utility.yul\":137:186   */\n  tag_26\n  jump\t// in\ntag_25:\n    /* \"#utility.yul\":121:187   */\n  tag_27\n  jump\t// in\ntag_24:\n    /* \"#utility.yul\":112:187   */\n  swap1\n  pop\n    /* \"#utility.yul\":210:216   */\n  dup3\n    /* \"#utility.yul\":203:208   */\n  dup2\n    /* \"#utility.yul\":196:217   */\n  mstore\n    /* \"#utility.yul\":248:252   */\n  0x20\n    /* \"#utility.yul\":241:246   */\n  dup2\n    /* \"#utility.yul\":237:253   */\n  add\n    /* \"#utility.yul\":286:289   */\n  dup5\n    /* \"#utility.yul\":277:283   */\n  dup5\n    /* \"#utility.yul\":272:275   */\n  dup5\n    /* \"#utility.yul\":268:284   */\n  add\n    /* \"#utility.yul\":265:290   */\n  gt\n    /* \"#utility.yul\":262:374   */\n  iszero\n  tag_28\n  jumpi\n    /* \"#utility.yul\":293:372   */\n  tag_29\n  tag_30\n  jump\t// in\ntag_29:\n    /* \"#utility.yul\":262:374   */\ntag_28:\n    /* \"#utility.yul\":383:422   */\n  tag_31\n    /* \"#utility.yul\":415:421   */\n  dup5\n    /* \"#utility.yul\":410:413   */\n  dup3\n    /* \"#utility.yul\":405:408   */\n  dup6\n    /* \"#utility.yul\":383:422   */\n  tag_32\n  jump\t// in\ntag_31:\n    /* \"#utility.yul\":102:428   */\n  pop\n    /* \"#utility.yul\":7:428   */\n  swap4\n  swap3\n  pop\n  pop\n  pop\n  jump\t// out\n    /* \"#utility.yul\":448:803   */\ntag_33:\n    /* \"#utility.yul\":515:520   */\n  0x00\n    /* \"#utility.yul\":564:567   */\n  dup3\n    /* \"#utility.yul\":557:561   */\n  0x1f\n    /* \"#utility.yul\":549:555   */\n  dup4\n    /* \"#utility.yul\":545:562   */\n  add\n    /* \"#utility.yul\":541:568   */\n  slt\n    /* \"#utility.yul\":531:653   */\n  tag_35\n  jumpi\n    /* \"#utility.yul\":572:651   */\n  tag_36\n  tag_37\n  jump\t// in\ntag_36:\n    /* \"#utility.yul\":531:653   */\ntag_35:\n    /* \"#utility.yul\":682:688   */\n  dup2\n    /* \"#utility.yul\":676:689   */\n  mload\n    /* \"#utility.yul\":707:797   */\n  tag_38\n    /* \"#utility.yul\":793:796   */\n  dup5\n    /* \"#utility.yul\":785:791   */\n  dup3\n    /* \"#utility.yul\":778:782   */\n  0x20\n    /* \"#utility.yul\":770:776   */\n  dup7\n    /* \"#utility.yul\":766:783   */\n  add\n    /* \"#utility.yul\":707:797   */\n  tag_22\n  jump\t// in\ntag_38:\n    /* \"#utility.yul\":698:797   */\n  swap2\n  pop\n    /* \"#utility.yul\":521:803   */\n  pop\n    /* \"#utility.yul\":448:803   */\n  swap3\n  swap2\n  pop\n  pop\n  jump\t// out\n    /* \"#utility.yul\":809:952   */\ntag_39:\n    /* \"#utility.yul\":866:871   */\n  0x00\n    /* \"#utility.yul\":897:903   */\n  dup2\n    /* \"#utility.yul\":891:904   */\n  mload\n    /* \"#utility.yul\":882:904   */\n  swap1\n  pop\n    /* \"#utility.yul\":913:946   */\n  tag_41\n    /* \"#utility.yul\":940:945   */\n  dup2\n    /* \"#utility.yul\":913:946   */\n  tag_42\n  jump\t// in\ntag_41:\n    /* \"#utility.yul\":809:952   */\n  swap3\n  swap2\n  pop\n  pop\n  jump\t// out\n    /* \"#utility.yul\":958:1967   */\ntag_3:\n    /* \"#utility.yul\":1066:1072   */\n  0x00\n    /* \"#utility.yul\":1074:1080   */\n  dup1\n    /* \"#utility.yul\":1082:1088   */\n  0x00\n    /* \"#utility.yul\":1131:1133   */\n  0x60\n    /* \"#utility.yul\":1119:1128   */\n  dup5\n    /* \"#utility.yul\":1110:1117   */\n  dup7\n    /* \"#utility.yul\":1106:1129   */\n  sub\n    /* \"#utility.yul\":1102:1134   */\n  slt\n    /* \"#utility.yul\":1099:1218   */\n  iszero\n  tag_44\n  jumpi\n    /* \"#utility.yul\":1137:1216   */\n  tag_45\n  tag_46\n  jump\t// in\ntag_45:\n    /* \"#utility.yul\":1099:1218   */\ntag_44:\n    /* \"#utility.yul\":1278:1279   */\n  0x00\n    /* \"#utility.yul\":1267:1276   */\n  dup5\n    /* \"#utility.yul\":1263:1280   */\n  add\n    /* \"#utility.yul\":1257:1281   */\n  mload\n    /* \"#utility.yul\":1308:1326   */\n  0xffffffffffffffff\n    /* \"#utility.yul\":1300:1306   */\n  dup2\n    /* \"#utility.yul\":1297:1327   */\n  gt\n    /* \"#utility.yul\":1294:1411   */\n  iszero\n  tag_47\n  jumpi\n    /* \"#utility.yul\":1330:1409   */\n  tag_48\n  tag_49\n  jump\t// in\ntag_48:\n    /* \"#utility.yul\":1294:1411   */\ntag_47:\n    /* \"#utility.yul\":1435:1509   */\n  tag_50\n    /* \"#utility.yul\":1501:1508   */\n  dup7\n    /* \"#utility.yul\":1492:1498   */\n  dup3\n    /* \"#utility.yul\":1481:1490   */\n  dup8\n    /* \"#utility.yul\":1477:1499   */\n  add\n    /* \"#utility.yul\":1435:1509   */\n  tag_33\n  jump\t// in\ntag_50:\n    /* \"#utility.yul\":1425:1509   */\n  swap4\n  pop\n    /* \"#utility.yul\":1228:1519   */\n  pop\n    /* \"#utility.yul\":1579:1581   */\n  0x20\n    /* \"#utility.yul\":1568:1577   */\n  dup5\n    /* \"#utility.yul\":1564:1582   */\n  add\n    /* \"#utility.yul\":1558:1583   */\n  mload\n    /* \"#utility.yul\":1610:1628   */\n  0xffffffffffffffff\n    /* \"#utility.yul\":1602:1608   */\n  dup2\n    /* \"#utility.yul\":1599:1629   */\n  gt\n    /* \"#utility.yul\":1596:1713   */\n  iszero\n  tag_51\n  jumpi\n    /* \"#utility.yul\":1632:1711   */\n  tag_52\n  tag_49\n  jump\t// in\ntag_52:\n    /* \"#utility.yul\":1596:1713   */\ntag_51:\n    /* \"#utility.yul\":1737:1811   */\n  tag_53\n    /* \"#utility.yul\":1803:1810   */\n  dup7\n    /* \"#utility.yul\":1794:1800   */\n  dup3\n    /* \"#utility.yul\":1783:1792   */\n  dup8\n    /* \"#utility.yul\":1779:1801   */\n  add\n    /* \"#utility.yul\":1737:1811   */\n  tag_33\n  jump\t// in\ntag_53:\n    /* \"#utility.yul\":1727:1811   */\n  swap3\n  pop\n    /* \"#utility.yul\":1529:1821   */\n  pop\n    /* \"#utility.yul\":1860:1862   */\n  0x40\n    /* \"#utility.yul\":1886:1950   */\n  tag_54\n    /* \"#utility.yul\":1942:1949   */\n  dup7\n    /* \"#utility.yul\":1933:1939   */\n  dup3\n    /* \"#utility.yul\":1922:1931   */\n  dup8\n    /* \"#utility.yul\":1918:1940   */\n  add\n    /* \"#utility.yul\":1886:1950   */\n  tag_39\n  jump\t// in\ntag_54:\n    /* \"#utility.yul\":1876:1950   */\n  swap2\n  pop\n    /* \"#utility.yul\":1831:1960   */\n  pop\n    /* \"#utility.yul\":958:1967   */\n  swap3\n  pop\n  swap3\n  pop\n  swap3\n  jump\t// out\n    /* \"#utility.yul\":1973:2102   */\ntag_27:\n    /* \"#utility.yul\":2007:2013   */\n  0x00\n    /* \"#utility.yul\":2034:2054   */\n  tag_56\n  tag_57\n  jump\t// in\ntag_56:\n    /* \"#utility.yul\":2024:2054   */\n  swap1\n  pop\n    /* \"#utility.yul\":2063:2096   */\n  tag_58\n    /* \"#utility.yul\":2091:2095   */\n  dup3\n    /* \"#utility.yul\":2083:2089   */\n  dup3\n    /* \"#utility.yul\":2063:2096   */\n  tag_59\n  jump\t// in\ntag_58:\n    /* \"#utility.yul\":1973:2102   */\n  swap2\n  swap1\n  pop\n  jump\t// out\n    /* \"#utility.yul\":2108:2183   */\ntag_57:\n    /* \"#utility.yul\":2141:2147   */\n  0x00\n    /* \"#utility.yul\":2174:2176   */\n  0x40\n    /* \"#utility.yul\":2168:2177   */\n  mload\n    /* \"#utility.yul\":2158:2177   */\n  swap1\n  pop\n    /* \"#utility.yul\":2108:2183   */\n  swap1\n  jump\t// out\n    /* \"#utility.yul\":2189:2497   */\ntag_26:\n    /* \"#utility.yul\":2251:2255   */\n  0x00\n    /* \"#utility.yul\":2341:2359   */\n  0xffffffffffffffff\n    /* \"#utility.yul\":2333:2339   */\n  dup3\n    /* \"#utility.yul\":2330:2360   */\n  gt\n    /* \"#utility.yul\":2327:2383   */\n  iszero\n  tag_62\n  jumpi\n    /* \"#utility.yul\":2363:2381   */\n  tag_63\n  tag_64\n  jump\t// in\ntag_63:\n    /* \"#utility.yul\":2327:2383   */\ntag_62:\n    /* \"#utility.yul\":2401:2430   */\n  tag_65\n    /* \"#utility.yul\":2423:2429   */\n  dup3\n    /* \"#utility.yul\":2401:2430   */\n  tag_66\n  jump\t// in\ntag_65:\n    /* \"#utility.yul\":2393:2430   */\n  swap1\n  pop\n    /* \"#utility.yul\":2485:2489   */\n  0x20\n    /* \"#utility.yul\":2479:2483   */\n  dup2\n    /* \"#utility.yul\":2475:2490   */\n  add\n    /* \"#utility.yul\":2467:2490   */\n  swap1\n  pop\n    /* \"#utility.yul\":2189:2497   */\n  swap2\n  swap1\n  pop\n  jump\t// out\n    /* \"#utility.yul\":2503:2580   */\ntag_67:\n    /* \"#utility.yul\":2540:2547   */\n  0x00\n    /* \"#utility.yul\":2569:2574   */\n  dup2\n    /* \"#utility.yul\":2558:2574   */\n  swap1\n  pop\n    /* \"#utility.yul\":2503:2580   */\n  swap2\n  swap1\n  pop\n  jump\t// out\n    /* \"#utility.yul\":2586:2893   */\ntag_32:\n    /* \"#utility.yul\":2654:2655   */\n  0x00\n    /* \"#utility.yul\":2664:2777   */\ntag_70:\n    /* \"#utility.yul\":2678:2684   */\n  dup4\n    /* \"#utility.yul\":2675:2676   */\n  dup2\n    /* \"#utility.yul\":2672:2685   */\n  lt\n    /* \"#utility.yul\":2664:2777   */\n  iszero\n  tag_72\n  jumpi\n    /* \"#utility.yul\":2763:2764   */\n  dup1\n    /* \"#utility.yul\":2758:2761   */\n  dup3\n    /* \"#utility.yul\":2754:2765   */\n  add\n    /* \"#utility.yul\":2748:2766   */\n  mload\n    /* \"#utility.yul\":2744:2745   */\n  dup2\n    /* \"#utility.yul\":2739:2742   */\n  dup5\n    /* \"#utility.yul\":2735:2746   */\n  add\n    /* \"#utility.yul\":2728:2767   */\n  mstore\n    /* \"#utility.yul\":2700:2702   */\n  0x20\n    /* \"#utility.yul\":2697:2698   */\n  dup2\n    /* \"#utility.yul\":2693:2703   */\n  add\n    /* \"#utility.yul\":2688:2703   */\n  swap1\n  pop\n    /* \"#utility.yul\":2664:2777   */\n  jump(tag_70)\ntag_72:\n    /* \"#utility.yul\":2795:2801   */\n  dup4\n    /* \"#utility.yul\":2792:2793   */\n  dup2\n    /* \"#utility.yul\":2789:2802   */\n  gt\n    /* \"#utility.yul\":2786:2887   */\n  iszero\n  tag_73\n  jumpi\n    /* \"#utility.yul\":2875:2876   */\n  0x00\n    /* \"#utility.yul\":2866:2872   */\n  dup5\n    /* \"#utility.yul\":2861:2864   */\n  dup5\n    /* \"#utility.yul\":2857:2873   */\n  add\n    /* \"#utility.yul\":2850:2877   */\n  mstore\n    /* \"#utility.yul\":2786:2887   */\ntag_73:\n    /* \"#utility.yul\":2635:2893   */\n  pop\n    /* \"#utility.yul\":2586:2893   */\n  pop\n  pop\n  pop\n  jump\t// out\n    /* \"#utility.yul\":2899:3219   */\ntag_11:\n    /* \"#utility.yul\":2943:2949   */\n  0x00\n    /* \"#utility.yul\":2980:2981   */\n  0x02\n    /* \"#utility.yul\":2974:2978   */\n  dup3\n    /* \"#utility.yul\":2970:2982   */\n  div\n    /* \"#utility.yul\":2960:2982   */\n  swap1\n  pop\n    /* \"#utility.yul\":3027:3028   */\n  0x01\n    /* \"#utility.yul\":3021:3025   */\n  dup3\n    /* \"#utility.yul\":3017:3029   */\n  and\n    /* \"#utility.yul\":3048:3066   */\n  dup1\n    /* \"#utility.yul\":3038:3119   */\n  tag_75\n  jumpi\n    /* \"#utility.yul\":3104:3108   */\n  0x7f\n    /* \"#utility.yul\":3096:3102   */\n  dup3\n    /* \"#utility.yul\":3092:3109   */\n  and\n    /* \"#utility.yul\":3082:3109   */\n  swap2\n  pop\n    /* \"#utility.yul\":3038:3119   */\ntag_75:\n    /* \"#utility.yul\":3166:3168   */\n  0x20\n    /* \"#utility.yul\":3158:3164   */\n  dup3\n    /* \"#utility.yul\":3155:3169   */\n  lt\n    /* \"#utility.yul\":3135:3153   */\n  dup2\n    /* \"#utility.yul\":3132:3170   */\n  eq\n    /* \"#utility.yul\":3129:3213   */\n  iszero\n  tag_76\n  jumpi\n    /* \"#utility.yul\":3185:3203   */\n  tag_77\n  tag_78\n  jump\t// in\ntag_77:\n    /* \"#utility.yul\":3129:3213   */\ntag_76:\n    /* \"#utility.yul\":2950:3219   */\n  pop\n    /* \"#utility.yul\":2899:3219   */\n  swap2\n  swap1\n  pop\n  jump\t// out\n    /* \"#utility.yul\":3225:3506   */\ntag_59:\n    /* \"#utility.yul\":3308:3335   */\n  tag_80\n    /* \"#utility.yul\":3330:3334   */\n  dup3\n    /* \"#utility.yul\":3308:3335   */\n  tag_66\n  jump\t// in\ntag_80:\n    /* \"#utility.yul\":3300:3306   */\n  dup2\n    /* \"#utility.yul\":3296:3336   */\n  add\n    /* \"#utility.yul\":3438:3444   */\n  dup2\n    /* \"#utility.yul\":3426:3436   */\n  dup2\n    /* \"#utility.yul\":3423:3445   */\n  lt\n    /* \"#utility.yul\":3402:3420   */\n  0xffffffffffffffff\n    /* \"#utility.yul\":3390:3400   */\n  dup3\n    /* \"#utility.yul\":3387:3421   */\n  gt\n    /* \"#utility.yul\":3384:3446   */\n  or\n    /* \"#utility.yul\":3381:3469   */\n  iszero\n  tag_81\n  jumpi\n    /* \"#utility.yul\":3449:3467   */\n  tag_82\n  tag_64\n  jump\t// in\ntag_82:\n    /* \"#utility.yul\":3381:3469   */\ntag_81:\n    /* \"#utility.yul\":3489:3499   */\n  dup1\n    /* \"#utility.yul\":3485:3487   */\n  0x40\n    /* \"#utility.yul\":3478:3500   */\n  mstore\n    /* \"#utility.yul\":3268:3506   */\n  pop\n    /* \"#utility.yul\":3225:3506   */\n  pop\n  pop\n  jump\t// out\n    /* \"#utility.yul\":3512:3692   */\ntag_78:\n    /* \"#utility.yul\":3560:3637   */\n  0x4e487b7100000000000000000000000000000000000000000000000000000000\n    /* \"#utility.yul\":3557:3558   */\n  0x00\n    /* \"#utility.yul\":3550:3638   */\n  mstore\n    /* \"#utility.yul\":3657:3661   */\n  0x22\n    /* \"#utility.yul\":3654:3655   */\n  0x04\n    /* \"#utility.yul\":3647:3662   */\n  mstore\n    /* \"#utility.yul\":3681:3685   */\n  0x24\n    /* \"#utility.yul\":3678:3679   */\n  0x00\n    /* \"#utility.yul\":3671:3686   */\n  revert\n    /* \"#utility.yul\":3698:3878   */\ntag_64:\n    /* \"#utility.yul\":3746:3823   */\n  0x4e487b7100000000000000000000000000000000000000000000000000000000\n    /* \"#utility.yul\":3743:3744   */\n  0x00\n    /* \"#utility.yul\":3736:3824   */\n  mstore\n    /* \"#utility.yul\":3843:3847   */\n  0x41\n    /* \"#utility.yul\":3840:3841   */\n  0x04\n    /* \"#utility.yul\":3833:3848   */\n  mstore\n    /* \"#utility.yul\":3867:3871   */\n  0x24\n    /* \"#utility.yul\":3864:3865   */\n  0x00\n    /* \"#utility.yul\":3857:3872   */\n  revert\n    /* \"#utility.yul\":3884:4001   */\ntag_37:\n    /* \"#utility.yul\":3993:3994   */\n  0x00\n    /* \"#utility.yul\":3990:3991   */\n  dup1\n    /* \"#utility.yul\":3983:3995   */\n  revert\n    /* \"#utility.yul\":4007:4124   */\ntag_30:\n    /* \"#utility.yul\":4116:4117   */\n  0x00\n    /* \"#utility.yul\":4113:4114   */\n  dup1\n    /* \"#utility.yul\":4106:4118   */\n  revert\n    /* \"#utility.yul\":4130:4247   */\ntag_49:\n    /* \"#utility.yul\":4239:4240   */\n  0x00\n    /* \"#utility.yul\":4236:4237   */\n  dup1\n    /* \"#utility.yul\":4229:4241   */\n  revert\n    /* \"#utility.yul\":4253:4370   */\ntag_46:\n    /* \"#utility.yul\":4362:4363   */\n  0x00\n    /* \"#utility.yul\":4359:4360   */\n  dup1\n    /* \"#utility.yul\":4352:4364   */\n  revert\n    /* \"#utility.yul\":4376:4478   */\ntag_66:\n    /* \"#utility.yul\":4417:4423   */\n  0x00\n    /* \"#utility.yul\":4468:4470   */\n  0x1f\n    /* \"#utility.yul\":4464:4471   */\n  not\n    /* \"#utility.yul\":4459:4461   */\n  0x1f\n    /* \"#utility.yul\":4452:4457   */\n  dup4\n    /* \"#utility.yul\":4448:4462   */\n  add\n    /* \"#utility.yul\":4444:4472   */\n  and\n    /* \"#utility.yul\":4434:4472   */\n  swap1\n  pop\n    /* \"#utility.yul\":4376:4478   */\n  swap2\n  swap1\n  pop\n  jump\t// out\n    /* \"#utility.yul\":4484:4606   */\ntag_42:\n    /* \"#utility.yul\":4557:4581   */\n  tag_91\n    /* \"#utility.yul\":4575:4580   */\n  dup2\n    /* \"#utility.yul\":4557:4581   */\n  tag_67\n  jump\t// in\ntag_91:\n    /* \"#utility.yul\":4550:4555   */\n  dup2\n    /* \"#utility.yul\":4547:4582   */\n  eq\n    /* \"#utility.yul\":4537:4600   */\n  tag_92\n  jumpi\n    /* \"#utility.yul\":4596:4597   */\n  0x00\n    /* \"#utility.yul\":4593:4594   */\n  dup1\n    /* \"#utility.yul\":4586:4598   */\n  revert\n    /* \"#utility.yul\":4537:4600   */\ntag_92:\n    /* \"#utility.yul\":4484:4606   */\n  pop\n  jump\t// out\n    /* \"contracts/4_Product.sol\":35:10703  contract ProductSC {\r... */\ntag_9:\n  dataSize(sub_0)\n  dup1\n  dataOffset(sub_0)\n  0x00\n  codecopy\n  0x00\n  return\nstop\n\nsub_0: assembly {\n        /* \"contracts/4_Product.sol\":35:10703  contract ProductSC {\r... */\n      mstore(0x40, 0x80)\n      jumpi(tag_1, lt(calldatasize, 0x04))\n      shr(0xe0, calldataload(0x00))\n      dup1\n      0xa0712d68\n      gt\n      tag_14\n      jumpi\n      dup1\n      0xa0712d68\n      eq\n      tag_8\n      jumpi\n      dup1\n      0xa3e67610\n      eq\n      tag_9\n      jumpi\n      dup1\n      0xa4821719\n      eq\n      tag_10\n      jumpi\n      dup1\n      0xb292abf1\n      eq\n      tag_11\n      jumpi\n      dup1\n      0xcd0c5896\n      eq\n      tag_12\n      jumpi\n      dup1\n      0xeedc966a\n      eq\n      tag_13\n      jumpi\n      jump(tag_1)\n    tag_14:\n      dup1\n      0x06fdde03\n      eq\n      tag_2\n      jumpi\n      dup1\n      0x40932fc2\n      eq\n      tag_3\n      jumpi\n      dup1\n      0x561e0e98\n      eq\n      tag_4\n      jumpi\n      dup1\n      0x68cdafe6\n      eq\n      tag_5\n      jumpi\n      dup1\n      0x95d89b41\n      eq\n      tag_6\n      jumpi\n      dup1\n      0x9dc29fac\n      eq\n      tag_7\n      jumpi\n    tag_1:\n      0x00\n      dup1\n      revert\n        /* \"contracts/4_Product.sol\":67:85  string public name */\n    tag_2:\n      callvalue\n      dup1\n      iszero\n      tag_15\n      jumpi\n      0x00\n      dup1\n      revert\n    tag_15:\n      pop\n      tag_16\n      tag_17\n      jump\t// in\n    tag_16:\n      mload(0x40)\n      tag_18\n      swap2\n      swap1\n      tag_19\n      jump\t// in\n    tag_18:\n      mload(0x40)\n      dup1\n      swap2\n      sub\n      swap1\n      return\n        /* \"contracts/4_Product.sol\":5914:6173  function register(address _addr, Role _role, string memory _name) public {\r... */\n    tag_3:\n      callvalue\n      dup1\n      iszero\n      tag_20\n      jumpi\n      0x00\n      dup1\n      revert\n    tag_20:\n      pop\n      tag_21\n      0x04\n      dup1\n      calldatasize\n      sub\n      dup2\n      add\n      swap1\n      tag_22\n      swap2\n      swap1\n      tag_23\n      jump\t// in\n    tag_22:\n      tag_24\n      jump\t// in\n    tag_21:\n      stop\n        /* \"contracts/4_Product.sol\":6292:7316  function produceProduct(uint256 _id, uint256 _timestamp, uint256 _price, string memory _name, string memory _brand, string memory _size, string memory _weight, string memory _length ,string memory _width ,string memory _height) public OnlyProducer{\r... */\n    tag_4:\n      callvalue\n      dup1\n      iszero\n      tag_25\n      jumpi\n      0x00\n      dup1\n      revert\n    tag_25:\n      pop\n      tag_26\n      0x04\n      dup1\n      calldatasize\n      sub\n      dup2\n      add\n      swap1\n      tag_27\n      swap2\n      swap1\n      tag_28\n      jump\t// in\n    tag_27:\n      tag_29\n      jump\t// in\n    tag_26:\n      stop\n        /* \"contracts/4_Product.sol\":5546:5902  function tokenTransfer(address _to, uint256 _amount) public returns (bool) {\r... */\n    tag_5:\n      callvalue\n      dup1\n      iszero\n      tag_30\n      jumpi\n      0x00\n      dup1\n      revert\n    tag_30:\n      pop\n      tag_31\n      0x04\n      dup1\n      calldatasize\n      sub\n      dup2\n      add\n      swap1\n      tag_32\n      swap2\n      swap1\n      tag_33\n      jump\t// in\n    tag_32:\n      tag_34\n      jump\t// in\n    tag_31:\n      mload(0x40)\n      tag_35\n      swap2\n      swap1\n      tag_36\n      jump\t// in\n    tag_35:\n      mload(0x40)\n      dup1\n      swap2\n      sub\n      swap1\n      return\n        /* \"contracts/4_Product.sol\":114:134  string public symbol */\n    tag_6:\n      callvalue\n      dup1\n      iszero\n      tag_37\n      jumpi\n      0x00\n      dup1\n      revert\n    tag_37:\n      pop\n      tag_38\n      tag_39\n      jump\t// in\n    tag_38:\n      mload(0x40)\n      tag_40\n      swap2\n      swap1\n      tag_19\n      jump\t// in\n    tag_40:\n      mload(0x40)\n      dup1\n      swap2\n      sub\n      swap1\n      return\n        /* \"contracts/4_Product.sol\":4500:4917  function burn(address _account, uint256 _amount) public OnlyTokenOwner {\r... */\n    tag_7:\n      callvalue\n      dup1\n      iszero\n      tag_41\n      jumpi\n      0x00\n      dup1\n      revert\n    tag_41:\n      pop\n      tag_42\n      0x04\n      dup1\n      calldatasize\n      sub\n      dup2\n      add\n      swap1\n      tag_43\n      swap2\n      swap1\n      tag_33\n      jump\t// in\n    tag_43:\n      tag_44\n      jump\t// in\n    tag_42:\n      stop\n        /* \"contracts/4_Product.sol\":4121:4343  function mint(uint256 _amount) public OnlyTokenOwner {\r... */\n    tag_8:\n      callvalue\n      dup1\n      iszero\n      tag_45\n      jumpi\n      0x00\n      dup1\n      revert\n    tag_45:\n      pop\n      tag_46\n      0x04\n      dup1\n      calldatasize\n      sub\n      dup2\n      add\n      swap1\n      tag_47\n      swap2\n      swap1\n      tag_48\n      jump\t// in\n    tag_47:\n      tag_49\n      jump\t// in\n    tag_46:\n      stop\n        /* \"contracts/4_Product.sol\":165:199  address payable public  tokenOwner */\n    tag_9:\n      callvalue\n      dup1\n      iszero\n      tag_50\n      jumpi\n      0x00\n      dup1\n      revert\n    tag_50:\n      pop\n      tag_51\n      tag_52\n      jump\t// in\n    tag_51:\n      mload(0x40)\n      tag_53\n      swap2\n      swap1\n      tag_54\n      jump\t// in\n    tag_53:\n      mload(0x40)\n      dup1\n      swap2\n      sub\n      swap1\n      return\n        /* \"contracts/4_Product.sol\":4975:5472  function buyToken() public payable {\r... */\n    tag_10:\n      tag_55\n      tag_56\n      jump\t// in\n    tag_55:\n      stop\n        /* \"contracts/4_Product.sol\":10522:10698  function getActorInfo(address _addr) public view returns\r... */\n    tag_11:\n      callvalue\n      dup1\n      iszero\n      tag_57\n      jumpi\n      0x00\n      dup1\n      revert\n    tag_57:\n      pop\n      tag_58\n      0x04\n      dup1\n      calldatasize\n      sub\n      dup2\n      add\n      swap1\n      tag_59\n      swap2\n      swap1\n      tag_60\n      jump\t// in\n    tag_59:\n      tag_61\n      jump\t// in\n    tag_58:\n      mload(0x40)\n      tag_62\n      swap3\n      swap2\n      swap1\n      tag_63\n      jump\t// in\n    tag_62:\n      mload(0x40)\n      dup1\n      swap2\n      sub\n      swap1\n      return\n        /* \"contracts/4_Product.sol\":3899:4005  function etherBalance(address _addr) public view returns (uint256) {\r... */\n    tag_12:\n      callvalue\n      dup1\n      iszero\n      tag_64\n      jumpi\n      0x00\n      dup1\n      revert\n    tag_64:\n      pop\n      tag_65\n      0x04\n      dup1\n      calldatasize\n      sub\n      dup2\n      add\n      swap1\n      tag_66\n      swap2\n      swap1\n      tag_60\n      jump\t// in\n    tag_66:\n      tag_67\n      jump\t// in\n    tag_65:\n      mload(0x40)\n      tag_68\n      swap2\n      swap1\n      tag_69\n      jump\t// in\n    tag_68:\n      mload(0x40)\n      dup1\n      swap2\n      sub\n      swap1\n      return\n        /* \"contracts/4_Product.sol\":3725:3833  function tokenBalance(address _addr) public view returns (uint256) {\r... */\n    tag_13:\n      callvalue\n      dup1\n      iszero\n      tag_70\n      jumpi\n      0x00\n      dup1\n      revert\n    tag_70:\n      pop\n      tag_71\n      0x04\n      dup1\n      calldatasize\n      sub\n      dup2\n      add\n      swap1\n      tag_72\n      swap2\n      swap1\n      tag_60\n      jump\t// in\n    tag_72:\n      tag_73\n      jump\t// in\n    tag_71:\n      mload(0x40)\n      tag_74\n      swap2\n      swap1\n      tag_69\n      jump\t// in\n    tag_74:\n      mload(0x40)\n      dup1\n      swap2\n      sub\n      swap1\n      return\n        /* \"contracts/4_Product.sol\":67:85  string public name */\n    tag_17:\n      0x00\n      dup1\n      sload\n      tag_75\n      swap1\n      tag_76\n      jump\t// in\n    tag_75:\n      dup1\n      0x1f\n      add\n      0x20\n      dup1\n      swap2\n      div\n      mul\n      0x20\n      add\n      mload(0x40)\n      swap1\n      dup2\n      add\n      0x40\n      mstore\n      dup1\n      swap3\n      swap2\n      swap1\n      dup2\n      dup2\n      mstore\n      0x20\n      add\n      dup3\n      dup1\n      sload\n      tag_77\n      swap1\n      tag_76\n      jump\t// in\n    tag_77:\n      dup1\n      iszero\n      tag_78\n      jumpi\n      dup1\n      0x1f\n      lt\n      tag_79\n      jumpi\n      0x0100\n      dup1\n      dup4\n      sload\n      div\n      mul\n      dup4\n      mstore\n      swap2\n      0x20\n      add\n      swap2\n      jump(tag_78)\n    tag_79:\n      dup3\n      add\n      swap2\n      swap1\n      0x00\n      mstore\n      keccak256(0x00, 0x20)\n      swap1\n    tag_80:\n      dup2\n      sload\n      dup2\n      mstore\n      swap1\n      0x01\n      add\n      swap1\n      0x20\n      add\n      dup1\n      dup4\n      gt\n      tag_80\n      jumpi\n      dup3\n      swap1\n      sub\n      0x1f\n      and\n      dup3\n      add\n      swap2\n    tag_78:\n      pop\n      pop\n      pop\n      pop\n      pop\n      dup2\n      jump\t// out\n        /* \"contracts/4_Product.sol\":5914:6173  function register(address _addr, Role _role, string memory _name) public {\r... */\n    tag_24:\n        /* \"contracts/4_Product.sol\":5998:6016  Actor memory actor */\n      0x00\n        /* \"contracts/4_Product.sol\":6019:6025  actors */\n      0x05\n        /* \"contracts/4_Product.sol\":6019:6032  actors[_addr] */\n      0x00\n        /* \"contracts/4_Product.sol\":6026:6031  _addr */\n      dup6\n        /* \"contracts/4_Product.sol\":6019:6032  actors[_addr] */\n      0xffffffffffffffffffffffffffffffffffffffff\n      and\n      0xffffffffffffffffffffffffffffffffffffffff\n      and\n      dup2\n      mstore\n      0x20\n      add\n      swap1\n      dup2\n      mstore\n      0x20\n      add\n      0x00\n      keccak256\n        /* \"contracts/4_Product.sol\":5998:6032  Actor memory actor = actors[_addr] */\n      mload(0x40)\n      dup1\n      0x60\n      add\n      0x40\n      mstore\n      swap1\n      dup2\n      0x00\n      dup3\n      add\n      0x00\n      swap1\n      sload\n      swap1\n      0x0100\n      exp\n      swap1\n      div\n      0xff\n      and\n      0x04\n      dup2\n      gt\n      iszero\n      tag_82\n      jumpi\n      tag_83\n      tag_84\n      jump\t// in\n    tag_83:\n    tag_82:\n      0x04\n      dup2\n      gt\n      iszero\n      tag_85\n      jumpi\n      tag_86\n      tag_84\n      jump\t// in\n    tag_86:\n    tag_85:\n      dup2\n      mstore\n      0x20\n      add\n      0x01\n      dup3\n      add\n      dup1\n      sload\n      tag_87\n      swap1\n      tag_76\n      jump\t// in\n    tag_87:\n      dup1\n      0x1f\n      add\n      0x20\n      dup1\n      swap2\n      div\n      mul\n      0x20\n      add\n      mload(0x40)\n      swap1\n      dup2\n      add\n      0x40\n      mstore\n      dup1\n      swap3\n      swap2\n      swap1\n      dup2\n      dup2\n      mstore\n      0x20\n      add\n      dup3\n      dup1\n      sload\n      tag_88\n      swap1\n      tag_76\n      jump\t// in\n    tag_88:\n      dup1\n      iszero\n      tag_89\n      jumpi\n      dup1\n      0x1f\n      lt\n      tag_90\n      jumpi\n      0x0100\n      dup1\n      dup4\n      sload\n      div\n      mul\n      dup4\n      mstore\n      swap2\n      0x20\n      add\n      swap2\n      jump(tag_89)\n    tag_90:\n      dup3\n      add\n      swap2\n      swap1\n      0x00\n      mstore\n      keccak256(0x00, 0x20)\n      swap1\n    tag_91:\n      dup2\n      sload\n      dup2\n      mstore\n      swap1\n      0x01\n      add\n      swap1\n      0x20\n      add\n      dup1\n      dup4\n      gt\n      tag_91\n      jumpi\n      dup3\n      swap1\n      sub\n      0x1f\n      and\n      dup3\n      add\n      swap2\n    tag_89:\n      pop\n      pop\n      pop\n      pop\n      pop\n      dup2\n      mstore\n      0x20\n      add\n      0x02\n      dup3\n      add\n      0x00\n      swap1\n      sload\n      swap1\n      0x0100\n      exp\n      swap1\n      div\n      0xff\n      and\n      iszero\n      iszero\n      iszero\n      iszero\n      dup2\n      mstore\n      pop\n      pop\n      swap1\n      pop\n        /* \"contracts/4_Product.sol\":6056:6061  _role */\n      dup3\n        /* \"contracts/4_Product.sol\":6043:6048  actor */\n      dup2\n        /* \"contracts/4_Product.sol\":6043:6053  actor.role */\n      0x00\n      add\n        /* \"contracts/4_Product.sol\":6043:6061  actor.role = _role */\n      swap1\n      0x04\n      dup2\n      gt\n      iszero\n      tag_92\n      jumpi\n      tag_93\n      tag_84\n      jump\t// in\n    tag_93:\n    tag_92:\n      swap1\n      dup2\n      0x04\n      dup2\n      gt\n      iszero\n      tag_94\n      jumpi\n      tag_95\n      tag_84\n      jump\t// in\n    tag_95:\n    tag_94:\n      dup2\n      mstore\n      pop\n      pop\n        /* \"contracts/4_Product.sol\":6085:6090  _name */\n      dup2\n        /* \"contracts/4_Product.sol\":6072:6077  actor */\n      dup2\n        /* \"contracts/4_Product.sol\":6072:6082  actor.name */\n      0x20\n      add\n        /* \"contracts/4_Product.sol\":6072:6090  actor.name = _name */\n      dup2\n      swap1\n      mstore\n      pop\n        /* \"contracts/4_Product.sol\":6119:6123  true */\n      0x01\n        /* \"contracts/4_Product.sol\":6101:6106  actor */\n      dup2\n        /* \"contracts/4_Product.sol\":6101:6116  actor.isDefined */\n      0x40\n      add\n        /* \"contracts/4_Product.sol\":6101:6123  actor.isDefined = true */\n      swap1\n      iszero\n      iszero\n      swap1\n      dup2\n      iszero\n      iszero\n      dup2\n      mstore\n      pop\n      pop\n        /* \"contracts/4_Product.sol\":6150:6155  actor */\n      dup1\n        /* \"contracts/4_Product.sol\":6134:6140  actors */\n      0x05\n        /* \"contracts/4_Product.sol\":6134:6147  actors[_addr] */\n      0x00\n        /* \"contracts/4_Product.sol\":6141:6146  _addr */\n      dup7\n        /* \"contracts/4_Product.sol\":6134:6147  actors[_addr] */\n      0xffffffffffffffffffffffffffffffffffffffff\n      and\n      0xffffffffffffffffffffffffffffffffffffffff\n      and\n      dup2\n      mstore\n      0x20\n      add\n      swap1\n      dup2\n      mstore\n      0x20\n      add\n      0x00\n      keccak256\n        /* \"contracts/4_Product.sol\":6134:6155  actors[_addr] = actor */\n      0x00\n      dup3\n      add\n      mload\n      dup2\n      0x00\n      add\n      exp(0x0100, 0x00)\n      dup2\n      sload\n      dup2\n      0xff\n      mul\n      not\n      and\n      swap1\n      dup4\n      0x04\n      dup2\n      gt\n      iszero\n      tag_96\n      jumpi\n      tag_97\n      tag_84\n      jump\t// in\n    tag_97:\n    tag_96:\n      mul\n      or\n      swap1\n      sstore\n      pop\n      0x20\n      dup3\n      add\n      mload\n      dup2\n      0x01\n      add\n      swap1\n      dup1\n      mload\n      swap1\n      0x20\n      add\n      swap1\n      tag_98\n      swap3\n      swap2\n      swap1\n      tag_99\n      jump\t// in\n    tag_98:\n      pop\n      0x40\n      dup3\n      add\n      mload\n      dup2\n      0x02\n      add\n      exp(0x0100, 0x00)\n      dup2\n      sload\n      dup2\n      0xff\n      mul\n      not\n      and\n      swap1\n      dup4\n      iszero\n      iszero\n      mul\n      or\n      swap1\n      sstore\n      pop\n      swap1\n      pop\n      pop\n        /* \"contracts/4_Product.sol\":5987:6173  {\r... */\n      pop\n        /* \"contracts/4_Product.sol\":5914:6173  function register(address _addr, Role _role, string memory _name) public {\r... */\n      pop\n      pop\n      pop\n      jump\t// out\n        /* \"contracts/4_Product.sol\":6292:7316  function produceProduct(uint256 _id, uint256 _timestamp, uint256 _price, string memory _name, string memory _brand, string memory _size, string memory _weight, string memory _length ,string memory _width ,string memory _height) public OnlyProducer{\r... */\n    tag_29:\n        /* \"contracts/4_Product.sol\":2867:2880  Role.Producer */\n      0x00\n        /* \"contracts/4_Product.sol\":2840:2880  actors[msg.sender].role == Role.Producer */\n      0x04\n      dup2\n      gt\n      iszero\n      tag_101\n      jumpi\n      tag_102\n      tag_84\n      jump\t// in\n    tag_102:\n    tag_101:\n        /* \"contracts/4_Product.sol\":2840:2846  actors */\n      0x05\n        /* \"contracts/4_Product.sol\":2840:2858  actors[msg.sender] */\n      0x00\n        /* \"contracts/4_Product.sol\":2847:2857  msg.sender */\n      caller\n        /* \"contracts/4_Product.sol\":2840:2858  actors[msg.sender] */\n      0xffffffffffffffffffffffffffffffffffffffff\n      and\n      0xffffffffffffffffffffffffffffffffffffffff\n      and\n      dup2\n      mstore\n      0x20\n      add\n      swap1\n      dup2\n      mstore\n      0x20\n      add\n      0x00\n      keccak256\n        /* \"contracts/4_Product.sol\":2840:2863  actors[msg.sender].role */\n      0x00\n      add\n      0x00\n      swap1\n      sload\n      swap1\n      0x0100\n      exp\n      swap1\n      div\n      0xff\n      and\n        /* \"contracts/4_Product.sol\":2840:2880  actors[msg.sender].role == Role.Producer */\n      0x04\n      dup2\n      gt\n      iszero\n      tag_103\n      jumpi\n      tag_104\n      tag_84\n      jump\t// in\n    tag_104:\n    tag_103:\n      eq\n        /* \"contracts/4_Product.sol\":2832:2909  require(actors[msg.sender].role == Role.Producer,'caller is not a producer.') */\n      tag_105\n      jumpi\n      mload(0x40)\n      0x08c379a000000000000000000000000000000000000000000000000000000000\n      dup2\n      mstore\n      0x04\n      add\n      tag_106\n      swap1\n      tag_107\n      jump\t// in\n    tag_106:\n      mload(0x40)\n      dup1\n      swap2\n      sub\n      swap1\n      revert\n    tag_105:\n        /* \"contracts/4_Product.sol\":6550:6576  Product storage newProduct */\n      0x00\n        /* \"contracts/4_Product.sol\":6579:6586  product */\n      0x06\n        /* \"contracts/4_Product.sol\":6579:6591  product[_id] */\n      0x00\n        /* \"contracts/4_Product.sol\":6587:6590  _id */\n      dup13\n        /* \"contracts/4_Product.sol\":6579:6591  product[_id] */\n      dup2\n      mstore\n      0x20\n      add\n      swap1\n      dup2\n      mstore\n      0x20\n      add\n      0x00\n      keccak256\n        /* \"contracts/4_Product.sol\":6550:6591  Product storage newProduct = product[_id] */\n      swap1\n      pop\n        /* \"contracts/4_Product.sol\":6618:6621  _id */\n      dup11\n        /* \"contracts/4_Product.sol\":6602:6612  newProduct */\n      dup2\n        /* \"contracts/4_Product.sol\":6602:6615  newProduct.ID */\n      0x00\n      add\n        /* \"contracts/4_Product.sol\":6602:6621  newProduct.ID = _id */\n      dup2\n      swap1\n      sstore\n      pop\n        /* \"contracts/4_Product.sol\":6653:6663  msg.sender */\n      caller\n        /* \"contracts/4_Product.sol\":6632:6642  newProduct */\n      dup2\n        /* \"contracts/4_Product.sol\":6632:6650  newProduct.ownerID */\n      0x01\n      add\n      0x00\n        /* \"contracts/4_Product.sol\":6632:6663  newProduct.ownerID = msg.sender */\n      0x0100\n      exp\n      dup2\n      sload\n      dup2\n      0xffffffffffffffffffffffffffffffffffffffff\n      mul\n      not\n      and\n      swap1\n      dup4\n      0xffffffffffffffffffffffffffffffffffffffff\n      and\n      mul\n      or\n      swap1\n      sstore\n      pop\n        /* \"contracts/4_Product.sol\":6698:6708  msg.sender */\n      caller\n        /* \"contracts/4_Product.sol\":6674:6684  newProduct */\n      dup2\n        /* \"contracts/4_Product.sol\":6674:6695  newProduct.producerID */\n      0x02\n      add\n      0x00\n        /* \"contracts/4_Product.sol\":6674:6708  newProduct.producerID = msg.sender */\n      0x0100\n      exp\n      dup2\n      sload\n      dup2\n      0xffffffffffffffffffffffffffffffffffffffff\n      mul\n      not\n      and\n      swap1\n      dup4\n      0xffffffffffffffffffffffffffffffffffffffff\n      and\n      mul\n      or\n      swap1\n      sstore\n      pop\n        /* \"contracts/4_Product.sol\":6745:6755  _timestamp */\n      dup10\n        /* \"contracts/4_Product.sol\":6719:6729  newProduct */\n      dup2\n        /* \"contracts/4_Product.sol\":6719:6739  newProduct.timestamp */\n      0x03\n      add\n        /* \"contracts/4_Product.sol\":6740:6741  0 */\n      0x00\n        /* \"contracts/4_Product.sol\":6719:6742  newProduct.timestamp[0] */\n      0x04\n      dup2\n      lt\n      tag_109\n      jumpi\n      tag_110\n      tag_111\n      jump\t// in\n    tag_110:\n    tag_109:\n      add\n        /* \"contracts/4_Product.sol\":6719:6755  newProduct.timestamp[0] = _timestamp */\n      dup2\n      swap1\n      sstore\n      pop\n        /* \"contracts/4_Product.sol\":6799:6813  State.Produced */\n      0x00\n        /* \"contracts/4_Product.sol\":6774:6784  newProduct */\n      dup2\n        /* \"contracts/4_Product.sol\":6774:6797  newProduct.productState */\n      0x07\n      add\n      0x00\n        /* \"contracts/4_Product.sol\":6774:6813  newProduct.productState= State.Produced */\n      0x0100\n      exp\n      dup2\n      sload\n      dup2\n      0xff\n      mul\n      not\n      and\n      swap1\n      dup4\n      0x05\n      dup2\n      gt\n      iszero\n      tag_113\n      jumpi\n      tag_114\n      tag_84\n      jump\t// in\n    tag_114:\n    tag_113:\n      mul\n      or\n      swap1\n      sstore\n      pop\n        /* \"contracts/4_Product.sol\":6856:6862  _price */\n      dup9\n        /* \"contracts/4_Product.sol\":6832:6842  newProduct */\n      dup2\n        /* \"contracts/4_Product.sol\":6832:6855  newProduct.productPrice */\n      0x08\n      add\n        /* \"contracts/4_Product.sol\":6832:6862  newProduct.productPrice=_price */\n      dup2\n      swap1\n      sstore\n      pop\n        /* \"contracts/4_Product.sol\":6907:6908  0 */\n      0x00\n        /* \"contracts/4_Product.sol\":6874:6884  newProduct */\n      dup2\n        /* \"contracts/4_Product.sol\":6874:6898  newProduct.distributorID */\n      0x09\n      add\n      0x00\n        /* \"contracts/4_Product.sol\":6874:6909  newProduct.distributorID=address(0) */\n      0x0100\n      exp\n      dup2\n      sload\n      dup2\n      0xffffffffffffffffffffffffffffffffffffffff\n      mul\n      not\n      and\n      swap1\n      dup4\n      0xffffffffffffffffffffffffffffffffffffffff\n      and\n      mul\n      or\n      swap1\n      sstore\n      pop\n        /* \"contracts/4_Product.sol\":6950:6951  0 */\n      0x00\n        /* \"contracts/4_Product.sol\":6920:6930  newProduct */\n      dup2\n        /* \"contracts/4_Product.sol\":6920:6941  newProduct.retailerID */\n      0x0a\n      add\n      0x00\n        /* \"contracts/4_Product.sol\":6920:6952  newProduct.retailerID=address(0) */\n      0x0100\n      exp\n      dup2\n      sload\n      dup2\n      0xffffffffffffffffffffffffffffffffffffffff\n      mul\n      not\n      and\n      swap1\n      dup4\n      0xffffffffffffffffffffffffffffffffffffffff\n      and\n      mul\n      or\n      swap1\n      sstore\n      pop\n        /* \"contracts/4_Product.sol\":6993:6994  0 */\n      0x00\n        /* \"contracts/4_Product.sol\":6963:6973  newProduct */\n      dup2\n        /* \"contracts/4_Product.sol\":6963:6984  newProduct.consumerID */\n      0x0b\n      add\n      0x00\n        /* \"contracts/4_Product.sol\":6963:6995  newProduct.consumerID=address(0) */\n      0x0100\n      exp\n      dup2\n      sload\n      dup2\n      0xffffffffffffffffffffffffffffffffffffffff\n      mul\n      not\n      and\n      swap1\n      dup4\n      0xffffffffffffffffffffffffffffffffffffffff\n      and\n      mul\n      or\n      swap1\n      sstore\n      pop\n        /* \"contracts/4_Product.sol\":7032:7037  _name */\n      dup8\n        /* \"contracts/4_Product.sol\":7006:7016  newProduct */\n      dup2\n        /* \"contracts/4_Product.sol\":7006:7024  newProduct.details */\n      0x0c\n      add\n        /* \"contracts/4_Product.sol\":7006:7029  newProduct.details.name */\n      0x00\n      add\n        /* \"contracts/4_Product.sol\":7006:7037  newProduct.details.name = _name */\n      swap1\n      dup1\n      mload\n      swap1\n      0x20\n      add\n      swap1\n      tag_115\n      swap3\n      swap2\n      swap1\n      tag_99\n      jump\t// in\n    tag_115:\n      pop\n        /* \"contracts/4_Product.sol\":7074:7080  _brand */\n      dup7\n        /* \"contracts/4_Product.sol\":7048:7058  newProduct */\n      dup2\n        /* \"contracts/4_Product.sol\":7048:7066  newProduct.details */\n      0x0c\n      add\n        /* \"contracts/4_Product.sol\":7048:7072  newProduct.details.brand */\n      0x01\n      add\n        /* \"contracts/4_Product.sol\":7048:7080  newProduct.details.brand= _brand */\n      swap1\n      dup1\n      mload\n      swap1\n      0x20\n      add\n      swap1\n      tag_116\n      swap3\n      swap2\n      swap1\n      tag_99\n      jump\t// in\n    tag_116:\n      pop\n        /* \"contracts/4_Product.sol\":7117:7122  _size */\n      dup6\n        /* \"contracts/4_Product.sol\":7091:7101  newProduct */\n      dup2\n        /* \"contracts/4_Product.sol\":7091:7109  newProduct.details */\n      0x0c\n      add\n        /* \"contracts/4_Product.sol\":7091:7114  newProduct.details.size */\n      0x02\n      add\n        /* \"contracts/4_Product.sol\":7091:7122  newProduct.details.size = _size */\n      swap1\n      dup1\n      mload\n      swap1\n      0x20\n      add\n      swap1\n      tag_117\n      swap3\n      swap2\n      swap1\n      tag_99\n      jump\t// in\n    tag_117:\n      pop\n        /* \"contracts/4_Product.sol\":7161:7168  _weight */\n      dup5\n        /* \"contracts/4_Product.sol\":7133:7143  newProduct */\n      dup2\n        /* \"contracts/4_Product.sol\":7133:7151  newProduct.details */\n      0x0c\n      add\n        /* \"contracts/4_Product.sol\":7133:7158  newProduct.details.weight */\n      0x03\n      add\n        /* \"contracts/4_Product.sol\":7133:7168  newProduct.details.weight = _weight */\n      swap1\n      dup1\n      mload\n      swap1\n      0x20\n      add\n      swap1\n      tag_118\n      swap3\n      swap2\n      swap1\n      tag_99\n      jump\t// in\n    tag_118:\n      pop\n        /* \"contracts/4_Product.sol\":7207:7214  _length */\n      dup4\n        /* \"contracts/4_Product.sol\":7179:7189  newProduct */\n      dup2\n        /* \"contracts/4_Product.sol\":7179:7197  newProduct.details */\n      0x0c\n      add\n        /* \"contracts/4_Product.sol\":7179:7204  newProduct.details.length */\n      0x04\n      add\n        /* \"contracts/4_Product.sol\":7179:7214  newProduct.details.length = _length */\n      swap1\n      dup1\n      mload\n      swap1\n      0x20\n      add\n      swap1\n      tag_119\n      swap3\n      swap2\n      swap1\n      tag_99\n      jump\t// in\n    tag_119:\n      pop\n        /* \"contracts/4_Product.sol\":7254:7260  _width */\n      dup3\n        /* \"contracts/4_Product.sol\":7227:7237  newProduct */\n      dup2\n        /* \"contracts/4_Product.sol\":7227:7245  newProduct.details */\n      0x0c\n      add\n        /* \"contracts/4_Product.sol\":7227:7251  newProduct.details.width */\n      0x05\n      add\n        /* \"contracts/4_Product.sol\":7227:7260  newProduct.details.width = _width */\n      swap1\n      dup1\n      mload\n      swap1\n      0x20\n      add\n      swap1\n      tag_120\n      swap3\n      swap2\n      swap1\n      tag_99\n      jump\t// in\n    tag_120:\n      pop\n        /* \"contracts/4_Product.sol\":7301:7308  _height */\n      dup2\n        /* \"contracts/4_Product.sol\":7273:7283  newProduct */\n      dup2\n        /* \"contracts/4_Product.sol\":7273:7291  newProduct.details */\n      0x0c\n      add\n        /* \"contracts/4_Product.sol\":7273:7298  newProduct.details.height */\n      0x06\n      add\n        /* \"contracts/4_Product.sol\":7273:7308  newProduct.details.height = _height */\n      swap1\n      dup1\n      mload\n      swap1\n      0x20\n      add\n      swap1\n      tag_121\n      swap3\n      swap2\n      swap1\n      tag_99\n      jump\t// in\n    tag_121:\n      pop\n        /* \"contracts/4_Product.sol\":6539:7316  {\r... */\n      pop\n        /* \"contracts/4_Product.sol\":6292:7316  function produceProduct(uint256 _id, uint256 _timestamp, uint256 _price, string memory _name, string memory _brand, string memory _size, string memory _weight, string memory _length ,string memory _width ,string memory _height) public OnlyProducer{\r... */\n      pop\n      pop\n      pop\n      pop\n      pop\n      pop\n      pop\n      pop\n      pop\n      pop\n      jump\t// out\n        /* \"contracts/4_Product.sol\":5546:5902  function tokenTransfer(address _to, uint256 _amount) public returns (bool) {\r... */\n    tag_34:\n        /* \"contracts/4_Product.sol\":5615:5619  bool */\n      0x00\n        /* \"contracts/4_Product.sol\":5664:5671  _amount */\n      dup2\n        /* \"contracts/4_Product.sol\":5640:5648  balances */\n      0x04\n        /* \"contracts/4_Product.sol\":5640:5660  balances[msg.sender] */\n      0x00\n        /* \"contracts/4_Product.sol\":5649:5659  msg.sender */\n      caller\n        /* \"contracts/4_Product.sol\":5640:5660  balances[msg.sender] */\n      0xffffffffffffffffffffffffffffffffffffffff\n      and\n      0xffffffffffffffffffffffffffffffffffffffff\n      and\n      dup2\n      mstore\n      0x20\n      add\n      swap1\n      dup2\n      mstore\n      0x20\n      add\n      0x00\n      keccak256\n      sload\n        /* \"contracts/4_Product.sol\":5640:5671  balances[msg.sender] >= _amount */\n      lt\n      iszero\n        /* \"contracts/4_Product.sol\":5632:5672  require(balances[msg.sender] >= _amount) */\n      tag_123\n      jumpi\n      0x00\n      dup1\n      revert\n    tag_123:\n        /* \"contracts/4_Product.sol\":5782:5783  0 */\n      0x00\n        /* \"contracts/4_Product.sol\":5767:5784  _to != address(0) */\n      0xffffffffffffffffffffffffffffffffffffffff\n      and\n        /* \"contracts/4_Product.sol\":5767:5770  _to */\n      dup4\n        /* \"contracts/4_Product.sol\":5767:5784  _to != address(0) */\n      0xffffffffffffffffffffffffffffffffffffffff\n      and\n      eq\n      iszero\n        /* \"contracts/4_Product.sol\":5759:5785  require(_to != address(0)) */\n      tag_124\n      jumpi\n      0x00\n      dup1\n      revert\n    tag_124:\n        /* \"contracts/4_Product.sol\":5830:5837  _amount */\n      dup2\n        /* \"contracts/4_Product.sol\":5806:5814  balances */\n      0x04\n        /* \"contracts/4_Product.sol\":5806:5826  balances[msg.sender] */\n      0x00\n        /* \"contracts/4_Product.sol\":5815:5825  msg.sender */\n      caller\n        /* \"contracts/4_Product.sol\":5806:5826  balances[msg.sender] */\n      0xffffffffffffffffffffffffffffffffffffffff\n      and\n      0xffffffffffffffffffffffffffffffffffffffff\n      and\n      dup2\n      mstore\n      0x20\n      add\n      swap1\n      dup2\n      mstore\n      0x20\n      add\n      0x00\n      keccak256\n      0x00\n        /* \"contracts/4_Product.sol\":5806:5837  balances[msg.sender] -= _amount */\n      dup3\n      dup3\n      sload\n      tag_125\n      swap2\n      swap1\n      tag_126\n      jump\t// in\n    tag_125:\n      swap3\n      pop\n      pop\n      dup2\n      swap1\n      sstore\n      pop\n        /* \"contracts/4_Product.sol\":5865:5872  _amount */\n      dup2\n        /* \"contracts/4_Product.sol\":5848:5856  balances */\n      0x04\n        /* \"contracts/4_Product.sol\":5848:5861  balances[_to] */\n      0x00\n        /* \"contracts/4_Product.sol\":5857:5860  _to */\n      dup6\n        /* \"contracts/4_Product.sol\":5848:5861  balances[_to] */\n      0xffffffffffffffffffffffffffffffffffffffff\n      and\n      0xffffffffffffffffffffffffffffffffffffffff\n      and\n      dup2\n      mstore\n      0x20\n      add\n      swap1\n      dup2\n      mstore\n      0x20\n      add\n      0x00\n      keccak256\n      0x00\n        /* \"contracts/4_Product.sol\":5848:5872  balances[_to] += _amount */\n      dup3\n      dup3\n      sload\n      tag_127\n      swap2\n      swap1\n      tag_128\n      jump\t// in\n    tag_127:\n      swap3\n      pop\n      pop\n      dup2\n      swap1\n      sstore\n      pop\n        /* \"contracts/4_Product.sol\":5890:5894  true */\n      0x01\n        /* \"contracts/4_Product.sol\":5883:5894  return true */\n      swap1\n      pop\n        /* \"contracts/4_Product.sol\":5546:5902  function tokenTransfer(address _to, uint256 _amount) public returns (bool) {\r... */\n      swap3\n      swap2\n      pop\n      pop\n      jump\t// out\n        /* \"contracts/4_Product.sol\":114:134  string public symbol */\n    tag_39:\n      0x01\n      dup1\n      sload\n      tag_129\n      swap1\n      tag_76\n      jump\t// in\n    tag_129:\n      dup1\n      0x1f\n      add\n      0x20\n      dup1\n      swap2\n      div\n      mul\n      0x20\n      add\n      mload(0x40)\n      swap1\n      dup2\n      add\n      0x40\n      mstore\n      dup1\n      swap3\n      swap2\n      swap1\n      dup2\n      dup2\n      mstore\n      0x20\n      add\n      dup3\n      dup1\n      sload\n      tag_130\n      swap1\n      tag_76\n      jump\t// in\n    tag_130:\n      dup1\n      iszero\n      tag_131\n      jumpi\n      dup1\n      0x1f\n      lt\n      tag_132\n      jumpi\n      0x0100\n      dup1\n      dup4\n      sload\n      div\n      mul\n      dup4\n      mstore\n      swap2\n      0x20\n      add\n      swap2\n      jump(tag_131)\n    tag_132:\n      dup3\n      add\n      swap2\n      swap1\n      0x00\n      mstore\n      keccak256(0x00, 0x20)\n      swap1\n    tag_133:\n      dup2\n      sload\n      dup2\n      mstore\n      swap1\n      0x01\n      add\n      swap1\n      0x20\n      add\n      dup1\n      dup4\n      gt\n      tag_133\n      jumpi\n      dup3\n      swap1\n      sub\n      0x1f\n      and\n      dup3\n      add\n      swap2\n    tag_131:\n      pop\n      pop\n      pop\n      pop\n      pop\n      dup2\n      jump\t// out\n        /* \"contracts/4_Product.sol\":4500:4917  function burn(address _account, uint256 _amount) public OnlyTokenOwner {\r... */\n    tag_44:\n        /* \"contracts/4_Product.sol\":2720:2730  tokenOwner */\n      0x02\n      0x00\n      swap1\n      sload\n      swap1\n      0x0100\n      exp\n      swap1\n      div\n      0xffffffffffffffffffffffffffffffffffffffff\n      and\n        /* \"contracts/4_Product.sol\":2706:2730  msg.sender == tokenOwner */\n      0xffffffffffffffffffffffffffffffffffffffff\n      and\n        /* \"contracts/4_Product.sol\":2706:2716  msg.sender */\n      caller\n        /* \"contracts/4_Product.sol\":2706:2730  msg.sender == tokenOwner */\n      0xffffffffffffffffffffffffffffffffffffffff\n      and\n      eq\n        /* \"contracts/4_Product.sol\":2698:2765  require(msg.sender == tokenOwner, 'caller is not the token owner.') */\n      tag_135\n      jumpi\n      mload(0x40)\n      0x08c379a000000000000000000000000000000000000000000000000000000000\n      dup2\n      mstore\n      0x04\n      add\n      tag_136\n      swap1\n      tag_137\n      jump\t// in\n    tag_136:\n      mload(0x40)\n      dup1\n      swap2\n      sub\n      swap1\n      revert\n    tag_135:\n        /* \"contracts/4_Product.sol\":4610:4611  0 */\n      0x00\n        /* \"contracts/4_Product.sol\":4590:4612  _account != address(0) */\n      0xffffffffffffffffffffffffffffffffffffffff\n      and\n        /* \"contracts/4_Product.sol\":4590:4598  _account */\n      dup3\n        /* \"contracts/4_Product.sol\":4590:4612  _account != address(0) */\n      0xffffffffffffffffffffffffffffffffffffffff\n      and\n      eq\n      iszero\n        /* \"contracts/4_Product.sol\":4582:4613  require(_account != address(0)) */\n      tag_139\n      jumpi\n      0x00\n      dup1\n      revert\n    tag_139:\n        /* \"contracts/4_Product.sol\":4738:4746  balances */\n      0x04\n        /* \"contracts/4_Product.sol\":4738:4756  balances[_account] */\n      0x00\n        /* \"contracts/4_Product.sol\":4747:4755  _account */\n      dup4\n        /* \"contracts/4_Product.sol\":4738:4756  balances[_account] */\n      0xffffffffffffffffffffffffffffffffffffffff\n      and\n      0xffffffffffffffffffffffffffffffffffffffff\n      and\n      dup2\n      mstore\n      0x20\n      add\n      swap1\n      dup2\n      mstore\n      0x20\n      add\n      0x00\n      keccak256\n      sload\n        /* \"contracts/4_Product.sol\":4727:4734  _amount */\n      dup2\n        /* \"contracts/4_Product.sol\":4727:4756  _amount <= balances[_account] */\n      gt\n      iszero\n        /* \"contracts/4_Product.sol\":4719:4757  require(_amount <= balances[_account]) */\n      tag_140\n      jumpi\n      0x00\n      dup1\n      revert\n    tag_140:\n        /* \"contracts/4_Product.sol\":4862:4869  _amount */\n      dup1\n        /* \"contracts/4_Product.sol\":4846:4858  _totalSupply */\n      0x03\n      0x00\n        /* \"contracts/4_Product.sol\":4846:4869  _totalSupply -= _amount */\n      dup3\n      dup3\n      sload\n      tag_141\n      swap2\n      swap1\n      tag_126\n      jump\t// in\n    tag_141:\n      swap3\n      pop\n      pop\n      dup2\n      swap1\n      sstore\n      pop\n        /* \"contracts/4_Product.sol\":4902:4909  _amount */\n      dup1\n        /* \"contracts/4_Product.sol\":4880:4888  balances */\n      0x04\n        /* \"contracts/4_Product.sol\":4880:4898  balances[_account] */\n      0x00\n        /* \"contracts/4_Product.sol\":4889:4897  _account */\n      dup5\n        /* \"contracts/4_Product.sol\":4880:4898  balances[_account] */\n      0xffffffffffffffffffffffffffffffffffffffff\n      and\n      0xffffffffffffffffffffffffffffffffffffffff\n      and\n      dup2\n      mstore\n      0x20\n      add\n      swap1\n      dup2\n      mstore\n      0x20\n      add\n      0x00\n      keccak256\n      0x00\n        /* \"contracts/4_Product.sol\":4880:4909  balances[_account] -= _amount */\n      dup3\n      dup3\n      sload\n      tag_142\n      swap2\n      swap1\n      tag_126\n      jump\t// in\n    tag_142:\n      swap3\n      pop\n      pop\n      dup2\n      swap1\n      sstore\n      pop\n        /* \"contracts/4_Product.sol\":4500:4917  function burn(address _account, uint256 _amount) public OnlyTokenOwner {\r... */\n      pop\n      pop\n      jump\t// out\n        /* \"contracts/4_Product.sol\":4121:4343  function mint(uint256 _amount) public OnlyTokenOwner {\r... */\n    tag_49:\n        /* \"contracts/4_Product.sol\":2720:2730  tokenOwner */\n      0x02\n      0x00\n      swap1\n      sload\n      swap1\n      0x0100\n      exp\n      swap1\n      div\n      0xffffffffffffffffffffffffffffffffffffffff\n      and\n        /* \"contracts/4_Product.sol\":2706:2730  msg.sender == tokenOwner */\n      0xffffffffffffffffffffffffffffffffffffffff\n      and\n        /* \"contracts/4_Product.sol\":2706:2716  msg.sender */\n      caller\n        /* \"contracts/4_Product.sol\":2706:2730  msg.sender == tokenOwner */\n      0xffffffffffffffffffffffffffffffffffffffff\n      and\n      eq\n        /* \"contracts/4_Product.sol\":2698:2765  require(msg.sender == tokenOwner, 'caller is not the token owner.') */\n      tag_144\n      jumpi\n      mload(0x40)\n      0x08c379a000000000000000000000000000000000000000000000000000000000\n      dup2\n      mstore\n      0x04\n      add\n      tag_145\n      swap1\n      tag_137\n      jump\t// in\n    tag_145:\n      mload(0x40)\n      dup1\n      swap2\n      sub\n      swap1\n      revert\n    tag_144:\n        /* \"contracts/4_Product.sol\":4201:4208  _amount */\n      dup1\n        /* \"contracts/4_Product.sol\":4185:4197  _totalSupply */\n      0x03\n      0x00\n        /* \"contracts/4_Product.sol\":4185:4208  _totalSupply += _amount */\n      dup3\n      dup3\n      sload\n      tag_147\n      swap2\n      swap1\n      tag_128\n      jump\t// in\n    tag_147:\n      swap3\n      pop\n      pop\n      dup2\n      swap1\n      sstore\n      pop\n        /* \"contracts/4_Product.sol\":4279:4286  _amount */\n      dup1\n        /* \"contracts/4_Product.sol\":4255:4263  balances */\n      0x04\n        /* \"contracts/4_Product.sol\":4255:4275  balances[msg.sender] */\n      0x00\n        /* \"contracts/4_Product.sol\":4264:4274  msg.sender */\n      caller\n        /* \"contracts/4_Product.sol\":4255:4275  balances[msg.sender] */\n      0xffffffffffffffffffffffffffffffffffffffff\n      and\n      0xffffffffffffffffffffffffffffffffffffffff\n      and\n      dup2\n      mstore\n      0x20\n      add\n      swap1\n      dup2\n      mstore\n      0x20\n      add\n      0x00\n      keccak256\n      0x00\n        /* \"contracts/4_Product.sol\":4255:4286  balances[msg.sender] += _amount */\n      dup3\n      dup3\n      sload\n      tag_148\n      swap2\n      swap1\n      tag_128\n      jump\t// in\n    tag_148:\n      swap3\n      pop\n      pop\n      dup2\n      swap1\n      sstore\n      pop\n        /* \"contracts/4_Product.sol\":4121:4343  function mint(uint256 _amount) public OnlyTokenOwner {\r... */\n      pop\n      jump\t// out\n        /* \"contracts/4_Product.sol\":165:199  address payable public  tokenOwner */\n    tag_52:\n      0x02\n      0x00\n      swap1\n      sload\n      swap1\n      0x0100\n      exp\n      swap1\n      div\n      0xffffffffffffffffffffffffffffffffffffffff\n      and\n      dup2\n      jump\t// out\n        /* \"contracts/4_Product.sol\":4975:5472  function buyToken() public payable {\r... */\n    tag_56:\n        /* \"contracts/4_Product.sol\":5020:5036  uint256 tokenNum */\n      0x00\n        /* \"contracts/4_Product.sol\":287:290  100 */\n      0x64\n        /* \"contracts/4_Product.sol\":5039:5048  msg.value */\n      callvalue\n        /* \"contracts/4_Product.sol\":5039:5059  msg.value/tokenPrice */\n      tag_150\n      swap2\n      swap1\n      tag_151\n      jump\t// in\n    tag_150:\n        /* \"contracts/4_Product.sol\":5020:5059  uint256 tokenNum = msg.value/tokenPrice */\n      swap1\n      pop\n        /* \"contracts/4_Product.sol\":5121:5122  0 */\n      0x00\n        /* \"contracts/4_Product.sol\":5109:5118  msg.value */\n      callvalue\n        /* \"contracts/4_Product.sol\":5109:5122  msg.value > 0 */\n      gt\n        /* \"contracts/4_Product.sol\":5101:5123  require(msg.value > 0) */\n      tag_152\n      jumpi\n      0x00\n      dup1\n      revert\n    tag_152:\n        /* \"contracts/4_Product.sol\":5171:5181  tokenOwner */\n      0x02\n      0x00\n      swap1\n      sload\n      swap1\n      0x0100\n      exp\n      swap1\n      div\n      0xffffffffffffffffffffffffffffffffffffffff\n      and\n        /* \"contracts/4_Product.sol\":5171:5190  tokenOwner.transfer */\n      0xffffffffffffffffffffffffffffffffffffffff\n      and\n        /* \"contracts/4_Product.sol\":5171:5201  tokenOwner.transfer(msg.value) */\n      0x08fc\n        /* \"contracts/4_Product.sol\":5191:5200  msg.value */\n      callvalue\n        /* \"contracts/4_Product.sol\":5171:5201  tokenOwner.transfer(msg.value) */\n      swap1\n      dup2\n      iszero\n      mul\n      swap1\n      mload(0x40)\n      0x00\n      mload(0x40)\n      dup1\n      dup4\n      sub\n      dup2\n      dup6\n      dup9\n      dup9\n      call\n      swap4\n      pop\n      pop\n      pop\n      pop\n      iszero\n      dup1\n      iszero\n      tag_154\n      jumpi\n      returndatasize\n      0x00\n      dup1\n      returndatacopy\n      revert(0x00, returndatasize)\n    tag_154:\n      pop\n        /* \"contracts/4_Product.sol\":5301:5309  tokenNum */\n      dup1\n        /* \"contracts/4_Product.sol\":5277:5285  balances */\n      0x04\n        /* \"contracts/4_Product.sol\":5277:5297  balances[tokenOwner] */\n      0x00\n        /* \"contracts/4_Product.sol\":5286:5296  tokenOwner */\n      0x02\n      0x00\n      swap1\n      sload\n      swap1\n      0x0100\n      exp\n      swap1\n      div\n      0xffffffffffffffffffffffffffffffffffffffff\n      and\n        /* \"contracts/4_Product.sol\":5277:5297  balances[tokenOwner] */\n      0xffffffffffffffffffffffffffffffffffffffff\n      and\n      0xffffffffffffffffffffffffffffffffffffffff\n      and\n      dup2\n      mstore\n      0x20\n      add\n      swap1\n      dup2\n      mstore\n      0x20\n      add\n      0x00\n      keccak256\n      0x00\n        /* \"contracts/4_Product.sol\":5277:5309  balances[tokenOwner] -= tokenNum */\n      dup3\n      dup3\n      sload\n      tag_155\n      swap2\n      swap1\n      tag_126\n      jump\t// in\n    tag_155:\n      swap3\n      pop\n      pop\n      dup2\n      swap1\n      sstore\n      pop\n        /* \"contracts/4_Product.sol\":5402:5410  tokenNum */\n      dup1\n        /* \"contracts/4_Product.sol\":5378:5386  balances */\n      0x04\n        /* \"contracts/4_Product.sol\":5378:5398  balances[msg.sender] */\n      0x00\n        /* \"contracts/4_Product.sol\":5387:5397  msg.sender */\n      caller\n        /* \"contracts/4_Product.sol\":5378:5398  balances[msg.sender] */\n      0xffffffffffffffffffffffffffffffffffffffff\n      and\n      0xffffffffffffffffffffffffffffffffffffffff\n      and\n      dup2\n      mstore\n      0x20\n      add\n      swap1\n      dup2\n      mstore\n      0x20\n      add\n      0x00\n      keccak256\n      0x00\n        /* \"contracts/4_Product.sol\":5378:5410  balances[msg.sender] += tokenNum */\n      dup3\n      dup3\n      sload\n      tag_156\n      swap2\n      swap1\n      tag_128\n      jump\t// in\n    tag_156:\n      swap3\n      pop\n      pop\n      dup2\n      swap1\n      sstore\n      pop\n        /* \"contracts/4_Product.sol\":5010:5472  {\r... */\n      pop\n        /* \"contracts/4_Product.sol\":4975:5472  function buyToken() public payable {\r... */\n      jump\t// out\n        /* \"contracts/4_Product.sol\":10522:10698  function getActorInfo(address _addr) public view returns\r... */\n    tag_61:\n        /* \"contracts/4_Product.sol\":10587:10597  Role _role */\n      0x00\n        /* \"contracts/4_Product.sol\":10604:10623  string memory _name */\n      0x60\n        /* \"contracts/4_Product.sol\":10643:10649  actors */\n      0x05\n        /* \"contracts/4_Product.sol\":10643:10656  actors[_addr] */\n      0x00\n        /* \"contracts/4_Product.sol\":10650:10655  _addr */\n      dup5\n        /* \"contracts/4_Product.sol\":10643:10656  actors[_addr] */\n      0xffffffffffffffffffffffffffffffffffffffff\n      and\n      0xffffffffffffffffffffffffffffffffffffffff\n      and\n      dup2\n      mstore\n      0x20\n      add\n      swap1\n      dup2\n      mstore\n      0x20\n      add\n      0x00\n      keccak256\n        /* \"contracts/4_Product.sol\":10643:10661  actors[_addr].role */\n      0x00\n      add\n      0x00\n      swap1\n      sload\n      swap1\n      0x0100\n      exp\n      swap1\n      div\n      0xff\n      and\n        /* \"contracts/4_Product.sol\":10635:10661  _role = actors[_addr].role */\n      swap2\n      pop\n        /* \"contracts/4_Product.sol\":10676:10682  actors */\n      0x05\n        /* \"contracts/4_Product.sol\":10676:10689  actors[_addr] */\n      0x00\n        /* \"contracts/4_Product.sol\":10683:10688  _addr */\n      dup5\n        /* \"contracts/4_Product.sol\":10676:10689  actors[_addr] */\n      0xffffffffffffffffffffffffffffffffffffffff\n      and\n      0xffffffffffffffffffffffffffffffffffffffff\n      and\n      dup2\n      mstore\n      0x20\n      add\n      swap1\n      dup2\n      mstore\n      0x20\n      add\n      0x00\n      keccak256\n        /* \"contracts/4_Product.sol\":10676:10694  actors[_addr].name */\n      0x01\n      add\n        /* \"contracts/4_Product.sol\":10668:10694  _name = actors[_addr].name */\n      dup1\n      sload\n      tag_158\n      swap1\n      tag_76\n      jump\t// in\n    tag_158:\n      dup1\n      0x1f\n      add\n      0x20\n      dup1\n      swap2\n      div\n      mul\n      0x20\n      add\n      mload(0x40)\n      swap1\n      dup2\n      add\n      0x40\n      mstore\n      dup1\n      swap3\n      swap2\n      swap1\n      dup2\n      dup2\n      mstore\n      0x20\n      add\n      dup3\n      dup1\n      sload\n      tag_159\n      swap1\n      tag_76\n      jump\t// in\n    tag_159:\n      dup1\n      iszero\n      tag_160\n      jumpi\n      dup1\n      0x1f\n      lt\n      tag_161\n      jumpi\n      0x0100\n      dup1\n      dup4\n      sload\n      div\n      mul\n      dup4\n      mstore\n      swap2\n      0x20\n      add\n      swap2\n      jump(tag_160)\n    tag_161:\n      dup3\n      add\n      swap2\n      swap1\n      0x00\n      mstore\n      keccak256(0x00, 0x20)\n      swap1\n    tag_162:\n      dup2\n      sload\n      dup2\n      mstore\n      swap1\n      0x01\n      add\n      swap1\n      0x20\n      add\n      dup1\n      dup4\n      gt\n      tag_162\n      jumpi\n      dup3\n      swap1\n      sub\n      0x1f\n      and\n      dup3\n      add\n      swap2\n    tag_160:\n      pop\n      pop\n      pop\n      pop\n      pop\n      swap1\n      pop\n        /* \"contracts/4_Product.sol\":10522:10698  function getActorInfo(address _addr) public view returns\r... */\n      swap2\n      pop\n      swap2\n      jump\t// out\n        /* \"contracts/4_Product.sol\":3899:4005  function etherBalance(address _addr) public view returns (uint256) {\r... */\n    tag_67:\n        /* \"contracts/4_Product.sol\":3957:3964  uint256 */\n      0x00\n        /* \"contracts/4_Product.sol\":3984:3989  _addr */\n      dup2\n        /* \"contracts/4_Product.sol\":3984:3997  _addr.balance */\n      0xffffffffffffffffffffffffffffffffffffffff\n      and\n      balance\n        /* \"contracts/4_Product.sol\":3977:3997  return _addr.balance */\n      swap1\n      pop\n        /* \"contracts/4_Product.sol\":3899:4005  function etherBalance(address _addr) public view returns (uint256) {\r... */\n      swap2\n      swap1\n      pop\n      jump\t// out\n        /* \"contracts/4_Product.sol\":3725:3833  function tokenBalance(address _addr) public view returns (uint256) {\r... */\n    tag_73:\n        /* \"contracts/4_Product.sol\":3783:3790  uint256 */\n      0x00\n        /* \"contracts/4_Product.sol\":3810:3818  balances */\n      0x04\n        /* \"contracts/4_Product.sol\":3810:3825  balances[_addr] */\n      0x00\n        /* \"contracts/4_Product.sol\":3819:3824  _addr */\n      dup4\n        /* \"contracts/4_Product.sol\":3810:3825  balances[_addr] */\n      0xffffffffffffffffffffffffffffffffffffffff\n      and\n      0xffffffffffffffffffffffffffffffffffffffff\n      and\n      dup2\n      mstore\n      0x20\n      add\n      swap1\n      dup2\n      mstore\n      0x20\n      add\n      0x00\n      keccak256\n      sload\n        /* \"contracts/4_Product.sol\":3803:3825  return balances[_addr] */\n      swap1\n      pop\n        /* \"contracts/4_Product.sol\":3725:3833  function tokenBalance(address _addr) public view returns (uint256) {\r... */\n      swap2\n      swap1\n      pop\n      jump\t// out\n    tag_99:\n      dup3\n      dup1\n      sload\n      tag_165\n      swap1\n      tag_76\n      jump\t// in\n    tag_165:\n      swap1\n      0x00\n      mstore\n      keccak256(0x00, 0x20)\n      swap1\n      0x1f\n      add\n      0x20\n      swap1\n      div\n      dup2\n      add\n      swap3\n      dup3\n      tag_167\n      jumpi\n      0x00\n      dup6\n      sstore\n      jump(tag_166)\n    tag_167:\n      dup3\n      0x1f\n      lt\n      tag_168\n      jumpi\n      dup1\n      mload\n      not(0xff)\n      and\n      dup4\n      dup1\n      add\n      or\n      dup6\n      sstore\n      jump(tag_166)\n    tag_168:\n      dup3\n      dup1\n      add\n      0x01\n      add\n      dup6\n      sstore\n      dup3\n      iszero\n      tag_166\n      jumpi\n      swap2\n      dup3\n      add\n    tag_169:\n      dup3\n      dup2\n      gt\n      iszero\n      tag_170\n      jumpi\n      dup3\n      mload\n      dup3\n      sstore\n      swap2\n      0x20\n      add\n      swap2\n      swap1\n      0x01\n      add\n      swap1\n      jump(tag_169)\n    tag_170:\n    tag_166:\n      pop\n      swap1\n      pop\n      tag_171\n      swap2\n      swap1\n      tag_172\n      jump\t// in\n    tag_171:\n      pop\n      swap1\n      jump\t// out\n    tag_172:\n    tag_173:\n      dup1\n      dup3\n      gt\n      iszero\n      tag_174\n      jumpi\n      0x00\n      dup2\n      0x00\n      swap1\n      sstore\n      pop\n      0x01\n      add\n      jump(tag_173)\n    tag_174:\n      pop\n      swap1\n      jump\t// out\n        /* \"#utility.yul\":7:419   */\n    tag_176:\n        /* \"#utility.yul\":85:90   */\n      0x00\n        /* \"#utility.yul\":110:176   */\n      tag_178\n        /* \"#utility.yul\":126:175   */\n      tag_179\n        /* \"#utility.yul\":168:174   */\n      dup5\n        /* \"#utility.yul\":126:175   */\n      tag_180\n      jump\t// in\n    tag_179:\n        /* \"#utility.yul\":110:176   */\n      tag_181\n      jump\t// in\n    tag_178:\n        /* \"#utility.yul\":101:176   */\n      swap1\n      pop\n        /* \"#utility.yul\":199:205   */\n      dup3\n        /* \"#utility.yul\":192:197   */\n      dup2\n        /* \"#utility.yul\":185:206   */\n      mstore\n        /* \"#utility.yul\":237:241   */\n      0x20\n        /* \"#utility.yul\":230:235   */\n      dup2\n        /* \"#utility.yul\":226:242   */\n      add\n        /* \"#utility.yul\":275:278   */\n      dup5\n        /* \"#utility.yul\":266:272   */\n      dup5\n        /* \"#utility.yul\":261:264   */\n      dup5\n        /* \"#utility.yul\":257:273   */\n      add\n        /* \"#utility.yul\":254:279   */\n      gt\n        /* \"#utility.yul\":251:363   */\n      iszero\n      tag_182\n      jumpi\n        /* \"#utility.yul\":282:361   */\n      tag_183\n      tag_184\n      jump\t// in\n    tag_183:\n        /* \"#utility.yul\":251:363   */\n    tag_182:\n        /* \"#utility.yul\":372:413   */\n      tag_185\n        /* \"#utility.yul\":406:412   */\n      dup5\n        /* \"#utility.yul\":401:404   */\n      dup3\n        /* \"#utility.yul\":396:399   */\n      dup6\n        /* \"#utility.yul\":372:413   */\n      tag_186\n      jump\t// in\n    tag_185:\n        /* \"#utility.yul\":91:419   */\n      pop\n        /* \"#utility.yul\":7:419   */\n      swap4\n      swap3\n      pop\n      pop\n      pop\n      jump\t// out\n        /* \"#utility.yul\":425:564   */\n    tag_187:\n        /* \"#utility.yul\":471:476   */\n      0x00\n        /* \"#utility.yul\":509:515   */\n      dup2\n        /* \"#utility.yul\":496:516   */\n      calldataload\n        /* \"#utility.yul\":487:516   */\n      swap1\n      pop\n        /* \"#utility.yul\":525:558   */\n      tag_189\n        /* \"#utility.yul\":552:557   */\n      dup2\n        /* \"#utility.yul\":525:558   */\n      tag_190\n      jump\t// in\n    tag_189:\n        /* \"#utility.yul\":425:564   */\n      swap3\n      swap2\n      pop\n      pop\n      jump\t// out\n        /* \"#utility.yul\":570:723   */\n    tag_191:\n        /* \"#utility.yul\":623:628   */\n      0x00\n        /* \"#utility.yul\":661:667   */\n      dup2\n        /* \"#utility.yul\":648:668   */\n      calldataload\n        /* \"#utility.yul\":639:668   */\n      swap1\n      pop\n        /* \"#utility.yul\":677:717   */\n      tag_193\n        /* \"#utility.yul\":711:716   */\n      dup2\n        /* \"#utility.yul\":677:717   */\n      tag_194\n      jump\t// in\n    tag_193:\n        /* \"#utility.yul\":570:723   */\n      swap3\n      swap2\n      pop\n      pop\n      jump\t// out\n        /* \"#utility.yul\":743:1083   */\n    tag_195:\n        /* \"#utility.yul\":799:804   */\n      0x00\n        /* \"#utility.yul\":848:851   */\n      dup3\n        /* \"#utility.yul\":841:845   */\n      0x1f\n        /* \"#utility.yul\":833:839   */\n      dup4\n        /* \"#utility.yul\":829:846   */\n      add\n        /* \"#utility.yul\":825:852   */\n      slt\n        /* \"#utility.yul\":815:937   */\n      tag_197\n      jumpi\n        /* \"#utility.yul\":856:935   */\n      tag_198\n      tag_199\n      jump\t// in\n    tag_198:\n        /* \"#utility.yul\":815:937   */\n    tag_197:\n        /* \"#utility.yul\":973:979   */\n      dup2\n        /* \"#utility.yul\":960:980   */\n      calldataload\n        /* \"#utility.yul\":998:1077   */\n      tag_200\n        /* \"#utility.yul\":1073:1076   */\n      dup5\n        /* \"#utility.yul\":1065:1071   */\n      dup3\n        /* \"#utility.yul\":1058:1062   */\n      0x20\n        /* \"#utility.yul\":1050:1056   */\n      dup7\n        /* \"#utility.yul\":1046:1063   */\n      add\n        /* \"#utility.yul\":998:1077   */\n      tag_176\n      jump\t// in\n    tag_200:\n        /* \"#utility.yul\":989:1077   */\n      swap2\n      pop\n        /* \"#utility.yul\":805:1083   */\n      pop\n        /* \"#utility.yul\":743:1083   */\n      swap3\n      swap2\n      pop\n      pop\n      jump\t// out\n        /* \"#utility.yul\":1089:1228   */\n    tag_201:\n        /* \"#utility.yul\":1135:1140   */\n      0x00\n        /* \"#utility.yul\":1173:1179   */\n      dup2\n        /* \"#utility.yul\":1160:1180   */\n      calldataload\n        /* \"#utility.yul\":1151:1180   */\n      swap1\n      pop\n        /* \"#utility.yul\":1189:1222   */\n      tag_203\n        /* \"#utility.yul\":1216:1221   */\n      dup2\n        /* \"#utility.yul\":1189:1222   */\n      tag_204\n      jump\t// in\n    tag_203:\n        /* \"#utility.yul\":1089:1228   */\n      swap3\n      swap2\n      pop\n      pop\n      jump\t// out\n        /* \"#utility.yul\":1234:1563   */\n    tag_60:\n        /* \"#utility.yul\":1293:1299   */\n      0x00\n        /* \"#utility.yul\":1342:1344   */\n      0x20\n        /* \"#utility.yul\":1330:1339   */\n      dup3\n        /* \"#utility.yul\":1321:1328   */\n      dup5\n        /* \"#utility.yul\":1317:1340   */\n      sub\n        /* \"#utility.yul\":1313:1345   */\n      slt\n        /* \"#utility.yul\":1310:1429   */\n      iszero\n      tag_206\n      jumpi\n        /* \"#utility.yul\":1348:1427   */\n      tag_207\n      tag_208\n      jump\t// in\n    tag_207:\n        /* \"#utility.yul\":1310:1429   */\n    tag_206:\n        /* \"#utility.yul\":1468:1469   */\n      0x00\n        /* \"#utility.yul\":1493:1546   */\n      tag_209\n        /* \"#utility.yul\":1538:1545   */\n      dup5\n        /* \"#utility.yul\":1529:1535   */\n      dup3\n        /* \"#utility.yul\":1518:1527   */\n      dup6\n        /* \"#utility.yul\":1514:1536   */\n      add\n        /* \"#utility.yul\":1493:1546   */\n      tag_187\n      jump\t// in\n    tag_209:\n        /* \"#utility.yul\":1483:1546   */\n      swap2\n      pop\n        /* \"#utility.yul\":1439:1556   */\n      pop\n        /* \"#utility.yul\":1234:1563   */\n      swap3\n      swap2\n      pop\n      pop\n      jump\t// out\n        /* \"#utility.yul\":1569:2382   */\n    tag_23:\n        /* \"#utility.yul\":1663:1669   */\n      0x00\n        /* \"#utility.yul\":1671:1677   */\n      dup1\n        /* \"#utility.yul\":1679:1685   */\n      0x00\n        /* \"#utility.yul\":1728:1730   */\n      0x60\n        /* \"#utility.yul\":1716:1725   */\n      dup5\n        /* \"#utility.yul\":1707:1714   */\n      dup7\n        /* \"#utility.yul\":1703:1726   */\n      sub\n        /* \"#utility.yul\":1699:1731   */\n      slt\n        /* \"#utility.yul\":1696:1815   */\n      iszero\n      tag_211\n      jumpi\n        /* \"#utility.yul\":1734:1813   */\n      tag_212\n      tag_208\n      jump\t// in\n    tag_212:\n        /* \"#utility.yul\":1696:1815   */\n    tag_211:\n        /* \"#utility.yul\":1854:1855   */\n      0x00\n        /* \"#utility.yul\":1879:1932   */\n      tag_213\n        /* \"#utility.yul\":1924:1931   */\n      dup7\n        /* \"#utility.yul\":1915:1921   */\n      dup3\n        /* \"#utility.yul\":1904:1913   */\n      dup8\n        /* \"#utility.yul\":1900:1922   */\n      add\n        /* \"#utility.yul\":1879:1932   */\n      tag_187\n      jump\t// in\n    tag_213:\n        /* \"#utility.yul\":1869:1932   */\n      swap4\n      pop\n        /* \"#utility.yul\":1825:1942   */\n      pop\n        /* \"#utility.yul\":1981:1983   */\n      0x20\n        /* \"#utility.yul\":2007:2067   */\n      tag_214\n        /* \"#utility.yul\":2059:2066   */\n      dup7\n        /* \"#utility.yul\":2050:2056   */\n      dup3\n        /* \"#utility.yul\":2039:2048   */\n      dup8\n        /* \"#utility.yul\":2035:2057   */\n      add\n        /* \"#utility.yul\":2007:2067   */\n      tag_191\n      jump\t// in\n    tag_214:\n        /* \"#utility.yul\":1997:2067   */\n      swap3\n      pop\n        /* \"#utility.yul\":1952:2077   */\n      pop\n        /* \"#utility.yul\":2144:2146   */\n      0x40\n        /* \"#utility.yul\":2133:2142   */\n      dup5\n        /* \"#utility.yul\":2129:2147   */\n      add\n        /* \"#utility.yul\":2116:2148   */\n      calldataload\n        /* \"#utility.yul\":2175:2193   */\n      0xffffffffffffffff\n        /* \"#utility.yul\":2167:2173   */\n      dup2\n        /* \"#utility.yul\":2164:2194   */\n      gt\n        /* \"#utility.yul\":2161:2278   */\n      iszero\n      tag_215\n      jumpi\n        /* \"#utility.yul\":2197:2276   */\n      tag_216\n      tag_217\n      jump\t// in\n    tag_216:\n        /* \"#utility.yul\":2161:2278   */\n    tag_215:\n        /* \"#utility.yul\":2302:2365   */\n      tag_218\n        /* \"#utility.yul\":2357:2364   */\n      dup7\n        /* \"#utility.yul\":2348:2354   */\n      dup3\n        /* \"#utility.yul\":2337:2346   */\n      dup8\n        /* \"#utility.yul\":2333:2355   */\n      add\n        /* \"#utility.yul\":2302:2365   */\n      tag_195\n      jump\t// in\n    tag_218:\n        /* \"#utility.yul\":2292:2365   */\n      swap2\n      pop\n        /* \"#utility.yul\":2087:2375   */\n      pop\n        /* \"#utility.yul\":1569:2382   */\n      swap3\n      pop\n      swap3\n      pop\n      swap3\n      jump\t// out\n        /* \"#utility.yul\":2388:2862   */\n    tag_33:\n        /* \"#utility.yul\":2456:2462   */\n      0x00\n        /* \"#utility.yul\":2464:2470   */\n      dup1\n        /* \"#utility.yul\":2513:2515   */\n      0x40\n        /* \"#utility.yul\":2501:2510   */\n      dup4\n        /* \"#utility.yul\":2492:2499   */\n      dup6\n        /* \"#utility.yul\":2488:2511   */\n      sub\n        /* \"#utility.yul\":2484:2516   */\n      slt\n        /* \"#utility.yul\":2481:2600   */\n      iszero\n      tag_220\n      jumpi\n        /* \"#utility.yul\":2519:2598   */\n      tag_221\n      tag_208\n      jump\t// in\n    tag_221:\n        /* \"#utility.yul\":2481:2600   */\n    tag_220:\n        /* \"#utility.yul\":2639:2640   */\n      0x00\n        /* \"#utility.yul\":2664:2717   */\n      tag_222\n        /* \"#utility.yul\":2709:2716   */\n      dup6\n        /* \"#utility.yul\":2700:2706   */\n      dup3\n        /* \"#utility.yul\":2689:2698   */\n      dup7\n        /* \"#utility.yul\":2685:2707   */\n      add\n        /* \"#utility.yul\":2664:2717   */\n      tag_187\n      jump\t// in\n    tag_222:\n        /* \"#utility.yul\":2654:2717   */\n      swap3\n      pop\n        /* \"#utility.yul\":2610:2727   */\n      pop\n        /* \"#utility.yul\":2766:2768   */\n      0x20\n        /* \"#utility.yul\":2792:2845   */\n      tag_223\n        /* \"#utility.yul\":2837:2844   */\n      dup6\n        /* \"#utility.yul\":2828:2834   */\n      dup3\n        /* \"#utility.yul\":2817:2826   */\n      dup7\n        /* \"#utility.yul\":2813:2835   */\n      add\n        /* \"#utility.yul\":2792:2845   */\n      tag_201\n      jump\t// in\n    tag_223:\n        /* \"#utility.yul\":2782:2845   */\n      swap2\n      pop\n        /* \"#utility.yul\":2737:2855   */\n      pop\n        /* \"#utility.yul\":2388:2862   */\n      swap3\n      pop\n      swap3\n      swap1\n      pop\n      jump\t// out\n        /* \"#utility.yul\":2868:3197   */\n    tag_48:\n        /* \"#utility.yul\":2927:2933   */\n      0x00\n        /* \"#utility.yul\":2976:2978   */\n      0x20\n        /* \"#utility.yul\":2964:2973   */\n      dup3\n        /* \"#utility.yul\":2955:2962   */\n      dup5\n        /* \"#utility.yul\":2951:2974   */\n      sub\n        /* \"#utility.yul\":2947:2979   */\n      slt\n        /* \"#utility.yul\":2944:3063   */\n      iszero\n      tag_225\n      jumpi\n        /* \"#utility.yul\":2982:3061   */\n      tag_226\n      tag_208\n      jump\t// in\n    tag_226:\n        /* \"#utility.yul\":2944:3063   */\n    tag_225:\n        /* \"#utility.yul\":3102:3103   */\n      0x00\n        /* \"#utility.yul\":3127:3180   */\n      tag_227\n        /* \"#utility.yul\":3172:3179   */\n      dup5\n        /* \"#utility.yul\":3163:3169   */\n      dup3\n        /* \"#utility.yul\":3152:3161   */\n      dup6\n        /* \"#utility.yul\":3148:3170   */\n      add\n        /* \"#utility.yul\":3127:3180   */\n      tag_201\n      jump\t// in\n    tag_227:\n        /* \"#utility.yul\":3117:3180   */\n      swap2\n      pop\n        /* \"#utility.yul\":3073:3190   */\n      pop\n        /* \"#utility.yul\":2868:3197   */\n      swap3\n      swap2\n      pop\n      pop\n      jump\t// out\n        /* \"#utility.yul\":3203:6104   */\n    tag_28:\n        /* \"#utility.yul\":3413:3419   */\n      0x00\n        /* \"#utility.yul\":3421:3427   */\n      dup1\n        /* \"#utility.yul\":3429:3435   */\n      0x00\n        /* \"#utility.yul\":3437:3443   */\n      dup1\n        /* \"#utility.yul\":3445:3451   */\n      0x00\n        /* \"#utility.yul\":3453:3459   */\n      dup1\n        /* \"#utility.yul\":3461:3467   */\n      0x00\n        /* \"#utility.yul\":3469:3475   */\n      dup1\n        /* \"#utility.yul\":3477:3483   */\n      0x00\n        /* \"#utility.yul\":3485:3491   */\n      dup1\n        /* \"#utility.yul\":3534:3537   */\n      0x0140\n        /* \"#utility.yul\":3522:3531   */\n      dup12\n        /* \"#utility.yul\":3513:3520   */\n      dup14\n        /* \"#utility.yul\":3509:3532   */\n      sub\n        /* \"#utility.yul\":3505:3538   */\n      slt\n        /* \"#utility.yul\":3502:3622   */\n      iszero\n      tag_229\n      jumpi\n        /* \"#utility.yul\":3541:3620   */\n      tag_230\n      tag_208\n      jump\t// in\n    tag_230:\n        /* \"#utility.yul\":3502:3622   */\n    tag_229:\n        /* \"#utility.yul\":3661:3662   */\n      0x00\n        /* \"#utility.yul\":3686:3739   */\n      tag_231\n        /* \"#utility.yul\":3731:3738   */\n      dup14\n        /* \"#utility.yul\":3722:3728   */\n      dup3\n        /* \"#utility.yul\":3711:3720   */\n      dup15\n        /* \"#utility.yul\":3707:3729   */\n      add\n        /* \"#utility.yul\":3686:3739   */\n      tag_201\n      jump\t// in\n    tag_231:\n        /* \"#utility.yul\":3676:3739   */\n      swap11\n      pop\n        /* \"#utility.yul\":3632:3749   */\n      pop\n        /* \"#utility.yul\":3788:3790   */\n      0x20\n        /* \"#utility.yul\":3814:3867   */\n      tag_232\n        /* \"#utility.yul\":3859:3866   */\n      dup14\n        /* \"#utility.yul\":3850:3856   */\n      dup3\n        /* \"#utility.yul\":3839:3848   */\n      dup15\n        /* \"#utility.yul\":3835:3857   */\n      add\n        /* \"#utility.yul\":3814:3867   */\n      tag_201\n      jump\t// in\n    tag_232:\n        /* \"#utility.yul\":3804:3867   */\n      swap10\n      pop\n        /* \"#utility.yul\":3759:3877   */\n      pop\n        /* \"#utility.yul\":3916:3918   */\n      0x40\n        /* \"#utility.yul\":3942:3995   */\n      tag_233\n        /* \"#utility.yul\":3987:3994   */\n      dup14\n        /* \"#utility.yul\":3978:3984   */\n      dup3\n        /* \"#utility.yul\":3967:3976   */\n      dup15\n        /* \"#utility.yul\":3963:3985   */\n      add\n        /* \"#utility.yul\":3942:3995   */\n      tag_201\n      jump\t// in\n    tag_233:\n        /* \"#utility.yul\":3932:3995   */\n      swap9\n      pop\n        /* \"#utility.yul\":3887:4005   */\n      pop\n        /* \"#utility.yul\":4072:4074   */\n      0x60\n        /* \"#utility.yul\":4061:4070   */\n      dup12\n        /* \"#utility.yul\":4057:4075   */\n      add\n        /* \"#utility.yul\":4044:4076   */\n      calldataload\n        /* \"#utility.yul\":4103:4121   */\n      0xffffffffffffffff\n        /* \"#utility.yul\":4095:4101   */\n      dup2\n        /* \"#utility.yul\":4092:4122   */\n      gt\n        /* \"#utility.yul\":4089:4206   */\n      iszero\n      tag_234\n      jumpi\n        /* \"#utility.yul\":4125:4204   */\n      tag_235\n      tag_217\n      jump\t// in\n    tag_235:\n        /* \"#utility.yul\":4089:4206   */\n    tag_234:\n        /* \"#utility.yul\":4230:4293   */\n      tag_236\n        /* \"#utility.yul\":4285:4292   */\n      dup14\n        /* \"#utility.yul\":4276:4282   */\n      dup3\n        /* \"#utility.yul\":4265:4274   */\n      dup15\n        /* \"#utility.yul\":4261:4283   */\n      add\n        /* \"#utility.yul\":4230:4293   */\n      tag_195\n      jump\t// in\n    tag_236:\n        /* \"#utility.yul\":4220:4293   */\n      swap8\n      pop\n        /* \"#utility.yul\":4015:4303   */\n      pop\n        /* \"#utility.yul\":4370:4373   */\n      0x80\n        /* \"#utility.yul\":4359:4368   */\n      dup12\n        /* \"#utility.yul\":4355:4374   */\n      add\n        /* \"#utility.yul\":4342:4375   */\n      calldataload\n        /* \"#utility.yul\":4402:4420   */\n      0xffffffffffffffff\n        /* \"#utility.yul\":4394:4400   */\n      dup2\n        /* \"#utility.yul\":4391:4421   */\n      gt\n        /* \"#utility.yul\":4388:4505   */\n      iszero\n      tag_237\n      jumpi\n        /* \"#utility.yul\":4424:4503   */\n      tag_238\n      tag_217\n      jump\t// in\n    tag_238:\n        /* \"#utility.yul\":4388:4505   */\n    tag_237:\n        /* \"#utility.yul\":4529:4592   */\n      tag_239\n        /* \"#utility.yul\":4584:4591   */\n      dup14\n        /* \"#utility.yul\":4575:4581   */\n      dup3\n        /* \"#utility.yul\":4564:4573   */\n      dup15\n        /* \"#utility.yul\":4560:4582   */\n      add\n        /* \"#utility.yul\":4529:4592   */\n      tag_195\n      jump\t// in\n    tag_239:\n        /* \"#utility.yul\":4519:4592   */\n      swap7\n      pop\n        /* \"#utility.yul\":4313:4602   */\n      pop\n        /* \"#utility.yul\":4669:4672   */\n      0xa0\n        /* \"#utility.yul\":4658:4667   */\n      dup12\n        /* \"#utility.yul\":4654:4673   */\n      add\n        /* \"#utility.yul\":4641:4674   */\n      calldataload\n        /* \"#utility.yul\":4701:4719   */\n      0xffffffffffffffff\n        /* \"#utility.yul\":4693:4699   */\n      dup2\n        /* \"#utility.yul\":4690:4720   */\n      gt\n        /* \"#utility.yul\":4687:4804   */\n      iszero\n      tag_240\n      jumpi\n        /* \"#utility.yul\":4723:4802   */\n      tag_241\n      tag_217\n      jump\t// in\n    tag_241:\n        /* \"#utility.yul\":4687:4804   */\n    tag_240:\n        /* \"#utility.yul\":4828:4891   */\n      tag_242\n        /* \"#utility.yul\":4883:4890   */\n      dup14\n        /* \"#utility.yul\":4874:4880   */\n      dup3\n        /* \"#utility.yul\":4863:4872   */\n      dup15\n        /* \"#utility.yul\":4859:4881   */\n      add\n        /* \"#utility.yul\":4828:4891   */\n      tag_195\n      jump\t// in\n    tag_242:\n        /* \"#utility.yul\":4818:4891   */\n      swap6\n      pop\n        /* \"#utility.yul\":4612:4901   */\n      pop\n        /* \"#utility.yul\":4968:4971   */\n      0xc0\n        /* \"#utility.yul\":4957:4966   */\n      dup12\n        /* \"#utility.yul\":4953:4972   */\n      add\n        /* \"#utility.yul\":4940:4973   */\n      calldataload\n        /* \"#utility.yul\":5000:5018   */\n      0xffffffffffffffff\n        /* \"#utility.yul\":4992:4998   */\n      dup2\n        /* \"#utility.yul\":4989:5019   */\n      gt\n        /* \"#utility.yul\":4986:5103   */\n      iszero\n      tag_243\n      jumpi\n        /* \"#utility.yul\":5022:5101   */\n      tag_244\n      tag_217\n      jump\t// in\n    tag_244:\n        /* \"#utility.yul\":4986:5103   */\n    tag_243:\n        /* \"#utility.yul\":5127:5190   */\n      tag_245\n        /* \"#utility.yul\":5182:5189   */\n      dup14\n        /* \"#utility.yul\":5173:5179   */\n      dup3\n        /* \"#utility.yul\":5162:5171   */\n      dup15\n        /* \"#utility.yul\":5158:5180   */\n      add\n        /* \"#utility.yul\":5127:5190   */\n      tag_195\n      jump\t// in\n    tag_245:\n        /* \"#utility.yul\":5117:5190   */\n      swap5\n      pop\n        /* \"#utility.yul\":4911:5200   */\n      pop\n        /* \"#utility.yul\":5267:5270   */\n      0xe0\n        /* \"#utility.yul\":5256:5265   */\n      dup12\n        /* \"#utility.yul\":5252:5271   */\n      add\n        /* \"#utility.yul\":5239:5272   */\n      calldataload\n        /* \"#utility.yul\":5299:5317   */\n      0xffffffffffffffff\n        /* \"#utility.yul\":5291:5297   */\n      dup2\n        /* \"#utility.yul\":5288:5318   */\n      gt\n        /* \"#utility.yul\":5285:5402   */\n      iszero\n      tag_246\n      jumpi\n        /* \"#utility.yul\":5321:5400   */\n      tag_247\n      tag_217\n      jump\t// in\n    tag_247:\n        /* \"#utility.yul\":5285:5402   */\n    tag_246:\n        /* \"#utility.yul\":5426:5489   */\n      tag_248\n        /* \"#utility.yul\":5481:5488   */\n      dup14\n        /* \"#utility.yul\":5472:5478   */\n      dup3\n        /* \"#utility.yul\":5461:5470   */\n      dup15\n        /* \"#utility.yul\":5457:5479   */\n      add\n        /* \"#utility.yul\":5426:5489   */\n      tag_195\n      jump\t// in\n    tag_248:\n        /* \"#utility.yul\":5416:5489   */\n      swap4\n      pop\n        /* \"#utility.yul\":5210:5499   */\n      pop\n        /* \"#utility.yul\":5566:5569   */\n      0x0100\n        /* \"#utility.yul\":5555:5564   */\n      dup12\n        /* \"#utility.yul\":5551:5570   */\n      add\n        /* \"#utility.yul\":5538:5571   */\n      calldataload\n        /* \"#utility.yul\":5598:5616   */\n      0xffffffffffffffff\n        /* \"#utility.yul\":5590:5596   */\n      dup2\n        /* \"#utility.yul\":5587:5617   */\n      gt\n        /* \"#utility.yul\":5584:5701   */\n      iszero\n      tag_249\n      jumpi\n        /* \"#utility.yul\":5620:5699   */\n      tag_250\n      tag_217\n      jump\t// in\n    tag_250:\n        /* \"#utility.yul\":5584:5701   */\n    tag_249:\n        /* \"#utility.yul\":5725:5788   */\n      tag_251\n        /* \"#utility.yul\":5780:5787   */\n      dup14\n        /* \"#utility.yul\":5771:5777   */\n      dup3\n        /* \"#utility.yul\":5760:5769   */\n      dup15\n        /* \"#utility.yul\":5756:5778   */\n      add\n        /* \"#utility.yul\":5725:5788   */\n      tag_195\n      jump\t// in\n    tag_251:\n        /* \"#utility.yul\":5715:5788   */\n      swap3\n      pop\n        /* \"#utility.yul\":5509:5798   */\n      pop\n        /* \"#utility.yul\":5865:5868   */\n      0x0120\n        /* \"#utility.yul\":5854:5863   */\n      dup12\n        /* \"#utility.yul\":5850:5869   */\n      add\n        /* \"#utility.yul\":5837:5870   */\n      calldataload\n        /* \"#utility.yul\":5897:5915   */\n      0xffffffffffffffff\n        /* \"#utility.yul\":5889:5895   */\n      dup2\n        /* \"#utility.yul\":5886:5916   */\n      gt\n        /* \"#utility.yul\":5883:6000   */\n      iszero\n      tag_252\n      jumpi\n        /* \"#utility.yul\":5919:5998   */\n      tag_253\n      tag_217\n      jump\t// in\n    tag_253:\n        /* \"#utility.yul\":5883:6000   */\n    tag_252:\n        /* \"#utility.yul\":6024:6087   */\n      tag_254\n        /* \"#utility.yul\":6079:6086   */\n      dup14\n        /* \"#utility.yul\":6070:6076   */\n      dup3\n        /* \"#utility.yul\":6059:6068   */\n      dup15\n        /* \"#utility.yul\":6055:6077   */\n      add\n        /* \"#utility.yul\":6024:6087   */\n      tag_195\n      jump\t// in\n    tag_254:\n        /* \"#utility.yul\":6014:6087   */\n      swap2\n      pop\n        /* \"#utility.yul\":5808:6097   */\n      pop\n        /* \"#utility.yul\":3203:6104   */\n      swap3\n      swap6\n      swap9\n      swap12\n      swap2\n      swap5\n      swap8\n      swap11\n      pop\n      swap3\n      swap6\n      swap9\n      pop\n      jump\t// out\n        /* \"#utility.yul\":6110:6252   */\n    tag_255:\n        /* \"#utility.yul\":6213:6245   */\n      tag_257\n        /* \"#utility.yul\":6239:6244   */\n      dup2\n        /* \"#utility.yul\":6213:6245   */\n      tag_258\n      jump\t// in\n    tag_257:\n        /* \"#utility.yul\":6208:6211   */\n      dup3\n        /* \"#utility.yul\":6201:6246   */\n      mstore\n        /* \"#utility.yul\":6110:6252   */\n      pop\n      pop\n      jump\t// out\n        /* \"#utility.yul\":6258:6367   */\n    tag_259:\n        /* \"#utility.yul\":6339:6360   */\n      tag_261\n        /* \"#utility.yul\":6354:6359   */\n      dup2\n        /* \"#utility.yul\":6339:6360   */\n      tag_262\n      jump\t// in\n    tag_261:\n        /* \"#utility.yul\":6334:6337   */\n      dup3\n        /* \"#utility.yul\":6327:6361   */\n      mstore\n        /* \"#utility.yul\":6258:6367   */\n      pop\n      pop\n      jump\t// out\n        /* \"#utility.yul\":6373:6514   */\n    tag_263:\n        /* \"#utility.yul\":6465:6507   */\n      tag_265\n        /* \"#utility.yul\":6501:6506   */\n      dup2\n        /* \"#utility.yul\":6465:6507   */\n      tag_266\n      jump\t// in\n    tag_265:\n        /* \"#utility.yul\":6460:6463   */\n      dup3\n        /* \"#utility.yul\":6453:6508   */\n      mstore\n        /* \"#utility.yul\":6373:6514   */\n      pop\n      pop\n      jump\t// out\n        /* \"#utility.yul\":6520:6884   */\n    tag_267:\n        /* \"#utility.yul\":6608:6611   */\n      0x00\n        /* \"#utility.yul\":6636:6675   */\n      tag_269\n        /* \"#utility.yul\":6669:6674   */\n      dup3\n        /* \"#utility.yul\":6636:6675   */\n      tag_270\n      jump\t// in\n    tag_269:\n        /* \"#utility.yul\":6691:6762   */\n      tag_271\n        /* \"#utility.yul\":6755:6761   */\n      dup2\n        /* \"#utility.yul\":6750:6753   */\n      dup6\n        /* \"#utility.yul\":6691:6762   */\n      tag_272\n      jump\t// in\n    tag_271:\n        /* \"#utility.yul\":6684:6762   */\n      swap4\n      pop\n        /* \"#utility.yul\":6771:6823   */\n      tag_273\n        /* \"#utility.yul\":6816:6822   */\n      dup2\n        /* \"#utility.yul\":6811:6814   */\n      dup6\n        /* \"#utility.yul\":6804:6808   */\n      0x20\n        /* \"#utility.yul\":6797:6802   */\n      dup7\n        /* \"#utility.yul\":6793:6809   */\n      add\n        /* \"#utility.yul\":6771:6823   */\n      tag_274\n      jump\t// in\n    tag_273:\n        /* \"#utility.yul\":6848:6877   */\n      tag_275\n        /* \"#utility.yul\":6870:6876   */\n      dup2\n        /* \"#utility.yul\":6848:6877   */\n      tag_276\n      jump\t// in\n    tag_275:\n        /* \"#utility.yul\":6843:6846   */\n      dup5\n        /* \"#utility.yul\":6839:6878   */\n      add\n        /* \"#utility.yul\":6832:6878   */\n      swap2\n      pop\n        /* \"#utility.yul\":6612:6884   */\n      pop\n        /* \"#utility.yul\":6520:6884   */\n      swap3\n      swap2\n      pop\n      pop\n      jump\t// out\n        /* \"#utility.yul\":6890:7256   */\n    tag_277:\n        /* \"#utility.yul\":7032:7035   */\n      0x00\n        /* \"#utility.yul\":7053:7120   */\n      tag_279\n        /* \"#utility.yul\":7117:7119   */\n      0x19\n        /* \"#utility.yul\":7112:7115   */\n      dup4\n        /* \"#utility.yul\":7053:7120   */\n      tag_272\n      jump\t// in\n    tag_279:\n        /* \"#utility.yul\":7046:7120   */\n      swap2\n      pop\n        /* \"#utility.yul\":7129:7222   */\n      tag_280\n        /* \"#utility.yul\":7218:7221   */\n      dup3\n        /* \"#utility.yul\":7129:7222   */\n      tag_281\n      jump\t// in\n    tag_280:\n        /* \"#utility.yul\":7247:7249   */\n      0x20\n        /* \"#utility.yul\":7242:7245   */\n      dup3\n        /* \"#utility.yul\":7238:7250   */\n      add\n        /* \"#utility.yul\":7231:7250   */\n      swap1\n      pop\n        /* \"#utility.yul\":6890:7256   */\n      swap2\n      swap1\n      pop\n      jump\t// out\n        /* \"#utility.yul\":7262:7628   */\n    tag_282:\n        /* \"#utility.yul\":7404:7407   */\n      0x00\n        /* \"#utility.yul\":7425:7492   */\n      tag_284\n        /* \"#utility.yul\":7489:7491   */\n      0x1e\n        /* \"#utility.yul\":7484:7487   */\n      dup4\n        /* \"#utility.yul\":7425:7492   */\n      tag_272\n      jump\t// in\n    tag_284:\n        /* \"#utility.yul\":7418:7492   */\n      swap2\n      pop\n        /* \"#utility.yul\":7501:7594   */\n      tag_285\n        /* \"#utility.yul\":7590:7593   */\n      dup3\n        /* \"#utility.yul\":7501:7594   */\n      tag_286\n      jump\t// in\n    tag_285:\n        /* \"#utility.yul\":7619:7621   */\n      0x20\n        /* \"#utility.yul\":7614:7617   */\n      dup3\n        /* \"#utility.yul\":7610:7622   */\n      add\n        /* \"#utility.yul\":7603:7622   */\n      swap1\n      pop\n        /* \"#utility.yul\":7262:7628   */\n      swap2\n      swap1\n      pop\n      jump\t// out\n        /* \"#utility.yul\":7634:7752   */\n    tag_287:\n        /* \"#utility.yul\":7721:7745   */\n      tag_289\n        /* \"#utility.yul\":7739:7744   */\n      dup2\n        /* \"#utility.yul\":7721:7745   */\n      tag_290\n      jump\t// in\n    tag_289:\n        /* \"#utility.yul\":7716:7719   */\n      dup3\n        /* \"#utility.yul\":7709:7746   */\n      mstore\n        /* \"#utility.yul\":7634:7752   */\n      pop\n      pop\n      jump\t// out\n        /* \"#utility.yul\":7758:8012   */\n    tag_54:\n        /* \"#utility.yul\":7867:7871   */\n      0x00\n        /* \"#utility.yul\":7905:7907   */\n      0x20\n        /* \"#utility.yul\":7894:7903   */\n      dup3\n        /* \"#utility.yul\":7890:7908   */\n      add\n        /* \"#utility.yul\":7882:7908   */\n      swap1\n      pop\n        /* \"#utility.yul\":7918:8005   */\n      tag_292\n        /* \"#utility.yul\":8002:8003   */\n      0x00\n        /* \"#utility.yul\":7991:8000   */\n      dup4\n        /* \"#utility.yul\":7987:8004   */\n      add\n        /* \"#utility.yul\":7978:7984   */\n      dup5\n        /* \"#utility.yul\":7918:8005   */\n      tag_255\n      jump\t// in\n    tag_292:\n        /* \"#utility.yul\":7758:8012   */\n      swap3\n      swap2\n      pop\n      pop\n      jump\t// out\n        /* \"#utility.yul\":8018:8228   */\n    tag_36:\n        /* \"#utility.yul\":8105:8109   */\n      0x00\n        /* \"#utility.yul\":8143:8145   */\n      0x20\n        /* \"#utility.yul\":8132:8141   */\n      dup3\n        /* \"#utility.yul\":8128:8146   */\n      add\n        /* \"#utility.yul\":8120:8146   */\n      swap1\n      pop\n        /* \"#utility.yul\":8156:8221   */\n      tag_294\n        /* \"#utility.yul\":8218:8219   */\n      0x00\n        /* \"#utility.yul\":8207:8216   */\n      dup4\n        /* \"#utility.yul\":8203:8220   */\n      add\n        /* \"#utility.yul\":8194:8200   */\n      dup5\n        /* \"#utility.yul\":8156:8221   */\n      tag_259\n      jump\t// in\n    tag_294:\n        /* \"#utility.yul\":8018:8228   */\n      swap3\n      swap2\n      pop\n      pop\n      jump\t// out\n        /* \"#utility.yul\":8234:8667   */\n    tag_63:\n        /* \"#utility.yul\":8380:8384   */\n      0x00\n        /* \"#utility.yul\":8418:8420   */\n      0x40\n        /* \"#utility.yul\":8407:8416   */\n      dup3\n        /* \"#utility.yul\":8403:8421   */\n      add\n        /* \"#utility.yul\":8395:8421   */\n      swap1\n      pop\n        /* \"#utility.yul\":8431:8507   */\n      tag_296\n        /* \"#utility.yul\":8504:8505   */\n      0x00\n        /* \"#utility.yul\":8493:8502   */\n      dup4\n        /* \"#utility.yul\":8489:8506   */\n      add\n        /* \"#utility.yul\":8480:8486   */\n      dup6\n        /* \"#utility.yul\":8431:8507   */\n      tag_263\n      jump\t// in\n    tag_296:\n        /* \"#utility.yul\":8554:8563   */\n      dup2\n        /* \"#utility.yul\":8548:8552   */\n      dup2\n        /* \"#utility.yul\":8544:8564   */\n      sub\n        /* \"#utility.yul\":8539:8541   */\n      0x20\n        /* \"#utility.yul\":8528:8537   */\n      dup4\n        /* \"#utility.yul\":8524:8542   */\n      add\n        /* \"#utility.yul\":8517:8565   */\n      mstore\n        /* \"#utility.yul\":8582:8660   */\n      tag_297\n        /* \"#utility.yul\":8655:8659   */\n      dup2\n        /* \"#utility.yul\":8646:8652   */\n      dup5\n        /* \"#utility.yul\":8582:8660   */\n      tag_267\n      jump\t// in\n    tag_297:\n        /* \"#utility.yul\":8574:8660   */\n      swap1\n      pop\n        /* \"#utility.yul\":8234:8667   */\n      swap4\n      swap3\n      pop\n      pop\n      pop\n      jump\t// out\n        /* \"#utility.yul\":8673:8986   */\n    tag_19:\n        /* \"#utility.yul\":8786:8790   */\n      0x00\n        /* \"#utility.yul\":8824:8826   */\n      0x20\n        /* \"#utility.yul\":8813:8822   */\n      dup3\n        /* \"#utility.yul\":8809:8827   */\n      add\n        /* \"#utility.yul\":8801:8827   */\n      swap1\n      pop\n        /* \"#utility.yul\":8873:8882   */\n      dup2\n        /* \"#utility.yul\":8867:8871   */\n      dup2\n        /* \"#utility.yul\":8863:8883   */\n      sub\n        /* \"#utility.yul\":8859:8860   */\n      0x00\n        /* \"#utility.yul\":8848:8857   */\n      dup4\n        /* \"#utility.yul\":8844:8861   */\n      add\n        /* \"#utility.yul\":8837:8884   */\n      mstore\n        /* \"#utility.yul\":8901:8979   */\n      tag_299\n        /* \"#utility.yul\":8974:8978   */\n      dup2\n        /* \"#utility.yul\":8965:8971   */\n      dup5\n        /* \"#utility.yul\":8901:8979   */\n      tag_267\n      jump\t// in\n    tag_299:\n        /* \"#utility.yul\":8893:8979   */\n      swap1\n      pop\n        /* \"#utility.yul\":8673:8986   */\n      swap3\n      swap2\n      pop\n      pop\n      jump\t// out\n        /* \"#utility.yul\":8992:9411   */\n    tag_107:\n        /* \"#utility.yul\":9158:9162   */\n      0x00\n        /* \"#utility.yul\":9196:9198   */\n      0x20\n        /* \"#utility.yul\":9185:9194   */\n      dup3\n        /* \"#utility.yul\":9181:9199   */\n      add\n        /* \"#utility.yul\":9173:9199   */\n      swap1\n      pop\n        /* \"#utility.yul\":9245:9254   */\n      dup2\n        /* \"#utility.yul\":9239:9243   */\n      dup2\n        /* \"#utility.yul\":9235:9255   */\n      sub\n        /* \"#utility.yul\":9231:9232   */\n      0x00\n        /* \"#utility.yul\":9220:9229   */\n      dup4\n        /* \"#utility.yul\":9216:9233   */\n      add\n        /* \"#utility.yul\":9209:9256   */\n      mstore\n        /* \"#utility.yul\":9273:9404   */\n      tag_301\n        /* \"#utility.yul\":9399:9403   */\n      dup2\n        /* \"#utility.yul\":9273:9404   */\n      tag_277\n      jump\t// in\n    tag_301:\n        /* \"#utility.yul\":9265:9404   */\n      swap1\n      pop\n        /* \"#utility.yul\":8992:9411   */\n      swap2\n      swap1\n      pop\n      jump\t// out\n        /* \"#utility.yul\":9417:9836   */\n    tag_137:\n        /* \"#utility.yul\":9583:9587   */\n      0x00\n        /* \"#utility.yul\":9621:9623   */\n      0x20\n        /* \"#utility.yul\":9610:9619   */\n      dup3\n        /* \"#utility.yul\":9606:9624   */\n      add\n        /* \"#utility.yul\":9598:9624   */\n      swap1\n      pop\n        /* \"#utility.yul\":9670:9679   */\n      dup2\n        /* \"#utility.yul\":9664:9668   */\n      dup2\n        /* \"#utility.yul\":9660:9680   */\n      sub\n        /* \"#utility.yul\":9656:9657   */\n      0x00\n        /* \"#utility.yul\":9645:9654   */\n      dup4\n        /* \"#utility.yul\":9641:9658   */\n      add\n        /* \"#utility.yul\":9634:9681   */\n      mstore\n        /* \"#utility.yul\":9698:9829   */\n      tag_303\n        /* \"#utility.yul\":9824:9828   */\n      dup2\n        /* \"#utility.yul\":9698:9829   */\n      tag_282\n      jump\t// in\n    tag_303:\n        /* \"#utility.yul\":9690:9829   */\n      swap1\n      pop\n        /* \"#utility.yul\":9417:9836   */\n      swap2\n      swap1\n      pop\n      jump\t// out\n        /* \"#utility.yul\":9842:10064   */\n    tag_69:\n        /* \"#utility.yul\":9935:9939   */\n      0x00\n        /* \"#utility.yul\":9973:9975   */\n      0x20\n        /* \"#utility.yul\":9962:9971   */\n      dup3\n        /* \"#utility.yul\":9958:9976   */\n      add\n        /* \"#utility.yul\":9950:9976   */\n      swap1\n      pop\n        /* \"#utility.yul\":9986:10057   */\n      tag_305\n        /* \"#utility.yul\":10054:10055   */\n      0x00\n        /* \"#utility.yul\":10043:10052   */\n      dup4\n        /* \"#utility.yul\":10039:10056   */\n      add\n        /* \"#utility.yul\":10030:10036   */\n      dup5\n        /* \"#utility.yul\":9986:10057   */\n      tag_287\n      jump\t// in\n    tag_305:\n        /* \"#utility.yul\":9842:10064   */\n      swap3\n      swap2\n      pop\n      pop\n      jump\t// out\n        /* \"#utility.yul\":10070:10199   */\n    tag_181:\n        /* \"#utility.yul\":10104:10110   */\n      0x00\n        /* \"#utility.yul\":10131:10151   */\n      tag_307\n      tag_308\n      jump\t// in\n    tag_307:\n        /* \"#utility.yul\":10121:10151   */\n      swap1\n      pop\n        /* \"#utility.yul\":10160:10193   */\n      tag_309\n        /* \"#utility.yul\":10188:10192   */\n      dup3\n        /* \"#utility.yul\":10180:10186   */\n      dup3\n        /* \"#utility.yul\":10160:10193   */\n      tag_310\n      jump\t// in\n    tag_309:\n        /* \"#utility.yul\":10070:10199   */\n      swap2\n      swap1\n      pop\n      jump\t// out\n        /* \"#utility.yul\":10205:10280   */\n    tag_308:\n        /* \"#utility.yul\":10238:10244   */\n      0x00\n        /* \"#utility.yul\":10271:10273   */\n      0x40\n        /* \"#utility.yul\":10265:10274   */\n      mload\n        /* \"#utility.yul\":10255:10274   */\n      swap1\n      pop\n        /* \"#utility.yul\":10205:10280   */\n      swap1\n      jump\t// out\n        /* \"#utility.yul\":10286:10594   */\n    tag_180:\n        /* \"#utility.yul\":10348:10352   */\n      0x00\n        /* \"#utility.yul\":10438:10456   */\n      0xffffffffffffffff\n        /* \"#utility.yul\":10430:10436   */\n      dup3\n        /* \"#utility.yul\":10427:10457   */\n      gt\n        /* \"#utility.yul\":10424:10480   */\n      iszero\n      tag_313\n      jumpi\n        /* \"#utility.yul\":10460:10478   */\n      tag_314\n      tag_315\n      jump\t// in\n    tag_314:\n        /* \"#utility.yul\":10424:10480   */\n    tag_313:\n        /* \"#utility.yul\":10498:10527   */\n      tag_316\n        /* \"#utility.yul\":10520:10526   */\n      dup3\n        /* \"#utility.yul\":10498:10527   */\n      tag_276\n      jump\t// in\n    tag_316:\n        /* \"#utility.yul\":10490:10527   */\n      swap1\n      pop\n        /* \"#utility.yul\":10582:10586   */\n      0x20\n        /* \"#utility.yul\":10576:10580   */\n      dup2\n        /* \"#utility.yul\":10572:10587   */\n      add\n        /* \"#utility.yul\":10564:10587   */\n      swap1\n      pop\n        /* \"#utility.yul\":10286:10594   */\n      swap2\n      swap1\n      pop\n      jump\t// out\n        /* \"#utility.yul\":10600:10699   */\n    tag_270:\n        /* \"#utility.yul\":10652:10658   */\n      0x00\n        /* \"#utility.yul\":10686:10691   */\n      dup2\n        /* \"#utility.yul\":10680:10692   */\n      mload\n        /* \"#utility.yul\":10670:10692   */\n      swap1\n      pop\n        /* \"#utility.yul\":10600:10699   */\n      swap2\n      swap1\n      pop\n      jump\t// out\n        /* \"#utility.yul\":10705:10874   */\n    tag_272:\n        /* \"#utility.yul\":10789:10800   */\n      0x00\n        /* \"#utility.yul\":10823:10829   */\n      dup3\n        /* \"#utility.yul\":10818:10821   */\n      dup3\n        /* \"#utility.yul\":10811:10830   */\n      mstore\n        /* \"#utility.yul\":10863:10867   */\n      0x20\n        /* \"#utility.yul\":10858:10861   */\n      dup3\n        /* \"#utility.yul\":10854:10868   */\n      add\n        /* \"#utility.yul\":10839:10868   */\n      swap1\n      pop\n        /* \"#utility.yul\":10705:10874   */\n      swap3\n      swap2\n      pop\n      pop\n      jump\t// out\n        /* \"#utility.yul\":10880:11185   */\n    tag_128:\n        /* \"#utility.yul\":10920:10923   */\n      0x00\n        /* \"#utility.yul\":10939:10959   */\n      tag_320\n        /* \"#utility.yul\":10957:10958   */\n      dup3\n        /* \"#utility.yul\":10939:10959   */\n      tag_290\n      jump\t// in\n    tag_320:\n        /* \"#utility.yul\":10934:10959   */\n      swap2\n      pop\n        /* \"#utility.yul\":10973:10993   */\n      tag_321\n        /* \"#utility.yul\":10991:10992   */\n      dup4\n        /* \"#utility.yul\":10973:10993   */\n      tag_290\n      jump\t// in\n    tag_321:\n        /* \"#utility.yul\":10968:10993   */\n      swap3\n      pop\n        /* \"#utility.yul\":11127:11128   */\n      dup3\n        /* \"#utility.yul\":11059:11125   */\n      0xffffffffffffffffffffffffffffffffffffffffffffffffffffffffffffffff\n        /* \"#utility.yul\":11055:11129   */\n      sub\n        /* \"#utility.yul\":11052:11053   */\n      dup3\n        /* \"#utility.yul\":11049:11130   */\n      gt\n        /* \"#utility.yul\":11046:11153   */\n      iszero\n      tag_322\n      jumpi\n        /* \"#utility.yul\":11133:11151   */\n      tag_323\n      tag_324\n      jump\t// in\n    tag_323:\n        /* \"#utility.yul\":11046:11153   */\n    tag_322:\n        /* \"#utility.yul\":11177:11178   */\n      dup3\n        /* \"#utility.yul\":11174:11175   */\n      dup3\n        /* \"#utility.yul\":11170:11179   */\n      add\n        /* \"#utility.yul\":11163:11179   */\n      swap1\n      pop\n        /* \"#utility.yul\":10880:11185   */\n      swap3\n      swap2\n      pop\n      pop\n      jump\t// out\n        /* \"#utility.yul\":11191:11376   */\n    tag_151:\n        /* \"#utility.yul\":11231:11232   */\n      0x00\n        /* \"#utility.yul\":11248:11268   */\n      tag_326\n        /* \"#utility.yul\":11266:11267   */\n      dup3\n        /* \"#utility.yul\":11248:11268   */\n      tag_290\n      jump\t// in\n    tag_326:\n        /* \"#utility.yul\":11243:11268   */\n      swap2\n      pop\n        /* \"#utility.yul\":11282:11302   */\n      tag_327\n        /* \"#utility.yul\":11300:11301   */\n      dup4\n        /* \"#utility.yul\":11282:11302   */\n      tag_290\n      jump\t// in\n    tag_327:\n        /* \"#utility.yul\":11277:11302   */\n      swap3\n      pop\n        /* \"#utility.yul\":11321:11322   */\n      dup3\n        /* \"#utility.yul\":11311:11346   */\n      tag_328\n      jumpi\n        /* \"#utility.yul\":11326:11344   */\n      tag_329\n      tag_330\n      jump\t// in\n    tag_329:\n        /* \"#utility.yul\":11311:11346   */\n    tag_328:\n        /* \"#utility.yul\":11368:11369   */\n      dup3\n        /* \"#utility.yul\":11365:11366   */\n      dup3\n        /* \"#utility.yul\":11361:11370   */\n      div\n        /* \"#utility.yul\":11356:11370   */\n      swap1\n      pop\n        /* \"#utility.yul\":11191:11376   */\n      swap3\n      swap2\n      pop\n      pop\n      jump\t// out\n        /* \"#utility.yul\":11382:11573   */\n    tag_126:\n        /* \"#utility.yul\":11422:11426   */\n      0x00\n        /* \"#utility.yul\":11442:11462   */\n      tag_332\n        /* \"#utility.yul\":11460:11461   */\n      dup3\n        /* \"#utility.yul\":11442:11462   */\n      tag_290\n      jump\t// in\n    tag_332:\n        /* \"#utility.yul\":11437:11462   */\n      swap2\n      pop\n        /* \"#utility.yul\":11476:11496   */\n      tag_333\n        /* \"#utility.yul\":11494:11495   */\n      dup4\n        /* \"#utility.yul\":11476:11496   */\n      tag_290\n      jump\t// in\n    tag_333:\n        /* \"#utility.yul\":11471:11496   */\n      swap3\n      pop\n        /* \"#utility.yul\":11515:11516   */\n      dup3\n        /* \"#utility.yul\":11512:11513   */\n      dup3\n        /* \"#utility.yul\":11509:11517   */\n      lt\n        /* \"#utility.yul\":11506:11540   */\n      iszero\n      tag_334\n      jumpi\n        /* \"#utility.yul\":11520:11538   */\n      tag_335\n      tag_324\n      jump\t// in\n    tag_335:\n        /* \"#utility.yul\":11506:11540   */\n    tag_334:\n        /* \"#utility.yul\":11565:11566   */\n      dup3\n        /* \"#utility.yul\":11562:11563   */\n      dup3\n        /* \"#utility.yul\":11558:11567   */\n      sub\n        /* \"#utility.yul\":11550:11567   */\n      swap1\n      pop\n        /* \"#utility.yul\":11382:11573   */\n      swap3\n      swap2\n      pop\n      pop\n      jump\t// out\n        /* \"#utility.yul\":11579:11675   */\n    tag_336:\n        /* \"#utility.yul\":11616:11623   */\n      0x00\n        /* \"#utility.yul\":11645:11669   */\n      tag_338\n        /* \"#utility.yul\":11663:11668   */\n      dup3\n        /* \"#utility.yul\":11645:11669   */\n      tag_339\n      jump\t// in\n    tag_338:\n        /* \"#utility.yul\":11634:11669   */\n      swap1\n      pop\n        /* \"#utility.yul\":11579:11675   */\n      swap2\n      swap1\n      pop\n      jump\t// out\n        /* \"#utility.yul\":11681:11785   */\n    tag_258:\n        /* \"#utility.yul\":11726:11733   */\n      0x00\n        /* \"#utility.yul\":11755:11779   */\n      tag_341\n        /* \"#utility.yul\":11773:11778   */\n      dup3\n        /* \"#utility.yul\":11755:11779   */\n      tag_339\n      jump\t// in\n    tag_341:\n        /* \"#utility.yul\":11744:11779   */\n      swap1\n      pop\n        /* \"#utility.yul\":11681:11785   */\n      swap2\n      swap1\n      pop\n      jump\t// out\n        /* \"#utility.yul\":11791:11881   */\n    tag_262:\n        /* \"#utility.yul\":11825:11832   */\n      0x00\n        /* \"#utility.yul\":11868:11873   */\n      dup2\n        /* \"#utility.yul\":11861:11874   */\n      iszero\n        /* \"#utility.yul\":11854:11875   */\n      iszero\n        /* \"#utility.yul\":11843:11875   */\n      swap1\n      pop\n        /* \"#utility.yul\":11791:11881   */\n      swap2\n      swap1\n      pop\n      jump\t// out\n        /* \"#utility.yul\":11887:12012   */\n    tag_343:\n        /* \"#utility.yul\":11931:11938   */\n      0x00\n        /* \"#utility.yul\":11960:11965   */\n      dup2\n        /* \"#utility.yul\":11949:11965   */\n      swap1\n      pop\n        /* \"#utility.yul\":11966:12006   */\n      tag_345\n        /* \"#utility.yul\":12000:12005   */\n      dup3\n        /* \"#utility.yul\":11966:12006   */\n      tag_346\n      jump\t// in\n    tag_345:\n        /* \"#utility.yul\":11887:12012   */\n      swap2\n      swap1\n      pop\n      jump\t// out\n        /* \"#utility.yul\":12018:12144   */\n    tag_339:\n        /* \"#utility.yul\":12055:12062   */\n      0x00\n        /* \"#utility.yul\":12095:12137   */\n      0xffffffffffffffffffffffffffffffffffffffff\n        /* \"#utility.yul\":12088:12093   */\n      dup3\n        /* \"#utility.yul\":12084:12138   */\n      and\n        /* \"#utility.yul\":12073:12138   */\n      swap1\n      pop\n        /* \"#utility.yul\":12018:12144   */\n      swap2\n      swap1\n      pop\n      jump\t// out\n        /* \"#utility.yul\":12150:12227   */\n    tag_290:\n        /* \"#utility.yul\":12187:12194   */\n      0x00\n        /* \"#utility.yul\":12216:12221   */\n      dup2\n        /* \"#utility.yul\":12205:12221   */\n      swap1\n      pop\n        /* \"#utility.yul\":12150:12227   */\n      swap2\n      swap1\n      pop\n      jump\t// out\n        /* \"#utility.yul\":12233:12358   */\n    tag_266:\n        /* \"#utility.yul\":12288:12297   */\n      0x00\n        /* \"#utility.yul\":12321:12352   */\n      tag_350\n        /* \"#utility.yul\":12346:12351   */\n      dup3\n        /* \"#utility.yul\":12321:12352   */\n      tag_343\n      jump\t// in\n    tag_350:\n        /* \"#utility.yul\":12308:12352   */\n      swap1\n      pop\n        /* \"#utility.yul\":12233:12358   */\n      swap2\n      swap1\n      pop\n      jump\t// out\n        /* \"#utility.yul\":12364:12518   */\n    tag_186:\n        /* \"#utility.yul\":12448:12454   */\n      dup3\n        /* \"#utility.yul\":12443:12446   */\n      dup2\n        /* \"#utility.yul\":12438:12441   */\n      dup4\n        /* \"#utility.yul\":12425:12455   */\n      calldatacopy\n        /* \"#utility.yul\":12510:12511   */\n      0x00\n        /* \"#utility.yul\":12501:12507   */\n      dup4\n        /* \"#utility.yul\":12496:12499   */\n      dup4\n        /* \"#utility.yul\":12492:12508   */\n      add\n        /* \"#utility.yul\":12485:12512   */\n      mstore\n        /* \"#utility.yul\":12364:12518   */\n      pop\n      pop\n      pop\n      jump\t// out\n        /* \"#utility.yul\":12524:12831   */\n    tag_274:\n        /* \"#utility.yul\":12592:12593   */\n      0x00\n        /* \"#utility.yul\":12602:12715   */\n    tag_353:\n        /* \"#utility.yul\":12616:12622   */\n      dup4\n        /* \"#utility.yul\":12613:12614   */\n      dup2\n        /* \"#utility.yul\":12610:12623   */\n      lt\n        /* \"#utility.yul\":12602:12715   */\n      iszero\n      tag_355\n      jumpi\n        /* \"#utility.yul\":12701:12702   */\n      dup1\n        /* \"#utility.yul\":12696:12699   */\n      dup3\n        /* \"#utility.yul\":12692:12703   */\n      add\n        /* \"#utility.yul\":12686:12704   */\n      mload\n        /* \"#utility.yul\":12682:12683   */\n      dup2\n        /* \"#utility.yul\":12677:12680   */\n      dup5\n        /* \"#utility.yul\":12673:12684   */\n      add\n        /* \"#utility.yul\":12666:12705   */\n      mstore\n        /* \"#utility.yul\":12638:12640   */\n      0x20\n        /* \"#utility.yul\":12635:12636   */\n      dup2\n        /* \"#utility.yul\":12631:12641   */\n      add\n        /* \"#utility.yul\":12626:12641   */\n      swap1\n      pop\n        /* \"#utility.yul\":12602:12715   */\n      jump(tag_353)\n    tag_355:\n        /* \"#utility.yul\":12733:12739   */\n      dup4\n        /* \"#utility.yul\":12730:12731   */\n      dup2\n        /* \"#utility.yul\":12727:12740   */\n      gt\n        /* \"#utility.yul\":12724:12825   */\n      iszero\n      tag_356\n      jumpi\n        /* \"#utility.yul\":12813:12814   */\n      0x00\n        /* \"#utility.yul\":12804:12810   */\n      dup5\n        /* \"#utility.yul\":12799:12802   */\n      dup5\n        /* \"#utility.yul\":12795:12811   */\n      add\n        /* \"#utility.yul\":12788:12815   */\n      mstore\n        /* \"#utility.yul\":12724:12825   */\n    tag_356:\n        /* \"#utility.yul\":12573:12831   */\n      pop\n        /* \"#utility.yul\":12524:12831   */\n      pop\n      pop\n      pop\n      jump\t// out\n        /* \"#utility.yul\":12837:13157   */\n    tag_76:\n        /* \"#utility.yul\":12881:12887   */\n      0x00\n        /* \"#utility.yul\":12918:12919   */\n      0x02\n        /* \"#utility.yul\":12912:12916   */\n      dup3\n        /* \"#utility.yul\":12908:12920   */\n      div\n        /* \"#utility.yul\":12898:12920   */\n      swap1\n      pop\n        /* \"#utility.yul\":12965:12966   */\n      0x01\n        /* \"#utility.yul\":12959:12963   */\n      dup3\n        /* \"#utility.yul\":12955:12967   */\n      and\n        /* \"#utility.yul\":12986:13004   */\n      dup1\n        /* \"#utility.yul\":12976:13057   */\n      tag_358\n      jumpi\n        /* \"#utility.yul\":13042:13046   */\n      0x7f\n        /* \"#utility.yul\":13034:13040   */\n      dup3\n        /* \"#utility.yul\":13030:13047   */\n      and\n        /* \"#utility.yul\":13020:13047   */\n      swap2\n      pop\n        /* \"#utility.yul\":12976:13057   */\n    tag_358:\n        /* \"#utility.yul\":13104:13106   */\n      0x20\n        /* \"#utility.yul\":13096:13102   */\n      dup3\n        /* \"#utility.yul\":13093:13107   */\n      lt\n        /* \"#utility.yul\":13073:13091   */\n      dup2\n        /* \"#utility.yul\":13070:13108   */\n      eq\n        /* \"#utility.yul\":13067:13151   */\n      iszero\n      tag_359\n      jumpi\n        /* \"#utility.yul\":13123:13141   */\n      tag_360\n      tag_361\n      jump\t// in\n    tag_360:\n        /* \"#utility.yul\":13067:13151   */\n    tag_359:\n        /* \"#utility.yul\":12888:13157   */\n      pop\n        /* \"#utility.yul\":12837:13157   */\n      swap2\n      swap1\n      pop\n      jump\t// out\n        /* \"#utility.yul\":13163:13444   */\n    tag_310:\n        /* \"#utility.yul\":13246:13273   */\n      tag_363\n        /* \"#utility.yul\":13268:13272   */\n      dup3\n        /* \"#utility.yul\":13246:13273   */\n      tag_276\n      jump\t// in\n    tag_363:\n        /* \"#utility.yul\":13238:13244   */\n      dup2\n        /* \"#utility.yul\":13234:13274   */\n      add\n        /* \"#utility.yul\":13376:13382   */\n      dup2\n        /* \"#utility.yul\":13364:13374   */\n      dup2\n        /* \"#utility.yul\":13361:13383   */\n      lt\n        /* \"#utility.yul\":13340:13358   */\n      0xffffffffffffffff\n        /* \"#utility.yul\":13328:13338   */\n      dup3\n        /* \"#utility.yul\":13325:13359   */\n      gt\n        /* \"#utility.yul\":13322:13384   */\n      or\n        /* \"#utility.yul\":13319:13407   */\n      iszero\n      tag_364\n      jumpi\n        /* \"#utility.yul\":13387:13405   */\n      tag_365\n      tag_315\n      jump\t// in\n    tag_365:\n        /* \"#utility.yul\":13319:13407   */\n    tag_364:\n        /* \"#utility.yul\":13427:13437   */\n      dup1\n        /* \"#utility.yul\":13423:13425   */\n      0x40\n        /* \"#utility.yul\":13416:13438   */\n      mstore\n        /* \"#utility.yul\":13206:13444   */\n      pop\n        /* \"#utility.yul\":13163:13444   */\n      pop\n      pop\n      jump\t// out\n        /* \"#utility.yul\":13450:13630   */\n    tag_324:\n        /* \"#utility.yul\":13498:13575   */\n      0x4e487b7100000000000000000000000000000000000000000000000000000000\n        /* \"#utility.yul\":13495:13496   */\n      0x00\n        /* \"#utility.yul\":13488:13576   */\n      mstore\n        /* \"#utility.yul\":13595:13599   */\n      0x11\n        /* \"#utility.yul\":13592:13593   */\n      0x04\n        /* \"#utility.yul\":13585:13600   */\n      mstore\n        /* \"#utility.yul\":13619:13623   */\n      0x24\n        /* \"#utility.yul\":13616:13617   */\n      0x00\n        /* \"#utility.yul\":13609:13624   */\n      revert\n        /* \"#utility.yul\":13636:13816   */\n    tag_330:\n        /* \"#utility.yul\":13684:13761   */\n      0x4e487b7100000000000000000000000000000000000000000000000000000000\n        /* \"#utility.yul\":13681:13682   */\n      0x00\n        /* \"#utility.yul\":13674:13762   */\n      mstore\n        /* \"#utility.yul\":13781:13785   */\n      0x12\n        /* \"#utility.yul\":13778:13779   */\n      0x04\n        /* \"#utility.yul\":13771:13786   */\n      mstore\n        /* \"#utility.yul\":13805:13809   */\n      0x24\n        /* \"#utility.yul\":13802:13803   */\n      0x00\n        /* \"#utility.yul\":13795:13810   */\n      revert\n        /* \"#utility.yul\":13822:14002   */\n    tag_84:\n        /* \"#utility.yul\":13870:13947   */\n      0x4e487b7100000000000000000000000000000000000000000000000000000000\n        /* \"#utility.yul\":13867:13868   */\n      0x00\n        /* \"#utility.yul\":13860:13948   */\n      mstore\n        /* \"#utility.yul\":13967:13971   */\n      0x21\n        /* \"#utility.yul\":13964:13965   */\n      0x04\n        /* \"#utility.yul\":13957:13972   */\n      mstore\n        /* \"#utility.yul\":13991:13995   */\n      0x24\n        /* \"#utility.yul\":13988:13989   */\n      0x00\n        /* \"#utility.yul\":13981:13996   */\n      revert\n        /* \"#utility.yul\":14008:14188   */\n    tag_361:\n        /* \"#utility.yul\":14056:14133   */\n      0x4e487b7100000000000000000000000000000000000000000000000000000000\n        /* \"#utility.yul\":14053:14054   */\n      0x00\n        /* \"#utility.yul\":14046:14134   */\n      mstore\n        /* \"#utility.yul\":14153:14157   */\n      0x22\n        /* \"#utility.yul\":14150:14151   */\n      0x04\n        /* \"#utility.yul\":14143:14158   */\n      mstore\n        /* \"#utility.yul\":14177:14181   */\n      0x24\n        /* \"#utility.yul\":14174:14175   */\n      0x00\n        /* \"#utility.yul\":14167:14182   */\n      revert\n        /* \"#utility.yul\":14194:14374   */\n    tag_111:\n        /* \"#utility.yul\":14242:14319   */\n      0x4e487b7100000000000000000000000000000000000000000000000000000000\n        /* \"#utility.yul\":14239:14240   */\n      0x00\n        /* \"#utility.yul\":14232:14320   */\n      mstore\n        /* \"#utility.yul\":14339:14343   */\n      0x32\n        /* \"#utility.yul\":14336:14337   */\n      0x04\n        /* \"#utility.yul\":14329:14344   */\n      mstore\n        /* \"#utility.yul\":14363:14367   */\n      0x24\n        /* \"#utility.yul\":14360:14361   */\n      0x00\n        /* \"#utility.yul\":14353:14368   */\n      revert\n        /* \"#utility.yul\":14380:14560   */\n    tag_315:\n        /* \"#utility.yul\":14428:14505   */\n      0x4e487b7100000000000000000000000000000000000000000000000000000000\n        /* \"#utility.yul\":14425:14426   */\n      0x00\n        /* \"#utility.yul\":14418:14506   */\n      mstore\n        /* \"#utility.yul\":14525:14529   */\n      0x41\n        /* \"#utility.yul\":14522:14523   */\n      0x04\n        /* \"#utility.yul\":14515:14530   */\n      mstore\n        /* \"#utility.yul\":14549:14553   */\n      0x24\n        /* \"#utility.yul\":14546:14547   */\n      0x00\n        /* \"#utility.yul\":14539:14554   */\n      revert\n        /* \"#utility.yul\":14566:14683   */\n    tag_199:\n        /* \"#utility.yul\":14675:14676   */\n      0x00\n        /* \"#utility.yul\":14672:14673   */\n      dup1\n        /* \"#utility.yul\":14665:14677   */\n      revert\n        /* \"#utility.yul\":14689:14806   */\n    tag_184:\n        /* \"#utility.yul\":14798:14799   */\n      0x00\n        /* \"#utility.yul\":14795:14796   */\n      dup1\n        /* \"#utility.yul\":14788:14800   */\n      revert\n        /* \"#utility.yul\":14812:14929   */\n    tag_217:\n        /* \"#utility.yul\":14921:14922   */\n      0x00\n        /* \"#utility.yul\":14918:14919   */\n      dup1\n        /* \"#utility.yul\":14911:14923   */\n      revert\n        /* \"#utility.yul\":14935:15052   */\n    tag_208:\n        /* \"#utility.yul\":15044:15045   */\n      0x00\n        /* \"#utility.yul\":15041:15042   */\n      dup1\n        /* \"#utility.yul\":15034:15046   */\n      revert\n        /* \"#utility.yul\":15058:15160   */\n    tag_276:\n        /* \"#utility.yul\":15099:15105   */\n      0x00\n        /* \"#utility.yul\":15150:15152   */\n      0x1f\n        /* \"#utility.yul\":15146:15153   */\n      not\n        /* \"#utility.yul\":15141:15143   */\n      0x1f\n        /* \"#utility.yul\":15134:15139   */\n      dup4\n        /* \"#utility.yul\":15130:15144   */\n      add\n        /* \"#utility.yul\":15126:15154   */\n      and\n        /* \"#utility.yul\":15116:15154   */\n      swap1\n      pop\n        /* \"#utility.yul\":15058:15160   */\n      swap2\n      swap1\n      pop\n      jump\t// out\n        /* \"#utility.yul\":15166:15341   */\n    tag_281:\n        /* \"#utility.yul\":15306:15333   */\n      0x63616c6c6572206973206e6f7420612070726f64756365722e00000000000000\n        /* \"#utility.yul\":15302:15303   */\n      0x00\n        /* \"#utility.yul\":15294:15300   */\n      dup3\n        /* \"#utility.yul\":15290:15304   */\n      add\n        /* \"#utility.yul\":15283:15334   */\n      mstore\n        /* \"#utility.yul\":15166:15341   */\n      pop\n      jump\t// out\n        /* \"#utility.yul\":15347:15527   */\n    tag_286:\n        /* \"#utility.yul\":15487:15519   */\n      0x63616c6c6572206973206e6f742074686520746f6b656e206f776e65722e0000\n        /* \"#utility.yul\":15483:15484   */\n      0x00\n        /* \"#utility.yul\":15475:15481   */\n      dup3\n        /* \"#utility.yul\":15471:15485   */\n      add\n        /* \"#utility.yul\":15464:15520   */\n      mstore\n        /* \"#utility.yul\":15347:15527   */\n      pop\n      jump\t// out\n        /* \"#utility.yul\":15533:15645   */\n    tag_346:\n        /* \"#utility.yul\":15613:15614   */\n      0x05\n        /* \"#utility.yul\":15606:15611   */\n      dup2\n        /* \"#utility.yul\":15603:15615   */\n      lt\n        /* \"#utility.yul\":15593:15639   */\n      tag_380\n      jumpi\n        /* \"#utility.yul\":15619:15637   */\n      tag_381\n      tag_84\n      jump\t// in\n    tag_381:\n        /* \"#utility.yul\":15593:15639   */\n    tag_380:\n        /* \"#utility.yul\":15533:15645   */\n      pop\n      jump\t// out\n        /* \"#utility.yul\":15651:15773   */\n    tag_190:\n        /* \"#utility.yul\":15724:15748   */\n      tag_383\n        /* \"#utility.yul\":15742:15747   */\n      dup2\n        /* \"#utility.yul\":15724:15748   */\n      tag_336\n      jump\t// in\n    tag_383:\n        /* \"#utility.yul\":15717:15722   */\n      dup2\n        /* \"#utility.yul\":15714:15749   */\n      eq\n        /* \"#utility.yul\":15704:15767   */\n      tag_384\n      jumpi\n        /* \"#utility.yul\":15763:15764   */\n      0x00\n        /* \"#utility.yul\":15760:15761   */\n      dup1\n        /* \"#utility.yul\":15753:15765   */\n      revert\n        /* \"#utility.yul\":15704:15767   */\n    tag_384:\n        /* \"#utility.yul\":15651:15773   */\n      pop\n      jump\t// out\n        /* \"#utility.yul\":15779:15885   */\n    tag_194:\n        /* \"#utility.yul\":15859:15860   */\n      0x05\n        /* \"#utility.yul\":15852:15857   */\n      dup2\n        /* \"#utility.yul\":15849:15861   */\n      lt\n        /* \"#utility.yul\":15839:15879   */\n      tag_386\n      jumpi\n        /* \"#utility.yul\":15875:15876   */\n      0x00\n        /* \"#utility.yul\":15872:15873   */\n      dup1\n        /* \"#utility.yul\":15865:15877   */\n      revert\n        /* \"#utility.yul\":15839:15879   */\n    tag_386:\n        /* \"#utility.yul\":15779:15885   */\n      pop\n      jump\t// out\n        /* \"#utility.yul\":15891:16013   */\n    tag_204:\n        /* \"#utility.yul\":15964:15988   */\n      tag_388\n        /* \"#utility.yul\":15982:15987   */\n      dup2\n        /* \"#utility.yul\":15964:15988   */\n      tag_290\n      jump\t// in\n    tag_388:\n        /* \"#utility.yul\":15957:15962   */\n      dup2\n        /* \"#utility.yul\":15954:15989   */\n      eq\n        /* \"#utility.yul\":15944:16007   */\n      tag_389\n      jumpi\n        /* \"#utility.yul\":16003:16004   */\n      0x00\n        /* \"#utility.yul\":16000:16001   */\n      dup1\n        /* \"#utility.yul\":15993:16005   */\n      revert\n        /* \"#utility.yul\":15944:16007   */\n    tag_389:\n        /* \"#utility.yul\":15891:16013   */\n      pop\n      jump\t// out\n\n    auxdata: 0xa2646970667358221220a7cd15b2fc9cb1df9176afe33157156eb9e4f2ebb33f0fe14b3b3bdfaae3188064736f6c63430008070033\n}\n",
				"bytecode": {
					"linkReferences": {},
					"object": "60806040523480156200001157600080fd5b5060405162001ee238038062001ee2833981810160405281019062000037919062000243565b82600090805190602001906200004f929190620000fe565b50816001908051906020019062000068929190620000fe565b508060038190555033600260006101000a81548173ffffffffffffffffffffffffffffffffffffffff021916908373ffffffffffffffffffffffffffffffffffffffff16021790555080600460003373ffffffffffffffffffffffffffffffffffffffff1673ffffffffffffffffffffffffffffffffffffffff1681526020019081526020016000208190555050505062000485565b8280546200010c906200037c565b90600052602060002090601f0160209004810192826200013057600085556200017c565b82601f106200014b57805160ff19168380011785556200017c565b828001600101855582156200017c579182015b828111156200017b5782518255916020019190600101906200015e565b5b5090506200018b91906200018f565b5090565b5b80821115620001aa57600081600090555060010162000190565b5090565b6000620001c5620001bf8462000306565b620002dd565b905082815260208101848484011115620001e457620001e36200044b565b5b620001f184828562000346565b509392505050565b600082601f83011262000211576200021062000446565b5b815162000223848260208601620001ae565b91505092915050565b6000815190506200023d816200046b565b92915050565b6000806000606084860312156200025f576200025e62000455565b5b600084015167ffffffffffffffff81111562000280576200027f62000450565b5b6200028e86828701620001f9565b935050602084015167ffffffffffffffff811115620002b257620002b162000450565b5b620002c086828701620001f9565b9250506040620002d3868287016200022c565b9150509250925092565b6000620002e9620002fc565b9050620002f78282620003b2565b919050565b6000604051905090565b600067ffffffffffffffff82111562000324576200032362000417565b5b6200032f826200045a565b9050602081019050919050565b6000819050919050565b60005b838110156200036657808201518184015260208101905062000349565b8381111562000376576000848401525b50505050565b600060028204905060018216806200039557607f821691505b60208210811415620003ac57620003ab620003e8565b5b50919050565b620003bd826200045a565b810181811067ffffffffffffffff82111715620003df57620003de62000417565b5b80604052505050565b7f4e487b7100000000000000000000000000000000000000000000000000000000600052602260045260246000fd5b7f4e487b7100000000000000000000000000000000000000000000000000000000600052604160045260246000fd5b600080fd5b600080fd5b600080fd5b600080fd5b6000601f19601f8301169050919050565b62000476816200033c565b81146200048257600080fd5b50565b611a4d80620004956000396000f3fe6080604052600436106100a75760003560e01c8063a0712d6811610064578063a0712d68146101ba578063a3e67610146101e3578063a48217191461020e578063b292abf114610218578063cd0c589614610256578063eedc966a14610293576100a7565b806306fdde03146100ac57806340932fc2146100d7578063561e0e981461010057806368cdafe61461012957806395d89b41146101665780639dc29fac14610191575b600080fd5b3480156100b857600080fd5b506100c16102d0565b6040516100ce9190611566565b60405180910390f35b3480156100e357600080fd5b506100fe60048036038101906100f991906111c6565b61035e565b005b34801561010c57600080fd5b50610127600480360381019061012291906112a2565b610594565b005b34801561013557600080fd5b50610150600480360381019061014b9190611235565b6108e0565b60405161015d919061151b565b60405180910390f35b34801561017257600080fd5b5061017b610a1e565b6040516101889190611566565b60405180910390f35b34801561019d57600080fd5b506101b860048036038101906101b39190611235565b610aac565b005b3480156101c657600080fd5b506101e160048036038101906101dc9190611275565b610c35565b005b3480156101ef57600080fd5b506101f8610d37565b6040516102059190611500565b60405180910390f35b610216610d5d565b005b34801561022457600080fd5b5061023f600480360381019061023a9190611199565b610eb5565b60405161024d929190611536565b60405180910390f35b34801561026257600080fd5b5061027d60048036038101906102789190611199565b610fdd565b60405161028a91906115c8565b60405180910390f35b34801561029f57600080fd5b506102ba60048036038101906102b59190611199565b610ffe565b6040516102c791906115c8565b60405180910390f35b600080546102dd906117d1565b80601f0160208091040260200160405190810160405280929190818152602001828054610309906117d1565b80156103565780601f1061032b57610100808354040283529160200191610356565b820191906000526020600020905b81548152906001019060200180831161033957829003601f168201915b505050505081565b6000600560008573ffffffffffffffffffffffffffffffffffffffff1673ffffffffffffffffffffffffffffffffffffffff1681526020019081526020016000206040518060600160405290816000820160009054906101000a900460ff1660048111156103cf576103ce611892565b5b60048111156103e1576103e0611892565b5b81526020016001820180546103f5906117d1565b80601f0160208091040260200160405190810160405280929190818152602001828054610421906117d1565b801561046e5780601f106104435761010080835404028352916020019161046e565b820191906000526020600020905b81548152906001019060200180831161045157829003601f168201915b505050505081526020016002820160009054906101000a900460ff161515151581525050905082816000019060048111156104ac576104ab611892565b5b908160048111156104c0576104bf611892565b5b81525050818160200181905250600181604001901515908115158152505080600560008673ffffffffffffffffffffffffffffffffffffffff1673ffffffffffffffffffffffffffffffffffffffff16815260200190815260200160002060008201518160000160006101000a81548160ff0219169083600481111561054957610548611892565b5b0217905550602082015181600101908051906020019061056a929190611047565b5060408201518160020160006101000a81548160ff02191690831515021790555090505050505050565b600060048111156105a8576105a7611892565b5b600560003373ffffffffffffffffffffffffffffffffffffffff1673ffffffffffffffffffffffffffffffffffffffff16815260200190815260200160002060000160009054906101000a900460ff16600481111561060a57610609611892565b5b1461064a576040517f08c379a000000000000000000000000000000000000000000000000000000000815260040161064190611588565b60405180910390fd5b6000600660008c815260200190815260200160002090508a8160000181905550338160010160006101000a81548173ffffffffffffffffffffffffffffffffffffffff021916908373ffffffffffffffffffffffffffffffffffffffff160217905550338160020160006101000a81548173ffffffffffffffffffffffffffffffffffffffff021916908373ffffffffffffffffffffffffffffffffffffffff1602179055508981600301600060048110610708576107076118f0565b5b018190555060008160070160006101000a81548160ff0219169083600581111561073557610734611892565b5b021790555088816008018190555060008160090160006101000a81548173ffffffffffffffffffffffffffffffffffffffff021916908373ffffffffffffffffffffffffffffffffffffffff160217905550600081600a0160006101000a81548173ffffffffffffffffffffffffffffffffffffffff021916908373ffffffffffffffffffffffffffffffffffffffff160217905550600081600b0160006101000a81548173ffffffffffffffffffffffffffffffffffffffff021916908373ffffffffffffffffffffffffffffffffffffffff1602179055508781600c01600001908051906020019061082a929190611047565b508681600c016001019080519060200190610846929190611047565b508581600c016002019080519060200190610862929190611047565b508481600c01600301908051906020019061087e929190611047565b508381600c01600401908051906020019061089a929190611047565b508281600c0160050190805190602001906108b6929190611047565b508181600c0160060190805190602001906108d2929190611047565b505050505050505050505050565b600081600460003373ffffffffffffffffffffffffffffffffffffffff1673ffffffffffffffffffffffffffffffffffffffff16815260200190815260200160002054101561092e57600080fd5b600073ffffffffffffffffffffffffffffffffffffffff168373ffffffffffffffffffffffffffffffffffffffff16141561096857600080fd5b81600460003373ffffffffffffffffffffffffffffffffffffffff1673ffffffffffffffffffffffffffffffffffffffff16815260200190815260200160002060008282546109b791906116dc565b9250508190555081600460008573ffffffffffffffffffffffffffffffffffffffff1673ffffffffffffffffffffffffffffffffffffffff1681526020019081526020016000206000828254610a0d9190611655565b925050819055506001905092915050565b60018054610a2b906117d1565b80601f0160208091040260200160405190810160405280929190818152602001828054610a57906117d1565b8015610aa45780601f10610a7957610100808354040283529160200191610aa4565b820191906000526020600020905b815481529060010190602001808311610a8757829003601f168201915b505050505081565b600260009054906101000a900473ffffffffffffffffffffffffffffffffffffffff1673ffffffffffffffffffffffffffffffffffffffff163373ffffffffffffffffffffffffffffffffffffffff1614610b3c576040517f08c379a0000000000000000000000000000000000000000000000000000000008152600401610b33906115a8565b60405180910390fd5b600073ffffffffffffffffffffffffffffffffffffffff168273ffffffffffffffffffffffffffffffffffffffff161415610b7657600080fd5b600460008373ffffffffffffffffffffffffffffffffffffffff1673ffffffffffffffffffffffffffffffffffffffff16815260200190815260200160002054811115610bc257600080fd5b8060036000828254610bd491906116dc565b9250508190555080600460008473ffffffffffffffffffffffffffffffffffffffff1673ffffffffffffffffffffffffffffffffffffffff1681526020019081526020016000206000828254610c2a91906116dc565b925050819055505050565b600260009054906101000a900473ffffffffffffffffffffffffffffffffffffffff1673ffffffffffffffffffffffffffffffffffffffff163373ffffffffffffffffffffffffffffffffffffffff1614610cc5576040517f08c379a0000000000000000000000000000000000000000000000000000000008152600401610cbc906115a8565b60405180910390fd5b8060036000828254610cd79190611655565b9250508190555080600460003373ffffffffffffffffffffffffffffffffffffffff1673ffffffffffffffffffffffffffffffffffffffff1681526020019081526020016000206000828254610d2d9190611655565b9250508190555050565b600260009054906101000a900473ffffffffffffffffffffffffffffffffffffffff1681565b6000606434610d6c91906116ab565b905060003411610d7b57600080fd5b600260009054906101000a900473ffffffffffffffffffffffffffffffffffffffff1673ffffffffffffffffffffffffffffffffffffffff166108fc349081150290604051600060405180830381858888f19350505050158015610de3573d6000803e3d6000fd5b508060046000600260009054906101000a900473ffffffffffffffffffffffffffffffffffffffff1673ffffffffffffffffffffffffffffffffffffffff1673ffffffffffffffffffffffffffffffffffffffff1681526020019081526020016000206000828254610e5591906116dc565b9250508190555080600460003373ffffffffffffffffffffffffffffffffffffffff1673ffffffffffffffffffffffffffffffffffffffff1681526020019081526020016000206000828254610eab9190611655565b9250508190555050565b60006060600560008473ffffffffffffffffffffffffffffffffffffffff1673ffffffffffffffffffffffffffffffffffffffff16815260200190815260200160002060000160009054906101000a900460ff169150600560008473ffffffffffffffffffffffffffffffffffffffff1673ffffffffffffffffffffffffffffffffffffffff1681526020019081526020016000206001018054610f58906117d1565b80601f0160208091040260200160405190810160405280929190818152602001828054610f84906117d1565b8015610fd15780601f10610fa657610100808354040283529160200191610fd1565b820191906000526020600020905b815481529060010190602001808311610fb457829003601f168201915b50505050509050915091565b60008173ffffffffffffffffffffffffffffffffffffffff16319050919050565b6000600460008373ffffffffffffffffffffffffffffffffffffffff1673ffffffffffffffffffffffffffffffffffffffff168152602001908152602001600020549050919050565b828054611053906117d1565b90600052602060002090601f01602090048101928261107557600085556110bc565b82601f1061108e57805160ff19168380011785556110bc565b828001600101855582156110bc579182015b828111156110bb5782518255916020019190600101906110a0565b5b5090506110c991906110cd565b5090565b5b808211156110e65760008160009055506001016110ce565b5090565b60006110fd6110f884611608565b6115e3565b90508281526020810184848401111561111957611118611953565b5b61112484828561178f565b509392505050565b60008135905061113b816119d9565b92915050565b600081359050611150816119f0565b92915050565b600082601f83011261116b5761116a61194e565b5b813561117b8482602086016110ea565b91505092915050565b60008135905061119381611a00565b92915050565b6000602082840312156111af576111ae61195d565b5b60006111bd8482850161112c565b91505092915050565b6000806000606084860312156111df576111de61195d565b5b60006111ed8682870161112c565b93505060206111fe86828701611141565b925050604084013567ffffffffffffffff81111561121f5761121e611958565b5b61122b86828701611156565b9150509250925092565b6000806040838503121561124c5761124b61195d565b5b600061125a8582860161112c565b925050602061126b85828601611184565b9150509250929050565b60006020828403121561128b5761128a61195d565b5b600061129984828501611184565b91505092915050565b6000806000806000806000806000806101408b8d0312156112c6576112c561195d565b5b60006112d48d828e01611184565b9a505060206112e58d828e01611184565b99505060406112f68d828e01611184565b98505060608b013567ffffffffffffffff81111561131757611316611958565b5b6113238d828e01611156565b97505060808b013567ffffffffffffffff81111561134457611343611958565b5b6113508d828e01611156565b96505060a08b013567ffffffffffffffff81111561137157611370611958565b5b61137d8d828e01611156565b95505060c08b013567ffffffffffffffff81111561139e5761139d611958565b5b6113aa8d828e01611156565b94505060e08b013567ffffffffffffffff8111156113cb576113ca611958565b5b6113d78d828e01611156565b9350506101008b013567ffffffffffffffff8111156113f9576113f8611958565b5b6114058d828e01611156565b9250506101208b013567ffffffffffffffff81111561142757611426611958565b5b6114338d828e01611156565b9150509295989b9194979a5092959850565b61144e81611722565b82525050565b61145d81611734565b82525050565b61146c8161177d565b82525050565b600061147d82611639565b6114878185611644565b935061149781856020860161179e565b6114a081611962565b840191505092915050565b60006114b8601983611644565b91506114c382611973565b602082019050919050565b60006114db601e83611644565b91506114e68261199c565b602082019050919050565b6114fa81611773565b82525050565b60006020820190506115156000830184611445565b92915050565b60006020820190506115306000830184611454565b92915050565b600060408201905061154b6000830185611463565b818103602083015261155d8184611472565b90509392505050565b600060208201905081810360008301526115808184611472565b905092915050565b600060208201905081810360008301526115a1816114ab565b9050919050565b600060208201905081810360008301526115c1816114ce565b9050919050565b60006020820190506115dd60008301846114f1565b92915050565b60006115ed6115fe565b90506115f98282611803565b919050565b6000604051905090565b600067ffffffffffffffff8211156116235761162261191f565b5b61162c82611962565b9050602081019050919050565b600081519050919050565b600082825260208201905092915050565b600061166082611773565b915061166b83611773565b9250827fffffffffffffffffffffffffffffffffffffffffffffffffffffffffffffffff038211156116a05761169f611834565b5b828201905092915050565b60006116b682611773565b91506116c183611773565b9250826116d1576116d0611863565b5b828204905092915050565b60006116e782611773565b91506116f283611773565b92508282101561170557611704611834565b5b828203905092915050565b600061171b82611753565b9050919050565b600061172d82611753565b9050919050565b60008115159050919050565b600081905061174e826119c5565b919050565b600073ffffffffffffffffffffffffffffffffffffffff82169050919050565b6000819050919050565b600061178882611740565b9050919050565b82818337600083830152505050565b60005b838110156117bc5780820151818401526020810190506117a1565b838111156117cb576000848401525b50505050565b600060028204905060018216806117e957607f821691505b602082108114156117fd576117fc6118c1565b5b50919050565b61180c82611962565b810181811067ffffffffffffffff8211171561182b5761182a61191f565b5b80604052505050565b7f4e487b7100000000000000000000000000000000000000000000000000000000600052601160045260246000fd5b7f4e487b7100000000000000000000000000000000000000000000000000000000600052601260045260246000fd5b7f4e487b7100000000000000000000000000000000000000000000000000000000600052602160045260246000fd5b7f4e487b7100000000000000000000000000000000000000000000000000000000600052602260045260246000fd5b7f4e487b7100000000000000000000000000000000000000000000000000000000600052603260045260246000fd5b7f4e487b7100000000000000000000000000000000000000000000000000000000600052604160045260246000fd5b600080fd5b600080fd5b600080fd5b600080fd5b6000601f19601f8301169050919050565b7f63616c6c6572206973206e6f7420612070726f64756365722e00000000000000600082015250565b7f63616c6c6572206973206e6f742074686520746f6b656e206f776e65722e0000600082015250565b600581106119d6576119d5611892565b5b50565b6119e281611710565b81146119ed57600080fd5b50565b600581106119fd57600080fd5b50565b611a0981611773565b8114611a1457600080fd5b5056fea2646970667358221220a7cd15b2fc9cb1df9176afe33157156eb9e4f2ebb33f0fe14b3b3bdfaae3188064736f6c63430008070033",
					"opcodes": "PUSH1 0x80 PUSH1 0x40 MSTORE CALLVALUE DUP1 ISZERO PUSH3 0x11 JUMPI PUSH1 0x0 DUP1 REVERT JUMPDEST POP PUSH1 0x40 MLOAD PUSH3 0x1EE2 CODESIZE SUB DUP1 PUSH3 0x1EE2 DUP4 CODECOPY DUP2 DUP2 ADD PUSH1 0x40 MSTORE DUP2 ADD SWAP1 PUSH3 0x37 SWAP2 SWAP1 PUSH3 0x243 JUMP JUMPDEST DUP3 PUSH1 0x0 SWAP1 DUP1 MLOAD SWAP1 PUSH1 0x20 ADD SWAP1 PUSH3 0x4F SWAP3 SWAP2 SWAP1 PUSH3 0xFE JUMP JUMPDEST POP DUP2 PUSH1 0x1 SWAP1 DUP1 MLOAD SWAP1 PUSH1 0x20 ADD SWAP1 PUSH3 0x68 SWAP3 SWAP2 SWAP1 PUSH3 0xFE JUMP JUMPDEST POP DUP1 PUSH1 0x3 DUP2 SWAP1 SSTORE POP CALLER PUSH1 0x2 PUSH1 0x0 PUSH2 0x100 EXP DUP2 SLOAD DUP2 PUSH20 0xFFFFFFFFFFFFFFFFFFFFFFFFFFFFFFFFFFFFFFFF MUL NOT AND SWAP1 DUP4 PUSH20 0xFFFFFFFFFFFFFFFFFFFFFFFFFFFFFFFFFFFFFFFF AND MUL OR SWAP1 SSTORE POP DUP1 PUSH1 0x4 PUSH1 0x0 CALLER PUSH20 0xFFFFFFFFFFFFFFFFFFFFFFFFFFFFFFFFFFFFFFFF AND PUSH20 0xFFFFFFFFFFFFFFFFFFFFFFFFFFFFFFFFFFFFFFFF AND DUP2 MSTORE PUSH1 0x20 ADD SWAP1 DUP2 MSTORE PUSH1 0x20 ADD PUSH1 0x0 KECCAK256 DUP2 SWAP1 SSTORE POP POP POP POP PUSH3 0x485 JUMP JUMPDEST DUP3 DUP1 SLOAD PUSH3 0x10C SWAP1 PUSH3 0x37C JUMP JUMPDEST SWAP1 PUSH1 0x0 MSTORE PUSH1 0x20 PUSH1 0x0 KECCAK256 SWAP1 PUSH1 0x1F ADD PUSH1 0x20 SWAP1 DIV DUP2 ADD SWAP3 DUP3 PUSH3 0x130 JUMPI PUSH1 0x0 DUP6 SSTORE PUSH3 0x17C JUMP JUMPDEST DUP3 PUSH1 0x1F LT PUSH3 0x14B JUMPI DUP1 MLOAD PUSH1 0xFF NOT AND DUP4 DUP1 ADD OR DUP6 SSTORE PUSH3 0x17C JUMP JUMPDEST DUP3 DUP1 ADD PUSH1 0x1 ADD DUP6 SSTORE DUP3 ISZERO PUSH3 0x17C JUMPI SWAP2 DUP3 ADD JUMPDEST DUP3 DUP2 GT ISZERO PUSH3 0x17B JUMPI DUP3 MLOAD DUP3 SSTORE SWAP2 PUSH1 0x20 ADD SWAP2 SWAP1 PUSH1 0x1 ADD SWAP1 PUSH3 0x15E JUMP JUMPDEST JUMPDEST POP SWAP1 POP PUSH3 0x18B SWAP2 SWAP1 PUSH3 0x18F JUMP JUMPDEST POP SWAP1 JUMP JUMPDEST JUMPDEST DUP1 DUP3 GT ISZERO PUSH3 0x1AA JUMPI PUSH1 0x0 DUP2 PUSH1 0x0 SWAP1 SSTORE POP PUSH1 0x1 ADD PUSH3 0x190 JUMP JUMPDEST POP SWAP1 JUMP JUMPDEST PUSH1 0x0 PUSH3 0x1C5 PUSH3 0x1BF DUP5 PUSH3 0x306 JUMP JUMPDEST PUSH3 0x2DD JUMP JUMPDEST SWAP1 POP DUP3 DUP2 MSTORE PUSH1 0x20 DUP2 ADD DUP5 DUP5 DUP5 ADD GT ISZERO PUSH3 0x1E4 JUMPI PUSH3 0x1E3 PUSH3 0x44B JUMP JUMPDEST JUMPDEST PUSH3 0x1F1 DUP5 DUP3 DUP6 PUSH3 0x346 JUMP JUMPDEST POP SWAP4 SWAP3 POP POP POP JUMP JUMPDEST PUSH1 0x0 DUP3 PUSH1 0x1F DUP4 ADD SLT PUSH3 0x211 JUMPI PUSH3 0x210 PUSH3 0x446 JUMP JUMPDEST JUMPDEST DUP2 MLOAD PUSH3 0x223 DUP5 DUP3 PUSH1 0x20 DUP7 ADD PUSH3 0x1AE JUMP JUMPDEST SWAP2 POP POP SWAP3 SWAP2 POP POP JUMP JUMPDEST PUSH1 0x0 DUP2 MLOAD SWAP1 POP PUSH3 0x23D DUP2 PUSH3 0x46B JUMP JUMPDEST SWAP3 SWAP2 POP POP JUMP JUMPDEST PUSH1 0x0 DUP1 PUSH1 0x0 PUSH1 0x60 DUP5 DUP7 SUB SLT ISZERO PUSH3 0x25F JUMPI PUSH3 0x25E PUSH3 0x455 JUMP JUMPDEST JUMPDEST PUSH1 0x0 DUP5 ADD MLOAD PUSH8 0xFFFFFFFFFFFFFFFF DUP2 GT ISZERO PUSH3 0x280 JUMPI PUSH3 0x27F PUSH3 0x450 JUMP JUMPDEST JUMPDEST PUSH3 0x28E DUP7 DUP3 DUP8 ADD PUSH3 0x1F9 JUMP JUMPDEST SWAP4 POP POP PUSH1 0x20 DUP5 ADD MLOAD PUSH8 0xFFFFFFFFFFFFFFFF DUP2 GT ISZERO PUSH3 0x2B2 JUMPI PUSH3 0x2B1 PUSH3 0x450 JUMP JUMPDEST JUMPDEST PUSH3 0x2C0 DUP7 DUP3 DUP8 ADD PUSH3 0x1F9 JUMP JUMPDEST SWAP3 POP POP PUSH1 0x40 PUSH3 0x2D3 DUP7 DUP3 DUP8 ADD PUSH3 0x22C JUMP JUMPDEST SWAP2 POP POP SWAP3 POP SWAP3 POP SWAP3 JUMP JUMPDEST PUSH1 0x0 PUSH3 0x2E9 PUSH3 0x2FC JUMP JUMPDEST SWAP1 POP PUSH3 0x2F7 DUP3 DUP3 PUSH3 0x3B2 JUMP JUMPDEST SWAP2 SWAP1 POP JUMP JUMPDEST PUSH1 0x0 PUSH1 0x40 MLOAD SWAP1 POP SWAP1 JUMP JUMPDEST PUSH1 0x0 PUSH8 0xFFFFFFFFFFFFFFFF DUP3 GT ISZERO PUSH3 0x324 JUMPI PUSH3 0x323 PUSH3 0x417 JUMP JUMPDEST JUMPDEST PUSH3 0x32F DUP3 PUSH3 0x45A JUMP JUMPDEST SWAP1 POP PUSH1 0x20 DUP2 ADD SWAP1 POP SWAP2 SWAP1 POP JUMP JUMPDEST PUSH1 0x0 DUP2 SWAP1 POP SWAP2 SWAP1 POP JUMP JUMPDEST PUSH1 0x0 JUMPDEST DUP4 DUP2 LT ISZERO PUSH3 0x366 JUMPI DUP1 DUP3 ADD MLOAD DUP2 DUP5 ADD MSTORE PUSH1 0x20 DUP2 ADD SWAP1 POP PUSH3 0x349 JUMP JUMPDEST DUP4 DUP2 GT ISZERO PUSH3 0x376 JUMPI PUSH1 0x0 DUP5 DUP5 ADD MSTORE JUMPDEST POP POP POP POP JUMP JUMPDEST PUSH1 0x0 PUSH1 0x2 DUP3 DIV SWAP1 POP PUSH1 0x1 DUP3 AND DUP1 PUSH3 0x395 JUMPI PUSH1 0x7F DUP3 AND SWAP2 POP JUMPDEST PUSH1 0x20 DUP3 LT DUP2 EQ ISZERO PUSH3 0x3AC JUMPI PUSH3 0x3AB PUSH3 0x3E8 JUMP JUMPDEST JUMPDEST POP SWAP2 SWAP1 POP JUMP JUMPDEST PUSH3 0x3BD DUP3 PUSH3 0x45A JUMP JUMPDEST DUP2 ADD DUP2 DUP2 LT PUSH8 0xFFFFFFFFFFFFFFFF DUP3 GT OR ISZERO PUSH3 0x3DF JUMPI PUSH3 0x3DE PUSH3 0x417 JUMP JUMPDEST JUMPDEST DUP1 PUSH1 0x40 MSTORE POP POP POP JUMP JUMPDEST PUSH32 0x4E487B7100000000000000000000000000000000000000000000000000000000 PUSH1 0x0 MSTORE PUSH1 0x22 PUSH1 0x4 MSTORE PUSH1 0x24 PUSH1 0x0 REVERT JUMPDEST PUSH32 0x4E487B7100000000000000000000000000000000000000000000000000000000 PUSH1 0x0 MSTORE PUSH1 0x41 PUSH1 0x4 MSTORE PUSH1 0x24 PUSH1 0x0 REVERT JUMPDEST PUSH1 0x0 DUP1 REVERT JUMPDEST PUSH1 0x0 DUP1 REVERT JUMPDEST PUSH1 0x0 DUP1 REVERT JUMPDEST PUSH1 0x0 DUP1 REVERT JUMPDEST PUSH1 0x0 PUSH1 0x1F NOT PUSH1 0x1F DUP4 ADD AND SWAP1 POP SWAP2 SWAP1 POP JUMP JUMPDEST PUSH3 0x476 DUP2 PUSH3 0x33C JUMP JUMPDEST DUP2 EQ PUSH3 0x482 JUMPI PUSH1 0x0 DUP1 REVERT JUMPDEST POP JUMP JUMPDEST PUSH2 0x1A4D DUP1 PUSH3 0x495 PUSH1 0x0 CODECOPY PUSH1 0x0 RETURN INVALID PUSH1 0x80 PUSH1 0x40 MSTORE PUSH1 0x4 CALLDATASIZE LT PUSH2 0xA7 JUMPI PUSH1 0x0 CALLDATALOAD PUSH1 0xE0 SHR DUP1 PUSH4 0xA0712D68 GT PUSH2 0x64 JUMPI DUP1 PUSH4 0xA0712D68 EQ PUSH2 0x1BA JUMPI DUP1 PUSH4 0xA3E67610 EQ PUSH2 0x1E3 JUMPI DUP1 PUSH4 0xA4821719 EQ PUSH2 0x20E JUMPI DUP1 PUSH4 0xB292ABF1 EQ PUSH2 0x218 JUMPI DUP1 PUSH4 0xCD0C5896 EQ PUSH2 0x256 JUMPI DUP1 PUSH4 0xEEDC966A EQ PUSH2 0x293 JUMPI PUSH2 0xA7 JUMP JUMPDEST DUP1 PUSH4 0x6FDDE03 EQ PUSH2 0xAC JUMPI DUP1 PUSH4 0x40932FC2 EQ PUSH2 0xD7 JUMPI DUP1 PUSH4 0x561E0E98 EQ PUSH2 0x100 JUMPI DUP1 PUSH4 0x68CDAFE6 EQ PUSH2 0x129 JUMPI DUP1 PUSH4 0x95D89B41 EQ PUSH2 0x166 JUMPI DUP1 PUSH4 0x9DC29FAC EQ PUSH2 0x191 JUMPI JUMPDEST PUSH1 0x0 DUP1 REVERT JUMPDEST CALLVALUE DUP1 ISZERO PUSH2 0xB8 JUMPI PUSH1 0x0 DUP1 REVERT JUMPDEST POP PUSH2 0xC1 PUSH2 0x2D0 JUMP JUMPDEST PUSH1 0x40 MLOAD PUSH2 0xCE SWAP2 SWAP1 PUSH2 0x1566 JUMP JUMPDEST PUSH1 0x40 MLOAD DUP1 SWAP2 SUB SWAP1 RETURN JUMPDEST CALLVALUE DUP1 ISZERO PUSH2 0xE3 JUMPI PUSH1 0x0 DUP1 REVERT JUMPDEST POP PUSH2 0xFE PUSH1 0x4 DUP1 CALLDATASIZE SUB DUP2 ADD SWAP1 PUSH2 0xF9 SWAP2 SWAP1 PUSH2 0x11C6 JUMP JUMPDEST PUSH2 0x35E JUMP JUMPDEST STOP JUMPDEST CALLVALUE DUP1 ISZERO PUSH2 0x10C JUMPI PUSH1 0x0 DUP1 REVERT JUMPDEST POP PUSH2 0x127 PUSH1 0x4 DUP1 CALLDATASIZE SUB DUP2 ADD SWAP1 PUSH2 0x122 SWAP2 SWAP1 PUSH2 0x12A2 JUMP JUMPDEST PUSH2 0x594 JUMP JUMPDEST STOP JUMPDEST CALLVALUE DUP1 ISZERO PUSH2 0x135 JUMPI PUSH1 0x0 DUP1 REVERT JUMPDEST POP PUSH2 0x150 PUSH1 0x4 DUP1 CALLDATASIZE SUB DUP2 ADD SWAP1 PUSH2 0x14B SWAP2 SWAP1 PUSH2 0x1235 JUMP JUMPDEST PUSH2 0x8E0 JUMP JUMPDEST PUSH1 0x40 MLOAD PUSH2 0x15D SWAP2 SWAP1 PUSH2 0x151B JUMP JUMPDEST PUSH1 0x40 MLOAD DUP1 SWAP2 SUB SWAP1 RETURN JUMPDEST CALLVALUE DUP1 ISZERO PUSH2 0x172 JUMPI PUSH1 0x0 DUP1 REVERT JUMPDEST POP PUSH2 0x17B PUSH2 0xA1E JUMP JUMPDEST PUSH1 0x40 MLOAD PUSH2 0x188 SWAP2 SWAP1 PUSH2 0x1566 JUMP JUMPDEST PUSH1 0x40 MLOAD DUP1 SWAP2 SUB SWAP1 RETURN JUMPDEST CALLVALUE DUP1 ISZERO PUSH2 0x19D JUMPI PUSH1 0x0 DUP1 REVERT JUMPDEST POP PUSH2 0x1B8 PUSH1 0x4 DUP1 CALLDATASIZE SUB DUP2 ADD SWAP1 PUSH2 0x1B3 SWAP2 SWAP1 PUSH2 0x1235 JUMP JUMPDEST PUSH2 0xAAC JUMP JUMPDEST STOP JUMPDEST CALLVALUE DUP1 ISZERO PUSH2 0x1C6 JUMPI PUSH1 0x0 DUP1 REVERT JUMPDEST POP PUSH2 0x1E1 PUSH1 0x4 DUP1 CALLDATASIZE SUB DUP2 ADD SWAP1 PUSH2 0x1DC SWAP2 SWAP1 PUSH2 0x1275 JUMP JUMPDEST PUSH2 0xC35 JUMP JUMPDEST STOP JUMPDEST CALLVALUE DUP1 ISZERO PUSH2 0x1EF JUMPI PUSH1 0x0 DUP1 REVERT JUMPDEST POP PUSH2 0x1F8 PUSH2 0xD37 JUMP JUMPDEST PUSH1 0x40 MLOAD PUSH2 0x205 SWAP2 SWAP1 PUSH2 0x1500 JUMP JUMPDEST PUSH1 0x40 MLOAD DUP1 SWAP2 SUB SWAP1 RETURN JUMPDEST PUSH2 0x216 PUSH2 0xD5D JUMP JUMPDEST STOP JUMPDEST CALLVALUE DUP1 ISZERO PUSH2 0x224 JUMPI PUSH1 0x0 DUP1 REVERT JUMPDEST POP PUSH2 0x23F PUSH1 0x4 DUP1 CALLDATASIZE SUB DUP2 ADD SWAP1 PUSH2 0x23A SWAP2 SWAP1 PUSH2 0x1199 JUMP JUMPDEST PUSH2 0xEB5 JUMP JUMPDEST PUSH1 0x40 MLOAD PUSH2 0x24D SWAP3 SWAP2 SWAP1 PUSH2 0x1536 JUMP JUMPDEST PUSH1 0x40 MLOAD DUP1 SWAP2 SUB SWAP1 RETURN JUMPDEST CALLVALUE DUP1 ISZERO PUSH2 0x262 JUMPI PUSH1 0x0 DUP1 REVERT JUMPDEST POP PUSH2 0x27D PUSH1 0x4 DUP1 CALLDATASIZE SUB DUP2 ADD SWAP1 PUSH2 0x278 SWAP2 SWAP1 PUSH2 0x1199 JUMP JUMPDEST PUSH2 0xFDD JUMP JUMPDEST PUSH1 0x40 MLOAD PUSH2 0x28A SWAP2 SWAP1 PUSH2 0x15C8 JUMP JUMPDEST PUSH1 0x40 MLOAD DUP1 SWAP2 SUB SWAP1 RETURN JUMPDEST CALLVALUE DUP1 ISZERO PUSH2 0x29F JUMPI PUSH1 0x0 DUP1 REVERT JUMPDEST POP PUSH2 0x2BA PUSH1 0x4 DUP1 CALLDATASIZE SUB DUP2 ADD SWAP1 PUSH2 0x2B5 SWAP2 SWAP1 PUSH2 0x1199 JUMP JUMPDEST PUSH2 0xFFE JUMP JUMPDEST PUSH1 0x40 MLOAD PUSH2 0x2C7 SWAP2 SWAP1 PUSH2 0x15C8 JUMP JUMPDEST PUSH1 0x40 MLOAD DUP1 SWAP2 SUB SWAP1 RETURN JUMPDEST PUSH1 0x0 DUP1 SLOAD PUSH2 0x2DD SWAP1 PUSH2 0x17D1 JUMP JUMPDEST DUP1 PUSH1 0x1F ADD PUSH1 0x20 DUP1 SWAP2 DIV MUL PUSH1 0x20 ADD PUSH1 0x40 MLOAD SWAP1 DUP2 ADD PUSH1 0x40 MSTORE DUP1 SWAP3 SWAP2 SWAP1 DUP2 DUP2 MSTORE PUSH1 0x20 ADD DUP3 DUP1 SLOAD PUSH2 0x309 SWAP1 PUSH2 0x17D1 JUMP JUMPDEST DUP1 ISZERO PUSH2 0x356 JUMPI DUP1 PUSH1 0x1F LT PUSH2 0x32B JUMPI PUSH2 0x100 DUP1 DUP4 SLOAD DIV MUL DUP4 MSTORE SWAP2 PUSH1 0x20 ADD SWAP2 PUSH2 0x356 JUMP JUMPDEST DUP3 ADD SWAP2 SWAP1 PUSH1 0x0 MSTORE PUSH1 0x20 PUSH1 0x0 KECCAK256 SWAP1 JUMPDEST DUP2 SLOAD DUP2 MSTORE SWAP1 PUSH1 0x1 ADD SWAP1 PUSH1 0x20 ADD DUP1 DUP4 GT PUSH2 0x339 JUMPI DUP3 SWAP1 SUB PUSH1 0x1F AND DUP3 ADD SWAP2 JUMPDEST POP POP POP POP POP DUP2 JUMP JUMPDEST PUSH1 0x0 PUSH1 0x5 PUSH1 0x0 DUP6 PUSH20 0xFFFFFFFFFFFFFFFFFFFFFFFFFFFFFFFFFFFFFFFF AND PUSH20 0xFFFFFFFFFFFFFFFFFFFFFFFFFFFFFFFFFFFFFFFF AND DUP2 MSTORE PUSH1 0x20 ADD SWAP1 DUP2 MSTORE PUSH1 0x20 ADD PUSH1 0x0 KECCAK256 PUSH1 0x40 MLOAD DUP1 PUSH1 0x60 ADD PUSH1 0x40 MSTORE SWAP1 DUP2 PUSH1 0x0 DUP3 ADD PUSH1 0x0 SWAP1 SLOAD SWAP1 PUSH2 0x100 EXP SWAP1 DIV PUSH1 0xFF AND PUSH1 0x4 DUP2 GT ISZERO PUSH2 0x3CF JUMPI PUSH2 0x3CE PUSH2 0x1892 JUMP JUMPDEST JUMPDEST PUSH1 0x4 DUP2 GT ISZERO PUSH2 0x3E1 JUMPI PUSH2 0x3E0 PUSH2 0x1892 JUMP JUMPDEST JUMPDEST DUP2 MSTORE PUSH1 0x20 ADD PUSH1 0x1 DUP3 ADD DUP1 SLOAD PUSH2 0x3F5 SWAP1 PUSH2 0x17D1 JUMP JUMPDEST DUP1 PUSH1 0x1F ADD PUSH1 0x20 DUP1 SWAP2 DIV MUL PUSH1 0x20 ADD PUSH1 0x40 MLOAD SWAP1 DUP2 ADD PUSH1 0x40 MSTORE DUP1 SWAP3 SWAP2 SWAP1 DUP2 DUP2 MSTORE PUSH1 0x20 ADD DUP3 DUP1 SLOAD PUSH2 0x421 SWAP1 PUSH2 0x17D1 JUMP JUMPDEST DUP1 ISZERO PUSH2 0x46E JUMPI DUP1 PUSH1 0x1F LT PUSH2 0x443 JUMPI PUSH2 0x100 DUP1 DUP4 SLOAD DIV MUL DUP4 MSTORE SWAP2 PUSH1 0x20 ADD SWAP2 PUSH2 0x46E JUMP JUMPDEST DUP3 ADD SWAP2 SWAP1 PUSH1 0x0 MSTORE PUSH1 0x20 PUSH1 0x0 KECCAK256 SWAP1 JUMPDEST DUP2 SLOAD DUP2 MSTORE SWAP1 PUSH1 0x1 ADD SWAP1 PUSH1 0x20 ADD DUP1 DUP4 GT PUSH2 0x451 JUMPI DUP3 SWAP1 SUB PUSH1 0x1F AND DUP3 ADD SWAP2 JUMPDEST POP POP POP POP POP DUP2 MSTORE PUSH1 0x20 ADD PUSH1 0x2 DUP3 ADD PUSH1 0x0 SWAP1 SLOAD SWAP1 PUSH2 0x100 EXP SWAP1 DIV PUSH1 0xFF AND ISZERO ISZERO ISZERO ISZERO DUP2 MSTORE POP POP SWAP1 POP DUP3 DUP2 PUSH1 0x0 ADD SWAP1 PUSH1 0x4 DUP2 GT ISZERO PUSH2 0x4AC JUMPI PUSH2 0x4AB PUSH2 0x1892 JUMP JUMPDEST JUMPDEST SWAP1 DUP2 PUSH1 0x4 DUP2 GT ISZERO PUSH2 0x4C0 JUMPI PUSH2 0x4BF PUSH2 0x1892 JUMP JUMPDEST JUMPDEST DUP2 MSTORE POP POP DUP2 DUP2 PUSH1 0x20 ADD DUP2 SWAP1 MSTORE POP PUSH1 0x1 DUP2 PUSH1 0x40 ADD SWAP1 ISZERO ISZERO SWAP1 DUP2 ISZERO ISZERO DUP2 MSTORE POP POP DUP1 PUSH1 0x5 PUSH1 0x0 DUP7 PUSH20 0xFFFFFFFFFFFFFFFFFFFFFFFFFFFFFFFFFFFFFFFF AND PUSH20 0xFFFFFFFFFFFFFFFFFFFFFFFFFFFFFFFFFFFFFFFF AND DUP2 MSTORE PUSH1 0x20 ADD SWAP1 DUP2 MSTORE PUSH1 0x20 ADD PUSH1 0x0 KECCAK256 PUSH1 0x0 DUP3 ADD MLOAD DUP2 PUSH1 0x0 ADD PUSH1 0x0 PUSH2 0x100 EXP DUP2 SLOAD DUP2 PUSH1 0xFF MUL NOT AND SWAP1 DUP4 PUSH1 0x4 DUP2 GT ISZERO PUSH2 0x549 JUMPI PUSH2 0x548 PUSH2 0x1892 JUMP JUMPDEST JUMPDEST MUL OR SWAP1 SSTORE POP PUSH1 0x20 DUP3 ADD MLOAD DUP2 PUSH1 0x1 ADD SWAP1 DUP1 MLOAD SWAP1 PUSH1 0x20 ADD SWAP1 PUSH2 0x56A SWAP3 SWAP2 SWAP1 PUSH2 0x1047 JUMP JUMPDEST POP PUSH1 0x40 DUP3 ADD MLOAD DUP2 PUSH1 0x2 ADD PUSH1 0x0 PUSH2 0x100 EXP DUP2 SLOAD DUP2 PUSH1 0xFF MUL NOT AND SWAP1 DUP4 ISZERO ISZERO MUL OR SWAP1 SSTORE POP SWAP1 POP POP POP POP POP POP JUMP JUMPDEST PUSH1 0x0 PUSH1 0x4 DUP2 GT ISZERO PUSH2 0x5A8 JUMPI PUSH2 0x5A7 PUSH2 0x1892 JUMP JUMPDEST JUMPDEST PUSH1 0x5 PUSH1 0x0 CALLER PUSH20 0xFFFFFFFFFFFFFFFFFFFFFFFFFFFFFFFFFFFFFFFF AND PUSH20 0xFFFFFFFFFFFFFFFFFFFFFFFFFFFFFFFFFFFFFFFF AND DUP2 MSTORE PUSH1 0x20 ADD SWAP1 DUP2 MSTORE PUSH1 0x20 ADD PUSH1 0x0 KECCAK256 PUSH1 0x0 ADD PUSH1 0x0 SWAP1 SLOAD SWAP1 PUSH2 0x100 EXP SWAP1 DIV PUSH1 0xFF AND PUSH1 0x4 DUP2 GT ISZERO PUSH2 0x60A JUMPI PUSH2 0x609 PUSH2 0x1892 JUMP JUMPDEST JUMPDEST EQ PUSH2 0x64A JUMPI PUSH1 0x40 MLOAD PUSH32 0x8C379A000000000000000000000000000000000000000000000000000000000 DUP2 MSTORE PUSH1 0x4 ADD PUSH2 0x641 SWAP1 PUSH2 0x1588 JUMP JUMPDEST PUSH1 0x40 MLOAD DUP1 SWAP2 SUB SWAP1 REVERT JUMPDEST PUSH1 0x0 PUSH1 0x6 PUSH1 0x0 DUP13 DUP2 MSTORE PUSH1 0x20 ADD SWAP1 DUP2 MSTORE PUSH1 0x20 ADD PUSH1 0x0 KECCAK256 SWAP1 POP DUP11 DUP2 PUSH1 0x0 ADD DUP2 SWAP1 SSTORE POP CALLER DUP2 PUSH1 0x1 ADD PUSH1 0x0 PUSH2 0x100 EXP DUP2 SLOAD DUP2 PUSH20 0xFFFFFFFFFFFFFFFFFFFFFFFFFFFFFFFFFFFFFFFF MUL NOT AND SWAP1 DUP4 PUSH20 0xFFFFFFFFFFFFFFFFFFFFFFFFFFFFFFFFFFFFFFFF AND MUL OR SWAP1 SSTORE POP CALLER DUP2 PUSH1 0x2 ADD PUSH1 0x0 PUSH2 0x100 EXP DUP2 SLOAD DUP2 PUSH20 0xFFFFFFFFFFFFFFFFFFFFFFFFFFFFFFFFFFFFFFFF MUL NOT AND SWAP1 DUP4 PUSH20 0xFFFFFFFFFFFFFFFFFFFFFFFFFFFFFFFFFFFFFFFF AND MUL OR SWAP1 SSTORE POP DUP10 DUP2 PUSH1 0x3 ADD PUSH1 0x0 PUSH1 0x4 DUP2 LT PUSH2 0x708 JUMPI PUSH2 0x707 PUSH2 0x18F0 JUMP JUMPDEST JUMPDEST ADD DUP2 SWAP1 SSTORE POP PUSH1 0x0 DUP2 PUSH1 0x7 ADD PUSH1 0x0 PUSH2 0x100 EXP DUP2 SLOAD DUP2 PUSH1 0xFF MUL NOT AND SWAP1 DUP4 PUSH1 0x5 DUP2 GT ISZERO PUSH2 0x735 JUMPI PUSH2 0x734 PUSH2 0x1892 JUMP JUMPDEST JUMPDEST MUL OR SWAP1 SSTORE POP DUP9 DUP2 PUSH1 0x8 ADD DUP2 SWAP1 SSTORE POP PUSH1 0x0 DUP2 PUSH1 0x9 ADD PUSH1 0x0 PUSH2 0x100 EXP DUP2 SLOAD DUP2 PUSH20 0xFFFFFFFFFFFFFFFFFFFFFFFFFFFFFFFFFFFFFFFF MUL NOT AND SWAP1 DUP4 PUSH20 0xFFFFFFFFFFFFFFFFFFFFFFFFFFFFFFFFFFFFFFFF AND MUL OR SWAP1 SSTORE POP PUSH1 0x0 DUP2 PUSH1 0xA ADD PUSH1 0x0 PUSH2 0x100 EXP DUP2 SLOAD DUP2 PUSH20 0xFFFFFFFFFFFFFFFFFFFFFFFFFFFFFFFFFFFFFFFF MUL NOT AND SWAP1 DUP4 PUSH20 0xFFFFFFFFFFFFFFFFFFFFFFFFFFFFFFFFFFFFFFFF AND MUL OR SWAP1 SSTORE POP PUSH1 0x0 DUP2 PUSH1 0xB ADD PUSH1 0x0 PUSH2 0x100 EXP DUP2 SLOAD DUP2 PUSH20 0xFFFFFFFFFFFFFFFFFFFFFFFFFFFFFFFFFFFFFFFF MUL NOT AND SWAP1 DUP4 PUSH20 0xFFFFFFFFFFFFFFFFFFFFFFFFFFFFFFFFFFFFFFFF AND MUL OR SWAP1 SSTORE POP DUP8 DUP2 PUSH1 0xC ADD PUSH1 0x0 ADD SWAP1 DUP1 MLOAD SWAP1 PUSH1 0x20 ADD SWAP1 PUSH2 0x82A SWAP3 SWAP2 SWAP1 PUSH2 0x1047 JUMP JUMPDEST POP DUP7 DUP2 PUSH1 0xC ADD PUSH1 0x1 ADD SWAP1 DUP1 MLOAD SWAP1 PUSH1 0x20 ADD SWAP1 PUSH2 0x846 SWAP3 SWAP2 SWAP1 PUSH2 0x1047 JUMP JUMPDEST POP DUP6 DUP2 PUSH1 0xC ADD PUSH1 0x2 ADD SWAP1 DUP1 MLOAD SWAP1 PUSH1 0x20 ADD SWAP1 PUSH2 0x862 SWAP3 SWAP2 SWAP1 PUSH2 0x1047 JUMP JUMPDEST POP DUP5 DUP2 PUSH1 0xC ADD PUSH1 0x3 ADD SWAP1 DUP1 MLOAD SWAP1 PUSH1 0x20 ADD SWAP1 PUSH2 0x87E SWAP3 SWAP2 SWAP1 PUSH2 0x1047 JUMP JUMPDEST POP DUP4 DUP2 PUSH1 0xC ADD PUSH1 0x4 ADD SWAP1 DUP1 MLOAD SWAP1 PUSH1 0x20 ADD SWAP1 PUSH2 0x89A SWAP3 SWAP2 SWAP1 PUSH2 0x1047 JUMP JUMPDEST POP DUP3 DUP2 PUSH1 0xC ADD PUSH1 0x5 ADD SWAP1 DUP1 MLOAD SWAP1 PUSH1 0x20 ADD SWAP1 PUSH2 0x8B6 SWAP3 SWAP2 SWAP1 PUSH2 0x1047 JUMP JUMPDEST POP DUP2 DUP2 PUSH1 0xC ADD PUSH1 0x6 ADD SWAP1 DUP1 MLOAD SWAP1 PUSH1 0x20 ADD SWAP1 PUSH2 0x8D2 SWAP3 SWAP2 SWAP1 PUSH2 0x1047 JUMP JUMPDEST POP POP POP POP POP POP POP POP POP POP POP POP JUMP JUMPDEST PUSH1 0x0 DUP2 PUSH1 0x4 PUSH1 0x0 CALLER PUSH20 0xFFFFFFFFFFFFFFFFFFFFFFFFFFFFFFFFFFFFFFFF AND PUSH20 0xFFFFFFFFFFFFFFFFFFFFFFFFFFFFFFFFFFFFFFFF AND DUP2 MSTORE PUSH1 0x20 ADD SWAP1 DUP2 MSTORE PUSH1 0x20 ADD PUSH1 0x0 KECCAK256 SLOAD LT ISZERO PUSH2 0x92E JUMPI PUSH1 0x0 DUP1 REVERT JUMPDEST PUSH1 0x0 PUSH20 0xFFFFFFFFFFFFFFFFFFFFFFFFFFFFFFFFFFFFFFFF AND DUP4 PUSH20 0xFFFFFFFFFFFFFFFFFFFFFFFFFFFFFFFFFFFFFFFF AND EQ ISZERO PUSH2 0x968 JUMPI PUSH1 0x0 DUP1 REVERT JUMPDEST DUP2 PUSH1 0x4 PUSH1 0x0 CALLER PUSH20 0xFFFFFFFFFFFFFFFFFFFFFFFFFFFFFFFFFFFFFFFF AND PUSH20 0xFFFFFFFFFFFFFFFFFFFFFFFFFFFFFFFFFFFFFFFF AND DUP2 MSTORE PUSH1 0x20 ADD SWAP1 DUP2 MSTORE PUSH1 0x20 ADD PUSH1 0x0 KECCAK256 PUSH1 0x0 DUP3 DUP3 SLOAD PUSH2 0x9B7 SWAP2 SWAP1 PUSH2 0x16DC JUMP JUMPDEST SWAP3 POP POP DUP2 SWAP1 SSTORE POP DUP2 PUSH1 0x4 PUSH1 0x0 DUP6 PUSH20 0xFFFFFFFFFFFFFFFFFFFFFFFFFFFFFFFFFFFFFFFF AND PUSH20 0xFFFFFFFFFFFFFFFFFFFFFFFFFFFFFFFFFFFFFFFF AND DUP2 MSTORE PUSH1 0x20 ADD SWAP1 DUP2 MSTORE PUSH1 0x20 ADD PUSH1 0x0 KECCAK256 PUSH1 0x0 DUP3 DUP3 SLOAD PUSH2 0xA0D SWAP2 SWAP1 PUSH2 0x1655 JUMP JUMPDEST SWAP3 POP POP DUP2 SWAP1 SSTORE POP PUSH1 0x1 SWAP1 POP SWAP3 SWAP2 POP POP JUMP JUMPDEST PUSH1 0x1 DUP1 SLOAD PUSH2 0xA2B SWAP1 PUSH2 0x17D1 JUMP JUMPDEST DUP1 PUSH1 0x1F ADD PUSH1 0x20 DUP1 SWAP2 DIV MUL PUSH1 0x20 ADD PUSH1 0x40 MLOAD SWAP1 DUP2 ADD PUSH1 0x40 MSTORE DUP1 SWAP3 SWAP2 SWAP1 DUP2 DUP2 MSTORE PUSH1 0x20 ADD DUP3 DUP1 SLOAD PUSH2 0xA57 SWAP1 PUSH2 0x17D1 JUMP JUMPDEST DUP1 ISZERO PUSH2 0xAA4 JUMPI DUP1 PUSH1 0x1F LT PUSH2 0xA79 JUMPI PUSH2 0x100 DUP1 DUP4 SLOAD DIV MUL DUP4 MSTORE SWAP2 PUSH1 0x20 ADD SWAP2 PUSH2 0xAA4 JUMP JUMPDEST DUP3 ADD SWAP2 SWAP1 PUSH1 0x0 MSTORE PUSH1 0x20 PUSH1 0x0 KECCAK256 SWAP1 JUMPDEST DUP2 SLOAD DUP2 MSTORE SWAP1 PUSH1 0x1 ADD SWAP1 PUSH1 0x20 ADD DUP1 DUP4 GT PUSH2 0xA87 JUMPI DUP3 SWAP1 SUB PUSH1 0x1F AND DUP3 ADD SWAP2 JUMPDEST POP POP POP POP POP DUP2 JUMP JUMPDEST PUSH1 0x2 PUSH1 0x0 SWAP1 SLOAD SWAP1 PUSH2 0x100 EXP SWAP1 DIV PUSH20 0xFFFFFFFFFFFFFFFFFFFFFFFFFFFFFFFFFFFFFFFF AND PUSH20 0xFFFFFFFFFFFFFFFFFFFFFFFFFFFFFFFFFFFFFFFF AND CALLER PUSH20 0xFFFFFFFFFFFFFFFFFFFFFFFFFFFFFFFFFFFFFFFF AND EQ PUSH2 0xB3C JUMPI PUSH1 0x40 MLOAD PUSH32 0x8C379A000000000000000000000000000000000000000000000000000000000 DUP2 MSTORE PUSH1 0x4 ADD PUSH2 0xB33 SWAP1 PUSH2 0x15A8 JUMP JUMPDEST PUSH1 0x40 MLOAD DUP1 SWAP2 SUB SWAP1 REVERT JUMPDEST PUSH1 0x0 PUSH20 0xFFFFFFFFFFFFFFFFFFFFFFFFFFFFFFFFFFFFFFFF AND DUP3 PUSH20 0xFFFFFFFFFFFFFFFFFFFFFFFFFFFFFFFFFFFFFFFF AND EQ ISZERO PUSH2 0xB76 JUMPI PUSH1 0x0 DUP1 REVERT JUMPDEST PUSH1 0x4 PUSH1 0x0 DUP4 PUSH20 0xFFFFFFFFFFFFFFFFFFFFFFFFFFFFFFFFFFFFFFFF AND PUSH20 0xFFFFFFFFFFFFFFFFFFFFFFFFFFFFFFFFFFFFFFFF AND DUP2 MSTORE PUSH1 0x20 ADD SWAP1 DUP2 MSTORE PUSH1 0x20 ADD PUSH1 0x0 KECCAK256 SLOAD DUP2 GT ISZERO PUSH2 0xBC2 JUMPI PUSH1 0x0 DUP1 REVERT JUMPDEST DUP1 PUSH1 0x3 PUSH1 0x0 DUP3 DUP3 SLOAD PUSH2 0xBD4 SWAP2 SWAP1 PUSH2 0x16DC JUMP JUMPDEST SWAP3 POP POP DUP2 SWAP1 SSTORE POP DUP1 PUSH1 0x4 PUSH1 0x0 DUP5 PUSH20 0xFFFFFFFFFFFFFFFFFFFFFFFFFFFFFFFFFFFFFFFF AND PUSH20 0xFFFFFFFFFFFFFFFFFFFFFFFFFFFFFFFFFFFFFFFF AND DUP2 MSTORE PUSH1 0x20 ADD SWAP1 DUP2 MSTORE PUSH1 0x20 ADD PUSH1 0x0 KECCAK256 PUSH1 0x0 DUP3 DUP3 SLOAD PUSH2 0xC2A SWAP2 SWAP1 PUSH2 0x16DC JUMP JUMPDEST SWAP3 POP POP DUP2 SWAP1 SSTORE POP POP POP JUMP JUMPDEST PUSH1 0x2 PUSH1 0x0 SWAP1 SLOAD SWAP1 PUSH2 0x100 EXP SWAP1 DIV PUSH20 0xFFFFFFFFFFFFFFFFFFFFFFFFFFFFFFFFFFFFFFFF AND PUSH20 0xFFFFFFFFFFFFFFFFFFFFFFFFFFFFFFFFFFFFFFFF AND CALLER PUSH20 0xFFFFFFFFFFFFFFFFFFFFFFFFFFFFFFFFFFFFFFFF AND EQ PUSH2 0xCC5 JUMPI PUSH1 0x40 MLOAD PUSH32 0x8C379A000000000000000000000000000000000000000000000000000000000 DUP2 MSTORE PUSH1 0x4 ADD PUSH2 0xCBC SWAP1 PUSH2 0x15A8 JUMP JUMPDEST PUSH1 0x40 MLOAD DUP1 SWAP2 SUB SWAP1 REVERT JUMPDEST DUP1 PUSH1 0x3 PUSH1 0x0 DUP3 DUP3 SLOAD PUSH2 0xCD7 SWAP2 SWAP1 PUSH2 0x1655 JUMP JUMPDEST SWAP3 POP POP DUP2 SWAP1 SSTORE POP DUP1 PUSH1 0x4 PUSH1 0x0 CALLER PUSH20 0xFFFFFFFFFFFFFFFFFFFFFFFFFFFFFFFFFFFFFFFF AND PUSH20 0xFFFFFFFFFFFFFFFFFFFFFFFFFFFFFFFFFFFFFFFF AND DUP2 MSTORE PUSH1 0x20 ADD SWAP1 DUP2 MSTORE PUSH1 0x20 ADD PUSH1 0x0 KECCAK256 PUSH1 0x0 DUP3 DUP3 SLOAD PUSH2 0xD2D SWAP2 SWAP1 PUSH2 0x1655 JUMP JUMPDEST SWAP3 POP POP DUP2 SWAP1 SSTORE POP POP JUMP JUMPDEST PUSH1 0x2 PUSH1 0x0 SWAP1 SLOAD SWAP1 PUSH2 0x100 EXP SWAP1 DIV PUSH20 0xFFFFFFFFFFFFFFFFFFFFFFFFFFFFFFFFFFFFFFFF AND DUP2 JUMP JUMPDEST PUSH1 0x0 PUSH1 0x64 CALLVALUE PUSH2 0xD6C SWAP2 SWAP1 PUSH2 0x16AB JUMP JUMPDEST SWAP1 POP PUSH1 0x0 CALLVALUE GT PUSH2 0xD7B JUMPI PUSH1 0x0 DUP1 REVERT JUMPDEST PUSH1 0x2 PUSH1 0x0 SWAP1 SLOAD SWAP1 PUSH2 0x100 EXP SWAP1 DIV PUSH20 0xFFFFFFFFFFFFFFFFFFFFFFFFFFFFFFFFFFFFFFFF AND PUSH20 0xFFFFFFFFFFFFFFFFFFFFFFFFFFFFFFFFFFFFFFFF AND PUSH2 0x8FC CALLVALUE SWAP1 DUP2 ISZERO MUL SWAP1 PUSH1 0x40 MLOAD PUSH1 0x0 PUSH1 0x40 MLOAD DUP1 DUP4 SUB DUP2 DUP6 DUP9 DUP9 CALL SWAP4 POP POP POP POP ISZERO DUP1 ISZERO PUSH2 0xDE3 JUMPI RETURNDATASIZE PUSH1 0x0 DUP1 RETURNDATACOPY RETURNDATASIZE PUSH1 0x0 REVERT JUMPDEST POP DUP1 PUSH1 0x4 PUSH1 0x0 PUSH1 0x2 PUSH1 0x0 SWAP1 SLOAD SWAP1 PUSH2 0x100 EXP SWAP1 DIV PUSH20 0xFFFFFFFFFFFFFFFFFFFFFFFFFFFFFFFFFFFFFFFF AND PUSH20 0xFFFFFFFFFFFFFFFFFFFFFFFFFFFFFFFFFFFFFFFF AND PUSH20 0xFFFFFFFFFFFFFFFFFFFFFFFFFFFFFFFFFFFFFFFF AND DUP2 MSTORE PUSH1 0x20 ADD SWAP1 DUP2 MSTORE PUSH1 0x20 ADD PUSH1 0x0 KECCAK256 PUSH1 0x0 DUP3 DUP3 SLOAD PUSH2 0xE55 SWAP2 SWAP1 PUSH2 0x16DC JUMP JUMPDEST SWAP3 POP POP DUP2 SWAP1 SSTORE POP DUP1 PUSH1 0x4 PUSH1 0x0 CALLER PUSH20 0xFFFFFFFFFFFFFFFFFFFFFFFFFFFFFFFFFFFFFFFF AND PUSH20 0xFFFFFFFFFFFFFFFFFFFFFFFFFFFFFFFFFFFFFFFF AND DUP2 MSTORE PUSH1 0x20 ADD SWAP1 DUP2 MSTORE PUSH1 0x20 ADD PUSH1 0x0 KECCAK256 PUSH1 0x0 DUP3 DUP3 SLOAD PUSH2 0xEAB SWAP2 SWAP1 PUSH2 0x1655 JUMP JUMPDEST SWAP3 POP POP DUP2 SWAP1 SSTORE POP POP JUMP JUMPDEST PUSH1 0x0 PUSH1 0x60 PUSH1 0x5 PUSH1 0x0 DUP5 PUSH20 0xFFFFFFFFFFFFFFFFFFFFFFFFFFFFFFFFFFFFFFFF AND PUSH20 0xFFFFFFFFFFFFFFFFFFFFFFFFFFFFFFFFFFFFFFFF AND DUP2 MSTORE PUSH1 0x20 ADD SWAP1 DUP2 MSTORE PUSH1 0x20 ADD PUSH1 0x0 KECCAK256 PUSH1 0x0 ADD PUSH1 0x0 SWAP1 SLOAD SWAP1 PUSH2 0x100 EXP SWAP1 DIV PUSH1 0xFF AND SWAP2 POP PUSH1 0x5 PUSH1 0x0 DUP5 PUSH20 0xFFFFFFFFFFFFFFFFFFFFFFFFFFFFFFFFFFFFFFFF AND PUSH20 0xFFFFFFFFFFFFFFFFFFFFFFFFFFFFFFFFFFFFFFFF AND DUP2 MSTORE PUSH1 0x20 ADD SWAP1 DUP2 MSTORE PUSH1 0x20 ADD PUSH1 0x0 KECCAK256 PUSH1 0x1 ADD DUP1 SLOAD PUSH2 0xF58 SWAP1 PUSH2 0x17D1 JUMP JUMPDEST DUP1 PUSH1 0x1F ADD PUSH1 0x20 DUP1 SWAP2 DIV MUL PUSH1 0x20 ADD PUSH1 0x40 MLOAD SWAP1 DUP2 ADD PUSH1 0x40 MSTORE DUP1 SWAP3 SWAP2 SWAP1 DUP2 DUP2 MSTORE PUSH1 0x20 ADD DUP3 DUP1 SLOAD PUSH2 0xF84 SWAP1 PUSH2 0x17D1 JUMP JUMPDEST DUP1 ISZERO PUSH2 0xFD1 JUMPI DUP1 PUSH1 0x1F LT PUSH2 0xFA6 JUMPI PUSH2 0x100 DUP1 DUP4 SLOAD DIV MUL DUP4 MSTORE SWAP2 PUSH1 0x20 ADD SWAP2 PUSH2 0xFD1 JUMP JUMPDEST DUP3 ADD SWAP2 SWAP1 PUSH1 0x0 MSTORE PUSH1 0x20 PUSH1 0x0 KECCAK256 SWAP1 JUMPDEST DUP2 SLOAD DUP2 MSTORE SWAP1 PUSH1 0x1 ADD SWAP1 PUSH1 0x20 ADD DUP1 DUP4 GT PUSH2 0xFB4 JUMPI DUP3 SWAP1 SUB PUSH1 0x1F AND DUP3 ADD SWAP2 JUMPDEST POP POP POP POP POP SWAP1 POP SWAP2 POP SWAP2 JUMP JUMPDEST PUSH1 0x0 DUP2 PUSH20 0xFFFFFFFFFFFFFFFFFFFFFFFFFFFFFFFFFFFFFFFF AND BALANCE SWAP1 POP SWAP2 SWAP1 POP JUMP JUMPDEST PUSH1 0x0 PUSH1 0x4 PUSH1 0x0 DUP4 PUSH20 0xFFFFFFFFFFFFFFFFFFFFFFFFFFFFFFFFFFFFFFFF AND PUSH20 0xFFFFFFFFFFFFFFFFFFFFFFFFFFFFFFFFFFFFFFFF AND DUP2 MSTORE PUSH1 0x20 ADD SWAP1 DUP2 MSTORE PUSH1 0x20 ADD PUSH1 0x0 KECCAK256 SLOAD SWAP1 POP SWAP2 SWAP1 POP JUMP JUMPDEST DUP3 DUP1 SLOAD PUSH2 0x1053 SWAP1 PUSH2 0x17D1 JUMP JUMPDEST SWAP1 PUSH1 0x0 MSTORE PUSH1 0x20 PUSH1 0x0 KECCAK256 SWAP1 PUSH1 0x1F ADD PUSH1 0x20 SWAP1 DIV DUP2 ADD SWAP3 DUP3 PUSH2 0x1075 JUMPI PUSH1 0x0 DUP6 SSTORE PUSH2 0x10BC JUMP JUMPDEST DUP3 PUSH1 0x1F LT PUSH2 0x108E JUMPI DUP1 MLOAD PUSH1 0xFF NOT AND DUP4 DUP1 ADD OR DUP6 SSTORE PUSH2 0x10BC JUMP JUMPDEST DUP3 DUP1 ADD PUSH1 0x1 ADD DUP6 SSTORE DUP3 ISZERO PUSH2 0x10BC JUMPI SWAP2 DUP3 ADD JUMPDEST DUP3 DUP2 GT ISZERO PUSH2 0x10BB JUMPI DUP3 MLOAD DUP3 SSTORE SWAP2 PUSH1 0x20 ADD SWAP2 SWAP1 PUSH1 0x1 ADD SWAP1 PUSH2 0x10A0 JUMP JUMPDEST JUMPDEST POP SWAP1 POP PUSH2 0x10C9 SWAP2 SWAP1 PUSH2 0x10CD JUMP JUMPDEST POP SWAP1 JUMP JUMPDEST JUMPDEST DUP1 DUP3 GT ISZERO PUSH2 0x10E6 JUMPI PUSH1 0x0 DUP2 PUSH1 0x0 SWAP1 SSTORE POP PUSH1 0x1 ADD PUSH2 0x10CE JUMP JUMPDEST POP SWAP1 JUMP JUMPDEST PUSH1 0x0 PUSH2 0x10FD PUSH2 0x10F8 DUP5 PUSH2 0x1608 JUMP JUMPDEST PUSH2 0x15E3 JUMP JUMPDEST SWAP1 POP DUP3 DUP2 MSTORE PUSH1 0x20 DUP2 ADD DUP5 DUP5 DUP5 ADD GT ISZERO PUSH2 0x1119 JUMPI PUSH2 0x1118 PUSH2 0x1953 JUMP JUMPDEST JUMPDEST PUSH2 0x1124 DUP5 DUP3 DUP6 PUSH2 0x178F JUMP JUMPDEST POP SWAP4 SWAP3 POP POP POP JUMP JUMPDEST PUSH1 0x0 DUP2 CALLDATALOAD SWAP1 POP PUSH2 0x113B DUP2 PUSH2 0x19D9 JUMP JUMPDEST SWAP3 SWAP2 POP POP JUMP JUMPDEST PUSH1 0x0 DUP2 CALLDATALOAD SWAP1 POP PUSH2 0x1150 DUP2 PUSH2 0x19F0 JUMP JUMPDEST SWAP3 SWAP2 POP POP JUMP JUMPDEST PUSH1 0x0 DUP3 PUSH1 0x1F DUP4 ADD SLT PUSH2 0x116B JUMPI PUSH2 0x116A PUSH2 0x194E JUMP JUMPDEST JUMPDEST DUP2 CALLDATALOAD PUSH2 0x117B DUP5 DUP3 PUSH1 0x20 DUP7 ADD PUSH2 0x10EA JUMP JUMPDEST SWAP2 POP POP SWAP3 SWAP2 POP POP JUMP JUMPDEST PUSH1 0x0 DUP2 CALLDATALOAD SWAP1 POP PUSH2 0x1193 DUP2 PUSH2 0x1A00 JUMP JUMPDEST SWAP3 SWAP2 POP POP JUMP JUMPDEST PUSH1 0x0 PUSH1 0x20 DUP3 DUP5 SUB SLT ISZERO PUSH2 0x11AF JUMPI PUSH2 0x11AE PUSH2 0x195D JUMP JUMPDEST JUMPDEST PUSH1 0x0 PUSH2 0x11BD DUP5 DUP3 DUP6 ADD PUSH2 0x112C JUMP JUMPDEST SWAP2 POP POP SWAP3 SWAP2 POP POP JUMP JUMPDEST PUSH1 0x0 DUP1 PUSH1 0x0 PUSH1 0x60 DUP5 DUP7 SUB SLT ISZERO PUSH2 0x11DF JUMPI PUSH2 0x11DE PUSH2 0x195D JUMP JUMPDEST JUMPDEST PUSH1 0x0 PUSH2 0x11ED DUP7 DUP3 DUP8 ADD PUSH2 0x112C JUMP JUMPDEST SWAP4 POP POP PUSH1 0x20 PUSH2 0x11FE DUP7 DUP3 DUP8 ADD PUSH2 0x1141 JUMP JUMPDEST SWAP3 POP POP PUSH1 0x40 DUP5 ADD CALLDATALOAD PUSH8 0xFFFFFFFFFFFFFFFF DUP2 GT ISZERO PUSH2 0x121F JUMPI PUSH2 0x121E PUSH2 0x1958 JUMP JUMPDEST JUMPDEST PUSH2 0x122B DUP7 DUP3 DUP8 ADD PUSH2 0x1156 JUMP JUMPDEST SWAP2 POP POP SWAP3 POP SWAP3 POP SWAP3 JUMP JUMPDEST PUSH1 0x0 DUP1 PUSH1 0x40 DUP4 DUP6 SUB SLT ISZERO PUSH2 0x124C JUMPI PUSH2 0x124B PUSH2 0x195D JUMP JUMPDEST JUMPDEST PUSH1 0x0 PUSH2 0x125A DUP6 DUP3 DUP7 ADD PUSH2 0x112C JUMP JUMPDEST SWAP3 POP POP PUSH1 0x20 PUSH2 0x126B DUP6 DUP3 DUP7 ADD PUSH2 0x1184 JUMP JUMPDEST SWAP2 POP POP SWAP3 POP SWAP3 SWAP1 POP JUMP JUMPDEST PUSH1 0x0 PUSH1 0x20 DUP3 DUP5 SUB SLT ISZERO PUSH2 0x128B JUMPI PUSH2 0x128A PUSH2 0x195D JUMP JUMPDEST JUMPDEST PUSH1 0x0 PUSH2 0x1299 DUP5 DUP3 DUP6 ADD PUSH2 0x1184 JUMP JUMPDEST SWAP2 POP POP SWAP3 SWAP2 POP POP JUMP JUMPDEST PUSH1 0x0 DUP1 PUSH1 0x0 DUP1 PUSH1 0x0 DUP1 PUSH1 0x0 DUP1 PUSH1 0x0 DUP1 PUSH2 0x140 DUP12 DUP14 SUB SLT ISZERO PUSH2 0x12C6 JUMPI PUSH2 0x12C5 PUSH2 0x195D JUMP JUMPDEST JUMPDEST PUSH1 0x0 PUSH2 0x12D4 DUP14 DUP3 DUP15 ADD PUSH2 0x1184 JUMP JUMPDEST SWAP11 POP POP PUSH1 0x20 PUSH2 0x12E5 DUP14 DUP3 DUP15 ADD PUSH2 0x1184 JUMP JUMPDEST SWAP10 POP POP PUSH1 0x40 PUSH2 0x12F6 DUP14 DUP3 DUP15 ADD PUSH2 0x1184 JUMP JUMPDEST SWAP9 POP POP PUSH1 0x60 DUP12 ADD CALLDATALOAD PUSH8 0xFFFFFFFFFFFFFFFF DUP2 GT ISZERO PUSH2 0x1317 JUMPI PUSH2 0x1316 PUSH2 0x1958 JUMP JUMPDEST JUMPDEST PUSH2 0x1323 DUP14 DUP3 DUP15 ADD PUSH2 0x1156 JUMP JUMPDEST SWAP8 POP POP PUSH1 0x80 DUP12 ADD CALLDATALOAD PUSH8 0xFFFFFFFFFFFFFFFF DUP2 GT ISZERO PUSH2 0x1344 JUMPI PUSH2 0x1343 PUSH2 0x1958 JUMP JUMPDEST JUMPDEST PUSH2 0x1350 DUP14 DUP3 DUP15 ADD PUSH2 0x1156 JUMP JUMPDEST SWAP7 POP POP PUSH1 0xA0 DUP12 ADD CALLDATALOAD PUSH8 0xFFFFFFFFFFFFFFFF DUP2 GT ISZERO PUSH2 0x1371 JUMPI PUSH2 0x1370 PUSH2 0x1958 JUMP JUMPDEST JUMPDEST PUSH2 0x137D DUP14 DUP3 DUP15 ADD PUSH2 0x1156 JUMP JUMPDEST SWAP6 POP POP PUSH1 0xC0 DUP12 ADD CALLDATALOAD PUSH8 0xFFFFFFFFFFFFFFFF DUP2 GT ISZERO PUSH2 0x139E JUMPI PUSH2 0x139D PUSH2 0x1958 JUMP JUMPDEST JUMPDEST PUSH2 0x13AA DUP14 DUP3 DUP15 ADD PUSH2 0x1156 JUMP JUMPDEST SWAP5 POP POP PUSH1 0xE0 DUP12 ADD CALLDATALOAD PUSH8 0xFFFFFFFFFFFFFFFF DUP2 GT ISZERO PUSH2 0x13CB JUMPI PUSH2 0x13CA PUSH2 0x1958 JUMP JUMPDEST JUMPDEST PUSH2 0x13D7 DUP14 DUP3 DUP15 ADD PUSH2 0x1156 JUMP JUMPDEST SWAP4 POP POP PUSH2 0x100 DUP12 ADD CALLDATALOAD PUSH8 0xFFFFFFFFFFFFFFFF DUP2 GT ISZERO PUSH2 0x13F9 JUMPI PUSH2 0x13F8 PUSH2 0x1958 JUMP JUMPDEST JUMPDEST PUSH2 0x1405 DUP14 DUP3 DUP15 ADD PUSH2 0x1156 JUMP JUMPDEST SWAP3 POP POP PUSH2 0x120 DUP12 ADD CALLDATALOAD PUSH8 0xFFFFFFFFFFFFFFFF DUP2 GT ISZERO PUSH2 0x1427 JUMPI PUSH2 0x1426 PUSH2 0x1958 JUMP JUMPDEST JUMPDEST PUSH2 0x1433 DUP14 DUP3 DUP15 ADD PUSH2 0x1156 JUMP JUMPDEST SWAP2 POP POP SWAP3 SWAP6 SWAP9 SWAP12 SWAP2 SWAP5 SWAP8 SWAP11 POP SWAP3 SWAP6 SWAP9 POP JUMP JUMPDEST PUSH2 0x144E DUP2 PUSH2 0x1722 JUMP JUMPDEST DUP3 MSTORE POP POP JUMP JUMPDEST PUSH2 0x145D DUP2 PUSH2 0x1734 JUMP JUMPDEST DUP3 MSTORE POP POP JUMP JUMPDEST PUSH2 0x146C DUP2 PUSH2 0x177D JUMP JUMPDEST DUP3 MSTORE POP POP JUMP JUMPDEST PUSH1 0x0 PUSH2 0x147D DUP3 PUSH2 0x1639 JUMP JUMPDEST PUSH2 0x1487 DUP2 DUP6 PUSH2 0x1644 JUMP JUMPDEST SWAP4 POP PUSH2 0x1497 DUP2 DUP6 PUSH1 0x20 DUP7 ADD PUSH2 0x179E JUMP JUMPDEST PUSH2 0x14A0 DUP2 PUSH2 0x1962 JUMP JUMPDEST DUP5 ADD SWAP2 POP POP SWAP3 SWAP2 POP POP JUMP JUMPDEST PUSH1 0x0 PUSH2 0x14B8 PUSH1 0x19 DUP4 PUSH2 0x1644 JUMP JUMPDEST SWAP2 POP PUSH2 0x14C3 DUP3 PUSH2 0x1973 JUMP JUMPDEST PUSH1 0x20 DUP3 ADD SWAP1 POP SWAP2 SWAP1 POP JUMP JUMPDEST PUSH1 0x0 PUSH2 0x14DB PUSH1 0x1E DUP4 PUSH2 0x1644 JUMP JUMPDEST SWAP2 POP PUSH2 0x14E6 DUP3 PUSH2 0x199C JUMP JUMPDEST PUSH1 0x20 DUP3 ADD SWAP1 POP SWAP2 SWAP1 POP JUMP JUMPDEST PUSH2 0x14FA DUP2 PUSH2 0x1773 JUMP JUMPDEST DUP3 MSTORE POP POP JUMP JUMPDEST PUSH1 0x0 PUSH1 0x20 DUP3 ADD SWAP1 POP PUSH2 0x1515 PUSH1 0x0 DUP4 ADD DUP5 PUSH2 0x1445 JUMP JUMPDEST SWAP3 SWAP2 POP POP JUMP JUMPDEST PUSH1 0x0 PUSH1 0x20 DUP3 ADD SWAP1 POP PUSH2 0x1530 PUSH1 0x0 DUP4 ADD DUP5 PUSH2 0x1454 JUMP JUMPDEST SWAP3 SWAP2 POP POP JUMP JUMPDEST PUSH1 0x0 PUSH1 0x40 DUP3 ADD SWAP1 POP PUSH2 0x154B PUSH1 0x0 DUP4 ADD DUP6 PUSH2 0x1463 JUMP JUMPDEST DUP2 DUP2 SUB PUSH1 0x20 DUP4 ADD MSTORE PUSH2 0x155D DUP2 DUP5 PUSH2 0x1472 JUMP JUMPDEST SWAP1 POP SWAP4 SWAP3 POP POP POP JUMP JUMPDEST PUSH1 0x0 PUSH1 0x20 DUP3 ADD SWAP1 POP DUP2 DUP2 SUB PUSH1 0x0 DUP4 ADD MSTORE PUSH2 0x1580 DUP2 DUP5 PUSH2 0x1472 JUMP JUMPDEST SWAP1 POP SWAP3 SWAP2 POP POP JUMP JUMPDEST PUSH1 0x0 PUSH1 0x20 DUP3 ADD SWAP1 POP DUP2 DUP2 SUB PUSH1 0x0 DUP4 ADD MSTORE PUSH2 0x15A1 DUP2 PUSH2 0x14AB JUMP JUMPDEST SWAP1 POP SWAP2 SWAP1 POP JUMP JUMPDEST PUSH1 0x0 PUSH1 0x20 DUP3 ADD SWAP1 POP DUP2 DUP2 SUB PUSH1 0x0 DUP4 ADD MSTORE PUSH2 0x15C1 DUP2 PUSH2 0x14CE JUMP JUMPDEST SWAP1 POP SWAP2 SWAP1 POP JUMP JUMPDEST PUSH1 0x0 PUSH1 0x20 DUP3 ADD SWAP1 POP PUSH2 0x15DD PUSH1 0x0 DUP4 ADD DUP5 PUSH2 0x14F1 JUMP JUMPDEST SWAP3 SWAP2 POP POP JUMP JUMPDEST PUSH1 0x0 PUSH2 0x15ED PUSH2 0x15FE JUMP JUMPDEST SWAP1 POP PUSH2 0x15F9 DUP3 DUP3 PUSH2 0x1803 JUMP JUMPDEST SWAP2 SWAP1 POP JUMP JUMPDEST PUSH1 0x0 PUSH1 0x40 MLOAD SWAP1 POP SWAP1 JUMP JUMPDEST PUSH1 0x0 PUSH8 0xFFFFFFFFFFFFFFFF DUP3 GT ISZERO PUSH2 0x1623 JUMPI PUSH2 0x1622 PUSH2 0x191F JUMP JUMPDEST JUMPDEST PUSH2 0x162C DUP3 PUSH2 0x1962 JUMP JUMPDEST SWAP1 POP PUSH1 0x20 DUP2 ADD SWAP1 POP SWAP2 SWAP1 POP JUMP JUMPDEST PUSH1 0x0 DUP2 MLOAD SWAP1 POP SWAP2 SWAP1 POP JUMP JUMPDEST PUSH1 0x0 DUP3 DUP3 MSTORE PUSH1 0x20 DUP3 ADD SWAP1 POP SWAP3 SWAP2 POP POP JUMP JUMPDEST PUSH1 0x0 PUSH2 0x1660 DUP3 PUSH2 0x1773 JUMP JUMPDEST SWAP2 POP PUSH2 0x166B DUP4 PUSH2 0x1773 JUMP JUMPDEST SWAP3 POP DUP3 PUSH32 0xFFFFFFFFFFFFFFFFFFFFFFFFFFFFFFFFFFFFFFFFFFFFFFFFFFFFFFFFFFFFFFFF SUB DUP3 GT ISZERO PUSH2 0x16A0 JUMPI PUSH2 0x169F PUSH2 0x1834 JUMP JUMPDEST JUMPDEST DUP3 DUP3 ADD SWAP1 POP SWAP3 SWAP2 POP POP JUMP JUMPDEST PUSH1 0x0 PUSH2 0x16B6 DUP3 PUSH2 0x1773 JUMP JUMPDEST SWAP2 POP PUSH2 0x16C1 DUP4 PUSH2 0x1773 JUMP JUMPDEST SWAP3 POP DUP3 PUSH2 0x16D1 JUMPI PUSH2 0x16D0 PUSH2 0x1863 JUMP JUMPDEST JUMPDEST DUP3 DUP3 DIV SWAP1 POP SWAP3 SWAP2 POP POP JUMP JUMPDEST PUSH1 0x0 PUSH2 0x16E7 DUP3 PUSH2 0x1773 JUMP JUMPDEST SWAP2 POP PUSH2 0x16F2 DUP4 PUSH2 0x1773 JUMP JUMPDEST SWAP3 POP DUP3 DUP3 LT ISZERO PUSH2 0x1705 JUMPI PUSH2 0x1704 PUSH2 0x1834 JUMP JUMPDEST JUMPDEST DUP3 DUP3 SUB SWAP1 POP SWAP3 SWAP2 POP POP JUMP JUMPDEST PUSH1 0x0 PUSH2 0x171B DUP3 PUSH2 0x1753 JUMP JUMPDEST SWAP1 POP SWAP2 SWAP1 POP JUMP JUMPDEST PUSH1 0x0 PUSH2 0x172D DUP3 PUSH2 0x1753 JUMP JUMPDEST SWAP1 POP SWAP2 SWAP1 POP JUMP JUMPDEST PUSH1 0x0 DUP2 ISZERO ISZERO SWAP1 POP SWAP2 SWAP1 POP JUMP JUMPDEST PUSH1 0x0 DUP2 SWAP1 POP PUSH2 0x174E DUP3 PUSH2 0x19C5 JUMP JUMPDEST SWAP2 SWAP1 POP JUMP JUMPDEST PUSH1 0x0 PUSH20 0xFFFFFFFFFFFFFFFFFFFFFFFFFFFFFFFFFFFFFFFF DUP3 AND SWAP1 POP SWAP2 SWAP1 POP JUMP JUMPDEST PUSH1 0x0 DUP2 SWAP1 POP SWAP2 SWAP1 POP JUMP JUMPDEST PUSH1 0x0 PUSH2 0x1788 DUP3 PUSH2 0x1740 JUMP JUMPDEST SWAP1 POP SWAP2 SWAP1 POP JUMP JUMPDEST DUP3 DUP2 DUP4 CALLDATACOPY PUSH1 0x0 DUP4 DUP4 ADD MSTORE POP POP POP JUMP JUMPDEST PUSH1 0x0 JUMPDEST DUP4 DUP2 LT ISZERO PUSH2 0x17BC JUMPI DUP1 DUP3 ADD MLOAD DUP2 DUP5 ADD MSTORE PUSH1 0x20 DUP2 ADD SWAP1 POP PUSH2 0x17A1 JUMP JUMPDEST DUP4 DUP2 GT ISZERO PUSH2 0x17CB JUMPI PUSH1 0x0 DUP5 DUP5 ADD MSTORE JUMPDEST POP POP POP POP JUMP JUMPDEST PUSH1 0x0 PUSH1 0x2 DUP3 DIV SWAP1 POP PUSH1 0x1 DUP3 AND DUP1 PUSH2 0x17E9 JUMPI PUSH1 0x7F DUP3 AND SWAP2 POP JUMPDEST PUSH1 0x20 DUP3 LT DUP2 EQ ISZERO PUSH2 0x17FD JUMPI PUSH2 0x17FC PUSH2 0x18C1 JUMP JUMPDEST JUMPDEST POP SWAP2 SWAP1 POP JUMP JUMPDEST PUSH2 0x180C DUP3 PUSH2 0x1962 JUMP JUMPDEST DUP2 ADD DUP2 DUP2 LT PUSH8 0xFFFFFFFFFFFFFFFF DUP3 GT OR ISZERO PUSH2 0x182B JUMPI PUSH2 0x182A PUSH2 0x191F JUMP JUMPDEST JUMPDEST DUP1 PUSH1 0x40 MSTORE POP POP POP JUMP JUMPDEST PUSH32 0x4E487B7100000000000000000000000000000000000000000000000000000000 PUSH1 0x0 MSTORE PUSH1 0x11 PUSH1 0x4 MSTORE PUSH1 0x24 PUSH1 0x0 REVERT JUMPDEST PUSH32 0x4E487B7100000000000000000000000000000000000000000000000000000000 PUSH1 0x0 MSTORE PUSH1 0x12 PUSH1 0x4 MSTORE PUSH1 0x24 PUSH1 0x0 REVERT JUMPDEST PUSH32 0x4E487B7100000000000000000000000000000000000000000000000000000000 PUSH1 0x0 MSTORE PUSH1 0x21 PUSH1 0x4 MSTORE PUSH1 0x24 PUSH1 0x0 REVERT JUMPDEST PUSH32 0x4E487B7100000000000000000000000000000000000000000000000000000000 PUSH1 0x0 MSTORE PUSH1 0x22 PUSH1 0x4 MSTORE PUSH1 0x24 PUSH1 0x0 REVERT JUMPDEST PUSH32 0x4E487B7100000000000000000000000000000000000000000000000000000000 PUSH1 0x0 MSTORE PUSH1 0x32 PUSH1 0x4 MSTORE PUSH1 0x24 PUSH1 0x0 REVERT JUMPDEST PUSH32 0x4E487B7100000000000000000000000000000000000000000000000000000000 PUSH1 0x0 MSTORE PUSH1 0x41 PUSH1 0x4 MSTORE PUSH1 0x24 PUSH1 0x0 REVERT JUMPDEST PUSH1 0x0 DUP1 REVERT JUMPDEST PUSH1 0x0 DUP1 REVERT JUMPDEST PUSH1 0x0 DUP1 REVERT JUMPDEST PUSH1 0x0 DUP1 REVERT JUMPDEST PUSH1 0x0 PUSH1 0x1F NOT PUSH1 0x1F DUP4 ADD AND SWAP1 POP SWAP2 SWAP1 POP JUMP JUMPDEST PUSH32 0x63616C6C6572206973206E6F7420612070726F64756365722E00000000000000 PUSH1 0x0 DUP3 ADD MSTORE POP JUMP JUMPDEST PUSH32 0x63616C6C6572206973206E6F742074686520746F6B656E206F776E65722E0000 PUSH1 0x0 DUP3 ADD MSTORE POP JUMP JUMPDEST PUSH1 0x5 DUP2 LT PUSH2 0x19D6 JUMPI PUSH2 0x19D5 PUSH2 0x1892 JUMP JUMPDEST JUMPDEST POP JUMP JUMPDEST PUSH2 0x19E2 DUP2 PUSH2 0x1710 JUMP JUMPDEST DUP2 EQ PUSH2 0x19ED JUMPI PUSH1 0x0 DUP1 REVERT JUMPDEST POP JUMP JUMPDEST PUSH1 0x5 DUP2 LT PUSH2 0x19FD JUMPI PUSH1 0x0 DUP1 REVERT JUMPDEST POP JUMP JUMPDEST PUSH2 0x1A09 DUP2 PUSH2 0x1773 JUMP JUMPDEST DUP2 EQ PUSH2 0x1A14 JUMPI PUSH1 0x0 DUP1 REVERT JUMPDEST POP JUMP INVALID LOG2 PUSH5 0x6970667358 0x22 SLT KECCAK256 0xA7 0xCD ISZERO 0xB2 0xFC SWAP13 0xB1 0xDF SWAP2 PUSH23 0xAFE33157156EB9E4F2EBB33F0FE14B3B3BDFAAE3188064 PUSH20 0x6F6C634300080700330000000000000000000000 "
				},
				"gasEstimates": {
					"creation": {
						"codeDepositCost": "1346600",
						"executionCost": "infinite",
						"totalCost": "infinite"
					},
					"external": {
						"burn(address,uint256)": "infinite",
						"buyToken()": "infinite",
						"etherBalance(address)": "3345",
						"getActorInfo(address)": "infinite",
						"mint(uint256)": "infinite",
						"name()": "infinite",
						"produceProduct(uint256,uint256,uint256,string,string,string,string,string,string,string)": "infinite",
						"register(address,uint8,string)": "infinite",
						"symbol()": "infinite",
						"tokenBalance(address)": "2951",
						"tokenOwner()": "2536",
						"tokenTransfer(address,uint256)": "infinite"
					}
				},
				"methodIdentifiers": {
					"burn(address,uint256)": "9dc29fac",
					"buyToken()": "a4821719",
					"etherBalance(address)": "cd0c5896",
					"getActorInfo(address)": "b292abf1",
					"mint(uint256)": "a0712d68",
					"name()": "06fdde03",
					"produceProduct(uint256,uint256,uint256,string,string,string,string,string,string,string)": "561e0e98",
					"register(address,uint8,string)": "40932fc2",
					"symbol()": "95d89b41",
					"tokenBalance(address)": "eedc966a",
					"tokenOwner()": "a3e67610",
					"tokenTransfer(address,uint256)": "68cdafe6"
				}
			},
			"storageLayout": {
				"storage": [
					{
						"astId": 3,
						"contract": "contracts/4_Product.sol:ProductSC",
						"label": "name",
						"offset": 0,
						"slot": "0",
						"type": "t_string_storage"
					},
					{
						"astId": 5,
						"contract": "contracts/4_Product.sol:ProductSC",
						"label": "symbol",
						"offset": 0,
						"slot": "1",
						"type": "t_string_storage"
					},
					{
						"astId": 7,
						"contract": "contracts/4_Product.sol:ProductSC",
						"label": "tokenOwner",
						"offset": 0,
						"slot": "2",
						"type": "t_address_payable"
					},
					{
						"astId": 19,
						"contract": "contracts/4_Product.sol:ProductSC",
						"label": "_totalSupply",
						"offset": 0,
						"slot": "3",
						"type": "t_uint256"
					},
					{
						"astId": 84,
						"contract": "contracts/4_Product.sol:ProductSC",
						"label": "balances",
						"offset": 0,
						"slot": "4",
						"type": "t_mapping(t_address,t_uint256)"
					},
					{
						"astId": 89,
						"contract": "contracts/4_Product.sol:ProductSC",
						"label": "actors",
						"offset": 0,
						"slot": "5",
						"type": "t_mapping(t_address,t_struct(Actor)65_storage)"
					},
					{
						"astId": 94,
						"contract": "contracts/4_Product.sol:ProductSC",
						"label": "product",
						"offset": 0,
						"slot": "6",
						"type": "t_mapping(t_uint256,t_struct(Product)57_storage)"
					}
				],
				"types": {
					"t_address": {
						"encoding": "inplace",
						"label": "address",
						"numberOfBytes": "20"
					},
					"t_address_payable": {
						"encoding": "inplace",
						"label": "address payable",
						"numberOfBytes": "20"
					},
					"t_array(t_uint256)4_storage": {
						"base": "t_uint256",
						"encoding": "inplace",
						"label": "uint256[4]",
						"numberOfBytes": "128"
					},
					"t_bool": {
						"encoding": "inplace",
						"label": "bool",
						"numberOfBytes": "1"
					},
					"t_enum(Role)32": {
						"encoding": "inplace",
						"label": "enum ProductSC.Role",
						"numberOfBytes": "1"
					},
					"t_enum(State)26": {
						"encoding": "inplace",
						"label": "enum ProductSC.State",
						"numberOfBytes": "1"
					},
					"t_mapping(t_address,t_struct(Actor)65_storage)": {
						"encoding": "mapping",
						"key": "t_address",
						"label": "mapping(address => struct ProductSC.Actor)",
						"numberOfBytes": "32",
						"value": "t_struct(Actor)65_storage"
					},
					"t_mapping(t_address,t_uint256)": {
						"encoding": "mapping",
						"key": "t_address",
						"label": "mapping(address => uint256)",
						"numberOfBytes": "32",
						"value": "t_uint256"
					},
					"t_mapping(t_uint256,t_struct(Product)57_storage)": {
						"encoding": "mapping",
						"key": "t_uint256",
						"label": "mapping(uint256 => struct ProductSC.Product)",
						"numberOfBytes": "32",
						"value": "t_struct(Product)57_storage"
					},
					"t_string_storage": {
						"encoding": "bytes",
						"label": "string",
						"numberOfBytes": "32"
					},
					"t_struct(Actor)65_storage": {
						"encoding": "inplace",
						"label": "struct ProductSC.Actor",
						"members": [
							{
								"astId": 60,
								"contract": "contracts/4_Product.sol:ProductSC",
								"label": "role",
								"offset": 0,
								"slot": "0",
								"type": "t_enum(Role)32"
							},
							{
								"astId": 62,
								"contract": "contracts/4_Product.sol:ProductSC",
								"label": "name",
								"offset": 0,
								"slot": "1",
								"type": "t_string_storage"
							},
							{
								"astId": 64,
								"contract": "contracts/4_Product.sol:ProductSC",
								"label": "isDefined",
								"offset": 0,
								"slot": "2",
								"type": "t_bool"
							}
						],
						"numberOfBytes": "96"
					},
					"t_struct(Details)80_storage": {
						"encoding": "inplace",
						"label": "struct ProductSC.Details",
						"members": [
							{
								"astId": 67,
								"contract": "contracts/4_Product.sol:ProductSC",
								"label": "name",
								"offset": 0,
								"slot": "0",
								"type": "t_string_storage"
							},
							{
								"astId": 69,
								"contract": "contracts/4_Product.sol:ProductSC",
								"label": "brand",
								"offset": 0,
								"slot": "1",
								"type": "t_string_storage"
							},
							{
								"astId": 71,
								"contract": "contracts/4_Product.sol:ProductSC",
								"label": "size",
								"offset": 0,
								"slot": "2",
								"type": "t_string_storage"
							},
							{
								"astId": 73,
								"contract": "contracts/4_Product.sol:ProductSC",
								"label": "weight",
								"offset": 0,
								"slot": "3",
								"type": "t_string_storage"
							},
							{
								"astId": 75,
								"contract": "contracts/4_Product.sol:ProductSC",
								"label": "length",
								"offset": 0,
								"slot": "4",
								"type": "t_string_storage"
							},
							{
								"astId": 77,
								"contract": "contracts/4_Product.sol:ProductSC",
								"label": "width",
								"offset": 0,
								"slot": "5",
								"type": "t_string_storage"
							},
							{
								"astId": 79,
								"contract": "contracts/4_Product.sol:ProductSC",
								"label": "height",
								"offset": 0,
								"slot": "6",
								"type": "t_string_storage"
							}
						],
						"numberOfBytes": "224"
					},
					"t_struct(Product)57_storage": {
						"encoding": "inplace",
						"label": "struct ProductSC.Product",
						"members": [
							{
								"astId": 34,
								"contract": "contracts/4_Product.sol:ProductSC",
								"label": "ID",
								"offset": 0,
								"slot": "0",
								"type": "t_uint256"
							},
							{
								"astId": 36,
								"contract": "contracts/4_Product.sol:ProductSC",
								"label": "ownerID",
								"offset": 0,
								"slot": "1",
								"type": "t_address"
							},
							{
								"astId": 38,
								"contract": "contracts/4_Product.sol:ProductSC",
								"label": "producerID",
								"offset": 0,
								"slot": "2",
								"type": "t_address"
							},
							{
								"astId": 42,
								"contract": "contracts/4_Product.sol:ProductSC",
								"label": "timestamp",
								"offset": 0,
								"slot": "3",
								"type": "t_array(t_uint256)4_storage"
							},
							{
								"astId": 45,
								"contract": "contracts/4_Product.sol:ProductSC",
								"label": "productState",
								"offset": 0,
								"slot": "7",
								"type": "t_enum(State)26"
							},
							{
								"astId": 47,
								"contract": "contracts/4_Product.sol:ProductSC",
								"label": "productPrice",
								"offset": 0,
								"slot": "8",
								"type": "t_uint256"
							},
							{
								"astId": 49,
								"contract": "contracts/4_Product.sol:ProductSC",
								"label": "distributorID",
								"offset": 0,
								"slot": "9",
								"type": "t_address"
							},
							{
								"astId": 51,
								"contract": "contracts/4_Product.sol:ProductSC",
								"label": "retailerID",
								"offset": 0,
								"slot": "10",
								"type": "t_address"
							},
							{
								"astId": 53,
								"contract": "contracts/4_Product.sol:ProductSC",
								"label": "consumerID",
								"offset": 0,
								"slot": "11",
								"type": "t_address"
							},
							{
								"astId": 56,
								"contract": "contracts/4_Product.sol:ProductSC",
								"label": "details",
								"offset": 0,
								"slot": "12",
								"type": "t_struct(Details)80_storage"
							}
						],
						"numberOfBytes": "608"
					},
					"t_uint256": {
						"encoding": "inplace",
						"label": "uint256",
						"numberOfBytes": "32"
					}
				}
			},
			"userdoc": {
				"kind": "user",
				"methods": {},
				"version": 1
			}
		}
	}
}