{
	"contracts/4_Product.sol": {
		"ProductSC": {
			"abi": [
				{
					"inputs": [
						{
							"internalType": "string",
							"name": "_name",
							"type": "string"
						},
						{
							"internalType": "string",
							"name": "_symbol",
							"type": "string"
						},
						{
							"internalType": "uint256",
							"name": "_initialSupply",
							"type": "uint256"
						}
					],
					"stateMutability": "nonpayable",
					"type": "constructor"
				},
				{
					"inputs": [
						{
							"internalType": "address",
							"name": "_account",
							"type": "address"
						},
						{
							"internalType": "uint256",
							"name": "_amount",
							"type": "uint256"
						}
					],
					"name": "burn",
					"outputs": [],
					"stateMutability": "nonpayable",
					"type": "function"
				},
				{
					"inputs": [
						{
							"internalType": "uint256",
							"name": "_id",
							"type": "uint256"
						},
						{
							"internalType": "uint256",
							"name": "_timestamp",
							"type": "uint256"
						},
						{
							"internalType": "string",
							"name": "_lat",
							"type": "string"
						},
						{
							"internalType": "string",
							"name": "_log",
							"type": "string"
						},
						{
							"internalType": "int256",
							"name": "_temp",
							"type": "int256"
						}
					],
					"name": "buyProduct",
					"outputs": [],
					"stateMutability": "nonpayable",
					"type": "function"
				},
				{
					"inputs": [],
					"name": "buyToken",
					"outputs": [],
					"stateMutability": "payable",
					"type": "function"
				},
				{
					"inputs": [
						{
							"internalType": "address",
							"name": "_addr",
							"type": "address"
						}
					],
					"name": "etherBalance",
					"outputs": [
						{
							"internalType": "uint256",
							"name": "",
							"type": "uint256"
						}
					],
					"stateMutability": "view",
					"type": "function"
				},
				{
					"inputs": [
						{
							"internalType": "address",
							"name": "_addr",
							"type": "address"
						}
					],
					"name": "getActorInfo",
					"outputs": [
						{
							"internalType": "enum ProductSC.Role",
							"name": "_role",
							"type": "uint8"
						},
						{
							"internalType": "string",
							"name": "_name",
							"type": "string"
						}
					],
					"stateMutability": "view",
					"type": "function"
				},
				{
					"inputs": [
						{
							"internalType": "uint256",
							"name": "_amount",
							"type": "uint256"
						}
					],
					"name": "mint",
					"outputs": [],
					"stateMutability": "nonpayable",
					"type": "function"
				},
				{
					"inputs": [],
					"name": "name",
					"outputs": [
						{
							"internalType": "string",
							"name": "",
							"type": "string"
						}
					],
					"stateMutability": "view",
					"type": "function"
				},
				{
					"inputs": [
						{
							"internalType": "uint256",
							"name": "_id",
							"type": "uint256"
						},
						{
							"internalType": "uint256",
							"name": "_timestamp",
							"type": "uint256"
						},
						{
							"internalType": "uint256",
							"name": "_price",
							"type": "uint256"
						},
						{
							"internalType": "string",
							"name": "_name",
							"type": "string"
						},
						{
							"internalType": "string",
							"name": "_brand",
							"type": "string"
						},
						{
							"internalType": "string",
							"name": "_size",
							"type": "string"
						},
						{
							"internalType": "string",
							"name": "_weight",
							"type": "string"
						},
						{
							"internalType": "string",
							"name": "_length",
							"type": "string"
						},
						{
							"internalType": "string",
							"name": "_width",
							"type": "string"
						},
						{
							"internalType": "string",
							"name": "_height",
							"type": "string"
						}
					],
					"name": "produceProduct",
					"outputs": [],
					"stateMutability": "nonpayable",
					"type": "function"
				},
				{
					"inputs": [
						{
							"internalType": "address",
							"name": "_addr",
							"type": "address"
						},
						{
							"internalType": "enum ProductSC.Role",
							"name": "_role",
							"type": "uint8"
						},
						{
							"internalType": "string",
							"name": "_name",
							"type": "string"
						}
					],
					"name": "register",
					"outputs": [],
					"stateMutability": "nonpayable",
					"type": "function"
				},
				{
					"inputs": [],
					"name": "symbol",
					"outputs": [
						{
							"internalType": "string",
							"name": "",
							"type": "string"
						}
					],
					"stateMutability": "view",
					"type": "function"
				},
				{
					"inputs": [
						{
							"internalType": "address",
							"name": "_addr",
							"type": "address"
						}
					],
					"name": "tokenBalance",
					"outputs": [
						{
							"internalType": "uint256",
							"name": "",
							"type": "uint256"
						}
					],
					"stateMutability": "view",
					"type": "function"
				},
				{
					"inputs": [],
					"name": "tokenOwner",
					"outputs": [
						{
							"internalType": "address payable",
							"name": "",
							"type": "address"
						}
					],
					"stateMutability": "view",
					"type": "function"
				},
				{
					"inputs": [
						{
							"internalType": "address",
							"name": "_to",
							"type": "address"
						},
						{
							"internalType": "uint256",
							"name": "_amount",
							"type": "uint256"
						}
					],
					"name": "tokenTransfer",
					"outputs": [
						{
							"internalType": "bool",
							"name": "",
							"type": "bool"
						}
					],
					"stateMutability": "nonpayable",
					"type": "function"
				}
			],
			"devdoc": {
				"kind": "dev",
				"methods": {},
				"version": 1
			},
			"evm": {
				"assembly": "    /* \"contracts/4_Product.sol\":35:9822  contract ProductSC {\r... */\n  mstore(0x40, 0x80)\n    /* \"contracts/4_Product.sol\":2204:2584  constructor (string memory _name, string memory _symbol, uint256 _initialSupply) {\r... */\n  callvalue\n  dup1\n  iszero\n  tag_1\n  jumpi\n  0x00\n  dup1\n  revert\ntag_1:\n  pop\n  mload(0x40)\n  sub(codesize, bytecodeSize)\n  dup1\n  bytecodeSize\n  dup4\n  codecopy\n  dup2\n  dup2\n  add\n  0x40\n  mstore\n  dup2\n  add\n  swap1\n  tag_2\n  swap2\n  swap1\n  tag_3\n  jump\t// in\ntag_2:\n    /* \"contracts/4_Product.sol\":2303:2308  _name */\n  dup3\n    /* \"contracts/4_Product.sol\":2296:2300  name */\n  0x00\n    /* \"contracts/4_Product.sol\":2296:2308  name = _name */\n  swap1\n  dup1\n  mload\n  swap1\n  0x20\n  add\n  swap1\n  tag_6\n  swap3\n  swap2\n  swap1\n  tag_7\n  jump\t// in\ntag_6:\n  pop\n    /* \"contracts/4_Product.sol\":2328:2335  _symbol */\n  dup2\n    /* \"contracts/4_Product.sol\":2319:2325  symbol */\n  0x01\n    /* \"contracts/4_Product.sol\":2319:2335  symbol = _symbol */\n  swap1\n  dup1\n  mload\n  swap1\n  0x20\n  add\n  swap1\n  tag_8\n  swap3\n  swap2\n  swap1\n  tag_7\n  jump\t// in\ntag_8:\n  pop\n    /* \"contracts/4_Product.sol\":2361:2375  _initialSupply */\n  dup1\n    /* \"contracts/4_Product.sol\":2346:2358  _totalSupply */\n  0x03\n    /* \"contracts/4_Product.sol\":2346:2375  _totalSupply = _initialSupply */\n  dup2\n  swap1\n  sstore\n  pop\n    /* \"contracts/4_Product.sol\":2407:2417  msg.sender */\n  caller\n    /* \"contracts/4_Product.sol\":2386:2396  tokenOwner */\n  0x02\n  0x00\n    /* \"contracts/4_Product.sol\":2386:2418  tokenOwner = payable(msg.sender) */\n  0x0100\n  exp\n  dup2\n  sload\n  dup2\n  0xffffffffffffffffffffffffffffffffffffffff\n  mul\n  not\n  and\n  swap1\n  dup4\n  0xffffffffffffffffffffffffffffffffffffffff\n  and\n  mul\n  or\n  swap1\n  sstore\n  pop\n    /* \"contracts/4_Product.sol\":2495:2509  _initialSupply */\n  dup1\n    /* \"contracts/4_Product.sol\":2472:2480  balances */\n  0x04\n    /* \"contracts/4_Product.sol\":2472:2492  balances[msg.sender] */\n  0x00\n    /* \"contracts/4_Product.sol\":2481:2491  msg.sender */\n  caller\n    /* \"contracts/4_Product.sol\":2472:2492  balances[msg.sender] */\n  0xffffffffffffffffffffffffffffffffffffffff\n  and\n  0xffffffffffffffffffffffffffffffffffffffff\n  and\n  dup2\n  mstore\n  0x20\n  add\n  swap1\n  dup2\n  mstore\n  0x20\n  add\n  0x00\n  keccak256\n    /* \"contracts/4_Product.sol\":2472:2509  balances[msg.sender] = _initialSupply */\n  dup2\n  swap1\n  sstore\n  pop\n    /* \"contracts/4_Product.sol\":2204:2584  constructor (string memory _name, string memory _symbol, uint256 _initialSupply) {\r... */\n  pop\n  pop\n  pop\n    /* \"contracts/4_Product.sol\":35:9822  contract ProductSC {\r... */\n  jump(tag_9)\ntag_7:\n  dup3\n  dup1\n  sload\n  tag_10\n  swap1\n  tag_11\n  jump\t// in\ntag_10:\n  swap1\n  0x00\n  mstore\n  keccak256(0x00, 0x20)\n  swap1\n  0x1f\n  add\n  0x20\n  swap1\n  div\n  dup2\n  add\n  swap3\n  dup3\n  tag_13\n  jumpi\n  0x00\n  dup6\n  sstore\n  jump(tag_12)\ntag_13:\n  dup3\n  0x1f\n  lt\n  tag_14\n  jumpi\n  dup1\n  mload\n  not(0xff)\n  and\n  dup4\n  dup1\n  add\n  or\n  dup6\n  sstore\n  jump(tag_12)\ntag_14:\n  dup3\n  dup1\n  add\n  0x01\n  add\n  dup6\n  sstore\n  dup3\n  iszero\n  tag_12\n  jumpi\n  swap2\n  dup3\n  add\ntag_15:\n  dup3\n  dup2\n  gt\n  iszero\n  tag_16\n  jumpi\n  dup3\n  mload\n  dup3\n  sstore\n  swap2\n  0x20\n  add\n  swap2\n  swap1\n  0x01\n  add\n  swap1\n  jump(tag_15)\ntag_16:\ntag_12:\n  pop\n  swap1\n  pop\n  tag_17\n  swap2\n  swap1\n  tag_18\n  jump\t// in\ntag_17:\n  pop\n  swap1\n  jump\t// out\ntag_18:\ntag_19:\n  dup1\n  dup3\n  gt\n  iszero\n  tag_20\n  jumpi\n  0x00\n  dup2\n  0x00\n  swap1\n  sstore\n  pop\n  0x01\n  add\n  jump(tag_19)\ntag_20:\n  pop\n  swap1\n  jump\t// out\n    /* \"#utility.yul\":7:428   */\ntag_22:\n    /* \"#utility.yul\":96:101   */\n  0x00\n    /* \"#utility.yul\":121:187   */\n  tag_24\n    /* \"#utility.yul\":137:186   */\n  tag_25\n    /* \"#utility.yul\":179:185   */\n  dup5\n    /* \"#utility.yul\":137:186   */\n  tag_26\n  jump\t// in\ntag_25:\n    /* \"#utility.yul\":121:187   */\n  tag_27\n  jump\t// in\ntag_24:\n    /* \"#utility.yul\":112:187   */\n  swap1\n  pop\n    /* \"#utility.yul\":210:216   */\n  dup3\n    /* \"#utility.yul\":203:208   */\n  dup2\n    /* \"#utility.yul\":196:217   */\n  mstore\n    /* \"#utility.yul\":248:252   */\n  0x20\n    /* \"#utility.yul\":241:246   */\n  dup2\n    /* \"#utility.yul\":237:253   */\n  add\n    /* \"#utility.yul\":286:289   */\n  dup5\n    /* \"#utility.yul\":277:283   */\n  dup5\n    /* \"#utility.yul\":272:275   */\n  dup5\n    /* \"#utility.yul\":268:284   */\n  add\n    /* \"#utility.yul\":265:290   */\n  gt\n    /* \"#utility.yul\":262:374   */\n  iszero\n  tag_28\n  jumpi\n    /* \"#utility.yul\":293:372   */\n  tag_29\n  tag_30\n  jump\t// in\ntag_29:\n    /* \"#utility.yul\":262:374   */\ntag_28:\n    /* \"#utility.yul\":383:422   */\n  tag_31\n    /* \"#utility.yul\":415:421   */\n  dup5\n    /* \"#utility.yul\":410:413   */\n  dup3\n    /* \"#utility.yul\":405:408   */\n  dup6\n    /* \"#utility.yul\":383:422   */\n  tag_32\n  jump\t// in\ntag_31:\n    /* \"#utility.yul\":102:428   */\n  pop\n    /* \"#utility.yul\":7:428   */\n  swap4\n  swap3\n  pop\n  pop\n  pop\n  jump\t// out\n    /* \"#utility.yul\":448:803   */\ntag_33:\n    /* \"#utility.yul\":515:520   */\n  0x00\n    /* \"#utility.yul\":564:567   */\n  dup3\n    /* \"#utility.yul\":557:561   */\n  0x1f\n    /* \"#utility.yul\":549:555   */\n  dup4\n    /* \"#utility.yul\":545:562   */\n  add\n    /* \"#utility.yul\":541:568   */\n  slt\n    /* \"#utility.yul\":531:653   */\n  tag_35\n  jumpi\n    /* \"#utility.yul\":572:651   */\n  tag_36\n  tag_37\n  jump\t// in\ntag_36:\n    /* \"#utility.yul\":531:653   */\ntag_35:\n    /* \"#utility.yul\":682:688   */\n  dup2\n    /* \"#utility.yul\":676:689   */\n  mload\n    /* \"#utility.yul\":707:797   */\n  tag_38\n    /* \"#utility.yul\":793:796   */\n  dup5\n    /* \"#utility.yul\":785:791   */\n  dup3\n    /* \"#utility.yul\":778:782   */\n  0x20\n    /* \"#utility.yul\":770:776   */\n  dup7\n    /* \"#utility.yul\":766:783   */\n  add\n    /* \"#utility.yul\":707:797   */\n  tag_22\n  jump\t// in\ntag_38:\n    /* \"#utility.yul\":698:797   */\n  swap2\n  pop\n    /* \"#utility.yul\":521:803   */\n  pop\n    /* \"#utility.yul\":448:803   */\n  swap3\n  swap2\n  pop\n  pop\n  jump\t// out\n    /* \"#utility.yul\":809:952   */\ntag_39:\n    /* \"#utility.yul\":866:871   */\n  0x00\n    /* \"#utility.yul\":897:903   */\n  dup2\n    /* \"#utility.yul\":891:904   */\n  mload\n    /* \"#utility.yul\":882:904   */\n  swap1\n  pop\n    /* \"#utility.yul\":913:946   */\n  tag_41\n    /* \"#utility.yul\":940:945   */\n  dup2\n    /* \"#utility.yul\":913:946   */\n  tag_42\n  jump\t// in\ntag_41:\n    /* \"#utility.yul\":809:952   */\n  swap3\n  swap2\n  pop\n  pop\n  jump\t// out\n    /* \"#utility.yul\":958:1967   */\ntag_3:\n    /* \"#utility.yul\":1066:1072   */\n  0x00\n    /* \"#utility.yul\":1074:1080   */\n  dup1\n    /* \"#utility.yul\":1082:1088   */\n  0x00\n    /* \"#utility.yul\":1131:1133   */\n  0x60\n    /* \"#utility.yul\":1119:1128   */\n  dup5\n    /* \"#utility.yul\":1110:1117   */\n  dup7\n    /* \"#utility.yul\":1106:1129   */\n  sub\n    /* \"#utility.yul\":1102:1134   */\n  slt\n    /* \"#utility.yul\":1099:1218   */\n  iszero\n  tag_44\n  jumpi\n    /* \"#utility.yul\":1137:1216   */\n  tag_45\n  tag_46\n  jump\t// in\ntag_45:\n    /* \"#utility.yul\":1099:1218   */\ntag_44:\n    /* \"#utility.yul\":1278:1279   */\n  0x00\n    /* \"#utility.yul\":1267:1276   */\n  dup5\n    /* \"#utility.yul\":1263:1280   */\n  add\n    /* \"#utility.yul\":1257:1281   */\n  mload\n    /* \"#utility.yul\":1308:1326   */\n  0xffffffffffffffff\n    /* \"#utility.yul\":1300:1306   */\n  dup2\n    /* \"#utility.yul\":1297:1327   */\n  gt\n    /* \"#utility.yul\":1294:1411   */\n  iszero\n  tag_47\n  jumpi\n    /* \"#utility.yul\":1330:1409   */\n  tag_48\n  tag_49\n  jump\t// in\ntag_48:\n    /* \"#utility.yul\":1294:1411   */\ntag_47:\n    /* \"#utility.yul\":1435:1509   */\n  tag_50\n    /* \"#utility.yul\":1501:1508   */\n  dup7\n    /* \"#utility.yul\":1492:1498   */\n  dup3\n    /* \"#utility.yul\":1481:1490   */\n  dup8\n    /* \"#utility.yul\":1477:1499   */\n  add\n    /* \"#utility.yul\":1435:1509   */\n  tag_33\n  jump\t// in\ntag_50:\n    /* \"#utility.yul\":1425:1509   */\n  swap4\n  pop\n    /* \"#utility.yul\":1228:1519   */\n  pop\n    /* \"#utility.yul\":1579:1581   */\n  0x20\n    /* \"#utility.yul\":1568:1577   */\n  dup5\n    /* \"#utility.yul\":1564:1582   */\n  add\n    /* \"#utility.yul\":1558:1583   */\n  mload\n    /* \"#utility.yul\":1610:1628   */\n  0xffffffffffffffff\n    /* \"#utility.yul\":1602:1608   */\n  dup2\n    /* \"#utility.yul\":1599:1629   */\n  gt\n    /* \"#utility.yul\":1596:1713   */\n  iszero\n  tag_51\n  jumpi\n    /* \"#utility.yul\":1632:1711   */\n  tag_52\n  tag_49\n  jump\t// in\ntag_52:\n    /* \"#utility.yul\":1596:1713   */\ntag_51:\n    /* \"#utility.yul\":1737:1811   */\n  tag_53\n    /* \"#utility.yul\":1803:1810   */\n  dup7\n    /* \"#utility.yul\":1794:1800   */\n  dup3\n    /* \"#utility.yul\":1783:1792   */\n  dup8\n    /* \"#utility.yul\":1779:1801   */\n  add\n    /* \"#utility.yul\":1737:1811   */\n  tag_33\n  jump\t// in\ntag_53:\n    /* \"#utility.yul\":1727:1811   */\n  swap3\n  pop\n    /* \"#utility.yul\":1529:1821   */\n  pop\n    /* \"#utility.yul\":1860:1862   */\n  0x40\n    /* \"#utility.yul\":1886:1950   */\n  tag_54\n    /* \"#utility.yul\":1942:1949   */\n  dup7\n    /* \"#utility.yul\":1933:1939   */\n  dup3\n    /* \"#utility.yul\":1922:1931   */\n  dup8\n    /* \"#utility.yul\":1918:1940   */\n  add\n    /* \"#utility.yul\":1886:1950   */\n  tag_39\n  jump\t// in\ntag_54:\n    /* \"#utility.yul\":1876:1950   */\n  swap2\n  pop\n    /* \"#utility.yul\":1831:1960   */\n  pop\n    /* \"#utility.yul\":958:1967   */\n  swap3\n  pop\n  swap3\n  pop\n  swap3\n  jump\t// out\n    /* \"#utility.yul\":1973:2102   */\ntag_27:\n    /* \"#utility.yul\":2007:2013   */\n  0x00\n    /* \"#utility.yul\":2034:2054   */\n  tag_56\n  tag_57\n  jump\t// in\ntag_56:\n    /* \"#utility.yul\":2024:2054   */\n  swap1\n  pop\n    /* \"#utility.yul\":2063:2096   */\n  tag_58\n    /* \"#utility.yul\":2091:2095   */\n  dup3\n    /* \"#utility.yul\":2083:2089   */\n  dup3\n    /* \"#utility.yul\":2063:2096   */\n  tag_59\n  jump\t// in\ntag_58:\n    /* \"#utility.yul\":1973:2102   */\n  swap2\n  swap1\n  pop\n  jump\t// out\n    /* \"#utility.yul\":2108:2183   */\ntag_57:\n    /* \"#utility.yul\":2141:2147   */\n  0x00\n    /* \"#utility.yul\":2174:2176   */\n  0x40\n    /* \"#utility.yul\":2168:2177   */\n  mload\n    /* \"#utility.yul\":2158:2177   */\n  swap1\n  pop\n    /* \"#utility.yul\":2108:2183   */\n  swap1\n  jump\t// out\n    /* \"#utility.yul\":2189:2497   */\ntag_26:\n    /* \"#utility.yul\":2251:2255   */\n  0x00\n    /* \"#utility.yul\":2341:2359   */\n  0xffffffffffffffff\n    /* \"#utility.yul\":2333:2339   */\n  dup3\n    /* \"#utility.yul\":2330:2360   */\n  gt\n    /* \"#utility.yul\":2327:2383   */\n  iszero\n  tag_62\n  jumpi\n    /* \"#utility.yul\":2363:2381   */\n  tag_63\n  tag_64\n  jump\t// in\ntag_63:\n    /* \"#utility.yul\":2327:2383   */\ntag_62:\n    /* \"#utility.yul\":2401:2430   */\n  tag_65\n    /* \"#utility.yul\":2423:2429   */\n  dup3\n    /* \"#utility.yul\":2401:2430   */\n  tag_66\n  jump\t// in\ntag_65:\n    /* \"#utility.yul\":2393:2430   */\n  swap1\n  pop\n    /* \"#utility.yul\":2485:2489   */\n  0x20\n    /* \"#utility.yul\":2479:2483   */\n  dup2\n    /* \"#utility.yul\":2475:2490   */\n  add\n    /* \"#utility.yul\":2467:2490   */\n  swap1\n  pop\n    /* \"#utility.yul\":2189:2497   */\n  swap2\n  swap1\n  pop\n  jump\t// out\n    /* \"#utility.yul\":2503:2580   */\ntag_67:\n    /* \"#utility.yul\":2540:2547   */\n  0x00\n    /* \"#utility.yul\":2569:2574   */\n  dup2\n    /* \"#utility.yul\":2558:2574   */\n  swap1\n  pop\n    /* \"#utility.yul\":2503:2580   */\n  swap2\n  swap1\n  pop\n  jump\t// out\n    /* \"#utility.yul\":2586:2893   */\ntag_32:\n    /* \"#utility.yul\":2654:2655   */\n  0x00\n    /* \"#utility.yul\":2664:2777   */\ntag_70:\n    /* \"#utility.yul\":2678:2684   */\n  dup4\n    /* \"#utility.yul\":2675:2676   */\n  dup2\n    /* \"#utility.yul\":2672:2685   */\n  lt\n    /* \"#utility.yul\":2664:2777   */\n  iszero\n  tag_72\n  jumpi\n    /* \"#utility.yul\":2763:2764   */\n  dup1\n    /* \"#utility.yul\":2758:2761   */\n  dup3\n    /* \"#utility.yul\":2754:2765   */\n  add\n    /* \"#utility.yul\":2748:2766   */\n  mload\n    /* \"#utility.yul\":2744:2745   */\n  dup2\n    /* \"#utility.yul\":2739:2742   */\n  dup5\n    /* \"#utility.yul\":2735:2746   */\n  add\n    /* \"#utility.yul\":2728:2767   */\n  mstore\n    /* \"#utility.yul\":2700:2702   */\n  0x20\n    /* \"#utility.yul\":2697:2698   */\n  dup2\n    /* \"#utility.yul\":2693:2703   */\n  add\n    /* \"#utility.yul\":2688:2703   */\n  swap1\n  pop\n    /* \"#utility.yul\":2664:2777   */\n  jump(tag_70)\ntag_72:\n    /* \"#utility.yul\":2795:2801   */\n  dup4\n    /* \"#utility.yul\":2792:2793   */\n  dup2\n    /* \"#utility.yul\":2789:2802   */\n  gt\n    /* \"#utility.yul\":2786:2887   */\n  iszero\n  tag_73\n  jumpi\n    /* \"#utility.yul\":2875:2876   */\n  0x00\n    /* \"#utility.yul\":2866:2872   */\n  dup5\n    /* \"#utility.yul\":2861:2864   */\n  dup5\n    /* \"#utility.yul\":2857:2873   */\n  add\n    /* \"#utility.yul\":2850:2877   */\n  mstore\n    /* \"#utility.yul\":2786:2887   */\ntag_73:\n    /* \"#utility.yul\":2635:2893   */\n  pop\n    /* \"#utility.yul\":2586:2893   */\n  pop\n  pop\n  pop\n  jump\t// out\n    /* \"#utility.yul\":2899:3219   */\ntag_11:\n    /* \"#utility.yul\":2943:2949   */\n  0x00\n    /* \"#utility.yul\":2980:2981   */\n  0x02\n    /* \"#utility.yul\":2974:2978   */\n  dup3\n    /* \"#utility.yul\":2970:2982   */\n  div\n    /* \"#utility.yul\":2960:2982   */\n  swap1\n  pop\n    /* \"#utility.yul\":3027:3028   */\n  0x01\n    /* \"#utility.yul\":3021:3025   */\n  dup3\n    /* \"#utility.yul\":3017:3029   */\n  and\n    /* \"#utility.yul\":3048:3066   */\n  dup1\n    /* \"#utility.yul\":3038:3119   */\n  tag_75\n  jumpi\n    /* \"#utility.yul\":3104:3108   */\n  0x7f\n    /* \"#utility.yul\":3096:3102   */\n  dup3\n    /* \"#utility.yul\":3092:3109   */\n  and\n    /* \"#utility.yul\":3082:3109   */\n  swap2\n  pop\n    /* \"#utility.yul\":3038:3119   */\ntag_75:\n    /* \"#utility.yul\":3166:3168   */\n  0x20\n    /* \"#utility.yul\":3158:3164   */\n  dup3\n    /* \"#utility.yul\":3155:3169   */\n  lt\n    /* \"#utility.yul\":3135:3153   */\n  dup2\n    /* \"#utility.yul\":3132:3170   */\n  eq\n    /* \"#utility.yul\":3129:3213   */\n  iszero\n  tag_76\n  jumpi\n    /* \"#utility.yul\":3185:3203   */\n  tag_77\n  tag_78\n  jump\t// in\ntag_77:\n    /* \"#utility.yul\":3129:3213   */\ntag_76:\n    /* \"#utility.yul\":2950:3219   */\n  pop\n    /* \"#utility.yul\":2899:3219   */\n  swap2\n  swap1\n  pop\n  jump\t// out\n    /* \"#utility.yul\":3225:3506   */\ntag_59:\n    /* \"#utility.yul\":3308:3335   */\n  tag_80\n    /* \"#utility.yul\":3330:3334   */\n  dup3\n    /* \"#utility.yul\":3308:3335   */\n  tag_66\n  jump\t// in\ntag_80:\n    /* \"#utility.yul\":3300:3306   */\n  dup2\n    /* \"#utility.yul\":3296:3336   */\n  add\n    /* \"#utility.yul\":3438:3444   */\n  dup2\n    /* \"#utility.yul\":3426:3436   */\n  dup2\n    /* \"#utility.yul\":3423:3445   */\n  lt\n    /* \"#utility.yul\":3402:3420   */\n  0xffffffffffffffff\n    /* \"#utility.yul\":3390:3400   */\n  dup3\n    /* \"#utility.yul\":3387:3421   */\n  gt\n    /* \"#utility.yul\":3384:3446   */\n  or\n    /* \"#utility.yul\":3381:3469   */\n  iszero\n  tag_81\n  jumpi\n    /* \"#utility.yul\":3449:3467   */\n  tag_82\n  tag_64\n  jump\t// in\ntag_82:\n    /* \"#utility.yul\":3381:3469   */\ntag_81:\n    /* \"#utility.yul\":3489:3499   */\n  dup1\n    /* \"#utility.yul\":3485:3487   */\n  0x40\n    /* \"#utility.yul\":3478:3500   */\n  mstore\n    /* \"#utility.yul\":3268:3506   */\n  pop\n    /* \"#utility.yul\":3225:3506   */\n  pop\n  pop\n  jump\t// out\n    /* \"#utility.yul\":3512:3692   */\ntag_78:\n    /* \"#utility.yul\":3560:3637   */\n  0x4e487b7100000000000000000000000000000000000000000000000000000000\n    /* \"#utility.yul\":3557:3558   */\n  0x00\n    /* \"#utility.yul\":3550:3638   */\n  mstore\n    /* \"#utility.yul\":3657:3661   */\n  0x22\n    /* \"#utility.yul\":3654:3655   */\n  0x04\n    /* \"#utility.yul\":3647:3662   */\n  mstore\n    /* \"#utility.yul\":3681:3685   */\n  0x24\n    /* \"#utility.yul\":3678:3679   */\n  0x00\n    /* \"#utility.yul\":3671:3686   */\n  revert\n    /* \"#utility.yul\":3698:3878   */\ntag_64:\n    /* \"#utility.yul\":3746:3823   */\n  0x4e487b7100000000000000000000000000000000000000000000000000000000\n    /* \"#utility.yul\":3743:3744   */\n  0x00\n    /* \"#utility.yul\":3736:3824   */\n  mstore\n    /* \"#utility.yul\":3843:3847   */\n  0x41\n    /* \"#utility.yul\":3840:3841   */\n  0x04\n    /* \"#utility.yul\":3833:3848   */\n  mstore\n    /* \"#utility.yul\":3867:3871   */\n  0x24\n    /* \"#utility.yul\":3864:3865   */\n  0x00\n    /* \"#utility.yul\":3857:3872   */\n  revert\n    /* \"#utility.yul\":3884:4001   */\ntag_37:\n    /* \"#utility.yul\":3993:3994   */\n  0x00\n    /* \"#utility.yul\":3990:3991   */\n  dup1\n    /* \"#utility.yul\":3983:3995   */\n  revert\n    /* \"#utility.yul\":4007:4124   */\ntag_30:\n    /* \"#utility.yul\":4116:4117   */\n  0x00\n    /* \"#utility.yul\":4113:4114   */\n  dup1\n    /* \"#utility.yul\":4106:4118   */\n  revert\n    /* \"#utility.yul\":4130:4247   */\ntag_49:\n    /* \"#utility.yul\":4239:4240   */\n  0x00\n    /* \"#utility.yul\":4236:4237   */\n  dup1\n    /* \"#utility.yul\":4229:4241   */\n  revert\n    /* \"#utility.yul\":4253:4370   */\ntag_46:\n    /* \"#utility.yul\":4362:4363   */\n  0x00\n    /* \"#utility.yul\":4359:4360   */\n  dup1\n    /* \"#utility.yul\":4352:4364   */\n  revert\n    /* \"#utility.yul\":4376:4478   */\ntag_66:\n    /* \"#utility.yul\":4417:4423   */\n  0x00\n    /* \"#utility.yul\":4468:4470   */\n  0x1f\n    /* \"#utility.yul\":4464:4471   */\n  not\n    /* \"#utility.yul\":4459:4461   */\n  0x1f\n    /* \"#utility.yul\":4452:4457   */\n  dup4\n    /* \"#utility.yul\":4448:4462   */\n  add\n    /* \"#utility.yul\":4444:4472   */\n  and\n    /* \"#utility.yul\":4434:4472   */\n  swap1\n  pop\n    /* \"#utility.yul\":4376:4478   */\n  swap2\n  swap1\n  pop\n  jump\t// out\n    /* \"#utility.yul\":4484:4606   */\ntag_42:\n    /* \"#utility.yul\":4557:4581   */\n  tag_91\n    /* \"#utility.yul\":4575:4580   */\n  dup2\n    /* \"#utility.yul\":4557:4581   */\n  tag_67\n  jump\t// in\ntag_91:\n    /* \"#utility.yul\":4550:4555   */\n  dup2\n    /* \"#utility.yul\":4547:4582   */\n  eq\n    /* \"#utility.yul\":4537:4600   */\n  tag_92\n  jumpi\n    /* \"#utility.yul\":4596:4597   */\n  0x00\n    /* \"#utility.yul\":4593:4594   */\n  dup1\n    /* \"#utility.yul\":4586:4598   */\n  revert\n    /* \"#utility.yul\":4537:4600   */\ntag_92:\n    /* \"#utility.yul\":4484:4606   */\n  pop\n  jump\t// out\n    /* \"contracts/4_Product.sol\":35:9822  contract ProductSC {\r... */\ntag_9:\n  dataSize(sub_0)\n  dup1\n  dataOffset(sub_0)\n  0x00\n  codecopy\n  0x00\n  return\nstop\n\nsub_0: assembly {\n        /* \"contracts/4_Product.sol\":35:9822  contract ProductSC {\r... */\n      mstore(0x40, 0x80)\n      jumpi(tag_1, lt(calldatasize, 0x04))\n      shr(0xe0, calldataload(0x00))\n      dup1\n      0x9dc29fac\n      gt\n      tag_15\n      jumpi\n      dup1\n      0xa4821719\n      gt\n      tag_16\n      jumpi\n      dup1\n      0xa4821719\n      eq\n      tag_11\n      jumpi\n      dup1\n      0xb292abf1\n      eq\n      tag_12\n      jumpi\n      dup1\n      0xcd0c5896\n      eq\n      tag_13\n      jumpi\n      dup1\n      0xeedc966a\n      eq\n      tag_14\n      jumpi\n      jump(tag_1)\n    tag_16:\n      dup1\n      0x9dc29fac\n      eq\n      tag_8\n      jumpi\n      dup1\n      0xa0712d68\n      eq\n      tag_9\n      jumpi\n      dup1\n      0xa3e67610\n      eq\n      tag_10\n      jumpi\n      jump(tag_1)\n    tag_15:\n      dup1\n      0x06fdde03\n      eq\n      tag_2\n      jumpi\n      dup1\n      0x40932fc2\n      eq\n      tag_3\n      jumpi\n      dup1\n      0x45091a60\n      eq\n      tag_4\n      jumpi\n      dup1\n      0x561e0e98\n      eq\n      tag_5\n      jumpi\n      dup1\n      0x68cdafe6\n      eq\n      tag_6\n      jumpi\n      dup1\n      0x95d89b41\n      eq\n      tag_7\n      jumpi\n    tag_1:\n      0x00\n      dup1\n      revert\n        /* \"contracts/4_Product.sol\":67:85  string public name */\n    tag_2:\n      callvalue\n      dup1\n      iszero\n      tag_17\n      jumpi\n      0x00\n      dup1\n      revert\n    tag_17:\n      pop\n      tag_18\n      tag_19\n      jump\t// in\n    tag_18:\n      mload(0x40)\n      tag_20\n      swap2\n      swap1\n      tag_21\n      jump\t// in\n    tag_20:\n      mload(0x40)\n      dup1\n      swap2\n      sub\n      swap1\n      return\n        /* \"contracts/4_Product.sol\":5914:6173  function register(address _addr, Role _role, string memory _name) public {\r... */\n    tag_3:\n      callvalue\n      dup1\n      iszero\n      tag_22\n      jumpi\n      0x00\n      dup1\n      revert\n    tag_22:\n      pop\n      tag_23\n      0x04\n      dup1\n      calldatasize\n      sub\n      dup2\n      add\n      swap1\n      tag_24\n      swap2\n      swap1\n      tag_25\n      jump\t// in\n    tag_24:\n      tag_26\n      jump\t// in\n    tag_23:\n      stop\n        /* \"contracts/4_Product.sol\":7363:8067  function buyProduct(uint256 _id, uint256 _timestamp, string memory _lat, string memory _log, int256 _temp) public OnlyDistributor{\r... */\n    tag_4:\n      callvalue\n      dup1\n      iszero\n      tag_27\n      jumpi\n      0x00\n      dup1\n      revert\n    tag_27:\n      pop\n      tag_28\n      0x04\n      dup1\n      calldatasize\n      sub\n      dup2\n      add\n      swap1\n      tag_29\n      swap2\n      swap1\n      tag_30\n      jump\t// in\n    tag_29:\n      tag_31\n      jump\t// in\n    tag_28:\n      stop\n        /* \"contracts/4_Product.sol\":6292:7316  function produceProduct(uint256 _id, uint256 _timestamp, uint256 _price, string memory _name, string memory _brand, string memory _size, string memory _weight, string memory _length ,string memory _width ,string memory _height) public OnlyProducer{\r... */\n    tag_5:\n      callvalue\n      dup1\n      iszero\n      tag_32\n      jumpi\n      0x00\n      dup1\n      revert\n    tag_32:\n      pop\n      tag_33\n      0x04\n      dup1\n      calldatasize\n      sub\n      dup2\n      add\n      swap1\n      tag_34\n      swap2\n      swap1\n      tag_35\n      jump\t// in\n    tag_34:\n      tag_36\n      jump\t// in\n    tag_33:\n      stop\n        /* \"contracts/4_Product.sol\":5546:5902  function tokenTransfer(address _to, uint256 _amount) public returns (bool) {\r... */\n    tag_6:\n      callvalue\n      dup1\n      iszero\n      tag_37\n      jumpi\n      0x00\n      dup1\n      revert\n    tag_37:\n      pop\n      tag_38\n      0x04\n      dup1\n      calldatasize\n      sub\n      dup2\n      add\n      swap1\n      tag_39\n      swap2\n      swap1\n      tag_40\n      jump\t// in\n    tag_39:\n      tag_41\n      jump\t// in\n    tag_38:\n      mload(0x40)\n      tag_42\n      swap2\n      swap1\n      tag_43\n      jump\t// in\n    tag_42:\n      mload(0x40)\n      dup1\n      swap2\n      sub\n      swap1\n      return\n        /* \"contracts/4_Product.sol\":114:134  string public symbol */\n    tag_7:\n      callvalue\n      dup1\n      iszero\n      tag_44\n      jumpi\n      0x00\n      dup1\n      revert\n    tag_44:\n      pop\n      tag_45\n      tag_46\n      jump\t// in\n    tag_45:\n      mload(0x40)\n      tag_47\n      swap2\n      swap1\n      tag_21\n      jump\t// in\n    tag_47:\n      mload(0x40)\n      dup1\n      swap2\n      sub\n      swap1\n      return\n        /* \"contracts/4_Product.sol\":4500:4917  function burn(address _account, uint256 _amount) public OnlyTokenOwner {\r... */\n    tag_8:\n      callvalue\n      dup1\n      iszero\n      tag_48\n      jumpi\n      0x00\n      dup1\n      revert\n    tag_48:\n      pop\n      tag_49\n      0x04\n      dup1\n      calldatasize\n      sub\n      dup2\n      add\n      swap1\n      tag_50\n      swap2\n      swap1\n      tag_40\n      jump\t// in\n    tag_50:\n      tag_51\n      jump\t// in\n    tag_49:\n      stop\n        /* \"contracts/4_Product.sol\":4121:4343  function mint(uint256 _amount) public OnlyTokenOwner {\r... */\n    tag_9:\n      callvalue\n      dup1\n      iszero\n      tag_52\n      jumpi\n      0x00\n      dup1\n      revert\n    tag_52:\n      pop\n      tag_53\n      0x04\n      dup1\n      calldatasize\n      sub\n      dup2\n      add\n      swap1\n      tag_54\n      swap2\n      swap1\n      tag_55\n      jump\t// in\n    tag_54:\n      tag_56\n      jump\t// in\n    tag_53:\n      stop\n        /* \"contracts/4_Product.sol\":165:199  address payable public  tokenOwner */\n    tag_10:\n      callvalue\n      dup1\n      iszero\n      tag_57\n      jumpi\n      0x00\n      dup1\n      revert\n    tag_57:\n      pop\n      tag_58\n      tag_59\n      jump\t// in\n    tag_58:\n      mload(0x40)\n      tag_60\n      swap2\n      swap1\n      tag_61\n      jump\t// in\n    tag_60:\n      mload(0x40)\n      dup1\n      swap2\n      sub\n      swap1\n      return\n        /* \"contracts/4_Product.sol\":4975:5472  function buyToken() public payable {\r... */\n    tag_11:\n      tag_62\n      tag_63\n      jump\t// in\n    tag_62:\n      stop\n        /* \"contracts/4_Product.sol\":9641:9817  function getActorInfo(address _addr) public view returns\r... */\n    tag_12:\n      callvalue\n      dup1\n      iszero\n      tag_64\n      jumpi\n      0x00\n      dup1\n      revert\n    tag_64:\n      pop\n      tag_65\n      0x04\n      dup1\n      calldatasize\n      sub\n      dup2\n      add\n      swap1\n      tag_66\n      swap2\n      swap1\n      tag_67\n      jump\t// in\n    tag_66:\n      tag_68\n      jump\t// in\n    tag_65:\n      mload(0x40)\n      tag_69\n      swap3\n      swap2\n      swap1\n      tag_70\n      jump\t// in\n    tag_69:\n      mload(0x40)\n      dup1\n      swap2\n      sub\n      swap1\n      return\n        /* \"contracts/4_Product.sol\":3899:4005  function etherBalance(address _addr) public view returns (uint256) {\r... */\n    tag_13:\n      callvalue\n      dup1\n      iszero\n      tag_71\n      jumpi\n      0x00\n      dup1\n      revert\n    tag_71:\n      pop\n      tag_72\n      0x04\n      dup1\n      calldatasize\n      sub\n      dup2\n      add\n      swap1\n      tag_73\n      swap2\n      swap1\n      tag_67\n      jump\t// in\n    tag_73:\n      tag_74\n      jump\t// in\n    tag_72:\n      mload(0x40)\n      tag_75\n      swap2\n      swap1\n      tag_76\n      jump\t// in\n    tag_75:\n      mload(0x40)\n      dup1\n      swap2\n      sub\n      swap1\n      return\n        /* \"contracts/4_Product.sol\":3725:3833  function tokenBalance(address _addr) public view returns (uint256) {\r... */\n    tag_14:\n      callvalue\n      dup1\n      iszero\n      tag_77\n      jumpi\n      0x00\n      dup1\n      revert\n    tag_77:\n      pop\n      tag_78\n      0x04\n      dup1\n      calldatasize\n      sub\n      dup2\n      add\n      swap1\n      tag_79\n      swap2\n      swap1\n      tag_67\n      jump\t// in\n    tag_79:\n      tag_80\n      jump\t// in\n    tag_78:\n      mload(0x40)\n      tag_81\n      swap2\n      swap1\n      tag_76\n      jump\t// in\n    tag_81:\n      mload(0x40)\n      dup1\n      swap2\n      sub\n      swap1\n      return\n        /* \"contracts/4_Product.sol\":67:85  string public name */\n    tag_19:\n      0x00\n      dup1\n      sload\n      tag_82\n      swap1\n      tag_83\n      jump\t// in\n    tag_82:\n      dup1\n      0x1f\n      add\n      0x20\n      dup1\n      swap2\n      div\n      mul\n      0x20\n      add\n      mload(0x40)\n      swap1\n      dup2\n      add\n      0x40\n      mstore\n      dup1\n      swap3\n      swap2\n      swap1\n      dup2\n      dup2\n      mstore\n      0x20\n      add\n      dup3\n      dup1\n      sload\n      tag_84\n      swap1\n      tag_83\n      jump\t// in\n    tag_84:\n      dup1\n      iszero\n      tag_85\n      jumpi\n      dup1\n      0x1f\n      lt\n      tag_86\n      jumpi\n      0x0100\n      dup1\n      dup4\n      sload\n      div\n      mul\n      dup4\n      mstore\n      swap2\n      0x20\n      add\n      swap2\n      jump(tag_85)\n    tag_86:\n      dup3\n      add\n      swap2\n      swap1\n      0x00\n      mstore\n      keccak256(0x00, 0x20)\n      swap1\n    tag_87:\n      dup2\n      sload\n      dup2\n      mstore\n      swap1\n      0x01\n      add\n      swap1\n      0x20\n      add\n      dup1\n      dup4\n      gt\n      tag_87\n      jumpi\n      dup3\n      swap1\n      sub\n      0x1f\n      and\n      dup3\n      add\n      swap2\n    tag_85:\n      pop\n      pop\n      pop\n      pop\n      pop\n      dup2\n      jump\t// out\n        /* \"contracts/4_Product.sol\":5914:6173  function register(address _addr, Role _role, string memory _name) public {\r... */\n    tag_26:\n        /* \"contracts/4_Product.sol\":5998:6016  Actor memory actor */\n      0x00\n        /* \"contracts/4_Product.sol\":6019:6025  actors */\n      0x05\n        /* \"contracts/4_Product.sol\":6019:6032  actors[_addr] */\n      0x00\n        /* \"contracts/4_Product.sol\":6026:6031  _addr */\n      dup6\n        /* \"contracts/4_Product.sol\":6019:6032  actors[_addr] */\n      0xffffffffffffffffffffffffffffffffffffffff\n      and\n      0xffffffffffffffffffffffffffffffffffffffff\n      and\n      dup2\n      mstore\n      0x20\n      add\n      swap1\n      dup2\n      mstore\n      0x20\n      add\n      0x00\n      keccak256\n        /* \"contracts/4_Product.sol\":5998:6032  Actor memory actor = actors[_addr] */\n      mload(0x40)\n      dup1\n      0x60\n      add\n      0x40\n      mstore\n      swap1\n      dup2\n      0x00\n      dup3\n      add\n      0x00\n      swap1\n      sload\n      swap1\n      0x0100\n      exp\n      swap1\n      div\n      0xff\n      and\n      0x04\n      dup2\n      gt\n      iszero\n      tag_89\n      jumpi\n      tag_90\n      tag_91\n      jump\t// in\n    tag_90:\n    tag_89:\n      0x04\n      dup2\n      gt\n      iszero\n      tag_92\n      jumpi\n      tag_93\n      tag_91\n      jump\t// in\n    tag_93:\n    tag_92:\n      dup2\n      mstore\n      0x20\n      add\n      0x01\n      dup3\n      add\n      dup1\n      sload\n      tag_94\n      swap1\n      tag_83\n      jump\t// in\n    tag_94:\n      dup1\n      0x1f\n      add\n      0x20\n      dup1\n      swap2\n      div\n      mul\n      0x20\n      add\n      mload(0x40)\n      swap1\n      dup2\n      add\n      0x40\n      mstore\n      dup1\n      swap3\n      swap2\n      swap1\n      dup2\n      dup2\n      mstore\n      0x20\n      add\n      dup3\n      dup1\n      sload\n      tag_95\n      swap1\n      tag_83\n      jump\t// in\n    tag_95:\n      dup1\n      iszero\n      tag_96\n      jumpi\n      dup1\n      0x1f\n      lt\n      tag_97\n      jumpi\n      0x0100\n      dup1\n      dup4\n      sload\n      div\n      mul\n      dup4\n      mstore\n      swap2\n      0x20\n      add\n      swap2\n      jump(tag_96)\n    tag_97:\n      dup3\n      add\n      swap2\n      swap1\n      0x00\n      mstore\n      keccak256(0x00, 0x20)\n      swap1\n    tag_98:\n      dup2\n      sload\n      dup2\n      mstore\n      swap1\n      0x01\n      add\n      swap1\n      0x20\n      add\n      dup1\n      dup4\n      gt\n      tag_98\n      jumpi\n      dup3\n      swap1\n      sub\n      0x1f\n      and\n      dup3\n      add\n      swap2\n    tag_96:\n      pop\n      pop\n      pop\n      pop\n      pop\n      dup2\n      mstore\n      0x20\n      add\n      0x02\n      dup3\n      add\n      0x00\n      swap1\n      sload\n      swap1\n      0x0100\n      exp\n      swap1\n      div\n      0xff\n      and\n      iszero\n      iszero\n      iszero\n      iszero\n      dup2\n      mstore\n      pop\n      pop\n      swap1\n      pop\n        /* \"contracts/4_Product.sol\":6056:6061  _role */\n      dup3\n        /* \"contracts/4_Product.sol\":6043:6048  actor */\n      dup2\n        /* \"contracts/4_Product.sol\":6043:6053  actor.role */\n      0x00\n      add\n        /* \"contracts/4_Product.sol\":6043:6061  actor.role = _role */\n      swap1\n      0x04\n      dup2\n      gt\n      iszero\n      tag_99\n      jumpi\n      tag_100\n      tag_91\n      jump\t// in\n    tag_100:\n    tag_99:\n      swap1\n      dup2\n      0x04\n      dup2\n      gt\n      iszero\n      tag_101\n      jumpi\n      tag_102\n      tag_91\n      jump\t// in\n    tag_102:\n    tag_101:\n      dup2\n      mstore\n      pop\n      pop\n        /* \"contracts/4_Product.sol\":6085:6090  _name */\n      dup2\n        /* \"contracts/4_Product.sol\":6072:6077  actor */\n      dup2\n        /* \"contracts/4_Product.sol\":6072:6082  actor.name */\n      0x20\n      add\n        /* \"contracts/4_Product.sol\":6072:6090  actor.name = _name */\n      dup2\n      swap1\n      mstore\n      pop\n        /* \"contracts/4_Product.sol\":6119:6123  true */\n      0x01\n        /* \"contracts/4_Product.sol\":6101:6106  actor */\n      dup2\n        /* \"contracts/4_Product.sol\":6101:6116  actor.isDefined */\n      0x40\n      add\n        /* \"contracts/4_Product.sol\":6101:6123  actor.isDefined = true */\n      swap1\n      iszero\n      iszero\n      swap1\n      dup2\n      iszero\n      iszero\n      dup2\n      mstore\n      pop\n      pop\n        /* \"contracts/4_Product.sol\":6150:6155  actor */\n      dup1\n        /* \"contracts/4_Product.sol\":6134:6140  actors */\n      0x05\n        /* \"contracts/4_Product.sol\":6134:6147  actors[_addr] */\n      0x00\n        /* \"contracts/4_Product.sol\":6141:6146  _addr */\n      dup7\n        /* \"contracts/4_Product.sol\":6134:6147  actors[_addr] */\n      0xffffffffffffffffffffffffffffffffffffffff\n      and\n      0xffffffffffffffffffffffffffffffffffffffff\n      and\n      dup2\n      mstore\n      0x20\n      add\n      swap1\n      dup2\n      mstore\n      0x20\n      add\n      0x00\n      keccak256\n        /* \"contracts/4_Product.sol\":6134:6155  actors[_addr] = actor */\n      0x00\n      dup3\n      add\n      mload\n      dup2\n      0x00\n      add\n      exp(0x0100, 0x00)\n      dup2\n      sload\n      dup2\n      0xff\n      mul\n      not\n      and\n      swap1\n      dup4\n      0x04\n      dup2\n      gt\n      iszero\n      tag_103\n      jumpi\n      tag_104\n      tag_91\n      jump\t// in\n    tag_104:\n    tag_103:\n      mul\n      or\n      swap1\n      sstore\n      pop\n      0x20\n      dup3\n      add\n      mload\n      dup2\n      0x01\n      add\n      swap1\n      dup1\n      mload\n      swap1\n      0x20\n      add\n      swap1\n      tag_105\n      swap3\n      swap2\n      swap1\n      tag_106\n      jump\t// in\n    tag_105:\n      pop\n      0x40\n      dup3\n      add\n      mload\n      dup2\n      0x02\n      add\n      exp(0x0100, 0x00)\n      dup2\n      sload\n      dup2\n      0xff\n      mul\n      not\n      and\n      swap1\n      dup4\n      iszero\n      iszero\n      mul\n      or\n      swap1\n      sstore\n      pop\n      swap1\n      pop\n      pop\n        /* \"contracts/4_Product.sol\":5987:6173  {\r... */\n      pop\n        /* \"contracts/4_Product.sol\":5914:6173  function register(address _addr, Role _role, string memory _name) public {\r... */\n      pop\n      pop\n      pop\n      jump\t// out\n        /* \"contracts/4_Product.sol\":7363:8067  function buyProduct(uint256 _id, uint256 _timestamp, string memory _lat, string memory _log, int256 _temp) public OnlyDistributor{\r... */\n    tag_31:\n        /* \"contracts/4_Product.sol\":3015:3031  Role.Distributor */\n      0x01\n        /* \"contracts/4_Product.sol\":2988:3031  actors[msg.sender].role == Role.Distributor */\n      0x04\n      dup2\n      gt\n      iszero\n      tag_108\n      jumpi\n      tag_109\n      tag_91\n      jump\t// in\n    tag_109:\n    tag_108:\n        /* \"contracts/4_Product.sol\":2988:2994  actors */\n      0x05\n        /* \"contracts/4_Product.sol\":2988:3006  actors[msg.sender] */\n      0x00\n        /* \"contracts/4_Product.sol\":2995:3005  msg.sender */\n      caller\n        /* \"contracts/4_Product.sol\":2988:3006  actors[msg.sender] */\n      0xffffffffffffffffffffffffffffffffffffffff\n      and\n      0xffffffffffffffffffffffffffffffffffffffff\n      and\n      dup2\n      mstore\n      0x20\n      add\n      swap1\n      dup2\n      mstore\n      0x20\n      add\n      0x00\n      keccak256\n        /* \"contracts/4_Product.sol\":2988:3011  actors[msg.sender].role */\n      0x00\n      add\n      0x00\n      swap1\n      sload\n      swap1\n      0x0100\n      exp\n      swap1\n      div\n      0xff\n      and\n        /* \"contracts/4_Product.sol\":2988:3031  actors[msg.sender].role == Role.Distributor */\n      0x04\n      dup2\n      gt\n      iszero\n      tag_110\n      jumpi\n      tag_111\n      tag_91\n      jump\t// in\n    tag_111:\n    tag_110:\n      eq\n        /* \"contracts/4_Product.sol\":2980:3064  require(actors[msg.sender].role == Role.Distributor, 'caller is not a distributor.') */\n      tag_112\n      jumpi\n      mload(0x40)\n      0x08c379a000000000000000000000000000000000000000000000000000000000\n      dup2\n      mstore\n      0x04\n      add\n      tag_113\n      swap1\n      tag_114\n      jump\t// in\n    tag_113:\n      mload(0x40)\n      dup1\n      swap2\n      sub\n      swap1\n      revert\n    tag_112:\n        /* \"contracts/4_Product.sol\":7503:7532  Product storage boughtProduct */\n      0x00\n        /* \"contracts/4_Product.sol\":7535:7542  product */\n      0x06\n        /* \"contracts/4_Product.sol\":7535:7547  product[_id] */\n      0x00\n        /* \"contracts/4_Product.sol\":7543:7546  _id */\n      dup8\n        /* \"contracts/4_Product.sol\":7535:7547  product[_id] */\n      dup2\n      mstore\n      0x20\n      add\n      swap1\n      dup2\n      mstore\n      0x20\n      add\n      0x00\n      keccak256\n        /* \"contracts/4_Product.sol\":7503:7547  Product storage boughtProduct = product[_id] */\n      swap1\n      pop\n        /* \"contracts/4_Product.sol\":7558:7577  uint256 tokenNumber */\n      0x00\n        /* \"contracts/4_Product.sol\":7580:7588  balances */\n      0x04\n        /* \"contracts/4_Product.sol\":7580:7600  balances[msg.sender] */\n      0x00\n        /* \"contracts/4_Product.sol\":7589:7599  msg.sender */\n      caller\n        /* \"contracts/4_Product.sol\":7580:7600  balances[msg.sender] */\n      0xffffffffffffffffffffffffffffffffffffffff\n      and\n      0xffffffffffffffffffffffffffffffffffffffff\n      and\n      dup2\n      mstore\n      0x20\n      add\n      swap1\n      dup2\n      mstore\n      0x20\n      add\n      0x00\n      keccak256\n      sload\n        /* \"contracts/4_Product.sol\":7558:7600  uint256 tokenNumber = balances[msg.sender] */\n      swap1\n      pop\n        /* \"contracts/4_Product.sol\":7634:7647  boughtProduct */\n      dup2\n        /* \"contracts/4_Product.sol\":7634:7660  boughtProduct.productPrice */\n      0x08\n      add\n      sload\n        /* \"contracts/4_Product.sol\":7619:7630  tokenNumber */\n      dup2\n        /* \"contracts/4_Product.sol\":7619:7660  tokenNumber >= boughtProduct.productPrice */\n      lt\n      iszero\n        /* \"contracts/4_Product.sol\":7611:7661  require(tokenNumber >= boughtProduct.productPrice) */\n      tag_116\n      jumpi\n      0x00\n      dup1\n      revert\n    tag_116:\n        /* \"contracts/4_Product.sol\":7710:7724  State.Produced */\n      0x00\n        /* \"contracts/4_Product.sol\":7680:7724  boughtProduct.productState == State.Produced */\n      0x05\n      dup2\n      gt\n      iszero\n      tag_117\n      jumpi\n      tag_118\n      tag_91\n      jump\t// in\n    tag_118:\n    tag_117:\n        /* \"contracts/4_Product.sol\":7680:7693  boughtProduct */\n      dup3\n        /* \"contracts/4_Product.sol\":7680:7706  boughtProduct.productState */\n      0x07\n      add\n      0x00\n      swap1\n      sload\n      swap1\n      0x0100\n      exp\n      swap1\n      div\n      0xff\n      and\n        /* \"contracts/4_Product.sol\":7680:7724  boughtProduct.productState == State.Produced */\n      0x05\n      dup2\n      gt\n      iszero\n      tag_119\n      jumpi\n      tag_120\n      tag_91\n      jump\t// in\n    tag_120:\n    tag_119:\n      eq\n        /* \"contracts/4_Product.sol\":7672:7725  require(boughtProduct.productState == State.Produced) */\n      tag_121\n      jumpi\n      0x00\n      dup1\n      revert\n    tag_121:\n        /* \"contracts/4_Product.sol\":7774:7784  _timestamp */\n      dup6\n        /* \"contracts/4_Product.sol\":7746:7753  product */\n      0x06\n        /* \"contracts/4_Product.sol\":7746:7758  product[_id] */\n      0x00\n        /* \"contracts/4_Product.sol\":7754:7757  _id */\n      dup10\n        /* \"contracts/4_Product.sol\":7746:7758  product[_id] */\n      dup2\n      mstore\n      0x20\n      add\n      swap1\n      dup2\n      mstore\n      0x20\n      add\n      0x00\n      keccak256\n        /* \"contracts/4_Product.sol\":7746:7768  product[_id].timestamp */\n      0x03\n      add\n        /* \"contracts/4_Product.sol\":7769:7770  1 */\n      0x01\n        /* \"contracts/4_Product.sol\":7746:7771  product[_id].timestamp[1] */\n      0x04\n      dup2\n      lt\n      tag_122\n      jumpi\n      tag_123\n      tag_124\n      jump\t// in\n    tag_123:\n    tag_122:\n      add\n        /* \"contracts/4_Product.sol\":7746:7784  product[_id].timestamp[1] = _timestamp */\n      dup2\n      swap1\n      sstore\n      pop\n        /* \"contracts/4_Product.sol\":7861:7871  msg.sender */\n      caller\n        /* \"contracts/4_Product.sol\":7832:7839  product */\n      0x06\n        /* \"contracts/4_Product.sol\":7832:7844  product[_id] */\n      0x00\n        /* \"contracts/4_Product.sol\":7840:7843  _id */\n      dup10\n        /* \"contracts/4_Product.sol\":7832:7844  product[_id] */\n      dup2\n      mstore\n      0x20\n      add\n      swap1\n      dup2\n      mstore\n      0x20\n      add\n      0x00\n      keccak256\n        /* \"contracts/4_Product.sol\":7832:7858  product[_id].distributorID */\n      0x09\n      add\n      0x00\n        /* \"contracts/4_Product.sol\":7832:7871  product[_id].distributorID = msg.sender */\n      0x0100\n      exp\n      dup2\n      sload\n      dup2\n      0xffffffffffffffffffffffffffffffffffffffff\n      mul\n      not\n      and\n      swap1\n      dup4\n      0xffffffffffffffffffffffffffffffffffffffff\n      and\n      mul\n      or\n      swap1\n      sstore\n      pop\n        /* \"contracts/4_Product.sol\":7887:7949  tokenTransfer(product[_id].ownerID,boughtProduct.productPrice) */\n      tag_126\n        /* \"contracts/4_Product.sol\":7901:7908  product */\n      0x06\n        /* \"contracts/4_Product.sol\":7901:7913  product[_id] */\n      0x00\n        /* \"contracts/4_Product.sol\":7909:7912  _id */\n      dup10\n        /* \"contracts/4_Product.sol\":7901:7913  product[_id] */\n      dup2\n      mstore\n      0x20\n      add\n      swap1\n      dup2\n      mstore\n      0x20\n      add\n      0x00\n      keccak256\n        /* \"contracts/4_Product.sol\":7901:7921  product[_id].ownerID */\n      0x01\n      add\n      0x00\n      swap1\n      sload\n      swap1\n      0x0100\n      exp\n      swap1\n      div\n      0xffffffffffffffffffffffffffffffffffffffff\n      and\n        /* \"contracts/4_Product.sol\":7922:7935  boughtProduct */\n      dup4\n        /* \"contracts/4_Product.sol\":7922:7948  boughtProduct.productPrice */\n      0x08\n      add\n      sload\n        /* \"contracts/4_Product.sol\":7887:7900  tokenTransfer */\n      tag_41\n        /* \"contracts/4_Product.sol\":7887:7949  tokenTransfer(product[_id].ownerID,boughtProduct.productPrice) */\n      jump\t// in\n    tag_126:\n      pop\n        /* \"contracts/4_Product.sol\":7989:8004  State.Purchased */\n      0x05\n        /* \"contracts/4_Product.sol\":7961:7968  product */\n      0x06\n        /* \"contracts/4_Product.sol\":7961:7973  product[_id] */\n      0x00\n        /* \"contracts/4_Product.sol\":7969:7972  _id */\n      dup10\n        /* \"contracts/4_Product.sol\":7961:7973  product[_id] */\n      dup2\n      mstore\n      0x20\n      add\n      swap1\n      dup2\n      mstore\n      0x20\n      add\n      0x00\n      keccak256\n        /* \"contracts/4_Product.sol\":7961:7986  product[_id].productState */\n      0x07\n      add\n      0x00\n        /* \"contracts/4_Product.sol\":7961:8004  product[_id].productState = State.Purchased */\n      0x0100\n      exp\n      dup2\n      sload\n      dup2\n      0xff\n      mul\n      not\n      and\n      swap1\n      dup4\n      0x05\n      dup2\n      gt\n      iszero\n      tag_127\n      jumpi\n      tag_128\n      tag_91\n      jump\t// in\n    tag_128:\n    tag_127:\n      mul\n      or\n      swap1\n      sstore\n      pop\n        /* \"contracts/4_Product.sol\":8039:8049  msg.sender */\n      caller\n        /* \"contracts/4_Product.sol\":8016:8023  product */\n      0x06\n        /* \"contracts/4_Product.sol\":8016:8028  product[_id] */\n      0x00\n        /* \"contracts/4_Product.sol\":8024:8027  _id */\n      dup10\n        /* \"contracts/4_Product.sol\":8016:8028  product[_id] */\n      dup2\n      mstore\n      0x20\n      add\n      swap1\n      dup2\n      mstore\n      0x20\n      add\n      0x00\n      keccak256\n        /* \"contracts/4_Product.sol\":8016:8036  product[_id].ownerID */\n      0x01\n      add\n      0x00\n        /* \"contracts/4_Product.sol\":8016:8049  product[_id].ownerID = msg.sender */\n      0x0100\n      exp\n      dup2\n      sload\n      dup2\n      0xffffffffffffffffffffffffffffffffffffffff\n      mul\n      not\n      and\n      swap1\n      dup4\n      0xffffffffffffffffffffffffffffffffffffffff\n      and\n      mul\n      or\n      swap1\n      sstore\n      pop\n        /* \"contracts/4_Product.sol\":7492:8067  {\r... */\n      pop\n      pop\n        /* \"contracts/4_Product.sol\":7363:8067  function buyProduct(uint256 _id, uint256 _timestamp, string memory _lat, string memory _log, int256 _temp) public OnlyDistributor{\r... */\n      pop\n      pop\n      pop\n      pop\n      pop\n      jump\t// out\n        /* \"contracts/4_Product.sol\":6292:7316  function produceProduct(uint256 _id, uint256 _timestamp, uint256 _price, string memory _name, string memory _brand, string memory _size, string memory _weight, string memory _length ,string memory _width ,string memory _height) public OnlyProducer{\r... */\n    tag_36:\n        /* \"contracts/4_Product.sol\":2867:2880  Role.Producer */\n      0x00\n        /* \"contracts/4_Product.sol\":2840:2880  actors[msg.sender].role == Role.Producer */\n      0x04\n      dup2\n      gt\n      iszero\n      tag_130\n      jumpi\n      tag_131\n      tag_91\n      jump\t// in\n    tag_131:\n    tag_130:\n        /* \"contracts/4_Product.sol\":2840:2846  actors */\n      0x05\n        /* \"contracts/4_Product.sol\":2840:2858  actors[msg.sender] */\n      0x00\n        /* \"contracts/4_Product.sol\":2847:2857  msg.sender */\n      caller\n        /* \"contracts/4_Product.sol\":2840:2858  actors[msg.sender] */\n      0xffffffffffffffffffffffffffffffffffffffff\n      and\n      0xffffffffffffffffffffffffffffffffffffffff\n      and\n      dup2\n      mstore\n      0x20\n      add\n      swap1\n      dup2\n      mstore\n      0x20\n      add\n      0x00\n      keccak256\n        /* \"contracts/4_Product.sol\":2840:2863  actors[msg.sender].role */\n      0x00\n      add\n      0x00\n      swap1\n      sload\n      swap1\n      0x0100\n      exp\n      swap1\n      div\n      0xff\n      and\n        /* \"contracts/4_Product.sol\":2840:2880  actors[msg.sender].role == Role.Producer */\n      0x04\n      dup2\n      gt\n      iszero\n      tag_132\n      jumpi\n      tag_133\n      tag_91\n      jump\t// in\n    tag_133:\n    tag_132:\n      eq\n        /* \"contracts/4_Product.sol\":2832:2909  require(actors[msg.sender].role == Role.Producer,'caller is not a producer.') */\n      tag_134\n      jumpi\n      mload(0x40)\n      0x08c379a000000000000000000000000000000000000000000000000000000000\n      dup2\n      mstore\n      0x04\n      add\n      tag_135\n      swap1\n      tag_136\n      jump\t// in\n    tag_135:\n      mload(0x40)\n      dup1\n      swap2\n      sub\n      swap1\n      revert\n    tag_134:\n        /* \"contracts/4_Product.sol\":6550:6576  Product storage newProduct */\n      0x00\n        /* \"contracts/4_Product.sol\":6579:6586  product */\n      0x06\n        /* \"contracts/4_Product.sol\":6579:6591  product[_id] */\n      0x00\n        /* \"contracts/4_Product.sol\":6587:6590  _id */\n      dup13\n        /* \"contracts/4_Product.sol\":6579:6591  product[_id] */\n      dup2\n      mstore\n      0x20\n      add\n      swap1\n      dup2\n      mstore\n      0x20\n      add\n      0x00\n      keccak256\n        /* \"contracts/4_Product.sol\":6550:6591  Product storage newProduct = product[_id] */\n      swap1\n      pop\n        /* \"contracts/4_Product.sol\":6618:6621  _id */\n      dup11\n        /* \"contracts/4_Product.sol\":6602:6612  newProduct */\n      dup2\n        /* \"contracts/4_Product.sol\":6602:6615  newProduct.ID */\n      0x00\n      add\n        /* \"contracts/4_Product.sol\":6602:6621  newProduct.ID = _id */\n      dup2\n      swap1\n      sstore\n      pop\n        /* \"contracts/4_Product.sol\":6653:6663  msg.sender */\n      caller\n        /* \"contracts/4_Product.sol\":6632:6642  newProduct */\n      dup2\n        /* \"contracts/4_Product.sol\":6632:6650  newProduct.ownerID */\n      0x01\n      add\n      0x00\n        /* \"contracts/4_Product.sol\":6632:6663  newProduct.ownerID = msg.sender */\n      0x0100\n      exp\n      dup2\n      sload\n      dup2\n      0xffffffffffffffffffffffffffffffffffffffff\n      mul\n      not\n      and\n      swap1\n      dup4\n      0xffffffffffffffffffffffffffffffffffffffff\n      and\n      mul\n      or\n      swap1\n      sstore\n      pop\n        /* \"contracts/4_Product.sol\":6698:6708  msg.sender */\n      caller\n        /* \"contracts/4_Product.sol\":6674:6684  newProduct */\n      dup2\n        /* \"contracts/4_Product.sol\":6674:6695  newProduct.producerID */\n      0x02\n      add\n      0x00\n        /* \"contracts/4_Product.sol\":6674:6708  newProduct.producerID = msg.sender */\n      0x0100\n      exp\n      dup2\n      sload\n      dup2\n      0xffffffffffffffffffffffffffffffffffffffff\n      mul\n      not\n      and\n      swap1\n      dup4\n      0xffffffffffffffffffffffffffffffffffffffff\n      and\n      mul\n      or\n      swap1\n      sstore\n      pop\n        /* \"contracts/4_Product.sol\":6745:6755  _timestamp */\n      dup10\n        /* \"contracts/4_Product.sol\":6719:6729  newProduct */\n      dup2\n        /* \"contracts/4_Product.sol\":6719:6739  newProduct.timestamp */\n      0x03\n      add\n        /* \"contracts/4_Product.sol\":6740:6741  0 */\n      0x00\n        /* \"contracts/4_Product.sol\":6719:6742  newProduct.timestamp[0] */\n      0x04\n      dup2\n      lt\n      tag_138\n      jumpi\n      tag_139\n      tag_124\n      jump\t// in\n    tag_139:\n    tag_138:\n      add\n        /* \"contracts/4_Product.sol\":6719:6755  newProduct.timestamp[0] = _timestamp */\n      dup2\n      swap1\n      sstore\n      pop\n        /* \"contracts/4_Product.sol\":6799:6813  State.Produced */\n      0x00\n        /* \"contracts/4_Product.sol\":6774:6784  newProduct */\n      dup2\n        /* \"contracts/4_Product.sol\":6774:6797  newProduct.productState */\n      0x07\n      add\n      0x00\n        /* \"contracts/4_Product.sol\":6774:6813  newProduct.productState= State.Produced */\n      0x0100\n      exp\n      dup2\n      sload\n      dup2\n      0xff\n      mul\n      not\n      and\n      swap1\n      dup4\n      0x05\n      dup2\n      gt\n      iszero\n      tag_141\n      jumpi\n      tag_142\n      tag_91\n      jump\t// in\n    tag_142:\n    tag_141:\n      mul\n      or\n      swap1\n      sstore\n      pop\n        /* \"contracts/4_Product.sol\":6856:6862  _price */\n      dup9\n        /* \"contracts/4_Product.sol\":6832:6842  newProduct */\n      dup2\n        /* \"contracts/4_Product.sol\":6832:6855  newProduct.productPrice */\n      0x08\n      add\n        /* \"contracts/4_Product.sol\":6832:6862  newProduct.productPrice=_price */\n      dup2\n      swap1\n      sstore\n      pop\n        /* \"contracts/4_Product.sol\":6907:6908  0 */\n      0x00\n        /* \"contracts/4_Product.sol\":6874:6884  newProduct */\n      dup2\n        /* \"contracts/4_Product.sol\":6874:6898  newProduct.distributorID */\n      0x09\n      add\n      0x00\n        /* \"contracts/4_Product.sol\":6874:6909  newProduct.distributorID=address(0) */\n      0x0100\n      exp\n      dup2\n      sload\n      dup2\n      0xffffffffffffffffffffffffffffffffffffffff\n      mul\n      not\n      and\n      swap1\n      dup4\n      0xffffffffffffffffffffffffffffffffffffffff\n      and\n      mul\n      or\n      swap1\n      sstore\n      pop\n        /* \"contracts/4_Product.sol\":6950:6951  0 */\n      0x00\n        /* \"contracts/4_Product.sol\":6920:6930  newProduct */\n      dup2\n        /* \"contracts/4_Product.sol\":6920:6941  newProduct.retailerID */\n      0x0a\n      add\n      0x00\n        /* \"contracts/4_Product.sol\":6920:6952  newProduct.retailerID=address(0) */\n      0x0100\n      exp\n      dup2\n      sload\n      dup2\n      0xffffffffffffffffffffffffffffffffffffffff\n      mul\n      not\n      and\n      swap1\n      dup4\n      0xffffffffffffffffffffffffffffffffffffffff\n      and\n      mul\n      or\n      swap1\n      sstore\n      pop\n        /* \"contracts/4_Product.sol\":6993:6994  0 */\n      0x00\n        /* \"contracts/4_Product.sol\":6963:6973  newProduct */\n      dup2\n        /* \"contracts/4_Product.sol\":6963:6984  newProduct.consumerID */\n      0x0b\n      add\n      0x00\n        /* \"contracts/4_Product.sol\":6963:6995  newProduct.consumerID=address(0) */\n      0x0100\n      exp\n      dup2\n      sload\n      dup2\n      0xffffffffffffffffffffffffffffffffffffffff\n      mul\n      not\n      and\n      swap1\n      dup4\n      0xffffffffffffffffffffffffffffffffffffffff\n      and\n      mul\n      or\n      swap1\n      sstore\n      pop\n        /* \"contracts/4_Product.sol\":7032:7037  _name */\n      dup8\n        /* \"contracts/4_Product.sol\":7006:7016  newProduct */\n      dup2\n        /* \"contracts/4_Product.sol\":7006:7024  newProduct.details */\n      0x0c\n      add\n        /* \"contracts/4_Product.sol\":7006:7029  newProduct.details.name */\n      0x00\n      add\n        /* \"contracts/4_Product.sol\":7006:7037  newProduct.details.name = _name */\n      swap1\n      dup1\n      mload\n      swap1\n      0x20\n      add\n      swap1\n      tag_143\n      swap3\n      swap2\n      swap1\n      tag_106\n      jump\t// in\n    tag_143:\n      pop\n        /* \"contracts/4_Product.sol\":7074:7080  _brand */\n      dup7\n        /* \"contracts/4_Product.sol\":7048:7058  newProduct */\n      dup2\n        /* \"contracts/4_Product.sol\":7048:7066  newProduct.details */\n      0x0c\n      add\n        /* \"contracts/4_Product.sol\":7048:7072  newProduct.details.brand */\n      0x01\n      add\n        /* \"contracts/4_Product.sol\":7048:7080  newProduct.details.brand= _brand */\n      swap1\n      dup1\n      mload\n      swap1\n      0x20\n      add\n      swap1\n      tag_144\n      swap3\n      swap2\n      swap1\n      tag_106\n      jump\t// in\n    tag_144:\n      pop\n        /* \"contracts/4_Product.sol\":7117:7122  _size */\n      dup6\n        /* \"contracts/4_Product.sol\":7091:7101  newProduct */\n      dup2\n        /* \"contracts/4_Product.sol\":7091:7109  newProduct.details */\n      0x0c\n      add\n        /* \"contracts/4_Product.sol\":7091:7114  newProduct.details.size */\n      0x02\n      add\n        /* \"contracts/4_Product.sol\":7091:7122  newProduct.details.size = _size */\n      swap1\n      dup1\n      mload\n      swap1\n      0x20\n      add\n      swap1\n      tag_145\n      swap3\n      swap2\n      swap1\n      tag_106\n      jump\t// in\n    tag_145:\n      pop\n        /* \"contracts/4_Product.sol\":7161:7168  _weight */\n      dup5\n        /* \"contracts/4_Product.sol\":7133:7143  newProduct */\n      dup2\n        /* \"contracts/4_Product.sol\":7133:7151  newProduct.details */\n      0x0c\n      add\n        /* \"contracts/4_Product.sol\":7133:7158  newProduct.details.weight */\n      0x03\n      add\n        /* \"contracts/4_Product.sol\":7133:7168  newProduct.details.weight = _weight */\n      swap1\n      dup1\n      mload\n      swap1\n      0x20\n      add\n      swap1\n      tag_146\n      swap3\n      swap2\n      swap1\n      tag_106\n      jump\t// in\n    tag_146:\n      pop\n        /* \"contracts/4_Product.sol\":7207:7214  _length */\n      dup4\n        /* \"contracts/4_Product.sol\":7179:7189  newProduct */\n      dup2\n        /* \"contracts/4_Product.sol\":7179:7197  newProduct.details */\n      0x0c\n      add\n        /* \"contracts/4_Product.sol\":7179:7204  newProduct.details.length */\n      0x04\n      add\n        /* \"contracts/4_Product.sol\":7179:7214  newProduct.details.length = _length */\n      swap1\n      dup1\n      mload\n      swap1\n      0x20\n      add\n      swap1\n      tag_147\n      swap3\n      swap2\n      swap1\n      tag_106\n      jump\t// in\n    tag_147:\n      pop\n        /* \"contracts/4_Product.sol\":7254:7260  _width */\n      dup3\n        /* \"contracts/4_Product.sol\":7227:7237  newProduct */\n      dup2\n        /* \"contracts/4_Product.sol\":7227:7245  newProduct.details */\n      0x0c\n      add\n        /* \"contracts/4_Product.sol\":7227:7251  newProduct.details.width */\n      0x05\n      add\n        /* \"contracts/4_Product.sol\":7227:7260  newProduct.details.width = _width */\n      swap1\n      dup1\n      mload\n      swap1\n      0x20\n      add\n      swap1\n      tag_148\n      swap3\n      swap2\n      swap1\n      tag_106\n      jump\t// in\n    tag_148:\n      pop\n        /* \"contracts/4_Product.sol\":7301:7308  _height */\n      dup2\n        /* \"contracts/4_Product.sol\":7273:7283  newProduct */\n      dup2\n        /* \"contracts/4_Product.sol\":7273:7291  newProduct.details */\n      0x0c\n      add\n        /* \"contracts/4_Product.sol\":7273:7298  newProduct.details.height */\n      0x06\n      add\n        /* \"contracts/4_Product.sol\":7273:7308  newProduct.details.height = _height */\n      swap1\n      dup1\n      mload\n      swap1\n      0x20\n      add\n      swap1\n      tag_149\n      swap3\n      swap2\n      swap1\n      tag_106\n      jump\t// in\n    tag_149:\n      pop\n        /* \"contracts/4_Product.sol\":6539:7316  {\r... */\n      pop\n        /* \"contracts/4_Product.sol\":6292:7316  function produceProduct(uint256 _id, uint256 _timestamp, uint256 _price, string memory _name, string memory _brand, string memory _size, string memory _weight, string memory _length ,string memory _width ,string memory _height) public OnlyProducer{\r... */\n      pop\n      pop\n      pop\n      pop\n      pop\n      pop\n      pop\n      pop\n      pop\n      pop\n      jump\t// out\n        /* \"contracts/4_Product.sol\":5546:5902  function tokenTransfer(address _to, uint256 _amount) public returns (bool) {\r... */\n    tag_41:\n        /* \"contracts/4_Product.sol\":5615:5619  bool */\n      0x00\n        /* \"contracts/4_Product.sol\":5664:5671  _amount */\n      dup2\n        /* \"contracts/4_Product.sol\":5640:5648  balances */\n      0x04\n        /* \"contracts/4_Product.sol\":5640:5660  balances[msg.sender] */\n      0x00\n        /* \"contracts/4_Product.sol\":5649:5659  msg.sender */\n      caller\n        /* \"contracts/4_Product.sol\":5640:5660  balances[msg.sender] */\n      0xffffffffffffffffffffffffffffffffffffffff\n      and\n      0xffffffffffffffffffffffffffffffffffffffff\n      and\n      dup2\n      mstore\n      0x20\n      add\n      swap1\n      dup2\n      mstore\n      0x20\n      add\n      0x00\n      keccak256\n      sload\n        /* \"contracts/4_Product.sol\":5640:5671  balances[msg.sender] >= _amount */\n      lt\n      iszero\n        /* \"contracts/4_Product.sol\":5632:5672  require(balances[msg.sender] >= _amount) */\n      tag_151\n      jumpi\n      0x00\n      dup1\n      revert\n    tag_151:\n        /* \"contracts/4_Product.sol\":5782:5783  0 */\n      0x00\n        /* \"contracts/4_Product.sol\":5767:5784  _to != address(0) */\n      0xffffffffffffffffffffffffffffffffffffffff\n      and\n        /* \"contracts/4_Product.sol\":5767:5770  _to */\n      dup4\n        /* \"contracts/4_Product.sol\":5767:5784  _to != address(0) */\n      0xffffffffffffffffffffffffffffffffffffffff\n      and\n      eq\n      iszero\n        /* \"contracts/4_Product.sol\":5759:5785  require(_to != address(0)) */\n      tag_152\n      jumpi\n      0x00\n      dup1\n      revert\n    tag_152:\n        /* \"contracts/4_Product.sol\":5830:5837  _amount */\n      dup2\n        /* \"contracts/4_Product.sol\":5806:5814  balances */\n      0x04\n        /* \"contracts/4_Product.sol\":5806:5826  balances[msg.sender] */\n      0x00\n        /* \"contracts/4_Product.sol\":5815:5825  msg.sender */\n      caller\n        /* \"contracts/4_Product.sol\":5806:5826  balances[msg.sender] */\n      0xffffffffffffffffffffffffffffffffffffffff\n      and\n      0xffffffffffffffffffffffffffffffffffffffff\n      and\n      dup2\n      mstore\n      0x20\n      add\n      swap1\n      dup2\n      mstore\n      0x20\n      add\n      0x00\n      keccak256\n      0x00\n        /* \"contracts/4_Product.sol\":5806:5837  balances[msg.sender] -= _amount */\n      dup3\n      dup3\n      sload\n      tag_153\n      swap2\n      swap1\n      tag_154\n      jump\t// in\n    tag_153:\n      swap3\n      pop\n      pop\n      dup2\n      swap1\n      sstore\n      pop\n        /* \"contracts/4_Product.sol\":5865:5872  _amount */\n      dup2\n        /* \"contracts/4_Product.sol\":5848:5856  balances */\n      0x04\n        /* \"contracts/4_Product.sol\":5848:5861  balances[_to] */\n      0x00\n        /* \"contracts/4_Product.sol\":5857:5860  _to */\n      dup6\n        /* \"contracts/4_Product.sol\":5848:5861  balances[_to] */\n      0xffffffffffffffffffffffffffffffffffffffff\n      and\n      0xffffffffffffffffffffffffffffffffffffffff\n      and\n      dup2\n      mstore\n      0x20\n      add\n      swap1\n      dup2\n      mstore\n      0x20\n      add\n      0x00\n      keccak256\n      0x00\n        /* \"contracts/4_Product.sol\":5848:5872  balances[_to] += _amount */\n      dup3\n      dup3\n      sload\n      tag_155\n      swap2\n      swap1\n      tag_156\n      jump\t// in\n    tag_155:\n      swap3\n      pop\n      pop\n      dup2\n      swap1\n      sstore\n      pop\n        /* \"contracts/4_Product.sol\":5890:5894  true */\n      0x01\n        /* \"contracts/4_Product.sol\":5883:5894  return true */\n      swap1\n      pop\n        /* \"contracts/4_Product.sol\":5546:5902  function tokenTransfer(address _to, uint256 _amount) public returns (bool) {\r... */\n      swap3\n      swap2\n      pop\n      pop\n      jump\t// out\n        /* \"contracts/4_Product.sol\":114:134  string public symbol */\n    tag_46:\n      0x01\n      dup1\n      sload\n      tag_157\n      swap1\n      tag_83\n      jump\t// in\n    tag_157:\n      dup1\n      0x1f\n      add\n      0x20\n      dup1\n      swap2\n      div\n      mul\n      0x20\n      add\n      mload(0x40)\n      swap1\n      dup2\n      add\n      0x40\n      mstore\n      dup1\n      swap3\n      swap2\n      swap1\n      dup2\n      dup2\n      mstore\n      0x20\n      add\n      dup3\n      dup1\n      sload\n      tag_158\n      swap1\n      tag_83\n      jump\t// in\n    tag_158:\n      dup1\n      iszero\n      tag_159\n      jumpi\n      dup1\n      0x1f\n      lt\n      tag_160\n      jumpi\n      0x0100\n      dup1\n      dup4\n      sload\n      div\n      mul\n      dup4\n      mstore\n      swap2\n      0x20\n      add\n      swap2\n      jump(tag_159)\n    tag_160:\n      dup3\n      add\n      swap2\n      swap1\n      0x00\n      mstore\n      keccak256(0x00, 0x20)\n      swap1\n    tag_161:\n      dup2\n      sload\n      dup2\n      mstore\n      swap1\n      0x01\n      add\n      swap1\n      0x20\n      add\n      dup1\n      dup4\n      gt\n      tag_161\n      jumpi\n      dup3\n      swap1\n      sub\n      0x1f\n      and\n      dup3\n      add\n      swap2\n    tag_159:\n      pop\n      pop\n      pop\n      pop\n      pop\n      dup2\n      jump\t// out\n        /* \"contracts/4_Product.sol\":4500:4917  function burn(address _account, uint256 _amount) public OnlyTokenOwner {\r... */\n    tag_51:\n        /* \"contracts/4_Product.sol\":2720:2730  tokenOwner */\n      0x02\n      0x00\n      swap1\n      sload\n      swap1\n      0x0100\n      exp\n      swap1\n      div\n      0xffffffffffffffffffffffffffffffffffffffff\n      and\n        /* \"contracts/4_Product.sol\":2706:2730  msg.sender == tokenOwner */\n      0xffffffffffffffffffffffffffffffffffffffff\n      and\n        /* \"contracts/4_Product.sol\":2706:2716  msg.sender */\n      caller\n        /* \"contracts/4_Product.sol\":2706:2730  msg.sender == tokenOwner */\n      0xffffffffffffffffffffffffffffffffffffffff\n      and\n      eq\n        /* \"contracts/4_Product.sol\":2698:2765  require(msg.sender == tokenOwner, 'caller is not the token owner.') */\n      tag_163\n      jumpi\n      mload(0x40)\n      0x08c379a000000000000000000000000000000000000000000000000000000000\n      dup2\n      mstore\n      0x04\n      add\n      tag_164\n      swap1\n      tag_165\n      jump\t// in\n    tag_164:\n      mload(0x40)\n      dup1\n      swap2\n      sub\n      swap1\n      revert\n    tag_163:\n        /* \"contracts/4_Product.sol\":4610:4611  0 */\n      0x00\n        /* \"contracts/4_Product.sol\":4590:4612  _account != address(0) */\n      0xffffffffffffffffffffffffffffffffffffffff\n      and\n        /* \"contracts/4_Product.sol\":4590:4598  _account */\n      dup3\n        /* \"contracts/4_Product.sol\":4590:4612  _account != address(0) */\n      0xffffffffffffffffffffffffffffffffffffffff\n      and\n      eq\n      iszero\n        /* \"contracts/4_Product.sol\":4582:4613  require(_account != address(0)) */\n      tag_167\n      jumpi\n      0x00\n      dup1\n      revert\n    tag_167:\n        /* \"contracts/4_Product.sol\":4738:4746  balances */\n      0x04\n        /* \"contracts/4_Product.sol\":4738:4756  balances[_account] */\n      0x00\n        /* \"contracts/4_Product.sol\":4747:4755  _account */\n      dup4\n        /* \"contracts/4_Product.sol\":4738:4756  balances[_account] */\n      0xffffffffffffffffffffffffffffffffffffffff\n      and\n      0xffffffffffffffffffffffffffffffffffffffff\n      and\n      dup2\n      mstore\n      0x20\n      add\n      swap1\n      dup2\n      mstore\n      0x20\n      add\n      0x00\n      keccak256\n      sload\n        /* \"contracts/4_Product.sol\":4727:4734  _amount */\n      dup2\n        /* \"contracts/4_Product.sol\":4727:4756  _amount <= balances[_account] */\n      gt\n      iszero\n        /* \"contracts/4_Product.sol\":4719:4757  require(_amount <= balances[_account]) */\n      tag_168\n      jumpi\n      0x00\n      dup1\n      revert\n    tag_168:\n        /* \"contracts/4_Product.sol\":4862:4869  _amount */\n      dup1\n        /* \"contracts/4_Product.sol\":4846:4858  _totalSupply */\n      0x03\n      0x00\n        /* \"contracts/4_Product.sol\":4846:4869  _totalSupply -= _amount */\n      dup3\n      dup3\n      sload\n      tag_169\n      swap2\n      swap1\n      tag_154\n      jump\t// in\n    tag_169:\n      swap3\n      pop\n      pop\n      dup2\n      swap1\n      sstore\n      pop\n        /* \"contracts/4_Product.sol\":4902:4909  _amount */\n      dup1\n        /* \"contracts/4_Product.sol\":4880:4888  balances */\n      0x04\n        /* \"contracts/4_Product.sol\":4880:4898  balances[_account] */\n      0x00\n        /* \"contracts/4_Product.sol\":4889:4897  _account */\n      dup5\n        /* \"contracts/4_Product.sol\":4880:4898  balances[_account] */\n      0xffffffffffffffffffffffffffffffffffffffff\n      and\n      0xffffffffffffffffffffffffffffffffffffffff\n      and\n      dup2\n      mstore\n      0x20\n      add\n      swap1\n      dup2\n      mstore\n      0x20\n      add\n      0x00\n      keccak256\n      0x00\n        /* \"contracts/4_Product.sol\":4880:4909  balances[_account] -= _amount */\n      dup3\n      dup3\n      sload\n      tag_170\n      swap2\n      swap1\n      tag_154\n      jump\t// in\n    tag_170:\n      swap3\n      pop\n      pop\n      dup2\n      swap1\n      sstore\n      pop\n        /* \"contracts/4_Product.sol\":4500:4917  function burn(address _account, uint256 _amount) public OnlyTokenOwner {\r... */\n      pop\n      pop\n      jump\t// out\n        /* \"contracts/4_Product.sol\":4121:4343  function mint(uint256 _amount) public OnlyTokenOwner {\r... */\n    tag_56:\n        /* \"contracts/4_Product.sol\":2720:2730  tokenOwner */\n      0x02\n      0x00\n      swap1\n      sload\n      swap1\n      0x0100\n      exp\n      swap1\n      div\n      0xffffffffffffffffffffffffffffffffffffffff\n      and\n        /* \"contracts/4_Product.sol\":2706:2730  msg.sender == tokenOwner */\n      0xffffffffffffffffffffffffffffffffffffffff\n      and\n        /* \"contracts/4_Product.sol\":2706:2716  msg.sender */\n      caller\n        /* \"contracts/4_Product.sol\":2706:2730  msg.sender == tokenOwner */\n      0xffffffffffffffffffffffffffffffffffffffff\n      and\n      eq\n        /* \"contracts/4_Product.sol\":2698:2765  require(msg.sender == tokenOwner, 'caller is not the token owner.') */\n      tag_172\n      jumpi\n      mload(0x40)\n      0x08c379a000000000000000000000000000000000000000000000000000000000\n      dup2\n      mstore\n      0x04\n      add\n      tag_173\n      swap1\n      tag_165\n      jump\t// in\n    tag_173:\n      mload(0x40)\n      dup1\n      swap2\n      sub\n      swap1\n      revert\n    tag_172:\n        /* \"contracts/4_Product.sol\":4201:4208  _amount */\n      dup1\n        /* \"contracts/4_Product.sol\":4185:4197  _totalSupply */\n      0x03\n      0x00\n        /* \"contracts/4_Product.sol\":4185:4208  _totalSupply += _amount */\n      dup3\n      dup3\n      sload\n      tag_175\n      swap2\n      swap1\n      tag_156\n      jump\t// in\n    tag_175:\n      swap3\n      pop\n      pop\n      dup2\n      swap1\n      sstore\n      pop\n        /* \"contracts/4_Product.sol\":4279:4286  _amount */\n      dup1\n        /* \"contracts/4_Product.sol\":4255:4263  balances */\n      0x04\n        /* \"contracts/4_Product.sol\":4255:4275  balances[msg.sender] */\n      0x00\n        /* \"contracts/4_Product.sol\":4264:4274  msg.sender */\n      caller\n        /* \"contracts/4_Product.sol\":4255:4275  balances[msg.sender] */\n      0xffffffffffffffffffffffffffffffffffffffff\n      and\n      0xffffffffffffffffffffffffffffffffffffffff\n      and\n      dup2\n      mstore\n      0x20\n      add\n      swap1\n      dup2\n      mstore\n      0x20\n      add\n      0x00\n      keccak256\n      0x00\n        /* \"contracts/4_Product.sol\":4255:4286  balances[msg.sender] += _amount */\n      dup3\n      dup3\n      sload\n      tag_176\n      swap2\n      swap1\n      tag_156\n      jump\t// in\n    tag_176:\n      swap3\n      pop\n      pop\n      dup2\n      swap1\n      sstore\n      pop\n        /* \"contracts/4_Product.sol\":4121:4343  function mint(uint256 _amount) public OnlyTokenOwner {\r... */\n      pop\n      jump\t// out\n        /* \"contracts/4_Product.sol\":165:199  address payable public  tokenOwner */\n    tag_59:\n      0x02\n      0x00\n      swap1\n      sload\n      swap1\n      0x0100\n      exp\n      swap1\n      div\n      0xffffffffffffffffffffffffffffffffffffffff\n      and\n      dup2\n      jump\t// out\n        /* \"contracts/4_Product.sol\":4975:5472  function buyToken() public payable {\r... */\n    tag_63:\n        /* \"contracts/4_Product.sol\":5020:5036  uint256 tokenNum */\n      0x00\n        /* \"contracts/4_Product.sol\":287:290  100 */\n      0x64\n        /* \"contracts/4_Product.sol\":5039:5048  msg.value */\n      callvalue\n        /* \"contracts/4_Product.sol\":5039:5059  msg.value/tokenPrice */\n      tag_178\n      swap2\n      swap1\n      tag_179\n      jump\t// in\n    tag_178:\n        /* \"contracts/4_Product.sol\":5020:5059  uint256 tokenNum = msg.value/tokenPrice */\n      swap1\n      pop\n        /* \"contracts/4_Product.sol\":5121:5122  0 */\n      0x00\n        /* \"contracts/4_Product.sol\":5109:5118  msg.value */\n      callvalue\n        /* \"contracts/4_Product.sol\":5109:5122  msg.value > 0 */\n      gt\n        /* \"contracts/4_Product.sol\":5101:5123  require(msg.value > 0) */\n      tag_180\n      jumpi\n      0x00\n      dup1\n      revert\n    tag_180:\n        /* \"contracts/4_Product.sol\":5171:5181  tokenOwner */\n      0x02\n      0x00\n      swap1\n      sload\n      swap1\n      0x0100\n      exp\n      swap1\n      div\n      0xffffffffffffffffffffffffffffffffffffffff\n      and\n        /* \"contracts/4_Product.sol\":5171:5190  tokenOwner.transfer */\n      0xffffffffffffffffffffffffffffffffffffffff\n      and\n        /* \"contracts/4_Product.sol\":5171:5201  tokenOwner.transfer(msg.value) */\n      0x08fc\n        /* \"contracts/4_Product.sol\":5191:5200  msg.value */\n      callvalue\n        /* \"contracts/4_Product.sol\":5171:5201  tokenOwner.transfer(msg.value) */\n      swap1\n      dup2\n      iszero\n      mul\n      swap1\n      mload(0x40)\n      0x00\n      mload(0x40)\n      dup1\n      dup4\n      sub\n      dup2\n      dup6\n      dup9\n      dup9\n      call\n      swap4\n      pop\n      pop\n      pop\n      pop\n      iszero\n      dup1\n      iszero\n      tag_182\n      jumpi\n      returndatasize\n      0x00\n      dup1\n      returndatacopy\n      revert(0x00, returndatasize)\n    tag_182:\n      pop\n        /* \"contracts/4_Product.sol\":5301:5309  tokenNum */\n      dup1\n        /* \"contracts/4_Product.sol\":5277:5285  balances */\n      0x04\n        /* \"contracts/4_Product.sol\":5277:5297  balances[tokenOwner] */\n      0x00\n        /* \"contracts/4_Product.sol\":5286:5296  tokenOwner */\n      0x02\n      0x00\n      swap1\n      sload\n      swap1\n      0x0100\n      exp\n      swap1\n      div\n      0xffffffffffffffffffffffffffffffffffffffff\n      and\n        /* \"contracts/4_Product.sol\":5277:5297  balances[tokenOwner] */\n      0xffffffffffffffffffffffffffffffffffffffff\n      and\n      0xffffffffffffffffffffffffffffffffffffffff\n      and\n      dup2\n      mstore\n      0x20\n      add\n      swap1\n      dup2\n      mstore\n      0x20\n      add\n      0x00\n      keccak256\n      0x00\n        /* \"contracts/4_Product.sol\":5277:5309  balances[tokenOwner] -= tokenNum */\n      dup3\n      dup3\n      sload\n      tag_183\n      swap2\n      swap1\n      tag_154\n      jump\t// in\n    tag_183:\n      swap3\n      pop\n      pop\n      dup2\n      swap1\n      sstore\n      pop\n        /* \"contracts/4_Product.sol\":5402:5410  tokenNum */\n      dup1\n        /* \"contracts/4_Product.sol\":5378:5386  balances */\n      0x04\n        /* \"contracts/4_Product.sol\":5378:5398  balances[msg.sender] */\n      0x00\n        /* \"contracts/4_Product.sol\":5387:5397  msg.sender */\n      caller\n        /* \"contracts/4_Product.sol\":5378:5398  balances[msg.sender] */\n      0xffffffffffffffffffffffffffffffffffffffff\n      and\n      0xffffffffffffffffffffffffffffffffffffffff\n      and\n      dup2\n      mstore\n      0x20\n      add\n      swap1\n      dup2\n      mstore\n      0x20\n      add\n      0x00\n      keccak256\n      0x00\n        /* \"contracts/4_Product.sol\":5378:5410  balances[msg.sender] += tokenNum */\n      dup3\n      dup3\n      sload\n      tag_184\n      swap2\n      swap1\n      tag_156\n      jump\t// in\n    tag_184:\n      swap3\n      pop\n      pop\n      dup2\n      swap1\n      sstore\n      pop\n        /* \"contracts/4_Product.sol\":5010:5472  {\r... */\n      pop\n        /* \"contracts/4_Product.sol\":4975:5472  function buyToken() public payable {\r... */\n      jump\t// out\n        /* \"contracts/4_Product.sol\":9641:9817  function getActorInfo(address _addr) public view returns\r... */\n    tag_68:\n        /* \"contracts/4_Product.sol\":9706:9716  Role _role */\n      0x00\n        /* \"contracts/4_Product.sol\":9723:9742  string memory _name */\n      0x60\n        /* \"contracts/4_Product.sol\":9762:9768  actors */\n      0x05\n        /* \"contracts/4_Product.sol\":9762:9775  actors[_addr] */\n      0x00\n        /* \"contracts/4_Product.sol\":9769:9774  _addr */\n      dup5\n        /* \"contracts/4_Product.sol\":9762:9775  actors[_addr] */\n      0xffffffffffffffffffffffffffffffffffffffff\n      and\n      0xffffffffffffffffffffffffffffffffffffffff\n      and\n      dup2\n      mstore\n      0x20\n      add\n      swap1\n      dup2\n      mstore\n      0x20\n      add\n      0x00\n      keccak256\n        /* \"contracts/4_Product.sol\":9762:9780  actors[_addr].role */\n      0x00\n      add\n      0x00\n      swap1\n      sload\n      swap1\n      0x0100\n      exp\n      swap1\n      div\n      0xff\n      and\n        /* \"contracts/4_Product.sol\":9754:9780  _role = actors[_addr].role */\n      swap2\n      pop\n        /* \"contracts/4_Product.sol\":9795:9801  actors */\n      0x05\n        /* \"contracts/4_Product.sol\":9795:9808  actors[_addr] */\n      0x00\n        /* \"contracts/4_Product.sol\":9802:9807  _addr */\n      dup5\n        /* \"contracts/4_Product.sol\":9795:9808  actors[_addr] */\n      0xffffffffffffffffffffffffffffffffffffffff\n      and\n      0xffffffffffffffffffffffffffffffffffffffff\n      and\n      dup2\n      mstore\n      0x20\n      add\n      swap1\n      dup2\n      mstore\n      0x20\n      add\n      0x00\n      keccak256\n        /* \"contracts/4_Product.sol\":9795:9813  actors[_addr].name */\n      0x01\n      add\n        /* \"contracts/4_Product.sol\":9787:9813  _name = actors[_addr].name */\n      dup1\n      sload\n      tag_186\n      swap1\n      tag_83\n      jump\t// in\n    tag_186:\n      dup1\n      0x1f\n      add\n      0x20\n      dup1\n      swap2\n      div\n      mul\n      0x20\n      add\n      mload(0x40)\n      swap1\n      dup2\n      add\n      0x40\n      mstore\n      dup1\n      swap3\n      swap2\n      swap1\n      dup2\n      dup2\n      mstore\n      0x20\n      add\n      dup3\n      dup1\n      sload\n      tag_187\n      swap1\n      tag_83\n      jump\t// in\n    tag_187:\n      dup1\n      iszero\n      tag_188\n      jumpi\n      dup1\n      0x1f\n      lt\n      tag_189\n      jumpi\n      0x0100\n      dup1\n      dup4\n      sload\n      div\n      mul\n      dup4\n      mstore\n      swap2\n      0x20\n      add\n      swap2\n      jump(tag_188)\n    tag_189:\n      dup3\n      add\n      swap2\n      swap1\n      0x00\n      mstore\n      keccak256(0x00, 0x20)\n      swap1\n    tag_190:\n      dup2\n      sload\n      dup2\n      mstore\n      swap1\n      0x01\n      add\n      swap1\n      0x20\n      add\n      dup1\n      dup4\n      gt\n      tag_190\n      jumpi\n      dup3\n      swap1\n      sub\n      0x1f\n      and\n      dup3\n      add\n      swap2\n    tag_188:\n      pop\n      pop\n      pop\n      pop\n      pop\n      swap1\n      pop\n        /* \"contracts/4_Product.sol\":9641:9817  function getActorInfo(address _addr) public view returns\r... */\n      swap2\n      pop\n      swap2\n      jump\t// out\n        /* \"contracts/4_Product.sol\":3899:4005  function etherBalance(address _addr) public view returns (uint256) {\r... */\n    tag_74:\n        /* \"contracts/4_Product.sol\":3957:3964  uint256 */\n      0x00\n        /* \"contracts/4_Product.sol\":3984:3989  _addr */\n      dup2\n        /* \"contracts/4_Product.sol\":3984:3997  _addr.balance */\n      0xffffffffffffffffffffffffffffffffffffffff\n      and\n      balance\n        /* \"contracts/4_Product.sol\":3977:3997  return _addr.balance */\n      swap1\n      pop\n        /* \"contracts/4_Product.sol\":3899:4005  function etherBalance(address _addr) public view returns (uint256) {\r... */\n      swap2\n      swap1\n      pop\n      jump\t// out\n        /* \"contracts/4_Product.sol\":3725:3833  function tokenBalance(address _addr) public view returns (uint256) {\r... */\n    tag_80:\n        /* \"contracts/4_Product.sol\":3783:3790  uint256 */\n      0x00\n        /* \"contracts/4_Product.sol\":3810:3818  balances */\n      0x04\n        /* \"contracts/4_Product.sol\":3810:3825  balances[_addr] */\n      0x00\n        /* \"contracts/4_Product.sol\":3819:3824  _addr */\n      dup4\n        /* \"contracts/4_Product.sol\":3810:3825  balances[_addr] */\n      0xffffffffffffffffffffffffffffffffffffffff\n      and\n      0xffffffffffffffffffffffffffffffffffffffff\n      and\n      dup2\n      mstore\n      0x20\n      add\n      swap1\n      dup2\n      mstore\n      0x20\n      add\n      0x00\n      keccak256\n      sload\n        /* \"contracts/4_Product.sol\":3803:3825  return balances[_addr] */\n      swap1\n      pop\n        /* \"contracts/4_Product.sol\":3725:3833  function tokenBalance(address _addr) public view returns (uint256) {\r... */\n      swap2\n      swap1\n      pop\n      jump\t// out\n    tag_106:\n      dup3\n      dup1\n      sload\n      tag_193\n      swap1\n      tag_83\n      jump\t// in\n    tag_193:\n      swap1\n      0x00\n      mstore\n      keccak256(0x00, 0x20)\n      swap1\n      0x1f\n      add\n      0x20\n      swap1\n      div\n      dup2\n      add\n      swap3\n      dup3\n      tag_195\n      jumpi\n      0x00\n      dup6\n      sstore\n      jump(tag_194)\n    tag_195:\n      dup3\n      0x1f\n      lt\n      tag_196\n      jumpi\n      dup1\n      mload\n      not(0xff)\n      and\n      dup4\n      dup1\n      add\n      or\n      dup6\n      sstore\n      jump(tag_194)\n    tag_196:\n      dup3\n      dup1\n      add\n      0x01\n      add\n      dup6\n      sstore\n      dup3\n      iszero\n      tag_194\n      jumpi\n      swap2\n      dup3\n      add\n    tag_197:\n      dup3\n      dup2\n      gt\n      iszero\n      tag_198\n      jumpi\n      dup3\n      mload\n      dup3\n      sstore\n      swap2\n      0x20\n      add\n      swap2\n      swap1\n      0x01\n      add\n      swap1\n      jump(tag_197)\n    tag_198:\n    tag_194:\n      pop\n      swap1\n      pop\n      tag_199\n      swap2\n      swap1\n      tag_200\n      jump\t// in\n    tag_199:\n      pop\n      swap1\n      jump\t// out\n    tag_200:\n    tag_201:\n      dup1\n      dup3\n      gt\n      iszero\n      tag_202\n      jumpi\n      0x00\n      dup2\n      0x00\n      swap1\n      sstore\n      pop\n      0x01\n      add\n      jump(tag_201)\n    tag_202:\n      pop\n      swap1\n      jump\t// out\n        /* \"#utility.yul\":7:419   */\n    tag_204:\n        /* \"#utility.yul\":85:90   */\n      0x00\n        /* \"#utility.yul\":110:176   */\n      tag_206\n        /* \"#utility.yul\":126:175   */\n      tag_207\n        /* \"#utility.yul\":168:174   */\n      dup5\n        /* \"#utility.yul\":126:175   */\n      tag_208\n      jump\t// in\n    tag_207:\n        /* \"#utility.yul\":110:176   */\n      tag_209\n      jump\t// in\n    tag_206:\n        /* \"#utility.yul\":101:176   */\n      swap1\n      pop\n        /* \"#utility.yul\":199:205   */\n      dup3\n        /* \"#utility.yul\":192:197   */\n      dup2\n        /* \"#utility.yul\":185:206   */\n      mstore\n        /* \"#utility.yul\":237:241   */\n      0x20\n        /* \"#utility.yul\":230:235   */\n      dup2\n        /* \"#utility.yul\":226:242   */\n      add\n        /* \"#utility.yul\":275:278   */\n      dup5\n        /* \"#utility.yul\":266:272   */\n      dup5\n        /* \"#utility.yul\":261:264   */\n      dup5\n        /* \"#utility.yul\":257:273   */\n      add\n        /* \"#utility.yul\":254:279   */\n      gt\n        /* \"#utility.yul\":251:363   */\n      iszero\n      tag_210\n      jumpi\n        /* \"#utility.yul\":282:361   */\n      tag_211\n      tag_212\n      jump\t// in\n    tag_211:\n        /* \"#utility.yul\":251:363   */\n    tag_210:\n        /* \"#utility.yul\":372:413   */\n      tag_213\n        /* \"#utility.yul\":406:412   */\n      dup5\n        /* \"#utility.yul\":401:404   */\n      dup3\n        /* \"#utility.yul\":396:399   */\n      dup6\n        /* \"#utility.yul\":372:413   */\n      tag_214\n      jump\t// in\n    tag_213:\n        /* \"#utility.yul\":91:419   */\n      pop\n        /* \"#utility.yul\":7:419   */\n      swap4\n      swap3\n      pop\n      pop\n      pop\n      jump\t// out\n        /* \"#utility.yul\":425:564   */\n    tag_215:\n        /* \"#utility.yul\":471:476   */\n      0x00\n        /* \"#utility.yul\":509:515   */\n      dup2\n        /* \"#utility.yul\":496:516   */\n      calldataload\n        /* \"#utility.yul\":487:516   */\n      swap1\n      pop\n        /* \"#utility.yul\":525:558   */\n      tag_217\n        /* \"#utility.yul\":552:557   */\n      dup2\n        /* \"#utility.yul\":525:558   */\n      tag_218\n      jump\t// in\n    tag_217:\n        /* \"#utility.yul\":425:564   */\n      swap3\n      swap2\n      pop\n      pop\n      jump\t// out\n        /* \"#utility.yul\":570:723   */\n    tag_219:\n        /* \"#utility.yul\":623:628   */\n      0x00\n        /* \"#utility.yul\":661:667   */\n      dup2\n        /* \"#utility.yul\":648:668   */\n      calldataload\n        /* \"#utility.yul\":639:668   */\n      swap1\n      pop\n        /* \"#utility.yul\":677:717   */\n      tag_221\n        /* \"#utility.yul\":711:716   */\n      dup2\n        /* \"#utility.yul\":677:717   */\n      tag_222\n      jump\t// in\n    tag_221:\n        /* \"#utility.yul\":570:723   */\n      swap3\n      swap2\n      pop\n      pop\n      jump\t// out\n        /* \"#utility.yul\":729:866   */\n    tag_223:\n        /* \"#utility.yul\":774:779   */\n      0x00\n        /* \"#utility.yul\":812:818   */\n      dup2\n        /* \"#utility.yul\":799:819   */\n      calldataload\n        /* \"#utility.yul\":790:819   */\n      swap1\n      pop\n        /* \"#utility.yul\":828:860   */\n      tag_225\n        /* \"#utility.yul\":854:859   */\n      dup2\n        /* \"#utility.yul\":828:860   */\n      tag_226\n      jump\t// in\n    tag_225:\n        /* \"#utility.yul\":729:866   */\n      swap3\n      swap2\n      pop\n      pop\n      jump\t// out\n        /* \"#utility.yul\":886:1226   */\n    tag_227:\n        /* \"#utility.yul\":942:947   */\n      0x00\n        /* \"#utility.yul\":991:994   */\n      dup3\n        /* \"#utility.yul\":984:988   */\n      0x1f\n        /* \"#utility.yul\":976:982   */\n      dup4\n        /* \"#utility.yul\":972:989   */\n      add\n        /* \"#utility.yul\":968:995   */\n      slt\n        /* \"#utility.yul\":958:1080   */\n      tag_229\n      jumpi\n        /* \"#utility.yul\":999:1078   */\n      tag_230\n      tag_231\n      jump\t// in\n    tag_230:\n        /* \"#utility.yul\":958:1080   */\n    tag_229:\n        /* \"#utility.yul\":1116:1122   */\n      dup2\n        /* \"#utility.yul\":1103:1123   */\n      calldataload\n        /* \"#utility.yul\":1141:1220   */\n      tag_232\n        /* \"#utility.yul\":1216:1219   */\n      dup5\n        /* \"#utility.yul\":1208:1214   */\n      dup3\n        /* \"#utility.yul\":1201:1205   */\n      0x20\n        /* \"#utility.yul\":1193:1199   */\n      dup7\n        /* \"#utility.yul\":1189:1206   */\n      add\n        /* \"#utility.yul\":1141:1220   */\n      tag_204\n      jump\t// in\n    tag_232:\n        /* \"#utility.yul\":1132:1220   */\n      swap2\n      pop\n        /* \"#utility.yul\":948:1226   */\n      pop\n        /* \"#utility.yul\":886:1226   */\n      swap3\n      swap2\n      pop\n      pop\n      jump\t// out\n        /* \"#utility.yul\":1232:1371   */\n    tag_233:\n        /* \"#utility.yul\":1278:1283   */\n      0x00\n        /* \"#utility.yul\":1316:1322   */\n      dup2\n        /* \"#utility.yul\":1303:1323   */\n      calldataload\n        /* \"#utility.yul\":1294:1323   */\n      swap1\n      pop\n        /* \"#utility.yul\":1332:1365   */\n      tag_235\n        /* \"#utility.yul\":1359:1364   */\n      dup2\n        /* \"#utility.yul\":1332:1365   */\n      tag_236\n      jump\t// in\n    tag_235:\n        /* \"#utility.yul\":1232:1371   */\n      swap3\n      swap2\n      pop\n      pop\n      jump\t// out\n        /* \"#utility.yul\":1377:1706   */\n    tag_67:\n        /* \"#utility.yul\":1436:1442   */\n      0x00\n        /* \"#utility.yul\":1485:1487   */\n      0x20\n        /* \"#utility.yul\":1473:1482   */\n      dup3\n        /* \"#utility.yul\":1464:1471   */\n      dup5\n        /* \"#utility.yul\":1460:1483   */\n      sub\n        /* \"#utility.yul\":1456:1488   */\n      slt\n        /* \"#utility.yul\":1453:1572   */\n      iszero\n      tag_238\n      jumpi\n        /* \"#utility.yul\":1491:1570   */\n      tag_239\n      tag_240\n      jump\t// in\n    tag_239:\n        /* \"#utility.yul\":1453:1572   */\n    tag_238:\n        /* \"#utility.yul\":1611:1612   */\n      0x00\n        /* \"#utility.yul\":1636:1689   */\n      tag_241\n        /* \"#utility.yul\":1681:1688   */\n      dup5\n        /* \"#utility.yul\":1672:1678   */\n      dup3\n        /* \"#utility.yul\":1661:1670   */\n      dup6\n        /* \"#utility.yul\":1657:1679   */\n      add\n        /* \"#utility.yul\":1636:1689   */\n      tag_215\n      jump\t// in\n    tag_241:\n        /* \"#utility.yul\":1626:1689   */\n      swap2\n      pop\n        /* \"#utility.yul\":1582:1699   */\n      pop\n        /* \"#utility.yul\":1377:1706   */\n      swap3\n      swap2\n      pop\n      pop\n      jump\t// out\n        /* \"#utility.yul\":1712:2525   */\n    tag_25:\n        /* \"#utility.yul\":1806:1812   */\n      0x00\n        /* \"#utility.yul\":1814:1820   */\n      dup1\n        /* \"#utility.yul\":1822:1828   */\n      0x00\n        /* \"#utility.yul\":1871:1873   */\n      0x60\n        /* \"#utility.yul\":1859:1868   */\n      dup5\n        /* \"#utility.yul\":1850:1857   */\n      dup7\n        /* \"#utility.yul\":1846:1869   */\n      sub\n        /* \"#utility.yul\":1842:1874   */\n      slt\n        /* \"#utility.yul\":1839:1958   */\n      iszero\n      tag_243\n      jumpi\n        /* \"#utility.yul\":1877:1956   */\n      tag_244\n      tag_240\n      jump\t// in\n    tag_244:\n        /* \"#utility.yul\":1839:1958   */\n    tag_243:\n        /* \"#utility.yul\":1997:1998   */\n      0x00\n        /* \"#utility.yul\":2022:2075   */\n      tag_245\n        /* \"#utility.yul\":2067:2074   */\n      dup7\n        /* \"#utility.yul\":2058:2064   */\n      dup3\n        /* \"#utility.yul\":2047:2056   */\n      dup8\n        /* \"#utility.yul\":2043:2065   */\n      add\n        /* \"#utility.yul\":2022:2075   */\n      tag_215\n      jump\t// in\n    tag_245:\n        /* \"#utility.yul\":2012:2075   */\n      swap4\n      pop\n        /* \"#utility.yul\":1968:2085   */\n      pop\n        /* \"#utility.yul\":2124:2126   */\n      0x20\n        /* \"#utility.yul\":2150:2210   */\n      tag_246\n        /* \"#utility.yul\":2202:2209   */\n      dup7\n        /* \"#utility.yul\":2193:2199   */\n      dup3\n        /* \"#utility.yul\":2182:2191   */\n      dup8\n        /* \"#utility.yul\":2178:2200   */\n      add\n        /* \"#utility.yul\":2150:2210   */\n      tag_219\n      jump\t// in\n    tag_246:\n        /* \"#utility.yul\":2140:2210   */\n      swap3\n      pop\n        /* \"#utility.yul\":2095:2220   */\n      pop\n        /* \"#utility.yul\":2287:2289   */\n      0x40\n        /* \"#utility.yul\":2276:2285   */\n      dup5\n        /* \"#utility.yul\":2272:2290   */\n      add\n        /* \"#utility.yul\":2259:2291   */\n      calldataload\n        /* \"#utility.yul\":2318:2336   */\n      0xffffffffffffffff\n        /* \"#utility.yul\":2310:2316   */\n      dup2\n        /* \"#utility.yul\":2307:2337   */\n      gt\n        /* \"#utility.yul\":2304:2421   */\n      iszero\n      tag_247\n      jumpi\n        /* \"#utility.yul\":2340:2419   */\n      tag_248\n      tag_249\n      jump\t// in\n    tag_248:\n        /* \"#utility.yul\":2304:2421   */\n    tag_247:\n        /* \"#utility.yul\":2445:2508   */\n      tag_250\n        /* \"#utility.yul\":2500:2507   */\n      dup7\n        /* \"#utility.yul\":2491:2497   */\n      dup3\n        /* \"#utility.yul\":2480:2489   */\n      dup8\n        /* \"#utility.yul\":2476:2498   */\n      add\n        /* \"#utility.yul\":2445:2508   */\n      tag_227\n      jump\t// in\n    tag_250:\n        /* \"#utility.yul\":2435:2508   */\n      swap2\n      pop\n        /* \"#utility.yul\":2230:2518   */\n      pop\n        /* \"#utility.yul\":1712:2525   */\n      swap3\n      pop\n      swap3\n      pop\n      swap3\n      jump\t// out\n        /* \"#utility.yul\":2531:3005   */\n    tag_40:\n        /* \"#utility.yul\":2599:2605   */\n      0x00\n        /* \"#utility.yul\":2607:2613   */\n      dup1\n        /* \"#utility.yul\":2656:2658   */\n      0x40\n        /* \"#utility.yul\":2644:2653   */\n      dup4\n        /* \"#utility.yul\":2635:2642   */\n      dup6\n        /* \"#utility.yul\":2631:2654   */\n      sub\n        /* \"#utility.yul\":2627:2659   */\n      slt\n        /* \"#utility.yul\":2624:2743   */\n      iszero\n      tag_252\n      jumpi\n        /* \"#utility.yul\":2662:2741   */\n      tag_253\n      tag_240\n      jump\t// in\n    tag_253:\n        /* \"#utility.yul\":2624:2743   */\n    tag_252:\n        /* \"#utility.yul\":2782:2783   */\n      0x00\n        /* \"#utility.yul\":2807:2860   */\n      tag_254\n        /* \"#utility.yul\":2852:2859   */\n      dup6\n        /* \"#utility.yul\":2843:2849   */\n      dup3\n        /* \"#utility.yul\":2832:2841   */\n      dup7\n        /* \"#utility.yul\":2828:2850   */\n      add\n        /* \"#utility.yul\":2807:2860   */\n      tag_215\n      jump\t// in\n    tag_254:\n        /* \"#utility.yul\":2797:2860   */\n      swap3\n      pop\n        /* \"#utility.yul\":2753:2870   */\n      pop\n        /* \"#utility.yul\":2909:2911   */\n      0x20\n        /* \"#utility.yul\":2935:2988   */\n      tag_255\n        /* \"#utility.yul\":2980:2987   */\n      dup6\n        /* \"#utility.yul\":2971:2977   */\n      dup3\n        /* \"#utility.yul\":2960:2969   */\n      dup7\n        /* \"#utility.yul\":2956:2978   */\n      add\n        /* \"#utility.yul\":2935:2988   */\n      tag_233\n      jump\t// in\n    tag_255:\n        /* \"#utility.yul\":2925:2988   */\n      swap2\n      pop\n        /* \"#utility.yul\":2880:2998   */\n      pop\n        /* \"#utility.yul\":2531:3005   */\n      swap3\n      pop\n      swap3\n      swap1\n      pop\n      jump\t// out\n        /* \"#utility.yul\":3011:3340   */\n    tag_55:\n        /* \"#utility.yul\":3070:3076   */\n      0x00\n        /* \"#utility.yul\":3119:3121   */\n      0x20\n        /* \"#utility.yul\":3107:3116   */\n      dup3\n        /* \"#utility.yul\":3098:3105   */\n      dup5\n        /* \"#utility.yul\":3094:3117   */\n      sub\n        /* \"#utility.yul\":3090:3122   */\n      slt\n        /* \"#utility.yul\":3087:3206   */\n      iszero\n      tag_257\n      jumpi\n        /* \"#utility.yul\":3125:3204   */\n      tag_258\n      tag_240\n      jump\t// in\n    tag_258:\n        /* \"#utility.yul\":3087:3206   */\n    tag_257:\n        /* \"#utility.yul\":3245:3246   */\n      0x00\n        /* \"#utility.yul\":3270:3323   */\n      tag_259\n        /* \"#utility.yul\":3315:3322   */\n      dup5\n        /* \"#utility.yul\":3306:3312   */\n      dup3\n        /* \"#utility.yul\":3295:3304   */\n      dup6\n        /* \"#utility.yul\":3291:3313   */\n      add\n        /* \"#utility.yul\":3270:3323   */\n      tag_233\n      jump\t// in\n    tag_259:\n        /* \"#utility.yul\":3260:3323   */\n      swap2\n      pop\n        /* \"#utility.yul\":3216:3333   */\n      pop\n        /* \"#utility.yul\":3011:3340   */\n      swap3\n      swap2\n      pop\n      pop\n      jump\t// out\n        /* \"#utility.yul\":3346:4615   */\n    tag_30:\n        /* \"#utility.yul\":3460:3466   */\n      0x00\n        /* \"#utility.yul\":3468:3474   */\n      dup1\n        /* \"#utility.yul\":3476:3482   */\n      0x00\n        /* \"#utility.yul\":3484:3490   */\n      dup1\n        /* \"#utility.yul\":3492:3498   */\n      0x00\n        /* \"#utility.yul\":3541:3544   */\n      0xa0\n        /* \"#utility.yul\":3529:3538   */\n      dup7\n        /* \"#utility.yul\":3520:3527   */\n      dup9\n        /* \"#utility.yul\":3516:3539   */\n      sub\n        /* \"#utility.yul\":3512:3545   */\n      slt\n        /* \"#utility.yul\":3509:3629   */\n      iszero\n      tag_261\n      jumpi\n        /* \"#utility.yul\":3548:3627   */\n      tag_262\n      tag_240\n      jump\t// in\n    tag_262:\n        /* \"#utility.yul\":3509:3629   */\n    tag_261:\n        /* \"#utility.yul\":3668:3669   */\n      0x00\n        /* \"#utility.yul\":3693:3746   */\n      tag_263\n        /* \"#utility.yul\":3738:3745   */\n      dup9\n        /* \"#utility.yul\":3729:3735   */\n      dup3\n        /* \"#utility.yul\":3718:3727   */\n      dup10\n        /* \"#utility.yul\":3714:3736   */\n      add\n        /* \"#utility.yul\":3693:3746   */\n      tag_233\n      jump\t// in\n    tag_263:\n        /* \"#utility.yul\":3683:3746   */\n      swap6\n      pop\n        /* \"#utility.yul\":3639:3756   */\n      pop\n        /* \"#utility.yul\":3795:3797   */\n      0x20\n        /* \"#utility.yul\":3821:3874   */\n      tag_264\n        /* \"#utility.yul\":3866:3873   */\n      dup9\n        /* \"#utility.yul\":3857:3863   */\n      dup3\n        /* \"#utility.yul\":3846:3855   */\n      dup10\n        /* \"#utility.yul\":3842:3864   */\n      add\n        /* \"#utility.yul\":3821:3874   */\n      tag_233\n      jump\t// in\n    tag_264:\n        /* \"#utility.yul\":3811:3874   */\n      swap5\n      pop\n        /* \"#utility.yul\":3766:3884   */\n      pop\n        /* \"#utility.yul\":3951:3953   */\n      0x40\n        /* \"#utility.yul\":3940:3949   */\n      dup7\n        /* \"#utility.yul\":3936:3954   */\n      add\n        /* \"#utility.yul\":3923:3955   */\n      calldataload\n        /* \"#utility.yul\":3982:4000   */\n      0xffffffffffffffff\n        /* \"#utility.yul\":3974:3980   */\n      dup2\n        /* \"#utility.yul\":3971:4001   */\n      gt\n        /* \"#utility.yul\":3968:4085   */\n      iszero\n      tag_265\n      jumpi\n        /* \"#utility.yul\":4004:4083   */\n      tag_266\n      tag_249\n      jump\t// in\n    tag_266:\n        /* \"#utility.yul\":3968:4085   */\n    tag_265:\n        /* \"#utility.yul\":4109:4172   */\n      tag_267\n        /* \"#utility.yul\":4164:4171   */\n      dup9\n        /* \"#utility.yul\":4155:4161   */\n      dup3\n        /* \"#utility.yul\":4144:4153   */\n      dup10\n        /* \"#utility.yul\":4140:4162   */\n      add\n        /* \"#utility.yul\":4109:4172   */\n      tag_227\n      jump\t// in\n    tag_267:\n        /* \"#utility.yul\":4099:4172   */\n      swap4\n      pop\n        /* \"#utility.yul\":3894:4182   */\n      pop\n        /* \"#utility.yul\":4249:4251   */\n      0x60\n        /* \"#utility.yul\":4238:4247   */\n      dup7\n        /* \"#utility.yul\":4234:4252   */\n      add\n        /* \"#utility.yul\":4221:4253   */\n      calldataload\n        /* \"#utility.yul\":4280:4298   */\n      0xffffffffffffffff\n        /* \"#utility.yul\":4272:4278   */\n      dup2\n        /* \"#utility.yul\":4269:4299   */\n      gt\n        /* \"#utility.yul\":4266:4383   */\n      iszero\n      tag_268\n      jumpi\n        /* \"#utility.yul\":4302:4381   */\n      tag_269\n      tag_249\n      jump\t// in\n    tag_269:\n        /* \"#utility.yul\":4266:4383   */\n    tag_268:\n        /* \"#utility.yul\":4407:4470   */\n      tag_270\n        /* \"#utility.yul\":4462:4469   */\n      dup9\n        /* \"#utility.yul\":4453:4459   */\n      dup3\n        /* \"#utility.yul\":4442:4451   */\n      dup10\n        /* \"#utility.yul\":4438:4460   */\n      add\n        /* \"#utility.yul\":4407:4470   */\n      tag_227\n      jump\t// in\n    tag_270:\n        /* \"#utility.yul\":4397:4470   */\n      swap3\n      pop\n        /* \"#utility.yul\":4192:4480   */\n      pop\n        /* \"#utility.yul\":4519:4522   */\n      0x80\n        /* \"#utility.yul\":4546:4598   */\n      tag_271\n        /* \"#utility.yul\":4590:4597   */\n      dup9\n        /* \"#utility.yul\":4581:4587   */\n      dup3\n        /* \"#utility.yul\":4570:4579   */\n      dup10\n        /* \"#utility.yul\":4566:4588   */\n      add\n        /* \"#utility.yul\":4546:4598   */\n      tag_223\n      jump\t// in\n    tag_271:\n        /* \"#utility.yul\":4536:4598   */\n      swap2\n      pop\n        /* \"#utility.yul\":4490:4608   */\n      pop\n        /* \"#utility.yul\":3346:4615   */\n      swap3\n      swap6\n      pop\n      swap3\n      swap6\n      swap1\n      swap4\n      pop\n      jump\t// out\n        /* \"#utility.yul\":4621:7522   */\n    tag_35:\n        /* \"#utility.yul\":4831:4837   */\n      0x00\n        /* \"#utility.yul\":4839:4845   */\n      dup1\n        /* \"#utility.yul\":4847:4853   */\n      0x00\n        /* \"#utility.yul\":4855:4861   */\n      dup1\n        /* \"#utility.yul\":4863:4869   */\n      0x00\n        /* \"#utility.yul\":4871:4877   */\n      dup1\n        /* \"#utility.yul\":4879:4885   */\n      0x00\n        /* \"#utility.yul\":4887:4893   */\n      dup1\n        /* \"#utility.yul\":4895:4901   */\n      0x00\n        /* \"#utility.yul\":4903:4909   */\n      dup1\n        /* \"#utility.yul\":4952:4955   */\n      0x0140\n        /* \"#utility.yul\":4940:4949   */\n      dup12\n        /* \"#utility.yul\":4931:4938   */\n      dup14\n        /* \"#utility.yul\":4927:4950   */\n      sub\n        /* \"#utility.yul\":4923:4956   */\n      slt\n        /* \"#utility.yul\":4920:5040   */\n      iszero\n      tag_273\n      jumpi\n        /* \"#utility.yul\":4959:5038   */\n      tag_274\n      tag_240\n      jump\t// in\n    tag_274:\n        /* \"#utility.yul\":4920:5040   */\n    tag_273:\n        /* \"#utility.yul\":5079:5080   */\n      0x00\n        /* \"#utility.yul\":5104:5157   */\n      tag_275\n        /* \"#utility.yul\":5149:5156   */\n      dup14\n        /* \"#utility.yul\":5140:5146   */\n      dup3\n        /* \"#utility.yul\":5129:5138   */\n      dup15\n        /* \"#utility.yul\":5125:5147   */\n      add\n        /* \"#utility.yul\":5104:5157   */\n      tag_233\n      jump\t// in\n    tag_275:\n        /* \"#utility.yul\":5094:5157   */\n      swap11\n      pop\n        /* \"#utility.yul\":5050:5167   */\n      pop\n        /* \"#utility.yul\":5206:5208   */\n      0x20\n        /* \"#utility.yul\":5232:5285   */\n      tag_276\n        /* \"#utility.yul\":5277:5284   */\n      dup14\n        /* \"#utility.yul\":5268:5274   */\n      dup3\n        /* \"#utility.yul\":5257:5266   */\n      dup15\n        /* \"#utility.yul\":5253:5275   */\n      add\n        /* \"#utility.yul\":5232:5285   */\n      tag_233\n      jump\t// in\n    tag_276:\n        /* \"#utility.yul\":5222:5285   */\n      swap10\n      pop\n        /* \"#utility.yul\":5177:5295   */\n      pop\n        /* \"#utility.yul\":5334:5336   */\n      0x40\n        /* \"#utility.yul\":5360:5413   */\n      tag_277\n        /* \"#utility.yul\":5405:5412   */\n      dup14\n        /* \"#utility.yul\":5396:5402   */\n      dup3\n        /* \"#utility.yul\":5385:5394   */\n      dup15\n        /* \"#utility.yul\":5381:5403   */\n      add\n        /* \"#utility.yul\":5360:5413   */\n      tag_233\n      jump\t// in\n    tag_277:\n        /* \"#utility.yul\":5350:5413   */\n      swap9\n      pop\n        /* \"#utility.yul\":5305:5423   */\n      pop\n        /* \"#utility.yul\":5490:5492   */\n      0x60\n        /* \"#utility.yul\":5479:5488   */\n      dup12\n        /* \"#utility.yul\":5475:5493   */\n      add\n        /* \"#utility.yul\":5462:5494   */\n      calldataload\n        /* \"#utility.yul\":5521:5539   */\n      0xffffffffffffffff\n        /* \"#utility.yul\":5513:5519   */\n      dup2\n        /* \"#utility.yul\":5510:5540   */\n      gt\n        /* \"#utility.yul\":5507:5624   */\n      iszero\n      tag_278\n      jumpi\n        /* \"#utility.yul\":5543:5622   */\n      tag_279\n      tag_249\n      jump\t// in\n    tag_279:\n        /* \"#utility.yul\":5507:5624   */\n    tag_278:\n        /* \"#utility.yul\":5648:5711   */\n      tag_280\n        /* \"#utility.yul\":5703:5710   */\n      dup14\n        /* \"#utility.yul\":5694:5700   */\n      dup3\n        /* \"#utility.yul\":5683:5692   */\n      dup15\n        /* \"#utility.yul\":5679:5701   */\n      add\n        /* \"#utility.yul\":5648:5711   */\n      tag_227\n      jump\t// in\n    tag_280:\n        /* \"#utility.yul\":5638:5711   */\n      swap8\n      pop\n        /* \"#utility.yul\":5433:5721   */\n      pop\n        /* \"#utility.yul\":5788:5791   */\n      0x80\n        /* \"#utility.yul\":5777:5786   */\n      dup12\n        /* \"#utility.yul\":5773:5792   */\n      add\n        /* \"#utility.yul\":5760:5793   */\n      calldataload\n        /* \"#utility.yul\":5820:5838   */\n      0xffffffffffffffff\n        /* \"#utility.yul\":5812:5818   */\n      dup2\n        /* \"#utility.yul\":5809:5839   */\n      gt\n        /* \"#utility.yul\":5806:5923   */\n      iszero\n      tag_281\n      jumpi\n        /* \"#utility.yul\":5842:5921   */\n      tag_282\n      tag_249\n      jump\t// in\n    tag_282:\n        /* \"#utility.yul\":5806:5923   */\n    tag_281:\n        /* \"#utility.yul\":5947:6010   */\n      tag_283\n        /* \"#utility.yul\":6002:6009   */\n      dup14\n        /* \"#utility.yul\":5993:5999   */\n      dup3\n        /* \"#utility.yul\":5982:5991   */\n      dup15\n        /* \"#utility.yul\":5978:6000   */\n      add\n        /* \"#utility.yul\":5947:6010   */\n      tag_227\n      jump\t// in\n    tag_283:\n        /* \"#utility.yul\":5937:6010   */\n      swap7\n      pop\n        /* \"#utility.yul\":5731:6020   */\n      pop\n        /* \"#utility.yul\":6087:6090   */\n      0xa0\n        /* \"#utility.yul\":6076:6085   */\n      dup12\n        /* \"#utility.yul\":6072:6091   */\n      add\n        /* \"#utility.yul\":6059:6092   */\n      calldataload\n        /* \"#utility.yul\":6119:6137   */\n      0xffffffffffffffff\n        /* \"#utility.yul\":6111:6117   */\n      dup2\n        /* \"#utility.yul\":6108:6138   */\n      gt\n        /* \"#utility.yul\":6105:6222   */\n      iszero\n      tag_284\n      jumpi\n        /* \"#utility.yul\":6141:6220   */\n      tag_285\n      tag_249\n      jump\t// in\n    tag_285:\n        /* \"#utility.yul\":6105:6222   */\n    tag_284:\n        /* \"#utility.yul\":6246:6309   */\n      tag_286\n        /* \"#utility.yul\":6301:6308   */\n      dup14\n        /* \"#utility.yul\":6292:6298   */\n      dup3\n        /* \"#utility.yul\":6281:6290   */\n      dup15\n        /* \"#utility.yul\":6277:6299   */\n      add\n        /* \"#utility.yul\":6246:6309   */\n      tag_227\n      jump\t// in\n    tag_286:\n        /* \"#utility.yul\":6236:6309   */\n      swap6\n      pop\n        /* \"#utility.yul\":6030:6319   */\n      pop\n        /* \"#utility.yul\":6386:6389   */\n      0xc0\n        /* \"#utility.yul\":6375:6384   */\n      dup12\n        /* \"#utility.yul\":6371:6390   */\n      add\n        /* \"#utility.yul\":6358:6391   */\n      calldataload\n        /* \"#utility.yul\":6418:6436   */\n      0xffffffffffffffff\n        /* \"#utility.yul\":6410:6416   */\n      dup2\n        /* \"#utility.yul\":6407:6437   */\n      gt\n        /* \"#utility.yul\":6404:6521   */\n      iszero\n      tag_287\n      jumpi\n        /* \"#utility.yul\":6440:6519   */\n      tag_288\n      tag_249\n      jump\t// in\n    tag_288:\n        /* \"#utility.yul\":6404:6521   */\n    tag_287:\n        /* \"#utility.yul\":6545:6608   */\n      tag_289\n        /* \"#utility.yul\":6600:6607   */\n      dup14\n        /* \"#utility.yul\":6591:6597   */\n      dup3\n        /* \"#utility.yul\":6580:6589   */\n      dup15\n        /* \"#utility.yul\":6576:6598   */\n      add\n        /* \"#utility.yul\":6545:6608   */\n      tag_227\n      jump\t// in\n    tag_289:\n        /* \"#utility.yul\":6535:6608   */\n      swap5\n      pop\n        /* \"#utility.yul\":6329:6618   */\n      pop\n        /* \"#utility.yul\":6685:6688   */\n      0xe0\n        /* \"#utility.yul\":6674:6683   */\n      dup12\n        /* \"#utility.yul\":6670:6689   */\n      add\n        /* \"#utility.yul\":6657:6690   */\n      calldataload\n        /* \"#utility.yul\":6717:6735   */\n      0xffffffffffffffff\n        /* \"#utility.yul\":6709:6715   */\n      dup2\n        /* \"#utility.yul\":6706:6736   */\n      gt\n        /* \"#utility.yul\":6703:6820   */\n      iszero\n      tag_290\n      jumpi\n        /* \"#utility.yul\":6739:6818   */\n      tag_291\n      tag_249\n      jump\t// in\n    tag_291:\n        /* \"#utility.yul\":6703:6820   */\n    tag_290:\n        /* \"#utility.yul\":6844:6907   */\n      tag_292\n        /* \"#utility.yul\":6899:6906   */\n      dup14\n        /* \"#utility.yul\":6890:6896   */\n      dup3\n        /* \"#utility.yul\":6879:6888   */\n      dup15\n        /* \"#utility.yul\":6875:6897   */\n      add\n        /* \"#utility.yul\":6844:6907   */\n      tag_227\n      jump\t// in\n    tag_292:\n        /* \"#utility.yul\":6834:6907   */\n      swap4\n      pop\n        /* \"#utility.yul\":6628:6917   */\n      pop\n        /* \"#utility.yul\":6984:6987   */\n      0x0100\n        /* \"#utility.yul\":6973:6982   */\n      dup12\n        /* \"#utility.yul\":6969:6988   */\n      add\n        /* \"#utility.yul\":6956:6989   */\n      calldataload\n        /* \"#utility.yul\":7016:7034   */\n      0xffffffffffffffff\n        /* \"#utility.yul\":7008:7014   */\n      dup2\n        /* \"#utility.yul\":7005:7035   */\n      gt\n        /* \"#utility.yul\":7002:7119   */\n      iszero\n      tag_293\n      jumpi\n        /* \"#utility.yul\":7038:7117   */\n      tag_294\n      tag_249\n      jump\t// in\n    tag_294:\n        /* \"#utility.yul\":7002:7119   */\n    tag_293:\n        /* \"#utility.yul\":7143:7206   */\n      tag_295\n        /* \"#utility.yul\":7198:7205   */\n      dup14\n        /* \"#utility.yul\":7189:7195   */\n      dup3\n        /* \"#utility.yul\":7178:7187   */\n      dup15\n        /* \"#utility.yul\":7174:7196   */\n      add\n        /* \"#utility.yul\":7143:7206   */\n      tag_227\n      jump\t// in\n    tag_295:\n        /* \"#utility.yul\":7133:7206   */\n      swap3\n      pop\n        /* \"#utility.yul\":6927:7216   */\n      pop\n        /* \"#utility.yul\":7283:7286   */\n      0x0120\n        /* \"#utility.yul\":7272:7281   */\n      dup12\n        /* \"#utility.yul\":7268:7287   */\n      add\n        /* \"#utility.yul\":7255:7288   */\n      calldataload\n        /* \"#utility.yul\":7315:7333   */\n      0xffffffffffffffff\n        /* \"#utility.yul\":7307:7313   */\n      dup2\n        /* \"#utility.yul\":7304:7334   */\n      gt\n        /* \"#utility.yul\":7301:7418   */\n      iszero\n      tag_296\n      jumpi\n        /* \"#utility.yul\":7337:7416   */\n      tag_297\n      tag_249\n      jump\t// in\n    tag_297:\n        /* \"#utility.yul\":7301:7418   */\n    tag_296:\n        /* \"#utility.yul\":7442:7505   */\n      tag_298\n        /* \"#utility.yul\":7497:7504   */\n      dup14\n        /* \"#utility.yul\":7488:7494   */\n      dup3\n        /* \"#utility.yul\":7477:7486   */\n      dup15\n        /* \"#utility.yul\":7473:7495   */\n      add\n        /* \"#utility.yul\":7442:7505   */\n      tag_227\n      jump\t// in\n    tag_298:\n        /* \"#utility.yul\":7432:7505   */\n      swap2\n      pop\n        /* \"#utility.yul\":7226:7515   */\n      pop\n        /* \"#utility.yul\":4621:7522   */\n      swap3\n      swap6\n      swap9\n      swap12\n      swap2\n      swap5\n      swap8\n      swap11\n      pop\n      swap3\n      swap6\n      swap9\n      pop\n      jump\t// out\n        /* \"#utility.yul\":7528:7670   */\n    tag_299:\n        /* \"#utility.yul\":7631:7663   */\n      tag_301\n        /* \"#utility.yul\":7657:7662   */\n      dup2\n        /* \"#utility.yul\":7631:7663   */\n      tag_302\n      jump\t// in\n    tag_301:\n        /* \"#utility.yul\":7626:7629   */\n      dup3\n        /* \"#utility.yul\":7619:7664   */\n      mstore\n        /* \"#utility.yul\":7528:7670   */\n      pop\n      pop\n      jump\t// out\n        /* \"#utility.yul\":7676:7785   */\n    tag_303:\n        /* \"#utility.yul\":7757:7778   */\n      tag_305\n        /* \"#utility.yul\":7772:7777   */\n      dup2\n        /* \"#utility.yul\":7757:7778   */\n      tag_306\n      jump\t// in\n    tag_305:\n        /* \"#utility.yul\":7752:7755   */\n      dup3\n        /* \"#utility.yul\":7745:7779   */\n      mstore\n        /* \"#utility.yul\":7676:7785   */\n      pop\n      pop\n      jump\t// out\n        /* \"#utility.yul\":7791:7932   */\n    tag_307:\n        /* \"#utility.yul\":7883:7925   */\n      tag_309\n        /* \"#utility.yul\":7919:7924   */\n      dup2\n        /* \"#utility.yul\":7883:7925   */\n      tag_310\n      jump\t// in\n    tag_309:\n        /* \"#utility.yul\":7878:7881   */\n      dup3\n        /* \"#utility.yul\":7871:7926   */\n      mstore\n        /* \"#utility.yul\":7791:7932   */\n      pop\n      pop\n      jump\t// out\n        /* \"#utility.yul\":7938:8302   */\n    tag_311:\n        /* \"#utility.yul\":8026:8029   */\n      0x00\n        /* \"#utility.yul\":8054:8093   */\n      tag_313\n        /* \"#utility.yul\":8087:8092   */\n      dup3\n        /* \"#utility.yul\":8054:8093   */\n      tag_314\n      jump\t// in\n    tag_313:\n        /* \"#utility.yul\":8109:8180   */\n      tag_315\n        /* \"#utility.yul\":8173:8179   */\n      dup2\n        /* \"#utility.yul\":8168:8171   */\n      dup6\n        /* \"#utility.yul\":8109:8180   */\n      tag_316\n      jump\t// in\n    tag_315:\n        /* \"#utility.yul\":8102:8180   */\n      swap4\n      pop\n        /* \"#utility.yul\":8189:8241   */\n      tag_317\n        /* \"#utility.yul\":8234:8240   */\n      dup2\n        /* \"#utility.yul\":8229:8232   */\n      dup6\n        /* \"#utility.yul\":8222:8226   */\n      0x20\n        /* \"#utility.yul\":8215:8220   */\n      dup7\n        /* \"#utility.yul\":8211:8227   */\n      add\n        /* \"#utility.yul\":8189:8241   */\n      tag_318\n      jump\t// in\n    tag_317:\n        /* \"#utility.yul\":8266:8295   */\n      tag_319\n        /* \"#utility.yul\":8288:8294   */\n      dup2\n        /* \"#utility.yul\":8266:8295   */\n      tag_320\n      jump\t// in\n    tag_319:\n        /* \"#utility.yul\":8261:8264   */\n      dup5\n        /* \"#utility.yul\":8257:8296   */\n      add\n        /* \"#utility.yul\":8250:8296   */\n      swap2\n      pop\n        /* \"#utility.yul\":8030:8302   */\n      pop\n        /* \"#utility.yul\":7938:8302   */\n      swap3\n      swap2\n      pop\n      pop\n      jump\t// out\n        /* \"#utility.yul\":8308:8674   */\n    tag_321:\n        /* \"#utility.yul\":8450:8453   */\n      0x00\n        /* \"#utility.yul\":8471:8538   */\n      tag_323\n        /* \"#utility.yul\":8535:8537   */\n      0x1c\n        /* \"#utility.yul\":8530:8533   */\n      dup4\n        /* \"#utility.yul\":8471:8538   */\n      tag_316\n      jump\t// in\n    tag_323:\n        /* \"#utility.yul\":8464:8538   */\n      swap2\n      pop\n        /* \"#utility.yul\":8547:8640   */\n      tag_324\n        /* \"#utility.yul\":8636:8639   */\n      dup3\n        /* \"#utility.yul\":8547:8640   */\n      tag_325\n      jump\t// in\n    tag_324:\n        /* \"#utility.yul\":8665:8667   */\n      0x20\n        /* \"#utility.yul\":8660:8663   */\n      dup3\n        /* \"#utility.yul\":8656:8668   */\n      add\n        /* \"#utility.yul\":8649:8668   */\n      swap1\n      pop\n        /* \"#utility.yul\":8308:8674   */\n      swap2\n      swap1\n      pop\n      jump\t// out\n        /* \"#utility.yul\":8680:9046   */\n    tag_326:\n        /* \"#utility.yul\":8822:8825   */\n      0x00\n        /* \"#utility.yul\":8843:8910   */\n      tag_328\n        /* \"#utility.yul\":8907:8909   */\n      0x19\n        /* \"#utility.yul\":8902:8905   */\n      dup4\n        /* \"#utility.yul\":8843:8910   */\n      tag_316\n      jump\t// in\n    tag_328:\n        /* \"#utility.yul\":8836:8910   */\n      swap2\n      pop\n        /* \"#utility.yul\":8919:9012   */\n      tag_329\n        /* \"#utility.yul\":9008:9011   */\n      dup3\n        /* \"#utility.yul\":8919:9012   */\n      tag_330\n      jump\t// in\n    tag_329:\n        /* \"#utility.yul\":9037:9039   */\n      0x20\n        /* \"#utility.yul\":9032:9035   */\n      dup3\n        /* \"#utility.yul\":9028:9040   */\n      add\n        /* \"#utility.yul\":9021:9040   */\n      swap1\n      pop\n        /* \"#utility.yul\":8680:9046   */\n      swap2\n      swap1\n      pop\n      jump\t// out\n        /* \"#utility.yul\":9052:9418   */\n    tag_331:\n        /* \"#utility.yul\":9194:9197   */\n      0x00\n        /* \"#utility.yul\":9215:9282   */\n      tag_333\n        /* \"#utility.yul\":9279:9281   */\n      0x1e\n        /* \"#utility.yul\":9274:9277   */\n      dup4\n        /* \"#utility.yul\":9215:9282   */\n      tag_316\n      jump\t// in\n    tag_333:\n        /* \"#utility.yul\":9208:9282   */\n      swap2\n      pop\n        /* \"#utility.yul\":9291:9384   */\n      tag_334\n        /* \"#utility.yul\":9380:9383   */\n      dup3\n        /* \"#utility.yul\":9291:9384   */\n      tag_335\n      jump\t// in\n    tag_334:\n        /* \"#utility.yul\":9409:9411   */\n      0x20\n        /* \"#utility.yul\":9404:9407   */\n      dup3\n        /* \"#utility.yul\":9400:9412   */\n      add\n        /* \"#utility.yul\":9393:9412   */\n      swap1\n      pop\n        /* \"#utility.yul\":9052:9418   */\n      swap2\n      swap1\n      pop\n      jump\t// out\n        /* \"#utility.yul\":9424:9542   */\n    tag_336:\n        /* \"#utility.yul\":9511:9535   */\n      tag_338\n        /* \"#utility.yul\":9529:9534   */\n      dup2\n        /* \"#utility.yul\":9511:9535   */\n      tag_339\n      jump\t// in\n    tag_338:\n        /* \"#utility.yul\":9506:9509   */\n      dup3\n        /* \"#utility.yul\":9499:9536   */\n      mstore\n        /* \"#utility.yul\":9424:9542   */\n      pop\n      pop\n      jump\t// out\n        /* \"#utility.yul\":9548:9802   */\n    tag_61:\n        /* \"#utility.yul\":9657:9661   */\n      0x00\n        /* \"#utility.yul\":9695:9697   */\n      0x20\n        /* \"#utility.yul\":9684:9693   */\n      dup3\n        /* \"#utility.yul\":9680:9698   */\n      add\n        /* \"#utility.yul\":9672:9698   */\n      swap1\n      pop\n        /* \"#utility.yul\":9708:9795   */\n      tag_341\n        /* \"#utility.yul\":9792:9793   */\n      0x00\n        /* \"#utility.yul\":9781:9790   */\n      dup4\n        /* \"#utility.yul\":9777:9794   */\n      add\n        /* \"#utility.yul\":9768:9774   */\n      dup5\n        /* \"#utility.yul\":9708:9795   */\n      tag_299\n      jump\t// in\n    tag_341:\n        /* \"#utility.yul\":9548:9802   */\n      swap3\n      swap2\n      pop\n      pop\n      jump\t// out\n        /* \"#utility.yul\":9808:10018   */\n    tag_43:\n        /* \"#utility.yul\":9895:9899   */\n      0x00\n        /* \"#utility.yul\":9933:9935   */\n      0x20\n        /* \"#utility.yul\":9922:9931   */\n      dup3\n        /* \"#utility.yul\":9918:9936   */\n      add\n        /* \"#utility.yul\":9910:9936   */\n      swap1\n      pop\n        /* \"#utility.yul\":9946:10011   */\n      tag_343\n        /* \"#utility.yul\":10008:10009   */\n      0x00\n        /* \"#utility.yul\":9997:10006   */\n      dup4\n        /* \"#utility.yul\":9993:10010   */\n      add\n        /* \"#utility.yul\":9984:9990   */\n      dup5\n        /* \"#utility.yul\":9946:10011   */\n      tag_303\n      jump\t// in\n    tag_343:\n        /* \"#utility.yul\":9808:10018   */\n      swap3\n      swap2\n      pop\n      pop\n      jump\t// out\n        /* \"#utility.yul\":10024:10457   */\n    tag_70:\n        /* \"#utility.yul\":10170:10174   */\n      0x00\n        /* \"#utility.yul\":10208:10210   */\n      0x40\n        /* \"#utility.yul\":10197:10206   */\n      dup3\n        /* \"#utility.yul\":10193:10211   */\n      add\n        /* \"#utility.yul\":10185:10211   */\n      swap1\n      pop\n        /* \"#utility.yul\":10221:10297   */\n      tag_345\n        /* \"#utility.yul\":10294:10295   */\n      0x00\n        /* \"#utility.yul\":10283:10292   */\n      dup4\n        /* \"#utility.yul\":10279:10296   */\n      add\n        /* \"#utility.yul\":10270:10276   */\n      dup6\n        /* \"#utility.yul\":10221:10297   */\n      tag_307\n      jump\t// in\n    tag_345:\n        /* \"#utility.yul\":10344:10353   */\n      dup2\n        /* \"#utility.yul\":10338:10342   */\n      dup2\n        /* \"#utility.yul\":10334:10354   */\n      sub\n        /* \"#utility.yul\":10329:10331   */\n      0x20\n        /* \"#utility.yul\":10318:10327   */\n      dup4\n        /* \"#utility.yul\":10314:10332   */\n      add\n        /* \"#utility.yul\":10307:10355   */\n      mstore\n        /* \"#utility.yul\":10372:10450   */\n      tag_346\n        /* \"#utility.yul\":10445:10449   */\n      dup2\n        /* \"#utility.yul\":10436:10442   */\n      dup5\n        /* \"#utility.yul\":10372:10450   */\n      tag_311\n      jump\t// in\n    tag_346:\n        /* \"#utility.yul\":10364:10450   */\n      swap1\n      pop\n        /* \"#utility.yul\":10024:10457   */\n      swap4\n      swap3\n      pop\n      pop\n      pop\n      jump\t// out\n        /* \"#utility.yul\":10463:10776   */\n    tag_21:\n        /* \"#utility.yul\":10576:10580   */\n      0x00\n        /* \"#utility.yul\":10614:10616   */\n      0x20\n        /* \"#utility.yul\":10603:10612   */\n      dup3\n        /* \"#utility.yul\":10599:10617   */\n      add\n        /* \"#utility.yul\":10591:10617   */\n      swap1\n      pop\n        /* \"#utility.yul\":10663:10672   */\n      dup2\n        /* \"#utility.yul\":10657:10661   */\n      dup2\n        /* \"#utility.yul\":10653:10673   */\n      sub\n        /* \"#utility.yul\":10649:10650   */\n      0x00\n        /* \"#utility.yul\":10638:10647   */\n      dup4\n        /* \"#utility.yul\":10634:10651   */\n      add\n        /* \"#utility.yul\":10627:10674   */\n      mstore\n        /* \"#utility.yul\":10691:10769   */\n      tag_348\n        /* \"#utility.yul\":10764:10768   */\n      dup2\n        /* \"#utility.yul\":10755:10761   */\n      dup5\n        /* \"#utility.yul\":10691:10769   */\n      tag_311\n      jump\t// in\n    tag_348:\n        /* \"#utility.yul\":10683:10769   */\n      swap1\n      pop\n        /* \"#utility.yul\":10463:10776   */\n      swap3\n      swap2\n      pop\n      pop\n      jump\t// out\n        /* \"#utility.yul\":10782:11201   */\n    tag_114:\n        /* \"#utility.yul\":10948:10952   */\n      0x00\n        /* \"#utility.yul\":10986:10988   */\n      0x20\n        /* \"#utility.yul\":10975:10984   */\n      dup3\n        /* \"#utility.yul\":10971:10989   */\n      add\n        /* \"#utility.yul\":10963:10989   */\n      swap1\n      pop\n        /* \"#utility.yul\":11035:11044   */\n      dup2\n        /* \"#utility.yul\":11029:11033   */\n      dup2\n        /* \"#utility.yul\":11025:11045   */\n      sub\n        /* \"#utility.yul\":11021:11022   */\n      0x00\n        /* \"#utility.yul\":11010:11019   */\n      dup4\n        /* \"#utility.yul\":11006:11023   */\n      add\n        /* \"#utility.yul\":10999:11046   */\n      mstore\n        /* \"#utility.yul\":11063:11194   */\n      tag_350\n        /* \"#utility.yul\":11189:11193   */\n      dup2\n        /* \"#utility.yul\":11063:11194   */\n      tag_321\n      jump\t// in\n    tag_350:\n        /* \"#utility.yul\":11055:11194   */\n      swap1\n      pop\n        /* \"#utility.yul\":10782:11201   */\n      swap2\n      swap1\n      pop\n      jump\t// out\n        /* \"#utility.yul\":11207:11626   */\n    tag_136:\n        /* \"#utility.yul\":11373:11377   */\n      0x00\n        /* \"#utility.yul\":11411:11413   */\n      0x20\n        /* \"#utility.yul\":11400:11409   */\n      dup3\n        /* \"#utility.yul\":11396:11414   */\n      add\n        /* \"#utility.yul\":11388:11414   */\n      swap1\n      pop\n        /* \"#utility.yul\":11460:11469   */\n      dup2\n        /* \"#utility.yul\":11454:11458   */\n      dup2\n        /* \"#utility.yul\":11450:11470   */\n      sub\n        /* \"#utility.yul\":11446:11447   */\n      0x00\n        /* \"#utility.yul\":11435:11444   */\n      dup4\n        /* \"#utility.yul\":11431:11448   */\n      add\n        /* \"#utility.yul\":11424:11471   */\n      mstore\n        /* \"#utility.yul\":11488:11619   */\n      tag_352\n        /* \"#utility.yul\":11614:11618   */\n      dup2\n        /* \"#utility.yul\":11488:11619   */\n      tag_326\n      jump\t// in\n    tag_352:\n        /* \"#utility.yul\":11480:11619   */\n      swap1\n      pop\n        /* \"#utility.yul\":11207:11626   */\n      swap2\n      swap1\n      pop\n      jump\t// out\n        /* \"#utility.yul\":11632:12051   */\n    tag_165:\n        /* \"#utility.yul\":11798:11802   */\n      0x00\n        /* \"#utility.yul\":11836:11838   */\n      0x20\n        /* \"#utility.yul\":11825:11834   */\n      dup3\n        /* \"#utility.yul\":11821:11839   */\n      add\n        /* \"#utility.yul\":11813:11839   */\n      swap1\n      pop\n        /* \"#utility.yul\":11885:11894   */\n      dup2\n        /* \"#utility.yul\":11879:11883   */\n      dup2\n        /* \"#utility.yul\":11875:11895   */\n      sub\n        /* \"#utility.yul\":11871:11872   */\n      0x00\n        /* \"#utility.yul\":11860:11869   */\n      dup4\n        /* \"#utility.yul\":11856:11873   */\n      add\n        /* \"#utility.yul\":11849:11896   */\n      mstore\n        /* \"#utility.yul\":11913:12044   */\n      tag_354\n        /* \"#utility.yul\":12039:12043   */\n      dup2\n        /* \"#utility.yul\":11913:12044   */\n      tag_331\n      jump\t// in\n    tag_354:\n        /* \"#utility.yul\":11905:12044   */\n      swap1\n      pop\n        /* \"#utility.yul\":11632:12051   */\n      swap2\n      swap1\n      pop\n      jump\t// out\n        /* \"#utility.yul\":12057:12279   */\n    tag_76:\n        /* \"#utility.yul\":12150:12154   */\n      0x00\n        /* \"#utility.yul\":12188:12190   */\n      0x20\n        /* \"#utility.yul\":12177:12186   */\n      dup3\n        /* \"#utility.yul\":12173:12191   */\n      add\n        /* \"#utility.yul\":12165:12191   */\n      swap1\n      pop\n        /* \"#utility.yul\":12201:12272   */\n      tag_356\n        /* \"#utility.yul\":12269:12270   */\n      0x00\n        /* \"#utility.yul\":12258:12267   */\n      dup4\n        /* \"#utility.yul\":12254:12271   */\n      add\n        /* \"#utility.yul\":12245:12251   */\n      dup5\n        /* \"#utility.yul\":12201:12272   */\n      tag_336\n      jump\t// in\n    tag_356:\n        /* \"#utility.yul\":12057:12279   */\n      swap3\n      swap2\n      pop\n      pop\n      jump\t// out\n        /* \"#utility.yul\":12285:12414   */\n    tag_209:\n        /* \"#utility.yul\":12319:12325   */\n      0x00\n        /* \"#utility.yul\":12346:12366   */\n      tag_358\n      tag_359\n      jump\t// in\n    tag_358:\n        /* \"#utility.yul\":12336:12366   */\n      swap1\n      pop\n        /* \"#utility.yul\":12375:12408   */\n      tag_360\n        /* \"#utility.yul\":12403:12407   */\n      dup3\n        /* \"#utility.yul\":12395:12401   */\n      dup3\n        /* \"#utility.yul\":12375:12408   */\n      tag_361\n      jump\t// in\n    tag_360:\n        /* \"#utility.yul\":12285:12414   */\n      swap2\n      swap1\n      pop\n      jump\t// out\n        /* \"#utility.yul\":12420:12495   */\n    tag_359:\n        /* \"#utility.yul\":12453:12459   */\n      0x00\n        /* \"#utility.yul\":12486:12488   */\n      0x40\n        /* \"#utility.yul\":12480:12489   */\n      mload\n        /* \"#utility.yul\":12470:12489   */\n      swap1\n      pop\n        /* \"#utility.yul\":12420:12495   */\n      swap1\n      jump\t// out\n        /* \"#utility.yul\":12501:12809   */\n    tag_208:\n        /* \"#utility.yul\":12563:12567   */\n      0x00\n        /* \"#utility.yul\":12653:12671   */\n      0xffffffffffffffff\n        /* \"#utility.yul\":12645:12651   */\n      dup3\n        /* \"#utility.yul\":12642:12672   */\n      gt\n        /* \"#utility.yul\":12639:12695   */\n      iszero\n      tag_364\n      jumpi\n        /* \"#utility.yul\":12675:12693   */\n      tag_365\n      tag_366\n      jump\t// in\n    tag_365:\n        /* \"#utility.yul\":12639:12695   */\n    tag_364:\n        /* \"#utility.yul\":12713:12742   */\n      tag_367\n        /* \"#utility.yul\":12735:12741   */\n      dup3\n        /* \"#utility.yul\":12713:12742   */\n      tag_320\n      jump\t// in\n    tag_367:\n        /* \"#utility.yul\":12705:12742   */\n      swap1\n      pop\n        /* \"#utility.yul\":12797:12801   */\n      0x20\n        /* \"#utility.yul\":12791:12795   */\n      dup2\n        /* \"#utility.yul\":12787:12802   */\n      add\n        /* \"#utility.yul\":12779:12802   */\n      swap1\n      pop\n        /* \"#utility.yul\":12501:12809   */\n      swap2\n      swap1\n      pop\n      jump\t// out\n        /* \"#utility.yul\":12815:12914   */\n    tag_314:\n        /* \"#utility.yul\":12867:12873   */\n      0x00\n        /* \"#utility.yul\":12901:12906   */\n      dup2\n        /* \"#utility.yul\":12895:12907   */\n      mload\n        /* \"#utility.yul\":12885:12907   */\n      swap1\n      pop\n        /* \"#utility.yul\":12815:12914   */\n      swap2\n      swap1\n      pop\n      jump\t// out\n        /* \"#utility.yul\":12920:13089   */\n    tag_316:\n        /* \"#utility.yul\":13004:13015   */\n      0x00\n        /* \"#utility.yul\":13038:13044   */\n      dup3\n        /* \"#utility.yul\":13033:13036   */\n      dup3\n        /* \"#utility.yul\":13026:13045   */\n      mstore\n        /* \"#utility.yul\":13078:13082   */\n      0x20\n        /* \"#utility.yul\":13073:13076   */\n      dup3\n        /* \"#utility.yul\":13069:13083   */\n      add\n        /* \"#utility.yul\":13054:13083   */\n      swap1\n      pop\n        /* \"#utility.yul\":12920:13089   */\n      swap3\n      swap2\n      pop\n      pop\n      jump\t// out\n        /* \"#utility.yul\":13095:13400   */\n    tag_156:\n        /* \"#utility.yul\":13135:13138   */\n      0x00\n        /* \"#utility.yul\":13154:13174   */\n      tag_371\n        /* \"#utility.yul\":13172:13173   */\n      dup3\n        /* \"#utility.yul\":13154:13174   */\n      tag_339\n      jump\t// in\n    tag_371:\n        /* \"#utility.yul\":13149:13174   */\n      swap2\n      pop\n        /* \"#utility.yul\":13188:13208   */\n      tag_372\n        /* \"#utility.yul\":13206:13207   */\n      dup4\n        /* \"#utility.yul\":13188:13208   */\n      tag_339\n      jump\t// in\n    tag_372:\n        /* \"#utility.yul\":13183:13208   */\n      swap3\n      pop\n        /* \"#utility.yul\":13342:13343   */\n      dup3\n        /* \"#utility.yul\":13274:13340   */\n      0xffffffffffffffffffffffffffffffffffffffffffffffffffffffffffffffff\n        /* \"#utility.yul\":13270:13344   */\n      sub\n        /* \"#utility.yul\":13267:13268   */\n      dup3\n        /* \"#utility.yul\":13264:13345   */\n      gt\n        /* \"#utility.yul\":13261:13368   */\n      iszero\n      tag_373\n      jumpi\n        /* \"#utility.yul\":13348:13366   */\n      tag_374\n      tag_375\n      jump\t// in\n    tag_374:\n        /* \"#utility.yul\":13261:13368   */\n    tag_373:\n        /* \"#utility.yul\":13392:13393   */\n      dup3\n        /* \"#utility.yul\":13389:13390   */\n      dup3\n        /* \"#utility.yul\":13385:13394   */\n      add\n        /* \"#utility.yul\":13378:13394   */\n      swap1\n      pop\n        /* \"#utility.yul\":13095:13400   */\n      swap3\n      swap2\n      pop\n      pop\n      jump\t// out\n        /* \"#utility.yul\":13406:13591   */\n    tag_179:\n        /* \"#utility.yul\":13446:13447   */\n      0x00\n        /* \"#utility.yul\":13463:13483   */\n      tag_377\n        /* \"#utility.yul\":13481:13482   */\n      dup3\n        /* \"#utility.yul\":13463:13483   */\n      tag_339\n      jump\t// in\n    tag_377:\n        /* \"#utility.yul\":13458:13483   */\n      swap2\n      pop\n        /* \"#utility.yul\":13497:13517   */\n      tag_378\n        /* \"#utility.yul\":13515:13516   */\n      dup4\n        /* \"#utility.yul\":13497:13517   */\n      tag_339\n      jump\t// in\n    tag_378:\n        /* \"#utility.yul\":13492:13517   */\n      swap3\n      pop\n        /* \"#utility.yul\":13536:13537   */\n      dup3\n        /* \"#utility.yul\":13526:13561   */\n      tag_379\n      jumpi\n        /* \"#utility.yul\":13541:13559   */\n      tag_380\n      tag_381\n      jump\t// in\n    tag_380:\n        /* \"#utility.yul\":13526:13561   */\n    tag_379:\n        /* \"#utility.yul\":13583:13584   */\n      dup3\n        /* \"#utility.yul\":13580:13581   */\n      dup3\n        /* \"#utility.yul\":13576:13585   */\n      div\n        /* \"#utility.yul\":13571:13585   */\n      swap1\n      pop\n        /* \"#utility.yul\":13406:13591   */\n      swap3\n      swap2\n      pop\n      pop\n      jump\t// out\n        /* \"#utility.yul\":13597:13788   */\n    tag_154:\n        /* \"#utility.yul\":13637:13641   */\n      0x00\n        /* \"#utility.yul\":13657:13677   */\n      tag_383\n        /* \"#utility.yul\":13675:13676   */\n      dup3\n        /* \"#utility.yul\":13657:13677   */\n      tag_339\n      jump\t// in\n    tag_383:\n        /* \"#utility.yul\":13652:13677   */\n      swap2\n      pop\n        /* \"#utility.yul\":13691:13711   */\n      tag_384\n        /* \"#utility.yul\":13709:13710   */\n      dup4\n        /* \"#utility.yul\":13691:13711   */\n      tag_339\n      jump\t// in\n    tag_384:\n        /* \"#utility.yul\":13686:13711   */\n      swap3\n      pop\n        /* \"#utility.yul\":13730:13731   */\n      dup3\n        /* \"#utility.yul\":13727:13728   */\n      dup3\n        /* \"#utility.yul\":13724:13732   */\n      lt\n        /* \"#utility.yul\":13721:13755   */\n      iszero\n      tag_385\n      jumpi\n        /* \"#utility.yul\":13735:13753   */\n      tag_386\n      tag_375\n      jump\t// in\n    tag_386:\n        /* \"#utility.yul\":13721:13755   */\n    tag_385:\n        /* \"#utility.yul\":13780:13781   */\n      dup3\n        /* \"#utility.yul\":13777:13778   */\n      dup3\n        /* \"#utility.yul\":13773:13782   */\n      sub\n        /* \"#utility.yul\":13765:13782   */\n      swap1\n      pop\n        /* \"#utility.yul\":13597:13788   */\n      swap3\n      swap2\n      pop\n      pop\n      jump\t// out\n        /* \"#utility.yul\":13794:13890   */\n    tag_387:\n        /* \"#utility.yul\":13831:13838   */\n      0x00\n        /* \"#utility.yul\":13860:13884   */\n      tag_389\n        /* \"#utility.yul\":13878:13883   */\n      dup3\n        /* \"#utility.yul\":13860:13884   */\n      tag_390\n      jump\t// in\n    tag_389:\n        /* \"#utility.yul\":13849:13884   */\n      swap1\n      pop\n        /* \"#utility.yul\":13794:13890   */\n      swap2\n      swap1\n      pop\n      jump\t// out\n        /* \"#utility.yul\":13896:14000   */\n    tag_302:\n        /* \"#utility.yul\":13941:13948   */\n      0x00\n        /* \"#utility.yul\":13970:13994   */\n      tag_392\n        /* \"#utility.yul\":13988:13993   */\n      dup3\n        /* \"#utility.yul\":13970:13994   */\n      tag_390\n      jump\t// in\n    tag_392:\n        /* \"#utility.yul\":13959:13994   */\n      swap1\n      pop\n        /* \"#utility.yul\":13896:14000   */\n      swap2\n      swap1\n      pop\n      jump\t// out\n        /* \"#utility.yul\":14006:14096   */\n    tag_306:\n        /* \"#utility.yul\":14040:14047   */\n      0x00\n        /* \"#utility.yul\":14083:14088   */\n      dup2\n        /* \"#utility.yul\":14076:14089   */\n      iszero\n        /* \"#utility.yul\":14069:14090   */\n      iszero\n        /* \"#utility.yul\":14058:14090   */\n      swap1\n      pop\n        /* \"#utility.yul\":14006:14096   */\n      swap2\n      swap1\n      pop\n      jump\t// out\n        /* \"#utility.yul\":14102:14227   */\n    tag_394:\n        /* \"#utility.yul\":14146:14153   */\n      0x00\n        /* \"#utility.yul\":14175:14180   */\n      dup2\n        /* \"#utility.yul\":14164:14180   */\n      swap1\n      pop\n        /* \"#utility.yul\":14181:14221   */\n      tag_396\n        /* \"#utility.yul\":14215:14220   */\n      dup3\n        /* \"#utility.yul\":14181:14221   */\n      tag_397\n      jump\t// in\n    tag_396:\n        /* \"#utility.yul\":14102:14227   */\n      swap2\n      swap1\n      pop\n      jump\t// out\n        /* \"#utility.yul\":14233:14309   */\n    tag_398:\n        /* \"#utility.yul\":14269:14276   */\n      0x00\n        /* \"#utility.yul\":14298:14303   */\n      dup2\n        /* \"#utility.yul\":14287:14303   */\n      swap1\n      pop\n        /* \"#utility.yul\":14233:14309   */\n      swap2\n      swap1\n      pop\n      jump\t// out\n        /* \"#utility.yul\":14315:14441   */\n    tag_390:\n        /* \"#utility.yul\":14352:14359   */\n      0x00\n        /* \"#utility.yul\":14392:14434   */\n      0xffffffffffffffffffffffffffffffffffffffff\n        /* \"#utility.yul\":14385:14390   */\n      dup3\n        /* \"#utility.yul\":14381:14435   */\n      and\n        /* \"#utility.yul\":14370:14435   */\n      swap1\n      pop\n        /* \"#utility.yul\":14315:14441   */\n      swap2\n      swap1\n      pop\n      jump\t// out\n        /* \"#utility.yul\":14447:14524   */\n    tag_339:\n        /* \"#utility.yul\":14484:14491   */\n      0x00\n        /* \"#utility.yul\":14513:14518   */\n      dup2\n        /* \"#utility.yul\":14502:14518   */\n      swap1\n      pop\n        /* \"#utility.yul\":14447:14524   */\n      swap2\n      swap1\n      pop\n      jump\t// out\n        /* \"#utility.yul\":14530:14655   */\n    tag_310:\n        /* \"#utility.yul\":14585:14594   */\n      0x00\n        /* \"#utility.yul\":14618:14649   */\n      tag_403\n        /* \"#utility.yul\":14643:14648   */\n      dup3\n        /* \"#utility.yul\":14618:14649   */\n      tag_394\n      jump\t// in\n    tag_403:\n        /* \"#utility.yul\":14605:14649   */\n      swap1\n      pop\n        /* \"#utility.yul\":14530:14655   */\n      swap2\n      swap1\n      pop\n      jump\t// out\n        /* \"#utility.yul\":14661:14815   */\n    tag_214:\n        /* \"#utility.yul\":14745:14751   */\n      dup3\n        /* \"#utility.yul\":14740:14743   */\n      dup2\n        /* \"#utility.yul\":14735:14738   */\n      dup4\n        /* \"#utility.yul\":14722:14752   */\n      calldatacopy\n        /* \"#utility.yul\":14807:14808   */\n      0x00\n        /* \"#utility.yul\":14798:14804   */\n      dup4\n        /* \"#utility.yul\":14793:14796   */\n      dup4\n        /* \"#utility.yul\":14789:14805   */\n      add\n        /* \"#utility.yul\":14782:14809   */\n      mstore\n        /* \"#utility.yul\":14661:14815   */\n      pop\n      pop\n      pop\n      jump\t// out\n        /* \"#utility.yul\":14821:15128   */\n    tag_318:\n        /* \"#utility.yul\":14889:14890   */\n      0x00\n        /* \"#utility.yul\":14899:15012   */\n    tag_406:\n        /* \"#utility.yul\":14913:14919   */\n      dup4\n        /* \"#utility.yul\":14910:14911   */\n      dup2\n        /* \"#utility.yul\":14907:14920   */\n      lt\n        /* \"#utility.yul\":14899:15012   */\n      iszero\n      tag_408\n      jumpi\n        /* \"#utility.yul\":14998:14999   */\n      dup1\n        /* \"#utility.yul\":14993:14996   */\n      dup3\n        /* \"#utility.yul\":14989:15000   */\n      add\n        /* \"#utility.yul\":14983:15001   */\n      mload\n        /* \"#utility.yul\":14979:14980   */\n      dup2\n        /* \"#utility.yul\":14974:14977   */\n      dup5\n        /* \"#utility.yul\":14970:14981   */\n      add\n        /* \"#utility.yul\":14963:15002   */\n      mstore\n        /* \"#utility.yul\":14935:14937   */\n      0x20\n        /* \"#utility.yul\":14932:14933   */\n      dup2\n        /* \"#utility.yul\":14928:14938   */\n      add\n        /* \"#utility.yul\":14923:14938   */\n      swap1\n      pop\n        /* \"#utility.yul\":14899:15012   */\n      jump(tag_406)\n    tag_408:\n        /* \"#utility.yul\":15030:15036   */\n      dup4\n        /* \"#utility.yul\":15027:15028   */\n      dup2\n        /* \"#utility.yul\":15024:15037   */\n      gt\n        /* \"#utility.yul\":15021:15122   */\n      iszero\n      tag_409\n      jumpi\n        /* \"#utility.yul\":15110:15111   */\n      0x00\n        /* \"#utility.yul\":15101:15107   */\n      dup5\n        /* \"#utility.yul\":15096:15099   */\n      dup5\n        /* \"#utility.yul\":15092:15108   */\n      add\n        /* \"#utility.yul\":15085:15112   */\n      mstore\n        /* \"#utility.yul\":15021:15122   */\n    tag_409:\n        /* \"#utility.yul\":14870:15128   */\n      pop\n        /* \"#utility.yul\":14821:15128   */\n      pop\n      pop\n      pop\n      jump\t// out\n        /* \"#utility.yul\":15134:15454   */\n    tag_83:\n        /* \"#utility.yul\":15178:15184   */\n      0x00\n        /* \"#utility.yul\":15215:15216   */\n      0x02\n        /* \"#utility.yul\":15209:15213   */\n      dup3\n        /* \"#utility.yul\":15205:15217   */\n      div\n        /* \"#utility.yul\":15195:15217   */\n      swap1\n      pop\n        /* \"#utility.yul\":15262:15263   */\n      0x01\n        /* \"#utility.yul\":15256:15260   */\n      dup3\n        /* \"#utility.yul\":15252:15264   */\n      and\n        /* \"#utility.yul\":15283:15301   */\n      dup1\n        /* \"#utility.yul\":15273:15354   */\n      tag_411\n      jumpi\n        /* \"#utility.yul\":15339:15343   */\n      0x7f\n        /* \"#utility.yul\":15331:15337   */\n      dup3\n        /* \"#utility.yul\":15327:15344   */\n      and\n        /* \"#utility.yul\":15317:15344   */\n      swap2\n      pop\n        /* \"#utility.yul\":15273:15354   */\n    tag_411:\n        /* \"#utility.yul\":15401:15403   */\n      0x20\n        /* \"#utility.yul\":15393:15399   */\n      dup3\n        /* \"#utility.yul\":15390:15404   */\n      lt\n        /* \"#utility.yul\":15370:15388   */\n      dup2\n        /* \"#utility.yul\":15367:15405   */\n      eq\n        /* \"#utility.yul\":15364:15448   */\n      iszero\n      tag_412\n      jumpi\n        /* \"#utility.yul\":15420:15438   */\n      tag_413\n      tag_414\n      jump\t// in\n    tag_413:\n        /* \"#utility.yul\":15364:15448   */\n    tag_412:\n        /* \"#utility.yul\":15185:15454   */\n      pop\n        /* \"#utility.yul\":15134:15454   */\n      swap2\n      swap1\n      pop\n      jump\t// out\n        /* \"#utility.yul\":15460:15741   */\n    tag_361:\n        /* \"#utility.yul\":15543:15570   */\n      tag_416\n        /* \"#utility.yul\":15565:15569   */\n      dup3\n        /* \"#utility.yul\":15543:15570   */\n      tag_320\n      jump\t// in\n    tag_416:\n        /* \"#utility.yul\":15535:15541   */\n      dup2\n        /* \"#utility.yul\":15531:15571   */\n      add\n        /* \"#utility.yul\":15673:15679   */\n      dup2\n        /* \"#utility.yul\":15661:15671   */\n      dup2\n        /* \"#utility.yul\":15658:15680   */\n      lt\n        /* \"#utility.yul\":15637:15655   */\n      0xffffffffffffffff\n        /* \"#utility.yul\":15625:15635   */\n      dup3\n        /* \"#utility.yul\":15622:15656   */\n      gt\n        /* \"#utility.yul\":15619:15681   */\n      or\n        /* \"#utility.yul\":15616:15704   */\n      iszero\n      tag_417\n      jumpi\n        /* \"#utility.yul\":15684:15702   */\n      tag_418\n      tag_366\n      jump\t// in\n    tag_418:\n        /* \"#utility.yul\":15616:15704   */\n    tag_417:\n        /* \"#utility.yul\":15724:15734   */\n      dup1\n        /* \"#utility.yul\":15720:15722   */\n      0x40\n        /* \"#utility.yul\":15713:15735   */\n      mstore\n        /* \"#utility.yul\":15503:15741   */\n      pop\n        /* \"#utility.yul\":15460:15741   */\n      pop\n      pop\n      jump\t// out\n        /* \"#utility.yul\":15747:15927   */\n    tag_375:\n        /* \"#utility.yul\":15795:15872   */\n      0x4e487b7100000000000000000000000000000000000000000000000000000000\n        /* \"#utility.yul\":15792:15793   */\n      0x00\n        /* \"#utility.yul\":15785:15873   */\n      mstore\n        /* \"#utility.yul\":15892:15896   */\n      0x11\n        /* \"#utility.yul\":15889:15890   */\n      0x04\n        /* \"#utility.yul\":15882:15897   */\n      mstore\n        /* \"#utility.yul\":15916:15920   */\n      0x24\n        /* \"#utility.yul\":15913:15914   */\n      0x00\n        /* \"#utility.yul\":15906:15921   */\n      revert\n        /* \"#utility.yul\":15933:16113   */\n    tag_381:\n        /* \"#utility.yul\":15981:16058   */\n      0x4e487b7100000000000000000000000000000000000000000000000000000000\n        /* \"#utility.yul\":15978:15979   */\n      0x00\n        /* \"#utility.yul\":15971:16059   */\n      mstore\n        /* \"#utility.yul\":16078:16082   */\n      0x12\n        /* \"#utility.yul\":16075:16076   */\n      0x04\n        /* \"#utility.yul\":16068:16083   */\n      mstore\n        /* \"#utility.yul\":16102:16106   */\n      0x24\n        /* \"#utility.yul\":16099:16100   */\n      0x00\n        /* \"#utility.yul\":16092:16107   */\n      revert\n        /* \"#utility.yul\":16119:16299   */\n    tag_91:\n        /* \"#utility.yul\":16167:16244   */\n      0x4e487b7100000000000000000000000000000000000000000000000000000000\n        /* \"#utility.yul\":16164:16165   */\n      0x00\n        /* \"#utility.yul\":16157:16245   */\n      mstore\n        /* \"#utility.yul\":16264:16268   */\n      0x21\n        /* \"#utility.yul\":16261:16262   */\n      0x04\n        /* \"#utility.yul\":16254:16269   */\n      mstore\n        /* \"#utility.yul\":16288:16292   */\n      0x24\n        /* \"#utility.yul\":16285:16286   */\n      0x00\n        /* \"#utility.yul\":16278:16293   */\n      revert\n        /* \"#utility.yul\":16305:16485   */\n    tag_414:\n        /* \"#utility.yul\":16353:16430   */\n      0x4e487b7100000000000000000000000000000000000000000000000000000000\n        /* \"#utility.yul\":16350:16351   */\n      0x00\n        /* \"#utility.yul\":16343:16431   */\n      mstore\n        /* \"#utility.yul\":16450:16454   */\n      0x22\n        /* \"#utility.yul\":16447:16448   */\n      0x04\n        /* \"#utility.yul\":16440:16455   */\n      mstore\n        /* \"#utility.yul\":16474:16478   */\n      0x24\n        /* \"#utility.yul\":16471:16472   */\n      0x00\n        /* \"#utility.yul\":16464:16479   */\n      revert\n        /* \"#utility.yul\":16491:16671   */\n    tag_124:\n        /* \"#utility.yul\":16539:16616   */\n      0x4e487b7100000000000000000000000000000000000000000000000000000000\n        /* \"#utility.yul\":16536:16537   */\n      0x00\n        /* \"#utility.yul\":16529:16617   */\n      mstore\n        /* \"#utility.yul\":16636:16640   */\n      0x32\n        /* \"#utility.yul\":16633:16634   */\n      0x04\n        /* \"#utility.yul\":16626:16641   */\n      mstore\n        /* \"#utility.yul\":16660:16664   */\n      0x24\n        /* \"#utility.yul\":16657:16658   */\n      0x00\n        /* \"#utility.yul\":16650:16665   */\n      revert\n        /* \"#utility.yul\":16677:16857   */\n    tag_366:\n        /* \"#utility.yul\":16725:16802   */\n      0x4e487b7100000000000000000000000000000000000000000000000000000000\n        /* \"#utility.yul\":16722:16723   */\n      0x00\n        /* \"#utility.yul\":16715:16803   */\n      mstore\n        /* \"#utility.yul\":16822:16826   */\n      0x41\n        /* \"#utility.yul\":16819:16820   */\n      0x04\n        /* \"#utility.yul\":16812:16827   */\n      mstore\n        /* \"#utility.yul\":16846:16850   */\n      0x24\n        /* \"#utility.yul\":16843:16844   */\n      0x00\n        /* \"#utility.yul\":16836:16851   */\n      revert\n        /* \"#utility.yul\":16863:16980   */\n    tag_231:\n        /* \"#utility.yul\":16972:16973   */\n      0x00\n        /* \"#utility.yul\":16969:16970   */\n      dup1\n        /* \"#utility.yul\":16962:16974   */\n      revert\n        /* \"#utility.yul\":16986:17103   */\n    tag_212:\n        /* \"#utility.yul\":17095:17096   */\n      0x00\n        /* \"#utility.yul\":17092:17093   */\n      dup1\n        /* \"#utility.yul\":17085:17097   */\n      revert\n        /* \"#utility.yul\":17109:17226   */\n    tag_249:\n        /* \"#utility.yul\":17218:17219   */\n      0x00\n        /* \"#utility.yul\":17215:17216   */\n      dup1\n        /* \"#utility.yul\":17208:17220   */\n      revert\n        /* \"#utility.yul\":17232:17349   */\n    tag_240:\n        /* \"#utility.yul\":17341:17342   */\n      0x00\n        /* \"#utility.yul\":17338:17339   */\n      dup1\n        /* \"#utility.yul\":17331:17343   */\n      revert\n        /* \"#utility.yul\":17355:17457   */\n    tag_320:\n        /* \"#utility.yul\":17396:17402   */\n      0x00\n        /* \"#utility.yul\":17447:17449   */\n      0x1f\n        /* \"#utility.yul\":17443:17450   */\n      not\n        /* \"#utility.yul\":17438:17440   */\n      0x1f\n        /* \"#utility.yul\":17431:17436   */\n      dup4\n        /* \"#utility.yul\":17427:17441   */\n      add\n        /* \"#utility.yul\":17423:17451   */\n      and\n        /* \"#utility.yul\":17413:17451   */\n      swap1\n      pop\n        /* \"#utility.yul\":17355:17457   */\n      swap2\n      swap1\n      pop\n      jump\t// out\n        /* \"#utility.yul\":17463:17641   */\n    tag_325:\n        /* \"#utility.yul\":17603:17633   */\n      0x63616c6c6572206973206e6f742061206469737472696275746f722e00000000\n        /* \"#utility.yul\":17599:17600   */\n      0x00\n        /* \"#utility.yul\":17591:17597   */\n      dup3\n        /* \"#utility.yul\":17587:17601   */\n      add\n        /* \"#utility.yul\":17580:17634   */\n      mstore\n        /* \"#utility.yul\":17463:17641   */\n      pop\n      jump\t// out\n        /* \"#utility.yul\":17647:17822   */\n    tag_330:\n        /* \"#utility.yul\":17787:17814   */\n      0x63616c6c6572206973206e6f7420612070726f64756365722e00000000000000\n        /* \"#utility.yul\":17783:17784   */\n      0x00\n        /* \"#utility.yul\":17775:17781   */\n      dup3\n        /* \"#utility.yul\":17771:17785   */\n      add\n        /* \"#utility.yul\":17764:17815   */\n      mstore\n        /* \"#utility.yul\":17647:17822   */\n      pop\n      jump\t// out\n        /* \"#utility.yul\":17828:18008   */\n    tag_335:\n        /* \"#utility.yul\":17968:18000   */\n      0x63616c6c6572206973206e6f742074686520746f6b656e206f776e65722e0000\n        /* \"#utility.yul\":17964:17965   */\n      0x00\n        /* \"#utility.yul\":17956:17962   */\n      dup3\n        /* \"#utility.yul\":17952:17966   */\n      add\n        /* \"#utility.yul\":17945:18001   */\n      mstore\n        /* \"#utility.yul\":17828:18008   */\n      pop\n      jump\t// out\n        /* \"#utility.yul\":18014:18126   */\n    tag_397:\n        /* \"#utility.yul\":18094:18095   */\n      0x05\n        /* \"#utility.yul\":18087:18092   */\n      dup2\n        /* \"#utility.yul\":18084:18096   */\n      lt\n        /* \"#utility.yul\":18074:18120   */\n      tag_434\n      jumpi\n        /* \"#utility.yul\":18100:18118   */\n      tag_435\n      tag_91\n      jump\t// in\n    tag_435:\n        /* \"#utility.yul\":18074:18120   */\n    tag_434:\n        /* \"#utility.yul\":18014:18126   */\n      pop\n      jump\t// out\n        /* \"#utility.yul\":18132:18254   */\n    tag_218:\n        /* \"#utility.yul\":18205:18229   */\n      tag_437\n        /* \"#utility.yul\":18223:18228   */\n      dup2\n        /* \"#utility.yul\":18205:18229   */\n      tag_387\n      jump\t// in\n    tag_437:\n        /* \"#utility.yul\":18198:18203   */\n      dup2\n        /* \"#utility.yul\":18195:18230   */\n      eq\n        /* \"#utility.yul\":18185:18248   */\n      tag_438\n      jumpi\n        /* \"#utility.yul\":18244:18245   */\n      0x00\n        /* \"#utility.yul\":18241:18242   */\n      dup1\n        /* \"#utility.yul\":18234:18246   */\n      revert\n        /* \"#utility.yul\":18185:18248   */\n    tag_438:\n        /* \"#utility.yul\":18132:18254   */\n      pop\n      jump\t// out\n        /* \"#utility.yul\":18260:18366   */\n    tag_222:\n        /* \"#utility.yul\":18340:18341   */\n      0x05\n        /* \"#utility.yul\":18333:18338   */\n      dup2\n        /* \"#utility.yul\":18330:18342   */\n      lt\n        /* \"#utility.yul\":18320:18360   */\n      tag_440\n      jumpi\n        /* \"#utility.yul\":18356:18357   */\n      0x00\n        /* \"#utility.yul\":18353:18354   */\n      dup1\n        /* \"#utility.yul\":18346:18358   */\n      revert\n        /* \"#utility.yul\":18320:18360   */\n    tag_440:\n        /* \"#utility.yul\":18260:18366   */\n      pop\n      jump\t// out\n        /* \"#utility.yul\":18372:18492   */\n    tag_226:\n        /* \"#utility.yul\":18444:18467   */\n      tag_442\n        /* \"#utility.yul\":18461:18466   */\n      dup2\n        /* \"#utility.yul\":18444:18467   */\n      tag_398\n      jump\t// in\n    tag_442:\n        /* \"#utility.yul\":18437:18442   */\n      dup2\n        /* \"#utility.yul\":18434:18468   */\n      eq\n        /* \"#utility.yul\":18424:18486   */\n      tag_443\n      jumpi\n        /* \"#utility.yul\":18482:18483   */\n      0x00\n        /* \"#utility.yul\":18479:18480   */\n      dup1\n        /* \"#utility.yul\":18472:18484   */\n      revert\n        /* \"#utility.yul\":18424:18486   */\n    tag_443:\n        /* \"#utility.yul\":18372:18492   */\n      pop\n      jump\t// out\n        /* \"#utility.yul\":18498:18620   */\n    tag_236:\n        /* \"#utility.yul\":18571:18595   */\n      tag_445\n        /* \"#utility.yul\":18589:18594   */\n      dup2\n        /* \"#utility.yul\":18571:18595   */\n      tag_339\n      jump\t// in\n    tag_445:\n        /* \"#utility.yul\":18564:18569   */\n      dup2\n        /* \"#utility.yul\":18561:18596   */\n      eq\n        /* \"#utility.yul\":18551:18614   */\n      tag_446\n      jumpi\n        /* \"#utility.yul\":18610:18611   */\n      0x00\n        /* \"#utility.yul\":18607:18608   */\n      dup1\n        /* \"#utility.yul\":18600:18612   */\n      revert\n        /* \"#utility.yul\":18551:18614   */\n    tag_446:\n        /* \"#utility.yul\":18498:18620   */\n      pop\n      jump\t// out\n\n    auxdata: 0xa2646970667358221220bf24a29c67665c85c918f71b4774a4975f7aee49a48f3347c75c87f81870692b64736f6c63430008070033\n}\n",
				"bytecode": {
					"linkReferences": {},
					"object": "60806040523480156200001157600080fd5b506040516200234538038062002345833981810160405281019062000037919062000243565b82600090805190602001906200004f929190620000fe565b50816001908051906020019062000068929190620000fe565b508060038190555033600260006101000a81548173ffffffffffffffffffffffffffffffffffffffff021916908373ffffffffffffffffffffffffffffffffffffffff16021790555080600460003373ffffffffffffffffffffffffffffffffffffffff1673ffffffffffffffffffffffffffffffffffffffff1681526020019081526020016000208190555050505062000485565b8280546200010c906200037c565b90600052602060002090601f0160209004810192826200013057600085556200017c565b82601f106200014b57805160ff19168380011785556200017c565b828001600101855582156200017c579182015b828111156200017b5782518255916020019190600101906200015e565b5b5090506200018b91906200018f565b5090565b5b80821115620001aa57600081600090555060010162000190565b5090565b6000620001c5620001bf8462000306565b620002dd565b905082815260208101848484011115620001e457620001e36200044b565b5b620001f184828562000346565b509392505050565b600082601f83011262000211576200021062000446565b5b815162000223848260208601620001ae565b91505092915050565b6000815190506200023d816200046b565b92915050565b6000806000606084860312156200025f576200025e62000455565b5b600084015167ffffffffffffffff81111562000280576200027f62000450565b5b6200028e86828701620001f9565b935050602084015167ffffffffffffffff811115620002b257620002b162000450565b5b620002c086828701620001f9565b9250506040620002d3868287016200022c565b9150509250925092565b6000620002e9620002fc565b9050620002f78282620003b2565b919050565b6000604051905090565b600067ffffffffffffffff82111562000324576200032362000417565b5b6200032f826200045a565b9050602081019050919050565b6000819050919050565b60005b838110156200036657808201518184015260208101905062000349565b8381111562000376576000848401525b50505050565b600060028204905060018216806200039557607f821691505b60208210811415620003ac57620003ab620003e8565b5b50919050565b620003bd826200045a565b810181811067ffffffffffffffff82111715620003df57620003de62000417565b5b80604052505050565b7f4e487b7100000000000000000000000000000000000000000000000000000000600052602260045260246000fd5b7f4e487b7100000000000000000000000000000000000000000000000000000000600052604160045260246000fd5b600080fd5b600080fd5b600080fd5b600080fd5b6000601f19601f8301169050919050565b62000476816200033c565b81146200048257600080fd5b50565b611eb080620004956000396000f3fe6080604052600436106100c25760003560e01c80639dc29fac1161007f578063a482171911610059578063a482171914610252578063b292abf11461025c578063cd0c58961461029a578063eedc966a146102d7576100c2565b80639dc29fac146101d5578063a0712d68146101fe578063a3e6761014610227576100c2565b806306fdde03146100c757806340932fc2146100f257806345091a601461011b578063561e0e981461014457806368cdafe61461016d57806395d89b41146101aa575b600080fd5b3480156100d357600080fd5b506100dc610314565b6040516100e9919061195f565b60405180910390f35b3480156100fe57600080fd5b50610119600480360381019061011491906114e9565b6103a2565b005b34801561012757600080fd5b50610142600480360381019061013d91906115c5565b6105d8565b005b34801561015057600080fd5b5061016b60048036038101906101669190611678565b6108a2565b005b34801561017957600080fd5b50610194600480360381019061018f9190611558565b610bee565b6040516101a19190611914565b60405180910390f35b3480156101b657600080fd5b506101bf610d2c565b6040516101cc919061195f565b60405180910390f35b3480156101e157600080fd5b506101fc60048036038101906101f79190611558565b610dba565b005b34801561020a57600080fd5b5061022560048036038101906102209190611598565b610f43565b005b34801561023357600080fd5b5061023c611045565b60405161024991906118f9565b60405180910390f35b61025a61106b565b005b34801561026857600080fd5b50610283600480360381019061027e91906114bc565b6111c3565b60405161029192919061192f565b60405180910390f35b3480156102a657600080fd5b506102c160048036038101906102bc91906114bc565b6112eb565b6040516102ce91906119e1565b60405180910390f35b3480156102e357600080fd5b506102fe60048036038101906102f991906114bc565b61130c565b60405161030b91906119e1565b60405180910390f35b6000805461032190611bf4565b80601f016020809104026020016040519081016040528092919081815260200182805461034d90611bf4565b801561039a5780601f1061036f5761010080835404028352916020019161039a565b820191906000526020600020905b81548152906001019060200180831161037d57829003601f168201915b505050505081565b6000600560008573ffffffffffffffffffffffffffffffffffffffff1673ffffffffffffffffffffffffffffffffffffffff1681526020019081526020016000206040518060600160405290816000820160009054906101000a900460ff16600481111561041357610412611cb5565b5b600481111561042557610424611cb5565b5b815260200160018201805461043990611bf4565b80601f016020809104026020016040519081016040528092919081815260200182805461046590611bf4565b80156104b25780601f10610487576101008083540402835291602001916104b2565b820191906000526020600020905b81548152906001019060200180831161049557829003601f168201915b505050505081526020016002820160009054906101000a900460ff161515151581525050905082816000019060048111156104f0576104ef611cb5565b5b9081600481111561050457610503611cb5565b5b81525050818160200181905250600181604001901515908115158152505080600560008673ffffffffffffffffffffffffffffffffffffffff1673ffffffffffffffffffffffffffffffffffffffff16815260200190815260200160002060008201518160000160006101000a81548160ff0219169083600481111561058d5761058c611cb5565b5b021790555060208201518160010190805190602001906105ae929190611355565b5060408201518160020160006101000a81548160ff02191690831515021790555090505050505050565b600160048111156105ec576105eb611cb5565b5b600560003373ffffffffffffffffffffffffffffffffffffffff1673ffffffffffffffffffffffffffffffffffffffff16815260200190815260200160002060000160009054906101000a900460ff16600481111561064e5761064d611cb5565b5b1461068e576040517f08c379a000000000000000000000000000000000000000000000000000000000815260040161068590611981565b60405180910390fd5b60006006600087815260200190815260200160002090506000600460003373ffffffffffffffffffffffffffffffffffffffff1673ffffffffffffffffffffffffffffffffffffffff16815260200190815260200160002054905081600801548110156106fa57600080fd5b6000600581111561070e5761070d611cb5565b5b8260070160009054906101000a900460ff16600581111561073257610731611cb5565b5b1461073c57600080fd5b856006600089815260200190815260200160002060030160016004811061076657610765611d13565b5b0181905550336006600089815260200190815260200160002060090160006101000a81548173ffffffffffffffffffffffffffffffffffffffff021916908373ffffffffffffffffffffffffffffffffffffffff1602179055506108046006600089815260200190815260200160002060010160009054906101000a900473ffffffffffffffffffffffffffffffffffffffff168360080154610bee565b5060056006600089815260200190815260200160002060070160006101000a81548160ff0219169083600581111561083f5761083e611cb5565b5b0217905550336006600089815260200190815260200160002060010160006101000a81548173ffffffffffffffffffffffffffffffffffffffff021916908373ffffffffffffffffffffffffffffffffffffffff16021790555050505050505050565b600060048111156108b6576108b5611cb5565b5b600560003373ffffffffffffffffffffffffffffffffffffffff1673ffffffffffffffffffffffffffffffffffffffff16815260200190815260200160002060000160009054906101000a900460ff16600481111561091857610917611cb5565b5b14610958576040517f08c379a000000000000000000000000000000000000000000000000000000000815260040161094f906119a1565b60405180910390fd5b6000600660008c815260200190815260200160002090508a8160000181905550338160010160006101000a81548173ffffffffffffffffffffffffffffffffffffffff021916908373ffffffffffffffffffffffffffffffffffffffff160217905550338160020160006101000a81548173ffffffffffffffffffffffffffffffffffffffff021916908373ffffffffffffffffffffffffffffffffffffffff1602179055508981600301600060048110610a1657610a15611d13565b5b018190555060008160070160006101000a81548160ff02191690836005811115610a4357610a42611cb5565b5b021790555088816008018190555060008160090160006101000a81548173ffffffffffffffffffffffffffffffffffffffff021916908373ffffffffffffffffffffffffffffffffffffffff160217905550600081600a0160006101000a81548173ffffffffffffffffffffffffffffffffffffffff021916908373ffffffffffffffffffffffffffffffffffffffff160217905550600081600b0160006101000a81548173ffffffffffffffffffffffffffffffffffffffff021916908373ffffffffffffffffffffffffffffffffffffffff1602179055508781600c016000019080519060200190610b38929190611355565b508681600c016001019080519060200190610b54929190611355565b508581600c016002019080519060200190610b70929190611355565b508481600c016003019080519060200190610b8c929190611355565b508381600c016004019080519060200190610ba8929190611355565b508281600c016005019080519060200190610bc4929190611355565b508181600c016006019080519060200190610be0929190611355565b505050505050505050505050565b600081600460003373ffffffffffffffffffffffffffffffffffffffff1673ffffffffffffffffffffffffffffffffffffffff168152602001908152602001600020541015610c3c57600080fd5b600073ffffffffffffffffffffffffffffffffffffffff168373ffffffffffffffffffffffffffffffffffffffff161415610c7657600080fd5b81600460003373ffffffffffffffffffffffffffffffffffffffff1673ffffffffffffffffffffffffffffffffffffffff1681526020019081526020016000206000828254610cc59190611af5565b9250508190555081600460008573ffffffffffffffffffffffffffffffffffffffff1673ffffffffffffffffffffffffffffffffffffffff1681526020019081526020016000206000828254610d1b9190611a6e565b925050819055506001905092915050565b60018054610d3990611bf4565b80601f0160208091040260200160405190810160405280929190818152602001828054610d6590611bf4565b8015610db25780601f10610d8757610100808354040283529160200191610db2565b820191906000526020600020905b815481529060010190602001808311610d9557829003601f168201915b505050505081565b600260009054906101000a900473ffffffffffffffffffffffffffffffffffffffff1673ffffffffffffffffffffffffffffffffffffffff163373ffffffffffffffffffffffffffffffffffffffff1614610e4a576040517f08c379a0000000000000000000000000000000000000000000000000000000008152600401610e41906119c1565b60405180910390fd5b600073ffffffffffffffffffffffffffffffffffffffff168273ffffffffffffffffffffffffffffffffffffffff161415610e8457600080fd5b600460008373ffffffffffffffffffffffffffffffffffffffff1673ffffffffffffffffffffffffffffffffffffffff16815260200190815260200160002054811115610ed057600080fd5b8060036000828254610ee29190611af5565b9250508190555080600460008473ffffffffffffffffffffffffffffffffffffffff1673ffffffffffffffffffffffffffffffffffffffff1681526020019081526020016000206000828254610f389190611af5565b925050819055505050565b600260009054906101000a900473ffffffffffffffffffffffffffffffffffffffff1673ffffffffffffffffffffffffffffffffffffffff163373ffffffffffffffffffffffffffffffffffffffff1614610fd3576040517f08c379a0000000000000000000000000000000000000000000000000000000008152600401610fca906119c1565b60405180910390fd5b8060036000828254610fe59190611a6e565b9250508190555080600460003373ffffffffffffffffffffffffffffffffffffffff1673ffffffffffffffffffffffffffffffffffffffff168152602001908152602001600020600082825461103b9190611a6e565b9250508190555050565b600260009054906101000a900473ffffffffffffffffffffffffffffffffffffffff1681565b600060643461107a9190611ac4565b90506000341161108957600080fd5b600260009054906101000a900473ffffffffffffffffffffffffffffffffffffffff1673ffffffffffffffffffffffffffffffffffffffff166108fc349081150290604051600060405180830381858888f193505050501580156110f1573d6000803e3d6000fd5b508060046000600260009054906101000a900473ffffffffffffffffffffffffffffffffffffffff1673ffffffffffffffffffffffffffffffffffffffff1673ffffffffffffffffffffffffffffffffffffffff16815260200190815260200160002060008282546111639190611af5565b9250508190555080600460003373ffffffffffffffffffffffffffffffffffffffff1673ffffffffffffffffffffffffffffffffffffffff16815260200190815260200160002060008282546111b99190611a6e565b9250508190555050565b60006060600560008473ffffffffffffffffffffffffffffffffffffffff1673ffffffffffffffffffffffffffffffffffffffff16815260200190815260200160002060000160009054906101000a900460ff169150600560008473ffffffffffffffffffffffffffffffffffffffff1673ffffffffffffffffffffffffffffffffffffffff168152602001908152602001600020600101805461126690611bf4565b80601f016020809104026020016040519081016040528092919081815260200182805461129290611bf4565b80156112df5780601f106112b4576101008083540402835291602001916112df565b820191906000526020600020905b8154815290600101906020018083116112c257829003601f168201915b50505050509050915091565b60008173ffffffffffffffffffffffffffffffffffffffff16319050919050565b6000600460008373ffffffffffffffffffffffffffffffffffffffff1673ffffffffffffffffffffffffffffffffffffffff168152602001908152602001600020549050919050565b82805461136190611bf4565b90600052602060002090601f01602090048101928261138357600085556113ca565b82601f1061139c57805160ff19168380011785556113ca565b828001600101855582156113ca579182015b828111156113c95782518255916020019190600101906113ae565b5b5090506113d791906113db565b5090565b5b808211156113f45760008160009055506001016113dc565b5090565b600061140b61140684611a21565b6119fc565b90508281526020810184848401111561142757611426611d76565b5b611432848285611bb2565b509392505050565b60008135905061144981611e25565b92915050565b60008135905061145e81611e3c565b92915050565b60008135905061147381611e4c565b92915050565b600082601f83011261148e5761148d611d71565b5b813561149e8482602086016113f8565b91505092915050565b6000813590506114b681611e63565b92915050565b6000602082840312156114d2576114d1611d80565b5b60006114e08482850161143a565b91505092915050565b60008060006060848603121561150257611501611d80565b5b60006115108682870161143a565b93505060206115218682870161144f565b925050604084013567ffffffffffffffff81111561154257611541611d7b565b5b61154e86828701611479565b9150509250925092565b6000806040838503121561156f5761156e611d80565b5b600061157d8582860161143a565b925050602061158e858286016114a7565b9150509250929050565b6000602082840312156115ae576115ad611d80565b5b60006115bc848285016114a7565b91505092915050565b600080600080600060a086880312156115e1576115e0611d80565b5b60006115ef888289016114a7565b9550506020611600888289016114a7565b945050604086013567ffffffffffffffff81111561162157611620611d7b565b5b61162d88828901611479565b935050606086013567ffffffffffffffff81111561164e5761164d611d7b565b5b61165a88828901611479565b925050608061166b88828901611464565b9150509295509295909350565b6000806000806000806000806000806101408b8d03121561169c5761169b611d80565b5b60006116aa8d828e016114a7565b9a505060206116bb8d828e016114a7565b99505060406116cc8d828e016114a7565b98505060608b013567ffffffffffffffff8111156116ed576116ec611d7b565b5b6116f98d828e01611479565b97505060808b013567ffffffffffffffff81111561171a57611719611d7b565b5b6117268d828e01611479565b96505060a08b013567ffffffffffffffff81111561174757611746611d7b565b5b6117538d828e01611479565b95505060c08b013567ffffffffffffffff81111561177457611773611d7b565b5b6117808d828e01611479565b94505060e08b013567ffffffffffffffff8111156117a1576117a0611d7b565b5b6117ad8d828e01611479565b9350506101008b013567ffffffffffffffff8111156117cf576117ce611d7b565b5b6117db8d828e01611479565b9250506101208b013567ffffffffffffffff8111156117fd576117fc611d7b565b5b6118098d828e01611479565b9150509295989b9194979a5092959850565b61182481611b3b565b82525050565b61183381611b4d565b82525050565b61184281611ba0565b82525050565b600061185382611a52565b61185d8185611a5d565b935061186d818560208601611bc1565b61187681611d85565b840191505092915050565b600061188e601c83611a5d565b915061189982611d96565b602082019050919050565b60006118b1601983611a5d565b91506118bc82611dbf565b602082019050919050565b60006118d4601e83611a5d565b91506118df82611de8565b602082019050919050565b6118f381611b96565b82525050565b600060208201905061190e600083018461181b565b92915050565b6000602082019050611929600083018461182a565b92915050565b60006040820190506119446000830185611839565b81810360208301526119568184611848565b90509392505050565b600060208201905081810360008301526119798184611848565b905092915050565b6000602082019050818103600083015261199a81611881565b9050919050565b600060208201905081810360008301526119ba816118a4565b9050919050565b600060208201905081810360008301526119da816118c7565b9050919050565b60006020820190506119f660008301846118ea565b92915050565b6000611a06611a17565b9050611a128282611c26565b919050565b6000604051905090565b600067ffffffffffffffff821115611a3c57611a3b611d42565b5b611a4582611d85565b9050602081019050919050565b600081519050919050565b600082825260208201905092915050565b6000611a7982611b96565b9150611a8483611b96565b9250827fffffffffffffffffffffffffffffffffffffffffffffffffffffffffffffffff03821115611ab957611ab8611c57565b5b828201905092915050565b6000611acf82611b96565b9150611ada83611b96565b925082611aea57611ae9611c86565b5b828204905092915050565b6000611b0082611b96565b9150611b0b83611b96565b925082821015611b1e57611b1d611c57565b5b828203905092915050565b6000611b3482611b76565b9050919050565b6000611b4682611b76565b9050919050565b60008115159050919050565b6000819050611b6782611e11565b919050565b6000819050919050565b600073ffffffffffffffffffffffffffffffffffffffff82169050919050565b6000819050919050565b6000611bab82611b59565b9050919050565b82818337600083830152505050565b60005b83811015611bdf578082015181840152602081019050611bc4565b83811115611bee576000848401525b50505050565b60006002820490506001821680611c0c57607f821691505b60208210811415611c2057611c1f611ce4565b5b50919050565b611c2f82611d85565b810181811067ffffffffffffffff82111715611c4e57611c4d611d42565b5b80604052505050565b7f4e487b7100000000000000000000000000000000000000000000000000000000600052601160045260246000fd5b7f4e487b7100000000000000000000000000000000000000000000000000000000600052601260045260246000fd5b7f4e487b7100000000000000000000000000000000000000000000000000000000600052602160045260246000fd5b7f4e487b7100000000000000000000000000000000000000000000000000000000600052602260045260246000fd5b7f4e487b7100000000000000000000000000000000000000000000000000000000600052603260045260246000fd5b7f4e487b7100000000000000000000000000000000000000000000000000000000600052604160045260246000fd5b600080fd5b600080fd5b600080fd5b600080fd5b6000601f19601f8301169050919050565b7f63616c6c6572206973206e6f742061206469737472696275746f722e00000000600082015250565b7f63616c6c6572206973206e6f7420612070726f64756365722e00000000000000600082015250565b7f63616c6c6572206973206e6f742074686520746f6b656e206f776e65722e0000600082015250565b60058110611e2257611e21611cb5565b5b50565b611e2e81611b29565b8114611e3957600080fd5b50565b60058110611e4957600080fd5b50565b611e5581611b6c565b8114611e6057600080fd5b50565b611e6c81611b96565b8114611e7757600080fd5b5056fea2646970667358221220bf24a29c67665c85c918f71b4774a4975f7aee49a48f3347c75c87f81870692b64736f6c63430008070033",
					"opcodes": "PUSH1 0x80 PUSH1 0x40 MSTORE CALLVALUE DUP1 ISZERO PUSH3 0x11 JUMPI PUSH1 0x0 DUP1 REVERT JUMPDEST POP PUSH1 0x40 MLOAD PUSH3 0x2345 CODESIZE SUB DUP1 PUSH3 0x2345 DUP4 CODECOPY DUP2 DUP2 ADD PUSH1 0x40 MSTORE DUP2 ADD SWAP1 PUSH3 0x37 SWAP2 SWAP1 PUSH3 0x243 JUMP JUMPDEST DUP3 PUSH1 0x0 SWAP1 DUP1 MLOAD SWAP1 PUSH1 0x20 ADD SWAP1 PUSH3 0x4F SWAP3 SWAP2 SWAP1 PUSH3 0xFE JUMP JUMPDEST POP DUP2 PUSH1 0x1 SWAP1 DUP1 MLOAD SWAP1 PUSH1 0x20 ADD SWAP1 PUSH3 0x68 SWAP3 SWAP2 SWAP1 PUSH3 0xFE JUMP JUMPDEST POP DUP1 PUSH1 0x3 DUP2 SWAP1 SSTORE POP CALLER PUSH1 0x2 PUSH1 0x0 PUSH2 0x100 EXP DUP2 SLOAD DUP2 PUSH20 0xFFFFFFFFFFFFFFFFFFFFFFFFFFFFFFFFFFFFFFFF MUL NOT AND SWAP1 DUP4 PUSH20 0xFFFFFFFFFFFFFFFFFFFFFFFFFFFFFFFFFFFFFFFF AND MUL OR SWAP1 SSTORE POP DUP1 PUSH1 0x4 PUSH1 0x0 CALLER PUSH20 0xFFFFFFFFFFFFFFFFFFFFFFFFFFFFFFFFFFFFFFFF AND PUSH20 0xFFFFFFFFFFFFFFFFFFFFFFFFFFFFFFFFFFFFFFFF AND DUP2 MSTORE PUSH1 0x20 ADD SWAP1 DUP2 MSTORE PUSH1 0x20 ADD PUSH1 0x0 KECCAK256 DUP2 SWAP1 SSTORE POP POP POP POP PUSH3 0x485 JUMP JUMPDEST DUP3 DUP1 SLOAD PUSH3 0x10C SWAP1 PUSH3 0x37C JUMP JUMPDEST SWAP1 PUSH1 0x0 MSTORE PUSH1 0x20 PUSH1 0x0 KECCAK256 SWAP1 PUSH1 0x1F ADD PUSH1 0x20 SWAP1 DIV DUP2 ADD SWAP3 DUP3 PUSH3 0x130 JUMPI PUSH1 0x0 DUP6 SSTORE PUSH3 0x17C JUMP JUMPDEST DUP3 PUSH1 0x1F LT PUSH3 0x14B JUMPI DUP1 MLOAD PUSH1 0xFF NOT AND DUP4 DUP1 ADD OR DUP6 SSTORE PUSH3 0x17C JUMP JUMPDEST DUP3 DUP1 ADD PUSH1 0x1 ADD DUP6 SSTORE DUP3 ISZERO PUSH3 0x17C JUMPI SWAP2 DUP3 ADD JUMPDEST DUP3 DUP2 GT ISZERO PUSH3 0x17B JUMPI DUP3 MLOAD DUP3 SSTORE SWAP2 PUSH1 0x20 ADD SWAP2 SWAP1 PUSH1 0x1 ADD SWAP1 PUSH3 0x15E JUMP JUMPDEST JUMPDEST POP SWAP1 POP PUSH3 0x18B SWAP2 SWAP1 PUSH3 0x18F JUMP JUMPDEST POP SWAP1 JUMP JUMPDEST JUMPDEST DUP1 DUP3 GT ISZERO PUSH3 0x1AA JUMPI PUSH1 0x0 DUP2 PUSH1 0x0 SWAP1 SSTORE POP PUSH1 0x1 ADD PUSH3 0x190 JUMP JUMPDEST POP SWAP1 JUMP JUMPDEST PUSH1 0x0 PUSH3 0x1C5 PUSH3 0x1BF DUP5 PUSH3 0x306 JUMP JUMPDEST PUSH3 0x2DD JUMP JUMPDEST SWAP1 POP DUP3 DUP2 MSTORE PUSH1 0x20 DUP2 ADD DUP5 DUP5 DUP5 ADD GT ISZERO PUSH3 0x1E4 JUMPI PUSH3 0x1E3 PUSH3 0x44B JUMP JUMPDEST JUMPDEST PUSH3 0x1F1 DUP5 DUP3 DUP6 PUSH3 0x346 JUMP JUMPDEST POP SWAP4 SWAP3 POP POP POP JUMP JUMPDEST PUSH1 0x0 DUP3 PUSH1 0x1F DUP4 ADD SLT PUSH3 0x211 JUMPI PUSH3 0x210 PUSH3 0x446 JUMP JUMPDEST JUMPDEST DUP2 MLOAD PUSH3 0x223 DUP5 DUP3 PUSH1 0x20 DUP7 ADD PUSH3 0x1AE JUMP JUMPDEST SWAP2 POP POP SWAP3 SWAP2 POP POP JUMP JUMPDEST PUSH1 0x0 DUP2 MLOAD SWAP1 POP PUSH3 0x23D DUP2 PUSH3 0x46B JUMP JUMPDEST SWAP3 SWAP2 POP POP JUMP JUMPDEST PUSH1 0x0 DUP1 PUSH1 0x0 PUSH1 0x60 DUP5 DUP7 SUB SLT ISZERO PUSH3 0x25F JUMPI PUSH3 0x25E PUSH3 0x455 JUMP JUMPDEST JUMPDEST PUSH1 0x0 DUP5 ADD MLOAD PUSH8 0xFFFFFFFFFFFFFFFF DUP2 GT ISZERO PUSH3 0x280 JUMPI PUSH3 0x27F PUSH3 0x450 JUMP JUMPDEST JUMPDEST PUSH3 0x28E DUP7 DUP3 DUP8 ADD PUSH3 0x1F9 JUMP JUMPDEST SWAP4 POP POP PUSH1 0x20 DUP5 ADD MLOAD PUSH8 0xFFFFFFFFFFFFFFFF DUP2 GT ISZERO PUSH3 0x2B2 JUMPI PUSH3 0x2B1 PUSH3 0x450 JUMP JUMPDEST JUMPDEST PUSH3 0x2C0 DUP7 DUP3 DUP8 ADD PUSH3 0x1F9 JUMP JUMPDEST SWAP3 POP POP PUSH1 0x40 PUSH3 0x2D3 DUP7 DUP3 DUP8 ADD PUSH3 0x22C JUMP JUMPDEST SWAP2 POP POP SWAP3 POP SWAP3 POP SWAP3 JUMP JUMPDEST PUSH1 0x0 PUSH3 0x2E9 PUSH3 0x2FC JUMP JUMPDEST SWAP1 POP PUSH3 0x2F7 DUP3 DUP3 PUSH3 0x3B2 JUMP JUMPDEST SWAP2 SWAP1 POP JUMP JUMPDEST PUSH1 0x0 PUSH1 0x40 MLOAD SWAP1 POP SWAP1 JUMP JUMPDEST PUSH1 0x0 PUSH8 0xFFFFFFFFFFFFFFFF DUP3 GT ISZERO PUSH3 0x324 JUMPI PUSH3 0x323 PUSH3 0x417 JUMP JUMPDEST JUMPDEST PUSH3 0x32F DUP3 PUSH3 0x45A JUMP JUMPDEST SWAP1 POP PUSH1 0x20 DUP2 ADD SWAP1 POP SWAP2 SWAP1 POP JUMP JUMPDEST PUSH1 0x0 DUP2 SWAP1 POP SWAP2 SWAP1 POP JUMP JUMPDEST PUSH1 0x0 JUMPDEST DUP4 DUP2 LT ISZERO PUSH3 0x366 JUMPI DUP1 DUP3 ADD MLOAD DUP2 DUP5 ADD MSTORE PUSH1 0x20 DUP2 ADD SWAP1 POP PUSH3 0x349 JUMP JUMPDEST DUP4 DUP2 GT ISZERO PUSH3 0x376 JUMPI PUSH1 0x0 DUP5 DUP5 ADD MSTORE JUMPDEST POP POP POP POP JUMP JUMPDEST PUSH1 0x0 PUSH1 0x2 DUP3 DIV SWAP1 POP PUSH1 0x1 DUP3 AND DUP1 PUSH3 0x395 JUMPI PUSH1 0x7F DUP3 AND SWAP2 POP JUMPDEST PUSH1 0x20 DUP3 LT DUP2 EQ ISZERO PUSH3 0x3AC JUMPI PUSH3 0x3AB PUSH3 0x3E8 JUMP JUMPDEST JUMPDEST POP SWAP2 SWAP1 POP JUMP JUMPDEST PUSH3 0x3BD DUP3 PUSH3 0x45A JUMP JUMPDEST DUP2 ADD DUP2 DUP2 LT PUSH8 0xFFFFFFFFFFFFFFFF DUP3 GT OR ISZERO PUSH3 0x3DF JUMPI PUSH3 0x3DE PUSH3 0x417 JUMP JUMPDEST JUMPDEST DUP1 PUSH1 0x40 MSTORE POP POP POP JUMP JUMPDEST PUSH32 0x4E487B7100000000000000000000000000000000000000000000000000000000 PUSH1 0x0 MSTORE PUSH1 0x22 PUSH1 0x4 MSTORE PUSH1 0x24 PUSH1 0x0 REVERT JUMPDEST PUSH32 0x4E487B7100000000000000000000000000000000000000000000000000000000 PUSH1 0x0 MSTORE PUSH1 0x41 PUSH1 0x4 MSTORE PUSH1 0x24 PUSH1 0x0 REVERT JUMPDEST PUSH1 0x0 DUP1 REVERT JUMPDEST PUSH1 0x0 DUP1 REVERT JUMPDEST PUSH1 0x0 DUP1 REVERT JUMPDEST PUSH1 0x0 DUP1 REVERT JUMPDEST PUSH1 0x0 PUSH1 0x1F NOT PUSH1 0x1F DUP4 ADD AND SWAP1 POP SWAP2 SWAP1 POP JUMP JUMPDEST PUSH3 0x476 DUP2 PUSH3 0x33C JUMP JUMPDEST DUP2 EQ PUSH3 0x482 JUMPI PUSH1 0x0 DUP1 REVERT JUMPDEST POP JUMP JUMPDEST PUSH2 0x1EB0 DUP1 PUSH3 0x495 PUSH1 0x0 CODECOPY PUSH1 0x0 RETURN INVALID PUSH1 0x80 PUSH1 0x40 MSTORE PUSH1 0x4 CALLDATASIZE LT PUSH2 0xC2 JUMPI PUSH1 0x0 CALLDATALOAD PUSH1 0xE0 SHR DUP1 PUSH4 0x9DC29FAC GT PUSH2 0x7F JUMPI DUP1 PUSH4 0xA4821719 GT PUSH2 0x59 JUMPI DUP1 PUSH4 0xA4821719 EQ PUSH2 0x252 JUMPI DUP1 PUSH4 0xB292ABF1 EQ PUSH2 0x25C JUMPI DUP1 PUSH4 0xCD0C5896 EQ PUSH2 0x29A JUMPI DUP1 PUSH4 0xEEDC966A EQ PUSH2 0x2D7 JUMPI PUSH2 0xC2 JUMP JUMPDEST DUP1 PUSH4 0x9DC29FAC EQ PUSH2 0x1D5 JUMPI DUP1 PUSH4 0xA0712D68 EQ PUSH2 0x1FE JUMPI DUP1 PUSH4 0xA3E67610 EQ PUSH2 0x227 JUMPI PUSH2 0xC2 JUMP JUMPDEST DUP1 PUSH4 0x6FDDE03 EQ PUSH2 0xC7 JUMPI DUP1 PUSH4 0x40932FC2 EQ PUSH2 0xF2 JUMPI DUP1 PUSH4 0x45091A60 EQ PUSH2 0x11B JUMPI DUP1 PUSH4 0x561E0E98 EQ PUSH2 0x144 JUMPI DUP1 PUSH4 0x68CDAFE6 EQ PUSH2 0x16D JUMPI DUP1 PUSH4 0x95D89B41 EQ PUSH2 0x1AA JUMPI JUMPDEST PUSH1 0x0 DUP1 REVERT JUMPDEST CALLVALUE DUP1 ISZERO PUSH2 0xD3 JUMPI PUSH1 0x0 DUP1 REVERT JUMPDEST POP PUSH2 0xDC PUSH2 0x314 JUMP JUMPDEST PUSH1 0x40 MLOAD PUSH2 0xE9 SWAP2 SWAP1 PUSH2 0x195F JUMP JUMPDEST PUSH1 0x40 MLOAD DUP1 SWAP2 SUB SWAP1 RETURN JUMPDEST CALLVALUE DUP1 ISZERO PUSH2 0xFE JUMPI PUSH1 0x0 DUP1 REVERT JUMPDEST POP PUSH2 0x119 PUSH1 0x4 DUP1 CALLDATASIZE SUB DUP2 ADD SWAP1 PUSH2 0x114 SWAP2 SWAP1 PUSH2 0x14E9 JUMP JUMPDEST PUSH2 0x3A2 JUMP JUMPDEST STOP JUMPDEST CALLVALUE DUP1 ISZERO PUSH2 0x127 JUMPI PUSH1 0x0 DUP1 REVERT JUMPDEST POP PUSH2 0x142 PUSH1 0x4 DUP1 CALLDATASIZE SUB DUP2 ADD SWAP1 PUSH2 0x13D SWAP2 SWAP1 PUSH2 0x15C5 JUMP JUMPDEST PUSH2 0x5D8 JUMP JUMPDEST STOP JUMPDEST CALLVALUE DUP1 ISZERO PUSH2 0x150 JUMPI PUSH1 0x0 DUP1 REVERT JUMPDEST POP PUSH2 0x16B PUSH1 0x4 DUP1 CALLDATASIZE SUB DUP2 ADD SWAP1 PUSH2 0x166 SWAP2 SWAP1 PUSH2 0x1678 JUMP JUMPDEST PUSH2 0x8A2 JUMP JUMPDEST STOP JUMPDEST CALLVALUE DUP1 ISZERO PUSH2 0x179 JUMPI PUSH1 0x0 DUP1 REVERT JUMPDEST POP PUSH2 0x194 PUSH1 0x4 DUP1 CALLDATASIZE SUB DUP2 ADD SWAP1 PUSH2 0x18F SWAP2 SWAP1 PUSH2 0x1558 JUMP JUMPDEST PUSH2 0xBEE JUMP JUMPDEST PUSH1 0x40 MLOAD PUSH2 0x1A1 SWAP2 SWAP1 PUSH2 0x1914 JUMP JUMPDEST PUSH1 0x40 MLOAD DUP1 SWAP2 SUB SWAP1 RETURN JUMPDEST CALLVALUE DUP1 ISZERO PUSH2 0x1B6 JUMPI PUSH1 0x0 DUP1 REVERT JUMPDEST POP PUSH2 0x1BF PUSH2 0xD2C JUMP JUMPDEST PUSH1 0x40 MLOAD PUSH2 0x1CC SWAP2 SWAP1 PUSH2 0x195F JUMP JUMPDEST PUSH1 0x40 MLOAD DUP1 SWAP2 SUB SWAP1 RETURN JUMPDEST CALLVALUE DUP1 ISZERO PUSH2 0x1E1 JUMPI PUSH1 0x0 DUP1 REVERT JUMPDEST POP PUSH2 0x1FC PUSH1 0x4 DUP1 CALLDATASIZE SUB DUP2 ADD SWAP1 PUSH2 0x1F7 SWAP2 SWAP1 PUSH2 0x1558 JUMP JUMPDEST PUSH2 0xDBA JUMP JUMPDEST STOP JUMPDEST CALLVALUE DUP1 ISZERO PUSH2 0x20A JUMPI PUSH1 0x0 DUP1 REVERT JUMPDEST POP PUSH2 0x225 PUSH1 0x4 DUP1 CALLDATASIZE SUB DUP2 ADD SWAP1 PUSH2 0x220 SWAP2 SWAP1 PUSH2 0x1598 JUMP JUMPDEST PUSH2 0xF43 JUMP JUMPDEST STOP JUMPDEST CALLVALUE DUP1 ISZERO PUSH2 0x233 JUMPI PUSH1 0x0 DUP1 REVERT JUMPDEST POP PUSH2 0x23C PUSH2 0x1045 JUMP JUMPDEST PUSH1 0x40 MLOAD PUSH2 0x249 SWAP2 SWAP1 PUSH2 0x18F9 JUMP JUMPDEST PUSH1 0x40 MLOAD DUP1 SWAP2 SUB SWAP1 RETURN JUMPDEST PUSH2 0x25A PUSH2 0x106B JUMP JUMPDEST STOP JUMPDEST CALLVALUE DUP1 ISZERO PUSH2 0x268 JUMPI PUSH1 0x0 DUP1 REVERT JUMPDEST POP PUSH2 0x283 PUSH1 0x4 DUP1 CALLDATASIZE SUB DUP2 ADD SWAP1 PUSH2 0x27E SWAP2 SWAP1 PUSH2 0x14BC JUMP JUMPDEST PUSH2 0x11C3 JUMP JUMPDEST PUSH1 0x40 MLOAD PUSH2 0x291 SWAP3 SWAP2 SWAP1 PUSH2 0x192F JUMP JUMPDEST PUSH1 0x40 MLOAD DUP1 SWAP2 SUB SWAP1 RETURN JUMPDEST CALLVALUE DUP1 ISZERO PUSH2 0x2A6 JUMPI PUSH1 0x0 DUP1 REVERT JUMPDEST POP PUSH2 0x2C1 PUSH1 0x4 DUP1 CALLDATASIZE SUB DUP2 ADD SWAP1 PUSH2 0x2BC SWAP2 SWAP1 PUSH2 0x14BC JUMP JUMPDEST PUSH2 0x12EB JUMP JUMPDEST PUSH1 0x40 MLOAD PUSH2 0x2CE SWAP2 SWAP1 PUSH2 0x19E1 JUMP JUMPDEST PUSH1 0x40 MLOAD DUP1 SWAP2 SUB SWAP1 RETURN JUMPDEST CALLVALUE DUP1 ISZERO PUSH2 0x2E3 JUMPI PUSH1 0x0 DUP1 REVERT JUMPDEST POP PUSH2 0x2FE PUSH1 0x4 DUP1 CALLDATASIZE SUB DUP2 ADD SWAP1 PUSH2 0x2F9 SWAP2 SWAP1 PUSH2 0x14BC JUMP JUMPDEST PUSH2 0x130C JUMP JUMPDEST PUSH1 0x40 MLOAD PUSH2 0x30B SWAP2 SWAP1 PUSH2 0x19E1 JUMP JUMPDEST PUSH1 0x40 MLOAD DUP1 SWAP2 SUB SWAP1 RETURN JUMPDEST PUSH1 0x0 DUP1 SLOAD PUSH2 0x321 SWAP1 PUSH2 0x1BF4 JUMP JUMPDEST DUP1 PUSH1 0x1F ADD PUSH1 0x20 DUP1 SWAP2 DIV MUL PUSH1 0x20 ADD PUSH1 0x40 MLOAD SWAP1 DUP2 ADD PUSH1 0x40 MSTORE DUP1 SWAP3 SWAP2 SWAP1 DUP2 DUP2 MSTORE PUSH1 0x20 ADD DUP3 DUP1 SLOAD PUSH2 0x34D SWAP1 PUSH2 0x1BF4 JUMP JUMPDEST DUP1 ISZERO PUSH2 0x39A JUMPI DUP1 PUSH1 0x1F LT PUSH2 0x36F JUMPI PUSH2 0x100 DUP1 DUP4 SLOAD DIV MUL DUP4 MSTORE SWAP2 PUSH1 0x20 ADD SWAP2 PUSH2 0x39A JUMP JUMPDEST DUP3 ADD SWAP2 SWAP1 PUSH1 0x0 MSTORE PUSH1 0x20 PUSH1 0x0 KECCAK256 SWAP1 JUMPDEST DUP2 SLOAD DUP2 MSTORE SWAP1 PUSH1 0x1 ADD SWAP1 PUSH1 0x20 ADD DUP1 DUP4 GT PUSH2 0x37D JUMPI DUP3 SWAP1 SUB PUSH1 0x1F AND DUP3 ADD SWAP2 JUMPDEST POP POP POP POP POP DUP2 JUMP JUMPDEST PUSH1 0x0 PUSH1 0x5 PUSH1 0x0 DUP6 PUSH20 0xFFFFFFFFFFFFFFFFFFFFFFFFFFFFFFFFFFFFFFFF AND PUSH20 0xFFFFFFFFFFFFFFFFFFFFFFFFFFFFFFFFFFFFFFFF AND DUP2 MSTORE PUSH1 0x20 ADD SWAP1 DUP2 MSTORE PUSH1 0x20 ADD PUSH1 0x0 KECCAK256 PUSH1 0x40 MLOAD DUP1 PUSH1 0x60 ADD PUSH1 0x40 MSTORE SWAP1 DUP2 PUSH1 0x0 DUP3 ADD PUSH1 0x0 SWAP1 SLOAD SWAP1 PUSH2 0x100 EXP SWAP1 DIV PUSH1 0xFF AND PUSH1 0x4 DUP2 GT ISZERO PUSH2 0x413 JUMPI PUSH2 0x412 PUSH2 0x1CB5 JUMP JUMPDEST JUMPDEST PUSH1 0x4 DUP2 GT ISZERO PUSH2 0x425 JUMPI PUSH2 0x424 PUSH2 0x1CB5 JUMP JUMPDEST JUMPDEST DUP2 MSTORE PUSH1 0x20 ADD PUSH1 0x1 DUP3 ADD DUP1 SLOAD PUSH2 0x439 SWAP1 PUSH2 0x1BF4 JUMP JUMPDEST DUP1 PUSH1 0x1F ADD PUSH1 0x20 DUP1 SWAP2 DIV MUL PUSH1 0x20 ADD PUSH1 0x40 MLOAD SWAP1 DUP2 ADD PUSH1 0x40 MSTORE DUP1 SWAP3 SWAP2 SWAP1 DUP2 DUP2 MSTORE PUSH1 0x20 ADD DUP3 DUP1 SLOAD PUSH2 0x465 SWAP1 PUSH2 0x1BF4 JUMP JUMPDEST DUP1 ISZERO PUSH2 0x4B2 JUMPI DUP1 PUSH1 0x1F LT PUSH2 0x487 JUMPI PUSH2 0x100 DUP1 DUP4 SLOAD DIV MUL DUP4 MSTORE SWAP2 PUSH1 0x20 ADD SWAP2 PUSH2 0x4B2 JUMP JUMPDEST DUP3 ADD SWAP2 SWAP1 PUSH1 0x0 MSTORE PUSH1 0x20 PUSH1 0x0 KECCAK256 SWAP1 JUMPDEST DUP2 SLOAD DUP2 MSTORE SWAP1 PUSH1 0x1 ADD SWAP1 PUSH1 0x20 ADD DUP1 DUP4 GT PUSH2 0x495 JUMPI DUP3 SWAP1 SUB PUSH1 0x1F AND DUP3 ADD SWAP2 JUMPDEST POP POP POP POP POP DUP2 MSTORE PUSH1 0x20 ADD PUSH1 0x2 DUP3 ADD PUSH1 0x0 SWAP1 SLOAD SWAP1 PUSH2 0x100 EXP SWAP1 DIV PUSH1 0xFF AND ISZERO ISZERO ISZERO ISZERO DUP2 MSTORE POP POP SWAP1 POP DUP3 DUP2 PUSH1 0x0 ADD SWAP1 PUSH1 0x4 DUP2 GT ISZERO PUSH2 0x4F0 JUMPI PUSH2 0x4EF PUSH2 0x1CB5 JUMP JUMPDEST JUMPDEST SWAP1 DUP2 PUSH1 0x4 DUP2 GT ISZERO PUSH2 0x504 JUMPI PUSH2 0x503 PUSH2 0x1CB5 JUMP JUMPDEST JUMPDEST DUP2 MSTORE POP POP DUP2 DUP2 PUSH1 0x20 ADD DUP2 SWAP1 MSTORE POP PUSH1 0x1 DUP2 PUSH1 0x40 ADD SWAP1 ISZERO ISZERO SWAP1 DUP2 ISZERO ISZERO DUP2 MSTORE POP POP DUP1 PUSH1 0x5 PUSH1 0x0 DUP7 PUSH20 0xFFFFFFFFFFFFFFFFFFFFFFFFFFFFFFFFFFFFFFFF AND PUSH20 0xFFFFFFFFFFFFFFFFFFFFFFFFFFFFFFFFFFFFFFFF AND DUP2 MSTORE PUSH1 0x20 ADD SWAP1 DUP2 MSTORE PUSH1 0x20 ADD PUSH1 0x0 KECCAK256 PUSH1 0x0 DUP3 ADD MLOAD DUP2 PUSH1 0x0 ADD PUSH1 0x0 PUSH2 0x100 EXP DUP2 SLOAD DUP2 PUSH1 0xFF MUL NOT AND SWAP1 DUP4 PUSH1 0x4 DUP2 GT ISZERO PUSH2 0x58D JUMPI PUSH2 0x58C PUSH2 0x1CB5 JUMP JUMPDEST JUMPDEST MUL OR SWAP1 SSTORE POP PUSH1 0x20 DUP3 ADD MLOAD DUP2 PUSH1 0x1 ADD SWAP1 DUP1 MLOAD SWAP1 PUSH1 0x20 ADD SWAP1 PUSH2 0x5AE SWAP3 SWAP2 SWAP1 PUSH2 0x1355 JUMP JUMPDEST POP PUSH1 0x40 DUP3 ADD MLOAD DUP2 PUSH1 0x2 ADD PUSH1 0x0 PUSH2 0x100 EXP DUP2 SLOAD DUP2 PUSH1 0xFF MUL NOT AND SWAP1 DUP4 ISZERO ISZERO MUL OR SWAP1 SSTORE POP SWAP1 POP POP POP POP POP POP JUMP JUMPDEST PUSH1 0x1 PUSH1 0x4 DUP2 GT ISZERO PUSH2 0x5EC JUMPI PUSH2 0x5EB PUSH2 0x1CB5 JUMP JUMPDEST JUMPDEST PUSH1 0x5 PUSH1 0x0 CALLER PUSH20 0xFFFFFFFFFFFFFFFFFFFFFFFFFFFFFFFFFFFFFFFF AND PUSH20 0xFFFFFFFFFFFFFFFFFFFFFFFFFFFFFFFFFFFFFFFF AND DUP2 MSTORE PUSH1 0x20 ADD SWAP1 DUP2 MSTORE PUSH1 0x20 ADD PUSH1 0x0 KECCAK256 PUSH1 0x0 ADD PUSH1 0x0 SWAP1 SLOAD SWAP1 PUSH2 0x100 EXP SWAP1 DIV PUSH1 0xFF AND PUSH1 0x4 DUP2 GT ISZERO PUSH2 0x64E JUMPI PUSH2 0x64D PUSH2 0x1CB5 JUMP JUMPDEST JUMPDEST EQ PUSH2 0x68E JUMPI PUSH1 0x40 MLOAD PUSH32 0x8C379A000000000000000000000000000000000000000000000000000000000 DUP2 MSTORE PUSH1 0x4 ADD PUSH2 0x685 SWAP1 PUSH2 0x1981 JUMP JUMPDEST PUSH1 0x40 MLOAD DUP1 SWAP2 SUB SWAP1 REVERT JUMPDEST PUSH1 0x0 PUSH1 0x6 PUSH1 0x0 DUP8 DUP2 MSTORE PUSH1 0x20 ADD SWAP1 DUP2 MSTORE PUSH1 0x20 ADD PUSH1 0x0 KECCAK256 SWAP1 POP PUSH1 0x0 PUSH1 0x4 PUSH1 0x0 CALLER PUSH20 0xFFFFFFFFFFFFFFFFFFFFFFFFFFFFFFFFFFFFFFFF AND PUSH20 0xFFFFFFFFFFFFFFFFFFFFFFFFFFFFFFFFFFFFFFFF AND DUP2 MSTORE PUSH1 0x20 ADD SWAP1 DUP2 MSTORE PUSH1 0x20 ADD PUSH1 0x0 KECCAK256 SLOAD SWAP1 POP DUP2 PUSH1 0x8 ADD SLOAD DUP2 LT ISZERO PUSH2 0x6FA JUMPI PUSH1 0x0 DUP1 REVERT JUMPDEST PUSH1 0x0 PUSH1 0x5 DUP2 GT ISZERO PUSH2 0x70E JUMPI PUSH2 0x70D PUSH2 0x1CB5 JUMP JUMPDEST JUMPDEST DUP3 PUSH1 0x7 ADD PUSH1 0x0 SWAP1 SLOAD SWAP1 PUSH2 0x100 EXP SWAP1 DIV PUSH1 0xFF AND PUSH1 0x5 DUP2 GT ISZERO PUSH2 0x732 JUMPI PUSH2 0x731 PUSH2 0x1CB5 JUMP JUMPDEST JUMPDEST EQ PUSH2 0x73C JUMPI PUSH1 0x0 DUP1 REVERT JUMPDEST DUP6 PUSH1 0x6 PUSH1 0x0 DUP10 DUP2 MSTORE PUSH1 0x20 ADD SWAP1 DUP2 MSTORE PUSH1 0x20 ADD PUSH1 0x0 KECCAK256 PUSH1 0x3 ADD PUSH1 0x1 PUSH1 0x4 DUP2 LT PUSH2 0x766 JUMPI PUSH2 0x765 PUSH2 0x1D13 JUMP JUMPDEST JUMPDEST ADD DUP2 SWAP1 SSTORE POP CALLER PUSH1 0x6 PUSH1 0x0 DUP10 DUP2 MSTORE PUSH1 0x20 ADD SWAP1 DUP2 MSTORE PUSH1 0x20 ADD PUSH1 0x0 KECCAK256 PUSH1 0x9 ADD PUSH1 0x0 PUSH2 0x100 EXP DUP2 SLOAD DUP2 PUSH20 0xFFFFFFFFFFFFFFFFFFFFFFFFFFFFFFFFFFFFFFFF MUL NOT AND SWAP1 DUP4 PUSH20 0xFFFFFFFFFFFFFFFFFFFFFFFFFFFFFFFFFFFFFFFF AND MUL OR SWAP1 SSTORE POP PUSH2 0x804 PUSH1 0x6 PUSH1 0x0 DUP10 DUP2 MSTORE PUSH1 0x20 ADD SWAP1 DUP2 MSTORE PUSH1 0x20 ADD PUSH1 0x0 KECCAK256 PUSH1 0x1 ADD PUSH1 0x0 SWAP1 SLOAD SWAP1 PUSH2 0x100 EXP SWAP1 DIV PUSH20 0xFFFFFFFFFFFFFFFFFFFFFFFFFFFFFFFFFFFFFFFF AND DUP4 PUSH1 0x8 ADD SLOAD PUSH2 0xBEE JUMP JUMPDEST POP PUSH1 0x5 PUSH1 0x6 PUSH1 0x0 DUP10 DUP2 MSTORE PUSH1 0x20 ADD SWAP1 DUP2 MSTORE PUSH1 0x20 ADD PUSH1 0x0 KECCAK256 PUSH1 0x7 ADD PUSH1 0x0 PUSH2 0x100 EXP DUP2 SLOAD DUP2 PUSH1 0xFF MUL NOT AND SWAP1 DUP4 PUSH1 0x5 DUP2 GT ISZERO PUSH2 0x83F JUMPI PUSH2 0x83E PUSH2 0x1CB5 JUMP JUMPDEST JUMPDEST MUL OR SWAP1 SSTORE POP CALLER PUSH1 0x6 PUSH1 0x0 DUP10 DUP2 MSTORE PUSH1 0x20 ADD SWAP1 DUP2 MSTORE PUSH1 0x20 ADD PUSH1 0x0 KECCAK256 PUSH1 0x1 ADD PUSH1 0x0 PUSH2 0x100 EXP DUP2 SLOAD DUP2 PUSH20 0xFFFFFFFFFFFFFFFFFFFFFFFFFFFFFFFFFFFFFFFF MUL NOT AND SWAP1 DUP4 PUSH20 0xFFFFFFFFFFFFFFFFFFFFFFFFFFFFFFFFFFFFFFFF AND MUL OR SWAP1 SSTORE POP POP POP POP POP POP POP POP JUMP JUMPDEST PUSH1 0x0 PUSH1 0x4 DUP2 GT ISZERO PUSH2 0x8B6 JUMPI PUSH2 0x8B5 PUSH2 0x1CB5 JUMP JUMPDEST JUMPDEST PUSH1 0x5 PUSH1 0x0 CALLER PUSH20 0xFFFFFFFFFFFFFFFFFFFFFFFFFFFFFFFFFFFFFFFF AND PUSH20 0xFFFFFFFFFFFFFFFFFFFFFFFFFFFFFFFFFFFFFFFF AND DUP2 MSTORE PUSH1 0x20 ADD SWAP1 DUP2 MSTORE PUSH1 0x20 ADD PUSH1 0x0 KECCAK256 PUSH1 0x0 ADD PUSH1 0x0 SWAP1 SLOAD SWAP1 PUSH2 0x100 EXP SWAP1 DIV PUSH1 0xFF AND PUSH1 0x4 DUP2 GT ISZERO PUSH2 0x918 JUMPI PUSH2 0x917 PUSH2 0x1CB5 JUMP JUMPDEST JUMPDEST EQ PUSH2 0x958 JUMPI PUSH1 0x40 MLOAD PUSH32 0x8C379A000000000000000000000000000000000000000000000000000000000 DUP2 MSTORE PUSH1 0x4 ADD PUSH2 0x94F SWAP1 PUSH2 0x19A1 JUMP JUMPDEST PUSH1 0x40 MLOAD DUP1 SWAP2 SUB SWAP1 REVERT JUMPDEST PUSH1 0x0 PUSH1 0x6 PUSH1 0x0 DUP13 DUP2 MSTORE PUSH1 0x20 ADD SWAP1 DUP2 MSTORE PUSH1 0x20 ADD PUSH1 0x0 KECCAK256 SWAP1 POP DUP11 DUP2 PUSH1 0x0 ADD DUP2 SWAP1 SSTORE POP CALLER DUP2 PUSH1 0x1 ADD PUSH1 0x0 PUSH2 0x100 EXP DUP2 SLOAD DUP2 PUSH20 0xFFFFFFFFFFFFFFFFFFFFFFFFFFFFFFFFFFFFFFFF MUL NOT AND SWAP1 DUP4 PUSH20 0xFFFFFFFFFFFFFFFFFFFFFFFFFFFFFFFFFFFFFFFF AND MUL OR SWAP1 SSTORE POP CALLER DUP2 PUSH1 0x2 ADD PUSH1 0x0 PUSH2 0x100 EXP DUP2 SLOAD DUP2 PUSH20 0xFFFFFFFFFFFFFFFFFFFFFFFFFFFFFFFFFFFFFFFF MUL NOT AND SWAP1 DUP4 PUSH20 0xFFFFFFFFFFFFFFFFFFFFFFFFFFFFFFFFFFFFFFFF AND MUL OR SWAP1 SSTORE POP DUP10 DUP2 PUSH1 0x3 ADD PUSH1 0x0 PUSH1 0x4 DUP2 LT PUSH2 0xA16 JUMPI PUSH2 0xA15 PUSH2 0x1D13 JUMP JUMPDEST JUMPDEST ADD DUP2 SWAP1 SSTORE POP PUSH1 0x0 DUP2 PUSH1 0x7 ADD PUSH1 0x0 PUSH2 0x100 EXP DUP2 SLOAD DUP2 PUSH1 0xFF MUL NOT AND SWAP1 DUP4 PUSH1 0x5 DUP2 GT ISZERO PUSH2 0xA43 JUMPI PUSH2 0xA42 PUSH2 0x1CB5 JUMP JUMPDEST JUMPDEST MUL OR SWAP1 SSTORE POP DUP9 DUP2 PUSH1 0x8 ADD DUP2 SWAP1 SSTORE POP PUSH1 0x0 DUP2 PUSH1 0x9 ADD PUSH1 0x0 PUSH2 0x100 EXP DUP2 SLOAD DUP2 PUSH20 0xFFFFFFFFFFFFFFFFFFFFFFFFFFFFFFFFFFFFFFFF MUL NOT AND SWAP1 DUP4 PUSH20 0xFFFFFFFFFFFFFFFFFFFFFFFFFFFFFFFFFFFFFFFF AND MUL OR SWAP1 SSTORE POP PUSH1 0x0 DUP2 PUSH1 0xA ADD PUSH1 0x0 PUSH2 0x100 EXP DUP2 SLOAD DUP2 PUSH20 0xFFFFFFFFFFFFFFFFFFFFFFFFFFFFFFFFFFFFFFFF MUL NOT AND SWAP1 DUP4 PUSH20 0xFFFFFFFFFFFFFFFFFFFFFFFFFFFFFFFFFFFFFFFF AND MUL OR SWAP1 SSTORE POP PUSH1 0x0 DUP2 PUSH1 0xB ADD PUSH1 0x0 PUSH2 0x100 EXP DUP2 SLOAD DUP2 PUSH20 0xFFFFFFFFFFFFFFFFFFFFFFFFFFFFFFFFFFFFFFFF MUL NOT AND SWAP1 DUP4 PUSH20 0xFFFFFFFFFFFFFFFFFFFFFFFFFFFFFFFFFFFFFFFF AND MUL OR SWAP1 SSTORE POP DUP8 DUP2 PUSH1 0xC ADD PUSH1 0x0 ADD SWAP1 DUP1 MLOAD SWAP1 PUSH1 0x20 ADD SWAP1 PUSH2 0xB38 SWAP3 SWAP2 SWAP1 PUSH2 0x1355 JUMP JUMPDEST POP DUP7 DUP2 PUSH1 0xC ADD PUSH1 0x1 ADD SWAP1 DUP1 MLOAD SWAP1 PUSH1 0x20 ADD SWAP1 PUSH2 0xB54 SWAP3 SWAP2 SWAP1 PUSH2 0x1355 JUMP JUMPDEST POP DUP6 DUP2 PUSH1 0xC ADD PUSH1 0x2 ADD SWAP1 DUP1 MLOAD SWAP1 PUSH1 0x20 ADD SWAP1 PUSH2 0xB70 SWAP3 SWAP2 SWAP1 PUSH2 0x1355 JUMP JUMPDEST POP DUP5 DUP2 PUSH1 0xC ADD PUSH1 0x3 ADD SWAP1 DUP1 MLOAD SWAP1 PUSH1 0x20 ADD SWAP1 PUSH2 0xB8C SWAP3 SWAP2 SWAP1 PUSH2 0x1355 JUMP JUMPDEST POP DUP4 DUP2 PUSH1 0xC ADD PUSH1 0x4 ADD SWAP1 DUP1 MLOAD SWAP1 PUSH1 0x20 ADD SWAP1 PUSH2 0xBA8 SWAP3 SWAP2 SWAP1 PUSH2 0x1355 JUMP JUMPDEST POP DUP3 DUP2 PUSH1 0xC ADD PUSH1 0x5 ADD SWAP1 DUP1 MLOAD SWAP1 PUSH1 0x20 ADD SWAP1 PUSH2 0xBC4 SWAP3 SWAP2 SWAP1 PUSH2 0x1355 JUMP JUMPDEST POP DUP2 DUP2 PUSH1 0xC ADD PUSH1 0x6 ADD SWAP1 DUP1 MLOAD SWAP1 PUSH1 0x20 ADD SWAP1 PUSH2 0xBE0 SWAP3 SWAP2 SWAP1 PUSH2 0x1355 JUMP JUMPDEST POP POP POP POP POP POP POP POP POP POP POP POP JUMP JUMPDEST PUSH1 0x0 DUP2 PUSH1 0x4 PUSH1 0x0 CALLER PUSH20 0xFFFFFFFFFFFFFFFFFFFFFFFFFFFFFFFFFFFFFFFF AND PUSH20 0xFFFFFFFFFFFFFFFFFFFFFFFFFFFFFFFFFFFFFFFF AND DUP2 MSTORE PUSH1 0x20 ADD SWAP1 DUP2 MSTORE PUSH1 0x20 ADD PUSH1 0x0 KECCAK256 SLOAD LT ISZERO PUSH2 0xC3C JUMPI PUSH1 0x0 DUP1 REVERT JUMPDEST PUSH1 0x0 PUSH20 0xFFFFFFFFFFFFFFFFFFFFFFFFFFFFFFFFFFFFFFFF AND DUP4 PUSH20 0xFFFFFFFFFFFFFFFFFFFFFFFFFFFFFFFFFFFFFFFF AND EQ ISZERO PUSH2 0xC76 JUMPI PUSH1 0x0 DUP1 REVERT JUMPDEST DUP2 PUSH1 0x4 PUSH1 0x0 CALLER PUSH20 0xFFFFFFFFFFFFFFFFFFFFFFFFFFFFFFFFFFFFFFFF AND PUSH20 0xFFFFFFFFFFFFFFFFFFFFFFFFFFFFFFFFFFFFFFFF AND DUP2 MSTORE PUSH1 0x20 ADD SWAP1 DUP2 MSTORE PUSH1 0x20 ADD PUSH1 0x0 KECCAK256 PUSH1 0x0 DUP3 DUP3 SLOAD PUSH2 0xCC5 SWAP2 SWAP1 PUSH2 0x1AF5 JUMP JUMPDEST SWAP3 POP POP DUP2 SWAP1 SSTORE POP DUP2 PUSH1 0x4 PUSH1 0x0 DUP6 PUSH20 0xFFFFFFFFFFFFFFFFFFFFFFFFFFFFFFFFFFFFFFFF AND PUSH20 0xFFFFFFFFFFFFFFFFFFFFFFFFFFFFFFFFFFFFFFFF AND DUP2 MSTORE PUSH1 0x20 ADD SWAP1 DUP2 MSTORE PUSH1 0x20 ADD PUSH1 0x0 KECCAK256 PUSH1 0x0 DUP3 DUP3 SLOAD PUSH2 0xD1B SWAP2 SWAP1 PUSH2 0x1A6E JUMP JUMPDEST SWAP3 POP POP DUP2 SWAP1 SSTORE POP PUSH1 0x1 SWAP1 POP SWAP3 SWAP2 POP POP JUMP JUMPDEST PUSH1 0x1 DUP1 SLOAD PUSH2 0xD39 SWAP1 PUSH2 0x1BF4 JUMP JUMPDEST DUP1 PUSH1 0x1F ADD PUSH1 0x20 DUP1 SWAP2 DIV MUL PUSH1 0x20 ADD PUSH1 0x40 MLOAD SWAP1 DUP2 ADD PUSH1 0x40 MSTORE DUP1 SWAP3 SWAP2 SWAP1 DUP2 DUP2 MSTORE PUSH1 0x20 ADD DUP3 DUP1 SLOAD PUSH2 0xD65 SWAP1 PUSH2 0x1BF4 JUMP JUMPDEST DUP1 ISZERO PUSH2 0xDB2 JUMPI DUP1 PUSH1 0x1F LT PUSH2 0xD87 JUMPI PUSH2 0x100 DUP1 DUP4 SLOAD DIV MUL DUP4 MSTORE SWAP2 PUSH1 0x20 ADD SWAP2 PUSH2 0xDB2 JUMP JUMPDEST DUP3 ADD SWAP2 SWAP1 PUSH1 0x0 MSTORE PUSH1 0x20 PUSH1 0x0 KECCAK256 SWAP1 JUMPDEST DUP2 SLOAD DUP2 MSTORE SWAP1 PUSH1 0x1 ADD SWAP1 PUSH1 0x20 ADD DUP1 DUP4 GT PUSH2 0xD95 JUMPI DUP3 SWAP1 SUB PUSH1 0x1F AND DUP3 ADD SWAP2 JUMPDEST POP POP POP POP POP DUP2 JUMP JUMPDEST PUSH1 0x2 PUSH1 0x0 SWAP1 SLOAD SWAP1 PUSH2 0x100 EXP SWAP1 DIV PUSH20 0xFFFFFFFFFFFFFFFFFFFFFFFFFFFFFFFFFFFFFFFF AND PUSH20 0xFFFFFFFFFFFFFFFFFFFFFFFFFFFFFFFFFFFFFFFF AND CALLER PUSH20 0xFFFFFFFFFFFFFFFFFFFFFFFFFFFFFFFFFFFFFFFF AND EQ PUSH2 0xE4A JUMPI PUSH1 0x40 MLOAD PUSH32 0x8C379A000000000000000000000000000000000000000000000000000000000 DUP2 MSTORE PUSH1 0x4 ADD PUSH2 0xE41 SWAP1 PUSH2 0x19C1 JUMP JUMPDEST PUSH1 0x40 MLOAD DUP1 SWAP2 SUB SWAP1 REVERT JUMPDEST PUSH1 0x0 PUSH20 0xFFFFFFFFFFFFFFFFFFFFFFFFFFFFFFFFFFFFFFFF AND DUP3 PUSH20 0xFFFFFFFFFFFFFFFFFFFFFFFFFFFFFFFFFFFFFFFF AND EQ ISZERO PUSH2 0xE84 JUMPI PUSH1 0x0 DUP1 REVERT JUMPDEST PUSH1 0x4 PUSH1 0x0 DUP4 PUSH20 0xFFFFFFFFFFFFFFFFFFFFFFFFFFFFFFFFFFFFFFFF AND PUSH20 0xFFFFFFFFFFFFFFFFFFFFFFFFFFFFFFFFFFFFFFFF AND DUP2 MSTORE PUSH1 0x20 ADD SWAP1 DUP2 MSTORE PUSH1 0x20 ADD PUSH1 0x0 KECCAK256 SLOAD DUP2 GT ISZERO PUSH2 0xED0 JUMPI PUSH1 0x0 DUP1 REVERT JUMPDEST DUP1 PUSH1 0x3 PUSH1 0x0 DUP3 DUP3 SLOAD PUSH2 0xEE2 SWAP2 SWAP1 PUSH2 0x1AF5 JUMP JUMPDEST SWAP3 POP POP DUP2 SWAP1 SSTORE POP DUP1 PUSH1 0x4 PUSH1 0x0 DUP5 PUSH20 0xFFFFFFFFFFFFFFFFFFFFFFFFFFFFFFFFFFFFFFFF AND PUSH20 0xFFFFFFFFFFFFFFFFFFFFFFFFFFFFFFFFFFFFFFFF AND DUP2 MSTORE PUSH1 0x20 ADD SWAP1 DUP2 MSTORE PUSH1 0x20 ADD PUSH1 0x0 KECCAK256 PUSH1 0x0 DUP3 DUP3 SLOAD PUSH2 0xF38 SWAP2 SWAP1 PUSH2 0x1AF5 JUMP JUMPDEST SWAP3 POP POP DUP2 SWAP1 SSTORE POP POP POP JUMP JUMPDEST PUSH1 0x2 PUSH1 0x0 SWAP1 SLOAD SWAP1 PUSH2 0x100 EXP SWAP1 DIV PUSH20 0xFFFFFFFFFFFFFFFFFFFFFFFFFFFFFFFFFFFFFFFF AND PUSH20 0xFFFFFFFFFFFFFFFFFFFFFFFFFFFFFFFFFFFFFFFF AND CALLER PUSH20 0xFFFFFFFFFFFFFFFFFFFFFFFFFFFFFFFFFFFFFFFF AND EQ PUSH2 0xFD3 JUMPI PUSH1 0x40 MLOAD PUSH32 0x8C379A000000000000000000000000000000000000000000000000000000000 DUP2 MSTORE PUSH1 0x4 ADD PUSH2 0xFCA SWAP1 PUSH2 0x19C1 JUMP JUMPDEST PUSH1 0x40 MLOAD DUP1 SWAP2 SUB SWAP1 REVERT JUMPDEST DUP1 PUSH1 0x3 PUSH1 0x0 DUP3 DUP3 SLOAD PUSH2 0xFE5 SWAP2 SWAP1 PUSH2 0x1A6E JUMP JUMPDEST SWAP3 POP POP DUP2 SWAP1 SSTORE POP DUP1 PUSH1 0x4 PUSH1 0x0 CALLER PUSH20 0xFFFFFFFFFFFFFFFFFFFFFFFFFFFFFFFFFFFFFFFF AND PUSH20 0xFFFFFFFFFFFFFFFFFFFFFFFFFFFFFFFFFFFFFFFF AND DUP2 MSTORE PUSH1 0x20 ADD SWAP1 DUP2 MSTORE PUSH1 0x20 ADD PUSH1 0x0 KECCAK256 PUSH1 0x0 DUP3 DUP3 SLOAD PUSH2 0x103B SWAP2 SWAP1 PUSH2 0x1A6E JUMP JUMPDEST SWAP3 POP POP DUP2 SWAP1 SSTORE POP POP JUMP JUMPDEST PUSH1 0x2 PUSH1 0x0 SWAP1 SLOAD SWAP1 PUSH2 0x100 EXP SWAP1 DIV PUSH20 0xFFFFFFFFFFFFFFFFFFFFFFFFFFFFFFFFFFFFFFFF AND DUP2 JUMP JUMPDEST PUSH1 0x0 PUSH1 0x64 CALLVALUE PUSH2 0x107A SWAP2 SWAP1 PUSH2 0x1AC4 JUMP JUMPDEST SWAP1 POP PUSH1 0x0 CALLVALUE GT PUSH2 0x1089 JUMPI PUSH1 0x0 DUP1 REVERT JUMPDEST PUSH1 0x2 PUSH1 0x0 SWAP1 SLOAD SWAP1 PUSH2 0x100 EXP SWAP1 DIV PUSH20 0xFFFFFFFFFFFFFFFFFFFFFFFFFFFFFFFFFFFFFFFF AND PUSH20 0xFFFFFFFFFFFFFFFFFFFFFFFFFFFFFFFFFFFFFFFF AND PUSH2 0x8FC CALLVALUE SWAP1 DUP2 ISZERO MUL SWAP1 PUSH1 0x40 MLOAD PUSH1 0x0 PUSH1 0x40 MLOAD DUP1 DUP4 SUB DUP2 DUP6 DUP9 DUP9 CALL SWAP4 POP POP POP POP ISZERO DUP1 ISZERO PUSH2 0x10F1 JUMPI RETURNDATASIZE PUSH1 0x0 DUP1 RETURNDATACOPY RETURNDATASIZE PUSH1 0x0 REVERT JUMPDEST POP DUP1 PUSH1 0x4 PUSH1 0x0 PUSH1 0x2 PUSH1 0x0 SWAP1 SLOAD SWAP1 PUSH2 0x100 EXP SWAP1 DIV PUSH20 0xFFFFFFFFFFFFFFFFFFFFFFFFFFFFFFFFFFFFFFFF AND PUSH20 0xFFFFFFFFFFFFFFFFFFFFFFFFFFFFFFFFFFFFFFFF AND PUSH20 0xFFFFFFFFFFFFFFFFFFFFFFFFFFFFFFFFFFFFFFFF AND DUP2 MSTORE PUSH1 0x20 ADD SWAP1 DUP2 MSTORE PUSH1 0x20 ADD PUSH1 0x0 KECCAK256 PUSH1 0x0 DUP3 DUP3 SLOAD PUSH2 0x1163 SWAP2 SWAP1 PUSH2 0x1AF5 JUMP JUMPDEST SWAP3 POP POP DUP2 SWAP1 SSTORE POP DUP1 PUSH1 0x4 PUSH1 0x0 CALLER PUSH20 0xFFFFFFFFFFFFFFFFFFFFFFFFFFFFFFFFFFFFFFFF AND PUSH20 0xFFFFFFFFFFFFFFFFFFFFFFFFFFFFFFFFFFFFFFFF AND DUP2 MSTORE PUSH1 0x20 ADD SWAP1 DUP2 MSTORE PUSH1 0x20 ADD PUSH1 0x0 KECCAK256 PUSH1 0x0 DUP3 DUP3 SLOAD PUSH2 0x11B9 SWAP2 SWAP1 PUSH2 0x1A6E JUMP JUMPDEST SWAP3 POP POP DUP2 SWAP1 SSTORE POP POP JUMP JUMPDEST PUSH1 0x0 PUSH1 0x60 PUSH1 0x5 PUSH1 0x0 DUP5 PUSH20 0xFFFFFFFFFFFFFFFFFFFFFFFFFFFFFFFFFFFFFFFF AND PUSH20 0xFFFFFFFFFFFFFFFFFFFFFFFFFFFFFFFFFFFFFFFF AND DUP2 MSTORE PUSH1 0x20 ADD SWAP1 DUP2 MSTORE PUSH1 0x20 ADD PUSH1 0x0 KECCAK256 PUSH1 0x0 ADD PUSH1 0x0 SWAP1 SLOAD SWAP1 PUSH2 0x100 EXP SWAP1 DIV PUSH1 0xFF AND SWAP2 POP PUSH1 0x5 PUSH1 0x0 DUP5 PUSH20 0xFFFFFFFFFFFFFFFFFFFFFFFFFFFFFFFFFFFFFFFF AND PUSH20 0xFFFFFFFFFFFFFFFFFFFFFFFFFFFFFFFFFFFFFFFF AND DUP2 MSTORE PUSH1 0x20 ADD SWAP1 DUP2 MSTORE PUSH1 0x20 ADD PUSH1 0x0 KECCAK256 PUSH1 0x1 ADD DUP1 SLOAD PUSH2 0x1266 SWAP1 PUSH2 0x1BF4 JUMP JUMPDEST DUP1 PUSH1 0x1F ADD PUSH1 0x20 DUP1 SWAP2 DIV MUL PUSH1 0x20 ADD PUSH1 0x40 MLOAD SWAP1 DUP2 ADD PUSH1 0x40 MSTORE DUP1 SWAP3 SWAP2 SWAP1 DUP2 DUP2 MSTORE PUSH1 0x20 ADD DUP3 DUP1 SLOAD PUSH2 0x1292 SWAP1 PUSH2 0x1BF4 JUMP JUMPDEST DUP1 ISZERO PUSH2 0x12DF JUMPI DUP1 PUSH1 0x1F LT PUSH2 0x12B4 JUMPI PUSH2 0x100 DUP1 DUP4 SLOAD DIV MUL DUP4 MSTORE SWAP2 PUSH1 0x20 ADD SWAP2 PUSH2 0x12DF JUMP JUMPDEST DUP3 ADD SWAP2 SWAP1 PUSH1 0x0 MSTORE PUSH1 0x20 PUSH1 0x0 KECCAK256 SWAP1 JUMPDEST DUP2 SLOAD DUP2 MSTORE SWAP1 PUSH1 0x1 ADD SWAP1 PUSH1 0x20 ADD DUP1 DUP4 GT PUSH2 0x12C2 JUMPI DUP3 SWAP1 SUB PUSH1 0x1F AND DUP3 ADD SWAP2 JUMPDEST POP POP POP POP POP SWAP1 POP SWAP2 POP SWAP2 JUMP JUMPDEST PUSH1 0x0 DUP2 PUSH20 0xFFFFFFFFFFFFFFFFFFFFFFFFFFFFFFFFFFFFFFFF AND BALANCE SWAP1 POP SWAP2 SWAP1 POP JUMP JUMPDEST PUSH1 0x0 PUSH1 0x4 PUSH1 0x0 DUP4 PUSH20 0xFFFFFFFFFFFFFFFFFFFFFFFFFFFFFFFFFFFFFFFF AND PUSH20 0xFFFFFFFFFFFFFFFFFFFFFFFFFFFFFFFFFFFFFFFF AND DUP2 MSTORE PUSH1 0x20 ADD SWAP1 DUP2 MSTORE PUSH1 0x20 ADD PUSH1 0x0 KECCAK256 SLOAD SWAP1 POP SWAP2 SWAP1 POP JUMP JUMPDEST DUP3 DUP1 SLOAD PUSH2 0x1361 SWAP1 PUSH2 0x1BF4 JUMP JUMPDEST SWAP1 PUSH1 0x0 MSTORE PUSH1 0x20 PUSH1 0x0 KECCAK256 SWAP1 PUSH1 0x1F ADD PUSH1 0x20 SWAP1 DIV DUP2 ADD SWAP3 DUP3 PUSH2 0x1383 JUMPI PUSH1 0x0 DUP6 SSTORE PUSH2 0x13CA JUMP JUMPDEST DUP3 PUSH1 0x1F LT PUSH2 0x139C JUMPI DUP1 MLOAD PUSH1 0xFF NOT AND DUP4 DUP1 ADD OR DUP6 SSTORE PUSH2 0x13CA JUMP JUMPDEST DUP3 DUP1 ADD PUSH1 0x1 ADD DUP6 SSTORE DUP3 ISZERO PUSH2 0x13CA JUMPI SWAP2 DUP3 ADD JUMPDEST DUP3 DUP2 GT ISZERO PUSH2 0x13C9 JUMPI DUP3 MLOAD DUP3 SSTORE SWAP2 PUSH1 0x20 ADD SWAP2 SWAP1 PUSH1 0x1 ADD SWAP1 PUSH2 0x13AE JUMP JUMPDEST JUMPDEST POP SWAP1 POP PUSH2 0x13D7 SWAP2 SWAP1 PUSH2 0x13DB JUMP JUMPDEST POP SWAP1 JUMP JUMPDEST JUMPDEST DUP1 DUP3 GT ISZERO PUSH2 0x13F4 JUMPI PUSH1 0x0 DUP2 PUSH1 0x0 SWAP1 SSTORE POP PUSH1 0x1 ADD PUSH2 0x13DC JUMP JUMPDEST POP SWAP1 JUMP JUMPDEST PUSH1 0x0 PUSH2 0x140B PUSH2 0x1406 DUP5 PUSH2 0x1A21 JUMP JUMPDEST PUSH2 0x19FC JUMP JUMPDEST SWAP1 POP DUP3 DUP2 MSTORE PUSH1 0x20 DUP2 ADD DUP5 DUP5 DUP5 ADD GT ISZERO PUSH2 0x1427 JUMPI PUSH2 0x1426 PUSH2 0x1D76 JUMP JUMPDEST JUMPDEST PUSH2 0x1432 DUP5 DUP3 DUP6 PUSH2 0x1BB2 JUMP JUMPDEST POP SWAP4 SWAP3 POP POP POP JUMP JUMPDEST PUSH1 0x0 DUP2 CALLDATALOAD SWAP1 POP PUSH2 0x1449 DUP2 PUSH2 0x1E25 JUMP JUMPDEST SWAP3 SWAP2 POP POP JUMP JUMPDEST PUSH1 0x0 DUP2 CALLDATALOAD SWAP1 POP PUSH2 0x145E DUP2 PUSH2 0x1E3C JUMP JUMPDEST SWAP3 SWAP2 POP POP JUMP JUMPDEST PUSH1 0x0 DUP2 CALLDATALOAD SWAP1 POP PUSH2 0x1473 DUP2 PUSH2 0x1E4C JUMP JUMPDEST SWAP3 SWAP2 POP POP JUMP JUMPDEST PUSH1 0x0 DUP3 PUSH1 0x1F DUP4 ADD SLT PUSH2 0x148E JUMPI PUSH2 0x148D PUSH2 0x1D71 JUMP JUMPDEST JUMPDEST DUP2 CALLDATALOAD PUSH2 0x149E DUP5 DUP3 PUSH1 0x20 DUP7 ADD PUSH2 0x13F8 JUMP JUMPDEST SWAP2 POP POP SWAP3 SWAP2 POP POP JUMP JUMPDEST PUSH1 0x0 DUP2 CALLDATALOAD SWAP1 POP PUSH2 0x14B6 DUP2 PUSH2 0x1E63 JUMP JUMPDEST SWAP3 SWAP2 POP POP JUMP JUMPDEST PUSH1 0x0 PUSH1 0x20 DUP3 DUP5 SUB SLT ISZERO PUSH2 0x14D2 JUMPI PUSH2 0x14D1 PUSH2 0x1D80 JUMP JUMPDEST JUMPDEST PUSH1 0x0 PUSH2 0x14E0 DUP5 DUP3 DUP6 ADD PUSH2 0x143A JUMP JUMPDEST SWAP2 POP POP SWAP3 SWAP2 POP POP JUMP JUMPDEST PUSH1 0x0 DUP1 PUSH1 0x0 PUSH1 0x60 DUP5 DUP7 SUB SLT ISZERO PUSH2 0x1502 JUMPI PUSH2 0x1501 PUSH2 0x1D80 JUMP JUMPDEST JUMPDEST PUSH1 0x0 PUSH2 0x1510 DUP7 DUP3 DUP8 ADD PUSH2 0x143A JUMP JUMPDEST SWAP4 POP POP PUSH1 0x20 PUSH2 0x1521 DUP7 DUP3 DUP8 ADD PUSH2 0x144F JUMP JUMPDEST SWAP3 POP POP PUSH1 0x40 DUP5 ADD CALLDATALOAD PUSH8 0xFFFFFFFFFFFFFFFF DUP2 GT ISZERO PUSH2 0x1542 JUMPI PUSH2 0x1541 PUSH2 0x1D7B JUMP JUMPDEST JUMPDEST PUSH2 0x154E DUP7 DUP3 DUP8 ADD PUSH2 0x1479 JUMP JUMPDEST SWAP2 POP POP SWAP3 POP SWAP3 POP SWAP3 JUMP JUMPDEST PUSH1 0x0 DUP1 PUSH1 0x40 DUP4 DUP6 SUB SLT ISZERO PUSH2 0x156F JUMPI PUSH2 0x156E PUSH2 0x1D80 JUMP JUMPDEST JUMPDEST PUSH1 0x0 PUSH2 0x157D DUP6 DUP3 DUP7 ADD PUSH2 0x143A JUMP JUMPDEST SWAP3 POP POP PUSH1 0x20 PUSH2 0x158E DUP6 DUP3 DUP7 ADD PUSH2 0x14A7 JUMP JUMPDEST SWAP2 POP POP SWAP3 POP SWAP3 SWAP1 POP JUMP JUMPDEST PUSH1 0x0 PUSH1 0x20 DUP3 DUP5 SUB SLT ISZERO PUSH2 0x15AE JUMPI PUSH2 0x15AD PUSH2 0x1D80 JUMP JUMPDEST JUMPDEST PUSH1 0x0 PUSH2 0x15BC DUP5 DUP3 DUP6 ADD PUSH2 0x14A7 JUMP JUMPDEST SWAP2 POP POP SWAP3 SWAP2 POP POP JUMP JUMPDEST PUSH1 0x0 DUP1 PUSH1 0x0 DUP1 PUSH1 0x0 PUSH1 0xA0 DUP7 DUP9 SUB SLT ISZERO PUSH2 0x15E1 JUMPI PUSH2 0x15E0 PUSH2 0x1D80 JUMP JUMPDEST JUMPDEST PUSH1 0x0 PUSH2 0x15EF DUP9 DUP3 DUP10 ADD PUSH2 0x14A7 JUMP JUMPDEST SWAP6 POP POP PUSH1 0x20 PUSH2 0x1600 DUP9 DUP3 DUP10 ADD PUSH2 0x14A7 JUMP JUMPDEST SWAP5 POP POP PUSH1 0x40 DUP7 ADD CALLDATALOAD PUSH8 0xFFFFFFFFFFFFFFFF DUP2 GT ISZERO PUSH2 0x1621 JUMPI PUSH2 0x1620 PUSH2 0x1D7B JUMP JUMPDEST JUMPDEST PUSH2 0x162D DUP9 DUP3 DUP10 ADD PUSH2 0x1479 JUMP JUMPDEST SWAP4 POP POP PUSH1 0x60 DUP7 ADD CALLDATALOAD PUSH8 0xFFFFFFFFFFFFFFFF DUP2 GT ISZERO PUSH2 0x164E JUMPI PUSH2 0x164D PUSH2 0x1D7B JUMP JUMPDEST JUMPDEST PUSH2 0x165A DUP9 DUP3 DUP10 ADD PUSH2 0x1479 JUMP JUMPDEST SWAP3 POP POP PUSH1 0x80 PUSH2 0x166B DUP9 DUP3 DUP10 ADD PUSH2 0x1464 JUMP JUMPDEST SWAP2 POP POP SWAP3 SWAP6 POP SWAP3 SWAP6 SWAP1 SWAP4 POP JUMP JUMPDEST PUSH1 0x0 DUP1 PUSH1 0x0 DUP1 PUSH1 0x0 DUP1 PUSH1 0x0 DUP1 PUSH1 0x0 DUP1 PUSH2 0x140 DUP12 DUP14 SUB SLT ISZERO PUSH2 0x169C JUMPI PUSH2 0x169B PUSH2 0x1D80 JUMP JUMPDEST JUMPDEST PUSH1 0x0 PUSH2 0x16AA DUP14 DUP3 DUP15 ADD PUSH2 0x14A7 JUMP JUMPDEST SWAP11 POP POP PUSH1 0x20 PUSH2 0x16BB DUP14 DUP3 DUP15 ADD PUSH2 0x14A7 JUMP JUMPDEST SWAP10 POP POP PUSH1 0x40 PUSH2 0x16CC DUP14 DUP3 DUP15 ADD PUSH2 0x14A7 JUMP JUMPDEST SWAP9 POP POP PUSH1 0x60 DUP12 ADD CALLDATALOAD PUSH8 0xFFFFFFFFFFFFFFFF DUP2 GT ISZERO PUSH2 0x16ED JUMPI PUSH2 0x16EC PUSH2 0x1D7B JUMP JUMPDEST JUMPDEST PUSH2 0x16F9 DUP14 DUP3 DUP15 ADD PUSH2 0x1479 JUMP JUMPDEST SWAP8 POP POP PUSH1 0x80 DUP12 ADD CALLDATALOAD PUSH8 0xFFFFFFFFFFFFFFFF DUP2 GT ISZERO PUSH2 0x171A JUMPI PUSH2 0x1719 PUSH2 0x1D7B JUMP JUMPDEST JUMPDEST PUSH2 0x1726 DUP14 DUP3 DUP15 ADD PUSH2 0x1479 JUMP JUMPDEST SWAP7 POP POP PUSH1 0xA0 DUP12 ADD CALLDATALOAD PUSH8 0xFFFFFFFFFFFFFFFF DUP2 GT ISZERO PUSH2 0x1747 JUMPI PUSH2 0x1746 PUSH2 0x1D7B JUMP JUMPDEST JUMPDEST PUSH2 0x1753 DUP14 DUP3 DUP15 ADD PUSH2 0x1479 JUMP JUMPDEST SWAP6 POP POP PUSH1 0xC0 DUP12 ADD CALLDATALOAD PUSH8 0xFFFFFFFFFFFFFFFF DUP2 GT ISZERO PUSH2 0x1774 JUMPI PUSH2 0x1773 PUSH2 0x1D7B JUMP JUMPDEST JUMPDEST PUSH2 0x1780 DUP14 DUP3 DUP15 ADD PUSH2 0x1479 JUMP JUMPDEST SWAP5 POP POP PUSH1 0xE0 DUP12 ADD CALLDATALOAD PUSH8 0xFFFFFFFFFFFFFFFF DUP2 GT ISZERO PUSH2 0x17A1 JUMPI PUSH2 0x17A0 PUSH2 0x1D7B JUMP JUMPDEST JUMPDEST PUSH2 0x17AD DUP14 DUP3 DUP15 ADD PUSH2 0x1479 JUMP JUMPDEST SWAP4 POP POP PUSH2 0x100 DUP12 ADD CALLDATALOAD PUSH8 0xFFFFFFFFFFFFFFFF DUP2 GT ISZERO PUSH2 0x17CF JUMPI PUSH2 0x17CE PUSH2 0x1D7B JUMP JUMPDEST JUMPDEST PUSH2 0x17DB DUP14 DUP3 DUP15 ADD PUSH2 0x1479 JUMP JUMPDEST SWAP3 POP POP PUSH2 0x120 DUP12 ADD CALLDATALOAD PUSH8 0xFFFFFFFFFFFFFFFF DUP2 GT ISZERO PUSH2 0x17FD JUMPI PUSH2 0x17FC PUSH2 0x1D7B JUMP JUMPDEST JUMPDEST PUSH2 0x1809 DUP14 DUP3 DUP15 ADD PUSH2 0x1479 JUMP JUMPDEST SWAP2 POP POP SWAP3 SWAP6 SWAP9 SWAP12 SWAP2 SWAP5 SWAP8 SWAP11 POP SWAP3 SWAP6 SWAP9 POP JUMP JUMPDEST PUSH2 0x1824 DUP2 PUSH2 0x1B3B JUMP JUMPDEST DUP3 MSTORE POP POP JUMP JUMPDEST PUSH2 0x1833 DUP2 PUSH2 0x1B4D JUMP JUMPDEST DUP3 MSTORE POP POP JUMP JUMPDEST PUSH2 0x1842 DUP2 PUSH2 0x1BA0 JUMP JUMPDEST DUP3 MSTORE POP POP JUMP JUMPDEST PUSH1 0x0 PUSH2 0x1853 DUP3 PUSH2 0x1A52 JUMP JUMPDEST PUSH2 0x185D DUP2 DUP6 PUSH2 0x1A5D JUMP JUMPDEST SWAP4 POP PUSH2 0x186D DUP2 DUP6 PUSH1 0x20 DUP7 ADD PUSH2 0x1BC1 JUMP JUMPDEST PUSH2 0x1876 DUP2 PUSH2 0x1D85 JUMP JUMPDEST DUP5 ADD SWAP2 POP POP SWAP3 SWAP2 POP POP JUMP JUMPDEST PUSH1 0x0 PUSH2 0x188E PUSH1 0x1C DUP4 PUSH2 0x1A5D JUMP JUMPDEST SWAP2 POP PUSH2 0x1899 DUP3 PUSH2 0x1D96 JUMP JUMPDEST PUSH1 0x20 DUP3 ADD SWAP1 POP SWAP2 SWAP1 POP JUMP JUMPDEST PUSH1 0x0 PUSH2 0x18B1 PUSH1 0x19 DUP4 PUSH2 0x1A5D JUMP JUMPDEST SWAP2 POP PUSH2 0x18BC DUP3 PUSH2 0x1DBF JUMP JUMPDEST PUSH1 0x20 DUP3 ADD SWAP1 POP SWAP2 SWAP1 POP JUMP JUMPDEST PUSH1 0x0 PUSH2 0x18D4 PUSH1 0x1E DUP4 PUSH2 0x1A5D JUMP JUMPDEST SWAP2 POP PUSH2 0x18DF DUP3 PUSH2 0x1DE8 JUMP JUMPDEST PUSH1 0x20 DUP3 ADD SWAP1 POP SWAP2 SWAP1 POP JUMP JUMPDEST PUSH2 0x18F3 DUP2 PUSH2 0x1B96 JUMP JUMPDEST DUP3 MSTORE POP POP JUMP JUMPDEST PUSH1 0x0 PUSH1 0x20 DUP3 ADD SWAP1 POP PUSH2 0x190E PUSH1 0x0 DUP4 ADD DUP5 PUSH2 0x181B JUMP JUMPDEST SWAP3 SWAP2 POP POP JUMP JUMPDEST PUSH1 0x0 PUSH1 0x20 DUP3 ADD SWAP1 POP PUSH2 0x1929 PUSH1 0x0 DUP4 ADD DUP5 PUSH2 0x182A JUMP JUMPDEST SWAP3 SWAP2 POP POP JUMP JUMPDEST PUSH1 0x0 PUSH1 0x40 DUP3 ADD SWAP1 POP PUSH2 0x1944 PUSH1 0x0 DUP4 ADD DUP6 PUSH2 0x1839 JUMP JUMPDEST DUP2 DUP2 SUB PUSH1 0x20 DUP4 ADD MSTORE PUSH2 0x1956 DUP2 DUP5 PUSH2 0x1848 JUMP JUMPDEST SWAP1 POP SWAP4 SWAP3 POP POP POP JUMP JUMPDEST PUSH1 0x0 PUSH1 0x20 DUP3 ADD SWAP1 POP DUP2 DUP2 SUB PUSH1 0x0 DUP4 ADD MSTORE PUSH2 0x1979 DUP2 DUP5 PUSH2 0x1848 JUMP JUMPDEST SWAP1 POP SWAP3 SWAP2 POP POP JUMP JUMPDEST PUSH1 0x0 PUSH1 0x20 DUP3 ADD SWAP1 POP DUP2 DUP2 SUB PUSH1 0x0 DUP4 ADD MSTORE PUSH2 0x199A DUP2 PUSH2 0x1881 JUMP JUMPDEST SWAP1 POP SWAP2 SWAP1 POP JUMP JUMPDEST PUSH1 0x0 PUSH1 0x20 DUP3 ADD SWAP1 POP DUP2 DUP2 SUB PUSH1 0x0 DUP4 ADD MSTORE PUSH2 0x19BA DUP2 PUSH2 0x18A4 JUMP JUMPDEST SWAP1 POP SWAP2 SWAP1 POP JUMP JUMPDEST PUSH1 0x0 PUSH1 0x20 DUP3 ADD SWAP1 POP DUP2 DUP2 SUB PUSH1 0x0 DUP4 ADD MSTORE PUSH2 0x19DA DUP2 PUSH2 0x18C7 JUMP JUMPDEST SWAP1 POP SWAP2 SWAP1 POP JUMP JUMPDEST PUSH1 0x0 PUSH1 0x20 DUP3 ADD SWAP1 POP PUSH2 0x19F6 PUSH1 0x0 DUP4 ADD DUP5 PUSH2 0x18EA JUMP JUMPDEST SWAP3 SWAP2 POP POP JUMP JUMPDEST PUSH1 0x0 PUSH2 0x1A06 PUSH2 0x1A17 JUMP JUMPDEST SWAP1 POP PUSH2 0x1A12 DUP3 DUP3 PUSH2 0x1C26 JUMP JUMPDEST SWAP2 SWAP1 POP JUMP JUMPDEST PUSH1 0x0 PUSH1 0x40 MLOAD SWAP1 POP SWAP1 JUMP JUMPDEST PUSH1 0x0 PUSH8 0xFFFFFFFFFFFFFFFF DUP3 GT ISZERO PUSH2 0x1A3C JUMPI PUSH2 0x1A3B PUSH2 0x1D42 JUMP JUMPDEST JUMPDEST PUSH2 0x1A45 DUP3 PUSH2 0x1D85 JUMP JUMPDEST SWAP1 POP PUSH1 0x20 DUP2 ADD SWAP1 POP SWAP2 SWAP1 POP JUMP JUMPDEST PUSH1 0x0 DUP2 MLOAD SWAP1 POP SWAP2 SWAP1 POP JUMP JUMPDEST PUSH1 0x0 DUP3 DUP3 MSTORE PUSH1 0x20 DUP3 ADD SWAP1 POP SWAP3 SWAP2 POP POP JUMP JUMPDEST PUSH1 0x0 PUSH2 0x1A79 DUP3 PUSH2 0x1B96 JUMP JUMPDEST SWAP2 POP PUSH2 0x1A84 DUP4 PUSH2 0x1B96 JUMP JUMPDEST SWAP3 POP DUP3 PUSH32 0xFFFFFFFFFFFFFFFFFFFFFFFFFFFFFFFFFFFFFFFFFFFFFFFFFFFFFFFFFFFFFFFF SUB DUP3 GT ISZERO PUSH2 0x1AB9 JUMPI PUSH2 0x1AB8 PUSH2 0x1C57 JUMP JUMPDEST JUMPDEST DUP3 DUP3 ADD SWAP1 POP SWAP3 SWAP2 POP POP JUMP JUMPDEST PUSH1 0x0 PUSH2 0x1ACF DUP3 PUSH2 0x1B96 JUMP JUMPDEST SWAP2 POP PUSH2 0x1ADA DUP4 PUSH2 0x1B96 JUMP JUMPDEST SWAP3 POP DUP3 PUSH2 0x1AEA JUMPI PUSH2 0x1AE9 PUSH2 0x1C86 JUMP JUMPDEST JUMPDEST DUP3 DUP3 DIV SWAP1 POP SWAP3 SWAP2 POP POP JUMP JUMPDEST PUSH1 0x0 PUSH2 0x1B00 DUP3 PUSH2 0x1B96 JUMP JUMPDEST SWAP2 POP PUSH2 0x1B0B DUP4 PUSH2 0x1B96 JUMP JUMPDEST SWAP3 POP DUP3 DUP3 LT ISZERO PUSH2 0x1B1E JUMPI PUSH2 0x1B1D PUSH2 0x1C57 JUMP JUMPDEST JUMPDEST DUP3 DUP3 SUB SWAP1 POP SWAP3 SWAP2 POP POP JUMP JUMPDEST PUSH1 0x0 PUSH2 0x1B34 DUP3 PUSH2 0x1B76 JUMP JUMPDEST SWAP1 POP SWAP2 SWAP1 POP JUMP JUMPDEST PUSH1 0x0 PUSH2 0x1B46 DUP3 PUSH2 0x1B76 JUMP JUMPDEST SWAP1 POP SWAP2 SWAP1 POP JUMP JUMPDEST PUSH1 0x0 DUP2 ISZERO ISZERO SWAP1 POP SWAP2 SWAP1 POP JUMP JUMPDEST PUSH1 0x0 DUP2 SWAP1 POP PUSH2 0x1B67 DUP3 PUSH2 0x1E11 JUMP JUMPDEST SWAP2 SWAP1 POP JUMP JUMPDEST PUSH1 0x0 DUP2 SWAP1 POP SWAP2 SWAP1 POP JUMP JUMPDEST PUSH1 0x0 PUSH20 0xFFFFFFFFFFFFFFFFFFFFFFFFFFFFFFFFFFFFFFFF DUP3 AND SWAP1 POP SWAP2 SWAP1 POP JUMP JUMPDEST PUSH1 0x0 DUP2 SWAP1 POP SWAP2 SWAP1 POP JUMP JUMPDEST PUSH1 0x0 PUSH2 0x1BAB DUP3 PUSH2 0x1B59 JUMP JUMPDEST SWAP1 POP SWAP2 SWAP1 POP JUMP JUMPDEST DUP3 DUP2 DUP4 CALLDATACOPY PUSH1 0x0 DUP4 DUP4 ADD MSTORE POP POP POP JUMP JUMPDEST PUSH1 0x0 JUMPDEST DUP4 DUP2 LT ISZERO PUSH2 0x1BDF JUMPI DUP1 DUP3 ADD MLOAD DUP2 DUP5 ADD MSTORE PUSH1 0x20 DUP2 ADD SWAP1 POP PUSH2 0x1BC4 JUMP JUMPDEST DUP4 DUP2 GT ISZERO PUSH2 0x1BEE JUMPI PUSH1 0x0 DUP5 DUP5 ADD MSTORE JUMPDEST POP POP POP POP JUMP JUMPDEST PUSH1 0x0 PUSH1 0x2 DUP3 DIV SWAP1 POP PUSH1 0x1 DUP3 AND DUP1 PUSH2 0x1C0C JUMPI PUSH1 0x7F DUP3 AND SWAP2 POP JUMPDEST PUSH1 0x20 DUP3 LT DUP2 EQ ISZERO PUSH2 0x1C20 JUMPI PUSH2 0x1C1F PUSH2 0x1CE4 JUMP JUMPDEST JUMPDEST POP SWAP2 SWAP1 POP JUMP JUMPDEST PUSH2 0x1C2F DUP3 PUSH2 0x1D85 JUMP JUMPDEST DUP2 ADD DUP2 DUP2 LT PUSH8 0xFFFFFFFFFFFFFFFF DUP3 GT OR ISZERO PUSH2 0x1C4E JUMPI PUSH2 0x1C4D PUSH2 0x1D42 JUMP JUMPDEST JUMPDEST DUP1 PUSH1 0x40 MSTORE POP POP POP JUMP JUMPDEST PUSH32 0x4E487B7100000000000000000000000000000000000000000000000000000000 PUSH1 0x0 MSTORE PUSH1 0x11 PUSH1 0x4 MSTORE PUSH1 0x24 PUSH1 0x0 REVERT JUMPDEST PUSH32 0x4E487B7100000000000000000000000000000000000000000000000000000000 PUSH1 0x0 MSTORE PUSH1 0x12 PUSH1 0x4 MSTORE PUSH1 0x24 PUSH1 0x0 REVERT JUMPDEST PUSH32 0x4E487B7100000000000000000000000000000000000000000000000000000000 PUSH1 0x0 MSTORE PUSH1 0x21 PUSH1 0x4 MSTORE PUSH1 0x24 PUSH1 0x0 REVERT JUMPDEST PUSH32 0x4E487B7100000000000000000000000000000000000000000000000000000000 PUSH1 0x0 MSTORE PUSH1 0x22 PUSH1 0x4 MSTORE PUSH1 0x24 PUSH1 0x0 REVERT JUMPDEST PUSH32 0x4E487B7100000000000000000000000000000000000000000000000000000000 PUSH1 0x0 MSTORE PUSH1 0x32 PUSH1 0x4 MSTORE PUSH1 0x24 PUSH1 0x0 REVERT JUMPDEST PUSH32 0x4E487B7100000000000000000000000000000000000000000000000000000000 PUSH1 0x0 MSTORE PUSH1 0x41 PUSH1 0x4 MSTORE PUSH1 0x24 PUSH1 0x0 REVERT JUMPDEST PUSH1 0x0 DUP1 REVERT JUMPDEST PUSH1 0x0 DUP1 REVERT JUMPDEST PUSH1 0x0 DUP1 REVERT JUMPDEST PUSH1 0x0 DUP1 REVERT JUMPDEST PUSH1 0x0 PUSH1 0x1F NOT PUSH1 0x1F DUP4 ADD AND SWAP1 POP SWAP2 SWAP1 POP JUMP JUMPDEST PUSH32 0x63616C6C6572206973206E6F742061206469737472696275746F722E00000000 PUSH1 0x0 DUP3 ADD MSTORE POP JUMP JUMPDEST PUSH32 0x63616C6C6572206973206E6F7420612070726F64756365722E00000000000000 PUSH1 0x0 DUP3 ADD MSTORE POP JUMP JUMPDEST PUSH32 0x63616C6C6572206973206E6F742074686520746F6B656E206F776E65722E0000 PUSH1 0x0 DUP3 ADD MSTORE POP JUMP JUMPDEST PUSH1 0x5 DUP2 LT PUSH2 0x1E22 JUMPI PUSH2 0x1E21 PUSH2 0x1CB5 JUMP JUMPDEST JUMPDEST POP JUMP JUMPDEST PUSH2 0x1E2E DUP2 PUSH2 0x1B29 JUMP JUMPDEST DUP2 EQ PUSH2 0x1E39 JUMPI PUSH1 0x0 DUP1 REVERT JUMPDEST POP JUMP JUMPDEST PUSH1 0x5 DUP2 LT PUSH2 0x1E49 JUMPI PUSH1 0x0 DUP1 REVERT JUMPDEST POP JUMP JUMPDEST PUSH2 0x1E55 DUP2 PUSH2 0x1B6C JUMP JUMPDEST DUP2 EQ PUSH2 0x1E60 JUMPI PUSH1 0x0 DUP1 REVERT JUMPDEST POP JUMP JUMPDEST PUSH2 0x1E6C DUP2 PUSH2 0x1B96 JUMP JUMPDEST DUP2 EQ PUSH2 0x1E77 JUMPI PUSH1 0x0 DUP1 REVERT JUMPDEST POP JUMP INVALID LOG2 PUSH5 0x6970667358 0x22 SLT KECCAK256 0xBF 0x24 LOG2 SWAP13 PUSH8 0x665C85C918F71B47 PUSH21 0xA4975F7AEE49A48F3347C75C87F81870692B64736F PUSH13 0x63430008070033000000000000 "
				},
				"gasEstimates": {
					"creation": {
						"codeDepositCost": "1571200",
						"executionCost": "infinite",
						"totalCost": "infinite"
					},
					"external": {
						"burn(address,uint256)": "infinite",
						"buyProduct(uint256,uint256,string,string,int256)": "infinite",
						"buyToken()": "infinite",
						"etherBalance(address)": "3323",
						"getActorInfo(address)": "infinite",
						"mint(uint256)": "infinite",
						"name()": "infinite",
						"produceProduct(uint256,uint256,uint256,string,string,string,string,string,string,string)": "infinite",
						"register(address,uint8,string)": "infinite",
						"symbol()": "infinite",
						"tokenBalance(address)": "2929",
						"tokenOwner()": "2581",
						"tokenTransfer(address,uint256)": "infinite"
					}
				},
				"methodIdentifiers": {
					"burn(address,uint256)": "9dc29fac",
					"buyProduct(uint256,uint256,string,string,int256)": "45091a60",
					"buyToken()": "a4821719",
					"etherBalance(address)": "cd0c5896",
					"getActorInfo(address)": "b292abf1",
					"mint(uint256)": "a0712d68",
					"name()": "06fdde03",
					"produceProduct(uint256,uint256,uint256,string,string,string,string,string,string,string)": "561e0e98",
					"register(address,uint8,string)": "40932fc2",
					"symbol()": "95d89b41",
					"tokenBalance(address)": "eedc966a",
					"tokenOwner()": "a3e67610",
					"tokenTransfer(address,uint256)": "68cdafe6"
				}
			},
			"storageLayout": {
				"storage": [
					{
						"astId": 3,
						"contract": "contracts/4_Product.sol:ProductSC",
						"label": "name",
						"offset": 0,
						"slot": "0",
						"type": "t_string_storage"
					},
					{
						"astId": 5,
						"contract": "contracts/4_Product.sol:ProductSC",
						"label": "symbol",
						"offset": 0,
						"slot": "1",
						"type": "t_string_storage"
					},
					{
						"astId": 7,
						"contract": "contracts/4_Product.sol:ProductSC",
						"label": "tokenOwner",
						"offset": 0,
						"slot": "2",
						"type": "t_address_payable"
					},
					{
						"astId": 19,
						"contract": "contracts/4_Product.sol:ProductSC",
						"label": "_totalSupply",
						"offset": 0,
						"slot": "3",
						"type": "t_uint256"
					},
					{
						"astId": 84,
						"contract": "contracts/4_Product.sol:ProductSC",
						"label": "balances",
						"offset": 0,
						"slot": "4",
						"type": "t_mapping(t_address,t_uint256)"
					},
					{
						"astId": 89,
						"contract": "contracts/4_Product.sol:ProductSC",
						"label": "actors",
						"offset": 0,
						"slot": "5",
						"type": "t_mapping(t_address,t_struct(Actor)65_storage)"
					},
					{
						"astId": 94,
						"contract": "contracts/4_Product.sol:ProductSC",
						"label": "product",
						"offset": 0,
						"slot": "6",
						"type": "t_mapping(t_uint256,t_struct(Product)57_storage)"
					}
				],
				"types": {
					"t_address": {
						"encoding": "inplace",
						"label": "address",
						"numberOfBytes": "20"
					},
					"t_address_payable": {
						"encoding": "inplace",
						"label": "address payable",
						"numberOfBytes": "20"
					},
					"t_array(t_uint256)4_storage": {
						"base": "t_uint256",
						"encoding": "inplace",
						"label": "uint256[4]",
						"numberOfBytes": "128"
					},
					"t_bool": {
						"encoding": "inplace",
						"label": "bool",
						"numberOfBytes": "1"
					},
					"t_enum(Role)32": {
						"encoding": "inplace",
						"label": "enum ProductSC.Role",
						"numberOfBytes": "1"
					},
					"t_enum(State)26": {
						"encoding": "inplace",
						"label": "enum ProductSC.State",
						"numberOfBytes": "1"
					},
					"t_mapping(t_address,t_struct(Actor)65_storage)": {
						"encoding": "mapping",
						"key": "t_address",
						"label": "mapping(address => struct ProductSC.Actor)",
						"numberOfBytes": "32",
						"value": "t_struct(Actor)65_storage"
					},
					"t_mapping(t_address,t_uint256)": {
						"encoding": "mapping",
						"key": "t_address",
						"label": "mapping(address => uint256)",
						"numberOfBytes": "32",
						"value": "t_uint256"
					},
					"t_mapping(t_uint256,t_struct(Product)57_storage)": {
						"encoding": "mapping",
						"key": "t_uint256",
						"label": "mapping(uint256 => struct ProductSC.Product)",
						"numberOfBytes": "32",
						"value": "t_struct(Product)57_storage"
					},
					"t_string_storage": {
						"encoding": "bytes",
						"label": "string",
						"numberOfBytes": "32"
					},
					"t_struct(Actor)65_storage": {
						"encoding": "inplace",
						"label": "struct ProductSC.Actor",
						"members": [
							{
								"astId": 60,
								"contract": "contracts/4_Product.sol:ProductSC",
								"label": "role",
								"offset": 0,
								"slot": "0",
								"type": "t_enum(Role)32"
							},
							{
								"astId": 62,
								"contract": "contracts/4_Product.sol:ProductSC",
								"label": "name",
								"offset": 0,
								"slot": "1",
								"type": "t_string_storage"
							},
							{
								"astId": 64,
								"contract": "contracts/4_Product.sol:ProductSC",
								"label": "isDefined",
								"offset": 0,
								"slot": "2",
								"type": "t_bool"
							}
						],
						"numberOfBytes": "96"
					},
					"t_struct(Details)80_storage": {
						"encoding": "inplace",
						"label": "struct ProductSC.Details",
						"members": [
							{
								"astId": 67,
								"contract": "contracts/4_Product.sol:ProductSC",
								"label": "name",
								"offset": 0,
								"slot": "0",
								"type": "t_string_storage"
							},
							{
								"astId": 69,
								"contract": "contracts/4_Product.sol:ProductSC",
								"label": "brand",
								"offset": 0,
								"slot": "1",
								"type": "t_string_storage"
							},
							{
								"astId": 71,
								"contract": "contracts/4_Product.sol:ProductSC",
								"label": "size",
								"offset": 0,
								"slot": "2",
								"type": "t_string_storage"
							},
							{
								"astId": 73,
								"contract": "contracts/4_Product.sol:ProductSC",
								"label": "weight",
								"offset": 0,
								"slot": "3",
								"type": "t_string_storage"
							},
							{
								"astId": 75,
								"contract": "contracts/4_Product.sol:ProductSC",
								"label": "length",
								"offset": 0,
								"slot": "4",
								"type": "t_string_storage"
							},
							{
								"astId": 77,
								"contract": "contracts/4_Product.sol:ProductSC",
								"label": "width",
								"offset": 0,
								"slot": "5",
								"type": "t_string_storage"
							},
							{
								"astId": 79,
								"contract": "contracts/4_Product.sol:ProductSC",
								"label": "height",
								"offset": 0,
								"slot": "6",
								"type": "t_string_storage"
							}
						],
						"numberOfBytes": "224"
					},
					"t_struct(Product)57_storage": {
						"encoding": "inplace",
						"label": "struct ProductSC.Product",
						"members": [
							{
								"astId": 34,
								"contract": "contracts/4_Product.sol:ProductSC",
								"label": "ID",
								"offset": 0,
								"slot": "0",
								"type": "t_uint256"
							},
							{
								"astId": 36,
								"contract": "contracts/4_Product.sol:ProductSC",
								"label": "ownerID",
								"offset": 0,
								"slot": "1",
								"type": "t_address"
							},
							{
								"astId": 38,
								"contract": "contracts/4_Product.sol:ProductSC",
								"label": "producerID",
								"offset": 0,
								"slot": "2",
								"type": "t_address"
							},
							{
								"astId": 42,
								"contract": "contracts/4_Product.sol:ProductSC",
								"label": "timestamp",
								"offset": 0,
								"slot": "3",
								"type": "t_array(t_uint256)4_storage"
							},
							{
								"astId": 45,
								"contract": "contracts/4_Product.sol:ProductSC",
								"label": "productState",
								"offset": 0,
								"slot": "7",
								"type": "t_enum(State)26"
							},
							{
								"astId": 47,
								"contract": "contracts/4_Product.sol:ProductSC",
								"label": "productPrice",
								"offset": 0,
								"slot": "8",
								"type": "t_uint256"
							},
							{
								"astId": 49,
								"contract": "contracts/4_Product.sol:ProductSC",
								"label": "distributorID",
								"offset": 0,
								"slot": "9",
								"type": "t_address"
							},
							{
								"astId": 51,
								"contract": "contracts/4_Product.sol:ProductSC",
								"label": "retailerID",
								"offset": 0,
								"slot": "10",
								"type": "t_address"
							},
							{
								"astId": 53,
								"contract": "contracts/4_Product.sol:ProductSC",
								"label": "consumerID",
								"offset": 0,
								"slot": "11",
								"type": "t_address"
							},
							{
								"astId": 56,
								"contract": "contracts/4_Product.sol:ProductSC",
								"label": "details",
								"offset": 0,
								"slot": "12",
								"type": "t_struct(Details)80_storage"
							}
						],
						"numberOfBytes": "608"
					},
					"t_uint256": {
						"encoding": "inplace",
						"label": "uint256",
						"numberOfBytes": "32"
					}
				}
			},
			"userdoc": {
				"kind": "user",
				"methods": {},
				"version": 1
			}
		}
	}
}