{
	"contracts/4_Product.sol": {
		"ProductSC": {
			"abi": [
				{
					"inputs": [
						{
							"internalType": "string",
							"name": "_name",
							"type": "string"
						},
						{
							"internalType": "string",
							"name": "_symbol",
							"type": "string"
						},
						{
							"internalType": "uint256",
							"name": "_initialSupply",
							"type": "uint256"
						}
					],
					"stateMutability": "nonpayable",
					"type": "constructor"
				},
				{
					"inputs": [
						{
							"internalType": "address",
							"name": "_account",
							"type": "address"
						},
						{
							"internalType": "uint256",
							"name": "_amount",
							"type": "uint256"
						}
					],
					"name": "burn",
					"outputs": [],
					"stateMutability": "nonpayable",
					"type": "function"
				},
				{
					"inputs": [],
					"name": "buyToken",
					"outputs": [],
					"stateMutability": "payable",
					"type": "function"
				},
				{
					"inputs": [
						{
							"internalType": "address",
							"name": "_addr",
							"type": "address"
						}
					],
					"name": "etherBalance",
					"outputs": [
						{
							"internalType": "uint256",
							"name": "",
							"type": "uint256"
						}
					],
					"stateMutability": "view",
					"type": "function"
				},
				{
					"inputs": [
						{
							"internalType": "address",
							"name": "_addr",
							"type": "address"
						}
					],
					"name": "getActorInfo",
					"outputs": [
						{
							"internalType": "enum ProductSC.Role",
							"name": "_role",
							"type": "uint8"
						},
						{
							"internalType": "string",
							"name": "_name",
							"type": "string"
						}
					],
					"stateMutability": "view",
					"type": "function"
				},
				{
					"inputs": [
						{
							"internalType": "uint256",
							"name": "_amount",
							"type": "uint256"
						}
					],
					"name": "mint",
					"outputs": [],
					"stateMutability": "nonpayable",
					"type": "function"
				},
				{
					"inputs": [],
					"name": "name",
					"outputs": [
						{
							"internalType": "string",
							"name": "",
							"type": "string"
						}
					],
					"stateMutability": "view",
					"type": "function"
				},
				{
					"inputs": [
						{
							"internalType": "uint256",
							"name": "_id",
							"type": "uint256"
						},
						{
							"internalType": "uint256",
							"name": "_timestamp",
							"type": "uint256"
						},
						{
							"internalType": "int256",
							"name": "_temp",
							"type": "int256"
						},
						{
							"internalType": "uint256",
							"name": "_price",
							"type": "uint256"
						}
					],
					"name": "produceProduct",
					"outputs": [],
					"stateMutability": "nonpayable",
					"type": "function"
				},
				{
					"inputs": [
						{
							"internalType": "address",
							"name": "_addr",
							"type": "address"
						},
						{
							"internalType": "enum ProductSC.Role",
							"name": "_role",
							"type": "uint8"
						},
						{
							"internalType": "string",
							"name": "_name",
							"type": "string"
						}
					],
					"name": "register",
					"outputs": [],
					"stateMutability": "nonpayable",
					"type": "function"
				},
				{
					"inputs": [],
					"name": "symbol",
					"outputs": [
						{
							"internalType": "string",
							"name": "",
							"type": "string"
						}
					],
					"stateMutability": "view",
					"type": "function"
				},
				{
					"inputs": [
						{
							"internalType": "address",
							"name": "_addr",
							"type": "address"
						}
					],
					"name": "tokenBalance",
					"outputs": [
						{
							"internalType": "uint256",
							"name": "",
							"type": "uint256"
						}
					],
					"stateMutability": "view",
					"type": "function"
				},
				{
					"inputs": [],
					"name": "tokenOwner",
					"outputs": [
						{
							"internalType": "address payable",
							"name": "",
							"type": "address"
						}
					],
					"stateMutability": "view",
					"type": "function"
				},
				{
					"inputs": [
						{
							"internalType": "address",
							"name": "_to",
							"type": "address"
						},
						{
							"internalType": "uint256",
							"name": "_amount",
							"type": "uint256"
						}
					],
					"name": "tokenTransfer",
					"outputs": [
						{
							"internalType": "bool",
							"name": "",
							"type": "bool"
						}
					],
					"stateMutability": "nonpayable",
					"type": "function"
				}
			],
			"devdoc": {
				"kind": "dev",
				"methods": {},
				"version": 1
			},
			"evm": {
				"assembly": "    /* \"contracts/4_Product.sol\":35:9922  contract ProductSC {\r... */\n  mstore(0x40, 0x80)\n    /* \"contracts/4_Product.sol\":1978:2358  constructor (string memory _name, string memory _symbol, uint256 _initialSupply) {\r... */\n  callvalue\n  dup1\n  iszero\n  tag_1\n  jumpi\n  0x00\n  dup1\n  revert\ntag_1:\n  pop\n  mload(0x40)\n  sub(codesize, bytecodeSize)\n  dup1\n  bytecodeSize\n  dup4\n  codecopy\n  dup2\n  dup2\n  add\n  0x40\n  mstore\n  dup2\n  add\n  swap1\n  tag_2\n  swap2\n  swap1\n  tag_3\n  jump\t// in\ntag_2:\n    /* \"contracts/4_Product.sol\":2077:2082  _name */\n  dup3\n    /* \"contracts/4_Product.sol\":2070:2074  name */\n  0x00\n    /* \"contracts/4_Product.sol\":2070:2082  name = _name */\n  swap1\n  dup1\n  mload\n  swap1\n  0x20\n  add\n  swap1\n  tag_6\n  swap3\n  swap2\n  swap1\n  tag_7\n  jump\t// in\ntag_6:\n  pop\n    /* \"contracts/4_Product.sol\":2102:2109  _symbol */\n  dup2\n    /* \"contracts/4_Product.sol\":2093:2099  symbol */\n  0x01\n    /* \"contracts/4_Product.sol\":2093:2109  symbol = _symbol */\n  swap1\n  dup1\n  mload\n  swap1\n  0x20\n  add\n  swap1\n  tag_8\n  swap3\n  swap2\n  swap1\n  tag_7\n  jump\t// in\ntag_8:\n  pop\n    /* \"contracts/4_Product.sol\":2135:2149  _initialSupply */\n  dup1\n    /* \"contracts/4_Product.sol\":2120:2132  _totalSupply */\n  0x03\n    /* \"contracts/4_Product.sol\":2120:2149  _totalSupply = _initialSupply */\n  dup2\n  swap1\n  sstore\n  pop\n    /* \"contracts/4_Product.sol\":2181:2191  msg.sender */\n  caller\n    /* \"contracts/4_Product.sol\":2160:2170  tokenOwner */\n  0x02\n  0x00\n    /* \"contracts/4_Product.sol\":2160:2192  tokenOwner = payable(msg.sender) */\n  0x0100\n  exp\n  dup2\n  sload\n  dup2\n  0xffffffffffffffffffffffffffffffffffffffff\n  mul\n  not\n  and\n  swap1\n  dup4\n  0xffffffffffffffffffffffffffffffffffffffff\n  and\n  mul\n  or\n  swap1\n  sstore\n  pop\n    /* \"contracts/4_Product.sol\":2269:2283  _initialSupply */\n  dup1\n    /* \"contracts/4_Product.sol\":2246:2254  balances */\n  0x04\n    /* \"contracts/4_Product.sol\":2246:2266  balances[msg.sender] */\n  0x00\n    /* \"contracts/4_Product.sol\":2255:2265  msg.sender */\n  caller\n    /* \"contracts/4_Product.sol\":2246:2266  balances[msg.sender] */\n  0xffffffffffffffffffffffffffffffffffffffff\n  and\n  0xffffffffffffffffffffffffffffffffffffffff\n  and\n  dup2\n  mstore\n  0x20\n  add\n  swap1\n  dup2\n  mstore\n  0x20\n  add\n  0x00\n  keccak256\n    /* \"contracts/4_Product.sol\":2246:2283  balances[msg.sender] = _initialSupply */\n  dup2\n  swap1\n  sstore\n  pop\n    /* \"contracts/4_Product.sol\":1978:2358  constructor (string memory _name, string memory _symbol, uint256 _initialSupply) {\r... */\n  pop\n  pop\n  pop\n    /* \"contracts/4_Product.sol\":35:9922  contract ProductSC {\r... */\n  jump(tag_9)\ntag_7:\n  dup3\n  dup1\n  sload\n  tag_10\n  swap1\n  tag_11\n  jump\t// in\ntag_10:\n  swap1\n  0x00\n  mstore\n  keccak256(0x00, 0x20)\n  swap1\n  0x1f\n  add\n  0x20\n  swap1\n  div\n  dup2\n  add\n  swap3\n  dup3\n  tag_13\n  jumpi\n  0x00\n  dup6\n  sstore\n  jump(tag_12)\ntag_13:\n  dup3\n  0x1f\n  lt\n  tag_14\n  jumpi\n  dup1\n  mload\n  not(0xff)\n  and\n  dup4\n  dup1\n  add\n  or\n  dup6\n  sstore\n  jump(tag_12)\ntag_14:\n  dup3\n  dup1\n  add\n  0x01\n  add\n  dup6\n  sstore\n  dup3\n  iszero\n  tag_12\n  jumpi\n  swap2\n  dup3\n  add\ntag_15:\n  dup3\n  dup2\n  gt\n  iszero\n  tag_16\n  jumpi\n  dup3\n  mload\n  dup3\n  sstore\n  swap2\n  0x20\n  add\n  swap2\n  swap1\n  0x01\n  add\n  swap1\n  jump(tag_15)\ntag_16:\ntag_12:\n  pop\n  swap1\n  pop\n  tag_17\n  swap2\n  swap1\n  tag_18\n  jump\t// in\ntag_17:\n  pop\n  swap1\n  jump\t// out\ntag_18:\ntag_19:\n  dup1\n  dup3\n  gt\n  iszero\n  tag_20\n  jumpi\n  0x00\n  dup2\n  0x00\n  swap1\n  sstore\n  pop\n  0x01\n  add\n  jump(tag_19)\ntag_20:\n  pop\n  swap1\n  jump\t// out\n    /* \"#utility.yul\":7:428   */\ntag_22:\n    /* \"#utility.yul\":96:101   */\n  0x00\n    /* \"#utility.yul\":121:187   */\n  tag_24\n    /* \"#utility.yul\":137:186   */\n  tag_25\n    /* \"#utility.yul\":179:185   */\n  dup5\n    /* \"#utility.yul\":137:186   */\n  tag_26\n  jump\t// in\ntag_25:\n    /* \"#utility.yul\":121:187   */\n  tag_27\n  jump\t// in\ntag_24:\n    /* \"#utility.yul\":112:187   */\n  swap1\n  pop\n    /* \"#utility.yul\":210:216   */\n  dup3\n    /* \"#utility.yul\":203:208   */\n  dup2\n    /* \"#utility.yul\":196:217   */\n  mstore\n    /* \"#utility.yul\":248:252   */\n  0x20\n    /* \"#utility.yul\":241:246   */\n  dup2\n    /* \"#utility.yul\":237:253   */\n  add\n    /* \"#utility.yul\":286:289   */\n  dup5\n    /* \"#utility.yul\":277:283   */\n  dup5\n    /* \"#utility.yul\":272:275   */\n  dup5\n    /* \"#utility.yul\":268:284   */\n  add\n    /* \"#utility.yul\":265:290   */\n  gt\n    /* \"#utility.yul\":262:374   */\n  iszero\n  tag_28\n  jumpi\n    /* \"#utility.yul\":293:372   */\n  tag_29\n  tag_30\n  jump\t// in\ntag_29:\n    /* \"#utility.yul\":262:374   */\ntag_28:\n    /* \"#utility.yul\":383:422   */\n  tag_31\n    /* \"#utility.yul\":415:421   */\n  dup5\n    /* \"#utility.yul\":410:413   */\n  dup3\n    /* \"#utility.yul\":405:408   */\n  dup6\n    /* \"#utility.yul\":383:422   */\n  tag_32\n  jump\t// in\ntag_31:\n    /* \"#utility.yul\":102:428   */\n  pop\n    /* \"#utility.yul\":7:428   */\n  swap4\n  swap3\n  pop\n  pop\n  pop\n  jump\t// out\n    /* \"#utility.yul\":448:803   */\ntag_33:\n    /* \"#utility.yul\":515:520   */\n  0x00\n    /* \"#utility.yul\":564:567   */\n  dup3\n    /* \"#utility.yul\":557:561   */\n  0x1f\n    /* \"#utility.yul\":549:555   */\n  dup4\n    /* \"#utility.yul\":545:562   */\n  add\n    /* \"#utility.yul\":541:568   */\n  slt\n    /* \"#utility.yul\":531:653   */\n  tag_35\n  jumpi\n    /* \"#utility.yul\":572:651   */\n  tag_36\n  tag_37\n  jump\t// in\ntag_36:\n    /* \"#utility.yul\":531:653   */\ntag_35:\n    /* \"#utility.yul\":682:688   */\n  dup2\n    /* \"#utility.yul\":676:689   */\n  mload\n    /* \"#utility.yul\":707:797   */\n  tag_38\n    /* \"#utility.yul\":793:796   */\n  dup5\n    /* \"#utility.yul\":785:791   */\n  dup3\n    /* \"#utility.yul\":778:782   */\n  0x20\n    /* \"#utility.yul\":770:776   */\n  dup7\n    /* \"#utility.yul\":766:783   */\n  add\n    /* \"#utility.yul\":707:797   */\n  tag_22\n  jump\t// in\ntag_38:\n    /* \"#utility.yul\":698:797   */\n  swap2\n  pop\n    /* \"#utility.yul\":521:803   */\n  pop\n    /* \"#utility.yul\":448:803   */\n  swap3\n  swap2\n  pop\n  pop\n  jump\t// out\n    /* \"#utility.yul\":809:952   */\ntag_39:\n    /* \"#utility.yul\":866:871   */\n  0x00\n    /* \"#utility.yul\":897:903   */\n  dup2\n    /* \"#utility.yul\":891:904   */\n  mload\n    /* \"#utility.yul\":882:904   */\n  swap1\n  pop\n    /* \"#utility.yul\":913:946   */\n  tag_41\n    /* \"#utility.yul\":940:945   */\n  dup2\n    /* \"#utility.yul\":913:946   */\n  tag_42\n  jump\t// in\ntag_41:\n    /* \"#utility.yul\":809:952   */\n  swap3\n  swap2\n  pop\n  pop\n  jump\t// out\n    /* \"#utility.yul\":958:1967   */\ntag_3:\n    /* \"#utility.yul\":1066:1072   */\n  0x00\n    /* \"#utility.yul\":1074:1080   */\n  dup1\n    /* \"#utility.yul\":1082:1088   */\n  0x00\n    /* \"#utility.yul\":1131:1133   */\n  0x60\n    /* \"#utility.yul\":1119:1128   */\n  dup5\n    /* \"#utility.yul\":1110:1117   */\n  dup7\n    /* \"#utility.yul\":1106:1129   */\n  sub\n    /* \"#utility.yul\":1102:1134   */\n  slt\n    /* \"#utility.yul\":1099:1218   */\n  iszero\n  tag_44\n  jumpi\n    /* \"#utility.yul\":1137:1216   */\n  tag_45\n  tag_46\n  jump\t// in\ntag_45:\n    /* \"#utility.yul\":1099:1218   */\ntag_44:\n    /* \"#utility.yul\":1278:1279   */\n  0x00\n    /* \"#utility.yul\":1267:1276   */\n  dup5\n    /* \"#utility.yul\":1263:1280   */\n  add\n    /* \"#utility.yul\":1257:1281   */\n  mload\n    /* \"#utility.yul\":1308:1326   */\n  0xffffffffffffffff\n    /* \"#utility.yul\":1300:1306   */\n  dup2\n    /* \"#utility.yul\":1297:1327   */\n  gt\n    /* \"#utility.yul\":1294:1411   */\n  iszero\n  tag_47\n  jumpi\n    /* \"#utility.yul\":1330:1409   */\n  tag_48\n  tag_49\n  jump\t// in\ntag_48:\n    /* \"#utility.yul\":1294:1411   */\ntag_47:\n    /* \"#utility.yul\":1435:1509   */\n  tag_50\n    /* \"#utility.yul\":1501:1508   */\n  dup7\n    /* \"#utility.yul\":1492:1498   */\n  dup3\n    /* \"#utility.yul\":1481:1490   */\n  dup8\n    /* \"#utility.yul\":1477:1499   */\n  add\n    /* \"#utility.yul\":1435:1509   */\n  tag_33\n  jump\t// in\ntag_50:\n    /* \"#utility.yul\":1425:1509   */\n  swap4\n  pop\n    /* \"#utility.yul\":1228:1519   */\n  pop\n    /* \"#utility.yul\":1579:1581   */\n  0x20\n    /* \"#utility.yul\":1568:1577   */\n  dup5\n    /* \"#utility.yul\":1564:1582   */\n  add\n    /* \"#utility.yul\":1558:1583   */\n  mload\n    /* \"#utility.yul\":1610:1628   */\n  0xffffffffffffffff\n    /* \"#utility.yul\":1602:1608   */\n  dup2\n    /* \"#utility.yul\":1599:1629   */\n  gt\n    /* \"#utility.yul\":1596:1713   */\n  iszero\n  tag_51\n  jumpi\n    /* \"#utility.yul\":1632:1711   */\n  tag_52\n  tag_49\n  jump\t// in\ntag_52:\n    /* \"#utility.yul\":1596:1713   */\ntag_51:\n    /* \"#utility.yul\":1737:1811   */\n  tag_53\n    /* \"#utility.yul\":1803:1810   */\n  dup7\n    /* \"#utility.yul\":1794:1800   */\n  dup3\n    /* \"#utility.yul\":1783:1792   */\n  dup8\n    /* \"#utility.yul\":1779:1801   */\n  add\n    /* \"#utility.yul\":1737:1811   */\n  tag_33\n  jump\t// in\ntag_53:\n    /* \"#utility.yul\":1727:1811   */\n  swap3\n  pop\n    /* \"#utility.yul\":1529:1821   */\n  pop\n    /* \"#utility.yul\":1860:1862   */\n  0x40\n    /* \"#utility.yul\":1886:1950   */\n  tag_54\n    /* \"#utility.yul\":1942:1949   */\n  dup7\n    /* \"#utility.yul\":1933:1939   */\n  dup3\n    /* \"#utility.yul\":1922:1931   */\n  dup8\n    /* \"#utility.yul\":1918:1940   */\n  add\n    /* \"#utility.yul\":1886:1950   */\n  tag_39\n  jump\t// in\ntag_54:\n    /* \"#utility.yul\":1876:1950   */\n  swap2\n  pop\n    /* \"#utility.yul\":1831:1960   */\n  pop\n    /* \"#utility.yul\":958:1967   */\n  swap3\n  pop\n  swap3\n  pop\n  swap3\n  jump\t// out\n    /* \"#utility.yul\":1973:2102   */\ntag_27:\n    /* \"#utility.yul\":2007:2013   */\n  0x00\n    /* \"#utility.yul\":2034:2054   */\n  tag_56\n  tag_57\n  jump\t// in\ntag_56:\n    /* \"#utility.yul\":2024:2054   */\n  swap1\n  pop\n    /* \"#utility.yul\":2063:2096   */\n  tag_58\n    /* \"#utility.yul\":2091:2095   */\n  dup3\n    /* \"#utility.yul\":2083:2089   */\n  dup3\n    /* \"#utility.yul\":2063:2096   */\n  tag_59\n  jump\t// in\ntag_58:\n    /* \"#utility.yul\":1973:2102   */\n  swap2\n  swap1\n  pop\n  jump\t// out\n    /* \"#utility.yul\":2108:2183   */\ntag_57:\n    /* \"#utility.yul\":2141:2147   */\n  0x00\n    /* \"#utility.yul\":2174:2176   */\n  0x40\n    /* \"#utility.yul\":2168:2177   */\n  mload\n    /* \"#utility.yul\":2158:2177   */\n  swap1\n  pop\n    /* \"#utility.yul\":2108:2183   */\n  swap1\n  jump\t// out\n    /* \"#utility.yul\":2189:2497   */\ntag_26:\n    /* \"#utility.yul\":2251:2255   */\n  0x00\n    /* \"#utility.yul\":2341:2359   */\n  0xffffffffffffffff\n    /* \"#utility.yul\":2333:2339   */\n  dup3\n    /* \"#utility.yul\":2330:2360   */\n  gt\n    /* \"#utility.yul\":2327:2383   */\n  iszero\n  tag_62\n  jumpi\n    /* \"#utility.yul\":2363:2381   */\n  tag_63\n  tag_64\n  jump\t// in\ntag_63:\n    /* \"#utility.yul\":2327:2383   */\ntag_62:\n    /* \"#utility.yul\":2401:2430   */\n  tag_65\n    /* \"#utility.yul\":2423:2429   */\n  dup3\n    /* \"#utility.yul\":2401:2430   */\n  tag_66\n  jump\t// in\ntag_65:\n    /* \"#utility.yul\":2393:2430   */\n  swap1\n  pop\n    /* \"#utility.yul\":2485:2489   */\n  0x20\n    /* \"#utility.yul\":2479:2483   */\n  dup2\n    /* \"#utility.yul\":2475:2490   */\n  add\n    /* \"#utility.yul\":2467:2490   */\n  swap1\n  pop\n    /* \"#utility.yul\":2189:2497   */\n  swap2\n  swap1\n  pop\n  jump\t// out\n    /* \"#utility.yul\":2503:2580   */\ntag_67:\n    /* \"#utility.yul\":2540:2547   */\n  0x00\n    /* \"#utility.yul\":2569:2574   */\n  dup2\n    /* \"#utility.yul\":2558:2574   */\n  swap1\n  pop\n    /* \"#utility.yul\":2503:2580   */\n  swap2\n  swap1\n  pop\n  jump\t// out\n    /* \"#utility.yul\":2586:2893   */\ntag_32:\n    /* \"#utility.yul\":2654:2655   */\n  0x00\n    /* \"#utility.yul\":2664:2777   */\ntag_70:\n    /* \"#utility.yul\":2678:2684   */\n  dup4\n    /* \"#utility.yul\":2675:2676   */\n  dup2\n    /* \"#utility.yul\":2672:2685   */\n  lt\n    /* \"#utility.yul\":2664:2777   */\n  iszero\n  tag_72\n  jumpi\n    /* \"#utility.yul\":2763:2764   */\n  dup1\n    /* \"#utility.yul\":2758:2761   */\n  dup3\n    /* \"#utility.yul\":2754:2765   */\n  add\n    /* \"#utility.yul\":2748:2766   */\n  mload\n    /* \"#utility.yul\":2744:2745   */\n  dup2\n    /* \"#utility.yul\":2739:2742   */\n  dup5\n    /* \"#utility.yul\":2735:2746   */\n  add\n    /* \"#utility.yul\":2728:2767   */\n  mstore\n    /* \"#utility.yul\":2700:2702   */\n  0x20\n    /* \"#utility.yul\":2697:2698   */\n  dup2\n    /* \"#utility.yul\":2693:2703   */\n  add\n    /* \"#utility.yul\":2688:2703   */\n  swap1\n  pop\n    /* \"#utility.yul\":2664:2777   */\n  jump(tag_70)\ntag_72:\n    /* \"#utility.yul\":2795:2801   */\n  dup4\n    /* \"#utility.yul\":2792:2793   */\n  dup2\n    /* \"#utility.yul\":2789:2802   */\n  gt\n    /* \"#utility.yul\":2786:2887   */\n  iszero\n  tag_73\n  jumpi\n    /* \"#utility.yul\":2875:2876   */\n  0x00\n    /* \"#utility.yul\":2866:2872   */\n  dup5\n    /* \"#utility.yul\":2861:2864   */\n  dup5\n    /* \"#utility.yul\":2857:2873   */\n  add\n    /* \"#utility.yul\":2850:2877   */\n  mstore\n    /* \"#utility.yul\":2786:2887   */\ntag_73:\n    /* \"#utility.yul\":2635:2893   */\n  pop\n    /* \"#utility.yul\":2586:2893   */\n  pop\n  pop\n  pop\n  jump\t// out\n    /* \"#utility.yul\":2899:3219   */\ntag_11:\n    /* \"#utility.yul\":2943:2949   */\n  0x00\n    /* \"#utility.yul\":2980:2981   */\n  0x02\n    /* \"#utility.yul\":2974:2978   */\n  dup3\n    /* \"#utility.yul\":2970:2982   */\n  div\n    /* \"#utility.yul\":2960:2982   */\n  swap1\n  pop\n    /* \"#utility.yul\":3027:3028   */\n  0x01\n    /* \"#utility.yul\":3021:3025   */\n  dup3\n    /* \"#utility.yul\":3017:3029   */\n  and\n    /* \"#utility.yul\":3048:3066   */\n  dup1\n    /* \"#utility.yul\":3038:3119   */\n  tag_75\n  jumpi\n    /* \"#utility.yul\":3104:3108   */\n  0x7f\n    /* \"#utility.yul\":3096:3102   */\n  dup3\n    /* \"#utility.yul\":3092:3109   */\n  and\n    /* \"#utility.yul\":3082:3109   */\n  swap2\n  pop\n    /* \"#utility.yul\":3038:3119   */\ntag_75:\n    /* \"#utility.yul\":3166:3168   */\n  0x20\n    /* \"#utility.yul\":3158:3164   */\n  dup3\n    /* \"#utility.yul\":3155:3169   */\n  lt\n    /* \"#utility.yul\":3135:3153   */\n  dup2\n    /* \"#utility.yul\":3132:3170   */\n  eq\n    /* \"#utility.yul\":3129:3213   */\n  iszero\n  tag_76\n  jumpi\n    /* \"#utility.yul\":3185:3203   */\n  tag_77\n  tag_78\n  jump\t// in\ntag_77:\n    /* \"#utility.yul\":3129:3213   */\ntag_76:\n    /* \"#utility.yul\":2950:3219   */\n  pop\n    /* \"#utility.yul\":2899:3219   */\n  swap2\n  swap1\n  pop\n  jump\t// out\n    /* \"#utility.yul\":3225:3506   */\ntag_59:\n    /* \"#utility.yul\":3308:3335   */\n  tag_80\n    /* \"#utility.yul\":3330:3334   */\n  dup3\n    /* \"#utility.yul\":3308:3335   */\n  tag_66\n  jump\t// in\ntag_80:\n    /* \"#utility.yul\":3300:3306   */\n  dup2\n    /* \"#utility.yul\":3296:3336   */\n  add\n    /* \"#utility.yul\":3438:3444   */\n  dup2\n    /* \"#utility.yul\":3426:3436   */\n  dup2\n    /* \"#utility.yul\":3423:3445   */\n  lt\n    /* \"#utility.yul\":3402:3420   */\n  0xffffffffffffffff\n    /* \"#utility.yul\":3390:3400   */\n  dup3\n    /* \"#utility.yul\":3387:3421   */\n  gt\n    /* \"#utility.yul\":3384:3446   */\n  or\n    /* \"#utility.yul\":3381:3469   */\n  iszero\n  tag_81\n  jumpi\n    /* \"#utility.yul\":3449:3467   */\n  tag_82\n  tag_64\n  jump\t// in\ntag_82:\n    /* \"#utility.yul\":3381:3469   */\ntag_81:\n    /* \"#utility.yul\":3489:3499   */\n  dup1\n    /* \"#utility.yul\":3485:3487   */\n  0x40\n    /* \"#utility.yul\":3478:3500   */\n  mstore\n    /* \"#utility.yul\":3268:3506   */\n  pop\n    /* \"#utility.yul\":3225:3506   */\n  pop\n  pop\n  jump\t// out\n    /* \"#utility.yul\":3512:3692   */\ntag_78:\n    /* \"#utility.yul\":3560:3637   */\n  0x4e487b7100000000000000000000000000000000000000000000000000000000\n    /* \"#utility.yul\":3557:3558   */\n  0x00\n    /* \"#utility.yul\":3550:3638   */\n  mstore\n    /* \"#utility.yul\":3657:3661   */\n  0x22\n    /* \"#utility.yul\":3654:3655   */\n  0x04\n    /* \"#utility.yul\":3647:3662   */\n  mstore\n    /* \"#utility.yul\":3681:3685   */\n  0x24\n    /* \"#utility.yul\":3678:3679   */\n  0x00\n    /* \"#utility.yul\":3671:3686   */\n  revert\n    /* \"#utility.yul\":3698:3878   */\ntag_64:\n    /* \"#utility.yul\":3746:3823   */\n  0x4e487b7100000000000000000000000000000000000000000000000000000000\n    /* \"#utility.yul\":3743:3744   */\n  0x00\n    /* \"#utility.yul\":3736:3824   */\n  mstore\n    /* \"#utility.yul\":3843:3847   */\n  0x41\n    /* \"#utility.yul\":3840:3841   */\n  0x04\n    /* \"#utility.yul\":3833:3848   */\n  mstore\n    /* \"#utility.yul\":3867:3871   */\n  0x24\n    /* \"#utility.yul\":3864:3865   */\n  0x00\n    /* \"#utility.yul\":3857:3872   */\n  revert\n    /* \"#utility.yul\":3884:4001   */\ntag_37:\n    /* \"#utility.yul\":3993:3994   */\n  0x00\n    /* \"#utility.yul\":3990:3991   */\n  dup1\n    /* \"#utility.yul\":3983:3995   */\n  revert\n    /* \"#utility.yul\":4007:4124   */\ntag_30:\n    /* \"#utility.yul\":4116:4117   */\n  0x00\n    /* \"#utility.yul\":4113:4114   */\n  dup1\n    /* \"#utility.yul\":4106:4118   */\n  revert\n    /* \"#utility.yul\":4130:4247   */\ntag_49:\n    /* \"#utility.yul\":4239:4240   */\n  0x00\n    /* \"#utility.yul\":4236:4237   */\n  dup1\n    /* \"#utility.yul\":4229:4241   */\n  revert\n    /* \"#utility.yul\":4253:4370   */\ntag_46:\n    /* \"#utility.yul\":4362:4363   */\n  0x00\n    /* \"#utility.yul\":4359:4360   */\n  dup1\n    /* \"#utility.yul\":4352:4364   */\n  revert\n    /* \"#utility.yul\":4376:4478   */\ntag_66:\n    /* \"#utility.yul\":4417:4423   */\n  0x00\n    /* \"#utility.yul\":4468:4470   */\n  0x1f\n    /* \"#utility.yul\":4464:4471   */\n  not\n    /* \"#utility.yul\":4459:4461   */\n  0x1f\n    /* \"#utility.yul\":4452:4457   */\n  dup4\n    /* \"#utility.yul\":4448:4462   */\n  add\n    /* \"#utility.yul\":4444:4472   */\n  and\n    /* \"#utility.yul\":4434:4472   */\n  swap1\n  pop\n    /* \"#utility.yul\":4376:4478   */\n  swap2\n  swap1\n  pop\n  jump\t// out\n    /* \"#utility.yul\":4484:4606   */\ntag_42:\n    /* \"#utility.yul\":4557:4581   */\n  tag_91\n    /* \"#utility.yul\":4575:4580   */\n  dup2\n    /* \"#utility.yul\":4557:4581   */\n  tag_67\n  jump\t// in\ntag_91:\n    /* \"#utility.yul\":4550:4555   */\n  dup2\n    /* \"#utility.yul\":4547:4582   */\n  eq\n    /* \"#utility.yul\":4537:4600   */\n  tag_92\n  jumpi\n    /* \"#utility.yul\":4596:4597   */\n  0x00\n    /* \"#utility.yul\":4593:4594   */\n  dup1\n    /* \"#utility.yul\":4586:4598   */\n  revert\n    /* \"#utility.yul\":4537:4600   */\ntag_92:\n    /* \"#utility.yul\":4484:4606   */\n  pop\n  jump\t// out\n    /* \"contracts/4_Product.sol\":35:9922  contract ProductSC {\r... */\ntag_9:\n  dataSize(sub_0)\n  dup1\n  dataOffset(sub_0)\n  0x00\n  codecopy\n  0x00\n  return\nstop\n\nsub_0: assembly {\n        /* \"contracts/4_Product.sol\":35:9922  contract ProductSC {\r... */\n      mstore(0x40, 0x80)\n      jumpi(tag_1, lt(calldatasize, 0x04))\n      shr(0xe0, calldataload(0x00))\n      dup1\n      0xa0712d68\n      gt\n      tag_14\n      jumpi\n      dup1\n      0xa0712d68\n      eq\n      tag_8\n      jumpi\n      dup1\n      0xa3e67610\n      eq\n      tag_9\n      jumpi\n      dup1\n      0xa4821719\n      eq\n      tag_10\n      jumpi\n      dup1\n      0xb292abf1\n      eq\n      tag_11\n      jumpi\n      dup1\n      0xcd0c5896\n      eq\n      tag_12\n      jumpi\n      dup1\n      0xeedc966a\n      eq\n      tag_13\n      jumpi\n      jump(tag_1)\n    tag_14:\n      dup1\n      0x06fdde03\n      eq\n      tag_2\n      jumpi\n      dup1\n      0x3bd06f80\n      eq\n      tag_3\n      jumpi\n      dup1\n      0x40932fc2\n      eq\n      tag_4\n      jumpi\n      dup1\n      0x68cdafe6\n      eq\n      tag_5\n      jumpi\n      dup1\n      0x95d89b41\n      eq\n      tag_6\n      jumpi\n      dup1\n      0x9dc29fac\n      eq\n      tag_7\n      jumpi\n    tag_1:\n      0x00\n      dup1\n      revert\n        /* \"contracts/4_Product.sol\":67:85  string public name */\n    tag_2:\n      callvalue\n      dup1\n      iszero\n      tag_15\n      jumpi\n      0x00\n      dup1\n      revert\n    tag_15:\n      pop\n      tag_16\n      tag_17\n      jump\t// in\n    tag_16:\n      mload(0x40)\n      tag_18\n      swap2\n      swap1\n      tag_19\n      jump\t// in\n    tag_18:\n      mload(0x40)\n      dup1\n      swap2\n      sub\n      swap1\n      return\n        /* \"contracts/4_Product.sol\":5959:6535  function produceProduct(uint256 _id, uint256 _timestamp, int256 _temp, uint256 _price) public OnlyProducer{\r... */\n    tag_3:\n      callvalue\n      dup1\n      iszero\n      tag_20\n      jumpi\n      0x00\n      dup1\n      revert\n    tag_20:\n      pop\n      tag_21\n      0x04\n      dup1\n      calldatasize\n      sub\n      dup2\n      add\n      swap1\n      tag_22\n      swap2\n      swap1\n      tag_23\n      jump\t// in\n    tag_22:\n      tag_24\n      jump\t// in\n    tag_21:\n      stop\n        /* \"contracts/4_Product.sol\":5688:5947  function register(address _addr, Role _role, string memory _name) public {\r... */\n    tag_4:\n      callvalue\n      dup1\n      iszero\n      tag_25\n      jumpi\n      0x00\n      dup1\n      revert\n    tag_25:\n      pop\n      tag_26\n      0x04\n      dup1\n      calldatasize\n      sub\n      dup2\n      add\n      swap1\n      tag_27\n      swap2\n      swap1\n      tag_28\n      jump\t// in\n    tag_27:\n      tag_29\n      jump\t// in\n    tag_26:\n      stop\n        /* \"contracts/4_Product.sol\":5320:5676  function tokenTransfer(address _to, uint256 _amount) public returns (bool) {\r... */\n    tag_5:\n      callvalue\n      dup1\n      iszero\n      tag_30\n      jumpi\n      0x00\n      dup1\n      revert\n    tag_30:\n      pop\n      tag_31\n      0x04\n      dup1\n      calldatasize\n      sub\n      dup2\n      add\n      swap1\n      tag_32\n      swap2\n      swap1\n      tag_33\n      jump\t// in\n    tag_32:\n      tag_34\n      jump\t// in\n    tag_31:\n      mload(0x40)\n      tag_35\n      swap2\n      swap1\n      tag_36\n      jump\t// in\n    tag_35:\n      mload(0x40)\n      dup1\n      swap2\n      sub\n      swap1\n      return\n        /* \"contracts/4_Product.sol\":114:134  string public symbol */\n    tag_6:\n      callvalue\n      dup1\n      iszero\n      tag_37\n      jumpi\n      0x00\n      dup1\n      revert\n    tag_37:\n      pop\n      tag_38\n      tag_39\n      jump\t// in\n    tag_38:\n      mload(0x40)\n      tag_40\n      swap2\n      swap1\n      tag_19\n      jump\t// in\n    tag_40:\n      mload(0x40)\n      dup1\n      swap2\n      sub\n      swap1\n      return\n        /* \"contracts/4_Product.sol\":4274:4691  function burn(address _account, uint256 _amount) public OnlyTokenOwner {\r... */\n    tag_7:\n      callvalue\n      dup1\n      iszero\n      tag_41\n      jumpi\n      0x00\n      dup1\n      revert\n    tag_41:\n      pop\n      tag_42\n      0x04\n      dup1\n      calldatasize\n      sub\n      dup2\n      add\n      swap1\n      tag_43\n      swap2\n      swap1\n      tag_33\n      jump\t// in\n    tag_43:\n      tag_44\n      jump\t// in\n    tag_42:\n      stop\n        /* \"contracts/4_Product.sol\":3895:4117  function mint(uint256 _amount) public OnlyTokenOwner {\r... */\n    tag_8:\n      callvalue\n      dup1\n      iszero\n      tag_45\n      jumpi\n      0x00\n      dup1\n      revert\n    tag_45:\n      pop\n      tag_46\n      0x04\n      dup1\n      calldatasize\n      sub\n      dup2\n      add\n      swap1\n      tag_47\n      swap2\n      swap1\n      tag_48\n      jump\t// in\n    tag_47:\n      tag_49\n      jump\t// in\n    tag_46:\n      stop\n        /* \"contracts/4_Product.sol\":165:199  address payable public  tokenOwner */\n    tag_9:\n      callvalue\n      dup1\n      iszero\n      tag_50\n      jumpi\n      0x00\n      dup1\n      revert\n    tag_50:\n      pop\n      tag_51\n      tag_52\n      jump\t// in\n    tag_51:\n      mload(0x40)\n      tag_53\n      swap2\n      swap1\n      tag_54\n      jump\t// in\n    tag_53:\n      mload(0x40)\n      dup1\n      swap2\n      sub\n      swap1\n      return\n        /* \"contracts/4_Product.sol\":4749:5246  function buyToken() public payable {\r... */\n    tag_10:\n      tag_55\n      tag_56\n      jump\t// in\n    tag_55:\n      stop\n        /* \"contracts/4_Product.sol\":9741:9917  function getActorInfo(address _addr) public view returns\r... */\n    tag_11:\n      callvalue\n      dup1\n      iszero\n      tag_57\n      jumpi\n      0x00\n      dup1\n      revert\n    tag_57:\n      pop\n      tag_58\n      0x04\n      dup1\n      calldatasize\n      sub\n      dup2\n      add\n      swap1\n      tag_59\n      swap2\n      swap1\n      tag_60\n      jump\t// in\n    tag_59:\n      tag_61\n      jump\t// in\n    tag_58:\n      mload(0x40)\n      tag_62\n      swap3\n      swap2\n      swap1\n      tag_63\n      jump\t// in\n    tag_62:\n      mload(0x40)\n      dup1\n      swap2\n      sub\n      swap1\n      return\n        /* \"contracts/4_Product.sol\":3673:3779  function etherBalance(address _addr) public view returns (uint256) {\r... */\n    tag_12:\n      callvalue\n      dup1\n      iszero\n      tag_64\n      jumpi\n      0x00\n      dup1\n      revert\n    tag_64:\n      pop\n      tag_65\n      0x04\n      dup1\n      calldatasize\n      sub\n      dup2\n      add\n      swap1\n      tag_66\n      swap2\n      swap1\n      tag_60\n      jump\t// in\n    tag_66:\n      tag_67\n      jump\t// in\n    tag_65:\n      mload(0x40)\n      tag_68\n      swap2\n      swap1\n      tag_69\n      jump\t// in\n    tag_68:\n      mload(0x40)\n      dup1\n      swap2\n      sub\n      swap1\n      return\n        /* \"contracts/4_Product.sol\":3499:3607  function tokenBalance(address _addr) public view returns (uint256) {\r... */\n    tag_13:\n      callvalue\n      dup1\n      iszero\n      tag_70\n      jumpi\n      0x00\n      dup1\n      revert\n    tag_70:\n      pop\n      tag_71\n      0x04\n      dup1\n      calldatasize\n      sub\n      dup2\n      add\n      swap1\n      tag_72\n      swap2\n      swap1\n      tag_60\n      jump\t// in\n    tag_72:\n      tag_73\n      jump\t// in\n    tag_71:\n      mload(0x40)\n      tag_74\n      swap2\n      swap1\n      tag_69\n      jump\t// in\n    tag_74:\n      mload(0x40)\n      dup1\n      swap2\n      sub\n      swap1\n      return\n        /* \"contracts/4_Product.sol\":67:85  string public name */\n    tag_17:\n      0x00\n      dup1\n      sload\n      tag_75\n      swap1\n      tag_76\n      jump\t// in\n    tag_75:\n      dup1\n      0x1f\n      add\n      0x20\n      dup1\n      swap2\n      div\n      mul\n      0x20\n      add\n      mload(0x40)\n      swap1\n      dup2\n      add\n      0x40\n      mstore\n      dup1\n      swap3\n      swap2\n      swap1\n      dup2\n      dup2\n      mstore\n      0x20\n      add\n      dup3\n      dup1\n      sload\n      tag_77\n      swap1\n      tag_76\n      jump\t// in\n    tag_77:\n      dup1\n      iszero\n      tag_78\n      jumpi\n      dup1\n      0x1f\n      lt\n      tag_79\n      jumpi\n      0x0100\n      dup1\n      dup4\n      sload\n      div\n      mul\n      dup4\n      mstore\n      swap2\n      0x20\n      add\n      swap2\n      jump(tag_78)\n    tag_79:\n      dup3\n      add\n      swap2\n      swap1\n      0x00\n      mstore\n      keccak256(0x00, 0x20)\n      swap1\n    tag_80:\n      dup2\n      sload\n      dup2\n      mstore\n      swap1\n      0x01\n      add\n      swap1\n      0x20\n      add\n      dup1\n      dup4\n      gt\n      tag_80\n      jumpi\n      dup3\n      swap1\n      sub\n      0x1f\n      and\n      dup3\n      add\n      swap2\n    tag_78:\n      pop\n      pop\n      pop\n      pop\n      pop\n      dup2\n      jump\t// out\n        /* \"contracts/4_Product.sol\":5959:6535  function produceProduct(uint256 _id, uint256 _timestamp, int256 _temp, uint256 _price) public OnlyProducer{\r... */\n    tag_24:\n        /* \"contracts/4_Product.sol\":2641:2654  Role.Producer */\n      0x00\n        /* \"contracts/4_Product.sol\":2614:2654  actors[msg.sender].role == Role.Producer */\n      0x04\n      dup2\n      gt\n      iszero\n      tag_82\n      jumpi\n      tag_83\n      tag_84\n      jump\t// in\n    tag_83:\n    tag_82:\n        /* \"contracts/4_Product.sol\":2614:2620  actors */\n      0x05\n        /* \"contracts/4_Product.sol\":2614:2632  actors[msg.sender] */\n      0x00\n        /* \"contracts/4_Product.sol\":2621:2631  msg.sender */\n      caller\n        /* \"contracts/4_Product.sol\":2614:2632  actors[msg.sender] */\n      0xffffffffffffffffffffffffffffffffffffffff\n      and\n      0xffffffffffffffffffffffffffffffffffffffff\n      and\n      dup2\n      mstore\n      0x20\n      add\n      swap1\n      dup2\n      mstore\n      0x20\n      add\n      0x00\n      keccak256\n        /* \"contracts/4_Product.sol\":2614:2637  actors[msg.sender].role */\n      0x00\n      add\n      0x00\n      swap1\n      sload\n      swap1\n      0x0100\n      exp\n      swap1\n      div\n      0xff\n      and\n        /* \"contracts/4_Product.sol\":2614:2654  actors[msg.sender].role == Role.Producer */\n      0x04\n      dup2\n      gt\n      iszero\n      tag_85\n      jumpi\n      tag_86\n      tag_84\n      jump\t// in\n    tag_86:\n    tag_85:\n      eq\n        /* \"contracts/4_Product.sol\":2606:2683  require(actors[msg.sender].role == Role.Producer,'caller is not a producer.') */\n      tag_87\n      jumpi\n      mload(0x40)\n      0x08c379a000000000000000000000000000000000000000000000000000000000\n      dup2\n      mstore\n      0x04\n      add\n      tag_88\n      swap1\n      tag_89\n      jump\t// in\n    tag_88:\n      mload(0x40)\n      dup1\n      swap2\n      sub\n      swap1\n      revert\n    tag_87:\n        /* \"contracts/4_Product.sol\":6076:6102  Product storage newProduct */\n      0x00\n        /* \"contracts/4_Product.sol\":6105:6112  product */\n      0x06\n        /* \"contracts/4_Product.sol\":6105:6117  product[_id] */\n      0x00\n        /* \"contracts/4_Product.sol\":6113:6116  _id */\n      dup7\n        /* \"contracts/4_Product.sol\":6105:6117  product[_id] */\n      dup2\n      mstore\n      0x20\n      add\n      swap1\n      dup2\n      mstore\n      0x20\n      add\n      0x00\n      keccak256\n        /* \"contracts/4_Product.sol\":6076:6117  Product storage newProduct = product[_id] */\n      swap1\n      pop\n        /* \"contracts/4_Product.sol\":6144:6147  _id */\n      dup5\n        /* \"contracts/4_Product.sol\":6128:6138  newProduct */\n      dup2\n        /* \"contracts/4_Product.sol\":6128:6141  newProduct.ID */\n      0x00\n      add\n        /* \"contracts/4_Product.sol\":6128:6147  newProduct.ID = _id */\n      dup2\n      swap1\n      sstore\n      pop\n        /* \"contracts/4_Product.sol\":6179:6189  msg.sender */\n      caller\n        /* \"contracts/4_Product.sol\":6158:6168  newProduct */\n      dup2\n        /* \"contracts/4_Product.sol\":6158:6176  newProduct.ownerID */\n      0x01\n      add\n      0x00\n        /* \"contracts/4_Product.sol\":6158:6189  newProduct.ownerID = msg.sender */\n      0x0100\n      exp\n      dup2\n      sload\n      dup2\n      0xffffffffffffffffffffffffffffffffffffffff\n      mul\n      not\n      and\n      swap1\n      dup4\n      0xffffffffffffffffffffffffffffffffffffffff\n      and\n      mul\n      or\n      swap1\n      sstore\n      pop\n        /* \"contracts/4_Product.sol\":6224:6234  msg.sender */\n      caller\n        /* \"contracts/4_Product.sol\":6200:6210  newProduct */\n      dup2\n        /* \"contracts/4_Product.sol\":6200:6221  newProduct.producerID */\n      0x02\n      add\n      0x00\n        /* \"contracts/4_Product.sol\":6200:6234  newProduct.producerID = msg.sender */\n      0x0100\n      exp\n      dup2\n      sload\n      dup2\n      0xffffffffffffffffffffffffffffffffffffffff\n      mul\n      not\n      and\n      swap1\n      dup4\n      0xffffffffffffffffffffffffffffffffffffffff\n      and\n      mul\n      or\n      swap1\n      sstore\n      pop\n        /* \"contracts/4_Product.sol\":6271:6281  _timestamp */\n      dup4\n        /* \"contracts/4_Product.sol\":6245:6255  newProduct */\n      dup2\n        /* \"contracts/4_Product.sol\":6245:6265  newProduct.timestamp */\n      0x03\n      add\n        /* \"contracts/4_Product.sol\":6266:6267  0 */\n      0x00\n        /* \"contracts/4_Product.sol\":6245:6268  newProduct.timestamp[0] */\n      0x04\n      dup2\n      lt\n      tag_91\n      jumpi\n      tag_92\n      tag_93\n      jump\t// in\n    tag_92:\n    tag_91:\n      add\n        /* \"contracts/4_Product.sol\":6245:6281  newProduct.timestamp[0] = _timestamp */\n      dup2\n      swap1\n      sstore\n      pop\n        /* \"contracts/4_Product.sol\":6325:6339  State.Produced */\n      0x00\n        /* \"contracts/4_Product.sol\":6300:6310  newProduct */\n      dup2\n        /* \"contracts/4_Product.sol\":6300:6323  newProduct.productState */\n      0x07\n      add\n      0x00\n        /* \"contracts/4_Product.sol\":6300:6339  newProduct.productState= State.Produced */\n      0x0100\n      exp\n      dup2\n      sload\n      dup2\n      0xff\n      mul\n      not\n      and\n      swap1\n      dup4\n      0x05\n      dup2\n      gt\n      iszero\n      tag_95\n      jumpi\n      tag_96\n      tag_84\n      jump\t// in\n    tag_96:\n    tag_95:\n      mul\n      or\n      swap1\n      sstore\n      pop\n        /* \"contracts/4_Product.sol\":6382:6388  _price */\n      dup2\n        /* \"contracts/4_Product.sol\":6358:6368  newProduct */\n      dup2\n        /* \"contracts/4_Product.sol\":6358:6381  newProduct.productPrice */\n      0x08\n      add\n        /* \"contracts/4_Product.sol\":6358:6388  newProduct.productPrice=_price */\n      dup2\n      swap1\n      sstore\n      pop\n        /* \"contracts/4_Product.sol\":6433:6434  0 */\n      0x00\n        /* \"contracts/4_Product.sol\":6400:6410  newProduct */\n      dup2\n        /* \"contracts/4_Product.sol\":6400:6424  newProduct.distributorID */\n      0x09\n      add\n      0x00\n        /* \"contracts/4_Product.sol\":6400:6435  newProduct.distributorID=address(0) */\n      0x0100\n      exp\n      dup2\n      sload\n      dup2\n      0xffffffffffffffffffffffffffffffffffffffff\n      mul\n      not\n      and\n      swap1\n      dup4\n      0xffffffffffffffffffffffffffffffffffffffff\n      and\n      mul\n      or\n      swap1\n      sstore\n      pop\n        /* \"contracts/4_Product.sol\":6476:6477  0 */\n      0x00\n        /* \"contracts/4_Product.sol\":6446:6456  newProduct */\n      dup2\n        /* \"contracts/4_Product.sol\":6446:6467  newProduct.retailerID */\n      0x0a\n      add\n      0x00\n        /* \"contracts/4_Product.sol\":6446:6478  newProduct.retailerID=address(0) */\n      0x0100\n      exp\n      dup2\n      sload\n      dup2\n      0xffffffffffffffffffffffffffffffffffffffff\n      mul\n      not\n      and\n      swap1\n      dup4\n      0xffffffffffffffffffffffffffffffffffffffff\n      and\n      mul\n      or\n      swap1\n      sstore\n      pop\n        /* \"contracts/4_Product.sol\":6519:6520  0 */\n      0x00\n        /* \"contracts/4_Product.sol\":6489:6499  newProduct */\n      dup2\n        /* \"contracts/4_Product.sol\":6489:6510  newProduct.consumerID */\n      0x0b\n      add\n      0x00\n        /* \"contracts/4_Product.sol\":6489:6521  newProduct.consumerID=address(0) */\n      0x0100\n      exp\n      dup2\n      sload\n      dup2\n      0xffffffffffffffffffffffffffffffffffffffff\n      mul\n      not\n      and\n      swap1\n      dup4\n      0xffffffffffffffffffffffffffffffffffffffff\n      and\n      mul\n      or\n      swap1\n      sstore\n      pop\n        /* \"contracts/4_Product.sol\":6065:6535  {\r... */\n      pop\n        /* \"contracts/4_Product.sol\":5959:6535  function produceProduct(uint256 _id, uint256 _timestamp, int256 _temp, uint256 _price) public OnlyProducer{\r... */\n      pop\n      pop\n      pop\n      pop\n      jump\t// out\n        /* \"contracts/4_Product.sol\":5688:5947  function register(address _addr, Role _role, string memory _name) public {\r... */\n    tag_29:\n        /* \"contracts/4_Product.sol\":5772:5790  Actor memory actor */\n      0x00\n        /* \"contracts/4_Product.sol\":5793:5799  actors */\n      0x05\n        /* \"contracts/4_Product.sol\":5793:5806  actors[_addr] */\n      0x00\n        /* \"contracts/4_Product.sol\":5800:5805  _addr */\n      dup6\n        /* \"contracts/4_Product.sol\":5793:5806  actors[_addr] */\n      0xffffffffffffffffffffffffffffffffffffffff\n      and\n      0xffffffffffffffffffffffffffffffffffffffff\n      and\n      dup2\n      mstore\n      0x20\n      add\n      swap1\n      dup2\n      mstore\n      0x20\n      add\n      0x00\n      keccak256\n        /* \"contracts/4_Product.sol\":5772:5806  Actor memory actor = actors[_addr] */\n      mload(0x40)\n      dup1\n      0x60\n      add\n      0x40\n      mstore\n      swap1\n      dup2\n      0x00\n      dup3\n      add\n      0x00\n      swap1\n      sload\n      swap1\n      0x0100\n      exp\n      swap1\n      div\n      0xff\n      and\n      0x04\n      dup2\n      gt\n      iszero\n      tag_98\n      jumpi\n      tag_99\n      tag_84\n      jump\t// in\n    tag_99:\n    tag_98:\n      0x04\n      dup2\n      gt\n      iszero\n      tag_100\n      jumpi\n      tag_101\n      tag_84\n      jump\t// in\n    tag_101:\n    tag_100:\n      dup2\n      mstore\n      0x20\n      add\n      0x01\n      dup3\n      add\n      dup1\n      sload\n      tag_102\n      swap1\n      tag_76\n      jump\t// in\n    tag_102:\n      dup1\n      0x1f\n      add\n      0x20\n      dup1\n      swap2\n      div\n      mul\n      0x20\n      add\n      mload(0x40)\n      swap1\n      dup2\n      add\n      0x40\n      mstore\n      dup1\n      swap3\n      swap2\n      swap1\n      dup2\n      dup2\n      mstore\n      0x20\n      add\n      dup3\n      dup1\n      sload\n      tag_103\n      swap1\n      tag_76\n      jump\t// in\n    tag_103:\n      dup1\n      iszero\n      tag_104\n      jumpi\n      dup1\n      0x1f\n      lt\n      tag_105\n      jumpi\n      0x0100\n      dup1\n      dup4\n      sload\n      div\n      mul\n      dup4\n      mstore\n      swap2\n      0x20\n      add\n      swap2\n      jump(tag_104)\n    tag_105:\n      dup3\n      add\n      swap2\n      swap1\n      0x00\n      mstore\n      keccak256(0x00, 0x20)\n      swap1\n    tag_106:\n      dup2\n      sload\n      dup2\n      mstore\n      swap1\n      0x01\n      add\n      swap1\n      0x20\n      add\n      dup1\n      dup4\n      gt\n      tag_106\n      jumpi\n      dup3\n      swap1\n      sub\n      0x1f\n      and\n      dup3\n      add\n      swap2\n    tag_104:\n      pop\n      pop\n      pop\n      pop\n      pop\n      dup2\n      mstore\n      0x20\n      add\n      0x02\n      dup3\n      add\n      0x00\n      swap1\n      sload\n      swap1\n      0x0100\n      exp\n      swap1\n      div\n      0xff\n      and\n      iszero\n      iszero\n      iszero\n      iszero\n      dup2\n      mstore\n      pop\n      pop\n      swap1\n      pop\n        /* \"contracts/4_Product.sol\":5830:5835  _role */\n      dup3\n        /* \"contracts/4_Product.sol\":5817:5822  actor */\n      dup2\n        /* \"contracts/4_Product.sol\":5817:5827  actor.role */\n      0x00\n      add\n        /* \"contracts/4_Product.sol\":5817:5835  actor.role = _role */\n      swap1\n      0x04\n      dup2\n      gt\n      iszero\n      tag_107\n      jumpi\n      tag_108\n      tag_84\n      jump\t// in\n    tag_108:\n    tag_107:\n      swap1\n      dup2\n      0x04\n      dup2\n      gt\n      iszero\n      tag_109\n      jumpi\n      tag_110\n      tag_84\n      jump\t// in\n    tag_110:\n    tag_109:\n      dup2\n      mstore\n      pop\n      pop\n        /* \"contracts/4_Product.sol\":5859:5864  _name */\n      dup2\n        /* \"contracts/4_Product.sol\":5846:5851  actor */\n      dup2\n        /* \"contracts/4_Product.sol\":5846:5856  actor.name */\n      0x20\n      add\n        /* \"contracts/4_Product.sol\":5846:5864  actor.name = _name */\n      dup2\n      swap1\n      mstore\n      pop\n        /* \"contracts/4_Product.sol\":5893:5897  true */\n      0x01\n        /* \"contracts/4_Product.sol\":5875:5880  actor */\n      dup2\n        /* \"contracts/4_Product.sol\":5875:5890  actor.isDefined */\n      0x40\n      add\n        /* \"contracts/4_Product.sol\":5875:5897  actor.isDefined = true */\n      swap1\n      iszero\n      iszero\n      swap1\n      dup2\n      iszero\n      iszero\n      dup2\n      mstore\n      pop\n      pop\n        /* \"contracts/4_Product.sol\":5924:5929  actor */\n      dup1\n        /* \"contracts/4_Product.sol\":5908:5914  actors */\n      0x05\n        /* \"contracts/4_Product.sol\":5908:5921  actors[_addr] */\n      0x00\n        /* \"contracts/4_Product.sol\":5915:5920  _addr */\n      dup7\n        /* \"contracts/4_Product.sol\":5908:5921  actors[_addr] */\n      0xffffffffffffffffffffffffffffffffffffffff\n      and\n      0xffffffffffffffffffffffffffffffffffffffff\n      and\n      dup2\n      mstore\n      0x20\n      add\n      swap1\n      dup2\n      mstore\n      0x20\n      add\n      0x00\n      keccak256\n        /* \"contracts/4_Product.sol\":5908:5929  actors[_addr] = actor */\n      0x00\n      dup3\n      add\n      mload\n      dup2\n      0x00\n      add\n      exp(0x0100, 0x00)\n      dup2\n      sload\n      dup2\n      0xff\n      mul\n      not\n      and\n      swap1\n      dup4\n      0x04\n      dup2\n      gt\n      iszero\n      tag_111\n      jumpi\n      tag_112\n      tag_84\n      jump\t// in\n    tag_112:\n    tag_111:\n      mul\n      or\n      swap1\n      sstore\n      pop\n      0x20\n      dup3\n      add\n      mload\n      dup2\n      0x01\n      add\n      swap1\n      dup1\n      mload\n      swap1\n      0x20\n      add\n      swap1\n      tag_113\n      swap3\n      swap2\n      swap1\n      tag_114\n      jump\t// in\n    tag_113:\n      pop\n      0x40\n      dup3\n      add\n      mload\n      dup2\n      0x02\n      add\n      exp(0x0100, 0x00)\n      dup2\n      sload\n      dup2\n      0xff\n      mul\n      not\n      and\n      swap1\n      dup4\n      iszero\n      iszero\n      mul\n      or\n      swap1\n      sstore\n      pop\n      swap1\n      pop\n      pop\n        /* \"contracts/4_Product.sol\":5761:5947  {\r... */\n      pop\n        /* \"contracts/4_Product.sol\":5688:5947  function register(address _addr, Role _role, string memory _name) public {\r... */\n      pop\n      pop\n      pop\n      jump\t// out\n        /* \"contracts/4_Product.sol\":5320:5676  function tokenTransfer(address _to, uint256 _amount) public returns (bool) {\r... */\n    tag_34:\n        /* \"contracts/4_Product.sol\":5389:5393  bool */\n      0x00\n        /* \"contracts/4_Product.sol\":5438:5445  _amount */\n      dup2\n        /* \"contracts/4_Product.sol\":5414:5422  balances */\n      0x04\n        /* \"contracts/4_Product.sol\":5414:5434  balances[msg.sender] */\n      0x00\n        /* \"contracts/4_Product.sol\":5423:5433  msg.sender */\n      caller\n        /* \"contracts/4_Product.sol\":5414:5434  balances[msg.sender] */\n      0xffffffffffffffffffffffffffffffffffffffff\n      and\n      0xffffffffffffffffffffffffffffffffffffffff\n      and\n      dup2\n      mstore\n      0x20\n      add\n      swap1\n      dup2\n      mstore\n      0x20\n      add\n      0x00\n      keccak256\n      sload\n        /* \"contracts/4_Product.sol\":5414:5445  balances[msg.sender] >= _amount */\n      lt\n      iszero\n        /* \"contracts/4_Product.sol\":5406:5446  require(balances[msg.sender] >= _amount) */\n      tag_116\n      jumpi\n      0x00\n      dup1\n      revert\n    tag_116:\n        /* \"contracts/4_Product.sol\":5556:5557  0 */\n      0x00\n        /* \"contracts/4_Product.sol\":5541:5558  _to != address(0) */\n      0xffffffffffffffffffffffffffffffffffffffff\n      and\n        /* \"contracts/4_Product.sol\":5541:5544  _to */\n      dup4\n        /* \"contracts/4_Product.sol\":5541:5558  _to != address(0) */\n      0xffffffffffffffffffffffffffffffffffffffff\n      and\n      eq\n      iszero\n        /* \"contracts/4_Product.sol\":5533:5559  require(_to != address(0)) */\n      tag_117\n      jumpi\n      0x00\n      dup1\n      revert\n    tag_117:\n        /* \"contracts/4_Product.sol\":5604:5611  _amount */\n      dup2\n        /* \"contracts/4_Product.sol\":5580:5588  balances */\n      0x04\n        /* \"contracts/4_Product.sol\":5580:5600  balances[msg.sender] */\n      0x00\n        /* \"contracts/4_Product.sol\":5589:5599  msg.sender */\n      caller\n        /* \"contracts/4_Product.sol\":5580:5600  balances[msg.sender] */\n      0xffffffffffffffffffffffffffffffffffffffff\n      and\n      0xffffffffffffffffffffffffffffffffffffffff\n      and\n      dup2\n      mstore\n      0x20\n      add\n      swap1\n      dup2\n      mstore\n      0x20\n      add\n      0x00\n      keccak256\n      0x00\n        /* \"contracts/4_Product.sol\":5580:5611  balances[msg.sender] -= _amount */\n      dup3\n      dup3\n      sload\n      tag_118\n      swap2\n      swap1\n      tag_119\n      jump\t// in\n    tag_118:\n      swap3\n      pop\n      pop\n      dup2\n      swap1\n      sstore\n      pop\n        /* \"contracts/4_Product.sol\":5639:5646  _amount */\n      dup2\n        /* \"contracts/4_Product.sol\":5622:5630  balances */\n      0x04\n        /* \"contracts/4_Product.sol\":5622:5635  balances[_to] */\n      0x00\n        /* \"contracts/4_Product.sol\":5631:5634  _to */\n      dup6\n        /* \"contracts/4_Product.sol\":5622:5635  balances[_to] */\n      0xffffffffffffffffffffffffffffffffffffffff\n      and\n      0xffffffffffffffffffffffffffffffffffffffff\n      and\n      dup2\n      mstore\n      0x20\n      add\n      swap1\n      dup2\n      mstore\n      0x20\n      add\n      0x00\n      keccak256\n      0x00\n        /* \"contracts/4_Product.sol\":5622:5646  balances[_to] += _amount */\n      dup3\n      dup3\n      sload\n      tag_120\n      swap2\n      swap1\n      tag_121\n      jump\t// in\n    tag_120:\n      swap3\n      pop\n      pop\n      dup2\n      swap1\n      sstore\n      pop\n        /* \"contracts/4_Product.sol\":5664:5668  true */\n      0x01\n        /* \"contracts/4_Product.sol\":5657:5668  return true */\n      swap1\n      pop\n        /* \"contracts/4_Product.sol\":5320:5676  function tokenTransfer(address _to, uint256 _amount) public returns (bool) {\r... */\n      swap3\n      swap2\n      pop\n      pop\n      jump\t// out\n        /* \"contracts/4_Product.sol\":114:134  string public symbol */\n    tag_39:\n      0x01\n      dup1\n      sload\n      tag_122\n      swap1\n      tag_76\n      jump\t// in\n    tag_122:\n      dup1\n      0x1f\n      add\n      0x20\n      dup1\n      swap2\n      div\n      mul\n      0x20\n      add\n      mload(0x40)\n      swap1\n      dup2\n      add\n      0x40\n      mstore\n      dup1\n      swap3\n      swap2\n      swap1\n      dup2\n      dup2\n      mstore\n      0x20\n      add\n      dup3\n      dup1\n      sload\n      tag_123\n      swap1\n      tag_76\n      jump\t// in\n    tag_123:\n      dup1\n      iszero\n      tag_124\n      jumpi\n      dup1\n      0x1f\n      lt\n      tag_125\n      jumpi\n      0x0100\n      dup1\n      dup4\n      sload\n      div\n      mul\n      dup4\n      mstore\n      swap2\n      0x20\n      add\n      swap2\n      jump(tag_124)\n    tag_125:\n      dup3\n      add\n      swap2\n      swap1\n      0x00\n      mstore\n      keccak256(0x00, 0x20)\n      swap1\n    tag_126:\n      dup2\n      sload\n      dup2\n      mstore\n      swap1\n      0x01\n      add\n      swap1\n      0x20\n      add\n      dup1\n      dup4\n      gt\n      tag_126\n      jumpi\n      dup3\n      swap1\n      sub\n      0x1f\n      and\n      dup3\n      add\n      swap2\n    tag_124:\n      pop\n      pop\n      pop\n      pop\n      pop\n      dup2\n      jump\t// out\n        /* \"contracts/4_Product.sol\":4274:4691  function burn(address _account, uint256 _amount) public OnlyTokenOwner {\r... */\n    tag_44:\n        /* \"contracts/4_Product.sol\":2494:2504  tokenOwner */\n      0x02\n      0x00\n      swap1\n      sload\n      swap1\n      0x0100\n      exp\n      swap1\n      div\n      0xffffffffffffffffffffffffffffffffffffffff\n      and\n        /* \"contracts/4_Product.sol\":2480:2504  msg.sender == tokenOwner */\n      0xffffffffffffffffffffffffffffffffffffffff\n      and\n        /* \"contracts/4_Product.sol\":2480:2490  msg.sender */\n      caller\n        /* \"contracts/4_Product.sol\":2480:2504  msg.sender == tokenOwner */\n      0xffffffffffffffffffffffffffffffffffffffff\n      and\n      eq\n        /* \"contracts/4_Product.sol\":2472:2539  require(msg.sender == tokenOwner, 'caller is not the token owner.') */\n      tag_128\n      jumpi\n      mload(0x40)\n      0x08c379a000000000000000000000000000000000000000000000000000000000\n      dup2\n      mstore\n      0x04\n      add\n      tag_129\n      swap1\n      tag_130\n      jump\t// in\n    tag_129:\n      mload(0x40)\n      dup1\n      swap2\n      sub\n      swap1\n      revert\n    tag_128:\n        /* \"contracts/4_Product.sol\":4384:4385  0 */\n      0x00\n        /* \"contracts/4_Product.sol\":4364:4386  _account != address(0) */\n      0xffffffffffffffffffffffffffffffffffffffff\n      and\n        /* \"contracts/4_Product.sol\":4364:4372  _account */\n      dup3\n        /* \"contracts/4_Product.sol\":4364:4386  _account != address(0) */\n      0xffffffffffffffffffffffffffffffffffffffff\n      and\n      eq\n      iszero\n        /* \"contracts/4_Product.sol\":4356:4387  require(_account != address(0)) */\n      tag_132\n      jumpi\n      0x00\n      dup1\n      revert\n    tag_132:\n        /* \"contracts/4_Product.sol\":4512:4520  balances */\n      0x04\n        /* \"contracts/4_Product.sol\":4512:4530  balances[_account] */\n      0x00\n        /* \"contracts/4_Product.sol\":4521:4529  _account */\n      dup4\n        /* \"contracts/4_Product.sol\":4512:4530  balances[_account] */\n      0xffffffffffffffffffffffffffffffffffffffff\n      and\n      0xffffffffffffffffffffffffffffffffffffffff\n      and\n      dup2\n      mstore\n      0x20\n      add\n      swap1\n      dup2\n      mstore\n      0x20\n      add\n      0x00\n      keccak256\n      sload\n        /* \"contracts/4_Product.sol\":4501:4508  _amount */\n      dup2\n        /* \"contracts/4_Product.sol\":4501:4530  _amount <= balances[_account] */\n      gt\n      iszero\n        /* \"contracts/4_Product.sol\":4493:4531  require(_amount <= balances[_account]) */\n      tag_133\n      jumpi\n      0x00\n      dup1\n      revert\n    tag_133:\n        /* \"contracts/4_Product.sol\":4636:4643  _amount */\n      dup1\n        /* \"contracts/4_Product.sol\":4620:4632  _totalSupply */\n      0x03\n      0x00\n        /* \"contracts/4_Product.sol\":4620:4643  _totalSupply -= _amount */\n      dup3\n      dup3\n      sload\n      tag_134\n      swap2\n      swap1\n      tag_119\n      jump\t// in\n    tag_134:\n      swap3\n      pop\n      pop\n      dup2\n      swap1\n      sstore\n      pop\n        /* \"contracts/4_Product.sol\":4676:4683  _amount */\n      dup1\n        /* \"contracts/4_Product.sol\":4654:4662  balances */\n      0x04\n        /* \"contracts/4_Product.sol\":4654:4672  balances[_account] */\n      0x00\n        /* \"contracts/4_Product.sol\":4663:4671  _account */\n      dup5\n        /* \"contracts/4_Product.sol\":4654:4672  balances[_account] */\n      0xffffffffffffffffffffffffffffffffffffffff\n      and\n      0xffffffffffffffffffffffffffffffffffffffff\n      and\n      dup2\n      mstore\n      0x20\n      add\n      swap1\n      dup2\n      mstore\n      0x20\n      add\n      0x00\n      keccak256\n      0x00\n        /* \"contracts/4_Product.sol\":4654:4683  balances[_account] -= _amount */\n      dup3\n      dup3\n      sload\n      tag_135\n      swap2\n      swap1\n      tag_119\n      jump\t// in\n    tag_135:\n      swap3\n      pop\n      pop\n      dup2\n      swap1\n      sstore\n      pop\n        /* \"contracts/4_Product.sol\":4274:4691  function burn(address _account, uint256 _amount) public OnlyTokenOwner {\r... */\n      pop\n      pop\n      jump\t// out\n        /* \"contracts/4_Product.sol\":3895:4117  function mint(uint256 _amount) public OnlyTokenOwner {\r... */\n    tag_49:\n        /* \"contracts/4_Product.sol\":2494:2504  tokenOwner */\n      0x02\n      0x00\n      swap1\n      sload\n      swap1\n      0x0100\n      exp\n      swap1\n      div\n      0xffffffffffffffffffffffffffffffffffffffff\n      and\n        /* \"contracts/4_Product.sol\":2480:2504  msg.sender == tokenOwner */\n      0xffffffffffffffffffffffffffffffffffffffff\n      and\n        /* \"contracts/4_Product.sol\":2480:2490  msg.sender */\n      caller\n        /* \"contracts/4_Product.sol\":2480:2504  msg.sender == tokenOwner */\n      0xffffffffffffffffffffffffffffffffffffffff\n      and\n      eq\n        /* \"contracts/4_Product.sol\":2472:2539  require(msg.sender == tokenOwner, 'caller is not the token owner.') */\n      tag_137\n      jumpi\n      mload(0x40)\n      0x08c379a000000000000000000000000000000000000000000000000000000000\n      dup2\n      mstore\n      0x04\n      add\n      tag_138\n      swap1\n      tag_130\n      jump\t// in\n    tag_138:\n      mload(0x40)\n      dup1\n      swap2\n      sub\n      swap1\n      revert\n    tag_137:\n        /* \"contracts/4_Product.sol\":3975:3982  _amount */\n      dup1\n        /* \"contracts/4_Product.sol\":3959:3971  _totalSupply */\n      0x03\n      0x00\n        /* \"contracts/4_Product.sol\":3959:3982  _totalSupply += _amount */\n      dup3\n      dup3\n      sload\n      tag_140\n      swap2\n      swap1\n      tag_121\n      jump\t// in\n    tag_140:\n      swap3\n      pop\n      pop\n      dup2\n      swap1\n      sstore\n      pop\n        /* \"contracts/4_Product.sol\":4053:4060  _amount */\n      dup1\n        /* \"contracts/4_Product.sol\":4029:4037  balances */\n      0x04\n        /* \"contracts/4_Product.sol\":4029:4049  balances[msg.sender] */\n      0x00\n        /* \"contracts/4_Product.sol\":4038:4048  msg.sender */\n      caller\n        /* \"contracts/4_Product.sol\":4029:4049  balances[msg.sender] */\n      0xffffffffffffffffffffffffffffffffffffffff\n      and\n      0xffffffffffffffffffffffffffffffffffffffff\n      and\n      dup2\n      mstore\n      0x20\n      add\n      swap1\n      dup2\n      mstore\n      0x20\n      add\n      0x00\n      keccak256\n      0x00\n        /* \"contracts/4_Product.sol\":4029:4060  balances[msg.sender] += _amount */\n      dup3\n      dup3\n      sload\n      tag_141\n      swap2\n      swap1\n      tag_121\n      jump\t// in\n    tag_141:\n      swap3\n      pop\n      pop\n      dup2\n      swap1\n      sstore\n      pop\n        /* \"contracts/4_Product.sol\":3895:4117  function mint(uint256 _amount) public OnlyTokenOwner {\r... */\n      pop\n      jump\t// out\n        /* \"contracts/4_Product.sol\":165:199  address payable public  tokenOwner */\n    tag_52:\n      0x02\n      0x00\n      swap1\n      sload\n      swap1\n      0x0100\n      exp\n      swap1\n      div\n      0xffffffffffffffffffffffffffffffffffffffff\n      and\n      dup2\n      jump\t// out\n        /* \"contracts/4_Product.sol\":4749:5246  function buyToken() public payable {\r... */\n    tag_56:\n        /* \"contracts/4_Product.sol\":4794:4810  uint256 tokenNum */\n      0x00\n        /* \"contracts/4_Product.sol\":287:290  100 */\n      0x64\n        /* \"contracts/4_Product.sol\":4813:4822  msg.value */\n      callvalue\n        /* \"contracts/4_Product.sol\":4813:4833  msg.value/tokenPrice */\n      tag_143\n      swap2\n      swap1\n      tag_144\n      jump\t// in\n    tag_143:\n        /* \"contracts/4_Product.sol\":4794:4833  uint256 tokenNum = msg.value/tokenPrice */\n      swap1\n      pop\n        /* \"contracts/4_Product.sol\":4895:4896  0 */\n      0x00\n        /* \"contracts/4_Product.sol\":4883:4892  msg.value */\n      callvalue\n        /* \"contracts/4_Product.sol\":4883:4896  msg.value > 0 */\n      gt\n        /* \"contracts/4_Product.sol\":4875:4897  require(msg.value > 0) */\n      tag_145\n      jumpi\n      0x00\n      dup1\n      revert\n    tag_145:\n        /* \"contracts/4_Product.sol\":4945:4955  tokenOwner */\n      0x02\n      0x00\n      swap1\n      sload\n      swap1\n      0x0100\n      exp\n      swap1\n      div\n      0xffffffffffffffffffffffffffffffffffffffff\n      and\n        /* \"contracts/4_Product.sol\":4945:4964  tokenOwner.transfer */\n      0xffffffffffffffffffffffffffffffffffffffff\n      and\n        /* \"contracts/4_Product.sol\":4945:4975  tokenOwner.transfer(msg.value) */\n      0x08fc\n        /* \"contracts/4_Product.sol\":4965:4974  msg.value */\n      callvalue\n        /* \"contracts/4_Product.sol\":4945:4975  tokenOwner.transfer(msg.value) */\n      swap1\n      dup2\n      iszero\n      mul\n      swap1\n      mload(0x40)\n      0x00\n      mload(0x40)\n      dup1\n      dup4\n      sub\n      dup2\n      dup6\n      dup9\n      dup9\n      call\n      swap4\n      pop\n      pop\n      pop\n      pop\n      iszero\n      dup1\n      iszero\n      tag_147\n      jumpi\n      returndatasize\n      0x00\n      dup1\n      returndatacopy\n      revert(0x00, returndatasize)\n    tag_147:\n      pop\n        /* \"contracts/4_Product.sol\":5075:5083  tokenNum */\n      dup1\n        /* \"contracts/4_Product.sol\":5051:5059  balances */\n      0x04\n        /* \"contracts/4_Product.sol\":5051:5071  balances[tokenOwner] */\n      0x00\n        /* \"contracts/4_Product.sol\":5060:5070  tokenOwner */\n      0x02\n      0x00\n      swap1\n      sload\n      swap1\n      0x0100\n      exp\n      swap1\n      div\n      0xffffffffffffffffffffffffffffffffffffffff\n      and\n        /* \"contracts/4_Product.sol\":5051:5071  balances[tokenOwner] */\n      0xffffffffffffffffffffffffffffffffffffffff\n      and\n      0xffffffffffffffffffffffffffffffffffffffff\n      and\n      dup2\n      mstore\n      0x20\n      add\n      swap1\n      dup2\n      mstore\n      0x20\n      add\n      0x00\n      keccak256\n      0x00\n        /* \"contracts/4_Product.sol\":5051:5083  balances[tokenOwner] -= tokenNum */\n      dup3\n      dup3\n      sload\n      tag_148\n      swap2\n      swap1\n      tag_119\n      jump\t// in\n    tag_148:\n      swap3\n      pop\n      pop\n      dup2\n      swap1\n      sstore\n      pop\n        /* \"contracts/4_Product.sol\":5176:5184  tokenNum */\n      dup1\n        /* \"contracts/4_Product.sol\":5152:5160  balances */\n      0x04\n        /* \"contracts/4_Product.sol\":5152:5172  balances[msg.sender] */\n      0x00\n        /* \"contracts/4_Product.sol\":5161:5171  msg.sender */\n      caller\n        /* \"contracts/4_Product.sol\":5152:5172  balances[msg.sender] */\n      0xffffffffffffffffffffffffffffffffffffffff\n      and\n      0xffffffffffffffffffffffffffffffffffffffff\n      and\n      dup2\n      mstore\n      0x20\n      add\n      swap1\n      dup2\n      mstore\n      0x20\n      add\n      0x00\n      keccak256\n      0x00\n        /* \"contracts/4_Product.sol\":5152:5184  balances[msg.sender] += tokenNum */\n      dup3\n      dup3\n      sload\n      tag_149\n      swap2\n      swap1\n      tag_121\n      jump\t// in\n    tag_149:\n      swap3\n      pop\n      pop\n      dup2\n      swap1\n      sstore\n      pop\n        /* \"contracts/4_Product.sol\":4784:5246  {\r... */\n      pop\n        /* \"contracts/4_Product.sol\":4749:5246  function buyToken() public payable {\r... */\n      jump\t// out\n        /* \"contracts/4_Product.sol\":9741:9917  function getActorInfo(address _addr) public view returns\r... */\n    tag_61:\n        /* \"contracts/4_Product.sol\":9806:9816  Role _role */\n      0x00\n        /* \"contracts/4_Product.sol\":9823:9842  string memory _name */\n      0x60\n        /* \"contracts/4_Product.sol\":9862:9868  actors */\n      0x05\n        /* \"contracts/4_Product.sol\":9862:9875  actors[_addr] */\n      0x00\n        /* \"contracts/4_Product.sol\":9869:9874  _addr */\n      dup5\n        /* \"contracts/4_Product.sol\":9862:9875  actors[_addr] */\n      0xffffffffffffffffffffffffffffffffffffffff\n      and\n      0xffffffffffffffffffffffffffffffffffffffff\n      and\n      dup2\n      mstore\n      0x20\n      add\n      swap1\n      dup2\n      mstore\n      0x20\n      add\n      0x00\n      keccak256\n        /* \"contracts/4_Product.sol\":9862:9880  actors[_addr].role */\n      0x00\n      add\n      0x00\n      swap1\n      sload\n      swap1\n      0x0100\n      exp\n      swap1\n      div\n      0xff\n      and\n        /* \"contracts/4_Product.sol\":9854:9880  _role = actors[_addr].role */\n      swap2\n      pop\n        /* \"contracts/4_Product.sol\":9895:9901  actors */\n      0x05\n        /* \"contracts/4_Product.sol\":9895:9908  actors[_addr] */\n      0x00\n        /* \"contracts/4_Product.sol\":9902:9907  _addr */\n      dup5\n        /* \"contracts/4_Product.sol\":9895:9908  actors[_addr] */\n      0xffffffffffffffffffffffffffffffffffffffff\n      and\n      0xffffffffffffffffffffffffffffffffffffffff\n      and\n      dup2\n      mstore\n      0x20\n      add\n      swap1\n      dup2\n      mstore\n      0x20\n      add\n      0x00\n      keccak256\n        /* \"contracts/4_Product.sol\":9895:9913  actors[_addr].name */\n      0x01\n      add\n        /* \"contracts/4_Product.sol\":9887:9913  _name = actors[_addr].name */\n      dup1\n      sload\n      tag_151\n      swap1\n      tag_76\n      jump\t// in\n    tag_151:\n      dup1\n      0x1f\n      add\n      0x20\n      dup1\n      swap2\n      div\n      mul\n      0x20\n      add\n      mload(0x40)\n      swap1\n      dup2\n      add\n      0x40\n      mstore\n      dup1\n      swap3\n      swap2\n      swap1\n      dup2\n      dup2\n      mstore\n      0x20\n      add\n      dup3\n      dup1\n      sload\n      tag_152\n      swap1\n      tag_76\n      jump\t// in\n    tag_152:\n      dup1\n      iszero\n      tag_153\n      jumpi\n      dup1\n      0x1f\n      lt\n      tag_154\n      jumpi\n      0x0100\n      dup1\n      dup4\n      sload\n      div\n      mul\n      dup4\n      mstore\n      swap2\n      0x20\n      add\n      swap2\n      jump(tag_153)\n    tag_154:\n      dup3\n      add\n      swap2\n      swap1\n      0x00\n      mstore\n      keccak256(0x00, 0x20)\n      swap1\n    tag_155:\n      dup2\n      sload\n      dup2\n      mstore\n      swap1\n      0x01\n      add\n      swap1\n      0x20\n      add\n      dup1\n      dup4\n      gt\n      tag_155\n      jumpi\n      dup3\n      swap1\n      sub\n      0x1f\n      and\n      dup3\n      add\n      swap2\n    tag_153:\n      pop\n      pop\n      pop\n      pop\n      pop\n      swap1\n      pop\n        /* \"contracts/4_Product.sol\":9741:9917  function getActorInfo(address _addr) public view returns\r... */\n      swap2\n      pop\n      swap2\n      jump\t// out\n        /* \"contracts/4_Product.sol\":3673:3779  function etherBalance(address _addr) public view returns (uint256) {\r... */\n    tag_67:\n        /* \"contracts/4_Product.sol\":3731:3738  uint256 */\n      0x00\n        /* \"contracts/4_Product.sol\":3758:3763  _addr */\n      dup2\n        /* \"contracts/4_Product.sol\":3758:3771  _addr.balance */\n      0xffffffffffffffffffffffffffffffffffffffff\n      and\n      balance\n        /* \"contracts/4_Product.sol\":3751:3771  return _addr.balance */\n      swap1\n      pop\n        /* \"contracts/4_Product.sol\":3673:3779  function etherBalance(address _addr) public view returns (uint256) {\r... */\n      swap2\n      swap1\n      pop\n      jump\t// out\n        /* \"contracts/4_Product.sol\":3499:3607  function tokenBalance(address _addr) public view returns (uint256) {\r... */\n    tag_73:\n        /* \"contracts/4_Product.sol\":3557:3564  uint256 */\n      0x00\n        /* \"contracts/4_Product.sol\":3584:3592  balances */\n      0x04\n        /* \"contracts/4_Product.sol\":3584:3599  balances[_addr] */\n      0x00\n        /* \"contracts/4_Product.sol\":3593:3598  _addr */\n      dup4\n        /* \"contracts/4_Product.sol\":3584:3599  balances[_addr] */\n      0xffffffffffffffffffffffffffffffffffffffff\n      and\n      0xffffffffffffffffffffffffffffffffffffffff\n      and\n      dup2\n      mstore\n      0x20\n      add\n      swap1\n      dup2\n      mstore\n      0x20\n      add\n      0x00\n      keccak256\n      sload\n        /* \"contracts/4_Product.sol\":3577:3599  return balances[_addr] */\n      swap1\n      pop\n        /* \"contracts/4_Product.sol\":3499:3607  function tokenBalance(address _addr) public view returns (uint256) {\r... */\n      swap2\n      swap1\n      pop\n      jump\t// out\n    tag_114:\n      dup3\n      dup1\n      sload\n      tag_158\n      swap1\n      tag_76\n      jump\t// in\n    tag_158:\n      swap1\n      0x00\n      mstore\n      keccak256(0x00, 0x20)\n      swap1\n      0x1f\n      add\n      0x20\n      swap1\n      div\n      dup2\n      add\n      swap3\n      dup3\n      tag_160\n      jumpi\n      0x00\n      dup6\n      sstore\n      jump(tag_159)\n    tag_160:\n      dup3\n      0x1f\n      lt\n      tag_161\n      jumpi\n      dup1\n      mload\n      not(0xff)\n      and\n      dup4\n      dup1\n      add\n      or\n      dup6\n      sstore\n      jump(tag_159)\n    tag_161:\n      dup3\n      dup1\n      add\n      0x01\n      add\n      dup6\n      sstore\n      dup3\n      iszero\n      tag_159\n      jumpi\n      swap2\n      dup3\n      add\n    tag_162:\n      dup3\n      dup2\n      gt\n      iszero\n      tag_163\n      jumpi\n      dup3\n      mload\n      dup3\n      sstore\n      swap2\n      0x20\n      add\n      swap2\n      swap1\n      0x01\n      add\n      swap1\n      jump(tag_162)\n    tag_163:\n    tag_159:\n      pop\n      swap1\n      pop\n      tag_164\n      swap2\n      swap1\n      tag_165\n      jump\t// in\n    tag_164:\n      pop\n      swap1\n      jump\t// out\n    tag_165:\n    tag_166:\n      dup1\n      dup3\n      gt\n      iszero\n      tag_167\n      jumpi\n      0x00\n      dup2\n      0x00\n      swap1\n      sstore\n      pop\n      0x01\n      add\n      jump(tag_166)\n    tag_167:\n      pop\n      swap1\n      jump\t// out\n        /* \"#utility.yul\":7:419   */\n    tag_169:\n        /* \"#utility.yul\":85:90   */\n      0x00\n        /* \"#utility.yul\":110:176   */\n      tag_171\n        /* \"#utility.yul\":126:175   */\n      tag_172\n        /* \"#utility.yul\":168:174   */\n      dup5\n        /* \"#utility.yul\":126:175   */\n      tag_173\n      jump\t// in\n    tag_172:\n        /* \"#utility.yul\":110:176   */\n      tag_174\n      jump\t// in\n    tag_171:\n        /* \"#utility.yul\":101:176   */\n      swap1\n      pop\n        /* \"#utility.yul\":199:205   */\n      dup3\n        /* \"#utility.yul\":192:197   */\n      dup2\n        /* \"#utility.yul\":185:206   */\n      mstore\n        /* \"#utility.yul\":237:241   */\n      0x20\n        /* \"#utility.yul\":230:235   */\n      dup2\n        /* \"#utility.yul\":226:242   */\n      add\n        /* \"#utility.yul\":275:278   */\n      dup5\n        /* \"#utility.yul\":266:272   */\n      dup5\n        /* \"#utility.yul\":261:264   */\n      dup5\n        /* \"#utility.yul\":257:273   */\n      add\n        /* \"#utility.yul\":254:279   */\n      gt\n        /* \"#utility.yul\":251:363   */\n      iszero\n      tag_175\n      jumpi\n        /* \"#utility.yul\":282:361   */\n      tag_176\n      tag_177\n      jump\t// in\n    tag_176:\n        /* \"#utility.yul\":251:363   */\n    tag_175:\n        /* \"#utility.yul\":372:413   */\n      tag_178\n        /* \"#utility.yul\":406:412   */\n      dup5\n        /* \"#utility.yul\":401:404   */\n      dup3\n        /* \"#utility.yul\":396:399   */\n      dup6\n        /* \"#utility.yul\":372:413   */\n      tag_179\n      jump\t// in\n    tag_178:\n        /* \"#utility.yul\":91:419   */\n      pop\n        /* \"#utility.yul\":7:419   */\n      swap4\n      swap3\n      pop\n      pop\n      pop\n      jump\t// out\n        /* \"#utility.yul\":425:564   */\n    tag_180:\n        /* \"#utility.yul\":471:476   */\n      0x00\n        /* \"#utility.yul\":509:515   */\n      dup2\n        /* \"#utility.yul\":496:516   */\n      calldataload\n        /* \"#utility.yul\":487:516   */\n      swap1\n      pop\n        /* \"#utility.yul\":525:558   */\n      tag_182\n        /* \"#utility.yul\":552:557   */\n      dup2\n        /* \"#utility.yul\":525:558   */\n      tag_183\n      jump\t// in\n    tag_182:\n        /* \"#utility.yul\":425:564   */\n      swap3\n      swap2\n      pop\n      pop\n      jump\t// out\n        /* \"#utility.yul\":570:723   */\n    tag_184:\n        /* \"#utility.yul\":623:628   */\n      0x00\n        /* \"#utility.yul\":661:667   */\n      dup2\n        /* \"#utility.yul\":648:668   */\n      calldataload\n        /* \"#utility.yul\":639:668   */\n      swap1\n      pop\n        /* \"#utility.yul\":677:717   */\n      tag_186\n        /* \"#utility.yul\":711:716   */\n      dup2\n        /* \"#utility.yul\":677:717   */\n      tag_187\n      jump\t// in\n    tag_186:\n        /* \"#utility.yul\":570:723   */\n      swap3\n      swap2\n      pop\n      pop\n      jump\t// out\n        /* \"#utility.yul\":729:866   */\n    tag_188:\n        /* \"#utility.yul\":774:779   */\n      0x00\n        /* \"#utility.yul\":812:818   */\n      dup2\n        /* \"#utility.yul\":799:819   */\n      calldataload\n        /* \"#utility.yul\":790:819   */\n      swap1\n      pop\n        /* \"#utility.yul\":828:860   */\n      tag_190\n        /* \"#utility.yul\":854:859   */\n      dup2\n        /* \"#utility.yul\":828:860   */\n      tag_191\n      jump\t// in\n    tag_190:\n        /* \"#utility.yul\":729:866   */\n      swap3\n      swap2\n      pop\n      pop\n      jump\t// out\n        /* \"#utility.yul\":886:1226   */\n    tag_192:\n        /* \"#utility.yul\":942:947   */\n      0x00\n        /* \"#utility.yul\":991:994   */\n      dup3\n        /* \"#utility.yul\":984:988   */\n      0x1f\n        /* \"#utility.yul\":976:982   */\n      dup4\n        /* \"#utility.yul\":972:989   */\n      add\n        /* \"#utility.yul\":968:995   */\n      slt\n        /* \"#utility.yul\":958:1080   */\n      tag_194\n      jumpi\n        /* \"#utility.yul\":999:1078   */\n      tag_195\n      tag_196\n      jump\t// in\n    tag_195:\n        /* \"#utility.yul\":958:1080   */\n    tag_194:\n        /* \"#utility.yul\":1116:1122   */\n      dup2\n        /* \"#utility.yul\":1103:1123   */\n      calldataload\n        /* \"#utility.yul\":1141:1220   */\n      tag_197\n        /* \"#utility.yul\":1216:1219   */\n      dup5\n        /* \"#utility.yul\":1208:1214   */\n      dup3\n        /* \"#utility.yul\":1201:1205   */\n      0x20\n        /* \"#utility.yul\":1193:1199   */\n      dup7\n        /* \"#utility.yul\":1189:1206   */\n      add\n        /* \"#utility.yul\":1141:1220   */\n      tag_169\n      jump\t// in\n    tag_197:\n        /* \"#utility.yul\":1132:1220   */\n      swap2\n      pop\n        /* \"#utility.yul\":948:1226   */\n      pop\n        /* \"#utility.yul\":886:1226   */\n      swap3\n      swap2\n      pop\n      pop\n      jump\t// out\n        /* \"#utility.yul\":1232:1371   */\n    tag_198:\n        /* \"#utility.yul\":1278:1283   */\n      0x00\n        /* \"#utility.yul\":1316:1322   */\n      dup2\n        /* \"#utility.yul\":1303:1323   */\n      calldataload\n        /* \"#utility.yul\":1294:1323   */\n      swap1\n      pop\n        /* \"#utility.yul\":1332:1365   */\n      tag_200\n        /* \"#utility.yul\":1359:1364   */\n      dup2\n        /* \"#utility.yul\":1332:1365   */\n      tag_201\n      jump\t// in\n    tag_200:\n        /* \"#utility.yul\":1232:1371   */\n      swap3\n      swap2\n      pop\n      pop\n      jump\t// out\n        /* \"#utility.yul\":1377:1706   */\n    tag_60:\n        /* \"#utility.yul\":1436:1442   */\n      0x00\n        /* \"#utility.yul\":1485:1487   */\n      0x20\n        /* \"#utility.yul\":1473:1482   */\n      dup3\n        /* \"#utility.yul\":1464:1471   */\n      dup5\n        /* \"#utility.yul\":1460:1483   */\n      sub\n        /* \"#utility.yul\":1456:1488   */\n      slt\n        /* \"#utility.yul\":1453:1572   */\n      iszero\n      tag_203\n      jumpi\n        /* \"#utility.yul\":1491:1570   */\n      tag_204\n      tag_205\n      jump\t// in\n    tag_204:\n        /* \"#utility.yul\":1453:1572   */\n    tag_203:\n        /* \"#utility.yul\":1611:1612   */\n      0x00\n        /* \"#utility.yul\":1636:1689   */\n      tag_206\n        /* \"#utility.yul\":1681:1688   */\n      dup5\n        /* \"#utility.yul\":1672:1678   */\n      dup3\n        /* \"#utility.yul\":1661:1670   */\n      dup6\n        /* \"#utility.yul\":1657:1679   */\n      add\n        /* \"#utility.yul\":1636:1689   */\n      tag_180\n      jump\t// in\n    tag_206:\n        /* \"#utility.yul\":1626:1689   */\n      swap2\n      pop\n        /* \"#utility.yul\":1582:1699   */\n      pop\n        /* \"#utility.yul\":1377:1706   */\n      swap3\n      swap2\n      pop\n      pop\n      jump\t// out\n        /* \"#utility.yul\":1712:2525   */\n    tag_28:\n        /* \"#utility.yul\":1806:1812   */\n      0x00\n        /* \"#utility.yul\":1814:1820   */\n      dup1\n        /* \"#utility.yul\":1822:1828   */\n      0x00\n        /* \"#utility.yul\":1871:1873   */\n      0x60\n        /* \"#utility.yul\":1859:1868   */\n      dup5\n        /* \"#utility.yul\":1850:1857   */\n      dup7\n        /* \"#utility.yul\":1846:1869   */\n      sub\n        /* \"#utility.yul\":1842:1874   */\n      slt\n        /* \"#utility.yul\":1839:1958   */\n      iszero\n      tag_208\n      jumpi\n        /* \"#utility.yul\":1877:1956   */\n      tag_209\n      tag_205\n      jump\t// in\n    tag_209:\n        /* \"#utility.yul\":1839:1958   */\n    tag_208:\n        /* \"#utility.yul\":1997:1998   */\n      0x00\n        /* \"#utility.yul\":2022:2075   */\n      tag_210\n        /* \"#utility.yul\":2067:2074   */\n      dup7\n        /* \"#utility.yul\":2058:2064   */\n      dup3\n        /* \"#utility.yul\":2047:2056   */\n      dup8\n        /* \"#utility.yul\":2043:2065   */\n      add\n        /* \"#utility.yul\":2022:2075   */\n      tag_180\n      jump\t// in\n    tag_210:\n        /* \"#utility.yul\":2012:2075   */\n      swap4\n      pop\n        /* \"#utility.yul\":1968:2085   */\n      pop\n        /* \"#utility.yul\":2124:2126   */\n      0x20\n        /* \"#utility.yul\":2150:2210   */\n      tag_211\n        /* \"#utility.yul\":2202:2209   */\n      dup7\n        /* \"#utility.yul\":2193:2199   */\n      dup3\n        /* \"#utility.yul\":2182:2191   */\n      dup8\n        /* \"#utility.yul\":2178:2200   */\n      add\n        /* \"#utility.yul\":2150:2210   */\n      tag_184\n      jump\t// in\n    tag_211:\n        /* \"#utility.yul\":2140:2210   */\n      swap3\n      pop\n        /* \"#utility.yul\":2095:2220   */\n      pop\n        /* \"#utility.yul\":2287:2289   */\n      0x40\n        /* \"#utility.yul\":2276:2285   */\n      dup5\n        /* \"#utility.yul\":2272:2290   */\n      add\n        /* \"#utility.yul\":2259:2291   */\n      calldataload\n        /* \"#utility.yul\":2318:2336   */\n      0xffffffffffffffff\n        /* \"#utility.yul\":2310:2316   */\n      dup2\n        /* \"#utility.yul\":2307:2337   */\n      gt\n        /* \"#utility.yul\":2304:2421   */\n      iszero\n      tag_212\n      jumpi\n        /* \"#utility.yul\":2340:2419   */\n      tag_213\n      tag_214\n      jump\t// in\n    tag_213:\n        /* \"#utility.yul\":2304:2421   */\n    tag_212:\n        /* \"#utility.yul\":2445:2508   */\n      tag_215\n        /* \"#utility.yul\":2500:2507   */\n      dup7\n        /* \"#utility.yul\":2491:2497   */\n      dup3\n        /* \"#utility.yul\":2480:2489   */\n      dup8\n        /* \"#utility.yul\":2476:2498   */\n      add\n        /* \"#utility.yul\":2445:2508   */\n      tag_192\n      jump\t// in\n    tag_215:\n        /* \"#utility.yul\":2435:2508   */\n      swap2\n      pop\n        /* \"#utility.yul\":2230:2518   */\n      pop\n        /* \"#utility.yul\":1712:2525   */\n      swap3\n      pop\n      swap3\n      pop\n      swap3\n      jump\t// out\n        /* \"#utility.yul\":2531:3005   */\n    tag_33:\n        /* \"#utility.yul\":2599:2605   */\n      0x00\n        /* \"#utility.yul\":2607:2613   */\n      dup1\n        /* \"#utility.yul\":2656:2658   */\n      0x40\n        /* \"#utility.yul\":2644:2653   */\n      dup4\n        /* \"#utility.yul\":2635:2642   */\n      dup6\n        /* \"#utility.yul\":2631:2654   */\n      sub\n        /* \"#utility.yul\":2627:2659   */\n      slt\n        /* \"#utility.yul\":2624:2743   */\n      iszero\n      tag_217\n      jumpi\n        /* \"#utility.yul\":2662:2741   */\n      tag_218\n      tag_205\n      jump\t// in\n    tag_218:\n        /* \"#utility.yul\":2624:2743   */\n    tag_217:\n        /* \"#utility.yul\":2782:2783   */\n      0x00\n        /* \"#utility.yul\":2807:2860   */\n      tag_219\n        /* \"#utility.yul\":2852:2859   */\n      dup6\n        /* \"#utility.yul\":2843:2849   */\n      dup3\n        /* \"#utility.yul\":2832:2841   */\n      dup7\n        /* \"#utility.yul\":2828:2850   */\n      add\n        /* \"#utility.yul\":2807:2860   */\n      tag_180\n      jump\t// in\n    tag_219:\n        /* \"#utility.yul\":2797:2860   */\n      swap3\n      pop\n        /* \"#utility.yul\":2753:2870   */\n      pop\n        /* \"#utility.yul\":2909:2911   */\n      0x20\n        /* \"#utility.yul\":2935:2988   */\n      tag_220\n        /* \"#utility.yul\":2980:2987   */\n      dup6\n        /* \"#utility.yul\":2971:2977   */\n      dup3\n        /* \"#utility.yul\":2960:2969   */\n      dup7\n        /* \"#utility.yul\":2956:2978   */\n      add\n        /* \"#utility.yul\":2935:2988   */\n      tag_198\n      jump\t// in\n    tag_220:\n        /* \"#utility.yul\":2925:2988   */\n      swap2\n      pop\n        /* \"#utility.yul\":2880:2998   */\n      pop\n        /* \"#utility.yul\":2531:3005   */\n      swap3\n      pop\n      swap3\n      swap1\n      pop\n      jump\t// out\n        /* \"#utility.yul\":3011:3340   */\n    tag_48:\n        /* \"#utility.yul\":3070:3076   */\n      0x00\n        /* \"#utility.yul\":3119:3121   */\n      0x20\n        /* \"#utility.yul\":3107:3116   */\n      dup3\n        /* \"#utility.yul\":3098:3105   */\n      dup5\n        /* \"#utility.yul\":3094:3117   */\n      sub\n        /* \"#utility.yul\":3090:3122   */\n      slt\n        /* \"#utility.yul\":3087:3206   */\n      iszero\n      tag_222\n      jumpi\n        /* \"#utility.yul\":3125:3204   */\n      tag_223\n      tag_205\n      jump\t// in\n    tag_223:\n        /* \"#utility.yul\":3087:3206   */\n    tag_222:\n        /* \"#utility.yul\":3245:3246   */\n      0x00\n        /* \"#utility.yul\":3270:3323   */\n      tag_224\n        /* \"#utility.yul\":3315:3322   */\n      dup5\n        /* \"#utility.yul\":3306:3312   */\n      dup3\n        /* \"#utility.yul\":3295:3304   */\n      dup6\n        /* \"#utility.yul\":3291:3313   */\n      add\n        /* \"#utility.yul\":3270:3323   */\n      tag_198\n      jump\t// in\n    tag_224:\n        /* \"#utility.yul\":3260:3323   */\n      swap2\n      pop\n        /* \"#utility.yul\":3216:3333   */\n      pop\n        /* \"#utility.yul\":3011:3340   */\n      swap3\n      swap2\n      pop\n      pop\n      jump\t// out\n        /* \"#utility.yul\":3346:4109   */\n    tag_23:\n        /* \"#utility.yul\":3431:3437   */\n      0x00\n        /* \"#utility.yul\":3439:3445   */\n      dup1\n        /* \"#utility.yul\":3447:3453   */\n      0x00\n        /* \"#utility.yul\":3455:3461   */\n      dup1\n        /* \"#utility.yul\":3504:3507   */\n      0x80\n        /* \"#utility.yul\":3492:3501   */\n      dup6\n        /* \"#utility.yul\":3483:3490   */\n      dup8\n        /* \"#utility.yul\":3479:3502   */\n      sub\n        /* \"#utility.yul\":3475:3508   */\n      slt\n        /* \"#utility.yul\":3472:3592   */\n      iszero\n      tag_226\n      jumpi\n        /* \"#utility.yul\":3511:3590   */\n      tag_227\n      tag_205\n      jump\t// in\n    tag_227:\n        /* \"#utility.yul\":3472:3592   */\n    tag_226:\n        /* \"#utility.yul\":3631:3632   */\n      0x00\n        /* \"#utility.yul\":3656:3709   */\n      tag_228\n        /* \"#utility.yul\":3701:3708   */\n      dup8\n        /* \"#utility.yul\":3692:3698   */\n      dup3\n        /* \"#utility.yul\":3681:3690   */\n      dup9\n        /* \"#utility.yul\":3677:3699   */\n      add\n        /* \"#utility.yul\":3656:3709   */\n      tag_198\n      jump\t// in\n    tag_228:\n        /* \"#utility.yul\":3646:3709   */\n      swap5\n      pop\n        /* \"#utility.yul\":3602:3719   */\n      pop\n        /* \"#utility.yul\":3758:3760   */\n      0x20\n        /* \"#utility.yul\":3784:3837   */\n      tag_229\n        /* \"#utility.yul\":3829:3836   */\n      dup8\n        /* \"#utility.yul\":3820:3826   */\n      dup3\n        /* \"#utility.yul\":3809:3818   */\n      dup9\n        /* \"#utility.yul\":3805:3827   */\n      add\n        /* \"#utility.yul\":3784:3837   */\n      tag_198\n      jump\t// in\n    tag_229:\n        /* \"#utility.yul\":3774:3837   */\n      swap4\n      pop\n        /* \"#utility.yul\":3729:3847   */\n      pop\n        /* \"#utility.yul\":3886:3888   */\n      0x40\n        /* \"#utility.yul\":3912:3964   */\n      tag_230\n        /* \"#utility.yul\":3956:3963   */\n      dup8\n        /* \"#utility.yul\":3947:3953   */\n      dup3\n        /* \"#utility.yul\":3936:3945   */\n      dup9\n        /* \"#utility.yul\":3932:3954   */\n      add\n        /* \"#utility.yul\":3912:3964   */\n      tag_188\n      jump\t// in\n    tag_230:\n        /* \"#utility.yul\":3902:3964   */\n      swap3\n      pop\n        /* \"#utility.yul\":3857:3974   */\n      pop\n        /* \"#utility.yul\":4013:4015   */\n      0x60\n        /* \"#utility.yul\":4039:4092   */\n      tag_231\n        /* \"#utility.yul\":4084:4091   */\n      dup8\n        /* \"#utility.yul\":4075:4081   */\n      dup3\n        /* \"#utility.yul\":4064:4073   */\n      dup9\n        /* \"#utility.yul\":4060:4082   */\n      add\n        /* \"#utility.yul\":4039:4092   */\n      tag_198\n      jump\t// in\n    tag_231:\n        /* \"#utility.yul\":4029:4092   */\n      swap2\n      pop\n        /* \"#utility.yul\":3984:4102   */\n      pop\n        /* \"#utility.yul\":3346:4109   */\n      swap3\n      swap6\n      swap2\n      swap5\n      pop\n      swap3\n      pop\n      jump\t// out\n        /* \"#utility.yul\":4115:4257   */\n    tag_232:\n        /* \"#utility.yul\":4218:4250   */\n      tag_234\n        /* \"#utility.yul\":4244:4249   */\n      dup2\n        /* \"#utility.yul\":4218:4250   */\n      tag_235\n      jump\t// in\n    tag_234:\n        /* \"#utility.yul\":4213:4216   */\n      dup3\n        /* \"#utility.yul\":4206:4251   */\n      mstore\n        /* \"#utility.yul\":4115:4257   */\n      pop\n      pop\n      jump\t// out\n        /* \"#utility.yul\":4263:4372   */\n    tag_236:\n        /* \"#utility.yul\":4344:4365   */\n      tag_238\n        /* \"#utility.yul\":4359:4364   */\n      dup2\n        /* \"#utility.yul\":4344:4365   */\n      tag_239\n      jump\t// in\n    tag_238:\n        /* \"#utility.yul\":4339:4342   */\n      dup3\n        /* \"#utility.yul\":4332:4366   */\n      mstore\n        /* \"#utility.yul\":4263:4372   */\n      pop\n      pop\n      jump\t// out\n        /* \"#utility.yul\":4378:4519   */\n    tag_240:\n        /* \"#utility.yul\":4470:4512   */\n      tag_242\n        /* \"#utility.yul\":4506:4511   */\n      dup2\n        /* \"#utility.yul\":4470:4512   */\n      tag_243\n      jump\t// in\n    tag_242:\n        /* \"#utility.yul\":4465:4468   */\n      dup3\n        /* \"#utility.yul\":4458:4513   */\n      mstore\n        /* \"#utility.yul\":4378:4519   */\n      pop\n      pop\n      jump\t// out\n        /* \"#utility.yul\":4525:4889   */\n    tag_244:\n        /* \"#utility.yul\":4613:4616   */\n      0x00\n        /* \"#utility.yul\":4641:4680   */\n      tag_246\n        /* \"#utility.yul\":4674:4679   */\n      dup3\n        /* \"#utility.yul\":4641:4680   */\n      tag_247\n      jump\t// in\n    tag_246:\n        /* \"#utility.yul\":4696:4767   */\n      tag_248\n        /* \"#utility.yul\":4760:4766   */\n      dup2\n        /* \"#utility.yul\":4755:4758   */\n      dup6\n        /* \"#utility.yul\":4696:4767   */\n      tag_249\n      jump\t// in\n    tag_248:\n        /* \"#utility.yul\":4689:4767   */\n      swap4\n      pop\n        /* \"#utility.yul\":4776:4828   */\n      tag_250\n        /* \"#utility.yul\":4821:4827   */\n      dup2\n        /* \"#utility.yul\":4816:4819   */\n      dup6\n        /* \"#utility.yul\":4809:4813   */\n      0x20\n        /* \"#utility.yul\":4802:4807   */\n      dup7\n        /* \"#utility.yul\":4798:4814   */\n      add\n        /* \"#utility.yul\":4776:4828   */\n      tag_251\n      jump\t// in\n    tag_250:\n        /* \"#utility.yul\":4853:4882   */\n      tag_252\n        /* \"#utility.yul\":4875:4881   */\n      dup2\n        /* \"#utility.yul\":4853:4882   */\n      tag_253\n      jump\t// in\n    tag_252:\n        /* \"#utility.yul\":4848:4851   */\n      dup5\n        /* \"#utility.yul\":4844:4883   */\n      add\n        /* \"#utility.yul\":4837:4883   */\n      swap2\n      pop\n        /* \"#utility.yul\":4617:4889   */\n      pop\n        /* \"#utility.yul\":4525:4889   */\n      swap3\n      swap2\n      pop\n      pop\n      jump\t// out\n        /* \"#utility.yul\":4895:5261   */\n    tag_254:\n        /* \"#utility.yul\":5037:5040   */\n      0x00\n        /* \"#utility.yul\":5058:5125   */\n      tag_256\n        /* \"#utility.yul\":5122:5124   */\n      0x19\n        /* \"#utility.yul\":5117:5120   */\n      dup4\n        /* \"#utility.yul\":5058:5125   */\n      tag_249\n      jump\t// in\n    tag_256:\n        /* \"#utility.yul\":5051:5125   */\n      swap2\n      pop\n        /* \"#utility.yul\":5134:5227   */\n      tag_257\n        /* \"#utility.yul\":5223:5226   */\n      dup3\n        /* \"#utility.yul\":5134:5227   */\n      tag_258\n      jump\t// in\n    tag_257:\n        /* \"#utility.yul\":5252:5254   */\n      0x20\n        /* \"#utility.yul\":5247:5250   */\n      dup3\n        /* \"#utility.yul\":5243:5255   */\n      add\n        /* \"#utility.yul\":5236:5255   */\n      swap1\n      pop\n        /* \"#utility.yul\":4895:5261   */\n      swap2\n      swap1\n      pop\n      jump\t// out\n        /* \"#utility.yul\":5267:5633   */\n    tag_259:\n        /* \"#utility.yul\":5409:5412   */\n      0x00\n        /* \"#utility.yul\":5430:5497   */\n      tag_261\n        /* \"#utility.yul\":5494:5496   */\n      0x1e\n        /* \"#utility.yul\":5489:5492   */\n      dup4\n        /* \"#utility.yul\":5430:5497   */\n      tag_249\n      jump\t// in\n    tag_261:\n        /* \"#utility.yul\":5423:5497   */\n      swap2\n      pop\n        /* \"#utility.yul\":5506:5599   */\n      tag_262\n        /* \"#utility.yul\":5595:5598   */\n      dup3\n        /* \"#utility.yul\":5506:5599   */\n      tag_263\n      jump\t// in\n    tag_262:\n        /* \"#utility.yul\":5624:5626   */\n      0x20\n        /* \"#utility.yul\":5619:5622   */\n      dup3\n        /* \"#utility.yul\":5615:5627   */\n      add\n        /* \"#utility.yul\":5608:5627   */\n      swap1\n      pop\n        /* \"#utility.yul\":5267:5633   */\n      swap2\n      swap1\n      pop\n      jump\t// out\n        /* \"#utility.yul\":5639:5757   */\n    tag_264:\n        /* \"#utility.yul\":5726:5750   */\n      tag_266\n        /* \"#utility.yul\":5744:5749   */\n      dup2\n        /* \"#utility.yul\":5726:5750   */\n      tag_267\n      jump\t// in\n    tag_266:\n        /* \"#utility.yul\":5721:5724   */\n      dup3\n        /* \"#utility.yul\":5714:5751   */\n      mstore\n        /* \"#utility.yul\":5639:5757   */\n      pop\n      pop\n      jump\t// out\n        /* \"#utility.yul\":5763:6017   */\n    tag_54:\n        /* \"#utility.yul\":5872:5876   */\n      0x00\n        /* \"#utility.yul\":5910:5912   */\n      0x20\n        /* \"#utility.yul\":5899:5908   */\n      dup3\n        /* \"#utility.yul\":5895:5913   */\n      add\n        /* \"#utility.yul\":5887:5913   */\n      swap1\n      pop\n        /* \"#utility.yul\":5923:6010   */\n      tag_269\n        /* \"#utility.yul\":6007:6008   */\n      0x00\n        /* \"#utility.yul\":5996:6005   */\n      dup4\n        /* \"#utility.yul\":5992:6009   */\n      add\n        /* \"#utility.yul\":5983:5989   */\n      dup5\n        /* \"#utility.yul\":5923:6010   */\n      tag_232\n      jump\t// in\n    tag_269:\n        /* \"#utility.yul\":5763:6017   */\n      swap3\n      swap2\n      pop\n      pop\n      jump\t// out\n        /* \"#utility.yul\":6023:6233   */\n    tag_36:\n        /* \"#utility.yul\":6110:6114   */\n      0x00\n        /* \"#utility.yul\":6148:6150   */\n      0x20\n        /* \"#utility.yul\":6137:6146   */\n      dup3\n        /* \"#utility.yul\":6133:6151   */\n      add\n        /* \"#utility.yul\":6125:6151   */\n      swap1\n      pop\n        /* \"#utility.yul\":6161:6226   */\n      tag_271\n        /* \"#utility.yul\":6223:6224   */\n      0x00\n        /* \"#utility.yul\":6212:6221   */\n      dup4\n        /* \"#utility.yul\":6208:6225   */\n      add\n        /* \"#utility.yul\":6199:6205   */\n      dup5\n        /* \"#utility.yul\":6161:6226   */\n      tag_236\n      jump\t// in\n    tag_271:\n        /* \"#utility.yul\":6023:6233   */\n      swap3\n      swap2\n      pop\n      pop\n      jump\t// out\n        /* \"#utility.yul\":6239:6672   */\n    tag_63:\n        /* \"#utility.yul\":6385:6389   */\n      0x00\n        /* \"#utility.yul\":6423:6425   */\n      0x40\n        /* \"#utility.yul\":6412:6421   */\n      dup3\n        /* \"#utility.yul\":6408:6426   */\n      add\n        /* \"#utility.yul\":6400:6426   */\n      swap1\n      pop\n        /* \"#utility.yul\":6436:6512   */\n      tag_273\n        /* \"#utility.yul\":6509:6510   */\n      0x00\n        /* \"#utility.yul\":6498:6507   */\n      dup4\n        /* \"#utility.yul\":6494:6511   */\n      add\n        /* \"#utility.yul\":6485:6491   */\n      dup6\n        /* \"#utility.yul\":6436:6512   */\n      tag_240\n      jump\t// in\n    tag_273:\n        /* \"#utility.yul\":6559:6568   */\n      dup2\n        /* \"#utility.yul\":6553:6557   */\n      dup2\n        /* \"#utility.yul\":6549:6569   */\n      sub\n        /* \"#utility.yul\":6544:6546   */\n      0x20\n        /* \"#utility.yul\":6533:6542   */\n      dup4\n        /* \"#utility.yul\":6529:6547   */\n      add\n        /* \"#utility.yul\":6522:6570   */\n      mstore\n        /* \"#utility.yul\":6587:6665   */\n      tag_274\n        /* \"#utility.yul\":6660:6664   */\n      dup2\n        /* \"#utility.yul\":6651:6657   */\n      dup5\n        /* \"#utility.yul\":6587:6665   */\n      tag_244\n      jump\t// in\n    tag_274:\n        /* \"#utility.yul\":6579:6665   */\n      swap1\n      pop\n        /* \"#utility.yul\":6239:6672   */\n      swap4\n      swap3\n      pop\n      pop\n      pop\n      jump\t// out\n        /* \"#utility.yul\":6678:6991   */\n    tag_19:\n        /* \"#utility.yul\":6791:6795   */\n      0x00\n        /* \"#utility.yul\":6829:6831   */\n      0x20\n        /* \"#utility.yul\":6818:6827   */\n      dup3\n        /* \"#utility.yul\":6814:6832   */\n      add\n        /* \"#utility.yul\":6806:6832   */\n      swap1\n      pop\n        /* \"#utility.yul\":6878:6887   */\n      dup2\n        /* \"#utility.yul\":6872:6876   */\n      dup2\n        /* \"#utility.yul\":6868:6888   */\n      sub\n        /* \"#utility.yul\":6864:6865   */\n      0x00\n        /* \"#utility.yul\":6853:6862   */\n      dup4\n        /* \"#utility.yul\":6849:6866   */\n      add\n        /* \"#utility.yul\":6842:6889   */\n      mstore\n        /* \"#utility.yul\":6906:6984   */\n      tag_276\n        /* \"#utility.yul\":6979:6983   */\n      dup2\n        /* \"#utility.yul\":6970:6976   */\n      dup5\n        /* \"#utility.yul\":6906:6984   */\n      tag_244\n      jump\t// in\n    tag_276:\n        /* \"#utility.yul\":6898:6984   */\n      swap1\n      pop\n        /* \"#utility.yul\":6678:6991   */\n      swap3\n      swap2\n      pop\n      pop\n      jump\t// out\n        /* \"#utility.yul\":6997:7416   */\n    tag_89:\n        /* \"#utility.yul\":7163:7167   */\n      0x00\n        /* \"#utility.yul\":7201:7203   */\n      0x20\n        /* \"#utility.yul\":7190:7199   */\n      dup3\n        /* \"#utility.yul\":7186:7204   */\n      add\n        /* \"#utility.yul\":7178:7204   */\n      swap1\n      pop\n        /* \"#utility.yul\":7250:7259   */\n      dup2\n        /* \"#utility.yul\":7244:7248   */\n      dup2\n        /* \"#utility.yul\":7240:7260   */\n      sub\n        /* \"#utility.yul\":7236:7237   */\n      0x00\n        /* \"#utility.yul\":7225:7234   */\n      dup4\n        /* \"#utility.yul\":7221:7238   */\n      add\n        /* \"#utility.yul\":7214:7261   */\n      mstore\n        /* \"#utility.yul\":7278:7409   */\n      tag_278\n        /* \"#utility.yul\":7404:7408   */\n      dup2\n        /* \"#utility.yul\":7278:7409   */\n      tag_254\n      jump\t// in\n    tag_278:\n        /* \"#utility.yul\":7270:7409   */\n      swap1\n      pop\n        /* \"#utility.yul\":6997:7416   */\n      swap2\n      swap1\n      pop\n      jump\t// out\n        /* \"#utility.yul\":7422:7841   */\n    tag_130:\n        /* \"#utility.yul\":7588:7592   */\n      0x00\n        /* \"#utility.yul\":7626:7628   */\n      0x20\n        /* \"#utility.yul\":7615:7624   */\n      dup3\n        /* \"#utility.yul\":7611:7629   */\n      add\n        /* \"#utility.yul\":7603:7629   */\n      swap1\n      pop\n        /* \"#utility.yul\":7675:7684   */\n      dup2\n        /* \"#utility.yul\":7669:7673   */\n      dup2\n        /* \"#utility.yul\":7665:7685   */\n      sub\n        /* \"#utility.yul\":7661:7662   */\n      0x00\n        /* \"#utility.yul\":7650:7659   */\n      dup4\n        /* \"#utility.yul\":7646:7663   */\n      add\n        /* \"#utility.yul\":7639:7686   */\n      mstore\n        /* \"#utility.yul\":7703:7834   */\n      tag_280\n        /* \"#utility.yul\":7829:7833   */\n      dup2\n        /* \"#utility.yul\":7703:7834   */\n      tag_259\n      jump\t// in\n    tag_280:\n        /* \"#utility.yul\":7695:7834   */\n      swap1\n      pop\n        /* \"#utility.yul\":7422:7841   */\n      swap2\n      swap1\n      pop\n      jump\t// out\n        /* \"#utility.yul\":7847:8069   */\n    tag_69:\n        /* \"#utility.yul\":7940:7944   */\n      0x00\n        /* \"#utility.yul\":7978:7980   */\n      0x20\n        /* \"#utility.yul\":7967:7976   */\n      dup3\n        /* \"#utility.yul\":7963:7981   */\n      add\n        /* \"#utility.yul\":7955:7981   */\n      swap1\n      pop\n        /* \"#utility.yul\":7991:8062   */\n      tag_282\n        /* \"#utility.yul\":8059:8060   */\n      0x00\n        /* \"#utility.yul\":8048:8057   */\n      dup4\n        /* \"#utility.yul\":8044:8061   */\n      add\n        /* \"#utility.yul\":8035:8041   */\n      dup5\n        /* \"#utility.yul\":7991:8062   */\n      tag_264\n      jump\t// in\n    tag_282:\n        /* \"#utility.yul\":7847:8069   */\n      swap3\n      swap2\n      pop\n      pop\n      jump\t// out\n        /* \"#utility.yul\":8075:8204   */\n    tag_174:\n        /* \"#utility.yul\":8109:8115   */\n      0x00\n        /* \"#utility.yul\":8136:8156   */\n      tag_284\n      tag_285\n      jump\t// in\n    tag_284:\n        /* \"#utility.yul\":8126:8156   */\n      swap1\n      pop\n        /* \"#utility.yul\":8165:8198   */\n      tag_286\n        /* \"#utility.yul\":8193:8197   */\n      dup3\n        /* \"#utility.yul\":8185:8191   */\n      dup3\n        /* \"#utility.yul\":8165:8198   */\n      tag_287\n      jump\t// in\n    tag_286:\n        /* \"#utility.yul\":8075:8204   */\n      swap2\n      swap1\n      pop\n      jump\t// out\n        /* \"#utility.yul\":8210:8285   */\n    tag_285:\n        /* \"#utility.yul\":8243:8249   */\n      0x00\n        /* \"#utility.yul\":8276:8278   */\n      0x40\n        /* \"#utility.yul\":8270:8279   */\n      mload\n        /* \"#utility.yul\":8260:8279   */\n      swap1\n      pop\n        /* \"#utility.yul\":8210:8285   */\n      swap1\n      jump\t// out\n        /* \"#utility.yul\":8291:8599   */\n    tag_173:\n        /* \"#utility.yul\":8353:8357   */\n      0x00\n        /* \"#utility.yul\":8443:8461   */\n      0xffffffffffffffff\n        /* \"#utility.yul\":8435:8441   */\n      dup3\n        /* \"#utility.yul\":8432:8462   */\n      gt\n        /* \"#utility.yul\":8429:8485   */\n      iszero\n      tag_290\n      jumpi\n        /* \"#utility.yul\":8465:8483   */\n      tag_291\n      tag_292\n      jump\t// in\n    tag_291:\n        /* \"#utility.yul\":8429:8485   */\n    tag_290:\n        /* \"#utility.yul\":8503:8532   */\n      tag_293\n        /* \"#utility.yul\":8525:8531   */\n      dup3\n        /* \"#utility.yul\":8503:8532   */\n      tag_253\n      jump\t// in\n    tag_293:\n        /* \"#utility.yul\":8495:8532   */\n      swap1\n      pop\n        /* \"#utility.yul\":8587:8591   */\n      0x20\n        /* \"#utility.yul\":8581:8585   */\n      dup2\n        /* \"#utility.yul\":8577:8592   */\n      add\n        /* \"#utility.yul\":8569:8592   */\n      swap1\n      pop\n        /* \"#utility.yul\":8291:8599   */\n      swap2\n      swap1\n      pop\n      jump\t// out\n        /* \"#utility.yul\":8605:8704   */\n    tag_247:\n        /* \"#utility.yul\":8657:8663   */\n      0x00\n        /* \"#utility.yul\":8691:8696   */\n      dup2\n        /* \"#utility.yul\":8685:8697   */\n      mload\n        /* \"#utility.yul\":8675:8697   */\n      swap1\n      pop\n        /* \"#utility.yul\":8605:8704   */\n      swap2\n      swap1\n      pop\n      jump\t// out\n        /* \"#utility.yul\":8710:8879   */\n    tag_249:\n        /* \"#utility.yul\":8794:8805   */\n      0x00\n        /* \"#utility.yul\":8828:8834   */\n      dup3\n        /* \"#utility.yul\":8823:8826   */\n      dup3\n        /* \"#utility.yul\":8816:8835   */\n      mstore\n        /* \"#utility.yul\":8868:8872   */\n      0x20\n        /* \"#utility.yul\":8863:8866   */\n      dup3\n        /* \"#utility.yul\":8859:8873   */\n      add\n        /* \"#utility.yul\":8844:8873   */\n      swap1\n      pop\n        /* \"#utility.yul\":8710:8879   */\n      swap3\n      swap2\n      pop\n      pop\n      jump\t// out\n        /* \"#utility.yul\":8885:9190   */\n    tag_121:\n        /* \"#utility.yul\":8925:8928   */\n      0x00\n        /* \"#utility.yul\":8944:8964   */\n      tag_297\n        /* \"#utility.yul\":8962:8963   */\n      dup3\n        /* \"#utility.yul\":8944:8964   */\n      tag_267\n      jump\t// in\n    tag_297:\n        /* \"#utility.yul\":8939:8964   */\n      swap2\n      pop\n        /* \"#utility.yul\":8978:8998   */\n      tag_298\n        /* \"#utility.yul\":8996:8997   */\n      dup4\n        /* \"#utility.yul\":8978:8998   */\n      tag_267\n      jump\t// in\n    tag_298:\n        /* \"#utility.yul\":8973:8998   */\n      swap3\n      pop\n        /* \"#utility.yul\":9132:9133   */\n      dup3\n        /* \"#utility.yul\":9064:9130   */\n      0xffffffffffffffffffffffffffffffffffffffffffffffffffffffffffffffff\n        /* \"#utility.yul\":9060:9134   */\n      sub\n        /* \"#utility.yul\":9057:9058   */\n      dup3\n        /* \"#utility.yul\":9054:9135   */\n      gt\n        /* \"#utility.yul\":9051:9158   */\n      iszero\n      tag_299\n      jumpi\n        /* \"#utility.yul\":9138:9156   */\n      tag_300\n      tag_301\n      jump\t// in\n    tag_300:\n        /* \"#utility.yul\":9051:9158   */\n    tag_299:\n        /* \"#utility.yul\":9182:9183   */\n      dup3\n        /* \"#utility.yul\":9179:9180   */\n      dup3\n        /* \"#utility.yul\":9175:9184   */\n      add\n        /* \"#utility.yul\":9168:9184   */\n      swap1\n      pop\n        /* \"#utility.yul\":8885:9190   */\n      swap3\n      swap2\n      pop\n      pop\n      jump\t// out\n        /* \"#utility.yul\":9196:9381   */\n    tag_144:\n        /* \"#utility.yul\":9236:9237   */\n      0x00\n        /* \"#utility.yul\":9253:9273   */\n      tag_303\n        /* \"#utility.yul\":9271:9272   */\n      dup3\n        /* \"#utility.yul\":9253:9273   */\n      tag_267\n      jump\t// in\n    tag_303:\n        /* \"#utility.yul\":9248:9273   */\n      swap2\n      pop\n        /* \"#utility.yul\":9287:9307   */\n      tag_304\n        /* \"#utility.yul\":9305:9306   */\n      dup4\n        /* \"#utility.yul\":9287:9307   */\n      tag_267\n      jump\t// in\n    tag_304:\n        /* \"#utility.yul\":9282:9307   */\n      swap3\n      pop\n        /* \"#utility.yul\":9326:9327   */\n      dup3\n        /* \"#utility.yul\":9316:9351   */\n      tag_305\n      jumpi\n        /* \"#utility.yul\":9331:9349   */\n      tag_306\n      tag_307\n      jump\t// in\n    tag_306:\n        /* \"#utility.yul\":9316:9351   */\n    tag_305:\n        /* \"#utility.yul\":9373:9374   */\n      dup3\n        /* \"#utility.yul\":9370:9371   */\n      dup3\n        /* \"#utility.yul\":9366:9375   */\n      div\n        /* \"#utility.yul\":9361:9375   */\n      swap1\n      pop\n        /* \"#utility.yul\":9196:9381   */\n      swap3\n      swap2\n      pop\n      pop\n      jump\t// out\n        /* \"#utility.yul\":9387:9578   */\n    tag_119:\n        /* \"#utility.yul\":9427:9431   */\n      0x00\n        /* \"#utility.yul\":9447:9467   */\n      tag_309\n        /* \"#utility.yul\":9465:9466   */\n      dup3\n        /* \"#utility.yul\":9447:9467   */\n      tag_267\n      jump\t// in\n    tag_309:\n        /* \"#utility.yul\":9442:9467   */\n      swap2\n      pop\n        /* \"#utility.yul\":9481:9501   */\n      tag_310\n        /* \"#utility.yul\":9499:9500   */\n      dup4\n        /* \"#utility.yul\":9481:9501   */\n      tag_267\n      jump\t// in\n    tag_310:\n        /* \"#utility.yul\":9476:9501   */\n      swap3\n      pop\n        /* \"#utility.yul\":9520:9521   */\n      dup3\n        /* \"#utility.yul\":9517:9518   */\n      dup3\n        /* \"#utility.yul\":9514:9522   */\n      lt\n        /* \"#utility.yul\":9511:9545   */\n      iszero\n      tag_311\n      jumpi\n        /* \"#utility.yul\":9525:9543   */\n      tag_312\n      tag_301\n      jump\t// in\n    tag_312:\n        /* \"#utility.yul\":9511:9545   */\n    tag_311:\n        /* \"#utility.yul\":9570:9571   */\n      dup3\n        /* \"#utility.yul\":9567:9568   */\n      dup3\n        /* \"#utility.yul\":9563:9572   */\n      sub\n        /* \"#utility.yul\":9555:9572   */\n      swap1\n      pop\n        /* \"#utility.yul\":9387:9578   */\n      swap3\n      swap2\n      pop\n      pop\n      jump\t// out\n        /* \"#utility.yul\":9584:9680   */\n    tag_313:\n        /* \"#utility.yul\":9621:9628   */\n      0x00\n        /* \"#utility.yul\":9650:9674   */\n      tag_315\n        /* \"#utility.yul\":9668:9673   */\n      dup3\n        /* \"#utility.yul\":9650:9674   */\n      tag_316\n      jump\t// in\n    tag_315:\n        /* \"#utility.yul\":9639:9674   */\n      swap1\n      pop\n        /* \"#utility.yul\":9584:9680   */\n      swap2\n      swap1\n      pop\n      jump\t// out\n        /* \"#utility.yul\":9686:9790   */\n    tag_235:\n        /* \"#utility.yul\":9731:9738   */\n      0x00\n        /* \"#utility.yul\":9760:9784   */\n      tag_318\n        /* \"#utility.yul\":9778:9783   */\n      dup3\n        /* \"#utility.yul\":9760:9784   */\n      tag_316\n      jump\t// in\n    tag_318:\n        /* \"#utility.yul\":9749:9784   */\n      swap1\n      pop\n        /* \"#utility.yul\":9686:9790   */\n      swap2\n      swap1\n      pop\n      jump\t// out\n        /* \"#utility.yul\":9796:9886   */\n    tag_239:\n        /* \"#utility.yul\":9830:9837   */\n      0x00\n        /* \"#utility.yul\":9873:9878   */\n      dup2\n        /* \"#utility.yul\":9866:9879   */\n      iszero\n        /* \"#utility.yul\":9859:9880   */\n      iszero\n        /* \"#utility.yul\":9848:9880   */\n      swap1\n      pop\n        /* \"#utility.yul\":9796:9886   */\n      swap2\n      swap1\n      pop\n      jump\t// out\n        /* \"#utility.yul\":9892:10017   */\n    tag_320:\n        /* \"#utility.yul\":9936:9943   */\n      0x00\n        /* \"#utility.yul\":9965:9970   */\n      dup2\n        /* \"#utility.yul\":9954:9970   */\n      swap1\n      pop\n        /* \"#utility.yul\":9971:10011   */\n      tag_322\n        /* \"#utility.yul\":10005:10010   */\n      dup3\n        /* \"#utility.yul\":9971:10011   */\n      tag_323\n      jump\t// in\n    tag_322:\n        /* \"#utility.yul\":9892:10017   */\n      swap2\n      swap1\n      pop\n      jump\t// out\n        /* \"#utility.yul\":10023:10099   */\n    tag_324:\n        /* \"#utility.yul\":10059:10066   */\n      0x00\n        /* \"#utility.yul\":10088:10093   */\n      dup2\n        /* \"#utility.yul\":10077:10093   */\n      swap1\n      pop\n        /* \"#utility.yul\":10023:10099   */\n      swap2\n      swap1\n      pop\n      jump\t// out\n        /* \"#utility.yul\":10105:10231   */\n    tag_316:\n        /* \"#utility.yul\":10142:10149   */\n      0x00\n        /* \"#utility.yul\":10182:10224   */\n      0xffffffffffffffffffffffffffffffffffffffff\n        /* \"#utility.yul\":10175:10180   */\n      dup3\n        /* \"#utility.yul\":10171:10225   */\n      and\n        /* \"#utility.yul\":10160:10225   */\n      swap1\n      pop\n        /* \"#utility.yul\":10105:10231   */\n      swap2\n      swap1\n      pop\n      jump\t// out\n        /* \"#utility.yul\":10237:10314   */\n    tag_267:\n        /* \"#utility.yul\":10274:10281   */\n      0x00\n        /* \"#utility.yul\":10303:10308   */\n      dup2\n        /* \"#utility.yul\":10292:10308   */\n      swap1\n      pop\n        /* \"#utility.yul\":10237:10314   */\n      swap2\n      swap1\n      pop\n      jump\t// out\n        /* \"#utility.yul\":10320:10445   */\n    tag_243:\n        /* \"#utility.yul\":10375:10384   */\n      0x00\n        /* \"#utility.yul\":10408:10439   */\n      tag_329\n        /* \"#utility.yul\":10433:10438   */\n      dup3\n        /* \"#utility.yul\":10408:10439   */\n      tag_320\n      jump\t// in\n    tag_329:\n        /* \"#utility.yul\":10395:10439   */\n      swap1\n      pop\n        /* \"#utility.yul\":10320:10445   */\n      swap2\n      swap1\n      pop\n      jump\t// out\n        /* \"#utility.yul\":10451:10605   */\n    tag_179:\n        /* \"#utility.yul\":10535:10541   */\n      dup3\n        /* \"#utility.yul\":10530:10533   */\n      dup2\n        /* \"#utility.yul\":10525:10528   */\n      dup4\n        /* \"#utility.yul\":10512:10542   */\n      calldatacopy\n        /* \"#utility.yul\":10597:10598   */\n      0x00\n        /* \"#utility.yul\":10588:10594   */\n      dup4\n        /* \"#utility.yul\":10583:10586   */\n      dup4\n        /* \"#utility.yul\":10579:10595   */\n      add\n        /* \"#utility.yul\":10572:10599   */\n      mstore\n        /* \"#utility.yul\":10451:10605   */\n      pop\n      pop\n      pop\n      jump\t// out\n        /* \"#utility.yul\":10611:10918   */\n    tag_251:\n        /* \"#utility.yul\":10679:10680   */\n      0x00\n        /* \"#utility.yul\":10689:10802   */\n    tag_332:\n        /* \"#utility.yul\":10703:10709   */\n      dup4\n        /* \"#utility.yul\":10700:10701   */\n      dup2\n        /* \"#utility.yul\":10697:10710   */\n      lt\n        /* \"#utility.yul\":10689:10802   */\n      iszero\n      tag_334\n      jumpi\n        /* \"#utility.yul\":10788:10789   */\n      dup1\n        /* \"#utility.yul\":10783:10786   */\n      dup3\n        /* \"#utility.yul\":10779:10790   */\n      add\n        /* \"#utility.yul\":10773:10791   */\n      mload\n        /* \"#utility.yul\":10769:10770   */\n      dup2\n        /* \"#utility.yul\":10764:10767   */\n      dup5\n        /* \"#utility.yul\":10760:10771   */\n      add\n        /* \"#utility.yul\":10753:10792   */\n      mstore\n        /* \"#utility.yul\":10725:10727   */\n      0x20\n        /* \"#utility.yul\":10722:10723   */\n      dup2\n        /* \"#utility.yul\":10718:10728   */\n      add\n        /* \"#utility.yul\":10713:10728   */\n      swap1\n      pop\n        /* \"#utility.yul\":10689:10802   */\n      jump(tag_332)\n    tag_334:\n        /* \"#utility.yul\":10820:10826   */\n      dup4\n        /* \"#utility.yul\":10817:10818   */\n      dup2\n        /* \"#utility.yul\":10814:10827   */\n      gt\n        /* \"#utility.yul\":10811:10912   */\n      iszero\n      tag_335\n      jumpi\n        /* \"#utility.yul\":10900:10901   */\n      0x00\n        /* \"#utility.yul\":10891:10897   */\n      dup5\n        /* \"#utility.yul\":10886:10889   */\n      dup5\n        /* \"#utility.yul\":10882:10898   */\n      add\n        /* \"#utility.yul\":10875:10902   */\n      mstore\n        /* \"#utility.yul\":10811:10912   */\n    tag_335:\n        /* \"#utility.yul\":10660:10918   */\n      pop\n        /* \"#utility.yul\":10611:10918   */\n      pop\n      pop\n      pop\n      jump\t// out\n        /* \"#utility.yul\":10924:11244   */\n    tag_76:\n        /* \"#utility.yul\":10968:10974   */\n      0x00\n        /* \"#utility.yul\":11005:11006   */\n      0x02\n        /* \"#utility.yul\":10999:11003   */\n      dup3\n        /* \"#utility.yul\":10995:11007   */\n      div\n        /* \"#utility.yul\":10985:11007   */\n      swap1\n      pop\n        /* \"#utility.yul\":11052:11053   */\n      0x01\n        /* \"#utility.yul\":11046:11050   */\n      dup3\n        /* \"#utility.yul\":11042:11054   */\n      and\n        /* \"#utility.yul\":11073:11091   */\n      dup1\n        /* \"#utility.yul\":11063:11144   */\n      tag_337\n      jumpi\n        /* \"#utility.yul\":11129:11133   */\n      0x7f\n        /* \"#utility.yul\":11121:11127   */\n      dup3\n        /* \"#utility.yul\":11117:11134   */\n      and\n        /* \"#utility.yul\":11107:11134   */\n      swap2\n      pop\n        /* \"#utility.yul\":11063:11144   */\n    tag_337:\n        /* \"#utility.yul\":11191:11193   */\n      0x20\n        /* \"#utility.yul\":11183:11189   */\n      dup3\n        /* \"#utility.yul\":11180:11194   */\n      lt\n        /* \"#utility.yul\":11160:11178   */\n      dup2\n        /* \"#utility.yul\":11157:11195   */\n      eq\n        /* \"#utility.yul\":11154:11238   */\n      iszero\n      tag_338\n      jumpi\n        /* \"#utility.yul\":11210:11228   */\n      tag_339\n      tag_340\n      jump\t// in\n    tag_339:\n        /* \"#utility.yul\":11154:11238   */\n    tag_338:\n        /* \"#utility.yul\":10975:11244   */\n      pop\n        /* \"#utility.yul\":10924:11244   */\n      swap2\n      swap1\n      pop\n      jump\t// out\n        /* \"#utility.yul\":11250:11531   */\n    tag_287:\n        /* \"#utility.yul\":11333:11360   */\n      tag_342\n        /* \"#utility.yul\":11355:11359   */\n      dup3\n        /* \"#utility.yul\":11333:11360   */\n      tag_253\n      jump\t// in\n    tag_342:\n        /* \"#utility.yul\":11325:11331   */\n      dup2\n        /* \"#utility.yul\":11321:11361   */\n      add\n        /* \"#utility.yul\":11463:11469   */\n      dup2\n        /* \"#utility.yul\":11451:11461   */\n      dup2\n        /* \"#utility.yul\":11448:11470   */\n      lt\n        /* \"#utility.yul\":11427:11445   */\n      0xffffffffffffffff\n        /* \"#utility.yul\":11415:11425   */\n      dup3\n        /* \"#utility.yul\":11412:11446   */\n      gt\n        /* \"#utility.yul\":11409:11471   */\n      or\n        /* \"#utility.yul\":11406:11494   */\n      iszero\n      tag_343\n      jumpi\n        /* \"#utility.yul\":11474:11492   */\n      tag_344\n      tag_292\n      jump\t// in\n    tag_344:\n        /* \"#utility.yul\":11406:11494   */\n    tag_343:\n        /* \"#utility.yul\":11514:11524   */\n      dup1\n        /* \"#utility.yul\":11510:11512   */\n      0x40\n        /* \"#utility.yul\":11503:11525   */\n      mstore\n        /* \"#utility.yul\":11293:11531   */\n      pop\n        /* \"#utility.yul\":11250:11531   */\n      pop\n      pop\n      jump\t// out\n        /* \"#utility.yul\":11537:11717   */\n    tag_301:\n        /* \"#utility.yul\":11585:11662   */\n      0x4e487b7100000000000000000000000000000000000000000000000000000000\n        /* \"#utility.yul\":11582:11583   */\n      0x00\n        /* \"#utility.yul\":11575:11663   */\n      mstore\n        /* \"#utility.yul\":11682:11686   */\n      0x11\n        /* \"#utility.yul\":11679:11680   */\n      0x04\n        /* \"#utility.yul\":11672:11687   */\n      mstore\n        /* \"#utility.yul\":11706:11710   */\n      0x24\n        /* \"#utility.yul\":11703:11704   */\n      0x00\n        /* \"#utility.yul\":11696:11711   */\n      revert\n        /* \"#utility.yul\":11723:11903   */\n    tag_307:\n        /* \"#utility.yul\":11771:11848   */\n      0x4e487b7100000000000000000000000000000000000000000000000000000000\n        /* \"#utility.yul\":11768:11769   */\n      0x00\n        /* \"#utility.yul\":11761:11849   */\n      mstore\n        /* \"#utility.yul\":11868:11872   */\n      0x12\n        /* \"#utility.yul\":11865:11866   */\n      0x04\n        /* \"#utility.yul\":11858:11873   */\n      mstore\n        /* \"#utility.yul\":11892:11896   */\n      0x24\n        /* \"#utility.yul\":11889:11890   */\n      0x00\n        /* \"#utility.yul\":11882:11897   */\n      revert\n        /* \"#utility.yul\":11909:12089   */\n    tag_84:\n        /* \"#utility.yul\":11957:12034   */\n      0x4e487b7100000000000000000000000000000000000000000000000000000000\n        /* \"#utility.yul\":11954:11955   */\n      0x00\n        /* \"#utility.yul\":11947:12035   */\n      mstore\n        /* \"#utility.yul\":12054:12058   */\n      0x21\n        /* \"#utility.yul\":12051:12052   */\n      0x04\n        /* \"#utility.yul\":12044:12059   */\n      mstore\n        /* \"#utility.yul\":12078:12082   */\n      0x24\n        /* \"#utility.yul\":12075:12076   */\n      0x00\n        /* \"#utility.yul\":12068:12083   */\n      revert\n        /* \"#utility.yul\":12095:12275   */\n    tag_340:\n        /* \"#utility.yul\":12143:12220   */\n      0x4e487b7100000000000000000000000000000000000000000000000000000000\n        /* \"#utility.yul\":12140:12141   */\n      0x00\n        /* \"#utility.yul\":12133:12221   */\n      mstore\n        /* \"#utility.yul\":12240:12244   */\n      0x22\n        /* \"#utility.yul\":12237:12238   */\n      0x04\n        /* \"#utility.yul\":12230:12245   */\n      mstore\n        /* \"#utility.yul\":12264:12268   */\n      0x24\n        /* \"#utility.yul\":12261:12262   */\n      0x00\n        /* \"#utility.yul\":12254:12269   */\n      revert\n        /* \"#utility.yul\":12281:12461   */\n    tag_93:\n        /* \"#utility.yul\":12329:12406   */\n      0x4e487b7100000000000000000000000000000000000000000000000000000000\n        /* \"#utility.yul\":12326:12327   */\n      0x00\n        /* \"#utility.yul\":12319:12407   */\n      mstore\n        /* \"#utility.yul\":12426:12430   */\n      0x32\n        /* \"#utility.yul\":12423:12424   */\n      0x04\n        /* \"#utility.yul\":12416:12431   */\n      mstore\n        /* \"#utility.yul\":12450:12454   */\n      0x24\n        /* \"#utility.yul\":12447:12448   */\n      0x00\n        /* \"#utility.yul\":12440:12455   */\n      revert\n        /* \"#utility.yul\":12467:12647   */\n    tag_292:\n        /* \"#utility.yul\":12515:12592   */\n      0x4e487b7100000000000000000000000000000000000000000000000000000000\n        /* \"#utility.yul\":12512:12513   */\n      0x00\n        /* \"#utility.yul\":12505:12593   */\n      mstore\n        /* \"#utility.yul\":12612:12616   */\n      0x41\n        /* \"#utility.yul\":12609:12610   */\n      0x04\n        /* \"#utility.yul\":12602:12617   */\n      mstore\n        /* \"#utility.yul\":12636:12640   */\n      0x24\n        /* \"#utility.yul\":12633:12634   */\n      0x00\n        /* \"#utility.yul\":12626:12641   */\n      revert\n        /* \"#utility.yul\":12653:12770   */\n    tag_196:\n        /* \"#utility.yul\":12762:12763   */\n      0x00\n        /* \"#utility.yul\":12759:12760   */\n      dup1\n        /* \"#utility.yul\":12752:12764   */\n      revert\n        /* \"#utility.yul\":12776:12893   */\n    tag_177:\n        /* \"#utility.yul\":12885:12886   */\n      0x00\n        /* \"#utility.yul\":12882:12883   */\n      dup1\n        /* \"#utility.yul\":12875:12887   */\n      revert\n        /* \"#utility.yul\":12899:13016   */\n    tag_214:\n        /* \"#utility.yul\":13008:13009   */\n      0x00\n        /* \"#utility.yul\":13005:13006   */\n      dup1\n        /* \"#utility.yul\":12998:13010   */\n      revert\n        /* \"#utility.yul\":13022:13139   */\n    tag_205:\n        /* \"#utility.yul\":13131:13132   */\n      0x00\n        /* \"#utility.yul\":13128:13129   */\n      dup1\n        /* \"#utility.yul\":13121:13133   */\n      revert\n        /* \"#utility.yul\":13145:13247   */\n    tag_253:\n        /* \"#utility.yul\":13186:13192   */\n      0x00\n        /* \"#utility.yul\":13237:13239   */\n      0x1f\n        /* \"#utility.yul\":13233:13240   */\n      not\n        /* \"#utility.yul\":13228:13230   */\n      0x1f\n        /* \"#utility.yul\":13221:13226   */\n      dup4\n        /* \"#utility.yul\":13217:13231   */\n      add\n        /* \"#utility.yul\":13213:13241   */\n      and\n        /* \"#utility.yul\":13203:13241   */\n      swap1\n      pop\n        /* \"#utility.yul\":13145:13247   */\n      swap2\n      swap1\n      pop\n      jump\t// out\n        /* \"#utility.yul\":13253:13428   */\n    tag_258:\n        /* \"#utility.yul\":13393:13420   */\n      0x63616c6c6572206973206e6f7420612070726f64756365722e00000000000000\n        /* \"#utility.yul\":13389:13390   */\n      0x00\n        /* \"#utility.yul\":13381:13387   */\n      dup3\n        /* \"#utility.yul\":13377:13391   */\n      add\n        /* \"#utility.yul\":13370:13421   */\n      mstore\n        /* \"#utility.yul\":13253:13428   */\n      pop\n      jump\t// out\n        /* \"#utility.yul\":13434:13614   */\n    tag_263:\n        /* \"#utility.yul\":13574:13606   */\n      0x63616c6c6572206973206e6f742074686520746f6b656e206f776e65722e0000\n        /* \"#utility.yul\":13570:13571   */\n      0x00\n        /* \"#utility.yul\":13562:13568   */\n      dup3\n        /* \"#utility.yul\":13558:13572   */\n      add\n        /* \"#utility.yul\":13551:13607   */\n      mstore\n        /* \"#utility.yul\":13434:13614   */\n      pop\n      jump\t// out\n        /* \"#utility.yul\":13620:13732   */\n    tag_323:\n        /* \"#utility.yul\":13700:13701   */\n      0x05\n        /* \"#utility.yul\":13693:13698   */\n      dup2\n        /* \"#utility.yul\":13690:13702   */\n      lt\n        /* \"#utility.yul\":13680:13726   */\n      tag_359\n      jumpi\n        /* \"#utility.yul\":13706:13724   */\n      tag_360\n      tag_84\n      jump\t// in\n    tag_360:\n        /* \"#utility.yul\":13680:13726   */\n    tag_359:\n        /* \"#utility.yul\":13620:13732   */\n      pop\n      jump\t// out\n        /* \"#utility.yul\":13738:13860   */\n    tag_183:\n        /* \"#utility.yul\":13811:13835   */\n      tag_362\n        /* \"#utility.yul\":13829:13834   */\n      dup2\n        /* \"#utility.yul\":13811:13835   */\n      tag_313\n      jump\t// in\n    tag_362:\n        /* \"#utility.yul\":13804:13809   */\n      dup2\n        /* \"#utility.yul\":13801:13836   */\n      eq\n        /* \"#utility.yul\":13791:13854   */\n      tag_363\n      jumpi\n        /* \"#utility.yul\":13850:13851   */\n      0x00\n        /* \"#utility.yul\":13847:13848   */\n      dup1\n        /* \"#utility.yul\":13840:13852   */\n      revert\n        /* \"#utility.yul\":13791:13854   */\n    tag_363:\n        /* \"#utility.yul\":13738:13860   */\n      pop\n      jump\t// out\n        /* \"#utility.yul\":13866:13972   */\n    tag_187:\n        /* \"#utility.yul\":13946:13947   */\n      0x05\n        /* \"#utility.yul\":13939:13944   */\n      dup2\n        /* \"#utility.yul\":13936:13948   */\n      lt\n        /* \"#utility.yul\":13926:13966   */\n      tag_365\n      jumpi\n        /* \"#utility.yul\":13962:13963   */\n      0x00\n        /* \"#utility.yul\":13959:13960   */\n      dup1\n        /* \"#utility.yul\":13952:13964   */\n      revert\n        /* \"#utility.yul\":13926:13966   */\n    tag_365:\n        /* \"#utility.yul\":13866:13972   */\n      pop\n      jump\t// out\n        /* \"#utility.yul\":13978:14098   */\n    tag_191:\n        /* \"#utility.yul\":14050:14073   */\n      tag_367\n        /* \"#utility.yul\":14067:14072   */\n      dup2\n        /* \"#utility.yul\":14050:14073   */\n      tag_324\n      jump\t// in\n    tag_367:\n        /* \"#utility.yul\":14043:14048   */\n      dup2\n        /* \"#utility.yul\":14040:14074   */\n      eq\n        /* \"#utility.yul\":14030:14092   */\n      tag_368\n      jumpi\n        /* \"#utility.yul\":14088:14089   */\n      0x00\n        /* \"#utility.yul\":14085:14086   */\n      dup1\n        /* \"#utility.yul\":14078:14090   */\n      revert\n        /* \"#utility.yul\":14030:14092   */\n    tag_368:\n        /* \"#utility.yul\":13978:14098   */\n      pop\n      jump\t// out\n        /* \"#utility.yul\":14104:14226   */\n    tag_201:\n        /* \"#utility.yul\":14177:14201   */\n      tag_370\n        /* \"#utility.yul\":14195:14200   */\n      dup2\n        /* \"#utility.yul\":14177:14201   */\n      tag_267\n      jump\t// in\n    tag_370:\n        /* \"#utility.yul\":14170:14175   */\n      dup2\n        /* \"#utility.yul\":14167:14202   */\n      eq\n        /* \"#utility.yul\":14157:14220   */\n      tag_371\n      jumpi\n        /* \"#utility.yul\":14216:14217   */\n      0x00\n        /* \"#utility.yul\":14213:14214   */\n      dup1\n        /* \"#utility.yul\":14206:14218   */\n      revert\n        /* \"#utility.yul\":14157:14220   */\n    tag_371:\n        /* \"#utility.yul\":14104:14226   */\n      pop\n      jump\t// out\n\n    auxdata: 0xa26469706673582212208535b752bd850ae8d8b0cd8a7a82b5b2d8985ca3de6d7a41840e5b58365f5ae864736f6c63430008070033\n}\n",
				"bytecode": {
					"linkReferences": {},
					"object": "60806040523480156200001157600080fd5b5060405162001d1238038062001d12833981810160405281019062000037919062000243565b82600090805190602001906200004f929190620000fe565b50816001908051906020019062000068929190620000fe565b508060038190555033600260006101000a81548173ffffffffffffffffffffffffffffffffffffffff021916908373ffffffffffffffffffffffffffffffffffffffff16021790555080600460003373ffffffffffffffffffffffffffffffffffffffff1673ffffffffffffffffffffffffffffffffffffffff1681526020019081526020016000208190555050505062000485565b8280546200010c906200037c565b90600052602060002090601f0160209004810192826200013057600085556200017c565b82601f106200014b57805160ff19168380011785556200017c565b828001600101855582156200017c579182015b828111156200017b5782518255916020019190600101906200015e565b5b5090506200018b91906200018f565b5090565b5b80821115620001aa57600081600090555060010162000190565b5090565b6000620001c5620001bf8462000306565b620002dd565b905082815260208101848484011115620001e457620001e36200044b565b5b620001f184828562000346565b509392505050565b600082601f83011262000211576200021062000446565b5b815162000223848260208601620001ae565b91505092915050565b6000815190506200023d816200046b565b92915050565b6000806000606084860312156200025f576200025e62000455565b5b600084015167ffffffffffffffff81111562000280576200027f62000450565b5b6200028e86828701620001f9565b935050602084015167ffffffffffffffff811115620002b257620002b162000450565b5b620002c086828701620001f9565b9250506040620002d3868287016200022c565b9150509250925092565b6000620002e9620002fc565b9050620002f78282620003b2565b919050565b6000604051905090565b600067ffffffffffffffff82111562000324576200032362000417565b5b6200032f826200045a565b9050602081019050919050565b6000819050919050565b60005b838110156200036657808201518184015260208101905062000349565b8381111562000376576000848401525b50505050565b600060028204905060018216806200039557607f821691505b60208210811415620003ac57620003ab620003e8565b5b50919050565b620003bd826200045a565b810181811067ffffffffffffffff82111715620003df57620003de62000417565b5b80604052505050565b7f4e487b7100000000000000000000000000000000000000000000000000000000600052602260045260246000fd5b7f4e487b7100000000000000000000000000000000000000000000000000000000600052604160045260246000fd5b600080fd5b600080fd5b600080fd5b600080fd5b6000601f19601f8301169050919050565b62000476816200033c565b81146200048257600080fd5b50565b61187d80620004956000396000f3fe6080604052600436106100a75760003560e01c8063a0712d6811610064578063a0712d68146101ba578063a3e67610146101e3578063a48217191461020e578063b292abf114610218578063cd0c589614610256578063eedc966a14610293576100a7565b806306fdde03146100ac5780633bd06f80146100d757806340932fc21461010057806368cdafe61461012957806395d89b41146101665780639dc29fac14610191575b600080fd5b3480156100b857600080fd5b506100c16102d0565b6040516100ce9190611375565b60405180910390f35b3480156100e357600080fd5b506100fe60048036038101906100f991906111ed565b61035e565b005b34801561010c57600080fd5b5061012760048036038101906101229190611111565b6105e0565b005b34801561013557600080fd5b50610150600480360381019061014b9190611180565b610816565b60405161015d919061132a565b60405180910390f35b34801561017257600080fd5b5061017b610954565b6040516101889190611375565b60405180910390f35b34801561019d57600080fd5b506101b860048036038101906101b39190611180565b6109e2565b005b3480156101c657600080fd5b506101e160048036038101906101dc91906111c0565b610b6b565b005b3480156101ef57600080fd5b506101f8610c6d565b604051610205919061130f565b60405180910390f35b610216610c93565b005b34801561022457600080fd5b5061023f600480360381019061023a91906110e4565b610deb565b60405161024d929190611345565b60405180910390f35b34801561026257600080fd5b5061027d600480360381019061027891906110e4565b610f13565b60405161028a91906113d7565b60405180910390f35b34801561029f57600080fd5b506102ba60048036038101906102b591906110e4565b610f34565b6040516102c791906113d7565b60405180910390f35b600080546102dd906115ea565b80601f0160208091040260200160405190810160405280929190818152602001828054610309906115ea565b80156103565780601f1061032b57610100808354040283529160200191610356565b820191906000526020600020905b81548152906001019060200180831161033957829003601f168201915b505050505081565b60006004811115610372576103716116ab565b5b600560003373ffffffffffffffffffffffffffffffffffffffff1673ffffffffffffffffffffffffffffffffffffffff16815260200190815260200160002060000160009054906101000a900460ff1660048111156103d4576103d36116ab565b5b14610414576040517f08c379a000000000000000000000000000000000000000000000000000000000815260040161040b90611397565b60405180910390fd5b6000600660008681526020019081526020016000209050848160000181905550338160010160006101000a81548173ffffffffffffffffffffffffffffffffffffffff021916908373ffffffffffffffffffffffffffffffffffffffff160217905550338160020160006101000a81548173ffffffffffffffffffffffffffffffffffffffff021916908373ffffffffffffffffffffffffffffffffffffffff16021790555083816003016000600481106104d2576104d1611709565b5b018190555060008160070160006101000a81548160ff021916908360058111156104ff576104fe6116ab565b5b021790555081816008018190555060008160090160006101000a81548173ffffffffffffffffffffffffffffffffffffffff021916908373ffffffffffffffffffffffffffffffffffffffff160217905550600081600a0160006101000a81548173ffffffffffffffffffffffffffffffffffffffff021916908373ffffffffffffffffffffffffffffffffffffffff160217905550600081600b0160006101000a81548173ffffffffffffffffffffffffffffffffffffffff021916908373ffffffffffffffffffffffffffffffffffffffff1602179055505050505050565b6000600560008573ffffffffffffffffffffffffffffffffffffffff1673ffffffffffffffffffffffffffffffffffffffff1681526020019081526020016000206040518060600160405290816000820160009054906101000a900460ff166004811115610651576106506116ab565b5b6004811115610663576106626116ab565b5b8152602001600182018054610677906115ea565b80601f01602080910402602001604051908101604052809291908181526020018280546106a3906115ea565b80156106f05780601f106106c5576101008083540402835291602001916106f0565b820191906000526020600020905b8154815290600101906020018083116106d357829003601f168201915b505050505081526020016002820160009054906101000a900460ff1615151515815250509050828160000190600481111561072e5761072d6116ab565b5b90816004811115610742576107416116ab565b5b81525050818160200181905250600181604001901515908115158152505080600560008673ffffffffffffffffffffffffffffffffffffffff1673ffffffffffffffffffffffffffffffffffffffff16815260200190815260200160002060008201518160000160006101000a81548160ff021916908360048111156107cb576107ca6116ab565b5b021790555060208201518160010190805190602001906107ec929190610f7d565b5060408201518160020160006101000a81548160ff02191690831515021790555090505050505050565b600081600460003373ffffffffffffffffffffffffffffffffffffffff1673ffffffffffffffffffffffffffffffffffffffff16815260200190815260200160002054101561086457600080fd5b600073ffffffffffffffffffffffffffffffffffffffff168373ffffffffffffffffffffffffffffffffffffffff16141561089e57600080fd5b81600460003373ffffffffffffffffffffffffffffffffffffffff1673ffffffffffffffffffffffffffffffffffffffff16815260200190815260200160002060008282546108ed91906114eb565b9250508190555081600460008573ffffffffffffffffffffffffffffffffffffffff1673ffffffffffffffffffffffffffffffffffffffff16815260200190815260200160002060008282546109439190611464565b925050819055506001905092915050565b60018054610961906115ea565b80601f016020809104026020016040519081016040528092919081815260200182805461098d906115ea565b80156109da5780601f106109af576101008083540402835291602001916109da565b820191906000526020600020905b8154815290600101906020018083116109bd57829003601f168201915b505050505081565b600260009054906101000a900473ffffffffffffffffffffffffffffffffffffffff1673ffffffffffffffffffffffffffffffffffffffff163373ffffffffffffffffffffffffffffffffffffffff1614610a72576040517f08c379a0000000000000000000000000000000000000000000000000000000008152600401610a69906113b7565b60405180910390fd5b600073ffffffffffffffffffffffffffffffffffffffff168273ffffffffffffffffffffffffffffffffffffffff161415610aac57600080fd5b600460008373ffffffffffffffffffffffffffffffffffffffff1673ffffffffffffffffffffffffffffffffffffffff16815260200190815260200160002054811115610af857600080fd5b8060036000828254610b0a91906114eb565b9250508190555080600460008473ffffffffffffffffffffffffffffffffffffffff1673ffffffffffffffffffffffffffffffffffffffff1681526020019081526020016000206000828254610b6091906114eb565b925050819055505050565b600260009054906101000a900473ffffffffffffffffffffffffffffffffffffffff1673ffffffffffffffffffffffffffffffffffffffff163373ffffffffffffffffffffffffffffffffffffffff1614610bfb576040517f08c379a0000000000000000000000000000000000000000000000000000000008152600401610bf2906113b7565b60405180910390fd5b8060036000828254610c0d9190611464565b9250508190555080600460003373ffffffffffffffffffffffffffffffffffffffff1673ffffffffffffffffffffffffffffffffffffffff1681526020019081526020016000206000828254610c639190611464565b9250508190555050565b600260009054906101000a900473ffffffffffffffffffffffffffffffffffffffff1681565b6000606434610ca291906114ba565b905060003411610cb157600080fd5b600260009054906101000a900473ffffffffffffffffffffffffffffffffffffffff1673ffffffffffffffffffffffffffffffffffffffff166108fc349081150290604051600060405180830381858888f19350505050158015610d19573d6000803e3d6000fd5b508060046000600260009054906101000a900473ffffffffffffffffffffffffffffffffffffffff1673ffffffffffffffffffffffffffffffffffffffff1673ffffffffffffffffffffffffffffffffffffffff1681526020019081526020016000206000828254610d8b91906114eb565b9250508190555080600460003373ffffffffffffffffffffffffffffffffffffffff1673ffffffffffffffffffffffffffffffffffffffff1681526020019081526020016000206000828254610de19190611464565b9250508190555050565b60006060600560008473ffffffffffffffffffffffffffffffffffffffff1673ffffffffffffffffffffffffffffffffffffffff16815260200190815260200160002060000160009054906101000a900460ff169150600560008473ffffffffffffffffffffffffffffffffffffffff1673ffffffffffffffffffffffffffffffffffffffff1681526020019081526020016000206001018054610e8e906115ea565b80601f0160208091040260200160405190810160405280929190818152602001828054610eba906115ea565b8015610f075780601f10610edc57610100808354040283529160200191610f07565b820191906000526020600020905b815481529060010190602001808311610eea57829003601f168201915b50505050509050915091565b60008173ffffffffffffffffffffffffffffffffffffffff16319050919050565b6000600460008373ffffffffffffffffffffffffffffffffffffffff1673ffffffffffffffffffffffffffffffffffffffff168152602001908152602001600020549050919050565b828054610f89906115ea565b90600052602060002090601f016020900481019282610fab5760008555610ff2565b82601f10610fc457805160ff1916838001178555610ff2565b82800160010185558215610ff2579182015b82811115610ff1578251825591602001919060010190610fd6565b5b509050610fff9190611003565b5090565b5b8082111561101c576000816000905550600101611004565b5090565b600061103361102e84611417565b6113f2565b90508281526020810184848401111561104f5761104e61176c565b5b61105a8482856115a8565b509392505050565b600081359050611071816117f2565b92915050565b60008135905061108681611809565b92915050565b60008135905061109b81611819565b92915050565b600082601f8301126110b6576110b5611767565b5b81356110c6848260208601611020565b91505092915050565b6000813590506110de81611830565b92915050565b6000602082840312156110fa576110f9611776565b5b600061110884828501611062565b91505092915050565b60008060006060848603121561112a57611129611776565b5b600061113886828701611062565b935050602061114986828701611077565b925050604084013567ffffffffffffffff81111561116a57611169611771565b5b611176868287016110a1565b9150509250925092565b6000806040838503121561119757611196611776565b5b60006111a585828601611062565b92505060206111b6858286016110cf565b9150509250929050565b6000602082840312156111d6576111d5611776565b5b60006111e4848285016110cf565b91505092915050565b6000806000806080858703121561120757611206611776565b5b6000611215878288016110cf565b9450506020611226878288016110cf565b93505060406112378782880161108c565b9250506060611248878288016110cf565b91505092959194509250565b61125d81611531565b82525050565b61126c81611543565b82525050565b61127b81611596565b82525050565b600061128c82611448565b6112968185611453565b93506112a68185602086016115b7565b6112af8161177b565b840191505092915050565b60006112c7601983611453565b91506112d28261178c565b602082019050919050565b60006112ea601e83611453565b91506112f5826117b5565b602082019050919050565b6113098161158c565b82525050565b60006020820190506113246000830184611254565b92915050565b600060208201905061133f6000830184611263565b92915050565b600060408201905061135a6000830185611272565b818103602083015261136c8184611281565b90509392505050565b6000602082019050818103600083015261138f8184611281565b905092915050565b600060208201905081810360008301526113b0816112ba565b9050919050565b600060208201905081810360008301526113d0816112dd565b9050919050565b60006020820190506113ec6000830184611300565b92915050565b60006113fc61140d565b9050611408828261161c565b919050565b6000604051905090565b600067ffffffffffffffff82111561143257611431611738565b5b61143b8261177b565b9050602081019050919050565b600081519050919050565b600082825260208201905092915050565b600061146f8261158c565b915061147a8361158c565b9250827fffffffffffffffffffffffffffffffffffffffffffffffffffffffffffffffff038211156114af576114ae61164d565b5b828201905092915050565b60006114c58261158c565b91506114d08361158c565b9250826114e0576114df61167c565b5b828204905092915050565b60006114f68261158c565b91506115018361158c565b9250828210156115145761151361164d565b5b828203905092915050565b600061152a8261156c565b9050919050565b600061153c8261156c565b9050919050565b60008115159050919050565b600081905061155d826117de565b919050565b6000819050919050565b600073ffffffffffffffffffffffffffffffffffffffff82169050919050565b6000819050919050565b60006115a18261154f565b9050919050565b82818337600083830152505050565b60005b838110156115d55780820151818401526020810190506115ba565b838111156115e4576000848401525b50505050565b6000600282049050600182168061160257607f821691505b60208210811415611616576116156116da565b5b50919050565b6116258261177b565b810181811067ffffffffffffffff8211171561164457611643611738565b5b80604052505050565b7f4e487b7100000000000000000000000000000000000000000000000000000000600052601160045260246000fd5b7f4e487b7100000000000000000000000000000000000000000000000000000000600052601260045260246000fd5b7f4e487b7100000000000000000000000000000000000000000000000000000000600052602160045260246000fd5b7f4e487b7100000000000000000000000000000000000000000000000000000000600052602260045260246000fd5b7f4e487b7100000000000000000000000000000000000000000000000000000000600052603260045260246000fd5b7f4e487b7100000000000000000000000000000000000000000000000000000000600052604160045260246000fd5b600080fd5b600080fd5b600080fd5b600080fd5b6000601f19601f8301169050919050565b7f63616c6c6572206973206e6f7420612070726f64756365722e00000000000000600082015250565b7f63616c6c6572206973206e6f742074686520746f6b656e206f776e65722e0000600082015250565b600581106117ef576117ee6116ab565b5b50565b6117fb8161151f565b811461180657600080fd5b50565b6005811061181657600080fd5b50565b61182281611562565b811461182d57600080fd5b50565b6118398161158c565b811461184457600080fd5b5056fea26469706673582212208535b752bd850ae8d8b0cd8a7a82b5b2d8985ca3de6d7a41840e5b58365f5ae864736f6c63430008070033",
					"opcodes": "PUSH1 0x80 PUSH1 0x40 MSTORE CALLVALUE DUP1 ISZERO PUSH3 0x11 JUMPI PUSH1 0x0 DUP1 REVERT JUMPDEST POP PUSH1 0x40 MLOAD PUSH3 0x1D12 CODESIZE SUB DUP1 PUSH3 0x1D12 DUP4 CODECOPY DUP2 DUP2 ADD PUSH1 0x40 MSTORE DUP2 ADD SWAP1 PUSH3 0x37 SWAP2 SWAP1 PUSH3 0x243 JUMP JUMPDEST DUP3 PUSH1 0x0 SWAP1 DUP1 MLOAD SWAP1 PUSH1 0x20 ADD SWAP1 PUSH3 0x4F SWAP3 SWAP2 SWAP1 PUSH3 0xFE JUMP JUMPDEST POP DUP2 PUSH1 0x1 SWAP1 DUP1 MLOAD SWAP1 PUSH1 0x20 ADD SWAP1 PUSH3 0x68 SWAP3 SWAP2 SWAP1 PUSH3 0xFE JUMP JUMPDEST POP DUP1 PUSH1 0x3 DUP2 SWAP1 SSTORE POP CALLER PUSH1 0x2 PUSH1 0x0 PUSH2 0x100 EXP DUP2 SLOAD DUP2 PUSH20 0xFFFFFFFFFFFFFFFFFFFFFFFFFFFFFFFFFFFFFFFF MUL NOT AND SWAP1 DUP4 PUSH20 0xFFFFFFFFFFFFFFFFFFFFFFFFFFFFFFFFFFFFFFFF AND MUL OR SWAP1 SSTORE POP DUP1 PUSH1 0x4 PUSH1 0x0 CALLER PUSH20 0xFFFFFFFFFFFFFFFFFFFFFFFFFFFFFFFFFFFFFFFF AND PUSH20 0xFFFFFFFFFFFFFFFFFFFFFFFFFFFFFFFFFFFFFFFF AND DUP2 MSTORE PUSH1 0x20 ADD SWAP1 DUP2 MSTORE PUSH1 0x20 ADD PUSH1 0x0 KECCAK256 DUP2 SWAP1 SSTORE POP POP POP POP PUSH3 0x485 JUMP JUMPDEST DUP3 DUP1 SLOAD PUSH3 0x10C SWAP1 PUSH3 0x37C JUMP JUMPDEST SWAP1 PUSH1 0x0 MSTORE PUSH1 0x20 PUSH1 0x0 KECCAK256 SWAP1 PUSH1 0x1F ADD PUSH1 0x20 SWAP1 DIV DUP2 ADD SWAP3 DUP3 PUSH3 0x130 JUMPI PUSH1 0x0 DUP6 SSTORE PUSH3 0x17C JUMP JUMPDEST DUP3 PUSH1 0x1F LT PUSH3 0x14B JUMPI DUP1 MLOAD PUSH1 0xFF NOT AND DUP4 DUP1 ADD OR DUP6 SSTORE PUSH3 0x17C JUMP JUMPDEST DUP3 DUP1 ADD PUSH1 0x1 ADD DUP6 SSTORE DUP3 ISZERO PUSH3 0x17C JUMPI SWAP2 DUP3 ADD JUMPDEST DUP3 DUP2 GT ISZERO PUSH3 0x17B JUMPI DUP3 MLOAD DUP3 SSTORE SWAP2 PUSH1 0x20 ADD SWAP2 SWAP1 PUSH1 0x1 ADD SWAP1 PUSH3 0x15E JUMP JUMPDEST JUMPDEST POP SWAP1 POP PUSH3 0x18B SWAP2 SWAP1 PUSH3 0x18F JUMP JUMPDEST POP SWAP1 JUMP JUMPDEST JUMPDEST DUP1 DUP3 GT ISZERO PUSH3 0x1AA JUMPI PUSH1 0x0 DUP2 PUSH1 0x0 SWAP1 SSTORE POP PUSH1 0x1 ADD PUSH3 0x190 JUMP JUMPDEST POP SWAP1 JUMP JUMPDEST PUSH1 0x0 PUSH3 0x1C5 PUSH3 0x1BF DUP5 PUSH3 0x306 JUMP JUMPDEST PUSH3 0x2DD JUMP JUMPDEST SWAP1 POP DUP3 DUP2 MSTORE PUSH1 0x20 DUP2 ADD DUP5 DUP5 DUP5 ADD GT ISZERO PUSH3 0x1E4 JUMPI PUSH3 0x1E3 PUSH3 0x44B JUMP JUMPDEST JUMPDEST PUSH3 0x1F1 DUP5 DUP3 DUP6 PUSH3 0x346 JUMP JUMPDEST POP SWAP4 SWAP3 POP POP POP JUMP JUMPDEST PUSH1 0x0 DUP3 PUSH1 0x1F DUP4 ADD SLT PUSH3 0x211 JUMPI PUSH3 0x210 PUSH3 0x446 JUMP JUMPDEST JUMPDEST DUP2 MLOAD PUSH3 0x223 DUP5 DUP3 PUSH1 0x20 DUP7 ADD PUSH3 0x1AE JUMP JUMPDEST SWAP2 POP POP SWAP3 SWAP2 POP POP JUMP JUMPDEST PUSH1 0x0 DUP2 MLOAD SWAP1 POP PUSH3 0x23D DUP2 PUSH3 0x46B JUMP JUMPDEST SWAP3 SWAP2 POP POP JUMP JUMPDEST PUSH1 0x0 DUP1 PUSH1 0x0 PUSH1 0x60 DUP5 DUP7 SUB SLT ISZERO PUSH3 0x25F JUMPI PUSH3 0x25E PUSH3 0x455 JUMP JUMPDEST JUMPDEST PUSH1 0x0 DUP5 ADD MLOAD PUSH8 0xFFFFFFFFFFFFFFFF DUP2 GT ISZERO PUSH3 0x280 JUMPI PUSH3 0x27F PUSH3 0x450 JUMP JUMPDEST JUMPDEST PUSH3 0x28E DUP7 DUP3 DUP8 ADD PUSH3 0x1F9 JUMP JUMPDEST SWAP4 POP POP PUSH1 0x20 DUP5 ADD MLOAD PUSH8 0xFFFFFFFFFFFFFFFF DUP2 GT ISZERO PUSH3 0x2B2 JUMPI PUSH3 0x2B1 PUSH3 0x450 JUMP JUMPDEST JUMPDEST PUSH3 0x2C0 DUP7 DUP3 DUP8 ADD PUSH3 0x1F9 JUMP JUMPDEST SWAP3 POP POP PUSH1 0x40 PUSH3 0x2D3 DUP7 DUP3 DUP8 ADD PUSH3 0x22C JUMP JUMPDEST SWAP2 POP POP SWAP3 POP SWAP3 POP SWAP3 JUMP JUMPDEST PUSH1 0x0 PUSH3 0x2E9 PUSH3 0x2FC JUMP JUMPDEST SWAP1 POP PUSH3 0x2F7 DUP3 DUP3 PUSH3 0x3B2 JUMP JUMPDEST SWAP2 SWAP1 POP JUMP JUMPDEST PUSH1 0x0 PUSH1 0x40 MLOAD SWAP1 POP SWAP1 JUMP JUMPDEST PUSH1 0x0 PUSH8 0xFFFFFFFFFFFFFFFF DUP3 GT ISZERO PUSH3 0x324 JUMPI PUSH3 0x323 PUSH3 0x417 JUMP JUMPDEST JUMPDEST PUSH3 0x32F DUP3 PUSH3 0x45A JUMP JUMPDEST SWAP1 POP PUSH1 0x20 DUP2 ADD SWAP1 POP SWAP2 SWAP1 POP JUMP JUMPDEST PUSH1 0x0 DUP2 SWAP1 POP SWAP2 SWAP1 POP JUMP JUMPDEST PUSH1 0x0 JUMPDEST DUP4 DUP2 LT ISZERO PUSH3 0x366 JUMPI DUP1 DUP3 ADD MLOAD DUP2 DUP5 ADD MSTORE PUSH1 0x20 DUP2 ADD SWAP1 POP PUSH3 0x349 JUMP JUMPDEST DUP4 DUP2 GT ISZERO PUSH3 0x376 JUMPI PUSH1 0x0 DUP5 DUP5 ADD MSTORE JUMPDEST POP POP POP POP JUMP JUMPDEST PUSH1 0x0 PUSH1 0x2 DUP3 DIV SWAP1 POP PUSH1 0x1 DUP3 AND DUP1 PUSH3 0x395 JUMPI PUSH1 0x7F DUP3 AND SWAP2 POP JUMPDEST PUSH1 0x20 DUP3 LT DUP2 EQ ISZERO PUSH3 0x3AC JUMPI PUSH3 0x3AB PUSH3 0x3E8 JUMP JUMPDEST JUMPDEST POP SWAP2 SWAP1 POP JUMP JUMPDEST PUSH3 0x3BD DUP3 PUSH3 0x45A JUMP JUMPDEST DUP2 ADD DUP2 DUP2 LT PUSH8 0xFFFFFFFFFFFFFFFF DUP3 GT OR ISZERO PUSH3 0x3DF JUMPI PUSH3 0x3DE PUSH3 0x417 JUMP JUMPDEST JUMPDEST DUP1 PUSH1 0x40 MSTORE POP POP POP JUMP JUMPDEST PUSH32 0x4E487B7100000000000000000000000000000000000000000000000000000000 PUSH1 0x0 MSTORE PUSH1 0x22 PUSH1 0x4 MSTORE PUSH1 0x24 PUSH1 0x0 REVERT JUMPDEST PUSH32 0x4E487B7100000000000000000000000000000000000000000000000000000000 PUSH1 0x0 MSTORE PUSH1 0x41 PUSH1 0x4 MSTORE PUSH1 0x24 PUSH1 0x0 REVERT JUMPDEST PUSH1 0x0 DUP1 REVERT JUMPDEST PUSH1 0x0 DUP1 REVERT JUMPDEST PUSH1 0x0 DUP1 REVERT JUMPDEST PUSH1 0x0 DUP1 REVERT JUMPDEST PUSH1 0x0 PUSH1 0x1F NOT PUSH1 0x1F DUP4 ADD AND SWAP1 POP SWAP2 SWAP1 POP JUMP JUMPDEST PUSH3 0x476 DUP2 PUSH3 0x33C JUMP JUMPDEST DUP2 EQ PUSH3 0x482 JUMPI PUSH1 0x0 DUP1 REVERT JUMPDEST POP JUMP JUMPDEST PUSH2 0x187D DUP1 PUSH3 0x495 PUSH1 0x0 CODECOPY PUSH1 0x0 RETURN INVALID PUSH1 0x80 PUSH1 0x40 MSTORE PUSH1 0x4 CALLDATASIZE LT PUSH2 0xA7 JUMPI PUSH1 0x0 CALLDATALOAD PUSH1 0xE0 SHR DUP1 PUSH4 0xA0712D68 GT PUSH2 0x64 JUMPI DUP1 PUSH4 0xA0712D68 EQ PUSH2 0x1BA JUMPI DUP1 PUSH4 0xA3E67610 EQ PUSH2 0x1E3 JUMPI DUP1 PUSH4 0xA4821719 EQ PUSH2 0x20E JUMPI DUP1 PUSH4 0xB292ABF1 EQ PUSH2 0x218 JUMPI DUP1 PUSH4 0xCD0C5896 EQ PUSH2 0x256 JUMPI DUP1 PUSH4 0xEEDC966A EQ PUSH2 0x293 JUMPI PUSH2 0xA7 JUMP JUMPDEST DUP1 PUSH4 0x6FDDE03 EQ PUSH2 0xAC JUMPI DUP1 PUSH4 0x3BD06F80 EQ PUSH2 0xD7 JUMPI DUP1 PUSH4 0x40932FC2 EQ PUSH2 0x100 JUMPI DUP1 PUSH4 0x68CDAFE6 EQ PUSH2 0x129 JUMPI DUP1 PUSH4 0x95D89B41 EQ PUSH2 0x166 JUMPI DUP1 PUSH4 0x9DC29FAC EQ PUSH2 0x191 JUMPI JUMPDEST PUSH1 0x0 DUP1 REVERT JUMPDEST CALLVALUE DUP1 ISZERO PUSH2 0xB8 JUMPI PUSH1 0x0 DUP1 REVERT JUMPDEST POP PUSH2 0xC1 PUSH2 0x2D0 JUMP JUMPDEST PUSH1 0x40 MLOAD PUSH2 0xCE SWAP2 SWAP1 PUSH2 0x1375 JUMP JUMPDEST PUSH1 0x40 MLOAD DUP1 SWAP2 SUB SWAP1 RETURN JUMPDEST CALLVALUE DUP1 ISZERO PUSH2 0xE3 JUMPI PUSH1 0x0 DUP1 REVERT JUMPDEST POP PUSH2 0xFE PUSH1 0x4 DUP1 CALLDATASIZE SUB DUP2 ADD SWAP1 PUSH2 0xF9 SWAP2 SWAP1 PUSH2 0x11ED JUMP JUMPDEST PUSH2 0x35E JUMP JUMPDEST STOP JUMPDEST CALLVALUE DUP1 ISZERO PUSH2 0x10C JUMPI PUSH1 0x0 DUP1 REVERT JUMPDEST POP PUSH2 0x127 PUSH1 0x4 DUP1 CALLDATASIZE SUB DUP2 ADD SWAP1 PUSH2 0x122 SWAP2 SWAP1 PUSH2 0x1111 JUMP JUMPDEST PUSH2 0x5E0 JUMP JUMPDEST STOP JUMPDEST CALLVALUE DUP1 ISZERO PUSH2 0x135 JUMPI PUSH1 0x0 DUP1 REVERT JUMPDEST POP PUSH2 0x150 PUSH1 0x4 DUP1 CALLDATASIZE SUB DUP2 ADD SWAP1 PUSH2 0x14B SWAP2 SWAP1 PUSH2 0x1180 JUMP JUMPDEST PUSH2 0x816 JUMP JUMPDEST PUSH1 0x40 MLOAD PUSH2 0x15D SWAP2 SWAP1 PUSH2 0x132A JUMP JUMPDEST PUSH1 0x40 MLOAD DUP1 SWAP2 SUB SWAP1 RETURN JUMPDEST CALLVALUE DUP1 ISZERO PUSH2 0x172 JUMPI PUSH1 0x0 DUP1 REVERT JUMPDEST POP PUSH2 0x17B PUSH2 0x954 JUMP JUMPDEST PUSH1 0x40 MLOAD PUSH2 0x188 SWAP2 SWAP1 PUSH2 0x1375 JUMP JUMPDEST PUSH1 0x40 MLOAD DUP1 SWAP2 SUB SWAP1 RETURN JUMPDEST CALLVALUE DUP1 ISZERO PUSH2 0x19D JUMPI PUSH1 0x0 DUP1 REVERT JUMPDEST POP PUSH2 0x1B8 PUSH1 0x4 DUP1 CALLDATASIZE SUB DUP2 ADD SWAP1 PUSH2 0x1B3 SWAP2 SWAP1 PUSH2 0x1180 JUMP JUMPDEST PUSH2 0x9E2 JUMP JUMPDEST STOP JUMPDEST CALLVALUE DUP1 ISZERO PUSH2 0x1C6 JUMPI PUSH1 0x0 DUP1 REVERT JUMPDEST POP PUSH2 0x1E1 PUSH1 0x4 DUP1 CALLDATASIZE SUB DUP2 ADD SWAP1 PUSH2 0x1DC SWAP2 SWAP1 PUSH2 0x11C0 JUMP JUMPDEST PUSH2 0xB6B JUMP JUMPDEST STOP JUMPDEST CALLVALUE DUP1 ISZERO PUSH2 0x1EF JUMPI PUSH1 0x0 DUP1 REVERT JUMPDEST POP PUSH2 0x1F8 PUSH2 0xC6D JUMP JUMPDEST PUSH1 0x40 MLOAD PUSH2 0x205 SWAP2 SWAP1 PUSH2 0x130F JUMP JUMPDEST PUSH1 0x40 MLOAD DUP1 SWAP2 SUB SWAP1 RETURN JUMPDEST PUSH2 0x216 PUSH2 0xC93 JUMP JUMPDEST STOP JUMPDEST CALLVALUE DUP1 ISZERO PUSH2 0x224 JUMPI PUSH1 0x0 DUP1 REVERT JUMPDEST POP PUSH2 0x23F PUSH1 0x4 DUP1 CALLDATASIZE SUB DUP2 ADD SWAP1 PUSH2 0x23A SWAP2 SWAP1 PUSH2 0x10E4 JUMP JUMPDEST PUSH2 0xDEB JUMP JUMPDEST PUSH1 0x40 MLOAD PUSH2 0x24D SWAP3 SWAP2 SWAP1 PUSH2 0x1345 JUMP JUMPDEST PUSH1 0x40 MLOAD DUP1 SWAP2 SUB SWAP1 RETURN JUMPDEST CALLVALUE DUP1 ISZERO PUSH2 0x262 JUMPI PUSH1 0x0 DUP1 REVERT JUMPDEST POP PUSH2 0x27D PUSH1 0x4 DUP1 CALLDATASIZE SUB DUP2 ADD SWAP1 PUSH2 0x278 SWAP2 SWAP1 PUSH2 0x10E4 JUMP JUMPDEST PUSH2 0xF13 JUMP JUMPDEST PUSH1 0x40 MLOAD PUSH2 0x28A SWAP2 SWAP1 PUSH2 0x13D7 JUMP JUMPDEST PUSH1 0x40 MLOAD DUP1 SWAP2 SUB SWAP1 RETURN JUMPDEST CALLVALUE DUP1 ISZERO PUSH2 0x29F JUMPI PUSH1 0x0 DUP1 REVERT JUMPDEST POP PUSH2 0x2BA PUSH1 0x4 DUP1 CALLDATASIZE SUB DUP2 ADD SWAP1 PUSH2 0x2B5 SWAP2 SWAP1 PUSH2 0x10E4 JUMP JUMPDEST PUSH2 0xF34 JUMP JUMPDEST PUSH1 0x40 MLOAD PUSH2 0x2C7 SWAP2 SWAP1 PUSH2 0x13D7 JUMP JUMPDEST PUSH1 0x40 MLOAD DUP1 SWAP2 SUB SWAP1 RETURN JUMPDEST PUSH1 0x0 DUP1 SLOAD PUSH2 0x2DD SWAP1 PUSH2 0x15EA JUMP JUMPDEST DUP1 PUSH1 0x1F ADD PUSH1 0x20 DUP1 SWAP2 DIV MUL PUSH1 0x20 ADD PUSH1 0x40 MLOAD SWAP1 DUP2 ADD PUSH1 0x40 MSTORE DUP1 SWAP3 SWAP2 SWAP1 DUP2 DUP2 MSTORE PUSH1 0x20 ADD DUP3 DUP1 SLOAD PUSH2 0x309 SWAP1 PUSH2 0x15EA JUMP JUMPDEST DUP1 ISZERO PUSH2 0x356 JUMPI DUP1 PUSH1 0x1F LT PUSH2 0x32B JUMPI PUSH2 0x100 DUP1 DUP4 SLOAD DIV MUL DUP4 MSTORE SWAP2 PUSH1 0x20 ADD SWAP2 PUSH2 0x356 JUMP JUMPDEST DUP3 ADD SWAP2 SWAP1 PUSH1 0x0 MSTORE PUSH1 0x20 PUSH1 0x0 KECCAK256 SWAP1 JUMPDEST DUP2 SLOAD DUP2 MSTORE SWAP1 PUSH1 0x1 ADD SWAP1 PUSH1 0x20 ADD DUP1 DUP4 GT PUSH2 0x339 JUMPI DUP3 SWAP1 SUB PUSH1 0x1F AND DUP3 ADD SWAP2 JUMPDEST POP POP POP POP POP DUP2 JUMP JUMPDEST PUSH1 0x0 PUSH1 0x4 DUP2 GT ISZERO PUSH2 0x372 JUMPI PUSH2 0x371 PUSH2 0x16AB JUMP JUMPDEST JUMPDEST PUSH1 0x5 PUSH1 0x0 CALLER PUSH20 0xFFFFFFFFFFFFFFFFFFFFFFFFFFFFFFFFFFFFFFFF AND PUSH20 0xFFFFFFFFFFFFFFFFFFFFFFFFFFFFFFFFFFFFFFFF AND DUP2 MSTORE PUSH1 0x20 ADD SWAP1 DUP2 MSTORE PUSH1 0x20 ADD PUSH1 0x0 KECCAK256 PUSH1 0x0 ADD PUSH1 0x0 SWAP1 SLOAD SWAP1 PUSH2 0x100 EXP SWAP1 DIV PUSH1 0xFF AND PUSH1 0x4 DUP2 GT ISZERO PUSH2 0x3D4 JUMPI PUSH2 0x3D3 PUSH2 0x16AB JUMP JUMPDEST JUMPDEST EQ PUSH2 0x414 JUMPI PUSH1 0x40 MLOAD PUSH32 0x8C379A000000000000000000000000000000000000000000000000000000000 DUP2 MSTORE PUSH1 0x4 ADD PUSH2 0x40B SWAP1 PUSH2 0x1397 JUMP JUMPDEST PUSH1 0x40 MLOAD DUP1 SWAP2 SUB SWAP1 REVERT JUMPDEST PUSH1 0x0 PUSH1 0x6 PUSH1 0x0 DUP7 DUP2 MSTORE PUSH1 0x20 ADD SWAP1 DUP2 MSTORE PUSH1 0x20 ADD PUSH1 0x0 KECCAK256 SWAP1 POP DUP5 DUP2 PUSH1 0x0 ADD DUP2 SWAP1 SSTORE POP CALLER DUP2 PUSH1 0x1 ADD PUSH1 0x0 PUSH2 0x100 EXP DUP2 SLOAD DUP2 PUSH20 0xFFFFFFFFFFFFFFFFFFFFFFFFFFFFFFFFFFFFFFFF MUL NOT AND SWAP1 DUP4 PUSH20 0xFFFFFFFFFFFFFFFFFFFFFFFFFFFFFFFFFFFFFFFF AND MUL OR SWAP1 SSTORE POP CALLER DUP2 PUSH1 0x2 ADD PUSH1 0x0 PUSH2 0x100 EXP DUP2 SLOAD DUP2 PUSH20 0xFFFFFFFFFFFFFFFFFFFFFFFFFFFFFFFFFFFFFFFF MUL NOT AND SWAP1 DUP4 PUSH20 0xFFFFFFFFFFFFFFFFFFFFFFFFFFFFFFFFFFFFFFFF AND MUL OR SWAP1 SSTORE POP DUP4 DUP2 PUSH1 0x3 ADD PUSH1 0x0 PUSH1 0x4 DUP2 LT PUSH2 0x4D2 JUMPI PUSH2 0x4D1 PUSH2 0x1709 JUMP JUMPDEST JUMPDEST ADD DUP2 SWAP1 SSTORE POP PUSH1 0x0 DUP2 PUSH1 0x7 ADD PUSH1 0x0 PUSH2 0x100 EXP DUP2 SLOAD DUP2 PUSH1 0xFF MUL NOT AND SWAP1 DUP4 PUSH1 0x5 DUP2 GT ISZERO PUSH2 0x4FF JUMPI PUSH2 0x4FE PUSH2 0x16AB JUMP JUMPDEST JUMPDEST MUL OR SWAP1 SSTORE POP DUP2 DUP2 PUSH1 0x8 ADD DUP2 SWAP1 SSTORE POP PUSH1 0x0 DUP2 PUSH1 0x9 ADD PUSH1 0x0 PUSH2 0x100 EXP DUP2 SLOAD DUP2 PUSH20 0xFFFFFFFFFFFFFFFFFFFFFFFFFFFFFFFFFFFFFFFF MUL NOT AND SWAP1 DUP4 PUSH20 0xFFFFFFFFFFFFFFFFFFFFFFFFFFFFFFFFFFFFFFFF AND MUL OR SWAP1 SSTORE POP PUSH1 0x0 DUP2 PUSH1 0xA ADD PUSH1 0x0 PUSH2 0x100 EXP DUP2 SLOAD DUP2 PUSH20 0xFFFFFFFFFFFFFFFFFFFFFFFFFFFFFFFFFFFFFFFF MUL NOT AND SWAP1 DUP4 PUSH20 0xFFFFFFFFFFFFFFFFFFFFFFFFFFFFFFFFFFFFFFFF AND MUL OR SWAP1 SSTORE POP PUSH1 0x0 DUP2 PUSH1 0xB ADD PUSH1 0x0 PUSH2 0x100 EXP DUP2 SLOAD DUP2 PUSH20 0xFFFFFFFFFFFFFFFFFFFFFFFFFFFFFFFFFFFFFFFF MUL NOT AND SWAP1 DUP4 PUSH20 0xFFFFFFFFFFFFFFFFFFFFFFFFFFFFFFFFFFFFFFFF AND MUL OR SWAP1 SSTORE POP POP POP POP POP POP JUMP JUMPDEST PUSH1 0x0 PUSH1 0x5 PUSH1 0x0 DUP6 PUSH20 0xFFFFFFFFFFFFFFFFFFFFFFFFFFFFFFFFFFFFFFFF AND PUSH20 0xFFFFFFFFFFFFFFFFFFFFFFFFFFFFFFFFFFFFFFFF AND DUP2 MSTORE PUSH1 0x20 ADD SWAP1 DUP2 MSTORE PUSH1 0x20 ADD PUSH1 0x0 KECCAK256 PUSH1 0x40 MLOAD DUP1 PUSH1 0x60 ADD PUSH1 0x40 MSTORE SWAP1 DUP2 PUSH1 0x0 DUP3 ADD PUSH1 0x0 SWAP1 SLOAD SWAP1 PUSH2 0x100 EXP SWAP1 DIV PUSH1 0xFF AND PUSH1 0x4 DUP2 GT ISZERO PUSH2 0x651 JUMPI PUSH2 0x650 PUSH2 0x16AB JUMP JUMPDEST JUMPDEST PUSH1 0x4 DUP2 GT ISZERO PUSH2 0x663 JUMPI PUSH2 0x662 PUSH2 0x16AB JUMP JUMPDEST JUMPDEST DUP2 MSTORE PUSH1 0x20 ADD PUSH1 0x1 DUP3 ADD DUP1 SLOAD PUSH2 0x677 SWAP1 PUSH2 0x15EA JUMP JUMPDEST DUP1 PUSH1 0x1F ADD PUSH1 0x20 DUP1 SWAP2 DIV MUL PUSH1 0x20 ADD PUSH1 0x40 MLOAD SWAP1 DUP2 ADD PUSH1 0x40 MSTORE DUP1 SWAP3 SWAP2 SWAP1 DUP2 DUP2 MSTORE PUSH1 0x20 ADD DUP3 DUP1 SLOAD PUSH2 0x6A3 SWAP1 PUSH2 0x15EA JUMP JUMPDEST DUP1 ISZERO PUSH2 0x6F0 JUMPI DUP1 PUSH1 0x1F LT PUSH2 0x6C5 JUMPI PUSH2 0x100 DUP1 DUP4 SLOAD DIV MUL DUP4 MSTORE SWAP2 PUSH1 0x20 ADD SWAP2 PUSH2 0x6F0 JUMP JUMPDEST DUP3 ADD SWAP2 SWAP1 PUSH1 0x0 MSTORE PUSH1 0x20 PUSH1 0x0 KECCAK256 SWAP1 JUMPDEST DUP2 SLOAD DUP2 MSTORE SWAP1 PUSH1 0x1 ADD SWAP1 PUSH1 0x20 ADD DUP1 DUP4 GT PUSH2 0x6D3 JUMPI DUP3 SWAP1 SUB PUSH1 0x1F AND DUP3 ADD SWAP2 JUMPDEST POP POP POP POP POP DUP2 MSTORE PUSH1 0x20 ADD PUSH1 0x2 DUP3 ADD PUSH1 0x0 SWAP1 SLOAD SWAP1 PUSH2 0x100 EXP SWAP1 DIV PUSH1 0xFF AND ISZERO ISZERO ISZERO ISZERO DUP2 MSTORE POP POP SWAP1 POP DUP3 DUP2 PUSH1 0x0 ADD SWAP1 PUSH1 0x4 DUP2 GT ISZERO PUSH2 0x72E JUMPI PUSH2 0x72D PUSH2 0x16AB JUMP JUMPDEST JUMPDEST SWAP1 DUP2 PUSH1 0x4 DUP2 GT ISZERO PUSH2 0x742 JUMPI PUSH2 0x741 PUSH2 0x16AB JUMP JUMPDEST JUMPDEST DUP2 MSTORE POP POP DUP2 DUP2 PUSH1 0x20 ADD DUP2 SWAP1 MSTORE POP PUSH1 0x1 DUP2 PUSH1 0x40 ADD SWAP1 ISZERO ISZERO SWAP1 DUP2 ISZERO ISZERO DUP2 MSTORE POP POP DUP1 PUSH1 0x5 PUSH1 0x0 DUP7 PUSH20 0xFFFFFFFFFFFFFFFFFFFFFFFFFFFFFFFFFFFFFFFF AND PUSH20 0xFFFFFFFFFFFFFFFFFFFFFFFFFFFFFFFFFFFFFFFF AND DUP2 MSTORE PUSH1 0x20 ADD SWAP1 DUP2 MSTORE PUSH1 0x20 ADD PUSH1 0x0 KECCAK256 PUSH1 0x0 DUP3 ADD MLOAD DUP2 PUSH1 0x0 ADD PUSH1 0x0 PUSH2 0x100 EXP DUP2 SLOAD DUP2 PUSH1 0xFF MUL NOT AND SWAP1 DUP4 PUSH1 0x4 DUP2 GT ISZERO PUSH2 0x7CB JUMPI PUSH2 0x7CA PUSH2 0x16AB JUMP JUMPDEST JUMPDEST MUL OR SWAP1 SSTORE POP PUSH1 0x20 DUP3 ADD MLOAD DUP2 PUSH1 0x1 ADD SWAP1 DUP1 MLOAD SWAP1 PUSH1 0x20 ADD SWAP1 PUSH2 0x7EC SWAP3 SWAP2 SWAP1 PUSH2 0xF7D JUMP JUMPDEST POP PUSH1 0x40 DUP3 ADD MLOAD DUP2 PUSH1 0x2 ADD PUSH1 0x0 PUSH2 0x100 EXP DUP2 SLOAD DUP2 PUSH1 0xFF MUL NOT AND SWAP1 DUP4 ISZERO ISZERO MUL OR SWAP1 SSTORE POP SWAP1 POP POP POP POP POP POP JUMP JUMPDEST PUSH1 0x0 DUP2 PUSH1 0x4 PUSH1 0x0 CALLER PUSH20 0xFFFFFFFFFFFFFFFFFFFFFFFFFFFFFFFFFFFFFFFF AND PUSH20 0xFFFFFFFFFFFFFFFFFFFFFFFFFFFFFFFFFFFFFFFF AND DUP2 MSTORE PUSH1 0x20 ADD SWAP1 DUP2 MSTORE PUSH1 0x20 ADD PUSH1 0x0 KECCAK256 SLOAD LT ISZERO PUSH2 0x864 JUMPI PUSH1 0x0 DUP1 REVERT JUMPDEST PUSH1 0x0 PUSH20 0xFFFFFFFFFFFFFFFFFFFFFFFFFFFFFFFFFFFFFFFF AND DUP4 PUSH20 0xFFFFFFFFFFFFFFFFFFFFFFFFFFFFFFFFFFFFFFFF AND EQ ISZERO PUSH2 0x89E JUMPI PUSH1 0x0 DUP1 REVERT JUMPDEST DUP2 PUSH1 0x4 PUSH1 0x0 CALLER PUSH20 0xFFFFFFFFFFFFFFFFFFFFFFFFFFFFFFFFFFFFFFFF AND PUSH20 0xFFFFFFFFFFFFFFFFFFFFFFFFFFFFFFFFFFFFFFFF AND DUP2 MSTORE PUSH1 0x20 ADD SWAP1 DUP2 MSTORE PUSH1 0x20 ADD PUSH1 0x0 KECCAK256 PUSH1 0x0 DUP3 DUP3 SLOAD PUSH2 0x8ED SWAP2 SWAP1 PUSH2 0x14EB JUMP JUMPDEST SWAP3 POP POP DUP2 SWAP1 SSTORE POP DUP2 PUSH1 0x4 PUSH1 0x0 DUP6 PUSH20 0xFFFFFFFFFFFFFFFFFFFFFFFFFFFFFFFFFFFFFFFF AND PUSH20 0xFFFFFFFFFFFFFFFFFFFFFFFFFFFFFFFFFFFFFFFF AND DUP2 MSTORE PUSH1 0x20 ADD SWAP1 DUP2 MSTORE PUSH1 0x20 ADD PUSH1 0x0 KECCAK256 PUSH1 0x0 DUP3 DUP3 SLOAD PUSH2 0x943 SWAP2 SWAP1 PUSH2 0x1464 JUMP JUMPDEST SWAP3 POP POP DUP2 SWAP1 SSTORE POP PUSH1 0x1 SWAP1 POP SWAP3 SWAP2 POP POP JUMP JUMPDEST PUSH1 0x1 DUP1 SLOAD PUSH2 0x961 SWAP1 PUSH2 0x15EA JUMP JUMPDEST DUP1 PUSH1 0x1F ADD PUSH1 0x20 DUP1 SWAP2 DIV MUL PUSH1 0x20 ADD PUSH1 0x40 MLOAD SWAP1 DUP2 ADD PUSH1 0x40 MSTORE DUP1 SWAP3 SWAP2 SWAP1 DUP2 DUP2 MSTORE PUSH1 0x20 ADD DUP3 DUP1 SLOAD PUSH2 0x98D SWAP1 PUSH2 0x15EA JUMP JUMPDEST DUP1 ISZERO PUSH2 0x9DA JUMPI DUP1 PUSH1 0x1F LT PUSH2 0x9AF JUMPI PUSH2 0x100 DUP1 DUP4 SLOAD DIV MUL DUP4 MSTORE SWAP2 PUSH1 0x20 ADD SWAP2 PUSH2 0x9DA JUMP JUMPDEST DUP3 ADD SWAP2 SWAP1 PUSH1 0x0 MSTORE PUSH1 0x20 PUSH1 0x0 KECCAK256 SWAP1 JUMPDEST DUP2 SLOAD DUP2 MSTORE SWAP1 PUSH1 0x1 ADD SWAP1 PUSH1 0x20 ADD DUP1 DUP4 GT PUSH2 0x9BD JUMPI DUP3 SWAP1 SUB PUSH1 0x1F AND DUP3 ADD SWAP2 JUMPDEST POP POP POP POP POP DUP2 JUMP JUMPDEST PUSH1 0x2 PUSH1 0x0 SWAP1 SLOAD SWAP1 PUSH2 0x100 EXP SWAP1 DIV PUSH20 0xFFFFFFFFFFFFFFFFFFFFFFFFFFFFFFFFFFFFFFFF AND PUSH20 0xFFFFFFFFFFFFFFFFFFFFFFFFFFFFFFFFFFFFFFFF AND CALLER PUSH20 0xFFFFFFFFFFFFFFFFFFFFFFFFFFFFFFFFFFFFFFFF AND EQ PUSH2 0xA72 JUMPI PUSH1 0x40 MLOAD PUSH32 0x8C379A000000000000000000000000000000000000000000000000000000000 DUP2 MSTORE PUSH1 0x4 ADD PUSH2 0xA69 SWAP1 PUSH2 0x13B7 JUMP JUMPDEST PUSH1 0x40 MLOAD DUP1 SWAP2 SUB SWAP1 REVERT JUMPDEST PUSH1 0x0 PUSH20 0xFFFFFFFFFFFFFFFFFFFFFFFFFFFFFFFFFFFFFFFF AND DUP3 PUSH20 0xFFFFFFFFFFFFFFFFFFFFFFFFFFFFFFFFFFFFFFFF AND EQ ISZERO PUSH2 0xAAC JUMPI PUSH1 0x0 DUP1 REVERT JUMPDEST PUSH1 0x4 PUSH1 0x0 DUP4 PUSH20 0xFFFFFFFFFFFFFFFFFFFFFFFFFFFFFFFFFFFFFFFF AND PUSH20 0xFFFFFFFFFFFFFFFFFFFFFFFFFFFFFFFFFFFFFFFF AND DUP2 MSTORE PUSH1 0x20 ADD SWAP1 DUP2 MSTORE PUSH1 0x20 ADD PUSH1 0x0 KECCAK256 SLOAD DUP2 GT ISZERO PUSH2 0xAF8 JUMPI PUSH1 0x0 DUP1 REVERT JUMPDEST DUP1 PUSH1 0x3 PUSH1 0x0 DUP3 DUP3 SLOAD PUSH2 0xB0A SWAP2 SWAP1 PUSH2 0x14EB JUMP JUMPDEST SWAP3 POP POP DUP2 SWAP1 SSTORE POP DUP1 PUSH1 0x4 PUSH1 0x0 DUP5 PUSH20 0xFFFFFFFFFFFFFFFFFFFFFFFFFFFFFFFFFFFFFFFF AND PUSH20 0xFFFFFFFFFFFFFFFFFFFFFFFFFFFFFFFFFFFFFFFF AND DUP2 MSTORE PUSH1 0x20 ADD SWAP1 DUP2 MSTORE PUSH1 0x20 ADD PUSH1 0x0 KECCAK256 PUSH1 0x0 DUP3 DUP3 SLOAD PUSH2 0xB60 SWAP2 SWAP1 PUSH2 0x14EB JUMP JUMPDEST SWAP3 POP POP DUP2 SWAP1 SSTORE POP POP POP JUMP JUMPDEST PUSH1 0x2 PUSH1 0x0 SWAP1 SLOAD SWAP1 PUSH2 0x100 EXP SWAP1 DIV PUSH20 0xFFFFFFFFFFFFFFFFFFFFFFFFFFFFFFFFFFFFFFFF AND PUSH20 0xFFFFFFFFFFFFFFFFFFFFFFFFFFFFFFFFFFFFFFFF AND CALLER PUSH20 0xFFFFFFFFFFFFFFFFFFFFFFFFFFFFFFFFFFFFFFFF AND EQ PUSH2 0xBFB JUMPI PUSH1 0x40 MLOAD PUSH32 0x8C379A000000000000000000000000000000000000000000000000000000000 DUP2 MSTORE PUSH1 0x4 ADD PUSH2 0xBF2 SWAP1 PUSH2 0x13B7 JUMP JUMPDEST PUSH1 0x40 MLOAD DUP1 SWAP2 SUB SWAP1 REVERT JUMPDEST DUP1 PUSH1 0x3 PUSH1 0x0 DUP3 DUP3 SLOAD PUSH2 0xC0D SWAP2 SWAP1 PUSH2 0x1464 JUMP JUMPDEST SWAP3 POP POP DUP2 SWAP1 SSTORE POP DUP1 PUSH1 0x4 PUSH1 0x0 CALLER PUSH20 0xFFFFFFFFFFFFFFFFFFFFFFFFFFFFFFFFFFFFFFFF AND PUSH20 0xFFFFFFFFFFFFFFFFFFFFFFFFFFFFFFFFFFFFFFFF AND DUP2 MSTORE PUSH1 0x20 ADD SWAP1 DUP2 MSTORE PUSH1 0x20 ADD PUSH1 0x0 KECCAK256 PUSH1 0x0 DUP3 DUP3 SLOAD PUSH2 0xC63 SWAP2 SWAP1 PUSH2 0x1464 JUMP JUMPDEST SWAP3 POP POP DUP2 SWAP1 SSTORE POP POP JUMP JUMPDEST PUSH1 0x2 PUSH1 0x0 SWAP1 SLOAD SWAP1 PUSH2 0x100 EXP SWAP1 DIV PUSH20 0xFFFFFFFFFFFFFFFFFFFFFFFFFFFFFFFFFFFFFFFF AND DUP2 JUMP JUMPDEST PUSH1 0x0 PUSH1 0x64 CALLVALUE PUSH2 0xCA2 SWAP2 SWAP1 PUSH2 0x14BA JUMP JUMPDEST SWAP1 POP PUSH1 0x0 CALLVALUE GT PUSH2 0xCB1 JUMPI PUSH1 0x0 DUP1 REVERT JUMPDEST PUSH1 0x2 PUSH1 0x0 SWAP1 SLOAD SWAP1 PUSH2 0x100 EXP SWAP1 DIV PUSH20 0xFFFFFFFFFFFFFFFFFFFFFFFFFFFFFFFFFFFFFFFF AND PUSH20 0xFFFFFFFFFFFFFFFFFFFFFFFFFFFFFFFFFFFFFFFF AND PUSH2 0x8FC CALLVALUE SWAP1 DUP2 ISZERO MUL SWAP1 PUSH1 0x40 MLOAD PUSH1 0x0 PUSH1 0x40 MLOAD DUP1 DUP4 SUB DUP2 DUP6 DUP9 DUP9 CALL SWAP4 POP POP POP POP ISZERO DUP1 ISZERO PUSH2 0xD19 JUMPI RETURNDATASIZE PUSH1 0x0 DUP1 RETURNDATACOPY RETURNDATASIZE PUSH1 0x0 REVERT JUMPDEST POP DUP1 PUSH1 0x4 PUSH1 0x0 PUSH1 0x2 PUSH1 0x0 SWAP1 SLOAD SWAP1 PUSH2 0x100 EXP SWAP1 DIV PUSH20 0xFFFFFFFFFFFFFFFFFFFFFFFFFFFFFFFFFFFFFFFF AND PUSH20 0xFFFFFFFFFFFFFFFFFFFFFFFFFFFFFFFFFFFFFFFF AND PUSH20 0xFFFFFFFFFFFFFFFFFFFFFFFFFFFFFFFFFFFFFFFF AND DUP2 MSTORE PUSH1 0x20 ADD SWAP1 DUP2 MSTORE PUSH1 0x20 ADD PUSH1 0x0 KECCAK256 PUSH1 0x0 DUP3 DUP3 SLOAD PUSH2 0xD8B SWAP2 SWAP1 PUSH2 0x14EB JUMP JUMPDEST SWAP3 POP POP DUP2 SWAP1 SSTORE POP DUP1 PUSH1 0x4 PUSH1 0x0 CALLER PUSH20 0xFFFFFFFFFFFFFFFFFFFFFFFFFFFFFFFFFFFFFFFF AND PUSH20 0xFFFFFFFFFFFFFFFFFFFFFFFFFFFFFFFFFFFFFFFF AND DUP2 MSTORE PUSH1 0x20 ADD SWAP1 DUP2 MSTORE PUSH1 0x20 ADD PUSH1 0x0 KECCAK256 PUSH1 0x0 DUP3 DUP3 SLOAD PUSH2 0xDE1 SWAP2 SWAP1 PUSH2 0x1464 JUMP JUMPDEST SWAP3 POP POP DUP2 SWAP1 SSTORE POP POP JUMP JUMPDEST PUSH1 0x0 PUSH1 0x60 PUSH1 0x5 PUSH1 0x0 DUP5 PUSH20 0xFFFFFFFFFFFFFFFFFFFFFFFFFFFFFFFFFFFFFFFF AND PUSH20 0xFFFFFFFFFFFFFFFFFFFFFFFFFFFFFFFFFFFFFFFF AND DUP2 MSTORE PUSH1 0x20 ADD SWAP1 DUP2 MSTORE PUSH1 0x20 ADD PUSH1 0x0 KECCAK256 PUSH1 0x0 ADD PUSH1 0x0 SWAP1 SLOAD SWAP1 PUSH2 0x100 EXP SWAP1 DIV PUSH1 0xFF AND SWAP2 POP PUSH1 0x5 PUSH1 0x0 DUP5 PUSH20 0xFFFFFFFFFFFFFFFFFFFFFFFFFFFFFFFFFFFFFFFF AND PUSH20 0xFFFFFFFFFFFFFFFFFFFFFFFFFFFFFFFFFFFFFFFF AND DUP2 MSTORE PUSH1 0x20 ADD SWAP1 DUP2 MSTORE PUSH1 0x20 ADD PUSH1 0x0 KECCAK256 PUSH1 0x1 ADD DUP1 SLOAD PUSH2 0xE8E SWAP1 PUSH2 0x15EA JUMP JUMPDEST DUP1 PUSH1 0x1F ADD PUSH1 0x20 DUP1 SWAP2 DIV MUL PUSH1 0x20 ADD PUSH1 0x40 MLOAD SWAP1 DUP2 ADD PUSH1 0x40 MSTORE DUP1 SWAP3 SWAP2 SWAP1 DUP2 DUP2 MSTORE PUSH1 0x20 ADD DUP3 DUP1 SLOAD PUSH2 0xEBA SWAP1 PUSH2 0x15EA JUMP JUMPDEST DUP1 ISZERO PUSH2 0xF07 JUMPI DUP1 PUSH1 0x1F LT PUSH2 0xEDC JUMPI PUSH2 0x100 DUP1 DUP4 SLOAD DIV MUL DUP4 MSTORE SWAP2 PUSH1 0x20 ADD SWAP2 PUSH2 0xF07 JUMP JUMPDEST DUP3 ADD SWAP2 SWAP1 PUSH1 0x0 MSTORE PUSH1 0x20 PUSH1 0x0 KECCAK256 SWAP1 JUMPDEST DUP2 SLOAD DUP2 MSTORE SWAP1 PUSH1 0x1 ADD SWAP1 PUSH1 0x20 ADD DUP1 DUP4 GT PUSH2 0xEEA JUMPI DUP3 SWAP1 SUB PUSH1 0x1F AND DUP3 ADD SWAP2 JUMPDEST POP POP POP POP POP SWAP1 POP SWAP2 POP SWAP2 JUMP JUMPDEST PUSH1 0x0 DUP2 PUSH20 0xFFFFFFFFFFFFFFFFFFFFFFFFFFFFFFFFFFFFFFFF AND BALANCE SWAP1 POP SWAP2 SWAP1 POP JUMP JUMPDEST PUSH1 0x0 PUSH1 0x4 PUSH1 0x0 DUP4 PUSH20 0xFFFFFFFFFFFFFFFFFFFFFFFFFFFFFFFFFFFFFFFF AND PUSH20 0xFFFFFFFFFFFFFFFFFFFFFFFFFFFFFFFFFFFFFFFF AND DUP2 MSTORE PUSH1 0x20 ADD SWAP1 DUP2 MSTORE PUSH1 0x20 ADD PUSH1 0x0 KECCAK256 SLOAD SWAP1 POP SWAP2 SWAP1 POP JUMP JUMPDEST DUP3 DUP1 SLOAD PUSH2 0xF89 SWAP1 PUSH2 0x15EA JUMP JUMPDEST SWAP1 PUSH1 0x0 MSTORE PUSH1 0x20 PUSH1 0x0 KECCAK256 SWAP1 PUSH1 0x1F ADD PUSH1 0x20 SWAP1 DIV DUP2 ADD SWAP3 DUP3 PUSH2 0xFAB JUMPI PUSH1 0x0 DUP6 SSTORE PUSH2 0xFF2 JUMP JUMPDEST DUP3 PUSH1 0x1F LT PUSH2 0xFC4 JUMPI DUP1 MLOAD PUSH1 0xFF NOT AND DUP4 DUP1 ADD OR DUP6 SSTORE PUSH2 0xFF2 JUMP JUMPDEST DUP3 DUP1 ADD PUSH1 0x1 ADD DUP6 SSTORE DUP3 ISZERO PUSH2 0xFF2 JUMPI SWAP2 DUP3 ADD JUMPDEST DUP3 DUP2 GT ISZERO PUSH2 0xFF1 JUMPI DUP3 MLOAD DUP3 SSTORE SWAP2 PUSH1 0x20 ADD SWAP2 SWAP1 PUSH1 0x1 ADD SWAP1 PUSH2 0xFD6 JUMP JUMPDEST JUMPDEST POP SWAP1 POP PUSH2 0xFFF SWAP2 SWAP1 PUSH2 0x1003 JUMP JUMPDEST POP SWAP1 JUMP JUMPDEST JUMPDEST DUP1 DUP3 GT ISZERO PUSH2 0x101C JUMPI PUSH1 0x0 DUP2 PUSH1 0x0 SWAP1 SSTORE POP PUSH1 0x1 ADD PUSH2 0x1004 JUMP JUMPDEST POP SWAP1 JUMP JUMPDEST PUSH1 0x0 PUSH2 0x1033 PUSH2 0x102E DUP5 PUSH2 0x1417 JUMP JUMPDEST PUSH2 0x13F2 JUMP JUMPDEST SWAP1 POP DUP3 DUP2 MSTORE PUSH1 0x20 DUP2 ADD DUP5 DUP5 DUP5 ADD GT ISZERO PUSH2 0x104F JUMPI PUSH2 0x104E PUSH2 0x176C JUMP JUMPDEST JUMPDEST PUSH2 0x105A DUP5 DUP3 DUP6 PUSH2 0x15A8 JUMP JUMPDEST POP SWAP4 SWAP3 POP POP POP JUMP JUMPDEST PUSH1 0x0 DUP2 CALLDATALOAD SWAP1 POP PUSH2 0x1071 DUP2 PUSH2 0x17F2 JUMP JUMPDEST SWAP3 SWAP2 POP POP JUMP JUMPDEST PUSH1 0x0 DUP2 CALLDATALOAD SWAP1 POP PUSH2 0x1086 DUP2 PUSH2 0x1809 JUMP JUMPDEST SWAP3 SWAP2 POP POP JUMP JUMPDEST PUSH1 0x0 DUP2 CALLDATALOAD SWAP1 POP PUSH2 0x109B DUP2 PUSH2 0x1819 JUMP JUMPDEST SWAP3 SWAP2 POP POP JUMP JUMPDEST PUSH1 0x0 DUP3 PUSH1 0x1F DUP4 ADD SLT PUSH2 0x10B6 JUMPI PUSH2 0x10B5 PUSH2 0x1767 JUMP JUMPDEST JUMPDEST DUP2 CALLDATALOAD PUSH2 0x10C6 DUP5 DUP3 PUSH1 0x20 DUP7 ADD PUSH2 0x1020 JUMP JUMPDEST SWAP2 POP POP SWAP3 SWAP2 POP POP JUMP JUMPDEST PUSH1 0x0 DUP2 CALLDATALOAD SWAP1 POP PUSH2 0x10DE DUP2 PUSH2 0x1830 JUMP JUMPDEST SWAP3 SWAP2 POP POP JUMP JUMPDEST PUSH1 0x0 PUSH1 0x20 DUP3 DUP5 SUB SLT ISZERO PUSH2 0x10FA JUMPI PUSH2 0x10F9 PUSH2 0x1776 JUMP JUMPDEST JUMPDEST PUSH1 0x0 PUSH2 0x1108 DUP5 DUP3 DUP6 ADD PUSH2 0x1062 JUMP JUMPDEST SWAP2 POP POP SWAP3 SWAP2 POP POP JUMP JUMPDEST PUSH1 0x0 DUP1 PUSH1 0x0 PUSH1 0x60 DUP5 DUP7 SUB SLT ISZERO PUSH2 0x112A JUMPI PUSH2 0x1129 PUSH2 0x1776 JUMP JUMPDEST JUMPDEST PUSH1 0x0 PUSH2 0x1138 DUP7 DUP3 DUP8 ADD PUSH2 0x1062 JUMP JUMPDEST SWAP4 POP POP PUSH1 0x20 PUSH2 0x1149 DUP7 DUP3 DUP8 ADD PUSH2 0x1077 JUMP JUMPDEST SWAP3 POP POP PUSH1 0x40 DUP5 ADD CALLDATALOAD PUSH8 0xFFFFFFFFFFFFFFFF DUP2 GT ISZERO PUSH2 0x116A JUMPI PUSH2 0x1169 PUSH2 0x1771 JUMP JUMPDEST JUMPDEST PUSH2 0x1176 DUP7 DUP3 DUP8 ADD PUSH2 0x10A1 JUMP JUMPDEST SWAP2 POP POP SWAP3 POP SWAP3 POP SWAP3 JUMP JUMPDEST PUSH1 0x0 DUP1 PUSH1 0x40 DUP4 DUP6 SUB SLT ISZERO PUSH2 0x1197 JUMPI PUSH2 0x1196 PUSH2 0x1776 JUMP JUMPDEST JUMPDEST PUSH1 0x0 PUSH2 0x11A5 DUP6 DUP3 DUP7 ADD PUSH2 0x1062 JUMP JUMPDEST SWAP3 POP POP PUSH1 0x20 PUSH2 0x11B6 DUP6 DUP3 DUP7 ADD PUSH2 0x10CF JUMP JUMPDEST SWAP2 POP POP SWAP3 POP SWAP3 SWAP1 POP JUMP JUMPDEST PUSH1 0x0 PUSH1 0x20 DUP3 DUP5 SUB SLT ISZERO PUSH2 0x11D6 JUMPI PUSH2 0x11D5 PUSH2 0x1776 JUMP JUMPDEST JUMPDEST PUSH1 0x0 PUSH2 0x11E4 DUP5 DUP3 DUP6 ADD PUSH2 0x10CF JUMP JUMPDEST SWAP2 POP POP SWAP3 SWAP2 POP POP JUMP JUMPDEST PUSH1 0x0 DUP1 PUSH1 0x0 DUP1 PUSH1 0x80 DUP6 DUP8 SUB SLT ISZERO PUSH2 0x1207 JUMPI PUSH2 0x1206 PUSH2 0x1776 JUMP JUMPDEST JUMPDEST PUSH1 0x0 PUSH2 0x1215 DUP8 DUP3 DUP9 ADD PUSH2 0x10CF JUMP JUMPDEST SWAP5 POP POP PUSH1 0x20 PUSH2 0x1226 DUP8 DUP3 DUP9 ADD PUSH2 0x10CF JUMP JUMPDEST SWAP4 POP POP PUSH1 0x40 PUSH2 0x1237 DUP8 DUP3 DUP9 ADD PUSH2 0x108C JUMP JUMPDEST SWAP3 POP POP PUSH1 0x60 PUSH2 0x1248 DUP8 DUP3 DUP9 ADD PUSH2 0x10CF JUMP JUMPDEST SWAP2 POP POP SWAP3 SWAP6 SWAP2 SWAP5 POP SWAP3 POP JUMP JUMPDEST PUSH2 0x125D DUP2 PUSH2 0x1531 JUMP JUMPDEST DUP3 MSTORE POP POP JUMP JUMPDEST PUSH2 0x126C DUP2 PUSH2 0x1543 JUMP JUMPDEST DUP3 MSTORE POP POP JUMP JUMPDEST PUSH2 0x127B DUP2 PUSH2 0x1596 JUMP JUMPDEST DUP3 MSTORE POP POP JUMP JUMPDEST PUSH1 0x0 PUSH2 0x128C DUP3 PUSH2 0x1448 JUMP JUMPDEST PUSH2 0x1296 DUP2 DUP6 PUSH2 0x1453 JUMP JUMPDEST SWAP4 POP PUSH2 0x12A6 DUP2 DUP6 PUSH1 0x20 DUP7 ADD PUSH2 0x15B7 JUMP JUMPDEST PUSH2 0x12AF DUP2 PUSH2 0x177B JUMP JUMPDEST DUP5 ADD SWAP2 POP POP SWAP3 SWAP2 POP POP JUMP JUMPDEST PUSH1 0x0 PUSH2 0x12C7 PUSH1 0x19 DUP4 PUSH2 0x1453 JUMP JUMPDEST SWAP2 POP PUSH2 0x12D2 DUP3 PUSH2 0x178C JUMP JUMPDEST PUSH1 0x20 DUP3 ADD SWAP1 POP SWAP2 SWAP1 POP JUMP JUMPDEST PUSH1 0x0 PUSH2 0x12EA PUSH1 0x1E DUP4 PUSH2 0x1453 JUMP JUMPDEST SWAP2 POP PUSH2 0x12F5 DUP3 PUSH2 0x17B5 JUMP JUMPDEST PUSH1 0x20 DUP3 ADD SWAP1 POP SWAP2 SWAP1 POP JUMP JUMPDEST PUSH2 0x1309 DUP2 PUSH2 0x158C JUMP JUMPDEST DUP3 MSTORE POP POP JUMP JUMPDEST PUSH1 0x0 PUSH1 0x20 DUP3 ADD SWAP1 POP PUSH2 0x1324 PUSH1 0x0 DUP4 ADD DUP5 PUSH2 0x1254 JUMP JUMPDEST SWAP3 SWAP2 POP POP JUMP JUMPDEST PUSH1 0x0 PUSH1 0x20 DUP3 ADD SWAP1 POP PUSH2 0x133F PUSH1 0x0 DUP4 ADD DUP5 PUSH2 0x1263 JUMP JUMPDEST SWAP3 SWAP2 POP POP JUMP JUMPDEST PUSH1 0x0 PUSH1 0x40 DUP3 ADD SWAP1 POP PUSH2 0x135A PUSH1 0x0 DUP4 ADD DUP6 PUSH2 0x1272 JUMP JUMPDEST DUP2 DUP2 SUB PUSH1 0x20 DUP4 ADD MSTORE PUSH2 0x136C DUP2 DUP5 PUSH2 0x1281 JUMP JUMPDEST SWAP1 POP SWAP4 SWAP3 POP POP POP JUMP JUMPDEST PUSH1 0x0 PUSH1 0x20 DUP3 ADD SWAP1 POP DUP2 DUP2 SUB PUSH1 0x0 DUP4 ADD MSTORE PUSH2 0x138F DUP2 DUP5 PUSH2 0x1281 JUMP JUMPDEST SWAP1 POP SWAP3 SWAP2 POP POP JUMP JUMPDEST PUSH1 0x0 PUSH1 0x20 DUP3 ADD SWAP1 POP DUP2 DUP2 SUB PUSH1 0x0 DUP4 ADD MSTORE PUSH2 0x13B0 DUP2 PUSH2 0x12BA JUMP JUMPDEST SWAP1 POP SWAP2 SWAP1 POP JUMP JUMPDEST PUSH1 0x0 PUSH1 0x20 DUP3 ADD SWAP1 POP DUP2 DUP2 SUB PUSH1 0x0 DUP4 ADD MSTORE PUSH2 0x13D0 DUP2 PUSH2 0x12DD JUMP JUMPDEST SWAP1 POP SWAP2 SWAP1 POP JUMP JUMPDEST PUSH1 0x0 PUSH1 0x20 DUP3 ADD SWAP1 POP PUSH2 0x13EC PUSH1 0x0 DUP4 ADD DUP5 PUSH2 0x1300 JUMP JUMPDEST SWAP3 SWAP2 POP POP JUMP JUMPDEST PUSH1 0x0 PUSH2 0x13FC PUSH2 0x140D JUMP JUMPDEST SWAP1 POP PUSH2 0x1408 DUP3 DUP3 PUSH2 0x161C JUMP JUMPDEST SWAP2 SWAP1 POP JUMP JUMPDEST PUSH1 0x0 PUSH1 0x40 MLOAD SWAP1 POP SWAP1 JUMP JUMPDEST PUSH1 0x0 PUSH8 0xFFFFFFFFFFFFFFFF DUP3 GT ISZERO PUSH2 0x1432 JUMPI PUSH2 0x1431 PUSH2 0x1738 JUMP JUMPDEST JUMPDEST PUSH2 0x143B DUP3 PUSH2 0x177B JUMP JUMPDEST SWAP1 POP PUSH1 0x20 DUP2 ADD SWAP1 POP SWAP2 SWAP1 POP JUMP JUMPDEST PUSH1 0x0 DUP2 MLOAD SWAP1 POP SWAP2 SWAP1 POP JUMP JUMPDEST PUSH1 0x0 DUP3 DUP3 MSTORE PUSH1 0x20 DUP3 ADD SWAP1 POP SWAP3 SWAP2 POP POP JUMP JUMPDEST PUSH1 0x0 PUSH2 0x146F DUP3 PUSH2 0x158C JUMP JUMPDEST SWAP2 POP PUSH2 0x147A DUP4 PUSH2 0x158C JUMP JUMPDEST SWAP3 POP DUP3 PUSH32 0xFFFFFFFFFFFFFFFFFFFFFFFFFFFFFFFFFFFFFFFFFFFFFFFFFFFFFFFFFFFFFFFF SUB DUP3 GT ISZERO PUSH2 0x14AF JUMPI PUSH2 0x14AE PUSH2 0x164D JUMP JUMPDEST JUMPDEST DUP3 DUP3 ADD SWAP1 POP SWAP3 SWAP2 POP POP JUMP JUMPDEST PUSH1 0x0 PUSH2 0x14C5 DUP3 PUSH2 0x158C JUMP JUMPDEST SWAP2 POP PUSH2 0x14D0 DUP4 PUSH2 0x158C JUMP JUMPDEST SWAP3 POP DUP3 PUSH2 0x14E0 JUMPI PUSH2 0x14DF PUSH2 0x167C JUMP JUMPDEST JUMPDEST DUP3 DUP3 DIV SWAP1 POP SWAP3 SWAP2 POP POP JUMP JUMPDEST PUSH1 0x0 PUSH2 0x14F6 DUP3 PUSH2 0x158C JUMP JUMPDEST SWAP2 POP PUSH2 0x1501 DUP4 PUSH2 0x158C JUMP JUMPDEST SWAP3 POP DUP3 DUP3 LT ISZERO PUSH2 0x1514 JUMPI PUSH2 0x1513 PUSH2 0x164D JUMP JUMPDEST JUMPDEST DUP3 DUP3 SUB SWAP1 POP SWAP3 SWAP2 POP POP JUMP JUMPDEST PUSH1 0x0 PUSH2 0x152A DUP3 PUSH2 0x156C JUMP JUMPDEST SWAP1 POP SWAP2 SWAP1 POP JUMP JUMPDEST PUSH1 0x0 PUSH2 0x153C DUP3 PUSH2 0x156C JUMP JUMPDEST SWAP1 POP SWAP2 SWAP1 POP JUMP JUMPDEST PUSH1 0x0 DUP2 ISZERO ISZERO SWAP1 POP SWAP2 SWAP1 POP JUMP JUMPDEST PUSH1 0x0 DUP2 SWAP1 POP PUSH2 0x155D DUP3 PUSH2 0x17DE JUMP JUMPDEST SWAP2 SWAP1 POP JUMP JUMPDEST PUSH1 0x0 DUP2 SWAP1 POP SWAP2 SWAP1 POP JUMP JUMPDEST PUSH1 0x0 PUSH20 0xFFFFFFFFFFFFFFFFFFFFFFFFFFFFFFFFFFFFFFFF DUP3 AND SWAP1 POP SWAP2 SWAP1 POP JUMP JUMPDEST PUSH1 0x0 DUP2 SWAP1 POP SWAP2 SWAP1 POP JUMP JUMPDEST PUSH1 0x0 PUSH2 0x15A1 DUP3 PUSH2 0x154F JUMP JUMPDEST SWAP1 POP SWAP2 SWAP1 POP JUMP JUMPDEST DUP3 DUP2 DUP4 CALLDATACOPY PUSH1 0x0 DUP4 DUP4 ADD MSTORE POP POP POP JUMP JUMPDEST PUSH1 0x0 JUMPDEST DUP4 DUP2 LT ISZERO PUSH2 0x15D5 JUMPI DUP1 DUP3 ADD MLOAD DUP2 DUP5 ADD MSTORE PUSH1 0x20 DUP2 ADD SWAP1 POP PUSH2 0x15BA JUMP JUMPDEST DUP4 DUP2 GT ISZERO PUSH2 0x15E4 JUMPI PUSH1 0x0 DUP5 DUP5 ADD MSTORE JUMPDEST POP POP POP POP JUMP JUMPDEST PUSH1 0x0 PUSH1 0x2 DUP3 DIV SWAP1 POP PUSH1 0x1 DUP3 AND DUP1 PUSH2 0x1602 JUMPI PUSH1 0x7F DUP3 AND SWAP2 POP JUMPDEST PUSH1 0x20 DUP3 LT DUP2 EQ ISZERO PUSH2 0x1616 JUMPI PUSH2 0x1615 PUSH2 0x16DA JUMP JUMPDEST JUMPDEST POP SWAP2 SWAP1 POP JUMP JUMPDEST PUSH2 0x1625 DUP3 PUSH2 0x177B JUMP JUMPDEST DUP2 ADD DUP2 DUP2 LT PUSH8 0xFFFFFFFFFFFFFFFF DUP3 GT OR ISZERO PUSH2 0x1644 JUMPI PUSH2 0x1643 PUSH2 0x1738 JUMP JUMPDEST JUMPDEST DUP1 PUSH1 0x40 MSTORE POP POP POP JUMP JUMPDEST PUSH32 0x4E487B7100000000000000000000000000000000000000000000000000000000 PUSH1 0x0 MSTORE PUSH1 0x11 PUSH1 0x4 MSTORE PUSH1 0x24 PUSH1 0x0 REVERT JUMPDEST PUSH32 0x4E487B7100000000000000000000000000000000000000000000000000000000 PUSH1 0x0 MSTORE PUSH1 0x12 PUSH1 0x4 MSTORE PUSH1 0x24 PUSH1 0x0 REVERT JUMPDEST PUSH32 0x4E487B7100000000000000000000000000000000000000000000000000000000 PUSH1 0x0 MSTORE PUSH1 0x21 PUSH1 0x4 MSTORE PUSH1 0x24 PUSH1 0x0 REVERT JUMPDEST PUSH32 0x4E487B7100000000000000000000000000000000000000000000000000000000 PUSH1 0x0 MSTORE PUSH1 0x22 PUSH1 0x4 MSTORE PUSH1 0x24 PUSH1 0x0 REVERT JUMPDEST PUSH32 0x4E487B7100000000000000000000000000000000000000000000000000000000 PUSH1 0x0 MSTORE PUSH1 0x32 PUSH1 0x4 MSTORE PUSH1 0x24 PUSH1 0x0 REVERT JUMPDEST PUSH32 0x4E487B7100000000000000000000000000000000000000000000000000000000 PUSH1 0x0 MSTORE PUSH1 0x41 PUSH1 0x4 MSTORE PUSH1 0x24 PUSH1 0x0 REVERT JUMPDEST PUSH1 0x0 DUP1 REVERT JUMPDEST PUSH1 0x0 DUP1 REVERT JUMPDEST PUSH1 0x0 DUP1 REVERT JUMPDEST PUSH1 0x0 DUP1 REVERT JUMPDEST PUSH1 0x0 PUSH1 0x1F NOT PUSH1 0x1F DUP4 ADD AND SWAP1 POP SWAP2 SWAP1 POP JUMP JUMPDEST PUSH32 0x63616C6C6572206973206E6F7420612070726F64756365722E00000000000000 PUSH1 0x0 DUP3 ADD MSTORE POP JUMP JUMPDEST PUSH32 0x63616C6C6572206973206E6F742074686520746F6B656E206F776E65722E0000 PUSH1 0x0 DUP3 ADD MSTORE POP JUMP JUMPDEST PUSH1 0x5 DUP2 LT PUSH2 0x17EF JUMPI PUSH2 0x17EE PUSH2 0x16AB JUMP JUMPDEST JUMPDEST POP JUMP JUMPDEST PUSH2 0x17FB DUP2 PUSH2 0x151F JUMP JUMPDEST DUP2 EQ PUSH2 0x1806 JUMPI PUSH1 0x0 DUP1 REVERT JUMPDEST POP JUMP JUMPDEST PUSH1 0x5 DUP2 LT PUSH2 0x1816 JUMPI PUSH1 0x0 DUP1 REVERT JUMPDEST POP JUMP JUMPDEST PUSH2 0x1822 DUP2 PUSH2 0x1562 JUMP JUMPDEST DUP2 EQ PUSH2 0x182D JUMPI PUSH1 0x0 DUP1 REVERT JUMPDEST POP JUMP JUMPDEST PUSH2 0x1839 DUP2 PUSH2 0x158C JUMP JUMPDEST DUP2 EQ PUSH2 0x1844 JUMPI PUSH1 0x0 DUP1 REVERT JUMPDEST POP JUMP INVALID LOG2 PUSH5 0x6970667358 0x22 SLT KECCAK256 DUP6 CALLDATALOAD 0xB7 MSTORE 0xBD DUP6 EXP 0xE8 0xD8 0xB0 0xCD DUP11 PUSH27 0x82B5B2D8985CA3DE6D7A41840E5B58365F5AE864736F6C63430008 SMOD STOP CALLER "
				},
				"gasEstimates": {
					"creation": {
						"codeDepositCost": "1253800",
						"executionCost": "infinite",
						"totalCost": "infinite"
					},
					"external": {
						"burn(address,uint256)": "infinite",
						"buyToken()": "infinite",
						"etherBalance(address)": "3345",
						"getActorInfo(address)": "infinite",
						"mint(uint256)": "infinite",
						"name()": "infinite",
						"produceProduct(uint256,uint256,int256,uint256)": "infinite",
						"register(address,uint8,string)": "infinite",
						"symbol()": "infinite",
						"tokenBalance(address)": "2951",
						"tokenOwner()": "2536",
						"tokenTransfer(address,uint256)": "infinite"
					}
				},
				"methodIdentifiers": {
					"burn(address,uint256)": "9dc29fac",
					"buyToken()": "a4821719",
					"etherBalance(address)": "cd0c5896",
					"getActorInfo(address)": "b292abf1",
					"mint(uint256)": "a0712d68",
					"name()": "06fdde03",
					"produceProduct(uint256,uint256,int256,uint256)": "3bd06f80",
					"register(address,uint8,string)": "40932fc2",
					"symbol()": "95d89b41",
					"tokenBalance(address)": "eedc966a",
					"tokenOwner()": "a3e67610",
					"tokenTransfer(address,uint256)": "68cdafe6"
				}
			},
			"storageLayout": {
				"storage": [
					{
						"astId": 3,
						"contract": "contracts/4_Product.sol:ProductSC",
						"label": "name",
						"offset": 0,
						"slot": "0",
						"type": "t_string_storage"
					},
					{
						"astId": 5,
						"contract": "contracts/4_Product.sol:ProductSC",
						"label": "symbol",
						"offset": 0,
						"slot": "1",
						"type": "t_string_storage"
					},
					{
						"astId": 7,
						"contract": "contracts/4_Product.sol:ProductSC",
						"label": "tokenOwner",
						"offset": 0,
						"slot": "2",
						"type": "t_address_payable"
					},
					{
						"astId": 19,
						"contract": "contracts/4_Product.sol:ProductSC",
						"label": "_totalSupply",
						"offset": 0,
						"slot": "3",
						"type": "t_uint256"
					},
					{
						"astId": 66,
						"contract": "contracts/4_Product.sol:ProductSC",
						"label": "balances",
						"offset": 0,
						"slot": "4",
						"type": "t_mapping(t_address,t_uint256)"
					},
					{
						"astId": 71,
						"contract": "contracts/4_Product.sol:ProductSC",
						"label": "actors",
						"offset": 0,
						"slot": "5",
						"type": "t_mapping(t_address,t_struct(Actor)62_storage)"
					},
					{
						"astId": 76,
						"contract": "contracts/4_Product.sol:ProductSC",
						"label": "product",
						"offset": 0,
						"slot": "6",
						"type": "t_mapping(t_uint256,t_struct(Product)54_storage)"
					}
				],
				"types": {
					"t_address": {
						"encoding": "inplace",
						"label": "address",
						"numberOfBytes": "20"
					},
					"t_address_payable": {
						"encoding": "inplace",
						"label": "address payable",
						"numberOfBytes": "20"
					},
					"t_array(t_uint256)4_storage": {
						"base": "t_uint256",
						"encoding": "inplace",
						"label": "uint256[4]",
						"numberOfBytes": "128"
					},
					"t_bool": {
						"encoding": "inplace",
						"label": "bool",
						"numberOfBytes": "1"
					},
					"t_enum(Role)32": {
						"encoding": "inplace",
						"label": "enum ProductSC.Role",
						"numberOfBytes": "1"
					},
					"t_enum(State)26": {
						"encoding": "inplace",
						"label": "enum ProductSC.State",
						"numberOfBytes": "1"
					},
					"t_mapping(t_address,t_struct(Actor)62_storage)": {
						"encoding": "mapping",
						"key": "t_address",
						"label": "mapping(address => struct ProductSC.Actor)",
						"numberOfBytes": "32",
						"value": "t_struct(Actor)62_storage"
					},
					"t_mapping(t_address,t_uint256)": {
						"encoding": "mapping",
						"key": "t_address",
						"label": "mapping(address => uint256)",
						"numberOfBytes": "32",
						"value": "t_uint256"
					},
					"t_mapping(t_uint256,t_struct(Product)54_storage)": {
						"encoding": "mapping",
						"key": "t_uint256",
						"label": "mapping(uint256 => struct ProductSC.Product)",
						"numberOfBytes": "32",
						"value": "t_struct(Product)54_storage"
					},
					"t_string_storage": {
						"encoding": "bytes",
						"label": "string",
						"numberOfBytes": "32"
					},
					"t_struct(Actor)62_storage": {
						"encoding": "inplace",
						"label": "struct ProductSC.Actor",
						"members": [
							{
								"astId": 57,
								"contract": "contracts/4_Product.sol:ProductSC",
								"label": "role",
								"offset": 0,
								"slot": "0",
								"type": "t_enum(Role)32"
							},
							{
								"astId": 59,
								"contract": "contracts/4_Product.sol:ProductSC",
								"label": "name",
								"offset": 0,
								"slot": "1",
								"type": "t_string_storage"
							},
							{
								"astId": 61,
								"contract": "contracts/4_Product.sol:ProductSC",
								"label": "isDefined",
								"offset": 0,
								"slot": "2",
								"type": "t_bool"
							}
						],
						"numberOfBytes": "96"
					},
					"t_struct(Product)54_storage": {
						"encoding": "inplace",
						"label": "struct ProductSC.Product",
						"members": [
							{
								"astId": 34,
								"contract": "contracts/4_Product.sol:ProductSC",
								"label": "ID",
								"offset": 0,
								"slot": "0",
								"type": "t_uint256"
							},
							{
								"astId": 36,
								"contract": "contracts/4_Product.sol:ProductSC",
								"label": "ownerID",
								"offset": 0,
								"slot": "1",
								"type": "t_address"
							},
							{
								"astId": 38,
								"contract": "contracts/4_Product.sol:ProductSC",
								"label": "producerID",
								"offset": 0,
								"slot": "2",
								"type": "t_address"
							},
							{
								"astId": 42,
								"contract": "contracts/4_Product.sol:ProductSC",
								"label": "timestamp",
								"offset": 0,
								"slot": "3",
								"type": "t_array(t_uint256)4_storage"
							},
							{
								"astId": 45,
								"contract": "contracts/4_Product.sol:ProductSC",
								"label": "productState",
								"offset": 0,
								"slot": "7",
								"type": "t_enum(State)26"
							},
							{
								"astId": 47,
								"contract": "contracts/4_Product.sol:ProductSC",
								"label": "productPrice",
								"offset": 0,
								"slot": "8",
								"type": "t_uint256"
							},
							{
								"astId": 49,
								"contract": "contracts/4_Product.sol:ProductSC",
								"label": "distributorID",
								"offset": 0,
								"slot": "9",
								"type": "t_address"
							},
							{
								"astId": 51,
								"contract": "contracts/4_Product.sol:ProductSC",
								"label": "retailerID",
								"offset": 0,
								"slot": "10",
								"type": "t_address"
							},
							{
								"astId": 53,
								"contract": "contracts/4_Product.sol:ProductSC",
								"label": "consumerID",
								"offset": 0,
								"slot": "11",
								"type": "t_address"
							}
						],
						"numberOfBytes": "384"
					},
					"t_uint256": {
						"encoding": "inplace",
						"label": "uint256",
						"numberOfBytes": "32"
					}
				}
			},
			"userdoc": {
				"kind": "user",
				"methods": {},
				"version": 1
			}
		}
	}
}