{
	"contracts/4_Product.sol": {
		"ProductSC": {
			"abi": [
				{
					"inputs": [
						{
							"internalType": "string",
							"name": "_name",
							"type": "string"
						},
						{
							"internalType": "string",
							"name": "_symbol",
							"type": "string"
						},
						{
							"internalType": "uint256",
							"name": "_initialSupply",
							"type": "uint256"
						}
					],
					"stateMutability": "nonpayable",
					"type": "constructor"
				},
				{
					"inputs": [
						{
							"internalType": "address",
							"name": "_account",
							"type": "address"
						},
						{
							"internalType": "uint256",
							"name": "_amount",
							"type": "uint256"
						}
					],
					"name": "burn",
					"outputs": [],
					"stateMutability": "nonpayable",
					"type": "function"
				},
				{
					"inputs": [],
					"name": "buyToken",
					"outputs": [],
					"stateMutability": "payable",
					"type": "function"
				},
				{
					"inputs": [
						{
							"internalType": "address",
							"name": "_addr",
							"type": "address"
						}
					],
					"name": "etherBalance",
					"outputs": [
						{
							"internalType": "uint256",
							"name": "",
							"type": "uint256"
						}
					],
					"stateMutability": "view",
					"type": "function"
				},
				{
					"inputs": [
						{
							"internalType": "address",
							"name": "_addr",
							"type": "address"
						}
					],
					"name": "getActorInfo",
					"outputs": [
						{
							"internalType": "enum ProductSC.Role",
							"name": "_role",
							"type": "uint8"
						},
						{
							"internalType": "string",
							"name": "_name",
							"type": "string"
						}
					],
					"stateMutability": "view",
					"type": "function"
				},
				{
					"inputs": [
						{
							"internalType": "uint256",
							"name": "_amount",
							"type": "uint256"
						}
					],
					"name": "mint",
					"outputs": [],
					"stateMutability": "nonpayable",
					"type": "function"
				},
				{
					"inputs": [],
					"name": "name",
					"outputs": [
						{
							"internalType": "string",
							"name": "",
							"type": "string"
						}
					],
					"stateMutability": "view",
					"type": "function"
				},
				{
					"inputs": [
						{
							"internalType": "uint256",
							"name": "_id",
							"type": "uint256"
						},
						{
							"internalType": "uint256",
							"name": "_timestamp",
							"type": "uint256"
						},
						{
							"internalType": "uint256",
							"name": "_price",
							"type": "uint256"
						}
					],
					"name": "produceProduct",
					"outputs": [],
					"stateMutability": "nonpayable",
					"type": "function"
				},
				{
					"inputs": [
						{
							"internalType": "address",
							"name": "_addr",
							"type": "address"
						},
						{
							"internalType": "enum ProductSC.Role",
							"name": "_role",
							"type": "uint8"
						},
						{
							"internalType": "string",
							"name": "_name",
							"type": "string"
						}
					],
					"name": "register",
					"outputs": [],
					"stateMutability": "nonpayable",
					"type": "function"
				},
				{
					"inputs": [],
					"name": "symbol",
					"outputs": [
						{
							"internalType": "string",
							"name": "",
							"type": "string"
						}
					],
					"stateMutability": "view",
					"type": "function"
				},
				{
					"inputs": [
						{
							"internalType": "address",
							"name": "_addr",
							"type": "address"
						}
					],
					"name": "tokenBalance",
					"outputs": [
						{
							"internalType": "uint256",
							"name": "",
							"type": "uint256"
						}
					],
					"stateMutability": "view",
					"type": "function"
				},
				{
					"inputs": [],
					"name": "tokenOwner",
					"outputs": [
						{
							"internalType": "address payable",
							"name": "",
							"type": "address"
						}
					],
					"stateMutability": "view",
					"type": "function"
				},
				{
					"inputs": [
						{
							"internalType": "address",
							"name": "_to",
							"type": "address"
						},
						{
							"internalType": "uint256",
							"name": "_amount",
							"type": "uint256"
						}
					],
					"name": "tokenTransfer",
					"outputs": [
						{
							"internalType": "bool",
							"name": "",
							"type": "bool"
						}
					],
					"stateMutability": "nonpayable",
					"type": "function"
				}
			],
			"devdoc": {
				"kind": "dev",
				"methods": {},
				"version": 1
			},
			"evm": {
				"assembly": "    /* \"contracts/4_Product.sol\":35:10209  contract ProductSC {\r... */\n  mstore(0x40, 0x80)\n    /* \"contracts/4_Product.sol\":2178:2558  constructor (string memory _name, string memory _symbol, uint256 _initialSupply) {\r... */\n  callvalue\n  dup1\n  iszero\n  tag_1\n  jumpi\n  0x00\n  dup1\n  revert\ntag_1:\n  pop\n  mload(0x40)\n  sub(codesize, bytecodeSize)\n  dup1\n  bytecodeSize\n  dup4\n  codecopy\n  dup2\n  dup2\n  add\n  0x40\n  mstore\n  dup2\n  add\n  swap1\n  tag_2\n  swap2\n  swap1\n  tag_3\n  jump\t// in\ntag_2:\n    /* \"contracts/4_Product.sol\":2277:2282  _name */\n  dup3\n    /* \"contracts/4_Product.sol\":2270:2274  name */\n  0x00\n    /* \"contracts/4_Product.sol\":2270:2282  name = _name */\n  swap1\n  dup1\n  mload\n  swap1\n  0x20\n  add\n  swap1\n  tag_6\n  swap3\n  swap2\n  swap1\n  tag_7\n  jump\t// in\ntag_6:\n  pop\n    /* \"contracts/4_Product.sol\":2302:2309  _symbol */\n  dup2\n    /* \"contracts/4_Product.sol\":2293:2299  symbol */\n  0x01\n    /* \"contracts/4_Product.sol\":2293:2309  symbol = _symbol */\n  swap1\n  dup1\n  mload\n  swap1\n  0x20\n  add\n  swap1\n  tag_8\n  swap3\n  swap2\n  swap1\n  tag_7\n  jump\t// in\ntag_8:\n  pop\n    /* \"contracts/4_Product.sol\":2335:2349  _initialSupply */\n  dup1\n    /* \"contracts/4_Product.sol\":2320:2332  _totalSupply */\n  0x03\n    /* \"contracts/4_Product.sol\":2320:2349  _totalSupply = _initialSupply */\n  dup2\n  swap1\n  sstore\n  pop\n    /* \"contracts/4_Product.sol\":2381:2391  msg.sender */\n  caller\n    /* \"contracts/4_Product.sol\":2360:2370  tokenOwner */\n  0x02\n  0x00\n    /* \"contracts/4_Product.sol\":2360:2392  tokenOwner = payable(msg.sender) */\n  0x0100\n  exp\n  dup2\n  sload\n  dup2\n  0xffffffffffffffffffffffffffffffffffffffff\n  mul\n  not\n  and\n  swap1\n  dup4\n  0xffffffffffffffffffffffffffffffffffffffff\n  and\n  mul\n  or\n  swap1\n  sstore\n  pop\n    /* \"contracts/4_Product.sol\":2469:2483  _initialSupply */\n  dup1\n    /* \"contracts/4_Product.sol\":2446:2454  balances */\n  0x04\n    /* \"contracts/4_Product.sol\":2446:2466  balances[msg.sender] */\n  0x00\n    /* \"contracts/4_Product.sol\":2455:2465  msg.sender */\n  caller\n    /* \"contracts/4_Product.sol\":2446:2466  balances[msg.sender] */\n  0xffffffffffffffffffffffffffffffffffffffff\n  and\n  0xffffffffffffffffffffffffffffffffffffffff\n  and\n  dup2\n  mstore\n  0x20\n  add\n  swap1\n  dup2\n  mstore\n  0x20\n  add\n  0x00\n  keccak256\n    /* \"contracts/4_Product.sol\":2446:2483  balances[msg.sender] = _initialSupply */\n  dup2\n  swap1\n  sstore\n  pop\n    /* \"contracts/4_Product.sol\":2178:2558  constructor (string memory _name, string memory _symbol, uint256 _initialSupply) {\r... */\n  pop\n  pop\n  pop\n    /* \"contracts/4_Product.sol\":35:10209  contract ProductSC {\r... */\n  jump(tag_9)\ntag_7:\n  dup3\n  dup1\n  sload\n  tag_10\n  swap1\n  tag_11\n  jump\t// in\ntag_10:\n  swap1\n  0x00\n  mstore\n  keccak256(0x00, 0x20)\n  swap1\n  0x1f\n  add\n  0x20\n  swap1\n  div\n  dup2\n  add\n  swap3\n  dup3\n  tag_13\n  jumpi\n  0x00\n  dup6\n  sstore\n  jump(tag_12)\ntag_13:\n  dup3\n  0x1f\n  lt\n  tag_14\n  jumpi\n  dup1\n  mload\n  not(0xff)\n  and\n  dup4\n  dup1\n  add\n  or\n  dup6\n  sstore\n  jump(tag_12)\ntag_14:\n  dup3\n  dup1\n  add\n  0x01\n  add\n  dup6\n  sstore\n  dup3\n  iszero\n  tag_12\n  jumpi\n  swap2\n  dup3\n  add\ntag_15:\n  dup3\n  dup2\n  gt\n  iszero\n  tag_16\n  jumpi\n  dup3\n  mload\n  dup3\n  sstore\n  swap2\n  0x20\n  add\n  swap2\n  swap1\n  0x01\n  add\n  swap1\n  jump(tag_15)\ntag_16:\ntag_12:\n  pop\n  swap1\n  pop\n  tag_17\n  swap2\n  swap1\n  tag_18\n  jump\t// in\ntag_17:\n  pop\n  swap1\n  jump\t// out\ntag_18:\ntag_19:\n  dup1\n  dup3\n  gt\n  iszero\n  tag_20\n  jumpi\n  0x00\n  dup2\n  0x00\n  swap1\n  sstore\n  pop\n  0x01\n  add\n  jump(tag_19)\ntag_20:\n  pop\n  swap1\n  jump\t// out\n    /* \"#utility.yul\":7:428   */\ntag_22:\n    /* \"#utility.yul\":96:101   */\n  0x00\n    /* \"#utility.yul\":121:187   */\n  tag_24\n    /* \"#utility.yul\":137:186   */\n  tag_25\n    /* \"#utility.yul\":179:185   */\n  dup5\n    /* \"#utility.yul\":137:186   */\n  tag_26\n  jump\t// in\ntag_25:\n    /* \"#utility.yul\":121:187   */\n  tag_27\n  jump\t// in\ntag_24:\n    /* \"#utility.yul\":112:187   */\n  swap1\n  pop\n    /* \"#utility.yul\":210:216   */\n  dup3\n    /* \"#utility.yul\":203:208   */\n  dup2\n    /* \"#utility.yul\":196:217   */\n  mstore\n    /* \"#utility.yul\":248:252   */\n  0x20\n    /* \"#utility.yul\":241:246   */\n  dup2\n    /* \"#utility.yul\":237:253   */\n  add\n    /* \"#utility.yul\":286:289   */\n  dup5\n    /* \"#utility.yul\":277:283   */\n  dup5\n    /* \"#utility.yul\":272:275   */\n  dup5\n    /* \"#utility.yul\":268:284   */\n  add\n    /* \"#utility.yul\":265:290   */\n  gt\n    /* \"#utility.yul\":262:374   */\n  iszero\n  tag_28\n  jumpi\n    /* \"#utility.yul\":293:372   */\n  tag_29\n  tag_30\n  jump\t// in\ntag_29:\n    /* \"#utility.yul\":262:374   */\ntag_28:\n    /* \"#utility.yul\":383:422   */\n  tag_31\n    /* \"#utility.yul\":415:421   */\n  dup5\n    /* \"#utility.yul\":410:413   */\n  dup3\n    /* \"#utility.yul\":405:408   */\n  dup6\n    /* \"#utility.yul\":383:422   */\n  tag_32\n  jump\t// in\ntag_31:\n    /* \"#utility.yul\":102:428   */\n  pop\n    /* \"#utility.yul\":7:428   */\n  swap4\n  swap3\n  pop\n  pop\n  pop\n  jump\t// out\n    /* \"#utility.yul\":448:803   */\ntag_33:\n    /* \"#utility.yul\":515:520   */\n  0x00\n    /* \"#utility.yul\":564:567   */\n  dup3\n    /* \"#utility.yul\":557:561   */\n  0x1f\n    /* \"#utility.yul\":549:555   */\n  dup4\n    /* \"#utility.yul\":545:562   */\n  add\n    /* \"#utility.yul\":541:568   */\n  slt\n    /* \"#utility.yul\":531:653   */\n  tag_35\n  jumpi\n    /* \"#utility.yul\":572:651   */\n  tag_36\n  tag_37\n  jump\t// in\ntag_36:\n    /* \"#utility.yul\":531:653   */\ntag_35:\n    /* \"#utility.yul\":682:688   */\n  dup2\n    /* \"#utility.yul\":676:689   */\n  mload\n    /* \"#utility.yul\":707:797   */\n  tag_38\n    /* \"#utility.yul\":793:796   */\n  dup5\n    /* \"#utility.yul\":785:791   */\n  dup3\n    /* \"#utility.yul\":778:782   */\n  0x20\n    /* \"#utility.yul\":770:776   */\n  dup7\n    /* \"#utility.yul\":766:783   */\n  add\n    /* \"#utility.yul\":707:797   */\n  tag_22\n  jump\t// in\ntag_38:\n    /* \"#utility.yul\":698:797   */\n  swap2\n  pop\n    /* \"#utility.yul\":521:803   */\n  pop\n    /* \"#utility.yul\":448:803   */\n  swap3\n  swap2\n  pop\n  pop\n  jump\t// out\n    /* \"#utility.yul\":809:952   */\ntag_39:\n    /* \"#utility.yul\":866:871   */\n  0x00\n    /* \"#utility.yul\":897:903   */\n  dup2\n    /* \"#utility.yul\":891:904   */\n  mload\n    /* \"#utility.yul\":882:904   */\n  swap1\n  pop\n    /* \"#utility.yul\":913:946   */\n  tag_41\n    /* \"#utility.yul\":940:945   */\n  dup2\n    /* \"#utility.yul\":913:946   */\n  tag_42\n  jump\t// in\ntag_41:\n    /* \"#utility.yul\":809:952   */\n  swap3\n  swap2\n  pop\n  pop\n  jump\t// out\n    /* \"#utility.yul\":958:1967   */\ntag_3:\n    /* \"#utility.yul\":1066:1072   */\n  0x00\n    /* \"#utility.yul\":1074:1080   */\n  dup1\n    /* \"#utility.yul\":1082:1088   */\n  0x00\n    /* \"#utility.yul\":1131:1133   */\n  0x60\n    /* \"#utility.yul\":1119:1128   */\n  dup5\n    /* \"#utility.yul\":1110:1117   */\n  dup7\n    /* \"#utility.yul\":1106:1129   */\n  sub\n    /* \"#utility.yul\":1102:1134   */\n  slt\n    /* \"#utility.yul\":1099:1218   */\n  iszero\n  tag_44\n  jumpi\n    /* \"#utility.yul\":1137:1216   */\n  tag_45\n  tag_46\n  jump\t// in\ntag_45:\n    /* \"#utility.yul\":1099:1218   */\ntag_44:\n    /* \"#utility.yul\":1278:1279   */\n  0x00\n    /* \"#utility.yul\":1267:1276   */\n  dup5\n    /* \"#utility.yul\":1263:1280   */\n  add\n    /* \"#utility.yul\":1257:1281   */\n  mload\n    /* \"#utility.yul\":1308:1326   */\n  0xffffffffffffffff\n    /* \"#utility.yul\":1300:1306   */\n  dup2\n    /* \"#utility.yul\":1297:1327   */\n  gt\n    /* \"#utility.yul\":1294:1411   */\n  iszero\n  tag_47\n  jumpi\n    /* \"#utility.yul\":1330:1409   */\n  tag_48\n  tag_49\n  jump\t// in\ntag_48:\n    /* \"#utility.yul\":1294:1411   */\ntag_47:\n    /* \"#utility.yul\":1435:1509   */\n  tag_50\n    /* \"#utility.yul\":1501:1508   */\n  dup7\n    /* \"#utility.yul\":1492:1498   */\n  dup3\n    /* \"#utility.yul\":1481:1490   */\n  dup8\n    /* \"#utility.yul\":1477:1499   */\n  add\n    /* \"#utility.yul\":1435:1509   */\n  tag_33\n  jump\t// in\ntag_50:\n    /* \"#utility.yul\":1425:1509   */\n  swap4\n  pop\n    /* \"#utility.yul\":1228:1519   */\n  pop\n    /* \"#utility.yul\":1579:1581   */\n  0x20\n    /* \"#utility.yul\":1568:1577   */\n  dup5\n    /* \"#utility.yul\":1564:1582   */\n  add\n    /* \"#utility.yul\":1558:1583   */\n  mload\n    /* \"#utility.yul\":1610:1628   */\n  0xffffffffffffffff\n    /* \"#utility.yul\":1602:1608   */\n  dup2\n    /* \"#utility.yul\":1599:1629   */\n  gt\n    /* \"#utility.yul\":1596:1713   */\n  iszero\n  tag_51\n  jumpi\n    /* \"#utility.yul\":1632:1711   */\n  tag_52\n  tag_49\n  jump\t// in\ntag_52:\n    /* \"#utility.yul\":1596:1713   */\ntag_51:\n    /* \"#utility.yul\":1737:1811   */\n  tag_53\n    /* \"#utility.yul\":1803:1810   */\n  dup7\n    /* \"#utility.yul\":1794:1800   */\n  dup3\n    /* \"#utility.yul\":1783:1792   */\n  dup8\n    /* \"#utility.yul\":1779:1801   */\n  add\n    /* \"#utility.yul\":1737:1811   */\n  tag_33\n  jump\t// in\ntag_53:\n    /* \"#utility.yul\":1727:1811   */\n  swap3\n  pop\n    /* \"#utility.yul\":1529:1821   */\n  pop\n    /* \"#utility.yul\":1860:1862   */\n  0x40\n    /* \"#utility.yul\":1886:1950   */\n  tag_54\n    /* \"#utility.yul\":1942:1949   */\n  dup7\n    /* \"#utility.yul\":1933:1939   */\n  dup3\n    /* \"#utility.yul\":1922:1931   */\n  dup8\n    /* \"#utility.yul\":1918:1940   */\n  add\n    /* \"#utility.yul\":1886:1950   */\n  tag_39\n  jump\t// in\ntag_54:\n    /* \"#utility.yul\":1876:1950   */\n  swap2\n  pop\n    /* \"#utility.yul\":1831:1960   */\n  pop\n    /* \"#utility.yul\":958:1967   */\n  swap3\n  pop\n  swap3\n  pop\n  swap3\n  jump\t// out\n    /* \"#utility.yul\":1973:2102   */\ntag_27:\n    /* \"#utility.yul\":2007:2013   */\n  0x00\n    /* \"#utility.yul\":2034:2054   */\n  tag_56\n  tag_57\n  jump\t// in\ntag_56:\n    /* \"#utility.yul\":2024:2054   */\n  swap1\n  pop\n    /* \"#utility.yul\":2063:2096   */\n  tag_58\n    /* \"#utility.yul\":2091:2095   */\n  dup3\n    /* \"#utility.yul\":2083:2089   */\n  dup3\n    /* \"#utility.yul\":2063:2096   */\n  tag_59\n  jump\t// in\ntag_58:\n    /* \"#utility.yul\":1973:2102   */\n  swap2\n  swap1\n  pop\n  jump\t// out\n    /* \"#utility.yul\":2108:2183   */\ntag_57:\n    /* \"#utility.yul\":2141:2147   */\n  0x00\n    /* \"#utility.yul\":2174:2176   */\n  0x40\n    /* \"#utility.yul\":2168:2177   */\n  mload\n    /* \"#utility.yul\":2158:2177   */\n  swap1\n  pop\n    /* \"#utility.yul\":2108:2183   */\n  swap1\n  jump\t// out\n    /* \"#utility.yul\":2189:2497   */\ntag_26:\n    /* \"#utility.yul\":2251:2255   */\n  0x00\n    /* \"#utility.yul\":2341:2359   */\n  0xffffffffffffffff\n    /* \"#utility.yul\":2333:2339   */\n  dup3\n    /* \"#utility.yul\":2330:2360   */\n  gt\n    /* \"#utility.yul\":2327:2383   */\n  iszero\n  tag_62\n  jumpi\n    /* \"#utility.yul\":2363:2381   */\n  tag_63\n  tag_64\n  jump\t// in\ntag_63:\n    /* \"#utility.yul\":2327:2383   */\ntag_62:\n    /* \"#utility.yul\":2401:2430   */\n  tag_65\n    /* \"#utility.yul\":2423:2429   */\n  dup3\n    /* \"#utility.yul\":2401:2430   */\n  tag_66\n  jump\t// in\ntag_65:\n    /* \"#utility.yul\":2393:2430   */\n  swap1\n  pop\n    /* \"#utility.yul\":2485:2489   */\n  0x20\n    /* \"#utility.yul\":2479:2483   */\n  dup2\n    /* \"#utility.yul\":2475:2490   */\n  add\n    /* \"#utility.yul\":2467:2490   */\n  swap1\n  pop\n    /* \"#utility.yul\":2189:2497   */\n  swap2\n  swap1\n  pop\n  jump\t// out\n    /* \"#utility.yul\":2503:2580   */\ntag_67:\n    /* \"#utility.yul\":2540:2547   */\n  0x00\n    /* \"#utility.yul\":2569:2574   */\n  dup2\n    /* \"#utility.yul\":2558:2574   */\n  swap1\n  pop\n    /* \"#utility.yul\":2503:2580   */\n  swap2\n  swap1\n  pop\n  jump\t// out\n    /* \"#utility.yul\":2586:2893   */\ntag_32:\n    /* \"#utility.yul\":2654:2655   */\n  0x00\n    /* \"#utility.yul\":2664:2777   */\ntag_70:\n    /* \"#utility.yul\":2678:2684   */\n  dup4\n    /* \"#utility.yul\":2675:2676   */\n  dup2\n    /* \"#utility.yul\":2672:2685   */\n  lt\n    /* \"#utility.yul\":2664:2777   */\n  iszero\n  tag_72\n  jumpi\n    /* \"#utility.yul\":2763:2764   */\n  dup1\n    /* \"#utility.yul\":2758:2761   */\n  dup3\n    /* \"#utility.yul\":2754:2765   */\n  add\n    /* \"#utility.yul\":2748:2766   */\n  mload\n    /* \"#utility.yul\":2744:2745   */\n  dup2\n    /* \"#utility.yul\":2739:2742   */\n  dup5\n    /* \"#utility.yul\":2735:2746   */\n  add\n    /* \"#utility.yul\":2728:2767   */\n  mstore\n    /* \"#utility.yul\":2700:2702   */\n  0x20\n    /* \"#utility.yul\":2697:2698   */\n  dup2\n    /* \"#utility.yul\":2693:2703   */\n  add\n    /* \"#utility.yul\":2688:2703   */\n  swap1\n  pop\n    /* \"#utility.yul\":2664:2777   */\n  jump(tag_70)\ntag_72:\n    /* \"#utility.yul\":2795:2801   */\n  dup4\n    /* \"#utility.yul\":2792:2793   */\n  dup2\n    /* \"#utility.yul\":2789:2802   */\n  gt\n    /* \"#utility.yul\":2786:2887   */\n  iszero\n  tag_73\n  jumpi\n    /* \"#utility.yul\":2875:2876   */\n  0x00\n    /* \"#utility.yul\":2866:2872   */\n  dup5\n    /* \"#utility.yul\":2861:2864   */\n  dup5\n    /* \"#utility.yul\":2857:2873   */\n  add\n    /* \"#utility.yul\":2850:2877   */\n  mstore\n    /* \"#utility.yul\":2786:2887   */\ntag_73:\n    /* \"#utility.yul\":2635:2893   */\n  pop\n    /* \"#utility.yul\":2586:2893   */\n  pop\n  pop\n  pop\n  jump\t// out\n    /* \"#utility.yul\":2899:3219   */\ntag_11:\n    /* \"#utility.yul\":2943:2949   */\n  0x00\n    /* \"#utility.yul\":2980:2981   */\n  0x02\n    /* \"#utility.yul\":2974:2978   */\n  dup3\n    /* \"#utility.yul\":2970:2982   */\n  div\n    /* \"#utility.yul\":2960:2982   */\n  swap1\n  pop\n    /* \"#utility.yul\":3027:3028   */\n  0x01\n    /* \"#utility.yul\":3021:3025   */\n  dup3\n    /* \"#utility.yul\":3017:3029   */\n  and\n    /* \"#utility.yul\":3048:3066   */\n  dup1\n    /* \"#utility.yul\":3038:3119   */\n  tag_75\n  jumpi\n    /* \"#utility.yul\":3104:3108   */\n  0x7f\n    /* \"#utility.yul\":3096:3102   */\n  dup3\n    /* \"#utility.yul\":3092:3109   */\n  and\n    /* \"#utility.yul\":3082:3109   */\n  swap2\n  pop\n    /* \"#utility.yul\":3038:3119   */\ntag_75:\n    /* \"#utility.yul\":3166:3168   */\n  0x20\n    /* \"#utility.yul\":3158:3164   */\n  dup3\n    /* \"#utility.yul\":3155:3169   */\n  lt\n    /* \"#utility.yul\":3135:3153   */\n  dup2\n    /* \"#utility.yul\":3132:3170   */\n  eq\n    /* \"#utility.yul\":3129:3213   */\n  iszero\n  tag_76\n  jumpi\n    /* \"#utility.yul\":3185:3203   */\n  tag_77\n  tag_78\n  jump\t// in\ntag_77:\n    /* \"#utility.yul\":3129:3213   */\ntag_76:\n    /* \"#utility.yul\":2950:3219   */\n  pop\n    /* \"#utility.yul\":2899:3219   */\n  swap2\n  swap1\n  pop\n  jump\t// out\n    /* \"#utility.yul\":3225:3506   */\ntag_59:\n    /* \"#utility.yul\":3308:3335   */\n  tag_80\n    /* \"#utility.yul\":3330:3334   */\n  dup3\n    /* \"#utility.yul\":3308:3335   */\n  tag_66\n  jump\t// in\ntag_80:\n    /* \"#utility.yul\":3300:3306   */\n  dup2\n    /* \"#utility.yul\":3296:3336   */\n  add\n    /* \"#utility.yul\":3438:3444   */\n  dup2\n    /* \"#utility.yul\":3426:3436   */\n  dup2\n    /* \"#utility.yul\":3423:3445   */\n  lt\n    /* \"#utility.yul\":3402:3420   */\n  0xffffffffffffffff\n    /* \"#utility.yul\":3390:3400   */\n  dup3\n    /* \"#utility.yul\":3387:3421   */\n  gt\n    /* \"#utility.yul\":3384:3446   */\n  or\n    /* \"#utility.yul\":3381:3469   */\n  iszero\n  tag_81\n  jumpi\n    /* \"#utility.yul\":3449:3467   */\n  tag_82\n  tag_64\n  jump\t// in\ntag_82:\n    /* \"#utility.yul\":3381:3469   */\ntag_81:\n    /* \"#utility.yul\":3489:3499   */\n  dup1\n    /* \"#utility.yul\":3485:3487   */\n  0x40\n    /* \"#utility.yul\":3478:3500   */\n  mstore\n    /* \"#utility.yul\":3268:3506   */\n  pop\n    /* \"#utility.yul\":3225:3506   */\n  pop\n  pop\n  jump\t// out\n    /* \"#utility.yul\":3512:3692   */\ntag_78:\n    /* \"#utility.yul\":3560:3637   */\n  0x4e487b7100000000000000000000000000000000000000000000000000000000\n    /* \"#utility.yul\":3557:3558   */\n  0x00\n    /* \"#utility.yul\":3550:3638   */\n  mstore\n    /* \"#utility.yul\":3657:3661   */\n  0x22\n    /* \"#utility.yul\":3654:3655   */\n  0x04\n    /* \"#utility.yul\":3647:3662   */\n  mstore\n    /* \"#utility.yul\":3681:3685   */\n  0x24\n    /* \"#utility.yul\":3678:3679   */\n  0x00\n    /* \"#utility.yul\":3671:3686   */\n  revert\n    /* \"#utility.yul\":3698:3878   */\ntag_64:\n    /* \"#utility.yul\":3746:3823   */\n  0x4e487b7100000000000000000000000000000000000000000000000000000000\n    /* \"#utility.yul\":3743:3744   */\n  0x00\n    /* \"#utility.yul\":3736:3824   */\n  mstore\n    /* \"#utility.yul\":3843:3847   */\n  0x41\n    /* \"#utility.yul\":3840:3841   */\n  0x04\n    /* \"#utility.yul\":3833:3848   */\n  mstore\n    /* \"#utility.yul\":3867:3871   */\n  0x24\n    /* \"#utility.yul\":3864:3865   */\n  0x00\n    /* \"#utility.yul\":3857:3872   */\n  revert\n    /* \"#utility.yul\":3884:4001   */\ntag_37:\n    /* \"#utility.yul\":3993:3994   */\n  0x00\n    /* \"#utility.yul\":3990:3991   */\n  dup1\n    /* \"#utility.yul\":3983:3995   */\n  revert\n    /* \"#utility.yul\":4007:4124   */\ntag_30:\n    /* \"#utility.yul\":4116:4117   */\n  0x00\n    /* \"#utility.yul\":4113:4114   */\n  dup1\n    /* \"#utility.yul\":4106:4118   */\n  revert\n    /* \"#utility.yul\":4130:4247   */\ntag_49:\n    /* \"#utility.yul\":4239:4240   */\n  0x00\n    /* \"#utility.yul\":4236:4237   */\n  dup1\n    /* \"#utility.yul\":4229:4241   */\n  revert\n    /* \"#utility.yul\":4253:4370   */\ntag_46:\n    /* \"#utility.yul\":4362:4363   */\n  0x00\n    /* \"#utility.yul\":4359:4360   */\n  dup1\n    /* \"#utility.yul\":4352:4364   */\n  revert\n    /* \"#utility.yul\":4376:4478   */\ntag_66:\n    /* \"#utility.yul\":4417:4423   */\n  0x00\n    /* \"#utility.yul\":4468:4470   */\n  0x1f\n    /* \"#utility.yul\":4464:4471   */\n  not\n    /* \"#utility.yul\":4459:4461   */\n  0x1f\n    /* \"#utility.yul\":4452:4457   */\n  dup4\n    /* \"#utility.yul\":4448:4462   */\n  add\n    /* \"#utility.yul\":4444:4472   */\n  and\n    /* \"#utility.yul\":4434:4472   */\n  swap1\n  pop\n    /* \"#utility.yul\":4376:4478   */\n  swap2\n  swap1\n  pop\n  jump\t// out\n    /* \"#utility.yul\":4484:4606   */\ntag_42:\n    /* \"#utility.yul\":4557:4581   */\n  tag_91\n    /* \"#utility.yul\":4575:4580   */\n  dup2\n    /* \"#utility.yul\":4557:4581   */\n  tag_67\n  jump\t// in\ntag_91:\n    /* \"#utility.yul\":4550:4555   */\n  dup2\n    /* \"#utility.yul\":4547:4582   */\n  eq\n    /* \"#utility.yul\":4537:4600   */\n  tag_92\n  jumpi\n    /* \"#utility.yul\":4596:4597   */\n  0x00\n    /* \"#utility.yul\":4593:4594   */\n  dup1\n    /* \"#utility.yul\":4586:4598   */\n  revert\n    /* \"#utility.yul\":4537:4600   */\ntag_92:\n    /* \"#utility.yul\":4484:4606   */\n  pop\n  jump\t// out\n    /* \"contracts/4_Product.sol\":35:10209  contract ProductSC {\r... */\ntag_9:\n  dataSize(sub_0)\n  dup1\n  dataOffset(sub_0)\n  0x00\n  codecopy\n  0x00\n  return\nstop\n\nsub_0: assembly {\n        /* \"contracts/4_Product.sol\":35:10209  contract ProductSC {\r... */\n      mstore(0x40, 0x80)\n      jumpi(tag_1, lt(calldatasize, 0x04))\n      shr(0xe0, calldataload(0x00))\n      dup1\n      0xa0712d68\n      gt\n      tag_14\n      jumpi\n      dup1\n      0xa0712d68\n      eq\n      tag_8\n      jumpi\n      dup1\n      0xa3e67610\n      eq\n      tag_9\n      jumpi\n      dup1\n      0xa4821719\n      eq\n      tag_10\n      jumpi\n      dup1\n      0xb292abf1\n      eq\n      tag_11\n      jumpi\n      dup1\n      0xcd0c5896\n      eq\n      tag_12\n      jumpi\n      dup1\n      0xeedc966a\n      eq\n      tag_13\n      jumpi\n      jump(tag_1)\n    tag_14:\n      dup1\n      0x0319c2d8\n      eq\n      tag_2\n      jumpi\n      dup1\n      0x06fdde03\n      eq\n      tag_3\n      jumpi\n      dup1\n      0x40932fc2\n      eq\n      tag_4\n      jumpi\n      dup1\n      0x68cdafe6\n      eq\n      tag_5\n      jumpi\n      dup1\n      0x95d89b41\n      eq\n      tag_6\n      jumpi\n      dup1\n      0x9dc29fac\n      eq\n      tag_7\n      jumpi\n    tag_1:\n      0x00\n      dup1\n      revert\n        /* \"contracts/4_Product.sol\":6266:6822  function produceProduct(uint256 _id, uint256 _timestamp, uint256 _price) public OnlyProducer{\r... */\n    tag_2:\n      callvalue\n      dup1\n      iszero\n      tag_15\n      jumpi\n      0x00\n      dup1\n      revert\n    tag_15:\n      pop\n      tag_16\n      0x04\n      dup1\n      calldatasize\n      sub\n      dup2\n      add\n      swap1\n      tag_17\n      swap2\n      swap1\n      tag_18\n      jump\t// in\n    tag_17:\n      tag_19\n      jump\t// in\n    tag_16:\n      stop\n        /* \"contracts/4_Product.sol\":67:85  string public name */\n    tag_3:\n      callvalue\n      dup1\n      iszero\n      tag_20\n      jumpi\n      0x00\n      dup1\n      revert\n    tag_20:\n      pop\n      tag_21\n      tag_22\n      jump\t// in\n    tag_21:\n      mload(0x40)\n      tag_23\n      swap2\n      swap1\n      tag_24\n      jump\t// in\n    tag_23:\n      mload(0x40)\n      dup1\n      swap2\n      sub\n      swap1\n      return\n        /* \"contracts/4_Product.sol\":5888:6147  function register(address _addr, Role _role, string memory _name) public {\r... */\n    tag_4:\n      callvalue\n      dup1\n      iszero\n      tag_25\n      jumpi\n      0x00\n      dup1\n      revert\n    tag_25:\n      pop\n      tag_26\n      0x04\n      dup1\n      calldatasize\n      sub\n      dup2\n      add\n      swap1\n      tag_27\n      swap2\n      swap1\n      tag_28\n      jump\t// in\n    tag_27:\n      tag_29\n      jump\t// in\n    tag_26:\n      stop\n        /* \"contracts/4_Product.sol\":5520:5876  function tokenTransfer(address _to, uint256 _amount) public returns (bool) {\r... */\n    tag_5:\n      callvalue\n      dup1\n      iszero\n      tag_30\n      jumpi\n      0x00\n      dup1\n      revert\n    tag_30:\n      pop\n      tag_31\n      0x04\n      dup1\n      calldatasize\n      sub\n      dup2\n      add\n      swap1\n      tag_32\n      swap2\n      swap1\n      tag_33\n      jump\t// in\n    tag_32:\n      tag_34\n      jump\t// in\n    tag_31:\n      mload(0x40)\n      tag_35\n      swap2\n      swap1\n      tag_36\n      jump\t// in\n    tag_35:\n      mload(0x40)\n      dup1\n      swap2\n      sub\n      swap1\n      return\n        /* \"contracts/4_Product.sol\":114:134  string public symbol */\n    tag_6:\n      callvalue\n      dup1\n      iszero\n      tag_37\n      jumpi\n      0x00\n      dup1\n      revert\n    tag_37:\n      pop\n      tag_38\n      tag_39\n      jump\t// in\n    tag_38:\n      mload(0x40)\n      tag_40\n      swap2\n      swap1\n      tag_24\n      jump\t// in\n    tag_40:\n      mload(0x40)\n      dup1\n      swap2\n      sub\n      swap1\n      return\n        /* \"contracts/4_Product.sol\":4474:4891  function burn(address _account, uint256 _amount) public OnlyTokenOwner {\r... */\n    tag_7:\n      callvalue\n      dup1\n      iszero\n      tag_41\n      jumpi\n      0x00\n      dup1\n      revert\n    tag_41:\n      pop\n      tag_42\n      0x04\n      dup1\n      calldatasize\n      sub\n      dup2\n      add\n      swap1\n      tag_43\n      swap2\n      swap1\n      tag_33\n      jump\t// in\n    tag_43:\n      tag_44\n      jump\t// in\n    tag_42:\n      stop\n        /* \"contracts/4_Product.sol\":4095:4317  function mint(uint256 _amount) public OnlyTokenOwner {\r... */\n    tag_8:\n      callvalue\n      dup1\n      iszero\n      tag_45\n      jumpi\n      0x00\n      dup1\n      revert\n    tag_45:\n      pop\n      tag_46\n      0x04\n      dup1\n      calldatasize\n      sub\n      dup2\n      add\n      swap1\n      tag_47\n      swap2\n      swap1\n      tag_48\n      jump\t// in\n    tag_47:\n      tag_49\n      jump\t// in\n    tag_46:\n      stop\n        /* \"contracts/4_Product.sol\":165:199  address payable public  tokenOwner */\n    tag_9:\n      callvalue\n      dup1\n      iszero\n      tag_50\n      jumpi\n      0x00\n      dup1\n      revert\n    tag_50:\n      pop\n      tag_51\n      tag_52\n      jump\t// in\n    tag_51:\n      mload(0x40)\n      tag_53\n      swap2\n      swap1\n      tag_54\n      jump\t// in\n    tag_53:\n      mload(0x40)\n      dup1\n      swap2\n      sub\n      swap1\n      return\n        /* \"contracts/4_Product.sol\":4949:5446  function buyToken() public payable {\r... */\n    tag_10:\n      tag_55\n      tag_56\n      jump\t// in\n    tag_55:\n      stop\n        /* \"contracts/4_Product.sol\":10028:10204  function getActorInfo(address _addr) public view returns\r... */\n    tag_11:\n      callvalue\n      dup1\n      iszero\n      tag_57\n      jumpi\n      0x00\n      dup1\n      revert\n    tag_57:\n      pop\n      tag_58\n      0x04\n      dup1\n      calldatasize\n      sub\n      dup2\n      add\n      swap1\n      tag_59\n      swap2\n      swap1\n      tag_60\n      jump\t// in\n    tag_59:\n      tag_61\n      jump\t// in\n    tag_58:\n      mload(0x40)\n      tag_62\n      swap3\n      swap2\n      swap1\n      tag_63\n      jump\t// in\n    tag_62:\n      mload(0x40)\n      dup1\n      swap2\n      sub\n      swap1\n      return\n        /* \"contracts/4_Product.sol\":3873:3979  function etherBalance(address _addr) public view returns (uint256) {\r... */\n    tag_12:\n      callvalue\n      dup1\n      iszero\n      tag_64\n      jumpi\n      0x00\n      dup1\n      revert\n    tag_64:\n      pop\n      tag_65\n      0x04\n      dup1\n      calldatasize\n      sub\n      dup2\n      add\n      swap1\n      tag_66\n      swap2\n      swap1\n      tag_60\n      jump\t// in\n    tag_66:\n      tag_67\n      jump\t// in\n    tag_65:\n      mload(0x40)\n      tag_68\n      swap2\n      swap1\n      tag_69\n      jump\t// in\n    tag_68:\n      mload(0x40)\n      dup1\n      swap2\n      sub\n      swap1\n      return\n        /* \"contracts/4_Product.sol\":3699:3807  function tokenBalance(address _addr) public view returns (uint256) {\r... */\n    tag_13:\n      callvalue\n      dup1\n      iszero\n      tag_70\n      jumpi\n      0x00\n      dup1\n      revert\n    tag_70:\n      pop\n      tag_71\n      0x04\n      dup1\n      calldatasize\n      sub\n      dup2\n      add\n      swap1\n      tag_72\n      swap2\n      swap1\n      tag_60\n      jump\t// in\n    tag_72:\n      tag_73\n      jump\t// in\n    tag_71:\n      mload(0x40)\n      tag_74\n      swap2\n      swap1\n      tag_69\n      jump\t// in\n    tag_74:\n      mload(0x40)\n      dup1\n      swap2\n      sub\n      swap1\n      return\n        /* \"contracts/4_Product.sol\":6266:6822  function produceProduct(uint256 _id, uint256 _timestamp, uint256 _price) public OnlyProducer{\r... */\n    tag_19:\n        /* \"contracts/4_Product.sol\":2841:2854  Role.Producer */\n      0x00\n        /* \"contracts/4_Product.sol\":2814:2854  actors[msg.sender].role == Role.Producer */\n      0x04\n      dup2\n      gt\n      iszero\n      tag_76\n      jumpi\n      tag_77\n      tag_78\n      jump\t// in\n    tag_77:\n    tag_76:\n        /* \"contracts/4_Product.sol\":2814:2820  actors */\n      0x05\n        /* \"contracts/4_Product.sol\":2814:2832  actors[msg.sender] */\n      0x00\n        /* \"contracts/4_Product.sol\":2821:2831  msg.sender */\n      caller\n        /* \"contracts/4_Product.sol\":2814:2832  actors[msg.sender] */\n      0xffffffffffffffffffffffffffffffffffffffff\n      and\n      0xffffffffffffffffffffffffffffffffffffffff\n      and\n      dup2\n      mstore\n      0x20\n      add\n      swap1\n      dup2\n      mstore\n      0x20\n      add\n      0x00\n      keccak256\n        /* \"contracts/4_Product.sol\":2814:2837  actors[msg.sender].role */\n      0x00\n      add\n      0x00\n      swap1\n      sload\n      swap1\n      0x0100\n      exp\n      swap1\n      div\n      0xff\n      and\n        /* \"contracts/4_Product.sol\":2814:2854  actors[msg.sender].role == Role.Producer */\n      0x04\n      dup2\n      gt\n      iszero\n      tag_79\n      jumpi\n      tag_80\n      tag_78\n      jump\t// in\n    tag_80:\n    tag_79:\n      eq\n        /* \"contracts/4_Product.sol\":2806:2883  require(actors[msg.sender].role == Role.Producer,'caller is not a producer.') */\n      tag_81\n      jumpi\n      mload(0x40)\n      0x08c379a000000000000000000000000000000000000000000000000000000000\n      dup2\n      mstore\n      0x04\n      add\n      tag_82\n      swap1\n      tag_83\n      jump\t// in\n    tag_82:\n      mload(0x40)\n      dup1\n      swap2\n      sub\n      swap1\n      revert\n    tag_81:\n        /* \"contracts/4_Product.sol\":6369:6395  Product storage newProduct */\n      0x00\n        /* \"contracts/4_Product.sol\":6398:6405  product */\n      0x06\n        /* \"contracts/4_Product.sol\":6398:6410  product[_id] */\n      0x00\n        /* \"contracts/4_Product.sol\":6406:6409  _id */\n      dup6\n        /* \"contracts/4_Product.sol\":6398:6410  product[_id] */\n      dup2\n      mstore\n      0x20\n      add\n      swap1\n      dup2\n      mstore\n      0x20\n      add\n      0x00\n      keccak256\n        /* \"contracts/4_Product.sol\":6369:6410  Product storage newProduct = product[_id] */\n      swap1\n      pop\n        /* \"contracts/4_Product.sol\":6437:6440  _id */\n      dup4\n        /* \"contracts/4_Product.sol\":6421:6431  newProduct */\n      dup2\n        /* \"contracts/4_Product.sol\":6421:6434  newProduct.ID */\n      0x00\n      add\n        /* \"contracts/4_Product.sol\":6421:6440  newProduct.ID = _id */\n      dup2\n      swap1\n      sstore\n      pop\n        /* \"contracts/4_Product.sol\":6472:6482  msg.sender */\n      caller\n        /* \"contracts/4_Product.sol\":6451:6461  newProduct */\n      dup2\n        /* \"contracts/4_Product.sol\":6451:6469  newProduct.ownerID */\n      0x01\n      add\n      0x00\n        /* \"contracts/4_Product.sol\":6451:6482  newProduct.ownerID = msg.sender */\n      0x0100\n      exp\n      dup2\n      sload\n      dup2\n      0xffffffffffffffffffffffffffffffffffffffff\n      mul\n      not\n      and\n      swap1\n      dup4\n      0xffffffffffffffffffffffffffffffffffffffff\n      and\n      mul\n      or\n      swap1\n      sstore\n      pop\n        /* \"contracts/4_Product.sol\":6517:6527  msg.sender */\n      caller\n        /* \"contracts/4_Product.sol\":6493:6503  newProduct */\n      dup2\n        /* \"contracts/4_Product.sol\":6493:6514  newProduct.producerID */\n      0x02\n      add\n      0x00\n        /* \"contracts/4_Product.sol\":6493:6527  newProduct.producerID = msg.sender */\n      0x0100\n      exp\n      dup2\n      sload\n      dup2\n      0xffffffffffffffffffffffffffffffffffffffff\n      mul\n      not\n      and\n      swap1\n      dup4\n      0xffffffffffffffffffffffffffffffffffffffff\n      and\n      mul\n      or\n      swap1\n      sstore\n      pop\n        /* \"contracts/4_Product.sol\":6564:6574  _timestamp */\n      dup3\n        /* \"contracts/4_Product.sol\":6538:6548  newProduct */\n      dup2\n        /* \"contracts/4_Product.sol\":6538:6558  newProduct.timestamp */\n      0x03\n      add\n        /* \"contracts/4_Product.sol\":6559:6560  0 */\n      0x00\n        /* \"contracts/4_Product.sol\":6538:6561  newProduct.timestamp[0] */\n      0x04\n      dup2\n      lt\n      tag_85\n      jumpi\n      tag_86\n      tag_87\n      jump\t// in\n    tag_86:\n    tag_85:\n      add\n        /* \"contracts/4_Product.sol\":6538:6574  newProduct.timestamp[0] = _timestamp */\n      dup2\n      swap1\n      sstore\n      pop\n        /* \"contracts/4_Product.sol\":6618:6632  State.Produced */\n      0x00\n        /* \"contracts/4_Product.sol\":6593:6603  newProduct */\n      dup2\n        /* \"contracts/4_Product.sol\":6593:6616  newProduct.productState */\n      0x07\n      add\n      0x00\n        /* \"contracts/4_Product.sol\":6593:6632  newProduct.productState= State.Produced */\n      0x0100\n      exp\n      dup2\n      sload\n      dup2\n      0xff\n      mul\n      not\n      and\n      swap1\n      dup4\n      0x05\n      dup2\n      gt\n      iszero\n      tag_89\n      jumpi\n      tag_90\n      tag_78\n      jump\t// in\n    tag_90:\n    tag_89:\n      mul\n      or\n      swap1\n      sstore\n      pop\n        /* \"contracts/4_Product.sol\":6675:6681  _price */\n      dup2\n        /* \"contracts/4_Product.sol\":6651:6661  newProduct */\n      dup2\n        /* \"contracts/4_Product.sol\":6651:6674  newProduct.productPrice */\n      0x08\n      add\n        /* \"contracts/4_Product.sol\":6651:6681  newProduct.productPrice=_price */\n      dup2\n      swap1\n      sstore\n      pop\n        /* \"contracts/4_Product.sol\":6726:6727  0 */\n      0x00\n        /* \"contracts/4_Product.sol\":6693:6703  newProduct */\n      dup2\n        /* \"contracts/4_Product.sol\":6693:6717  newProduct.distributorID */\n      0x09\n      add\n      0x00\n        /* \"contracts/4_Product.sol\":6693:6728  newProduct.distributorID=address(0) */\n      0x0100\n      exp\n      dup2\n      sload\n      dup2\n      0xffffffffffffffffffffffffffffffffffffffff\n      mul\n      not\n      and\n      swap1\n      dup4\n      0xffffffffffffffffffffffffffffffffffffffff\n      and\n      mul\n      or\n      swap1\n      sstore\n      pop\n        /* \"contracts/4_Product.sol\":6769:6770  0 */\n      0x00\n        /* \"contracts/4_Product.sol\":6739:6749  newProduct */\n      dup2\n        /* \"contracts/4_Product.sol\":6739:6760  newProduct.retailerID */\n      0x0a\n      add\n      0x00\n        /* \"contracts/4_Product.sol\":6739:6771  newProduct.retailerID=address(0) */\n      0x0100\n      exp\n      dup2\n      sload\n      dup2\n      0xffffffffffffffffffffffffffffffffffffffff\n      mul\n      not\n      and\n      swap1\n      dup4\n      0xffffffffffffffffffffffffffffffffffffffff\n      and\n      mul\n      or\n      swap1\n      sstore\n      pop\n        /* \"contracts/4_Product.sol\":6812:6813  0 */\n      0x00\n        /* \"contracts/4_Product.sol\":6782:6792  newProduct */\n      dup2\n        /* \"contracts/4_Product.sol\":6782:6803  newProduct.consumerID */\n      0x0b\n      add\n      0x00\n        /* \"contracts/4_Product.sol\":6782:6814  newProduct.consumerID=address(0) */\n      0x0100\n      exp\n      dup2\n      sload\n      dup2\n      0xffffffffffffffffffffffffffffffffffffffff\n      mul\n      not\n      and\n      swap1\n      dup4\n      0xffffffffffffffffffffffffffffffffffffffff\n      and\n      mul\n      or\n      swap1\n      sstore\n      pop\n        /* \"contracts/4_Product.sol\":6358:6822  {\r... */\n      pop\n        /* \"contracts/4_Product.sol\":6266:6822  function produceProduct(uint256 _id, uint256 _timestamp, uint256 _price) public OnlyProducer{\r... */\n      pop\n      pop\n      pop\n      jump\t// out\n        /* \"contracts/4_Product.sol\":67:85  string public name */\n    tag_22:\n      0x00\n      dup1\n      sload\n      tag_91\n      swap1\n      tag_92\n      jump\t// in\n    tag_91:\n      dup1\n      0x1f\n      add\n      0x20\n      dup1\n      swap2\n      div\n      mul\n      0x20\n      add\n      mload(0x40)\n      swap1\n      dup2\n      add\n      0x40\n      mstore\n      dup1\n      swap3\n      swap2\n      swap1\n      dup2\n      dup2\n      mstore\n      0x20\n      add\n      dup3\n      dup1\n      sload\n      tag_93\n      swap1\n      tag_92\n      jump\t// in\n    tag_93:\n      dup1\n      iszero\n      tag_94\n      jumpi\n      dup1\n      0x1f\n      lt\n      tag_95\n      jumpi\n      0x0100\n      dup1\n      dup4\n      sload\n      div\n      mul\n      dup4\n      mstore\n      swap2\n      0x20\n      add\n      swap2\n      jump(tag_94)\n    tag_95:\n      dup3\n      add\n      swap2\n      swap1\n      0x00\n      mstore\n      keccak256(0x00, 0x20)\n      swap1\n    tag_96:\n      dup2\n      sload\n      dup2\n      mstore\n      swap1\n      0x01\n      add\n      swap1\n      0x20\n      add\n      dup1\n      dup4\n      gt\n      tag_96\n      jumpi\n      dup3\n      swap1\n      sub\n      0x1f\n      and\n      dup3\n      add\n      swap2\n    tag_94:\n      pop\n      pop\n      pop\n      pop\n      pop\n      dup2\n      jump\t// out\n        /* \"contracts/4_Product.sol\":5888:6147  function register(address _addr, Role _role, string memory _name) public {\r... */\n    tag_29:\n        /* \"contracts/4_Product.sol\":5972:5990  Actor memory actor */\n      0x00\n        /* \"contracts/4_Product.sol\":5993:5999  actors */\n      0x05\n        /* \"contracts/4_Product.sol\":5993:6006  actors[_addr] */\n      0x00\n        /* \"contracts/4_Product.sol\":6000:6005  _addr */\n      dup6\n        /* \"contracts/4_Product.sol\":5993:6006  actors[_addr] */\n      0xffffffffffffffffffffffffffffffffffffffff\n      and\n      0xffffffffffffffffffffffffffffffffffffffff\n      and\n      dup2\n      mstore\n      0x20\n      add\n      swap1\n      dup2\n      mstore\n      0x20\n      add\n      0x00\n      keccak256\n        /* \"contracts/4_Product.sol\":5972:6006  Actor memory actor = actors[_addr] */\n      mload(0x40)\n      dup1\n      0x60\n      add\n      0x40\n      mstore\n      swap1\n      dup2\n      0x00\n      dup3\n      add\n      0x00\n      swap1\n      sload\n      swap1\n      0x0100\n      exp\n      swap1\n      div\n      0xff\n      and\n      0x04\n      dup2\n      gt\n      iszero\n      tag_98\n      jumpi\n      tag_99\n      tag_78\n      jump\t// in\n    tag_99:\n    tag_98:\n      0x04\n      dup2\n      gt\n      iszero\n      tag_100\n      jumpi\n      tag_101\n      tag_78\n      jump\t// in\n    tag_101:\n    tag_100:\n      dup2\n      mstore\n      0x20\n      add\n      0x01\n      dup3\n      add\n      dup1\n      sload\n      tag_102\n      swap1\n      tag_92\n      jump\t// in\n    tag_102:\n      dup1\n      0x1f\n      add\n      0x20\n      dup1\n      swap2\n      div\n      mul\n      0x20\n      add\n      mload(0x40)\n      swap1\n      dup2\n      add\n      0x40\n      mstore\n      dup1\n      swap3\n      swap2\n      swap1\n      dup2\n      dup2\n      mstore\n      0x20\n      add\n      dup3\n      dup1\n      sload\n      tag_103\n      swap1\n      tag_92\n      jump\t// in\n    tag_103:\n      dup1\n      iszero\n      tag_104\n      jumpi\n      dup1\n      0x1f\n      lt\n      tag_105\n      jumpi\n      0x0100\n      dup1\n      dup4\n      sload\n      div\n      mul\n      dup4\n      mstore\n      swap2\n      0x20\n      add\n      swap2\n      jump(tag_104)\n    tag_105:\n      dup3\n      add\n      swap2\n      swap1\n      0x00\n      mstore\n      keccak256(0x00, 0x20)\n      swap1\n    tag_106:\n      dup2\n      sload\n      dup2\n      mstore\n      swap1\n      0x01\n      add\n      swap1\n      0x20\n      add\n      dup1\n      dup4\n      gt\n      tag_106\n      jumpi\n      dup3\n      swap1\n      sub\n      0x1f\n      and\n      dup3\n      add\n      swap2\n    tag_104:\n      pop\n      pop\n      pop\n      pop\n      pop\n      dup2\n      mstore\n      0x20\n      add\n      0x02\n      dup3\n      add\n      0x00\n      swap1\n      sload\n      swap1\n      0x0100\n      exp\n      swap1\n      div\n      0xff\n      and\n      iszero\n      iszero\n      iszero\n      iszero\n      dup2\n      mstore\n      pop\n      pop\n      swap1\n      pop\n        /* \"contracts/4_Product.sol\":6030:6035  _role */\n      dup3\n        /* \"contracts/4_Product.sol\":6017:6022  actor */\n      dup2\n        /* \"contracts/4_Product.sol\":6017:6027  actor.role */\n      0x00\n      add\n        /* \"contracts/4_Product.sol\":6017:6035  actor.role = _role */\n      swap1\n      0x04\n      dup2\n      gt\n      iszero\n      tag_107\n      jumpi\n      tag_108\n      tag_78\n      jump\t// in\n    tag_108:\n    tag_107:\n      swap1\n      dup2\n      0x04\n      dup2\n      gt\n      iszero\n      tag_109\n      jumpi\n      tag_110\n      tag_78\n      jump\t// in\n    tag_110:\n    tag_109:\n      dup2\n      mstore\n      pop\n      pop\n        /* \"contracts/4_Product.sol\":6059:6064  _name */\n      dup2\n        /* \"contracts/4_Product.sol\":6046:6051  actor */\n      dup2\n        /* \"contracts/4_Product.sol\":6046:6056  actor.name */\n      0x20\n      add\n        /* \"contracts/4_Product.sol\":6046:6064  actor.name = _name */\n      dup2\n      swap1\n      mstore\n      pop\n        /* \"contracts/4_Product.sol\":6093:6097  true */\n      0x01\n        /* \"contracts/4_Product.sol\":6075:6080  actor */\n      dup2\n        /* \"contracts/4_Product.sol\":6075:6090  actor.isDefined */\n      0x40\n      add\n        /* \"contracts/4_Product.sol\":6075:6097  actor.isDefined = true */\n      swap1\n      iszero\n      iszero\n      swap1\n      dup2\n      iszero\n      iszero\n      dup2\n      mstore\n      pop\n      pop\n        /* \"contracts/4_Product.sol\":6124:6129  actor */\n      dup1\n        /* \"contracts/4_Product.sol\":6108:6114  actors */\n      0x05\n        /* \"contracts/4_Product.sol\":6108:6121  actors[_addr] */\n      0x00\n        /* \"contracts/4_Product.sol\":6115:6120  _addr */\n      dup7\n        /* \"contracts/4_Product.sol\":6108:6121  actors[_addr] */\n      0xffffffffffffffffffffffffffffffffffffffff\n      and\n      0xffffffffffffffffffffffffffffffffffffffff\n      and\n      dup2\n      mstore\n      0x20\n      add\n      swap1\n      dup2\n      mstore\n      0x20\n      add\n      0x00\n      keccak256\n        /* \"contracts/4_Product.sol\":6108:6129  actors[_addr] = actor */\n      0x00\n      dup3\n      add\n      mload\n      dup2\n      0x00\n      add\n      exp(0x0100, 0x00)\n      dup2\n      sload\n      dup2\n      0xff\n      mul\n      not\n      and\n      swap1\n      dup4\n      0x04\n      dup2\n      gt\n      iszero\n      tag_111\n      jumpi\n      tag_112\n      tag_78\n      jump\t// in\n    tag_112:\n    tag_111:\n      mul\n      or\n      swap1\n      sstore\n      pop\n      0x20\n      dup3\n      add\n      mload\n      dup2\n      0x01\n      add\n      swap1\n      dup1\n      mload\n      swap1\n      0x20\n      add\n      swap1\n      tag_113\n      swap3\n      swap2\n      swap1\n      tag_114\n      jump\t// in\n    tag_113:\n      pop\n      0x40\n      dup3\n      add\n      mload\n      dup2\n      0x02\n      add\n      exp(0x0100, 0x00)\n      dup2\n      sload\n      dup2\n      0xff\n      mul\n      not\n      and\n      swap1\n      dup4\n      iszero\n      iszero\n      mul\n      or\n      swap1\n      sstore\n      pop\n      swap1\n      pop\n      pop\n        /* \"contracts/4_Product.sol\":5961:6147  {\r... */\n      pop\n        /* \"contracts/4_Product.sol\":5888:6147  function register(address _addr, Role _role, string memory _name) public {\r... */\n      pop\n      pop\n      pop\n      jump\t// out\n        /* \"contracts/4_Product.sol\":5520:5876  function tokenTransfer(address _to, uint256 _amount) public returns (bool) {\r... */\n    tag_34:\n        /* \"contracts/4_Product.sol\":5589:5593  bool */\n      0x00\n        /* \"contracts/4_Product.sol\":5638:5645  _amount */\n      dup2\n        /* \"contracts/4_Product.sol\":5614:5622  balances */\n      0x04\n        /* \"contracts/4_Product.sol\":5614:5634  balances[msg.sender] */\n      0x00\n        /* \"contracts/4_Product.sol\":5623:5633  msg.sender */\n      caller\n        /* \"contracts/4_Product.sol\":5614:5634  balances[msg.sender] */\n      0xffffffffffffffffffffffffffffffffffffffff\n      and\n      0xffffffffffffffffffffffffffffffffffffffff\n      and\n      dup2\n      mstore\n      0x20\n      add\n      swap1\n      dup2\n      mstore\n      0x20\n      add\n      0x00\n      keccak256\n      sload\n        /* \"contracts/4_Product.sol\":5614:5645  balances[msg.sender] >= _amount */\n      lt\n      iszero\n        /* \"contracts/4_Product.sol\":5606:5646  require(balances[msg.sender] >= _amount) */\n      tag_116\n      jumpi\n      0x00\n      dup1\n      revert\n    tag_116:\n        /* \"contracts/4_Product.sol\":5756:5757  0 */\n      0x00\n        /* \"contracts/4_Product.sol\":5741:5758  _to != address(0) */\n      0xffffffffffffffffffffffffffffffffffffffff\n      and\n        /* \"contracts/4_Product.sol\":5741:5744  _to */\n      dup4\n        /* \"contracts/4_Product.sol\":5741:5758  _to != address(0) */\n      0xffffffffffffffffffffffffffffffffffffffff\n      and\n      eq\n      iszero\n        /* \"contracts/4_Product.sol\":5733:5759  require(_to != address(0)) */\n      tag_117\n      jumpi\n      0x00\n      dup1\n      revert\n    tag_117:\n        /* \"contracts/4_Product.sol\":5804:5811  _amount */\n      dup2\n        /* \"contracts/4_Product.sol\":5780:5788  balances */\n      0x04\n        /* \"contracts/4_Product.sol\":5780:5800  balances[msg.sender] */\n      0x00\n        /* \"contracts/4_Product.sol\":5789:5799  msg.sender */\n      caller\n        /* \"contracts/4_Product.sol\":5780:5800  balances[msg.sender] */\n      0xffffffffffffffffffffffffffffffffffffffff\n      and\n      0xffffffffffffffffffffffffffffffffffffffff\n      and\n      dup2\n      mstore\n      0x20\n      add\n      swap1\n      dup2\n      mstore\n      0x20\n      add\n      0x00\n      keccak256\n      0x00\n        /* \"contracts/4_Product.sol\":5780:5811  balances[msg.sender] -= _amount */\n      dup3\n      dup3\n      sload\n      tag_118\n      swap2\n      swap1\n      tag_119\n      jump\t// in\n    tag_118:\n      swap3\n      pop\n      pop\n      dup2\n      swap1\n      sstore\n      pop\n        /* \"contracts/4_Product.sol\":5839:5846  _amount */\n      dup2\n        /* \"contracts/4_Product.sol\":5822:5830  balances */\n      0x04\n        /* \"contracts/4_Product.sol\":5822:5835  balances[_to] */\n      0x00\n        /* \"contracts/4_Product.sol\":5831:5834  _to */\n      dup6\n        /* \"contracts/4_Product.sol\":5822:5835  balances[_to] */\n      0xffffffffffffffffffffffffffffffffffffffff\n      and\n      0xffffffffffffffffffffffffffffffffffffffff\n      and\n      dup2\n      mstore\n      0x20\n      add\n      swap1\n      dup2\n      mstore\n      0x20\n      add\n      0x00\n      keccak256\n      0x00\n        /* \"contracts/4_Product.sol\":5822:5846  balances[_to] += _amount */\n      dup3\n      dup3\n      sload\n      tag_120\n      swap2\n      swap1\n      tag_121\n      jump\t// in\n    tag_120:\n      swap3\n      pop\n      pop\n      dup2\n      swap1\n      sstore\n      pop\n        /* \"contracts/4_Product.sol\":5864:5868  true */\n      0x01\n        /* \"contracts/4_Product.sol\":5857:5868  return true */\n      swap1\n      pop\n        /* \"contracts/4_Product.sol\":5520:5876  function tokenTransfer(address _to, uint256 _amount) public returns (bool) {\r... */\n      swap3\n      swap2\n      pop\n      pop\n      jump\t// out\n        /* \"contracts/4_Product.sol\":114:134  string public symbol */\n    tag_39:\n      0x01\n      dup1\n      sload\n      tag_122\n      swap1\n      tag_92\n      jump\t// in\n    tag_122:\n      dup1\n      0x1f\n      add\n      0x20\n      dup1\n      swap2\n      div\n      mul\n      0x20\n      add\n      mload(0x40)\n      swap1\n      dup2\n      add\n      0x40\n      mstore\n      dup1\n      swap3\n      swap2\n      swap1\n      dup2\n      dup2\n      mstore\n      0x20\n      add\n      dup3\n      dup1\n      sload\n      tag_123\n      swap1\n      tag_92\n      jump\t// in\n    tag_123:\n      dup1\n      iszero\n      tag_124\n      jumpi\n      dup1\n      0x1f\n      lt\n      tag_125\n      jumpi\n      0x0100\n      dup1\n      dup4\n      sload\n      div\n      mul\n      dup4\n      mstore\n      swap2\n      0x20\n      add\n      swap2\n      jump(tag_124)\n    tag_125:\n      dup3\n      add\n      swap2\n      swap1\n      0x00\n      mstore\n      keccak256(0x00, 0x20)\n      swap1\n    tag_126:\n      dup2\n      sload\n      dup2\n      mstore\n      swap1\n      0x01\n      add\n      swap1\n      0x20\n      add\n      dup1\n      dup4\n      gt\n      tag_126\n      jumpi\n      dup3\n      swap1\n      sub\n      0x1f\n      and\n      dup3\n      add\n      swap2\n    tag_124:\n      pop\n      pop\n      pop\n      pop\n      pop\n      dup2\n      jump\t// out\n        /* \"contracts/4_Product.sol\":4474:4891  function burn(address _account, uint256 _amount) public OnlyTokenOwner {\r... */\n    tag_44:\n        /* \"contracts/4_Product.sol\":2694:2704  tokenOwner */\n      0x02\n      0x00\n      swap1\n      sload\n      swap1\n      0x0100\n      exp\n      swap1\n      div\n      0xffffffffffffffffffffffffffffffffffffffff\n      and\n        /* \"contracts/4_Product.sol\":2680:2704  msg.sender == tokenOwner */\n      0xffffffffffffffffffffffffffffffffffffffff\n      and\n        /* \"contracts/4_Product.sol\":2680:2690  msg.sender */\n      caller\n        /* \"contracts/4_Product.sol\":2680:2704  msg.sender == tokenOwner */\n      0xffffffffffffffffffffffffffffffffffffffff\n      and\n      eq\n        /* \"contracts/4_Product.sol\":2672:2739  require(msg.sender == tokenOwner, 'caller is not the token owner.') */\n      tag_128\n      jumpi\n      mload(0x40)\n      0x08c379a000000000000000000000000000000000000000000000000000000000\n      dup2\n      mstore\n      0x04\n      add\n      tag_129\n      swap1\n      tag_130\n      jump\t// in\n    tag_129:\n      mload(0x40)\n      dup1\n      swap2\n      sub\n      swap1\n      revert\n    tag_128:\n        /* \"contracts/4_Product.sol\":4584:4585  0 */\n      0x00\n        /* \"contracts/4_Product.sol\":4564:4586  _account != address(0) */\n      0xffffffffffffffffffffffffffffffffffffffff\n      and\n        /* \"contracts/4_Product.sol\":4564:4572  _account */\n      dup3\n        /* \"contracts/4_Product.sol\":4564:4586  _account != address(0) */\n      0xffffffffffffffffffffffffffffffffffffffff\n      and\n      eq\n      iszero\n        /* \"contracts/4_Product.sol\":4556:4587  require(_account != address(0)) */\n      tag_132\n      jumpi\n      0x00\n      dup1\n      revert\n    tag_132:\n        /* \"contracts/4_Product.sol\":4712:4720  balances */\n      0x04\n        /* \"contracts/4_Product.sol\":4712:4730  balances[_account] */\n      0x00\n        /* \"contracts/4_Product.sol\":4721:4729  _account */\n      dup4\n        /* \"contracts/4_Product.sol\":4712:4730  balances[_account] */\n      0xffffffffffffffffffffffffffffffffffffffff\n      and\n      0xffffffffffffffffffffffffffffffffffffffff\n      and\n      dup2\n      mstore\n      0x20\n      add\n      swap1\n      dup2\n      mstore\n      0x20\n      add\n      0x00\n      keccak256\n      sload\n        /* \"contracts/4_Product.sol\":4701:4708  _amount */\n      dup2\n        /* \"contracts/4_Product.sol\":4701:4730  _amount <= balances[_account] */\n      gt\n      iszero\n        /* \"contracts/4_Product.sol\":4693:4731  require(_amount <= balances[_account]) */\n      tag_133\n      jumpi\n      0x00\n      dup1\n      revert\n    tag_133:\n        /* \"contracts/4_Product.sol\":4836:4843  _amount */\n      dup1\n        /* \"contracts/4_Product.sol\":4820:4832  _totalSupply */\n      0x03\n      0x00\n        /* \"contracts/4_Product.sol\":4820:4843  _totalSupply -= _amount */\n      dup3\n      dup3\n      sload\n      tag_134\n      swap2\n      swap1\n      tag_119\n      jump\t// in\n    tag_134:\n      swap3\n      pop\n      pop\n      dup2\n      swap1\n      sstore\n      pop\n        /* \"contracts/4_Product.sol\":4876:4883  _amount */\n      dup1\n        /* \"contracts/4_Product.sol\":4854:4862  balances */\n      0x04\n        /* \"contracts/4_Product.sol\":4854:4872  balances[_account] */\n      0x00\n        /* \"contracts/4_Product.sol\":4863:4871  _account */\n      dup5\n        /* \"contracts/4_Product.sol\":4854:4872  balances[_account] */\n      0xffffffffffffffffffffffffffffffffffffffff\n      and\n      0xffffffffffffffffffffffffffffffffffffffff\n      and\n      dup2\n      mstore\n      0x20\n      add\n      swap1\n      dup2\n      mstore\n      0x20\n      add\n      0x00\n      keccak256\n      0x00\n        /* \"contracts/4_Product.sol\":4854:4883  balances[_account] -= _amount */\n      dup3\n      dup3\n      sload\n      tag_135\n      swap2\n      swap1\n      tag_119\n      jump\t// in\n    tag_135:\n      swap3\n      pop\n      pop\n      dup2\n      swap1\n      sstore\n      pop\n        /* \"contracts/4_Product.sol\":4474:4891  function burn(address _account, uint256 _amount) public OnlyTokenOwner {\r... */\n      pop\n      pop\n      jump\t// out\n        /* \"contracts/4_Product.sol\":4095:4317  function mint(uint256 _amount) public OnlyTokenOwner {\r... */\n    tag_49:\n        /* \"contracts/4_Product.sol\":2694:2704  tokenOwner */\n      0x02\n      0x00\n      swap1\n      sload\n      swap1\n      0x0100\n      exp\n      swap1\n      div\n      0xffffffffffffffffffffffffffffffffffffffff\n      and\n        /* \"contracts/4_Product.sol\":2680:2704  msg.sender == tokenOwner */\n      0xffffffffffffffffffffffffffffffffffffffff\n      and\n        /* \"contracts/4_Product.sol\":2680:2690  msg.sender */\n      caller\n        /* \"contracts/4_Product.sol\":2680:2704  msg.sender == tokenOwner */\n      0xffffffffffffffffffffffffffffffffffffffff\n      and\n      eq\n        /* \"contracts/4_Product.sol\":2672:2739  require(msg.sender == tokenOwner, 'caller is not the token owner.') */\n      tag_137\n      jumpi\n      mload(0x40)\n      0x08c379a000000000000000000000000000000000000000000000000000000000\n      dup2\n      mstore\n      0x04\n      add\n      tag_138\n      swap1\n      tag_130\n      jump\t// in\n    tag_138:\n      mload(0x40)\n      dup1\n      swap2\n      sub\n      swap1\n      revert\n    tag_137:\n        /* \"contracts/4_Product.sol\":4175:4182  _amount */\n      dup1\n        /* \"contracts/4_Product.sol\":4159:4171  _totalSupply */\n      0x03\n      0x00\n        /* \"contracts/4_Product.sol\":4159:4182  _totalSupply += _amount */\n      dup3\n      dup3\n      sload\n      tag_140\n      swap2\n      swap1\n      tag_121\n      jump\t// in\n    tag_140:\n      swap3\n      pop\n      pop\n      dup2\n      swap1\n      sstore\n      pop\n        /* \"contracts/4_Product.sol\":4253:4260  _amount */\n      dup1\n        /* \"contracts/4_Product.sol\":4229:4237  balances */\n      0x04\n        /* \"contracts/4_Product.sol\":4229:4249  balances[msg.sender] */\n      0x00\n        /* \"contracts/4_Product.sol\":4238:4248  msg.sender */\n      caller\n        /* \"contracts/4_Product.sol\":4229:4249  balances[msg.sender] */\n      0xffffffffffffffffffffffffffffffffffffffff\n      and\n      0xffffffffffffffffffffffffffffffffffffffff\n      and\n      dup2\n      mstore\n      0x20\n      add\n      swap1\n      dup2\n      mstore\n      0x20\n      add\n      0x00\n      keccak256\n      0x00\n        /* \"contracts/4_Product.sol\":4229:4260  balances[msg.sender] += _amount */\n      dup3\n      dup3\n      sload\n      tag_141\n      swap2\n      swap1\n      tag_121\n      jump\t// in\n    tag_141:\n      swap3\n      pop\n      pop\n      dup2\n      swap1\n      sstore\n      pop\n        /* \"contracts/4_Product.sol\":4095:4317  function mint(uint256 _amount) public OnlyTokenOwner {\r... */\n      pop\n      jump\t// out\n        /* \"contracts/4_Product.sol\":165:199  address payable public  tokenOwner */\n    tag_52:\n      0x02\n      0x00\n      swap1\n      sload\n      swap1\n      0x0100\n      exp\n      swap1\n      div\n      0xffffffffffffffffffffffffffffffffffffffff\n      and\n      dup2\n      jump\t// out\n        /* \"contracts/4_Product.sol\":4949:5446  function buyToken() public payable {\r... */\n    tag_56:\n        /* \"contracts/4_Product.sol\":4994:5010  uint256 tokenNum */\n      0x00\n        /* \"contracts/4_Product.sol\":287:290  100 */\n      0x64\n        /* \"contracts/4_Product.sol\":5013:5022  msg.value */\n      callvalue\n        /* \"contracts/4_Product.sol\":5013:5033  msg.value/tokenPrice */\n      tag_143\n      swap2\n      swap1\n      tag_144\n      jump\t// in\n    tag_143:\n        /* \"contracts/4_Product.sol\":4994:5033  uint256 tokenNum = msg.value/tokenPrice */\n      swap1\n      pop\n        /* \"contracts/4_Product.sol\":5095:5096  0 */\n      0x00\n        /* \"contracts/4_Product.sol\":5083:5092  msg.value */\n      callvalue\n        /* \"contracts/4_Product.sol\":5083:5096  msg.value > 0 */\n      gt\n        /* \"contracts/4_Product.sol\":5075:5097  require(msg.value > 0) */\n      tag_145\n      jumpi\n      0x00\n      dup1\n      revert\n    tag_145:\n        /* \"contracts/4_Product.sol\":5145:5155  tokenOwner */\n      0x02\n      0x00\n      swap1\n      sload\n      swap1\n      0x0100\n      exp\n      swap1\n      div\n      0xffffffffffffffffffffffffffffffffffffffff\n      and\n        /* \"contracts/4_Product.sol\":5145:5164  tokenOwner.transfer */\n      0xffffffffffffffffffffffffffffffffffffffff\n      and\n        /* \"contracts/4_Product.sol\":5145:5175  tokenOwner.transfer(msg.value) */\n      0x08fc\n        /* \"contracts/4_Product.sol\":5165:5174  msg.value */\n      callvalue\n        /* \"contracts/4_Product.sol\":5145:5175  tokenOwner.transfer(msg.value) */\n      swap1\n      dup2\n      iszero\n      mul\n      swap1\n      mload(0x40)\n      0x00\n      mload(0x40)\n      dup1\n      dup4\n      sub\n      dup2\n      dup6\n      dup9\n      dup9\n      call\n      swap4\n      pop\n      pop\n      pop\n      pop\n      iszero\n      dup1\n      iszero\n      tag_147\n      jumpi\n      returndatasize\n      0x00\n      dup1\n      returndatacopy\n      revert(0x00, returndatasize)\n    tag_147:\n      pop\n        /* \"contracts/4_Product.sol\":5275:5283  tokenNum */\n      dup1\n        /* \"contracts/4_Product.sol\":5251:5259  balances */\n      0x04\n        /* \"contracts/4_Product.sol\":5251:5271  balances[tokenOwner] */\n      0x00\n        /* \"contracts/4_Product.sol\":5260:5270  tokenOwner */\n      0x02\n      0x00\n      swap1\n      sload\n      swap1\n      0x0100\n      exp\n      swap1\n      div\n      0xffffffffffffffffffffffffffffffffffffffff\n      and\n        /* \"contracts/4_Product.sol\":5251:5271  balances[tokenOwner] */\n      0xffffffffffffffffffffffffffffffffffffffff\n      and\n      0xffffffffffffffffffffffffffffffffffffffff\n      and\n      dup2\n      mstore\n      0x20\n      add\n      swap1\n      dup2\n      mstore\n      0x20\n      add\n      0x00\n      keccak256\n      0x00\n        /* \"contracts/4_Product.sol\":5251:5283  balances[tokenOwner] -= tokenNum */\n      dup3\n      dup3\n      sload\n      tag_148\n      swap2\n      swap1\n      tag_119\n      jump\t// in\n    tag_148:\n      swap3\n      pop\n      pop\n      dup2\n      swap1\n      sstore\n      pop\n        /* \"contracts/4_Product.sol\":5376:5384  tokenNum */\n      dup1\n        /* \"contracts/4_Product.sol\":5352:5360  balances */\n      0x04\n        /* \"contracts/4_Product.sol\":5352:5372  balances[msg.sender] */\n      0x00\n        /* \"contracts/4_Product.sol\":5361:5371  msg.sender */\n      caller\n        /* \"contracts/4_Product.sol\":5352:5372  balances[msg.sender] */\n      0xffffffffffffffffffffffffffffffffffffffff\n      and\n      0xffffffffffffffffffffffffffffffffffffffff\n      and\n      dup2\n      mstore\n      0x20\n      add\n      swap1\n      dup2\n      mstore\n      0x20\n      add\n      0x00\n      keccak256\n      0x00\n        /* \"contracts/4_Product.sol\":5352:5384  balances[msg.sender] += tokenNum */\n      dup3\n      dup3\n      sload\n      tag_149\n      swap2\n      swap1\n      tag_121\n      jump\t// in\n    tag_149:\n      swap3\n      pop\n      pop\n      dup2\n      swap1\n      sstore\n      pop\n        /* \"contracts/4_Product.sol\":4984:5446  {\r... */\n      pop\n        /* \"contracts/4_Product.sol\":4949:5446  function buyToken() public payable {\r... */\n      jump\t// out\n        /* \"contracts/4_Product.sol\":10028:10204  function getActorInfo(address _addr) public view returns\r... */\n    tag_61:\n        /* \"contracts/4_Product.sol\":10093:10103  Role _role */\n      0x00\n        /* \"contracts/4_Product.sol\":10110:10129  string memory _name */\n      0x60\n        /* \"contracts/4_Product.sol\":10149:10155  actors */\n      0x05\n        /* \"contracts/4_Product.sol\":10149:10162  actors[_addr] */\n      0x00\n        /* \"contracts/4_Product.sol\":10156:10161  _addr */\n      dup5\n        /* \"contracts/4_Product.sol\":10149:10162  actors[_addr] */\n      0xffffffffffffffffffffffffffffffffffffffff\n      and\n      0xffffffffffffffffffffffffffffffffffffffff\n      and\n      dup2\n      mstore\n      0x20\n      add\n      swap1\n      dup2\n      mstore\n      0x20\n      add\n      0x00\n      keccak256\n        /* \"contracts/4_Product.sol\":10149:10167  actors[_addr].role */\n      0x00\n      add\n      0x00\n      swap1\n      sload\n      swap1\n      0x0100\n      exp\n      swap1\n      div\n      0xff\n      and\n        /* \"contracts/4_Product.sol\":10141:10167  _role = actors[_addr].role */\n      swap2\n      pop\n        /* \"contracts/4_Product.sol\":10182:10188  actors */\n      0x05\n        /* \"contracts/4_Product.sol\":10182:10195  actors[_addr] */\n      0x00\n        /* \"contracts/4_Product.sol\":10189:10194  _addr */\n      dup5\n        /* \"contracts/4_Product.sol\":10182:10195  actors[_addr] */\n      0xffffffffffffffffffffffffffffffffffffffff\n      and\n      0xffffffffffffffffffffffffffffffffffffffff\n      and\n      dup2\n      mstore\n      0x20\n      add\n      swap1\n      dup2\n      mstore\n      0x20\n      add\n      0x00\n      keccak256\n        /* \"contracts/4_Product.sol\":10182:10200  actors[_addr].name */\n      0x01\n      add\n        /* \"contracts/4_Product.sol\":10174:10200  _name = actors[_addr].name */\n      dup1\n      sload\n      tag_151\n      swap1\n      tag_92\n      jump\t// in\n    tag_151:\n      dup1\n      0x1f\n      add\n      0x20\n      dup1\n      swap2\n      div\n      mul\n      0x20\n      add\n      mload(0x40)\n      swap1\n      dup2\n      add\n      0x40\n      mstore\n      dup1\n      swap3\n      swap2\n      swap1\n      dup2\n      dup2\n      mstore\n      0x20\n      add\n      dup3\n      dup1\n      sload\n      tag_152\n      swap1\n      tag_92\n      jump\t// in\n    tag_152:\n      dup1\n      iszero\n      tag_153\n      jumpi\n      dup1\n      0x1f\n      lt\n      tag_154\n      jumpi\n      0x0100\n      dup1\n      dup4\n      sload\n      div\n      mul\n      dup4\n      mstore\n      swap2\n      0x20\n      add\n      swap2\n      jump(tag_153)\n    tag_154:\n      dup3\n      add\n      swap2\n      swap1\n      0x00\n      mstore\n      keccak256(0x00, 0x20)\n      swap1\n    tag_155:\n      dup2\n      sload\n      dup2\n      mstore\n      swap1\n      0x01\n      add\n      swap1\n      0x20\n      add\n      dup1\n      dup4\n      gt\n      tag_155\n      jumpi\n      dup3\n      swap1\n      sub\n      0x1f\n      and\n      dup3\n      add\n      swap2\n    tag_153:\n      pop\n      pop\n      pop\n      pop\n      pop\n      swap1\n      pop\n        /* \"contracts/4_Product.sol\":10028:10204  function getActorInfo(address _addr) public view returns\r... */\n      swap2\n      pop\n      swap2\n      jump\t// out\n        /* \"contracts/4_Product.sol\":3873:3979  function etherBalance(address _addr) public view returns (uint256) {\r... */\n    tag_67:\n        /* \"contracts/4_Product.sol\":3931:3938  uint256 */\n      0x00\n        /* \"contracts/4_Product.sol\":3958:3963  _addr */\n      dup2\n        /* \"contracts/4_Product.sol\":3958:3971  _addr.balance */\n      0xffffffffffffffffffffffffffffffffffffffff\n      and\n      balance\n        /* \"contracts/4_Product.sol\":3951:3971  return _addr.balance */\n      swap1\n      pop\n        /* \"contracts/4_Product.sol\":3873:3979  function etherBalance(address _addr) public view returns (uint256) {\r... */\n      swap2\n      swap1\n      pop\n      jump\t// out\n        /* \"contracts/4_Product.sol\":3699:3807  function tokenBalance(address _addr) public view returns (uint256) {\r... */\n    tag_73:\n        /* \"contracts/4_Product.sol\":3757:3764  uint256 */\n      0x00\n        /* \"contracts/4_Product.sol\":3784:3792  balances */\n      0x04\n        /* \"contracts/4_Product.sol\":3784:3799  balances[_addr] */\n      0x00\n        /* \"contracts/4_Product.sol\":3793:3798  _addr */\n      dup4\n        /* \"contracts/4_Product.sol\":3784:3799  balances[_addr] */\n      0xffffffffffffffffffffffffffffffffffffffff\n      and\n      0xffffffffffffffffffffffffffffffffffffffff\n      and\n      dup2\n      mstore\n      0x20\n      add\n      swap1\n      dup2\n      mstore\n      0x20\n      add\n      0x00\n      keccak256\n      sload\n        /* \"contracts/4_Product.sol\":3777:3799  return balances[_addr] */\n      swap1\n      pop\n        /* \"contracts/4_Product.sol\":3699:3807  function tokenBalance(address _addr) public view returns (uint256) {\r... */\n      swap2\n      swap1\n      pop\n      jump\t// out\n    tag_114:\n      dup3\n      dup1\n      sload\n      tag_158\n      swap1\n      tag_92\n      jump\t// in\n    tag_158:\n      swap1\n      0x00\n      mstore\n      keccak256(0x00, 0x20)\n      swap1\n      0x1f\n      add\n      0x20\n      swap1\n      div\n      dup2\n      add\n      swap3\n      dup3\n      tag_160\n      jumpi\n      0x00\n      dup6\n      sstore\n      jump(tag_159)\n    tag_160:\n      dup3\n      0x1f\n      lt\n      tag_161\n      jumpi\n      dup1\n      mload\n      not(0xff)\n      and\n      dup4\n      dup1\n      add\n      or\n      dup6\n      sstore\n      jump(tag_159)\n    tag_161:\n      dup3\n      dup1\n      add\n      0x01\n      add\n      dup6\n      sstore\n      dup3\n      iszero\n      tag_159\n      jumpi\n      swap2\n      dup3\n      add\n    tag_162:\n      dup3\n      dup2\n      gt\n      iszero\n      tag_163\n      jumpi\n      dup3\n      mload\n      dup3\n      sstore\n      swap2\n      0x20\n      add\n      swap2\n      swap1\n      0x01\n      add\n      swap1\n      jump(tag_162)\n    tag_163:\n    tag_159:\n      pop\n      swap1\n      pop\n      tag_164\n      swap2\n      swap1\n      tag_165\n      jump\t// in\n    tag_164:\n      pop\n      swap1\n      jump\t// out\n    tag_165:\n    tag_166:\n      dup1\n      dup3\n      gt\n      iszero\n      tag_167\n      jumpi\n      0x00\n      dup2\n      0x00\n      swap1\n      sstore\n      pop\n      0x01\n      add\n      jump(tag_166)\n    tag_167:\n      pop\n      swap1\n      jump\t// out\n        /* \"#utility.yul\":7:419   */\n    tag_169:\n        /* \"#utility.yul\":85:90   */\n      0x00\n        /* \"#utility.yul\":110:176   */\n      tag_171\n        /* \"#utility.yul\":126:175   */\n      tag_172\n        /* \"#utility.yul\":168:174   */\n      dup5\n        /* \"#utility.yul\":126:175   */\n      tag_173\n      jump\t// in\n    tag_172:\n        /* \"#utility.yul\":110:176   */\n      tag_174\n      jump\t// in\n    tag_171:\n        /* \"#utility.yul\":101:176   */\n      swap1\n      pop\n        /* \"#utility.yul\":199:205   */\n      dup3\n        /* \"#utility.yul\":192:197   */\n      dup2\n        /* \"#utility.yul\":185:206   */\n      mstore\n        /* \"#utility.yul\":237:241   */\n      0x20\n        /* \"#utility.yul\":230:235   */\n      dup2\n        /* \"#utility.yul\":226:242   */\n      add\n        /* \"#utility.yul\":275:278   */\n      dup5\n        /* \"#utility.yul\":266:272   */\n      dup5\n        /* \"#utility.yul\":261:264   */\n      dup5\n        /* \"#utility.yul\":257:273   */\n      add\n        /* \"#utility.yul\":254:279   */\n      gt\n        /* \"#utility.yul\":251:363   */\n      iszero\n      tag_175\n      jumpi\n        /* \"#utility.yul\":282:361   */\n      tag_176\n      tag_177\n      jump\t// in\n    tag_176:\n        /* \"#utility.yul\":251:363   */\n    tag_175:\n        /* \"#utility.yul\":372:413   */\n      tag_178\n        /* \"#utility.yul\":406:412   */\n      dup5\n        /* \"#utility.yul\":401:404   */\n      dup3\n        /* \"#utility.yul\":396:399   */\n      dup6\n        /* \"#utility.yul\":372:413   */\n      tag_179\n      jump\t// in\n    tag_178:\n        /* \"#utility.yul\":91:419   */\n      pop\n        /* \"#utility.yul\":7:419   */\n      swap4\n      swap3\n      pop\n      pop\n      pop\n      jump\t// out\n        /* \"#utility.yul\":425:564   */\n    tag_180:\n        /* \"#utility.yul\":471:476   */\n      0x00\n        /* \"#utility.yul\":509:515   */\n      dup2\n        /* \"#utility.yul\":496:516   */\n      calldataload\n        /* \"#utility.yul\":487:516   */\n      swap1\n      pop\n        /* \"#utility.yul\":525:558   */\n      tag_182\n        /* \"#utility.yul\":552:557   */\n      dup2\n        /* \"#utility.yul\":525:558   */\n      tag_183\n      jump\t// in\n    tag_182:\n        /* \"#utility.yul\":425:564   */\n      swap3\n      swap2\n      pop\n      pop\n      jump\t// out\n        /* \"#utility.yul\":570:723   */\n    tag_184:\n        /* \"#utility.yul\":623:628   */\n      0x00\n        /* \"#utility.yul\":661:667   */\n      dup2\n        /* \"#utility.yul\":648:668   */\n      calldataload\n        /* \"#utility.yul\":639:668   */\n      swap1\n      pop\n        /* \"#utility.yul\":677:717   */\n      tag_186\n        /* \"#utility.yul\":711:716   */\n      dup2\n        /* \"#utility.yul\":677:717   */\n      tag_187\n      jump\t// in\n    tag_186:\n        /* \"#utility.yul\":570:723   */\n      swap3\n      swap2\n      pop\n      pop\n      jump\t// out\n        /* \"#utility.yul\":743:1083   */\n    tag_188:\n        /* \"#utility.yul\":799:804   */\n      0x00\n        /* \"#utility.yul\":848:851   */\n      dup3\n        /* \"#utility.yul\":841:845   */\n      0x1f\n        /* \"#utility.yul\":833:839   */\n      dup4\n        /* \"#utility.yul\":829:846   */\n      add\n        /* \"#utility.yul\":825:852   */\n      slt\n        /* \"#utility.yul\":815:937   */\n      tag_190\n      jumpi\n        /* \"#utility.yul\":856:935   */\n      tag_191\n      tag_192\n      jump\t// in\n    tag_191:\n        /* \"#utility.yul\":815:937   */\n    tag_190:\n        /* \"#utility.yul\":973:979   */\n      dup2\n        /* \"#utility.yul\":960:980   */\n      calldataload\n        /* \"#utility.yul\":998:1077   */\n      tag_193\n        /* \"#utility.yul\":1073:1076   */\n      dup5\n        /* \"#utility.yul\":1065:1071   */\n      dup3\n        /* \"#utility.yul\":1058:1062   */\n      0x20\n        /* \"#utility.yul\":1050:1056   */\n      dup7\n        /* \"#utility.yul\":1046:1063   */\n      add\n        /* \"#utility.yul\":998:1077   */\n      tag_169\n      jump\t// in\n    tag_193:\n        /* \"#utility.yul\":989:1077   */\n      swap2\n      pop\n        /* \"#utility.yul\":805:1083   */\n      pop\n        /* \"#utility.yul\":743:1083   */\n      swap3\n      swap2\n      pop\n      pop\n      jump\t// out\n        /* \"#utility.yul\":1089:1228   */\n    tag_194:\n        /* \"#utility.yul\":1135:1140   */\n      0x00\n        /* \"#utility.yul\":1173:1179   */\n      dup2\n        /* \"#utility.yul\":1160:1180   */\n      calldataload\n        /* \"#utility.yul\":1151:1180   */\n      swap1\n      pop\n        /* \"#utility.yul\":1189:1222   */\n      tag_196\n        /* \"#utility.yul\":1216:1221   */\n      dup2\n        /* \"#utility.yul\":1189:1222   */\n      tag_197\n      jump\t// in\n    tag_196:\n        /* \"#utility.yul\":1089:1228   */\n      swap3\n      swap2\n      pop\n      pop\n      jump\t// out\n        /* \"#utility.yul\":1234:1563   */\n    tag_60:\n        /* \"#utility.yul\":1293:1299   */\n      0x00\n        /* \"#utility.yul\":1342:1344   */\n      0x20\n        /* \"#utility.yul\":1330:1339   */\n      dup3\n        /* \"#utility.yul\":1321:1328   */\n      dup5\n        /* \"#utility.yul\":1317:1340   */\n      sub\n        /* \"#utility.yul\":1313:1345   */\n      slt\n        /* \"#utility.yul\":1310:1429   */\n      iszero\n      tag_199\n      jumpi\n        /* \"#utility.yul\":1348:1427   */\n      tag_200\n      tag_201\n      jump\t// in\n    tag_200:\n        /* \"#utility.yul\":1310:1429   */\n    tag_199:\n        /* \"#utility.yul\":1468:1469   */\n      0x00\n        /* \"#utility.yul\":1493:1546   */\n      tag_202\n        /* \"#utility.yul\":1538:1545   */\n      dup5\n        /* \"#utility.yul\":1529:1535   */\n      dup3\n        /* \"#utility.yul\":1518:1527   */\n      dup6\n        /* \"#utility.yul\":1514:1536   */\n      add\n        /* \"#utility.yul\":1493:1546   */\n      tag_180\n      jump\t// in\n    tag_202:\n        /* \"#utility.yul\":1483:1546   */\n      swap2\n      pop\n        /* \"#utility.yul\":1439:1556   */\n      pop\n        /* \"#utility.yul\":1234:1563   */\n      swap3\n      swap2\n      pop\n      pop\n      jump\t// out\n        /* \"#utility.yul\":1569:2382   */\n    tag_28:\n        /* \"#utility.yul\":1663:1669   */\n      0x00\n        /* \"#utility.yul\":1671:1677   */\n      dup1\n        /* \"#utility.yul\":1679:1685   */\n      0x00\n        /* \"#utility.yul\":1728:1730   */\n      0x60\n        /* \"#utility.yul\":1716:1725   */\n      dup5\n        /* \"#utility.yul\":1707:1714   */\n      dup7\n        /* \"#utility.yul\":1703:1726   */\n      sub\n        /* \"#utility.yul\":1699:1731   */\n      slt\n        /* \"#utility.yul\":1696:1815   */\n      iszero\n      tag_204\n      jumpi\n        /* \"#utility.yul\":1734:1813   */\n      tag_205\n      tag_201\n      jump\t// in\n    tag_205:\n        /* \"#utility.yul\":1696:1815   */\n    tag_204:\n        /* \"#utility.yul\":1854:1855   */\n      0x00\n        /* \"#utility.yul\":1879:1932   */\n      tag_206\n        /* \"#utility.yul\":1924:1931   */\n      dup7\n        /* \"#utility.yul\":1915:1921   */\n      dup3\n        /* \"#utility.yul\":1904:1913   */\n      dup8\n        /* \"#utility.yul\":1900:1922   */\n      add\n        /* \"#utility.yul\":1879:1932   */\n      tag_180\n      jump\t// in\n    tag_206:\n        /* \"#utility.yul\":1869:1932   */\n      swap4\n      pop\n        /* \"#utility.yul\":1825:1942   */\n      pop\n        /* \"#utility.yul\":1981:1983   */\n      0x20\n        /* \"#utility.yul\":2007:2067   */\n      tag_207\n        /* \"#utility.yul\":2059:2066   */\n      dup7\n        /* \"#utility.yul\":2050:2056   */\n      dup3\n        /* \"#utility.yul\":2039:2048   */\n      dup8\n        /* \"#utility.yul\":2035:2057   */\n      add\n        /* \"#utility.yul\":2007:2067   */\n      tag_184\n      jump\t// in\n    tag_207:\n        /* \"#utility.yul\":1997:2067   */\n      swap3\n      pop\n        /* \"#utility.yul\":1952:2077   */\n      pop\n        /* \"#utility.yul\":2144:2146   */\n      0x40\n        /* \"#utility.yul\":2133:2142   */\n      dup5\n        /* \"#utility.yul\":2129:2147   */\n      add\n        /* \"#utility.yul\":2116:2148   */\n      calldataload\n        /* \"#utility.yul\":2175:2193   */\n      0xffffffffffffffff\n        /* \"#utility.yul\":2167:2173   */\n      dup2\n        /* \"#utility.yul\":2164:2194   */\n      gt\n        /* \"#utility.yul\":2161:2278   */\n      iszero\n      tag_208\n      jumpi\n        /* \"#utility.yul\":2197:2276   */\n      tag_209\n      tag_210\n      jump\t// in\n    tag_209:\n        /* \"#utility.yul\":2161:2278   */\n    tag_208:\n        /* \"#utility.yul\":2302:2365   */\n      tag_211\n        /* \"#utility.yul\":2357:2364   */\n      dup7\n        /* \"#utility.yul\":2348:2354   */\n      dup3\n        /* \"#utility.yul\":2337:2346   */\n      dup8\n        /* \"#utility.yul\":2333:2355   */\n      add\n        /* \"#utility.yul\":2302:2365   */\n      tag_188\n      jump\t// in\n    tag_211:\n        /* \"#utility.yul\":2292:2365   */\n      swap2\n      pop\n        /* \"#utility.yul\":2087:2375   */\n      pop\n        /* \"#utility.yul\":1569:2382   */\n      swap3\n      pop\n      swap3\n      pop\n      swap3\n      jump\t// out\n        /* \"#utility.yul\":2388:2862   */\n    tag_33:\n        /* \"#utility.yul\":2456:2462   */\n      0x00\n        /* \"#utility.yul\":2464:2470   */\n      dup1\n        /* \"#utility.yul\":2513:2515   */\n      0x40\n        /* \"#utility.yul\":2501:2510   */\n      dup4\n        /* \"#utility.yul\":2492:2499   */\n      dup6\n        /* \"#utility.yul\":2488:2511   */\n      sub\n        /* \"#utility.yul\":2484:2516   */\n      slt\n        /* \"#utility.yul\":2481:2600   */\n      iszero\n      tag_213\n      jumpi\n        /* \"#utility.yul\":2519:2598   */\n      tag_214\n      tag_201\n      jump\t// in\n    tag_214:\n        /* \"#utility.yul\":2481:2600   */\n    tag_213:\n        /* \"#utility.yul\":2639:2640   */\n      0x00\n        /* \"#utility.yul\":2664:2717   */\n      tag_215\n        /* \"#utility.yul\":2709:2716   */\n      dup6\n        /* \"#utility.yul\":2700:2706   */\n      dup3\n        /* \"#utility.yul\":2689:2698   */\n      dup7\n        /* \"#utility.yul\":2685:2707   */\n      add\n        /* \"#utility.yul\":2664:2717   */\n      tag_180\n      jump\t// in\n    tag_215:\n        /* \"#utility.yul\":2654:2717   */\n      swap3\n      pop\n        /* \"#utility.yul\":2610:2727   */\n      pop\n        /* \"#utility.yul\":2766:2768   */\n      0x20\n        /* \"#utility.yul\":2792:2845   */\n      tag_216\n        /* \"#utility.yul\":2837:2844   */\n      dup6\n        /* \"#utility.yul\":2828:2834   */\n      dup3\n        /* \"#utility.yul\":2817:2826   */\n      dup7\n        /* \"#utility.yul\":2813:2835   */\n      add\n        /* \"#utility.yul\":2792:2845   */\n      tag_194\n      jump\t// in\n    tag_216:\n        /* \"#utility.yul\":2782:2845   */\n      swap2\n      pop\n        /* \"#utility.yul\":2737:2855   */\n      pop\n        /* \"#utility.yul\":2388:2862   */\n      swap3\n      pop\n      swap3\n      swap1\n      pop\n      jump\t// out\n        /* \"#utility.yul\":2868:3197   */\n    tag_48:\n        /* \"#utility.yul\":2927:2933   */\n      0x00\n        /* \"#utility.yul\":2976:2978   */\n      0x20\n        /* \"#utility.yul\":2964:2973   */\n      dup3\n        /* \"#utility.yul\":2955:2962   */\n      dup5\n        /* \"#utility.yul\":2951:2974   */\n      sub\n        /* \"#utility.yul\":2947:2979   */\n      slt\n        /* \"#utility.yul\":2944:3063   */\n      iszero\n      tag_218\n      jumpi\n        /* \"#utility.yul\":2982:3061   */\n      tag_219\n      tag_201\n      jump\t// in\n    tag_219:\n        /* \"#utility.yul\":2944:3063   */\n    tag_218:\n        /* \"#utility.yul\":3102:3103   */\n      0x00\n        /* \"#utility.yul\":3127:3180   */\n      tag_220\n        /* \"#utility.yul\":3172:3179   */\n      dup5\n        /* \"#utility.yul\":3163:3169   */\n      dup3\n        /* \"#utility.yul\":3152:3161   */\n      dup6\n        /* \"#utility.yul\":3148:3170   */\n      add\n        /* \"#utility.yul\":3127:3180   */\n      tag_194\n      jump\t// in\n    tag_220:\n        /* \"#utility.yul\":3117:3180   */\n      swap2\n      pop\n        /* \"#utility.yul\":3073:3190   */\n      pop\n        /* \"#utility.yul\":2868:3197   */\n      swap3\n      swap2\n      pop\n      pop\n      jump\t// out\n        /* \"#utility.yul\":3203:3822   */\n    tag_18:\n        /* \"#utility.yul\":3280:3286   */\n      0x00\n        /* \"#utility.yul\":3288:3294   */\n      dup1\n        /* \"#utility.yul\":3296:3302   */\n      0x00\n        /* \"#utility.yul\":3345:3347   */\n      0x60\n        /* \"#utility.yul\":3333:3342   */\n      dup5\n        /* \"#utility.yul\":3324:3331   */\n      dup7\n        /* \"#utility.yul\":3320:3343   */\n      sub\n        /* \"#utility.yul\":3316:3348   */\n      slt\n        /* \"#utility.yul\":3313:3432   */\n      iszero\n      tag_222\n      jumpi\n        /* \"#utility.yul\":3351:3430   */\n      tag_223\n      tag_201\n      jump\t// in\n    tag_223:\n        /* \"#utility.yul\":3313:3432   */\n    tag_222:\n        /* \"#utility.yul\":3471:3472   */\n      0x00\n        /* \"#utility.yul\":3496:3549   */\n      tag_224\n        /* \"#utility.yul\":3541:3548   */\n      dup7\n        /* \"#utility.yul\":3532:3538   */\n      dup3\n        /* \"#utility.yul\":3521:3530   */\n      dup8\n        /* \"#utility.yul\":3517:3539   */\n      add\n        /* \"#utility.yul\":3496:3549   */\n      tag_194\n      jump\t// in\n    tag_224:\n        /* \"#utility.yul\":3486:3549   */\n      swap4\n      pop\n        /* \"#utility.yul\":3442:3559   */\n      pop\n        /* \"#utility.yul\":3598:3600   */\n      0x20\n        /* \"#utility.yul\":3624:3677   */\n      tag_225\n        /* \"#utility.yul\":3669:3676   */\n      dup7\n        /* \"#utility.yul\":3660:3666   */\n      dup3\n        /* \"#utility.yul\":3649:3658   */\n      dup8\n        /* \"#utility.yul\":3645:3667   */\n      add\n        /* \"#utility.yul\":3624:3677   */\n      tag_194\n      jump\t// in\n    tag_225:\n        /* \"#utility.yul\":3614:3677   */\n      swap3\n      pop\n        /* \"#utility.yul\":3569:3687   */\n      pop\n        /* \"#utility.yul\":3726:3728   */\n      0x40\n        /* \"#utility.yul\":3752:3805   */\n      tag_226\n        /* \"#utility.yul\":3797:3804   */\n      dup7\n        /* \"#utility.yul\":3788:3794   */\n      dup3\n        /* \"#utility.yul\":3777:3786   */\n      dup8\n        /* \"#utility.yul\":3773:3795   */\n      add\n        /* \"#utility.yul\":3752:3805   */\n      tag_194\n      jump\t// in\n    tag_226:\n        /* \"#utility.yul\":3742:3805   */\n      swap2\n      pop\n        /* \"#utility.yul\":3697:3815   */\n      pop\n        /* \"#utility.yul\":3203:3822   */\n      swap3\n      pop\n      swap3\n      pop\n      swap3\n      jump\t// out\n        /* \"#utility.yul\":3828:3970   */\n    tag_227:\n        /* \"#utility.yul\":3931:3963   */\n      tag_229\n        /* \"#utility.yul\":3957:3962   */\n      dup2\n        /* \"#utility.yul\":3931:3963   */\n      tag_230\n      jump\t// in\n    tag_229:\n        /* \"#utility.yul\":3926:3929   */\n      dup3\n        /* \"#utility.yul\":3919:3964   */\n      mstore\n        /* \"#utility.yul\":3828:3970   */\n      pop\n      pop\n      jump\t// out\n        /* \"#utility.yul\":3976:4085   */\n    tag_231:\n        /* \"#utility.yul\":4057:4078   */\n      tag_233\n        /* \"#utility.yul\":4072:4077   */\n      dup2\n        /* \"#utility.yul\":4057:4078   */\n      tag_234\n      jump\t// in\n    tag_233:\n        /* \"#utility.yul\":4052:4055   */\n      dup3\n        /* \"#utility.yul\":4045:4079   */\n      mstore\n        /* \"#utility.yul\":3976:4085   */\n      pop\n      pop\n      jump\t// out\n        /* \"#utility.yul\":4091:4232   */\n    tag_235:\n        /* \"#utility.yul\":4183:4225   */\n      tag_237\n        /* \"#utility.yul\":4219:4224   */\n      dup2\n        /* \"#utility.yul\":4183:4225   */\n      tag_238\n      jump\t// in\n    tag_237:\n        /* \"#utility.yul\":4178:4181   */\n      dup3\n        /* \"#utility.yul\":4171:4226   */\n      mstore\n        /* \"#utility.yul\":4091:4232   */\n      pop\n      pop\n      jump\t// out\n        /* \"#utility.yul\":4238:4602   */\n    tag_239:\n        /* \"#utility.yul\":4326:4329   */\n      0x00\n        /* \"#utility.yul\":4354:4393   */\n      tag_241\n        /* \"#utility.yul\":4387:4392   */\n      dup3\n        /* \"#utility.yul\":4354:4393   */\n      tag_242\n      jump\t// in\n    tag_241:\n        /* \"#utility.yul\":4409:4480   */\n      tag_243\n        /* \"#utility.yul\":4473:4479   */\n      dup2\n        /* \"#utility.yul\":4468:4471   */\n      dup6\n        /* \"#utility.yul\":4409:4480   */\n      tag_244\n      jump\t// in\n    tag_243:\n        /* \"#utility.yul\":4402:4480   */\n      swap4\n      pop\n        /* \"#utility.yul\":4489:4541   */\n      tag_245\n        /* \"#utility.yul\":4534:4540   */\n      dup2\n        /* \"#utility.yul\":4529:4532   */\n      dup6\n        /* \"#utility.yul\":4522:4526   */\n      0x20\n        /* \"#utility.yul\":4515:4520   */\n      dup7\n        /* \"#utility.yul\":4511:4527   */\n      add\n        /* \"#utility.yul\":4489:4541   */\n      tag_246\n      jump\t// in\n    tag_245:\n        /* \"#utility.yul\":4566:4595   */\n      tag_247\n        /* \"#utility.yul\":4588:4594   */\n      dup2\n        /* \"#utility.yul\":4566:4595   */\n      tag_248\n      jump\t// in\n    tag_247:\n        /* \"#utility.yul\":4561:4564   */\n      dup5\n        /* \"#utility.yul\":4557:4596   */\n      add\n        /* \"#utility.yul\":4550:4596   */\n      swap2\n      pop\n        /* \"#utility.yul\":4330:4602   */\n      pop\n        /* \"#utility.yul\":4238:4602   */\n      swap3\n      swap2\n      pop\n      pop\n      jump\t// out\n        /* \"#utility.yul\":4608:4974   */\n    tag_249:\n        /* \"#utility.yul\":4750:4753   */\n      0x00\n        /* \"#utility.yul\":4771:4838   */\n      tag_251\n        /* \"#utility.yul\":4835:4837   */\n      0x19\n        /* \"#utility.yul\":4830:4833   */\n      dup4\n        /* \"#utility.yul\":4771:4838   */\n      tag_244\n      jump\t// in\n    tag_251:\n        /* \"#utility.yul\":4764:4838   */\n      swap2\n      pop\n        /* \"#utility.yul\":4847:4940   */\n      tag_252\n        /* \"#utility.yul\":4936:4939   */\n      dup3\n        /* \"#utility.yul\":4847:4940   */\n      tag_253\n      jump\t// in\n    tag_252:\n        /* \"#utility.yul\":4965:4967   */\n      0x20\n        /* \"#utility.yul\":4960:4963   */\n      dup3\n        /* \"#utility.yul\":4956:4968   */\n      add\n        /* \"#utility.yul\":4949:4968   */\n      swap1\n      pop\n        /* \"#utility.yul\":4608:4974   */\n      swap2\n      swap1\n      pop\n      jump\t// out\n        /* \"#utility.yul\":4980:5346   */\n    tag_254:\n        /* \"#utility.yul\":5122:5125   */\n      0x00\n        /* \"#utility.yul\":5143:5210   */\n      tag_256\n        /* \"#utility.yul\":5207:5209   */\n      0x1e\n        /* \"#utility.yul\":5202:5205   */\n      dup4\n        /* \"#utility.yul\":5143:5210   */\n      tag_244\n      jump\t// in\n    tag_256:\n        /* \"#utility.yul\":5136:5210   */\n      swap2\n      pop\n        /* \"#utility.yul\":5219:5312   */\n      tag_257\n        /* \"#utility.yul\":5308:5311   */\n      dup3\n        /* \"#utility.yul\":5219:5312   */\n      tag_258\n      jump\t// in\n    tag_257:\n        /* \"#utility.yul\":5337:5339   */\n      0x20\n        /* \"#utility.yul\":5332:5335   */\n      dup3\n        /* \"#utility.yul\":5328:5340   */\n      add\n        /* \"#utility.yul\":5321:5340   */\n      swap1\n      pop\n        /* \"#utility.yul\":4980:5346   */\n      swap2\n      swap1\n      pop\n      jump\t// out\n        /* \"#utility.yul\":5352:5470   */\n    tag_259:\n        /* \"#utility.yul\":5439:5463   */\n      tag_261\n        /* \"#utility.yul\":5457:5462   */\n      dup2\n        /* \"#utility.yul\":5439:5463   */\n      tag_262\n      jump\t// in\n    tag_261:\n        /* \"#utility.yul\":5434:5437   */\n      dup3\n        /* \"#utility.yul\":5427:5464   */\n      mstore\n        /* \"#utility.yul\":5352:5470   */\n      pop\n      pop\n      jump\t// out\n        /* \"#utility.yul\":5476:5730   */\n    tag_54:\n        /* \"#utility.yul\":5585:5589   */\n      0x00\n        /* \"#utility.yul\":5623:5625   */\n      0x20\n        /* \"#utility.yul\":5612:5621   */\n      dup3\n        /* \"#utility.yul\":5608:5626   */\n      add\n        /* \"#utility.yul\":5600:5626   */\n      swap1\n      pop\n        /* \"#utility.yul\":5636:5723   */\n      tag_264\n        /* \"#utility.yul\":5720:5721   */\n      0x00\n        /* \"#utility.yul\":5709:5718   */\n      dup4\n        /* \"#utility.yul\":5705:5722   */\n      add\n        /* \"#utility.yul\":5696:5702   */\n      dup5\n        /* \"#utility.yul\":5636:5723   */\n      tag_227\n      jump\t// in\n    tag_264:\n        /* \"#utility.yul\":5476:5730   */\n      swap3\n      swap2\n      pop\n      pop\n      jump\t// out\n        /* \"#utility.yul\":5736:5946   */\n    tag_36:\n        /* \"#utility.yul\":5823:5827   */\n      0x00\n        /* \"#utility.yul\":5861:5863   */\n      0x20\n        /* \"#utility.yul\":5850:5859   */\n      dup3\n        /* \"#utility.yul\":5846:5864   */\n      add\n        /* \"#utility.yul\":5838:5864   */\n      swap1\n      pop\n        /* \"#utility.yul\":5874:5939   */\n      tag_266\n        /* \"#utility.yul\":5936:5937   */\n      0x00\n        /* \"#utility.yul\":5925:5934   */\n      dup4\n        /* \"#utility.yul\":5921:5938   */\n      add\n        /* \"#utility.yul\":5912:5918   */\n      dup5\n        /* \"#utility.yul\":5874:5939   */\n      tag_231\n      jump\t// in\n    tag_266:\n        /* \"#utility.yul\":5736:5946   */\n      swap3\n      swap2\n      pop\n      pop\n      jump\t// out\n        /* \"#utility.yul\":5952:6385   */\n    tag_63:\n        /* \"#utility.yul\":6098:6102   */\n      0x00\n        /* \"#utility.yul\":6136:6138   */\n      0x40\n        /* \"#utility.yul\":6125:6134   */\n      dup3\n        /* \"#utility.yul\":6121:6139   */\n      add\n        /* \"#utility.yul\":6113:6139   */\n      swap1\n      pop\n        /* \"#utility.yul\":6149:6225   */\n      tag_268\n        /* \"#utility.yul\":6222:6223   */\n      0x00\n        /* \"#utility.yul\":6211:6220   */\n      dup4\n        /* \"#utility.yul\":6207:6224   */\n      add\n        /* \"#utility.yul\":6198:6204   */\n      dup6\n        /* \"#utility.yul\":6149:6225   */\n      tag_235\n      jump\t// in\n    tag_268:\n        /* \"#utility.yul\":6272:6281   */\n      dup2\n        /* \"#utility.yul\":6266:6270   */\n      dup2\n        /* \"#utility.yul\":6262:6282   */\n      sub\n        /* \"#utility.yul\":6257:6259   */\n      0x20\n        /* \"#utility.yul\":6246:6255   */\n      dup4\n        /* \"#utility.yul\":6242:6260   */\n      add\n        /* \"#utility.yul\":6235:6283   */\n      mstore\n        /* \"#utility.yul\":6300:6378   */\n      tag_269\n        /* \"#utility.yul\":6373:6377   */\n      dup2\n        /* \"#utility.yul\":6364:6370   */\n      dup5\n        /* \"#utility.yul\":6300:6378   */\n      tag_239\n      jump\t// in\n    tag_269:\n        /* \"#utility.yul\":6292:6378   */\n      swap1\n      pop\n        /* \"#utility.yul\":5952:6385   */\n      swap4\n      swap3\n      pop\n      pop\n      pop\n      jump\t// out\n        /* \"#utility.yul\":6391:6704   */\n    tag_24:\n        /* \"#utility.yul\":6504:6508   */\n      0x00\n        /* \"#utility.yul\":6542:6544   */\n      0x20\n        /* \"#utility.yul\":6531:6540   */\n      dup3\n        /* \"#utility.yul\":6527:6545   */\n      add\n        /* \"#utility.yul\":6519:6545   */\n      swap1\n      pop\n        /* \"#utility.yul\":6591:6600   */\n      dup2\n        /* \"#utility.yul\":6585:6589   */\n      dup2\n        /* \"#utility.yul\":6581:6601   */\n      sub\n        /* \"#utility.yul\":6577:6578   */\n      0x00\n        /* \"#utility.yul\":6566:6575   */\n      dup4\n        /* \"#utility.yul\":6562:6579   */\n      add\n        /* \"#utility.yul\":6555:6602   */\n      mstore\n        /* \"#utility.yul\":6619:6697   */\n      tag_271\n        /* \"#utility.yul\":6692:6696   */\n      dup2\n        /* \"#utility.yul\":6683:6689   */\n      dup5\n        /* \"#utility.yul\":6619:6697   */\n      tag_239\n      jump\t// in\n    tag_271:\n        /* \"#utility.yul\":6611:6697   */\n      swap1\n      pop\n        /* \"#utility.yul\":6391:6704   */\n      swap3\n      swap2\n      pop\n      pop\n      jump\t// out\n        /* \"#utility.yul\":6710:7129   */\n    tag_83:\n        /* \"#utility.yul\":6876:6880   */\n      0x00\n        /* \"#utility.yul\":6914:6916   */\n      0x20\n        /* \"#utility.yul\":6903:6912   */\n      dup3\n        /* \"#utility.yul\":6899:6917   */\n      add\n        /* \"#utility.yul\":6891:6917   */\n      swap1\n      pop\n        /* \"#utility.yul\":6963:6972   */\n      dup2\n        /* \"#utility.yul\":6957:6961   */\n      dup2\n        /* \"#utility.yul\":6953:6973   */\n      sub\n        /* \"#utility.yul\":6949:6950   */\n      0x00\n        /* \"#utility.yul\":6938:6947   */\n      dup4\n        /* \"#utility.yul\":6934:6951   */\n      add\n        /* \"#utility.yul\":6927:6974   */\n      mstore\n        /* \"#utility.yul\":6991:7122   */\n      tag_273\n        /* \"#utility.yul\":7117:7121   */\n      dup2\n        /* \"#utility.yul\":6991:7122   */\n      tag_249\n      jump\t// in\n    tag_273:\n        /* \"#utility.yul\":6983:7122   */\n      swap1\n      pop\n        /* \"#utility.yul\":6710:7129   */\n      swap2\n      swap1\n      pop\n      jump\t// out\n        /* \"#utility.yul\":7135:7554   */\n    tag_130:\n        /* \"#utility.yul\":7301:7305   */\n      0x00\n        /* \"#utility.yul\":7339:7341   */\n      0x20\n        /* \"#utility.yul\":7328:7337   */\n      dup3\n        /* \"#utility.yul\":7324:7342   */\n      add\n        /* \"#utility.yul\":7316:7342   */\n      swap1\n      pop\n        /* \"#utility.yul\":7388:7397   */\n      dup2\n        /* \"#utility.yul\":7382:7386   */\n      dup2\n        /* \"#utility.yul\":7378:7398   */\n      sub\n        /* \"#utility.yul\":7374:7375   */\n      0x00\n        /* \"#utility.yul\":7363:7372   */\n      dup4\n        /* \"#utility.yul\":7359:7376   */\n      add\n        /* \"#utility.yul\":7352:7399   */\n      mstore\n        /* \"#utility.yul\":7416:7547   */\n      tag_275\n        /* \"#utility.yul\":7542:7546   */\n      dup2\n        /* \"#utility.yul\":7416:7547   */\n      tag_254\n      jump\t// in\n    tag_275:\n        /* \"#utility.yul\":7408:7547   */\n      swap1\n      pop\n        /* \"#utility.yul\":7135:7554   */\n      swap2\n      swap1\n      pop\n      jump\t// out\n        /* \"#utility.yul\":7560:7782   */\n    tag_69:\n        /* \"#utility.yul\":7653:7657   */\n      0x00\n        /* \"#utility.yul\":7691:7693   */\n      0x20\n        /* \"#utility.yul\":7680:7689   */\n      dup3\n        /* \"#utility.yul\":7676:7694   */\n      add\n        /* \"#utility.yul\":7668:7694   */\n      swap1\n      pop\n        /* \"#utility.yul\":7704:7775   */\n      tag_277\n        /* \"#utility.yul\":7772:7773   */\n      0x00\n        /* \"#utility.yul\":7761:7770   */\n      dup4\n        /* \"#utility.yul\":7757:7774   */\n      add\n        /* \"#utility.yul\":7748:7754   */\n      dup5\n        /* \"#utility.yul\":7704:7775   */\n      tag_259\n      jump\t// in\n    tag_277:\n        /* \"#utility.yul\":7560:7782   */\n      swap3\n      swap2\n      pop\n      pop\n      jump\t// out\n        /* \"#utility.yul\":7788:7917   */\n    tag_174:\n        /* \"#utility.yul\":7822:7828   */\n      0x00\n        /* \"#utility.yul\":7849:7869   */\n      tag_279\n      tag_280\n      jump\t// in\n    tag_279:\n        /* \"#utility.yul\":7839:7869   */\n      swap1\n      pop\n        /* \"#utility.yul\":7878:7911   */\n      tag_281\n        /* \"#utility.yul\":7906:7910   */\n      dup3\n        /* \"#utility.yul\":7898:7904   */\n      dup3\n        /* \"#utility.yul\":7878:7911   */\n      tag_282\n      jump\t// in\n    tag_281:\n        /* \"#utility.yul\":7788:7917   */\n      swap2\n      swap1\n      pop\n      jump\t// out\n        /* \"#utility.yul\":7923:7998   */\n    tag_280:\n        /* \"#utility.yul\":7956:7962   */\n      0x00\n        /* \"#utility.yul\":7989:7991   */\n      0x40\n        /* \"#utility.yul\":7983:7992   */\n      mload\n        /* \"#utility.yul\":7973:7992   */\n      swap1\n      pop\n        /* \"#utility.yul\":7923:7998   */\n      swap1\n      jump\t// out\n        /* \"#utility.yul\":8004:8312   */\n    tag_173:\n        /* \"#utility.yul\":8066:8070   */\n      0x00\n        /* \"#utility.yul\":8156:8174   */\n      0xffffffffffffffff\n        /* \"#utility.yul\":8148:8154   */\n      dup3\n        /* \"#utility.yul\":8145:8175   */\n      gt\n        /* \"#utility.yul\":8142:8198   */\n      iszero\n      tag_285\n      jumpi\n        /* \"#utility.yul\":8178:8196   */\n      tag_286\n      tag_287\n      jump\t// in\n    tag_286:\n        /* \"#utility.yul\":8142:8198   */\n    tag_285:\n        /* \"#utility.yul\":8216:8245   */\n      tag_288\n        /* \"#utility.yul\":8238:8244   */\n      dup3\n        /* \"#utility.yul\":8216:8245   */\n      tag_248\n      jump\t// in\n    tag_288:\n        /* \"#utility.yul\":8208:8245   */\n      swap1\n      pop\n        /* \"#utility.yul\":8300:8304   */\n      0x20\n        /* \"#utility.yul\":8294:8298   */\n      dup2\n        /* \"#utility.yul\":8290:8305   */\n      add\n        /* \"#utility.yul\":8282:8305   */\n      swap1\n      pop\n        /* \"#utility.yul\":8004:8312   */\n      swap2\n      swap1\n      pop\n      jump\t// out\n        /* \"#utility.yul\":8318:8417   */\n    tag_242:\n        /* \"#utility.yul\":8370:8376   */\n      0x00\n        /* \"#utility.yul\":8404:8409   */\n      dup2\n        /* \"#utility.yul\":8398:8410   */\n      mload\n        /* \"#utility.yul\":8388:8410   */\n      swap1\n      pop\n        /* \"#utility.yul\":8318:8417   */\n      swap2\n      swap1\n      pop\n      jump\t// out\n        /* \"#utility.yul\":8423:8592   */\n    tag_244:\n        /* \"#utility.yul\":8507:8518   */\n      0x00\n        /* \"#utility.yul\":8541:8547   */\n      dup3\n        /* \"#utility.yul\":8536:8539   */\n      dup3\n        /* \"#utility.yul\":8529:8548   */\n      mstore\n        /* \"#utility.yul\":8581:8585   */\n      0x20\n        /* \"#utility.yul\":8576:8579   */\n      dup3\n        /* \"#utility.yul\":8572:8586   */\n      add\n        /* \"#utility.yul\":8557:8586   */\n      swap1\n      pop\n        /* \"#utility.yul\":8423:8592   */\n      swap3\n      swap2\n      pop\n      pop\n      jump\t// out\n        /* \"#utility.yul\":8598:8903   */\n    tag_121:\n        /* \"#utility.yul\":8638:8641   */\n      0x00\n        /* \"#utility.yul\":8657:8677   */\n      tag_292\n        /* \"#utility.yul\":8675:8676   */\n      dup3\n        /* \"#utility.yul\":8657:8677   */\n      tag_262\n      jump\t// in\n    tag_292:\n        /* \"#utility.yul\":8652:8677   */\n      swap2\n      pop\n        /* \"#utility.yul\":8691:8711   */\n      tag_293\n        /* \"#utility.yul\":8709:8710   */\n      dup4\n        /* \"#utility.yul\":8691:8711   */\n      tag_262\n      jump\t// in\n    tag_293:\n        /* \"#utility.yul\":8686:8711   */\n      swap3\n      pop\n        /* \"#utility.yul\":8845:8846   */\n      dup3\n        /* \"#utility.yul\":8777:8843   */\n      0xffffffffffffffffffffffffffffffffffffffffffffffffffffffffffffffff\n        /* \"#utility.yul\":8773:8847   */\n      sub\n        /* \"#utility.yul\":8770:8771   */\n      dup3\n        /* \"#utility.yul\":8767:8848   */\n      gt\n        /* \"#utility.yul\":8764:8871   */\n      iszero\n      tag_294\n      jumpi\n        /* \"#utility.yul\":8851:8869   */\n      tag_295\n      tag_296\n      jump\t// in\n    tag_295:\n        /* \"#utility.yul\":8764:8871   */\n    tag_294:\n        /* \"#utility.yul\":8895:8896   */\n      dup3\n        /* \"#utility.yul\":8892:8893   */\n      dup3\n        /* \"#utility.yul\":8888:8897   */\n      add\n        /* \"#utility.yul\":8881:8897   */\n      swap1\n      pop\n        /* \"#utility.yul\":8598:8903   */\n      swap3\n      swap2\n      pop\n      pop\n      jump\t// out\n        /* \"#utility.yul\":8909:9094   */\n    tag_144:\n        /* \"#utility.yul\":8949:8950   */\n      0x00\n        /* \"#utility.yul\":8966:8986   */\n      tag_298\n        /* \"#utility.yul\":8984:8985   */\n      dup3\n        /* \"#utility.yul\":8966:8986   */\n      tag_262\n      jump\t// in\n    tag_298:\n        /* \"#utility.yul\":8961:8986   */\n      swap2\n      pop\n        /* \"#utility.yul\":9000:9020   */\n      tag_299\n        /* \"#utility.yul\":9018:9019   */\n      dup4\n        /* \"#utility.yul\":9000:9020   */\n      tag_262\n      jump\t// in\n    tag_299:\n        /* \"#utility.yul\":8995:9020   */\n      swap3\n      pop\n        /* \"#utility.yul\":9039:9040   */\n      dup3\n        /* \"#utility.yul\":9029:9064   */\n      tag_300\n      jumpi\n        /* \"#utility.yul\":9044:9062   */\n      tag_301\n      tag_302\n      jump\t// in\n    tag_301:\n        /* \"#utility.yul\":9029:9064   */\n    tag_300:\n        /* \"#utility.yul\":9086:9087   */\n      dup3\n        /* \"#utility.yul\":9083:9084   */\n      dup3\n        /* \"#utility.yul\":9079:9088   */\n      div\n        /* \"#utility.yul\":9074:9088   */\n      swap1\n      pop\n        /* \"#utility.yul\":8909:9094   */\n      swap3\n      swap2\n      pop\n      pop\n      jump\t// out\n        /* \"#utility.yul\":9100:9291   */\n    tag_119:\n        /* \"#utility.yul\":9140:9144   */\n      0x00\n        /* \"#utility.yul\":9160:9180   */\n      tag_304\n        /* \"#utility.yul\":9178:9179   */\n      dup3\n        /* \"#utility.yul\":9160:9180   */\n      tag_262\n      jump\t// in\n    tag_304:\n        /* \"#utility.yul\":9155:9180   */\n      swap2\n      pop\n        /* \"#utility.yul\":9194:9214   */\n      tag_305\n        /* \"#utility.yul\":9212:9213   */\n      dup4\n        /* \"#utility.yul\":9194:9214   */\n      tag_262\n      jump\t// in\n    tag_305:\n        /* \"#utility.yul\":9189:9214   */\n      swap3\n      pop\n        /* \"#utility.yul\":9233:9234   */\n      dup3\n        /* \"#utility.yul\":9230:9231   */\n      dup3\n        /* \"#utility.yul\":9227:9235   */\n      lt\n        /* \"#utility.yul\":9224:9258   */\n      iszero\n      tag_306\n      jumpi\n        /* \"#utility.yul\":9238:9256   */\n      tag_307\n      tag_296\n      jump\t// in\n    tag_307:\n        /* \"#utility.yul\":9224:9258   */\n    tag_306:\n        /* \"#utility.yul\":9283:9284   */\n      dup3\n        /* \"#utility.yul\":9280:9281   */\n      dup3\n        /* \"#utility.yul\":9276:9285   */\n      sub\n        /* \"#utility.yul\":9268:9285   */\n      swap1\n      pop\n        /* \"#utility.yul\":9100:9291   */\n      swap3\n      swap2\n      pop\n      pop\n      jump\t// out\n        /* \"#utility.yul\":9297:9393   */\n    tag_308:\n        /* \"#utility.yul\":9334:9341   */\n      0x00\n        /* \"#utility.yul\":9363:9387   */\n      tag_310\n        /* \"#utility.yul\":9381:9386   */\n      dup3\n        /* \"#utility.yul\":9363:9387   */\n      tag_311\n      jump\t// in\n    tag_310:\n        /* \"#utility.yul\":9352:9387   */\n      swap1\n      pop\n        /* \"#utility.yul\":9297:9393   */\n      swap2\n      swap1\n      pop\n      jump\t// out\n        /* \"#utility.yul\":9399:9503   */\n    tag_230:\n        /* \"#utility.yul\":9444:9451   */\n      0x00\n        /* \"#utility.yul\":9473:9497   */\n      tag_313\n        /* \"#utility.yul\":9491:9496   */\n      dup3\n        /* \"#utility.yul\":9473:9497   */\n      tag_311\n      jump\t// in\n    tag_313:\n        /* \"#utility.yul\":9462:9497   */\n      swap1\n      pop\n        /* \"#utility.yul\":9399:9503   */\n      swap2\n      swap1\n      pop\n      jump\t// out\n        /* \"#utility.yul\":9509:9599   */\n    tag_234:\n        /* \"#utility.yul\":9543:9550   */\n      0x00\n        /* \"#utility.yul\":9586:9591   */\n      dup2\n        /* \"#utility.yul\":9579:9592   */\n      iszero\n        /* \"#utility.yul\":9572:9593   */\n      iszero\n        /* \"#utility.yul\":9561:9593   */\n      swap1\n      pop\n        /* \"#utility.yul\":9509:9599   */\n      swap2\n      swap1\n      pop\n      jump\t// out\n        /* \"#utility.yul\":9605:9730   */\n    tag_315:\n        /* \"#utility.yul\":9649:9656   */\n      0x00\n        /* \"#utility.yul\":9678:9683   */\n      dup2\n        /* \"#utility.yul\":9667:9683   */\n      swap1\n      pop\n        /* \"#utility.yul\":9684:9724   */\n      tag_317\n        /* \"#utility.yul\":9718:9723   */\n      dup3\n        /* \"#utility.yul\":9684:9724   */\n      tag_318\n      jump\t// in\n    tag_317:\n        /* \"#utility.yul\":9605:9730   */\n      swap2\n      swap1\n      pop\n      jump\t// out\n        /* \"#utility.yul\":9736:9862   */\n    tag_311:\n        /* \"#utility.yul\":9773:9780   */\n      0x00\n        /* \"#utility.yul\":9813:9855   */\n      0xffffffffffffffffffffffffffffffffffffffff\n        /* \"#utility.yul\":9806:9811   */\n      dup3\n        /* \"#utility.yul\":9802:9856   */\n      and\n        /* \"#utility.yul\":9791:9856   */\n      swap1\n      pop\n        /* \"#utility.yul\":9736:9862   */\n      swap2\n      swap1\n      pop\n      jump\t// out\n        /* \"#utility.yul\":9868:9945   */\n    tag_262:\n        /* \"#utility.yul\":9905:9912   */\n      0x00\n        /* \"#utility.yul\":9934:9939   */\n      dup2\n        /* \"#utility.yul\":9923:9939   */\n      swap1\n      pop\n        /* \"#utility.yul\":9868:9945   */\n      swap2\n      swap1\n      pop\n      jump\t// out\n        /* \"#utility.yul\":9951:10076   */\n    tag_238:\n        /* \"#utility.yul\":10006:10015   */\n      0x00\n        /* \"#utility.yul\":10039:10070   */\n      tag_322\n        /* \"#utility.yul\":10064:10069   */\n      dup3\n        /* \"#utility.yul\":10039:10070   */\n      tag_315\n      jump\t// in\n    tag_322:\n        /* \"#utility.yul\":10026:10070   */\n      swap1\n      pop\n        /* \"#utility.yul\":9951:10076   */\n      swap2\n      swap1\n      pop\n      jump\t// out\n        /* \"#utility.yul\":10082:10236   */\n    tag_179:\n        /* \"#utility.yul\":10166:10172   */\n      dup3\n        /* \"#utility.yul\":10161:10164   */\n      dup2\n        /* \"#utility.yul\":10156:10159   */\n      dup4\n        /* \"#utility.yul\":10143:10173   */\n      calldatacopy\n        /* \"#utility.yul\":10228:10229   */\n      0x00\n        /* \"#utility.yul\":10219:10225   */\n      dup4\n        /* \"#utility.yul\":10214:10217   */\n      dup4\n        /* \"#utility.yul\":10210:10226   */\n      add\n        /* \"#utility.yul\":10203:10230   */\n      mstore\n        /* \"#utility.yul\":10082:10236   */\n      pop\n      pop\n      pop\n      jump\t// out\n        /* \"#utility.yul\":10242:10549   */\n    tag_246:\n        /* \"#utility.yul\":10310:10311   */\n      0x00\n        /* \"#utility.yul\":10320:10433   */\n    tag_325:\n        /* \"#utility.yul\":10334:10340   */\n      dup4\n        /* \"#utility.yul\":10331:10332   */\n      dup2\n        /* \"#utility.yul\":10328:10341   */\n      lt\n        /* \"#utility.yul\":10320:10433   */\n      iszero\n      tag_327\n      jumpi\n        /* \"#utility.yul\":10419:10420   */\n      dup1\n        /* \"#utility.yul\":10414:10417   */\n      dup3\n        /* \"#utility.yul\":10410:10421   */\n      add\n        /* \"#utility.yul\":10404:10422   */\n      mload\n        /* \"#utility.yul\":10400:10401   */\n      dup2\n        /* \"#utility.yul\":10395:10398   */\n      dup5\n        /* \"#utility.yul\":10391:10402   */\n      add\n        /* \"#utility.yul\":10384:10423   */\n      mstore\n        /* \"#utility.yul\":10356:10358   */\n      0x20\n        /* \"#utility.yul\":10353:10354   */\n      dup2\n        /* \"#utility.yul\":10349:10359   */\n      add\n        /* \"#utility.yul\":10344:10359   */\n      swap1\n      pop\n        /* \"#utility.yul\":10320:10433   */\n      jump(tag_325)\n    tag_327:\n        /* \"#utility.yul\":10451:10457   */\n      dup4\n        /* \"#utility.yul\":10448:10449   */\n      dup2\n        /* \"#utility.yul\":10445:10458   */\n      gt\n        /* \"#utility.yul\":10442:10543   */\n      iszero\n      tag_328\n      jumpi\n        /* \"#utility.yul\":10531:10532   */\n      0x00\n        /* \"#utility.yul\":10522:10528   */\n      dup5\n        /* \"#utility.yul\":10517:10520   */\n      dup5\n        /* \"#utility.yul\":10513:10529   */\n      add\n        /* \"#utility.yul\":10506:10533   */\n      mstore\n        /* \"#utility.yul\":10442:10543   */\n    tag_328:\n        /* \"#utility.yul\":10291:10549   */\n      pop\n        /* \"#utility.yul\":10242:10549   */\n      pop\n      pop\n      pop\n      jump\t// out\n        /* \"#utility.yul\":10555:10875   */\n    tag_92:\n        /* \"#utility.yul\":10599:10605   */\n      0x00\n        /* \"#utility.yul\":10636:10637   */\n      0x02\n        /* \"#utility.yul\":10630:10634   */\n      dup3\n        /* \"#utility.yul\":10626:10638   */\n      div\n        /* \"#utility.yul\":10616:10638   */\n      swap1\n      pop\n        /* \"#utility.yul\":10683:10684   */\n      0x01\n        /* \"#utility.yul\":10677:10681   */\n      dup3\n        /* \"#utility.yul\":10673:10685   */\n      and\n        /* \"#utility.yul\":10704:10722   */\n      dup1\n        /* \"#utility.yul\":10694:10775   */\n      tag_330\n      jumpi\n        /* \"#utility.yul\":10760:10764   */\n      0x7f\n        /* \"#utility.yul\":10752:10758   */\n      dup3\n        /* \"#utility.yul\":10748:10765   */\n      and\n        /* \"#utility.yul\":10738:10765   */\n      swap2\n      pop\n        /* \"#utility.yul\":10694:10775   */\n    tag_330:\n        /* \"#utility.yul\":10822:10824   */\n      0x20\n        /* \"#utility.yul\":10814:10820   */\n      dup3\n        /* \"#utility.yul\":10811:10825   */\n      lt\n        /* \"#utility.yul\":10791:10809   */\n      dup2\n        /* \"#utility.yul\":10788:10826   */\n      eq\n        /* \"#utility.yul\":10785:10869   */\n      iszero\n      tag_331\n      jumpi\n        /* \"#utility.yul\":10841:10859   */\n      tag_332\n      tag_333\n      jump\t// in\n    tag_332:\n        /* \"#utility.yul\":10785:10869   */\n    tag_331:\n        /* \"#utility.yul\":10606:10875   */\n      pop\n        /* \"#utility.yul\":10555:10875   */\n      swap2\n      swap1\n      pop\n      jump\t// out\n        /* \"#utility.yul\":10881:11162   */\n    tag_282:\n        /* \"#utility.yul\":10964:10991   */\n      tag_335\n        /* \"#utility.yul\":10986:10990   */\n      dup3\n        /* \"#utility.yul\":10964:10991   */\n      tag_248\n      jump\t// in\n    tag_335:\n        /* \"#utility.yul\":10956:10962   */\n      dup2\n        /* \"#utility.yul\":10952:10992   */\n      add\n        /* \"#utility.yul\":11094:11100   */\n      dup2\n        /* \"#utility.yul\":11082:11092   */\n      dup2\n        /* \"#utility.yul\":11079:11101   */\n      lt\n        /* \"#utility.yul\":11058:11076   */\n      0xffffffffffffffff\n        /* \"#utility.yul\":11046:11056   */\n      dup3\n        /* \"#utility.yul\":11043:11077   */\n      gt\n        /* \"#utility.yul\":11040:11102   */\n      or\n        /* \"#utility.yul\":11037:11125   */\n      iszero\n      tag_336\n      jumpi\n        /* \"#utility.yul\":11105:11123   */\n      tag_337\n      tag_287\n      jump\t// in\n    tag_337:\n        /* \"#utility.yul\":11037:11125   */\n    tag_336:\n        /* \"#utility.yul\":11145:11155   */\n      dup1\n        /* \"#utility.yul\":11141:11143   */\n      0x40\n        /* \"#utility.yul\":11134:11156   */\n      mstore\n        /* \"#utility.yul\":10924:11162   */\n      pop\n        /* \"#utility.yul\":10881:11162   */\n      pop\n      pop\n      jump\t// out\n        /* \"#utility.yul\":11168:11348   */\n    tag_296:\n        /* \"#utility.yul\":11216:11293   */\n      0x4e487b7100000000000000000000000000000000000000000000000000000000\n        /* \"#utility.yul\":11213:11214   */\n      0x00\n        /* \"#utility.yul\":11206:11294   */\n      mstore\n        /* \"#utility.yul\":11313:11317   */\n      0x11\n        /* \"#utility.yul\":11310:11311   */\n      0x04\n        /* \"#utility.yul\":11303:11318   */\n      mstore\n        /* \"#utility.yul\":11337:11341   */\n      0x24\n        /* \"#utility.yul\":11334:11335   */\n      0x00\n        /* \"#utility.yul\":11327:11342   */\n      revert\n        /* \"#utility.yul\":11354:11534   */\n    tag_302:\n        /* \"#utility.yul\":11402:11479   */\n      0x4e487b7100000000000000000000000000000000000000000000000000000000\n        /* \"#utility.yul\":11399:11400   */\n      0x00\n        /* \"#utility.yul\":11392:11480   */\n      mstore\n        /* \"#utility.yul\":11499:11503   */\n      0x12\n        /* \"#utility.yul\":11496:11497   */\n      0x04\n        /* \"#utility.yul\":11489:11504   */\n      mstore\n        /* \"#utility.yul\":11523:11527   */\n      0x24\n        /* \"#utility.yul\":11520:11521   */\n      0x00\n        /* \"#utility.yul\":11513:11528   */\n      revert\n        /* \"#utility.yul\":11540:11720   */\n    tag_78:\n        /* \"#utility.yul\":11588:11665   */\n      0x4e487b7100000000000000000000000000000000000000000000000000000000\n        /* \"#utility.yul\":11585:11586   */\n      0x00\n        /* \"#utility.yul\":11578:11666   */\n      mstore\n        /* \"#utility.yul\":11685:11689   */\n      0x21\n        /* \"#utility.yul\":11682:11683   */\n      0x04\n        /* \"#utility.yul\":11675:11690   */\n      mstore\n        /* \"#utility.yul\":11709:11713   */\n      0x24\n        /* \"#utility.yul\":11706:11707   */\n      0x00\n        /* \"#utility.yul\":11699:11714   */\n      revert\n        /* \"#utility.yul\":11726:11906   */\n    tag_333:\n        /* \"#utility.yul\":11774:11851   */\n      0x4e487b7100000000000000000000000000000000000000000000000000000000\n        /* \"#utility.yul\":11771:11772   */\n      0x00\n        /* \"#utility.yul\":11764:11852   */\n      mstore\n        /* \"#utility.yul\":11871:11875   */\n      0x22\n        /* \"#utility.yul\":11868:11869   */\n      0x04\n        /* \"#utility.yul\":11861:11876   */\n      mstore\n        /* \"#utility.yul\":11895:11899   */\n      0x24\n        /* \"#utility.yul\":11892:11893   */\n      0x00\n        /* \"#utility.yul\":11885:11900   */\n      revert\n        /* \"#utility.yul\":11912:12092   */\n    tag_87:\n        /* \"#utility.yul\":11960:12037   */\n      0x4e487b7100000000000000000000000000000000000000000000000000000000\n        /* \"#utility.yul\":11957:11958   */\n      0x00\n        /* \"#utility.yul\":11950:12038   */\n      mstore\n        /* \"#utility.yul\":12057:12061   */\n      0x32\n        /* \"#utility.yul\":12054:12055   */\n      0x04\n        /* \"#utility.yul\":12047:12062   */\n      mstore\n        /* \"#utility.yul\":12081:12085   */\n      0x24\n        /* \"#utility.yul\":12078:12079   */\n      0x00\n        /* \"#utility.yul\":12071:12086   */\n      revert\n        /* \"#utility.yul\":12098:12278   */\n    tag_287:\n        /* \"#utility.yul\":12146:12223   */\n      0x4e487b7100000000000000000000000000000000000000000000000000000000\n        /* \"#utility.yul\":12143:12144   */\n      0x00\n        /* \"#utility.yul\":12136:12224   */\n      mstore\n        /* \"#utility.yul\":12243:12247   */\n      0x41\n        /* \"#utility.yul\":12240:12241   */\n      0x04\n        /* \"#utility.yul\":12233:12248   */\n      mstore\n        /* \"#utility.yul\":12267:12271   */\n      0x24\n        /* \"#utility.yul\":12264:12265   */\n      0x00\n        /* \"#utility.yul\":12257:12272   */\n      revert\n        /* \"#utility.yul\":12284:12401   */\n    tag_192:\n        /* \"#utility.yul\":12393:12394   */\n      0x00\n        /* \"#utility.yul\":12390:12391   */\n      dup1\n        /* \"#utility.yul\":12383:12395   */\n      revert\n        /* \"#utility.yul\":12407:12524   */\n    tag_177:\n        /* \"#utility.yul\":12516:12517   */\n      0x00\n        /* \"#utility.yul\":12513:12514   */\n      dup1\n        /* \"#utility.yul\":12506:12518   */\n      revert\n        /* \"#utility.yul\":12530:12647   */\n    tag_210:\n        /* \"#utility.yul\":12639:12640   */\n      0x00\n        /* \"#utility.yul\":12636:12637   */\n      dup1\n        /* \"#utility.yul\":12629:12641   */\n      revert\n        /* \"#utility.yul\":12653:12770   */\n    tag_201:\n        /* \"#utility.yul\":12762:12763   */\n      0x00\n        /* \"#utility.yul\":12759:12760   */\n      dup1\n        /* \"#utility.yul\":12752:12764   */\n      revert\n        /* \"#utility.yul\":12776:12878   */\n    tag_248:\n        /* \"#utility.yul\":12817:12823   */\n      0x00\n        /* \"#utility.yul\":12868:12870   */\n      0x1f\n        /* \"#utility.yul\":12864:12871   */\n      not\n        /* \"#utility.yul\":12859:12861   */\n      0x1f\n        /* \"#utility.yul\":12852:12857   */\n      dup4\n        /* \"#utility.yul\":12848:12862   */\n      add\n        /* \"#utility.yul\":12844:12872   */\n      and\n        /* \"#utility.yul\":12834:12872   */\n      swap1\n      pop\n        /* \"#utility.yul\":12776:12878   */\n      swap2\n      swap1\n      pop\n      jump\t// out\n        /* \"#utility.yul\":12884:13059   */\n    tag_253:\n        /* \"#utility.yul\":13024:13051   */\n      0x63616c6c6572206973206e6f7420612070726f64756365722e00000000000000\n        /* \"#utility.yul\":13020:13021   */\n      0x00\n        /* \"#utility.yul\":13012:13018   */\n      dup3\n        /* \"#utility.yul\":13008:13022   */\n      add\n        /* \"#utility.yul\":13001:13052   */\n      mstore\n        /* \"#utility.yul\":12884:13059   */\n      pop\n      jump\t// out\n        /* \"#utility.yul\":13065:13245   */\n    tag_258:\n        /* \"#utility.yul\":13205:13237   */\n      0x63616c6c6572206973206e6f742074686520746f6b656e206f776e65722e0000\n        /* \"#utility.yul\":13201:13202   */\n      0x00\n        /* \"#utility.yul\":13193:13199   */\n      dup3\n        /* \"#utility.yul\":13189:13203   */\n      add\n        /* \"#utility.yul\":13182:13238   */\n      mstore\n        /* \"#utility.yul\":13065:13245   */\n      pop\n      jump\t// out\n        /* \"#utility.yul\":13251:13363   */\n    tag_318:\n        /* \"#utility.yul\":13331:13332   */\n      0x05\n        /* \"#utility.yul\":13324:13329   */\n      dup2\n        /* \"#utility.yul\":13321:13333   */\n      lt\n        /* \"#utility.yul\":13311:13357   */\n      tag_352\n      jumpi\n        /* \"#utility.yul\":13337:13355   */\n      tag_353\n      tag_78\n      jump\t// in\n    tag_353:\n        /* \"#utility.yul\":13311:13357   */\n    tag_352:\n        /* \"#utility.yul\":13251:13363   */\n      pop\n      jump\t// out\n        /* \"#utility.yul\":13369:13491   */\n    tag_183:\n        /* \"#utility.yul\":13442:13466   */\n      tag_355\n        /* \"#utility.yul\":13460:13465   */\n      dup2\n        /* \"#utility.yul\":13442:13466   */\n      tag_308\n      jump\t// in\n    tag_355:\n        /* \"#utility.yul\":13435:13440   */\n      dup2\n        /* \"#utility.yul\":13432:13467   */\n      eq\n        /* \"#utility.yul\":13422:13485   */\n      tag_356\n      jumpi\n        /* \"#utility.yul\":13481:13482   */\n      0x00\n        /* \"#utility.yul\":13478:13479   */\n      dup1\n        /* \"#utility.yul\":13471:13483   */\n      revert\n        /* \"#utility.yul\":13422:13485   */\n    tag_356:\n        /* \"#utility.yul\":13369:13491   */\n      pop\n      jump\t// out\n        /* \"#utility.yul\":13497:13603   */\n    tag_187:\n        /* \"#utility.yul\":13577:13578   */\n      0x05\n        /* \"#utility.yul\":13570:13575   */\n      dup2\n        /* \"#utility.yul\":13567:13579   */\n      lt\n        /* \"#utility.yul\":13557:13597   */\n      tag_358\n      jumpi\n        /* \"#utility.yul\":13593:13594   */\n      0x00\n        /* \"#utility.yul\":13590:13591   */\n      dup1\n        /* \"#utility.yul\":13583:13595   */\n      revert\n        /* \"#utility.yul\":13557:13597   */\n    tag_358:\n        /* \"#utility.yul\":13497:13603   */\n      pop\n      jump\t// out\n        /* \"#utility.yul\":13609:13731   */\n    tag_197:\n        /* \"#utility.yul\":13682:13706   */\n      tag_360\n        /* \"#utility.yul\":13700:13705   */\n      dup2\n        /* \"#utility.yul\":13682:13706   */\n      tag_262\n      jump\t// in\n    tag_360:\n        /* \"#utility.yul\":13675:13680   */\n      dup2\n        /* \"#utility.yul\":13672:13707   */\n      eq\n        /* \"#utility.yul\":13662:13725   */\n      tag_361\n      jumpi\n        /* \"#utility.yul\":13721:13722   */\n      0x00\n        /* \"#utility.yul\":13718:13719   */\n      dup1\n        /* \"#utility.yul\":13711:13723   */\n      revert\n        /* \"#utility.yul\":13662:13725   */\n    tag_361:\n        /* \"#utility.yul\":13609:13731   */\n      pop\n      jump\t// out\n\n    auxdata: 0xa26469706673582212201c50453f1e01230c20e9b851a96ff62eac5d596271098cce84f9560ab8de247d64736f6c63430008070033\n}\n",
				"bytecode": {
					"linkReferences": {},
					"object": "60806040523480156200001157600080fd5b5060405162001cc738038062001cc7833981810160405281019062000037919062000243565b82600090805190602001906200004f929190620000fe565b50816001908051906020019062000068929190620000fe565b508060038190555033600260006101000a81548173ffffffffffffffffffffffffffffffffffffffff021916908373ffffffffffffffffffffffffffffffffffffffff16021790555080600460003373ffffffffffffffffffffffffffffffffffffffff1673ffffffffffffffffffffffffffffffffffffffff1681526020019081526020016000208190555050505062000485565b8280546200010c906200037c565b90600052602060002090601f0160209004810192826200013057600085556200017c565b82601f106200014b57805160ff19168380011785556200017c565b828001600101855582156200017c579182015b828111156200017b5782518255916020019190600101906200015e565b5b5090506200018b91906200018f565b5090565b5b80821115620001aa57600081600090555060010162000190565b5090565b6000620001c5620001bf8462000306565b620002dd565b905082815260208101848484011115620001e457620001e36200044b565b5b620001f184828562000346565b509392505050565b600082601f83011262000211576200021062000446565b5b815162000223848260208601620001ae565b91505092915050565b6000815190506200023d816200046b565b92915050565b6000806000606084860312156200025f576200025e62000455565b5b600084015167ffffffffffffffff81111562000280576200027f62000450565b5b6200028e86828701620001f9565b935050602084015167ffffffffffffffff811115620002b257620002b162000450565b5b620002c086828701620001f9565b9250506040620002d3868287016200022c565b9150509250925092565b6000620002e9620002fc565b9050620002f78282620003b2565b919050565b6000604051905090565b600067ffffffffffffffff82111562000324576200032362000417565b5b6200032f826200045a565b9050602081019050919050565b6000819050919050565b60005b838110156200036657808201518184015260208101905062000349565b8381111562000376576000848401525b50505050565b600060028204905060018216806200039557607f821691505b60208210811415620003ac57620003ab620003e8565b5b50919050565b620003bd826200045a565b810181811067ffffffffffffffff82111715620003df57620003de62000417565b5b80604052505050565b7f4e487b7100000000000000000000000000000000000000000000000000000000600052602260045260246000fd5b7f4e487b7100000000000000000000000000000000000000000000000000000000600052604160045260246000fd5b600080fd5b600080fd5b600080fd5b600080fd5b6000601f19601f8301169050919050565b62000476816200033c565b81146200048257600080fd5b50565b61183280620004956000396000f3fe6080604052600436106100a75760003560e01c8063a0712d6811610064578063a0712d68146101ba578063a3e67610146101e3578063a48217191461020e578063b292abf114610218578063cd0c589614610256578063eedc966a14610293576100a7565b80630319c2d8146100ac57806306fdde03146100d557806340932fc21461010057806368cdafe61461012957806395d89b41146101665780639dc29fac14610191575b600080fd5b3480156100b857600080fd5b506100d360048036038101906100ce91906111d7565b6102d0565b005b3480156100e157600080fd5b506100ea610551565b6040516100f7919061134b565b60405180910390f35b34801561010c57600080fd5b50610127600480360381019061012291906110fb565b6105df565b005b34801561013557600080fd5b50610150600480360381019061014b919061116a565b610815565b60405161015d9190611300565b60405180910390f35b34801561017257600080fd5b5061017b610953565b604051610188919061134b565b60405180910390f35b34801561019d57600080fd5b506101b860048036038101906101b3919061116a565b6109e1565b005b3480156101c657600080fd5b506101e160048036038101906101dc91906111aa565b610b6a565b005b3480156101ef57600080fd5b506101f8610c6c565b60405161020591906112e5565b60405180910390f35b610216610c92565b005b34801561022457600080fd5b5061023f600480360381019061023a91906110ce565b610dea565b60405161024d92919061131b565b60405180910390f35b34801561026257600080fd5b5061027d600480360381019061027891906110ce565b610f12565b60405161028a91906113ad565b60405180910390f35b34801561029f57600080fd5b506102ba60048036038101906102b591906110ce565b610f33565b6040516102c791906113ad565b60405180910390f35b600060048111156102e4576102e3611677565b5b600560003373ffffffffffffffffffffffffffffffffffffffff1673ffffffffffffffffffffffffffffffffffffffff16815260200190815260200160002060000160009054906101000a900460ff16600481111561034657610345611677565b5b14610386576040517f08c379a000000000000000000000000000000000000000000000000000000000815260040161037d9061136d565b60405180910390fd5b6000600660008581526020019081526020016000209050838160000181905550338160010160006101000a81548173ffffffffffffffffffffffffffffffffffffffff021916908373ffffffffffffffffffffffffffffffffffffffff160217905550338160020160006101000a81548173ffffffffffffffffffffffffffffffffffffffff021916908373ffffffffffffffffffffffffffffffffffffffff1602179055508281600301600060048110610444576104436116d5565b5b018190555060008160070160006101000a81548160ff0219169083600581111561047157610470611677565b5b021790555081816008018190555060008160090160006101000a81548173ffffffffffffffffffffffffffffffffffffffff021916908373ffffffffffffffffffffffffffffffffffffffff160217905550600081600a0160006101000a81548173ffffffffffffffffffffffffffffffffffffffff021916908373ffffffffffffffffffffffffffffffffffffffff160217905550600081600b0160006101000a81548173ffffffffffffffffffffffffffffffffffffffff021916908373ffffffffffffffffffffffffffffffffffffffff16021790555050505050565b6000805461055e906115b6565b80601f016020809104026020016040519081016040528092919081815260200182805461058a906115b6565b80156105d75780601f106105ac576101008083540402835291602001916105d7565b820191906000526020600020905b8154815290600101906020018083116105ba57829003601f168201915b505050505081565b6000600560008573ffffffffffffffffffffffffffffffffffffffff1673ffffffffffffffffffffffffffffffffffffffff1681526020019081526020016000206040518060600160405290816000820160009054906101000a900460ff1660048111156106505761064f611677565b5b600481111561066257610661611677565b5b8152602001600182018054610676906115b6565b80601f01602080910402602001604051908101604052809291908181526020018280546106a2906115b6565b80156106ef5780601f106106c4576101008083540402835291602001916106ef565b820191906000526020600020905b8154815290600101906020018083116106d257829003601f168201915b505050505081526020016002820160009054906101000a900460ff1615151515815250509050828160000190600481111561072d5761072c611677565b5b9081600481111561074157610740611677565b5b81525050818160200181905250600181604001901515908115158152505080600560008673ffffffffffffffffffffffffffffffffffffffff1673ffffffffffffffffffffffffffffffffffffffff16815260200190815260200160002060008201518160000160006101000a81548160ff021916908360048111156107ca576107c9611677565b5b021790555060208201518160010190805190602001906107eb929190610f7c565b5060408201518160020160006101000a81548160ff02191690831515021790555090505050505050565b600081600460003373ffffffffffffffffffffffffffffffffffffffff1673ffffffffffffffffffffffffffffffffffffffff16815260200190815260200160002054101561086357600080fd5b600073ffffffffffffffffffffffffffffffffffffffff168373ffffffffffffffffffffffffffffffffffffffff16141561089d57600080fd5b81600460003373ffffffffffffffffffffffffffffffffffffffff1673ffffffffffffffffffffffffffffffffffffffff16815260200190815260200160002060008282546108ec91906114c1565b9250508190555081600460008573ffffffffffffffffffffffffffffffffffffffff1673ffffffffffffffffffffffffffffffffffffffff1681526020019081526020016000206000828254610942919061143a565b925050819055506001905092915050565b60018054610960906115b6565b80601f016020809104026020016040519081016040528092919081815260200182805461098c906115b6565b80156109d95780601f106109ae576101008083540402835291602001916109d9565b820191906000526020600020905b8154815290600101906020018083116109bc57829003601f168201915b505050505081565b600260009054906101000a900473ffffffffffffffffffffffffffffffffffffffff1673ffffffffffffffffffffffffffffffffffffffff163373ffffffffffffffffffffffffffffffffffffffff1614610a71576040517f08c379a0000000000000000000000000000000000000000000000000000000008152600401610a689061138d565b60405180910390fd5b600073ffffffffffffffffffffffffffffffffffffffff168273ffffffffffffffffffffffffffffffffffffffff161415610aab57600080fd5b600460008373ffffffffffffffffffffffffffffffffffffffff1673ffffffffffffffffffffffffffffffffffffffff16815260200190815260200160002054811115610af757600080fd5b8060036000828254610b0991906114c1565b9250508190555080600460008473ffffffffffffffffffffffffffffffffffffffff1673ffffffffffffffffffffffffffffffffffffffff1681526020019081526020016000206000828254610b5f91906114c1565b925050819055505050565b600260009054906101000a900473ffffffffffffffffffffffffffffffffffffffff1673ffffffffffffffffffffffffffffffffffffffff163373ffffffffffffffffffffffffffffffffffffffff1614610bfa576040517f08c379a0000000000000000000000000000000000000000000000000000000008152600401610bf19061138d565b60405180910390fd5b8060036000828254610c0c919061143a565b9250508190555080600460003373ffffffffffffffffffffffffffffffffffffffff1673ffffffffffffffffffffffffffffffffffffffff1681526020019081526020016000206000828254610c62919061143a565b9250508190555050565b600260009054906101000a900473ffffffffffffffffffffffffffffffffffffffff1681565b6000606434610ca19190611490565b905060003411610cb057600080fd5b600260009054906101000a900473ffffffffffffffffffffffffffffffffffffffff1673ffffffffffffffffffffffffffffffffffffffff166108fc349081150290604051600060405180830381858888f19350505050158015610d18573d6000803e3d6000fd5b508060046000600260009054906101000a900473ffffffffffffffffffffffffffffffffffffffff1673ffffffffffffffffffffffffffffffffffffffff1673ffffffffffffffffffffffffffffffffffffffff1681526020019081526020016000206000828254610d8a91906114c1565b9250508190555080600460003373ffffffffffffffffffffffffffffffffffffffff1673ffffffffffffffffffffffffffffffffffffffff1681526020019081526020016000206000828254610de0919061143a565b9250508190555050565b60006060600560008473ffffffffffffffffffffffffffffffffffffffff1673ffffffffffffffffffffffffffffffffffffffff16815260200190815260200160002060000160009054906101000a900460ff169150600560008473ffffffffffffffffffffffffffffffffffffffff1673ffffffffffffffffffffffffffffffffffffffff1681526020019081526020016000206001018054610e8d906115b6565b80601f0160208091040260200160405190810160405280929190818152602001828054610eb9906115b6565b8015610f065780601f10610edb57610100808354040283529160200191610f06565b820191906000526020600020905b815481529060010190602001808311610ee957829003601f168201915b50505050509050915091565b60008173ffffffffffffffffffffffffffffffffffffffff16319050919050565b6000600460008373ffffffffffffffffffffffffffffffffffffffff1673ffffffffffffffffffffffffffffffffffffffff168152602001908152602001600020549050919050565b828054610f88906115b6565b90600052602060002090601f016020900481019282610faa5760008555610ff1565b82601f10610fc357805160ff1916838001178555610ff1565b82800160010185558215610ff1579182015b82811115610ff0578251825591602001919060010190610fd5565b5b509050610ffe9190611002565b5090565b5b8082111561101b576000816000905550600101611003565b5090565b600061103261102d846113ed565b6113c8565b90508281526020810184848401111561104e5761104d611738565b5b611059848285611574565b509392505050565b600081359050611070816117be565b92915050565b600081359050611085816117d5565b92915050565b600082601f8301126110a05761109f611733565b5b81356110b084826020860161101f565b91505092915050565b6000813590506110c8816117e5565b92915050565b6000602082840312156110e4576110e3611742565b5b60006110f284828501611061565b91505092915050565b60008060006060848603121561111457611113611742565b5b600061112286828701611061565b935050602061113386828701611076565b925050604084013567ffffffffffffffff8111156111545761115361173d565b5b6111608682870161108b565b9150509250925092565b6000806040838503121561118157611180611742565b5b600061118f85828601611061565b92505060206111a0858286016110b9565b9150509250929050565b6000602082840312156111c0576111bf611742565b5b60006111ce848285016110b9565b91505092915050565b6000806000606084860312156111f0576111ef611742565b5b60006111fe868287016110b9565b935050602061120f868287016110b9565b9250506040611220868287016110b9565b9150509250925092565b61123381611507565b82525050565b61124281611519565b82525050565b61125181611562565b82525050565b60006112628261141e565b61126c8185611429565b935061127c818560208601611583565b61128581611747565b840191505092915050565b600061129d601983611429565b91506112a882611758565b602082019050919050565b60006112c0601e83611429565b91506112cb82611781565b602082019050919050565b6112df81611558565b82525050565b60006020820190506112fa600083018461122a565b92915050565b60006020820190506113156000830184611239565b92915050565b60006040820190506113306000830185611248565b81810360208301526113428184611257565b90509392505050565b600060208201905081810360008301526113658184611257565b905092915050565b6000602082019050818103600083015261138681611290565b9050919050565b600060208201905081810360008301526113a6816112b3565b9050919050565b60006020820190506113c260008301846112d6565b92915050565b60006113d26113e3565b90506113de82826115e8565b919050565b6000604051905090565b600067ffffffffffffffff82111561140857611407611704565b5b61141182611747565b9050602081019050919050565b600081519050919050565b600082825260208201905092915050565b600061144582611558565b915061145083611558565b9250827fffffffffffffffffffffffffffffffffffffffffffffffffffffffffffffffff0382111561148557611484611619565b5b828201905092915050565b600061149b82611558565b91506114a683611558565b9250826114b6576114b5611648565b5b828204905092915050565b60006114cc82611558565b91506114d783611558565b9250828210156114ea576114e9611619565b5b828203905092915050565b600061150082611538565b9050919050565b600061151282611538565b9050919050565b60008115159050919050565b6000819050611533826117aa565b919050565b600073ffffffffffffffffffffffffffffffffffffffff82169050919050565b6000819050919050565b600061156d82611525565b9050919050565b82818337600083830152505050565b60005b838110156115a1578082015181840152602081019050611586565b838111156115b0576000848401525b50505050565b600060028204905060018216806115ce57607f821691505b602082108114156115e2576115e16116a6565b5b50919050565b6115f182611747565b810181811067ffffffffffffffff821117156116105761160f611704565b5b80604052505050565b7f4e487b7100000000000000000000000000000000000000000000000000000000600052601160045260246000fd5b7f4e487b7100000000000000000000000000000000000000000000000000000000600052601260045260246000fd5b7f4e487b7100000000000000000000000000000000000000000000000000000000600052602160045260246000fd5b7f4e487b7100000000000000000000000000000000000000000000000000000000600052602260045260246000fd5b7f4e487b7100000000000000000000000000000000000000000000000000000000600052603260045260246000fd5b7f4e487b7100000000000000000000000000000000000000000000000000000000600052604160045260246000fd5b600080fd5b600080fd5b600080fd5b600080fd5b6000601f19601f8301169050919050565b7f63616c6c6572206973206e6f7420612070726f64756365722e00000000000000600082015250565b7f63616c6c6572206973206e6f742074686520746f6b656e206f776e65722e0000600082015250565b600581106117bb576117ba611677565b5b50565b6117c7816114f5565b81146117d257600080fd5b50565b600581106117e257600080fd5b50565b6117ee81611558565b81146117f957600080fd5b5056fea26469706673582212201c50453f1e01230c20e9b851a96ff62eac5d596271098cce84f9560ab8de247d64736f6c63430008070033",
					"opcodes": "PUSH1 0x80 PUSH1 0x40 MSTORE CALLVALUE DUP1 ISZERO PUSH3 0x11 JUMPI PUSH1 0x0 DUP1 REVERT JUMPDEST POP PUSH1 0x40 MLOAD PUSH3 0x1CC7 CODESIZE SUB DUP1 PUSH3 0x1CC7 DUP4 CODECOPY DUP2 DUP2 ADD PUSH1 0x40 MSTORE DUP2 ADD SWAP1 PUSH3 0x37 SWAP2 SWAP1 PUSH3 0x243 JUMP JUMPDEST DUP3 PUSH1 0x0 SWAP1 DUP1 MLOAD SWAP1 PUSH1 0x20 ADD SWAP1 PUSH3 0x4F SWAP3 SWAP2 SWAP1 PUSH3 0xFE JUMP JUMPDEST POP DUP2 PUSH1 0x1 SWAP1 DUP1 MLOAD SWAP1 PUSH1 0x20 ADD SWAP1 PUSH3 0x68 SWAP3 SWAP2 SWAP1 PUSH3 0xFE JUMP JUMPDEST POP DUP1 PUSH1 0x3 DUP2 SWAP1 SSTORE POP CALLER PUSH1 0x2 PUSH1 0x0 PUSH2 0x100 EXP DUP2 SLOAD DUP2 PUSH20 0xFFFFFFFFFFFFFFFFFFFFFFFFFFFFFFFFFFFFFFFF MUL NOT AND SWAP1 DUP4 PUSH20 0xFFFFFFFFFFFFFFFFFFFFFFFFFFFFFFFFFFFFFFFF AND MUL OR SWAP1 SSTORE POP DUP1 PUSH1 0x4 PUSH1 0x0 CALLER PUSH20 0xFFFFFFFFFFFFFFFFFFFFFFFFFFFFFFFFFFFFFFFF AND PUSH20 0xFFFFFFFFFFFFFFFFFFFFFFFFFFFFFFFFFFFFFFFF AND DUP2 MSTORE PUSH1 0x20 ADD SWAP1 DUP2 MSTORE PUSH1 0x20 ADD PUSH1 0x0 KECCAK256 DUP2 SWAP1 SSTORE POP POP POP POP PUSH3 0x485 JUMP JUMPDEST DUP3 DUP1 SLOAD PUSH3 0x10C SWAP1 PUSH3 0x37C JUMP JUMPDEST SWAP1 PUSH1 0x0 MSTORE PUSH1 0x20 PUSH1 0x0 KECCAK256 SWAP1 PUSH1 0x1F ADD PUSH1 0x20 SWAP1 DIV DUP2 ADD SWAP3 DUP3 PUSH3 0x130 JUMPI PUSH1 0x0 DUP6 SSTORE PUSH3 0x17C JUMP JUMPDEST DUP3 PUSH1 0x1F LT PUSH3 0x14B JUMPI DUP1 MLOAD PUSH1 0xFF NOT AND DUP4 DUP1 ADD OR DUP6 SSTORE PUSH3 0x17C JUMP JUMPDEST DUP3 DUP1 ADD PUSH1 0x1 ADD DUP6 SSTORE DUP3 ISZERO PUSH3 0x17C JUMPI SWAP2 DUP3 ADD JUMPDEST DUP3 DUP2 GT ISZERO PUSH3 0x17B JUMPI DUP3 MLOAD DUP3 SSTORE SWAP2 PUSH1 0x20 ADD SWAP2 SWAP1 PUSH1 0x1 ADD SWAP1 PUSH3 0x15E JUMP JUMPDEST JUMPDEST POP SWAP1 POP PUSH3 0x18B SWAP2 SWAP1 PUSH3 0x18F JUMP JUMPDEST POP SWAP1 JUMP JUMPDEST JUMPDEST DUP1 DUP3 GT ISZERO PUSH3 0x1AA JUMPI PUSH1 0x0 DUP2 PUSH1 0x0 SWAP1 SSTORE POP PUSH1 0x1 ADD PUSH3 0x190 JUMP JUMPDEST POP SWAP1 JUMP JUMPDEST PUSH1 0x0 PUSH3 0x1C5 PUSH3 0x1BF DUP5 PUSH3 0x306 JUMP JUMPDEST PUSH3 0x2DD JUMP JUMPDEST SWAP1 POP DUP3 DUP2 MSTORE PUSH1 0x20 DUP2 ADD DUP5 DUP5 DUP5 ADD GT ISZERO PUSH3 0x1E4 JUMPI PUSH3 0x1E3 PUSH3 0x44B JUMP JUMPDEST JUMPDEST PUSH3 0x1F1 DUP5 DUP3 DUP6 PUSH3 0x346 JUMP JUMPDEST POP SWAP4 SWAP3 POP POP POP JUMP JUMPDEST PUSH1 0x0 DUP3 PUSH1 0x1F DUP4 ADD SLT PUSH3 0x211 JUMPI PUSH3 0x210 PUSH3 0x446 JUMP JUMPDEST JUMPDEST DUP2 MLOAD PUSH3 0x223 DUP5 DUP3 PUSH1 0x20 DUP7 ADD PUSH3 0x1AE JUMP JUMPDEST SWAP2 POP POP SWAP3 SWAP2 POP POP JUMP JUMPDEST PUSH1 0x0 DUP2 MLOAD SWAP1 POP PUSH3 0x23D DUP2 PUSH3 0x46B JUMP JUMPDEST SWAP3 SWAP2 POP POP JUMP JUMPDEST PUSH1 0x0 DUP1 PUSH1 0x0 PUSH1 0x60 DUP5 DUP7 SUB SLT ISZERO PUSH3 0x25F JUMPI PUSH3 0x25E PUSH3 0x455 JUMP JUMPDEST JUMPDEST PUSH1 0x0 DUP5 ADD MLOAD PUSH8 0xFFFFFFFFFFFFFFFF DUP2 GT ISZERO PUSH3 0x280 JUMPI PUSH3 0x27F PUSH3 0x450 JUMP JUMPDEST JUMPDEST PUSH3 0x28E DUP7 DUP3 DUP8 ADD PUSH3 0x1F9 JUMP JUMPDEST SWAP4 POP POP PUSH1 0x20 DUP5 ADD MLOAD PUSH8 0xFFFFFFFFFFFFFFFF DUP2 GT ISZERO PUSH3 0x2B2 JUMPI PUSH3 0x2B1 PUSH3 0x450 JUMP JUMPDEST JUMPDEST PUSH3 0x2C0 DUP7 DUP3 DUP8 ADD PUSH3 0x1F9 JUMP JUMPDEST SWAP3 POP POP PUSH1 0x40 PUSH3 0x2D3 DUP7 DUP3 DUP8 ADD PUSH3 0x22C JUMP JUMPDEST SWAP2 POP POP SWAP3 POP SWAP3 POP SWAP3 JUMP JUMPDEST PUSH1 0x0 PUSH3 0x2E9 PUSH3 0x2FC JUMP JUMPDEST SWAP1 POP PUSH3 0x2F7 DUP3 DUP3 PUSH3 0x3B2 JUMP JUMPDEST SWAP2 SWAP1 POP JUMP JUMPDEST PUSH1 0x0 PUSH1 0x40 MLOAD SWAP1 POP SWAP1 JUMP JUMPDEST PUSH1 0x0 PUSH8 0xFFFFFFFFFFFFFFFF DUP3 GT ISZERO PUSH3 0x324 JUMPI PUSH3 0x323 PUSH3 0x417 JUMP JUMPDEST JUMPDEST PUSH3 0x32F DUP3 PUSH3 0x45A JUMP JUMPDEST SWAP1 POP PUSH1 0x20 DUP2 ADD SWAP1 POP SWAP2 SWAP1 POP JUMP JUMPDEST PUSH1 0x0 DUP2 SWAP1 POP SWAP2 SWAP1 POP JUMP JUMPDEST PUSH1 0x0 JUMPDEST DUP4 DUP2 LT ISZERO PUSH3 0x366 JUMPI DUP1 DUP3 ADD MLOAD DUP2 DUP5 ADD MSTORE PUSH1 0x20 DUP2 ADD SWAP1 POP PUSH3 0x349 JUMP JUMPDEST DUP4 DUP2 GT ISZERO PUSH3 0x376 JUMPI PUSH1 0x0 DUP5 DUP5 ADD MSTORE JUMPDEST POP POP POP POP JUMP JUMPDEST PUSH1 0x0 PUSH1 0x2 DUP3 DIV SWAP1 POP PUSH1 0x1 DUP3 AND DUP1 PUSH3 0x395 JUMPI PUSH1 0x7F DUP3 AND SWAP2 POP JUMPDEST PUSH1 0x20 DUP3 LT DUP2 EQ ISZERO PUSH3 0x3AC JUMPI PUSH3 0x3AB PUSH3 0x3E8 JUMP JUMPDEST JUMPDEST POP SWAP2 SWAP1 POP JUMP JUMPDEST PUSH3 0x3BD DUP3 PUSH3 0x45A JUMP JUMPDEST DUP2 ADD DUP2 DUP2 LT PUSH8 0xFFFFFFFFFFFFFFFF DUP3 GT OR ISZERO PUSH3 0x3DF JUMPI PUSH3 0x3DE PUSH3 0x417 JUMP JUMPDEST JUMPDEST DUP1 PUSH1 0x40 MSTORE POP POP POP JUMP JUMPDEST PUSH32 0x4E487B7100000000000000000000000000000000000000000000000000000000 PUSH1 0x0 MSTORE PUSH1 0x22 PUSH1 0x4 MSTORE PUSH1 0x24 PUSH1 0x0 REVERT JUMPDEST PUSH32 0x4E487B7100000000000000000000000000000000000000000000000000000000 PUSH1 0x0 MSTORE PUSH1 0x41 PUSH1 0x4 MSTORE PUSH1 0x24 PUSH1 0x0 REVERT JUMPDEST PUSH1 0x0 DUP1 REVERT JUMPDEST PUSH1 0x0 DUP1 REVERT JUMPDEST PUSH1 0x0 DUP1 REVERT JUMPDEST PUSH1 0x0 DUP1 REVERT JUMPDEST PUSH1 0x0 PUSH1 0x1F NOT PUSH1 0x1F DUP4 ADD AND SWAP1 POP SWAP2 SWAP1 POP JUMP JUMPDEST PUSH3 0x476 DUP2 PUSH3 0x33C JUMP JUMPDEST DUP2 EQ PUSH3 0x482 JUMPI PUSH1 0x0 DUP1 REVERT JUMPDEST POP JUMP JUMPDEST PUSH2 0x1832 DUP1 PUSH3 0x495 PUSH1 0x0 CODECOPY PUSH1 0x0 RETURN INVALID PUSH1 0x80 PUSH1 0x40 MSTORE PUSH1 0x4 CALLDATASIZE LT PUSH2 0xA7 JUMPI PUSH1 0x0 CALLDATALOAD PUSH1 0xE0 SHR DUP1 PUSH4 0xA0712D68 GT PUSH2 0x64 JUMPI DUP1 PUSH4 0xA0712D68 EQ PUSH2 0x1BA JUMPI DUP1 PUSH4 0xA3E67610 EQ PUSH2 0x1E3 JUMPI DUP1 PUSH4 0xA4821719 EQ PUSH2 0x20E JUMPI DUP1 PUSH4 0xB292ABF1 EQ PUSH2 0x218 JUMPI DUP1 PUSH4 0xCD0C5896 EQ PUSH2 0x256 JUMPI DUP1 PUSH4 0xEEDC966A EQ PUSH2 0x293 JUMPI PUSH2 0xA7 JUMP JUMPDEST DUP1 PUSH4 0x319C2D8 EQ PUSH2 0xAC JUMPI DUP1 PUSH4 0x6FDDE03 EQ PUSH2 0xD5 JUMPI DUP1 PUSH4 0x40932FC2 EQ PUSH2 0x100 JUMPI DUP1 PUSH4 0x68CDAFE6 EQ PUSH2 0x129 JUMPI DUP1 PUSH4 0x95D89B41 EQ PUSH2 0x166 JUMPI DUP1 PUSH4 0x9DC29FAC EQ PUSH2 0x191 JUMPI JUMPDEST PUSH1 0x0 DUP1 REVERT JUMPDEST CALLVALUE DUP1 ISZERO PUSH2 0xB8 JUMPI PUSH1 0x0 DUP1 REVERT JUMPDEST POP PUSH2 0xD3 PUSH1 0x4 DUP1 CALLDATASIZE SUB DUP2 ADD SWAP1 PUSH2 0xCE SWAP2 SWAP1 PUSH2 0x11D7 JUMP JUMPDEST PUSH2 0x2D0 JUMP JUMPDEST STOP JUMPDEST CALLVALUE DUP1 ISZERO PUSH2 0xE1 JUMPI PUSH1 0x0 DUP1 REVERT JUMPDEST POP PUSH2 0xEA PUSH2 0x551 JUMP JUMPDEST PUSH1 0x40 MLOAD PUSH2 0xF7 SWAP2 SWAP1 PUSH2 0x134B JUMP JUMPDEST PUSH1 0x40 MLOAD DUP1 SWAP2 SUB SWAP1 RETURN JUMPDEST CALLVALUE DUP1 ISZERO PUSH2 0x10C JUMPI PUSH1 0x0 DUP1 REVERT JUMPDEST POP PUSH2 0x127 PUSH1 0x4 DUP1 CALLDATASIZE SUB DUP2 ADD SWAP1 PUSH2 0x122 SWAP2 SWAP1 PUSH2 0x10FB JUMP JUMPDEST PUSH2 0x5DF JUMP JUMPDEST STOP JUMPDEST CALLVALUE DUP1 ISZERO PUSH2 0x135 JUMPI PUSH1 0x0 DUP1 REVERT JUMPDEST POP PUSH2 0x150 PUSH1 0x4 DUP1 CALLDATASIZE SUB DUP2 ADD SWAP1 PUSH2 0x14B SWAP2 SWAP1 PUSH2 0x116A JUMP JUMPDEST PUSH2 0x815 JUMP JUMPDEST PUSH1 0x40 MLOAD PUSH2 0x15D SWAP2 SWAP1 PUSH2 0x1300 JUMP JUMPDEST PUSH1 0x40 MLOAD DUP1 SWAP2 SUB SWAP1 RETURN JUMPDEST CALLVALUE DUP1 ISZERO PUSH2 0x172 JUMPI PUSH1 0x0 DUP1 REVERT JUMPDEST POP PUSH2 0x17B PUSH2 0x953 JUMP JUMPDEST PUSH1 0x40 MLOAD PUSH2 0x188 SWAP2 SWAP1 PUSH2 0x134B JUMP JUMPDEST PUSH1 0x40 MLOAD DUP1 SWAP2 SUB SWAP1 RETURN JUMPDEST CALLVALUE DUP1 ISZERO PUSH2 0x19D JUMPI PUSH1 0x0 DUP1 REVERT JUMPDEST POP PUSH2 0x1B8 PUSH1 0x4 DUP1 CALLDATASIZE SUB DUP2 ADD SWAP1 PUSH2 0x1B3 SWAP2 SWAP1 PUSH2 0x116A JUMP JUMPDEST PUSH2 0x9E1 JUMP JUMPDEST STOP JUMPDEST CALLVALUE DUP1 ISZERO PUSH2 0x1C6 JUMPI PUSH1 0x0 DUP1 REVERT JUMPDEST POP PUSH2 0x1E1 PUSH1 0x4 DUP1 CALLDATASIZE SUB DUP2 ADD SWAP1 PUSH2 0x1DC SWAP2 SWAP1 PUSH2 0x11AA JUMP JUMPDEST PUSH2 0xB6A JUMP JUMPDEST STOP JUMPDEST CALLVALUE DUP1 ISZERO PUSH2 0x1EF JUMPI PUSH1 0x0 DUP1 REVERT JUMPDEST POP PUSH2 0x1F8 PUSH2 0xC6C JUMP JUMPDEST PUSH1 0x40 MLOAD PUSH2 0x205 SWAP2 SWAP1 PUSH2 0x12E5 JUMP JUMPDEST PUSH1 0x40 MLOAD DUP1 SWAP2 SUB SWAP1 RETURN JUMPDEST PUSH2 0x216 PUSH2 0xC92 JUMP JUMPDEST STOP JUMPDEST CALLVALUE DUP1 ISZERO PUSH2 0x224 JUMPI PUSH1 0x0 DUP1 REVERT JUMPDEST POP PUSH2 0x23F PUSH1 0x4 DUP1 CALLDATASIZE SUB DUP2 ADD SWAP1 PUSH2 0x23A SWAP2 SWAP1 PUSH2 0x10CE JUMP JUMPDEST PUSH2 0xDEA JUMP JUMPDEST PUSH1 0x40 MLOAD PUSH2 0x24D SWAP3 SWAP2 SWAP1 PUSH2 0x131B JUMP JUMPDEST PUSH1 0x40 MLOAD DUP1 SWAP2 SUB SWAP1 RETURN JUMPDEST CALLVALUE DUP1 ISZERO PUSH2 0x262 JUMPI PUSH1 0x0 DUP1 REVERT JUMPDEST POP PUSH2 0x27D PUSH1 0x4 DUP1 CALLDATASIZE SUB DUP2 ADD SWAP1 PUSH2 0x278 SWAP2 SWAP1 PUSH2 0x10CE JUMP JUMPDEST PUSH2 0xF12 JUMP JUMPDEST PUSH1 0x40 MLOAD PUSH2 0x28A SWAP2 SWAP1 PUSH2 0x13AD JUMP JUMPDEST PUSH1 0x40 MLOAD DUP1 SWAP2 SUB SWAP1 RETURN JUMPDEST CALLVALUE DUP1 ISZERO PUSH2 0x29F JUMPI PUSH1 0x0 DUP1 REVERT JUMPDEST POP PUSH2 0x2BA PUSH1 0x4 DUP1 CALLDATASIZE SUB DUP2 ADD SWAP1 PUSH2 0x2B5 SWAP2 SWAP1 PUSH2 0x10CE JUMP JUMPDEST PUSH2 0xF33 JUMP JUMPDEST PUSH1 0x40 MLOAD PUSH2 0x2C7 SWAP2 SWAP1 PUSH2 0x13AD JUMP JUMPDEST PUSH1 0x40 MLOAD DUP1 SWAP2 SUB SWAP1 RETURN JUMPDEST PUSH1 0x0 PUSH1 0x4 DUP2 GT ISZERO PUSH2 0x2E4 JUMPI PUSH2 0x2E3 PUSH2 0x1677 JUMP JUMPDEST JUMPDEST PUSH1 0x5 PUSH1 0x0 CALLER PUSH20 0xFFFFFFFFFFFFFFFFFFFFFFFFFFFFFFFFFFFFFFFF AND PUSH20 0xFFFFFFFFFFFFFFFFFFFFFFFFFFFFFFFFFFFFFFFF AND DUP2 MSTORE PUSH1 0x20 ADD SWAP1 DUP2 MSTORE PUSH1 0x20 ADD PUSH1 0x0 KECCAK256 PUSH1 0x0 ADD PUSH1 0x0 SWAP1 SLOAD SWAP1 PUSH2 0x100 EXP SWAP1 DIV PUSH1 0xFF AND PUSH1 0x4 DUP2 GT ISZERO PUSH2 0x346 JUMPI PUSH2 0x345 PUSH2 0x1677 JUMP JUMPDEST JUMPDEST EQ PUSH2 0x386 JUMPI PUSH1 0x40 MLOAD PUSH32 0x8C379A000000000000000000000000000000000000000000000000000000000 DUP2 MSTORE PUSH1 0x4 ADD PUSH2 0x37D SWAP1 PUSH2 0x136D JUMP JUMPDEST PUSH1 0x40 MLOAD DUP1 SWAP2 SUB SWAP1 REVERT JUMPDEST PUSH1 0x0 PUSH1 0x6 PUSH1 0x0 DUP6 DUP2 MSTORE PUSH1 0x20 ADD SWAP1 DUP2 MSTORE PUSH1 0x20 ADD PUSH1 0x0 KECCAK256 SWAP1 POP DUP4 DUP2 PUSH1 0x0 ADD DUP2 SWAP1 SSTORE POP CALLER DUP2 PUSH1 0x1 ADD PUSH1 0x0 PUSH2 0x100 EXP DUP2 SLOAD DUP2 PUSH20 0xFFFFFFFFFFFFFFFFFFFFFFFFFFFFFFFFFFFFFFFF MUL NOT AND SWAP1 DUP4 PUSH20 0xFFFFFFFFFFFFFFFFFFFFFFFFFFFFFFFFFFFFFFFF AND MUL OR SWAP1 SSTORE POP CALLER DUP2 PUSH1 0x2 ADD PUSH1 0x0 PUSH2 0x100 EXP DUP2 SLOAD DUP2 PUSH20 0xFFFFFFFFFFFFFFFFFFFFFFFFFFFFFFFFFFFFFFFF MUL NOT AND SWAP1 DUP4 PUSH20 0xFFFFFFFFFFFFFFFFFFFFFFFFFFFFFFFFFFFFFFFF AND MUL OR SWAP1 SSTORE POP DUP3 DUP2 PUSH1 0x3 ADD PUSH1 0x0 PUSH1 0x4 DUP2 LT PUSH2 0x444 JUMPI PUSH2 0x443 PUSH2 0x16D5 JUMP JUMPDEST JUMPDEST ADD DUP2 SWAP1 SSTORE POP PUSH1 0x0 DUP2 PUSH1 0x7 ADD PUSH1 0x0 PUSH2 0x100 EXP DUP2 SLOAD DUP2 PUSH1 0xFF MUL NOT AND SWAP1 DUP4 PUSH1 0x5 DUP2 GT ISZERO PUSH2 0x471 JUMPI PUSH2 0x470 PUSH2 0x1677 JUMP JUMPDEST JUMPDEST MUL OR SWAP1 SSTORE POP DUP2 DUP2 PUSH1 0x8 ADD DUP2 SWAP1 SSTORE POP PUSH1 0x0 DUP2 PUSH1 0x9 ADD PUSH1 0x0 PUSH2 0x100 EXP DUP2 SLOAD DUP2 PUSH20 0xFFFFFFFFFFFFFFFFFFFFFFFFFFFFFFFFFFFFFFFF MUL NOT AND SWAP1 DUP4 PUSH20 0xFFFFFFFFFFFFFFFFFFFFFFFFFFFFFFFFFFFFFFFF AND MUL OR SWAP1 SSTORE POP PUSH1 0x0 DUP2 PUSH1 0xA ADD PUSH1 0x0 PUSH2 0x100 EXP DUP2 SLOAD DUP2 PUSH20 0xFFFFFFFFFFFFFFFFFFFFFFFFFFFFFFFFFFFFFFFF MUL NOT AND SWAP1 DUP4 PUSH20 0xFFFFFFFFFFFFFFFFFFFFFFFFFFFFFFFFFFFFFFFF AND MUL OR SWAP1 SSTORE POP PUSH1 0x0 DUP2 PUSH1 0xB ADD PUSH1 0x0 PUSH2 0x100 EXP DUP2 SLOAD DUP2 PUSH20 0xFFFFFFFFFFFFFFFFFFFFFFFFFFFFFFFFFFFFFFFF MUL NOT AND SWAP1 DUP4 PUSH20 0xFFFFFFFFFFFFFFFFFFFFFFFFFFFFFFFFFFFFFFFF AND MUL OR SWAP1 SSTORE POP POP POP POP POP JUMP JUMPDEST PUSH1 0x0 DUP1 SLOAD PUSH2 0x55E SWAP1 PUSH2 0x15B6 JUMP JUMPDEST DUP1 PUSH1 0x1F ADD PUSH1 0x20 DUP1 SWAP2 DIV MUL PUSH1 0x20 ADD PUSH1 0x40 MLOAD SWAP1 DUP2 ADD PUSH1 0x40 MSTORE DUP1 SWAP3 SWAP2 SWAP1 DUP2 DUP2 MSTORE PUSH1 0x20 ADD DUP3 DUP1 SLOAD PUSH2 0x58A SWAP1 PUSH2 0x15B6 JUMP JUMPDEST DUP1 ISZERO PUSH2 0x5D7 JUMPI DUP1 PUSH1 0x1F LT PUSH2 0x5AC JUMPI PUSH2 0x100 DUP1 DUP4 SLOAD DIV MUL DUP4 MSTORE SWAP2 PUSH1 0x20 ADD SWAP2 PUSH2 0x5D7 JUMP JUMPDEST DUP3 ADD SWAP2 SWAP1 PUSH1 0x0 MSTORE PUSH1 0x20 PUSH1 0x0 KECCAK256 SWAP1 JUMPDEST DUP2 SLOAD DUP2 MSTORE SWAP1 PUSH1 0x1 ADD SWAP1 PUSH1 0x20 ADD DUP1 DUP4 GT PUSH2 0x5BA JUMPI DUP3 SWAP1 SUB PUSH1 0x1F AND DUP3 ADD SWAP2 JUMPDEST POP POP POP POP POP DUP2 JUMP JUMPDEST PUSH1 0x0 PUSH1 0x5 PUSH1 0x0 DUP6 PUSH20 0xFFFFFFFFFFFFFFFFFFFFFFFFFFFFFFFFFFFFFFFF AND PUSH20 0xFFFFFFFFFFFFFFFFFFFFFFFFFFFFFFFFFFFFFFFF AND DUP2 MSTORE PUSH1 0x20 ADD SWAP1 DUP2 MSTORE PUSH1 0x20 ADD PUSH1 0x0 KECCAK256 PUSH1 0x40 MLOAD DUP1 PUSH1 0x60 ADD PUSH1 0x40 MSTORE SWAP1 DUP2 PUSH1 0x0 DUP3 ADD PUSH1 0x0 SWAP1 SLOAD SWAP1 PUSH2 0x100 EXP SWAP1 DIV PUSH1 0xFF AND PUSH1 0x4 DUP2 GT ISZERO PUSH2 0x650 JUMPI PUSH2 0x64F PUSH2 0x1677 JUMP JUMPDEST JUMPDEST PUSH1 0x4 DUP2 GT ISZERO PUSH2 0x662 JUMPI PUSH2 0x661 PUSH2 0x1677 JUMP JUMPDEST JUMPDEST DUP2 MSTORE PUSH1 0x20 ADD PUSH1 0x1 DUP3 ADD DUP1 SLOAD PUSH2 0x676 SWAP1 PUSH2 0x15B6 JUMP JUMPDEST DUP1 PUSH1 0x1F ADD PUSH1 0x20 DUP1 SWAP2 DIV MUL PUSH1 0x20 ADD PUSH1 0x40 MLOAD SWAP1 DUP2 ADD PUSH1 0x40 MSTORE DUP1 SWAP3 SWAP2 SWAP1 DUP2 DUP2 MSTORE PUSH1 0x20 ADD DUP3 DUP1 SLOAD PUSH2 0x6A2 SWAP1 PUSH2 0x15B6 JUMP JUMPDEST DUP1 ISZERO PUSH2 0x6EF JUMPI DUP1 PUSH1 0x1F LT PUSH2 0x6C4 JUMPI PUSH2 0x100 DUP1 DUP4 SLOAD DIV MUL DUP4 MSTORE SWAP2 PUSH1 0x20 ADD SWAP2 PUSH2 0x6EF JUMP JUMPDEST DUP3 ADD SWAP2 SWAP1 PUSH1 0x0 MSTORE PUSH1 0x20 PUSH1 0x0 KECCAK256 SWAP1 JUMPDEST DUP2 SLOAD DUP2 MSTORE SWAP1 PUSH1 0x1 ADD SWAP1 PUSH1 0x20 ADD DUP1 DUP4 GT PUSH2 0x6D2 JUMPI DUP3 SWAP1 SUB PUSH1 0x1F AND DUP3 ADD SWAP2 JUMPDEST POP POP POP POP POP DUP2 MSTORE PUSH1 0x20 ADD PUSH1 0x2 DUP3 ADD PUSH1 0x0 SWAP1 SLOAD SWAP1 PUSH2 0x100 EXP SWAP1 DIV PUSH1 0xFF AND ISZERO ISZERO ISZERO ISZERO DUP2 MSTORE POP POP SWAP1 POP DUP3 DUP2 PUSH1 0x0 ADD SWAP1 PUSH1 0x4 DUP2 GT ISZERO PUSH2 0x72D JUMPI PUSH2 0x72C PUSH2 0x1677 JUMP JUMPDEST JUMPDEST SWAP1 DUP2 PUSH1 0x4 DUP2 GT ISZERO PUSH2 0x741 JUMPI PUSH2 0x740 PUSH2 0x1677 JUMP JUMPDEST JUMPDEST DUP2 MSTORE POP POP DUP2 DUP2 PUSH1 0x20 ADD DUP2 SWAP1 MSTORE POP PUSH1 0x1 DUP2 PUSH1 0x40 ADD SWAP1 ISZERO ISZERO SWAP1 DUP2 ISZERO ISZERO DUP2 MSTORE POP POP DUP1 PUSH1 0x5 PUSH1 0x0 DUP7 PUSH20 0xFFFFFFFFFFFFFFFFFFFFFFFFFFFFFFFFFFFFFFFF AND PUSH20 0xFFFFFFFFFFFFFFFFFFFFFFFFFFFFFFFFFFFFFFFF AND DUP2 MSTORE PUSH1 0x20 ADD SWAP1 DUP2 MSTORE PUSH1 0x20 ADD PUSH1 0x0 KECCAK256 PUSH1 0x0 DUP3 ADD MLOAD DUP2 PUSH1 0x0 ADD PUSH1 0x0 PUSH2 0x100 EXP DUP2 SLOAD DUP2 PUSH1 0xFF MUL NOT AND SWAP1 DUP4 PUSH1 0x4 DUP2 GT ISZERO PUSH2 0x7CA JUMPI PUSH2 0x7C9 PUSH2 0x1677 JUMP JUMPDEST JUMPDEST MUL OR SWAP1 SSTORE POP PUSH1 0x20 DUP3 ADD MLOAD DUP2 PUSH1 0x1 ADD SWAP1 DUP1 MLOAD SWAP1 PUSH1 0x20 ADD SWAP1 PUSH2 0x7EB SWAP3 SWAP2 SWAP1 PUSH2 0xF7C JUMP JUMPDEST POP PUSH1 0x40 DUP3 ADD MLOAD DUP2 PUSH1 0x2 ADD PUSH1 0x0 PUSH2 0x100 EXP DUP2 SLOAD DUP2 PUSH1 0xFF MUL NOT AND SWAP1 DUP4 ISZERO ISZERO MUL OR SWAP1 SSTORE POP SWAP1 POP POP POP POP POP POP JUMP JUMPDEST PUSH1 0x0 DUP2 PUSH1 0x4 PUSH1 0x0 CALLER PUSH20 0xFFFFFFFFFFFFFFFFFFFFFFFFFFFFFFFFFFFFFFFF AND PUSH20 0xFFFFFFFFFFFFFFFFFFFFFFFFFFFFFFFFFFFFFFFF AND DUP2 MSTORE PUSH1 0x20 ADD SWAP1 DUP2 MSTORE PUSH1 0x20 ADD PUSH1 0x0 KECCAK256 SLOAD LT ISZERO PUSH2 0x863 JUMPI PUSH1 0x0 DUP1 REVERT JUMPDEST PUSH1 0x0 PUSH20 0xFFFFFFFFFFFFFFFFFFFFFFFFFFFFFFFFFFFFFFFF AND DUP4 PUSH20 0xFFFFFFFFFFFFFFFFFFFFFFFFFFFFFFFFFFFFFFFF AND EQ ISZERO PUSH2 0x89D JUMPI PUSH1 0x0 DUP1 REVERT JUMPDEST DUP2 PUSH1 0x4 PUSH1 0x0 CALLER PUSH20 0xFFFFFFFFFFFFFFFFFFFFFFFFFFFFFFFFFFFFFFFF AND PUSH20 0xFFFFFFFFFFFFFFFFFFFFFFFFFFFFFFFFFFFFFFFF AND DUP2 MSTORE PUSH1 0x20 ADD SWAP1 DUP2 MSTORE PUSH1 0x20 ADD PUSH1 0x0 KECCAK256 PUSH1 0x0 DUP3 DUP3 SLOAD PUSH2 0x8EC SWAP2 SWAP1 PUSH2 0x14C1 JUMP JUMPDEST SWAP3 POP POP DUP2 SWAP1 SSTORE POP DUP2 PUSH1 0x4 PUSH1 0x0 DUP6 PUSH20 0xFFFFFFFFFFFFFFFFFFFFFFFFFFFFFFFFFFFFFFFF AND PUSH20 0xFFFFFFFFFFFFFFFFFFFFFFFFFFFFFFFFFFFFFFFF AND DUP2 MSTORE PUSH1 0x20 ADD SWAP1 DUP2 MSTORE PUSH1 0x20 ADD PUSH1 0x0 KECCAK256 PUSH1 0x0 DUP3 DUP3 SLOAD PUSH2 0x942 SWAP2 SWAP1 PUSH2 0x143A JUMP JUMPDEST SWAP3 POP POP DUP2 SWAP1 SSTORE POP PUSH1 0x1 SWAP1 POP SWAP3 SWAP2 POP POP JUMP JUMPDEST PUSH1 0x1 DUP1 SLOAD PUSH2 0x960 SWAP1 PUSH2 0x15B6 JUMP JUMPDEST DUP1 PUSH1 0x1F ADD PUSH1 0x20 DUP1 SWAP2 DIV MUL PUSH1 0x20 ADD PUSH1 0x40 MLOAD SWAP1 DUP2 ADD PUSH1 0x40 MSTORE DUP1 SWAP3 SWAP2 SWAP1 DUP2 DUP2 MSTORE PUSH1 0x20 ADD DUP3 DUP1 SLOAD PUSH2 0x98C SWAP1 PUSH2 0x15B6 JUMP JUMPDEST DUP1 ISZERO PUSH2 0x9D9 JUMPI DUP1 PUSH1 0x1F LT PUSH2 0x9AE JUMPI PUSH2 0x100 DUP1 DUP4 SLOAD DIV MUL DUP4 MSTORE SWAP2 PUSH1 0x20 ADD SWAP2 PUSH2 0x9D9 JUMP JUMPDEST DUP3 ADD SWAP2 SWAP1 PUSH1 0x0 MSTORE PUSH1 0x20 PUSH1 0x0 KECCAK256 SWAP1 JUMPDEST DUP2 SLOAD DUP2 MSTORE SWAP1 PUSH1 0x1 ADD SWAP1 PUSH1 0x20 ADD DUP1 DUP4 GT PUSH2 0x9BC JUMPI DUP3 SWAP1 SUB PUSH1 0x1F AND DUP3 ADD SWAP2 JUMPDEST POP POP POP POP POP DUP2 JUMP JUMPDEST PUSH1 0x2 PUSH1 0x0 SWAP1 SLOAD SWAP1 PUSH2 0x100 EXP SWAP1 DIV PUSH20 0xFFFFFFFFFFFFFFFFFFFFFFFFFFFFFFFFFFFFFFFF AND PUSH20 0xFFFFFFFFFFFFFFFFFFFFFFFFFFFFFFFFFFFFFFFF AND CALLER PUSH20 0xFFFFFFFFFFFFFFFFFFFFFFFFFFFFFFFFFFFFFFFF AND EQ PUSH2 0xA71 JUMPI PUSH1 0x40 MLOAD PUSH32 0x8C379A000000000000000000000000000000000000000000000000000000000 DUP2 MSTORE PUSH1 0x4 ADD PUSH2 0xA68 SWAP1 PUSH2 0x138D JUMP JUMPDEST PUSH1 0x40 MLOAD DUP1 SWAP2 SUB SWAP1 REVERT JUMPDEST PUSH1 0x0 PUSH20 0xFFFFFFFFFFFFFFFFFFFFFFFFFFFFFFFFFFFFFFFF AND DUP3 PUSH20 0xFFFFFFFFFFFFFFFFFFFFFFFFFFFFFFFFFFFFFFFF AND EQ ISZERO PUSH2 0xAAB JUMPI PUSH1 0x0 DUP1 REVERT JUMPDEST PUSH1 0x4 PUSH1 0x0 DUP4 PUSH20 0xFFFFFFFFFFFFFFFFFFFFFFFFFFFFFFFFFFFFFFFF AND PUSH20 0xFFFFFFFFFFFFFFFFFFFFFFFFFFFFFFFFFFFFFFFF AND DUP2 MSTORE PUSH1 0x20 ADD SWAP1 DUP2 MSTORE PUSH1 0x20 ADD PUSH1 0x0 KECCAK256 SLOAD DUP2 GT ISZERO PUSH2 0xAF7 JUMPI PUSH1 0x0 DUP1 REVERT JUMPDEST DUP1 PUSH1 0x3 PUSH1 0x0 DUP3 DUP3 SLOAD PUSH2 0xB09 SWAP2 SWAP1 PUSH2 0x14C1 JUMP JUMPDEST SWAP3 POP POP DUP2 SWAP1 SSTORE POP DUP1 PUSH1 0x4 PUSH1 0x0 DUP5 PUSH20 0xFFFFFFFFFFFFFFFFFFFFFFFFFFFFFFFFFFFFFFFF AND PUSH20 0xFFFFFFFFFFFFFFFFFFFFFFFFFFFFFFFFFFFFFFFF AND DUP2 MSTORE PUSH1 0x20 ADD SWAP1 DUP2 MSTORE PUSH1 0x20 ADD PUSH1 0x0 KECCAK256 PUSH1 0x0 DUP3 DUP3 SLOAD PUSH2 0xB5F SWAP2 SWAP1 PUSH2 0x14C1 JUMP JUMPDEST SWAP3 POP POP DUP2 SWAP1 SSTORE POP POP POP JUMP JUMPDEST PUSH1 0x2 PUSH1 0x0 SWAP1 SLOAD SWAP1 PUSH2 0x100 EXP SWAP1 DIV PUSH20 0xFFFFFFFFFFFFFFFFFFFFFFFFFFFFFFFFFFFFFFFF AND PUSH20 0xFFFFFFFFFFFFFFFFFFFFFFFFFFFFFFFFFFFFFFFF AND CALLER PUSH20 0xFFFFFFFFFFFFFFFFFFFFFFFFFFFFFFFFFFFFFFFF AND EQ PUSH2 0xBFA JUMPI PUSH1 0x40 MLOAD PUSH32 0x8C379A000000000000000000000000000000000000000000000000000000000 DUP2 MSTORE PUSH1 0x4 ADD PUSH2 0xBF1 SWAP1 PUSH2 0x138D JUMP JUMPDEST PUSH1 0x40 MLOAD DUP1 SWAP2 SUB SWAP1 REVERT JUMPDEST DUP1 PUSH1 0x3 PUSH1 0x0 DUP3 DUP3 SLOAD PUSH2 0xC0C SWAP2 SWAP1 PUSH2 0x143A JUMP JUMPDEST SWAP3 POP POP DUP2 SWAP1 SSTORE POP DUP1 PUSH1 0x4 PUSH1 0x0 CALLER PUSH20 0xFFFFFFFFFFFFFFFFFFFFFFFFFFFFFFFFFFFFFFFF AND PUSH20 0xFFFFFFFFFFFFFFFFFFFFFFFFFFFFFFFFFFFFFFFF AND DUP2 MSTORE PUSH1 0x20 ADD SWAP1 DUP2 MSTORE PUSH1 0x20 ADD PUSH1 0x0 KECCAK256 PUSH1 0x0 DUP3 DUP3 SLOAD PUSH2 0xC62 SWAP2 SWAP1 PUSH2 0x143A JUMP JUMPDEST SWAP3 POP POP DUP2 SWAP1 SSTORE POP POP JUMP JUMPDEST PUSH1 0x2 PUSH1 0x0 SWAP1 SLOAD SWAP1 PUSH2 0x100 EXP SWAP1 DIV PUSH20 0xFFFFFFFFFFFFFFFFFFFFFFFFFFFFFFFFFFFFFFFF AND DUP2 JUMP JUMPDEST PUSH1 0x0 PUSH1 0x64 CALLVALUE PUSH2 0xCA1 SWAP2 SWAP1 PUSH2 0x1490 JUMP JUMPDEST SWAP1 POP PUSH1 0x0 CALLVALUE GT PUSH2 0xCB0 JUMPI PUSH1 0x0 DUP1 REVERT JUMPDEST PUSH1 0x2 PUSH1 0x0 SWAP1 SLOAD SWAP1 PUSH2 0x100 EXP SWAP1 DIV PUSH20 0xFFFFFFFFFFFFFFFFFFFFFFFFFFFFFFFFFFFFFFFF AND PUSH20 0xFFFFFFFFFFFFFFFFFFFFFFFFFFFFFFFFFFFFFFFF AND PUSH2 0x8FC CALLVALUE SWAP1 DUP2 ISZERO MUL SWAP1 PUSH1 0x40 MLOAD PUSH1 0x0 PUSH1 0x40 MLOAD DUP1 DUP4 SUB DUP2 DUP6 DUP9 DUP9 CALL SWAP4 POP POP POP POP ISZERO DUP1 ISZERO PUSH2 0xD18 JUMPI RETURNDATASIZE PUSH1 0x0 DUP1 RETURNDATACOPY RETURNDATASIZE PUSH1 0x0 REVERT JUMPDEST POP DUP1 PUSH1 0x4 PUSH1 0x0 PUSH1 0x2 PUSH1 0x0 SWAP1 SLOAD SWAP1 PUSH2 0x100 EXP SWAP1 DIV PUSH20 0xFFFFFFFFFFFFFFFFFFFFFFFFFFFFFFFFFFFFFFFF AND PUSH20 0xFFFFFFFFFFFFFFFFFFFFFFFFFFFFFFFFFFFFFFFF AND PUSH20 0xFFFFFFFFFFFFFFFFFFFFFFFFFFFFFFFFFFFFFFFF AND DUP2 MSTORE PUSH1 0x20 ADD SWAP1 DUP2 MSTORE PUSH1 0x20 ADD PUSH1 0x0 KECCAK256 PUSH1 0x0 DUP3 DUP3 SLOAD PUSH2 0xD8A SWAP2 SWAP1 PUSH2 0x14C1 JUMP JUMPDEST SWAP3 POP POP DUP2 SWAP1 SSTORE POP DUP1 PUSH1 0x4 PUSH1 0x0 CALLER PUSH20 0xFFFFFFFFFFFFFFFFFFFFFFFFFFFFFFFFFFFFFFFF AND PUSH20 0xFFFFFFFFFFFFFFFFFFFFFFFFFFFFFFFFFFFFFFFF AND DUP2 MSTORE PUSH1 0x20 ADD SWAP1 DUP2 MSTORE PUSH1 0x20 ADD PUSH1 0x0 KECCAK256 PUSH1 0x0 DUP3 DUP3 SLOAD PUSH2 0xDE0 SWAP2 SWAP1 PUSH2 0x143A JUMP JUMPDEST SWAP3 POP POP DUP2 SWAP1 SSTORE POP POP JUMP JUMPDEST PUSH1 0x0 PUSH1 0x60 PUSH1 0x5 PUSH1 0x0 DUP5 PUSH20 0xFFFFFFFFFFFFFFFFFFFFFFFFFFFFFFFFFFFFFFFF AND PUSH20 0xFFFFFFFFFFFFFFFFFFFFFFFFFFFFFFFFFFFFFFFF AND DUP2 MSTORE PUSH1 0x20 ADD SWAP1 DUP2 MSTORE PUSH1 0x20 ADD PUSH1 0x0 KECCAK256 PUSH1 0x0 ADD PUSH1 0x0 SWAP1 SLOAD SWAP1 PUSH2 0x100 EXP SWAP1 DIV PUSH1 0xFF AND SWAP2 POP PUSH1 0x5 PUSH1 0x0 DUP5 PUSH20 0xFFFFFFFFFFFFFFFFFFFFFFFFFFFFFFFFFFFFFFFF AND PUSH20 0xFFFFFFFFFFFFFFFFFFFFFFFFFFFFFFFFFFFFFFFF AND DUP2 MSTORE PUSH1 0x20 ADD SWAP1 DUP2 MSTORE PUSH1 0x20 ADD PUSH1 0x0 KECCAK256 PUSH1 0x1 ADD DUP1 SLOAD PUSH2 0xE8D SWAP1 PUSH2 0x15B6 JUMP JUMPDEST DUP1 PUSH1 0x1F ADD PUSH1 0x20 DUP1 SWAP2 DIV MUL PUSH1 0x20 ADD PUSH1 0x40 MLOAD SWAP1 DUP2 ADD PUSH1 0x40 MSTORE DUP1 SWAP3 SWAP2 SWAP1 DUP2 DUP2 MSTORE PUSH1 0x20 ADD DUP3 DUP1 SLOAD PUSH2 0xEB9 SWAP1 PUSH2 0x15B6 JUMP JUMPDEST DUP1 ISZERO PUSH2 0xF06 JUMPI DUP1 PUSH1 0x1F LT PUSH2 0xEDB JUMPI PUSH2 0x100 DUP1 DUP4 SLOAD DIV MUL DUP4 MSTORE SWAP2 PUSH1 0x20 ADD SWAP2 PUSH2 0xF06 JUMP JUMPDEST DUP3 ADD SWAP2 SWAP1 PUSH1 0x0 MSTORE PUSH1 0x20 PUSH1 0x0 KECCAK256 SWAP1 JUMPDEST DUP2 SLOAD DUP2 MSTORE SWAP1 PUSH1 0x1 ADD SWAP1 PUSH1 0x20 ADD DUP1 DUP4 GT PUSH2 0xEE9 JUMPI DUP3 SWAP1 SUB PUSH1 0x1F AND DUP3 ADD SWAP2 JUMPDEST POP POP POP POP POP SWAP1 POP SWAP2 POP SWAP2 JUMP JUMPDEST PUSH1 0x0 DUP2 PUSH20 0xFFFFFFFFFFFFFFFFFFFFFFFFFFFFFFFFFFFFFFFF AND BALANCE SWAP1 POP SWAP2 SWAP1 POP JUMP JUMPDEST PUSH1 0x0 PUSH1 0x4 PUSH1 0x0 DUP4 PUSH20 0xFFFFFFFFFFFFFFFFFFFFFFFFFFFFFFFFFFFFFFFF AND PUSH20 0xFFFFFFFFFFFFFFFFFFFFFFFFFFFFFFFFFFFFFFFF AND DUP2 MSTORE PUSH1 0x20 ADD SWAP1 DUP2 MSTORE PUSH1 0x20 ADD PUSH1 0x0 KECCAK256 SLOAD SWAP1 POP SWAP2 SWAP1 POP JUMP JUMPDEST DUP3 DUP1 SLOAD PUSH2 0xF88 SWAP1 PUSH2 0x15B6 JUMP JUMPDEST SWAP1 PUSH1 0x0 MSTORE PUSH1 0x20 PUSH1 0x0 KECCAK256 SWAP1 PUSH1 0x1F ADD PUSH1 0x20 SWAP1 DIV DUP2 ADD SWAP3 DUP3 PUSH2 0xFAA JUMPI PUSH1 0x0 DUP6 SSTORE PUSH2 0xFF1 JUMP JUMPDEST DUP3 PUSH1 0x1F LT PUSH2 0xFC3 JUMPI DUP1 MLOAD PUSH1 0xFF NOT AND DUP4 DUP1 ADD OR DUP6 SSTORE PUSH2 0xFF1 JUMP JUMPDEST DUP3 DUP1 ADD PUSH1 0x1 ADD DUP6 SSTORE DUP3 ISZERO PUSH2 0xFF1 JUMPI SWAP2 DUP3 ADD JUMPDEST DUP3 DUP2 GT ISZERO PUSH2 0xFF0 JUMPI DUP3 MLOAD DUP3 SSTORE SWAP2 PUSH1 0x20 ADD SWAP2 SWAP1 PUSH1 0x1 ADD SWAP1 PUSH2 0xFD5 JUMP JUMPDEST JUMPDEST POP SWAP1 POP PUSH2 0xFFE SWAP2 SWAP1 PUSH2 0x1002 JUMP JUMPDEST POP SWAP1 JUMP JUMPDEST JUMPDEST DUP1 DUP3 GT ISZERO PUSH2 0x101B JUMPI PUSH1 0x0 DUP2 PUSH1 0x0 SWAP1 SSTORE POP PUSH1 0x1 ADD PUSH2 0x1003 JUMP JUMPDEST POP SWAP1 JUMP JUMPDEST PUSH1 0x0 PUSH2 0x1032 PUSH2 0x102D DUP5 PUSH2 0x13ED JUMP JUMPDEST PUSH2 0x13C8 JUMP JUMPDEST SWAP1 POP DUP3 DUP2 MSTORE PUSH1 0x20 DUP2 ADD DUP5 DUP5 DUP5 ADD GT ISZERO PUSH2 0x104E JUMPI PUSH2 0x104D PUSH2 0x1738 JUMP JUMPDEST JUMPDEST PUSH2 0x1059 DUP5 DUP3 DUP6 PUSH2 0x1574 JUMP JUMPDEST POP SWAP4 SWAP3 POP POP POP JUMP JUMPDEST PUSH1 0x0 DUP2 CALLDATALOAD SWAP1 POP PUSH2 0x1070 DUP2 PUSH2 0x17BE JUMP JUMPDEST SWAP3 SWAP2 POP POP JUMP JUMPDEST PUSH1 0x0 DUP2 CALLDATALOAD SWAP1 POP PUSH2 0x1085 DUP2 PUSH2 0x17D5 JUMP JUMPDEST SWAP3 SWAP2 POP POP JUMP JUMPDEST PUSH1 0x0 DUP3 PUSH1 0x1F DUP4 ADD SLT PUSH2 0x10A0 JUMPI PUSH2 0x109F PUSH2 0x1733 JUMP JUMPDEST JUMPDEST DUP2 CALLDATALOAD PUSH2 0x10B0 DUP5 DUP3 PUSH1 0x20 DUP7 ADD PUSH2 0x101F JUMP JUMPDEST SWAP2 POP POP SWAP3 SWAP2 POP POP JUMP JUMPDEST PUSH1 0x0 DUP2 CALLDATALOAD SWAP1 POP PUSH2 0x10C8 DUP2 PUSH2 0x17E5 JUMP JUMPDEST SWAP3 SWAP2 POP POP JUMP JUMPDEST PUSH1 0x0 PUSH1 0x20 DUP3 DUP5 SUB SLT ISZERO PUSH2 0x10E4 JUMPI PUSH2 0x10E3 PUSH2 0x1742 JUMP JUMPDEST JUMPDEST PUSH1 0x0 PUSH2 0x10F2 DUP5 DUP3 DUP6 ADD PUSH2 0x1061 JUMP JUMPDEST SWAP2 POP POP SWAP3 SWAP2 POP POP JUMP JUMPDEST PUSH1 0x0 DUP1 PUSH1 0x0 PUSH1 0x60 DUP5 DUP7 SUB SLT ISZERO PUSH2 0x1114 JUMPI PUSH2 0x1113 PUSH2 0x1742 JUMP JUMPDEST JUMPDEST PUSH1 0x0 PUSH2 0x1122 DUP7 DUP3 DUP8 ADD PUSH2 0x1061 JUMP JUMPDEST SWAP4 POP POP PUSH1 0x20 PUSH2 0x1133 DUP7 DUP3 DUP8 ADD PUSH2 0x1076 JUMP JUMPDEST SWAP3 POP POP PUSH1 0x40 DUP5 ADD CALLDATALOAD PUSH8 0xFFFFFFFFFFFFFFFF DUP2 GT ISZERO PUSH2 0x1154 JUMPI PUSH2 0x1153 PUSH2 0x173D JUMP JUMPDEST JUMPDEST PUSH2 0x1160 DUP7 DUP3 DUP8 ADD PUSH2 0x108B JUMP JUMPDEST SWAP2 POP POP SWAP3 POP SWAP3 POP SWAP3 JUMP JUMPDEST PUSH1 0x0 DUP1 PUSH1 0x40 DUP4 DUP6 SUB SLT ISZERO PUSH2 0x1181 JUMPI PUSH2 0x1180 PUSH2 0x1742 JUMP JUMPDEST JUMPDEST PUSH1 0x0 PUSH2 0x118F DUP6 DUP3 DUP7 ADD PUSH2 0x1061 JUMP JUMPDEST SWAP3 POP POP PUSH1 0x20 PUSH2 0x11A0 DUP6 DUP3 DUP7 ADD PUSH2 0x10B9 JUMP JUMPDEST SWAP2 POP POP SWAP3 POP SWAP3 SWAP1 POP JUMP JUMPDEST PUSH1 0x0 PUSH1 0x20 DUP3 DUP5 SUB SLT ISZERO PUSH2 0x11C0 JUMPI PUSH2 0x11BF PUSH2 0x1742 JUMP JUMPDEST JUMPDEST PUSH1 0x0 PUSH2 0x11CE DUP5 DUP3 DUP6 ADD PUSH2 0x10B9 JUMP JUMPDEST SWAP2 POP POP SWAP3 SWAP2 POP POP JUMP JUMPDEST PUSH1 0x0 DUP1 PUSH1 0x0 PUSH1 0x60 DUP5 DUP7 SUB SLT ISZERO PUSH2 0x11F0 JUMPI PUSH2 0x11EF PUSH2 0x1742 JUMP JUMPDEST JUMPDEST PUSH1 0x0 PUSH2 0x11FE DUP7 DUP3 DUP8 ADD PUSH2 0x10B9 JUMP JUMPDEST SWAP4 POP POP PUSH1 0x20 PUSH2 0x120F DUP7 DUP3 DUP8 ADD PUSH2 0x10B9 JUMP JUMPDEST SWAP3 POP POP PUSH1 0x40 PUSH2 0x1220 DUP7 DUP3 DUP8 ADD PUSH2 0x10B9 JUMP JUMPDEST SWAP2 POP POP SWAP3 POP SWAP3 POP SWAP3 JUMP JUMPDEST PUSH2 0x1233 DUP2 PUSH2 0x1507 JUMP JUMPDEST DUP3 MSTORE POP POP JUMP JUMPDEST PUSH2 0x1242 DUP2 PUSH2 0x1519 JUMP JUMPDEST DUP3 MSTORE POP POP JUMP JUMPDEST PUSH2 0x1251 DUP2 PUSH2 0x1562 JUMP JUMPDEST DUP3 MSTORE POP POP JUMP JUMPDEST PUSH1 0x0 PUSH2 0x1262 DUP3 PUSH2 0x141E JUMP JUMPDEST PUSH2 0x126C DUP2 DUP6 PUSH2 0x1429 JUMP JUMPDEST SWAP4 POP PUSH2 0x127C DUP2 DUP6 PUSH1 0x20 DUP7 ADD PUSH2 0x1583 JUMP JUMPDEST PUSH2 0x1285 DUP2 PUSH2 0x1747 JUMP JUMPDEST DUP5 ADD SWAP2 POP POP SWAP3 SWAP2 POP POP JUMP JUMPDEST PUSH1 0x0 PUSH2 0x129D PUSH1 0x19 DUP4 PUSH2 0x1429 JUMP JUMPDEST SWAP2 POP PUSH2 0x12A8 DUP3 PUSH2 0x1758 JUMP JUMPDEST PUSH1 0x20 DUP3 ADD SWAP1 POP SWAP2 SWAP1 POP JUMP JUMPDEST PUSH1 0x0 PUSH2 0x12C0 PUSH1 0x1E DUP4 PUSH2 0x1429 JUMP JUMPDEST SWAP2 POP PUSH2 0x12CB DUP3 PUSH2 0x1781 JUMP JUMPDEST PUSH1 0x20 DUP3 ADD SWAP1 POP SWAP2 SWAP1 POP JUMP JUMPDEST PUSH2 0x12DF DUP2 PUSH2 0x1558 JUMP JUMPDEST DUP3 MSTORE POP POP JUMP JUMPDEST PUSH1 0x0 PUSH1 0x20 DUP3 ADD SWAP1 POP PUSH2 0x12FA PUSH1 0x0 DUP4 ADD DUP5 PUSH2 0x122A JUMP JUMPDEST SWAP3 SWAP2 POP POP JUMP JUMPDEST PUSH1 0x0 PUSH1 0x20 DUP3 ADD SWAP1 POP PUSH2 0x1315 PUSH1 0x0 DUP4 ADD DUP5 PUSH2 0x1239 JUMP JUMPDEST SWAP3 SWAP2 POP POP JUMP JUMPDEST PUSH1 0x0 PUSH1 0x40 DUP3 ADD SWAP1 POP PUSH2 0x1330 PUSH1 0x0 DUP4 ADD DUP6 PUSH2 0x1248 JUMP JUMPDEST DUP2 DUP2 SUB PUSH1 0x20 DUP4 ADD MSTORE PUSH2 0x1342 DUP2 DUP5 PUSH2 0x1257 JUMP JUMPDEST SWAP1 POP SWAP4 SWAP3 POP POP POP JUMP JUMPDEST PUSH1 0x0 PUSH1 0x20 DUP3 ADD SWAP1 POP DUP2 DUP2 SUB PUSH1 0x0 DUP4 ADD MSTORE PUSH2 0x1365 DUP2 DUP5 PUSH2 0x1257 JUMP JUMPDEST SWAP1 POP SWAP3 SWAP2 POP POP JUMP JUMPDEST PUSH1 0x0 PUSH1 0x20 DUP3 ADD SWAP1 POP DUP2 DUP2 SUB PUSH1 0x0 DUP4 ADD MSTORE PUSH2 0x1386 DUP2 PUSH2 0x1290 JUMP JUMPDEST SWAP1 POP SWAP2 SWAP1 POP JUMP JUMPDEST PUSH1 0x0 PUSH1 0x20 DUP3 ADD SWAP1 POP DUP2 DUP2 SUB PUSH1 0x0 DUP4 ADD MSTORE PUSH2 0x13A6 DUP2 PUSH2 0x12B3 JUMP JUMPDEST SWAP1 POP SWAP2 SWAP1 POP JUMP JUMPDEST PUSH1 0x0 PUSH1 0x20 DUP3 ADD SWAP1 POP PUSH2 0x13C2 PUSH1 0x0 DUP4 ADD DUP5 PUSH2 0x12D6 JUMP JUMPDEST SWAP3 SWAP2 POP POP JUMP JUMPDEST PUSH1 0x0 PUSH2 0x13D2 PUSH2 0x13E3 JUMP JUMPDEST SWAP1 POP PUSH2 0x13DE DUP3 DUP3 PUSH2 0x15E8 JUMP JUMPDEST SWAP2 SWAP1 POP JUMP JUMPDEST PUSH1 0x0 PUSH1 0x40 MLOAD SWAP1 POP SWAP1 JUMP JUMPDEST PUSH1 0x0 PUSH8 0xFFFFFFFFFFFFFFFF DUP3 GT ISZERO PUSH2 0x1408 JUMPI PUSH2 0x1407 PUSH2 0x1704 JUMP JUMPDEST JUMPDEST PUSH2 0x1411 DUP3 PUSH2 0x1747 JUMP JUMPDEST SWAP1 POP PUSH1 0x20 DUP2 ADD SWAP1 POP SWAP2 SWAP1 POP JUMP JUMPDEST PUSH1 0x0 DUP2 MLOAD SWAP1 POP SWAP2 SWAP1 POP JUMP JUMPDEST PUSH1 0x0 DUP3 DUP3 MSTORE PUSH1 0x20 DUP3 ADD SWAP1 POP SWAP3 SWAP2 POP POP JUMP JUMPDEST PUSH1 0x0 PUSH2 0x1445 DUP3 PUSH2 0x1558 JUMP JUMPDEST SWAP2 POP PUSH2 0x1450 DUP4 PUSH2 0x1558 JUMP JUMPDEST SWAP3 POP DUP3 PUSH32 0xFFFFFFFFFFFFFFFFFFFFFFFFFFFFFFFFFFFFFFFFFFFFFFFFFFFFFFFFFFFFFFFF SUB DUP3 GT ISZERO PUSH2 0x1485 JUMPI PUSH2 0x1484 PUSH2 0x1619 JUMP JUMPDEST JUMPDEST DUP3 DUP3 ADD SWAP1 POP SWAP3 SWAP2 POP POP JUMP JUMPDEST PUSH1 0x0 PUSH2 0x149B DUP3 PUSH2 0x1558 JUMP JUMPDEST SWAP2 POP PUSH2 0x14A6 DUP4 PUSH2 0x1558 JUMP JUMPDEST SWAP3 POP DUP3 PUSH2 0x14B6 JUMPI PUSH2 0x14B5 PUSH2 0x1648 JUMP JUMPDEST JUMPDEST DUP3 DUP3 DIV SWAP1 POP SWAP3 SWAP2 POP POP JUMP JUMPDEST PUSH1 0x0 PUSH2 0x14CC DUP3 PUSH2 0x1558 JUMP JUMPDEST SWAP2 POP PUSH2 0x14D7 DUP4 PUSH2 0x1558 JUMP JUMPDEST SWAP3 POP DUP3 DUP3 LT ISZERO PUSH2 0x14EA JUMPI PUSH2 0x14E9 PUSH2 0x1619 JUMP JUMPDEST JUMPDEST DUP3 DUP3 SUB SWAP1 POP SWAP3 SWAP2 POP POP JUMP JUMPDEST PUSH1 0x0 PUSH2 0x1500 DUP3 PUSH2 0x1538 JUMP JUMPDEST SWAP1 POP SWAP2 SWAP1 POP JUMP JUMPDEST PUSH1 0x0 PUSH2 0x1512 DUP3 PUSH2 0x1538 JUMP JUMPDEST SWAP1 POP SWAP2 SWAP1 POP JUMP JUMPDEST PUSH1 0x0 DUP2 ISZERO ISZERO SWAP1 POP SWAP2 SWAP1 POP JUMP JUMPDEST PUSH1 0x0 DUP2 SWAP1 POP PUSH2 0x1533 DUP3 PUSH2 0x17AA JUMP JUMPDEST SWAP2 SWAP1 POP JUMP JUMPDEST PUSH1 0x0 PUSH20 0xFFFFFFFFFFFFFFFFFFFFFFFFFFFFFFFFFFFFFFFF DUP3 AND SWAP1 POP SWAP2 SWAP1 POP JUMP JUMPDEST PUSH1 0x0 DUP2 SWAP1 POP SWAP2 SWAP1 POP JUMP JUMPDEST PUSH1 0x0 PUSH2 0x156D DUP3 PUSH2 0x1525 JUMP JUMPDEST SWAP1 POP SWAP2 SWAP1 POP JUMP JUMPDEST DUP3 DUP2 DUP4 CALLDATACOPY PUSH1 0x0 DUP4 DUP4 ADD MSTORE POP POP POP JUMP JUMPDEST PUSH1 0x0 JUMPDEST DUP4 DUP2 LT ISZERO PUSH2 0x15A1 JUMPI DUP1 DUP3 ADD MLOAD DUP2 DUP5 ADD MSTORE PUSH1 0x20 DUP2 ADD SWAP1 POP PUSH2 0x1586 JUMP JUMPDEST DUP4 DUP2 GT ISZERO PUSH2 0x15B0 JUMPI PUSH1 0x0 DUP5 DUP5 ADD MSTORE JUMPDEST POP POP POP POP JUMP JUMPDEST PUSH1 0x0 PUSH1 0x2 DUP3 DIV SWAP1 POP PUSH1 0x1 DUP3 AND DUP1 PUSH2 0x15CE JUMPI PUSH1 0x7F DUP3 AND SWAP2 POP JUMPDEST PUSH1 0x20 DUP3 LT DUP2 EQ ISZERO PUSH2 0x15E2 JUMPI PUSH2 0x15E1 PUSH2 0x16A6 JUMP JUMPDEST JUMPDEST POP SWAP2 SWAP1 POP JUMP JUMPDEST PUSH2 0x15F1 DUP3 PUSH2 0x1747 JUMP JUMPDEST DUP2 ADD DUP2 DUP2 LT PUSH8 0xFFFFFFFFFFFFFFFF DUP3 GT OR ISZERO PUSH2 0x1610 JUMPI PUSH2 0x160F PUSH2 0x1704 JUMP JUMPDEST JUMPDEST DUP1 PUSH1 0x40 MSTORE POP POP POP JUMP JUMPDEST PUSH32 0x4E487B7100000000000000000000000000000000000000000000000000000000 PUSH1 0x0 MSTORE PUSH1 0x11 PUSH1 0x4 MSTORE PUSH1 0x24 PUSH1 0x0 REVERT JUMPDEST PUSH32 0x4E487B7100000000000000000000000000000000000000000000000000000000 PUSH1 0x0 MSTORE PUSH1 0x12 PUSH1 0x4 MSTORE PUSH1 0x24 PUSH1 0x0 REVERT JUMPDEST PUSH32 0x4E487B7100000000000000000000000000000000000000000000000000000000 PUSH1 0x0 MSTORE PUSH1 0x21 PUSH1 0x4 MSTORE PUSH1 0x24 PUSH1 0x0 REVERT JUMPDEST PUSH32 0x4E487B7100000000000000000000000000000000000000000000000000000000 PUSH1 0x0 MSTORE PUSH1 0x22 PUSH1 0x4 MSTORE PUSH1 0x24 PUSH1 0x0 REVERT JUMPDEST PUSH32 0x4E487B7100000000000000000000000000000000000000000000000000000000 PUSH1 0x0 MSTORE PUSH1 0x32 PUSH1 0x4 MSTORE PUSH1 0x24 PUSH1 0x0 REVERT JUMPDEST PUSH32 0x4E487B7100000000000000000000000000000000000000000000000000000000 PUSH1 0x0 MSTORE PUSH1 0x41 PUSH1 0x4 MSTORE PUSH1 0x24 PUSH1 0x0 REVERT JUMPDEST PUSH1 0x0 DUP1 REVERT JUMPDEST PUSH1 0x0 DUP1 REVERT JUMPDEST PUSH1 0x0 DUP1 REVERT JUMPDEST PUSH1 0x0 DUP1 REVERT JUMPDEST PUSH1 0x0 PUSH1 0x1F NOT PUSH1 0x1F DUP4 ADD AND SWAP1 POP SWAP2 SWAP1 POP JUMP JUMPDEST PUSH32 0x63616C6C6572206973206E6F7420612070726F64756365722E00000000000000 PUSH1 0x0 DUP3 ADD MSTORE POP JUMP JUMPDEST PUSH32 0x63616C6C6572206973206E6F742074686520746F6B656E206F776E65722E0000 PUSH1 0x0 DUP3 ADD MSTORE POP JUMP JUMPDEST PUSH1 0x5 DUP2 LT PUSH2 0x17BB JUMPI PUSH2 0x17BA PUSH2 0x1677 JUMP JUMPDEST JUMPDEST POP JUMP JUMPDEST PUSH2 0x17C7 DUP2 PUSH2 0x14F5 JUMP JUMPDEST DUP2 EQ PUSH2 0x17D2 JUMPI PUSH1 0x0 DUP1 REVERT JUMPDEST POP JUMP JUMPDEST PUSH1 0x5 DUP2 LT PUSH2 0x17E2 JUMPI PUSH1 0x0 DUP1 REVERT JUMPDEST POP JUMP JUMPDEST PUSH2 0x17EE DUP2 PUSH2 0x1558 JUMP JUMPDEST DUP2 EQ PUSH2 0x17F9 JUMPI PUSH1 0x0 DUP1 REVERT JUMPDEST POP JUMP INVALID LOG2 PUSH5 0x6970667358 0x22 SLT KECCAK256 SHR POP GASLIMIT EXTCODEHASH 0x1E ADD 0x23 0xC KECCAK256 0xE9 0xB8 MLOAD 0xA9 PUSH16 0xF62EAC5D596271098CCE84F9560AB8DE 0x24 PUSH30 0x64736F6C6343000807003300000000000000000000000000000000000000 "
				},
				"gasEstimates": {
					"creation": {
						"codeDepositCost": "1238800",
						"executionCost": "infinite",
						"totalCost": "infinite"
					},
					"external": {
						"burn(address,uint256)": "infinite",
						"buyToken()": "infinite",
						"etherBalance(address)": "3345",
						"getActorInfo(address)": "infinite",
						"mint(uint256)": "infinite",
						"name()": "infinite",
						"produceProduct(uint256,uint256,uint256)": "infinite",
						"register(address,uint8,string)": "infinite",
						"symbol()": "infinite",
						"tokenBalance(address)": "2951",
						"tokenOwner()": "2536",
						"tokenTransfer(address,uint256)": "infinite"
					}
				},
				"methodIdentifiers": {
					"burn(address,uint256)": "9dc29fac",
					"buyToken()": "a4821719",
					"etherBalance(address)": "cd0c5896",
					"getActorInfo(address)": "b292abf1",
					"mint(uint256)": "a0712d68",
					"name()": "06fdde03",
					"produceProduct(uint256,uint256,uint256)": "0319c2d8",
					"register(address,uint8,string)": "40932fc2",
					"symbol()": "95d89b41",
					"tokenBalance(address)": "eedc966a",
					"tokenOwner()": "a3e67610",
					"tokenTransfer(address,uint256)": "68cdafe6"
				}
			},
			"storageLayout": {
				"storage": [
					{
						"astId": 3,
						"contract": "contracts/4_Product.sol:ProductSC",
						"label": "name",
						"offset": 0,
						"slot": "0",
						"type": "t_string_storage"
					},
					{
						"astId": 5,
						"contract": "contracts/4_Product.sol:ProductSC",
						"label": "symbol",
						"offset": 0,
						"slot": "1",
						"type": "t_string_storage"
					},
					{
						"astId": 7,
						"contract": "contracts/4_Product.sol:ProductSC",
						"label": "tokenOwner",
						"offset": 0,
						"slot": "2",
						"type": "t_address_payable"
					},
					{
						"astId": 19,
						"contract": "contracts/4_Product.sol:ProductSC",
						"label": "_totalSupply",
						"offset": 0,
						"slot": "3",
						"type": "t_uint256"
					},
					{
						"astId": 81,
						"contract": "contracts/4_Product.sol:ProductSC",
						"label": "balances",
						"offset": 0,
						"slot": "4",
						"type": "t_mapping(t_address,t_uint256)"
					},
					{
						"astId": 86,
						"contract": "contracts/4_Product.sol:ProductSC",
						"label": "actors",
						"offset": 0,
						"slot": "5",
						"type": "t_mapping(t_address,t_struct(Actor)62_storage)"
					},
					{
						"astId": 91,
						"contract": "contracts/4_Product.sol:ProductSC",
						"label": "product",
						"offset": 0,
						"slot": "6",
						"type": "t_mapping(t_uint256,t_struct(Product)54_storage)"
					}
				],
				"types": {
					"t_address": {
						"encoding": "inplace",
						"label": "address",
						"numberOfBytes": "20"
					},
					"t_address_payable": {
						"encoding": "inplace",
						"label": "address payable",
						"numberOfBytes": "20"
					},
					"t_array(t_uint256)4_storage": {
						"base": "t_uint256",
						"encoding": "inplace",
						"label": "uint256[4]",
						"numberOfBytes": "128"
					},
					"t_bool": {
						"encoding": "inplace",
						"label": "bool",
						"numberOfBytes": "1"
					},
					"t_enum(Role)32": {
						"encoding": "inplace",
						"label": "enum ProductSC.Role",
						"numberOfBytes": "1"
					},
					"t_enum(State)26": {
						"encoding": "inplace",
						"label": "enum ProductSC.State",
						"numberOfBytes": "1"
					},
					"t_mapping(t_address,t_struct(Actor)62_storage)": {
						"encoding": "mapping",
						"key": "t_address",
						"label": "mapping(address => struct ProductSC.Actor)",
						"numberOfBytes": "32",
						"value": "t_struct(Actor)62_storage"
					},
					"t_mapping(t_address,t_uint256)": {
						"encoding": "mapping",
						"key": "t_address",
						"label": "mapping(address => uint256)",
						"numberOfBytes": "32",
						"value": "t_uint256"
					},
					"t_mapping(t_uint256,t_struct(Product)54_storage)": {
						"encoding": "mapping",
						"key": "t_uint256",
						"label": "mapping(uint256 => struct ProductSC.Product)",
						"numberOfBytes": "32",
						"value": "t_struct(Product)54_storage"
					},
					"t_string_storage": {
						"encoding": "bytes",
						"label": "string",
						"numberOfBytes": "32"
					},
					"t_struct(Actor)62_storage": {
						"encoding": "inplace",
						"label": "struct ProductSC.Actor",
						"members": [
							{
								"astId": 57,
								"contract": "contracts/4_Product.sol:ProductSC",
								"label": "role",
								"offset": 0,
								"slot": "0",
								"type": "t_enum(Role)32"
							},
							{
								"astId": 59,
								"contract": "contracts/4_Product.sol:ProductSC",
								"label": "name",
								"offset": 0,
								"slot": "1",
								"type": "t_string_storage"
							},
							{
								"astId": 61,
								"contract": "contracts/4_Product.sol:ProductSC",
								"label": "isDefined",
								"offset": 0,
								"slot": "2",
								"type": "t_bool"
							}
						],
						"numberOfBytes": "96"
					},
					"t_struct(Product)54_storage": {
						"encoding": "inplace",
						"label": "struct ProductSC.Product",
						"members": [
							{
								"astId": 34,
								"contract": "contracts/4_Product.sol:ProductSC",
								"label": "ID",
								"offset": 0,
								"slot": "0",
								"type": "t_uint256"
							},
							{
								"astId": 36,
								"contract": "contracts/4_Product.sol:ProductSC",
								"label": "ownerID",
								"offset": 0,
								"slot": "1",
								"type": "t_address"
							},
							{
								"astId": 38,
								"contract": "contracts/4_Product.sol:ProductSC",
								"label": "producerID",
								"offset": 0,
								"slot": "2",
								"type": "t_address"
							},
							{
								"astId": 42,
								"contract": "contracts/4_Product.sol:ProductSC",
								"label": "timestamp",
								"offset": 0,
								"slot": "3",
								"type": "t_array(t_uint256)4_storage"
							},
							{
								"astId": 45,
								"contract": "contracts/4_Product.sol:ProductSC",
								"label": "productState",
								"offset": 0,
								"slot": "7",
								"type": "t_enum(State)26"
							},
							{
								"astId": 47,
								"contract": "contracts/4_Product.sol:ProductSC",
								"label": "productPrice",
								"offset": 0,
								"slot": "8",
								"type": "t_uint256"
							},
							{
								"astId": 49,
								"contract": "contracts/4_Product.sol:ProductSC",
								"label": "distributorID",
								"offset": 0,
								"slot": "9",
								"type": "t_address"
							},
							{
								"astId": 51,
								"contract": "contracts/4_Product.sol:ProductSC",
								"label": "retailerID",
								"offset": 0,
								"slot": "10",
								"type": "t_address"
							},
							{
								"astId": 53,
								"contract": "contracts/4_Product.sol:ProductSC",
								"label": "consumerID",
								"offset": 0,
								"slot": "11",
								"type": "t_address"
							}
						],
						"numberOfBytes": "384"
					},
					"t_uint256": {
						"encoding": "inplace",
						"label": "uint256",
						"numberOfBytes": "32"
					}
				}
			},
			"userdoc": {
				"kind": "user",
				"methods": {},
				"version": 1
			}
		}
	}
}