{
	"contracts/4_Product.sol": {
		"ProductSC": {
			"abi": [
				{
					"inputs": [
						{
							"internalType": "string",
							"name": "_name",
							"type": "string"
						},
						{
							"internalType": "string",
							"name": "_symbol",
							"type": "string"
						},
						{
							"internalType": "uint256",
							"name": "_initialSupply",
							"type": "uint256"
						}
					],
					"stateMutability": "nonpayable",
					"type": "constructor"
				},
				{
					"inputs": [
						{
							"internalType": "address",
							"name": "_account",
							"type": "address"
						},
						{
							"internalType": "uint256",
							"name": "_amount",
							"type": "uint256"
						}
					],
					"name": "burn",
					"outputs": [],
					"stateMutability": "nonpayable",
					"type": "function"
				},
				{
					"inputs": [
						{
							"internalType": "uint256",
							"name": "_id",
							"type": "uint256"
						},
						{
							"internalType": "uint256",
							"name": "_timestamp",
							"type": "uint256"
						}
					],
					"name": "buyProduct",
					"outputs": [],
					"stateMutability": "nonpayable",
					"type": "function"
				},
				{
					"inputs": [],
					"name": "buyToken",
					"outputs": [],
					"stateMutability": "payable",
					"type": "function"
				},
				{
					"inputs": [
						{
							"internalType": "address",
							"name": "_addr",
							"type": "address"
						}
					],
					"name": "etherBalance",
					"outputs": [
						{
							"internalType": "uint256",
							"name": "",
							"type": "uint256"
						}
					],
					"stateMutability": "view",
					"type": "function"
				},
				{
					"inputs": [
						{
							"internalType": "address",
							"name": "_addr",
							"type": "address"
						}
					],
					"name": "getActorInfo",
					"outputs": [
						{
							"internalType": "enum ProductSC.Role",
							"name": "_role",
							"type": "uint8"
						},
						{
							"internalType": "string",
							"name": "_name",
							"type": "string"
						}
					],
					"stateMutability": "view",
					"type": "function"
				},
				{
					"inputs": [
						{
							"internalType": "uint256",
							"name": "_id",
							"type": "uint256"
						}
					],
					"name": "getProductDetails",
					"outputs": [
						{
							"internalType": "uint256",
							"name": "product_id",
							"type": "uint256"
						},
						{
							"internalType": "address",
							"name": "owner_id",
							"type": "address"
						},
						{
							"internalType": "enum ProductSC.State",
							"name": "currentProductState",
							"type": "uint8"
						},
						{
							"internalType": "uint256",
							"name": "productPrice",
							"type": "uint256"
						},
						{
							"internalType": "string",
							"name": "product_name",
							"type": "string"
						},
						{
							"internalType": "string",
							"name": "product_brand",
							"type": "string"
						},
						{
							"internalType": "string",
							"name": "product_size",
							"type": "string"
						},
						{
							"internalType": "string",
							"name": "product_weight",
							"type": "string"
						},
						{
							"internalType": "string",
							"name": "product_length",
							"type": "string"
						},
						{
							"internalType": "string",
							"name": "product_width",
							"type": "string"
						},
						{
							"internalType": "string",
							"name": "product_height",
							"type": "string"
						}
					],
					"stateMutability": "view",
					"type": "function"
				},
				{
					"inputs": [
						{
							"internalType": "uint256",
							"name": "_id",
							"type": "uint256"
						}
					],
					"name": "getProductInfo",
					"outputs": [
						{
							"internalType": "uint256",
							"name": "product_id",
							"type": "uint256"
						},
						{
							"internalType": "address",
							"name": "producer_id",
							"type": "address"
						},
						{
							"internalType": "address",
							"name": "owner_id",
							"type": "address"
						},
						{
							"internalType": "enum ProductSC.State",
							"name": "currentProductState",
							"type": "uint8"
						},
						{
							"internalType": "uint256",
							"name": "productPrice",
							"type": "uint256"
						},
						{
							"internalType": "address",
							"name": "distributor_id",
							"type": "address"
						},
						{
							"internalType": "address",
							"name": "retailer_id",
							"type": "address"
						},
						{
							"internalType": "address",
							"name": "consumer_id",
							"type": "address"
						},
						{
							"components": [
								{
									"internalType": "string",
									"name": "name",
									"type": "string"
								},
								{
									"internalType": "string",
									"name": "brand",
									"type": "string"
								},
								{
									"internalType": "string",
									"name": "size",
									"type": "string"
								},
								{
									"internalType": "string",
									"name": "weight",
									"type": "string"
								},
								{
									"internalType": "string",
									"name": "length",
									"type": "string"
								},
								{
									"internalType": "string",
									"name": "width",
									"type": "string"
								},
								{
									"internalType": "string",
									"name": "height",
									"type": "string"
								}
							],
							"internalType": "struct ProductSC.Details",
							"name": "details",
							"type": "tuple"
						}
					],
					"stateMutability": "view",
					"type": "function"
				},
				{
					"inputs": [
						{
							"internalType": "uint256",
							"name": "_amount",
							"type": "uint256"
						}
					],
					"name": "mint",
					"outputs": [],
					"stateMutability": "nonpayable",
					"type": "function"
				},
				{
					"inputs": [],
					"name": "name",
					"outputs": [
						{
							"internalType": "string",
							"name": "",
							"type": "string"
						}
					],
					"stateMutability": "view",
					"type": "function"
				},
				{
					"inputs": [
						{
							"internalType": "uint256",
							"name": "_amount",
							"type": "uint256"
						},
						{
							"components": [
								{
									"internalType": "string",
									"name": "name",
									"type": "string"
								},
								{
									"internalType": "string",
									"name": "brand",
									"type": "string"
								},
								{
									"internalType": "string",
									"name": "size",
									"type": "string"
								},
								{
									"internalType": "string",
									"name": "weight",
									"type": "string"
								},
								{
									"internalType": "string",
									"name": "length",
									"type": "string"
								},
								{
									"internalType": "string",
									"name": "width",
									"type": "string"
								},
								{
									"internalType": "string",
									"name": "height",
									"type": "string"
								}
							],
							"internalType": "struct ProductSC.Details",
							"name": "details",
							"type": "tuple"
						}
					],
					"name": "orderProduct",
					"outputs": [],
					"stateMutability": "nonpayable",
					"type": "function"
				},
				{
					"inputs": [
						{
							"internalType": "uint256",
							"name": "_id",
							"type": "uint256"
						},
						{
							"internalType": "uint256",
							"name": "_timestamp",
							"type": "uint256"
						},
						{
							"internalType": "uint256",
							"name": "_price",
							"type": "uint256"
						},
						{
							"internalType": "string",
							"name": "_name",
							"type": "string"
						},
						{
							"internalType": "string",
							"name": "_brand",
							"type": "string"
						},
						{
							"internalType": "string",
							"name": "_size",
							"type": "string"
						},
						{
							"internalType": "string",
							"name": "_weight",
							"type": "string"
						},
						{
							"internalType": "string",
							"name": "_length",
							"type": "string"
						},
						{
							"internalType": "string",
							"name": "_width",
							"type": "string"
						},
						{
							"internalType": "string",
							"name": "_height",
							"type": "string"
						}
					],
					"name": "produceProduct",
					"outputs": [],
					"stateMutability": "nonpayable",
					"type": "function"
				},
				{
					"inputs": [
						{
							"internalType": "address",
							"name": "_addr",
							"type": "address"
						},
						{
							"internalType": "enum ProductSC.Role",
							"name": "_role",
							"type": "uint8"
						},
						{
							"internalType": "string",
							"name": "_name",
							"type": "string"
						}
					],
					"name": "register",
					"outputs": [],
					"stateMutability": "nonpayable",
					"type": "function"
				},
				{
					"inputs": [],
					"name": "symbol",
					"outputs": [
						{
							"internalType": "string",
							"name": "",
							"type": "string"
						}
					],
					"stateMutability": "view",
					"type": "function"
				},
				{
					"inputs": [
						{
							"internalType": "address",
							"name": "_addr",
							"type": "address"
						}
					],
					"name": "tokenBalance",
					"outputs": [
						{
							"internalType": "uint256",
							"name": "",
							"type": "uint256"
						}
					],
					"stateMutability": "view",
					"type": "function"
				},
				{
					"inputs": [],
					"name": "tokenOwner",
					"outputs": [
						{
							"internalType": "address payable",
							"name": "",
							"type": "address"
						}
					],
					"stateMutability": "view",
					"type": "function"
				},
				{
					"inputs": [
						{
							"internalType": "address",
							"name": "_to",
							"type": "address"
						},
						{
							"internalType": "uint256",
							"name": "_amount",
							"type": "uint256"
						}
					],
					"name": "tokenTransfer",
					"outputs": [
						{
							"internalType": "bool",
							"name": "",
							"type": "bool"
						}
					],
					"stateMutability": "nonpayable",
					"type": "function"
				}
			],
			"devdoc": {
				"kind": "dev",
				"methods": {},
				"version": 1
			},
			"evm": {
				"assembly": "    /* \"contracts/4_Product.sol\":35:10682  contract ProductSC {\r... */\n  mstore(0x40, 0x80)\n    /* \"contracts/4_Product.sol\":2158:2538  constructor (string memory _name, string memory _symbol, uint256 _initialSupply) {\r... */\n  callvalue\n  dup1\n  iszero\n  tag_1\n  jumpi\n  0x00\n  dup1\n  revert\ntag_1:\n  pop\n  mload(0x40)\n  sub(codesize, bytecodeSize)\n  dup1\n  bytecodeSize\n  dup4\n  codecopy\n  dup2\n  dup2\n  add\n  0x40\n  mstore\n  dup2\n  add\n  swap1\n  tag_2\n  swap2\n  swap1\n  tag_3\n  jump\t// in\ntag_2:\n    /* \"contracts/4_Product.sol\":2257:2262  _name */\n  dup3\n    /* \"contracts/4_Product.sol\":2250:2254  name */\n  0x00\n    /* \"contracts/4_Product.sol\":2250:2262  name = _name */\n  swap1\n  dup1\n  mload\n  swap1\n  0x20\n  add\n  swap1\n  tag_6\n  swap3\n  swap2\n  swap1\n  tag_7\n  jump\t// in\ntag_6:\n  pop\n    /* \"contracts/4_Product.sol\":2282:2289  _symbol */\n  dup2\n    /* \"contracts/4_Product.sol\":2273:2279  symbol */\n  0x01\n    /* \"contracts/4_Product.sol\":2273:2289  symbol = _symbol */\n  swap1\n  dup1\n  mload\n  swap1\n  0x20\n  add\n  swap1\n  tag_8\n  swap3\n  swap2\n  swap1\n  tag_7\n  jump\t// in\ntag_8:\n  pop\n    /* \"contracts/4_Product.sol\":2315:2329  _initialSupply */\n  dup1\n    /* \"contracts/4_Product.sol\":2300:2312  _totalSupply */\n  0x03\n    /* \"contracts/4_Product.sol\":2300:2329  _totalSupply = _initialSupply */\n  dup2\n  swap1\n  sstore\n  pop\n    /* \"contracts/4_Product.sol\":2361:2371  msg.sender */\n  caller\n    /* \"contracts/4_Product.sol\":2340:2350  tokenOwner */\n  0x02\n  0x00\n    /* \"contracts/4_Product.sol\":2340:2372  tokenOwner = payable(msg.sender) */\n  0x0100\n  exp\n  dup2\n  sload\n  dup2\n  0xffffffffffffffffffffffffffffffffffffffff\n  mul\n  not\n  and\n  swap1\n  dup4\n  0xffffffffffffffffffffffffffffffffffffffff\n  and\n  mul\n  or\n  swap1\n  sstore\n  pop\n    /* \"contracts/4_Product.sol\":2449:2463  _initialSupply */\n  dup1\n    /* \"contracts/4_Product.sol\":2426:2434  balances */\n  0x04\n    /* \"contracts/4_Product.sol\":2426:2446  balances[msg.sender] */\n  0x00\n    /* \"contracts/4_Product.sol\":2435:2445  msg.sender */\n  caller\n    /* \"contracts/4_Product.sol\":2426:2446  balances[msg.sender] */\n  0xffffffffffffffffffffffffffffffffffffffff\n  and\n  0xffffffffffffffffffffffffffffffffffffffff\n  and\n  dup2\n  mstore\n  0x20\n  add\n  swap1\n  dup2\n  mstore\n  0x20\n  add\n  0x00\n  keccak256\n    /* \"contracts/4_Product.sol\":2426:2463  balances[msg.sender] = _initialSupply */\n  dup2\n  swap1\n  sstore\n  pop\n    /* \"contracts/4_Product.sol\":2158:2538  constructor (string memory _name, string memory _symbol, uint256 _initialSupply) {\r... */\n  pop\n  pop\n  pop\n    /* \"contracts/4_Product.sol\":35:10682  contract ProductSC {\r... */\n  jump(tag_9)\ntag_7:\n  dup3\n  dup1\n  sload\n  tag_10\n  swap1\n  tag_11\n  jump\t// in\ntag_10:\n  swap1\n  0x00\n  mstore\n  keccak256(0x00, 0x20)\n  swap1\n  0x1f\n  add\n  0x20\n  swap1\n  div\n  dup2\n  add\n  swap3\n  dup3\n  tag_13\n  jumpi\n  0x00\n  dup6\n  sstore\n  jump(tag_12)\ntag_13:\n  dup3\n  0x1f\n  lt\n  tag_14\n  jumpi\n  dup1\n  mload\n  not(0xff)\n  and\n  dup4\n  dup1\n  add\n  or\n  dup6\n  sstore\n  jump(tag_12)\ntag_14:\n  dup3\n  dup1\n  add\n  0x01\n  add\n  dup6\n  sstore\n  dup3\n  iszero\n  tag_12\n  jumpi\n  swap2\n  dup3\n  add\ntag_15:\n  dup3\n  dup2\n  gt\n  iszero\n  tag_16\n  jumpi\n  dup3\n  mload\n  dup3\n  sstore\n  swap2\n  0x20\n  add\n  swap2\n  swap1\n  0x01\n  add\n  swap1\n  jump(tag_15)\ntag_16:\ntag_12:\n  pop\n  swap1\n  pop\n  tag_17\n  swap2\n  swap1\n  tag_18\n  jump\t// in\ntag_17:\n  pop\n  swap1\n  jump\t// out\ntag_18:\ntag_19:\n  dup1\n  dup3\n  gt\n  iszero\n  tag_20\n  jumpi\n  0x00\n  dup2\n  0x00\n  swap1\n  sstore\n  pop\n  0x01\n  add\n  jump(tag_19)\ntag_20:\n  pop\n  swap1\n  jump\t// out\n    /* \"#utility.yul\":7:428   */\ntag_22:\n    /* \"#utility.yul\":96:101   */\n  0x00\n    /* \"#utility.yul\":121:187   */\n  tag_24\n    /* \"#utility.yul\":137:186   */\n  tag_25\n    /* \"#utility.yul\":179:185   */\n  dup5\n    /* \"#utility.yul\":137:186   */\n  tag_26\n  jump\t// in\ntag_25:\n    /* \"#utility.yul\":121:187   */\n  tag_27\n  jump\t// in\ntag_24:\n    /* \"#utility.yul\":112:187   */\n  swap1\n  pop\n    /* \"#utility.yul\":210:216   */\n  dup3\n    /* \"#utility.yul\":203:208   */\n  dup2\n    /* \"#utility.yul\":196:217   */\n  mstore\n    /* \"#utility.yul\":248:252   */\n  0x20\n    /* \"#utility.yul\":241:246   */\n  dup2\n    /* \"#utility.yul\":237:253   */\n  add\n    /* \"#utility.yul\":286:289   */\n  dup5\n    /* \"#utility.yul\":277:283   */\n  dup5\n    /* \"#utility.yul\":272:275   */\n  dup5\n    /* \"#utility.yul\":268:284   */\n  add\n    /* \"#utility.yul\":265:290   */\n  gt\n    /* \"#utility.yul\":262:374   */\n  iszero\n  tag_28\n  jumpi\n    /* \"#utility.yul\":293:372   */\n  tag_29\n  tag_30\n  jump\t// in\ntag_29:\n    /* \"#utility.yul\":262:374   */\ntag_28:\n    /* \"#utility.yul\":383:422   */\n  tag_31\n    /* \"#utility.yul\":415:421   */\n  dup5\n    /* \"#utility.yul\":410:413   */\n  dup3\n    /* \"#utility.yul\":405:408   */\n  dup6\n    /* \"#utility.yul\":383:422   */\n  tag_32\n  jump\t// in\ntag_31:\n    /* \"#utility.yul\":102:428   */\n  pop\n    /* \"#utility.yul\":7:428   */\n  swap4\n  swap3\n  pop\n  pop\n  pop\n  jump\t// out\n    /* \"#utility.yul\":448:803   */\ntag_33:\n    /* \"#utility.yul\":515:520   */\n  0x00\n    /* \"#utility.yul\":564:567   */\n  dup3\n    /* \"#utility.yul\":557:561   */\n  0x1f\n    /* \"#utility.yul\":549:555   */\n  dup4\n    /* \"#utility.yul\":545:562   */\n  add\n    /* \"#utility.yul\":541:568   */\n  slt\n    /* \"#utility.yul\":531:653   */\n  tag_35\n  jumpi\n    /* \"#utility.yul\":572:651   */\n  tag_36\n  tag_37\n  jump\t// in\ntag_36:\n    /* \"#utility.yul\":531:653   */\ntag_35:\n    /* \"#utility.yul\":682:688   */\n  dup2\n    /* \"#utility.yul\":676:689   */\n  mload\n    /* \"#utility.yul\":707:797   */\n  tag_38\n    /* \"#utility.yul\":793:796   */\n  dup5\n    /* \"#utility.yul\":785:791   */\n  dup3\n    /* \"#utility.yul\":778:782   */\n  0x20\n    /* \"#utility.yul\":770:776   */\n  dup7\n    /* \"#utility.yul\":766:783   */\n  add\n    /* \"#utility.yul\":707:797   */\n  tag_22\n  jump\t// in\ntag_38:\n    /* \"#utility.yul\":698:797   */\n  swap2\n  pop\n    /* \"#utility.yul\":521:803   */\n  pop\n    /* \"#utility.yul\":448:803   */\n  swap3\n  swap2\n  pop\n  pop\n  jump\t// out\n    /* \"#utility.yul\":809:952   */\ntag_39:\n    /* \"#utility.yul\":866:871   */\n  0x00\n    /* \"#utility.yul\":897:903   */\n  dup2\n    /* \"#utility.yul\":891:904   */\n  mload\n    /* \"#utility.yul\":882:904   */\n  swap1\n  pop\n    /* \"#utility.yul\":913:946   */\n  tag_41\n    /* \"#utility.yul\":940:945   */\n  dup2\n    /* \"#utility.yul\":913:946   */\n  tag_42\n  jump\t// in\ntag_41:\n    /* \"#utility.yul\":809:952   */\n  swap3\n  swap2\n  pop\n  pop\n  jump\t// out\n    /* \"#utility.yul\":958:1967   */\ntag_3:\n    /* \"#utility.yul\":1066:1072   */\n  0x00\n    /* \"#utility.yul\":1074:1080   */\n  dup1\n    /* \"#utility.yul\":1082:1088   */\n  0x00\n    /* \"#utility.yul\":1131:1133   */\n  0x60\n    /* \"#utility.yul\":1119:1128   */\n  dup5\n    /* \"#utility.yul\":1110:1117   */\n  dup7\n    /* \"#utility.yul\":1106:1129   */\n  sub\n    /* \"#utility.yul\":1102:1134   */\n  slt\n    /* \"#utility.yul\":1099:1218   */\n  iszero\n  tag_44\n  jumpi\n    /* \"#utility.yul\":1137:1216   */\n  tag_45\n  tag_46\n  jump\t// in\ntag_45:\n    /* \"#utility.yul\":1099:1218   */\ntag_44:\n    /* \"#utility.yul\":1278:1279   */\n  0x00\n    /* \"#utility.yul\":1267:1276   */\n  dup5\n    /* \"#utility.yul\":1263:1280   */\n  add\n    /* \"#utility.yul\":1257:1281   */\n  mload\n    /* \"#utility.yul\":1308:1326   */\n  0xffffffffffffffff\n    /* \"#utility.yul\":1300:1306   */\n  dup2\n    /* \"#utility.yul\":1297:1327   */\n  gt\n    /* \"#utility.yul\":1294:1411   */\n  iszero\n  tag_47\n  jumpi\n    /* \"#utility.yul\":1330:1409   */\n  tag_48\n  tag_49\n  jump\t// in\ntag_48:\n    /* \"#utility.yul\":1294:1411   */\ntag_47:\n    /* \"#utility.yul\":1435:1509   */\n  tag_50\n    /* \"#utility.yul\":1501:1508   */\n  dup7\n    /* \"#utility.yul\":1492:1498   */\n  dup3\n    /* \"#utility.yul\":1481:1490   */\n  dup8\n    /* \"#utility.yul\":1477:1499   */\n  add\n    /* \"#utility.yul\":1435:1509   */\n  tag_33\n  jump\t// in\ntag_50:\n    /* \"#utility.yul\":1425:1509   */\n  swap4\n  pop\n    /* \"#utility.yul\":1228:1519   */\n  pop\n    /* \"#utility.yul\":1579:1581   */\n  0x20\n    /* \"#utility.yul\":1568:1577   */\n  dup5\n    /* \"#utility.yul\":1564:1582   */\n  add\n    /* \"#utility.yul\":1558:1583   */\n  mload\n    /* \"#utility.yul\":1610:1628   */\n  0xffffffffffffffff\n    /* \"#utility.yul\":1602:1608   */\n  dup2\n    /* \"#utility.yul\":1599:1629   */\n  gt\n    /* \"#utility.yul\":1596:1713   */\n  iszero\n  tag_51\n  jumpi\n    /* \"#utility.yul\":1632:1711   */\n  tag_52\n  tag_49\n  jump\t// in\ntag_52:\n    /* \"#utility.yul\":1596:1713   */\ntag_51:\n    /* \"#utility.yul\":1737:1811   */\n  tag_53\n    /* \"#utility.yul\":1803:1810   */\n  dup7\n    /* \"#utility.yul\":1794:1800   */\n  dup3\n    /* \"#utility.yul\":1783:1792   */\n  dup8\n    /* \"#utility.yul\":1779:1801   */\n  add\n    /* \"#utility.yul\":1737:1811   */\n  tag_33\n  jump\t// in\ntag_53:\n    /* \"#utility.yul\":1727:1811   */\n  swap3\n  pop\n    /* \"#utility.yul\":1529:1821   */\n  pop\n    /* \"#utility.yul\":1860:1862   */\n  0x40\n    /* \"#utility.yul\":1886:1950   */\n  tag_54\n    /* \"#utility.yul\":1942:1949   */\n  dup7\n    /* \"#utility.yul\":1933:1939   */\n  dup3\n    /* \"#utility.yul\":1922:1931   */\n  dup8\n    /* \"#utility.yul\":1918:1940   */\n  add\n    /* \"#utility.yul\":1886:1950   */\n  tag_39\n  jump\t// in\ntag_54:\n    /* \"#utility.yul\":1876:1950   */\n  swap2\n  pop\n    /* \"#utility.yul\":1831:1960   */\n  pop\n    /* \"#utility.yul\":958:1967   */\n  swap3\n  pop\n  swap3\n  pop\n  swap3\n  jump\t// out\n    /* \"#utility.yul\":1973:2102   */\ntag_27:\n    /* \"#utility.yul\":2007:2013   */\n  0x00\n    /* \"#utility.yul\":2034:2054   */\n  tag_56\n  tag_57\n  jump\t// in\ntag_56:\n    /* \"#utility.yul\":2024:2054   */\n  swap1\n  pop\n    /* \"#utility.yul\":2063:2096   */\n  tag_58\n    /* \"#utility.yul\":2091:2095   */\n  dup3\n    /* \"#utility.yul\":2083:2089   */\n  dup3\n    /* \"#utility.yul\":2063:2096   */\n  tag_59\n  jump\t// in\ntag_58:\n    /* \"#utility.yul\":1973:2102   */\n  swap2\n  swap1\n  pop\n  jump\t// out\n    /* \"#utility.yul\":2108:2183   */\ntag_57:\n    /* \"#utility.yul\":2141:2147   */\n  0x00\n    /* \"#utility.yul\":2174:2176   */\n  0x40\n    /* \"#utility.yul\":2168:2177   */\n  mload\n    /* \"#utility.yul\":2158:2177   */\n  swap1\n  pop\n    /* \"#utility.yul\":2108:2183   */\n  swap1\n  jump\t// out\n    /* \"#utility.yul\":2189:2497   */\ntag_26:\n    /* \"#utility.yul\":2251:2255   */\n  0x00\n    /* \"#utility.yul\":2341:2359   */\n  0xffffffffffffffff\n    /* \"#utility.yul\":2333:2339   */\n  dup3\n    /* \"#utility.yul\":2330:2360   */\n  gt\n    /* \"#utility.yul\":2327:2383   */\n  iszero\n  tag_62\n  jumpi\n    /* \"#utility.yul\":2363:2381   */\n  tag_63\n  tag_64\n  jump\t// in\ntag_63:\n    /* \"#utility.yul\":2327:2383   */\ntag_62:\n    /* \"#utility.yul\":2401:2430   */\n  tag_65\n    /* \"#utility.yul\":2423:2429   */\n  dup3\n    /* \"#utility.yul\":2401:2430   */\n  tag_66\n  jump\t// in\ntag_65:\n    /* \"#utility.yul\":2393:2430   */\n  swap1\n  pop\n    /* \"#utility.yul\":2485:2489   */\n  0x20\n    /* \"#utility.yul\":2479:2483   */\n  dup2\n    /* \"#utility.yul\":2475:2490   */\n  add\n    /* \"#utility.yul\":2467:2490   */\n  swap1\n  pop\n    /* \"#utility.yul\":2189:2497   */\n  swap2\n  swap1\n  pop\n  jump\t// out\n    /* \"#utility.yul\":2503:2580   */\ntag_67:\n    /* \"#utility.yul\":2540:2547   */\n  0x00\n    /* \"#utility.yul\":2569:2574   */\n  dup2\n    /* \"#utility.yul\":2558:2574   */\n  swap1\n  pop\n    /* \"#utility.yul\":2503:2580   */\n  swap2\n  swap1\n  pop\n  jump\t// out\n    /* \"#utility.yul\":2586:2893   */\ntag_32:\n    /* \"#utility.yul\":2654:2655   */\n  0x00\n    /* \"#utility.yul\":2664:2777   */\ntag_70:\n    /* \"#utility.yul\":2678:2684   */\n  dup4\n    /* \"#utility.yul\":2675:2676   */\n  dup2\n    /* \"#utility.yul\":2672:2685   */\n  lt\n    /* \"#utility.yul\":2664:2777   */\n  iszero\n  tag_72\n  jumpi\n    /* \"#utility.yul\":2763:2764   */\n  dup1\n    /* \"#utility.yul\":2758:2761   */\n  dup3\n    /* \"#utility.yul\":2754:2765   */\n  add\n    /* \"#utility.yul\":2748:2766   */\n  mload\n    /* \"#utility.yul\":2744:2745   */\n  dup2\n    /* \"#utility.yul\":2739:2742   */\n  dup5\n    /* \"#utility.yul\":2735:2746   */\n  add\n    /* \"#utility.yul\":2728:2767   */\n  mstore\n    /* \"#utility.yul\":2700:2702   */\n  0x20\n    /* \"#utility.yul\":2697:2698   */\n  dup2\n    /* \"#utility.yul\":2693:2703   */\n  add\n    /* \"#utility.yul\":2688:2703   */\n  swap1\n  pop\n    /* \"#utility.yul\":2664:2777   */\n  jump(tag_70)\ntag_72:\n    /* \"#utility.yul\":2795:2801   */\n  dup4\n    /* \"#utility.yul\":2792:2793   */\n  dup2\n    /* \"#utility.yul\":2789:2802   */\n  gt\n    /* \"#utility.yul\":2786:2887   */\n  iszero\n  tag_73\n  jumpi\n    /* \"#utility.yul\":2875:2876   */\n  0x00\n    /* \"#utility.yul\":2866:2872   */\n  dup5\n    /* \"#utility.yul\":2861:2864   */\n  dup5\n    /* \"#utility.yul\":2857:2873   */\n  add\n    /* \"#utility.yul\":2850:2877   */\n  mstore\n    /* \"#utility.yul\":2786:2887   */\ntag_73:\n    /* \"#utility.yul\":2635:2893   */\n  pop\n    /* \"#utility.yul\":2586:2893   */\n  pop\n  pop\n  pop\n  jump\t// out\n    /* \"#utility.yul\":2899:3219   */\ntag_11:\n    /* \"#utility.yul\":2943:2949   */\n  0x00\n    /* \"#utility.yul\":2980:2981   */\n  0x02\n    /* \"#utility.yul\":2974:2978   */\n  dup3\n    /* \"#utility.yul\":2970:2982   */\n  div\n    /* \"#utility.yul\":2960:2982   */\n  swap1\n  pop\n    /* \"#utility.yul\":3027:3028   */\n  0x01\n    /* \"#utility.yul\":3021:3025   */\n  dup3\n    /* \"#utility.yul\":3017:3029   */\n  and\n    /* \"#utility.yul\":3048:3066   */\n  dup1\n    /* \"#utility.yul\":3038:3119   */\n  tag_75\n  jumpi\n    /* \"#utility.yul\":3104:3108   */\n  0x7f\n    /* \"#utility.yul\":3096:3102   */\n  dup3\n    /* \"#utility.yul\":3092:3109   */\n  and\n    /* \"#utility.yul\":3082:3109   */\n  swap2\n  pop\n    /* \"#utility.yul\":3038:3119   */\ntag_75:\n    /* \"#utility.yul\":3166:3168   */\n  0x20\n    /* \"#utility.yul\":3158:3164   */\n  dup3\n    /* \"#utility.yul\":3155:3169   */\n  lt\n    /* \"#utility.yul\":3135:3153   */\n  dup2\n    /* \"#utility.yul\":3132:3170   */\n  eq\n    /* \"#utility.yul\":3129:3213   */\n  iszero\n  tag_76\n  jumpi\n    /* \"#utility.yul\":3185:3203   */\n  tag_77\n  tag_78\n  jump\t// in\ntag_77:\n    /* \"#utility.yul\":3129:3213   */\ntag_76:\n    /* \"#utility.yul\":2950:3219   */\n  pop\n    /* \"#utility.yul\":2899:3219   */\n  swap2\n  swap1\n  pop\n  jump\t// out\n    /* \"#utility.yul\":3225:3506   */\ntag_59:\n    /* \"#utility.yul\":3308:3335   */\n  tag_80\n    /* \"#utility.yul\":3330:3334   */\n  dup3\n    /* \"#utility.yul\":3308:3335   */\n  tag_66\n  jump\t// in\ntag_80:\n    /* \"#utility.yul\":3300:3306   */\n  dup2\n    /* \"#utility.yul\":3296:3336   */\n  add\n    /* \"#utility.yul\":3438:3444   */\n  dup2\n    /* \"#utility.yul\":3426:3436   */\n  dup2\n    /* \"#utility.yul\":3423:3445   */\n  lt\n    /* \"#utility.yul\":3402:3420   */\n  0xffffffffffffffff\n    /* \"#utility.yul\":3390:3400   */\n  dup3\n    /* \"#utility.yul\":3387:3421   */\n  gt\n    /* \"#utility.yul\":3384:3446   */\n  or\n    /* \"#utility.yul\":3381:3469   */\n  iszero\n  tag_81\n  jumpi\n    /* \"#utility.yul\":3449:3467   */\n  tag_82\n  tag_64\n  jump\t// in\ntag_82:\n    /* \"#utility.yul\":3381:3469   */\ntag_81:\n    /* \"#utility.yul\":3489:3499   */\n  dup1\n    /* \"#utility.yul\":3485:3487   */\n  0x40\n    /* \"#utility.yul\":3478:3500   */\n  mstore\n    /* \"#utility.yul\":3268:3506   */\n  pop\n    /* \"#utility.yul\":3225:3506   */\n  pop\n  pop\n  jump\t// out\n    /* \"#utility.yul\":3512:3692   */\ntag_78:\n    /* \"#utility.yul\":3560:3637   */\n  0x4e487b7100000000000000000000000000000000000000000000000000000000\n    /* \"#utility.yul\":3557:3558   */\n  0x00\n    /* \"#utility.yul\":3550:3638   */\n  mstore\n    /* \"#utility.yul\":3657:3661   */\n  0x22\n    /* \"#utility.yul\":3654:3655   */\n  0x04\n    /* \"#utility.yul\":3647:3662   */\n  mstore\n    /* \"#utility.yul\":3681:3685   */\n  0x24\n    /* \"#utility.yul\":3678:3679   */\n  0x00\n    /* \"#utility.yul\":3671:3686   */\n  revert\n    /* \"#utility.yul\":3698:3878   */\ntag_64:\n    /* \"#utility.yul\":3746:3823   */\n  0x4e487b7100000000000000000000000000000000000000000000000000000000\n    /* \"#utility.yul\":3743:3744   */\n  0x00\n    /* \"#utility.yul\":3736:3824   */\n  mstore\n    /* \"#utility.yul\":3843:3847   */\n  0x41\n    /* \"#utility.yul\":3840:3841   */\n  0x04\n    /* \"#utility.yul\":3833:3848   */\n  mstore\n    /* \"#utility.yul\":3867:3871   */\n  0x24\n    /* \"#utility.yul\":3864:3865   */\n  0x00\n    /* \"#utility.yul\":3857:3872   */\n  revert\n    /* \"#utility.yul\":3884:4001   */\ntag_37:\n    /* \"#utility.yul\":3993:3994   */\n  0x00\n    /* \"#utility.yul\":3990:3991   */\n  dup1\n    /* \"#utility.yul\":3983:3995   */\n  revert\n    /* \"#utility.yul\":4007:4124   */\ntag_30:\n    /* \"#utility.yul\":4116:4117   */\n  0x00\n    /* \"#utility.yul\":4113:4114   */\n  dup1\n    /* \"#utility.yul\":4106:4118   */\n  revert\n    /* \"#utility.yul\":4130:4247   */\ntag_49:\n    /* \"#utility.yul\":4239:4240   */\n  0x00\n    /* \"#utility.yul\":4236:4237   */\n  dup1\n    /* \"#utility.yul\":4229:4241   */\n  revert\n    /* \"#utility.yul\":4253:4370   */\ntag_46:\n    /* \"#utility.yul\":4362:4363   */\n  0x00\n    /* \"#utility.yul\":4359:4360   */\n  dup1\n    /* \"#utility.yul\":4352:4364   */\n  revert\n    /* \"#utility.yul\":4376:4478   */\ntag_66:\n    /* \"#utility.yul\":4417:4423   */\n  0x00\n    /* \"#utility.yul\":4468:4470   */\n  0x1f\n    /* \"#utility.yul\":4464:4471   */\n  not\n    /* \"#utility.yul\":4459:4461   */\n  0x1f\n    /* \"#utility.yul\":4452:4457   */\n  dup4\n    /* \"#utility.yul\":4448:4462   */\n  add\n    /* \"#utility.yul\":4444:4472   */\n  and\n    /* \"#utility.yul\":4434:4472   */\n  swap1\n  pop\n    /* \"#utility.yul\":4376:4478   */\n  swap2\n  swap1\n  pop\n  jump\t// out\n    /* \"#utility.yul\":4484:4606   */\ntag_42:\n    /* \"#utility.yul\":4557:4581   */\n  tag_91\n    /* \"#utility.yul\":4575:4580   */\n  dup2\n    /* \"#utility.yul\":4557:4581   */\n  tag_67\n  jump\t// in\ntag_91:\n    /* \"#utility.yul\":4550:4555   */\n  dup2\n    /* \"#utility.yul\":4547:4582   */\n  eq\n    /* \"#utility.yul\":4537:4600   */\n  tag_92\n  jumpi\n    /* \"#utility.yul\":4596:4597   */\n  0x00\n    /* \"#utility.yul\":4593:4594   */\n  dup1\n    /* \"#utility.yul\":4586:4598   */\n  revert\n    /* \"#utility.yul\":4537:4600   */\ntag_92:\n    /* \"#utility.yul\":4484:4606   */\n  pop\n  jump\t// out\n    /* \"contracts/4_Product.sol\":35:10682  contract ProductSC {\r... */\ntag_9:\n  dataSize(sub_0)\n  dup1\n  dataOffset(sub_0)\n  0x00\n  codecopy\n  0x00\n  return\nstop\n\nsub_0: assembly {\n        /* \"contracts/4_Product.sol\":35:10682  contract ProductSC {\r... */\n      mstore(0x40, 0x80)\n      jumpi(tag_1, lt(calldatasize, 0x04))\n      shr(0xe0, calldataload(0x00))\n      dup1\n      0x95d89b41\n      gt\n      tag_18\n      jumpi\n      dup1\n      0xa4821719\n      gt\n      tag_19\n      jumpi\n      dup1\n      0xa4821719\n      eq\n      tag_14\n      jumpi\n      dup1\n      0xb292abf1\n      eq\n      tag_15\n      jumpi\n      dup1\n      0xcd0c5896\n      eq\n      tag_16\n      jumpi\n      dup1\n      0xeedc966a\n      eq\n      tag_17\n      jumpi\n      jump(tag_1)\n    tag_19:\n      dup1\n      0x95d89b41\n      eq\n      tag_10\n      jumpi\n      dup1\n      0x9dc29fac\n      eq\n      tag_11\n      jumpi\n      dup1\n      0xa0712d68\n      eq\n      tag_12\n      jumpi\n      dup1\n      0xa3e67610\n      eq\n      tag_13\n      jumpi\n      jump(tag_1)\n    tag_18:\n      dup1\n      0x561e0e98\n      gt\n      tag_20\n      jumpi\n      dup1\n      0x561e0e98\n      eq\n      tag_6\n      jumpi\n      dup1\n      0x6813b53b\n      eq\n      tag_7\n      jumpi\n      dup1\n      0x68cdafe6\n      eq\n      tag_8\n      jumpi\n      dup1\n      0x79a85e6c\n      eq\n      tag_9\n      jumpi\n      jump(tag_1)\n    tag_20:\n      dup1\n      0x06fdde03\n      eq\n      tag_2\n      jumpi\n      dup1\n      0x2bd5889f\n      eq\n      tag_3\n      jumpi\n      dup1\n      0x40932fc2\n      eq\n      tag_4\n      jumpi\n      dup1\n      0x53b62866\n      eq\n      tag_5\n      jumpi\n    tag_1:\n      0x00\n      dup1\n      revert\n        /* \"contracts/4_Product.sol\":67:85  string public name */\n    tag_2:\n      callvalue\n      dup1\n      iszero\n      tag_21\n      jumpi\n      0x00\n      dup1\n      revert\n    tag_21:\n      pop\n      tag_22\n      tag_23\n      jump\t// in\n    tag_22:\n      mload(0x40)\n      tag_24\n      swap2\n      swap1\n      tag_25\n      jump\t// in\n    tag_24:\n      mload(0x40)\n      dup1\n      swap2\n      sub\n      swap1\n      return\n        /* \"contracts/4_Product.sol\":4305:4730  function orderProduct(uint256 _amount, Details memory details) public OnlyTokenOwner {\r... */\n    tag_3:\n      callvalue\n      dup1\n      iszero\n      tag_26\n      jumpi\n      0x00\n      dup1\n      revert\n    tag_26:\n      pop\n      tag_27\n      0x04\n      dup1\n      calldatasize\n      sub\n      dup2\n      add\n      swap1\n      tag_28\n      swap2\n      swap1\n      tag_29\n      jump\t// in\n    tag_28:\n      tag_30\n      jump\t// in\n    tag_27:\n      stop\n        /* \"contracts/4_Product.sol\":6303:6562  function register(address _addr, Role _role, string memory _name) public {\r... */\n    tag_4:\n      callvalue\n      dup1\n      iszero\n      tag_31\n      jumpi\n      0x00\n      dup1\n      revert\n    tag_31:\n      pop\n      tag_32\n      0x04\n      dup1\n      calldatasize\n      sub\n      dup2\n      add\n      swap1\n      tag_33\n      swap2\n      swap1\n      tag_34\n      jump\t// in\n    tag_33:\n      tag_35\n      jump\t// in\n    tag_32:\n      stop\n        /* \"contracts/4_Product.sol\":7752:8402  function buyProduct(uint256 _id, uint256 _timestamp) public OnlyDistributor{\r... */\n    tag_5:\n      callvalue\n      dup1\n      iszero\n      tag_36\n      jumpi\n      0x00\n      dup1\n      revert\n    tag_36:\n      pop\n      tag_37\n      0x04\n      dup1\n      calldatasize\n      sub\n      dup2\n      add\n      swap1\n      tag_38\n      swap2\n      swap1\n      tag_39\n      jump\t// in\n    tag_38:\n      tag_40\n      jump\t// in\n    tag_37:\n      stop\n        /* \"contracts/4_Product.sol\":6681:7705  function produceProduct(uint256 _id, uint256 _timestamp, uint256 _price, string memory _name, string memory _brand, string memory _size, string memory _weight, string memory _length ,string memory _width ,string memory _height) public OnlyProducer{\r... */\n    tag_6:\n      callvalue\n      dup1\n      iszero\n      tag_41\n      jumpi\n      0x00\n      dup1\n      revert\n    tag_41:\n      pop\n      tag_42\n      0x04\n      dup1\n      calldatasize\n      sub\n      dup2\n      add\n      swap1\n      tag_43\n      swap2\n      swap1\n      tag_44\n      jump\t// in\n    tag_43:\n      tag_45\n      jump\t// in\n    tag_42:\n      stop\n        /* \"contracts/4_Product.sol\":9363:10459  function getProductDetails(uint256 _id) public view returns \r... */\n    tag_7:\n      callvalue\n      dup1\n      iszero\n      tag_46\n      jumpi\n      0x00\n      dup1\n      revert\n    tag_46:\n      pop\n      tag_47\n      0x04\n      dup1\n      calldatasize\n      sub\n      dup2\n      add\n      swap1\n      tag_48\n      swap2\n      swap1\n      tag_49\n      jump\t// in\n    tag_48:\n      tag_50\n      jump\t// in\n    tag_47:\n      mload(0x40)\n      tag_51\n      swap12\n      swap11\n      swap10\n      swap9\n      swap8\n      swap7\n      swap6\n      swap5\n      swap4\n      swap3\n      swap2\n      swap1\n      tag_52\n      jump\t// in\n    tag_51:\n      mload(0x40)\n      dup1\n      swap2\n      sub\n      swap1\n      return\n        /* \"contracts/4_Product.sol\":5935:6291  function tokenTransfer(address _to, uint256 _amount) public returns (bool) {\r... */\n    tag_8:\n      callvalue\n      dup1\n      iszero\n      tag_53\n      jumpi\n      0x00\n      dup1\n      revert\n    tag_53:\n      pop\n      tag_54\n      0x04\n      dup1\n      calldatasize\n      sub\n      dup2\n      add\n      swap1\n      tag_55\n      swap2\n      swap1\n      tag_56\n      jump\t// in\n    tag_55:\n      tag_57\n      jump\t// in\n    tag_54:\n      mload(0x40)\n      tag_58\n      swap2\n      swap1\n      tag_59\n      jump\t// in\n    tag_58:\n      mload(0x40)\n      dup1\n      swap2\n      sub\n      swap1\n      return\n        /* \"contracts/4_Product.sol\":8475:9357  function getProductInfo(uint256 _id) public view returns \r... */\n    tag_9:\n      callvalue\n      dup1\n      iszero\n      tag_60\n      jumpi\n      0x00\n      dup1\n      revert\n    tag_60:\n      pop\n      tag_61\n      0x04\n      dup1\n      calldatasize\n      sub\n      dup2\n      add\n      swap1\n      tag_62\n      swap2\n      swap1\n      tag_49\n      jump\t// in\n    tag_62:\n      tag_63\n      jump\t// in\n    tag_61:\n      mload(0x40)\n      tag_64\n      swap10\n      swap9\n      swap8\n      swap7\n      swap6\n      swap5\n      swap4\n      swap3\n      swap2\n      swap1\n      tag_65\n      jump\t// in\n    tag_64:\n      mload(0x40)\n      dup1\n      swap2\n      sub\n      swap1\n      return\n        /* \"contracts/4_Product.sol\":114:134  string public symbol */\n    tag_10:\n      callvalue\n      dup1\n      iszero\n      tag_66\n      jumpi\n      0x00\n      dup1\n      revert\n    tag_66:\n      pop\n      tag_67\n      tag_68\n      jump\t// in\n    tag_67:\n      mload(0x40)\n      tag_69\n      swap2\n      swap1\n      tag_25\n      jump\t// in\n    tag_69:\n      mload(0x40)\n      dup1\n      swap2\n      sub\n      swap1\n      return\n        /* \"contracts/4_Product.sol\":4889:5306  function burn(address _account, uint256 _amount) public OnlyTokenOwner {\r... */\n    tag_11:\n      callvalue\n      dup1\n      iszero\n      tag_70\n      jumpi\n      0x00\n      dup1\n      revert\n    tag_70:\n      pop\n      tag_71\n      0x04\n      dup1\n      calldatasize\n      sub\n      dup2\n      add\n      swap1\n      tag_72\n      swap2\n      swap1\n      tag_56\n      jump\t// in\n    tag_72:\n      tag_73\n      jump\t// in\n    tag_71:\n      stop\n        /* \"contracts/4_Product.sol\":4075:4297  function mint(uint256 _amount) public OnlyTokenOwner {\r... */\n    tag_12:\n      callvalue\n      dup1\n      iszero\n      tag_74\n      jumpi\n      0x00\n      dup1\n      revert\n    tag_74:\n      pop\n      tag_75\n      0x04\n      dup1\n      calldatasize\n      sub\n      dup2\n      add\n      swap1\n      tag_76\n      swap2\n      swap1\n      tag_49\n      jump\t// in\n    tag_76:\n      tag_77\n      jump\t// in\n    tag_75:\n      stop\n        /* \"contracts/4_Product.sol\":165:199  address payable public  tokenOwner */\n    tag_13:\n      callvalue\n      dup1\n      iszero\n      tag_78\n      jumpi\n      0x00\n      dup1\n      revert\n    tag_78:\n      pop\n      tag_79\n      tag_80\n      jump\t// in\n    tag_79:\n      mload(0x40)\n      tag_81\n      swap2\n      swap1\n      tag_82\n      jump\t// in\n    tag_81:\n      mload(0x40)\n      dup1\n      swap2\n      sub\n      swap1\n      return\n        /* \"contracts/4_Product.sol\":5364:5861  function buyToken() public payable {\r... */\n    tag_14:\n      tag_83\n      tag_84\n      jump\t// in\n    tag_83:\n      stop\n        /* \"contracts/4_Product.sol\":10501:10677  function getActorInfo(address _addr) public view returns\r... */\n    tag_15:\n      callvalue\n      dup1\n      iszero\n      tag_85\n      jumpi\n      0x00\n      dup1\n      revert\n    tag_85:\n      pop\n      tag_86\n      0x04\n      dup1\n      calldatasize\n      sub\n      dup2\n      add\n      swap1\n      tag_87\n      swap2\n      swap1\n      tag_88\n      jump\t// in\n    tag_87:\n      tag_89\n      jump\t// in\n    tag_86:\n      mload(0x40)\n      tag_90\n      swap3\n      swap2\n      swap1\n      tag_91\n      jump\t// in\n    tag_90:\n      mload(0x40)\n      dup1\n      swap2\n      sub\n      swap1\n      return\n        /* \"contracts/4_Product.sol\":3853:3959  function etherBalance(address _addr) public view returns (uint256) {\r... */\n    tag_16:\n      callvalue\n      dup1\n      iszero\n      tag_92\n      jumpi\n      0x00\n      dup1\n      revert\n    tag_92:\n      pop\n      tag_93\n      0x04\n      dup1\n      calldatasize\n      sub\n      dup2\n      add\n      swap1\n      tag_94\n      swap2\n      swap1\n      tag_88\n      jump\t// in\n    tag_94:\n      tag_95\n      jump\t// in\n    tag_93:\n      mload(0x40)\n      tag_96\n      swap2\n      swap1\n      tag_97\n      jump\t// in\n    tag_96:\n      mload(0x40)\n      dup1\n      swap2\n      sub\n      swap1\n      return\n        /* \"contracts/4_Product.sol\":3679:3787  function tokenBalance(address _addr) public view returns (uint256) {\r... */\n    tag_17:\n      callvalue\n      dup1\n      iszero\n      tag_98\n      jumpi\n      0x00\n      dup1\n      revert\n    tag_98:\n      pop\n      tag_99\n      0x04\n      dup1\n      calldatasize\n      sub\n      dup2\n      add\n      swap1\n      tag_100\n      swap2\n      swap1\n      tag_88\n      jump\t// in\n    tag_100:\n      tag_101\n      jump\t// in\n    tag_99:\n      mload(0x40)\n      tag_102\n      swap2\n      swap1\n      tag_97\n      jump\t// in\n    tag_102:\n      mload(0x40)\n      dup1\n      swap2\n      sub\n      swap1\n      return\n        /* \"contracts/4_Product.sol\":67:85  string public name */\n    tag_23:\n      0x00\n      dup1\n      sload\n      tag_103\n      swap1\n      tag_104\n      jump\t// in\n    tag_103:\n      dup1\n      0x1f\n      add\n      0x20\n      dup1\n      swap2\n      div\n      mul\n      0x20\n      add\n      mload(0x40)\n      swap1\n      dup2\n      add\n      0x40\n      mstore\n      dup1\n      swap3\n      swap2\n      swap1\n      dup2\n      dup2\n      mstore\n      0x20\n      add\n      dup3\n      dup1\n      sload\n      tag_105\n      swap1\n      tag_104\n      jump\t// in\n    tag_105:\n      dup1\n      iszero\n      tag_106\n      jumpi\n      dup1\n      0x1f\n      lt\n      tag_107\n      jumpi\n      0x0100\n      dup1\n      dup4\n      sload\n      div\n      mul\n      dup4\n      mstore\n      swap2\n      0x20\n      add\n      swap2\n      jump(tag_106)\n    tag_107:\n      dup3\n      add\n      swap2\n      swap1\n      0x00\n      mstore\n      keccak256(0x00, 0x20)\n      swap1\n    tag_108:\n      dup2\n      sload\n      dup2\n      mstore\n      swap1\n      0x01\n      add\n      swap1\n      0x20\n      add\n      dup1\n      dup4\n      gt\n      tag_108\n      jumpi\n      dup3\n      swap1\n      sub\n      0x1f\n      and\n      dup3\n      add\n      swap2\n    tag_106:\n      pop\n      pop\n      pop\n      pop\n      pop\n      dup2\n      jump\t// out\n        /* \"contracts/4_Product.sol\":4305:4730  function orderProduct(uint256 _amount, Details memory details) public OnlyTokenOwner {\r... */\n    tag_30:\n        /* \"contracts/4_Product.sol\":2674:2684  tokenOwner */\n      0x02\n      0x00\n      swap1\n      sload\n      swap1\n      0x0100\n      exp\n      swap1\n      div\n      0xffffffffffffffffffffffffffffffffffffffff\n      and\n        /* \"contracts/4_Product.sol\":2660:2684  msg.sender == tokenOwner */\n      0xffffffffffffffffffffffffffffffffffffffff\n      and\n        /* \"contracts/4_Product.sol\":2660:2670  msg.sender */\n      caller\n        /* \"contracts/4_Product.sol\":2660:2684  msg.sender == tokenOwner */\n      0xffffffffffffffffffffffffffffffffffffffff\n      and\n      eq\n        /* \"contracts/4_Product.sol\":2652:2719  require(msg.sender == tokenOwner, 'caller is not the token owner.') */\n      tag_110\n      jumpi\n      mload(0x40)\n      0x08c379a000000000000000000000000000000000000000000000000000000000\n      dup2\n      mstore\n      0x04\n      add\n      tag_111\n      swap1\n      tag_112\n      jump\t// in\n    tag_111:\n      mload(0x40)\n      dup1\n      swap2\n      sub\n      swap1\n      revert\n    tag_110:\n        /* \"contracts/4_Product.sol\":4401:4411  uint index */\n      0x00\n        /* \"contracts/4_Product.sol\":4574:4581  _amount */\n      dup3\n        /* \"contracts/4_Product.sol\":4558:4570  _totalSupply */\n      0x03\n      0x00\n        /* \"contracts/4_Product.sol\":4558:4581  _totalSupply += _amount */\n      dup3\n      dup3\n      sload\n      tag_115\n      swap2\n      swap1\n      tag_116\n      jump\t// in\n    tag_115:\n      swap3\n      pop\n      pop\n      dup2\n      swap1\n      sstore\n      pop\n        /* \"contracts/4_Product.sol\":4652:4659  _amount */\n      dup3\n        /* \"contracts/4_Product.sol\":4628:4636  balances */\n      0x04\n        /* \"contracts/4_Product.sol\":4628:4648  balances[msg.sender] */\n      0x00\n        /* \"contracts/4_Product.sol\":4637:4647  msg.sender */\n      caller\n        /* \"contracts/4_Product.sol\":4628:4648  balances[msg.sender] */\n      0xffffffffffffffffffffffffffffffffffffffff\n      and\n      0xffffffffffffffffffffffffffffffffffffffff\n      and\n      dup2\n      mstore\n      0x20\n      add\n      swap1\n      dup2\n      mstore\n      0x20\n      add\n      0x00\n      keccak256\n      0x00\n        /* \"contracts/4_Product.sol\":4628:4659  balances[msg.sender] += _amount */\n      dup3\n      dup3\n      sload\n      tag_117\n      swap2\n      swap1\n      tag_116\n      jump\t// in\n    tag_117:\n      swap3\n      pop\n      pop\n      dup2\n      swap1\n      sstore\n      pop\n        /* \"contracts/4_Product.sol\":4390:4730  {\r... */\n      pop\n        /* \"contracts/4_Product.sol\":4305:4730  function orderProduct(uint256 _amount, Details memory details) public OnlyTokenOwner {\r... */\n      pop\n      pop\n      jump\t// out\n        /* \"contracts/4_Product.sol\":6303:6562  function register(address _addr, Role _role, string memory _name) public {\r... */\n    tag_35:\n        /* \"contracts/4_Product.sol\":6387:6405  Actor memory actor */\n      0x00\n        /* \"contracts/4_Product.sol\":6408:6414  actors */\n      0x05\n        /* \"contracts/4_Product.sol\":6408:6421  actors[_addr] */\n      0x00\n        /* \"contracts/4_Product.sol\":6415:6420  _addr */\n      dup6\n        /* \"contracts/4_Product.sol\":6408:6421  actors[_addr] */\n      0xffffffffffffffffffffffffffffffffffffffff\n      and\n      0xffffffffffffffffffffffffffffffffffffffff\n      and\n      dup2\n      mstore\n      0x20\n      add\n      swap1\n      dup2\n      mstore\n      0x20\n      add\n      0x00\n      keccak256\n        /* \"contracts/4_Product.sol\":6387:6421  Actor memory actor = actors[_addr] */\n      mload(0x40)\n      dup1\n      0x60\n      add\n      0x40\n      mstore\n      swap1\n      dup2\n      0x00\n      dup3\n      add\n      0x00\n      swap1\n      sload\n      swap1\n      0x0100\n      exp\n      swap1\n      div\n      0xff\n      and\n      0x04\n      dup2\n      gt\n      iszero\n      tag_119\n      jumpi\n      tag_120\n      tag_121\n      jump\t// in\n    tag_120:\n    tag_119:\n      0x04\n      dup2\n      gt\n      iszero\n      tag_122\n      jumpi\n      tag_123\n      tag_121\n      jump\t// in\n    tag_123:\n    tag_122:\n      dup2\n      mstore\n      0x20\n      add\n      0x01\n      dup3\n      add\n      dup1\n      sload\n      tag_124\n      swap1\n      tag_104\n      jump\t// in\n    tag_124:\n      dup1\n      0x1f\n      add\n      0x20\n      dup1\n      swap2\n      div\n      mul\n      0x20\n      add\n      mload(0x40)\n      swap1\n      dup2\n      add\n      0x40\n      mstore\n      dup1\n      swap3\n      swap2\n      swap1\n      dup2\n      dup2\n      mstore\n      0x20\n      add\n      dup3\n      dup1\n      sload\n      tag_125\n      swap1\n      tag_104\n      jump\t// in\n    tag_125:\n      dup1\n      iszero\n      tag_126\n      jumpi\n      dup1\n      0x1f\n      lt\n      tag_127\n      jumpi\n      0x0100\n      dup1\n      dup4\n      sload\n      div\n      mul\n      dup4\n      mstore\n      swap2\n      0x20\n      add\n      swap2\n      jump(tag_126)\n    tag_127:\n      dup3\n      add\n      swap2\n      swap1\n      0x00\n      mstore\n      keccak256(0x00, 0x20)\n      swap1\n    tag_128:\n      dup2\n      sload\n      dup2\n      mstore\n      swap1\n      0x01\n      add\n      swap1\n      0x20\n      add\n      dup1\n      dup4\n      gt\n      tag_128\n      jumpi\n      dup3\n      swap1\n      sub\n      0x1f\n      and\n      dup3\n      add\n      swap2\n    tag_126:\n      pop\n      pop\n      pop\n      pop\n      pop\n      dup2\n      mstore\n      0x20\n      add\n      0x02\n      dup3\n      add\n      0x00\n      swap1\n      sload\n      swap1\n      0x0100\n      exp\n      swap1\n      div\n      0xff\n      and\n      iszero\n      iszero\n      iszero\n      iszero\n      dup2\n      mstore\n      pop\n      pop\n      swap1\n      pop\n        /* \"contracts/4_Product.sol\":6445:6450  _role */\n      dup3\n        /* \"contracts/4_Product.sol\":6432:6437  actor */\n      dup2\n        /* \"contracts/4_Product.sol\":6432:6442  actor.role */\n      0x00\n      add\n        /* \"contracts/4_Product.sol\":6432:6450  actor.role = _role */\n      swap1\n      0x04\n      dup2\n      gt\n      iszero\n      tag_129\n      jumpi\n      tag_130\n      tag_121\n      jump\t// in\n    tag_130:\n    tag_129:\n      swap1\n      dup2\n      0x04\n      dup2\n      gt\n      iszero\n      tag_131\n      jumpi\n      tag_132\n      tag_121\n      jump\t// in\n    tag_132:\n    tag_131:\n      dup2\n      mstore\n      pop\n      pop\n        /* \"contracts/4_Product.sol\":6474:6479  _name */\n      dup2\n        /* \"contracts/4_Product.sol\":6461:6466  actor */\n      dup2\n        /* \"contracts/4_Product.sol\":6461:6471  actor.name */\n      0x20\n      add\n        /* \"contracts/4_Product.sol\":6461:6479  actor.name = _name */\n      dup2\n      swap1\n      mstore\n      pop\n        /* \"contracts/4_Product.sol\":6508:6512  true */\n      0x01\n        /* \"contracts/4_Product.sol\":6490:6495  actor */\n      dup2\n        /* \"contracts/4_Product.sol\":6490:6505  actor.isDefined */\n      0x40\n      add\n        /* \"contracts/4_Product.sol\":6490:6512  actor.isDefined = true */\n      swap1\n      iszero\n      iszero\n      swap1\n      dup2\n      iszero\n      iszero\n      dup2\n      mstore\n      pop\n      pop\n        /* \"contracts/4_Product.sol\":6539:6544  actor */\n      dup1\n        /* \"contracts/4_Product.sol\":6523:6529  actors */\n      0x05\n        /* \"contracts/4_Product.sol\":6523:6536  actors[_addr] */\n      0x00\n        /* \"contracts/4_Product.sol\":6530:6535  _addr */\n      dup7\n        /* \"contracts/4_Product.sol\":6523:6536  actors[_addr] */\n      0xffffffffffffffffffffffffffffffffffffffff\n      and\n      0xffffffffffffffffffffffffffffffffffffffff\n      and\n      dup2\n      mstore\n      0x20\n      add\n      swap1\n      dup2\n      mstore\n      0x20\n      add\n      0x00\n      keccak256\n        /* \"contracts/4_Product.sol\":6523:6544  actors[_addr] = actor */\n      0x00\n      dup3\n      add\n      mload\n      dup2\n      0x00\n      add\n      exp(0x0100, 0x00)\n      dup2\n      sload\n      dup2\n      0xff\n      mul\n      not\n      and\n      swap1\n      dup4\n      0x04\n      dup2\n      gt\n      iszero\n      tag_133\n      jumpi\n      tag_134\n      tag_121\n      jump\t// in\n    tag_134:\n    tag_133:\n      mul\n      or\n      swap1\n      sstore\n      pop\n      0x20\n      dup3\n      add\n      mload\n      dup2\n      0x01\n      add\n      swap1\n      dup1\n      mload\n      swap1\n      0x20\n      add\n      swap1\n      tag_135\n      swap3\n      swap2\n      swap1\n      tag_136\n      jump\t// in\n    tag_135:\n      pop\n      0x40\n      dup3\n      add\n      mload\n      dup2\n      0x02\n      add\n      exp(0x0100, 0x00)\n      dup2\n      sload\n      dup2\n      0xff\n      mul\n      not\n      and\n      swap1\n      dup4\n      iszero\n      iszero\n      mul\n      or\n      swap1\n      sstore\n      pop\n      swap1\n      pop\n      pop\n        /* \"contracts/4_Product.sol\":6376:6562  {\r... */\n      pop\n        /* \"contracts/4_Product.sol\":6303:6562  function register(address _addr, Role _role, string memory _name) public {\r... */\n      pop\n      pop\n      pop\n      jump\t// out\n        /* \"contracts/4_Product.sol\":7752:8402  function buyProduct(uint256 _id, uint256 _timestamp) public OnlyDistributor{\r... */\n    tag_40:\n        /* \"contracts/4_Product.sol\":2969:2985  Role.Distributor */\n      0x01\n        /* \"contracts/4_Product.sol\":2942:2985  actors[msg.sender].role == Role.Distributor */\n      0x04\n      dup2\n      gt\n      iszero\n      tag_138\n      jumpi\n      tag_139\n      tag_121\n      jump\t// in\n    tag_139:\n    tag_138:\n        /* \"contracts/4_Product.sol\":2942:2948  actors */\n      0x05\n        /* \"contracts/4_Product.sol\":2942:2960  actors[msg.sender] */\n      0x00\n        /* \"contracts/4_Product.sol\":2949:2959  msg.sender */\n      caller\n        /* \"contracts/4_Product.sol\":2942:2960  actors[msg.sender] */\n      0xffffffffffffffffffffffffffffffffffffffff\n      and\n      0xffffffffffffffffffffffffffffffffffffffff\n      and\n      dup2\n      mstore\n      0x20\n      add\n      swap1\n      dup2\n      mstore\n      0x20\n      add\n      0x00\n      keccak256\n        /* \"contracts/4_Product.sol\":2942:2965  actors[msg.sender].role */\n      0x00\n      add\n      0x00\n      swap1\n      sload\n      swap1\n      0x0100\n      exp\n      swap1\n      div\n      0xff\n      and\n        /* \"contracts/4_Product.sol\":2942:2985  actors[msg.sender].role == Role.Distributor */\n      0x04\n      dup2\n      gt\n      iszero\n      tag_140\n      jumpi\n      tag_141\n      tag_121\n      jump\t// in\n    tag_141:\n    tag_140:\n      eq\n        /* \"contracts/4_Product.sol\":2934:3018  require(actors[msg.sender].role == Role.Distributor, 'caller is not a distributor.') */\n      tag_142\n      jumpi\n      mload(0x40)\n      0x08c379a000000000000000000000000000000000000000000000000000000000\n      dup2\n      mstore\n      0x04\n      add\n      tag_143\n      swap1\n      tag_144\n      jump\t// in\n    tag_143:\n      mload(0x40)\n      dup1\n      swap2\n      sub\n      swap1\n      revert\n    tag_142:\n        /* \"contracts/4_Product.sol\":7838:7867  Product storage boughtProduct */\n      0x00\n        /* \"contracts/4_Product.sol\":7870:7877  product */\n      0x06\n        /* \"contracts/4_Product.sol\":7870:7882  product[_id] */\n      0x00\n        /* \"contracts/4_Product.sol\":7878:7881  _id */\n      dup5\n        /* \"contracts/4_Product.sol\":7870:7882  product[_id] */\n      dup2\n      mstore\n      0x20\n      add\n      swap1\n      dup2\n      mstore\n      0x20\n      add\n      0x00\n      keccak256\n        /* \"contracts/4_Product.sol\":7838:7882  Product storage boughtProduct = product[_id] */\n      swap1\n      pop\n        /* \"contracts/4_Product.sol\":7893:7912  uint256 tokenNumber */\n      0x00\n        /* \"contracts/4_Product.sol\":7915:7923  balances */\n      0x04\n        /* \"contracts/4_Product.sol\":7915:7935  balances[msg.sender] */\n      0x00\n        /* \"contracts/4_Product.sol\":7924:7934  msg.sender */\n      caller\n        /* \"contracts/4_Product.sol\":7915:7935  balances[msg.sender] */\n      0xffffffffffffffffffffffffffffffffffffffff\n      and\n      0xffffffffffffffffffffffffffffffffffffffff\n      and\n      dup2\n      mstore\n      0x20\n      add\n      swap1\n      dup2\n      mstore\n      0x20\n      add\n      0x00\n      keccak256\n      sload\n        /* \"contracts/4_Product.sol\":7893:7935  uint256 tokenNumber = balances[msg.sender] */\n      swap1\n      pop\n        /* \"contracts/4_Product.sol\":7969:7982  boughtProduct */\n      dup2\n        /* \"contracts/4_Product.sol\":7969:7995  boughtProduct.productPrice */\n      0x0a\n      add\n      sload\n        /* \"contracts/4_Product.sol\":7954:7965  tokenNumber */\n      dup2\n        /* \"contracts/4_Product.sol\":7954:7995  tokenNumber >= boughtProduct.productPrice */\n      lt\n      iszero\n        /* \"contracts/4_Product.sol\":7946:7996  require(tokenNumber >= boughtProduct.productPrice) */\n      tag_146\n      jumpi\n      0x00\n      dup1\n      revert\n    tag_146:\n        /* \"contracts/4_Product.sol\":8045:8059  State.Produced */\n      0x01\n        /* \"contracts/4_Product.sol\":8015:8059  boughtProduct.productState == State.Produced */\n      0x05\n      dup2\n      gt\n      iszero\n      tag_147\n      jumpi\n      tag_148\n      tag_121\n      jump\t// in\n    tag_148:\n    tag_147:\n        /* \"contracts/4_Product.sol\":8015:8028  boughtProduct */\n      dup3\n        /* \"contracts/4_Product.sol\":8015:8041  boughtProduct.productState */\n      0x09\n      add\n      0x00\n      swap1\n      sload\n      swap1\n      0x0100\n      exp\n      swap1\n      div\n      0xff\n      and\n        /* \"contracts/4_Product.sol\":8015:8059  boughtProduct.productState == State.Produced */\n      0x05\n      dup2\n      gt\n      iszero\n      tag_149\n      jumpi\n      tag_150\n      tag_121\n      jump\t// in\n    tag_150:\n    tag_149:\n      eq\n        /* \"contracts/4_Product.sol\":8007:8060  require(boughtProduct.productState == State.Produced) */\n      tag_151\n      jumpi\n      0x00\n      dup1\n      revert\n    tag_151:\n        /* \"contracts/4_Product.sol\":8109:8119  _timestamp */\n      dup3\n        /* \"contracts/4_Product.sol\":8081:8088  product */\n      0x06\n        /* \"contracts/4_Product.sol\":8081:8093  product[_id] */\n      0x00\n        /* \"contracts/4_Product.sol\":8089:8092  _id */\n      dup7\n        /* \"contracts/4_Product.sol\":8081:8093  product[_id] */\n      dup2\n      mstore\n      0x20\n      add\n      swap1\n      dup2\n      mstore\n      0x20\n      add\n      0x00\n      keccak256\n        /* \"contracts/4_Product.sol\":8081:8103  product[_id].timestamp */\n      0x03\n      add\n        /* \"contracts/4_Product.sol\":8104:8105  1 */\n      0x01\n        /* \"contracts/4_Product.sol\":8081:8106  product[_id].timestamp[1] */\n      0x06\n      dup2\n      lt\n      tag_152\n      jumpi\n      tag_153\n      tag_154\n      jump\t// in\n    tag_153:\n    tag_152:\n      add\n        /* \"contracts/4_Product.sol\":8081:8119  product[_id].timestamp[1] = _timestamp */\n      dup2\n      swap1\n      sstore\n      pop\n        /* \"contracts/4_Product.sol\":8196:8206  msg.sender */\n      caller\n        /* \"contracts/4_Product.sol\":8167:8174  product */\n      0x06\n        /* \"contracts/4_Product.sol\":8167:8179  product[_id] */\n      0x00\n        /* \"contracts/4_Product.sol\":8175:8178  _id */\n      dup7\n        /* \"contracts/4_Product.sol\":8167:8179  product[_id] */\n      dup2\n      mstore\n      0x20\n      add\n      swap1\n      dup2\n      mstore\n      0x20\n      add\n      0x00\n      keccak256\n        /* \"contracts/4_Product.sol\":8167:8193  product[_id].distributorID */\n      0x0b\n      add\n      0x00\n        /* \"contracts/4_Product.sol\":8167:8206  product[_id].distributorID = msg.sender */\n      0x0100\n      exp\n      dup2\n      sload\n      dup2\n      0xffffffffffffffffffffffffffffffffffffffff\n      mul\n      not\n      and\n      swap1\n      dup4\n      0xffffffffffffffffffffffffffffffffffffffff\n      and\n      mul\n      or\n      swap1\n      sstore\n      pop\n        /* \"contracts/4_Product.sol\":8222:8284  tokenTransfer(product[_id].ownerID,boughtProduct.productPrice) */\n      tag_156\n        /* \"contracts/4_Product.sol\":8236:8243  product */\n      0x06\n        /* \"contracts/4_Product.sol\":8236:8248  product[_id] */\n      0x00\n        /* \"contracts/4_Product.sol\":8244:8247  _id */\n      dup7\n        /* \"contracts/4_Product.sol\":8236:8248  product[_id] */\n      dup2\n      mstore\n      0x20\n      add\n      swap1\n      dup2\n      mstore\n      0x20\n      add\n      0x00\n      keccak256\n        /* \"contracts/4_Product.sol\":8236:8256  product[_id].ownerID */\n      0x01\n      add\n      0x00\n      swap1\n      sload\n      swap1\n      0x0100\n      exp\n      swap1\n      div\n      0xffffffffffffffffffffffffffffffffffffffff\n      and\n        /* \"contracts/4_Product.sol\":8257:8270  boughtProduct */\n      dup4\n        /* \"contracts/4_Product.sol\":8257:8283  boughtProduct.productPrice */\n      0x0a\n      add\n      sload\n        /* \"contracts/4_Product.sol\":8222:8235  tokenTransfer */\n      tag_57\n        /* \"contracts/4_Product.sol\":8222:8284  tokenTransfer(product[_id].ownerID,boughtProduct.productPrice) */\n      jump\t// in\n    tag_156:\n      pop\n        /* \"contracts/4_Product.sol\":8324:8339  State.Purchased */\n      0x05\n        /* \"contracts/4_Product.sol\":8296:8303  product */\n      0x06\n        /* \"contracts/4_Product.sol\":8296:8308  product[_id] */\n      0x00\n        /* \"contracts/4_Product.sol\":8304:8307  _id */\n      dup7\n        /* \"contracts/4_Product.sol\":8296:8308  product[_id] */\n      dup2\n      mstore\n      0x20\n      add\n      swap1\n      dup2\n      mstore\n      0x20\n      add\n      0x00\n      keccak256\n        /* \"contracts/4_Product.sol\":8296:8321  product[_id].productState */\n      0x09\n      add\n      0x00\n        /* \"contracts/4_Product.sol\":8296:8339  product[_id].productState = State.Purchased */\n      0x0100\n      exp\n      dup2\n      sload\n      dup2\n      0xff\n      mul\n      not\n      and\n      swap1\n      dup4\n      0x05\n      dup2\n      gt\n      iszero\n      tag_157\n      jumpi\n      tag_158\n      tag_121\n      jump\t// in\n    tag_158:\n    tag_157:\n      mul\n      or\n      swap1\n      sstore\n      pop\n        /* \"contracts/4_Product.sol\":8374:8384  msg.sender */\n      caller\n        /* \"contracts/4_Product.sol\":8351:8358  product */\n      0x06\n        /* \"contracts/4_Product.sol\":8351:8363  product[_id] */\n      0x00\n        /* \"contracts/4_Product.sol\":8359:8362  _id */\n      dup7\n        /* \"contracts/4_Product.sol\":8351:8363  product[_id] */\n      dup2\n      mstore\n      0x20\n      add\n      swap1\n      dup2\n      mstore\n      0x20\n      add\n      0x00\n      keccak256\n        /* \"contracts/4_Product.sol\":8351:8371  product[_id].ownerID */\n      0x01\n      add\n      0x00\n        /* \"contracts/4_Product.sol\":8351:8384  product[_id].ownerID = msg.sender */\n      0x0100\n      exp\n      dup2\n      sload\n      dup2\n      0xffffffffffffffffffffffffffffffffffffffff\n      mul\n      not\n      and\n      swap1\n      dup4\n      0xffffffffffffffffffffffffffffffffffffffff\n      and\n      mul\n      or\n      swap1\n      sstore\n      pop\n        /* \"contracts/4_Product.sol\":7827:8402  {\r... */\n      pop\n      pop\n        /* \"contracts/4_Product.sol\":7752:8402  function buyProduct(uint256 _id, uint256 _timestamp) public OnlyDistributor{\r... */\n      pop\n      pop\n      jump\t// out\n        /* \"contracts/4_Product.sol\":6681:7705  function produceProduct(uint256 _id, uint256 _timestamp, uint256 _price, string memory _name, string memory _brand, string memory _size, string memory _weight, string memory _length ,string memory _width ,string memory _height) public OnlyProducer{\r... */\n    tag_45:\n        /* \"contracts/4_Product.sol\":2821:2834  Role.Producer */\n      0x00\n        /* \"contracts/4_Product.sol\":2794:2834  actors[msg.sender].role == Role.Producer */\n      0x04\n      dup2\n      gt\n      iszero\n      tag_160\n      jumpi\n      tag_161\n      tag_121\n      jump\t// in\n    tag_161:\n    tag_160:\n        /* \"contracts/4_Product.sol\":2794:2800  actors */\n      0x05\n        /* \"contracts/4_Product.sol\":2794:2812  actors[msg.sender] */\n      0x00\n        /* \"contracts/4_Product.sol\":2801:2811  msg.sender */\n      caller\n        /* \"contracts/4_Product.sol\":2794:2812  actors[msg.sender] */\n      0xffffffffffffffffffffffffffffffffffffffff\n      and\n      0xffffffffffffffffffffffffffffffffffffffff\n      and\n      dup2\n      mstore\n      0x20\n      add\n      swap1\n      dup2\n      mstore\n      0x20\n      add\n      0x00\n      keccak256\n        /* \"contracts/4_Product.sol\":2794:2817  actors[msg.sender].role */\n      0x00\n      add\n      0x00\n      swap1\n      sload\n      swap1\n      0x0100\n      exp\n      swap1\n      div\n      0xff\n      and\n        /* \"contracts/4_Product.sol\":2794:2834  actors[msg.sender].role == Role.Producer */\n      0x04\n      dup2\n      gt\n      iszero\n      tag_162\n      jumpi\n      tag_163\n      tag_121\n      jump\t// in\n    tag_163:\n    tag_162:\n      eq\n        /* \"contracts/4_Product.sol\":2786:2863  require(actors[msg.sender].role == Role.Producer,'caller is not a producer.') */\n      tag_164\n      jumpi\n      mload(0x40)\n      0x08c379a000000000000000000000000000000000000000000000000000000000\n      dup2\n      mstore\n      0x04\n      add\n      tag_165\n      swap1\n      tag_166\n      jump\t// in\n    tag_165:\n      mload(0x40)\n      dup1\n      swap2\n      sub\n      swap1\n      revert\n    tag_164:\n        /* \"contracts/4_Product.sol\":6939:6965  Product storage newProduct */\n      0x00\n        /* \"contracts/4_Product.sol\":6968:6975  product */\n      0x06\n        /* \"contracts/4_Product.sol\":6968:6980  product[_id] */\n      0x00\n        /* \"contracts/4_Product.sol\":6976:6979  _id */\n      dup13\n        /* \"contracts/4_Product.sol\":6968:6980  product[_id] */\n      dup2\n      mstore\n      0x20\n      add\n      swap1\n      dup2\n      mstore\n      0x20\n      add\n      0x00\n      keccak256\n        /* \"contracts/4_Product.sol\":6939:6980  Product storage newProduct = product[_id] */\n      swap1\n      pop\n        /* \"contracts/4_Product.sol\":7007:7010  _id */\n      dup11\n        /* \"contracts/4_Product.sol\":6991:7001  newProduct */\n      dup2\n        /* \"contracts/4_Product.sol\":6991:7004  newProduct.ID */\n      0x00\n      add\n        /* \"contracts/4_Product.sol\":6991:7010  newProduct.ID = _id */\n      dup2\n      swap1\n      sstore\n      pop\n        /* \"contracts/4_Product.sol\":7042:7052  msg.sender */\n      caller\n        /* \"contracts/4_Product.sol\":7021:7031  newProduct */\n      dup2\n        /* \"contracts/4_Product.sol\":7021:7039  newProduct.ownerID */\n      0x01\n      add\n      0x00\n        /* \"contracts/4_Product.sol\":7021:7052  newProduct.ownerID = msg.sender */\n      0x0100\n      exp\n      dup2\n      sload\n      dup2\n      0xffffffffffffffffffffffffffffffffffffffff\n      mul\n      not\n      and\n      swap1\n      dup4\n      0xffffffffffffffffffffffffffffffffffffffff\n      and\n      mul\n      or\n      swap1\n      sstore\n      pop\n        /* \"contracts/4_Product.sol\":7087:7097  msg.sender */\n      caller\n        /* \"contracts/4_Product.sol\":7063:7073  newProduct */\n      dup2\n        /* \"contracts/4_Product.sol\":7063:7084  newProduct.producerID */\n      0x02\n      add\n      0x00\n        /* \"contracts/4_Product.sol\":7063:7097  newProduct.producerID = msg.sender */\n      0x0100\n      exp\n      dup2\n      sload\n      dup2\n      0xffffffffffffffffffffffffffffffffffffffff\n      mul\n      not\n      and\n      swap1\n      dup4\n      0xffffffffffffffffffffffffffffffffffffffff\n      and\n      mul\n      or\n      swap1\n      sstore\n      pop\n        /* \"contracts/4_Product.sol\":7134:7144  _timestamp */\n      dup10\n        /* \"contracts/4_Product.sol\":7108:7118  newProduct */\n      dup2\n        /* \"contracts/4_Product.sol\":7108:7128  newProduct.timestamp */\n      0x03\n      add\n        /* \"contracts/4_Product.sol\":7129:7130  0 */\n      0x00\n        /* \"contracts/4_Product.sol\":7108:7131  newProduct.timestamp[0] */\n      0x06\n      dup2\n      lt\n      tag_168\n      jumpi\n      tag_169\n      tag_154\n      jump\t// in\n    tag_169:\n    tag_168:\n      add\n        /* \"contracts/4_Product.sol\":7108:7144  newProduct.timestamp[0] = _timestamp */\n      dup2\n      swap1\n      sstore\n      pop\n        /* \"contracts/4_Product.sol\":7188:7202  State.Produced */\n      0x01\n        /* \"contracts/4_Product.sol\":7163:7173  newProduct */\n      dup2\n        /* \"contracts/4_Product.sol\":7163:7186  newProduct.productState */\n      0x09\n      add\n      0x00\n        /* \"contracts/4_Product.sol\":7163:7202  newProduct.productState= State.Produced */\n      0x0100\n      exp\n      dup2\n      sload\n      dup2\n      0xff\n      mul\n      not\n      and\n      swap1\n      dup4\n      0x05\n      dup2\n      gt\n      iszero\n      tag_171\n      jumpi\n      tag_172\n      tag_121\n      jump\t// in\n    tag_172:\n    tag_171:\n      mul\n      or\n      swap1\n      sstore\n      pop\n        /* \"contracts/4_Product.sol\":7245:7251  _price */\n      dup9\n        /* \"contracts/4_Product.sol\":7221:7231  newProduct */\n      dup2\n        /* \"contracts/4_Product.sol\":7221:7244  newProduct.productPrice */\n      0x0a\n      add\n        /* \"contracts/4_Product.sol\":7221:7251  newProduct.productPrice=_price */\n      dup2\n      swap1\n      sstore\n      pop\n        /* \"contracts/4_Product.sol\":7296:7297  0 */\n      0x00\n        /* \"contracts/4_Product.sol\":7263:7273  newProduct */\n      dup2\n        /* \"contracts/4_Product.sol\":7263:7287  newProduct.distributorID */\n      0x0b\n      add\n      0x00\n        /* \"contracts/4_Product.sol\":7263:7298  newProduct.distributorID=address(0) */\n      0x0100\n      exp\n      dup2\n      sload\n      dup2\n      0xffffffffffffffffffffffffffffffffffffffff\n      mul\n      not\n      and\n      swap1\n      dup4\n      0xffffffffffffffffffffffffffffffffffffffff\n      and\n      mul\n      or\n      swap1\n      sstore\n      pop\n        /* \"contracts/4_Product.sol\":7339:7340  0 */\n      0x00\n        /* \"contracts/4_Product.sol\":7309:7319  newProduct */\n      dup2\n        /* \"contracts/4_Product.sol\":7309:7330  newProduct.retailerID */\n      0x0c\n      add\n      0x00\n        /* \"contracts/4_Product.sol\":7309:7341  newProduct.retailerID=address(0) */\n      0x0100\n      exp\n      dup2\n      sload\n      dup2\n      0xffffffffffffffffffffffffffffffffffffffff\n      mul\n      not\n      and\n      swap1\n      dup4\n      0xffffffffffffffffffffffffffffffffffffffff\n      and\n      mul\n      or\n      swap1\n      sstore\n      pop\n        /* \"contracts/4_Product.sol\":7382:7383  0 */\n      0x00\n        /* \"contracts/4_Product.sol\":7352:7362  newProduct */\n      dup2\n        /* \"contracts/4_Product.sol\":7352:7373  newProduct.consumerID */\n      0x0d\n      add\n      0x00\n        /* \"contracts/4_Product.sol\":7352:7384  newProduct.consumerID=address(0) */\n      0x0100\n      exp\n      dup2\n      sload\n      dup2\n      0xffffffffffffffffffffffffffffffffffffffff\n      mul\n      not\n      and\n      swap1\n      dup4\n      0xffffffffffffffffffffffffffffffffffffffff\n      and\n      mul\n      or\n      swap1\n      sstore\n      pop\n        /* \"contracts/4_Product.sol\":7421:7426  _name */\n      dup8\n        /* \"contracts/4_Product.sol\":7395:7405  newProduct */\n      dup2\n        /* \"contracts/4_Product.sol\":7395:7413  newProduct.details */\n      0x0e\n      add\n        /* \"contracts/4_Product.sol\":7395:7418  newProduct.details.name */\n      0x00\n      add\n        /* \"contracts/4_Product.sol\":7395:7426  newProduct.details.name = _name */\n      swap1\n      dup1\n      mload\n      swap1\n      0x20\n      add\n      swap1\n      tag_173\n      swap3\n      swap2\n      swap1\n      tag_136\n      jump\t// in\n    tag_173:\n      pop\n        /* \"contracts/4_Product.sol\":7463:7469  _brand */\n      dup7\n        /* \"contracts/4_Product.sol\":7437:7447  newProduct */\n      dup2\n        /* \"contracts/4_Product.sol\":7437:7455  newProduct.details */\n      0x0e\n      add\n        /* \"contracts/4_Product.sol\":7437:7461  newProduct.details.brand */\n      0x01\n      add\n        /* \"contracts/4_Product.sol\":7437:7469  newProduct.details.brand= _brand */\n      swap1\n      dup1\n      mload\n      swap1\n      0x20\n      add\n      swap1\n      tag_174\n      swap3\n      swap2\n      swap1\n      tag_136\n      jump\t// in\n    tag_174:\n      pop\n        /* \"contracts/4_Product.sol\":7506:7511  _size */\n      dup6\n        /* \"contracts/4_Product.sol\":7480:7490  newProduct */\n      dup2\n        /* \"contracts/4_Product.sol\":7480:7498  newProduct.details */\n      0x0e\n      add\n        /* \"contracts/4_Product.sol\":7480:7503  newProduct.details.size */\n      0x02\n      add\n        /* \"contracts/4_Product.sol\":7480:7511  newProduct.details.size = _size */\n      swap1\n      dup1\n      mload\n      swap1\n      0x20\n      add\n      swap1\n      tag_175\n      swap3\n      swap2\n      swap1\n      tag_136\n      jump\t// in\n    tag_175:\n      pop\n        /* \"contracts/4_Product.sol\":7550:7557  _weight */\n      dup5\n        /* \"contracts/4_Product.sol\":7522:7532  newProduct */\n      dup2\n        /* \"contracts/4_Product.sol\":7522:7540  newProduct.details */\n      0x0e\n      add\n        /* \"contracts/4_Product.sol\":7522:7547  newProduct.details.weight */\n      0x03\n      add\n        /* \"contracts/4_Product.sol\":7522:7557  newProduct.details.weight = _weight */\n      swap1\n      dup1\n      mload\n      swap1\n      0x20\n      add\n      swap1\n      tag_176\n      swap3\n      swap2\n      swap1\n      tag_136\n      jump\t// in\n    tag_176:\n      pop\n        /* \"contracts/4_Product.sol\":7596:7603  _length */\n      dup4\n        /* \"contracts/4_Product.sol\":7568:7578  newProduct */\n      dup2\n        /* \"contracts/4_Product.sol\":7568:7586  newProduct.details */\n      0x0e\n      add\n        /* \"contracts/4_Product.sol\":7568:7593  newProduct.details.length */\n      0x04\n      add\n        /* \"contracts/4_Product.sol\":7568:7603  newProduct.details.length = _length */\n      swap1\n      dup1\n      mload\n      swap1\n      0x20\n      add\n      swap1\n      tag_177\n      swap3\n      swap2\n      swap1\n      tag_136\n      jump\t// in\n    tag_177:\n      pop\n        /* \"contracts/4_Product.sol\":7643:7649  _width */\n      dup3\n        /* \"contracts/4_Product.sol\":7616:7626  newProduct */\n      dup2\n        /* \"contracts/4_Product.sol\":7616:7634  newProduct.details */\n      0x0e\n      add\n        /* \"contracts/4_Product.sol\":7616:7640  newProduct.details.width */\n      0x05\n      add\n        /* \"contracts/4_Product.sol\":7616:7649  newProduct.details.width = _width */\n      swap1\n      dup1\n      mload\n      swap1\n      0x20\n      add\n      swap1\n      tag_178\n      swap3\n      swap2\n      swap1\n      tag_136\n      jump\t// in\n    tag_178:\n      pop\n        /* \"contracts/4_Product.sol\":7690:7697  _height */\n      dup2\n        /* \"contracts/4_Product.sol\":7662:7672  newProduct */\n      dup2\n        /* \"contracts/4_Product.sol\":7662:7680  newProduct.details */\n      0x0e\n      add\n        /* \"contracts/4_Product.sol\":7662:7687  newProduct.details.height */\n      0x06\n      add\n        /* \"contracts/4_Product.sol\":7662:7697  newProduct.details.height = _height */\n      swap1\n      dup1\n      mload\n      swap1\n      0x20\n      add\n      swap1\n      tag_179\n      swap3\n      swap2\n      swap1\n      tag_136\n      jump\t// in\n    tag_179:\n      pop\n        /* \"contracts/4_Product.sol\":6928:7705  {\r... */\n      pop\n        /* \"contracts/4_Product.sol\":6681:7705  function produceProduct(uint256 _id, uint256 _timestamp, uint256 _price, string memory _name, string memory _brand, string memory _size, string memory _weight, string memory _length ,string memory _width ,string memory _height) public OnlyProducer{\r... */\n      pop\n      pop\n      pop\n      pop\n      pop\n      pop\n      pop\n      pop\n      pop\n      pop\n      jump\t// out\n        /* \"contracts/4_Product.sol\":9363:10459  function getProductDetails(uint256 _id) public view returns \r... */\n    tag_50:\n        /* \"contracts/4_Product.sol\":9440:9458  uint256 product_id */\n      0x00\n        /* \"contracts/4_Product.sol\":9495:9511  address owner_id */\n      dup1\n        /* \"contracts/4_Product.sol\":9588:9613  State currentProductState */\n      0x00\n        /* \"contracts/4_Product.sol\":9624:9644  uint256 productPrice */\n      dup1\n        /* \"contracts/4_Product.sol\":9658:9684  string memory product_name */\n      0x60\n        /* \"contracts/4_Product.sol\":9695:9722  string memory product_brand */\n      dup1\n        /* \"contracts/4_Product.sol\":9733:9759  string memory product_size */\n      0x60\n        /* \"contracts/4_Product.sol\":9770:9798  string memory product_weight */\n      dup1\n        /* \"contracts/4_Product.sol\":9809:9837  string memory product_length */\n      0x60\n        /* \"contracts/4_Product.sol\":9850:9877  string memory product_width */\n      dup1\n        /* \"contracts/4_Product.sol\":9890:9918  string memory product_height */\n      0x60\n        /* \"contracts/4_Product.sol\":9957:9964  product */\n      0x06\n        /* \"contracts/4_Product.sol\":9957:9969  product[_id] */\n      0x00\n        /* \"contracts/4_Product.sol\":9965:9968  _id */\n      dup14\n        /* \"contracts/4_Product.sol\":9957:9969  product[_id] */\n      dup2\n      mstore\n      0x20\n      add\n      swap1\n      dup2\n      mstore\n      0x20\n      add\n      0x00\n      keccak256\n        /* \"contracts/4_Product.sol\":9957:9972  product[_id].ID */\n      0x00\n      add\n      sload\n        /* \"contracts/4_Product.sol\":9944:9972  product_id = product[_id].ID */\n      swap11\n      pop\n        /* \"contracts/4_Product.sol\":9991:9998  product */\n      0x06\n        /* \"contracts/4_Product.sol\":9991:10003  product[_id] */\n      0x00\n        /* \"contracts/4_Product.sol\":9999:10002  _id */\n      dup14\n        /* \"contracts/4_Product.sol\":9991:10003  product[_id] */\n      dup2\n      mstore\n      0x20\n      add\n      swap1\n      dup2\n      mstore\n      0x20\n      add\n      0x00\n      keccak256\n        /* \"contracts/4_Product.sol\":9991:10011  product[_id].ownerID */\n      0x01\n      add\n      0x00\n      swap1\n      sload\n      swap1\n      0x0100\n      exp\n      swap1\n      div\n      0xffffffffffffffffffffffffffffffffffffffff\n      and\n        /* \"contracts/4_Product.sol\":9980:10011  owner_id = product[_id].ownerID */\n      swap10\n      pop\n        /* \"contracts/4_Product.sol\":10042:10049  product */\n      0x06\n        /* \"contracts/4_Product.sol\":10042:10054  product[_id] */\n      0x00\n        /* \"contracts/4_Product.sol\":10050:10053  _id */\n      dup14\n        /* \"contracts/4_Product.sol\":10042:10054  product[_id] */\n      dup2\n      mstore\n      0x20\n      add\n      swap1\n      dup2\n      mstore\n      0x20\n      add\n      0x00\n      keccak256\n        /* \"contracts/4_Product.sol\":10042:10067  product[_id].productState */\n      0x09\n      add\n      0x00\n      swap1\n      sload\n      swap1\n      0x0100\n      exp\n      swap1\n      div\n      0xff\n      and\n        /* \"contracts/4_Product.sol\":10020:10067  currentProductState = product[_id].productState */\n      swap9\n      pop\n        /* \"contracts/4_Product.sol\":10089:10096  product */\n      0x06\n        /* \"contracts/4_Product.sol\":10089:10101  product[_id] */\n      0x00\n        /* \"contracts/4_Product.sol\":10097:10100  _id */\n      dup14\n        /* \"contracts/4_Product.sol\":10089:10101  product[_id] */\n      dup2\n      mstore\n      0x20\n      add\n      swap1\n      dup2\n      mstore\n      0x20\n      add\n      0x00\n      keccak256\n        /* \"contracts/4_Product.sol\":10089:10114  product[_id].productPrice */\n      0x0a\n      add\n      sload\n        /* \"contracts/4_Product.sol\":10074:10114  productPrice = product[_id].productPrice */\n      swap8\n      pop\n        /* \"contracts/4_Product.sol\":10136:10143  product */\n      0x06\n        /* \"contracts/4_Product.sol\":10136:10148  product[_id] */\n      0x00\n        /* \"contracts/4_Product.sol\":10144:10147  _id */\n      dup14\n        /* \"contracts/4_Product.sol\":10136:10148  product[_id] */\n      dup2\n      mstore\n      0x20\n      add\n      swap1\n      dup2\n      mstore\n      0x20\n      add\n      0x00\n      keccak256\n        /* \"contracts/4_Product.sol\":10136:10156  product[_id].details */\n      0x0e\n      add\n        /* \"contracts/4_Product.sol\":10136:10161  product[_id].details.name */\n      0x00\n      add\n        /* \"contracts/4_Product.sol\":10121:10161  product_name = product[_id].details.name */\n      dup1\n      sload\n      tag_181\n      swap1\n      tag_104\n      jump\t// in\n    tag_181:\n      dup1\n      0x1f\n      add\n      0x20\n      dup1\n      swap2\n      div\n      mul\n      0x20\n      add\n      mload(0x40)\n      swap1\n      dup2\n      add\n      0x40\n      mstore\n      dup1\n      swap3\n      swap2\n      swap1\n      dup2\n      dup2\n      mstore\n      0x20\n      add\n      dup3\n      dup1\n      sload\n      tag_182\n      swap1\n      tag_104\n      jump\t// in\n    tag_182:\n      dup1\n      iszero\n      tag_183\n      jumpi\n      dup1\n      0x1f\n      lt\n      tag_184\n      jumpi\n      0x0100\n      dup1\n      dup4\n      sload\n      div\n      mul\n      dup4\n      mstore\n      swap2\n      0x20\n      add\n      swap2\n      jump(tag_183)\n    tag_184:\n      dup3\n      add\n      swap2\n      swap1\n      0x00\n      mstore\n      keccak256(0x00, 0x20)\n      swap1\n    tag_185:\n      dup2\n      sload\n      dup2\n      mstore\n      swap1\n      0x01\n      add\n      swap1\n      0x20\n      add\n      dup1\n      dup4\n      gt\n      tag_185\n      jumpi\n      dup3\n      swap1\n      sub\n      0x1f\n      and\n      dup3\n      add\n      swap2\n    tag_183:\n      pop\n      pop\n      pop\n      pop\n      pop\n      swap7\n      pop\n        /* \"contracts/4_Product.sol\":10183:10190  product */\n      0x06\n        /* \"contracts/4_Product.sol\":10183:10195  product[_id] */\n      0x00\n        /* \"contracts/4_Product.sol\":10191:10194  _id */\n      dup14\n        /* \"contracts/4_Product.sol\":10183:10195  product[_id] */\n      dup2\n      mstore\n      0x20\n      add\n      swap1\n      dup2\n      mstore\n      0x20\n      add\n      0x00\n      keccak256\n        /* \"contracts/4_Product.sol\":10183:10203  product[_id].details */\n      0x0e\n      add\n        /* \"contracts/4_Product.sol\":10183:10209  product[_id].details.brand */\n      0x01\n      add\n        /* \"contracts/4_Product.sol\":10168:10209  product_brand= product[_id].details.brand */\n      dup1\n      sload\n      tag_186\n      swap1\n      tag_104\n      jump\t// in\n    tag_186:\n      dup1\n      0x1f\n      add\n      0x20\n      dup1\n      swap2\n      div\n      mul\n      0x20\n      add\n      mload(0x40)\n      swap1\n      dup2\n      add\n      0x40\n      mstore\n      dup1\n      swap3\n      swap2\n      swap1\n      dup2\n      dup2\n      mstore\n      0x20\n      add\n      dup3\n      dup1\n      sload\n      tag_187\n      swap1\n      tag_104\n      jump\t// in\n    tag_187:\n      dup1\n      iszero\n      tag_188\n      jumpi\n      dup1\n      0x1f\n      lt\n      tag_189\n      jumpi\n      0x0100\n      dup1\n      dup4\n      sload\n      div\n      mul\n      dup4\n      mstore\n      swap2\n      0x20\n      add\n      swap2\n      jump(tag_188)\n    tag_189:\n      dup3\n      add\n      swap2\n      swap1\n      0x00\n      mstore\n      keccak256(0x00, 0x20)\n      swap1\n    tag_190:\n      dup2\n      sload\n      dup2\n      mstore\n      swap1\n      0x01\n      add\n      swap1\n      0x20\n      add\n      dup1\n      dup4\n      gt\n      tag_190\n      jumpi\n      dup3\n      swap1\n      sub\n      0x1f\n      and\n      dup3\n      add\n      swap2\n    tag_188:\n      pop\n      pop\n      pop\n      pop\n      pop\n      swap6\n      pop\n        /* \"contracts/4_Product.sol\":10230:10237  product */\n      0x06\n        /* \"contracts/4_Product.sol\":10230:10242  product[_id] */\n      0x00\n        /* \"contracts/4_Product.sol\":10238:10241  _id */\n      dup14\n        /* \"contracts/4_Product.sol\":10230:10242  product[_id] */\n      dup2\n      mstore\n      0x20\n      add\n      swap1\n      dup2\n      mstore\n      0x20\n      add\n      0x00\n      keccak256\n        /* \"contracts/4_Product.sol\":10230:10250  product[_id].details */\n      0x0e\n      add\n        /* \"contracts/4_Product.sol\":10230:10255  product[_id].details.size */\n      0x02\n      add\n        /* \"contracts/4_Product.sol\":10216:10255  product_size= product[_id].details.size */\n      dup1\n      sload\n      tag_191\n      swap1\n      tag_104\n      jump\t// in\n    tag_191:\n      dup1\n      0x1f\n      add\n      0x20\n      dup1\n      swap2\n      div\n      mul\n      0x20\n      add\n      mload(0x40)\n      swap1\n      dup2\n      add\n      0x40\n      mstore\n      dup1\n      swap3\n      swap2\n      swap1\n      dup2\n      dup2\n      mstore\n      0x20\n      add\n      dup3\n      dup1\n      sload\n      tag_192\n      swap1\n      tag_104\n      jump\t// in\n    tag_192:\n      dup1\n      iszero\n      tag_193\n      jumpi\n      dup1\n      0x1f\n      lt\n      tag_194\n      jumpi\n      0x0100\n      dup1\n      dup4\n      sload\n      div\n      mul\n      dup4\n      mstore\n      swap2\n      0x20\n      add\n      swap2\n      jump(tag_193)\n    tag_194:\n      dup3\n      add\n      swap2\n      swap1\n      0x00\n      mstore\n      keccak256(0x00, 0x20)\n      swap1\n    tag_195:\n      dup2\n      sload\n      dup2\n      mstore\n      swap1\n      0x01\n      add\n      swap1\n      0x20\n      add\n      dup1\n      dup4\n      gt\n      tag_195\n      jumpi\n      dup3\n      swap1\n      sub\n      0x1f\n      and\n      dup3\n      add\n      swap2\n    tag_193:\n      pop\n      pop\n      pop\n      pop\n      pop\n      swap5\n      pop\n        /* \"contracts/4_Product.sol\":10278:10285  product */\n      0x06\n        /* \"contracts/4_Product.sol\":10278:10290  product[_id] */\n      0x00\n        /* \"contracts/4_Product.sol\":10286:10289  _id */\n      dup14\n        /* \"contracts/4_Product.sol\":10278:10290  product[_id] */\n      dup2\n      mstore\n      0x20\n      add\n      swap1\n      dup2\n      mstore\n      0x20\n      add\n      0x00\n      keccak256\n        /* \"contracts/4_Product.sol\":10278:10298  product[_id].details */\n      0x0e\n      add\n        /* \"contracts/4_Product.sol\":10278:10305  product[_id].details.weight */\n      0x03\n      add\n        /* \"contracts/4_Product.sol\":10262:10305  product_weight= product[_id].details.weight */\n      dup1\n      sload\n      tag_196\n      swap1\n      tag_104\n      jump\t// in\n    tag_196:\n      dup1\n      0x1f\n      add\n      0x20\n      dup1\n      swap2\n      div\n      mul\n      0x20\n      add\n      mload(0x40)\n      swap1\n      dup2\n      add\n      0x40\n      mstore\n      dup1\n      swap3\n      swap2\n      swap1\n      dup2\n      dup2\n      mstore\n      0x20\n      add\n      dup3\n      dup1\n      sload\n      tag_197\n      swap1\n      tag_104\n      jump\t// in\n    tag_197:\n      dup1\n      iszero\n      tag_198\n      jumpi\n      dup1\n      0x1f\n      lt\n      tag_199\n      jumpi\n      0x0100\n      dup1\n      dup4\n      sload\n      div\n      mul\n      dup4\n      mstore\n      swap2\n      0x20\n      add\n      swap2\n      jump(tag_198)\n    tag_199:\n      dup3\n      add\n      swap2\n      swap1\n      0x00\n      mstore\n      keccak256(0x00, 0x20)\n      swap1\n    tag_200:\n      dup2\n      sload\n      dup2\n      mstore\n      swap1\n      0x01\n      add\n      swap1\n      0x20\n      add\n      dup1\n      dup4\n      gt\n      tag_200\n      jumpi\n      dup3\n      swap1\n      sub\n      0x1f\n      and\n      dup3\n      add\n      swap2\n    tag_198:\n      pop\n      pop\n      pop\n      pop\n      pop\n      swap4\n      pop\n        /* \"contracts/4_Product.sol\":10328:10335  product */\n      0x06\n        /* \"contracts/4_Product.sol\":10328:10340  product[_id] */\n      0x00\n        /* \"contracts/4_Product.sol\":10336:10339  _id */\n      dup14\n        /* \"contracts/4_Product.sol\":10328:10340  product[_id] */\n      dup2\n      mstore\n      0x20\n      add\n      swap1\n      dup2\n      mstore\n      0x20\n      add\n      0x00\n      keccak256\n        /* \"contracts/4_Product.sol\":10328:10348  product[_id].details */\n      0x0e\n      add\n        /* \"contracts/4_Product.sol\":10328:10355  product[_id].details.length */\n      0x04\n      add\n        /* \"contracts/4_Product.sol\":10312:10355  product_length= product[_id].details.length */\n      dup1\n      sload\n      tag_201\n      swap1\n      tag_104\n      jump\t// in\n    tag_201:\n      dup1\n      0x1f\n      add\n      0x20\n      dup1\n      swap2\n      div\n      mul\n      0x20\n      add\n      mload(0x40)\n      swap1\n      dup2\n      add\n      0x40\n      mstore\n      dup1\n      swap3\n      swap2\n      swap1\n      dup2\n      dup2\n      mstore\n      0x20\n      add\n      dup3\n      dup1\n      sload\n      tag_202\n      swap1\n      tag_104\n      jump\t// in\n    tag_202:\n      dup1\n      iszero\n      tag_203\n      jumpi\n      dup1\n      0x1f\n      lt\n      tag_204\n      jumpi\n      0x0100\n      dup1\n      dup4\n      sload\n      div\n      mul\n      dup4\n      mstore\n      swap2\n      0x20\n      add\n      swap2\n      jump(tag_203)\n    tag_204:\n      dup3\n      add\n      swap2\n      swap1\n      0x00\n      mstore\n      keccak256(0x00, 0x20)\n      swap1\n    tag_205:\n      dup2\n      sload\n      dup2\n      mstore\n      swap1\n      0x01\n      add\n      swap1\n      0x20\n      add\n      dup1\n      dup4\n      gt\n      tag_205\n      jumpi\n      dup3\n      swap1\n      sub\n      0x1f\n      and\n      dup3\n      add\n      swap2\n    tag_203:\n      pop\n      pop\n      pop\n      pop\n      pop\n      swap3\n      pop\n        /* \"contracts/4_Product.sol\":10377:10384  product */\n      0x06\n        /* \"contracts/4_Product.sol\":10377:10389  product[_id] */\n      0x00\n        /* \"contracts/4_Product.sol\":10385:10388  _id */\n      dup14\n        /* \"contracts/4_Product.sol\":10377:10389  product[_id] */\n      dup2\n      mstore\n      0x20\n      add\n      swap1\n      dup2\n      mstore\n      0x20\n      add\n      0x00\n      keccak256\n        /* \"contracts/4_Product.sol\":10377:10397  product[_id].details */\n      0x0e\n      add\n        /* \"contracts/4_Product.sol\":10377:10403  product[_id].details.width */\n      0x05\n      add\n        /* \"contracts/4_Product.sol\":10362:10403  product_width= product[_id].details.width */\n      dup1\n      sload\n      tag_206\n      swap1\n      tag_104\n      jump\t// in\n    tag_206:\n      dup1\n      0x1f\n      add\n      0x20\n      dup1\n      swap2\n      div\n      mul\n      0x20\n      add\n      mload(0x40)\n      swap1\n      dup2\n      add\n      0x40\n      mstore\n      dup1\n      swap3\n      swap2\n      swap1\n      dup2\n      dup2\n      mstore\n      0x20\n      add\n      dup3\n      dup1\n      sload\n      tag_207\n      swap1\n      tag_104\n      jump\t// in\n    tag_207:\n      dup1\n      iszero\n      tag_208\n      jumpi\n      dup1\n      0x1f\n      lt\n      tag_209\n      jumpi\n      0x0100\n      dup1\n      dup4\n      sload\n      div\n      mul\n      dup4\n      mstore\n      swap2\n      0x20\n      add\n      swap2\n      jump(tag_208)\n    tag_209:\n      dup3\n      add\n      swap2\n      swap1\n      0x00\n      mstore\n      keccak256(0x00, 0x20)\n      swap1\n    tag_210:\n      dup2\n      sload\n      dup2\n      mstore\n      swap1\n      0x01\n      add\n      swap1\n      0x20\n      add\n      dup1\n      dup4\n      gt\n      tag_210\n      jumpi\n      dup3\n      swap1\n      sub\n      0x1f\n      and\n      dup3\n      add\n      swap2\n    tag_208:\n      pop\n      pop\n      pop\n      pop\n      pop\n      swap2\n      pop\n        /* \"contracts/4_Product.sol\":10426:10433  product */\n      0x06\n        /* \"contracts/4_Product.sol\":10426:10438  product[_id] */\n      0x00\n        /* \"contracts/4_Product.sol\":10434:10437  _id */\n      dup14\n        /* \"contracts/4_Product.sol\":10426:10438  product[_id] */\n      dup2\n      mstore\n      0x20\n      add\n      swap1\n      dup2\n      mstore\n      0x20\n      add\n      0x00\n      keccak256\n        /* \"contracts/4_Product.sol\":10426:10446  product[_id].details */\n      0x0e\n      add\n        /* \"contracts/4_Product.sol\":10426:10453  product[_id].details.height */\n      0x06\n      add\n        /* \"contracts/4_Product.sol\":10410:10453  product_height= product[_id].details.height */\n      dup1\n      sload\n      tag_211\n      swap1\n      tag_104\n      jump\t// in\n    tag_211:\n      dup1\n      0x1f\n      add\n      0x20\n      dup1\n      swap2\n      div\n      mul\n      0x20\n      add\n      mload(0x40)\n      swap1\n      dup2\n      add\n      0x40\n      mstore\n      dup1\n      swap3\n      swap2\n      swap1\n      dup2\n      dup2\n      mstore\n      0x20\n      add\n      dup3\n      dup1\n      sload\n      tag_212\n      swap1\n      tag_104\n      jump\t// in\n    tag_212:\n      dup1\n      iszero\n      tag_213\n      jumpi\n      dup1\n      0x1f\n      lt\n      tag_214\n      jumpi\n      0x0100\n      dup1\n      dup4\n      sload\n      div\n      mul\n      dup4\n      mstore\n      swap2\n      0x20\n      add\n      swap2\n      jump(tag_213)\n    tag_214:\n      dup3\n      add\n      swap2\n      swap1\n      0x00\n      mstore\n      keccak256(0x00, 0x20)\n      swap1\n    tag_215:\n      dup2\n      sload\n      dup2\n      mstore\n      swap1\n      0x01\n      add\n      swap1\n      0x20\n      add\n      dup1\n      dup4\n      gt\n      tag_215\n      jumpi\n      dup3\n      swap1\n      sub\n      0x1f\n      and\n      dup3\n      add\n      swap2\n    tag_213:\n      pop\n      pop\n      pop\n      pop\n      pop\n      swap1\n      pop\n        /* \"contracts/4_Product.sol\":9363:10459  function getProductDetails(uint256 _id) public view returns \r... */\n      swap2\n      swap4\n      swap6\n      swap8\n      swap10\n      swap12\n      swap1\n      swap3\n      swap5\n      swap7\n      swap9\n      swap11\n      pop\n      jump\t// out\n        /* \"contracts/4_Product.sol\":5935:6291  function tokenTransfer(address _to, uint256 _amount) public returns (bool) {\r... */\n    tag_57:\n        /* \"contracts/4_Product.sol\":6004:6008  bool */\n      0x00\n        /* \"contracts/4_Product.sol\":6053:6060  _amount */\n      dup2\n        /* \"contracts/4_Product.sol\":6029:6037  balances */\n      0x04\n        /* \"contracts/4_Product.sol\":6029:6049  balances[msg.sender] */\n      0x00\n        /* \"contracts/4_Product.sol\":6038:6048  msg.sender */\n      caller\n        /* \"contracts/4_Product.sol\":6029:6049  balances[msg.sender] */\n      0xffffffffffffffffffffffffffffffffffffffff\n      and\n      0xffffffffffffffffffffffffffffffffffffffff\n      and\n      dup2\n      mstore\n      0x20\n      add\n      swap1\n      dup2\n      mstore\n      0x20\n      add\n      0x00\n      keccak256\n      sload\n        /* \"contracts/4_Product.sol\":6029:6060  balances[msg.sender] >= _amount */\n      lt\n      iszero\n        /* \"contracts/4_Product.sol\":6021:6061  require(balances[msg.sender] >= _amount) */\n      tag_217\n      jumpi\n      0x00\n      dup1\n      revert\n    tag_217:\n        /* \"contracts/4_Product.sol\":6171:6172  0 */\n      0x00\n        /* \"contracts/4_Product.sol\":6156:6173  _to != address(0) */\n      0xffffffffffffffffffffffffffffffffffffffff\n      and\n        /* \"contracts/4_Product.sol\":6156:6159  _to */\n      dup4\n        /* \"contracts/4_Product.sol\":6156:6173  _to != address(0) */\n      0xffffffffffffffffffffffffffffffffffffffff\n      and\n      eq\n      iszero\n        /* \"contracts/4_Product.sol\":6148:6174  require(_to != address(0)) */\n      tag_218\n      jumpi\n      0x00\n      dup1\n      revert\n    tag_218:\n        /* \"contracts/4_Product.sol\":6219:6226  _amount */\n      dup2\n        /* \"contracts/4_Product.sol\":6195:6203  balances */\n      0x04\n        /* \"contracts/4_Product.sol\":6195:6215  balances[msg.sender] */\n      0x00\n        /* \"contracts/4_Product.sol\":6204:6214  msg.sender */\n      caller\n        /* \"contracts/4_Product.sol\":6195:6215  balances[msg.sender] */\n      0xffffffffffffffffffffffffffffffffffffffff\n      and\n      0xffffffffffffffffffffffffffffffffffffffff\n      and\n      dup2\n      mstore\n      0x20\n      add\n      swap1\n      dup2\n      mstore\n      0x20\n      add\n      0x00\n      keccak256\n      0x00\n        /* \"contracts/4_Product.sol\":6195:6226  balances[msg.sender] -= _amount */\n      dup3\n      dup3\n      sload\n      tag_219\n      swap2\n      swap1\n      tag_220\n      jump\t// in\n    tag_219:\n      swap3\n      pop\n      pop\n      dup2\n      swap1\n      sstore\n      pop\n        /* \"contracts/4_Product.sol\":6254:6261  _amount */\n      dup2\n        /* \"contracts/4_Product.sol\":6237:6245  balances */\n      0x04\n        /* \"contracts/4_Product.sol\":6237:6250  balances[_to] */\n      0x00\n        /* \"contracts/4_Product.sol\":6246:6249  _to */\n      dup6\n        /* \"contracts/4_Product.sol\":6237:6250  balances[_to] */\n      0xffffffffffffffffffffffffffffffffffffffff\n      and\n      0xffffffffffffffffffffffffffffffffffffffff\n      and\n      dup2\n      mstore\n      0x20\n      add\n      swap1\n      dup2\n      mstore\n      0x20\n      add\n      0x00\n      keccak256\n      0x00\n        /* \"contracts/4_Product.sol\":6237:6261  balances[_to] += _amount */\n      dup3\n      dup3\n      sload\n      tag_221\n      swap2\n      swap1\n      tag_116\n      jump\t// in\n    tag_221:\n      swap3\n      pop\n      pop\n      dup2\n      swap1\n      sstore\n      pop\n        /* \"contracts/4_Product.sol\":6279:6283  true */\n      0x01\n        /* \"contracts/4_Product.sol\":6272:6283  return true */\n      swap1\n      pop\n        /* \"contracts/4_Product.sol\":5935:6291  function tokenTransfer(address _to, uint256 _amount) public returns (bool) {\r... */\n      swap3\n      swap2\n      pop\n      pop\n      jump\t// out\n        /* \"contracts/4_Product.sol\":8475:9357  function getProductInfo(uint256 _id) public view returns \r... */\n    tag_63:\n        /* \"contracts/4_Product.sol\":8549:8567  uint256 product_id */\n      0x00\n        /* \"contracts/4_Product.sol\":8604:8623  address producer_id */\n      dup1\n        /* \"contracts/4_Product.sol\":8664:8680  address owner_id */\n      0x00\n        /* \"contracts/4_Product.sol\":8757:8782  State currentProductState */\n      dup1\n        /* \"contracts/4_Product.sol\":8793:8813  uint256 productPrice */\n      0x00\n        /* \"contracts/4_Product.sol\":8825:8847  address distributor_id */\n      dup1\n        /* \"contracts/4_Product.sol\":8858:8877  address retailer_id */\n      0x00\n        /* \"contracts/4_Product.sol\":8888:8907  address consumer_id */\n      dup1\n        /* \"contracts/4_Product.sol\":8918:8940  Details memory details */\n      tag_222\n      tag_223\n      jump\t// in\n    tag_222:\n        /* \"contracts/4_Product.sol\":8979:8986  product */\n      0x06\n        /* \"contracts/4_Product.sol\":8979:8991  product[_id] */\n      0x00\n        /* \"contracts/4_Product.sol\":8987:8990  _id */\n      dup12\n        /* \"contracts/4_Product.sol\":8979:8991  product[_id] */\n      dup2\n      mstore\n      0x20\n      add\n      swap1\n      dup2\n      mstore\n      0x20\n      add\n      0x00\n      keccak256\n        /* \"contracts/4_Product.sol\":8979:8994  product[_id].ID */\n      0x00\n      add\n      sload\n        /* \"contracts/4_Product.sol\":8966:8994  product_id = product[_id].ID */\n      swap9\n      pop\n        /* \"contracts/4_Product.sol\":9016:9023  product */\n      0x06\n        /* \"contracts/4_Product.sol\":9016:9028  product[_id] */\n      0x00\n        /* \"contracts/4_Product.sol\":9024:9027  _id */\n      dup12\n        /* \"contracts/4_Product.sol\":9016:9028  product[_id] */\n      dup2\n      mstore\n      0x20\n      add\n      swap1\n      dup2\n      mstore\n      0x20\n      add\n      0x00\n      keccak256\n        /* \"contracts/4_Product.sol\":9016:9039  product[_id].producerID */\n      0x02\n      add\n      0x00\n      swap1\n      sload\n      swap1\n      0x0100\n      exp\n      swap1\n      div\n      0xffffffffffffffffffffffffffffffffffffffff\n      and\n        /* \"contracts/4_Product.sol\":9002:9039  producer_id = product[_id].producerID */\n      swap8\n      pop\n        /* \"contracts/4_Product.sol\":9057:9064  product */\n      0x06\n        /* \"contracts/4_Product.sol\":9057:9069  product[_id] */\n      0x00\n        /* \"contracts/4_Product.sol\":9065:9068  _id */\n      dup12\n        /* \"contracts/4_Product.sol\":9057:9069  product[_id] */\n      dup2\n      mstore\n      0x20\n      add\n      swap1\n      dup2\n      mstore\n      0x20\n      add\n      0x00\n      keccak256\n        /* \"contracts/4_Product.sol\":9057:9077  product[_id].ownerID */\n      0x01\n      add\n      0x00\n      swap1\n      sload\n      swap1\n      0x0100\n      exp\n      swap1\n      div\n      0xffffffffffffffffffffffffffffffffffffffff\n      and\n        /* \"contracts/4_Product.sol\":9046:9077  owner_id = product[_id].ownerID */\n      swap7\n      pop\n        /* \"contracts/4_Product.sol\":9100:9107  product */\n      0x06\n        /* \"contracts/4_Product.sol\":9100:9112  product[_id] */\n      0x00\n        /* \"contracts/4_Product.sol\":9108:9111  _id */\n      dup12\n        /* \"contracts/4_Product.sol\":9100:9112  product[_id] */\n      dup2\n      mstore\n      0x20\n      add\n      swap1\n      dup2\n      mstore\n      0x20\n      add\n      0x00\n      keccak256\n        /* \"contracts/4_Product.sol\":9100:9126  product[_id].distributorID */\n      0x0b\n      add\n      0x00\n      swap1\n      sload\n      swap1\n      0x0100\n      exp\n      swap1\n      div\n      0xffffffffffffffffffffffffffffffffffffffff\n      and\n        /* \"contracts/4_Product.sol\":9084:9126  distributor_id= product[_id].distributorID */\n      swap4\n      pop\n        /* \"contracts/4_Product.sol\":9146:9153  product */\n      0x06\n        /* \"contracts/4_Product.sol\":9146:9158  product[_id] */\n      0x00\n        /* \"contracts/4_Product.sol\":9154:9157  _id */\n      dup12\n        /* \"contracts/4_Product.sol\":9146:9158  product[_id] */\n      dup2\n      mstore\n      0x20\n      add\n      swap1\n      dup2\n      mstore\n      0x20\n      add\n      0x00\n      keccak256\n        /* \"contracts/4_Product.sol\":9146:9169  product[_id].retailerID */\n      0x0c\n      add\n      0x00\n      swap1\n      sload\n      swap1\n      0x0100\n      exp\n      swap1\n      div\n      0xffffffffffffffffffffffffffffffffffffffff\n      and\n        /* \"contracts/4_Product.sol\":9133:9169  retailer_id= product[_id].retailerID */\n      swap3\n      pop\n        /* \"contracts/4_Product.sol\":9189:9196  product */\n      0x06\n        /* \"contracts/4_Product.sol\":9189:9201  product[_id] */\n      0x00\n        /* \"contracts/4_Product.sol\":9197:9200  _id */\n      dup12\n        /* \"contracts/4_Product.sol\":9189:9201  product[_id] */\n      dup2\n      mstore\n      0x20\n      add\n      swap1\n      dup2\n      mstore\n      0x20\n      add\n      0x00\n      keccak256\n        /* \"contracts/4_Product.sol\":9189:9212  product[_id].consumerID */\n      0x0d\n      add\n      0x00\n      swap1\n      sload\n      swap1\n      0x0100\n      exp\n      swap1\n      div\n      0xffffffffffffffffffffffffffffffffffffffff\n      and\n        /* \"contracts/4_Product.sol\":9176:9212  consumer_id= product[_id].consumerID */\n      swap2\n      pop\n        /* \"contracts/4_Product.sol\":9243:9250  product */\n      0x06\n        /* \"contracts/4_Product.sol\":9243:9255  product[_id] */\n      0x00\n        /* \"contracts/4_Product.sol\":9251:9254  _id */\n      dup12\n        /* \"contracts/4_Product.sol\":9243:9255  product[_id] */\n      dup2\n      mstore\n      0x20\n      add\n      swap1\n      dup2\n      mstore\n      0x20\n      add\n      0x00\n      keccak256\n        /* \"contracts/4_Product.sol\":9243:9268  product[_id].productState */\n      0x09\n      add\n      0x00\n      swap1\n      sload\n      swap1\n      0x0100\n      exp\n      swap1\n      div\n      0xff\n      and\n        /* \"contracts/4_Product.sol\":9221:9268  currentProductState = product[_id].productState */\n      swap6\n      pop\n        /* \"contracts/4_Product.sol\":9290:9297  product */\n      0x06\n        /* \"contracts/4_Product.sol\":9290:9302  product[_id] */\n      0x00\n        /* \"contracts/4_Product.sol\":9298:9301  _id */\n      dup12\n        /* \"contracts/4_Product.sol\":9290:9302  product[_id] */\n      dup2\n      mstore\n      0x20\n      add\n      swap1\n      dup2\n      mstore\n      0x20\n      add\n      0x00\n      keccak256\n        /* \"contracts/4_Product.sol\":9290:9315  product[_id].productPrice */\n      0x0a\n      add\n      sload\n        /* \"contracts/4_Product.sol\":9275:9315  productPrice = product[_id].productPrice */\n      swap5\n      pop\n        /* \"contracts/4_Product.sol\":9333:9340  product */\n      0x06\n        /* \"contracts/4_Product.sol\":9333:9345  product[_id] */\n      0x00\n        /* \"contracts/4_Product.sol\":9341:9344  _id */\n      dup12\n        /* \"contracts/4_Product.sol\":9333:9345  product[_id] */\n      dup2\n      mstore\n      0x20\n      add\n      swap1\n      dup2\n      mstore\n      0x20\n      add\n      0x00\n      keccak256\n        /* \"contracts/4_Product.sol\":9333:9353  product[_id].details */\n      0x0e\n      add\n        /* \"contracts/4_Product.sol\":9324:9353  details= product[_id].details */\n      mload(0x40)\n      dup1\n      0xe0\n      add\n      0x40\n      mstore\n      swap1\n      dup2\n      0x00\n      dup3\n      add\n      dup1\n      sload\n      tag_225\n      swap1\n      tag_104\n      jump\t// in\n    tag_225:\n      dup1\n      0x1f\n      add\n      0x20\n      dup1\n      swap2\n      div\n      mul\n      0x20\n      add\n      mload(0x40)\n      swap1\n      dup2\n      add\n      0x40\n      mstore\n      dup1\n      swap3\n      swap2\n      swap1\n      dup2\n      dup2\n      mstore\n      0x20\n      add\n      dup3\n      dup1\n      sload\n      tag_226\n      swap1\n      tag_104\n      jump\t// in\n    tag_226:\n      dup1\n      iszero\n      tag_227\n      jumpi\n      dup1\n      0x1f\n      lt\n      tag_228\n      jumpi\n      0x0100\n      dup1\n      dup4\n      sload\n      div\n      mul\n      dup4\n      mstore\n      swap2\n      0x20\n      add\n      swap2\n      jump(tag_227)\n    tag_228:\n      dup3\n      add\n      swap2\n      swap1\n      0x00\n      mstore\n      keccak256(0x00, 0x20)\n      swap1\n    tag_229:\n      dup2\n      sload\n      dup2\n      mstore\n      swap1\n      0x01\n      add\n      swap1\n      0x20\n      add\n      dup1\n      dup4\n      gt\n      tag_229\n      jumpi\n      dup3\n      swap1\n      sub\n      0x1f\n      and\n      dup3\n      add\n      swap2\n    tag_227:\n      pop\n      pop\n      pop\n      pop\n      pop\n      dup2\n      mstore\n      0x20\n      add\n      0x01\n      dup3\n      add\n      dup1\n      sload\n      tag_230\n      swap1\n      tag_104\n      jump\t// in\n    tag_230:\n      dup1\n      0x1f\n      add\n      0x20\n      dup1\n      swap2\n      div\n      mul\n      0x20\n      add\n      mload(0x40)\n      swap1\n      dup2\n      add\n      0x40\n      mstore\n      dup1\n      swap3\n      swap2\n      swap1\n      dup2\n      dup2\n      mstore\n      0x20\n      add\n      dup3\n      dup1\n      sload\n      tag_231\n      swap1\n      tag_104\n      jump\t// in\n    tag_231:\n      dup1\n      iszero\n      tag_232\n      jumpi\n      dup1\n      0x1f\n      lt\n      tag_233\n      jumpi\n      0x0100\n      dup1\n      dup4\n      sload\n      div\n      mul\n      dup4\n      mstore\n      swap2\n      0x20\n      add\n      swap2\n      jump(tag_232)\n    tag_233:\n      dup3\n      add\n      swap2\n      swap1\n      0x00\n      mstore\n      keccak256(0x00, 0x20)\n      swap1\n    tag_234:\n      dup2\n      sload\n      dup2\n      mstore\n      swap1\n      0x01\n      add\n      swap1\n      0x20\n      add\n      dup1\n      dup4\n      gt\n      tag_234\n      jumpi\n      dup3\n      swap1\n      sub\n      0x1f\n      and\n      dup3\n      add\n      swap2\n    tag_232:\n      pop\n      pop\n      pop\n      pop\n      pop\n      dup2\n      mstore\n      0x20\n      add\n      0x02\n      dup3\n      add\n      dup1\n      sload\n      tag_235\n      swap1\n      tag_104\n      jump\t// in\n    tag_235:\n      dup1\n      0x1f\n      add\n      0x20\n      dup1\n      swap2\n      div\n      mul\n      0x20\n      add\n      mload(0x40)\n      swap1\n      dup2\n      add\n      0x40\n      mstore\n      dup1\n      swap3\n      swap2\n      swap1\n      dup2\n      dup2\n      mstore\n      0x20\n      add\n      dup3\n      dup1\n      sload\n      tag_236\n      swap1\n      tag_104\n      jump\t// in\n    tag_236:\n      dup1\n      iszero\n      tag_237\n      jumpi\n      dup1\n      0x1f\n      lt\n      tag_238\n      jumpi\n      0x0100\n      dup1\n      dup4\n      sload\n      div\n      mul\n      dup4\n      mstore\n      swap2\n      0x20\n      add\n      swap2\n      jump(tag_237)\n    tag_238:\n      dup3\n      add\n      swap2\n      swap1\n      0x00\n      mstore\n      keccak256(0x00, 0x20)\n      swap1\n    tag_239:\n      dup2\n      sload\n      dup2\n      mstore\n      swap1\n      0x01\n      add\n      swap1\n      0x20\n      add\n      dup1\n      dup4\n      gt\n      tag_239\n      jumpi\n      dup3\n      swap1\n      sub\n      0x1f\n      and\n      dup3\n      add\n      swap2\n    tag_237:\n      pop\n      pop\n      pop\n      pop\n      pop\n      dup2\n      mstore\n      0x20\n      add\n      0x03\n      dup3\n      add\n      dup1\n      sload\n      tag_240\n      swap1\n      tag_104\n      jump\t// in\n    tag_240:\n      dup1\n      0x1f\n      add\n      0x20\n      dup1\n      swap2\n      div\n      mul\n      0x20\n      add\n      mload(0x40)\n      swap1\n      dup2\n      add\n      0x40\n      mstore\n      dup1\n      swap3\n      swap2\n      swap1\n      dup2\n      dup2\n      mstore\n      0x20\n      add\n      dup3\n      dup1\n      sload\n      tag_241\n      swap1\n      tag_104\n      jump\t// in\n    tag_241:\n      dup1\n      iszero\n      tag_242\n      jumpi\n      dup1\n      0x1f\n      lt\n      tag_243\n      jumpi\n      0x0100\n      dup1\n      dup4\n      sload\n      div\n      mul\n      dup4\n      mstore\n      swap2\n      0x20\n      add\n      swap2\n      jump(tag_242)\n    tag_243:\n      dup3\n      add\n      swap2\n      swap1\n      0x00\n      mstore\n      keccak256(0x00, 0x20)\n      swap1\n    tag_244:\n      dup2\n      sload\n      dup2\n      mstore\n      swap1\n      0x01\n      add\n      swap1\n      0x20\n      add\n      dup1\n      dup4\n      gt\n      tag_244\n      jumpi\n      dup3\n      swap1\n      sub\n      0x1f\n      and\n      dup3\n      add\n      swap2\n    tag_242:\n      pop\n      pop\n      pop\n      pop\n      pop\n      dup2\n      mstore\n      0x20\n      add\n      0x04\n      dup3\n      add\n      dup1\n      sload\n      tag_245\n      swap1\n      tag_104\n      jump\t// in\n    tag_245:\n      dup1\n      0x1f\n      add\n      0x20\n      dup1\n      swap2\n      div\n      mul\n      0x20\n      add\n      mload(0x40)\n      swap1\n      dup2\n      add\n      0x40\n      mstore\n      dup1\n      swap3\n      swap2\n      swap1\n      dup2\n      dup2\n      mstore\n      0x20\n      add\n      dup3\n      dup1\n      sload\n      tag_246\n      swap1\n      tag_104\n      jump\t// in\n    tag_246:\n      dup1\n      iszero\n      tag_247\n      jumpi\n      dup1\n      0x1f\n      lt\n      tag_248\n      jumpi\n      0x0100\n      dup1\n      dup4\n      sload\n      div\n      mul\n      dup4\n      mstore\n      swap2\n      0x20\n      add\n      swap2\n      jump(tag_247)\n    tag_248:\n      dup3\n      add\n      swap2\n      swap1\n      0x00\n      mstore\n      keccak256(0x00, 0x20)\n      swap1\n    tag_249:\n      dup2\n      sload\n      dup2\n      mstore\n      swap1\n      0x01\n      add\n      swap1\n      0x20\n      add\n      dup1\n      dup4\n      gt\n      tag_249\n      jumpi\n      dup3\n      swap1\n      sub\n      0x1f\n      and\n      dup3\n      add\n      swap2\n    tag_247:\n      pop\n      pop\n      pop\n      pop\n      pop\n      dup2\n      mstore\n      0x20\n      add\n      0x05\n      dup3\n      add\n      dup1\n      sload\n      tag_250\n      swap1\n      tag_104\n      jump\t// in\n    tag_250:\n      dup1\n      0x1f\n      add\n      0x20\n      dup1\n      swap2\n      div\n      mul\n      0x20\n      add\n      mload(0x40)\n      swap1\n      dup2\n      add\n      0x40\n      mstore\n      dup1\n      swap3\n      swap2\n      swap1\n      dup2\n      dup2\n      mstore\n      0x20\n      add\n      dup3\n      dup1\n      sload\n      tag_251\n      swap1\n      tag_104\n      jump\t// in\n    tag_251:\n      dup1\n      iszero\n      tag_252\n      jumpi\n      dup1\n      0x1f\n      lt\n      tag_253\n      jumpi\n      0x0100\n      dup1\n      dup4\n      sload\n      div\n      mul\n      dup4\n      mstore\n      swap2\n      0x20\n      add\n      swap2\n      jump(tag_252)\n    tag_253:\n      dup3\n      add\n      swap2\n      swap1\n      0x00\n      mstore\n      keccak256(0x00, 0x20)\n      swap1\n    tag_254:\n      dup2\n      sload\n      dup2\n      mstore\n      swap1\n      0x01\n      add\n      swap1\n      0x20\n      add\n      dup1\n      dup4\n      gt\n      tag_254\n      jumpi\n      dup3\n      swap1\n      sub\n      0x1f\n      and\n      dup3\n      add\n      swap2\n    tag_252:\n      pop\n      pop\n      pop\n      pop\n      pop\n      dup2\n      mstore\n      0x20\n      add\n      0x06\n      dup3\n      add\n      dup1\n      sload\n      tag_255\n      swap1\n      tag_104\n      jump\t// in\n    tag_255:\n      dup1\n      0x1f\n      add\n      0x20\n      dup1\n      swap2\n      div\n      mul\n      0x20\n      add\n      mload(0x40)\n      swap1\n      dup2\n      add\n      0x40\n      mstore\n      dup1\n      swap3\n      swap2\n      swap1\n      dup2\n      dup2\n      mstore\n      0x20\n      add\n      dup3\n      dup1\n      sload\n      tag_256\n      swap1\n      tag_104\n      jump\t// in\n    tag_256:\n      dup1\n      iszero\n      tag_257\n      jumpi\n      dup1\n      0x1f\n      lt\n      tag_258\n      jumpi\n      0x0100\n      dup1\n      dup4\n      sload\n      div\n      mul\n      dup4\n      mstore\n      swap2\n      0x20\n      add\n      swap2\n      jump(tag_257)\n    tag_258:\n      dup3\n      add\n      swap2\n      swap1\n      0x00\n      mstore\n      keccak256(0x00, 0x20)\n      swap1\n    tag_259:\n      dup2\n      sload\n      dup2\n      mstore\n      swap1\n      0x01\n      add\n      swap1\n      0x20\n      add\n      dup1\n      dup4\n      gt\n      tag_259\n      jumpi\n      dup3\n      swap1\n      sub\n      0x1f\n      and\n      dup3\n      add\n      swap2\n    tag_257:\n      pop\n      pop\n      pop\n      pop\n      pop\n      dup2\n      mstore\n      pop\n      pop\n      swap1\n      pop\n        /* \"contracts/4_Product.sol\":8475:9357  function getProductInfo(uint256 _id) public view returns \r... */\n      swap2\n      swap4\n      swap6\n      swap8\n      swap10\n      swap1\n      swap3\n      swap5\n      swap7\n      swap9\n      pop\n      jump\t// out\n        /* \"contracts/4_Product.sol\":114:134  string public symbol */\n    tag_68:\n      0x01\n      dup1\n      sload\n      tag_260\n      swap1\n      tag_104\n      jump\t// in\n    tag_260:\n      dup1\n      0x1f\n      add\n      0x20\n      dup1\n      swap2\n      div\n      mul\n      0x20\n      add\n      mload(0x40)\n      swap1\n      dup2\n      add\n      0x40\n      mstore\n      dup1\n      swap3\n      swap2\n      swap1\n      dup2\n      dup2\n      mstore\n      0x20\n      add\n      dup3\n      dup1\n      sload\n      tag_261\n      swap1\n      tag_104\n      jump\t// in\n    tag_261:\n      dup1\n      iszero\n      tag_262\n      jumpi\n      dup1\n      0x1f\n      lt\n      tag_263\n      jumpi\n      0x0100\n      dup1\n      dup4\n      sload\n      div\n      mul\n      dup4\n      mstore\n      swap2\n      0x20\n      add\n      swap2\n      jump(tag_262)\n    tag_263:\n      dup3\n      add\n      swap2\n      swap1\n      0x00\n      mstore\n      keccak256(0x00, 0x20)\n      swap1\n    tag_264:\n      dup2\n      sload\n      dup2\n      mstore\n      swap1\n      0x01\n      add\n      swap1\n      0x20\n      add\n      dup1\n      dup4\n      gt\n      tag_264\n      jumpi\n      dup3\n      swap1\n      sub\n      0x1f\n      and\n      dup3\n      add\n      swap2\n    tag_262:\n      pop\n      pop\n      pop\n      pop\n      pop\n      dup2\n      jump\t// out\n        /* \"contracts/4_Product.sol\":4889:5306  function burn(address _account, uint256 _amount) public OnlyTokenOwner {\r... */\n    tag_73:\n        /* \"contracts/4_Product.sol\":2674:2684  tokenOwner */\n      0x02\n      0x00\n      swap1\n      sload\n      swap1\n      0x0100\n      exp\n      swap1\n      div\n      0xffffffffffffffffffffffffffffffffffffffff\n      and\n        /* \"contracts/4_Product.sol\":2660:2684  msg.sender == tokenOwner */\n      0xffffffffffffffffffffffffffffffffffffffff\n      and\n        /* \"contracts/4_Product.sol\":2660:2670  msg.sender */\n      caller\n        /* \"contracts/4_Product.sol\":2660:2684  msg.sender == tokenOwner */\n      0xffffffffffffffffffffffffffffffffffffffff\n      and\n      eq\n        /* \"contracts/4_Product.sol\":2652:2719  require(msg.sender == tokenOwner, 'caller is not the token owner.') */\n      tag_266\n      jumpi\n      mload(0x40)\n      0x08c379a000000000000000000000000000000000000000000000000000000000\n      dup2\n      mstore\n      0x04\n      add\n      tag_267\n      swap1\n      tag_112\n      jump\t// in\n    tag_267:\n      mload(0x40)\n      dup1\n      swap2\n      sub\n      swap1\n      revert\n    tag_266:\n        /* \"contracts/4_Product.sol\":4999:5000  0 */\n      0x00\n        /* \"contracts/4_Product.sol\":4979:5001  _account != address(0) */\n      0xffffffffffffffffffffffffffffffffffffffff\n      and\n        /* \"contracts/4_Product.sol\":4979:4987  _account */\n      dup3\n        /* \"contracts/4_Product.sol\":4979:5001  _account != address(0) */\n      0xffffffffffffffffffffffffffffffffffffffff\n      and\n      eq\n      iszero\n        /* \"contracts/4_Product.sol\":4971:5002  require(_account != address(0)) */\n      tag_269\n      jumpi\n      0x00\n      dup1\n      revert\n    tag_269:\n        /* \"contracts/4_Product.sol\":5127:5135  balances */\n      0x04\n        /* \"contracts/4_Product.sol\":5127:5145  balances[_account] */\n      0x00\n        /* \"contracts/4_Product.sol\":5136:5144  _account */\n      dup4\n        /* \"contracts/4_Product.sol\":5127:5145  balances[_account] */\n      0xffffffffffffffffffffffffffffffffffffffff\n      and\n      0xffffffffffffffffffffffffffffffffffffffff\n      and\n      dup2\n      mstore\n      0x20\n      add\n      swap1\n      dup2\n      mstore\n      0x20\n      add\n      0x00\n      keccak256\n      sload\n        /* \"contracts/4_Product.sol\":5116:5123  _amount */\n      dup2\n        /* \"contracts/4_Product.sol\":5116:5145  _amount <= balances[_account] */\n      gt\n      iszero\n        /* \"contracts/4_Product.sol\":5108:5146  require(_amount <= balances[_account]) */\n      tag_270\n      jumpi\n      0x00\n      dup1\n      revert\n    tag_270:\n        /* \"contracts/4_Product.sol\":5251:5258  _amount */\n      dup1\n        /* \"contracts/4_Product.sol\":5235:5247  _totalSupply */\n      0x03\n      0x00\n        /* \"contracts/4_Product.sol\":5235:5258  _totalSupply -= _amount */\n      dup3\n      dup3\n      sload\n      tag_271\n      swap2\n      swap1\n      tag_220\n      jump\t// in\n    tag_271:\n      swap3\n      pop\n      pop\n      dup2\n      swap1\n      sstore\n      pop\n        /* \"contracts/4_Product.sol\":5291:5298  _amount */\n      dup1\n        /* \"contracts/4_Product.sol\":5269:5277  balances */\n      0x04\n        /* \"contracts/4_Product.sol\":5269:5287  balances[_account] */\n      0x00\n        /* \"contracts/4_Product.sol\":5278:5286  _account */\n      dup5\n        /* \"contracts/4_Product.sol\":5269:5287  balances[_account] */\n      0xffffffffffffffffffffffffffffffffffffffff\n      and\n      0xffffffffffffffffffffffffffffffffffffffff\n      and\n      dup2\n      mstore\n      0x20\n      add\n      swap1\n      dup2\n      mstore\n      0x20\n      add\n      0x00\n      keccak256\n      0x00\n        /* \"contracts/4_Product.sol\":5269:5298  balances[_account] -= _amount */\n      dup3\n      dup3\n      sload\n      tag_272\n      swap2\n      swap1\n      tag_220\n      jump\t// in\n    tag_272:\n      swap3\n      pop\n      pop\n      dup2\n      swap1\n      sstore\n      pop\n        /* \"contracts/4_Product.sol\":4889:5306  function burn(address _account, uint256 _amount) public OnlyTokenOwner {\r... */\n      pop\n      pop\n      jump\t// out\n        /* \"contracts/4_Product.sol\":4075:4297  function mint(uint256 _amount) public OnlyTokenOwner {\r... */\n    tag_77:\n        /* \"contracts/4_Product.sol\":2674:2684  tokenOwner */\n      0x02\n      0x00\n      swap1\n      sload\n      swap1\n      0x0100\n      exp\n      swap1\n      div\n      0xffffffffffffffffffffffffffffffffffffffff\n      and\n        /* \"contracts/4_Product.sol\":2660:2684  msg.sender == tokenOwner */\n      0xffffffffffffffffffffffffffffffffffffffff\n      and\n        /* \"contracts/4_Product.sol\":2660:2670  msg.sender */\n      caller\n        /* \"contracts/4_Product.sol\":2660:2684  msg.sender == tokenOwner */\n      0xffffffffffffffffffffffffffffffffffffffff\n      and\n      eq\n        /* \"contracts/4_Product.sol\":2652:2719  require(msg.sender == tokenOwner, 'caller is not the token owner.') */\n      tag_274\n      jumpi\n      mload(0x40)\n      0x08c379a000000000000000000000000000000000000000000000000000000000\n      dup2\n      mstore\n      0x04\n      add\n      tag_275\n      swap1\n      tag_112\n      jump\t// in\n    tag_275:\n      mload(0x40)\n      dup1\n      swap2\n      sub\n      swap1\n      revert\n    tag_274:\n        /* \"contracts/4_Product.sol\":4155:4162  _amount */\n      dup1\n        /* \"contracts/4_Product.sol\":4139:4151  _totalSupply */\n      0x03\n      0x00\n        /* \"contracts/4_Product.sol\":4139:4162  _totalSupply += _amount */\n      dup3\n      dup3\n      sload\n      tag_277\n      swap2\n      swap1\n      tag_116\n      jump\t// in\n    tag_277:\n      swap3\n      pop\n      pop\n      dup2\n      swap1\n      sstore\n      pop\n        /* \"contracts/4_Product.sol\":4233:4240  _amount */\n      dup1\n        /* \"contracts/4_Product.sol\":4209:4217  balances */\n      0x04\n        /* \"contracts/4_Product.sol\":4209:4229  balances[msg.sender] */\n      0x00\n        /* \"contracts/4_Product.sol\":4218:4228  msg.sender */\n      caller\n        /* \"contracts/4_Product.sol\":4209:4229  balances[msg.sender] */\n      0xffffffffffffffffffffffffffffffffffffffff\n      and\n      0xffffffffffffffffffffffffffffffffffffffff\n      and\n      dup2\n      mstore\n      0x20\n      add\n      swap1\n      dup2\n      mstore\n      0x20\n      add\n      0x00\n      keccak256\n      0x00\n        /* \"contracts/4_Product.sol\":4209:4240  balances[msg.sender] += _amount */\n      dup3\n      dup3\n      sload\n      tag_278\n      swap2\n      swap1\n      tag_116\n      jump\t// in\n    tag_278:\n      swap3\n      pop\n      pop\n      dup2\n      swap1\n      sstore\n      pop\n        /* \"contracts/4_Product.sol\":4075:4297  function mint(uint256 _amount) public OnlyTokenOwner {\r... */\n      pop\n      jump\t// out\n        /* \"contracts/4_Product.sol\":165:199  address payable public  tokenOwner */\n    tag_80:\n      0x02\n      0x00\n      swap1\n      sload\n      swap1\n      0x0100\n      exp\n      swap1\n      div\n      0xffffffffffffffffffffffffffffffffffffffff\n      and\n      dup2\n      jump\t// out\n        /* \"contracts/4_Product.sol\":5364:5861  function buyToken() public payable {\r... */\n    tag_84:\n        /* \"contracts/4_Product.sol\":5409:5425  uint256 tokenNum */\n      0x00\n        /* \"contracts/4_Product.sol\":287:290  100 */\n      0x64\n        /* \"contracts/4_Product.sol\":5428:5437  msg.value */\n      callvalue\n        /* \"contracts/4_Product.sol\":5428:5448  msg.value/tokenPrice */\n      tag_280\n      swap2\n      swap1\n      tag_281\n      jump\t// in\n    tag_280:\n        /* \"contracts/4_Product.sol\":5409:5448  uint256 tokenNum = msg.value/tokenPrice */\n      swap1\n      pop\n        /* \"contracts/4_Product.sol\":5510:5511  0 */\n      0x00\n        /* \"contracts/4_Product.sol\":5498:5507  msg.value */\n      callvalue\n        /* \"contracts/4_Product.sol\":5498:5511  msg.value > 0 */\n      gt\n        /* \"contracts/4_Product.sol\":5490:5512  require(msg.value > 0) */\n      tag_282\n      jumpi\n      0x00\n      dup1\n      revert\n    tag_282:\n        /* \"contracts/4_Product.sol\":5560:5570  tokenOwner */\n      0x02\n      0x00\n      swap1\n      sload\n      swap1\n      0x0100\n      exp\n      swap1\n      div\n      0xffffffffffffffffffffffffffffffffffffffff\n      and\n        /* \"contracts/4_Product.sol\":5560:5579  tokenOwner.transfer */\n      0xffffffffffffffffffffffffffffffffffffffff\n      and\n        /* \"contracts/4_Product.sol\":5560:5590  tokenOwner.transfer(msg.value) */\n      0x08fc\n        /* \"contracts/4_Product.sol\":5580:5589  msg.value */\n      callvalue\n        /* \"contracts/4_Product.sol\":5560:5590  tokenOwner.transfer(msg.value) */\n      swap1\n      dup2\n      iszero\n      mul\n      swap1\n      mload(0x40)\n      0x00\n      mload(0x40)\n      dup1\n      dup4\n      sub\n      dup2\n      dup6\n      dup9\n      dup9\n      call\n      swap4\n      pop\n      pop\n      pop\n      pop\n      iszero\n      dup1\n      iszero\n      tag_284\n      jumpi\n      returndatasize\n      0x00\n      dup1\n      returndatacopy\n      revert(0x00, returndatasize)\n    tag_284:\n      pop\n        /* \"contracts/4_Product.sol\":5690:5698  tokenNum */\n      dup1\n        /* \"contracts/4_Product.sol\":5666:5674  balances */\n      0x04\n        /* \"contracts/4_Product.sol\":5666:5686  balances[tokenOwner] */\n      0x00\n        /* \"contracts/4_Product.sol\":5675:5685  tokenOwner */\n      0x02\n      0x00\n      swap1\n      sload\n      swap1\n      0x0100\n      exp\n      swap1\n      div\n      0xffffffffffffffffffffffffffffffffffffffff\n      and\n        /* \"contracts/4_Product.sol\":5666:5686  balances[tokenOwner] */\n      0xffffffffffffffffffffffffffffffffffffffff\n      and\n      0xffffffffffffffffffffffffffffffffffffffff\n      and\n      dup2\n      mstore\n      0x20\n      add\n      swap1\n      dup2\n      mstore\n      0x20\n      add\n      0x00\n      keccak256\n      0x00\n        /* \"contracts/4_Product.sol\":5666:5698  balances[tokenOwner] -= tokenNum */\n      dup3\n      dup3\n      sload\n      tag_285\n      swap2\n      swap1\n      tag_220\n      jump\t// in\n    tag_285:\n      swap3\n      pop\n      pop\n      dup2\n      swap1\n      sstore\n      pop\n        /* \"contracts/4_Product.sol\":5791:5799  tokenNum */\n      dup1\n        /* \"contracts/4_Product.sol\":5767:5775  balances */\n      0x04\n        /* \"contracts/4_Product.sol\":5767:5787  balances[msg.sender] */\n      0x00\n        /* \"contracts/4_Product.sol\":5776:5786  msg.sender */\n      caller\n        /* \"contracts/4_Product.sol\":5767:5787  balances[msg.sender] */\n      0xffffffffffffffffffffffffffffffffffffffff\n      and\n      0xffffffffffffffffffffffffffffffffffffffff\n      and\n      dup2\n      mstore\n      0x20\n      add\n      swap1\n      dup2\n      mstore\n      0x20\n      add\n      0x00\n      keccak256\n      0x00\n        /* \"contracts/4_Product.sol\":5767:5799  balances[msg.sender] += tokenNum */\n      dup3\n      dup3\n      sload\n      tag_286\n      swap2\n      swap1\n      tag_116\n      jump\t// in\n    tag_286:\n      swap3\n      pop\n      pop\n      dup2\n      swap1\n      sstore\n      pop\n        /* \"contracts/4_Product.sol\":5399:5861  {\r... */\n      pop\n        /* \"contracts/4_Product.sol\":5364:5861  function buyToken() public payable {\r... */\n      jump\t// out\n        /* \"contracts/4_Product.sol\":10501:10677  function getActorInfo(address _addr) public view returns\r... */\n    tag_89:\n        /* \"contracts/4_Product.sol\":10566:10576  Role _role */\n      0x00\n        /* \"contracts/4_Product.sol\":10583:10602  string memory _name */\n      0x60\n        /* \"contracts/4_Product.sol\":10622:10628  actors */\n      0x05\n        /* \"contracts/4_Product.sol\":10622:10635  actors[_addr] */\n      0x00\n        /* \"contracts/4_Product.sol\":10629:10634  _addr */\n      dup5\n        /* \"contracts/4_Product.sol\":10622:10635  actors[_addr] */\n      0xffffffffffffffffffffffffffffffffffffffff\n      and\n      0xffffffffffffffffffffffffffffffffffffffff\n      and\n      dup2\n      mstore\n      0x20\n      add\n      swap1\n      dup2\n      mstore\n      0x20\n      add\n      0x00\n      keccak256\n        /* \"contracts/4_Product.sol\":10622:10640  actors[_addr].role */\n      0x00\n      add\n      0x00\n      swap1\n      sload\n      swap1\n      0x0100\n      exp\n      swap1\n      div\n      0xff\n      and\n        /* \"contracts/4_Product.sol\":10614:10640  _role = actors[_addr].role */\n      swap2\n      pop\n        /* \"contracts/4_Product.sol\":10655:10661  actors */\n      0x05\n        /* \"contracts/4_Product.sol\":10655:10668  actors[_addr] */\n      0x00\n        /* \"contracts/4_Product.sol\":10662:10667  _addr */\n      dup5\n        /* \"contracts/4_Product.sol\":10655:10668  actors[_addr] */\n      0xffffffffffffffffffffffffffffffffffffffff\n      and\n      0xffffffffffffffffffffffffffffffffffffffff\n      and\n      dup2\n      mstore\n      0x20\n      add\n      swap1\n      dup2\n      mstore\n      0x20\n      add\n      0x00\n      keccak256\n        /* \"contracts/4_Product.sol\":10655:10673  actors[_addr].name */\n      0x01\n      add\n        /* \"contracts/4_Product.sol\":10647:10673  _name = actors[_addr].name */\n      dup1\n      sload\n      tag_288\n      swap1\n      tag_104\n      jump\t// in\n    tag_288:\n      dup1\n      0x1f\n      add\n      0x20\n      dup1\n      swap2\n      div\n      mul\n      0x20\n      add\n      mload(0x40)\n      swap1\n      dup2\n      add\n      0x40\n      mstore\n      dup1\n      swap3\n      swap2\n      swap1\n      dup2\n      dup2\n      mstore\n      0x20\n      add\n      dup3\n      dup1\n      sload\n      tag_289\n      swap1\n      tag_104\n      jump\t// in\n    tag_289:\n      dup1\n      iszero\n      tag_290\n      jumpi\n      dup1\n      0x1f\n      lt\n      tag_291\n      jumpi\n      0x0100\n      dup1\n      dup4\n      sload\n      div\n      mul\n      dup4\n      mstore\n      swap2\n      0x20\n      add\n      swap2\n      jump(tag_290)\n    tag_291:\n      dup3\n      add\n      swap2\n      swap1\n      0x00\n      mstore\n      keccak256(0x00, 0x20)\n      swap1\n    tag_292:\n      dup2\n      sload\n      dup2\n      mstore\n      swap1\n      0x01\n      add\n      swap1\n      0x20\n      add\n      dup1\n      dup4\n      gt\n      tag_292\n      jumpi\n      dup3\n      swap1\n      sub\n      0x1f\n      and\n      dup3\n      add\n      swap2\n    tag_290:\n      pop\n      pop\n      pop\n      pop\n      pop\n      swap1\n      pop\n        /* \"contracts/4_Product.sol\":10501:10677  function getActorInfo(address _addr) public view returns\r... */\n      swap2\n      pop\n      swap2\n      jump\t// out\n        /* \"contracts/4_Product.sol\":3853:3959  function etherBalance(address _addr) public view returns (uint256) {\r... */\n    tag_95:\n        /* \"contracts/4_Product.sol\":3911:3918  uint256 */\n      0x00\n        /* \"contracts/4_Product.sol\":3938:3943  _addr */\n      dup2\n        /* \"contracts/4_Product.sol\":3938:3951  _addr.balance */\n      0xffffffffffffffffffffffffffffffffffffffff\n      and\n      balance\n        /* \"contracts/4_Product.sol\":3931:3951  return _addr.balance */\n      swap1\n      pop\n        /* \"contracts/4_Product.sol\":3853:3959  function etherBalance(address _addr) public view returns (uint256) {\r... */\n      swap2\n      swap1\n      pop\n      jump\t// out\n        /* \"contracts/4_Product.sol\":3679:3787  function tokenBalance(address _addr) public view returns (uint256) {\r... */\n    tag_101:\n        /* \"contracts/4_Product.sol\":3737:3744  uint256 */\n      0x00\n        /* \"contracts/4_Product.sol\":3764:3772  balances */\n      0x04\n        /* \"contracts/4_Product.sol\":3764:3779  balances[_addr] */\n      0x00\n        /* \"contracts/4_Product.sol\":3773:3778  _addr */\n      dup4\n        /* \"contracts/4_Product.sol\":3764:3779  balances[_addr] */\n      0xffffffffffffffffffffffffffffffffffffffff\n      and\n      0xffffffffffffffffffffffffffffffffffffffff\n      and\n      dup2\n      mstore\n      0x20\n      add\n      swap1\n      dup2\n      mstore\n      0x20\n      add\n      0x00\n      keccak256\n      sload\n        /* \"contracts/4_Product.sol\":3757:3779  return balances[_addr] */\n      swap1\n      pop\n        /* \"contracts/4_Product.sol\":3679:3787  function tokenBalance(address _addr) public view returns (uint256) {\r... */\n      swap2\n      swap1\n      pop\n      jump\t// out\n    tag_136:\n      dup3\n      dup1\n      sload\n      tag_295\n      swap1\n      tag_104\n      jump\t// in\n    tag_295:\n      swap1\n      0x00\n      mstore\n      keccak256(0x00, 0x20)\n      swap1\n      0x1f\n      add\n      0x20\n      swap1\n      div\n      dup2\n      add\n      swap3\n      dup3\n      tag_297\n      jumpi\n      0x00\n      dup6\n      sstore\n      jump(tag_296)\n    tag_297:\n      dup3\n      0x1f\n      lt\n      tag_298\n      jumpi\n      dup1\n      mload\n      not(0xff)\n      and\n      dup4\n      dup1\n      add\n      or\n      dup6\n      sstore\n      jump(tag_296)\n    tag_298:\n      dup3\n      dup1\n      add\n      0x01\n      add\n      dup6\n      sstore\n      dup3\n      iszero\n      tag_296\n      jumpi\n      swap2\n      dup3\n      add\n    tag_299:\n      dup3\n      dup2\n      gt\n      iszero\n      tag_300\n      jumpi\n      dup3\n      mload\n      dup3\n      sstore\n      swap2\n      0x20\n      add\n      swap2\n      swap1\n      0x01\n      add\n      swap1\n      jump(tag_299)\n    tag_300:\n    tag_296:\n      pop\n      swap1\n      pop\n      tag_301\n      swap2\n      swap1\n      tag_302\n      jump\t// in\n    tag_301:\n      pop\n      swap1\n      jump\t// out\n    tag_223:\n      mload(0x40)\n      dup1\n      0xe0\n      add\n      0x40\n      mstore\n      dup1\n      0x60\n      dup2\n      mstore\n      0x20\n      add\n      0x60\n      dup2\n      mstore\n      0x20\n      add\n      0x60\n      dup2\n      mstore\n      0x20\n      add\n      0x60\n      dup2\n      mstore\n      0x20\n      add\n      0x60\n      dup2\n      mstore\n      0x20\n      add\n      0x60\n      dup2\n      mstore\n      0x20\n      add\n      0x60\n      dup2\n      mstore\n      pop\n      swap1\n      jump\t// out\n    tag_302:\n    tag_303:\n      dup1\n      dup3\n      gt\n      iszero\n      tag_304\n      jumpi\n      0x00\n      dup2\n      0x00\n      swap1\n      sstore\n      pop\n      0x01\n      add\n      jump(tag_303)\n    tag_304:\n      pop\n      swap1\n      jump\t// out\n        /* \"#utility.yul\":7:419   */\n    tag_306:\n        /* \"#utility.yul\":85:90   */\n      0x00\n        /* \"#utility.yul\":110:176   */\n      tag_308\n        /* \"#utility.yul\":126:175   */\n      tag_309\n        /* \"#utility.yul\":168:174   */\n      dup5\n        /* \"#utility.yul\":126:175   */\n      tag_310\n      jump\t// in\n    tag_309:\n        /* \"#utility.yul\":110:176   */\n      tag_311\n      jump\t// in\n    tag_308:\n        /* \"#utility.yul\":101:176   */\n      swap1\n      pop\n        /* \"#utility.yul\":199:205   */\n      dup3\n        /* \"#utility.yul\":192:197   */\n      dup2\n        /* \"#utility.yul\":185:206   */\n      mstore\n        /* \"#utility.yul\":237:241   */\n      0x20\n        /* \"#utility.yul\":230:235   */\n      dup2\n        /* \"#utility.yul\":226:242   */\n      add\n        /* \"#utility.yul\":275:278   */\n      dup5\n        /* \"#utility.yul\":266:272   */\n      dup5\n        /* \"#utility.yul\":261:264   */\n      dup5\n        /* \"#utility.yul\":257:273   */\n      add\n        /* \"#utility.yul\":254:279   */\n      gt\n        /* \"#utility.yul\":251:363   */\n      iszero\n      tag_312\n      jumpi\n        /* \"#utility.yul\":282:361   */\n      tag_313\n      tag_314\n      jump\t// in\n    tag_313:\n        /* \"#utility.yul\":251:363   */\n    tag_312:\n        /* \"#utility.yul\":372:413   */\n      tag_315\n        /* \"#utility.yul\":406:412   */\n      dup5\n        /* \"#utility.yul\":401:404   */\n      dup3\n        /* \"#utility.yul\":396:399   */\n      dup6\n        /* \"#utility.yul\":372:413   */\n      tag_316\n      jump\t// in\n    tag_315:\n        /* \"#utility.yul\":91:419   */\n      pop\n        /* \"#utility.yul\":7:419   */\n      swap4\n      swap3\n      pop\n      pop\n      pop\n      jump\t// out\n        /* \"#utility.yul\":425:564   */\n    tag_317:\n        /* \"#utility.yul\":471:476   */\n      0x00\n        /* \"#utility.yul\":509:515   */\n      dup2\n        /* \"#utility.yul\":496:516   */\n      calldataload\n        /* \"#utility.yul\":487:516   */\n      swap1\n      pop\n        /* \"#utility.yul\":525:558   */\n      tag_319\n        /* \"#utility.yul\":552:557   */\n      dup2\n        /* \"#utility.yul\":525:558   */\n      tag_320\n      jump\t// in\n    tag_319:\n        /* \"#utility.yul\":425:564   */\n      swap3\n      swap2\n      pop\n      pop\n      jump\t// out\n        /* \"#utility.yul\":570:723   */\n    tag_321:\n        /* \"#utility.yul\":623:628   */\n      0x00\n        /* \"#utility.yul\":661:667   */\n      dup2\n        /* \"#utility.yul\":648:668   */\n      calldataload\n        /* \"#utility.yul\":639:668   */\n      swap1\n      pop\n        /* \"#utility.yul\":677:717   */\n      tag_323\n        /* \"#utility.yul\":711:716   */\n      dup2\n        /* \"#utility.yul\":677:717   */\n      tag_324\n      jump\t// in\n    tag_323:\n        /* \"#utility.yul\":570:723   */\n      swap3\n      swap2\n      pop\n      pop\n      jump\t// out\n        /* \"#utility.yul\":743:1083   */\n    tag_325:\n        /* \"#utility.yul\":799:804   */\n      0x00\n        /* \"#utility.yul\":848:851   */\n      dup3\n        /* \"#utility.yul\":841:845   */\n      0x1f\n        /* \"#utility.yul\":833:839   */\n      dup4\n        /* \"#utility.yul\":829:846   */\n      add\n        /* \"#utility.yul\":825:852   */\n      slt\n        /* \"#utility.yul\":815:937   */\n      tag_327\n      jumpi\n        /* \"#utility.yul\":856:935   */\n      tag_328\n      tag_329\n      jump\t// in\n    tag_328:\n        /* \"#utility.yul\":815:937   */\n    tag_327:\n        /* \"#utility.yul\":973:979   */\n      dup2\n        /* \"#utility.yul\":960:980   */\n      calldataload\n        /* \"#utility.yul\":998:1077   */\n      tag_330\n        /* \"#utility.yul\":1073:1076   */\n      dup5\n        /* \"#utility.yul\":1065:1071   */\n      dup3\n        /* \"#utility.yul\":1058:1062   */\n      0x20\n        /* \"#utility.yul\":1050:1056   */\n      dup7\n        /* \"#utility.yul\":1046:1063   */\n      add\n        /* \"#utility.yul\":998:1077   */\n      tag_306\n      jump\t// in\n    tag_330:\n        /* \"#utility.yul\":989:1077   */\n      swap2\n      pop\n        /* \"#utility.yul\":805:1083   */\n      pop\n        /* \"#utility.yul\":743:1083   */\n      swap3\n      swap2\n      pop\n      pop\n      jump\t// out\n        /* \"#utility.yul\":1121:3699   */\n    tag_331:\n        /* \"#utility.yul\":1193:1198   */\n      0x00\n        /* \"#utility.yul\":1237:1241   */\n      0xe0\n        /* \"#utility.yul\":1225:1234   */\n      dup3\n        /* \"#utility.yul\":1220:1223   */\n      dup5\n        /* \"#utility.yul\":1216:1235   */\n      sub\n        /* \"#utility.yul\":1212:1242   */\n      slt\n        /* \"#utility.yul\":1209:1326   */\n      iszero\n      tag_333\n      jumpi\n        /* \"#utility.yul\":1245:1324   */\n      tag_334\n      tag_335\n      jump\t// in\n    tag_334:\n        /* \"#utility.yul\":1209:1326   */\n    tag_333:\n        /* \"#utility.yul\":1344:1365   */\n      tag_336\n        /* \"#utility.yul\":1360:1364   */\n      0xe0\n        /* \"#utility.yul\":1344:1365   */\n      tag_311\n      jump\t// in\n    tag_336:\n        /* \"#utility.yul\":1335:1365   */\n      swap1\n      pop\n        /* \"#utility.yul\":1452:1453   */\n      0x00\n        /* \"#utility.yul\":1441:1450   */\n      dup3\n        /* \"#utility.yul\":1437:1454   */\n      add\n        /* \"#utility.yul\":1424:1455   */\n      calldataload\n        /* \"#utility.yul\":1482:1500   */\n      0xffffffffffffffff\n        /* \"#utility.yul\":1474:1480   */\n      dup2\n        /* \"#utility.yul\":1471:1501   */\n      gt\n        /* \"#utility.yul\":1468:1585   */\n      iszero\n      tag_337\n      jumpi\n        /* \"#utility.yul\":1504:1583   */\n      tag_338\n      tag_339\n      jump\t// in\n    tag_338:\n        /* \"#utility.yul\":1468:1585   */\n    tag_337:\n        /* \"#utility.yul\":1624:1683   */\n      tag_340\n        /* \"#utility.yul\":1679:1682   */\n      dup5\n        /* \"#utility.yul\":1670:1676   */\n      dup3\n        /* \"#utility.yul\":1659:1668   */\n      dup6\n        /* \"#utility.yul\":1655:1677   */\n      add\n        /* \"#utility.yul\":1624:1683   */\n      tag_325\n      jump\t// in\n    tag_340:\n        /* \"#utility.yul\":1617:1621   */\n      0x00\n        /* \"#utility.yul\":1610:1615   */\n      dup4\n        /* \"#utility.yul\":1606:1622   */\n      add\n        /* \"#utility.yul\":1599:1684   */\n      mstore\n        /* \"#utility.yul\":1375:1695   */\n      pop\n        /* \"#utility.yul\":1783:1785   */\n      0x20\n        /* \"#utility.yul\":1772:1781   */\n      dup3\n        /* \"#utility.yul\":1768:1786   */\n      add\n        /* \"#utility.yul\":1755:1787   */\n      calldataload\n        /* \"#utility.yul\":1814:1832   */\n      0xffffffffffffffff\n        /* \"#utility.yul\":1806:1812   */\n      dup2\n        /* \"#utility.yul\":1803:1833   */\n      gt\n        /* \"#utility.yul\":1800:1917   */\n      iszero\n      tag_341\n      jumpi\n        /* \"#utility.yul\":1836:1915   */\n      tag_342\n      tag_339\n      jump\t// in\n    tag_342:\n        /* \"#utility.yul\":1800:1917   */\n    tag_341:\n        /* \"#utility.yul\":1956:2015   */\n      tag_343\n        /* \"#utility.yul\":2011:2014   */\n      dup5\n        /* \"#utility.yul\":2002:2008   */\n      dup3\n        /* \"#utility.yul\":1991:2000   */\n      dup6\n        /* \"#utility.yul\":1987:2009   */\n      add\n        /* \"#utility.yul\":1956:2015   */\n      tag_325\n      jump\t// in\n    tag_343:\n        /* \"#utility.yul\":1949:1953   */\n      0x20\n        /* \"#utility.yul\":1942:1947   */\n      dup4\n        /* \"#utility.yul\":1938:1954   */\n      add\n        /* \"#utility.yul\":1931:2016   */\n      mstore\n        /* \"#utility.yul\":1705:2027   */\n      pop\n        /* \"#utility.yul\":2114:2116   */\n      0x40\n        /* \"#utility.yul\":2103:2112   */\n      dup3\n        /* \"#utility.yul\":2099:2117   */\n      add\n        /* \"#utility.yul\":2086:2118   */\n      calldataload\n        /* \"#utility.yul\":2145:2163   */\n      0xffffffffffffffff\n        /* \"#utility.yul\":2137:2143   */\n      dup2\n        /* \"#utility.yul\":2134:2164   */\n      gt\n        /* \"#utility.yul\":2131:2248   */\n      iszero\n      tag_344\n      jumpi\n        /* \"#utility.yul\":2167:2246   */\n      tag_345\n      tag_339\n      jump\t// in\n    tag_345:\n        /* \"#utility.yul\":2131:2248   */\n    tag_344:\n        /* \"#utility.yul\":2287:2346   */\n      tag_346\n        /* \"#utility.yul\":2342:2345   */\n      dup5\n        /* \"#utility.yul\":2333:2339   */\n      dup3\n        /* \"#utility.yul\":2322:2331   */\n      dup6\n        /* \"#utility.yul\":2318:2340   */\n      add\n        /* \"#utility.yul\":2287:2346   */\n      tag_325\n      jump\t// in\n    tag_346:\n        /* \"#utility.yul\":2280:2284   */\n      0x40\n        /* \"#utility.yul\":2273:2278   */\n      dup4\n        /* \"#utility.yul\":2269:2285   */\n      add\n        /* \"#utility.yul\":2262:2347   */\n      mstore\n        /* \"#utility.yul\":2037:2358   */\n      pop\n        /* \"#utility.yul\":2447:2449   */\n      0x60\n        /* \"#utility.yul\":2436:2445   */\n      dup3\n        /* \"#utility.yul\":2432:2450   */\n      add\n        /* \"#utility.yul\":2419:2451   */\n      calldataload\n        /* \"#utility.yul\":2478:2496   */\n      0xffffffffffffffff\n        /* \"#utility.yul\":2470:2476   */\n      dup2\n        /* \"#utility.yul\":2467:2497   */\n      gt\n        /* \"#utility.yul\":2464:2581   */\n      iszero\n      tag_347\n      jumpi\n        /* \"#utility.yul\":2500:2579   */\n      tag_348\n      tag_339\n      jump\t// in\n    tag_348:\n        /* \"#utility.yul\":2464:2581   */\n    tag_347:\n        /* \"#utility.yul\":2620:2679   */\n      tag_349\n        /* \"#utility.yul\":2675:2678   */\n      dup5\n        /* \"#utility.yul\":2666:2672   */\n      dup3\n        /* \"#utility.yul\":2655:2664   */\n      dup6\n        /* \"#utility.yul\":2651:2673   */\n      add\n        /* \"#utility.yul\":2620:2679   */\n      tag_325\n      jump\t// in\n    tag_349:\n        /* \"#utility.yul\":2613:2617   */\n      0x60\n        /* \"#utility.yul\":2606:2611   */\n      dup4\n        /* \"#utility.yul\":2602:2618   */\n      add\n        /* \"#utility.yul\":2595:2680   */\n      mstore\n        /* \"#utility.yul\":2368:2691   */\n      pop\n        /* \"#utility.yul\":2780:2783   */\n      0x80\n        /* \"#utility.yul\":2769:2778   */\n      dup3\n        /* \"#utility.yul\":2765:2784   */\n      add\n        /* \"#utility.yul\":2752:2785   */\n      calldataload\n        /* \"#utility.yul\":2812:2830   */\n      0xffffffffffffffff\n        /* \"#utility.yul\":2804:2810   */\n      dup2\n        /* \"#utility.yul\":2801:2831   */\n      gt\n        /* \"#utility.yul\":2798:2915   */\n      iszero\n      tag_350\n      jumpi\n        /* \"#utility.yul\":2834:2913   */\n      tag_351\n      tag_339\n      jump\t// in\n    tag_351:\n        /* \"#utility.yul\":2798:2915   */\n    tag_350:\n        /* \"#utility.yul\":2954:3013   */\n      tag_352\n        /* \"#utility.yul\":3009:3012   */\n      dup5\n        /* \"#utility.yul\":3000:3006   */\n      dup3\n        /* \"#utility.yul\":2989:2998   */\n      dup6\n        /* \"#utility.yul\":2985:3007   */\n      add\n        /* \"#utility.yul\":2954:3013   */\n      tag_325\n      jump\t// in\n    tag_352:\n        /* \"#utility.yul\":2947:2951   */\n      0x80\n        /* \"#utility.yul\":2940:2945   */\n      dup4\n        /* \"#utility.yul\":2936:2952   */\n      add\n        /* \"#utility.yul\":2929:3014   */\n      mstore\n        /* \"#utility.yul\":2701:3025   */\n      pop\n        /* \"#utility.yul\":3113:3116   */\n      0xa0\n        /* \"#utility.yul\":3102:3111   */\n      dup3\n        /* \"#utility.yul\":3098:3117   */\n      add\n        /* \"#utility.yul\":3085:3118   */\n      calldataload\n        /* \"#utility.yul\":3145:3163   */\n      0xffffffffffffffff\n        /* \"#utility.yul\":3137:3143   */\n      dup2\n        /* \"#utility.yul\":3134:3164   */\n      gt\n        /* \"#utility.yul\":3131:3248   */\n      iszero\n      tag_353\n      jumpi\n        /* \"#utility.yul\":3167:3246   */\n      tag_354\n      tag_339\n      jump\t// in\n    tag_354:\n        /* \"#utility.yul\":3131:3248   */\n    tag_353:\n        /* \"#utility.yul\":3287:3346   */\n      tag_355\n        /* \"#utility.yul\":3342:3345   */\n      dup5\n        /* \"#utility.yul\":3333:3339   */\n      dup3\n        /* \"#utility.yul\":3322:3331   */\n      dup6\n        /* \"#utility.yul\":3318:3340   */\n      add\n        /* \"#utility.yul\":3287:3346   */\n      tag_325\n      jump\t// in\n    tag_355:\n        /* \"#utility.yul\":3280:3284   */\n      0xa0\n        /* \"#utility.yul\":3273:3278   */\n      dup4\n        /* \"#utility.yul\":3269:3285   */\n      add\n        /* \"#utility.yul\":3262:3347   */\n      mstore\n        /* \"#utility.yul\":3035:3358   */\n      pop\n        /* \"#utility.yul\":3447:3450   */\n      0xc0\n        /* \"#utility.yul\":3436:3445   */\n      dup3\n        /* \"#utility.yul\":3432:3451   */\n      add\n        /* \"#utility.yul\":3419:3452   */\n      calldataload\n        /* \"#utility.yul\":3479:3497   */\n      0xffffffffffffffff\n        /* \"#utility.yul\":3471:3477   */\n      dup2\n        /* \"#utility.yul\":3468:3498   */\n      gt\n        /* \"#utility.yul\":3465:3582   */\n      iszero\n      tag_356\n      jumpi\n        /* \"#utility.yul\":3501:3580   */\n      tag_357\n      tag_339\n      jump\t// in\n    tag_357:\n        /* \"#utility.yul\":3465:3582   */\n    tag_356:\n        /* \"#utility.yul\":3621:3680   */\n      tag_358\n        /* \"#utility.yul\":3676:3679   */\n      dup5\n        /* \"#utility.yul\":3667:3673   */\n      dup3\n        /* \"#utility.yul\":3656:3665   */\n      dup6\n        /* \"#utility.yul\":3652:3674   */\n      add\n        /* \"#utility.yul\":3621:3680   */\n      tag_325\n      jump\t// in\n    tag_358:\n        /* \"#utility.yul\":3614:3618   */\n      0xc0\n        /* \"#utility.yul\":3607:3612   */\n      dup4\n        /* \"#utility.yul\":3603:3619   */\n      add\n        /* \"#utility.yul\":3596:3681   */\n      mstore\n        /* \"#utility.yul\":3368:3692   */\n      pop\n        /* \"#utility.yul\":1121:3699   */\n      swap3\n      swap2\n      pop\n      pop\n      jump\t// out\n        /* \"#utility.yul\":3705:3844   */\n    tag_359:\n        /* \"#utility.yul\":3751:3756   */\n      0x00\n        /* \"#utility.yul\":3789:3795   */\n      dup2\n        /* \"#utility.yul\":3776:3796   */\n      calldataload\n        /* \"#utility.yul\":3767:3796   */\n      swap1\n      pop\n        /* \"#utility.yul\":3805:3838   */\n      tag_361\n        /* \"#utility.yul\":3832:3837   */\n      dup2\n        /* \"#utility.yul\":3805:3838   */\n      tag_362\n      jump\t// in\n    tag_361:\n        /* \"#utility.yul\":3705:3844   */\n      swap3\n      swap2\n      pop\n      pop\n      jump\t// out\n        /* \"#utility.yul\":3850:4179   */\n    tag_88:\n        /* \"#utility.yul\":3909:3915   */\n      0x00\n        /* \"#utility.yul\":3958:3960   */\n      0x20\n        /* \"#utility.yul\":3946:3955   */\n      dup3\n        /* \"#utility.yul\":3937:3944   */\n      dup5\n        /* \"#utility.yul\":3933:3956   */\n      sub\n        /* \"#utility.yul\":3929:3961   */\n      slt\n        /* \"#utility.yul\":3926:4045   */\n      iszero\n      tag_364\n      jumpi\n        /* \"#utility.yul\":3964:4043   */\n      tag_365\n      tag_366\n      jump\t// in\n    tag_365:\n        /* \"#utility.yul\":3926:4045   */\n    tag_364:\n        /* \"#utility.yul\":4084:4085   */\n      0x00\n        /* \"#utility.yul\":4109:4162   */\n      tag_367\n        /* \"#utility.yul\":4154:4161   */\n      dup5\n        /* \"#utility.yul\":4145:4151   */\n      dup3\n        /* \"#utility.yul\":4134:4143   */\n      dup6\n        /* \"#utility.yul\":4130:4152   */\n      add\n        /* \"#utility.yul\":4109:4162   */\n      tag_317\n      jump\t// in\n    tag_367:\n        /* \"#utility.yul\":4099:4162   */\n      swap2\n      pop\n        /* \"#utility.yul\":4055:4172   */\n      pop\n        /* \"#utility.yul\":3850:4179   */\n      swap3\n      swap2\n      pop\n      pop\n      jump\t// out\n        /* \"#utility.yul\":4185:4998   */\n    tag_34:\n        /* \"#utility.yul\":4279:4285   */\n      0x00\n        /* \"#utility.yul\":4287:4293   */\n      dup1\n        /* \"#utility.yul\":4295:4301   */\n      0x00\n        /* \"#utility.yul\":4344:4346   */\n      0x60\n        /* \"#utility.yul\":4332:4341   */\n      dup5\n        /* \"#utility.yul\":4323:4330   */\n      dup7\n        /* \"#utility.yul\":4319:4342   */\n      sub\n        /* \"#utility.yul\":4315:4347   */\n      slt\n        /* \"#utility.yul\":4312:4431   */\n      iszero\n      tag_369\n      jumpi\n        /* \"#utility.yul\":4350:4429   */\n      tag_370\n      tag_366\n      jump\t// in\n    tag_370:\n        /* \"#utility.yul\":4312:4431   */\n    tag_369:\n        /* \"#utility.yul\":4470:4471   */\n      0x00\n        /* \"#utility.yul\":4495:4548   */\n      tag_371\n        /* \"#utility.yul\":4540:4547   */\n      dup7\n        /* \"#utility.yul\":4531:4537   */\n      dup3\n        /* \"#utility.yul\":4520:4529   */\n      dup8\n        /* \"#utility.yul\":4516:4538   */\n      add\n        /* \"#utility.yul\":4495:4548   */\n      tag_317\n      jump\t// in\n    tag_371:\n        /* \"#utility.yul\":4485:4548   */\n      swap4\n      pop\n        /* \"#utility.yul\":4441:4558   */\n      pop\n        /* \"#utility.yul\":4597:4599   */\n      0x20\n        /* \"#utility.yul\":4623:4683   */\n      tag_372\n        /* \"#utility.yul\":4675:4682   */\n      dup7\n        /* \"#utility.yul\":4666:4672   */\n      dup3\n        /* \"#utility.yul\":4655:4664   */\n      dup8\n        /* \"#utility.yul\":4651:4673   */\n      add\n        /* \"#utility.yul\":4623:4683   */\n      tag_321\n      jump\t// in\n    tag_372:\n        /* \"#utility.yul\":4613:4683   */\n      swap3\n      pop\n        /* \"#utility.yul\":4568:4693   */\n      pop\n        /* \"#utility.yul\":4760:4762   */\n      0x40\n        /* \"#utility.yul\":4749:4758   */\n      dup5\n        /* \"#utility.yul\":4745:4763   */\n      add\n        /* \"#utility.yul\":4732:4764   */\n      calldataload\n        /* \"#utility.yul\":4791:4809   */\n      0xffffffffffffffff\n        /* \"#utility.yul\":4783:4789   */\n      dup2\n        /* \"#utility.yul\":4780:4810   */\n      gt\n        /* \"#utility.yul\":4777:4894   */\n      iszero\n      tag_373\n      jumpi\n        /* \"#utility.yul\":4813:4892   */\n      tag_374\n      tag_375\n      jump\t// in\n    tag_374:\n        /* \"#utility.yul\":4777:4894   */\n    tag_373:\n        /* \"#utility.yul\":4918:4981   */\n      tag_376\n        /* \"#utility.yul\":4973:4980   */\n      dup7\n        /* \"#utility.yul\":4964:4970   */\n      dup3\n        /* \"#utility.yul\":4953:4962   */\n      dup8\n        /* \"#utility.yul\":4949:4971   */\n      add\n        /* \"#utility.yul\":4918:4981   */\n      tag_325\n      jump\t// in\n    tag_376:\n        /* \"#utility.yul\":4908:4981   */\n      swap2\n      pop\n        /* \"#utility.yul\":4703:4991   */\n      pop\n        /* \"#utility.yul\":4185:4998   */\n      swap3\n      pop\n      swap3\n      pop\n      swap3\n      jump\t// out\n        /* \"#utility.yul\":5004:5478   */\n    tag_56:\n        /* \"#utility.yul\":5072:5078   */\n      0x00\n        /* \"#utility.yul\":5080:5086   */\n      dup1\n        /* \"#utility.yul\":5129:5131   */\n      0x40\n        /* \"#utility.yul\":5117:5126   */\n      dup4\n        /* \"#utility.yul\":5108:5115   */\n      dup6\n        /* \"#utility.yul\":5104:5127   */\n      sub\n        /* \"#utility.yul\":5100:5132   */\n      slt\n        /* \"#utility.yul\":5097:5216   */\n      iszero\n      tag_378\n      jumpi\n        /* \"#utility.yul\":5135:5214   */\n      tag_379\n      tag_366\n      jump\t// in\n    tag_379:\n        /* \"#utility.yul\":5097:5216   */\n    tag_378:\n        /* \"#utility.yul\":5255:5256   */\n      0x00\n        /* \"#utility.yul\":5280:5333   */\n      tag_380\n        /* \"#utility.yul\":5325:5332   */\n      dup6\n        /* \"#utility.yul\":5316:5322   */\n      dup3\n        /* \"#utility.yul\":5305:5314   */\n      dup7\n        /* \"#utility.yul\":5301:5323   */\n      add\n        /* \"#utility.yul\":5280:5333   */\n      tag_317\n      jump\t// in\n    tag_380:\n        /* \"#utility.yul\":5270:5333   */\n      swap3\n      pop\n        /* \"#utility.yul\":5226:5343   */\n      pop\n        /* \"#utility.yul\":5382:5384   */\n      0x20\n        /* \"#utility.yul\":5408:5461   */\n      tag_381\n        /* \"#utility.yul\":5453:5460   */\n      dup6\n        /* \"#utility.yul\":5444:5450   */\n      dup3\n        /* \"#utility.yul\":5433:5442   */\n      dup7\n        /* \"#utility.yul\":5429:5451   */\n      add\n        /* \"#utility.yul\":5408:5461   */\n      tag_359\n      jump\t// in\n    tag_381:\n        /* \"#utility.yul\":5398:5461   */\n      swap2\n      pop\n        /* \"#utility.yul\":5353:5471   */\n      pop\n        /* \"#utility.yul\":5004:5478   */\n      swap3\n      pop\n      swap3\n      swap1\n      pop\n      jump\t// out\n        /* \"#utility.yul\":5484:5813   */\n    tag_49:\n        /* \"#utility.yul\":5543:5549   */\n      0x00\n        /* \"#utility.yul\":5592:5594   */\n      0x20\n        /* \"#utility.yul\":5580:5589   */\n      dup3\n        /* \"#utility.yul\":5571:5578   */\n      dup5\n        /* \"#utility.yul\":5567:5590   */\n      sub\n        /* \"#utility.yul\":5563:5595   */\n      slt\n        /* \"#utility.yul\":5560:5679   */\n      iszero\n      tag_383\n      jumpi\n        /* \"#utility.yul\":5598:5677   */\n      tag_384\n      tag_366\n      jump\t// in\n    tag_384:\n        /* \"#utility.yul\":5560:5679   */\n    tag_383:\n        /* \"#utility.yul\":5718:5719   */\n      0x00\n        /* \"#utility.yul\":5743:5796   */\n      tag_385\n        /* \"#utility.yul\":5788:5795   */\n      dup5\n        /* \"#utility.yul\":5779:5785   */\n      dup3\n        /* \"#utility.yul\":5768:5777   */\n      dup6\n        /* \"#utility.yul\":5764:5786   */\n      add\n        /* \"#utility.yul\":5743:5796   */\n      tag_359\n      jump\t// in\n    tag_385:\n        /* \"#utility.yul\":5733:5796   */\n      swap2\n      pop\n        /* \"#utility.yul\":5689:5806   */\n      pop\n        /* \"#utility.yul\":5484:5813   */\n      swap3\n      swap2\n      pop\n      pop\n      jump\t// out\n        /* \"#utility.yul\":5819:6499   */\n    tag_29:\n        /* \"#utility.yul\":5910:5916   */\n      0x00\n        /* \"#utility.yul\":5918:5924   */\n      dup1\n        /* \"#utility.yul\":5967:5969   */\n      0x40\n        /* \"#utility.yul\":5955:5964   */\n      dup4\n        /* \"#utility.yul\":5946:5953   */\n      dup6\n        /* \"#utility.yul\":5942:5965   */\n      sub\n        /* \"#utility.yul\":5938:5970   */\n      slt\n        /* \"#utility.yul\":5935:6054   */\n      iszero\n      tag_387\n      jumpi\n        /* \"#utility.yul\":5973:6052   */\n      tag_388\n      tag_366\n      jump\t// in\n    tag_388:\n        /* \"#utility.yul\":5935:6054   */\n    tag_387:\n        /* \"#utility.yul\":6093:6094   */\n      0x00\n        /* \"#utility.yul\":6118:6171   */\n      tag_389\n        /* \"#utility.yul\":6163:6170   */\n      dup6\n        /* \"#utility.yul\":6154:6160   */\n      dup3\n        /* \"#utility.yul\":6143:6152   */\n      dup7\n        /* \"#utility.yul\":6139:6161   */\n      add\n        /* \"#utility.yul\":6118:6171   */\n      tag_359\n      jump\t// in\n    tag_389:\n        /* \"#utility.yul\":6108:6171   */\n      swap3\n      pop\n        /* \"#utility.yul\":6064:6181   */\n      pop\n        /* \"#utility.yul\":6248:6250   */\n      0x20\n        /* \"#utility.yul\":6237:6246   */\n      dup4\n        /* \"#utility.yul\":6233:6251   */\n      add\n        /* \"#utility.yul\":6220:6252   */\n      calldataload\n        /* \"#utility.yul\":6279:6297   */\n      0xffffffffffffffff\n        /* \"#utility.yul\":6271:6277   */\n      dup2\n        /* \"#utility.yul\":6268:6298   */\n      gt\n        /* \"#utility.yul\":6265:6382   */\n      iszero\n      tag_390\n      jumpi\n        /* \"#utility.yul\":6301:6380   */\n      tag_391\n      tag_375\n      jump\t// in\n    tag_391:\n        /* \"#utility.yul\":6265:6382   */\n    tag_390:\n        /* \"#utility.yul\":6406:6482   */\n      tag_392\n        /* \"#utility.yul\":6474:6481   */\n      dup6\n        /* \"#utility.yul\":6465:6471   */\n      dup3\n        /* \"#utility.yul\":6454:6463   */\n      dup7\n        /* \"#utility.yul\":6450:6472   */\n      add\n        /* \"#utility.yul\":6406:6482   */\n      tag_331\n      jump\t// in\n    tag_392:\n        /* \"#utility.yul\":6396:6482   */\n      swap2\n      pop\n        /* \"#utility.yul\":6191:6492   */\n      pop\n        /* \"#utility.yul\":5819:6499   */\n      swap3\n      pop\n      swap3\n      swap1\n      pop\n      jump\t// out\n        /* \"#utility.yul\":6505:6979   */\n    tag_39:\n        /* \"#utility.yul\":6573:6579   */\n      0x00\n        /* \"#utility.yul\":6581:6587   */\n      dup1\n        /* \"#utility.yul\":6630:6632   */\n      0x40\n        /* \"#utility.yul\":6618:6627   */\n      dup4\n        /* \"#utility.yul\":6609:6616   */\n      dup6\n        /* \"#utility.yul\":6605:6628   */\n      sub\n        /* \"#utility.yul\":6601:6633   */\n      slt\n        /* \"#utility.yul\":6598:6717   */\n      iszero\n      tag_394\n      jumpi\n        /* \"#utility.yul\":6636:6715   */\n      tag_395\n      tag_366\n      jump\t// in\n    tag_395:\n        /* \"#utility.yul\":6598:6717   */\n    tag_394:\n        /* \"#utility.yul\":6756:6757   */\n      0x00\n        /* \"#utility.yul\":6781:6834   */\n      tag_396\n        /* \"#utility.yul\":6826:6833   */\n      dup6\n        /* \"#utility.yul\":6817:6823   */\n      dup3\n        /* \"#utility.yul\":6806:6815   */\n      dup7\n        /* \"#utility.yul\":6802:6824   */\n      add\n        /* \"#utility.yul\":6781:6834   */\n      tag_359\n      jump\t// in\n    tag_396:\n        /* \"#utility.yul\":6771:6834   */\n      swap3\n      pop\n        /* \"#utility.yul\":6727:6844   */\n      pop\n        /* \"#utility.yul\":6883:6885   */\n      0x20\n        /* \"#utility.yul\":6909:6962   */\n      tag_397\n        /* \"#utility.yul\":6954:6961   */\n      dup6\n        /* \"#utility.yul\":6945:6951   */\n      dup3\n        /* \"#utility.yul\":6934:6943   */\n      dup7\n        /* \"#utility.yul\":6930:6952   */\n      add\n        /* \"#utility.yul\":6909:6962   */\n      tag_359\n      jump\t// in\n    tag_397:\n        /* \"#utility.yul\":6899:6962   */\n      swap2\n      pop\n        /* \"#utility.yul\":6854:6972   */\n      pop\n        /* \"#utility.yul\":6505:6979   */\n      swap3\n      pop\n      swap3\n      swap1\n      pop\n      jump\t// out\n        /* \"#utility.yul\":6985:9886   */\n    tag_44:\n        /* \"#utility.yul\":7195:7201   */\n      0x00\n        /* \"#utility.yul\":7203:7209   */\n      dup1\n        /* \"#utility.yul\":7211:7217   */\n      0x00\n        /* \"#utility.yul\":7219:7225   */\n      dup1\n        /* \"#utility.yul\":7227:7233   */\n      0x00\n        /* \"#utility.yul\":7235:7241   */\n      dup1\n        /* \"#utility.yul\":7243:7249   */\n      0x00\n        /* \"#utility.yul\":7251:7257   */\n      dup1\n        /* \"#utility.yul\":7259:7265   */\n      0x00\n        /* \"#utility.yul\":7267:7273   */\n      dup1\n        /* \"#utility.yul\":7316:7319   */\n      0x0140\n        /* \"#utility.yul\":7304:7313   */\n      dup12\n        /* \"#utility.yul\":7295:7302   */\n      dup14\n        /* \"#utility.yul\":7291:7314   */\n      sub\n        /* \"#utility.yul\":7287:7320   */\n      slt\n        /* \"#utility.yul\":7284:7404   */\n      iszero\n      tag_399\n      jumpi\n        /* \"#utility.yul\":7323:7402   */\n      tag_400\n      tag_366\n      jump\t// in\n    tag_400:\n        /* \"#utility.yul\":7284:7404   */\n    tag_399:\n        /* \"#utility.yul\":7443:7444   */\n      0x00\n        /* \"#utility.yul\":7468:7521   */\n      tag_401\n        /* \"#utility.yul\":7513:7520   */\n      dup14\n        /* \"#utility.yul\":7504:7510   */\n      dup3\n        /* \"#utility.yul\":7493:7502   */\n      dup15\n        /* \"#utility.yul\":7489:7511   */\n      add\n        /* \"#utility.yul\":7468:7521   */\n      tag_359\n      jump\t// in\n    tag_401:\n        /* \"#utility.yul\":7458:7521   */\n      swap11\n      pop\n        /* \"#utility.yul\":7414:7531   */\n      pop\n        /* \"#utility.yul\":7570:7572   */\n      0x20\n        /* \"#utility.yul\":7596:7649   */\n      tag_402\n        /* \"#utility.yul\":7641:7648   */\n      dup14\n        /* \"#utility.yul\":7632:7638   */\n      dup3\n        /* \"#utility.yul\":7621:7630   */\n      dup15\n        /* \"#utility.yul\":7617:7639   */\n      add\n        /* \"#utility.yul\":7596:7649   */\n      tag_359\n      jump\t// in\n    tag_402:\n        /* \"#utility.yul\":7586:7649   */\n      swap10\n      pop\n        /* \"#utility.yul\":7541:7659   */\n      pop\n        /* \"#utility.yul\":7698:7700   */\n      0x40\n        /* \"#utility.yul\":7724:7777   */\n      tag_403\n        /* \"#utility.yul\":7769:7776   */\n      dup14\n        /* \"#utility.yul\":7760:7766   */\n      dup3\n        /* \"#utility.yul\":7749:7758   */\n      dup15\n        /* \"#utility.yul\":7745:7767   */\n      add\n        /* \"#utility.yul\":7724:7777   */\n      tag_359\n      jump\t// in\n    tag_403:\n        /* \"#utility.yul\":7714:7777   */\n      swap9\n      pop\n        /* \"#utility.yul\":7669:7787   */\n      pop\n        /* \"#utility.yul\":7854:7856   */\n      0x60\n        /* \"#utility.yul\":7843:7852   */\n      dup12\n        /* \"#utility.yul\":7839:7857   */\n      add\n        /* \"#utility.yul\":7826:7858   */\n      calldataload\n        /* \"#utility.yul\":7885:7903   */\n      0xffffffffffffffff\n        /* \"#utility.yul\":7877:7883   */\n      dup2\n        /* \"#utility.yul\":7874:7904   */\n      gt\n        /* \"#utility.yul\":7871:7988   */\n      iszero\n      tag_404\n      jumpi\n        /* \"#utility.yul\":7907:7986   */\n      tag_405\n      tag_375\n      jump\t// in\n    tag_405:\n        /* \"#utility.yul\":7871:7988   */\n    tag_404:\n        /* \"#utility.yul\":8012:8075   */\n      tag_406\n        /* \"#utility.yul\":8067:8074   */\n      dup14\n        /* \"#utility.yul\":8058:8064   */\n      dup3\n        /* \"#utility.yul\":8047:8056   */\n      dup15\n        /* \"#utility.yul\":8043:8065   */\n      add\n        /* \"#utility.yul\":8012:8075   */\n      tag_325\n      jump\t// in\n    tag_406:\n        /* \"#utility.yul\":8002:8075   */\n      swap8\n      pop\n        /* \"#utility.yul\":7797:8085   */\n      pop\n        /* \"#utility.yul\":8152:8155   */\n      0x80\n        /* \"#utility.yul\":8141:8150   */\n      dup12\n        /* \"#utility.yul\":8137:8156   */\n      add\n        /* \"#utility.yul\":8124:8157   */\n      calldataload\n        /* \"#utility.yul\":8184:8202   */\n      0xffffffffffffffff\n        /* \"#utility.yul\":8176:8182   */\n      dup2\n        /* \"#utility.yul\":8173:8203   */\n      gt\n        /* \"#utility.yul\":8170:8287   */\n      iszero\n      tag_407\n      jumpi\n        /* \"#utility.yul\":8206:8285   */\n      tag_408\n      tag_375\n      jump\t// in\n    tag_408:\n        /* \"#utility.yul\":8170:8287   */\n    tag_407:\n        /* \"#utility.yul\":8311:8374   */\n      tag_409\n        /* \"#utility.yul\":8366:8373   */\n      dup14\n        /* \"#utility.yul\":8357:8363   */\n      dup3\n        /* \"#utility.yul\":8346:8355   */\n      dup15\n        /* \"#utility.yul\":8342:8364   */\n      add\n        /* \"#utility.yul\":8311:8374   */\n      tag_325\n      jump\t// in\n    tag_409:\n        /* \"#utility.yul\":8301:8374   */\n      swap7\n      pop\n        /* \"#utility.yul\":8095:8384   */\n      pop\n        /* \"#utility.yul\":8451:8454   */\n      0xa0\n        /* \"#utility.yul\":8440:8449   */\n      dup12\n        /* \"#utility.yul\":8436:8455   */\n      add\n        /* \"#utility.yul\":8423:8456   */\n      calldataload\n        /* \"#utility.yul\":8483:8501   */\n      0xffffffffffffffff\n        /* \"#utility.yul\":8475:8481   */\n      dup2\n        /* \"#utility.yul\":8472:8502   */\n      gt\n        /* \"#utility.yul\":8469:8586   */\n      iszero\n      tag_410\n      jumpi\n        /* \"#utility.yul\":8505:8584   */\n      tag_411\n      tag_375\n      jump\t// in\n    tag_411:\n        /* \"#utility.yul\":8469:8586   */\n    tag_410:\n        /* \"#utility.yul\":8610:8673   */\n      tag_412\n        /* \"#utility.yul\":8665:8672   */\n      dup14\n        /* \"#utility.yul\":8656:8662   */\n      dup3\n        /* \"#utility.yul\":8645:8654   */\n      dup15\n        /* \"#utility.yul\":8641:8663   */\n      add\n        /* \"#utility.yul\":8610:8673   */\n      tag_325\n      jump\t// in\n    tag_412:\n        /* \"#utility.yul\":8600:8673   */\n      swap6\n      pop\n        /* \"#utility.yul\":8394:8683   */\n      pop\n        /* \"#utility.yul\":8750:8753   */\n      0xc0\n        /* \"#utility.yul\":8739:8748   */\n      dup12\n        /* \"#utility.yul\":8735:8754   */\n      add\n        /* \"#utility.yul\":8722:8755   */\n      calldataload\n        /* \"#utility.yul\":8782:8800   */\n      0xffffffffffffffff\n        /* \"#utility.yul\":8774:8780   */\n      dup2\n        /* \"#utility.yul\":8771:8801   */\n      gt\n        /* \"#utility.yul\":8768:8885   */\n      iszero\n      tag_413\n      jumpi\n        /* \"#utility.yul\":8804:8883   */\n      tag_414\n      tag_375\n      jump\t// in\n    tag_414:\n        /* \"#utility.yul\":8768:8885   */\n    tag_413:\n        /* \"#utility.yul\":8909:8972   */\n      tag_415\n        /* \"#utility.yul\":8964:8971   */\n      dup14\n        /* \"#utility.yul\":8955:8961   */\n      dup3\n        /* \"#utility.yul\":8944:8953   */\n      dup15\n        /* \"#utility.yul\":8940:8962   */\n      add\n        /* \"#utility.yul\":8909:8972   */\n      tag_325\n      jump\t// in\n    tag_415:\n        /* \"#utility.yul\":8899:8972   */\n      swap5\n      pop\n        /* \"#utility.yul\":8693:8982   */\n      pop\n        /* \"#utility.yul\":9049:9052   */\n      0xe0\n        /* \"#utility.yul\":9038:9047   */\n      dup12\n        /* \"#utility.yul\":9034:9053   */\n      add\n        /* \"#utility.yul\":9021:9054   */\n      calldataload\n        /* \"#utility.yul\":9081:9099   */\n      0xffffffffffffffff\n        /* \"#utility.yul\":9073:9079   */\n      dup2\n        /* \"#utility.yul\":9070:9100   */\n      gt\n        /* \"#utility.yul\":9067:9184   */\n      iszero\n      tag_416\n      jumpi\n        /* \"#utility.yul\":9103:9182   */\n      tag_417\n      tag_375\n      jump\t// in\n    tag_417:\n        /* \"#utility.yul\":9067:9184   */\n    tag_416:\n        /* \"#utility.yul\":9208:9271   */\n      tag_418\n        /* \"#utility.yul\":9263:9270   */\n      dup14\n        /* \"#utility.yul\":9254:9260   */\n      dup3\n        /* \"#utility.yul\":9243:9252   */\n      dup15\n        /* \"#utility.yul\":9239:9261   */\n      add\n        /* \"#utility.yul\":9208:9271   */\n      tag_325\n      jump\t// in\n    tag_418:\n        /* \"#utility.yul\":9198:9271   */\n      swap4\n      pop\n        /* \"#utility.yul\":8992:9281   */\n      pop\n        /* \"#utility.yul\":9348:9351   */\n      0x0100\n        /* \"#utility.yul\":9337:9346   */\n      dup12\n        /* \"#utility.yul\":9333:9352   */\n      add\n        /* \"#utility.yul\":9320:9353   */\n      calldataload\n        /* \"#utility.yul\":9380:9398   */\n      0xffffffffffffffff\n        /* \"#utility.yul\":9372:9378   */\n      dup2\n        /* \"#utility.yul\":9369:9399   */\n      gt\n        /* \"#utility.yul\":9366:9483   */\n      iszero\n      tag_419\n      jumpi\n        /* \"#utility.yul\":9402:9481   */\n      tag_420\n      tag_375\n      jump\t// in\n    tag_420:\n        /* \"#utility.yul\":9366:9483   */\n    tag_419:\n        /* \"#utility.yul\":9507:9570   */\n      tag_421\n        /* \"#utility.yul\":9562:9569   */\n      dup14\n        /* \"#utility.yul\":9553:9559   */\n      dup3\n        /* \"#utility.yul\":9542:9551   */\n      dup15\n        /* \"#utility.yul\":9538:9560   */\n      add\n        /* \"#utility.yul\":9507:9570   */\n      tag_325\n      jump\t// in\n    tag_421:\n        /* \"#utility.yul\":9497:9570   */\n      swap3\n      pop\n        /* \"#utility.yul\":9291:9580   */\n      pop\n        /* \"#utility.yul\":9647:9650   */\n      0x0120\n        /* \"#utility.yul\":9636:9645   */\n      dup12\n        /* \"#utility.yul\":9632:9651   */\n      add\n        /* \"#utility.yul\":9619:9652   */\n      calldataload\n        /* \"#utility.yul\":9679:9697   */\n      0xffffffffffffffff\n        /* \"#utility.yul\":9671:9677   */\n      dup2\n        /* \"#utility.yul\":9668:9698   */\n      gt\n        /* \"#utility.yul\":9665:9782   */\n      iszero\n      tag_422\n      jumpi\n        /* \"#utility.yul\":9701:9780   */\n      tag_423\n      tag_375\n      jump\t// in\n    tag_423:\n        /* \"#utility.yul\":9665:9782   */\n    tag_422:\n        /* \"#utility.yul\":9806:9869   */\n      tag_424\n        /* \"#utility.yul\":9861:9868   */\n      dup14\n        /* \"#utility.yul\":9852:9858   */\n      dup3\n        /* \"#utility.yul\":9841:9850   */\n      dup15\n        /* \"#utility.yul\":9837:9859   */\n      add\n        /* \"#utility.yul\":9806:9869   */\n      tag_325\n      jump\t// in\n    tag_424:\n        /* \"#utility.yul\":9796:9869   */\n      swap2\n      pop\n        /* \"#utility.yul\":9590:9879   */\n      pop\n        /* \"#utility.yul\":6985:9886   */\n      swap3\n      swap6\n      swap9\n      swap12\n      swap2\n      swap5\n      swap8\n      swap11\n      pop\n      swap3\n      swap6\n      swap9\n      pop\n      jump\t// out\n        /* \"#utility.yul\":9892:10034   */\n    tag_425:\n        /* \"#utility.yul\":9995:10027   */\n      tag_427\n        /* \"#utility.yul\":10021:10026   */\n      dup2\n        /* \"#utility.yul\":9995:10027   */\n      tag_428\n      jump\t// in\n    tag_427:\n        /* \"#utility.yul\":9990:9993   */\n      dup3\n        /* \"#utility.yul\":9983:10028   */\n      mstore\n        /* \"#utility.yul\":9892:10034   */\n      pop\n      pop\n      jump\t// out\n        /* \"#utility.yul\":10040:10158   */\n    tag_429:\n        /* \"#utility.yul\":10127:10151   */\n      tag_431\n        /* \"#utility.yul\":10145:10150   */\n      dup2\n        /* \"#utility.yul\":10127:10151   */\n      tag_432\n      jump\t// in\n    tag_431:\n        /* \"#utility.yul\":10122:10125   */\n      dup3\n        /* \"#utility.yul\":10115:10152   */\n      mstore\n        /* \"#utility.yul\":10040:10158   */\n      pop\n      pop\n      jump\t// out\n        /* \"#utility.yul\":10164:10273   */\n    tag_433:\n        /* \"#utility.yul\":10245:10266   */\n      tag_435\n        /* \"#utility.yul\":10260:10265   */\n      dup2\n        /* \"#utility.yul\":10245:10266   */\n      tag_436\n      jump\t// in\n    tag_435:\n        /* \"#utility.yul\":10240:10243   */\n      dup3\n        /* \"#utility.yul\":10233:10267   */\n      mstore\n        /* \"#utility.yul\":10164:10273   */\n      pop\n      pop\n      jump\t// out\n        /* \"#utility.yul\":10279:10420   */\n    tag_437:\n        /* \"#utility.yul\":10371:10413   */\n      tag_439\n        /* \"#utility.yul\":10407:10412   */\n      dup2\n        /* \"#utility.yul\":10371:10413   */\n      tag_440\n      jump\t// in\n    tag_439:\n        /* \"#utility.yul\":10366:10369   */\n      dup3\n        /* \"#utility.yul\":10359:10414   */\n      mstore\n        /* \"#utility.yul\":10279:10420   */\n      pop\n      pop\n      jump\t// out\n        /* \"#utility.yul\":10426:10569   */\n    tag_441:\n        /* \"#utility.yul\":10519:10562   */\n      tag_443\n        /* \"#utility.yul\":10556:10561   */\n      dup2\n        /* \"#utility.yul\":10519:10562   */\n      tag_444\n      jump\t// in\n    tag_443:\n        /* \"#utility.yul\":10514:10517   */\n      dup3\n        /* \"#utility.yul\":10507:10563   */\n      mstore\n        /* \"#utility.yul\":10426:10569   */\n      pop\n      pop\n      jump\t// out\n        /* \"#utility.yul\":10575:10919   */\n    tag_445:\n        /* \"#utility.yul\":10653:10656   */\n      0x00\n        /* \"#utility.yul\":10681:10720   */\n      tag_447\n        /* \"#utility.yul\":10714:10719   */\n      dup3\n        /* \"#utility.yul\":10681:10720   */\n      tag_448\n      jump\t// in\n    tag_447:\n        /* \"#utility.yul\":10736:10797   */\n      tag_449\n        /* \"#utility.yul\":10790:10796   */\n      dup2\n        /* \"#utility.yul\":10785:10788   */\n      dup6\n        /* \"#utility.yul\":10736:10797   */\n      tag_450\n      jump\t// in\n    tag_449:\n        /* \"#utility.yul\":10729:10797   */\n      swap4\n      pop\n        /* \"#utility.yul\":10806:10858   */\n      tag_451\n        /* \"#utility.yul\":10851:10857   */\n      dup2\n        /* \"#utility.yul\":10846:10849   */\n      dup6\n        /* \"#utility.yul\":10839:10843   */\n      0x20\n        /* \"#utility.yul\":10832:10837   */\n      dup7\n        /* \"#utility.yul\":10828:10844   */\n      add\n        /* \"#utility.yul\":10806:10858   */\n      tag_452\n      jump\t// in\n    tag_451:\n        /* \"#utility.yul\":10883:10912   */\n      tag_453\n        /* \"#utility.yul\":10905:10911   */\n      dup2\n        /* \"#utility.yul\":10883:10912   */\n      tag_454\n      jump\t// in\n    tag_453:\n        /* \"#utility.yul\":10878:10881   */\n      dup5\n        /* \"#utility.yul\":10874:10913   */\n      add\n        /* \"#utility.yul\":10867:10913   */\n      swap2\n      pop\n        /* \"#utility.yul\":10657:10919   */\n      pop\n        /* \"#utility.yul\":10575:10919   */\n      swap3\n      swap2\n      pop\n      pop\n      jump\t// out\n        /* \"#utility.yul\":10925:11289   */\n    tag_455:\n        /* \"#utility.yul\":11013:11016   */\n      0x00\n        /* \"#utility.yul\":11041:11080   */\n      tag_457\n        /* \"#utility.yul\":11074:11079   */\n      dup3\n        /* \"#utility.yul\":11041:11080   */\n      tag_448\n      jump\t// in\n    tag_457:\n        /* \"#utility.yul\":11096:11167   */\n      tag_458\n        /* \"#utility.yul\":11160:11166   */\n      dup2\n        /* \"#utility.yul\":11155:11158   */\n      dup6\n        /* \"#utility.yul\":11096:11167   */\n      tag_459\n      jump\t// in\n    tag_458:\n        /* \"#utility.yul\":11089:11167   */\n      swap4\n      pop\n        /* \"#utility.yul\":11176:11228   */\n      tag_460\n        /* \"#utility.yul\":11221:11227   */\n      dup2\n        /* \"#utility.yul\":11216:11219   */\n      dup6\n        /* \"#utility.yul\":11209:11213   */\n      0x20\n        /* \"#utility.yul\":11202:11207   */\n      dup7\n        /* \"#utility.yul\":11198:11214   */\n      add\n        /* \"#utility.yul\":11176:11228   */\n      tag_452\n      jump\t// in\n    tag_460:\n        /* \"#utility.yul\":11253:11282   */\n      tag_461\n        /* \"#utility.yul\":11275:11281   */\n      dup2\n        /* \"#utility.yul\":11253:11282   */\n      tag_454\n      jump\t// in\n    tag_461:\n        /* \"#utility.yul\":11248:11251   */\n      dup5\n        /* \"#utility.yul\":11244:11283   */\n      add\n        /* \"#utility.yul\":11237:11283   */\n      swap2\n      pop\n        /* \"#utility.yul\":11017:11289   */\n      pop\n        /* \"#utility.yul\":10925:11289   */\n      swap3\n      swap2\n      pop\n      pop\n      jump\t// out\n        /* \"#utility.yul\":11295:11661   */\n    tag_462:\n        /* \"#utility.yul\":11437:11440   */\n      0x00\n        /* \"#utility.yul\":11458:11525   */\n      tag_464\n        /* \"#utility.yul\":11522:11524   */\n      0x1c\n        /* \"#utility.yul\":11517:11520   */\n      dup4\n        /* \"#utility.yul\":11458:11525   */\n      tag_459\n      jump\t// in\n    tag_464:\n        /* \"#utility.yul\":11451:11525   */\n      swap2\n      pop\n        /* \"#utility.yul\":11534:11627   */\n      tag_465\n        /* \"#utility.yul\":11623:11626   */\n      dup3\n        /* \"#utility.yul\":11534:11627   */\n      tag_466\n      jump\t// in\n    tag_465:\n        /* \"#utility.yul\":11652:11654   */\n      0x20\n        /* \"#utility.yul\":11647:11650   */\n      dup3\n        /* \"#utility.yul\":11643:11655   */\n      add\n        /* \"#utility.yul\":11636:11655   */\n      swap1\n      pop\n        /* \"#utility.yul\":11295:11661   */\n      swap2\n      swap1\n      pop\n      jump\t// out\n        /* \"#utility.yul\":11667:12033   */\n    tag_467:\n        /* \"#utility.yul\":11809:11812   */\n      0x00\n        /* \"#utility.yul\":11830:11897   */\n      tag_469\n        /* \"#utility.yul\":11894:11896   */\n      0x19\n        /* \"#utility.yul\":11889:11892   */\n      dup4\n        /* \"#utility.yul\":11830:11897   */\n      tag_459\n      jump\t// in\n    tag_469:\n        /* \"#utility.yul\":11823:11897   */\n      swap2\n      pop\n        /* \"#utility.yul\":11906:11999   */\n      tag_470\n        /* \"#utility.yul\":11995:11998   */\n      dup3\n        /* \"#utility.yul\":11906:11999   */\n      tag_471\n      jump\t// in\n    tag_470:\n        /* \"#utility.yul\":12024:12026   */\n      0x20\n        /* \"#utility.yul\":12019:12022   */\n      dup3\n        /* \"#utility.yul\":12015:12027   */\n      add\n        /* \"#utility.yul\":12008:12027   */\n      swap1\n      pop\n        /* \"#utility.yul\":11667:12033   */\n      swap2\n      swap1\n      pop\n      jump\t// out\n        /* \"#utility.yul\":12039:12405   */\n    tag_472:\n        /* \"#utility.yul\":12181:12184   */\n      0x00\n        /* \"#utility.yul\":12202:12269   */\n      tag_474\n        /* \"#utility.yul\":12266:12268   */\n      0x1e\n        /* \"#utility.yul\":12261:12264   */\n      dup4\n        /* \"#utility.yul\":12202:12269   */\n      tag_459\n      jump\t// in\n    tag_474:\n        /* \"#utility.yul\":12195:12269   */\n      swap2\n      pop\n        /* \"#utility.yul\":12278:12371   */\n      tag_475\n        /* \"#utility.yul\":12367:12370   */\n      dup3\n        /* \"#utility.yul\":12278:12371   */\n      tag_476\n      jump\t// in\n    tag_475:\n        /* \"#utility.yul\":12396:12398   */\n      0x20\n        /* \"#utility.yul\":12391:12394   */\n      dup3\n        /* \"#utility.yul\":12387:12399   */\n      add\n        /* \"#utility.yul\":12380:12399   */\n      swap1\n      pop\n        /* \"#utility.yul\":12039:12405   */\n      swap2\n      swap1\n      pop\n      jump\t// out\n        /* \"#utility.yul\":12471:14377   */\n    tag_477:\n        /* \"#utility.yul\":12586:12589   */\n      0x00\n        /* \"#utility.yul\":12622:12626   */\n      0xe0\n        /* \"#utility.yul\":12617:12620   */\n      dup4\n        /* \"#utility.yul\":12613:12627   */\n      add\n        /* \"#utility.yul\":12709:12713   */\n      0x00\n        /* \"#utility.yul\":12702:12707   */\n      dup4\n        /* \"#utility.yul\":12698:12714   */\n      add\n        /* \"#utility.yul\":12692:12715   */\n      mload\n        /* \"#utility.yul\":12762:12765   */\n      dup5\n        /* \"#utility.yul\":12756:12760   */\n      dup3\n        /* \"#utility.yul\":12752:12766   */\n      sub\n        /* \"#utility.yul\":12745:12749   */\n      0x00\n        /* \"#utility.yul\":12740:12743   */\n      dup7\n        /* \"#utility.yul\":12736:12750   */\n      add\n        /* \"#utility.yul\":12729:12767   */\n      mstore\n        /* \"#utility.yul\":12788:12861   */\n      tag_479\n        /* \"#utility.yul\":12856:12860   */\n      dup3\n        /* \"#utility.yul\":12842:12854   */\n      dup3\n        /* \"#utility.yul\":12788:12861   */\n      tag_445\n      jump\t// in\n    tag_479:\n        /* \"#utility.yul\":12780:12861   */\n      swap2\n      pop\n        /* \"#utility.yul\":12637:12872   */\n      pop\n        /* \"#utility.yul\":12955:12959   */\n      0x20\n        /* \"#utility.yul\":12948:12953   */\n      dup4\n        /* \"#utility.yul\":12944:12960   */\n      add\n        /* \"#utility.yul\":12938:12961   */\n      mload\n        /* \"#utility.yul\":13008:13011   */\n      dup5\n        /* \"#utility.yul\":13002:13006   */\n      dup3\n        /* \"#utility.yul\":12998:13012   */\n      sub\n        /* \"#utility.yul\":12991:12995   */\n      0x20\n        /* \"#utility.yul\":12986:12989   */\n      dup7\n        /* \"#utility.yul\":12982:12996   */\n      add\n        /* \"#utility.yul\":12975:13013   */\n      mstore\n        /* \"#utility.yul\":13034:13107   */\n      tag_480\n        /* \"#utility.yul\":13102:13106   */\n      dup3\n        /* \"#utility.yul\":13088:13100   */\n      dup3\n        /* \"#utility.yul\":13034:13107   */\n      tag_445\n      jump\t// in\n    tag_480:\n        /* \"#utility.yul\":13026:13107   */\n      swap2\n      pop\n        /* \"#utility.yul\":12882:13118   */\n      pop\n        /* \"#utility.yul\":13200:13204   */\n      0x40\n        /* \"#utility.yul\":13193:13198   */\n      dup4\n        /* \"#utility.yul\":13189:13205   */\n      add\n        /* \"#utility.yul\":13183:13206   */\n      mload\n        /* \"#utility.yul\":13253:13256   */\n      dup5\n        /* \"#utility.yul\":13247:13251   */\n      dup3\n        /* \"#utility.yul\":13243:13257   */\n      sub\n        /* \"#utility.yul\":13236:13240   */\n      0x40\n        /* \"#utility.yul\":13231:13234   */\n      dup7\n        /* \"#utility.yul\":13227:13241   */\n      add\n        /* \"#utility.yul\":13220:13258   */\n      mstore\n        /* \"#utility.yul\":13279:13352   */\n      tag_481\n        /* \"#utility.yul\":13347:13351   */\n      dup3\n        /* \"#utility.yul\":13333:13345   */\n      dup3\n        /* \"#utility.yul\":13279:13352   */\n      tag_445\n      jump\t// in\n    tag_481:\n        /* \"#utility.yul\":13271:13352   */\n      swap2\n      pop\n        /* \"#utility.yul\":13128:13363   */\n      pop\n        /* \"#utility.yul\":13447:13451   */\n      0x60\n        /* \"#utility.yul\":13440:13445   */\n      dup4\n        /* \"#utility.yul\":13436:13452   */\n      add\n        /* \"#utility.yul\":13430:13453   */\n      mload\n        /* \"#utility.yul\":13500:13503   */\n      dup5\n        /* \"#utility.yul\":13494:13498   */\n      dup3\n        /* \"#utility.yul\":13490:13504   */\n      sub\n        /* \"#utility.yul\":13483:13487   */\n      0x60\n        /* \"#utility.yul\":13478:13481   */\n      dup7\n        /* \"#utility.yul\":13474:13488   */\n      add\n        /* \"#utility.yul\":13467:13505   */\n      mstore\n        /* \"#utility.yul\":13526:13599   */\n      tag_482\n        /* \"#utility.yul\":13594:13598   */\n      dup3\n        /* \"#utility.yul\":13580:13592   */\n      dup3\n        /* \"#utility.yul\":13526:13599   */\n      tag_445\n      jump\t// in\n    tag_482:\n        /* \"#utility.yul\":13518:13599   */\n      swap2\n      pop\n        /* \"#utility.yul\":13373:13610   */\n      pop\n        /* \"#utility.yul\":13694:13698   */\n      0x80\n        /* \"#utility.yul\":13687:13692   */\n      dup4\n        /* \"#utility.yul\":13683:13699   */\n      add\n        /* \"#utility.yul\":13677:13700   */\n      mload\n        /* \"#utility.yul\":13747:13750   */\n      dup5\n        /* \"#utility.yul\":13741:13745   */\n      dup3\n        /* \"#utility.yul\":13737:13751   */\n      sub\n        /* \"#utility.yul\":13730:13734   */\n      0x80\n        /* \"#utility.yul\":13725:13728   */\n      dup7\n        /* \"#utility.yul\":13721:13735   */\n      add\n        /* \"#utility.yul\":13714:13752   */\n      mstore\n        /* \"#utility.yul\":13773:13846   */\n      tag_483\n        /* \"#utility.yul\":13841:13845   */\n      dup3\n        /* \"#utility.yul\":13827:13839   */\n      dup3\n        /* \"#utility.yul\":13773:13846   */\n      tag_445\n      jump\t// in\n    tag_483:\n        /* \"#utility.yul\":13765:13846   */\n      swap2\n      pop\n        /* \"#utility.yul\":13620:13857   */\n      pop\n        /* \"#utility.yul\":13940:13944   */\n      0xa0\n        /* \"#utility.yul\":13933:13938   */\n      dup4\n        /* \"#utility.yul\":13929:13945   */\n      add\n        /* \"#utility.yul\":13923:13946   */\n      mload\n        /* \"#utility.yul\":13993:13996   */\n      dup5\n        /* \"#utility.yul\":13987:13991   */\n      dup3\n        /* \"#utility.yul\":13983:13997   */\n      sub\n        /* \"#utility.yul\":13976:13980   */\n      0xa0\n        /* \"#utility.yul\":13971:13974   */\n      dup7\n        /* \"#utility.yul\":13967:13981   */\n      add\n        /* \"#utility.yul\":13960:13998   */\n      mstore\n        /* \"#utility.yul\":14019:14092   */\n      tag_484\n        /* \"#utility.yul\":14087:14091   */\n      dup3\n        /* \"#utility.yul\":14073:14085   */\n      dup3\n        /* \"#utility.yul\":14019:14092   */\n      tag_445\n      jump\t// in\n    tag_484:\n        /* \"#utility.yul\":14011:14092   */\n      swap2\n      pop\n        /* \"#utility.yul\":13867:14103   */\n      pop\n        /* \"#utility.yul\":14187:14191   */\n      0xc0\n        /* \"#utility.yul\":14180:14185   */\n      dup4\n        /* \"#utility.yul\":14176:14192   */\n      add\n        /* \"#utility.yul\":14170:14193   */\n      mload\n        /* \"#utility.yul\":14240:14243   */\n      dup5\n        /* \"#utility.yul\":14234:14238   */\n      dup3\n        /* \"#utility.yul\":14230:14244   */\n      sub\n        /* \"#utility.yul\":14223:14227   */\n      0xc0\n        /* \"#utility.yul\":14218:14221   */\n      dup7\n        /* \"#utility.yul\":14214:14228   */\n      add\n        /* \"#utility.yul\":14207:14245   */\n      mstore\n        /* \"#utility.yul\":14266:14339   */\n      tag_485\n        /* \"#utility.yul\":14334:14338   */\n      dup3\n        /* \"#utility.yul\":14320:14332   */\n      dup3\n        /* \"#utility.yul\":14266:14339   */\n      tag_445\n      jump\t// in\n    tag_485:\n        /* \"#utility.yul\":14258:14339   */\n      swap2\n      pop\n        /* \"#utility.yul\":14113:14350   */\n      pop\n        /* \"#utility.yul\":14367:14371   */\n      dup1\n        /* \"#utility.yul\":14360:14371   */\n      swap2\n      pop\n        /* \"#utility.yul\":12591:14377   */\n      pop\n        /* \"#utility.yul\":12471:14377   */\n      swap3\n      swap2\n      pop\n      pop\n      jump\t// out\n        /* \"#utility.yul\":14383:14501   */\n    tag_486:\n        /* \"#utility.yul\":14470:14494   */\n      tag_488\n        /* \"#utility.yul\":14488:14493   */\n      dup2\n        /* \"#utility.yul\":14470:14494   */\n      tag_489\n      jump\t// in\n    tag_488:\n        /* \"#utility.yul\":14465:14468   */\n      dup3\n        /* \"#utility.yul\":14458:14495   */\n      mstore\n        /* \"#utility.yul\":14383:14501   */\n      pop\n      pop\n      jump\t// out\n        /* \"#utility.yul\":14507:14761   */\n    tag_82:\n        /* \"#utility.yul\":14616:14620   */\n      0x00\n        /* \"#utility.yul\":14654:14656   */\n      0x20\n        /* \"#utility.yul\":14643:14652   */\n      dup3\n        /* \"#utility.yul\":14639:14657   */\n      add\n        /* \"#utility.yul\":14631:14657   */\n      swap1\n      pop\n        /* \"#utility.yul\":14667:14754   */\n      tag_491\n        /* \"#utility.yul\":14751:14752   */\n      0x00\n        /* \"#utility.yul\":14740:14749   */\n      dup4\n        /* \"#utility.yul\":14736:14753   */\n      add\n        /* \"#utility.yul\":14727:14733   */\n      dup5\n        /* \"#utility.yul\":14667:14754   */\n      tag_425\n      jump\t// in\n    tag_491:\n        /* \"#utility.yul\":14507:14761   */\n      swap3\n      swap2\n      pop\n      pop\n      jump\t// out\n        /* \"#utility.yul\":14767:14977   */\n    tag_59:\n        /* \"#utility.yul\":14854:14858   */\n      0x00\n        /* \"#utility.yul\":14892:14894   */\n      0x20\n        /* \"#utility.yul\":14881:14890   */\n      dup3\n        /* \"#utility.yul\":14877:14895   */\n      add\n        /* \"#utility.yul\":14869:14895   */\n      swap1\n      pop\n        /* \"#utility.yul\":14905:14970   */\n      tag_493\n        /* \"#utility.yul\":14967:14968   */\n      0x00\n        /* \"#utility.yul\":14956:14965   */\n      dup4\n        /* \"#utility.yul\":14952:14969   */\n      add\n        /* \"#utility.yul\":14943:14949   */\n      dup5\n        /* \"#utility.yul\":14905:14970   */\n      tag_433\n      jump\t// in\n    tag_493:\n        /* \"#utility.yul\":14767:14977   */\n      swap3\n      swap2\n      pop\n      pop\n      jump\t// out\n        /* \"#utility.yul\":14983:15416   */\n    tag_91:\n        /* \"#utility.yul\":15129:15133   */\n      0x00\n        /* \"#utility.yul\":15167:15169   */\n      0x40\n        /* \"#utility.yul\":15156:15165   */\n      dup3\n        /* \"#utility.yul\":15152:15170   */\n      add\n        /* \"#utility.yul\":15144:15170   */\n      swap1\n      pop\n        /* \"#utility.yul\":15180:15256   */\n      tag_495\n        /* \"#utility.yul\":15253:15254   */\n      0x00\n        /* \"#utility.yul\":15242:15251   */\n      dup4\n        /* \"#utility.yul\":15238:15255   */\n      add\n        /* \"#utility.yul\":15229:15235   */\n      dup6\n        /* \"#utility.yul\":15180:15256   */\n      tag_437\n      jump\t// in\n    tag_495:\n        /* \"#utility.yul\":15303:15312   */\n      dup2\n        /* \"#utility.yul\":15297:15301   */\n      dup2\n        /* \"#utility.yul\":15293:15313   */\n      sub\n        /* \"#utility.yul\":15288:15290   */\n      0x20\n        /* \"#utility.yul\":15277:15286   */\n      dup4\n        /* \"#utility.yul\":15273:15291   */\n      add\n        /* \"#utility.yul\":15266:15314   */\n      mstore\n        /* \"#utility.yul\":15331:15409   */\n      tag_496\n        /* \"#utility.yul\":15404:15408   */\n      dup2\n        /* \"#utility.yul\":15395:15401   */\n      dup5\n        /* \"#utility.yul\":15331:15409   */\n      tag_455\n      jump\t// in\n    tag_496:\n        /* \"#utility.yul\":15323:15409   */\n      swap1\n      pop\n        /* \"#utility.yul\":14983:15416   */\n      swap4\n      swap3\n      pop\n      pop\n      pop\n      jump\t// out\n        /* \"#utility.yul\":15422:15735   */\n    tag_25:\n        /* \"#utility.yul\":15535:15539   */\n      0x00\n        /* \"#utility.yul\":15573:15575   */\n      0x20\n        /* \"#utility.yul\":15562:15571   */\n      dup3\n        /* \"#utility.yul\":15558:15576   */\n      add\n        /* \"#utility.yul\":15550:15576   */\n      swap1\n      pop\n        /* \"#utility.yul\":15622:15631   */\n      dup2\n        /* \"#utility.yul\":15616:15620   */\n      dup2\n        /* \"#utility.yul\":15612:15632   */\n      sub\n        /* \"#utility.yul\":15608:15609   */\n      0x00\n        /* \"#utility.yul\":15597:15606   */\n      dup4\n        /* \"#utility.yul\":15593:15610   */\n      add\n        /* \"#utility.yul\":15586:15633   */\n      mstore\n        /* \"#utility.yul\":15650:15728   */\n      tag_498\n        /* \"#utility.yul\":15723:15727   */\n      dup2\n        /* \"#utility.yul\":15714:15720   */\n      dup5\n        /* \"#utility.yul\":15650:15728   */\n      tag_455\n      jump\t// in\n    tag_498:\n        /* \"#utility.yul\":15642:15728   */\n      swap1\n      pop\n        /* \"#utility.yul\":15422:15735   */\n      swap3\n      swap2\n      pop\n      pop\n      jump\t// out\n        /* \"#utility.yul\":15741:16160   */\n    tag_144:\n        /* \"#utility.yul\":15907:15911   */\n      0x00\n        /* \"#utility.yul\":15945:15947   */\n      0x20\n        /* \"#utility.yul\":15934:15943   */\n      dup3\n        /* \"#utility.yul\":15930:15948   */\n      add\n        /* \"#utility.yul\":15922:15948   */\n      swap1\n      pop\n        /* \"#utility.yul\":15994:16003   */\n      dup2\n        /* \"#utility.yul\":15988:15992   */\n      dup2\n        /* \"#utility.yul\":15984:16004   */\n      sub\n        /* \"#utility.yul\":15980:15981   */\n      0x00\n        /* \"#utility.yul\":15969:15978   */\n      dup4\n        /* \"#utility.yul\":15965:15982   */\n      add\n        /* \"#utility.yul\":15958:16005   */\n      mstore\n        /* \"#utility.yul\":16022:16153   */\n      tag_500\n        /* \"#utility.yul\":16148:16152   */\n      dup2\n        /* \"#utility.yul\":16022:16153   */\n      tag_462\n      jump\t// in\n    tag_500:\n        /* \"#utility.yul\":16014:16153   */\n      swap1\n      pop\n        /* \"#utility.yul\":15741:16160   */\n      swap2\n      swap1\n      pop\n      jump\t// out\n        /* \"#utility.yul\":16166:16585   */\n    tag_166:\n        /* \"#utility.yul\":16332:16336   */\n      0x00\n        /* \"#utility.yul\":16370:16372   */\n      0x20\n        /* \"#utility.yul\":16359:16368   */\n      dup3\n        /* \"#utility.yul\":16355:16373   */\n      add\n        /* \"#utility.yul\":16347:16373   */\n      swap1\n      pop\n        /* \"#utility.yul\":16419:16428   */\n      dup2\n        /* \"#utility.yul\":16413:16417   */\n      dup2\n        /* \"#utility.yul\":16409:16429   */\n      sub\n        /* \"#utility.yul\":16405:16406   */\n      0x00\n        /* \"#utility.yul\":16394:16403   */\n      dup4\n        /* \"#utility.yul\":16390:16407   */\n      add\n        /* \"#utility.yul\":16383:16430   */\n      mstore\n        /* \"#utility.yul\":16447:16578   */\n      tag_502\n        /* \"#utility.yul\":16573:16577   */\n      dup2\n        /* \"#utility.yul\":16447:16578   */\n      tag_467\n      jump\t// in\n    tag_502:\n        /* \"#utility.yul\":16439:16578   */\n      swap1\n      pop\n        /* \"#utility.yul\":16166:16585   */\n      swap2\n      swap1\n      pop\n      jump\t// out\n        /* \"#utility.yul\":16591:17010   */\n    tag_112:\n        /* \"#utility.yul\":16757:16761   */\n      0x00\n        /* \"#utility.yul\":16795:16797   */\n      0x20\n        /* \"#utility.yul\":16784:16793   */\n      dup3\n        /* \"#utility.yul\":16780:16798   */\n      add\n        /* \"#utility.yul\":16772:16798   */\n      swap1\n      pop\n        /* \"#utility.yul\":16844:16853   */\n      dup2\n        /* \"#utility.yul\":16838:16842   */\n      dup2\n        /* \"#utility.yul\":16834:16854   */\n      sub\n        /* \"#utility.yul\":16830:16831   */\n      0x00\n        /* \"#utility.yul\":16819:16828   */\n      dup4\n        /* \"#utility.yul\":16815:16832   */\n      add\n        /* \"#utility.yul\":16808:16855   */\n      mstore\n        /* \"#utility.yul\":16872:17003   */\n      tag_504\n        /* \"#utility.yul\":16998:17002   */\n      dup2\n        /* \"#utility.yul\":16872:17003   */\n      tag_472\n      jump\t// in\n    tag_504:\n        /* \"#utility.yul\":16864:17003   */\n      swap1\n      pop\n        /* \"#utility.yul\":16591:17010   */\n      swap2\n      swap1\n      pop\n      jump\t// out\n        /* \"#utility.yul\":17016:17238   */\n    tag_97:\n        /* \"#utility.yul\":17109:17113   */\n      0x00\n        /* \"#utility.yul\":17147:17149   */\n      0x20\n        /* \"#utility.yul\":17136:17145   */\n      dup3\n        /* \"#utility.yul\":17132:17150   */\n      add\n        /* \"#utility.yul\":17124:17150   */\n      swap1\n      pop\n        /* \"#utility.yul\":17160:17231   */\n      tag_506\n        /* \"#utility.yul\":17228:17229   */\n      0x00\n        /* \"#utility.yul\":17217:17226   */\n      dup4\n        /* \"#utility.yul\":17213:17230   */\n      add\n        /* \"#utility.yul\":17204:17210   */\n      dup5\n        /* \"#utility.yul\":17160:17231   */\n      tag_486\n      jump\t// in\n    tag_506:\n        /* \"#utility.yul\":17016:17238   */\n      swap3\n      swap2\n      pop\n      pop\n      jump\t// out\n        /* \"#utility.yul\":17244:18507   */\n    tag_65:\n        /* \"#utility.yul\":17613:17617   */\n      0x00\n        /* \"#utility.yul\":17651:17654   */\n      0x0120\n        /* \"#utility.yul\":17640:17649   */\n      dup3\n        /* \"#utility.yul\":17636:17655   */\n      add\n        /* \"#utility.yul\":17628:17655   */\n      swap1\n      pop\n        /* \"#utility.yul\":17665:17736   */\n      tag_508\n        /* \"#utility.yul\":17733:17734   */\n      0x00\n        /* \"#utility.yul\":17722:17731   */\n      dup4\n        /* \"#utility.yul\":17718:17735   */\n      add\n        /* \"#utility.yul\":17709:17715   */\n      dup13\n        /* \"#utility.yul\":17665:17736   */\n      tag_486\n      jump\t// in\n    tag_508:\n        /* \"#utility.yul\":17746:17818   */\n      tag_509\n        /* \"#utility.yul\":17814:17816   */\n      0x20\n        /* \"#utility.yul\":17803:17812   */\n      dup4\n        /* \"#utility.yul\":17799:17817   */\n      add\n        /* \"#utility.yul\":17790:17796   */\n      dup12\n        /* \"#utility.yul\":17746:17818   */\n      tag_429\n      jump\t// in\n    tag_509:\n        /* \"#utility.yul\":17828:17900   */\n      tag_510\n        /* \"#utility.yul\":17896:17898   */\n      0x40\n        /* \"#utility.yul\":17885:17894   */\n      dup4\n        /* \"#utility.yul\":17881:17899   */\n      add\n        /* \"#utility.yul\":17872:17878   */\n      dup11\n        /* \"#utility.yul\":17828:17900   */\n      tag_429\n      jump\t// in\n    tag_510:\n        /* \"#utility.yul\":17910:17988   */\n      tag_511\n        /* \"#utility.yul\":17984:17986   */\n      0x60\n        /* \"#utility.yul\":17973:17982   */\n      dup4\n        /* \"#utility.yul\":17969:17987   */\n      add\n        /* \"#utility.yul\":17960:17966   */\n      dup10\n        /* \"#utility.yul\":17910:17988   */\n      tag_441\n      jump\t// in\n    tag_511:\n        /* \"#utility.yul\":17998:18071   */\n      tag_512\n        /* \"#utility.yul\":18066:18069   */\n      0x80\n        /* \"#utility.yul\":18055:18064   */\n      dup4\n        /* \"#utility.yul\":18051:18070   */\n      add\n        /* \"#utility.yul\":18042:18048   */\n      dup9\n        /* \"#utility.yul\":17998:18071   */\n      tag_486\n      jump\t// in\n    tag_512:\n        /* \"#utility.yul\":18081:18154   */\n      tag_513\n        /* \"#utility.yul\":18149:18152   */\n      0xa0\n        /* \"#utility.yul\":18138:18147   */\n      dup4\n        /* \"#utility.yul\":18134:18153   */\n      add\n        /* \"#utility.yul\":18125:18131   */\n      dup8\n        /* \"#utility.yul\":18081:18154   */\n      tag_429\n      jump\t// in\n    tag_513:\n        /* \"#utility.yul\":18164:18237   */\n      tag_514\n        /* \"#utility.yul\":18232:18235   */\n      0xc0\n        /* \"#utility.yul\":18221:18230   */\n      dup4\n        /* \"#utility.yul\":18217:18236   */\n      add\n        /* \"#utility.yul\":18208:18214   */\n      dup7\n        /* \"#utility.yul\":18164:18237   */\n      tag_429\n      jump\t// in\n    tag_514:\n        /* \"#utility.yul\":18247:18320   */\n      tag_515\n        /* \"#utility.yul\":18315:18318   */\n      0xe0\n        /* \"#utility.yul\":18304:18313   */\n      dup4\n        /* \"#utility.yul\":18300:18319   */\n      add\n        /* \"#utility.yul\":18291:18297   */\n      dup6\n        /* \"#utility.yul\":18247:18320   */\n      tag_429\n      jump\t// in\n    tag_515:\n        /* \"#utility.yul\":18368:18377   */\n      dup2\n        /* \"#utility.yul\":18362:18366   */\n      dup2\n        /* \"#utility.yul\":18358:18378   */\n      sub\n        /* \"#utility.yul\":18352:18355   */\n      0x0100\n        /* \"#utility.yul\":18341:18350   */\n      dup4\n        /* \"#utility.yul\":18337:18356   */\n      add\n        /* \"#utility.yul\":18330:18379   */\n      mstore\n        /* \"#utility.yul\":18396:18500   */\n      tag_516\n        /* \"#utility.yul\":18495:18499   */\n      dup2\n        /* \"#utility.yul\":18486:18492   */\n      dup5\n        /* \"#utility.yul\":18396:18500   */\n      tag_477\n      jump\t// in\n    tag_516:\n        /* \"#utility.yul\":18388:18500   */\n      swap1\n      pop\n        /* \"#utility.yul\":17244:18507   */\n      swap11\n      swap10\n      pop\n      pop\n      pop\n      pop\n      pop\n      pop\n      pop\n      pop\n      pop\n      pop\n      jump\t// out\n        /* \"#utility.yul\":18513:20494   */\n    tag_52:\n        /* \"#utility.yul\":19033:19037   */\n      0x00\n        /* \"#utility.yul\":19071:19074   */\n      0x0160\n        /* \"#utility.yul\":19060:19069   */\n      dup3\n        /* \"#utility.yul\":19056:19075   */\n      add\n        /* \"#utility.yul\":19048:19075   */\n      swap1\n      pop\n        /* \"#utility.yul\":19085:19156   */\n      tag_518\n        /* \"#utility.yul\":19153:19154   */\n      0x00\n        /* \"#utility.yul\":19142:19151   */\n      dup4\n        /* \"#utility.yul\":19138:19155   */\n      add\n        /* \"#utility.yul\":19129:19135   */\n      dup15\n        /* \"#utility.yul\":19085:19156   */\n      tag_486\n      jump\t// in\n    tag_518:\n        /* \"#utility.yul\":19166:19238   */\n      tag_519\n        /* \"#utility.yul\":19234:19236   */\n      0x20\n        /* \"#utility.yul\":19223:19232   */\n      dup4\n        /* \"#utility.yul\":19219:19237   */\n      add\n        /* \"#utility.yul\":19210:19216   */\n      dup14\n        /* \"#utility.yul\":19166:19238   */\n      tag_429\n      jump\t// in\n    tag_519:\n        /* \"#utility.yul\":19248:19326   */\n      tag_520\n        /* \"#utility.yul\":19322:19324   */\n      0x40\n        /* \"#utility.yul\":19311:19320   */\n      dup4\n        /* \"#utility.yul\":19307:19325   */\n      add\n        /* \"#utility.yul\":19298:19304   */\n      dup13\n        /* \"#utility.yul\":19248:19326   */\n      tag_441\n      jump\t// in\n    tag_520:\n        /* \"#utility.yul\":19336:19408   */\n      tag_521\n        /* \"#utility.yul\":19404:19406   */\n      0x60\n        /* \"#utility.yul\":19393:19402   */\n      dup4\n        /* \"#utility.yul\":19389:19407   */\n      add\n        /* \"#utility.yul\":19380:19386   */\n      dup12\n        /* \"#utility.yul\":19336:19408   */\n      tag_486\n      jump\t// in\n    tag_521:\n        /* \"#utility.yul\":19456:19465   */\n      dup2\n        /* \"#utility.yul\":19450:19454   */\n      dup2\n        /* \"#utility.yul\":19446:19466   */\n      sub\n        /* \"#utility.yul\":19440:19443   */\n      0x80\n        /* \"#utility.yul\":19429:19438   */\n      dup4\n        /* \"#utility.yul\":19425:19444   */\n      add\n        /* \"#utility.yul\":19418:19467   */\n      mstore\n        /* \"#utility.yul\":19484:19562   */\n      tag_522\n        /* \"#utility.yul\":19557:19561   */\n      dup2\n        /* \"#utility.yul\":19548:19554   */\n      dup11\n        /* \"#utility.yul\":19484:19562   */\n      tag_455\n      jump\t// in\n    tag_522:\n        /* \"#utility.yul\":19476:19562   */\n      swap1\n      pop\n        /* \"#utility.yul\":19610:19619   */\n      dup2\n        /* \"#utility.yul\":19604:19608   */\n      dup2\n        /* \"#utility.yul\":19600:19620   */\n      sub\n        /* \"#utility.yul\":19594:19597   */\n      0xa0\n        /* \"#utility.yul\":19583:19592   */\n      dup4\n        /* \"#utility.yul\":19579:19598   */\n      add\n        /* \"#utility.yul\":19572:19621   */\n      mstore\n        /* \"#utility.yul\":19638:19716   */\n      tag_523\n        /* \"#utility.yul\":19711:19715   */\n      dup2\n        /* \"#utility.yul\":19702:19708   */\n      dup10\n        /* \"#utility.yul\":19638:19716   */\n      tag_455\n      jump\t// in\n    tag_523:\n        /* \"#utility.yul\":19630:19716   */\n      swap1\n      pop\n        /* \"#utility.yul\":19764:19773   */\n      dup2\n        /* \"#utility.yul\":19758:19762   */\n      dup2\n        /* \"#utility.yul\":19754:19774   */\n      sub\n        /* \"#utility.yul\":19748:19751   */\n      0xc0\n        /* \"#utility.yul\":19737:19746   */\n      dup4\n        /* \"#utility.yul\":19733:19752   */\n      add\n        /* \"#utility.yul\":19726:19775   */\n      mstore\n        /* \"#utility.yul\":19792:19870   */\n      tag_524\n        /* \"#utility.yul\":19865:19869   */\n      dup2\n        /* \"#utility.yul\":19856:19862   */\n      dup9\n        /* \"#utility.yul\":19792:19870   */\n      tag_455\n      jump\t// in\n    tag_524:\n        /* \"#utility.yul\":19784:19870   */\n      swap1\n      pop\n        /* \"#utility.yul\":19918:19927   */\n      dup2\n        /* \"#utility.yul\":19912:19916   */\n      dup2\n        /* \"#utility.yul\":19908:19928   */\n      sub\n        /* \"#utility.yul\":19902:19905   */\n      0xe0\n        /* \"#utility.yul\":19891:19900   */\n      dup4\n        /* \"#utility.yul\":19887:19906   */\n      add\n        /* \"#utility.yul\":19880:19929   */\n      mstore\n        /* \"#utility.yul\":19946:20024   */\n      tag_525\n        /* \"#utility.yul\":20019:20023   */\n      dup2\n        /* \"#utility.yul\":20010:20016   */\n      dup8\n        /* \"#utility.yul\":19946:20024   */\n      tag_455\n      jump\t// in\n    tag_525:\n        /* \"#utility.yul\":19938:20024   */\n      swap1\n      pop\n        /* \"#utility.yul\":20072:20081   */\n      dup2\n        /* \"#utility.yul\":20066:20070   */\n      dup2\n        /* \"#utility.yul\":20062:20082   */\n      sub\n        /* \"#utility.yul\":20056:20059   */\n      0x0100\n        /* \"#utility.yul\":20045:20054   */\n      dup4\n        /* \"#utility.yul\":20041:20060   */\n      add\n        /* \"#utility.yul\":20034:20083   */\n      mstore\n        /* \"#utility.yul\":20100:20178   */\n      tag_526\n        /* \"#utility.yul\":20173:20177   */\n      dup2\n        /* \"#utility.yul\":20164:20170   */\n      dup7\n        /* \"#utility.yul\":20100:20178   */\n      tag_455\n      jump\t// in\n    tag_526:\n        /* \"#utility.yul\":20092:20178   */\n      swap1\n      pop\n        /* \"#utility.yul\":20226:20235   */\n      dup2\n        /* \"#utility.yul\":20220:20224   */\n      dup2\n        /* \"#utility.yul\":20216:20236   */\n      sub\n        /* \"#utility.yul\":20210:20213   */\n      0x0120\n        /* \"#utility.yul\":20199:20208   */\n      dup4\n        /* \"#utility.yul\":20195:20214   */\n      add\n        /* \"#utility.yul\":20188:20237   */\n      mstore\n        /* \"#utility.yul\":20254:20332   */\n      tag_527\n        /* \"#utility.yul\":20327:20331   */\n      dup2\n        /* \"#utility.yul\":20318:20324   */\n      dup6\n        /* \"#utility.yul\":20254:20332   */\n      tag_455\n      jump\t// in\n    tag_527:\n        /* \"#utility.yul\":20246:20332   */\n      swap1\n      pop\n        /* \"#utility.yul\":20380:20389   */\n      dup2\n        /* \"#utility.yul\":20374:20378   */\n      dup2\n        /* \"#utility.yul\":20370:20390   */\n      sub\n        /* \"#utility.yul\":20364:20367   */\n      0x0140\n        /* \"#utility.yul\":20353:20362   */\n      dup4\n        /* \"#utility.yul\":20349:20368   */\n      add\n        /* \"#utility.yul\":20342:20391   */\n      mstore\n        /* \"#utility.yul\":20408:20487   */\n      tag_528\n        /* \"#utility.yul\":20482:20486   */\n      dup2\n        /* \"#utility.yul\":20472:20479   */\n      dup5\n        /* \"#utility.yul\":20408:20487   */\n      tag_455\n      jump\t// in\n    tag_528:\n        /* \"#utility.yul\":20400:20487   */\n      swap1\n      pop\n        /* \"#utility.yul\":18513:20494   */\n      swap13\n      swap12\n      pop\n      pop\n      pop\n      pop\n      pop\n      pop\n      pop\n      pop\n      pop\n      pop\n      pop\n      pop\n      jump\t// out\n        /* \"#utility.yul\":20500:20629   */\n    tag_311:\n        /* \"#utility.yul\":20534:20540   */\n      0x00\n        /* \"#utility.yul\":20561:20581   */\n      tag_530\n      tag_531\n      jump\t// in\n    tag_530:\n        /* \"#utility.yul\":20551:20581   */\n      swap1\n      pop\n        /* \"#utility.yul\":20590:20623   */\n      tag_532\n        /* \"#utility.yul\":20618:20622   */\n      dup3\n        /* \"#utility.yul\":20610:20616   */\n      dup3\n        /* \"#utility.yul\":20590:20623   */\n      tag_533\n      jump\t// in\n    tag_532:\n        /* \"#utility.yul\":20500:20629   */\n      swap2\n      swap1\n      pop\n      jump\t// out\n        /* \"#utility.yul\":20635:20710   */\n    tag_531:\n        /* \"#utility.yul\":20668:20674   */\n      0x00\n        /* \"#utility.yul\":20701:20703   */\n      0x40\n        /* \"#utility.yul\":20695:20704   */\n      mload\n        /* \"#utility.yul\":20685:20704   */\n      swap1\n      pop\n        /* \"#utility.yul\":20635:20710   */\n      swap1\n      jump\t// out\n        /* \"#utility.yul\":20716:21024   */\n    tag_310:\n        /* \"#utility.yul\":20778:20782   */\n      0x00\n        /* \"#utility.yul\":20868:20886   */\n      0xffffffffffffffff\n        /* \"#utility.yul\":20860:20866   */\n      dup3\n        /* \"#utility.yul\":20857:20887   */\n      gt\n        /* \"#utility.yul\":20854:20910   */\n      iszero\n      tag_536\n      jumpi\n        /* \"#utility.yul\":20890:20908   */\n      tag_537\n      tag_538\n      jump\t// in\n    tag_537:\n        /* \"#utility.yul\":20854:20910   */\n    tag_536:\n        /* \"#utility.yul\":20928:20957   */\n      tag_539\n        /* \"#utility.yul\":20950:20956   */\n      dup3\n        /* \"#utility.yul\":20928:20957   */\n      tag_454\n      jump\t// in\n    tag_539:\n        /* \"#utility.yul\":20920:20957   */\n      swap1\n      pop\n        /* \"#utility.yul\":21012:21016   */\n      0x20\n        /* \"#utility.yul\":21006:21010   */\n      dup2\n        /* \"#utility.yul\":21002:21017   */\n      add\n        /* \"#utility.yul\":20994:21017   */\n      swap1\n      pop\n        /* \"#utility.yul\":20716:21024   */\n      swap2\n      swap1\n      pop\n      jump\t// out\n        /* \"#utility.yul\":21030:21129   */\n    tag_448:\n        /* \"#utility.yul\":21082:21088   */\n      0x00\n        /* \"#utility.yul\":21116:21121   */\n      dup2\n        /* \"#utility.yul\":21110:21122   */\n      mload\n        /* \"#utility.yul\":21100:21122   */\n      swap1\n      pop\n        /* \"#utility.yul\":21030:21129   */\n      swap2\n      swap1\n      pop\n      jump\t// out\n        /* \"#utility.yul\":21135:21294   */\n    tag_450:\n        /* \"#utility.yul\":21209:21220   */\n      0x00\n        /* \"#utility.yul\":21243:21249   */\n      dup3\n        /* \"#utility.yul\":21238:21241   */\n      dup3\n        /* \"#utility.yul\":21231:21250   */\n      mstore\n        /* \"#utility.yul\":21283:21287   */\n      0x20\n        /* \"#utility.yul\":21278:21281   */\n      dup3\n        /* \"#utility.yul\":21274:21288   */\n      add\n        /* \"#utility.yul\":21259:21288   */\n      swap1\n      pop\n        /* \"#utility.yul\":21135:21294   */\n      swap3\n      swap2\n      pop\n      pop\n      jump\t// out\n        /* \"#utility.yul\":21300:21469   */\n    tag_459:\n        /* \"#utility.yul\":21384:21395   */\n      0x00\n        /* \"#utility.yul\":21418:21424   */\n      dup3\n        /* \"#utility.yul\":21413:21416   */\n      dup3\n        /* \"#utility.yul\":21406:21425   */\n      mstore\n        /* \"#utility.yul\":21458:21462   */\n      0x20\n        /* \"#utility.yul\":21453:21456   */\n      dup3\n        /* \"#utility.yul\":21449:21463   */\n      add\n        /* \"#utility.yul\":21434:21463   */\n      swap1\n      pop\n        /* \"#utility.yul\":21300:21469   */\n      swap3\n      swap2\n      pop\n      pop\n      jump\t// out\n        /* \"#utility.yul\":21475:21780   */\n    tag_116:\n        /* \"#utility.yul\":21515:21518   */\n      0x00\n        /* \"#utility.yul\":21534:21554   */\n      tag_544\n        /* \"#utility.yul\":21552:21553   */\n      dup3\n        /* \"#utility.yul\":21534:21554   */\n      tag_489\n      jump\t// in\n    tag_544:\n        /* \"#utility.yul\":21529:21554   */\n      swap2\n      pop\n        /* \"#utility.yul\":21568:21588   */\n      tag_545\n        /* \"#utility.yul\":21586:21587   */\n      dup4\n        /* \"#utility.yul\":21568:21588   */\n      tag_489\n      jump\t// in\n    tag_545:\n        /* \"#utility.yul\":21563:21588   */\n      swap3\n      pop\n        /* \"#utility.yul\":21722:21723   */\n      dup3\n        /* \"#utility.yul\":21654:21720   */\n      0xffffffffffffffffffffffffffffffffffffffffffffffffffffffffffffffff\n        /* \"#utility.yul\":21650:21724   */\n      sub\n        /* \"#utility.yul\":21647:21648   */\n      dup3\n        /* \"#utility.yul\":21644:21725   */\n      gt\n        /* \"#utility.yul\":21641:21748   */\n      iszero\n      tag_546\n      jumpi\n        /* \"#utility.yul\":21728:21746   */\n      tag_547\n      tag_548\n      jump\t// in\n    tag_547:\n        /* \"#utility.yul\":21641:21748   */\n    tag_546:\n        /* \"#utility.yul\":21772:21773   */\n      dup3\n        /* \"#utility.yul\":21769:21770   */\n      dup3\n        /* \"#utility.yul\":21765:21774   */\n      add\n        /* \"#utility.yul\":21758:21774   */\n      swap1\n      pop\n        /* \"#utility.yul\":21475:21780   */\n      swap3\n      swap2\n      pop\n      pop\n      jump\t// out\n        /* \"#utility.yul\":21786:21971   */\n    tag_281:\n        /* \"#utility.yul\":21826:21827   */\n      0x00\n        /* \"#utility.yul\":21843:21863   */\n      tag_550\n        /* \"#utility.yul\":21861:21862   */\n      dup3\n        /* \"#utility.yul\":21843:21863   */\n      tag_489\n      jump\t// in\n    tag_550:\n        /* \"#utility.yul\":21838:21863   */\n      swap2\n      pop\n        /* \"#utility.yul\":21877:21897   */\n      tag_551\n        /* \"#utility.yul\":21895:21896   */\n      dup4\n        /* \"#utility.yul\":21877:21897   */\n      tag_489\n      jump\t// in\n    tag_551:\n        /* \"#utility.yul\":21872:21897   */\n      swap3\n      pop\n        /* \"#utility.yul\":21916:21917   */\n      dup3\n        /* \"#utility.yul\":21906:21941   */\n      tag_552\n      jumpi\n        /* \"#utility.yul\":21921:21939   */\n      tag_553\n      tag_554\n      jump\t// in\n    tag_553:\n        /* \"#utility.yul\":21906:21941   */\n    tag_552:\n        /* \"#utility.yul\":21963:21964   */\n      dup3\n        /* \"#utility.yul\":21960:21961   */\n      dup3\n        /* \"#utility.yul\":21956:21965   */\n      div\n        /* \"#utility.yul\":21951:21965   */\n      swap1\n      pop\n        /* \"#utility.yul\":21786:21971   */\n      swap3\n      swap2\n      pop\n      pop\n      jump\t// out\n        /* \"#utility.yul\":21977:22168   */\n    tag_220:\n        /* \"#utility.yul\":22017:22021   */\n      0x00\n        /* \"#utility.yul\":22037:22057   */\n      tag_556\n        /* \"#utility.yul\":22055:22056   */\n      dup3\n        /* \"#utility.yul\":22037:22057   */\n      tag_489\n      jump\t// in\n    tag_556:\n        /* \"#utility.yul\":22032:22057   */\n      swap2\n      pop\n        /* \"#utility.yul\":22071:22091   */\n      tag_557\n        /* \"#utility.yul\":22089:22090   */\n      dup4\n        /* \"#utility.yul\":22071:22091   */\n      tag_489\n      jump\t// in\n    tag_557:\n        /* \"#utility.yul\":22066:22091   */\n      swap3\n      pop\n        /* \"#utility.yul\":22110:22111   */\n      dup3\n        /* \"#utility.yul\":22107:22108   */\n      dup3\n        /* \"#utility.yul\":22104:22112   */\n      lt\n        /* \"#utility.yul\":22101:22135   */\n      iszero\n      tag_558\n      jumpi\n        /* \"#utility.yul\":22115:22133   */\n      tag_559\n      tag_548\n      jump\t// in\n    tag_559:\n        /* \"#utility.yul\":22101:22135   */\n    tag_558:\n        /* \"#utility.yul\":22160:22161   */\n      dup3\n        /* \"#utility.yul\":22157:22158   */\n      dup3\n        /* \"#utility.yul\":22153:22162   */\n      sub\n        /* \"#utility.yul\":22145:22162   */\n      swap1\n      pop\n        /* \"#utility.yul\":21977:22168   */\n      swap3\n      swap2\n      pop\n      pop\n      jump\t// out\n        /* \"#utility.yul\":22174:22270   */\n    tag_432:\n        /* \"#utility.yul\":22211:22218   */\n      0x00\n        /* \"#utility.yul\":22240:22264   */\n      tag_561\n        /* \"#utility.yul\":22258:22263   */\n      dup3\n        /* \"#utility.yul\":22240:22264   */\n      tag_562\n      jump\t// in\n    tag_561:\n        /* \"#utility.yul\":22229:22264   */\n      swap1\n      pop\n        /* \"#utility.yul\":22174:22270   */\n      swap2\n      swap1\n      pop\n      jump\t// out\n        /* \"#utility.yul\":22276:22380   */\n    tag_428:\n        /* \"#utility.yul\":22321:22328   */\n      0x00\n        /* \"#utility.yul\":22350:22374   */\n      tag_564\n        /* \"#utility.yul\":22368:22373   */\n      dup3\n        /* \"#utility.yul\":22350:22374   */\n      tag_562\n      jump\t// in\n    tag_564:\n        /* \"#utility.yul\":22339:22374   */\n      swap1\n      pop\n        /* \"#utility.yul\":22276:22380   */\n      swap2\n      swap1\n      pop\n      jump\t// out\n        /* \"#utility.yul\":22386:22476   */\n    tag_436:\n        /* \"#utility.yul\":22420:22427   */\n      0x00\n        /* \"#utility.yul\":22463:22468   */\n      dup2\n        /* \"#utility.yul\":22456:22469   */\n      iszero\n        /* \"#utility.yul\":22449:22470   */\n      iszero\n        /* \"#utility.yul\":22438:22470   */\n      swap1\n      pop\n        /* \"#utility.yul\":22386:22476   */\n      swap2\n      swap1\n      pop\n      jump\t// out\n        /* \"#utility.yul\":22482:22607   */\n    tag_566:\n        /* \"#utility.yul\":22526:22533   */\n      0x00\n        /* \"#utility.yul\":22555:22560   */\n      dup2\n        /* \"#utility.yul\":22544:22560   */\n      swap1\n      pop\n        /* \"#utility.yul\":22561:22601   */\n      tag_568\n        /* \"#utility.yul\":22595:22600   */\n      dup3\n        /* \"#utility.yul\":22561:22601   */\n      tag_569\n      jump\t// in\n    tag_568:\n        /* \"#utility.yul\":22482:22607   */\n      swap2\n      swap1\n      pop\n      jump\t// out\n        /* \"#utility.yul\":22613:22740   */\n    tag_570:\n        /* \"#utility.yul\":22658:22665   */\n      0x00\n        /* \"#utility.yul\":22687:22692   */\n      dup2\n        /* \"#utility.yul\":22676:22692   */\n      swap1\n      pop\n        /* \"#utility.yul\":22693:22734   */\n      tag_572\n        /* \"#utility.yul\":22728:22733   */\n      dup3\n        /* \"#utility.yul\":22693:22734   */\n      tag_573\n      jump\t// in\n    tag_572:\n        /* \"#utility.yul\":22613:22740   */\n      swap2\n      swap1\n      pop\n      jump\t// out\n        /* \"#utility.yul\":22746:22872   */\n    tag_562:\n        /* \"#utility.yul\":22783:22790   */\n      0x00\n        /* \"#utility.yul\":22823:22865   */\n      0xffffffffffffffffffffffffffffffffffffffff\n        /* \"#utility.yul\":22816:22821   */\n      dup3\n        /* \"#utility.yul\":22812:22866   */\n      and\n        /* \"#utility.yul\":22801:22866   */\n      swap1\n      pop\n        /* \"#utility.yul\":22746:22872   */\n      swap2\n      swap1\n      pop\n      jump\t// out\n        /* \"#utility.yul\":22878:22955   */\n    tag_489:\n        /* \"#utility.yul\":22915:22922   */\n      0x00\n        /* \"#utility.yul\":22944:22949   */\n      dup2\n        /* \"#utility.yul\":22933:22949   */\n      swap1\n      pop\n        /* \"#utility.yul\":22878:22955   */\n      swap2\n      swap1\n      pop\n      jump\t// out\n        /* \"#utility.yul\":22961:23086   */\n    tag_440:\n        /* \"#utility.yul\":23016:23025   */\n      0x00\n        /* \"#utility.yul\":23049:23080   */\n      tag_577\n        /* \"#utility.yul\":23074:23079   */\n      dup3\n        /* \"#utility.yul\":23049:23080   */\n      tag_566\n      jump\t// in\n    tag_577:\n        /* \"#utility.yul\":23036:23080   */\n      swap1\n      pop\n        /* \"#utility.yul\":22961:23086   */\n      swap2\n      swap1\n      pop\n      jump\t// out\n        /* \"#utility.yul\":23092:23219   */\n    tag_444:\n        /* \"#utility.yul\":23148:23157   */\n      0x00\n        /* \"#utility.yul\":23181:23213   */\n      tag_579\n        /* \"#utility.yul\":23207:23212   */\n      dup3\n        /* \"#utility.yul\":23181:23213   */\n      tag_570\n      jump\t// in\n    tag_579:\n        /* \"#utility.yul\":23168:23213   */\n      swap1\n      pop\n        /* \"#utility.yul\":23092:23219   */\n      swap2\n      swap1\n      pop\n      jump\t// out\n        /* \"#utility.yul\":23225:23379   */\n    tag_316:\n        /* \"#utility.yul\":23309:23315   */\n      dup3\n        /* \"#utility.yul\":23304:23307   */\n      dup2\n        /* \"#utility.yul\":23299:23302   */\n      dup4\n        /* \"#utility.yul\":23286:23316   */\n      calldatacopy\n        /* \"#utility.yul\":23371:23372   */\n      0x00\n        /* \"#utility.yul\":23362:23368   */\n      dup4\n        /* \"#utility.yul\":23357:23360   */\n      dup4\n        /* \"#utility.yul\":23353:23369   */\n      add\n        /* \"#utility.yul\":23346:23373   */\n      mstore\n        /* \"#utility.yul\":23225:23379   */\n      pop\n      pop\n      pop\n      jump\t// out\n        /* \"#utility.yul\":23385:23692   */\n    tag_452:\n        /* \"#utility.yul\":23453:23454   */\n      0x00\n        /* \"#utility.yul\":23463:23576   */\n    tag_582:\n        /* \"#utility.yul\":23477:23483   */\n      dup4\n        /* \"#utility.yul\":23474:23475   */\n      dup2\n        /* \"#utility.yul\":23471:23484   */\n      lt\n        /* \"#utility.yul\":23463:23576   */\n      iszero\n      tag_584\n      jumpi\n        /* \"#utility.yul\":23562:23563   */\n      dup1\n        /* \"#utility.yul\":23557:23560   */\n      dup3\n        /* \"#utility.yul\":23553:23564   */\n      add\n        /* \"#utility.yul\":23547:23565   */\n      mload\n        /* \"#utility.yul\":23543:23544   */\n      dup2\n        /* \"#utility.yul\":23538:23541   */\n      dup5\n        /* \"#utility.yul\":23534:23545   */\n      add\n        /* \"#utility.yul\":23527:23566   */\n      mstore\n        /* \"#utility.yul\":23499:23501   */\n      0x20\n        /* \"#utility.yul\":23496:23497   */\n      dup2\n        /* \"#utility.yul\":23492:23502   */\n      add\n        /* \"#utility.yul\":23487:23502   */\n      swap1\n      pop\n        /* \"#utility.yul\":23463:23576   */\n      jump(tag_582)\n    tag_584:\n        /* \"#utility.yul\":23594:23600   */\n      dup4\n        /* \"#utility.yul\":23591:23592   */\n      dup2\n        /* \"#utility.yul\":23588:23601   */\n      gt\n        /* \"#utility.yul\":23585:23686   */\n      iszero\n      tag_585\n      jumpi\n        /* \"#utility.yul\":23674:23675   */\n      0x00\n        /* \"#utility.yul\":23665:23671   */\n      dup5\n        /* \"#utility.yul\":23660:23663   */\n      dup5\n        /* \"#utility.yul\":23656:23672   */\n      add\n        /* \"#utility.yul\":23649:23676   */\n      mstore\n        /* \"#utility.yul\":23585:23686   */\n    tag_585:\n        /* \"#utility.yul\":23434:23692   */\n      pop\n        /* \"#utility.yul\":23385:23692   */\n      pop\n      pop\n      pop\n      jump\t// out\n        /* \"#utility.yul\":23698:24018   */\n    tag_104:\n        /* \"#utility.yul\":23742:23748   */\n      0x00\n        /* \"#utility.yul\":23779:23780   */\n      0x02\n        /* \"#utility.yul\":23773:23777   */\n      dup3\n        /* \"#utility.yul\":23769:23781   */\n      div\n        /* \"#utility.yul\":23759:23781   */\n      swap1\n      pop\n        /* \"#utility.yul\":23826:23827   */\n      0x01\n        /* \"#utility.yul\":23820:23824   */\n      dup3\n        /* \"#utility.yul\":23816:23828   */\n      and\n        /* \"#utility.yul\":23847:23865   */\n      dup1\n        /* \"#utility.yul\":23837:23918   */\n      tag_587\n      jumpi\n        /* \"#utility.yul\":23903:23907   */\n      0x7f\n        /* \"#utility.yul\":23895:23901   */\n      dup3\n        /* \"#utility.yul\":23891:23908   */\n      and\n        /* \"#utility.yul\":23881:23908   */\n      swap2\n      pop\n        /* \"#utility.yul\":23837:23918   */\n    tag_587:\n        /* \"#utility.yul\":23965:23967   */\n      0x20\n        /* \"#utility.yul\":23957:23963   */\n      dup3\n        /* \"#utility.yul\":23954:23968   */\n      lt\n        /* \"#utility.yul\":23934:23952   */\n      dup2\n        /* \"#utility.yul\":23931:23969   */\n      eq\n        /* \"#utility.yul\":23928:24012   */\n      iszero\n      tag_588\n      jumpi\n        /* \"#utility.yul\":23984:24002   */\n      tag_589\n      tag_590\n      jump\t// in\n    tag_589:\n        /* \"#utility.yul\":23928:24012   */\n    tag_588:\n        /* \"#utility.yul\":23749:24018   */\n      pop\n        /* \"#utility.yul\":23698:24018   */\n      swap2\n      swap1\n      pop\n      jump\t// out\n        /* \"#utility.yul\":24024:24305   */\n    tag_533:\n        /* \"#utility.yul\":24107:24134   */\n      tag_592\n        /* \"#utility.yul\":24129:24133   */\n      dup3\n        /* \"#utility.yul\":24107:24134   */\n      tag_454\n      jump\t// in\n    tag_592:\n        /* \"#utility.yul\":24099:24105   */\n      dup2\n        /* \"#utility.yul\":24095:24135   */\n      add\n        /* \"#utility.yul\":24237:24243   */\n      dup2\n        /* \"#utility.yul\":24225:24235   */\n      dup2\n        /* \"#utility.yul\":24222:24244   */\n      lt\n        /* \"#utility.yul\":24201:24219   */\n      0xffffffffffffffff\n        /* \"#utility.yul\":24189:24199   */\n      dup3\n        /* \"#utility.yul\":24186:24220   */\n      gt\n        /* \"#utility.yul\":24183:24245   */\n      or\n        /* \"#utility.yul\":24180:24268   */\n      iszero\n      tag_593\n      jumpi\n        /* \"#utility.yul\":24248:24266   */\n      tag_594\n      tag_538\n      jump\t// in\n    tag_594:\n        /* \"#utility.yul\":24180:24268   */\n    tag_593:\n        /* \"#utility.yul\":24288:24298   */\n      dup1\n        /* \"#utility.yul\":24284:24286   */\n      0x40\n        /* \"#utility.yul\":24277:24299   */\n      mstore\n        /* \"#utility.yul\":24067:24305   */\n      pop\n        /* \"#utility.yul\":24024:24305   */\n      pop\n      pop\n      jump\t// out\n        /* \"#utility.yul\":24311:24491   */\n    tag_548:\n        /* \"#utility.yul\":24359:24436   */\n      0x4e487b7100000000000000000000000000000000000000000000000000000000\n        /* \"#utility.yul\":24356:24357   */\n      0x00\n        /* \"#utility.yul\":24349:24437   */\n      mstore\n        /* \"#utility.yul\":24456:24460   */\n      0x11\n        /* \"#utility.yul\":24453:24454   */\n      0x04\n        /* \"#utility.yul\":24446:24461   */\n      mstore\n        /* \"#utility.yul\":24480:24484   */\n      0x24\n        /* \"#utility.yul\":24477:24478   */\n      0x00\n        /* \"#utility.yul\":24470:24485   */\n      revert\n        /* \"#utility.yul\":24497:24677   */\n    tag_554:\n        /* \"#utility.yul\":24545:24622   */\n      0x4e487b7100000000000000000000000000000000000000000000000000000000\n        /* \"#utility.yul\":24542:24543   */\n      0x00\n        /* \"#utility.yul\":24535:24623   */\n      mstore\n        /* \"#utility.yul\":24642:24646   */\n      0x12\n        /* \"#utility.yul\":24639:24640   */\n      0x04\n        /* \"#utility.yul\":24632:24647   */\n      mstore\n        /* \"#utility.yul\":24666:24670   */\n      0x24\n        /* \"#utility.yul\":24663:24664   */\n      0x00\n        /* \"#utility.yul\":24656:24671   */\n      revert\n        /* \"#utility.yul\":24683:24863   */\n    tag_121:\n        /* \"#utility.yul\":24731:24808   */\n      0x4e487b7100000000000000000000000000000000000000000000000000000000\n        /* \"#utility.yul\":24728:24729   */\n      0x00\n        /* \"#utility.yul\":24721:24809   */\n      mstore\n        /* \"#utility.yul\":24828:24832   */\n      0x21\n        /* \"#utility.yul\":24825:24826   */\n      0x04\n        /* \"#utility.yul\":24818:24833   */\n      mstore\n        /* \"#utility.yul\":24852:24856   */\n      0x24\n        /* \"#utility.yul\":24849:24850   */\n      0x00\n        /* \"#utility.yul\":24842:24857   */\n      revert\n        /* \"#utility.yul\":24869:25049   */\n    tag_590:\n        /* \"#utility.yul\":24917:24994   */\n      0x4e487b7100000000000000000000000000000000000000000000000000000000\n        /* \"#utility.yul\":24914:24915   */\n      0x00\n        /* \"#utility.yul\":24907:24995   */\n      mstore\n        /* \"#utility.yul\":25014:25018   */\n      0x22\n        /* \"#utility.yul\":25011:25012   */\n      0x04\n        /* \"#utility.yul\":25004:25019   */\n      mstore\n        /* \"#utility.yul\":25038:25042   */\n      0x24\n        /* \"#utility.yul\":25035:25036   */\n      0x00\n        /* \"#utility.yul\":25028:25043   */\n      revert\n        /* \"#utility.yul\":25055:25235   */\n    tag_154:\n        /* \"#utility.yul\":25103:25180   */\n      0x4e487b7100000000000000000000000000000000000000000000000000000000\n        /* \"#utility.yul\":25100:25101   */\n      0x00\n        /* \"#utility.yul\":25093:25181   */\n      mstore\n        /* \"#utility.yul\":25200:25204   */\n      0x32\n        /* \"#utility.yul\":25197:25198   */\n      0x04\n        /* \"#utility.yul\":25190:25205   */\n      mstore\n        /* \"#utility.yul\":25224:25228   */\n      0x24\n        /* \"#utility.yul\":25221:25222   */\n      0x00\n        /* \"#utility.yul\":25214:25229   */\n      revert\n        /* \"#utility.yul\":25241:25421   */\n    tag_538:\n        /* \"#utility.yul\":25289:25366   */\n      0x4e487b7100000000000000000000000000000000000000000000000000000000\n        /* \"#utility.yul\":25286:25287   */\n      0x00\n        /* \"#utility.yul\":25279:25367   */\n      mstore\n        /* \"#utility.yul\":25386:25390   */\n      0x41\n        /* \"#utility.yul\":25383:25384   */\n      0x04\n        /* \"#utility.yul\":25376:25391   */\n      mstore\n        /* \"#utility.yul\":25410:25414   */\n      0x24\n        /* \"#utility.yul\":25407:25408   */\n      0x00\n        /* \"#utility.yul\":25400:25415   */\n      revert\n        /* \"#utility.yul\":25427:25544   */\n    tag_329:\n        /* \"#utility.yul\":25536:25537   */\n      0x00\n        /* \"#utility.yul\":25533:25534   */\n      dup1\n        /* \"#utility.yul\":25526:25538   */\n      revert\n        /* \"#utility.yul\":25550:25667   */\n    tag_335:\n        /* \"#utility.yul\":25659:25660   */\n      0x00\n        /* \"#utility.yul\":25656:25657   */\n      dup1\n        /* \"#utility.yul\":25649:25661   */\n      revert\n        /* \"#utility.yul\":25673:25790   */\n    tag_339:\n        /* \"#utility.yul\":25782:25783   */\n      0x00\n        /* \"#utility.yul\":25779:25780   */\n      dup1\n        /* \"#utility.yul\":25772:25784   */\n      revert\n        /* \"#utility.yul\":25796:25913   */\n    tag_314:\n        /* \"#utility.yul\":25905:25906   */\n      0x00\n        /* \"#utility.yul\":25902:25903   */\n      dup1\n        /* \"#utility.yul\":25895:25907   */\n      revert\n        /* \"#utility.yul\":25919:26036   */\n    tag_375:\n        /* \"#utility.yul\":26028:26029   */\n      0x00\n        /* \"#utility.yul\":26025:26026   */\n      dup1\n        /* \"#utility.yul\":26018:26030   */\n      revert\n        /* \"#utility.yul\":26042:26159   */\n    tag_366:\n        /* \"#utility.yul\":26151:26152   */\n      0x00\n        /* \"#utility.yul\":26148:26149   */\n      dup1\n        /* \"#utility.yul\":26141:26153   */\n      revert\n        /* \"#utility.yul\":26165:26267   */\n    tag_454:\n        /* \"#utility.yul\":26206:26212   */\n      0x00\n        /* \"#utility.yul\":26257:26259   */\n      0x1f\n        /* \"#utility.yul\":26253:26260   */\n      not\n        /* \"#utility.yul\":26248:26250   */\n      0x1f\n        /* \"#utility.yul\":26241:26246   */\n      dup4\n        /* \"#utility.yul\":26237:26251   */\n      add\n        /* \"#utility.yul\":26233:26261   */\n      and\n        /* \"#utility.yul\":26223:26261   */\n      swap1\n      pop\n        /* \"#utility.yul\":26165:26267   */\n      swap2\n      swap1\n      pop\n      jump\t// out\n        /* \"#utility.yul\":26273:26451   */\n    tag_466:\n        /* \"#utility.yul\":26413:26443   */\n      0x63616c6c6572206973206e6f742061206469737472696275746f722e00000000\n        /* \"#utility.yul\":26409:26410   */\n      0x00\n        /* \"#utility.yul\":26401:26407   */\n      dup3\n        /* \"#utility.yul\":26397:26411   */\n      add\n        /* \"#utility.yul\":26390:26444   */\n      mstore\n        /* \"#utility.yul\":26273:26451   */\n      pop\n      jump\t// out\n        /* \"#utility.yul\":26457:26632   */\n    tag_471:\n        /* \"#utility.yul\":26597:26624   */\n      0x63616c6c6572206973206e6f7420612070726f64756365722e00000000000000\n        /* \"#utility.yul\":26593:26594   */\n      0x00\n        /* \"#utility.yul\":26585:26591   */\n      dup3\n        /* \"#utility.yul\":26581:26595   */\n      add\n        /* \"#utility.yul\":26574:26625   */\n      mstore\n        /* \"#utility.yul\":26457:26632   */\n      pop\n      jump\t// out\n        /* \"#utility.yul\":26638:26818   */\n    tag_476:\n        /* \"#utility.yul\":26778:26810   */\n      0x63616c6c6572206973206e6f742074686520746f6b656e206f776e65722e0000\n        /* \"#utility.yul\":26774:26775   */\n      0x00\n        /* \"#utility.yul\":26766:26772   */\n      dup3\n        /* \"#utility.yul\":26762:26776   */\n      add\n        /* \"#utility.yul\":26755:26811   */\n      mstore\n        /* \"#utility.yul\":26638:26818   */\n      pop\n      jump\t// out\n        /* \"#utility.yul\":26824:26936   */\n    tag_569:\n        /* \"#utility.yul\":26904:26905   */\n      0x05\n        /* \"#utility.yul\":26897:26902   */\n      dup2\n        /* \"#utility.yul\":26894:26906   */\n      lt\n        /* \"#utility.yul\":26884:26930   */\n      tag_612\n      jumpi\n        /* \"#utility.yul\":26910:26928   */\n      tag_613\n      tag_121\n      jump\t// in\n    tag_613:\n        /* \"#utility.yul\":26884:26930   */\n    tag_612:\n        /* \"#utility.yul\":26824:26936   */\n      pop\n      jump\t// out\n        /* \"#utility.yul\":26942:27055   */\n    tag_573:\n        /* \"#utility.yul\":27023:27024   */\n      0x06\n        /* \"#utility.yul\":27016:27021   */\n      dup2\n        /* \"#utility.yul\":27013:27025   */\n      lt\n        /* \"#utility.yul\":27003:27049   */\n      tag_615\n      jumpi\n        /* \"#utility.yul\":27029:27047   */\n      tag_616\n      tag_121\n      jump\t// in\n    tag_616:\n        /* \"#utility.yul\":27003:27049   */\n    tag_615:\n        /* \"#utility.yul\":26942:27055   */\n      pop\n      jump\t// out\n        /* \"#utility.yul\":27061:27183   */\n    tag_320:\n        /* \"#utility.yul\":27134:27158   */\n      tag_618\n        /* \"#utility.yul\":27152:27157   */\n      dup2\n        /* \"#utility.yul\":27134:27158   */\n      tag_432\n      jump\t// in\n    tag_618:\n        /* \"#utility.yul\":27127:27132   */\n      dup2\n        /* \"#utility.yul\":27124:27159   */\n      eq\n        /* \"#utility.yul\":27114:27177   */\n      tag_619\n      jumpi\n        /* \"#utility.yul\":27173:27174   */\n      0x00\n        /* \"#utility.yul\":27170:27171   */\n      dup1\n        /* \"#utility.yul\":27163:27175   */\n      revert\n        /* \"#utility.yul\":27114:27177   */\n    tag_619:\n        /* \"#utility.yul\":27061:27183   */\n      pop\n      jump\t// out\n        /* \"#utility.yul\":27189:27295   */\n    tag_324:\n        /* \"#utility.yul\":27269:27270   */\n      0x05\n        /* \"#utility.yul\":27262:27267   */\n      dup2\n        /* \"#utility.yul\":27259:27271   */\n      lt\n        /* \"#utility.yul\":27249:27289   */\n      tag_621\n      jumpi\n        /* \"#utility.yul\":27285:27286   */\n      0x00\n        /* \"#utility.yul\":27282:27283   */\n      dup1\n        /* \"#utility.yul\":27275:27287   */\n      revert\n        /* \"#utility.yul\":27249:27289   */\n    tag_621:\n        /* \"#utility.yul\":27189:27295   */\n      pop\n      jump\t// out\n        /* \"#utility.yul\":27301:27423   */\n    tag_362:\n        /* \"#utility.yul\":27374:27398   */\n      tag_623\n        /* \"#utility.yul\":27392:27397   */\n      dup2\n        /* \"#utility.yul\":27374:27398   */\n      tag_489\n      jump\t// in\n    tag_623:\n        /* \"#utility.yul\":27367:27372   */\n      dup2\n        /* \"#utility.yul\":27364:27399   */\n      eq\n        /* \"#utility.yul\":27354:27417   */\n      tag_624\n      jumpi\n        /* \"#utility.yul\":27413:27414   */\n      0x00\n        /* \"#utility.yul\":27410:27411   */\n      dup1\n        /* \"#utility.yul\":27403:27415   */\n      revert\n        /* \"#utility.yul\":27354:27417   */\n    tag_624:\n        /* \"#utility.yul\":27301:27423   */\n      pop\n      jump\t// out\n\n    auxdata: 0xa264697066735822122066f39b78c6917a40b4a16a337956a4d35c570d080d53d654eeb08dedd4aaaa0b64736f6c63430008070033\n}\n",
				"bytecode": {
					"linkReferences": {},
					"object": "60806040523480156200001157600080fd5b506040516200345b3803806200345b833981810160405281019062000037919062000243565b82600090805190602001906200004f929190620000fe565b50816001908051906020019062000068929190620000fe565b508060038190555033600260006101000a81548173ffffffffffffffffffffffffffffffffffffffff021916908373ffffffffffffffffffffffffffffffffffffffff16021790555080600460003373ffffffffffffffffffffffffffffffffffffffff1673ffffffffffffffffffffffffffffffffffffffff1681526020019081526020016000208190555050505062000485565b8280546200010c906200037c565b90600052602060002090601f0160209004810192826200013057600085556200017c565b82601f106200014b57805160ff19168380011785556200017c565b828001600101855582156200017c579182015b828111156200017b5782518255916020019190600101906200015e565b5b5090506200018b91906200018f565b5090565b5b80821115620001aa57600081600090555060010162000190565b5090565b6000620001c5620001bf8462000306565b620002dd565b905082815260208101848484011115620001e457620001e36200044b565b5b620001f184828562000346565b509392505050565b600082601f83011262000211576200021062000446565b5b815162000223848260208601620001ae565b91505092915050565b6000815190506200023d816200046b565b92915050565b6000806000606084860312156200025f576200025e62000455565b5b600084015167ffffffffffffffff81111562000280576200027f62000450565b5b6200028e86828701620001f9565b935050602084015167ffffffffffffffff811115620002b257620002b162000450565b5b620002c086828701620001f9565b9250506040620002d3868287016200022c565b9150509250925092565b6000620002e9620002fc565b9050620002f78282620003b2565b919050565b6000604051905090565b600067ffffffffffffffff82111562000324576200032362000417565b5b6200032f826200045a565b9050602081019050919050565b6000819050919050565b60005b838110156200036657808201518184015260208101905062000349565b8381111562000376576000848401525b50505050565b600060028204905060018216806200039557607f821691505b60208210811415620003ac57620003ab620003e8565b5b50919050565b620003bd826200045a565b810181811067ffffffffffffffff82111715620003df57620003de62000417565b5b80604052505050565b7f4e487b7100000000000000000000000000000000000000000000000000000000600052602260045260246000fd5b7f4e487b7100000000000000000000000000000000000000000000000000000000600052604160045260246000fd5b600080fd5b600080fd5b600080fd5b600080fd5b6000601f19601f8301169050919050565b62000476816200033c565b81146200048257600080fd5b50565b612fc680620004956000396000f3fe6080604052600436106100f35760003560e01c806395d89b411161008a578063a482171911610059578063a482171914610338578063b292abf114610342578063cd0c589614610380578063eedc966a146103bd576100f3565b806395d89b41146102905780639dc29fac146102bb578063a0712d68146102e4578063a3e676101461030d576100f3565b8063561e0e98116100c6578063561e0e981461019e5780636813b53b146101c757806368cdafe61461020e57806379a85e6c1461024b576100f3565b806306fdde03146100f85780632bd5889f1461012357806340932fc21461014c57806353b6286614610175575b600080fd5b34801561010457600080fd5b5061010d6103fa565b60405161011a91906128d2565b60405180910390f35b34801561012f57600080fd5b5061014a60048036038101906101459190612432565b610488565b005b34801561015857600080fd5b50610173600480360381019061016e9190612356565b61058e565b005b34801561018157600080fd5b5061019c6004803603810190610197919061248e565b6107c4565b005b3480156101aa57600080fd5b506101c560048036038101906101c091906124ce565b610a8b565b005b3480156101d357600080fd5b506101ee60048036038101906101e99190612405565b610dd7565b6040516102059b9a99989796959493929190612a03565b60405180910390f35b34801561021a57600080fd5b50610235600480360381019061023091906123c5565b611304565b6040516102429190612887565b60405180910390f35b34801561025757600080fd5b50610272600480360381019061026d9190612405565b611442565b6040516102879998979695949392919061296f565b60405180910390f35b34801561029c57600080fd5b506102a56119f9565b6040516102b291906128d2565b60405180910390f35b3480156102c757600080fd5b506102e260048036038101906102dd91906123c5565b611a87565b005b3480156102f057600080fd5b5061030b60048036038101906103069190612405565b611c10565b005b34801561031957600080fd5b50610322611d12565b60405161032f919061286c565b60405180910390f35b610340611d38565b005b34801561034e57600080fd5b5061036960048036038101906103649190612329565b611e90565b6040516103779291906128a2565b60405180910390f35b34801561038c57600080fd5b506103a760048036038101906103a29190612329565b611fb8565b6040516103b49190612954565b60405180910390f35b3480156103c957600080fd5b506103e460048036038101906103df9190612329565b611fd9565b6040516103f19190612954565b60405180910390f35b6000805461040790612d03565b80601f016020809104026020016040519081016040528092919081815260200182805461043390612d03565b80156104805780601f1061045557610100808354040283529160200191610480565b820191906000526020600020905b81548152906001019060200180831161046357829003601f168201915b505050505081565b600260009054906101000a900473ffffffffffffffffffffffffffffffffffffffff1673ffffffffffffffffffffffffffffffffffffffff163373ffffffffffffffffffffffffffffffffffffffff1614610518576040517f08c379a000000000000000000000000000000000000000000000000000000000815260040161050f90612934565b60405180910390fd5b6000826003600082825461052c9190612b62565b9250508190555082600460003373ffffffffffffffffffffffffffffffffffffffff1673ffffffffffffffffffffffffffffffffffffffff16815260200190815260200160002060008282546105829190612b62565b92505081905550505050565b6000600560008573ffffffffffffffffffffffffffffffffffffffff1673ffffffffffffffffffffffffffffffffffffffff1681526020019081526020016000206040518060600160405290816000820160009054906101000a900460ff1660048111156105ff576105fe612dc4565b5b600481111561061157610610612dc4565b5b815260200160018201805461062590612d03565b80601f016020809104026020016040519081016040528092919081815260200182805461065190612d03565b801561069e5780601f106106735761010080835404028352916020019161069e565b820191906000526020600020905b81548152906001019060200180831161068157829003601f168201915b505050505081526020016002820160009054906101000a900460ff161515151581525050905082816000019060048111156106dc576106db612dc4565b5b908160048111156106f0576106ef612dc4565b5b81525050818160200181905250600181604001901515908115158152505080600560008673ffffffffffffffffffffffffffffffffffffffff1673ffffffffffffffffffffffffffffffffffffffff16815260200190815260200160002060008201518160000160006101000a81548160ff0219169083600481111561077957610778612dc4565b5b0217905550602082015181600101908051906020019061079a929190612022565b5060408201518160020160006101000a81548160ff02191690831515021790555090505050505050565b600160048111156107d8576107d7612dc4565b5b600560003373ffffffffffffffffffffffffffffffffffffffff1673ffffffffffffffffffffffffffffffffffffffff16815260200190815260200160002060000160009054906101000a900460ff16600481111561083a57610839612dc4565b5b1461087a576040517f08c379a0000000000000000000000000000000000000000000000000000000008152600401610871906128f4565b60405180910390fd5b60006006600084815260200190815260200160002090506000600460003373ffffffffffffffffffffffffffffffffffffffff1673ffffffffffffffffffffffffffffffffffffffff16815260200190815260200160002054905081600a01548110156108e657600080fd5b600160058111156108fa576108f9612dc4565b5b8260090160009054906101000a900460ff16600581111561091e5761091d612dc4565b5b1461092857600080fd5b826006600086815260200190815260200160002060030160016006811061095257610951612e22565b5b01819055503360066000868152602001908152602001600020600b0160006101000a81548173ffffffffffffffffffffffffffffffffffffffff021916908373ffffffffffffffffffffffffffffffffffffffff1602179055506109f06006600086815260200190815260200160002060010160009054906101000a900473ffffffffffffffffffffffffffffffffffffffff1683600a0154611304565b5060056006600086815260200190815260200160002060090160006101000a81548160ff02191690836005811115610a2b57610a2a612dc4565b5b0217905550336006600086815260200190815260200160002060010160006101000a81548173ffffffffffffffffffffffffffffffffffffffff021916908373ffffffffffffffffffffffffffffffffffffffff16021790555050505050565b60006004811115610a9f57610a9e612dc4565b5b600560003373ffffffffffffffffffffffffffffffffffffffff1673ffffffffffffffffffffffffffffffffffffffff16815260200190815260200160002060000160009054906101000a900460ff166004811115610b0157610b00612dc4565b5b14610b41576040517f08c379a0000000000000000000000000000000000000000000000000000000008152600401610b3890612914565b60405180910390fd5b6000600660008c815260200190815260200160002090508a8160000181905550338160010160006101000a81548173ffffffffffffffffffffffffffffffffffffffff021916908373ffffffffffffffffffffffffffffffffffffffff160217905550338160020160006101000a81548173ffffffffffffffffffffffffffffffffffffffff021916908373ffffffffffffffffffffffffffffffffffffffff1602179055508981600301600060068110610bff57610bfe612e22565b5b018190555060018160090160006101000a81548160ff02191690836005811115610c2c57610c2b612dc4565b5b02179055508881600a0181905550600081600b0160006101000a81548173ffffffffffffffffffffffffffffffffffffffff021916908373ffffffffffffffffffffffffffffffffffffffff160217905550600081600c0160006101000a81548173ffffffffffffffffffffffffffffffffffffffff021916908373ffffffffffffffffffffffffffffffffffffffff160217905550600081600d0160006101000a81548173ffffffffffffffffffffffffffffffffffffffff021916908373ffffffffffffffffffffffffffffffffffffffff1602179055508781600e016000019080519060200190610d21929190612022565b508681600e016001019080519060200190610d3d929190612022565b508581600e016002019080519060200190610d59929190612022565b508481600e016003019080519060200190610d75929190612022565b508381600e016004019080519060200190610d91929190612022565b508281600e016005019080519060200190610dad929190612022565b508181600e016006019080519060200190610dc9929190612022565b505050505050505050505050565b6000806000806060806060806060806060600660008d8152602001908152602001600020600001549a50600660008d815260200190815260200160002060010160009054906101000a900473ffffffffffffffffffffffffffffffffffffffff169950600660008d815260200190815260200160002060090160009054906101000a900460ff169850600660008d8152602001908152602001600020600a01549750600660008d8152602001908152602001600020600e016000018054610e9d90612d03565b80601f0160208091040260200160405190810160405280929190818152602001828054610ec990612d03565b8015610f165780601f10610eeb57610100808354040283529160200191610f16565b820191906000526020600020905b815481529060010190602001808311610ef957829003601f168201915b50505050509650600660008d8152602001908152602001600020600e016001018054610f4190612d03565b80601f0160208091040260200160405190810160405280929190818152602001828054610f6d90612d03565b8015610fba5780601f10610f8f57610100808354040283529160200191610fba565b820191906000526020600020905b815481529060010190602001808311610f9d57829003601f168201915b50505050509550600660008d8152602001908152602001600020600e016002018054610fe590612d03565b80601f016020809104026020016040519081016040528092919081815260200182805461101190612d03565b801561105e5780601f106110335761010080835404028352916020019161105e565b820191906000526020600020905b81548152906001019060200180831161104157829003601f168201915b50505050509450600660008d8152602001908152602001600020600e01600301805461108990612d03565b80601f01602080910402602001604051908101604052809291908181526020018280546110b590612d03565b80156111025780601f106110d757610100808354040283529160200191611102565b820191906000526020600020905b8154815290600101906020018083116110e557829003601f168201915b50505050509350600660008d8152602001908152602001600020600e01600401805461112d90612d03565b80601f016020809104026020016040519081016040528092919081815260200182805461115990612d03565b80156111a65780601f1061117b576101008083540402835291602001916111a6565b820191906000526020600020905b81548152906001019060200180831161118957829003601f168201915b50505050509250600660008d8152602001908152602001600020600e0160050180546111d190612d03565b80601f01602080910402602001604051908101604052809291908181526020018280546111fd90612d03565b801561124a5780601f1061121f5761010080835404028352916020019161124a565b820191906000526020600020905b81548152906001019060200180831161122d57829003601f168201915b50505050509150600660008d8152602001908152602001600020600e01600601805461127590612d03565b80601f01602080910402602001604051908101604052809291908181526020018280546112a190612d03565b80156112ee5780601f106112c3576101008083540402835291602001916112ee565b820191906000526020600020905b8154815290600101906020018083116112d157829003601f168201915b5050505050905091939597999b90929496989a50565b600081600460003373ffffffffffffffffffffffffffffffffffffffff1673ffffffffffffffffffffffffffffffffffffffff16815260200190815260200160002054101561135257600080fd5b600073ffffffffffffffffffffffffffffffffffffffff168373ffffffffffffffffffffffffffffffffffffffff16141561138c57600080fd5b81600460003373ffffffffffffffffffffffffffffffffffffffff1673ffffffffffffffffffffffffffffffffffffffff16815260200190815260200160002060008282546113db9190612be9565b9250508190555081600460008573ffffffffffffffffffffffffffffffffffffffff1673ffffffffffffffffffffffffffffffffffffffff16815260200190815260200160002060008282546114319190612b62565b925050819055506001905092915050565b6000806000806000806000806114566120a8565b600660008b8152602001908152602001600020600001549850600660008b815260200190815260200160002060020160009054906101000a900473ffffffffffffffffffffffffffffffffffffffff169750600660008b815260200190815260200160002060010160009054906101000a900473ffffffffffffffffffffffffffffffffffffffff169650600660008b8152602001908152602001600020600b0160009054906101000a900473ffffffffffffffffffffffffffffffffffffffff169350600660008b8152602001908152602001600020600c0160009054906101000a900473ffffffffffffffffffffffffffffffffffffffff169250600660008b8152602001908152602001600020600d0160009054906101000a900473ffffffffffffffffffffffffffffffffffffffff169150600660008b815260200190815260200160002060090160009054906101000a900460ff169550600660008b8152602001908152602001600020600a01549450600660008b8152602001908152602001600020600e016040518060e00160405290816000820180546115fc90612d03565b80601f016020809104026020016040519081016040528092919081815260200182805461162890612d03565b80156116755780601f1061164a57610100808354040283529160200191611675565b820191906000526020600020905b81548152906001019060200180831161165857829003601f168201915b5050505050815260200160018201805461168e90612d03565b80601f01602080910402602001604051908101604052809291908181526020018280546116ba90612d03565b80156117075780601f106116dc57610100808354040283529160200191611707565b820191906000526020600020905b8154815290600101906020018083116116ea57829003601f168201915b5050505050815260200160028201805461172090612d03565b80601f016020809104026020016040519081016040528092919081815260200182805461174c90612d03565b80156117995780601f1061176e57610100808354040283529160200191611799565b820191906000526020600020905b81548152906001019060200180831161177c57829003601f168201915b505050505081526020016003820180546117b290612d03565b80601f01602080910402602001604051908101604052809291908181526020018280546117de90612d03565b801561182b5780601f106118005761010080835404028352916020019161182b565b820191906000526020600020905b81548152906001019060200180831161180e57829003601f168201915b5050505050815260200160048201805461184490612d03565b80601f016020809104026020016040519081016040528092919081815260200182805461187090612d03565b80156118bd5780601f10611892576101008083540402835291602001916118bd565b820191906000526020600020905b8154815290600101906020018083116118a057829003601f168201915b505050505081526020016005820180546118d690612d03565b80601f016020809104026020016040519081016040528092919081815260200182805461190290612d03565b801561194f5780601f106119245761010080835404028352916020019161194f565b820191906000526020600020905b81548152906001019060200180831161193257829003601f168201915b5050505050815260200160068201805461196890612d03565b80601f016020809104026020016040519081016040528092919081815260200182805461199490612d03565b80156119e15780601f106119b6576101008083540402835291602001916119e1565b820191906000526020600020905b8154815290600101906020018083116119c457829003601f168201915b50505050508152505090509193959799909294969850565b60018054611a0690612d03565b80601f0160208091040260200160405190810160405280929190818152602001828054611a3290612d03565b8015611a7f5780601f10611a5457610100808354040283529160200191611a7f565b820191906000526020600020905b815481529060010190602001808311611a6257829003601f168201915b505050505081565b600260009054906101000a900473ffffffffffffffffffffffffffffffffffffffff1673ffffffffffffffffffffffffffffffffffffffff163373ffffffffffffffffffffffffffffffffffffffff1614611b17576040517f08c379a0000000000000000000000000000000000000000000000000000000008152600401611b0e90612934565b60405180910390fd5b600073ffffffffffffffffffffffffffffffffffffffff168273ffffffffffffffffffffffffffffffffffffffff161415611b5157600080fd5b600460008373ffffffffffffffffffffffffffffffffffffffff1673ffffffffffffffffffffffffffffffffffffffff16815260200190815260200160002054811115611b9d57600080fd5b8060036000828254611baf9190612be9565b9250508190555080600460008473ffffffffffffffffffffffffffffffffffffffff1673ffffffffffffffffffffffffffffffffffffffff1681526020019081526020016000206000828254611c059190612be9565b925050819055505050565b600260009054906101000a900473ffffffffffffffffffffffffffffffffffffffff1673ffffffffffffffffffffffffffffffffffffffff163373ffffffffffffffffffffffffffffffffffffffff1614611ca0576040517f08c379a0000000000000000000000000000000000000000000000000000000008152600401611c9790612934565b60405180910390fd5b8060036000828254611cb29190612b62565b9250508190555080600460003373ffffffffffffffffffffffffffffffffffffffff1673ffffffffffffffffffffffffffffffffffffffff1681526020019081526020016000206000828254611d089190612b62565b9250508190555050565b600260009054906101000a900473ffffffffffffffffffffffffffffffffffffffff1681565b6000606434611d479190612bb8565b905060003411611d5657600080fd5b600260009054906101000a900473ffffffffffffffffffffffffffffffffffffffff1673ffffffffffffffffffffffffffffffffffffffff166108fc349081150290604051600060405180830381858888f19350505050158015611dbe573d6000803e3d6000fd5b508060046000600260009054906101000a900473ffffffffffffffffffffffffffffffffffffffff1673ffffffffffffffffffffffffffffffffffffffff1673ffffffffffffffffffffffffffffffffffffffff1681526020019081526020016000206000828254611e309190612be9565b9250508190555080600460003373ffffffffffffffffffffffffffffffffffffffff1673ffffffffffffffffffffffffffffffffffffffff1681526020019081526020016000206000828254611e869190612b62565b9250508190555050565b60006060600560008473ffffffffffffffffffffffffffffffffffffffff1673ffffffffffffffffffffffffffffffffffffffff16815260200190815260200160002060000160009054906101000a900460ff169150600560008473ffffffffffffffffffffffffffffffffffffffff1673ffffffffffffffffffffffffffffffffffffffff1681526020019081526020016000206001018054611f3390612d03565b80601f0160208091040260200160405190810160405280929190818152602001828054611f5f90612d03565b8015611fac5780601f10611f8157610100808354040283529160200191611fac565b820191906000526020600020905b815481529060010190602001808311611f8f57829003601f168201915b50505050509050915091565b60008173ffffffffffffffffffffffffffffffffffffffff16319050919050565b6000600460008373ffffffffffffffffffffffffffffffffffffffff1673ffffffffffffffffffffffffffffffffffffffff168152602001908152602001600020549050919050565b82805461202e90612d03565b90600052602060002090601f0160209004810192826120505760008555612097565b82601f1061206957805160ff1916838001178555612097565b82800160010185558215612097579182015b8281111561209657825182559160200191906001019061207b565b5b5090506120a491906120e5565b5090565b6040518060e00160405280606081526020016060815260200160608152602001606081526020016060815260200160608152602001606081525090565b5b808211156120fe5760008160009055506001016120e6565b5090565b600061211561211084612b04565b612adf565b90508281526020810184848401111561213157612130612e8f565b5b61213c848285612cc1565b509392505050565b60008135905061215381612f52565b92915050565b60008135905061216881612f69565b92915050565b600082601f83011261218357612182612e80565b5b8135612193848260208601612102565b91505092915050565b600060e082840312156121b2576121b1612e85565b5b6121bc60e0612adf565b9050600082013567ffffffffffffffff8111156121dc576121db612e8a565b5b6121e88482850161216e565b600083015250602082013567ffffffffffffffff81111561220c5761220b612e8a565b5b6122188482850161216e565b602083015250604082013567ffffffffffffffff81111561223c5761223b612e8a565b5b6122488482850161216e565b604083015250606082013567ffffffffffffffff81111561226c5761226b612e8a565b5b6122788482850161216e565b606083015250608082013567ffffffffffffffff81111561229c5761229b612e8a565b5b6122a88482850161216e565b60808301525060a082013567ffffffffffffffff8111156122cc576122cb612e8a565b5b6122d88482850161216e565b60a08301525060c082013567ffffffffffffffff8111156122fc576122fb612e8a565b5b6123088482850161216e565b60c08301525092915050565b60008135905061232381612f79565b92915050565b60006020828403121561233f5761233e612e99565b5b600061234d84828501612144565b91505092915050565b60008060006060848603121561236f5761236e612e99565b5b600061237d86828701612144565b935050602061238e86828701612159565b925050604084013567ffffffffffffffff8111156123af576123ae612e94565b5b6123bb8682870161216e565b9150509250925092565b600080604083850312156123dc576123db612e99565b5b60006123ea85828601612144565b92505060206123fb85828601612314565b9150509250929050565b60006020828403121561241b5761241a612e99565b5b600061242984828501612314565b91505092915050565b6000806040838503121561244957612448612e99565b5b600061245785828601612314565b925050602083013567ffffffffffffffff81111561247857612477612e94565b5b6124848582860161219c565b9150509250929050565b600080604083850312156124a5576124a4612e99565b5b60006124b385828601612314565b92505060206124c485828601612314565b9150509250929050565b6000806000806000806000806000806101408b8d0312156124f2576124f1612e99565b5b60006125008d828e01612314565b9a505060206125118d828e01612314565b99505060406125228d828e01612314565b98505060608b013567ffffffffffffffff81111561254357612542612e94565b5b61254f8d828e0161216e565b97505060808b013567ffffffffffffffff8111156125705761256f612e94565b5b61257c8d828e0161216e565b96505060a08b013567ffffffffffffffff81111561259d5761259c612e94565b5b6125a98d828e0161216e565b95505060c08b013567ffffffffffffffff8111156125ca576125c9612e94565b5b6125d68d828e0161216e565b94505060e08b013567ffffffffffffffff8111156125f7576125f6612e94565b5b6126038d828e0161216e565b9350506101008b013567ffffffffffffffff81111561262557612624612e94565b5b6126318d828e0161216e565b9250506101208b013567ffffffffffffffff81111561265357612652612e94565b5b61265f8d828e0161216e565b9150509295989b9194979a5092959850565b61267a81612c2f565b82525050565b61268981612c1d565b82525050565b61269881612c41565b82525050565b6126a781612c9d565b82525050565b6126b681612caf565b82525050565b60006126c782612b35565b6126d18185612b40565b93506126e1818560208601612cd0565b6126ea81612e9e565b840191505092915050565b600061270082612b35565b61270a8185612b51565b935061271a818560208601612cd0565b61272381612e9e565b840191505092915050565b600061273b601c83612b51565b915061274682612eaf565b602082019050919050565b600061275e601983612b51565b915061276982612ed8565b602082019050919050565b6000612781601e83612b51565b915061278c82612f01565b602082019050919050565b600060e08301600083015184820360008601526127b482826126bc565b915050602083015184820360208601526127ce82826126bc565b915050604083015184820360408601526127e882826126bc565b9150506060830151848203606086015261280282826126bc565b9150506080830151848203608086015261281c82826126bc565b91505060a083015184820360a086015261283682826126bc565b91505060c083015184820360c086015261285082826126bc565b9150508091505092915050565b61286681612c93565b82525050565b60006020820190506128816000830184612671565b92915050565b600060208201905061289c600083018461268f565b92915050565b60006040820190506128b7600083018561269e565b81810360208301526128c981846126f5565b90509392505050565b600060208201905081810360008301526128ec81846126f5565b905092915050565b6000602082019050818103600083015261290d8161272e565b9050919050565b6000602082019050818103600083015261292d81612751565b9050919050565b6000602082019050818103600083015261294d81612774565b9050919050565b6000602082019050612969600083018461285d565b92915050565b600061012082019050612985600083018c61285d565b612992602083018b612680565b61299f604083018a612680565b6129ac60608301896126ad565b6129b9608083018861285d565b6129c660a0830187612680565b6129d360c0830186612680565b6129e060e0830185612680565b8181036101008301526129f38184612797565b90509a9950505050505050505050565b600061016082019050612a19600083018e61285d565b612a26602083018d612680565b612a33604083018c6126ad565b612a40606083018b61285d565b8181036080830152612a52818a6126f5565b905081810360a0830152612a6681896126f5565b905081810360c0830152612a7a81886126f5565b905081810360e0830152612a8e81876126f5565b9050818103610100830152612aa381866126f5565b9050818103610120830152612ab881856126f5565b9050818103610140830152612acd81846126f5565b90509c9b505050505050505050505050565b6000612ae9612afa565b9050612af58282612d35565b919050565b6000604051905090565b600067ffffffffffffffff821115612b1f57612b1e612e51565b5b612b2882612e9e565b9050602081019050919050565b600081519050919050565b600082825260208201905092915050565b600082825260208201905092915050565b6000612b6d82612c93565b9150612b7883612c93565b9250827fffffffffffffffffffffffffffffffffffffffffffffffffffffffffffffffff03821115612bad57612bac612d66565b5b828201905092915050565b6000612bc382612c93565b9150612bce83612c93565b925082612bde57612bdd612d95565b5b828204905092915050565b6000612bf482612c93565b9150612bff83612c93565b925082821015612c1257612c11612d66565b5b828203905092915050565b6000612c2882612c73565b9050919050565b6000612c3a82612c73565b9050919050565b60008115159050919050565b6000819050612c5b82612f2a565b919050565b6000819050612c6e82612f3e565b919050565b600073ffffffffffffffffffffffffffffffffffffffff82169050919050565b6000819050919050565b6000612ca882612c4d565b9050919050565b6000612cba82612c60565b9050919050565b82818337600083830152505050565b60005b83811015612cee578082015181840152602081019050612cd3565b83811115612cfd576000848401525b50505050565b60006002820490506001821680612d1b57607f821691505b60208210811415612d2f57612d2e612df3565b5b50919050565b612d3e82612e9e565b810181811067ffffffffffffffff82111715612d5d57612d5c612e51565b5b80604052505050565b7f4e487b7100000000000000000000000000000000000000000000000000000000600052601160045260246000fd5b7f4e487b7100000000000000000000000000000000000000000000000000000000600052601260045260246000fd5b7f4e487b7100000000000000000000000000000000000000000000000000000000600052602160045260246000fd5b7f4e487b7100000000000000000000000000000000000000000000000000000000600052602260045260246000fd5b7f4e487b7100000000000000000000000000000000000000000000000000000000600052603260045260246000fd5b7f4e487b7100000000000000000000000000000000000000000000000000000000600052604160045260246000fd5b600080fd5b600080fd5b600080fd5b600080fd5b600080fd5b600080fd5b6000601f19601f8301169050919050565b7f63616c6c6572206973206e6f742061206469737472696275746f722e00000000600082015250565b7f63616c6c6572206973206e6f7420612070726f64756365722e00000000000000600082015250565b7f63616c6c6572206973206e6f742074686520746f6b656e206f776e65722e0000600082015250565b60058110612f3b57612f3a612dc4565b5b50565b60068110612f4f57612f4e612dc4565b5b50565b612f5b81612c1d565b8114612f6657600080fd5b50565b60058110612f7657600080fd5b50565b612f8281612c93565b8114612f8d57600080fd5b5056fea264697066735822122066f39b78c6917a40b4a16a337956a4d35c570d080d53d654eeb08dedd4aaaa0b64736f6c63430008070033",
					"opcodes": "PUSH1 0x80 PUSH1 0x40 MSTORE CALLVALUE DUP1 ISZERO PUSH3 0x11 JUMPI PUSH1 0x0 DUP1 REVERT JUMPDEST POP PUSH1 0x40 MLOAD PUSH3 0x345B CODESIZE SUB DUP1 PUSH3 0x345B DUP4 CODECOPY DUP2 DUP2 ADD PUSH1 0x40 MSTORE DUP2 ADD SWAP1 PUSH3 0x37 SWAP2 SWAP1 PUSH3 0x243 JUMP JUMPDEST DUP3 PUSH1 0x0 SWAP1 DUP1 MLOAD SWAP1 PUSH1 0x20 ADD SWAP1 PUSH3 0x4F SWAP3 SWAP2 SWAP1 PUSH3 0xFE JUMP JUMPDEST POP DUP2 PUSH1 0x1 SWAP1 DUP1 MLOAD SWAP1 PUSH1 0x20 ADD SWAP1 PUSH3 0x68 SWAP3 SWAP2 SWAP1 PUSH3 0xFE JUMP JUMPDEST POP DUP1 PUSH1 0x3 DUP2 SWAP1 SSTORE POP CALLER PUSH1 0x2 PUSH1 0x0 PUSH2 0x100 EXP DUP2 SLOAD DUP2 PUSH20 0xFFFFFFFFFFFFFFFFFFFFFFFFFFFFFFFFFFFFFFFF MUL NOT AND SWAP1 DUP4 PUSH20 0xFFFFFFFFFFFFFFFFFFFFFFFFFFFFFFFFFFFFFFFF AND MUL OR SWAP1 SSTORE POP DUP1 PUSH1 0x4 PUSH1 0x0 CALLER PUSH20 0xFFFFFFFFFFFFFFFFFFFFFFFFFFFFFFFFFFFFFFFF AND PUSH20 0xFFFFFFFFFFFFFFFFFFFFFFFFFFFFFFFFFFFFFFFF AND DUP2 MSTORE PUSH1 0x20 ADD SWAP1 DUP2 MSTORE PUSH1 0x20 ADD PUSH1 0x0 KECCAK256 DUP2 SWAP1 SSTORE POP POP POP POP PUSH3 0x485 JUMP JUMPDEST DUP3 DUP1 SLOAD PUSH3 0x10C SWAP1 PUSH3 0x37C JUMP JUMPDEST SWAP1 PUSH1 0x0 MSTORE PUSH1 0x20 PUSH1 0x0 KECCAK256 SWAP1 PUSH1 0x1F ADD PUSH1 0x20 SWAP1 DIV DUP2 ADD SWAP3 DUP3 PUSH3 0x130 JUMPI PUSH1 0x0 DUP6 SSTORE PUSH3 0x17C JUMP JUMPDEST DUP3 PUSH1 0x1F LT PUSH3 0x14B JUMPI DUP1 MLOAD PUSH1 0xFF NOT AND DUP4 DUP1 ADD OR DUP6 SSTORE PUSH3 0x17C JUMP JUMPDEST DUP3 DUP1 ADD PUSH1 0x1 ADD DUP6 SSTORE DUP3 ISZERO PUSH3 0x17C JUMPI SWAP2 DUP3 ADD JUMPDEST DUP3 DUP2 GT ISZERO PUSH3 0x17B JUMPI DUP3 MLOAD DUP3 SSTORE SWAP2 PUSH1 0x20 ADD SWAP2 SWAP1 PUSH1 0x1 ADD SWAP1 PUSH3 0x15E JUMP JUMPDEST JUMPDEST POP SWAP1 POP PUSH3 0x18B SWAP2 SWAP1 PUSH3 0x18F JUMP JUMPDEST POP SWAP1 JUMP JUMPDEST JUMPDEST DUP1 DUP3 GT ISZERO PUSH3 0x1AA JUMPI PUSH1 0x0 DUP2 PUSH1 0x0 SWAP1 SSTORE POP PUSH1 0x1 ADD PUSH3 0x190 JUMP JUMPDEST POP SWAP1 JUMP JUMPDEST PUSH1 0x0 PUSH3 0x1C5 PUSH3 0x1BF DUP5 PUSH3 0x306 JUMP JUMPDEST PUSH3 0x2DD JUMP JUMPDEST SWAP1 POP DUP3 DUP2 MSTORE PUSH1 0x20 DUP2 ADD DUP5 DUP5 DUP5 ADD GT ISZERO PUSH3 0x1E4 JUMPI PUSH3 0x1E3 PUSH3 0x44B JUMP JUMPDEST JUMPDEST PUSH3 0x1F1 DUP5 DUP3 DUP6 PUSH3 0x346 JUMP JUMPDEST POP SWAP4 SWAP3 POP POP POP JUMP JUMPDEST PUSH1 0x0 DUP3 PUSH1 0x1F DUP4 ADD SLT PUSH3 0x211 JUMPI PUSH3 0x210 PUSH3 0x446 JUMP JUMPDEST JUMPDEST DUP2 MLOAD PUSH3 0x223 DUP5 DUP3 PUSH1 0x20 DUP7 ADD PUSH3 0x1AE JUMP JUMPDEST SWAP2 POP POP SWAP3 SWAP2 POP POP JUMP JUMPDEST PUSH1 0x0 DUP2 MLOAD SWAP1 POP PUSH3 0x23D DUP2 PUSH3 0x46B JUMP JUMPDEST SWAP3 SWAP2 POP POP JUMP JUMPDEST PUSH1 0x0 DUP1 PUSH1 0x0 PUSH1 0x60 DUP5 DUP7 SUB SLT ISZERO PUSH3 0x25F JUMPI PUSH3 0x25E PUSH3 0x455 JUMP JUMPDEST JUMPDEST PUSH1 0x0 DUP5 ADD MLOAD PUSH8 0xFFFFFFFFFFFFFFFF DUP2 GT ISZERO PUSH3 0x280 JUMPI PUSH3 0x27F PUSH3 0x450 JUMP JUMPDEST JUMPDEST PUSH3 0x28E DUP7 DUP3 DUP8 ADD PUSH3 0x1F9 JUMP JUMPDEST SWAP4 POP POP PUSH1 0x20 DUP5 ADD MLOAD PUSH8 0xFFFFFFFFFFFFFFFF DUP2 GT ISZERO PUSH3 0x2B2 JUMPI PUSH3 0x2B1 PUSH3 0x450 JUMP JUMPDEST JUMPDEST PUSH3 0x2C0 DUP7 DUP3 DUP8 ADD PUSH3 0x1F9 JUMP JUMPDEST SWAP3 POP POP PUSH1 0x40 PUSH3 0x2D3 DUP7 DUP3 DUP8 ADD PUSH3 0x22C JUMP JUMPDEST SWAP2 POP POP SWAP3 POP SWAP3 POP SWAP3 JUMP JUMPDEST PUSH1 0x0 PUSH3 0x2E9 PUSH3 0x2FC JUMP JUMPDEST SWAP1 POP PUSH3 0x2F7 DUP3 DUP3 PUSH3 0x3B2 JUMP JUMPDEST SWAP2 SWAP1 POP JUMP JUMPDEST PUSH1 0x0 PUSH1 0x40 MLOAD SWAP1 POP SWAP1 JUMP JUMPDEST PUSH1 0x0 PUSH8 0xFFFFFFFFFFFFFFFF DUP3 GT ISZERO PUSH3 0x324 JUMPI PUSH3 0x323 PUSH3 0x417 JUMP JUMPDEST JUMPDEST PUSH3 0x32F DUP3 PUSH3 0x45A JUMP JUMPDEST SWAP1 POP PUSH1 0x20 DUP2 ADD SWAP1 POP SWAP2 SWAP1 POP JUMP JUMPDEST PUSH1 0x0 DUP2 SWAP1 POP SWAP2 SWAP1 POP JUMP JUMPDEST PUSH1 0x0 JUMPDEST DUP4 DUP2 LT ISZERO PUSH3 0x366 JUMPI DUP1 DUP3 ADD MLOAD DUP2 DUP5 ADD MSTORE PUSH1 0x20 DUP2 ADD SWAP1 POP PUSH3 0x349 JUMP JUMPDEST DUP4 DUP2 GT ISZERO PUSH3 0x376 JUMPI PUSH1 0x0 DUP5 DUP5 ADD MSTORE JUMPDEST POP POP POP POP JUMP JUMPDEST PUSH1 0x0 PUSH1 0x2 DUP3 DIV SWAP1 POP PUSH1 0x1 DUP3 AND DUP1 PUSH3 0x395 JUMPI PUSH1 0x7F DUP3 AND SWAP2 POP JUMPDEST PUSH1 0x20 DUP3 LT DUP2 EQ ISZERO PUSH3 0x3AC JUMPI PUSH3 0x3AB PUSH3 0x3E8 JUMP JUMPDEST JUMPDEST POP SWAP2 SWAP1 POP JUMP JUMPDEST PUSH3 0x3BD DUP3 PUSH3 0x45A JUMP JUMPDEST DUP2 ADD DUP2 DUP2 LT PUSH8 0xFFFFFFFFFFFFFFFF DUP3 GT OR ISZERO PUSH3 0x3DF JUMPI PUSH3 0x3DE PUSH3 0x417 JUMP JUMPDEST JUMPDEST DUP1 PUSH1 0x40 MSTORE POP POP POP JUMP JUMPDEST PUSH32 0x4E487B7100000000000000000000000000000000000000000000000000000000 PUSH1 0x0 MSTORE PUSH1 0x22 PUSH1 0x4 MSTORE PUSH1 0x24 PUSH1 0x0 REVERT JUMPDEST PUSH32 0x4E487B7100000000000000000000000000000000000000000000000000000000 PUSH1 0x0 MSTORE PUSH1 0x41 PUSH1 0x4 MSTORE PUSH1 0x24 PUSH1 0x0 REVERT JUMPDEST PUSH1 0x0 DUP1 REVERT JUMPDEST PUSH1 0x0 DUP1 REVERT JUMPDEST PUSH1 0x0 DUP1 REVERT JUMPDEST PUSH1 0x0 DUP1 REVERT JUMPDEST PUSH1 0x0 PUSH1 0x1F NOT PUSH1 0x1F DUP4 ADD AND SWAP1 POP SWAP2 SWAP1 POP JUMP JUMPDEST PUSH3 0x476 DUP2 PUSH3 0x33C JUMP JUMPDEST DUP2 EQ PUSH3 0x482 JUMPI PUSH1 0x0 DUP1 REVERT JUMPDEST POP JUMP JUMPDEST PUSH2 0x2FC6 DUP1 PUSH3 0x495 PUSH1 0x0 CODECOPY PUSH1 0x0 RETURN INVALID PUSH1 0x80 PUSH1 0x40 MSTORE PUSH1 0x4 CALLDATASIZE LT PUSH2 0xF3 JUMPI PUSH1 0x0 CALLDATALOAD PUSH1 0xE0 SHR DUP1 PUSH4 0x95D89B41 GT PUSH2 0x8A JUMPI DUP1 PUSH4 0xA4821719 GT PUSH2 0x59 JUMPI DUP1 PUSH4 0xA4821719 EQ PUSH2 0x338 JUMPI DUP1 PUSH4 0xB292ABF1 EQ PUSH2 0x342 JUMPI DUP1 PUSH4 0xCD0C5896 EQ PUSH2 0x380 JUMPI DUP1 PUSH4 0xEEDC966A EQ PUSH2 0x3BD JUMPI PUSH2 0xF3 JUMP JUMPDEST DUP1 PUSH4 0x95D89B41 EQ PUSH2 0x290 JUMPI DUP1 PUSH4 0x9DC29FAC EQ PUSH2 0x2BB JUMPI DUP1 PUSH4 0xA0712D68 EQ PUSH2 0x2E4 JUMPI DUP1 PUSH4 0xA3E67610 EQ PUSH2 0x30D JUMPI PUSH2 0xF3 JUMP JUMPDEST DUP1 PUSH4 0x561E0E98 GT PUSH2 0xC6 JUMPI DUP1 PUSH4 0x561E0E98 EQ PUSH2 0x19E JUMPI DUP1 PUSH4 0x6813B53B EQ PUSH2 0x1C7 JUMPI DUP1 PUSH4 0x68CDAFE6 EQ PUSH2 0x20E JUMPI DUP1 PUSH4 0x79A85E6C EQ PUSH2 0x24B JUMPI PUSH2 0xF3 JUMP JUMPDEST DUP1 PUSH4 0x6FDDE03 EQ PUSH2 0xF8 JUMPI DUP1 PUSH4 0x2BD5889F EQ PUSH2 0x123 JUMPI DUP1 PUSH4 0x40932FC2 EQ PUSH2 0x14C JUMPI DUP1 PUSH4 0x53B62866 EQ PUSH2 0x175 JUMPI JUMPDEST PUSH1 0x0 DUP1 REVERT JUMPDEST CALLVALUE DUP1 ISZERO PUSH2 0x104 JUMPI PUSH1 0x0 DUP1 REVERT JUMPDEST POP PUSH2 0x10D PUSH2 0x3FA JUMP JUMPDEST PUSH1 0x40 MLOAD PUSH2 0x11A SWAP2 SWAP1 PUSH2 0x28D2 JUMP JUMPDEST PUSH1 0x40 MLOAD DUP1 SWAP2 SUB SWAP1 RETURN JUMPDEST CALLVALUE DUP1 ISZERO PUSH2 0x12F JUMPI PUSH1 0x0 DUP1 REVERT JUMPDEST POP PUSH2 0x14A PUSH1 0x4 DUP1 CALLDATASIZE SUB DUP2 ADD SWAP1 PUSH2 0x145 SWAP2 SWAP1 PUSH2 0x2432 JUMP JUMPDEST PUSH2 0x488 JUMP JUMPDEST STOP JUMPDEST CALLVALUE DUP1 ISZERO PUSH2 0x158 JUMPI PUSH1 0x0 DUP1 REVERT JUMPDEST POP PUSH2 0x173 PUSH1 0x4 DUP1 CALLDATASIZE SUB DUP2 ADD SWAP1 PUSH2 0x16E SWAP2 SWAP1 PUSH2 0x2356 JUMP JUMPDEST PUSH2 0x58E JUMP JUMPDEST STOP JUMPDEST CALLVALUE DUP1 ISZERO PUSH2 0x181 JUMPI PUSH1 0x0 DUP1 REVERT JUMPDEST POP PUSH2 0x19C PUSH1 0x4 DUP1 CALLDATASIZE SUB DUP2 ADD SWAP1 PUSH2 0x197 SWAP2 SWAP1 PUSH2 0x248E JUMP JUMPDEST PUSH2 0x7C4 JUMP JUMPDEST STOP JUMPDEST CALLVALUE DUP1 ISZERO PUSH2 0x1AA JUMPI PUSH1 0x0 DUP1 REVERT JUMPDEST POP PUSH2 0x1C5 PUSH1 0x4 DUP1 CALLDATASIZE SUB DUP2 ADD SWAP1 PUSH2 0x1C0 SWAP2 SWAP1 PUSH2 0x24CE JUMP JUMPDEST PUSH2 0xA8B JUMP JUMPDEST STOP JUMPDEST CALLVALUE DUP1 ISZERO PUSH2 0x1D3 JUMPI PUSH1 0x0 DUP1 REVERT JUMPDEST POP PUSH2 0x1EE PUSH1 0x4 DUP1 CALLDATASIZE SUB DUP2 ADD SWAP1 PUSH2 0x1E9 SWAP2 SWAP1 PUSH2 0x2405 JUMP JUMPDEST PUSH2 0xDD7 JUMP JUMPDEST PUSH1 0x40 MLOAD PUSH2 0x205 SWAP12 SWAP11 SWAP10 SWAP9 SWAP8 SWAP7 SWAP6 SWAP5 SWAP4 SWAP3 SWAP2 SWAP1 PUSH2 0x2A03 JUMP JUMPDEST PUSH1 0x40 MLOAD DUP1 SWAP2 SUB SWAP1 RETURN JUMPDEST CALLVALUE DUP1 ISZERO PUSH2 0x21A JUMPI PUSH1 0x0 DUP1 REVERT JUMPDEST POP PUSH2 0x235 PUSH1 0x4 DUP1 CALLDATASIZE SUB DUP2 ADD SWAP1 PUSH2 0x230 SWAP2 SWAP1 PUSH2 0x23C5 JUMP JUMPDEST PUSH2 0x1304 JUMP JUMPDEST PUSH1 0x40 MLOAD PUSH2 0x242 SWAP2 SWAP1 PUSH2 0x2887 JUMP JUMPDEST PUSH1 0x40 MLOAD DUP1 SWAP2 SUB SWAP1 RETURN JUMPDEST CALLVALUE DUP1 ISZERO PUSH2 0x257 JUMPI PUSH1 0x0 DUP1 REVERT JUMPDEST POP PUSH2 0x272 PUSH1 0x4 DUP1 CALLDATASIZE SUB DUP2 ADD SWAP1 PUSH2 0x26D SWAP2 SWAP1 PUSH2 0x2405 JUMP JUMPDEST PUSH2 0x1442 JUMP JUMPDEST PUSH1 0x40 MLOAD PUSH2 0x287 SWAP10 SWAP9 SWAP8 SWAP7 SWAP6 SWAP5 SWAP4 SWAP3 SWAP2 SWAP1 PUSH2 0x296F JUMP JUMPDEST PUSH1 0x40 MLOAD DUP1 SWAP2 SUB SWAP1 RETURN JUMPDEST CALLVALUE DUP1 ISZERO PUSH2 0x29C JUMPI PUSH1 0x0 DUP1 REVERT JUMPDEST POP PUSH2 0x2A5 PUSH2 0x19F9 JUMP JUMPDEST PUSH1 0x40 MLOAD PUSH2 0x2B2 SWAP2 SWAP1 PUSH2 0x28D2 JUMP JUMPDEST PUSH1 0x40 MLOAD DUP1 SWAP2 SUB SWAP1 RETURN JUMPDEST CALLVALUE DUP1 ISZERO PUSH2 0x2C7 JUMPI PUSH1 0x0 DUP1 REVERT JUMPDEST POP PUSH2 0x2E2 PUSH1 0x4 DUP1 CALLDATASIZE SUB DUP2 ADD SWAP1 PUSH2 0x2DD SWAP2 SWAP1 PUSH2 0x23C5 JUMP JUMPDEST PUSH2 0x1A87 JUMP JUMPDEST STOP JUMPDEST CALLVALUE DUP1 ISZERO PUSH2 0x2F0 JUMPI PUSH1 0x0 DUP1 REVERT JUMPDEST POP PUSH2 0x30B PUSH1 0x4 DUP1 CALLDATASIZE SUB DUP2 ADD SWAP1 PUSH2 0x306 SWAP2 SWAP1 PUSH2 0x2405 JUMP JUMPDEST PUSH2 0x1C10 JUMP JUMPDEST STOP JUMPDEST CALLVALUE DUP1 ISZERO PUSH2 0x319 JUMPI PUSH1 0x0 DUP1 REVERT JUMPDEST POP PUSH2 0x322 PUSH2 0x1D12 JUMP JUMPDEST PUSH1 0x40 MLOAD PUSH2 0x32F SWAP2 SWAP1 PUSH2 0x286C JUMP JUMPDEST PUSH1 0x40 MLOAD DUP1 SWAP2 SUB SWAP1 RETURN JUMPDEST PUSH2 0x340 PUSH2 0x1D38 JUMP JUMPDEST STOP JUMPDEST CALLVALUE DUP1 ISZERO PUSH2 0x34E JUMPI PUSH1 0x0 DUP1 REVERT JUMPDEST POP PUSH2 0x369 PUSH1 0x4 DUP1 CALLDATASIZE SUB DUP2 ADD SWAP1 PUSH2 0x364 SWAP2 SWAP1 PUSH2 0x2329 JUMP JUMPDEST PUSH2 0x1E90 JUMP JUMPDEST PUSH1 0x40 MLOAD PUSH2 0x377 SWAP3 SWAP2 SWAP1 PUSH2 0x28A2 JUMP JUMPDEST PUSH1 0x40 MLOAD DUP1 SWAP2 SUB SWAP1 RETURN JUMPDEST CALLVALUE DUP1 ISZERO PUSH2 0x38C JUMPI PUSH1 0x0 DUP1 REVERT JUMPDEST POP PUSH2 0x3A7 PUSH1 0x4 DUP1 CALLDATASIZE SUB DUP2 ADD SWAP1 PUSH2 0x3A2 SWAP2 SWAP1 PUSH2 0x2329 JUMP JUMPDEST PUSH2 0x1FB8 JUMP JUMPDEST PUSH1 0x40 MLOAD PUSH2 0x3B4 SWAP2 SWAP1 PUSH2 0x2954 JUMP JUMPDEST PUSH1 0x40 MLOAD DUP1 SWAP2 SUB SWAP1 RETURN JUMPDEST CALLVALUE DUP1 ISZERO PUSH2 0x3C9 JUMPI PUSH1 0x0 DUP1 REVERT JUMPDEST POP PUSH2 0x3E4 PUSH1 0x4 DUP1 CALLDATASIZE SUB DUP2 ADD SWAP1 PUSH2 0x3DF SWAP2 SWAP1 PUSH2 0x2329 JUMP JUMPDEST PUSH2 0x1FD9 JUMP JUMPDEST PUSH1 0x40 MLOAD PUSH2 0x3F1 SWAP2 SWAP1 PUSH2 0x2954 JUMP JUMPDEST PUSH1 0x40 MLOAD DUP1 SWAP2 SUB SWAP1 RETURN JUMPDEST PUSH1 0x0 DUP1 SLOAD PUSH2 0x407 SWAP1 PUSH2 0x2D03 JUMP JUMPDEST DUP1 PUSH1 0x1F ADD PUSH1 0x20 DUP1 SWAP2 DIV MUL PUSH1 0x20 ADD PUSH1 0x40 MLOAD SWAP1 DUP2 ADD PUSH1 0x40 MSTORE DUP1 SWAP3 SWAP2 SWAP1 DUP2 DUP2 MSTORE PUSH1 0x20 ADD DUP3 DUP1 SLOAD PUSH2 0x433 SWAP1 PUSH2 0x2D03 JUMP JUMPDEST DUP1 ISZERO PUSH2 0x480 JUMPI DUP1 PUSH1 0x1F LT PUSH2 0x455 JUMPI PUSH2 0x100 DUP1 DUP4 SLOAD DIV MUL DUP4 MSTORE SWAP2 PUSH1 0x20 ADD SWAP2 PUSH2 0x480 JUMP JUMPDEST DUP3 ADD SWAP2 SWAP1 PUSH1 0x0 MSTORE PUSH1 0x20 PUSH1 0x0 KECCAK256 SWAP1 JUMPDEST DUP2 SLOAD DUP2 MSTORE SWAP1 PUSH1 0x1 ADD SWAP1 PUSH1 0x20 ADD DUP1 DUP4 GT PUSH2 0x463 JUMPI DUP3 SWAP1 SUB PUSH1 0x1F AND DUP3 ADD SWAP2 JUMPDEST POP POP POP POP POP DUP2 JUMP JUMPDEST PUSH1 0x2 PUSH1 0x0 SWAP1 SLOAD SWAP1 PUSH2 0x100 EXP SWAP1 DIV PUSH20 0xFFFFFFFFFFFFFFFFFFFFFFFFFFFFFFFFFFFFFFFF AND PUSH20 0xFFFFFFFFFFFFFFFFFFFFFFFFFFFFFFFFFFFFFFFF AND CALLER PUSH20 0xFFFFFFFFFFFFFFFFFFFFFFFFFFFFFFFFFFFFFFFF AND EQ PUSH2 0x518 JUMPI PUSH1 0x40 MLOAD PUSH32 0x8C379A000000000000000000000000000000000000000000000000000000000 DUP2 MSTORE PUSH1 0x4 ADD PUSH2 0x50F SWAP1 PUSH2 0x2934 JUMP JUMPDEST PUSH1 0x40 MLOAD DUP1 SWAP2 SUB SWAP1 REVERT JUMPDEST PUSH1 0x0 DUP3 PUSH1 0x3 PUSH1 0x0 DUP3 DUP3 SLOAD PUSH2 0x52C SWAP2 SWAP1 PUSH2 0x2B62 JUMP JUMPDEST SWAP3 POP POP DUP2 SWAP1 SSTORE POP DUP3 PUSH1 0x4 PUSH1 0x0 CALLER PUSH20 0xFFFFFFFFFFFFFFFFFFFFFFFFFFFFFFFFFFFFFFFF AND PUSH20 0xFFFFFFFFFFFFFFFFFFFFFFFFFFFFFFFFFFFFFFFF AND DUP2 MSTORE PUSH1 0x20 ADD SWAP1 DUP2 MSTORE PUSH1 0x20 ADD PUSH1 0x0 KECCAK256 PUSH1 0x0 DUP3 DUP3 SLOAD PUSH2 0x582 SWAP2 SWAP1 PUSH2 0x2B62 JUMP JUMPDEST SWAP3 POP POP DUP2 SWAP1 SSTORE POP POP POP POP JUMP JUMPDEST PUSH1 0x0 PUSH1 0x5 PUSH1 0x0 DUP6 PUSH20 0xFFFFFFFFFFFFFFFFFFFFFFFFFFFFFFFFFFFFFFFF AND PUSH20 0xFFFFFFFFFFFFFFFFFFFFFFFFFFFFFFFFFFFFFFFF AND DUP2 MSTORE PUSH1 0x20 ADD SWAP1 DUP2 MSTORE PUSH1 0x20 ADD PUSH1 0x0 KECCAK256 PUSH1 0x40 MLOAD DUP1 PUSH1 0x60 ADD PUSH1 0x40 MSTORE SWAP1 DUP2 PUSH1 0x0 DUP3 ADD PUSH1 0x0 SWAP1 SLOAD SWAP1 PUSH2 0x100 EXP SWAP1 DIV PUSH1 0xFF AND PUSH1 0x4 DUP2 GT ISZERO PUSH2 0x5FF JUMPI PUSH2 0x5FE PUSH2 0x2DC4 JUMP JUMPDEST JUMPDEST PUSH1 0x4 DUP2 GT ISZERO PUSH2 0x611 JUMPI PUSH2 0x610 PUSH2 0x2DC4 JUMP JUMPDEST JUMPDEST DUP2 MSTORE PUSH1 0x20 ADD PUSH1 0x1 DUP3 ADD DUP1 SLOAD PUSH2 0x625 SWAP1 PUSH2 0x2D03 JUMP JUMPDEST DUP1 PUSH1 0x1F ADD PUSH1 0x20 DUP1 SWAP2 DIV MUL PUSH1 0x20 ADD PUSH1 0x40 MLOAD SWAP1 DUP2 ADD PUSH1 0x40 MSTORE DUP1 SWAP3 SWAP2 SWAP1 DUP2 DUP2 MSTORE PUSH1 0x20 ADD DUP3 DUP1 SLOAD PUSH2 0x651 SWAP1 PUSH2 0x2D03 JUMP JUMPDEST DUP1 ISZERO PUSH2 0x69E JUMPI DUP1 PUSH1 0x1F LT PUSH2 0x673 JUMPI PUSH2 0x100 DUP1 DUP4 SLOAD DIV MUL DUP4 MSTORE SWAP2 PUSH1 0x20 ADD SWAP2 PUSH2 0x69E JUMP JUMPDEST DUP3 ADD SWAP2 SWAP1 PUSH1 0x0 MSTORE PUSH1 0x20 PUSH1 0x0 KECCAK256 SWAP1 JUMPDEST DUP2 SLOAD DUP2 MSTORE SWAP1 PUSH1 0x1 ADD SWAP1 PUSH1 0x20 ADD DUP1 DUP4 GT PUSH2 0x681 JUMPI DUP3 SWAP1 SUB PUSH1 0x1F AND DUP3 ADD SWAP2 JUMPDEST POP POP POP POP POP DUP2 MSTORE PUSH1 0x20 ADD PUSH1 0x2 DUP3 ADD PUSH1 0x0 SWAP1 SLOAD SWAP1 PUSH2 0x100 EXP SWAP1 DIV PUSH1 0xFF AND ISZERO ISZERO ISZERO ISZERO DUP2 MSTORE POP POP SWAP1 POP DUP3 DUP2 PUSH1 0x0 ADD SWAP1 PUSH1 0x4 DUP2 GT ISZERO PUSH2 0x6DC JUMPI PUSH2 0x6DB PUSH2 0x2DC4 JUMP JUMPDEST JUMPDEST SWAP1 DUP2 PUSH1 0x4 DUP2 GT ISZERO PUSH2 0x6F0 JUMPI PUSH2 0x6EF PUSH2 0x2DC4 JUMP JUMPDEST JUMPDEST DUP2 MSTORE POP POP DUP2 DUP2 PUSH1 0x20 ADD DUP2 SWAP1 MSTORE POP PUSH1 0x1 DUP2 PUSH1 0x40 ADD SWAP1 ISZERO ISZERO SWAP1 DUP2 ISZERO ISZERO DUP2 MSTORE POP POP DUP1 PUSH1 0x5 PUSH1 0x0 DUP7 PUSH20 0xFFFFFFFFFFFFFFFFFFFFFFFFFFFFFFFFFFFFFFFF AND PUSH20 0xFFFFFFFFFFFFFFFFFFFFFFFFFFFFFFFFFFFFFFFF AND DUP2 MSTORE PUSH1 0x20 ADD SWAP1 DUP2 MSTORE PUSH1 0x20 ADD PUSH1 0x0 KECCAK256 PUSH1 0x0 DUP3 ADD MLOAD DUP2 PUSH1 0x0 ADD PUSH1 0x0 PUSH2 0x100 EXP DUP2 SLOAD DUP2 PUSH1 0xFF MUL NOT AND SWAP1 DUP4 PUSH1 0x4 DUP2 GT ISZERO PUSH2 0x779 JUMPI PUSH2 0x778 PUSH2 0x2DC4 JUMP JUMPDEST JUMPDEST MUL OR SWAP1 SSTORE POP PUSH1 0x20 DUP3 ADD MLOAD DUP2 PUSH1 0x1 ADD SWAP1 DUP1 MLOAD SWAP1 PUSH1 0x20 ADD SWAP1 PUSH2 0x79A SWAP3 SWAP2 SWAP1 PUSH2 0x2022 JUMP JUMPDEST POP PUSH1 0x40 DUP3 ADD MLOAD DUP2 PUSH1 0x2 ADD PUSH1 0x0 PUSH2 0x100 EXP DUP2 SLOAD DUP2 PUSH1 0xFF MUL NOT AND SWAP1 DUP4 ISZERO ISZERO MUL OR SWAP1 SSTORE POP SWAP1 POP POP POP POP POP POP JUMP JUMPDEST PUSH1 0x1 PUSH1 0x4 DUP2 GT ISZERO PUSH2 0x7D8 JUMPI PUSH2 0x7D7 PUSH2 0x2DC4 JUMP JUMPDEST JUMPDEST PUSH1 0x5 PUSH1 0x0 CALLER PUSH20 0xFFFFFFFFFFFFFFFFFFFFFFFFFFFFFFFFFFFFFFFF AND PUSH20 0xFFFFFFFFFFFFFFFFFFFFFFFFFFFFFFFFFFFFFFFF AND DUP2 MSTORE PUSH1 0x20 ADD SWAP1 DUP2 MSTORE PUSH1 0x20 ADD PUSH1 0x0 KECCAK256 PUSH1 0x0 ADD PUSH1 0x0 SWAP1 SLOAD SWAP1 PUSH2 0x100 EXP SWAP1 DIV PUSH1 0xFF AND PUSH1 0x4 DUP2 GT ISZERO PUSH2 0x83A JUMPI PUSH2 0x839 PUSH2 0x2DC4 JUMP JUMPDEST JUMPDEST EQ PUSH2 0x87A JUMPI PUSH1 0x40 MLOAD PUSH32 0x8C379A000000000000000000000000000000000000000000000000000000000 DUP2 MSTORE PUSH1 0x4 ADD PUSH2 0x871 SWAP1 PUSH2 0x28F4 JUMP JUMPDEST PUSH1 0x40 MLOAD DUP1 SWAP2 SUB SWAP1 REVERT JUMPDEST PUSH1 0x0 PUSH1 0x6 PUSH1 0x0 DUP5 DUP2 MSTORE PUSH1 0x20 ADD SWAP1 DUP2 MSTORE PUSH1 0x20 ADD PUSH1 0x0 KECCAK256 SWAP1 POP PUSH1 0x0 PUSH1 0x4 PUSH1 0x0 CALLER PUSH20 0xFFFFFFFFFFFFFFFFFFFFFFFFFFFFFFFFFFFFFFFF AND PUSH20 0xFFFFFFFFFFFFFFFFFFFFFFFFFFFFFFFFFFFFFFFF AND DUP2 MSTORE PUSH1 0x20 ADD SWAP1 DUP2 MSTORE PUSH1 0x20 ADD PUSH1 0x0 KECCAK256 SLOAD SWAP1 POP DUP2 PUSH1 0xA ADD SLOAD DUP2 LT ISZERO PUSH2 0x8E6 JUMPI PUSH1 0x0 DUP1 REVERT JUMPDEST PUSH1 0x1 PUSH1 0x5 DUP2 GT ISZERO PUSH2 0x8FA JUMPI PUSH2 0x8F9 PUSH2 0x2DC4 JUMP JUMPDEST JUMPDEST DUP3 PUSH1 0x9 ADD PUSH1 0x0 SWAP1 SLOAD SWAP1 PUSH2 0x100 EXP SWAP1 DIV PUSH1 0xFF AND PUSH1 0x5 DUP2 GT ISZERO PUSH2 0x91E JUMPI PUSH2 0x91D PUSH2 0x2DC4 JUMP JUMPDEST JUMPDEST EQ PUSH2 0x928 JUMPI PUSH1 0x0 DUP1 REVERT JUMPDEST DUP3 PUSH1 0x6 PUSH1 0x0 DUP7 DUP2 MSTORE PUSH1 0x20 ADD SWAP1 DUP2 MSTORE PUSH1 0x20 ADD PUSH1 0x0 KECCAK256 PUSH1 0x3 ADD PUSH1 0x1 PUSH1 0x6 DUP2 LT PUSH2 0x952 JUMPI PUSH2 0x951 PUSH2 0x2E22 JUMP JUMPDEST JUMPDEST ADD DUP2 SWAP1 SSTORE POP CALLER PUSH1 0x6 PUSH1 0x0 DUP7 DUP2 MSTORE PUSH1 0x20 ADD SWAP1 DUP2 MSTORE PUSH1 0x20 ADD PUSH1 0x0 KECCAK256 PUSH1 0xB ADD PUSH1 0x0 PUSH2 0x100 EXP DUP2 SLOAD DUP2 PUSH20 0xFFFFFFFFFFFFFFFFFFFFFFFFFFFFFFFFFFFFFFFF MUL NOT AND SWAP1 DUP4 PUSH20 0xFFFFFFFFFFFFFFFFFFFFFFFFFFFFFFFFFFFFFFFF AND MUL OR SWAP1 SSTORE POP PUSH2 0x9F0 PUSH1 0x6 PUSH1 0x0 DUP7 DUP2 MSTORE PUSH1 0x20 ADD SWAP1 DUP2 MSTORE PUSH1 0x20 ADD PUSH1 0x0 KECCAK256 PUSH1 0x1 ADD PUSH1 0x0 SWAP1 SLOAD SWAP1 PUSH2 0x100 EXP SWAP1 DIV PUSH20 0xFFFFFFFFFFFFFFFFFFFFFFFFFFFFFFFFFFFFFFFF AND DUP4 PUSH1 0xA ADD SLOAD PUSH2 0x1304 JUMP JUMPDEST POP PUSH1 0x5 PUSH1 0x6 PUSH1 0x0 DUP7 DUP2 MSTORE PUSH1 0x20 ADD SWAP1 DUP2 MSTORE PUSH1 0x20 ADD PUSH1 0x0 KECCAK256 PUSH1 0x9 ADD PUSH1 0x0 PUSH2 0x100 EXP DUP2 SLOAD DUP2 PUSH1 0xFF MUL NOT AND SWAP1 DUP4 PUSH1 0x5 DUP2 GT ISZERO PUSH2 0xA2B JUMPI PUSH2 0xA2A PUSH2 0x2DC4 JUMP JUMPDEST JUMPDEST MUL OR SWAP1 SSTORE POP CALLER PUSH1 0x6 PUSH1 0x0 DUP7 DUP2 MSTORE PUSH1 0x20 ADD SWAP1 DUP2 MSTORE PUSH1 0x20 ADD PUSH1 0x0 KECCAK256 PUSH1 0x1 ADD PUSH1 0x0 PUSH2 0x100 EXP DUP2 SLOAD DUP2 PUSH20 0xFFFFFFFFFFFFFFFFFFFFFFFFFFFFFFFFFFFFFFFF MUL NOT AND SWAP1 DUP4 PUSH20 0xFFFFFFFFFFFFFFFFFFFFFFFFFFFFFFFFFFFFFFFF AND MUL OR SWAP1 SSTORE POP POP POP POP POP JUMP JUMPDEST PUSH1 0x0 PUSH1 0x4 DUP2 GT ISZERO PUSH2 0xA9F JUMPI PUSH2 0xA9E PUSH2 0x2DC4 JUMP JUMPDEST JUMPDEST PUSH1 0x5 PUSH1 0x0 CALLER PUSH20 0xFFFFFFFFFFFFFFFFFFFFFFFFFFFFFFFFFFFFFFFF AND PUSH20 0xFFFFFFFFFFFFFFFFFFFFFFFFFFFFFFFFFFFFFFFF AND DUP2 MSTORE PUSH1 0x20 ADD SWAP1 DUP2 MSTORE PUSH1 0x20 ADD PUSH1 0x0 KECCAK256 PUSH1 0x0 ADD PUSH1 0x0 SWAP1 SLOAD SWAP1 PUSH2 0x100 EXP SWAP1 DIV PUSH1 0xFF AND PUSH1 0x4 DUP2 GT ISZERO PUSH2 0xB01 JUMPI PUSH2 0xB00 PUSH2 0x2DC4 JUMP JUMPDEST JUMPDEST EQ PUSH2 0xB41 JUMPI PUSH1 0x40 MLOAD PUSH32 0x8C379A000000000000000000000000000000000000000000000000000000000 DUP2 MSTORE PUSH1 0x4 ADD PUSH2 0xB38 SWAP1 PUSH2 0x2914 JUMP JUMPDEST PUSH1 0x40 MLOAD DUP1 SWAP2 SUB SWAP1 REVERT JUMPDEST PUSH1 0x0 PUSH1 0x6 PUSH1 0x0 DUP13 DUP2 MSTORE PUSH1 0x20 ADD SWAP1 DUP2 MSTORE PUSH1 0x20 ADD PUSH1 0x0 KECCAK256 SWAP1 POP DUP11 DUP2 PUSH1 0x0 ADD DUP2 SWAP1 SSTORE POP CALLER DUP2 PUSH1 0x1 ADD PUSH1 0x0 PUSH2 0x100 EXP DUP2 SLOAD DUP2 PUSH20 0xFFFFFFFFFFFFFFFFFFFFFFFFFFFFFFFFFFFFFFFF MUL NOT AND SWAP1 DUP4 PUSH20 0xFFFFFFFFFFFFFFFFFFFFFFFFFFFFFFFFFFFFFFFF AND MUL OR SWAP1 SSTORE POP CALLER DUP2 PUSH1 0x2 ADD PUSH1 0x0 PUSH2 0x100 EXP DUP2 SLOAD DUP2 PUSH20 0xFFFFFFFFFFFFFFFFFFFFFFFFFFFFFFFFFFFFFFFF MUL NOT AND SWAP1 DUP4 PUSH20 0xFFFFFFFFFFFFFFFFFFFFFFFFFFFFFFFFFFFFFFFF AND MUL OR SWAP1 SSTORE POP DUP10 DUP2 PUSH1 0x3 ADD PUSH1 0x0 PUSH1 0x6 DUP2 LT PUSH2 0xBFF JUMPI PUSH2 0xBFE PUSH2 0x2E22 JUMP JUMPDEST JUMPDEST ADD DUP2 SWAP1 SSTORE POP PUSH1 0x1 DUP2 PUSH1 0x9 ADD PUSH1 0x0 PUSH2 0x100 EXP DUP2 SLOAD DUP2 PUSH1 0xFF MUL NOT AND SWAP1 DUP4 PUSH1 0x5 DUP2 GT ISZERO PUSH2 0xC2C JUMPI PUSH2 0xC2B PUSH2 0x2DC4 JUMP JUMPDEST JUMPDEST MUL OR SWAP1 SSTORE POP DUP9 DUP2 PUSH1 0xA ADD DUP2 SWAP1 SSTORE POP PUSH1 0x0 DUP2 PUSH1 0xB ADD PUSH1 0x0 PUSH2 0x100 EXP DUP2 SLOAD DUP2 PUSH20 0xFFFFFFFFFFFFFFFFFFFFFFFFFFFFFFFFFFFFFFFF MUL NOT AND SWAP1 DUP4 PUSH20 0xFFFFFFFFFFFFFFFFFFFFFFFFFFFFFFFFFFFFFFFF AND MUL OR SWAP1 SSTORE POP PUSH1 0x0 DUP2 PUSH1 0xC ADD PUSH1 0x0 PUSH2 0x100 EXP DUP2 SLOAD DUP2 PUSH20 0xFFFFFFFFFFFFFFFFFFFFFFFFFFFFFFFFFFFFFFFF MUL NOT AND SWAP1 DUP4 PUSH20 0xFFFFFFFFFFFFFFFFFFFFFFFFFFFFFFFFFFFFFFFF AND MUL OR SWAP1 SSTORE POP PUSH1 0x0 DUP2 PUSH1 0xD ADD PUSH1 0x0 PUSH2 0x100 EXP DUP2 SLOAD DUP2 PUSH20 0xFFFFFFFFFFFFFFFFFFFFFFFFFFFFFFFFFFFFFFFF MUL NOT AND SWAP1 DUP4 PUSH20 0xFFFFFFFFFFFFFFFFFFFFFFFFFFFFFFFFFFFFFFFF AND MUL OR SWAP1 SSTORE POP DUP8 DUP2 PUSH1 0xE ADD PUSH1 0x0 ADD SWAP1 DUP1 MLOAD SWAP1 PUSH1 0x20 ADD SWAP1 PUSH2 0xD21 SWAP3 SWAP2 SWAP1 PUSH2 0x2022 JUMP JUMPDEST POP DUP7 DUP2 PUSH1 0xE ADD PUSH1 0x1 ADD SWAP1 DUP1 MLOAD SWAP1 PUSH1 0x20 ADD SWAP1 PUSH2 0xD3D SWAP3 SWAP2 SWAP1 PUSH2 0x2022 JUMP JUMPDEST POP DUP6 DUP2 PUSH1 0xE ADD PUSH1 0x2 ADD SWAP1 DUP1 MLOAD SWAP1 PUSH1 0x20 ADD SWAP1 PUSH2 0xD59 SWAP3 SWAP2 SWAP1 PUSH2 0x2022 JUMP JUMPDEST POP DUP5 DUP2 PUSH1 0xE ADD PUSH1 0x3 ADD SWAP1 DUP1 MLOAD SWAP1 PUSH1 0x20 ADD SWAP1 PUSH2 0xD75 SWAP3 SWAP2 SWAP1 PUSH2 0x2022 JUMP JUMPDEST POP DUP4 DUP2 PUSH1 0xE ADD PUSH1 0x4 ADD SWAP1 DUP1 MLOAD SWAP1 PUSH1 0x20 ADD SWAP1 PUSH2 0xD91 SWAP3 SWAP2 SWAP1 PUSH2 0x2022 JUMP JUMPDEST POP DUP3 DUP2 PUSH1 0xE ADD PUSH1 0x5 ADD SWAP1 DUP1 MLOAD SWAP1 PUSH1 0x20 ADD SWAP1 PUSH2 0xDAD SWAP3 SWAP2 SWAP1 PUSH2 0x2022 JUMP JUMPDEST POP DUP2 DUP2 PUSH1 0xE ADD PUSH1 0x6 ADD SWAP1 DUP1 MLOAD SWAP1 PUSH1 0x20 ADD SWAP1 PUSH2 0xDC9 SWAP3 SWAP2 SWAP1 PUSH2 0x2022 JUMP JUMPDEST POP POP POP POP POP POP POP POP POP POP POP POP JUMP JUMPDEST PUSH1 0x0 DUP1 PUSH1 0x0 DUP1 PUSH1 0x60 DUP1 PUSH1 0x60 DUP1 PUSH1 0x60 DUP1 PUSH1 0x60 PUSH1 0x6 PUSH1 0x0 DUP14 DUP2 MSTORE PUSH1 0x20 ADD SWAP1 DUP2 MSTORE PUSH1 0x20 ADD PUSH1 0x0 KECCAK256 PUSH1 0x0 ADD SLOAD SWAP11 POP PUSH1 0x6 PUSH1 0x0 DUP14 DUP2 MSTORE PUSH1 0x20 ADD SWAP1 DUP2 MSTORE PUSH1 0x20 ADD PUSH1 0x0 KECCAK256 PUSH1 0x1 ADD PUSH1 0x0 SWAP1 SLOAD SWAP1 PUSH2 0x100 EXP SWAP1 DIV PUSH20 0xFFFFFFFFFFFFFFFFFFFFFFFFFFFFFFFFFFFFFFFF AND SWAP10 POP PUSH1 0x6 PUSH1 0x0 DUP14 DUP2 MSTORE PUSH1 0x20 ADD SWAP1 DUP2 MSTORE PUSH1 0x20 ADD PUSH1 0x0 KECCAK256 PUSH1 0x9 ADD PUSH1 0x0 SWAP1 SLOAD SWAP1 PUSH2 0x100 EXP SWAP1 DIV PUSH1 0xFF AND SWAP9 POP PUSH1 0x6 PUSH1 0x0 DUP14 DUP2 MSTORE PUSH1 0x20 ADD SWAP1 DUP2 MSTORE PUSH1 0x20 ADD PUSH1 0x0 KECCAK256 PUSH1 0xA ADD SLOAD SWAP8 POP PUSH1 0x6 PUSH1 0x0 DUP14 DUP2 MSTORE PUSH1 0x20 ADD SWAP1 DUP2 MSTORE PUSH1 0x20 ADD PUSH1 0x0 KECCAK256 PUSH1 0xE ADD PUSH1 0x0 ADD DUP1 SLOAD PUSH2 0xE9D SWAP1 PUSH2 0x2D03 JUMP JUMPDEST DUP1 PUSH1 0x1F ADD PUSH1 0x20 DUP1 SWAP2 DIV MUL PUSH1 0x20 ADD PUSH1 0x40 MLOAD SWAP1 DUP2 ADD PUSH1 0x40 MSTORE DUP1 SWAP3 SWAP2 SWAP1 DUP2 DUP2 MSTORE PUSH1 0x20 ADD DUP3 DUP1 SLOAD PUSH2 0xEC9 SWAP1 PUSH2 0x2D03 JUMP JUMPDEST DUP1 ISZERO PUSH2 0xF16 JUMPI DUP1 PUSH1 0x1F LT PUSH2 0xEEB JUMPI PUSH2 0x100 DUP1 DUP4 SLOAD DIV MUL DUP4 MSTORE SWAP2 PUSH1 0x20 ADD SWAP2 PUSH2 0xF16 JUMP JUMPDEST DUP3 ADD SWAP2 SWAP1 PUSH1 0x0 MSTORE PUSH1 0x20 PUSH1 0x0 KECCAK256 SWAP1 JUMPDEST DUP2 SLOAD DUP2 MSTORE SWAP1 PUSH1 0x1 ADD SWAP1 PUSH1 0x20 ADD DUP1 DUP4 GT PUSH2 0xEF9 JUMPI DUP3 SWAP1 SUB PUSH1 0x1F AND DUP3 ADD SWAP2 JUMPDEST POP POP POP POP POP SWAP7 POP PUSH1 0x6 PUSH1 0x0 DUP14 DUP2 MSTORE PUSH1 0x20 ADD SWAP1 DUP2 MSTORE PUSH1 0x20 ADD PUSH1 0x0 KECCAK256 PUSH1 0xE ADD PUSH1 0x1 ADD DUP1 SLOAD PUSH2 0xF41 SWAP1 PUSH2 0x2D03 JUMP JUMPDEST DUP1 PUSH1 0x1F ADD PUSH1 0x20 DUP1 SWAP2 DIV MUL PUSH1 0x20 ADD PUSH1 0x40 MLOAD SWAP1 DUP2 ADD PUSH1 0x40 MSTORE DUP1 SWAP3 SWAP2 SWAP1 DUP2 DUP2 MSTORE PUSH1 0x20 ADD DUP3 DUP1 SLOAD PUSH2 0xF6D SWAP1 PUSH2 0x2D03 JUMP JUMPDEST DUP1 ISZERO PUSH2 0xFBA JUMPI DUP1 PUSH1 0x1F LT PUSH2 0xF8F JUMPI PUSH2 0x100 DUP1 DUP4 SLOAD DIV MUL DUP4 MSTORE SWAP2 PUSH1 0x20 ADD SWAP2 PUSH2 0xFBA JUMP JUMPDEST DUP3 ADD SWAP2 SWAP1 PUSH1 0x0 MSTORE PUSH1 0x20 PUSH1 0x0 KECCAK256 SWAP1 JUMPDEST DUP2 SLOAD DUP2 MSTORE SWAP1 PUSH1 0x1 ADD SWAP1 PUSH1 0x20 ADD DUP1 DUP4 GT PUSH2 0xF9D JUMPI DUP3 SWAP1 SUB PUSH1 0x1F AND DUP3 ADD SWAP2 JUMPDEST POP POP POP POP POP SWAP6 POP PUSH1 0x6 PUSH1 0x0 DUP14 DUP2 MSTORE PUSH1 0x20 ADD SWAP1 DUP2 MSTORE PUSH1 0x20 ADD PUSH1 0x0 KECCAK256 PUSH1 0xE ADD PUSH1 0x2 ADD DUP1 SLOAD PUSH2 0xFE5 SWAP1 PUSH2 0x2D03 JUMP JUMPDEST DUP1 PUSH1 0x1F ADD PUSH1 0x20 DUP1 SWAP2 DIV MUL PUSH1 0x20 ADD PUSH1 0x40 MLOAD SWAP1 DUP2 ADD PUSH1 0x40 MSTORE DUP1 SWAP3 SWAP2 SWAP1 DUP2 DUP2 MSTORE PUSH1 0x20 ADD DUP3 DUP1 SLOAD PUSH2 0x1011 SWAP1 PUSH2 0x2D03 JUMP JUMPDEST DUP1 ISZERO PUSH2 0x105E JUMPI DUP1 PUSH1 0x1F LT PUSH2 0x1033 JUMPI PUSH2 0x100 DUP1 DUP4 SLOAD DIV MUL DUP4 MSTORE SWAP2 PUSH1 0x20 ADD SWAP2 PUSH2 0x105E JUMP JUMPDEST DUP3 ADD SWAP2 SWAP1 PUSH1 0x0 MSTORE PUSH1 0x20 PUSH1 0x0 KECCAK256 SWAP1 JUMPDEST DUP2 SLOAD DUP2 MSTORE SWAP1 PUSH1 0x1 ADD SWAP1 PUSH1 0x20 ADD DUP1 DUP4 GT PUSH2 0x1041 JUMPI DUP3 SWAP1 SUB PUSH1 0x1F AND DUP3 ADD SWAP2 JUMPDEST POP POP POP POP POP SWAP5 POP PUSH1 0x6 PUSH1 0x0 DUP14 DUP2 MSTORE PUSH1 0x20 ADD SWAP1 DUP2 MSTORE PUSH1 0x20 ADD PUSH1 0x0 KECCAK256 PUSH1 0xE ADD PUSH1 0x3 ADD DUP1 SLOAD PUSH2 0x1089 SWAP1 PUSH2 0x2D03 JUMP JUMPDEST DUP1 PUSH1 0x1F ADD PUSH1 0x20 DUP1 SWAP2 DIV MUL PUSH1 0x20 ADD PUSH1 0x40 MLOAD SWAP1 DUP2 ADD PUSH1 0x40 MSTORE DUP1 SWAP3 SWAP2 SWAP1 DUP2 DUP2 MSTORE PUSH1 0x20 ADD DUP3 DUP1 SLOAD PUSH2 0x10B5 SWAP1 PUSH2 0x2D03 JUMP JUMPDEST DUP1 ISZERO PUSH2 0x1102 JUMPI DUP1 PUSH1 0x1F LT PUSH2 0x10D7 JUMPI PUSH2 0x100 DUP1 DUP4 SLOAD DIV MUL DUP4 MSTORE SWAP2 PUSH1 0x20 ADD SWAP2 PUSH2 0x1102 JUMP JUMPDEST DUP3 ADD SWAP2 SWAP1 PUSH1 0x0 MSTORE PUSH1 0x20 PUSH1 0x0 KECCAK256 SWAP1 JUMPDEST DUP2 SLOAD DUP2 MSTORE SWAP1 PUSH1 0x1 ADD SWAP1 PUSH1 0x20 ADD DUP1 DUP4 GT PUSH2 0x10E5 JUMPI DUP3 SWAP1 SUB PUSH1 0x1F AND DUP3 ADD SWAP2 JUMPDEST POP POP POP POP POP SWAP4 POP PUSH1 0x6 PUSH1 0x0 DUP14 DUP2 MSTORE PUSH1 0x20 ADD SWAP1 DUP2 MSTORE PUSH1 0x20 ADD PUSH1 0x0 KECCAK256 PUSH1 0xE ADD PUSH1 0x4 ADD DUP1 SLOAD PUSH2 0x112D SWAP1 PUSH2 0x2D03 JUMP JUMPDEST DUP1 PUSH1 0x1F ADD PUSH1 0x20 DUP1 SWAP2 DIV MUL PUSH1 0x20 ADD PUSH1 0x40 MLOAD SWAP1 DUP2 ADD PUSH1 0x40 MSTORE DUP1 SWAP3 SWAP2 SWAP1 DUP2 DUP2 MSTORE PUSH1 0x20 ADD DUP3 DUP1 SLOAD PUSH2 0x1159 SWAP1 PUSH2 0x2D03 JUMP JUMPDEST DUP1 ISZERO PUSH2 0x11A6 JUMPI DUP1 PUSH1 0x1F LT PUSH2 0x117B JUMPI PUSH2 0x100 DUP1 DUP4 SLOAD DIV MUL DUP4 MSTORE SWAP2 PUSH1 0x20 ADD SWAP2 PUSH2 0x11A6 JUMP JUMPDEST DUP3 ADD SWAP2 SWAP1 PUSH1 0x0 MSTORE PUSH1 0x20 PUSH1 0x0 KECCAK256 SWAP1 JUMPDEST DUP2 SLOAD DUP2 MSTORE SWAP1 PUSH1 0x1 ADD SWAP1 PUSH1 0x20 ADD DUP1 DUP4 GT PUSH2 0x1189 JUMPI DUP3 SWAP1 SUB PUSH1 0x1F AND DUP3 ADD SWAP2 JUMPDEST POP POP POP POP POP SWAP3 POP PUSH1 0x6 PUSH1 0x0 DUP14 DUP2 MSTORE PUSH1 0x20 ADD SWAP1 DUP2 MSTORE PUSH1 0x20 ADD PUSH1 0x0 KECCAK256 PUSH1 0xE ADD PUSH1 0x5 ADD DUP1 SLOAD PUSH2 0x11D1 SWAP1 PUSH2 0x2D03 JUMP JUMPDEST DUP1 PUSH1 0x1F ADD PUSH1 0x20 DUP1 SWAP2 DIV MUL PUSH1 0x20 ADD PUSH1 0x40 MLOAD SWAP1 DUP2 ADD PUSH1 0x40 MSTORE DUP1 SWAP3 SWAP2 SWAP1 DUP2 DUP2 MSTORE PUSH1 0x20 ADD DUP3 DUP1 SLOAD PUSH2 0x11FD SWAP1 PUSH2 0x2D03 JUMP JUMPDEST DUP1 ISZERO PUSH2 0x124A JUMPI DUP1 PUSH1 0x1F LT PUSH2 0x121F JUMPI PUSH2 0x100 DUP1 DUP4 SLOAD DIV MUL DUP4 MSTORE SWAP2 PUSH1 0x20 ADD SWAP2 PUSH2 0x124A JUMP JUMPDEST DUP3 ADD SWAP2 SWAP1 PUSH1 0x0 MSTORE PUSH1 0x20 PUSH1 0x0 KECCAK256 SWAP1 JUMPDEST DUP2 SLOAD DUP2 MSTORE SWAP1 PUSH1 0x1 ADD SWAP1 PUSH1 0x20 ADD DUP1 DUP4 GT PUSH2 0x122D JUMPI DUP3 SWAP1 SUB PUSH1 0x1F AND DUP3 ADD SWAP2 JUMPDEST POP POP POP POP POP SWAP2 POP PUSH1 0x6 PUSH1 0x0 DUP14 DUP2 MSTORE PUSH1 0x20 ADD SWAP1 DUP2 MSTORE PUSH1 0x20 ADD PUSH1 0x0 KECCAK256 PUSH1 0xE ADD PUSH1 0x6 ADD DUP1 SLOAD PUSH2 0x1275 SWAP1 PUSH2 0x2D03 JUMP JUMPDEST DUP1 PUSH1 0x1F ADD PUSH1 0x20 DUP1 SWAP2 DIV MUL PUSH1 0x20 ADD PUSH1 0x40 MLOAD SWAP1 DUP2 ADD PUSH1 0x40 MSTORE DUP1 SWAP3 SWAP2 SWAP1 DUP2 DUP2 MSTORE PUSH1 0x20 ADD DUP3 DUP1 SLOAD PUSH2 0x12A1 SWAP1 PUSH2 0x2D03 JUMP JUMPDEST DUP1 ISZERO PUSH2 0x12EE JUMPI DUP1 PUSH1 0x1F LT PUSH2 0x12C3 JUMPI PUSH2 0x100 DUP1 DUP4 SLOAD DIV MUL DUP4 MSTORE SWAP2 PUSH1 0x20 ADD SWAP2 PUSH2 0x12EE JUMP JUMPDEST DUP3 ADD SWAP2 SWAP1 PUSH1 0x0 MSTORE PUSH1 0x20 PUSH1 0x0 KECCAK256 SWAP1 JUMPDEST DUP2 SLOAD DUP2 MSTORE SWAP1 PUSH1 0x1 ADD SWAP1 PUSH1 0x20 ADD DUP1 DUP4 GT PUSH2 0x12D1 JUMPI DUP3 SWAP1 SUB PUSH1 0x1F AND DUP3 ADD SWAP2 JUMPDEST POP POP POP POP POP SWAP1 POP SWAP2 SWAP4 SWAP6 SWAP8 SWAP10 SWAP12 SWAP1 SWAP3 SWAP5 SWAP7 SWAP9 SWAP11 POP JUMP JUMPDEST PUSH1 0x0 DUP2 PUSH1 0x4 PUSH1 0x0 CALLER PUSH20 0xFFFFFFFFFFFFFFFFFFFFFFFFFFFFFFFFFFFFFFFF AND PUSH20 0xFFFFFFFFFFFFFFFFFFFFFFFFFFFFFFFFFFFFFFFF AND DUP2 MSTORE PUSH1 0x20 ADD SWAP1 DUP2 MSTORE PUSH1 0x20 ADD PUSH1 0x0 KECCAK256 SLOAD LT ISZERO PUSH2 0x1352 JUMPI PUSH1 0x0 DUP1 REVERT JUMPDEST PUSH1 0x0 PUSH20 0xFFFFFFFFFFFFFFFFFFFFFFFFFFFFFFFFFFFFFFFF AND DUP4 PUSH20 0xFFFFFFFFFFFFFFFFFFFFFFFFFFFFFFFFFFFFFFFF AND EQ ISZERO PUSH2 0x138C JUMPI PUSH1 0x0 DUP1 REVERT JUMPDEST DUP2 PUSH1 0x4 PUSH1 0x0 CALLER PUSH20 0xFFFFFFFFFFFFFFFFFFFFFFFFFFFFFFFFFFFFFFFF AND PUSH20 0xFFFFFFFFFFFFFFFFFFFFFFFFFFFFFFFFFFFFFFFF AND DUP2 MSTORE PUSH1 0x20 ADD SWAP1 DUP2 MSTORE PUSH1 0x20 ADD PUSH1 0x0 KECCAK256 PUSH1 0x0 DUP3 DUP3 SLOAD PUSH2 0x13DB SWAP2 SWAP1 PUSH2 0x2BE9 JUMP JUMPDEST SWAP3 POP POP DUP2 SWAP1 SSTORE POP DUP2 PUSH1 0x4 PUSH1 0x0 DUP6 PUSH20 0xFFFFFFFFFFFFFFFFFFFFFFFFFFFFFFFFFFFFFFFF AND PUSH20 0xFFFFFFFFFFFFFFFFFFFFFFFFFFFFFFFFFFFFFFFF AND DUP2 MSTORE PUSH1 0x20 ADD SWAP1 DUP2 MSTORE PUSH1 0x20 ADD PUSH1 0x0 KECCAK256 PUSH1 0x0 DUP3 DUP3 SLOAD PUSH2 0x1431 SWAP2 SWAP1 PUSH2 0x2B62 JUMP JUMPDEST SWAP3 POP POP DUP2 SWAP1 SSTORE POP PUSH1 0x1 SWAP1 POP SWAP3 SWAP2 POP POP JUMP JUMPDEST PUSH1 0x0 DUP1 PUSH1 0x0 DUP1 PUSH1 0x0 DUP1 PUSH1 0x0 DUP1 PUSH2 0x1456 PUSH2 0x20A8 JUMP JUMPDEST PUSH1 0x6 PUSH1 0x0 DUP12 DUP2 MSTORE PUSH1 0x20 ADD SWAP1 DUP2 MSTORE PUSH1 0x20 ADD PUSH1 0x0 KECCAK256 PUSH1 0x0 ADD SLOAD SWAP9 POP PUSH1 0x6 PUSH1 0x0 DUP12 DUP2 MSTORE PUSH1 0x20 ADD SWAP1 DUP2 MSTORE PUSH1 0x20 ADD PUSH1 0x0 KECCAK256 PUSH1 0x2 ADD PUSH1 0x0 SWAP1 SLOAD SWAP1 PUSH2 0x100 EXP SWAP1 DIV PUSH20 0xFFFFFFFFFFFFFFFFFFFFFFFFFFFFFFFFFFFFFFFF AND SWAP8 POP PUSH1 0x6 PUSH1 0x0 DUP12 DUP2 MSTORE PUSH1 0x20 ADD SWAP1 DUP2 MSTORE PUSH1 0x20 ADD PUSH1 0x0 KECCAK256 PUSH1 0x1 ADD PUSH1 0x0 SWAP1 SLOAD SWAP1 PUSH2 0x100 EXP SWAP1 DIV PUSH20 0xFFFFFFFFFFFFFFFFFFFFFFFFFFFFFFFFFFFFFFFF AND SWAP7 POP PUSH1 0x6 PUSH1 0x0 DUP12 DUP2 MSTORE PUSH1 0x20 ADD SWAP1 DUP2 MSTORE PUSH1 0x20 ADD PUSH1 0x0 KECCAK256 PUSH1 0xB ADD PUSH1 0x0 SWAP1 SLOAD SWAP1 PUSH2 0x100 EXP SWAP1 DIV PUSH20 0xFFFFFFFFFFFFFFFFFFFFFFFFFFFFFFFFFFFFFFFF AND SWAP4 POP PUSH1 0x6 PUSH1 0x0 DUP12 DUP2 MSTORE PUSH1 0x20 ADD SWAP1 DUP2 MSTORE PUSH1 0x20 ADD PUSH1 0x0 KECCAK256 PUSH1 0xC ADD PUSH1 0x0 SWAP1 SLOAD SWAP1 PUSH2 0x100 EXP SWAP1 DIV PUSH20 0xFFFFFFFFFFFFFFFFFFFFFFFFFFFFFFFFFFFFFFFF AND SWAP3 POP PUSH1 0x6 PUSH1 0x0 DUP12 DUP2 MSTORE PUSH1 0x20 ADD SWAP1 DUP2 MSTORE PUSH1 0x20 ADD PUSH1 0x0 KECCAK256 PUSH1 0xD ADD PUSH1 0x0 SWAP1 SLOAD SWAP1 PUSH2 0x100 EXP SWAP1 DIV PUSH20 0xFFFFFFFFFFFFFFFFFFFFFFFFFFFFFFFFFFFFFFFF AND SWAP2 POP PUSH1 0x6 PUSH1 0x0 DUP12 DUP2 MSTORE PUSH1 0x20 ADD SWAP1 DUP2 MSTORE PUSH1 0x20 ADD PUSH1 0x0 KECCAK256 PUSH1 0x9 ADD PUSH1 0x0 SWAP1 SLOAD SWAP1 PUSH2 0x100 EXP SWAP1 DIV PUSH1 0xFF AND SWAP6 POP PUSH1 0x6 PUSH1 0x0 DUP12 DUP2 MSTORE PUSH1 0x20 ADD SWAP1 DUP2 MSTORE PUSH1 0x20 ADD PUSH1 0x0 KECCAK256 PUSH1 0xA ADD SLOAD SWAP5 POP PUSH1 0x6 PUSH1 0x0 DUP12 DUP2 MSTORE PUSH1 0x20 ADD SWAP1 DUP2 MSTORE PUSH1 0x20 ADD PUSH1 0x0 KECCAK256 PUSH1 0xE ADD PUSH1 0x40 MLOAD DUP1 PUSH1 0xE0 ADD PUSH1 0x40 MSTORE SWAP1 DUP2 PUSH1 0x0 DUP3 ADD DUP1 SLOAD PUSH2 0x15FC SWAP1 PUSH2 0x2D03 JUMP JUMPDEST DUP1 PUSH1 0x1F ADD PUSH1 0x20 DUP1 SWAP2 DIV MUL PUSH1 0x20 ADD PUSH1 0x40 MLOAD SWAP1 DUP2 ADD PUSH1 0x40 MSTORE DUP1 SWAP3 SWAP2 SWAP1 DUP2 DUP2 MSTORE PUSH1 0x20 ADD DUP3 DUP1 SLOAD PUSH2 0x1628 SWAP1 PUSH2 0x2D03 JUMP JUMPDEST DUP1 ISZERO PUSH2 0x1675 JUMPI DUP1 PUSH1 0x1F LT PUSH2 0x164A JUMPI PUSH2 0x100 DUP1 DUP4 SLOAD DIV MUL DUP4 MSTORE SWAP2 PUSH1 0x20 ADD SWAP2 PUSH2 0x1675 JUMP JUMPDEST DUP3 ADD SWAP2 SWAP1 PUSH1 0x0 MSTORE PUSH1 0x20 PUSH1 0x0 KECCAK256 SWAP1 JUMPDEST DUP2 SLOAD DUP2 MSTORE SWAP1 PUSH1 0x1 ADD SWAP1 PUSH1 0x20 ADD DUP1 DUP4 GT PUSH2 0x1658 JUMPI DUP3 SWAP1 SUB PUSH1 0x1F AND DUP3 ADD SWAP2 JUMPDEST POP POP POP POP POP DUP2 MSTORE PUSH1 0x20 ADD PUSH1 0x1 DUP3 ADD DUP1 SLOAD PUSH2 0x168E SWAP1 PUSH2 0x2D03 JUMP JUMPDEST DUP1 PUSH1 0x1F ADD PUSH1 0x20 DUP1 SWAP2 DIV MUL PUSH1 0x20 ADD PUSH1 0x40 MLOAD SWAP1 DUP2 ADD PUSH1 0x40 MSTORE DUP1 SWAP3 SWAP2 SWAP1 DUP2 DUP2 MSTORE PUSH1 0x20 ADD DUP3 DUP1 SLOAD PUSH2 0x16BA SWAP1 PUSH2 0x2D03 JUMP JUMPDEST DUP1 ISZERO PUSH2 0x1707 JUMPI DUP1 PUSH1 0x1F LT PUSH2 0x16DC JUMPI PUSH2 0x100 DUP1 DUP4 SLOAD DIV MUL DUP4 MSTORE SWAP2 PUSH1 0x20 ADD SWAP2 PUSH2 0x1707 JUMP JUMPDEST DUP3 ADD SWAP2 SWAP1 PUSH1 0x0 MSTORE PUSH1 0x20 PUSH1 0x0 KECCAK256 SWAP1 JUMPDEST DUP2 SLOAD DUP2 MSTORE SWAP1 PUSH1 0x1 ADD SWAP1 PUSH1 0x20 ADD DUP1 DUP4 GT PUSH2 0x16EA JUMPI DUP3 SWAP1 SUB PUSH1 0x1F AND DUP3 ADD SWAP2 JUMPDEST POP POP POP POP POP DUP2 MSTORE PUSH1 0x20 ADD PUSH1 0x2 DUP3 ADD DUP1 SLOAD PUSH2 0x1720 SWAP1 PUSH2 0x2D03 JUMP JUMPDEST DUP1 PUSH1 0x1F ADD PUSH1 0x20 DUP1 SWAP2 DIV MUL PUSH1 0x20 ADD PUSH1 0x40 MLOAD SWAP1 DUP2 ADD PUSH1 0x40 MSTORE DUP1 SWAP3 SWAP2 SWAP1 DUP2 DUP2 MSTORE PUSH1 0x20 ADD DUP3 DUP1 SLOAD PUSH2 0x174C SWAP1 PUSH2 0x2D03 JUMP JUMPDEST DUP1 ISZERO PUSH2 0x1799 JUMPI DUP1 PUSH1 0x1F LT PUSH2 0x176E JUMPI PUSH2 0x100 DUP1 DUP4 SLOAD DIV MUL DUP4 MSTORE SWAP2 PUSH1 0x20 ADD SWAP2 PUSH2 0x1799 JUMP JUMPDEST DUP3 ADD SWAP2 SWAP1 PUSH1 0x0 MSTORE PUSH1 0x20 PUSH1 0x0 KECCAK256 SWAP1 JUMPDEST DUP2 SLOAD DUP2 MSTORE SWAP1 PUSH1 0x1 ADD SWAP1 PUSH1 0x20 ADD DUP1 DUP4 GT PUSH2 0x177C JUMPI DUP3 SWAP1 SUB PUSH1 0x1F AND DUP3 ADD SWAP2 JUMPDEST POP POP POP POP POP DUP2 MSTORE PUSH1 0x20 ADD PUSH1 0x3 DUP3 ADD DUP1 SLOAD PUSH2 0x17B2 SWAP1 PUSH2 0x2D03 JUMP JUMPDEST DUP1 PUSH1 0x1F ADD PUSH1 0x20 DUP1 SWAP2 DIV MUL PUSH1 0x20 ADD PUSH1 0x40 MLOAD SWAP1 DUP2 ADD PUSH1 0x40 MSTORE DUP1 SWAP3 SWAP2 SWAP1 DUP2 DUP2 MSTORE PUSH1 0x20 ADD DUP3 DUP1 SLOAD PUSH2 0x17DE SWAP1 PUSH2 0x2D03 JUMP JUMPDEST DUP1 ISZERO PUSH2 0x182B JUMPI DUP1 PUSH1 0x1F LT PUSH2 0x1800 JUMPI PUSH2 0x100 DUP1 DUP4 SLOAD DIV MUL DUP4 MSTORE SWAP2 PUSH1 0x20 ADD SWAP2 PUSH2 0x182B JUMP JUMPDEST DUP3 ADD SWAP2 SWAP1 PUSH1 0x0 MSTORE PUSH1 0x20 PUSH1 0x0 KECCAK256 SWAP1 JUMPDEST DUP2 SLOAD DUP2 MSTORE SWAP1 PUSH1 0x1 ADD SWAP1 PUSH1 0x20 ADD DUP1 DUP4 GT PUSH2 0x180E JUMPI DUP3 SWAP1 SUB PUSH1 0x1F AND DUP3 ADD SWAP2 JUMPDEST POP POP POP POP POP DUP2 MSTORE PUSH1 0x20 ADD PUSH1 0x4 DUP3 ADD DUP1 SLOAD PUSH2 0x1844 SWAP1 PUSH2 0x2D03 JUMP JUMPDEST DUP1 PUSH1 0x1F ADD PUSH1 0x20 DUP1 SWAP2 DIV MUL PUSH1 0x20 ADD PUSH1 0x40 MLOAD SWAP1 DUP2 ADD PUSH1 0x40 MSTORE DUP1 SWAP3 SWAP2 SWAP1 DUP2 DUP2 MSTORE PUSH1 0x20 ADD DUP3 DUP1 SLOAD PUSH2 0x1870 SWAP1 PUSH2 0x2D03 JUMP JUMPDEST DUP1 ISZERO PUSH2 0x18BD JUMPI DUP1 PUSH1 0x1F LT PUSH2 0x1892 JUMPI PUSH2 0x100 DUP1 DUP4 SLOAD DIV MUL DUP4 MSTORE SWAP2 PUSH1 0x20 ADD SWAP2 PUSH2 0x18BD JUMP JUMPDEST DUP3 ADD SWAP2 SWAP1 PUSH1 0x0 MSTORE PUSH1 0x20 PUSH1 0x0 KECCAK256 SWAP1 JUMPDEST DUP2 SLOAD DUP2 MSTORE SWAP1 PUSH1 0x1 ADD SWAP1 PUSH1 0x20 ADD DUP1 DUP4 GT PUSH2 0x18A0 JUMPI DUP3 SWAP1 SUB PUSH1 0x1F AND DUP3 ADD SWAP2 JUMPDEST POP POP POP POP POP DUP2 MSTORE PUSH1 0x20 ADD PUSH1 0x5 DUP3 ADD DUP1 SLOAD PUSH2 0x18D6 SWAP1 PUSH2 0x2D03 JUMP JUMPDEST DUP1 PUSH1 0x1F ADD PUSH1 0x20 DUP1 SWAP2 DIV MUL PUSH1 0x20 ADD PUSH1 0x40 MLOAD SWAP1 DUP2 ADD PUSH1 0x40 MSTORE DUP1 SWAP3 SWAP2 SWAP1 DUP2 DUP2 MSTORE PUSH1 0x20 ADD DUP3 DUP1 SLOAD PUSH2 0x1902 SWAP1 PUSH2 0x2D03 JUMP JUMPDEST DUP1 ISZERO PUSH2 0x194F JUMPI DUP1 PUSH1 0x1F LT PUSH2 0x1924 JUMPI PUSH2 0x100 DUP1 DUP4 SLOAD DIV MUL DUP4 MSTORE SWAP2 PUSH1 0x20 ADD SWAP2 PUSH2 0x194F JUMP JUMPDEST DUP3 ADD SWAP2 SWAP1 PUSH1 0x0 MSTORE PUSH1 0x20 PUSH1 0x0 KECCAK256 SWAP1 JUMPDEST DUP2 SLOAD DUP2 MSTORE SWAP1 PUSH1 0x1 ADD SWAP1 PUSH1 0x20 ADD DUP1 DUP4 GT PUSH2 0x1932 JUMPI DUP3 SWAP1 SUB PUSH1 0x1F AND DUP3 ADD SWAP2 JUMPDEST POP POP POP POP POP DUP2 MSTORE PUSH1 0x20 ADD PUSH1 0x6 DUP3 ADD DUP1 SLOAD PUSH2 0x1968 SWAP1 PUSH2 0x2D03 JUMP JUMPDEST DUP1 PUSH1 0x1F ADD PUSH1 0x20 DUP1 SWAP2 DIV MUL PUSH1 0x20 ADD PUSH1 0x40 MLOAD SWAP1 DUP2 ADD PUSH1 0x40 MSTORE DUP1 SWAP3 SWAP2 SWAP1 DUP2 DUP2 MSTORE PUSH1 0x20 ADD DUP3 DUP1 SLOAD PUSH2 0x1994 SWAP1 PUSH2 0x2D03 JUMP JUMPDEST DUP1 ISZERO PUSH2 0x19E1 JUMPI DUP1 PUSH1 0x1F LT PUSH2 0x19B6 JUMPI PUSH2 0x100 DUP1 DUP4 SLOAD DIV MUL DUP4 MSTORE SWAP2 PUSH1 0x20 ADD SWAP2 PUSH2 0x19E1 JUMP JUMPDEST DUP3 ADD SWAP2 SWAP1 PUSH1 0x0 MSTORE PUSH1 0x20 PUSH1 0x0 KECCAK256 SWAP1 JUMPDEST DUP2 SLOAD DUP2 MSTORE SWAP1 PUSH1 0x1 ADD SWAP1 PUSH1 0x20 ADD DUP1 DUP4 GT PUSH2 0x19C4 JUMPI DUP3 SWAP1 SUB PUSH1 0x1F AND DUP3 ADD SWAP2 JUMPDEST POP POP POP POP POP DUP2 MSTORE POP POP SWAP1 POP SWAP2 SWAP4 SWAP6 SWAP8 SWAP10 SWAP1 SWAP3 SWAP5 SWAP7 SWAP9 POP JUMP JUMPDEST PUSH1 0x1 DUP1 SLOAD PUSH2 0x1A06 SWAP1 PUSH2 0x2D03 JUMP JUMPDEST DUP1 PUSH1 0x1F ADD PUSH1 0x20 DUP1 SWAP2 DIV MUL PUSH1 0x20 ADD PUSH1 0x40 MLOAD SWAP1 DUP2 ADD PUSH1 0x40 MSTORE DUP1 SWAP3 SWAP2 SWAP1 DUP2 DUP2 MSTORE PUSH1 0x20 ADD DUP3 DUP1 SLOAD PUSH2 0x1A32 SWAP1 PUSH2 0x2D03 JUMP JUMPDEST DUP1 ISZERO PUSH2 0x1A7F JUMPI DUP1 PUSH1 0x1F LT PUSH2 0x1A54 JUMPI PUSH2 0x100 DUP1 DUP4 SLOAD DIV MUL DUP4 MSTORE SWAP2 PUSH1 0x20 ADD SWAP2 PUSH2 0x1A7F JUMP JUMPDEST DUP3 ADD SWAP2 SWAP1 PUSH1 0x0 MSTORE PUSH1 0x20 PUSH1 0x0 KECCAK256 SWAP1 JUMPDEST DUP2 SLOAD DUP2 MSTORE SWAP1 PUSH1 0x1 ADD SWAP1 PUSH1 0x20 ADD DUP1 DUP4 GT PUSH2 0x1A62 JUMPI DUP3 SWAP1 SUB PUSH1 0x1F AND DUP3 ADD SWAP2 JUMPDEST POP POP POP POP POP DUP2 JUMP JUMPDEST PUSH1 0x2 PUSH1 0x0 SWAP1 SLOAD SWAP1 PUSH2 0x100 EXP SWAP1 DIV PUSH20 0xFFFFFFFFFFFFFFFFFFFFFFFFFFFFFFFFFFFFFFFF AND PUSH20 0xFFFFFFFFFFFFFFFFFFFFFFFFFFFFFFFFFFFFFFFF AND CALLER PUSH20 0xFFFFFFFFFFFFFFFFFFFFFFFFFFFFFFFFFFFFFFFF AND EQ PUSH2 0x1B17 JUMPI PUSH1 0x40 MLOAD PUSH32 0x8C379A000000000000000000000000000000000000000000000000000000000 DUP2 MSTORE PUSH1 0x4 ADD PUSH2 0x1B0E SWAP1 PUSH2 0x2934 JUMP JUMPDEST PUSH1 0x40 MLOAD DUP1 SWAP2 SUB SWAP1 REVERT JUMPDEST PUSH1 0x0 PUSH20 0xFFFFFFFFFFFFFFFFFFFFFFFFFFFFFFFFFFFFFFFF AND DUP3 PUSH20 0xFFFFFFFFFFFFFFFFFFFFFFFFFFFFFFFFFFFFFFFF AND EQ ISZERO PUSH2 0x1B51 JUMPI PUSH1 0x0 DUP1 REVERT JUMPDEST PUSH1 0x4 PUSH1 0x0 DUP4 PUSH20 0xFFFFFFFFFFFFFFFFFFFFFFFFFFFFFFFFFFFFFFFF AND PUSH20 0xFFFFFFFFFFFFFFFFFFFFFFFFFFFFFFFFFFFFFFFF AND DUP2 MSTORE PUSH1 0x20 ADD SWAP1 DUP2 MSTORE PUSH1 0x20 ADD PUSH1 0x0 KECCAK256 SLOAD DUP2 GT ISZERO PUSH2 0x1B9D JUMPI PUSH1 0x0 DUP1 REVERT JUMPDEST DUP1 PUSH1 0x3 PUSH1 0x0 DUP3 DUP3 SLOAD PUSH2 0x1BAF SWAP2 SWAP1 PUSH2 0x2BE9 JUMP JUMPDEST SWAP3 POP POP DUP2 SWAP1 SSTORE POP DUP1 PUSH1 0x4 PUSH1 0x0 DUP5 PUSH20 0xFFFFFFFFFFFFFFFFFFFFFFFFFFFFFFFFFFFFFFFF AND PUSH20 0xFFFFFFFFFFFFFFFFFFFFFFFFFFFFFFFFFFFFFFFF AND DUP2 MSTORE PUSH1 0x20 ADD SWAP1 DUP2 MSTORE PUSH1 0x20 ADD PUSH1 0x0 KECCAK256 PUSH1 0x0 DUP3 DUP3 SLOAD PUSH2 0x1C05 SWAP2 SWAP1 PUSH2 0x2BE9 JUMP JUMPDEST SWAP3 POP POP DUP2 SWAP1 SSTORE POP POP POP JUMP JUMPDEST PUSH1 0x2 PUSH1 0x0 SWAP1 SLOAD SWAP1 PUSH2 0x100 EXP SWAP1 DIV PUSH20 0xFFFFFFFFFFFFFFFFFFFFFFFFFFFFFFFFFFFFFFFF AND PUSH20 0xFFFFFFFFFFFFFFFFFFFFFFFFFFFFFFFFFFFFFFFF AND CALLER PUSH20 0xFFFFFFFFFFFFFFFFFFFFFFFFFFFFFFFFFFFFFFFF AND EQ PUSH2 0x1CA0 JUMPI PUSH1 0x40 MLOAD PUSH32 0x8C379A000000000000000000000000000000000000000000000000000000000 DUP2 MSTORE PUSH1 0x4 ADD PUSH2 0x1C97 SWAP1 PUSH2 0x2934 JUMP JUMPDEST PUSH1 0x40 MLOAD DUP1 SWAP2 SUB SWAP1 REVERT JUMPDEST DUP1 PUSH1 0x3 PUSH1 0x0 DUP3 DUP3 SLOAD PUSH2 0x1CB2 SWAP2 SWAP1 PUSH2 0x2B62 JUMP JUMPDEST SWAP3 POP POP DUP2 SWAP1 SSTORE POP DUP1 PUSH1 0x4 PUSH1 0x0 CALLER PUSH20 0xFFFFFFFFFFFFFFFFFFFFFFFFFFFFFFFFFFFFFFFF AND PUSH20 0xFFFFFFFFFFFFFFFFFFFFFFFFFFFFFFFFFFFFFFFF AND DUP2 MSTORE PUSH1 0x20 ADD SWAP1 DUP2 MSTORE PUSH1 0x20 ADD PUSH1 0x0 KECCAK256 PUSH1 0x0 DUP3 DUP3 SLOAD PUSH2 0x1D08 SWAP2 SWAP1 PUSH2 0x2B62 JUMP JUMPDEST SWAP3 POP POP DUP2 SWAP1 SSTORE POP POP JUMP JUMPDEST PUSH1 0x2 PUSH1 0x0 SWAP1 SLOAD SWAP1 PUSH2 0x100 EXP SWAP1 DIV PUSH20 0xFFFFFFFFFFFFFFFFFFFFFFFFFFFFFFFFFFFFFFFF AND DUP2 JUMP JUMPDEST PUSH1 0x0 PUSH1 0x64 CALLVALUE PUSH2 0x1D47 SWAP2 SWAP1 PUSH2 0x2BB8 JUMP JUMPDEST SWAP1 POP PUSH1 0x0 CALLVALUE GT PUSH2 0x1D56 JUMPI PUSH1 0x0 DUP1 REVERT JUMPDEST PUSH1 0x2 PUSH1 0x0 SWAP1 SLOAD SWAP1 PUSH2 0x100 EXP SWAP1 DIV PUSH20 0xFFFFFFFFFFFFFFFFFFFFFFFFFFFFFFFFFFFFFFFF AND PUSH20 0xFFFFFFFFFFFFFFFFFFFFFFFFFFFFFFFFFFFFFFFF AND PUSH2 0x8FC CALLVALUE SWAP1 DUP2 ISZERO MUL SWAP1 PUSH1 0x40 MLOAD PUSH1 0x0 PUSH1 0x40 MLOAD DUP1 DUP4 SUB DUP2 DUP6 DUP9 DUP9 CALL SWAP4 POP POP POP POP ISZERO DUP1 ISZERO PUSH2 0x1DBE JUMPI RETURNDATASIZE PUSH1 0x0 DUP1 RETURNDATACOPY RETURNDATASIZE PUSH1 0x0 REVERT JUMPDEST POP DUP1 PUSH1 0x4 PUSH1 0x0 PUSH1 0x2 PUSH1 0x0 SWAP1 SLOAD SWAP1 PUSH2 0x100 EXP SWAP1 DIV PUSH20 0xFFFFFFFFFFFFFFFFFFFFFFFFFFFFFFFFFFFFFFFF AND PUSH20 0xFFFFFFFFFFFFFFFFFFFFFFFFFFFFFFFFFFFFFFFF AND PUSH20 0xFFFFFFFFFFFFFFFFFFFFFFFFFFFFFFFFFFFFFFFF AND DUP2 MSTORE PUSH1 0x20 ADD SWAP1 DUP2 MSTORE PUSH1 0x20 ADD PUSH1 0x0 KECCAK256 PUSH1 0x0 DUP3 DUP3 SLOAD PUSH2 0x1E30 SWAP2 SWAP1 PUSH2 0x2BE9 JUMP JUMPDEST SWAP3 POP POP DUP2 SWAP1 SSTORE POP DUP1 PUSH1 0x4 PUSH1 0x0 CALLER PUSH20 0xFFFFFFFFFFFFFFFFFFFFFFFFFFFFFFFFFFFFFFFF AND PUSH20 0xFFFFFFFFFFFFFFFFFFFFFFFFFFFFFFFFFFFFFFFF AND DUP2 MSTORE PUSH1 0x20 ADD SWAP1 DUP2 MSTORE PUSH1 0x20 ADD PUSH1 0x0 KECCAK256 PUSH1 0x0 DUP3 DUP3 SLOAD PUSH2 0x1E86 SWAP2 SWAP1 PUSH2 0x2B62 JUMP JUMPDEST SWAP3 POP POP DUP2 SWAP1 SSTORE POP POP JUMP JUMPDEST PUSH1 0x0 PUSH1 0x60 PUSH1 0x5 PUSH1 0x0 DUP5 PUSH20 0xFFFFFFFFFFFFFFFFFFFFFFFFFFFFFFFFFFFFFFFF AND PUSH20 0xFFFFFFFFFFFFFFFFFFFFFFFFFFFFFFFFFFFFFFFF AND DUP2 MSTORE PUSH1 0x20 ADD SWAP1 DUP2 MSTORE PUSH1 0x20 ADD PUSH1 0x0 KECCAK256 PUSH1 0x0 ADD PUSH1 0x0 SWAP1 SLOAD SWAP1 PUSH2 0x100 EXP SWAP1 DIV PUSH1 0xFF AND SWAP2 POP PUSH1 0x5 PUSH1 0x0 DUP5 PUSH20 0xFFFFFFFFFFFFFFFFFFFFFFFFFFFFFFFFFFFFFFFF AND PUSH20 0xFFFFFFFFFFFFFFFFFFFFFFFFFFFFFFFFFFFFFFFF AND DUP2 MSTORE PUSH1 0x20 ADD SWAP1 DUP2 MSTORE PUSH1 0x20 ADD PUSH1 0x0 KECCAK256 PUSH1 0x1 ADD DUP1 SLOAD PUSH2 0x1F33 SWAP1 PUSH2 0x2D03 JUMP JUMPDEST DUP1 PUSH1 0x1F ADD PUSH1 0x20 DUP1 SWAP2 DIV MUL PUSH1 0x20 ADD PUSH1 0x40 MLOAD SWAP1 DUP2 ADD PUSH1 0x40 MSTORE DUP1 SWAP3 SWAP2 SWAP1 DUP2 DUP2 MSTORE PUSH1 0x20 ADD DUP3 DUP1 SLOAD PUSH2 0x1F5F SWAP1 PUSH2 0x2D03 JUMP JUMPDEST DUP1 ISZERO PUSH2 0x1FAC JUMPI DUP1 PUSH1 0x1F LT PUSH2 0x1F81 JUMPI PUSH2 0x100 DUP1 DUP4 SLOAD DIV MUL DUP4 MSTORE SWAP2 PUSH1 0x20 ADD SWAP2 PUSH2 0x1FAC JUMP JUMPDEST DUP3 ADD SWAP2 SWAP1 PUSH1 0x0 MSTORE PUSH1 0x20 PUSH1 0x0 KECCAK256 SWAP1 JUMPDEST DUP2 SLOAD DUP2 MSTORE SWAP1 PUSH1 0x1 ADD SWAP1 PUSH1 0x20 ADD DUP1 DUP4 GT PUSH2 0x1F8F JUMPI DUP3 SWAP1 SUB PUSH1 0x1F AND DUP3 ADD SWAP2 JUMPDEST POP POP POP POP POP SWAP1 POP SWAP2 POP SWAP2 JUMP JUMPDEST PUSH1 0x0 DUP2 PUSH20 0xFFFFFFFFFFFFFFFFFFFFFFFFFFFFFFFFFFFFFFFF AND BALANCE SWAP1 POP SWAP2 SWAP1 POP JUMP JUMPDEST PUSH1 0x0 PUSH1 0x4 PUSH1 0x0 DUP4 PUSH20 0xFFFFFFFFFFFFFFFFFFFFFFFFFFFFFFFFFFFFFFFF AND PUSH20 0xFFFFFFFFFFFFFFFFFFFFFFFFFFFFFFFFFFFFFFFF AND DUP2 MSTORE PUSH1 0x20 ADD SWAP1 DUP2 MSTORE PUSH1 0x20 ADD PUSH1 0x0 KECCAK256 SLOAD SWAP1 POP SWAP2 SWAP1 POP JUMP JUMPDEST DUP3 DUP1 SLOAD PUSH2 0x202E SWAP1 PUSH2 0x2D03 JUMP JUMPDEST SWAP1 PUSH1 0x0 MSTORE PUSH1 0x20 PUSH1 0x0 KECCAK256 SWAP1 PUSH1 0x1F ADD PUSH1 0x20 SWAP1 DIV DUP2 ADD SWAP3 DUP3 PUSH2 0x2050 JUMPI PUSH1 0x0 DUP6 SSTORE PUSH2 0x2097 JUMP JUMPDEST DUP3 PUSH1 0x1F LT PUSH2 0x2069 JUMPI DUP1 MLOAD PUSH1 0xFF NOT AND DUP4 DUP1 ADD OR DUP6 SSTORE PUSH2 0x2097 JUMP JUMPDEST DUP3 DUP1 ADD PUSH1 0x1 ADD DUP6 SSTORE DUP3 ISZERO PUSH2 0x2097 JUMPI SWAP2 DUP3 ADD JUMPDEST DUP3 DUP2 GT ISZERO PUSH2 0x2096 JUMPI DUP3 MLOAD DUP3 SSTORE SWAP2 PUSH1 0x20 ADD SWAP2 SWAP1 PUSH1 0x1 ADD SWAP1 PUSH2 0x207B JUMP JUMPDEST JUMPDEST POP SWAP1 POP PUSH2 0x20A4 SWAP2 SWAP1 PUSH2 0x20E5 JUMP JUMPDEST POP SWAP1 JUMP JUMPDEST PUSH1 0x40 MLOAD DUP1 PUSH1 0xE0 ADD PUSH1 0x40 MSTORE DUP1 PUSH1 0x60 DUP2 MSTORE PUSH1 0x20 ADD PUSH1 0x60 DUP2 MSTORE PUSH1 0x20 ADD PUSH1 0x60 DUP2 MSTORE PUSH1 0x20 ADD PUSH1 0x60 DUP2 MSTORE PUSH1 0x20 ADD PUSH1 0x60 DUP2 MSTORE PUSH1 0x20 ADD PUSH1 0x60 DUP2 MSTORE PUSH1 0x20 ADD PUSH1 0x60 DUP2 MSTORE POP SWAP1 JUMP JUMPDEST JUMPDEST DUP1 DUP3 GT ISZERO PUSH2 0x20FE JUMPI PUSH1 0x0 DUP2 PUSH1 0x0 SWAP1 SSTORE POP PUSH1 0x1 ADD PUSH2 0x20E6 JUMP JUMPDEST POP SWAP1 JUMP JUMPDEST PUSH1 0x0 PUSH2 0x2115 PUSH2 0x2110 DUP5 PUSH2 0x2B04 JUMP JUMPDEST PUSH2 0x2ADF JUMP JUMPDEST SWAP1 POP DUP3 DUP2 MSTORE PUSH1 0x20 DUP2 ADD DUP5 DUP5 DUP5 ADD GT ISZERO PUSH2 0x2131 JUMPI PUSH2 0x2130 PUSH2 0x2E8F JUMP JUMPDEST JUMPDEST PUSH2 0x213C DUP5 DUP3 DUP6 PUSH2 0x2CC1 JUMP JUMPDEST POP SWAP4 SWAP3 POP POP POP JUMP JUMPDEST PUSH1 0x0 DUP2 CALLDATALOAD SWAP1 POP PUSH2 0x2153 DUP2 PUSH2 0x2F52 JUMP JUMPDEST SWAP3 SWAP2 POP POP JUMP JUMPDEST PUSH1 0x0 DUP2 CALLDATALOAD SWAP1 POP PUSH2 0x2168 DUP2 PUSH2 0x2F69 JUMP JUMPDEST SWAP3 SWAP2 POP POP JUMP JUMPDEST PUSH1 0x0 DUP3 PUSH1 0x1F DUP4 ADD SLT PUSH2 0x2183 JUMPI PUSH2 0x2182 PUSH2 0x2E80 JUMP JUMPDEST JUMPDEST DUP2 CALLDATALOAD PUSH2 0x2193 DUP5 DUP3 PUSH1 0x20 DUP7 ADD PUSH2 0x2102 JUMP JUMPDEST SWAP2 POP POP SWAP3 SWAP2 POP POP JUMP JUMPDEST PUSH1 0x0 PUSH1 0xE0 DUP3 DUP5 SUB SLT ISZERO PUSH2 0x21B2 JUMPI PUSH2 0x21B1 PUSH2 0x2E85 JUMP JUMPDEST JUMPDEST PUSH2 0x21BC PUSH1 0xE0 PUSH2 0x2ADF JUMP JUMPDEST SWAP1 POP PUSH1 0x0 DUP3 ADD CALLDATALOAD PUSH8 0xFFFFFFFFFFFFFFFF DUP2 GT ISZERO PUSH2 0x21DC JUMPI PUSH2 0x21DB PUSH2 0x2E8A JUMP JUMPDEST JUMPDEST PUSH2 0x21E8 DUP5 DUP3 DUP6 ADD PUSH2 0x216E JUMP JUMPDEST PUSH1 0x0 DUP4 ADD MSTORE POP PUSH1 0x20 DUP3 ADD CALLDATALOAD PUSH8 0xFFFFFFFFFFFFFFFF DUP2 GT ISZERO PUSH2 0x220C JUMPI PUSH2 0x220B PUSH2 0x2E8A JUMP JUMPDEST JUMPDEST PUSH2 0x2218 DUP5 DUP3 DUP6 ADD PUSH2 0x216E JUMP JUMPDEST PUSH1 0x20 DUP4 ADD MSTORE POP PUSH1 0x40 DUP3 ADD CALLDATALOAD PUSH8 0xFFFFFFFFFFFFFFFF DUP2 GT ISZERO PUSH2 0x223C JUMPI PUSH2 0x223B PUSH2 0x2E8A JUMP JUMPDEST JUMPDEST PUSH2 0x2248 DUP5 DUP3 DUP6 ADD PUSH2 0x216E JUMP JUMPDEST PUSH1 0x40 DUP4 ADD MSTORE POP PUSH1 0x60 DUP3 ADD CALLDATALOAD PUSH8 0xFFFFFFFFFFFFFFFF DUP2 GT ISZERO PUSH2 0x226C JUMPI PUSH2 0x226B PUSH2 0x2E8A JUMP JUMPDEST JUMPDEST PUSH2 0x2278 DUP5 DUP3 DUP6 ADD PUSH2 0x216E JUMP JUMPDEST PUSH1 0x60 DUP4 ADD MSTORE POP PUSH1 0x80 DUP3 ADD CALLDATALOAD PUSH8 0xFFFFFFFFFFFFFFFF DUP2 GT ISZERO PUSH2 0x229C JUMPI PUSH2 0x229B PUSH2 0x2E8A JUMP JUMPDEST JUMPDEST PUSH2 0x22A8 DUP5 DUP3 DUP6 ADD PUSH2 0x216E JUMP JUMPDEST PUSH1 0x80 DUP4 ADD MSTORE POP PUSH1 0xA0 DUP3 ADD CALLDATALOAD PUSH8 0xFFFFFFFFFFFFFFFF DUP2 GT ISZERO PUSH2 0x22CC JUMPI PUSH2 0x22CB PUSH2 0x2E8A JUMP JUMPDEST JUMPDEST PUSH2 0x22D8 DUP5 DUP3 DUP6 ADD PUSH2 0x216E JUMP JUMPDEST PUSH1 0xA0 DUP4 ADD MSTORE POP PUSH1 0xC0 DUP3 ADD CALLDATALOAD PUSH8 0xFFFFFFFFFFFFFFFF DUP2 GT ISZERO PUSH2 0x22FC JUMPI PUSH2 0x22FB PUSH2 0x2E8A JUMP JUMPDEST JUMPDEST PUSH2 0x2308 DUP5 DUP3 DUP6 ADD PUSH2 0x216E JUMP JUMPDEST PUSH1 0xC0 DUP4 ADD MSTORE POP SWAP3 SWAP2 POP POP JUMP JUMPDEST PUSH1 0x0 DUP2 CALLDATALOAD SWAP1 POP PUSH2 0x2323 DUP2 PUSH2 0x2F79 JUMP JUMPDEST SWAP3 SWAP2 POP POP JUMP JUMPDEST PUSH1 0x0 PUSH1 0x20 DUP3 DUP5 SUB SLT ISZERO PUSH2 0x233F JUMPI PUSH2 0x233E PUSH2 0x2E99 JUMP JUMPDEST JUMPDEST PUSH1 0x0 PUSH2 0x234D DUP5 DUP3 DUP6 ADD PUSH2 0x2144 JUMP JUMPDEST SWAP2 POP POP SWAP3 SWAP2 POP POP JUMP JUMPDEST PUSH1 0x0 DUP1 PUSH1 0x0 PUSH1 0x60 DUP5 DUP7 SUB SLT ISZERO PUSH2 0x236F JUMPI PUSH2 0x236E PUSH2 0x2E99 JUMP JUMPDEST JUMPDEST PUSH1 0x0 PUSH2 0x237D DUP7 DUP3 DUP8 ADD PUSH2 0x2144 JUMP JUMPDEST SWAP4 POP POP PUSH1 0x20 PUSH2 0x238E DUP7 DUP3 DUP8 ADD PUSH2 0x2159 JUMP JUMPDEST SWAP3 POP POP PUSH1 0x40 DUP5 ADD CALLDATALOAD PUSH8 0xFFFFFFFFFFFFFFFF DUP2 GT ISZERO PUSH2 0x23AF JUMPI PUSH2 0x23AE PUSH2 0x2E94 JUMP JUMPDEST JUMPDEST PUSH2 0x23BB DUP7 DUP3 DUP8 ADD PUSH2 0x216E JUMP JUMPDEST SWAP2 POP POP SWAP3 POP SWAP3 POP SWAP3 JUMP JUMPDEST PUSH1 0x0 DUP1 PUSH1 0x40 DUP4 DUP6 SUB SLT ISZERO PUSH2 0x23DC JUMPI PUSH2 0x23DB PUSH2 0x2E99 JUMP JUMPDEST JUMPDEST PUSH1 0x0 PUSH2 0x23EA DUP6 DUP3 DUP7 ADD PUSH2 0x2144 JUMP JUMPDEST SWAP3 POP POP PUSH1 0x20 PUSH2 0x23FB DUP6 DUP3 DUP7 ADD PUSH2 0x2314 JUMP JUMPDEST SWAP2 POP POP SWAP3 POP SWAP3 SWAP1 POP JUMP JUMPDEST PUSH1 0x0 PUSH1 0x20 DUP3 DUP5 SUB SLT ISZERO PUSH2 0x241B JUMPI PUSH2 0x241A PUSH2 0x2E99 JUMP JUMPDEST JUMPDEST PUSH1 0x0 PUSH2 0x2429 DUP5 DUP3 DUP6 ADD PUSH2 0x2314 JUMP JUMPDEST SWAP2 POP POP SWAP3 SWAP2 POP POP JUMP JUMPDEST PUSH1 0x0 DUP1 PUSH1 0x40 DUP4 DUP6 SUB SLT ISZERO PUSH2 0x2449 JUMPI PUSH2 0x2448 PUSH2 0x2E99 JUMP JUMPDEST JUMPDEST PUSH1 0x0 PUSH2 0x2457 DUP6 DUP3 DUP7 ADD PUSH2 0x2314 JUMP JUMPDEST SWAP3 POP POP PUSH1 0x20 DUP4 ADD CALLDATALOAD PUSH8 0xFFFFFFFFFFFFFFFF DUP2 GT ISZERO PUSH2 0x2478 JUMPI PUSH2 0x2477 PUSH2 0x2E94 JUMP JUMPDEST JUMPDEST PUSH2 0x2484 DUP6 DUP3 DUP7 ADD PUSH2 0x219C JUMP JUMPDEST SWAP2 POP POP SWAP3 POP SWAP3 SWAP1 POP JUMP JUMPDEST PUSH1 0x0 DUP1 PUSH1 0x40 DUP4 DUP6 SUB SLT ISZERO PUSH2 0x24A5 JUMPI PUSH2 0x24A4 PUSH2 0x2E99 JUMP JUMPDEST JUMPDEST PUSH1 0x0 PUSH2 0x24B3 DUP6 DUP3 DUP7 ADD PUSH2 0x2314 JUMP JUMPDEST SWAP3 POP POP PUSH1 0x20 PUSH2 0x24C4 DUP6 DUP3 DUP7 ADD PUSH2 0x2314 JUMP JUMPDEST SWAP2 POP POP SWAP3 POP SWAP3 SWAP1 POP JUMP JUMPDEST PUSH1 0x0 DUP1 PUSH1 0x0 DUP1 PUSH1 0x0 DUP1 PUSH1 0x0 DUP1 PUSH1 0x0 DUP1 PUSH2 0x140 DUP12 DUP14 SUB SLT ISZERO PUSH2 0x24F2 JUMPI PUSH2 0x24F1 PUSH2 0x2E99 JUMP JUMPDEST JUMPDEST PUSH1 0x0 PUSH2 0x2500 DUP14 DUP3 DUP15 ADD PUSH2 0x2314 JUMP JUMPDEST SWAP11 POP POP PUSH1 0x20 PUSH2 0x2511 DUP14 DUP3 DUP15 ADD PUSH2 0x2314 JUMP JUMPDEST SWAP10 POP POP PUSH1 0x40 PUSH2 0x2522 DUP14 DUP3 DUP15 ADD PUSH2 0x2314 JUMP JUMPDEST SWAP9 POP POP PUSH1 0x60 DUP12 ADD CALLDATALOAD PUSH8 0xFFFFFFFFFFFFFFFF DUP2 GT ISZERO PUSH2 0x2543 JUMPI PUSH2 0x2542 PUSH2 0x2E94 JUMP JUMPDEST JUMPDEST PUSH2 0x254F DUP14 DUP3 DUP15 ADD PUSH2 0x216E JUMP JUMPDEST SWAP8 POP POP PUSH1 0x80 DUP12 ADD CALLDATALOAD PUSH8 0xFFFFFFFFFFFFFFFF DUP2 GT ISZERO PUSH2 0x2570 JUMPI PUSH2 0x256F PUSH2 0x2E94 JUMP JUMPDEST JUMPDEST PUSH2 0x257C DUP14 DUP3 DUP15 ADD PUSH2 0x216E JUMP JUMPDEST SWAP7 POP POP PUSH1 0xA0 DUP12 ADD CALLDATALOAD PUSH8 0xFFFFFFFFFFFFFFFF DUP2 GT ISZERO PUSH2 0x259D JUMPI PUSH2 0x259C PUSH2 0x2E94 JUMP JUMPDEST JUMPDEST PUSH2 0x25A9 DUP14 DUP3 DUP15 ADD PUSH2 0x216E JUMP JUMPDEST SWAP6 POP POP PUSH1 0xC0 DUP12 ADD CALLDATALOAD PUSH8 0xFFFFFFFFFFFFFFFF DUP2 GT ISZERO PUSH2 0x25CA JUMPI PUSH2 0x25C9 PUSH2 0x2E94 JUMP JUMPDEST JUMPDEST PUSH2 0x25D6 DUP14 DUP3 DUP15 ADD PUSH2 0x216E JUMP JUMPDEST SWAP5 POP POP PUSH1 0xE0 DUP12 ADD CALLDATALOAD PUSH8 0xFFFFFFFFFFFFFFFF DUP2 GT ISZERO PUSH2 0x25F7 JUMPI PUSH2 0x25F6 PUSH2 0x2E94 JUMP JUMPDEST JUMPDEST PUSH2 0x2603 DUP14 DUP3 DUP15 ADD PUSH2 0x216E JUMP JUMPDEST SWAP4 POP POP PUSH2 0x100 DUP12 ADD CALLDATALOAD PUSH8 0xFFFFFFFFFFFFFFFF DUP2 GT ISZERO PUSH2 0x2625 JUMPI PUSH2 0x2624 PUSH2 0x2E94 JUMP JUMPDEST JUMPDEST PUSH2 0x2631 DUP14 DUP3 DUP15 ADD PUSH2 0x216E JUMP JUMPDEST SWAP3 POP POP PUSH2 0x120 DUP12 ADD CALLDATALOAD PUSH8 0xFFFFFFFFFFFFFFFF DUP2 GT ISZERO PUSH2 0x2653 JUMPI PUSH2 0x2652 PUSH2 0x2E94 JUMP JUMPDEST JUMPDEST PUSH2 0x265F DUP14 DUP3 DUP15 ADD PUSH2 0x216E JUMP JUMPDEST SWAP2 POP POP SWAP3 SWAP6 SWAP9 SWAP12 SWAP2 SWAP5 SWAP8 SWAP11 POP SWAP3 SWAP6 SWAP9 POP JUMP JUMPDEST PUSH2 0x267A DUP2 PUSH2 0x2C2F JUMP JUMPDEST DUP3 MSTORE POP POP JUMP JUMPDEST PUSH2 0x2689 DUP2 PUSH2 0x2C1D JUMP JUMPDEST DUP3 MSTORE POP POP JUMP JUMPDEST PUSH2 0x2698 DUP2 PUSH2 0x2C41 JUMP JUMPDEST DUP3 MSTORE POP POP JUMP JUMPDEST PUSH2 0x26A7 DUP2 PUSH2 0x2C9D JUMP JUMPDEST DUP3 MSTORE POP POP JUMP JUMPDEST PUSH2 0x26B6 DUP2 PUSH2 0x2CAF JUMP JUMPDEST DUP3 MSTORE POP POP JUMP JUMPDEST PUSH1 0x0 PUSH2 0x26C7 DUP3 PUSH2 0x2B35 JUMP JUMPDEST PUSH2 0x26D1 DUP2 DUP6 PUSH2 0x2B40 JUMP JUMPDEST SWAP4 POP PUSH2 0x26E1 DUP2 DUP6 PUSH1 0x20 DUP7 ADD PUSH2 0x2CD0 JUMP JUMPDEST PUSH2 0x26EA DUP2 PUSH2 0x2E9E JUMP JUMPDEST DUP5 ADD SWAP2 POP POP SWAP3 SWAP2 POP POP JUMP JUMPDEST PUSH1 0x0 PUSH2 0x2700 DUP3 PUSH2 0x2B35 JUMP JUMPDEST PUSH2 0x270A DUP2 DUP6 PUSH2 0x2B51 JUMP JUMPDEST SWAP4 POP PUSH2 0x271A DUP2 DUP6 PUSH1 0x20 DUP7 ADD PUSH2 0x2CD0 JUMP JUMPDEST PUSH2 0x2723 DUP2 PUSH2 0x2E9E JUMP JUMPDEST DUP5 ADD SWAP2 POP POP SWAP3 SWAP2 POP POP JUMP JUMPDEST PUSH1 0x0 PUSH2 0x273B PUSH1 0x1C DUP4 PUSH2 0x2B51 JUMP JUMPDEST SWAP2 POP PUSH2 0x2746 DUP3 PUSH2 0x2EAF JUMP JUMPDEST PUSH1 0x20 DUP3 ADD SWAP1 POP SWAP2 SWAP1 POP JUMP JUMPDEST PUSH1 0x0 PUSH2 0x275E PUSH1 0x19 DUP4 PUSH2 0x2B51 JUMP JUMPDEST SWAP2 POP PUSH2 0x2769 DUP3 PUSH2 0x2ED8 JUMP JUMPDEST PUSH1 0x20 DUP3 ADD SWAP1 POP SWAP2 SWAP1 POP JUMP JUMPDEST PUSH1 0x0 PUSH2 0x2781 PUSH1 0x1E DUP4 PUSH2 0x2B51 JUMP JUMPDEST SWAP2 POP PUSH2 0x278C DUP3 PUSH2 0x2F01 JUMP JUMPDEST PUSH1 0x20 DUP3 ADD SWAP1 POP SWAP2 SWAP1 POP JUMP JUMPDEST PUSH1 0x0 PUSH1 0xE0 DUP4 ADD PUSH1 0x0 DUP4 ADD MLOAD DUP5 DUP3 SUB PUSH1 0x0 DUP7 ADD MSTORE PUSH2 0x27B4 DUP3 DUP3 PUSH2 0x26BC JUMP JUMPDEST SWAP2 POP POP PUSH1 0x20 DUP4 ADD MLOAD DUP5 DUP3 SUB PUSH1 0x20 DUP7 ADD MSTORE PUSH2 0x27CE DUP3 DUP3 PUSH2 0x26BC JUMP JUMPDEST SWAP2 POP POP PUSH1 0x40 DUP4 ADD MLOAD DUP5 DUP3 SUB PUSH1 0x40 DUP7 ADD MSTORE PUSH2 0x27E8 DUP3 DUP3 PUSH2 0x26BC JUMP JUMPDEST SWAP2 POP POP PUSH1 0x60 DUP4 ADD MLOAD DUP5 DUP3 SUB PUSH1 0x60 DUP7 ADD MSTORE PUSH2 0x2802 DUP3 DUP3 PUSH2 0x26BC JUMP JUMPDEST SWAP2 POP POP PUSH1 0x80 DUP4 ADD MLOAD DUP5 DUP3 SUB PUSH1 0x80 DUP7 ADD MSTORE PUSH2 0x281C DUP3 DUP3 PUSH2 0x26BC JUMP JUMPDEST SWAP2 POP POP PUSH1 0xA0 DUP4 ADD MLOAD DUP5 DUP3 SUB PUSH1 0xA0 DUP7 ADD MSTORE PUSH2 0x2836 DUP3 DUP3 PUSH2 0x26BC JUMP JUMPDEST SWAP2 POP POP PUSH1 0xC0 DUP4 ADD MLOAD DUP5 DUP3 SUB PUSH1 0xC0 DUP7 ADD MSTORE PUSH2 0x2850 DUP3 DUP3 PUSH2 0x26BC JUMP JUMPDEST SWAP2 POP POP DUP1 SWAP2 POP POP SWAP3 SWAP2 POP POP JUMP JUMPDEST PUSH2 0x2866 DUP2 PUSH2 0x2C93 JUMP JUMPDEST DUP3 MSTORE POP POP JUMP JUMPDEST PUSH1 0x0 PUSH1 0x20 DUP3 ADD SWAP1 POP PUSH2 0x2881 PUSH1 0x0 DUP4 ADD DUP5 PUSH2 0x2671 JUMP JUMPDEST SWAP3 SWAP2 POP POP JUMP JUMPDEST PUSH1 0x0 PUSH1 0x20 DUP3 ADD SWAP1 POP PUSH2 0x289C PUSH1 0x0 DUP4 ADD DUP5 PUSH2 0x268F JUMP JUMPDEST SWAP3 SWAP2 POP POP JUMP JUMPDEST PUSH1 0x0 PUSH1 0x40 DUP3 ADD SWAP1 POP PUSH2 0x28B7 PUSH1 0x0 DUP4 ADD DUP6 PUSH2 0x269E JUMP JUMPDEST DUP2 DUP2 SUB PUSH1 0x20 DUP4 ADD MSTORE PUSH2 0x28C9 DUP2 DUP5 PUSH2 0x26F5 JUMP JUMPDEST SWAP1 POP SWAP4 SWAP3 POP POP POP JUMP JUMPDEST PUSH1 0x0 PUSH1 0x20 DUP3 ADD SWAP1 POP DUP2 DUP2 SUB PUSH1 0x0 DUP4 ADD MSTORE PUSH2 0x28EC DUP2 DUP5 PUSH2 0x26F5 JUMP JUMPDEST SWAP1 POP SWAP3 SWAP2 POP POP JUMP JUMPDEST PUSH1 0x0 PUSH1 0x20 DUP3 ADD SWAP1 POP DUP2 DUP2 SUB PUSH1 0x0 DUP4 ADD MSTORE PUSH2 0x290D DUP2 PUSH2 0x272E JUMP JUMPDEST SWAP1 POP SWAP2 SWAP1 POP JUMP JUMPDEST PUSH1 0x0 PUSH1 0x20 DUP3 ADD SWAP1 POP DUP2 DUP2 SUB PUSH1 0x0 DUP4 ADD MSTORE PUSH2 0x292D DUP2 PUSH2 0x2751 JUMP JUMPDEST SWAP1 POP SWAP2 SWAP1 POP JUMP JUMPDEST PUSH1 0x0 PUSH1 0x20 DUP3 ADD SWAP1 POP DUP2 DUP2 SUB PUSH1 0x0 DUP4 ADD MSTORE PUSH2 0x294D DUP2 PUSH2 0x2774 JUMP JUMPDEST SWAP1 POP SWAP2 SWAP1 POP JUMP JUMPDEST PUSH1 0x0 PUSH1 0x20 DUP3 ADD SWAP1 POP PUSH2 0x2969 PUSH1 0x0 DUP4 ADD DUP5 PUSH2 0x285D JUMP JUMPDEST SWAP3 SWAP2 POP POP JUMP JUMPDEST PUSH1 0x0 PUSH2 0x120 DUP3 ADD SWAP1 POP PUSH2 0x2985 PUSH1 0x0 DUP4 ADD DUP13 PUSH2 0x285D JUMP JUMPDEST PUSH2 0x2992 PUSH1 0x20 DUP4 ADD DUP12 PUSH2 0x2680 JUMP JUMPDEST PUSH2 0x299F PUSH1 0x40 DUP4 ADD DUP11 PUSH2 0x2680 JUMP JUMPDEST PUSH2 0x29AC PUSH1 0x60 DUP4 ADD DUP10 PUSH2 0x26AD JUMP JUMPDEST PUSH2 0x29B9 PUSH1 0x80 DUP4 ADD DUP9 PUSH2 0x285D JUMP JUMPDEST PUSH2 0x29C6 PUSH1 0xA0 DUP4 ADD DUP8 PUSH2 0x2680 JUMP JUMPDEST PUSH2 0x29D3 PUSH1 0xC0 DUP4 ADD DUP7 PUSH2 0x2680 JUMP JUMPDEST PUSH2 0x29E0 PUSH1 0xE0 DUP4 ADD DUP6 PUSH2 0x2680 JUMP JUMPDEST DUP2 DUP2 SUB PUSH2 0x100 DUP4 ADD MSTORE PUSH2 0x29F3 DUP2 DUP5 PUSH2 0x2797 JUMP JUMPDEST SWAP1 POP SWAP11 SWAP10 POP POP POP POP POP POP POP POP POP POP JUMP JUMPDEST PUSH1 0x0 PUSH2 0x160 DUP3 ADD SWAP1 POP PUSH2 0x2A19 PUSH1 0x0 DUP4 ADD DUP15 PUSH2 0x285D JUMP JUMPDEST PUSH2 0x2A26 PUSH1 0x20 DUP4 ADD DUP14 PUSH2 0x2680 JUMP JUMPDEST PUSH2 0x2A33 PUSH1 0x40 DUP4 ADD DUP13 PUSH2 0x26AD JUMP JUMPDEST PUSH2 0x2A40 PUSH1 0x60 DUP4 ADD DUP12 PUSH2 0x285D JUMP JUMPDEST DUP2 DUP2 SUB PUSH1 0x80 DUP4 ADD MSTORE PUSH2 0x2A52 DUP2 DUP11 PUSH2 0x26F5 JUMP JUMPDEST SWAP1 POP DUP2 DUP2 SUB PUSH1 0xA0 DUP4 ADD MSTORE PUSH2 0x2A66 DUP2 DUP10 PUSH2 0x26F5 JUMP JUMPDEST SWAP1 POP DUP2 DUP2 SUB PUSH1 0xC0 DUP4 ADD MSTORE PUSH2 0x2A7A DUP2 DUP9 PUSH2 0x26F5 JUMP JUMPDEST SWAP1 POP DUP2 DUP2 SUB PUSH1 0xE0 DUP4 ADD MSTORE PUSH2 0x2A8E DUP2 DUP8 PUSH2 0x26F5 JUMP JUMPDEST SWAP1 POP DUP2 DUP2 SUB PUSH2 0x100 DUP4 ADD MSTORE PUSH2 0x2AA3 DUP2 DUP7 PUSH2 0x26F5 JUMP JUMPDEST SWAP1 POP DUP2 DUP2 SUB PUSH2 0x120 DUP4 ADD MSTORE PUSH2 0x2AB8 DUP2 DUP6 PUSH2 0x26F5 JUMP JUMPDEST SWAP1 POP DUP2 DUP2 SUB PUSH2 0x140 DUP4 ADD MSTORE PUSH2 0x2ACD DUP2 DUP5 PUSH2 0x26F5 JUMP JUMPDEST SWAP1 POP SWAP13 SWAP12 POP POP POP POP POP POP POP POP POP POP POP POP JUMP JUMPDEST PUSH1 0x0 PUSH2 0x2AE9 PUSH2 0x2AFA JUMP JUMPDEST SWAP1 POP PUSH2 0x2AF5 DUP3 DUP3 PUSH2 0x2D35 JUMP JUMPDEST SWAP2 SWAP1 POP JUMP JUMPDEST PUSH1 0x0 PUSH1 0x40 MLOAD SWAP1 POP SWAP1 JUMP JUMPDEST PUSH1 0x0 PUSH8 0xFFFFFFFFFFFFFFFF DUP3 GT ISZERO PUSH2 0x2B1F JUMPI PUSH2 0x2B1E PUSH2 0x2E51 JUMP JUMPDEST JUMPDEST PUSH2 0x2B28 DUP3 PUSH2 0x2E9E JUMP JUMPDEST SWAP1 POP PUSH1 0x20 DUP2 ADD SWAP1 POP SWAP2 SWAP1 POP JUMP JUMPDEST PUSH1 0x0 DUP2 MLOAD SWAP1 POP SWAP2 SWAP1 POP JUMP JUMPDEST PUSH1 0x0 DUP3 DUP3 MSTORE PUSH1 0x20 DUP3 ADD SWAP1 POP SWAP3 SWAP2 POP POP JUMP JUMPDEST PUSH1 0x0 DUP3 DUP3 MSTORE PUSH1 0x20 DUP3 ADD SWAP1 POP SWAP3 SWAP2 POP POP JUMP JUMPDEST PUSH1 0x0 PUSH2 0x2B6D DUP3 PUSH2 0x2C93 JUMP JUMPDEST SWAP2 POP PUSH2 0x2B78 DUP4 PUSH2 0x2C93 JUMP JUMPDEST SWAP3 POP DUP3 PUSH32 0xFFFFFFFFFFFFFFFFFFFFFFFFFFFFFFFFFFFFFFFFFFFFFFFFFFFFFFFFFFFFFFFF SUB DUP3 GT ISZERO PUSH2 0x2BAD JUMPI PUSH2 0x2BAC PUSH2 0x2D66 JUMP JUMPDEST JUMPDEST DUP3 DUP3 ADD SWAP1 POP SWAP3 SWAP2 POP POP JUMP JUMPDEST PUSH1 0x0 PUSH2 0x2BC3 DUP3 PUSH2 0x2C93 JUMP JUMPDEST SWAP2 POP PUSH2 0x2BCE DUP4 PUSH2 0x2C93 JUMP JUMPDEST SWAP3 POP DUP3 PUSH2 0x2BDE JUMPI PUSH2 0x2BDD PUSH2 0x2D95 JUMP JUMPDEST JUMPDEST DUP3 DUP3 DIV SWAP1 POP SWAP3 SWAP2 POP POP JUMP JUMPDEST PUSH1 0x0 PUSH2 0x2BF4 DUP3 PUSH2 0x2C93 JUMP JUMPDEST SWAP2 POP PUSH2 0x2BFF DUP4 PUSH2 0x2C93 JUMP JUMPDEST SWAP3 POP DUP3 DUP3 LT ISZERO PUSH2 0x2C12 JUMPI PUSH2 0x2C11 PUSH2 0x2D66 JUMP JUMPDEST JUMPDEST DUP3 DUP3 SUB SWAP1 POP SWAP3 SWAP2 POP POP JUMP JUMPDEST PUSH1 0x0 PUSH2 0x2C28 DUP3 PUSH2 0x2C73 JUMP JUMPDEST SWAP1 POP SWAP2 SWAP1 POP JUMP JUMPDEST PUSH1 0x0 PUSH2 0x2C3A DUP3 PUSH2 0x2C73 JUMP JUMPDEST SWAP1 POP SWAP2 SWAP1 POP JUMP JUMPDEST PUSH1 0x0 DUP2 ISZERO ISZERO SWAP1 POP SWAP2 SWAP1 POP JUMP JUMPDEST PUSH1 0x0 DUP2 SWAP1 POP PUSH2 0x2C5B DUP3 PUSH2 0x2F2A JUMP JUMPDEST SWAP2 SWAP1 POP JUMP JUMPDEST PUSH1 0x0 DUP2 SWAP1 POP PUSH2 0x2C6E DUP3 PUSH2 0x2F3E JUMP JUMPDEST SWAP2 SWAP1 POP JUMP JUMPDEST PUSH1 0x0 PUSH20 0xFFFFFFFFFFFFFFFFFFFFFFFFFFFFFFFFFFFFFFFF DUP3 AND SWAP1 POP SWAP2 SWAP1 POP JUMP JUMPDEST PUSH1 0x0 DUP2 SWAP1 POP SWAP2 SWAP1 POP JUMP JUMPDEST PUSH1 0x0 PUSH2 0x2CA8 DUP3 PUSH2 0x2C4D JUMP JUMPDEST SWAP1 POP SWAP2 SWAP1 POP JUMP JUMPDEST PUSH1 0x0 PUSH2 0x2CBA DUP3 PUSH2 0x2C60 JUMP JUMPDEST SWAP1 POP SWAP2 SWAP1 POP JUMP JUMPDEST DUP3 DUP2 DUP4 CALLDATACOPY PUSH1 0x0 DUP4 DUP4 ADD MSTORE POP POP POP JUMP JUMPDEST PUSH1 0x0 JUMPDEST DUP4 DUP2 LT ISZERO PUSH2 0x2CEE JUMPI DUP1 DUP3 ADD MLOAD DUP2 DUP5 ADD MSTORE PUSH1 0x20 DUP2 ADD SWAP1 POP PUSH2 0x2CD3 JUMP JUMPDEST DUP4 DUP2 GT ISZERO PUSH2 0x2CFD JUMPI PUSH1 0x0 DUP5 DUP5 ADD MSTORE JUMPDEST POP POP POP POP JUMP JUMPDEST PUSH1 0x0 PUSH1 0x2 DUP3 DIV SWAP1 POP PUSH1 0x1 DUP3 AND DUP1 PUSH2 0x2D1B JUMPI PUSH1 0x7F DUP3 AND SWAP2 POP JUMPDEST PUSH1 0x20 DUP3 LT DUP2 EQ ISZERO PUSH2 0x2D2F JUMPI PUSH2 0x2D2E PUSH2 0x2DF3 JUMP JUMPDEST JUMPDEST POP SWAP2 SWAP1 POP JUMP JUMPDEST PUSH2 0x2D3E DUP3 PUSH2 0x2E9E JUMP JUMPDEST DUP2 ADD DUP2 DUP2 LT PUSH8 0xFFFFFFFFFFFFFFFF DUP3 GT OR ISZERO PUSH2 0x2D5D JUMPI PUSH2 0x2D5C PUSH2 0x2E51 JUMP JUMPDEST JUMPDEST DUP1 PUSH1 0x40 MSTORE POP POP POP JUMP JUMPDEST PUSH32 0x4E487B7100000000000000000000000000000000000000000000000000000000 PUSH1 0x0 MSTORE PUSH1 0x11 PUSH1 0x4 MSTORE PUSH1 0x24 PUSH1 0x0 REVERT JUMPDEST PUSH32 0x4E487B7100000000000000000000000000000000000000000000000000000000 PUSH1 0x0 MSTORE PUSH1 0x12 PUSH1 0x4 MSTORE PUSH1 0x24 PUSH1 0x0 REVERT JUMPDEST PUSH32 0x4E487B7100000000000000000000000000000000000000000000000000000000 PUSH1 0x0 MSTORE PUSH1 0x21 PUSH1 0x4 MSTORE PUSH1 0x24 PUSH1 0x0 REVERT JUMPDEST PUSH32 0x4E487B7100000000000000000000000000000000000000000000000000000000 PUSH1 0x0 MSTORE PUSH1 0x22 PUSH1 0x4 MSTORE PUSH1 0x24 PUSH1 0x0 REVERT JUMPDEST PUSH32 0x4E487B7100000000000000000000000000000000000000000000000000000000 PUSH1 0x0 MSTORE PUSH1 0x32 PUSH1 0x4 MSTORE PUSH1 0x24 PUSH1 0x0 REVERT JUMPDEST PUSH32 0x4E487B7100000000000000000000000000000000000000000000000000000000 PUSH1 0x0 MSTORE PUSH1 0x41 PUSH1 0x4 MSTORE PUSH1 0x24 PUSH1 0x0 REVERT JUMPDEST PUSH1 0x0 DUP1 REVERT JUMPDEST PUSH1 0x0 DUP1 REVERT JUMPDEST PUSH1 0x0 DUP1 REVERT JUMPDEST PUSH1 0x0 DUP1 REVERT JUMPDEST PUSH1 0x0 DUP1 REVERT JUMPDEST PUSH1 0x0 DUP1 REVERT JUMPDEST PUSH1 0x0 PUSH1 0x1F NOT PUSH1 0x1F DUP4 ADD AND SWAP1 POP SWAP2 SWAP1 POP JUMP JUMPDEST PUSH32 0x63616C6C6572206973206E6F742061206469737472696275746F722E00000000 PUSH1 0x0 DUP3 ADD MSTORE POP JUMP JUMPDEST PUSH32 0x63616C6C6572206973206E6F7420612070726F64756365722E00000000000000 PUSH1 0x0 DUP3 ADD MSTORE POP JUMP JUMPDEST PUSH32 0x63616C6C6572206973206E6F742074686520746F6B656E206F776E65722E0000 PUSH1 0x0 DUP3 ADD MSTORE POP JUMP JUMPDEST PUSH1 0x5 DUP2 LT PUSH2 0x2F3B JUMPI PUSH2 0x2F3A PUSH2 0x2DC4 JUMP JUMPDEST JUMPDEST POP JUMP JUMPDEST PUSH1 0x6 DUP2 LT PUSH2 0x2F4F JUMPI PUSH2 0x2F4E PUSH2 0x2DC4 JUMP JUMPDEST JUMPDEST POP JUMP JUMPDEST PUSH2 0x2F5B DUP2 PUSH2 0x2C1D JUMP JUMPDEST DUP2 EQ PUSH2 0x2F66 JUMPI PUSH1 0x0 DUP1 REVERT JUMPDEST POP JUMP JUMPDEST PUSH1 0x5 DUP2 LT PUSH2 0x2F76 JUMPI PUSH1 0x0 DUP1 REVERT JUMPDEST POP JUMP JUMPDEST PUSH2 0x2F82 DUP2 PUSH2 0x2C93 JUMP JUMPDEST DUP2 EQ PUSH2 0x2F8D JUMPI PUSH1 0x0 DUP1 REVERT JUMPDEST POP JUMP INVALID LOG2 PUSH5 0x6970667358 0x22 SLT KECCAK256 PUSH7 0xF39B78C6917A40 0xB4 LOG1 PUSH11 0x337956A4D35C570D080D53 0xD6 SLOAD 0xEE 0xB0 DUP14 0xED 0xD4 0xAA 0xAA SIGNEXTEND PUSH5 0x736F6C6343 STOP ADDMOD SMOD STOP CALLER "
				},
				"gasEstimates": {
					"creation": {
						"codeDepositCost": "2446000",
						"executionCost": "infinite",
						"totalCost": "infinite"
					},
					"external": {
						"burn(address,uint256)": "infinite",
						"buyProduct(uint256,uint256)": "infinite",
						"buyToken()": "infinite",
						"etherBalance(address)": "3323",
						"getActorInfo(address)": "infinite",
						"getProductDetails(uint256)": "infinite",
						"getProductInfo(uint256)": "infinite",
						"mint(uint256)": "infinite",
						"name()": "infinite",
						"orderProduct(uint256,(string,string,string,string,string,string,string))": "infinite",
						"produceProduct(uint256,uint256,uint256,string,string,string,string,string,string,string)": "infinite",
						"register(address,uint8,string)": "infinite",
						"symbol()": "infinite",
						"tokenBalance(address)": "2929",
						"tokenOwner()": "2603",
						"tokenTransfer(address,uint256)": "infinite"
					}
				},
				"methodIdentifiers": {
					"burn(address,uint256)": "9dc29fac",
					"buyProduct(uint256,uint256)": "53b62866",
					"buyToken()": "a4821719",
					"etherBalance(address)": "cd0c5896",
					"getActorInfo(address)": "b292abf1",
					"getProductDetails(uint256)": "6813b53b",
					"getProductInfo(uint256)": "79a85e6c",
					"mint(uint256)": "a0712d68",
					"name()": "06fdde03",
					"orderProduct(uint256,(string,string,string,string,string,string,string))": "2bd5889f",
					"produceProduct(uint256,uint256,uint256,string,string,string,string,string,string,string)": "561e0e98",
					"register(address,uint8,string)": "40932fc2",
					"symbol()": "95d89b41",
					"tokenBalance(address)": "eedc966a",
					"tokenOwner()": "a3e67610",
					"tokenTransfer(address,uint256)": "68cdafe6"
				}
			},
			"storageLayout": {
				"storage": [
					{
						"astId": 3,
						"contract": "contracts/4_Product.sol:ProductSC",
						"label": "name",
						"offset": 0,
						"slot": "0",
						"type": "t_string_storage"
					},
					{
						"astId": 5,
						"contract": "contracts/4_Product.sol:ProductSC",
						"label": "symbol",
						"offset": 0,
						"slot": "1",
						"type": "t_string_storage"
					},
					{
						"astId": 7,
						"contract": "contracts/4_Product.sol:ProductSC",
						"label": "tokenOwner",
						"offset": 0,
						"slot": "2",
						"type": "t_address_payable"
					},
					{
						"astId": 15,
						"contract": "contracts/4_Product.sol:ProductSC",
						"label": "_totalSupply",
						"offset": 0,
						"slot": "3",
						"type": "t_uint256"
					},
					{
						"astId": 80,
						"contract": "contracts/4_Product.sol:ProductSC",
						"label": "balances",
						"offset": 0,
						"slot": "4",
						"type": "t_mapping(t_address,t_uint256)"
					},
					{
						"astId": 85,
						"contract": "contracts/4_Product.sol:ProductSC",
						"label": "actors",
						"offset": 0,
						"slot": "5",
						"type": "t_mapping(t_address,t_struct(Actor)61_storage)"
					},
					{
						"astId": 90,
						"contract": "contracts/4_Product.sol:ProductSC",
						"label": "product",
						"offset": 0,
						"slot": "6",
						"type": "t_mapping(t_uint256,t_struct(Product)53_storage)"
					}
				],
				"types": {
					"t_address": {
						"encoding": "inplace",
						"label": "address",
						"numberOfBytes": "20"
					},
					"t_address_payable": {
						"encoding": "inplace",
						"label": "address payable",
						"numberOfBytes": "20"
					},
					"t_array(t_uint256)6_storage": {
						"base": "t_uint256",
						"encoding": "inplace",
						"label": "uint256[6]",
						"numberOfBytes": "192"
					},
					"t_bool": {
						"encoding": "inplace",
						"label": "bool",
						"numberOfBytes": "1"
					},
					"t_enum(Role)28": {
						"encoding": "inplace",
						"label": "enum ProductSC.Role",
						"numberOfBytes": "1"
					},
					"t_enum(State)22": {
						"encoding": "inplace",
						"label": "enum ProductSC.State",
						"numberOfBytes": "1"
					},
					"t_mapping(t_address,t_struct(Actor)61_storage)": {
						"encoding": "mapping",
						"key": "t_address",
						"label": "mapping(address => struct ProductSC.Actor)",
						"numberOfBytes": "32",
						"value": "t_struct(Actor)61_storage"
					},
					"t_mapping(t_address,t_uint256)": {
						"encoding": "mapping",
						"key": "t_address",
						"label": "mapping(address => uint256)",
						"numberOfBytes": "32",
						"value": "t_uint256"
					},
					"t_mapping(t_uint256,t_struct(Product)53_storage)": {
						"encoding": "mapping",
						"key": "t_uint256",
						"label": "mapping(uint256 => struct ProductSC.Product)",
						"numberOfBytes": "32",
						"value": "t_struct(Product)53_storage"
					},
					"t_string_storage": {
						"encoding": "bytes",
						"label": "string",
						"numberOfBytes": "32"
					},
					"t_struct(Actor)61_storage": {
						"encoding": "inplace",
						"label": "struct ProductSC.Actor",
						"members": [
							{
								"astId": 56,
								"contract": "contracts/4_Product.sol:ProductSC",
								"label": "role",
								"offset": 0,
								"slot": "0",
								"type": "t_enum(Role)28"
							},
							{
								"astId": 58,
								"contract": "contracts/4_Product.sol:ProductSC",
								"label": "name",
								"offset": 0,
								"slot": "1",
								"type": "t_string_storage"
							},
							{
								"astId": 60,
								"contract": "contracts/4_Product.sol:ProductSC",
								"label": "isDefined",
								"offset": 0,
								"slot": "2",
								"type": "t_bool"
							}
						],
						"numberOfBytes": "96"
					},
					"t_struct(Details)76_storage": {
						"encoding": "inplace",
						"label": "struct ProductSC.Details",
						"members": [
							{
								"astId": 63,
								"contract": "contracts/4_Product.sol:ProductSC",
								"label": "name",
								"offset": 0,
								"slot": "0",
								"type": "t_string_storage"
							},
							{
								"astId": 65,
								"contract": "contracts/4_Product.sol:ProductSC",
								"label": "brand",
								"offset": 0,
								"slot": "1",
								"type": "t_string_storage"
							},
							{
								"astId": 67,
								"contract": "contracts/4_Product.sol:ProductSC",
								"label": "size",
								"offset": 0,
								"slot": "2",
								"type": "t_string_storage"
							},
							{
								"astId": 69,
								"contract": "contracts/4_Product.sol:ProductSC",
								"label": "weight",
								"offset": 0,
								"slot": "3",
								"type": "t_string_storage"
							},
							{
								"astId": 71,
								"contract": "contracts/4_Product.sol:ProductSC",
								"label": "length",
								"offset": 0,
								"slot": "4",
								"type": "t_string_storage"
							},
							{
								"astId": 73,
								"contract": "contracts/4_Product.sol:ProductSC",
								"label": "width",
								"offset": 0,
								"slot": "5",
								"type": "t_string_storage"
							},
							{
								"astId": 75,
								"contract": "contracts/4_Product.sol:ProductSC",
								"label": "height",
								"offset": 0,
								"slot": "6",
								"type": "t_string_storage"
							}
						],
						"numberOfBytes": "224"
					},
					"t_struct(Product)53_storage": {
						"encoding": "inplace",
						"label": "struct ProductSC.Product",
						"members": [
							{
								"astId": 30,
								"contract": "contracts/4_Product.sol:ProductSC",
								"label": "ID",
								"offset": 0,
								"slot": "0",
								"type": "t_uint256"
							},
							{
								"astId": 32,
								"contract": "contracts/4_Product.sol:ProductSC",
								"label": "ownerID",
								"offset": 0,
								"slot": "1",
								"type": "t_address"
							},
							{
								"astId": 34,
								"contract": "contracts/4_Product.sol:ProductSC",
								"label": "producerID",
								"offset": 0,
								"slot": "2",
								"type": "t_address"
							},
							{
								"astId": 38,
								"contract": "contracts/4_Product.sol:ProductSC",
								"label": "timestamp",
								"offset": 0,
								"slot": "3",
								"type": "t_array(t_uint256)6_storage"
							},
							{
								"astId": 41,
								"contract": "contracts/4_Product.sol:ProductSC",
								"label": "productState",
								"offset": 0,
								"slot": "9",
								"type": "t_enum(State)22"
							},
							{
								"astId": 43,
								"contract": "contracts/4_Product.sol:ProductSC",
								"label": "productPrice",
								"offset": 0,
								"slot": "10",
								"type": "t_uint256"
							},
							{
								"astId": 45,
								"contract": "contracts/4_Product.sol:ProductSC",
								"label": "distributorID",
								"offset": 0,
								"slot": "11",
								"type": "t_address"
							},
							{
								"astId": 47,
								"contract": "contracts/4_Product.sol:ProductSC",
								"label": "retailerID",
								"offset": 0,
								"slot": "12",
								"type": "t_address"
							},
							{
								"astId": 49,
								"contract": "contracts/4_Product.sol:ProductSC",
								"label": "consumerID",
								"offset": 0,
								"slot": "13",
								"type": "t_address"
							},
							{
								"astId": 52,
								"contract": "contracts/4_Product.sol:ProductSC",
								"label": "details",
								"offset": 0,
								"slot": "14",
								"type": "t_struct(Details)76_storage"
							}
						],
						"numberOfBytes": "672"
					},
					"t_uint256": {
						"encoding": "inplace",
						"label": "uint256",
						"numberOfBytes": "32"
					}
				}
			},
			"userdoc": {
				"kind": "user",
				"methods": {},
				"version": 1
			}
		}
	}
}