{
	"contracts/4_Product.sol": {
		"ProductSC": {
			"abi": [
				{
					"inputs": [
						{
							"internalType": "string",
							"name": "_name",
							"type": "string"
						},
						{
							"internalType": "string",
							"name": "_symbol",
							"type": "string"
						},
						{
							"internalType": "uint256",
							"name": "_initialSupply",
							"type": "uint256"
						}
					],
					"stateMutability": "nonpayable",
					"type": "constructor"
				},
				{
					"inputs": [
						{
							"internalType": "address",
							"name": "_account",
							"type": "address"
						},
						{
							"internalType": "uint256",
							"name": "_amount",
							"type": "uint256"
						}
					],
					"name": "burn",
					"outputs": [],
					"stateMutability": "nonpayable",
					"type": "function"
				},
				{
					"inputs": [
						{
							"internalType": "uint256",
							"name": "_id",
							"type": "uint256"
						},
						{
							"internalType": "uint256",
							"name": "_timestamp",
							"type": "uint256"
						},
						{
							"internalType": "string",
							"name": "_lat",
							"type": "string"
						},
						{
							"internalType": "string",
							"name": "_log",
							"type": "string"
						},
						{
							"internalType": "int256",
							"name": "_temp",
							"type": "int256"
						}
					],
					"name": "buyProduct",
					"outputs": [],
					"stateMutability": "nonpayable",
					"type": "function"
				},
				{
					"inputs": [],
					"name": "buyToken",
					"outputs": [],
					"stateMutability": "payable",
					"type": "function"
				},
				{
					"inputs": [
						{
							"internalType": "address",
							"name": "_addr",
							"type": "address"
						}
					],
					"name": "etherBalance",
					"outputs": [
						{
							"internalType": "uint256",
							"name": "",
							"type": "uint256"
						}
					],
					"stateMutability": "view",
					"type": "function"
				},
				{
					"inputs": [
						{
							"internalType": "address",
							"name": "_addr",
							"type": "address"
						}
					],
					"name": "getActorInfo",
					"outputs": [
						{
							"internalType": "enum ProductSC.Role",
							"name": "_role",
							"type": "uint8"
						},
						{
							"internalType": "string",
							"name": "_name",
							"type": "string"
						}
					],
					"stateMutability": "view",
					"type": "function"
				},
				{
					"inputs": [
						{
							"internalType": "uint256",
							"name": "_id",
							"type": "uint256"
						},
						{
							"internalType": "uint256",
							"name": "_timestamp",
							"type": "uint256"
						}
					],
					"name": "getProductInfo",
					"outputs": [
						{
							"internalType": "uint256",
							"name": "fish_id",
							"type": "uint256"
						},
						{
							"internalType": "address",
							"name": "fisher_id",
							"type": "address"
						},
						{
							"internalType": "address",
							"name": "owner_id",
							"type": "address"
						},
						{
							"internalType": "string",
							"name": "fish_origin",
							"type": "string"
						},
						{
							"internalType": "string",
							"name": "lat",
							"type": "string"
						},
						{
							"internalType": "string",
							"name": "log",
							"type": "string"
						},
						{
							"internalType": "bool",
							"name": "quality",
							"type": "bool"
						},
						{
							"internalType": "enum ProductSC.State",
							"name": "currentState",
							"type": "uint8"
						}
					],
					"stateMutability": "view",
					"type": "function"
				},
				{
					"inputs": [
						{
							"internalType": "uint256",
							"name": "_amount",
							"type": "uint256"
						}
					],
					"name": "mint",
					"outputs": [],
					"stateMutability": "nonpayable",
					"type": "function"
				},
				{
					"inputs": [],
					"name": "name",
					"outputs": [
						{
							"internalType": "string",
							"name": "",
							"type": "string"
						}
					],
					"stateMutability": "view",
					"type": "function"
				},
				{
					"inputs": [
						{
							"internalType": "uint256",
							"name": "_id",
							"type": "uint256"
						},
						{
							"internalType": "uint256",
							"name": "_timestamp",
							"type": "uint256"
						},
						{
							"internalType": "uint256",
							"name": "_price",
							"type": "uint256"
						},
						{
							"internalType": "string",
							"name": "_name",
							"type": "string"
						},
						{
							"internalType": "string",
							"name": "_brand",
							"type": "string"
						},
						{
							"internalType": "string",
							"name": "_size",
							"type": "string"
						},
						{
							"internalType": "string",
							"name": "_weight",
							"type": "string"
						},
						{
							"internalType": "string",
							"name": "_length",
							"type": "string"
						},
						{
							"internalType": "string",
							"name": "_width",
							"type": "string"
						},
						{
							"internalType": "string",
							"name": "_height",
							"type": "string"
						}
					],
					"name": "produceProduct",
					"outputs": [],
					"stateMutability": "nonpayable",
					"type": "function"
				},
				{
					"inputs": [
						{
							"internalType": "address",
							"name": "_addr",
							"type": "address"
						},
						{
							"internalType": "enum ProductSC.Role",
							"name": "_role",
							"type": "uint8"
						},
						{
							"internalType": "string",
							"name": "_name",
							"type": "string"
						}
					],
					"name": "register",
					"outputs": [],
					"stateMutability": "nonpayable",
					"type": "function"
				},
				{
					"inputs": [],
					"name": "symbol",
					"outputs": [
						{
							"internalType": "string",
							"name": "",
							"type": "string"
						}
					],
					"stateMutability": "view",
					"type": "function"
				},
				{
					"inputs": [
						{
							"internalType": "address",
							"name": "_addr",
							"type": "address"
						}
					],
					"name": "tokenBalance",
					"outputs": [
						{
							"internalType": "uint256",
							"name": "",
							"type": "uint256"
						}
					],
					"stateMutability": "view",
					"type": "function"
				},
				{
					"inputs": [],
					"name": "tokenOwner",
					"outputs": [
						{
							"internalType": "address payable",
							"name": "",
							"type": "address"
						}
					],
					"stateMutability": "view",
					"type": "function"
				},
				{
					"inputs": [
						{
							"internalType": "address",
							"name": "_to",
							"type": "address"
						},
						{
							"internalType": "uint256",
							"name": "_amount",
							"type": "uint256"
						}
					],
					"name": "tokenTransfer",
					"outputs": [
						{
							"internalType": "bool",
							"name": "",
							"type": "bool"
						}
					],
					"stateMutability": "nonpayable",
					"type": "function"
				}
			],
			"devdoc": {
				"kind": "dev",
				"methods": {},
				"version": 1
			},
			"evm": {
				"assembly": "    /* \"contracts/4_Product.sol\":35:9780  contract ProductSC {\r... */\n  mstore(0x40, 0x80)\n    /* \"contracts/4_Product.sol\":2204:2584  constructor (string memory _name, string memory _symbol, uint256 _initialSupply) {\r... */\n  callvalue\n  dup1\n  iszero\n  tag_1\n  jumpi\n  0x00\n  dup1\n  revert\ntag_1:\n  pop\n  mload(0x40)\n  sub(codesize, bytecodeSize)\n  dup1\n  bytecodeSize\n  dup4\n  codecopy\n  dup2\n  dup2\n  add\n  0x40\n  mstore\n  dup2\n  add\n  swap1\n  tag_2\n  swap2\n  swap1\n  tag_3\n  jump\t// in\ntag_2:\n    /* \"contracts/4_Product.sol\":2303:2308  _name */\n  dup3\n    /* \"contracts/4_Product.sol\":2296:2300  name */\n  0x00\n    /* \"contracts/4_Product.sol\":2296:2308  name = _name */\n  swap1\n  dup1\n  mload\n  swap1\n  0x20\n  add\n  swap1\n  tag_6\n  swap3\n  swap2\n  swap1\n  tag_7\n  jump\t// in\ntag_6:\n  pop\n    /* \"contracts/4_Product.sol\":2328:2335  _symbol */\n  dup2\n    /* \"contracts/4_Product.sol\":2319:2325  symbol */\n  0x01\n    /* \"contracts/4_Product.sol\":2319:2335  symbol = _symbol */\n  swap1\n  dup1\n  mload\n  swap1\n  0x20\n  add\n  swap1\n  tag_8\n  swap3\n  swap2\n  swap1\n  tag_7\n  jump\t// in\ntag_8:\n  pop\n    /* \"contracts/4_Product.sol\":2361:2375  _initialSupply */\n  dup1\n    /* \"contracts/4_Product.sol\":2346:2358  _totalSupply */\n  0x03\n    /* \"contracts/4_Product.sol\":2346:2375  _totalSupply = _initialSupply */\n  dup2\n  swap1\n  sstore\n  pop\n    /* \"contracts/4_Product.sol\":2407:2417  msg.sender */\n  caller\n    /* \"contracts/4_Product.sol\":2386:2396  tokenOwner */\n  0x02\n  0x00\n    /* \"contracts/4_Product.sol\":2386:2418  tokenOwner = payable(msg.sender) */\n  0x0100\n  exp\n  dup2\n  sload\n  dup2\n  0xffffffffffffffffffffffffffffffffffffffff\n  mul\n  not\n  and\n  swap1\n  dup4\n  0xffffffffffffffffffffffffffffffffffffffff\n  and\n  mul\n  or\n  swap1\n  sstore\n  pop\n    /* \"contracts/4_Product.sol\":2495:2509  _initialSupply */\n  dup1\n    /* \"contracts/4_Product.sol\":2472:2480  balances */\n  0x04\n    /* \"contracts/4_Product.sol\":2472:2492  balances[msg.sender] */\n  0x00\n    /* \"contracts/4_Product.sol\":2481:2491  msg.sender */\n  caller\n    /* \"contracts/4_Product.sol\":2472:2492  balances[msg.sender] */\n  0xffffffffffffffffffffffffffffffffffffffff\n  and\n  0xffffffffffffffffffffffffffffffffffffffff\n  and\n  dup2\n  mstore\n  0x20\n  add\n  swap1\n  dup2\n  mstore\n  0x20\n  add\n  0x00\n  keccak256\n    /* \"contracts/4_Product.sol\":2472:2509  balances[msg.sender] = _initialSupply */\n  dup2\n  swap1\n  sstore\n  pop\n    /* \"contracts/4_Product.sol\":2204:2584  constructor (string memory _name, string memory _symbol, uint256 _initialSupply) {\r... */\n  pop\n  pop\n  pop\n    /* \"contracts/4_Product.sol\":35:9780  contract ProductSC {\r... */\n  jump(tag_9)\ntag_7:\n  dup3\n  dup1\n  sload\n  tag_10\n  swap1\n  tag_11\n  jump\t// in\ntag_10:\n  swap1\n  0x00\n  mstore\n  keccak256(0x00, 0x20)\n  swap1\n  0x1f\n  add\n  0x20\n  swap1\n  div\n  dup2\n  add\n  swap3\n  dup3\n  tag_13\n  jumpi\n  0x00\n  dup6\n  sstore\n  jump(tag_12)\ntag_13:\n  dup3\n  0x1f\n  lt\n  tag_14\n  jumpi\n  dup1\n  mload\n  not(0xff)\n  and\n  dup4\n  dup1\n  add\n  or\n  dup6\n  sstore\n  jump(tag_12)\ntag_14:\n  dup3\n  dup1\n  add\n  0x01\n  add\n  dup6\n  sstore\n  dup3\n  iszero\n  tag_12\n  jumpi\n  swap2\n  dup3\n  add\ntag_15:\n  dup3\n  dup2\n  gt\n  iszero\n  tag_16\n  jumpi\n  dup3\n  mload\n  dup3\n  sstore\n  swap2\n  0x20\n  add\n  swap2\n  swap1\n  0x01\n  add\n  swap1\n  jump(tag_15)\ntag_16:\ntag_12:\n  pop\n  swap1\n  pop\n  tag_17\n  swap2\n  swap1\n  tag_18\n  jump\t// in\ntag_17:\n  pop\n  swap1\n  jump\t// out\ntag_18:\ntag_19:\n  dup1\n  dup3\n  gt\n  iszero\n  tag_20\n  jumpi\n  0x00\n  dup2\n  0x00\n  swap1\n  sstore\n  pop\n  0x01\n  add\n  jump(tag_19)\ntag_20:\n  pop\n  swap1\n  jump\t// out\n    /* \"#utility.yul\":7:428   */\ntag_22:\n    /* \"#utility.yul\":96:101   */\n  0x00\n    /* \"#utility.yul\":121:187   */\n  tag_24\n    /* \"#utility.yul\":137:186   */\n  tag_25\n    /* \"#utility.yul\":179:185   */\n  dup5\n    /* \"#utility.yul\":137:186   */\n  tag_26\n  jump\t// in\ntag_25:\n    /* \"#utility.yul\":121:187   */\n  tag_27\n  jump\t// in\ntag_24:\n    /* \"#utility.yul\":112:187   */\n  swap1\n  pop\n    /* \"#utility.yul\":210:216   */\n  dup3\n    /* \"#utility.yul\":203:208   */\n  dup2\n    /* \"#utility.yul\":196:217   */\n  mstore\n    /* \"#utility.yul\":248:252   */\n  0x20\n    /* \"#utility.yul\":241:246   */\n  dup2\n    /* \"#utility.yul\":237:253   */\n  add\n    /* \"#utility.yul\":286:289   */\n  dup5\n    /* \"#utility.yul\":277:283   */\n  dup5\n    /* \"#utility.yul\":272:275   */\n  dup5\n    /* \"#utility.yul\":268:284   */\n  add\n    /* \"#utility.yul\":265:290   */\n  gt\n    /* \"#utility.yul\":262:374   */\n  iszero\n  tag_28\n  jumpi\n    /* \"#utility.yul\":293:372   */\n  tag_29\n  tag_30\n  jump\t// in\ntag_29:\n    /* \"#utility.yul\":262:374   */\ntag_28:\n    /* \"#utility.yul\":383:422   */\n  tag_31\n    /* \"#utility.yul\":415:421   */\n  dup5\n    /* \"#utility.yul\":410:413   */\n  dup3\n    /* \"#utility.yul\":405:408   */\n  dup6\n    /* \"#utility.yul\":383:422   */\n  tag_32\n  jump\t// in\ntag_31:\n    /* \"#utility.yul\":102:428   */\n  pop\n    /* \"#utility.yul\":7:428   */\n  swap4\n  swap3\n  pop\n  pop\n  pop\n  jump\t// out\n    /* \"#utility.yul\":448:803   */\ntag_33:\n    /* \"#utility.yul\":515:520   */\n  0x00\n    /* \"#utility.yul\":564:567   */\n  dup3\n    /* \"#utility.yul\":557:561   */\n  0x1f\n    /* \"#utility.yul\":549:555   */\n  dup4\n    /* \"#utility.yul\":545:562   */\n  add\n    /* \"#utility.yul\":541:568   */\n  slt\n    /* \"#utility.yul\":531:653   */\n  tag_35\n  jumpi\n    /* \"#utility.yul\":572:651   */\n  tag_36\n  tag_37\n  jump\t// in\ntag_36:\n    /* \"#utility.yul\":531:653   */\ntag_35:\n    /* \"#utility.yul\":682:688   */\n  dup2\n    /* \"#utility.yul\":676:689   */\n  mload\n    /* \"#utility.yul\":707:797   */\n  tag_38\n    /* \"#utility.yul\":793:796   */\n  dup5\n    /* \"#utility.yul\":785:791   */\n  dup3\n    /* \"#utility.yul\":778:782   */\n  0x20\n    /* \"#utility.yul\":770:776   */\n  dup7\n    /* \"#utility.yul\":766:783   */\n  add\n    /* \"#utility.yul\":707:797   */\n  tag_22\n  jump\t// in\ntag_38:\n    /* \"#utility.yul\":698:797   */\n  swap2\n  pop\n    /* \"#utility.yul\":521:803   */\n  pop\n    /* \"#utility.yul\":448:803   */\n  swap3\n  swap2\n  pop\n  pop\n  jump\t// out\n    /* \"#utility.yul\":809:952   */\ntag_39:\n    /* \"#utility.yul\":866:871   */\n  0x00\n    /* \"#utility.yul\":897:903   */\n  dup2\n    /* \"#utility.yul\":891:904   */\n  mload\n    /* \"#utility.yul\":882:904   */\n  swap1\n  pop\n    /* \"#utility.yul\":913:946   */\n  tag_41\n    /* \"#utility.yul\":940:945   */\n  dup2\n    /* \"#utility.yul\":913:946   */\n  tag_42\n  jump\t// in\ntag_41:\n    /* \"#utility.yul\":809:952   */\n  swap3\n  swap2\n  pop\n  pop\n  jump\t// out\n    /* \"#utility.yul\":958:1967   */\ntag_3:\n    /* \"#utility.yul\":1066:1072   */\n  0x00\n    /* \"#utility.yul\":1074:1080   */\n  dup1\n    /* \"#utility.yul\":1082:1088   */\n  0x00\n    /* \"#utility.yul\":1131:1133   */\n  0x60\n    /* \"#utility.yul\":1119:1128   */\n  dup5\n    /* \"#utility.yul\":1110:1117   */\n  dup7\n    /* \"#utility.yul\":1106:1129   */\n  sub\n    /* \"#utility.yul\":1102:1134   */\n  slt\n    /* \"#utility.yul\":1099:1218   */\n  iszero\n  tag_44\n  jumpi\n    /* \"#utility.yul\":1137:1216   */\n  tag_45\n  tag_46\n  jump\t// in\ntag_45:\n    /* \"#utility.yul\":1099:1218   */\ntag_44:\n    /* \"#utility.yul\":1278:1279   */\n  0x00\n    /* \"#utility.yul\":1267:1276   */\n  dup5\n    /* \"#utility.yul\":1263:1280   */\n  add\n    /* \"#utility.yul\":1257:1281   */\n  mload\n    /* \"#utility.yul\":1308:1326   */\n  0xffffffffffffffff\n    /* \"#utility.yul\":1300:1306   */\n  dup2\n    /* \"#utility.yul\":1297:1327   */\n  gt\n    /* \"#utility.yul\":1294:1411   */\n  iszero\n  tag_47\n  jumpi\n    /* \"#utility.yul\":1330:1409   */\n  tag_48\n  tag_49\n  jump\t// in\ntag_48:\n    /* \"#utility.yul\":1294:1411   */\ntag_47:\n    /* \"#utility.yul\":1435:1509   */\n  tag_50\n    /* \"#utility.yul\":1501:1508   */\n  dup7\n    /* \"#utility.yul\":1492:1498   */\n  dup3\n    /* \"#utility.yul\":1481:1490   */\n  dup8\n    /* \"#utility.yul\":1477:1499   */\n  add\n    /* \"#utility.yul\":1435:1509   */\n  tag_33\n  jump\t// in\ntag_50:\n    /* \"#utility.yul\":1425:1509   */\n  swap4\n  pop\n    /* \"#utility.yul\":1228:1519   */\n  pop\n    /* \"#utility.yul\":1579:1581   */\n  0x20\n    /* \"#utility.yul\":1568:1577   */\n  dup5\n    /* \"#utility.yul\":1564:1582   */\n  add\n    /* \"#utility.yul\":1558:1583   */\n  mload\n    /* \"#utility.yul\":1610:1628   */\n  0xffffffffffffffff\n    /* \"#utility.yul\":1602:1608   */\n  dup2\n    /* \"#utility.yul\":1599:1629   */\n  gt\n    /* \"#utility.yul\":1596:1713   */\n  iszero\n  tag_51\n  jumpi\n    /* \"#utility.yul\":1632:1711   */\n  tag_52\n  tag_49\n  jump\t// in\ntag_52:\n    /* \"#utility.yul\":1596:1713   */\ntag_51:\n    /* \"#utility.yul\":1737:1811   */\n  tag_53\n    /* \"#utility.yul\":1803:1810   */\n  dup7\n    /* \"#utility.yul\":1794:1800   */\n  dup3\n    /* \"#utility.yul\":1783:1792   */\n  dup8\n    /* \"#utility.yul\":1779:1801   */\n  add\n    /* \"#utility.yul\":1737:1811   */\n  tag_33\n  jump\t// in\ntag_53:\n    /* \"#utility.yul\":1727:1811   */\n  swap3\n  pop\n    /* \"#utility.yul\":1529:1821   */\n  pop\n    /* \"#utility.yul\":1860:1862   */\n  0x40\n    /* \"#utility.yul\":1886:1950   */\n  tag_54\n    /* \"#utility.yul\":1942:1949   */\n  dup7\n    /* \"#utility.yul\":1933:1939   */\n  dup3\n    /* \"#utility.yul\":1922:1931   */\n  dup8\n    /* \"#utility.yul\":1918:1940   */\n  add\n    /* \"#utility.yul\":1886:1950   */\n  tag_39\n  jump\t// in\ntag_54:\n    /* \"#utility.yul\":1876:1950   */\n  swap2\n  pop\n    /* \"#utility.yul\":1831:1960   */\n  pop\n    /* \"#utility.yul\":958:1967   */\n  swap3\n  pop\n  swap3\n  pop\n  swap3\n  jump\t// out\n    /* \"#utility.yul\":1973:2102   */\ntag_27:\n    /* \"#utility.yul\":2007:2013   */\n  0x00\n    /* \"#utility.yul\":2034:2054   */\n  tag_56\n  tag_57\n  jump\t// in\ntag_56:\n    /* \"#utility.yul\":2024:2054   */\n  swap1\n  pop\n    /* \"#utility.yul\":2063:2096   */\n  tag_58\n    /* \"#utility.yul\":2091:2095   */\n  dup3\n    /* \"#utility.yul\":2083:2089   */\n  dup3\n    /* \"#utility.yul\":2063:2096   */\n  tag_59\n  jump\t// in\ntag_58:\n    /* \"#utility.yul\":1973:2102   */\n  swap2\n  swap1\n  pop\n  jump\t// out\n    /* \"#utility.yul\":2108:2183   */\ntag_57:\n    /* \"#utility.yul\":2141:2147   */\n  0x00\n    /* \"#utility.yul\":2174:2176   */\n  0x40\n    /* \"#utility.yul\":2168:2177   */\n  mload\n    /* \"#utility.yul\":2158:2177   */\n  swap1\n  pop\n    /* \"#utility.yul\":2108:2183   */\n  swap1\n  jump\t// out\n    /* \"#utility.yul\":2189:2497   */\ntag_26:\n    /* \"#utility.yul\":2251:2255   */\n  0x00\n    /* \"#utility.yul\":2341:2359   */\n  0xffffffffffffffff\n    /* \"#utility.yul\":2333:2339   */\n  dup3\n    /* \"#utility.yul\":2330:2360   */\n  gt\n    /* \"#utility.yul\":2327:2383   */\n  iszero\n  tag_62\n  jumpi\n    /* \"#utility.yul\":2363:2381   */\n  tag_63\n  tag_64\n  jump\t// in\ntag_63:\n    /* \"#utility.yul\":2327:2383   */\ntag_62:\n    /* \"#utility.yul\":2401:2430   */\n  tag_65\n    /* \"#utility.yul\":2423:2429   */\n  dup3\n    /* \"#utility.yul\":2401:2430   */\n  tag_66\n  jump\t// in\ntag_65:\n    /* \"#utility.yul\":2393:2430   */\n  swap1\n  pop\n    /* \"#utility.yul\":2485:2489   */\n  0x20\n    /* \"#utility.yul\":2479:2483   */\n  dup2\n    /* \"#utility.yul\":2475:2490   */\n  add\n    /* \"#utility.yul\":2467:2490   */\n  swap1\n  pop\n    /* \"#utility.yul\":2189:2497   */\n  swap2\n  swap1\n  pop\n  jump\t// out\n    /* \"#utility.yul\":2503:2580   */\ntag_67:\n    /* \"#utility.yul\":2540:2547   */\n  0x00\n    /* \"#utility.yul\":2569:2574   */\n  dup2\n    /* \"#utility.yul\":2558:2574   */\n  swap1\n  pop\n    /* \"#utility.yul\":2503:2580   */\n  swap2\n  swap1\n  pop\n  jump\t// out\n    /* \"#utility.yul\":2586:2893   */\ntag_32:\n    /* \"#utility.yul\":2654:2655   */\n  0x00\n    /* \"#utility.yul\":2664:2777   */\ntag_70:\n    /* \"#utility.yul\":2678:2684   */\n  dup4\n    /* \"#utility.yul\":2675:2676   */\n  dup2\n    /* \"#utility.yul\":2672:2685   */\n  lt\n    /* \"#utility.yul\":2664:2777   */\n  iszero\n  tag_72\n  jumpi\n    /* \"#utility.yul\":2763:2764   */\n  dup1\n    /* \"#utility.yul\":2758:2761   */\n  dup3\n    /* \"#utility.yul\":2754:2765   */\n  add\n    /* \"#utility.yul\":2748:2766   */\n  mload\n    /* \"#utility.yul\":2744:2745   */\n  dup2\n    /* \"#utility.yul\":2739:2742   */\n  dup5\n    /* \"#utility.yul\":2735:2746   */\n  add\n    /* \"#utility.yul\":2728:2767   */\n  mstore\n    /* \"#utility.yul\":2700:2702   */\n  0x20\n    /* \"#utility.yul\":2697:2698   */\n  dup2\n    /* \"#utility.yul\":2693:2703   */\n  add\n    /* \"#utility.yul\":2688:2703   */\n  swap1\n  pop\n    /* \"#utility.yul\":2664:2777   */\n  jump(tag_70)\ntag_72:\n    /* \"#utility.yul\":2795:2801   */\n  dup4\n    /* \"#utility.yul\":2792:2793   */\n  dup2\n    /* \"#utility.yul\":2789:2802   */\n  gt\n    /* \"#utility.yul\":2786:2887   */\n  iszero\n  tag_73\n  jumpi\n    /* \"#utility.yul\":2875:2876   */\n  0x00\n    /* \"#utility.yul\":2866:2872   */\n  dup5\n    /* \"#utility.yul\":2861:2864   */\n  dup5\n    /* \"#utility.yul\":2857:2873   */\n  add\n    /* \"#utility.yul\":2850:2877   */\n  mstore\n    /* \"#utility.yul\":2786:2887   */\ntag_73:\n    /* \"#utility.yul\":2635:2893   */\n  pop\n    /* \"#utility.yul\":2586:2893   */\n  pop\n  pop\n  pop\n  jump\t// out\n    /* \"#utility.yul\":2899:3219   */\ntag_11:\n    /* \"#utility.yul\":2943:2949   */\n  0x00\n    /* \"#utility.yul\":2980:2981   */\n  0x02\n    /* \"#utility.yul\":2974:2978   */\n  dup3\n    /* \"#utility.yul\":2970:2982   */\n  div\n    /* \"#utility.yul\":2960:2982   */\n  swap1\n  pop\n    /* \"#utility.yul\":3027:3028   */\n  0x01\n    /* \"#utility.yul\":3021:3025   */\n  dup3\n    /* \"#utility.yul\":3017:3029   */\n  and\n    /* \"#utility.yul\":3048:3066   */\n  dup1\n    /* \"#utility.yul\":3038:3119   */\n  tag_75\n  jumpi\n    /* \"#utility.yul\":3104:3108   */\n  0x7f\n    /* \"#utility.yul\":3096:3102   */\n  dup3\n    /* \"#utility.yul\":3092:3109   */\n  and\n    /* \"#utility.yul\":3082:3109   */\n  swap2\n  pop\n    /* \"#utility.yul\":3038:3119   */\ntag_75:\n    /* \"#utility.yul\":3166:3168   */\n  0x20\n    /* \"#utility.yul\":3158:3164   */\n  dup3\n    /* \"#utility.yul\":3155:3169   */\n  lt\n    /* \"#utility.yul\":3135:3153   */\n  dup2\n    /* \"#utility.yul\":3132:3170   */\n  eq\n    /* \"#utility.yul\":3129:3213   */\n  iszero\n  tag_76\n  jumpi\n    /* \"#utility.yul\":3185:3203   */\n  tag_77\n  tag_78\n  jump\t// in\ntag_77:\n    /* \"#utility.yul\":3129:3213   */\ntag_76:\n    /* \"#utility.yul\":2950:3219   */\n  pop\n    /* \"#utility.yul\":2899:3219   */\n  swap2\n  swap1\n  pop\n  jump\t// out\n    /* \"#utility.yul\":3225:3506   */\ntag_59:\n    /* \"#utility.yul\":3308:3335   */\n  tag_80\n    /* \"#utility.yul\":3330:3334   */\n  dup3\n    /* \"#utility.yul\":3308:3335   */\n  tag_66\n  jump\t// in\ntag_80:\n    /* \"#utility.yul\":3300:3306   */\n  dup2\n    /* \"#utility.yul\":3296:3336   */\n  add\n    /* \"#utility.yul\":3438:3444   */\n  dup2\n    /* \"#utility.yul\":3426:3436   */\n  dup2\n    /* \"#utility.yul\":3423:3445   */\n  lt\n    /* \"#utility.yul\":3402:3420   */\n  0xffffffffffffffff\n    /* \"#utility.yul\":3390:3400   */\n  dup3\n    /* \"#utility.yul\":3387:3421   */\n  gt\n    /* \"#utility.yul\":3384:3446   */\n  or\n    /* \"#utility.yul\":3381:3469   */\n  iszero\n  tag_81\n  jumpi\n    /* \"#utility.yul\":3449:3467   */\n  tag_82\n  tag_64\n  jump\t// in\ntag_82:\n    /* \"#utility.yul\":3381:3469   */\ntag_81:\n    /* \"#utility.yul\":3489:3499   */\n  dup1\n    /* \"#utility.yul\":3485:3487   */\n  0x40\n    /* \"#utility.yul\":3478:3500   */\n  mstore\n    /* \"#utility.yul\":3268:3506   */\n  pop\n    /* \"#utility.yul\":3225:3506   */\n  pop\n  pop\n  jump\t// out\n    /* \"#utility.yul\":3512:3692   */\ntag_78:\n    /* \"#utility.yul\":3560:3637   */\n  0x4e487b7100000000000000000000000000000000000000000000000000000000\n    /* \"#utility.yul\":3557:3558   */\n  0x00\n    /* \"#utility.yul\":3550:3638   */\n  mstore\n    /* \"#utility.yul\":3657:3661   */\n  0x22\n    /* \"#utility.yul\":3654:3655   */\n  0x04\n    /* \"#utility.yul\":3647:3662   */\n  mstore\n    /* \"#utility.yul\":3681:3685   */\n  0x24\n    /* \"#utility.yul\":3678:3679   */\n  0x00\n    /* \"#utility.yul\":3671:3686   */\n  revert\n    /* \"#utility.yul\":3698:3878   */\ntag_64:\n    /* \"#utility.yul\":3746:3823   */\n  0x4e487b7100000000000000000000000000000000000000000000000000000000\n    /* \"#utility.yul\":3743:3744   */\n  0x00\n    /* \"#utility.yul\":3736:3824   */\n  mstore\n    /* \"#utility.yul\":3843:3847   */\n  0x41\n    /* \"#utility.yul\":3840:3841   */\n  0x04\n    /* \"#utility.yul\":3833:3848   */\n  mstore\n    /* \"#utility.yul\":3867:3871   */\n  0x24\n    /* \"#utility.yul\":3864:3865   */\n  0x00\n    /* \"#utility.yul\":3857:3872   */\n  revert\n    /* \"#utility.yul\":3884:4001   */\ntag_37:\n    /* \"#utility.yul\":3993:3994   */\n  0x00\n    /* \"#utility.yul\":3990:3991   */\n  dup1\n    /* \"#utility.yul\":3983:3995   */\n  revert\n    /* \"#utility.yul\":4007:4124   */\ntag_30:\n    /* \"#utility.yul\":4116:4117   */\n  0x00\n    /* \"#utility.yul\":4113:4114   */\n  dup1\n    /* \"#utility.yul\":4106:4118   */\n  revert\n    /* \"#utility.yul\":4130:4247   */\ntag_49:\n    /* \"#utility.yul\":4239:4240   */\n  0x00\n    /* \"#utility.yul\":4236:4237   */\n  dup1\n    /* \"#utility.yul\":4229:4241   */\n  revert\n    /* \"#utility.yul\":4253:4370   */\ntag_46:\n    /* \"#utility.yul\":4362:4363   */\n  0x00\n    /* \"#utility.yul\":4359:4360   */\n  dup1\n    /* \"#utility.yul\":4352:4364   */\n  revert\n    /* \"#utility.yul\":4376:4478   */\ntag_66:\n    /* \"#utility.yul\":4417:4423   */\n  0x00\n    /* \"#utility.yul\":4468:4470   */\n  0x1f\n    /* \"#utility.yul\":4464:4471   */\n  not\n    /* \"#utility.yul\":4459:4461   */\n  0x1f\n    /* \"#utility.yul\":4452:4457   */\n  dup4\n    /* \"#utility.yul\":4448:4462   */\n  add\n    /* \"#utility.yul\":4444:4472   */\n  and\n    /* \"#utility.yul\":4434:4472   */\n  swap1\n  pop\n    /* \"#utility.yul\":4376:4478   */\n  swap2\n  swap1\n  pop\n  jump\t// out\n    /* \"#utility.yul\":4484:4606   */\ntag_42:\n    /* \"#utility.yul\":4557:4581   */\n  tag_91\n    /* \"#utility.yul\":4575:4580   */\n  dup2\n    /* \"#utility.yul\":4557:4581   */\n  tag_67\n  jump\t// in\ntag_91:\n    /* \"#utility.yul\":4550:4555   */\n  dup2\n    /* \"#utility.yul\":4547:4582   */\n  eq\n    /* \"#utility.yul\":4537:4600   */\n  tag_92\n  jumpi\n    /* \"#utility.yul\":4596:4597   */\n  0x00\n    /* \"#utility.yul\":4593:4594   */\n  dup1\n    /* \"#utility.yul\":4586:4598   */\n  revert\n    /* \"#utility.yul\":4537:4600   */\ntag_92:\n    /* \"#utility.yul\":4484:4606   */\n  pop\n  jump\t// out\n    /* \"contracts/4_Product.sol\":35:9780  contract ProductSC {\r... */\ntag_9:\n  dataSize(sub_0)\n  dup1\n  dataOffset(sub_0)\n  0x00\n  codecopy\n  0x00\n  return\nstop\n\nsub_0: assembly {\n        /* \"contracts/4_Product.sol\":35:9780  contract ProductSC {\r... */\n      mstore(0x40, 0x80)\n      jumpi(tag_1, lt(calldatasize, 0x04))\n      shr(0xe0, calldataload(0x00))\n      dup1\n      0xa0712d68\n      gt\n      tag_16\n      jumpi\n      dup1\n      0xb292abf1\n      gt\n      tag_17\n      jumpi\n      dup1\n      0xb292abf1\n      eq\n      tag_12\n      jumpi\n      dup1\n      0xcd0c5896\n      eq\n      tag_13\n      jumpi\n      dup1\n      0xd2c351b4\n      eq\n      tag_14\n      jumpi\n      dup1\n      0xeedc966a\n      eq\n      tag_15\n      jumpi\n      jump(tag_1)\n    tag_17:\n      dup1\n      0xa0712d68\n      eq\n      tag_9\n      jumpi\n      dup1\n      0xa3e67610\n      eq\n      tag_10\n      jumpi\n      dup1\n      0xa4821719\n      eq\n      tag_11\n      jumpi\n      jump(tag_1)\n    tag_16:\n      dup1\n      0x561e0e98\n      gt\n      tag_18\n      jumpi\n      dup1\n      0x561e0e98\n      eq\n      tag_5\n      jumpi\n      dup1\n      0x68cdafe6\n      eq\n      tag_6\n      jumpi\n      dup1\n      0x95d89b41\n      eq\n      tag_7\n      jumpi\n      dup1\n      0x9dc29fac\n      eq\n      tag_8\n      jumpi\n      jump(tag_1)\n    tag_18:\n      dup1\n      0x06fdde03\n      eq\n      tag_2\n      jumpi\n      dup1\n      0x40932fc2\n      eq\n      tag_3\n      jumpi\n      dup1\n      0x45091a60\n      eq\n      tag_4\n      jumpi\n    tag_1:\n      0x00\n      dup1\n      revert\n        /* \"contracts/4_Product.sol\":67:85  string public name */\n    tag_2:\n      callvalue\n      dup1\n      iszero\n      tag_19\n      jumpi\n      0x00\n      dup1\n      revert\n    tag_19:\n      pop\n      tag_20\n      tag_21\n      jump\t// in\n    tag_20:\n      mload(0x40)\n      tag_22\n      swap2\n      swap1\n      tag_23\n      jump\t// in\n    tag_22:\n      mload(0x40)\n      dup1\n      swap2\n      sub\n      swap1\n      return\n        /* \"contracts/4_Product.sol\":5914:6173  function register(address _addr, Role _role, string memory _name) public {\r... */\n    tag_3:\n      callvalue\n      dup1\n      iszero\n      tag_24\n      jumpi\n      0x00\n      dup1\n      revert\n    tag_24:\n      pop\n      tag_25\n      0x04\n      dup1\n      calldatasize\n      sub\n      dup2\n      add\n      swap1\n      tag_26\n      swap2\n      swap1\n      tag_27\n      jump\t// in\n    tag_26:\n      tag_28\n      jump\t// in\n    tag_25:\n      stop\n        /* \"contracts/4_Product.sol\":7363:8067  function buyProduct(uint256 _id, uint256 _timestamp, string memory _lat, string memory _log, int256 _temp) public OnlyDistributor{\r... */\n    tag_4:\n      callvalue\n      dup1\n      iszero\n      tag_29\n      jumpi\n      0x00\n      dup1\n      revert\n    tag_29:\n      pop\n      tag_30\n      0x04\n      dup1\n      calldatasize\n      sub\n      dup2\n      add\n      swap1\n      tag_31\n      swap2\n      swap1\n      tag_32\n      jump\t// in\n    tag_31:\n      tag_33\n      jump\t// in\n    tag_30:\n      stop\n        /* \"contracts/4_Product.sol\":6292:7316  function produceProduct(uint256 _id, uint256 _timestamp, uint256 _price, string memory _name, string memory _brand, string memory _size, string memory _weight, string memory _length ,string memory _width ,string memory _height) public OnlyProducer{\r... */\n    tag_5:\n      callvalue\n      dup1\n      iszero\n      tag_34\n      jumpi\n      0x00\n      dup1\n      revert\n    tag_34:\n      pop\n      tag_35\n      0x04\n      dup1\n      calldatasize\n      sub\n      dup2\n      add\n      swap1\n      tag_36\n      swap2\n      swap1\n      tag_37\n      jump\t// in\n    tag_36:\n      tag_38\n      jump\t// in\n    tag_35:\n      stop\n        /* \"contracts/4_Product.sol\":5546:5902  function tokenTransfer(address _to, uint256 _amount) public returns (bool) {\r... */\n    tag_6:\n      callvalue\n      dup1\n      iszero\n      tag_39\n      jumpi\n      0x00\n      dup1\n      revert\n    tag_39:\n      pop\n      tag_40\n      0x04\n      dup1\n      calldatasize\n      sub\n      dup2\n      add\n      swap1\n      tag_41\n      swap2\n      swap1\n      tag_42\n      jump\t// in\n    tag_41:\n      tag_43\n      jump\t// in\n    tag_40:\n      mload(0x40)\n      tag_44\n      swap2\n      swap1\n      tag_45\n      jump\t// in\n    tag_44:\n      mload(0x40)\n      dup1\n      swap2\n      sub\n      swap1\n      return\n        /* \"contracts/4_Product.sol\":114:134  string public symbol */\n    tag_7:\n      callvalue\n      dup1\n      iszero\n      tag_46\n      jumpi\n      0x00\n      dup1\n      revert\n    tag_46:\n      pop\n      tag_47\n      tag_48\n      jump\t// in\n    tag_47:\n      mload(0x40)\n      tag_49\n      swap2\n      swap1\n      tag_23\n      jump\t// in\n    tag_49:\n      mload(0x40)\n      dup1\n      swap2\n      sub\n      swap1\n      return\n        /* \"contracts/4_Product.sol\":4500:4917  function burn(address _account, uint256 _amount) public OnlyTokenOwner {\r... */\n    tag_8:\n      callvalue\n      dup1\n      iszero\n      tag_50\n      jumpi\n      0x00\n      dup1\n      revert\n    tag_50:\n      pop\n      tag_51\n      0x04\n      dup1\n      calldatasize\n      sub\n      dup2\n      add\n      swap1\n      tag_52\n      swap2\n      swap1\n      tag_42\n      jump\t// in\n    tag_52:\n      tag_53\n      jump\t// in\n    tag_51:\n      stop\n        /* \"contracts/4_Product.sol\":4121:4343  function mint(uint256 _amount) public OnlyTokenOwner {\r... */\n    tag_9:\n      callvalue\n      dup1\n      iszero\n      tag_54\n      jumpi\n      0x00\n      dup1\n      revert\n    tag_54:\n      pop\n      tag_55\n      0x04\n      dup1\n      calldatasize\n      sub\n      dup2\n      add\n      swap1\n      tag_56\n      swap2\n      swap1\n      tag_57\n      jump\t// in\n    tag_56:\n      tag_58\n      jump\t// in\n    tag_55:\n      stop\n        /* \"contracts/4_Product.sol\":165:199  address payable public  tokenOwner */\n    tag_10:\n      callvalue\n      dup1\n      iszero\n      tag_59\n      jumpi\n      0x00\n      dup1\n      revert\n    tag_59:\n      pop\n      tag_60\n      tag_61\n      jump\t// in\n    tag_60:\n      mload(0x40)\n      tag_62\n      swap2\n      swap1\n      tag_63\n      jump\t// in\n    tag_62:\n      mload(0x40)\n      dup1\n      swap2\n      sub\n      swap1\n      return\n        /* \"contracts/4_Product.sol\":4975:5472  function buyToken() public payable {\r... */\n    tag_11:\n      tag_64\n      tag_65\n      jump\t// in\n    tag_64:\n      stop\n        /* \"contracts/4_Product.sol\":9599:9775  function getActorInfo(address _addr) public view returns\r... */\n    tag_12:\n      callvalue\n      dup1\n      iszero\n      tag_66\n      jumpi\n      0x00\n      dup1\n      revert\n    tag_66:\n      pop\n      tag_67\n      0x04\n      dup1\n      calldatasize\n      sub\n      dup2\n      add\n      swap1\n      tag_68\n      swap2\n      swap1\n      tag_69\n      jump\t// in\n    tag_68:\n      tag_70\n      jump\t// in\n    tag_67:\n      mload(0x40)\n      tag_71\n      swap3\n      swap2\n      swap1\n      tag_72\n      jump\t// in\n    tag_71:\n      mload(0x40)\n      dup1\n      swap2\n      sub\n      swap1\n      return\n        /* \"contracts/4_Product.sol\":3899:4005  function etherBalance(address _addr) public view returns (uint256) {\r... */\n    tag_13:\n      callvalue\n      dup1\n      iszero\n      tag_73\n      jumpi\n      0x00\n      dup1\n      revert\n    tag_73:\n      pop\n      tag_74\n      0x04\n      dup1\n      calldatasize\n      sub\n      dup2\n      add\n      swap1\n      tag_75\n      swap2\n      swap1\n      tag_69\n      jump\t// in\n    tag_75:\n      tag_76\n      jump\t// in\n    tag_74:\n      mload(0x40)\n      tag_77\n      swap2\n      swap1\n      tag_78\n      jump\t// in\n    tag_77:\n      mload(0x40)\n      dup1\n      swap2\n      sub\n      swap1\n      return\n        /* \"contracts/4_Product.sol\":8140:8792  function getProductInfo(uint256 _id, uint256 _timestamp) public view returns \r... */\n    tag_14:\n      callvalue\n      dup1\n      iszero\n      tag_79\n      jumpi\n      0x00\n      dup1\n      revert\n    tag_79:\n      pop\n      tag_80\n      0x04\n      dup1\n      calldatasize\n      sub\n      dup2\n      add\n      swap1\n      tag_81\n      swap2\n      swap1\n      tag_82\n      jump\t// in\n    tag_81:\n      tag_83\n      jump\t// in\n    tag_80:\n      mload(0x40)\n      tag_84\n      swap9\n      swap8\n      swap7\n      swap6\n      swap5\n      swap4\n      swap3\n      swap2\n      swap1\n      tag_85\n      jump\t// in\n    tag_84:\n      mload(0x40)\n      dup1\n      swap2\n      sub\n      swap1\n      return\n        /* \"contracts/4_Product.sol\":3725:3833  function tokenBalance(address _addr) public view returns (uint256) {\r... */\n    tag_15:\n      callvalue\n      dup1\n      iszero\n      tag_86\n      jumpi\n      0x00\n      dup1\n      revert\n    tag_86:\n      pop\n      tag_87\n      0x04\n      dup1\n      calldatasize\n      sub\n      dup2\n      add\n      swap1\n      tag_88\n      swap2\n      swap1\n      tag_69\n      jump\t// in\n    tag_88:\n      tag_89\n      jump\t// in\n    tag_87:\n      mload(0x40)\n      tag_90\n      swap2\n      swap1\n      tag_78\n      jump\t// in\n    tag_90:\n      mload(0x40)\n      dup1\n      swap2\n      sub\n      swap1\n      return\n        /* \"contracts/4_Product.sol\":67:85  string public name */\n    tag_21:\n      0x00\n      dup1\n      sload\n      tag_91\n      swap1\n      tag_92\n      jump\t// in\n    tag_91:\n      dup1\n      0x1f\n      add\n      0x20\n      dup1\n      swap2\n      div\n      mul\n      0x20\n      add\n      mload(0x40)\n      swap1\n      dup2\n      add\n      0x40\n      mstore\n      dup1\n      swap3\n      swap2\n      swap1\n      dup2\n      dup2\n      mstore\n      0x20\n      add\n      dup3\n      dup1\n      sload\n      tag_93\n      swap1\n      tag_92\n      jump\t// in\n    tag_93:\n      dup1\n      iszero\n      tag_94\n      jumpi\n      dup1\n      0x1f\n      lt\n      tag_95\n      jumpi\n      0x0100\n      dup1\n      dup4\n      sload\n      div\n      mul\n      dup4\n      mstore\n      swap2\n      0x20\n      add\n      swap2\n      jump(tag_94)\n    tag_95:\n      dup3\n      add\n      swap2\n      swap1\n      0x00\n      mstore\n      keccak256(0x00, 0x20)\n      swap1\n    tag_96:\n      dup2\n      sload\n      dup2\n      mstore\n      swap1\n      0x01\n      add\n      swap1\n      0x20\n      add\n      dup1\n      dup4\n      gt\n      tag_96\n      jumpi\n      dup3\n      swap1\n      sub\n      0x1f\n      and\n      dup3\n      add\n      swap2\n    tag_94:\n      pop\n      pop\n      pop\n      pop\n      pop\n      dup2\n      jump\t// out\n        /* \"contracts/4_Product.sol\":5914:6173  function register(address _addr, Role _role, string memory _name) public {\r... */\n    tag_28:\n        /* \"contracts/4_Product.sol\":5998:6016  Actor memory actor */\n      0x00\n        /* \"contracts/4_Product.sol\":6019:6025  actors */\n      0x05\n        /* \"contracts/4_Product.sol\":6019:6032  actors[_addr] */\n      0x00\n        /* \"contracts/4_Product.sol\":6026:6031  _addr */\n      dup6\n        /* \"contracts/4_Product.sol\":6019:6032  actors[_addr] */\n      0xffffffffffffffffffffffffffffffffffffffff\n      and\n      0xffffffffffffffffffffffffffffffffffffffff\n      and\n      dup2\n      mstore\n      0x20\n      add\n      swap1\n      dup2\n      mstore\n      0x20\n      add\n      0x00\n      keccak256\n        /* \"contracts/4_Product.sol\":5998:6032  Actor memory actor = actors[_addr] */\n      mload(0x40)\n      dup1\n      0x60\n      add\n      0x40\n      mstore\n      swap1\n      dup2\n      0x00\n      dup3\n      add\n      0x00\n      swap1\n      sload\n      swap1\n      0x0100\n      exp\n      swap1\n      div\n      0xff\n      and\n      0x04\n      dup2\n      gt\n      iszero\n      tag_98\n      jumpi\n      tag_99\n      tag_100\n      jump\t// in\n    tag_99:\n    tag_98:\n      0x04\n      dup2\n      gt\n      iszero\n      tag_101\n      jumpi\n      tag_102\n      tag_100\n      jump\t// in\n    tag_102:\n    tag_101:\n      dup2\n      mstore\n      0x20\n      add\n      0x01\n      dup3\n      add\n      dup1\n      sload\n      tag_103\n      swap1\n      tag_92\n      jump\t// in\n    tag_103:\n      dup1\n      0x1f\n      add\n      0x20\n      dup1\n      swap2\n      div\n      mul\n      0x20\n      add\n      mload(0x40)\n      swap1\n      dup2\n      add\n      0x40\n      mstore\n      dup1\n      swap3\n      swap2\n      swap1\n      dup2\n      dup2\n      mstore\n      0x20\n      add\n      dup3\n      dup1\n      sload\n      tag_104\n      swap1\n      tag_92\n      jump\t// in\n    tag_104:\n      dup1\n      iszero\n      tag_105\n      jumpi\n      dup1\n      0x1f\n      lt\n      tag_106\n      jumpi\n      0x0100\n      dup1\n      dup4\n      sload\n      div\n      mul\n      dup4\n      mstore\n      swap2\n      0x20\n      add\n      swap2\n      jump(tag_105)\n    tag_106:\n      dup3\n      add\n      swap2\n      swap1\n      0x00\n      mstore\n      keccak256(0x00, 0x20)\n      swap1\n    tag_107:\n      dup2\n      sload\n      dup2\n      mstore\n      swap1\n      0x01\n      add\n      swap1\n      0x20\n      add\n      dup1\n      dup4\n      gt\n      tag_107\n      jumpi\n      dup3\n      swap1\n      sub\n      0x1f\n      and\n      dup3\n      add\n      swap2\n    tag_105:\n      pop\n      pop\n      pop\n      pop\n      pop\n      dup2\n      mstore\n      0x20\n      add\n      0x02\n      dup3\n      add\n      0x00\n      swap1\n      sload\n      swap1\n      0x0100\n      exp\n      swap1\n      div\n      0xff\n      and\n      iszero\n      iszero\n      iszero\n      iszero\n      dup2\n      mstore\n      pop\n      pop\n      swap1\n      pop\n        /* \"contracts/4_Product.sol\":6056:6061  _role */\n      dup3\n        /* \"contracts/4_Product.sol\":6043:6048  actor */\n      dup2\n        /* \"contracts/4_Product.sol\":6043:6053  actor.role */\n      0x00\n      add\n        /* \"contracts/4_Product.sol\":6043:6061  actor.role = _role */\n      swap1\n      0x04\n      dup2\n      gt\n      iszero\n      tag_108\n      jumpi\n      tag_109\n      tag_100\n      jump\t// in\n    tag_109:\n    tag_108:\n      swap1\n      dup2\n      0x04\n      dup2\n      gt\n      iszero\n      tag_110\n      jumpi\n      tag_111\n      tag_100\n      jump\t// in\n    tag_111:\n    tag_110:\n      dup2\n      mstore\n      pop\n      pop\n        /* \"contracts/4_Product.sol\":6085:6090  _name */\n      dup2\n        /* \"contracts/4_Product.sol\":6072:6077  actor */\n      dup2\n        /* \"contracts/4_Product.sol\":6072:6082  actor.name */\n      0x20\n      add\n        /* \"contracts/4_Product.sol\":6072:6090  actor.name = _name */\n      dup2\n      swap1\n      mstore\n      pop\n        /* \"contracts/4_Product.sol\":6119:6123  true */\n      0x01\n        /* \"contracts/4_Product.sol\":6101:6106  actor */\n      dup2\n        /* \"contracts/4_Product.sol\":6101:6116  actor.isDefined */\n      0x40\n      add\n        /* \"contracts/4_Product.sol\":6101:6123  actor.isDefined = true */\n      swap1\n      iszero\n      iszero\n      swap1\n      dup2\n      iszero\n      iszero\n      dup2\n      mstore\n      pop\n      pop\n        /* \"contracts/4_Product.sol\":6150:6155  actor */\n      dup1\n        /* \"contracts/4_Product.sol\":6134:6140  actors */\n      0x05\n        /* \"contracts/4_Product.sol\":6134:6147  actors[_addr] */\n      0x00\n        /* \"contracts/4_Product.sol\":6141:6146  _addr */\n      dup7\n        /* \"contracts/4_Product.sol\":6134:6147  actors[_addr] */\n      0xffffffffffffffffffffffffffffffffffffffff\n      and\n      0xffffffffffffffffffffffffffffffffffffffff\n      and\n      dup2\n      mstore\n      0x20\n      add\n      swap1\n      dup2\n      mstore\n      0x20\n      add\n      0x00\n      keccak256\n        /* \"contracts/4_Product.sol\":6134:6155  actors[_addr] = actor */\n      0x00\n      dup3\n      add\n      mload\n      dup2\n      0x00\n      add\n      exp(0x0100, 0x00)\n      dup2\n      sload\n      dup2\n      0xff\n      mul\n      not\n      and\n      swap1\n      dup4\n      0x04\n      dup2\n      gt\n      iszero\n      tag_112\n      jumpi\n      tag_113\n      tag_100\n      jump\t// in\n    tag_113:\n    tag_112:\n      mul\n      or\n      swap1\n      sstore\n      pop\n      0x20\n      dup3\n      add\n      mload\n      dup2\n      0x01\n      add\n      swap1\n      dup1\n      mload\n      swap1\n      0x20\n      add\n      swap1\n      tag_114\n      swap3\n      swap2\n      swap1\n      tag_115\n      jump\t// in\n    tag_114:\n      pop\n      0x40\n      dup3\n      add\n      mload\n      dup2\n      0x02\n      add\n      exp(0x0100, 0x00)\n      dup2\n      sload\n      dup2\n      0xff\n      mul\n      not\n      and\n      swap1\n      dup4\n      iszero\n      iszero\n      mul\n      or\n      swap1\n      sstore\n      pop\n      swap1\n      pop\n      pop\n        /* \"contracts/4_Product.sol\":5987:6173  {\r... */\n      pop\n        /* \"contracts/4_Product.sol\":5914:6173  function register(address _addr, Role _role, string memory _name) public {\r... */\n      pop\n      pop\n      pop\n      jump\t// out\n        /* \"contracts/4_Product.sol\":7363:8067  function buyProduct(uint256 _id, uint256 _timestamp, string memory _lat, string memory _log, int256 _temp) public OnlyDistributor{\r... */\n    tag_33:\n        /* \"contracts/4_Product.sol\":3015:3031  Role.Distributor */\n      0x01\n        /* \"contracts/4_Product.sol\":2988:3031  actors[msg.sender].role == Role.Distributor */\n      0x04\n      dup2\n      gt\n      iszero\n      tag_117\n      jumpi\n      tag_118\n      tag_100\n      jump\t// in\n    tag_118:\n    tag_117:\n        /* \"contracts/4_Product.sol\":2988:2994  actors */\n      0x05\n        /* \"contracts/4_Product.sol\":2988:3006  actors[msg.sender] */\n      0x00\n        /* \"contracts/4_Product.sol\":2995:3005  msg.sender */\n      caller\n        /* \"contracts/4_Product.sol\":2988:3006  actors[msg.sender] */\n      0xffffffffffffffffffffffffffffffffffffffff\n      and\n      0xffffffffffffffffffffffffffffffffffffffff\n      and\n      dup2\n      mstore\n      0x20\n      add\n      swap1\n      dup2\n      mstore\n      0x20\n      add\n      0x00\n      keccak256\n        /* \"contracts/4_Product.sol\":2988:3011  actors[msg.sender].role */\n      0x00\n      add\n      0x00\n      swap1\n      sload\n      swap1\n      0x0100\n      exp\n      swap1\n      div\n      0xff\n      and\n        /* \"contracts/4_Product.sol\":2988:3031  actors[msg.sender].role == Role.Distributor */\n      0x04\n      dup2\n      gt\n      iszero\n      tag_119\n      jumpi\n      tag_120\n      tag_100\n      jump\t// in\n    tag_120:\n    tag_119:\n      eq\n        /* \"contracts/4_Product.sol\":2980:3064  require(actors[msg.sender].role == Role.Distributor, 'caller is not a distributor.') */\n      tag_121\n      jumpi\n      mload(0x40)\n      0x08c379a000000000000000000000000000000000000000000000000000000000\n      dup2\n      mstore\n      0x04\n      add\n      tag_122\n      swap1\n      tag_123\n      jump\t// in\n    tag_122:\n      mload(0x40)\n      dup1\n      swap2\n      sub\n      swap1\n      revert\n    tag_121:\n        /* \"contracts/4_Product.sol\":7503:7532  Product storage boughtProduct */\n      0x00\n        /* \"contracts/4_Product.sol\":7535:7542  product */\n      0x06\n        /* \"contracts/4_Product.sol\":7535:7547  product[_id] */\n      0x00\n        /* \"contracts/4_Product.sol\":7543:7546  _id */\n      dup8\n        /* \"contracts/4_Product.sol\":7535:7547  product[_id] */\n      dup2\n      mstore\n      0x20\n      add\n      swap1\n      dup2\n      mstore\n      0x20\n      add\n      0x00\n      keccak256\n        /* \"contracts/4_Product.sol\":7503:7547  Product storage boughtProduct = product[_id] */\n      swap1\n      pop\n        /* \"contracts/4_Product.sol\":7558:7577  uint256 tokenNumber */\n      0x00\n        /* \"contracts/4_Product.sol\":7580:7588  balances */\n      0x04\n        /* \"contracts/4_Product.sol\":7580:7600  balances[msg.sender] */\n      0x00\n        /* \"contracts/4_Product.sol\":7589:7599  msg.sender */\n      caller\n        /* \"contracts/4_Product.sol\":7580:7600  balances[msg.sender] */\n      0xffffffffffffffffffffffffffffffffffffffff\n      and\n      0xffffffffffffffffffffffffffffffffffffffff\n      and\n      dup2\n      mstore\n      0x20\n      add\n      swap1\n      dup2\n      mstore\n      0x20\n      add\n      0x00\n      keccak256\n      sload\n        /* \"contracts/4_Product.sol\":7558:7600  uint256 tokenNumber = balances[msg.sender] */\n      swap1\n      pop\n        /* \"contracts/4_Product.sol\":7634:7647  boughtProduct */\n      dup2\n        /* \"contracts/4_Product.sol\":7634:7660  boughtProduct.productPrice */\n      0x08\n      add\n      sload\n        /* \"contracts/4_Product.sol\":7619:7630  tokenNumber */\n      dup2\n        /* \"contracts/4_Product.sol\":7619:7660  tokenNumber >= boughtProduct.productPrice */\n      lt\n      iszero\n        /* \"contracts/4_Product.sol\":7611:7661  require(tokenNumber >= boughtProduct.productPrice) */\n      tag_125\n      jumpi\n      0x00\n      dup1\n      revert\n    tag_125:\n        /* \"contracts/4_Product.sol\":7710:7724  State.Produced */\n      0x00\n        /* \"contracts/4_Product.sol\":7680:7724  boughtProduct.productState == State.Produced */\n      0x05\n      dup2\n      gt\n      iszero\n      tag_126\n      jumpi\n      tag_127\n      tag_100\n      jump\t// in\n    tag_127:\n    tag_126:\n        /* \"contracts/4_Product.sol\":7680:7693  boughtProduct */\n      dup3\n        /* \"contracts/4_Product.sol\":7680:7706  boughtProduct.productState */\n      0x07\n      add\n      0x00\n      swap1\n      sload\n      swap1\n      0x0100\n      exp\n      swap1\n      div\n      0xff\n      and\n        /* \"contracts/4_Product.sol\":7680:7724  boughtProduct.productState == State.Produced */\n      0x05\n      dup2\n      gt\n      iszero\n      tag_128\n      jumpi\n      tag_129\n      tag_100\n      jump\t// in\n    tag_129:\n    tag_128:\n      eq\n        /* \"contracts/4_Product.sol\":7672:7725  require(boughtProduct.productState == State.Produced) */\n      tag_130\n      jumpi\n      0x00\n      dup1\n      revert\n    tag_130:\n        /* \"contracts/4_Product.sol\":7774:7784  _timestamp */\n      dup6\n        /* \"contracts/4_Product.sol\":7746:7753  product */\n      0x06\n        /* \"contracts/4_Product.sol\":7746:7758  product[_id] */\n      0x00\n        /* \"contracts/4_Product.sol\":7754:7757  _id */\n      dup10\n        /* \"contracts/4_Product.sol\":7746:7758  product[_id] */\n      dup2\n      mstore\n      0x20\n      add\n      swap1\n      dup2\n      mstore\n      0x20\n      add\n      0x00\n      keccak256\n        /* \"contracts/4_Product.sol\":7746:7768  product[_id].timestamp */\n      0x03\n      add\n        /* \"contracts/4_Product.sol\":7769:7770  1 */\n      0x01\n        /* \"contracts/4_Product.sol\":7746:7771  product[_id].timestamp[1] */\n      0x04\n      dup2\n      lt\n      tag_131\n      jumpi\n      tag_132\n      tag_133\n      jump\t// in\n    tag_132:\n    tag_131:\n      add\n        /* \"contracts/4_Product.sol\":7746:7784  product[_id].timestamp[1] = _timestamp */\n      dup2\n      swap1\n      sstore\n      pop\n        /* \"contracts/4_Product.sol\":7861:7871  msg.sender */\n      caller\n        /* \"contracts/4_Product.sol\":7832:7839  product */\n      0x06\n        /* \"contracts/4_Product.sol\":7832:7844  product[_id] */\n      0x00\n        /* \"contracts/4_Product.sol\":7840:7843  _id */\n      dup10\n        /* \"contracts/4_Product.sol\":7832:7844  product[_id] */\n      dup2\n      mstore\n      0x20\n      add\n      swap1\n      dup2\n      mstore\n      0x20\n      add\n      0x00\n      keccak256\n        /* \"contracts/4_Product.sol\":7832:7858  product[_id].distributorID */\n      0x09\n      add\n      0x00\n        /* \"contracts/4_Product.sol\":7832:7871  product[_id].distributorID = msg.sender */\n      0x0100\n      exp\n      dup2\n      sload\n      dup2\n      0xffffffffffffffffffffffffffffffffffffffff\n      mul\n      not\n      and\n      swap1\n      dup4\n      0xffffffffffffffffffffffffffffffffffffffff\n      and\n      mul\n      or\n      swap1\n      sstore\n      pop\n        /* \"contracts/4_Product.sol\":7887:7949  tokenTransfer(product[_id].ownerID,boughtProduct.productPrice) */\n      tag_135\n        /* \"contracts/4_Product.sol\":7901:7908  product */\n      0x06\n        /* \"contracts/4_Product.sol\":7901:7913  product[_id] */\n      0x00\n        /* \"contracts/4_Product.sol\":7909:7912  _id */\n      dup10\n        /* \"contracts/4_Product.sol\":7901:7913  product[_id] */\n      dup2\n      mstore\n      0x20\n      add\n      swap1\n      dup2\n      mstore\n      0x20\n      add\n      0x00\n      keccak256\n        /* \"contracts/4_Product.sol\":7901:7921  product[_id].ownerID */\n      0x01\n      add\n      0x00\n      swap1\n      sload\n      swap1\n      0x0100\n      exp\n      swap1\n      div\n      0xffffffffffffffffffffffffffffffffffffffff\n      and\n        /* \"contracts/4_Product.sol\":7922:7935  boughtProduct */\n      dup4\n        /* \"contracts/4_Product.sol\":7922:7948  boughtProduct.productPrice */\n      0x08\n      add\n      sload\n        /* \"contracts/4_Product.sol\":7887:7900  tokenTransfer */\n      tag_43\n        /* \"contracts/4_Product.sol\":7887:7949  tokenTransfer(product[_id].ownerID,boughtProduct.productPrice) */\n      jump\t// in\n    tag_135:\n      pop\n        /* \"contracts/4_Product.sol\":7989:8004  State.Purchased */\n      0x05\n        /* \"contracts/4_Product.sol\":7961:7968  product */\n      0x06\n        /* \"contracts/4_Product.sol\":7961:7973  product[_id] */\n      0x00\n        /* \"contracts/4_Product.sol\":7969:7972  _id */\n      dup10\n        /* \"contracts/4_Product.sol\":7961:7973  product[_id] */\n      dup2\n      mstore\n      0x20\n      add\n      swap1\n      dup2\n      mstore\n      0x20\n      add\n      0x00\n      keccak256\n        /* \"contracts/4_Product.sol\":7961:7986  product[_id].productState */\n      0x07\n      add\n      0x00\n        /* \"contracts/4_Product.sol\":7961:8004  product[_id].productState = State.Purchased */\n      0x0100\n      exp\n      dup2\n      sload\n      dup2\n      0xff\n      mul\n      not\n      and\n      swap1\n      dup4\n      0x05\n      dup2\n      gt\n      iszero\n      tag_136\n      jumpi\n      tag_137\n      tag_100\n      jump\t// in\n    tag_137:\n    tag_136:\n      mul\n      or\n      swap1\n      sstore\n      pop\n        /* \"contracts/4_Product.sol\":8039:8049  msg.sender */\n      caller\n        /* \"contracts/4_Product.sol\":8016:8023  product */\n      0x06\n        /* \"contracts/4_Product.sol\":8016:8028  product[_id] */\n      0x00\n        /* \"contracts/4_Product.sol\":8024:8027  _id */\n      dup10\n        /* \"contracts/4_Product.sol\":8016:8028  product[_id] */\n      dup2\n      mstore\n      0x20\n      add\n      swap1\n      dup2\n      mstore\n      0x20\n      add\n      0x00\n      keccak256\n        /* \"contracts/4_Product.sol\":8016:8036  product[_id].ownerID */\n      0x01\n      add\n      0x00\n        /* \"contracts/4_Product.sol\":8016:8049  product[_id].ownerID = msg.sender */\n      0x0100\n      exp\n      dup2\n      sload\n      dup2\n      0xffffffffffffffffffffffffffffffffffffffff\n      mul\n      not\n      and\n      swap1\n      dup4\n      0xffffffffffffffffffffffffffffffffffffffff\n      and\n      mul\n      or\n      swap1\n      sstore\n      pop\n        /* \"contracts/4_Product.sol\":7492:8067  {\r... */\n      pop\n      pop\n        /* \"contracts/4_Product.sol\":7363:8067  function buyProduct(uint256 _id, uint256 _timestamp, string memory _lat, string memory _log, int256 _temp) public OnlyDistributor{\r... */\n      pop\n      pop\n      pop\n      pop\n      pop\n      jump\t// out\n        /* \"contracts/4_Product.sol\":6292:7316  function produceProduct(uint256 _id, uint256 _timestamp, uint256 _price, string memory _name, string memory _brand, string memory _size, string memory _weight, string memory _length ,string memory _width ,string memory _height) public OnlyProducer{\r... */\n    tag_38:\n        /* \"contracts/4_Product.sol\":2867:2880  Role.Producer */\n      0x00\n        /* \"contracts/4_Product.sol\":2840:2880  actors[msg.sender].role == Role.Producer */\n      0x04\n      dup2\n      gt\n      iszero\n      tag_139\n      jumpi\n      tag_140\n      tag_100\n      jump\t// in\n    tag_140:\n    tag_139:\n        /* \"contracts/4_Product.sol\":2840:2846  actors */\n      0x05\n        /* \"contracts/4_Product.sol\":2840:2858  actors[msg.sender] */\n      0x00\n        /* \"contracts/4_Product.sol\":2847:2857  msg.sender */\n      caller\n        /* \"contracts/4_Product.sol\":2840:2858  actors[msg.sender] */\n      0xffffffffffffffffffffffffffffffffffffffff\n      and\n      0xffffffffffffffffffffffffffffffffffffffff\n      and\n      dup2\n      mstore\n      0x20\n      add\n      swap1\n      dup2\n      mstore\n      0x20\n      add\n      0x00\n      keccak256\n        /* \"contracts/4_Product.sol\":2840:2863  actors[msg.sender].role */\n      0x00\n      add\n      0x00\n      swap1\n      sload\n      swap1\n      0x0100\n      exp\n      swap1\n      div\n      0xff\n      and\n        /* \"contracts/4_Product.sol\":2840:2880  actors[msg.sender].role == Role.Producer */\n      0x04\n      dup2\n      gt\n      iszero\n      tag_141\n      jumpi\n      tag_142\n      tag_100\n      jump\t// in\n    tag_142:\n    tag_141:\n      eq\n        /* \"contracts/4_Product.sol\":2832:2909  require(actors[msg.sender].role == Role.Producer,'caller is not a producer.') */\n      tag_143\n      jumpi\n      mload(0x40)\n      0x08c379a000000000000000000000000000000000000000000000000000000000\n      dup2\n      mstore\n      0x04\n      add\n      tag_144\n      swap1\n      tag_145\n      jump\t// in\n    tag_144:\n      mload(0x40)\n      dup1\n      swap2\n      sub\n      swap1\n      revert\n    tag_143:\n        /* \"contracts/4_Product.sol\":6550:6576  Product storage newProduct */\n      0x00\n        /* \"contracts/4_Product.sol\":6579:6586  product */\n      0x06\n        /* \"contracts/4_Product.sol\":6579:6591  product[_id] */\n      0x00\n        /* \"contracts/4_Product.sol\":6587:6590  _id */\n      dup13\n        /* \"contracts/4_Product.sol\":6579:6591  product[_id] */\n      dup2\n      mstore\n      0x20\n      add\n      swap1\n      dup2\n      mstore\n      0x20\n      add\n      0x00\n      keccak256\n        /* \"contracts/4_Product.sol\":6550:6591  Product storage newProduct = product[_id] */\n      swap1\n      pop\n        /* \"contracts/4_Product.sol\":6618:6621  _id */\n      dup11\n        /* \"contracts/4_Product.sol\":6602:6612  newProduct */\n      dup2\n        /* \"contracts/4_Product.sol\":6602:6615  newProduct.ID */\n      0x00\n      add\n        /* \"contracts/4_Product.sol\":6602:6621  newProduct.ID = _id */\n      dup2\n      swap1\n      sstore\n      pop\n        /* \"contracts/4_Product.sol\":6653:6663  msg.sender */\n      caller\n        /* \"contracts/4_Product.sol\":6632:6642  newProduct */\n      dup2\n        /* \"contracts/4_Product.sol\":6632:6650  newProduct.ownerID */\n      0x01\n      add\n      0x00\n        /* \"contracts/4_Product.sol\":6632:6663  newProduct.ownerID = msg.sender */\n      0x0100\n      exp\n      dup2\n      sload\n      dup2\n      0xffffffffffffffffffffffffffffffffffffffff\n      mul\n      not\n      and\n      swap1\n      dup4\n      0xffffffffffffffffffffffffffffffffffffffff\n      and\n      mul\n      or\n      swap1\n      sstore\n      pop\n        /* \"contracts/4_Product.sol\":6698:6708  msg.sender */\n      caller\n        /* \"contracts/4_Product.sol\":6674:6684  newProduct */\n      dup2\n        /* \"contracts/4_Product.sol\":6674:6695  newProduct.producerID */\n      0x02\n      add\n      0x00\n        /* \"contracts/4_Product.sol\":6674:6708  newProduct.producerID = msg.sender */\n      0x0100\n      exp\n      dup2\n      sload\n      dup2\n      0xffffffffffffffffffffffffffffffffffffffff\n      mul\n      not\n      and\n      swap1\n      dup4\n      0xffffffffffffffffffffffffffffffffffffffff\n      and\n      mul\n      or\n      swap1\n      sstore\n      pop\n        /* \"contracts/4_Product.sol\":6745:6755  _timestamp */\n      dup10\n        /* \"contracts/4_Product.sol\":6719:6729  newProduct */\n      dup2\n        /* \"contracts/4_Product.sol\":6719:6739  newProduct.timestamp */\n      0x03\n      add\n        /* \"contracts/4_Product.sol\":6740:6741  0 */\n      0x00\n        /* \"contracts/4_Product.sol\":6719:6742  newProduct.timestamp[0] */\n      0x04\n      dup2\n      lt\n      tag_147\n      jumpi\n      tag_148\n      tag_133\n      jump\t// in\n    tag_148:\n    tag_147:\n      add\n        /* \"contracts/4_Product.sol\":6719:6755  newProduct.timestamp[0] = _timestamp */\n      dup2\n      swap1\n      sstore\n      pop\n        /* \"contracts/4_Product.sol\":6799:6813  State.Produced */\n      0x00\n        /* \"contracts/4_Product.sol\":6774:6784  newProduct */\n      dup2\n        /* \"contracts/4_Product.sol\":6774:6797  newProduct.productState */\n      0x07\n      add\n      0x00\n        /* \"contracts/4_Product.sol\":6774:6813  newProduct.productState= State.Produced */\n      0x0100\n      exp\n      dup2\n      sload\n      dup2\n      0xff\n      mul\n      not\n      and\n      swap1\n      dup4\n      0x05\n      dup2\n      gt\n      iszero\n      tag_150\n      jumpi\n      tag_151\n      tag_100\n      jump\t// in\n    tag_151:\n    tag_150:\n      mul\n      or\n      swap1\n      sstore\n      pop\n        /* \"contracts/4_Product.sol\":6856:6862  _price */\n      dup9\n        /* \"contracts/4_Product.sol\":6832:6842  newProduct */\n      dup2\n        /* \"contracts/4_Product.sol\":6832:6855  newProduct.productPrice */\n      0x08\n      add\n        /* \"contracts/4_Product.sol\":6832:6862  newProduct.productPrice=_price */\n      dup2\n      swap1\n      sstore\n      pop\n        /* \"contracts/4_Product.sol\":6907:6908  0 */\n      0x00\n        /* \"contracts/4_Product.sol\":6874:6884  newProduct */\n      dup2\n        /* \"contracts/4_Product.sol\":6874:6898  newProduct.distributorID */\n      0x09\n      add\n      0x00\n        /* \"contracts/4_Product.sol\":6874:6909  newProduct.distributorID=address(0) */\n      0x0100\n      exp\n      dup2\n      sload\n      dup2\n      0xffffffffffffffffffffffffffffffffffffffff\n      mul\n      not\n      and\n      swap1\n      dup4\n      0xffffffffffffffffffffffffffffffffffffffff\n      and\n      mul\n      or\n      swap1\n      sstore\n      pop\n        /* \"contracts/4_Product.sol\":6950:6951  0 */\n      0x00\n        /* \"contracts/4_Product.sol\":6920:6930  newProduct */\n      dup2\n        /* \"contracts/4_Product.sol\":6920:6941  newProduct.retailerID */\n      0x0a\n      add\n      0x00\n        /* \"contracts/4_Product.sol\":6920:6952  newProduct.retailerID=address(0) */\n      0x0100\n      exp\n      dup2\n      sload\n      dup2\n      0xffffffffffffffffffffffffffffffffffffffff\n      mul\n      not\n      and\n      swap1\n      dup4\n      0xffffffffffffffffffffffffffffffffffffffff\n      and\n      mul\n      or\n      swap1\n      sstore\n      pop\n        /* \"contracts/4_Product.sol\":6993:6994  0 */\n      0x00\n        /* \"contracts/4_Product.sol\":6963:6973  newProduct */\n      dup2\n        /* \"contracts/4_Product.sol\":6963:6984  newProduct.consumerID */\n      0x0b\n      add\n      0x00\n        /* \"contracts/4_Product.sol\":6963:6995  newProduct.consumerID=address(0) */\n      0x0100\n      exp\n      dup2\n      sload\n      dup2\n      0xffffffffffffffffffffffffffffffffffffffff\n      mul\n      not\n      and\n      swap1\n      dup4\n      0xffffffffffffffffffffffffffffffffffffffff\n      and\n      mul\n      or\n      swap1\n      sstore\n      pop\n        /* \"contracts/4_Product.sol\":7032:7037  _name */\n      dup8\n        /* \"contracts/4_Product.sol\":7006:7016  newProduct */\n      dup2\n        /* \"contracts/4_Product.sol\":7006:7024  newProduct.details */\n      0x0c\n      add\n        /* \"contracts/4_Product.sol\":7006:7029  newProduct.details.name */\n      0x00\n      add\n        /* \"contracts/4_Product.sol\":7006:7037  newProduct.details.name = _name */\n      swap1\n      dup1\n      mload\n      swap1\n      0x20\n      add\n      swap1\n      tag_152\n      swap3\n      swap2\n      swap1\n      tag_115\n      jump\t// in\n    tag_152:\n      pop\n        /* \"contracts/4_Product.sol\":7074:7080  _brand */\n      dup7\n        /* \"contracts/4_Product.sol\":7048:7058  newProduct */\n      dup2\n        /* \"contracts/4_Product.sol\":7048:7066  newProduct.details */\n      0x0c\n      add\n        /* \"contracts/4_Product.sol\":7048:7072  newProduct.details.brand */\n      0x01\n      add\n        /* \"contracts/4_Product.sol\":7048:7080  newProduct.details.brand= _brand */\n      swap1\n      dup1\n      mload\n      swap1\n      0x20\n      add\n      swap1\n      tag_153\n      swap3\n      swap2\n      swap1\n      tag_115\n      jump\t// in\n    tag_153:\n      pop\n        /* \"contracts/4_Product.sol\":7117:7122  _size */\n      dup6\n        /* \"contracts/4_Product.sol\":7091:7101  newProduct */\n      dup2\n        /* \"contracts/4_Product.sol\":7091:7109  newProduct.details */\n      0x0c\n      add\n        /* \"contracts/4_Product.sol\":7091:7114  newProduct.details.size */\n      0x02\n      add\n        /* \"contracts/4_Product.sol\":7091:7122  newProduct.details.size = _size */\n      swap1\n      dup1\n      mload\n      swap1\n      0x20\n      add\n      swap1\n      tag_154\n      swap3\n      swap2\n      swap1\n      tag_115\n      jump\t// in\n    tag_154:\n      pop\n        /* \"contracts/4_Product.sol\":7161:7168  _weight */\n      dup5\n        /* \"contracts/4_Product.sol\":7133:7143  newProduct */\n      dup2\n        /* \"contracts/4_Product.sol\":7133:7151  newProduct.details */\n      0x0c\n      add\n        /* \"contracts/4_Product.sol\":7133:7158  newProduct.details.weight */\n      0x03\n      add\n        /* \"contracts/4_Product.sol\":7133:7168  newProduct.details.weight = _weight */\n      swap1\n      dup1\n      mload\n      swap1\n      0x20\n      add\n      swap1\n      tag_155\n      swap3\n      swap2\n      swap1\n      tag_115\n      jump\t// in\n    tag_155:\n      pop\n        /* \"contracts/4_Product.sol\":7207:7214  _length */\n      dup4\n        /* \"contracts/4_Product.sol\":7179:7189  newProduct */\n      dup2\n        /* \"contracts/4_Product.sol\":7179:7197  newProduct.details */\n      0x0c\n      add\n        /* \"contracts/4_Product.sol\":7179:7204  newProduct.details.length */\n      0x04\n      add\n        /* \"contracts/4_Product.sol\":7179:7214  newProduct.details.length = _length */\n      swap1\n      dup1\n      mload\n      swap1\n      0x20\n      add\n      swap1\n      tag_156\n      swap3\n      swap2\n      swap1\n      tag_115\n      jump\t// in\n    tag_156:\n      pop\n        /* \"contracts/4_Product.sol\":7254:7260  _width */\n      dup3\n        /* \"contracts/4_Product.sol\":7227:7237  newProduct */\n      dup2\n        /* \"contracts/4_Product.sol\":7227:7245  newProduct.details */\n      0x0c\n      add\n        /* \"contracts/4_Product.sol\":7227:7251  newProduct.details.width */\n      0x05\n      add\n        /* \"contracts/4_Product.sol\":7227:7260  newProduct.details.width = _width */\n      swap1\n      dup1\n      mload\n      swap1\n      0x20\n      add\n      swap1\n      tag_157\n      swap3\n      swap2\n      swap1\n      tag_115\n      jump\t// in\n    tag_157:\n      pop\n        /* \"contracts/4_Product.sol\":7301:7308  _height */\n      dup2\n        /* \"contracts/4_Product.sol\":7273:7283  newProduct */\n      dup2\n        /* \"contracts/4_Product.sol\":7273:7291  newProduct.details */\n      0x0c\n      add\n        /* \"contracts/4_Product.sol\":7273:7298  newProduct.details.height */\n      0x06\n      add\n        /* \"contracts/4_Product.sol\":7273:7308  newProduct.details.height = _height */\n      swap1\n      dup1\n      mload\n      swap1\n      0x20\n      add\n      swap1\n      tag_158\n      swap3\n      swap2\n      swap1\n      tag_115\n      jump\t// in\n    tag_158:\n      pop\n        /* \"contracts/4_Product.sol\":6539:7316  {\r... */\n      pop\n        /* \"contracts/4_Product.sol\":6292:7316  function produceProduct(uint256 _id, uint256 _timestamp, uint256 _price, string memory _name, string memory _brand, string memory _size, string memory _weight, string memory _length ,string memory _width ,string memory _height) public OnlyProducer{\r... */\n      pop\n      pop\n      pop\n      pop\n      pop\n      pop\n      pop\n      pop\n      pop\n      pop\n      jump\t// out\n        /* \"contracts/4_Product.sol\":5546:5902  function tokenTransfer(address _to, uint256 _amount) public returns (bool) {\r... */\n    tag_43:\n        /* \"contracts/4_Product.sol\":5615:5619  bool */\n      0x00\n        /* \"contracts/4_Product.sol\":5664:5671  _amount */\n      dup2\n        /* \"contracts/4_Product.sol\":5640:5648  balances */\n      0x04\n        /* \"contracts/4_Product.sol\":5640:5660  balances[msg.sender] */\n      0x00\n        /* \"contracts/4_Product.sol\":5649:5659  msg.sender */\n      caller\n        /* \"contracts/4_Product.sol\":5640:5660  balances[msg.sender] */\n      0xffffffffffffffffffffffffffffffffffffffff\n      and\n      0xffffffffffffffffffffffffffffffffffffffff\n      and\n      dup2\n      mstore\n      0x20\n      add\n      swap1\n      dup2\n      mstore\n      0x20\n      add\n      0x00\n      keccak256\n      sload\n        /* \"contracts/4_Product.sol\":5640:5671  balances[msg.sender] >= _amount */\n      lt\n      iszero\n        /* \"contracts/4_Product.sol\":5632:5672  require(balances[msg.sender] >= _amount) */\n      tag_160\n      jumpi\n      0x00\n      dup1\n      revert\n    tag_160:\n        /* \"contracts/4_Product.sol\":5782:5783  0 */\n      0x00\n        /* \"contracts/4_Product.sol\":5767:5784  _to != address(0) */\n      0xffffffffffffffffffffffffffffffffffffffff\n      and\n        /* \"contracts/4_Product.sol\":5767:5770  _to */\n      dup4\n        /* \"contracts/4_Product.sol\":5767:5784  _to != address(0) */\n      0xffffffffffffffffffffffffffffffffffffffff\n      and\n      eq\n      iszero\n        /* \"contracts/4_Product.sol\":5759:5785  require(_to != address(0)) */\n      tag_161\n      jumpi\n      0x00\n      dup1\n      revert\n    tag_161:\n        /* \"contracts/4_Product.sol\":5830:5837  _amount */\n      dup2\n        /* \"contracts/4_Product.sol\":5806:5814  balances */\n      0x04\n        /* \"contracts/4_Product.sol\":5806:5826  balances[msg.sender] */\n      0x00\n        /* \"contracts/4_Product.sol\":5815:5825  msg.sender */\n      caller\n        /* \"contracts/4_Product.sol\":5806:5826  balances[msg.sender] */\n      0xffffffffffffffffffffffffffffffffffffffff\n      and\n      0xffffffffffffffffffffffffffffffffffffffff\n      and\n      dup2\n      mstore\n      0x20\n      add\n      swap1\n      dup2\n      mstore\n      0x20\n      add\n      0x00\n      keccak256\n      0x00\n        /* \"contracts/4_Product.sol\":5806:5837  balances[msg.sender] -= _amount */\n      dup3\n      dup3\n      sload\n      tag_162\n      swap2\n      swap1\n      tag_163\n      jump\t// in\n    tag_162:\n      swap3\n      pop\n      pop\n      dup2\n      swap1\n      sstore\n      pop\n        /* \"contracts/4_Product.sol\":5865:5872  _amount */\n      dup2\n        /* \"contracts/4_Product.sol\":5848:5856  balances */\n      0x04\n        /* \"contracts/4_Product.sol\":5848:5861  balances[_to] */\n      0x00\n        /* \"contracts/4_Product.sol\":5857:5860  _to */\n      dup6\n        /* \"contracts/4_Product.sol\":5848:5861  balances[_to] */\n      0xffffffffffffffffffffffffffffffffffffffff\n      and\n      0xffffffffffffffffffffffffffffffffffffffff\n      and\n      dup2\n      mstore\n      0x20\n      add\n      swap1\n      dup2\n      mstore\n      0x20\n      add\n      0x00\n      keccak256\n      0x00\n        /* \"contracts/4_Product.sol\":5848:5872  balances[_to] += _amount */\n      dup3\n      dup3\n      sload\n      tag_164\n      swap2\n      swap1\n      tag_165\n      jump\t// in\n    tag_164:\n      swap3\n      pop\n      pop\n      dup2\n      swap1\n      sstore\n      pop\n        /* \"contracts/4_Product.sol\":5890:5894  true */\n      0x01\n        /* \"contracts/4_Product.sol\":5883:5894  return true */\n      swap1\n      pop\n        /* \"contracts/4_Product.sol\":5546:5902  function tokenTransfer(address _to, uint256 _amount) public returns (bool) {\r... */\n      swap3\n      swap2\n      pop\n      pop\n      jump\t// out\n        /* \"contracts/4_Product.sol\":114:134  string public symbol */\n    tag_48:\n      0x01\n      dup1\n      sload\n      tag_166\n      swap1\n      tag_92\n      jump\t// in\n    tag_166:\n      dup1\n      0x1f\n      add\n      0x20\n      dup1\n      swap2\n      div\n      mul\n      0x20\n      add\n      mload(0x40)\n      swap1\n      dup2\n      add\n      0x40\n      mstore\n      dup1\n      swap3\n      swap2\n      swap1\n      dup2\n      dup2\n      mstore\n      0x20\n      add\n      dup3\n      dup1\n      sload\n      tag_167\n      swap1\n      tag_92\n      jump\t// in\n    tag_167:\n      dup1\n      iszero\n      tag_168\n      jumpi\n      dup1\n      0x1f\n      lt\n      tag_169\n      jumpi\n      0x0100\n      dup1\n      dup4\n      sload\n      div\n      mul\n      dup4\n      mstore\n      swap2\n      0x20\n      add\n      swap2\n      jump(tag_168)\n    tag_169:\n      dup3\n      add\n      swap2\n      swap1\n      0x00\n      mstore\n      keccak256(0x00, 0x20)\n      swap1\n    tag_170:\n      dup2\n      sload\n      dup2\n      mstore\n      swap1\n      0x01\n      add\n      swap1\n      0x20\n      add\n      dup1\n      dup4\n      gt\n      tag_170\n      jumpi\n      dup3\n      swap1\n      sub\n      0x1f\n      and\n      dup3\n      add\n      swap2\n    tag_168:\n      pop\n      pop\n      pop\n      pop\n      pop\n      dup2\n      jump\t// out\n        /* \"contracts/4_Product.sol\":4500:4917  function burn(address _account, uint256 _amount) public OnlyTokenOwner {\r... */\n    tag_53:\n        /* \"contracts/4_Product.sol\":2720:2730  tokenOwner */\n      0x02\n      0x00\n      swap1\n      sload\n      swap1\n      0x0100\n      exp\n      swap1\n      div\n      0xffffffffffffffffffffffffffffffffffffffff\n      and\n        /* \"contracts/4_Product.sol\":2706:2730  msg.sender == tokenOwner */\n      0xffffffffffffffffffffffffffffffffffffffff\n      and\n        /* \"contracts/4_Product.sol\":2706:2716  msg.sender */\n      caller\n        /* \"contracts/4_Product.sol\":2706:2730  msg.sender == tokenOwner */\n      0xffffffffffffffffffffffffffffffffffffffff\n      and\n      eq\n        /* \"contracts/4_Product.sol\":2698:2765  require(msg.sender == tokenOwner, 'caller is not the token owner.') */\n      tag_172\n      jumpi\n      mload(0x40)\n      0x08c379a000000000000000000000000000000000000000000000000000000000\n      dup2\n      mstore\n      0x04\n      add\n      tag_173\n      swap1\n      tag_174\n      jump\t// in\n    tag_173:\n      mload(0x40)\n      dup1\n      swap2\n      sub\n      swap1\n      revert\n    tag_172:\n        /* \"contracts/4_Product.sol\":4610:4611  0 */\n      0x00\n        /* \"contracts/4_Product.sol\":4590:4612  _account != address(0) */\n      0xffffffffffffffffffffffffffffffffffffffff\n      and\n        /* \"contracts/4_Product.sol\":4590:4598  _account */\n      dup3\n        /* \"contracts/4_Product.sol\":4590:4612  _account != address(0) */\n      0xffffffffffffffffffffffffffffffffffffffff\n      and\n      eq\n      iszero\n        /* \"contracts/4_Product.sol\":4582:4613  require(_account != address(0)) */\n      tag_176\n      jumpi\n      0x00\n      dup1\n      revert\n    tag_176:\n        /* \"contracts/4_Product.sol\":4738:4746  balances */\n      0x04\n        /* \"contracts/4_Product.sol\":4738:4756  balances[_account] */\n      0x00\n        /* \"contracts/4_Product.sol\":4747:4755  _account */\n      dup4\n        /* \"contracts/4_Product.sol\":4738:4756  balances[_account] */\n      0xffffffffffffffffffffffffffffffffffffffff\n      and\n      0xffffffffffffffffffffffffffffffffffffffff\n      and\n      dup2\n      mstore\n      0x20\n      add\n      swap1\n      dup2\n      mstore\n      0x20\n      add\n      0x00\n      keccak256\n      sload\n        /* \"contracts/4_Product.sol\":4727:4734  _amount */\n      dup2\n        /* \"contracts/4_Product.sol\":4727:4756  _amount <= balances[_account] */\n      gt\n      iszero\n        /* \"contracts/4_Product.sol\":4719:4757  require(_amount <= balances[_account]) */\n      tag_177\n      jumpi\n      0x00\n      dup1\n      revert\n    tag_177:\n        /* \"contracts/4_Product.sol\":4862:4869  _amount */\n      dup1\n        /* \"contracts/4_Product.sol\":4846:4858  _totalSupply */\n      0x03\n      0x00\n        /* \"contracts/4_Product.sol\":4846:4869  _totalSupply -= _amount */\n      dup3\n      dup3\n      sload\n      tag_178\n      swap2\n      swap1\n      tag_163\n      jump\t// in\n    tag_178:\n      swap3\n      pop\n      pop\n      dup2\n      swap1\n      sstore\n      pop\n        /* \"contracts/4_Product.sol\":4902:4909  _amount */\n      dup1\n        /* \"contracts/4_Product.sol\":4880:4888  balances */\n      0x04\n        /* \"contracts/4_Product.sol\":4880:4898  balances[_account] */\n      0x00\n        /* \"contracts/4_Product.sol\":4889:4897  _account */\n      dup5\n        /* \"contracts/4_Product.sol\":4880:4898  balances[_account] */\n      0xffffffffffffffffffffffffffffffffffffffff\n      and\n      0xffffffffffffffffffffffffffffffffffffffff\n      and\n      dup2\n      mstore\n      0x20\n      add\n      swap1\n      dup2\n      mstore\n      0x20\n      add\n      0x00\n      keccak256\n      0x00\n        /* \"contracts/4_Product.sol\":4880:4909  balances[_account] -= _amount */\n      dup3\n      dup3\n      sload\n      tag_179\n      swap2\n      swap1\n      tag_163\n      jump\t// in\n    tag_179:\n      swap3\n      pop\n      pop\n      dup2\n      swap1\n      sstore\n      pop\n        /* \"contracts/4_Product.sol\":4500:4917  function burn(address _account, uint256 _amount) public OnlyTokenOwner {\r... */\n      pop\n      pop\n      jump\t// out\n        /* \"contracts/4_Product.sol\":4121:4343  function mint(uint256 _amount) public OnlyTokenOwner {\r... */\n    tag_58:\n        /* \"contracts/4_Product.sol\":2720:2730  tokenOwner */\n      0x02\n      0x00\n      swap1\n      sload\n      swap1\n      0x0100\n      exp\n      swap1\n      div\n      0xffffffffffffffffffffffffffffffffffffffff\n      and\n        /* \"contracts/4_Product.sol\":2706:2730  msg.sender == tokenOwner */\n      0xffffffffffffffffffffffffffffffffffffffff\n      and\n        /* \"contracts/4_Product.sol\":2706:2716  msg.sender */\n      caller\n        /* \"contracts/4_Product.sol\":2706:2730  msg.sender == tokenOwner */\n      0xffffffffffffffffffffffffffffffffffffffff\n      and\n      eq\n        /* \"contracts/4_Product.sol\":2698:2765  require(msg.sender == tokenOwner, 'caller is not the token owner.') */\n      tag_181\n      jumpi\n      mload(0x40)\n      0x08c379a000000000000000000000000000000000000000000000000000000000\n      dup2\n      mstore\n      0x04\n      add\n      tag_182\n      swap1\n      tag_174\n      jump\t// in\n    tag_182:\n      mload(0x40)\n      dup1\n      swap2\n      sub\n      swap1\n      revert\n    tag_181:\n        /* \"contracts/4_Product.sol\":4201:4208  _amount */\n      dup1\n        /* \"contracts/4_Product.sol\":4185:4197  _totalSupply */\n      0x03\n      0x00\n        /* \"contracts/4_Product.sol\":4185:4208  _totalSupply += _amount */\n      dup3\n      dup3\n      sload\n      tag_184\n      swap2\n      swap1\n      tag_165\n      jump\t// in\n    tag_184:\n      swap3\n      pop\n      pop\n      dup2\n      swap1\n      sstore\n      pop\n        /* \"contracts/4_Product.sol\":4279:4286  _amount */\n      dup1\n        /* \"contracts/4_Product.sol\":4255:4263  balances */\n      0x04\n        /* \"contracts/4_Product.sol\":4255:4275  balances[msg.sender] */\n      0x00\n        /* \"contracts/4_Product.sol\":4264:4274  msg.sender */\n      caller\n        /* \"contracts/4_Product.sol\":4255:4275  balances[msg.sender] */\n      0xffffffffffffffffffffffffffffffffffffffff\n      and\n      0xffffffffffffffffffffffffffffffffffffffff\n      and\n      dup2\n      mstore\n      0x20\n      add\n      swap1\n      dup2\n      mstore\n      0x20\n      add\n      0x00\n      keccak256\n      0x00\n        /* \"contracts/4_Product.sol\":4255:4286  balances[msg.sender] += _amount */\n      dup3\n      dup3\n      sload\n      tag_185\n      swap2\n      swap1\n      tag_165\n      jump\t// in\n    tag_185:\n      swap3\n      pop\n      pop\n      dup2\n      swap1\n      sstore\n      pop\n        /* \"contracts/4_Product.sol\":4121:4343  function mint(uint256 _amount) public OnlyTokenOwner {\r... */\n      pop\n      jump\t// out\n        /* \"contracts/4_Product.sol\":165:199  address payable public  tokenOwner */\n    tag_61:\n      0x02\n      0x00\n      swap1\n      sload\n      swap1\n      0x0100\n      exp\n      swap1\n      div\n      0xffffffffffffffffffffffffffffffffffffffff\n      and\n      dup2\n      jump\t// out\n        /* \"contracts/4_Product.sol\":4975:5472  function buyToken() public payable {\r... */\n    tag_65:\n        /* \"contracts/4_Product.sol\":5020:5036  uint256 tokenNum */\n      0x00\n        /* \"contracts/4_Product.sol\":287:290  100 */\n      0x64\n        /* \"contracts/4_Product.sol\":5039:5048  msg.value */\n      callvalue\n        /* \"contracts/4_Product.sol\":5039:5059  msg.value/tokenPrice */\n      tag_187\n      swap2\n      swap1\n      tag_188\n      jump\t// in\n    tag_187:\n        /* \"contracts/4_Product.sol\":5020:5059  uint256 tokenNum = msg.value/tokenPrice */\n      swap1\n      pop\n        /* \"contracts/4_Product.sol\":5121:5122  0 */\n      0x00\n        /* \"contracts/4_Product.sol\":5109:5118  msg.value */\n      callvalue\n        /* \"contracts/4_Product.sol\":5109:5122  msg.value > 0 */\n      gt\n        /* \"contracts/4_Product.sol\":5101:5123  require(msg.value > 0) */\n      tag_189\n      jumpi\n      0x00\n      dup1\n      revert\n    tag_189:\n        /* \"contracts/4_Product.sol\":5171:5181  tokenOwner */\n      0x02\n      0x00\n      swap1\n      sload\n      swap1\n      0x0100\n      exp\n      swap1\n      div\n      0xffffffffffffffffffffffffffffffffffffffff\n      and\n        /* \"contracts/4_Product.sol\":5171:5190  tokenOwner.transfer */\n      0xffffffffffffffffffffffffffffffffffffffff\n      and\n        /* \"contracts/4_Product.sol\":5171:5201  tokenOwner.transfer(msg.value) */\n      0x08fc\n        /* \"contracts/4_Product.sol\":5191:5200  msg.value */\n      callvalue\n        /* \"contracts/4_Product.sol\":5171:5201  tokenOwner.transfer(msg.value) */\n      swap1\n      dup2\n      iszero\n      mul\n      swap1\n      mload(0x40)\n      0x00\n      mload(0x40)\n      dup1\n      dup4\n      sub\n      dup2\n      dup6\n      dup9\n      dup9\n      call\n      swap4\n      pop\n      pop\n      pop\n      pop\n      iszero\n      dup1\n      iszero\n      tag_191\n      jumpi\n      returndatasize\n      0x00\n      dup1\n      returndatacopy\n      revert(0x00, returndatasize)\n    tag_191:\n      pop\n        /* \"contracts/4_Product.sol\":5301:5309  tokenNum */\n      dup1\n        /* \"contracts/4_Product.sol\":5277:5285  balances */\n      0x04\n        /* \"contracts/4_Product.sol\":5277:5297  balances[tokenOwner] */\n      0x00\n        /* \"contracts/4_Product.sol\":5286:5296  tokenOwner */\n      0x02\n      0x00\n      swap1\n      sload\n      swap1\n      0x0100\n      exp\n      swap1\n      div\n      0xffffffffffffffffffffffffffffffffffffffff\n      and\n        /* \"contracts/4_Product.sol\":5277:5297  balances[tokenOwner] */\n      0xffffffffffffffffffffffffffffffffffffffff\n      and\n      0xffffffffffffffffffffffffffffffffffffffff\n      and\n      dup2\n      mstore\n      0x20\n      add\n      swap1\n      dup2\n      mstore\n      0x20\n      add\n      0x00\n      keccak256\n      0x00\n        /* \"contracts/4_Product.sol\":5277:5309  balances[tokenOwner] -= tokenNum */\n      dup3\n      dup3\n      sload\n      tag_192\n      swap2\n      swap1\n      tag_163\n      jump\t// in\n    tag_192:\n      swap3\n      pop\n      pop\n      dup2\n      swap1\n      sstore\n      pop\n        /* \"contracts/4_Product.sol\":5402:5410  tokenNum */\n      dup1\n        /* \"contracts/4_Product.sol\":5378:5386  balances */\n      0x04\n        /* \"contracts/4_Product.sol\":5378:5398  balances[msg.sender] */\n      0x00\n        /* \"contracts/4_Product.sol\":5387:5397  msg.sender */\n      caller\n        /* \"contracts/4_Product.sol\":5378:5398  balances[msg.sender] */\n      0xffffffffffffffffffffffffffffffffffffffff\n      and\n      0xffffffffffffffffffffffffffffffffffffffff\n      and\n      dup2\n      mstore\n      0x20\n      add\n      swap1\n      dup2\n      mstore\n      0x20\n      add\n      0x00\n      keccak256\n      0x00\n        /* \"contracts/4_Product.sol\":5378:5410  balances[msg.sender] += tokenNum */\n      dup3\n      dup3\n      sload\n      tag_193\n      swap2\n      swap1\n      tag_165\n      jump\t// in\n    tag_193:\n      swap3\n      pop\n      pop\n      dup2\n      swap1\n      sstore\n      pop\n        /* \"contracts/4_Product.sol\":5010:5472  {\r... */\n      pop\n        /* \"contracts/4_Product.sol\":4975:5472  function buyToken() public payable {\r... */\n      jump\t// out\n        /* \"contracts/4_Product.sol\":9599:9775  function getActorInfo(address _addr) public view returns\r... */\n    tag_70:\n        /* \"contracts/4_Product.sol\":9664:9674  Role _role */\n      0x00\n        /* \"contracts/4_Product.sol\":9681:9700  string memory _name */\n      0x60\n        /* \"contracts/4_Product.sol\":9720:9726  actors */\n      0x05\n        /* \"contracts/4_Product.sol\":9720:9733  actors[_addr] */\n      0x00\n        /* \"contracts/4_Product.sol\":9727:9732  _addr */\n      dup5\n        /* \"contracts/4_Product.sol\":9720:9733  actors[_addr] */\n      0xffffffffffffffffffffffffffffffffffffffff\n      and\n      0xffffffffffffffffffffffffffffffffffffffff\n      and\n      dup2\n      mstore\n      0x20\n      add\n      swap1\n      dup2\n      mstore\n      0x20\n      add\n      0x00\n      keccak256\n        /* \"contracts/4_Product.sol\":9720:9738  actors[_addr].role */\n      0x00\n      add\n      0x00\n      swap1\n      sload\n      swap1\n      0x0100\n      exp\n      swap1\n      div\n      0xff\n      and\n        /* \"contracts/4_Product.sol\":9712:9738  _role = actors[_addr].role */\n      swap2\n      pop\n        /* \"contracts/4_Product.sol\":9753:9759  actors */\n      0x05\n        /* \"contracts/4_Product.sol\":9753:9766  actors[_addr] */\n      0x00\n        /* \"contracts/4_Product.sol\":9760:9765  _addr */\n      dup5\n        /* \"contracts/4_Product.sol\":9753:9766  actors[_addr] */\n      0xffffffffffffffffffffffffffffffffffffffff\n      and\n      0xffffffffffffffffffffffffffffffffffffffff\n      and\n      dup2\n      mstore\n      0x20\n      add\n      swap1\n      dup2\n      mstore\n      0x20\n      add\n      0x00\n      keccak256\n        /* \"contracts/4_Product.sol\":9753:9771  actors[_addr].name */\n      0x01\n      add\n        /* \"contracts/4_Product.sol\":9745:9771  _name = actors[_addr].name */\n      dup1\n      sload\n      tag_195\n      swap1\n      tag_92\n      jump\t// in\n    tag_195:\n      dup1\n      0x1f\n      add\n      0x20\n      dup1\n      swap2\n      div\n      mul\n      0x20\n      add\n      mload(0x40)\n      swap1\n      dup2\n      add\n      0x40\n      mstore\n      dup1\n      swap3\n      swap2\n      swap1\n      dup2\n      dup2\n      mstore\n      0x20\n      add\n      dup3\n      dup1\n      sload\n      tag_196\n      swap1\n      tag_92\n      jump\t// in\n    tag_196:\n      dup1\n      iszero\n      tag_197\n      jumpi\n      dup1\n      0x1f\n      lt\n      tag_198\n      jumpi\n      0x0100\n      dup1\n      dup4\n      sload\n      div\n      mul\n      dup4\n      mstore\n      swap2\n      0x20\n      add\n      swap2\n      jump(tag_197)\n    tag_198:\n      dup3\n      add\n      swap2\n      swap1\n      0x00\n      mstore\n      keccak256(0x00, 0x20)\n      swap1\n    tag_199:\n      dup2\n      sload\n      dup2\n      mstore\n      swap1\n      0x01\n      add\n      swap1\n      0x20\n      add\n      dup1\n      dup4\n      gt\n      tag_199\n      jumpi\n      dup3\n      swap1\n      sub\n      0x1f\n      and\n      dup3\n      add\n      swap2\n    tag_197:\n      pop\n      pop\n      pop\n      pop\n      pop\n      swap1\n      pop\n        /* \"contracts/4_Product.sol\":9599:9775  function getActorInfo(address _addr) public view returns\r... */\n      swap2\n      pop\n      swap2\n      jump\t// out\n        /* \"contracts/4_Product.sol\":3899:4005  function etherBalance(address _addr) public view returns (uint256) {\r... */\n    tag_76:\n        /* \"contracts/4_Product.sol\":3957:3964  uint256 */\n      0x00\n        /* \"contracts/4_Product.sol\":3984:3989  _addr */\n      dup2\n        /* \"contracts/4_Product.sol\":3984:3997  _addr.balance */\n      0xffffffffffffffffffffffffffffffffffffffff\n      and\n      balance\n        /* \"contracts/4_Product.sol\":3977:3997  return _addr.balance */\n      swap1\n      pop\n        /* \"contracts/4_Product.sol\":3899:4005  function etherBalance(address _addr) public view returns (uint256) {\r... */\n      swap2\n      swap1\n      pop\n      jump\t// out\n        /* \"contracts/4_Product.sol\":8140:8792  function getProductInfo(uint256 _id, uint256 _timestamp) public view returns \r... */\n    tag_83:\n        /* \"contracts/4_Product.sol\":8230:8245  uint256 fish_id */\n      0x00\n        /* \"contracts/4_Product.sol\":8253:8270  address fisher_id */\n      dup1\n        /* \"contracts/4_Product.sol\":8278:8294  address owner_id */\n      0x00\n        /* \"contracts/4_Product.sol\":8302:8327  string memory fish_origin */\n      0x60\n        /* \"contracts/4_Product.sol\":8357:8374  string memory lat */\n      dup1\n        /* \"contracts/4_Product.sol\":8382:8399  string memory log */\n      0x60\n        /* \"contracts/4_Product.sol\":8407:8419  bool quality */\n      0x00\n        /* \"contracts/4_Product.sol\":8427:8445  State currentState */\n      dup1\n        /* \"contracts/4_Product.sol\":8140:8792  function getProductInfo(uint256 _id, uint256 _timestamp) public view returns \r... */\n      swap3\n      swap6\n      swap9\n      pop\n      swap3\n      swap6\n      swap9\n      swap1\n      swap4\n      swap7\n      pop\n      jump\t// out\n        /* \"contracts/4_Product.sol\":3725:3833  function tokenBalance(address _addr) public view returns (uint256) {\r... */\n    tag_89:\n        /* \"contracts/4_Product.sol\":3783:3790  uint256 */\n      0x00\n        /* \"contracts/4_Product.sol\":3810:3818  balances */\n      0x04\n        /* \"contracts/4_Product.sol\":3810:3825  balances[_addr] */\n      0x00\n        /* \"contracts/4_Product.sol\":3819:3824  _addr */\n      dup4\n        /* \"contracts/4_Product.sol\":3810:3825  balances[_addr] */\n      0xffffffffffffffffffffffffffffffffffffffff\n      and\n      0xffffffffffffffffffffffffffffffffffffffff\n      and\n      dup2\n      mstore\n      0x20\n      add\n      swap1\n      dup2\n      mstore\n      0x20\n      add\n      0x00\n      keccak256\n      sload\n        /* \"contracts/4_Product.sol\":3803:3825  return balances[_addr] */\n      swap1\n      pop\n        /* \"contracts/4_Product.sol\":3725:3833  function tokenBalance(address _addr) public view returns (uint256) {\r... */\n      swap2\n      swap1\n      pop\n      jump\t// out\n    tag_115:\n      dup3\n      dup1\n      sload\n      tag_203\n      swap1\n      tag_92\n      jump\t// in\n    tag_203:\n      swap1\n      0x00\n      mstore\n      keccak256(0x00, 0x20)\n      swap1\n      0x1f\n      add\n      0x20\n      swap1\n      div\n      dup2\n      add\n      swap3\n      dup3\n      tag_205\n      jumpi\n      0x00\n      dup6\n      sstore\n      jump(tag_204)\n    tag_205:\n      dup3\n      0x1f\n      lt\n      tag_206\n      jumpi\n      dup1\n      mload\n      not(0xff)\n      and\n      dup4\n      dup1\n      add\n      or\n      dup6\n      sstore\n      jump(tag_204)\n    tag_206:\n      dup3\n      dup1\n      add\n      0x01\n      add\n      dup6\n      sstore\n      dup3\n      iszero\n      tag_204\n      jumpi\n      swap2\n      dup3\n      add\n    tag_207:\n      dup3\n      dup2\n      gt\n      iszero\n      tag_208\n      jumpi\n      dup3\n      mload\n      dup3\n      sstore\n      swap2\n      0x20\n      add\n      swap2\n      swap1\n      0x01\n      add\n      swap1\n      jump(tag_207)\n    tag_208:\n    tag_204:\n      pop\n      swap1\n      pop\n      tag_209\n      swap2\n      swap1\n      tag_210\n      jump\t// in\n    tag_209:\n      pop\n      swap1\n      jump\t// out\n    tag_210:\n    tag_211:\n      dup1\n      dup3\n      gt\n      iszero\n      tag_212\n      jumpi\n      0x00\n      dup2\n      0x00\n      swap1\n      sstore\n      pop\n      0x01\n      add\n      jump(tag_211)\n    tag_212:\n      pop\n      swap1\n      jump\t// out\n        /* \"#utility.yul\":7:419   */\n    tag_214:\n        /* \"#utility.yul\":85:90   */\n      0x00\n        /* \"#utility.yul\":110:176   */\n      tag_216\n        /* \"#utility.yul\":126:175   */\n      tag_217\n        /* \"#utility.yul\":168:174   */\n      dup5\n        /* \"#utility.yul\":126:175   */\n      tag_218\n      jump\t// in\n    tag_217:\n        /* \"#utility.yul\":110:176   */\n      tag_219\n      jump\t// in\n    tag_216:\n        /* \"#utility.yul\":101:176   */\n      swap1\n      pop\n        /* \"#utility.yul\":199:205   */\n      dup3\n        /* \"#utility.yul\":192:197   */\n      dup2\n        /* \"#utility.yul\":185:206   */\n      mstore\n        /* \"#utility.yul\":237:241   */\n      0x20\n        /* \"#utility.yul\":230:235   */\n      dup2\n        /* \"#utility.yul\":226:242   */\n      add\n        /* \"#utility.yul\":275:278   */\n      dup5\n        /* \"#utility.yul\":266:272   */\n      dup5\n        /* \"#utility.yul\":261:264   */\n      dup5\n        /* \"#utility.yul\":257:273   */\n      add\n        /* \"#utility.yul\":254:279   */\n      gt\n        /* \"#utility.yul\":251:363   */\n      iszero\n      tag_220\n      jumpi\n        /* \"#utility.yul\":282:361   */\n      tag_221\n      tag_222\n      jump\t// in\n    tag_221:\n        /* \"#utility.yul\":251:363   */\n    tag_220:\n        /* \"#utility.yul\":372:413   */\n      tag_223\n        /* \"#utility.yul\":406:412   */\n      dup5\n        /* \"#utility.yul\":401:404   */\n      dup3\n        /* \"#utility.yul\":396:399   */\n      dup6\n        /* \"#utility.yul\":372:413   */\n      tag_224\n      jump\t// in\n    tag_223:\n        /* \"#utility.yul\":91:419   */\n      pop\n        /* \"#utility.yul\":7:419   */\n      swap4\n      swap3\n      pop\n      pop\n      pop\n      jump\t// out\n        /* \"#utility.yul\":425:564   */\n    tag_225:\n        /* \"#utility.yul\":471:476   */\n      0x00\n        /* \"#utility.yul\":509:515   */\n      dup2\n        /* \"#utility.yul\":496:516   */\n      calldataload\n        /* \"#utility.yul\":487:516   */\n      swap1\n      pop\n        /* \"#utility.yul\":525:558   */\n      tag_227\n        /* \"#utility.yul\":552:557   */\n      dup2\n        /* \"#utility.yul\":525:558   */\n      tag_228\n      jump\t// in\n    tag_227:\n        /* \"#utility.yul\":425:564   */\n      swap3\n      swap2\n      pop\n      pop\n      jump\t// out\n        /* \"#utility.yul\":570:723   */\n    tag_229:\n        /* \"#utility.yul\":623:628   */\n      0x00\n        /* \"#utility.yul\":661:667   */\n      dup2\n        /* \"#utility.yul\":648:668   */\n      calldataload\n        /* \"#utility.yul\":639:668   */\n      swap1\n      pop\n        /* \"#utility.yul\":677:717   */\n      tag_231\n        /* \"#utility.yul\":711:716   */\n      dup2\n        /* \"#utility.yul\":677:717   */\n      tag_232\n      jump\t// in\n    tag_231:\n        /* \"#utility.yul\":570:723   */\n      swap3\n      swap2\n      pop\n      pop\n      jump\t// out\n        /* \"#utility.yul\":729:866   */\n    tag_233:\n        /* \"#utility.yul\":774:779   */\n      0x00\n        /* \"#utility.yul\":812:818   */\n      dup2\n        /* \"#utility.yul\":799:819   */\n      calldataload\n        /* \"#utility.yul\":790:819   */\n      swap1\n      pop\n        /* \"#utility.yul\":828:860   */\n      tag_235\n        /* \"#utility.yul\":854:859   */\n      dup2\n        /* \"#utility.yul\":828:860   */\n      tag_236\n      jump\t// in\n    tag_235:\n        /* \"#utility.yul\":729:866   */\n      swap3\n      swap2\n      pop\n      pop\n      jump\t// out\n        /* \"#utility.yul\":886:1226   */\n    tag_237:\n        /* \"#utility.yul\":942:947   */\n      0x00\n        /* \"#utility.yul\":991:994   */\n      dup3\n        /* \"#utility.yul\":984:988   */\n      0x1f\n        /* \"#utility.yul\":976:982   */\n      dup4\n        /* \"#utility.yul\":972:989   */\n      add\n        /* \"#utility.yul\":968:995   */\n      slt\n        /* \"#utility.yul\":958:1080   */\n      tag_239\n      jumpi\n        /* \"#utility.yul\":999:1078   */\n      tag_240\n      tag_241\n      jump\t// in\n    tag_240:\n        /* \"#utility.yul\":958:1080   */\n    tag_239:\n        /* \"#utility.yul\":1116:1122   */\n      dup2\n        /* \"#utility.yul\":1103:1123   */\n      calldataload\n        /* \"#utility.yul\":1141:1220   */\n      tag_242\n        /* \"#utility.yul\":1216:1219   */\n      dup5\n        /* \"#utility.yul\":1208:1214   */\n      dup3\n        /* \"#utility.yul\":1201:1205   */\n      0x20\n        /* \"#utility.yul\":1193:1199   */\n      dup7\n        /* \"#utility.yul\":1189:1206   */\n      add\n        /* \"#utility.yul\":1141:1220   */\n      tag_214\n      jump\t// in\n    tag_242:\n        /* \"#utility.yul\":1132:1220   */\n      swap2\n      pop\n        /* \"#utility.yul\":948:1226   */\n      pop\n        /* \"#utility.yul\":886:1226   */\n      swap3\n      swap2\n      pop\n      pop\n      jump\t// out\n        /* \"#utility.yul\":1232:1371   */\n    tag_243:\n        /* \"#utility.yul\":1278:1283   */\n      0x00\n        /* \"#utility.yul\":1316:1322   */\n      dup2\n        /* \"#utility.yul\":1303:1323   */\n      calldataload\n        /* \"#utility.yul\":1294:1323   */\n      swap1\n      pop\n        /* \"#utility.yul\":1332:1365   */\n      tag_245\n        /* \"#utility.yul\":1359:1364   */\n      dup2\n        /* \"#utility.yul\":1332:1365   */\n      tag_246\n      jump\t// in\n    tag_245:\n        /* \"#utility.yul\":1232:1371   */\n      swap3\n      swap2\n      pop\n      pop\n      jump\t// out\n        /* \"#utility.yul\":1377:1706   */\n    tag_69:\n        /* \"#utility.yul\":1436:1442   */\n      0x00\n        /* \"#utility.yul\":1485:1487   */\n      0x20\n        /* \"#utility.yul\":1473:1482   */\n      dup3\n        /* \"#utility.yul\":1464:1471   */\n      dup5\n        /* \"#utility.yul\":1460:1483   */\n      sub\n        /* \"#utility.yul\":1456:1488   */\n      slt\n        /* \"#utility.yul\":1453:1572   */\n      iszero\n      tag_248\n      jumpi\n        /* \"#utility.yul\":1491:1570   */\n      tag_249\n      tag_250\n      jump\t// in\n    tag_249:\n        /* \"#utility.yul\":1453:1572   */\n    tag_248:\n        /* \"#utility.yul\":1611:1612   */\n      0x00\n        /* \"#utility.yul\":1636:1689   */\n      tag_251\n        /* \"#utility.yul\":1681:1688   */\n      dup5\n        /* \"#utility.yul\":1672:1678   */\n      dup3\n        /* \"#utility.yul\":1661:1670   */\n      dup6\n        /* \"#utility.yul\":1657:1679   */\n      add\n        /* \"#utility.yul\":1636:1689   */\n      tag_225\n      jump\t// in\n    tag_251:\n        /* \"#utility.yul\":1626:1689   */\n      swap2\n      pop\n        /* \"#utility.yul\":1582:1699   */\n      pop\n        /* \"#utility.yul\":1377:1706   */\n      swap3\n      swap2\n      pop\n      pop\n      jump\t// out\n        /* \"#utility.yul\":1712:2525   */\n    tag_27:\n        /* \"#utility.yul\":1806:1812   */\n      0x00\n        /* \"#utility.yul\":1814:1820   */\n      dup1\n        /* \"#utility.yul\":1822:1828   */\n      0x00\n        /* \"#utility.yul\":1871:1873   */\n      0x60\n        /* \"#utility.yul\":1859:1868   */\n      dup5\n        /* \"#utility.yul\":1850:1857   */\n      dup7\n        /* \"#utility.yul\":1846:1869   */\n      sub\n        /* \"#utility.yul\":1842:1874   */\n      slt\n        /* \"#utility.yul\":1839:1958   */\n      iszero\n      tag_253\n      jumpi\n        /* \"#utility.yul\":1877:1956   */\n      tag_254\n      tag_250\n      jump\t// in\n    tag_254:\n        /* \"#utility.yul\":1839:1958   */\n    tag_253:\n        /* \"#utility.yul\":1997:1998   */\n      0x00\n        /* \"#utility.yul\":2022:2075   */\n      tag_255\n        /* \"#utility.yul\":2067:2074   */\n      dup7\n        /* \"#utility.yul\":2058:2064   */\n      dup3\n        /* \"#utility.yul\":2047:2056   */\n      dup8\n        /* \"#utility.yul\":2043:2065   */\n      add\n        /* \"#utility.yul\":2022:2075   */\n      tag_225\n      jump\t// in\n    tag_255:\n        /* \"#utility.yul\":2012:2075   */\n      swap4\n      pop\n        /* \"#utility.yul\":1968:2085   */\n      pop\n        /* \"#utility.yul\":2124:2126   */\n      0x20\n        /* \"#utility.yul\":2150:2210   */\n      tag_256\n        /* \"#utility.yul\":2202:2209   */\n      dup7\n        /* \"#utility.yul\":2193:2199   */\n      dup3\n        /* \"#utility.yul\":2182:2191   */\n      dup8\n        /* \"#utility.yul\":2178:2200   */\n      add\n        /* \"#utility.yul\":2150:2210   */\n      tag_229\n      jump\t// in\n    tag_256:\n        /* \"#utility.yul\":2140:2210   */\n      swap3\n      pop\n        /* \"#utility.yul\":2095:2220   */\n      pop\n        /* \"#utility.yul\":2287:2289   */\n      0x40\n        /* \"#utility.yul\":2276:2285   */\n      dup5\n        /* \"#utility.yul\":2272:2290   */\n      add\n        /* \"#utility.yul\":2259:2291   */\n      calldataload\n        /* \"#utility.yul\":2318:2336   */\n      0xffffffffffffffff\n        /* \"#utility.yul\":2310:2316   */\n      dup2\n        /* \"#utility.yul\":2307:2337   */\n      gt\n        /* \"#utility.yul\":2304:2421   */\n      iszero\n      tag_257\n      jumpi\n        /* \"#utility.yul\":2340:2419   */\n      tag_258\n      tag_259\n      jump\t// in\n    tag_258:\n        /* \"#utility.yul\":2304:2421   */\n    tag_257:\n        /* \"#utility.yul\":2445:2508   */\n      tag_260\n        /* \"#utility.yul\":2500:2507   */\n      dup7\n        /* \"#utility.yul\":2491:2497   */\n      dup3\n        /* \"#utility.yul\":2480:2489   */\n      dup8\n        /* \"#utility.yul\":2476:2498   */\n      add\n        /* \"#utility.yul\":2445:2508   */\n      tag_237\n      jump\t// in\n    tag_260:\n        /* \"#utility.yul\":2435:2508   */\n      swap2\n      pop\n        /* \"#utility.yul\":2230:2518   */\n      pop\n        /* \"#utility.yul\":1712:2525   */\n      swap3\n      pop\n      swap3\n      pop\n      swap3\n      jump\t// out\n        /* \"#utility.yul\":2531:3005   */\n    tag_42:\n        /* \"#utility.yul\":2599:2605   */\n      0x00\n        /* \"#utility.yul\":2607:2613   */\n      dup1\n        /* \"#utility.yul\":2656:2658   */\n      0x40\n        /* \"#utility.yul\":2644:2653   */\n      dup4\n        /* \"#utility.yul\":2635:2642   */\n      dup6\n        /* \"#utility.yul\":2631:2654   */\n      sub\n        /* \"#utility.yul\":2627:2659   */\n      slt\n        /* \"#utility.yul\":2624:2743   */\n      iszero\n      tag_262\n      jumpi\n        /* \"#utility.yul\":2662:2741   */\n      tag_263\n      tag_250\n      jump\t// in\n    tag_263:\n        /* \"#utility.yul\":2624:2743   */\n    tag_262:\n        /* \"#utility.yul\":2782:2783   */\n      0x00\n        /* \"#utility.yul\":2807:2860   */\n      tag_264\n        /* \"#utility.yul\":2852:2859   */\n      dup6\n        /* \"#utility.yul\":2843:2849   */\n      dup3\n        /* \"#utility.yul\":2832:2841   */\n      dup7\n        /* \"#utility.yul\":2828:2850   */\n      add\n        /* \"#utility.yul\":2807:2860   */\n      tag_225\n      jump\t// in\n    tag_264:\n        /* \"#utility.yul\":2797:2860   */\n      swap3\n      pop\n        /* \"#utility.yul\":2753:2870   */\n      pop\n        /* \"#utility.yul\":2909:2911   */\n      0x20\n        /* \"#utility.yul\":2935:2988   */\n      tag_265\n        /* \"#utility.yul\":2980:2987   */\n      dup6\n        /* \"#utility.yul\":2971:2977   */\n      dup3\n        /* \"#utility.yul\":2960:2969   */\n      dup7\n        /* \"#utility.yul\":2956:2978   */\n      add\n        /* \"#utility.yul\":2935:2988   */\n      tag_243\n      jump\t// in\n    tag_265:\n        /* \"#utility.yul\":2925:2988   */\n      swap2\n      pop\n        /* \"#utility.yul\":2880:2998   */\n      pop\n        /* \"#utility.yul\":2531:3005   */\n      swap3\n      pop\n      swap3\n      swap1\n      pop\n      jump\t// out\n        /* \"#utility.yul\":3011:3340   */\n    tag_57:\n        /* \"#utility.yul\":3070:3076   */\n      0x00\n        /* \"#utility.yul\":3119:3121   */\n      0x20\n        /* \"#utility.yul\":3107:3116   */\n      dup3\n        /* \"#utility.yul\":3098:3105   */\n      dup5\n        /* \"#utility.yul\":3094:3117   */\n      sub\n        /* \"#utility.yul\":3090:3122   */\n      slt\n        /* \"#utility.yul\":3087:3206   */\n      iszero\n      tag_267\n      jumpi\n        /* \"#utility.yul\":3125:3204   */\n      tag_268\n      tag_250\n      jump\t// in\n    tag_268:\n        /* \"#utility.yul\":3087:3206   */\n    tag_267:\n        /* \"#utility.yul\":3245:3246   */\n      0x00\n        /* \"#utility.yul\":3270:3323   */\n      tag_269\n        /* \"#utility.yul\":3315:3322   */\n      dup5\n        /* \"#utility.yul\":3306:3312   */\n      dup3\n        /* \"#utility.yul\":3295:3304   */\n      dup6\n        /* \"#utility.yul\":3291:3313   */\n      add\n        /* \"#utility.yul\":3270:3323   */\n      tag_243\n      jump\t// in\n    tag_269:\n        /* \"#utility.yul\":3260:3323   */\n      swap2\n      pop\n        /* \"#utility.yul\":3216:3333   */\n      pop\n        /* \"#utility.yul\":3011:3340   */\n      swap3\n      swap2\n      pop\n      pop\n      jump\t// out\n        /* \"#utility.yul\":3346:3820   */\n    tag_82:\n        /* \"#utility.yul\":3414:3420   */\n      0x00\n        /* \"#utility.yul\":3422:3428   */\n      dup1\n        /* \"#utility.yul\":3471:3473   */\n      0x40\n        /* \"#utility.yul\":3459:3468   */\n      dup4\n        /* \"#utility.yul\":3450:3457   */\n      dup6\n        /* \"#utility.yul\":3446:3469   */\n      sub\n        /* \"#utility.yul\":3442:3474   */\n      slt\n        /* \"#utility.yul\":3439:3558   */\n      iszero\n      tag_271\n      jumpi\n        /* \"#utility.yul\":3477:3556   */\n      tag_272\n      tag_250\n      jump\t// in\n    tag_272:\n        /* \"#utility.yul\":3439:3558   */\n    tag_271:\n        /* \"#utility.yul\":3597:3598   */\n      0x00\n        /* \"#utility.yul\":3622:3675   */\n      tag_273\n        /* \"#utility.yul\":3667:3674   */\n      dup6\n        /* \"#utility.yul\":3658:3664   */\n      dup3\n        /* \"#utility.yul\":3647:3656   */\n      dup7\n        /* \"#utility.yul\":3643:3665   */\n      add\n        /* \"#utility.yul\":3622:3675   */\n      tag_243\n      jump\t// in\n    tag_273:\n        /* \"#utility.yul\":3612:3675   */\n      swap3\n      pop\n        /* \"#utility.yul\":3568:3685   */\n      pop\n        /* \"#utility.yul\":3724:3726   */\n      0x20\n        /* \"#utility.yul\":3750:3803   */\n      tag_274\n        /* \"#utility.yul\":3795:3802   */\n      dup6\n        /* \"#utility.yul\":3786:3792   */\n      dup3\n        /* \"#utility.yul\":3775:3784   */\n      dup7\n        /* \"#utility.yul\":3771:3793   */\n      add\n        /* \"#utility.yul\":3750:3803   */\n      tag_243\n      jump\t// in\n    tag_274:\n        /* \"#utility.yul\":3740:3803   */\n      swap2\n      pop\n        /* \"#utility.yul\":3695:3813   */\n      pop\n        /* \"#utility.yul\":3346:3820   */\n      swap3\n      pop\n      swap3\n      swap1\n      pop\n      jump\t// out\n        /* \"#utility.yul\":3826:5095   */\n    tag_32:\n        /* \"#utility.yul\":3940:3946   */\n      0x00\n        /* \"#utility.yul\":3948:3954   */\n      dup1\n        /* \"#utility.yul\":3956:3962   */\n      0x00\n        /* \"#utility.yul\":3964:3970   */\n      dup1\n        /* \"#utility.yul\":3972:3978   */\n      0x00\n        /* \"#utility.yul\":4021:4024   */\n      0xa0\n        /* \"#utility.yul\":4009:4018   */\n      dup7\n        /* \"#utility.yul\":4000:4007   */\n      dup9\n        /* \"#utility.yul\":3996:4019   */\n      sub\n        /* \"#utility.yul\":3992:4025   */\n      slt\n        /* \"#utility.yul\":3989:4109   */\n      iszero\n      tag_276\n      jumpi\n        /* \"#utility.yul\":4028:4107   */\n      tag_277\n      tag_250\n      jump\t// in\n    tag_277:\n        /* \"#utility.yul\":3989:4109   */\n    tag_276:\n        /* \"#utility.yul\":4148:4149   */\n      0x00\n        /* \"#utility.yul\":4173:4226   */\n      tag_278\n        /* \"#utility.yul\":4218:4225   */\n      dup9\n        /* \"#utility.yul\":4209:4215   */\n      dup3\n        /* \"#utility.yul\":4198:4207   */\n      dup10\n        /* \"#utility.yul\":4194:4216   */\n      add\n        /* \"#utility.yul\":4173:4226   */\n      tag_243\n      jump\t// in\n    tag_278:\n        /* \"#utility.yul\":4163:4226   */\n      swap6\n      pop\n        /* \"#utility.yul\":4119:4236   */\n      pop\n        /* \"#utility.yul\":4275:4277   */\n      0x20\n        /* \"#utility.yul\":4301:4354   */\n      tag_279\n        /* \"#utility.yul\":4346:4353   */\n      dup9\n        /* \"#utility.yul\":4337:4343   */\n      dup3\n        /* \"#utility.yul\":4326:4335   */\n      dup10\n        /* \"#utility.yul\":4322:4344   */\n      add\n        /* \"#utility.yul\":4301:4354   */\n      tag_243\n      jump\t// in\n    tag_279:\n        /* \"#utility.yul\":4291:4354   */\n      swap5\n      pop\n        /* \"#utility.yul\":4246:4364   */\n      pop\n        /* \"#utility.yul\":4431:4433   */\n      0x40\n        /* \"#utility.yul\":4420:4429   */\n      dup7\n        /* \"#utility.yul\":4416:4434   */\n      add\n        /* \"#utility.yul\":4403:4435   */\n      calldataload\n        /* \"#utility.yul\":4462:4480   */\n      0xffffffffffffffff\n        /* \"#utility.yul\":4454:4460   */\n      dup2\n        /* \"#utility.yul\":4451:4481   */\n      gt\n        /* \"#utility.yul\":4448:4565   */\n      iszero\n      tag_280\n      jumpi\n        /* \"#utility.yul\":4484:4563   */\n      tag_281\n      tag_259\n      jump\t// in\n    tag_281:\n        /* \"#utility.yul\":4448:4565   */\n    tag_280:\n        /* \"#utility.yul\":4589:4652   */\n      tag_282\n        /* \"#utility.yul\":4644:4651   */\n      dup9\n        /* \"#utility.yul\":4635:4641   */\n      dup3\n        /* \"#utility.yul\":4624:4633   */\n      dup10\n        /* \"#utility.yul\":4620:4642   */\n      add\n        /* \"#utility.yul\":4589:4652   */\n      tag_237\n      jump\t// in\n    tag_282:\n        /* \"#utility.yul\":4579:4652   */\n      swap4\n      pop\n        /* \"#utility.yul\":4374:4662   */\n      pop\n        /* \"#utility.yul\":4729:4731   */\n      0x60\n        /* \"#utility.yul\":4718:4727   */\n      dup7\n        /* \"#utility.yul\":4714:4732   */\n      add\n        /* \"#utility.yul\":4701:4733   */\n      calldataload\n        /* \"#utility.yul\":4760:4778   */\n      0xffffffffffffffff\n        /* \"#utility.yul\":4752:4758   */\n      dup2\n        /* \"#utility.yul\":4749:4779   */\n      gt\n        /* \"#utility.yul\":4746:4863   */\n      iszero\n      tag_283\n      jumpi\n        /* \"#utility.yul\":4782:4861   */\n      tag_284\n      tag_259\n      jump\t// in\n    tag_284:\n        /* \"#utility.yul\":4746:4863   */\n    tag_283:\n        /* \"#utility.yul\":4887:4950   */\n      tag_285\n        /* \"#utility.yul\":4942:4949   */\n      dup9\n        /* \"#utility.yul\":4933:4939   */\n      dup3\n        /* \"#utility.yul\":4922:4931   */\n      dup10\n        /* \"#utility.yul\":4918:4940   */\n      add\n        /* \"#utility.yul\":4887:4950   */\n      tag_237\n      jump\t// in\n    tag_285:\n        /* \"#utility.yul\":4877:4950   */\n      swap3\n      pop\n        /* \"#utility.yul\":4672:4960   */\n      pop\n        /* \"#utility.yul\":4999:5002   */\n      0x80\n        /* \"#utility.yul\":5026:5078   */\n      tag_286\n        /* \"#utility.yul\":5070:5077   */\n      dup9\n        /* \"#utility.yul\":5061:5067   */\n      dup3\n        /* \"#utility.yul\":5050:5059   */\n      dup10\n        /* \"#utility.yul\":5046:5068   */\n      add\n        /* \"#utility.yul\":5026:5078   */\n      tag_233\n      jump\t// in\n    tag_286:\n        /* \"#utility.yul\":5016:5078   */\n      swap2\n      pop\n        /* \"#utility.yul\":4970:5088   */\n      pop\n        /* \"#utility.yul\":3826:5095   */\n      swap3\n      swap6\n      pop\n      swap3\n      swap6\n      swap1\n      swap4\n      pop\n      jump\t// out\n        /* \"#utility.yul\":5101:8002   */\n    tag_37:\n        /* \"#utility.yul\":5311:5317   */\n      0x00\n        /* \"#utility.yul\":5319:5325   */\n      dup1\n        /* \"#utility.yul\":5327:5333   */\n      0x00\n        /* \"#utility.yul\":5335:5341   */\n      dup1\n        /* \"#utility.yul\":5343:5349   */\n      0x00\n        /* \"#utility.yul\":5351:5357   */\n      dup1\n        /* \"#utility.yul\":5359:5365   */\n      0x00\n        /* \"#utility.yul\":5367:5373   */\n      dup1\n        /* \"#utility.yul\":5375:5381   */\n      0x00\n        /* \"#utility.yul\":5383:5389   */\n      dup1\n        /* \"#utility.yul\":5432:5435   */\n      0x0140\n        /* \"#utility.yul\":5420:5429   */\n      dup12\n        /* \"#utility.yul\":5411:5418   */\n      dup14\n        /* \"#utility.yul\":5407:5430   */\n      sub\n        /* \"#utility.yul\":5403:5436   */\n      slt\n        /* \"#utility.yul\":5400:5520   */\n      iszero\n      tag_288\n      jumpi\n        /* \"#utility.yul\":5439:5518   */\n      tag_289\n      tag_250\n      jump\t// in\n    tag_289:\n        /* \"#utility.yul\":5400:5520   */\n    tag_288:\n        /* \"#utility.yul\":5559:5560   */\n      0x00\n        /* \"#utility.yul\":5584:5637   */\n      tag_290\n        /* \"#utility.yul\":5629:5636   */\n      dup14\n        /* \"#utility.yul\":5620:5626   */\n      dup3\n        /* \"#utility.yul\":5609:5618   */\n      dup15\n        /* \"#utility.yul\":5605:5627   */\n      add\n        /* \"#utility.yul\":5584:5637   */\n      tag_243\n      jump\t// in\n    tag_290:\n        /* \"#utility.yul\":5574:5637   */\n      swap11\n      pop\n        /* \"#utility.yul\":5530:5647   */\n      pop\n        /* \"#utility.yul\":5686:5688   */\n      0x20\n        /* \"#utility.yul\":5712:5765   */\n      tag_291\n        /* \"#utility.yul\":5757:5764   */\n      dup14\n        /* \"#utility.yul\":5748:5754   */\n      dup3\n        /* \"#utility.yul\":5737:5746   */\n      dup15\n        /* \"#utility.yul\":5733:5755   */\n      add\n        /* \"#utility.yul\":5712:5765   */\n      tag_243\n      jump\t// in\n    tag_291:\n        /* \"#utility.yul\":5702:5765   */\n      swap10\n      pop\n        /* \"#utility.yul\":5657:5775   */\n      pop\n        /* \"#utility.yul\":5814:5816   */\n      0x40\n        /* \"#utility.yul\":5840:5893   */\n      tag_292\n        /* \"#utility.yul\":5885:5892   */\n      dup14\n        /* \"#utility.yul\":5876:5882   */\n      dup3\n        /* \"#utility.yul\":5865:5874   */\n      dup15\n        /* \"#utility.yul\":5861:5883   */\n      add\n        /* \"#utility.yul\":5840:5893   */\n      tag_243\n      jump\t// in\n    tag_292:\n        /* \"#utility.yul\":5830:5893   */\n      swap9\n      pop\n        /* \"#utility.yul\":5785:5903   */\n      pop\n        /* \"#utility.yul\":5970:5972   */\n      0x60\n        /* \"#utility.yul\":5959:5968   */\n      dup12\n        /* \"#utility.yul\":5955:5973   */\n      add\n        /* \"#utility.yul\":5942:5974   */\n      calldataload\n        /* \"#utility.yul\":6001:6019   */\n      0xffffffffffffffff\n        /* \"#utility.yul\":5993:5999   */\n      dup2\n        /* \"#utility.yul\":5990:6020   */\n      gt\n        /* \"#utility.yul\":5987:6104   */\n      iszero\n      tag_293\n      jumpi\n        /* \"#utility.yul\":6023:6102   */\n      tag_294\n      tag_259\n      jump\t// in\n    tag_294:\n        /* \"#utility.yul\":5987:6104   */\n    tag_293:\n        /* \"#utility.yul\":6128:6191   */\n      tag_295\n        /* \"#utility.yul\":6183:6190   */\n      dup14\n        /* \"#utility.yul\":6174:6180   */\n      dup3\n        /* \"#utility.yul\":6163:6172   */\n      dup15\n        /* \"#utility.yul\":6159:6181   */\n      add\n        /* \"#utility.yul\":6128:6191   */\n      tag_237\n      jump\t// in\n    tag_295:\n        /* \"#utility.yul\":6118:6191   */\n      swap8\n      pop\n        /* \"#utility.yul\":5913:6201   */\n      pop\n        /* \"#utility.yul\":6268:6271   */\n      0x80\n        /* \"#utility.yul\":6257:6266   */\n      dup12\n        /* \"#utility.yul\":6253:6272   */\n      add\n        /* \"#utility.yul\":6240:6273   */\n      calldataload\n        /* \"#utility.yul\":6300:6318   */\n      0xffffffffffffffff\n        /* \"#utility.yul\":6292:6298   */\n      dup2\n        /* \"#utility.yul\":6289:6319   */\n      gt\n        /* \"#utility.yul\":6286:6403   */\n      iszero\n      tag_296\n      jumpi\n        /* \"#utility.yul\":6322:6401   */\n      tag_297\n      tag_259\n      jump\t// in\n    tag_297:\n        /* \"#utility.yul\":6286:6403   */\n    tag_296:\n        /* \"#utility.yul\":6427:6490   */\n      tag_298\n        /* \"#utility.yul\":6482:6489   */\n      dup14\n        /* \"#utility.yul\":6473:6479   */\n      dup3\n        /* \"#utility.yul\":6462:6471   */\n      dup15\n        /* \"#utility.yul\":6458:6480   */\n      add\n        /* \"#utility.yul\":6427:6490   */\n      tag_237\n      jump\t// in\n    tag_298:\n        /* \"#utility.yul\":6417:6490   */\n      swap7\n      pop\n        /* \"#utility.yul\":6211:6500   */\n      pop\n        /* \"#utility.yul\":6567:6570   */\n      0xa0\n        /* \"#utility.yul\":6556:6565   */\n      dup12\n        /* \"#utility.yul\":6552:6571   */\n      add\n        /* \"#utility.yul\":6539:6572   */\n      calldataload\n        /* \"#utility.yul\":6599:6617   */\n      0xffffffffffffffff\n        /* \"#utility.yul\":6591:6597   */\n      dup2\n        /* \"#utility.yul\":6588:6618   */\n      gt\n        /* \"#utility.yul\":6585:6702   */\n      iszero\n      tag_299\n      jumpi\n        /* \"#utility.yul\":6621:6700   */\n      tag_300\n      tag_259\n      jump\t// in\n    tag_300:\n        /* \"#utility.yul\":6585:6702   */\n    tag_299:\n        /* \"#utility.yul\":6726:6789   */\n      tag_301\n        /* \"#utility.yul\":6781:6788   */\n      dup14\n        /* \"#utility.yul\":6772:6778   */\n      dup3\n        /* \"#utility.yul\":6761:6770   */\n      dup15\n        /* \"#utility.yul\":6757:6779   */\n      add\n        /* \"#utility.yul\":6726:6789   */\n      tag_237\n      jump\t// in\n    tag_301:\n        /* \"#utility.yul\":6716:6789   */\n      swap6\n      pop\n        /* \"#utility.yul\":6510:6799   */\n      pop\n        /* \"#utility.yul\":6866:6869   */\n      0xc0\n        /* \"#utility.yul\":6855:6864   */\n      dup12\n        /* \"#utility.yul\":6851:6870   */\n      add\n        /* \"#utility.yul\":6838:6871   */\n      calldataload\n        /* \"#utility.yul\":6898:6916   */\n      0xffffffffffffffff\n        /* \"#utility.yul\":6890:6896   */\n      dup2\n        /* \"#utility.yul\":6887:6917   */\n      gt\n        /* \"#utility.yul\":6884:7001   */\n      iszero\n      tag_302\n      jumpi\n        /* \"#utility.yul\":6920:6999   */\n      tag_303\n      tag_259\n      jump\t// in\n    tag_303:\n        /* \"#utility.yul\":6884:7001   */\n    tag_302:\n        /* \"#utility.yul\":7025:7088   */\n      tag_304\n        /* \"#utility.yul\":7080:7087   */\n      dup14\n        /* \"#utility.yul\":7071:7077   */\n      dup3\n        /* \"#utility.yul\":7060:7069   */\n      dup15\n        /* \"#utility.yul\":7056:7078   */\n      add\n        /* \"#utility.yul\":7025:7088   */\n      tag_237\n      jump\t// in\n    tag_304:\n        /* \"#utility.yul\":7015:7088   */\n      swap5\n      pop\n        /* \"#utility.yul\":6809:7098   */\n      pop\n        /* \"#utility.yul\":7165:7168   */\n      0xe0\n        /* \"#utility.yul\":7154:7163   */\n      dup12\n        /* \"#utility.yul\":7150:7169   */\n      add\n        /* \"#utility.yul\":7137:7170   */\n      calldataload\n        /* \"#utility.yul\":7197:7215   */\n      0xffffffffffffffff\n        /* \"#utility.yul\":7189:7195   */\n      dup2\n        /* \"#utility.yul\":7186:7216   */\n      gt\n        /* \"#utility.yul\":7183:7300   */\n      iszero\n      tag_305\n      jumpi\n        /* \"#utility.yul\":7219:7298   */\n      tag_306\n      tag_259\n      jump\t// in\n    tag_306:\n        /* \"#utility.yul\":7183:7300   */\n    tag_305:\n        /* \"#utility.yul\":7324:7387   */\n      tag_307\n        /* \"#utility.yul\":7379:7386   */\n      dup14\n        /* \"#utility.yul\":7370:7376   */\n      dup3\n        /* \"#utility.yul\":7359:7368   */\n      dup15\n        /* \"#utility.yul\":7355:7377   */\n      add\n        /* \"#utility.yul\":7324:7387   */\n      tag_237\n      jump\t// in\n    tag_307:\n        /* \"#utility.yul\":7314:7387   */\n      swap4\n      pop\n        /* \"#utility.yul\":7108:7397   */\n      pop\n        /* \"#utility.yul\":7464:7467   */\n      0x0100\n        /* \"#utility.yul\":7453:7462   */\n      dup12\n        /* \"#utility.yul\":7449:7468   */\n      add\n        /* \"#utility.yul\":7436:7469   */\n      calldataload\n        /* \"#utility.yul\":7496:7514   */\n      0xffffffffffffffff\n        /* \"#utility.yul\":7488:7494   */\n      dup2\n        /* \"#utility.yul\":7485:7515   */\n      gt\n        /* \"#utility.yul\":7482:7599   */\n      iszero\n      tag_308\n      jumpi\n        /* \"#utility.yul\":7518:7597   */\n      tag_309\n      tag_259\n      jump\t// in\n    tag_309:\n        /* \"#utility.yul\":7482:7599   */\n    tag_308:\n        /* \"#utility.yul\":7623:7686   */\n      tag_310\n        /* \"#utility.yul\":7678:7685   */\n      dup14\n        /* \"#utility.yul\":7669:7675   */\n      dup3\n        /* \"#utility.yul\":7658:7667   */\n      dup15\n        /* \"#utility.yul\":7654:7676   */\n      add\n        /* \"#utility.yul\":7623:7686   */\n      tag_237\n      jump\t// in\n    tag_310:\n        /* \"#utility.yul\":7613:7686   */\n      swap3\n      pop\n        /* \"#utility.yul\":7407:7696   */\n      pop\n        /* \"#utility.yul\":7763:7766   */\n      0x0120\n        /* \"#utility.yul\":7752:7761   */\n      dup12\n        /* \"#utility.yul\":7748:7767   */\n      add\n        /* \"#utility.yul\":7735:7768   */\n      calldataload\n        /* \"#utility.yul\":7795:7813   */\n      0xffffffffffffffff\n        /* \"#utility.yul\":7787:7793   */\n      dup2\n        /* \"#utility.yul\":7784:7814   */\n      gt\n        /* \"#utility.yul\":7781:7898   */\n      iszero\n      tag_311\n      jumpi\n        /* \"#utility.yul\":7817:7896   */\n      tag_312\n      tag_259\n      jump\t// in\n    tag_312:\n        /* \"#utility.yul\":7781:7898   */\n    tag_311:\n        /* \"#utility.yul\":7922:7985   */\n      tag_313\n        /* \"#utility.yul\":7977:7984   */\n      dup14\n        /* \"#utility.yul\":7968:7974   */\n      dup3\n        /* \"#utility.yul\":7957:7966   */\n      dup15\n        /* \"#utility.yul\":7953:7975   */\n      add\n        /* \"#utility.yul\":7922:7985   */\n      tag_237\n      jump\t// in\n    tag_313:\n        /* \"#utility.yul\":7912:7985   */\n      swap2\n      pop\n        /* \"#utility.yul\":7706:7995   */\n      pop\n        /* \"#utility.yul\":5101:8002   */\n      swap3\n      swap6\n      swap9\n      swap12\n      swap2\n      swap5\n      swap8\n      swap11\n      pop\n      swap3\n      swap6\n      swap9\n      pop\n      jump\t// out\n        /* \"#utility.yul\":8008:8150   */\n    tag_314:\n        /* \"#utility.yul\":8111:8143   */\n      tag_316\n        /* \"#utility.yul\":8137:8142   */\n      dup2\n        /* \"#utility.yul\":8111:8143   */\n      tag_317\n      jump\t// in\n    tag_316:\n        /* \"#utility.yul\":8106:8109   */\n      dup3\n        /* \"#utility.yul\":8099:8144   */\n      mstore\n        /* \"#utility.yul\":8008:8150   */\n      pop\n      pop\n      jump\t// out\n        /* \"#utility.yul\":8156:8274   */\n    tag_318:\n        /* \"#utility.yul\":8243:8267   */\n      tag_320\n        /* \"#utility.yul\":8261:8266   */\n      dup2\n        /* \"#utility.yul\":8243:8267   */\n      tag_321\n      jump\t// in\n    tag_320:\n        /* \"#utility.yul\":8238:8241   */\n      dup3\n        /* \"#utility.yul\":8231:8268   */\n      mstore\n        /* \"#utility.yul\":8156:8274   */\n      pop\n      pop\n      jump\t// out\n        /* \"#utility.yul\":8280:8389   */\n    tag_322:\n        /* \"#utility.yul\":8361:8382   */\n      tag_324\n        /* \"#utility.yul\":8376:8381   */\n      dup2\n        /* \"#utility.yul\":8361:8382   */\n      tag_325\n      jump\t// in\n    tag_324:\n        /* \"#utility.yul\":8356:8359   */\n      dup3\n        /* \"#utility.yul\":8349:8383   */\n      mstore\n        /* \"#utility.yul\":8280:8389   */\n      pop\n      pop\n      jump\t// out\n        /* \"#utility.yul\":8395:8536   */\n    tag_326:\n        /* \"#utility.yul\":8487:8529   */\n      tag_328\n        /* \"#utility.yul\":8523:8528   */\n      dup2\n        /* \"#utility.yul\":8487:8529   */\n      tag_329\n      jump\t// in\n    tag_328:\n        /* \"#utility.yul\":8482:8485   */\n      dup3\n        /* \"#utility.yul\":8475:8530   */\n      mstore\n        /* \"#utility.yul\":8395:8536   */\n      pop\n      pop\n      jump\t// out\n        /* \"#utility.yul\":8542:8685   */\n    tag_330:\n        /* \"#utility.yul\":8635:8678   */\n      tag_332\n        /* \"#utility.yul\":8672:8677   */\n      dup2\n        /* \"#utility.yul\":8635:8678   */\n      tag_333\n      jump\t// in\n    tag_332:\n        /* \"#utility.yul\":8630:8633   */\n      dup3\n        /* \"#utility.yul\":8623:8679   */\n      mstore\n        /* \"#utility.yul\":8542:8685   */\n      pop\n      pop\n      jump\t// out\n        /* \"#utility.yul\":8691:9055   */\n    tag_334:\n        /* \"#utility.yul\":8779:8782   */\n      0x00\n        /* \"#utility.yul\":8807:8846   */\n      tag_336\n        /* \"#utility.yul\":8840:8845   */\n      dup3\n        /* \"#utility.yul\":8807:8846   */\n      tag_337\n      jump\t// in\n    tag_336:\n        /* \"#utility.yul\":8862:8933   */\n      tag_338\n        /* \"#utility.yul\":8926:8932   */\n      dup2\n        /* \"#utility.yul\":8921:8924   */\n      dup6\n        /* \"#utility.yul\":8862:8933   */\n      tag_339\n      jump\t// in\n    tag_338:\n        /* \"#utility.yul\":8855:8933   */\n      swap4\n      pop\n        /* \"#utility.yul\":8942:8994   */\n      tag_340\n        /* \"#utility.yul\":8987:8993   */\n      dup2\n        /* \"#utility.yul\":8982:8985   */\n      dup6\n        /* \"#utility.yul\":8975:8979   */\n      0x20\n        /* \"#utility.yul\":8968:8973   */\n      dup7\n        /* \"#utility.yul\":8964:8980   */\n      add\n        /* \"#utility.yul\":8942:8994   */\n      tag_341\n      jump\t// in\n    tag_340:\n        /* \"#utility.yul\":9019:9048   */\n      tag_342\n        /* \"#utility.yul\":9041:9047   */\n      dup2\n        /* \"#utility.yul\":9019:9048   */\n      tag_343\n      jump\t// in\n    tag_342:\n        /* \"#utility.yul\":9014:9017   */\n      dup5\n        /* \"#utility.yul\":9010:9049   */\n      add\n        /* \"#utility.yul\":9003:9049   */\n      swap2\n      pop\n        /* \"#utility.yul\":8783:9055   */\n      pop\n        /* \"#utility.yul\":8691:9055   */\n      swap3\n      swap2\n      pop\n      pop\n      jump\t// out\n        /* \"#utility.yul\":9061:9427   */\n    tag_344:\n        /* \"#utility.yul\":9203:9206   */\n      0x00\n        /* \"#utility.yul\":9224:9291   */\n      tag_346\n        /* \"#utility.yul\":9288:9290   */\n      0x1c\n        /* \"#utility.yul\":9283:9286   */\n      dup4\n        /* \"#utility.yul\":9224:9291   */\n      tag_339\n      jump\t// in\n    tag_346:\n        /* \"#utility.yul\":9217:9291   */\n      swap2\n      pop\n        /* \"#utility.yul\":9300:9393   */\n      tag_347\n        /* \"#utility.yul\":9389:9392   */\n      dup3\n        /* \"#utility.yul\":9300:9393   */\n      tag_348\n      jump\t// in\n    tag_347:\n        /* \"#utility.yul\":9418:9420   */\n      0x20\n        /* \"#utility.yul\":9413:9416   */\n      dup3\n        /* \"#utility.yul\":9409:9421   */\n      add\n        /* \"#utility.yul\":9402:9421   */\n      swap1\n      pop\n        /* \"#utility.yul\":9061:9427   */\n      swap2\n      swap1\n      pop\n      jump\t// out\n        /* \"#utility.yul\":9433:9799   */\n    tag_349:\n        /* \"#utility.yul\":9575:9578   */\n      0x00\n        /* \"#utility.yul\":9596:9663   */\n      tag_351\n        /* \"#utility.yul\":9660:9662   */\n      0x19\n        /* \"#utility.yul\":9655:9658   */\n      dup4\n        /* \"#utility.yul\":9596:9663   */\n      tag_339\n      jump\t// in\n    tag_351:\n        /* \"#utility.yul\":9589:9663   */\n      swap2\n      pop\n        /* \"#utility.yul\":9672:9765   */\n      tag_352\n        /* \"#utility.yul\":9761:9764   */\n      dup3\n        /* \"#utility.yul\":9672:9765   */\n      tag_353\n      jump\t// in\n    tag_352:\n        /* \"#utility.yul\":9790:9792   */\n      0x20\n        /* \"#utility.yul\":9785:9788   */\n      dup3\n        /* \"#utility.yul\":9781:9793   */\n      add\n        /* \"#utility.yul\":9774:9793   */\n      swap1\n      pop\n        /* \"#utility.yul\":9433:9799   */\n      swap2\n      swap1\n      pop\n      jump\t// out\n        /* \"#utility.yul\":9805:10171   */\n    tag_354:\n        /* \"#utility.yul\":9947:9950   */\n      0x00\n        /* \"#utility.yul\":9968:10035   */\n      tag_356\n        /* \"#utility.yul\":10032:10034   */\n      0x1e\n        /* \"#utility.yul\":10027:10030   */\n      dup4\n        /* \"#utility.yul\":9968:10035   */\n      tag_339\n      jump\t// in\n    tag_356:\n        /* \"#utility.yul\":9961:10035   */\n      swap2\n      pop\n        /* \"#utility.yul\":10044:10137   */\n      tag_357\n        /* \"#utility.yul\":10133:10136   */\n      dup3\n        /* \"#utility.yul\":10044:10137   */\n      tag_358\n      jump\t// in\n    tag_357:\n        /* \"#utility.yul\":10162:10164   */\n      0x20\n        /* \"#utility.yul\":10157:10160   */\n      dup3\n        /* \"#utility.yul\":10153:10165   */\n      add\n        /* \"#utility.yul\":10146:10165   */\n      swap1\n      pop\n        /* \"#utility.yul\":9805:10171   */\n      swap2\n      swap1\n      pop\n      jump\t// out\n        /* \"#utility.yul\":10177:10295   */\n    tag_359:\n        /* \"#utility.yul\":10264:10288   */\n      tag_361\n        /* \"#utility.yul\":10282:10287   */\n      dup2\n        /* \"#utility.yul\":10264:10288   */\n      tag_362\n      jump\t// in\n    tag_361:\n        /* \"#utility.yul\":10259:10262   */\n      dup3\n        /* \"#utility.yul\":10252:10289   */\n      mstore\n        /* \"#utility.yul\":10177:10295   */\n      pop\n      pop\n      jump\t// out\n        /* \"#utility.yul\":10301:10555   */\n    tag_63:\n        /* \"#utility.yul\":10410:10414   */\n      0x00\n        /* \"#utility.yul\":10448:10450   */\n      0x20\n        /* \"#utility.yul\":10437:10446   */\n      dup3\n        /* \"#utility.yul\":10433:10451   */\n      add\n        /* \"#utility.yul\":10425:10451   */\n      swap1\n      pop\n        /* \"#utility.yul\":10461:10548   */\n      tag_364\n        /* \"#utility.yul\":10545:10546   */\n      0x00\n        /* \"#utility.yul\":10534:10543   */\n      dup4\n        /* \"#utility.yul\":10530:10547   */\n      add\n        /* \"#utility.yul\":10521:10527   */\n      dup5\n        /* \"#utility.yul\":10461:10548   */\n      tag_314\n      jump\t// in\n    tag_364:\n        /* \"#utility.yul\":10301:10555   */\n      swap3\n      swap2\n      pop\n      pop\n      jump\t// out\n        /* \"#utility.yul\":10561:10771   */\n    tag_45:\n        /* \"#utility.yul\":10648:10652   */\n      0x00\n        /* \"#utility.yul\":10686:10688   */\n      0x20\n        /* \"#utility.yul\":10675:10684   */\n      dup3\n        /* \"#utility.yul\":10671:10689   */\n      add\n        /* \"#utility.yul\":10663:10689   */\n      swap1\n      pop\n        /* \"#utility.yul\":10699:10764   */\n      tag_366\n        /* \"#utility.yul\":10761:10762   */\n      0x00\n        /* \"#utility.yul\":10750:10759   */\n      dup4\n        /* \"#utility.yul\":10746:10763   */\n      add\n        /* \"#utility.yul\":10737:10743   */\n      dup5\n        /* \"#utility.yul\":10699:10764   */\n      tag_322\n      jump\t// in\n    tag_366:\n        /* \"#utility.yul\":10561:10771   */\n      swap3\n      swap2\n      pop\n      pop\n      jump\t// out\n        /* \"#utility.yul\":10777:11210   */\n    tag_72:\n        /* \"#utility.yul\":10923:10927   */\n      0x00\n        /* \"#utility.yul\":10961:10963   */\n      0x40\n        /* \"#utility.yul\":10950:10959   */\n      dup3\n        /* \"#utility.yul\":10946:10964   */\n      add\n        /* \"#utility.yul\":10938:10964   */\n      swap1\n      pop\n        /* \"#utility.yul\":10974:11050   */\n      tag_368\n        /* \"#utility.yul\":11047:11048   */\n      0x00\n        /* \"#utility.yul\":11036:11045   */\n      dup4\n        /* \"#utility.yul\":11032:11049   */\n      add\n        /* \"#utility.yul\":11023:11029   */\n      dup6\n        /* \"#utility.yul\":10974:11050   */\n      tag_326\n      jump\t// in\n    tag_368:\n        /* \"#utility.yul\":11097:11106   */\n      dup2\n        /* \"#utility.yul\":11091:11095   */\n      dup2\n        /* \"#utility.yul\":11087:11107   */\n      sub\n        /* \"#utility.yul\":11082:11084   */\n      0x20\n        /* \"#utility.yul\":11071:11080   */\n      dup4\n        /* \"#utility.yul\":11067:11085   */\n      add\n        /* \"#utility.yul\":11060:11108   */\n      mstore\n        /* \"#utility.yul\":11125:11203   */\n      tag_369\n        /* \"#utility.yul\":11198:11202   */\n      dup2\n        /* \"#utility.yul\":11189:11195   */\n      dup5\n        /* \"#utility.yul\":11125:11203   */\n      tag_334\n      jump\t// in\n    tag_369:\n        /* \"#utility.yul\":11117:11203   */\n      swap1\n      pop\n        /* \"#utility.yul\":10777:11210   */\n      swap4\n      swap3\n      pop\n      pop\n      pop\n      jump\t// out\n        /* \"#utility.yul\":11216:11529   */\n    tag_23:\n        /* \"#utility.yul\":11329:11333   */\n      0x00\n        /* \"#utility.yul\":11367:11369   */\n      0x20\n        /* \"#utility.yul\":11356:11365   */\n      dup3\n        /* \"#utility.yul\":11352:11370   */\n      add\n        /* \"#utility.yul\":11344:11370   */\n      swap1\n      pop\n        /* \"#utility.yul\":11416:11425   */\n      dup2\n        /* \"#utility.yul\":11410:11414   */\n      dup2\n        /* \"#utility.yul\":11406:11426   */\n      sub\n        /* \"#utility.yul\":11402:11403   */\n      0x00\n        /* \"#utility.yul\":11391:11400   */\n      dup4\n        /* \"#utility.yul\":11387:11404   */\n      add\n        /* \"#utility.yul\":11380:11427   */\n      mstore\n        /* \"#utility.yul\":11444:11522   */\n      tag_371\n        /* \"#utility.yul\":11517:11521   */\n      dup2\n        /* \"#utility.yul\":11508:11514   */\n      dup5\n        /* \"#utility.yul\":11444:11522   */\n      tag_334\n      jump\t// in\n    tag_371:\n        /* \"#utility.yul\":11436:11522   */\n      swap1\n      pop\n        /* \"#utility.yul\":11216:11529   */\n      swap3\n      swap2\n      pop\n      pop\n      jump\t// out\n        /* \"#utility.yul\":11535:11954   */\n    tag_123:\n        /* \"#utility.yul\":11701:11705   */\n      0x00\n        /* \"#utility.yul\":11739:11741   */\n      0x20\n        /* \"#utility.yul\":11728:11737   */\n      dup3\n        /* \"#utility.yul\":11724:11742   */\n      add\n        /* \"#utility.yul\":11716:11742   */\n      swap1\n      pop\n        /* \"#utility.yul\":11788:11797   */\n      dup2\n        /* \"#utility.yul\":11782:11786   */\n      dup2\n        /* \"#utility.yul\":11778:11798   */\n      sub\n        /* \"#utility.yul\":11774:11775   */\n      0x00\n        /* \"#utility.yul\":11763:11772   */\n      dup4\n        /* \"#utility.yul\":11759:11776   */\n      add\n        /* \"#utility.yul\":11752:11799   */\n      mstore\n        /* \"#utility.yul\":11816:11947   */\n      tag_373\n        /* \"#utility.yul\":11942:11946   */\n      dup2\n        /* \"#utility.yul\":11816:11947   */\n      tag_344\n      jump\t// in\n    tag_373:\n        /* \"#utility.yul\":11808:11947   */\n      swap1\n      pop\n        /* \"#utility.yul\":11535:11954   */\n      swap2\n      swap1\n      pop\n      jump\t// out\n        /* \"#utility.yul\":11960:12379   */\n    tag_145:\n        /* \"#utility.yul\":12126:12130   */\n      0x00\n        /* \"#utility.yul\":12164:12166   */\n      0x20\n        /* \"#utility.yul\":12153:12162   */\n      dup3\n        /* \"#utility.yul\":12149:12167   */\n      add\n        /* \"#utility.yul\":12141:12167   */\n      swap1\n      pop\n        /* \"#utility.yul\":12213:12222   */\n      dup2\n        /* \"#utility.yul\":12207:12211   */\n      dup2\n        /* \"#utility.yul\":12203:12223   */\n      sub\n        /* \"#utility.yul\":12199:12200   */\n      0x00\n        /* \"#utility.yul\":12188:12197   */\n      dup4\n        /* \"#utility.yul\":12184:12201   */\n      add\n        /* \"#utility.yul\":12177:12224   */\n      mstore\n        /* \"#utility.yul\":12241:12372   */\n      tag_375\n        /* \"#utility.yul\":12367:12371   */\n      dup2\n        /* \"#utility.yul\":12241:12372   */\n      tag_349\n      jump\t// in\n    tag_375:\n        /* \"#utility.yul\":12233:12372   */\n      swap1\n      pop\n        /* \"#utility.yul\":11960:12379   */\n      swap2\n      swap1\n      pop\n      jump\t// out\n        /* \"#utility.yul\":12385:12804   */\n    tag_174:\n        /* \"#utility.yul\":12551:12555   */\n      0x00\n        /* \"#utility.yul\":12589:12591   */\n      0x20\n        /* \"#utility.yul\":12578:12587   */\n      dup3\n        /* \"#utility.yul\":12574:12592   */\n      add\n        /* \"#utility.yul\":12566:12592   */\n      swap1\n      pop\n        /* \"#utility.yul\":12638:12647   */\n      dup2\n        /* \"#utility.yul\":12632:12636   */\n      dup2\n        /* \"#utility.yul\":12628:12648   */\n      sub\n        /* \"#utility.yul\":12624:12625   */\n      0x00\n        /* \"#utility.yul\":12613:12622   */\n      dup4\n        /* \"#utility.yul\":12609:12626   */\n      add\n        /* \"#utility.yul\":12602:12649   */\n      mstore\n        /* \"#utility.yul\":12666:12797   */\n      tag_377\n        /* \"#utility.yul\":12792:12796   */\n      dup2\n        /* \"#utility.yul\":12666:12797   */\n      tag_354\n      jump\t// in\n    tag_377:\n        /* \"#utility.yul\":12658:12797   */\n      swap1\n      pop\n        /* \"#utility.yul\":12385:12804   */\n      swap2\n      swap1\n      pop\n      jump\t// out\n        /* \"#utility.yul\":12810:13032   */\n    tag_78:\n        /* \"#utility.yul\":12903:12907   */\n      0x00\n        /* \"#utility.yul\":12941:12943   */\n      0x20\n        /* \"#utility.yul\":12930:12939   */\n      dup3\n        /* \"#utility.yul\":12926:12944   */\n      add\n        /* \"#utility.yul\":12918:12944   */\n      swap1\n      pop\n        /* \"#utility.yul\":12954:13025   */\n      tag_379\n        /* \"#utility.yul\":13022:13023   */\n      0x00\n        /* \"#utility.yul\":13011:13020   */\n      dup4\n        /* \"#utility.yul\":13007:13024   */\n      add\n        /* \"#utility.yul\":12998:13004   */\n      dup5\n        /* \"#utility.yul\":12954:13025   */\n      tag_359\n      jump\t// in\n    tag_379:\n        /* \"#utility.yul\":12810:13032   */\n      swap3\n      swap2\n      pop\n      pop\n      jump\t// out\n        /* \"#utility.yul\":13038:14308   */\n    tag_85:\n        /* \"#utility.yul\":13387:13391   */\n      0x00\n        /* \"#utility.yul\":13425:13428   */\n      0x0100\n        /* \"#utility.yul\":13414:13423   */\n      dup3\n        /* \"#utility.yul\":13410:13429   */\n      add\n        /* \"#utility.yul\":13402:13429   */\n      swap1\n      pop\n        /* \"#utility.yul\":13439:13510   */\n      tag_381\n        /* \"#utility.yul\":13507:13508   */\n      0x00\n        /* \"#utility.yul\":13496:13505   */\n      dup4\n        /* \"#utility.yul\":13492:13509   */\n      add\n        /* \"#utility.yul\":13483:13489   */\n      dup12\n        /* \"#utility.yul\":13439:13510   */\n      tag_359\n      jump\t// in\n    tag_381:\n        /* \"#utility.yul\":13520:13592   */\n      tag_382\n        /* \"#utility.yul\":13588:13590   */\n      0x20\n        /* \"#utility.yul\":13577:13586   */\n      dup4\n        /* \"#utility.yul\":13573:13591   */\n      add\n        /* \"#utility.yul\":13564:13570   */\n      dup11\n        /* \"#utility.yul\":13520:13592   */\n      tag_318\n      jump\t// in\n    tag_382:\n        /* \"#utility.yul\":13602:13674   */\n      tag_383\n        /* \"#utility.yul\":13670:13672   */\n      0x40\n        /* \"#utility.yul\":13659:13668   */\n      dup4\n        /* \"#utility.yul\":13655:13673   */\n      add\n        /* \"#utility.yul\":13646:13652   */\n      dup10\n        /* \"#utility.yul\":13602:13674   */\n      tag_318\n      jump\t// in\n    tag_383:\n        /* \"#utility.yul\":13721:13730   */\n      dup2\n        /* \"#utility.yul\":13715:13719   */\n      dup2\n        /* \"#utility.yul\":13711:13731   */\n      sub\n        /* \"#utility.yul\":13706:13708   */\n      0x60\n        /* \"#utility.yul\":13695:13704   */\n      dup4\n        /* \"#utility.yul\":13691:13709   */\n      add\n        /* \"#utility.yul\":13684:13732   */\n      mstore\n        /* \"#utility.yul\":13749:13827   */\n      tag_384\n        /* \"#utility.yul\":13822:13826   */\n      dup2\n        /* \"#utility.yul\":13813:13819   */\n      dup9\n        /* \"#utility.yul\":13749:13827   */\n      tag_334\n      jump\t// in\n    tag_384:\n        /* \"#utility.yul\":13741:13827   */\n      swap1\n      pop\n        /* \"#utility.yul\":13875:13884   */\n      dup2\n        /* \"#utility.yul\":13869:13873   */\n      dup2\n        /* \"#utility.yul\":13865:13885   */\n      sub\n        /* \"#utility.yul\":13859:13862   */\n      0x80\n        /* \"#utility.yul\":13848:13857   */\n      dup4\n        /* \"#utility.yul\":13844:13863   */\n      add\n        /* \"#utility.yul\":13837:13886   */\n      mstore\n        /* \"#utility.yul\":13903:13981   */\n      tag_385\n        /* \"#utility.yul\":13976:13980   */\n      dup2\n        /* \"#utility.yul\":13967:13973   */\n      dup8\n        /* \"#utility.yul\":13903:13981   */\n      tag_334\n      jump\t// in\n    tag_385:\n        /* \"#utility.yul\":13895:13981   */\n      swap1\n      pop\n        /* \"#utility.yul\":14029:14038   */\n      dup2\n        /* \"#utility.yul\":14023:14027   */\n      dup2\n        /* \"#utility.yul\":14019:14039   */\n      sub\n        /* \"#utility.yul\":14013:14016   */\n      0xa0\n        /* \"#utility.yul\":14002:14011   */\n      dup4\n        /* \"#utility.yul\":13998:14017   */\n      add\n        /* \"#utility.yul\":13991:14040   */\n      mstore\n        /* \"#utility.yul\":14057:14135   */\n      tag_386\n        /* \"#utility.yul\":14130:14134   */\n      dup2\n        /* \"#utility.yul\":14121:14127   */\n      dup7\n        /* \"#utility.yul\":14057:14135   */\n      tag_334\n      jump\t// in\n    tag_386:\n        /* \"#utility.yul\":14049:14135   */\n      swap1\n      pop\n        /* \"#utility.yul\":14145:14212   */\n      tag_387\n        /* \"#utility.yul\":14207:14210   */\n      0xc0\n        /* \"#utility.yul\":14196:14205   */\n      dup4\n        /* \"#utility.yul\":14192:14211   */\n      add\n        /* \"#utility.yul\":14183:14189   */\n      dup6\n        /* \"#utility.yul\":14145:14212   */\n      tag_322\n      jump\t// in\n    tag_387:\n        /* \"#utility.yul\":14222:14301   */\n      tag_388\n        /* \"#utility.yul\":14296:14299   */\n      0xe0\n        /* \"#utility.yul\":14285:14294   */\n      dup4\n        /* \"#utility.yul\":14281:14300   */\n      add\n        /* \"#utility.yul\":14272:14278   */\n      dup5\n        /* \"#utility.yul\":14222:14301   */\n      tag_330\n      jump\t// in\n    tag_388:\n        /* \"#utility.yul\":13038:14308   */\n      swap10\n      swap9\n      pop\n      pop\n      pop\n      pop\n      pop\n      pop\n      pop\n      pop\n      pop\n      jump\t// out\n        /* \"#utility.yul\":14314:14443   */\n    tag_219:\n        /* \"#utility.yul\":14348:14354   */\n      0x00\n        /* \"#utility.yul\":14375:14395   */\n      tag_390\n      tag_391\n      jump\t// in\n    tag_390:\n        /* \"#utility.yul\":14365:14395   */\n      swap1\n      pop\n        /* \"#utility.yul\":14404:14437   */\n      tag_392\n        /* \"#utility.yul\":14432:14436   */\n      dup3\n        /* \"#utility.yul\":14424:14430   */\n      dup3\n        /* \"#utility.yul\":14404:14437   */\n      tag_393\n      jump\t// in\n    tag_392:\n        /* \"#utility.yul\":14314:14443   */\n      swap2\n      swap1\n      pop\n      jump\t// out\n        /* \"#utility.yul\":14449:14524   */\n    tag_391:\n        /* \"#utility.yul\":14482:14488   */\n      0x00\n        /* \"#utility.yul\":14515:14517   */\n      0x40\n        /* \"#utility.yul\":14509:14518   */\n      mload\n        /* \"#utility.yul\":14499:14518   */\n      swap1\n      pop\n        /* \"#utility.yul\":14449:14524   */\n      swap1\n      jump\t// out\n        /* \"#utility.yul\":14530:14838   */\n    tag_218:\n        /* \"#utility.yul\":14592:14596   */\n      0x00\n        /* \"#utility.yul\":14682:14700   */\n      0xffffffffffffffff\n        /* \"#utility.yul\":14674:14680   */\n      dup3\n        /* \"#utility.yul\":14671:14701   */\n      gt\n        /* \"#utility.yul\":14668:14724   */\n      iszero\n      tag_396\n      jumpi\n        /* \"#utility.yul\":14704:14722   */\n      tag_397\n      tag_398\n      jump\t// in\n    tag_397:\n        /* \"#utility.yul\":14668:14724   */\n    tag_396:\n        /* \"#utility.yul\":14742:14771   */\n      tag_399\n        /* \"#utility.yul\":14764:14770   */\n      dup3\n        /* \"#utility.yul\":14742:14771   */\n      tag_343\n      jump\t// in\n    tag_399:\n        /* \"#utility.yul\":14734:14771   */\n      swap1\n      pop\n        /* \"#utility.yul\":14826:14830   */\n      0x20\n        /* \"#utility.yul\":14820:14824   */\n      dup2\n        /* \"#utility.yul\":14816:14831   */\n      add\n        /* \"#utility.yul\":14808:14831   */\n      swap1\n      pop\n        /* \"#utility.yul\":14530:14838   */\n      swap2\n      swap1\n      pop\n      jump\t// out\n        /* \"#utility.yul\":14844:14943   */\n    tag_337:\n        /* \"#utility.yul\":14896:14902   */\n      0x00\n        /* \"#utility.yul\":14930:14935   */\n      dup2\n        /* \"#utility.yul\":14924:14936   */\n      mload\n        /* \"#utility.yul\":14914:14936   */\n      swap1\n      pop\n        /* \"#utility.yul\":14844:14943   */\n      swap2\n      swap1\n      pop\n      jump\t// out\n        /* \"#utility.yul\":14949:15118   */\n    tag_339:\n        /* \"#utility.yul\":15033:15044   */\n      0x00\n        /* \"#utility.yul\":15067:15073   */\n      dup3\n        /* \"#utility.yul\":15062:15065   */\n      dup3\n        /* \"#utility.yul\":15055:15074   */\n      mstore\n        /* \"#utility.yul\":15107:15111   */\n      0x20\n        /* \"#utility.yul\":15102:15105   */\n      dup3\n        /* \"#utility.yul\":15098:15112   */\n      add\n        /* \"#utility.yul\":15083:15112   */\n      swap1\n      pop\n        /* \"#utility.yul\":14949:15118   */\n      swap3\n      swap2\n      pop\n      pop\n      jump\t// out\n        /* \"#utility.yul\":15124:15429   */\n    tag_165:\n        /* \"#utility.yul\":15164:15167   */\n      0x00\n        /* \"#utility.yul\":15183:15203   */\n      tag_403\n        /* \"#utility.yul\":15201:15202   */\n      dup3\n        /* \"#utility.yul\":15183:15203   */\n      tag_362\n      jump\t// in\n    tag_403:\n        /* \"#utility.yul\":15178:15203   */\n      swap2\n      pop\n        /* \"#utility.yul\":15217:15237   */\n      tag_404\n        /* \"#utility.yul\":15235:15236   */\n      dup4\n        /* \"#utility.yul\":15217:15237   */\n      tag_362\n      jump\t// in\n    tag_404:\n        /* \"#utility.yul\":15212:15237   */\n      swap3\n      pop\n        /* \"#utility.yul\":15371:15372   */\n      dup3\n        /* \"#utility.yul\":15303:15369   */\n      0xffffffffffffffffffffffffffffffffffffffffffffffffffffffffffffffff\n        /* \"#utility.yul\":15299:15373   */\n      sub\n        /* \"#utility.yul\":15296:15297   */\n      dup3\n        /* \"#utility.yul\":15293:15374   */\n      gt\n        /* \"#utility.yul\":15290:15397   */\n      iszero\n      tag_405\n      jumpi\n        /* \"#utility.yul\":15377:15395   */\n      tag_406\n      tag_407\n      jump\t// in\n    tag_406:\n        /* \"#utility.yul\":15290:15397   */\n    tag_405:\n        /* \"#utility.yul\":15421:15422   */\n      dup3\n        /* \"#utility.yul\":15418:15419   */\n      dup3\n        /* \"#utility.yul\":15414:15423   */\n      add\n        /* \"#utility.yul\":15407:15423   */\n      swap1\n      pop\n        /* \"#utility.yul\":15124:15429   */\n      swap3\n      swap2\n      pop\n      pop\n      jump\t// out\n        /* \"#utility.yul\":15435:15620   */\n    tag_188:\n        /* \"#utility.yul\":15475:15476   */\n      0x00\n        /* \"#utility.yul\":15492:15512   */\n      tag_409\n        /* \"#utility.yul\":15510:15511   */\n      dup3\n        /* \"#utility.yul\":15492:15512   */\n      tag_362\n      jump\t// in\n    tag_409:\n        /* \"#utility.yul\":15487:15512   */\n      swap2\n      pop\n        /* \"#utility.yul\":15526:15546   */\n      tag_410\n        /* \"#utility.yul\":15544:15545   */\n      dup4\n        /* \"#utility.yul\":15526:15546   */\n      tag_362\n      jump\t// in\n    tag_410:\n        /* \"#utility.yul\":15521:15546   */\n      swap3\n      pop\n        /* \"#utility.yul\":15565:15566   */\n      dup3\n        /* \"#utility.yul\":15555:15590   */\n      tag_411\n      jumpi\n        /* \"#utility.yul\":15570:15588   */\n      tag_412\n      tag_413\n      jump\t// in\n    tag_412:\n        /* \"#utility.yul\":15555:15590   */\n    tag_411:\n        /* \"#utility.yul\":15612:15613   */\n      dup3\n        /* \"#utility.yul\":15609:15610   */\n      dup3\n        /* \"#utility.yul\":15605:15614   */\n      div\n        /* \"#utility.yul\":15600:15614   */\n      swap1\n      pop\n        /* \"#utility.yul\":15435:15620   */\n      swap3\n      swap2\n      pop\n      pop\n      jump\t// out\n        /* \"#utility.yul\":15626:15817   */\n    tag_163:\n        /* \"#utility.yul\":15666:15670   */\n      0x00\n        /* \"#utility.yul\":15686:15706   */\n      tag_415\n        /* \"#utility.yul\":15704:15705   */\n      dup3\n        /* \"#utility.yul\":15686:15706   */\n      tag_362\n      jump\t// in\n    tag_415:\n        /* \"#utility.yul\":15681:15706   */\n      swap2\n      pop\n        /* \"#utility.yul\":15720:15740   */\n      tag_416\n        /* \"#utility.yul\":15738:15739   */\n      dup4\n        /* \"#utility.yul\":15720:15740   */\n      tag_362\n      jump\t// in\n    tag_416:\n        /* \"#utility.yul\":15715:15740   */\n      swap3\n      pop\n        /* \"#utility.yul\":15759:15760   */\n      dup3\n        /* \"#utility.yul\":15756:15757   */\n      dup3\n        /* \"#utility.yul\":15753:15761   */\n      lt\n        /* \"#utility.yul\":15750:15784   */\n      iszero\n      tag_417\n      jumpi\n        /* \"#utility.yul\":15764:15782   */\n      tag_418\n      tag_407\n      jump\t// in\n    tag_418:\n        /* \"#utility.yul\":15750:15784   */\n    tag_417:\n        /* \"#utility.yul\":15809:15810   */\n      dup3\n        /* \"#utility.yul\":15806:15807   */\n      dup3\n        /* \"#utility.yul\":15802:15811   */\n      sub\n        /* \"#utility.yul\":15794:15811   */\n      swap1\n      pop\n        /* \"#utility.yul\":15626:15817   */\n      swap3\n      swap2\n      pop\n      pop\n      jump\t// out\n        /* \"#utility.yul\":15823:15919   */\n    tag_321:\n        /* \"#utility.yul\":15860:15867   */\n      0x00\n        /* \"#utility.yul\":15889:15913   */\n      tag_420\n        /* \"#utility.yul\":15907:15912   */\n      dup3\n        /* \"#utility.yul\":15889:15913   */\n      tag_421\n      jump\t// in\n    tag_420:\n        /* \"#utility.yul\":15878:15913   */\n      swap1\n      pop\n        /* \"#utility.yul\":15823:15919   */\n      swap2\n      swap1\n      pop\n      jump\t// out\n        /* \"#utility.yul\":15925:16029   */\n    tag_317:\n        /* \"#utility.yul\":15970:15977   */\n      0x00\n        /* \"#utility.yul\":15999:16023   */\n      tag_423\n        /* \"#utility.yul\":16017:16022   */\n      dup3\n        /* \"#utility.yul\":15999:16023   */\n      tag_421\n      jump\t// in\n    tag_423:\n        /* \"#utility.yul\":15988:16023   */\n      swap1\n      pop\n        /* \"#utility.yul\":15925:16029   */\n      swap2\n      swap1\n      pop\n      jump\t// out\n        /* \"#utility.yul\":16035:16125   */\n    tag_325:\n        /* \"#utility.yul\":16069:16076   */\n      0x00\n        /* \"#utility.yul\":16112:16117   */\n      dup2\n        /* \"#utility.yul\":16105:16118   */\n      iszero\n        /* \"#utility.yul\":16098:16119   */\n      iszero\n        /* \"#utility.yul\":16087:16119   */\n      swap1\n      pop\n        /* \"#utility.yul\":16035:16125   */\n      swap2\n      swap1\n      pop\n      jump\t// out\n        /* \"#utility.yul\":16131:16256   */\n    tag_425:\n        /* \"#utility.yul\":16175:16182   */\n      0x00\n        /* \"#utility.yul\":16204:16209   */\n      dup2\n        /* \"#utility.yul\":16193:16209   */\n      swap1\n      pop\n        /* \"#utility.yul\":16210:16250   */\n      tag_427\n        /* \"#utility.yul\":16244:16249   */\n      dup3\n        /* \"#utility.yul\":16210:16250   */\n      tag_428\n      jump\t// in\n    tag_427:\n        /* \"#utility.yul\":16131:16256   */\n      swap2\n      swap1\n      pop\n      jump\t// out\n        /* \"#utility.yul\":16262:16389   */\n    tag_429:\n        /* \"#utility.yul\":16307:16314   */\n      0x00\n        /* \"#utility.yul\":16336:16341   */\n      dup2\n        /* \"#utility.yul\":16325:16341   */\n      swap1\n      pop\n        /* \"#utility.yul\":16342:16383   */\n      tag_431\n        /* \"#utility.yul\":16377:16382   */\n      dup3\n        /* \"#utility.yul\":16342:16383   */\n      tag_432\n      jump\t// in\n    tag_431:\n        /* \"#utility.yul\":16262:16389   */\n      swap2\n      swap1\n      pop\n      jump\t// out\n        /* \"#utility.yul\":16395:16471   */\n    tag_433:\n        /* \"#utility.yul\":16431:16438   */\n      0x00\n        /* \"#utility.yul\":16460:16465   */\n      dup2\n        /* \"#utility.yul\":16449:16465   */\n      swap1\n      pop\n        /* \"#utility.yul\":16395:16471   */\n      swap2\n      swap1\n      pop\n      jump\t// out\n        /* \"#utility.yul\":16477:16603   */\n    tag_421:\n        /* \"#utility.yul\":16514:16521   */\n      0x00\n        /* \"#utility.yul\":16554:16596   */\n      0xffffffffffffffffffffffffffffffffffffffff\n        /* \"#utility.yul\":16547:16552   */\n      dup3\n        /* \"#utility.yul\":16543:16597   */\n      and\n        /* \"#utility.yul\":16532:16597   */\n      swap1\n      pop\n        /* \"#utility.yul\":16477:16603   */\n      swap2\n      swap1\n      pop\n      jump\t// out\n        /* \"#utility.yul\":16609:16686   */\n    tag_362:\n        /* \"#utility.yul\":16646:16653   */\n      0x00\n        /* \"#utility.yul\":16675:16680   */\n      dup2\n        /* \"#utility.yul\":16664:16680   */\n      swap1\n      pop\n        /* \"#utility.yul\":16609:16686   */\n      swap2\n      swap1\n      pop\n      jump\t// out\n        /* \"#utility.yul\":16692:16817   */\n    tag_329:\n        /* \"#utility.yul\":16747:16756   */\n      0x00\n        /* \"#utility.yul\":16780:16811   */\n      tag_438\n        /* \"#utility.yul\":16805:16810   */\n      dup3\n        /* \"#utility.yul\":16780:16811   */\n      tag_425\n      jump\t// in\n    tag_438:\n        /* \"#utility.yul\":16767:16811   */\n      swap1\n      pop\n        /* \"#utility.yul\":16692:16817   */\n      swap2\n      swap1\n      pop\n      jump\t// out\n        /* \"#utility.yul\":16823:16950   */\n    tag_333:\n        /* \"#utility.yul\":16879:16888   */\n      0x00\n        /* \"#utility.yul\":16912:16944   */\n      tag_440\n        /* \"#utility.yul\":16938:16943   */\n      dup3\n        /* \"#utility.yul\":16912:16944   */\n      tag_429\n      jump\t// in\n    tag_440:\n        /* \"#utility.yul\":16899:16944   */\n      swap1\n      pop\n        /* \"#utility.yul\":16823:16950   */\n      swap2\n      swap1\n      pop\n      jump\t// out\n        /* \"#utility.yul\":16956:17110   */\n    tag_224:\n        /* \"#utility.yul\":17040:17046   */\n      dup3\n        /* \"#utility.yul\":17035:17038   */\n      dup2\n        /* \"#utility.yul\":17030:17033   */\n      dup4\n        /* \"#utility.yul\":17017:17047   */\n      calldatacopy\n        /* \"#utility.yul\":17102:17103   */\n      0x00\n        /* \"#utility.yul\":17093:17099   */\n      dup4\n        /* \"#utility.yul\":17088:17091   */\n      dup4\n        /* \"#utility.yul\":17084:17100   */\n      add\n        /* \"#utility.yul\":17077:17104   */\n      mstore\n        /* \"#utility.yul\":16956:17110   */\n      pop\n      pop\n      pop\n      jump\t// out\n        /* \"#utility.yul\":17116:17423   */\n    tag_341:\n        /* \"#utility.yul\":17184:17185   */\n      0x00\n        /* \"#utility.yul\":17194:17307   */\n    tag_443:\n        /* \"#utility.yul\":17208:17214   */\n      dup4\n        /* \"#utility.yul\":17205:17206   */\n      dup2\n        /* \"#utility.yul\":17202:17215   */\n      lt\n        /* \"#utility.yul\":17194:17307   */\n      iszero\n      tag_445\n      jumpi\n        /* \"#utility.yul\":17293:17294   */\n      dup1\n        /* \"#utility.yul\":17288:17291   */\n      dup3\n        /* \"#utility.yul\":17284:17295   */\n      add\n        /* \"#utility.yul\":17278:17296   */\n      mload\n        /* \"#utility.yul\":17274:17275   */\n      dup2\n        /* \"#utility.yul\":17269:17272   */\n      dup5\n        /* \"#utility.yul\":17265:17276   */\n      add\n        /* \"#utility.yul\":17258:17297   */\n      mstore\n        /* \"#utility.yul\":17230:17232   */\n      0x20\n        /* \"#utility.yul\":17227:17228   */\n      dup2\n        /* \"#utility.yul\":17223:17233   */\n      add\n        /* \"#utility.yul\":17218:17233   */\n      swap1\n      pop\n        /* \"#utility.yul\":17194:17307   */\n      jump(tag_443)\n    tag_445:\n        /* \"#utility.yul\":17325:17331   */\n      dup4\n        /* \"#utility.yul\":17322:17323   */\n      dup2\n        /* \"#utility.yul\":17319:17332   */\n      gt\n        /* \"#utility.yul\":17316:17417   */\n      iszero\n      tag_446\n      jumpi\n        /* \"#utility.yul\":17405:17406   */\n      0x00\n        /* \"#utility.yul\":17396:17402   */\n      dup5\n        /* \"#utility.yul\":17391:17394   */\n      dup5\n        /* \"#utility.yul\":17387:17403   */\n      add\n        /* \"#utility.yul\":17380:17407   */\n      mstore\n        /* \"#utility.yul\":17316:17417   */\n    tag_446:\n        /* \"#utility.yul\":17165:17423   */\n      pop\n        /* \"#utility.yul\":17116:17423   */\n      pop\n      pop\n      pop\n      jump\t// out\n        /* \"#utility.yul\":17429:17749   */\n    tag_92:\n        /* \"#utility.yul\":17473:17479   */\n      0x00\n        /* \"#utility.yul\":17510:17511   */\n      0x02\n        /* \"#utility.yul\":17504:17508   */\n      dup3\n        /* \"#utility.yul\":17500:17512   */\n      div\n        /* \"#utility.yul\":17490:17512   */\n      swap1\n      pop\n        /* \"#utility.yul\":17557:17558   */\n      0x01\n        /* \"#utility.yul\":17551:17555   */\n      dup3\n        /* \"#utility.yul\":17547:17559   */\n      and\n        /* \"#utility.yul\":17578:17596   */\n      dup1\n        /* \"#utility.yul\":17568:17649   */\n      tag_448\n      jumpi\n        /* \"#utility.yul\":17634:17638   */\n      0x7f\n        /* \"#utility.yul\":17626:17632   */\n      dup3\n        /* \"#utility.yul\":17622:17639   */\n      and\n        /* \"#utility.yul\":17612:17639   */\n      swap2\n      pop\n        /* \"#utility.yul\":17568:17649   */\n    tag_448:\n        /* \"#utility.yul\":17696:17698   */\n      0x20\n        /* \"#utility.yul\":17688:17694   */\n      dup3\n        /* \"#utility.yul\":17685:17699   */\n      lt\n        /* \"#utility.yul\":17665:17683   */\n      dup2\n        /* \"#utility.yul\":17662:17700   */\n      eq\n        /* \"#utility.yul\":17659:17743   */\n      iszero\n      tag_449\n      jumpi\n        /* \"#utility.yul\":17715:17733   */\n      tag_450\n      tag_451\n      jump\t// in\n    tag_450:\n        /* \"#utility.yul\":17659:17743   */\n    tag_449:\n        /* \"#utility.yul\":17480:17749   */\n      pop\n        /* \"#utility.yul\":17429:17749   */\n      swap2\n      swap1\n      pop\n      jump\t// out\n        /* \"#utility.yul\":17755:18036   */\n    tag_393:\n        /* \"#utility.yul\":17838:17865   */\n      tag_453\n        /* \"#utility.yul\":17860:17864   */\n      dup3\n        /* \"#utility.yul\":17838:17865   */\n      tag_343\n      jump\t// in\n    tag_453:\n        /* \"#utility.yul\":17830:17836   */\n      dup2\n        /* \"#utility.yul\":17826:17866   */\n      add\n        /* \"#utility.yul\":17968:17974   */\n      dup2\n        /* \"#utility.yul\":17956:17966   */\n      dup2\n        /* \"#utility.yul\":17953:17975   */\n      lt\n        /* \"#utility.yul\":17932:17950   */\n      0xffffffffffffffff\n        /* \"#utility.yul\":17920:17930   */\n      dup3\n        /* \"#utility.yul\":17917:17951   */\n      gt\n        /* \"#utility.yul\":17914:17976   */\n      or\n        /* \"#utility.yul\":17911:17999   */\n      iszero\n      tag_454\n      jumpi\n        /* \"#utility.yul\":17979:17997   */\n      tag_455\n      tag_398\n      jump\t// in\n    tag_455:\n        /* \"#utility.yul\":17911:17999   */\n    tag_454:\n        /* \"#utility.yul\":18019:18029   */\n      dup1\n        /* \"#utility.yul\":18015:18017   */\n      0x40\n        /* \"#utility.yul\":18008:18030   */\n      mstore\n        /* \"#utility.yul\":17798:18036   */\n      pop\n        /* \"#utility.yul\":17755:18036   */\n      pop\n      pop\n      jump\t// out\n        /* \"#utility.yul\":18042:18222   */\n    tag_407:\n        /* \"#utility.yul\":18090:18167   */\n      0x4e487b7100000000000000000000000000000000000000000000000000000000\n        /* \"#utility.yul\":18087:18088   */\n      0x00\n        /* \"#utility.yul\":18080:18168   */\n      mstore\n        /* \"#utility.yul\":18187:18191   */\n      0x11\n        /* \"#utility.yul\":18184:18185   */\n      0x04\n        /* \"#utility.yul\":18177:18192   */\n      mstore\n        /* \"#utility.yul\":18211:18215   */\n      0x24\n        /* \"#utility.yul\":18208:18209   */\n      0x00\n        /* \"#utility.yul\":18201:18216   */\n      revert\n        /* \"#utility.yul\":18228:18408   */\n    tag_413:\n        /* \"#utility.yul\":18276:18353   */\n      0x4e487b7100000000000000000000000000000000000000000000000000000000\n        /* \"#utility.yul\":18273:18274   */\n      0x00\n        /* \"#utility.yul\":18266:18354   */\n      mstore\n        /* \"#utility.yul\":18373:18377   */\n      0x12\n        /* \"#utility.yul\":18370:18371   */\n      0x04\n        /* \"#utility.yul\":18363:18378   */\n      mstore\n        /* \"#utility.yul\":18397:18401   */\n      0x24\n        /* \"#utility.yul\":18394:18395   */\n      0x00\n        /* \"#utility.yul\":18387:18402   */\n      revert\n        /* \"#utility.yul\":18414:18594   */\n    tag_100:\n        /* \"#utility.yul\":18462:18539   */\n      0x4e487b7100000000000000000000000000000000000000000000000000000000\n        /* \"#utility.yul\":18459:18460   */\n      0x00\n        /* \"#utility.yul\":18452:18540   */\n      mstore\n        /* \"#utility.yul\":18559:18563   */\n      0x21\n        /* \"#utility.yul\":18556:18557   */\n      0x04\n        /* \"#utility.yul\":18549:18564   */\n      mstore\n        /* \"#utility.yul\":18583:18587   */\n      0x24\n        /* \"#utility.yul\":18580:18581   */\n      0x00\n        /* \"#utility.yul\":18573:18588   */\n      revert\n        /* \"#utility.yul\":18600:18780   */\n    tag_451:\n        /* \"#utility.yul\":18648:18725   */\n      0x4e487b7100000000000000000000000000000000000000000000000000000000\n        /* \"#utility.yul\":18645:18646   */\n      0x00\n        /* \"#utility.yul\":18638:18726   */\n      mstore\n        /* \"#utility.yul\":18745:18749   */\n      0x22\n        /* \"#utility.yul\":18742:18743   */\n      0x04\n        /* \"#utility.yul\":18735:18750   */\n      mstore\n        /* \"#utility.yul\":18769:18773   */\n      0x24\n        /* \"#utility.yul\":18766:18767   */\n      0x00\n        /* \"#utility.yul\":18759:18774   */\n      revert\n        /* \"#utility.yul\":18786:18966   */\n    tag_133:\n        /* \"#utility.yul\":18834:18911   */\n      0x4e487b7100000000000000000000000000000000000000000000000000000000\n        /* \"#utility.yul\":18831:18832   */\n      0x00\n        /* \"#utility.yul\":18824:18912   */\n      mstore\n        /* \"#utility.yul\":18931:18935   */\n      0x32\n        /* \"#utility.yul\":18928:18929   */\n      0x04\n        /* \"#utility.yul\":18921:18936   */\n      mstore\n        /* \"#utility.yul\":18955:18959   */\n      0x24\n        /* \"#utility.yul\":18952:18953   */\n      0x00\n        /* \"#utility.yul\":18945:18960   */\n      revert\n        /* \"#utility.yul\":18972:19152   */\n    tag_398:\n        /* \"#utility.yul\":19020:19097   */\n      0x4e487b7100000000000000000000000000000000000000000000000000000000\n        /* \"#utility.yul\":19017:19018   */\n      0x00\n        /* \"#utility.yul\":19010:19098   */\n      mstore\n        /* \"#utility.yul\":19117:19121   */\n      0x41\n        /* \"#utility.yul\":19114:19115   */\n      0x04\n        /* \"#utility.yul\":19107:19122   */\n      mstore\n        /* \"#utility.yul\":19141:19145   */\n      0x24\n        /* \"#utility.yul\":19138:19139   */\n      0x00\n        /* \"#utility.yul\":19131:19146   */\n      revert\n        /* \"#utility.yul\":19158:19275   */\n    tag_241:\n        /* \"#utility.yul\":19267:19268   */\n      0x00\n        /* \"#utility.yul\":19264:19265   */\n      dup1\n        /* \"#utility.yul\":19257:19269   */\n      revert\n        /* \"#utility.yul\":19281:19398   */\n    tag_222:\n        /* \"#utility.yul\":19390:19391   */\n      0x00\n        /* \"#utility.yul\":19387:19388   */\n      dup1\n        /* \"#utility.yul\":19380:19392   */\n      revert\n        /* \"#utility.yul\":19404:19521   */\n    tag_259:\n        /* \"#utility.yul\":19513:19514   */\n      0x00\n        /* \"#utility.yul\":19510:19511   */\n      dup1\n        /* \"#utility.yul\":19503:19515   */\n      revert\n        /* \"#utility.yul\":19527:19644   */\n    tag_250:\n        /* \"#utility.yul\":19636:19637   */\n      0x00\n        /* \"#utility.yul\":19633:19634   */\n      dup1\n        /* \"#utility.yul\":19626:19638   */\n      revert\n        /* \"#utility.yul\":19650:19752   */\n    tag_343:\n        /* \"#utility.yul\":19691:19697   */\n      0x00\n        /* \"#utility.yul\":19742:19744   */\n      0x1f\n        /* \"#utility.yul\":19738:19745   */\n      not\n        /* \"#utility.yul\":19733:19735   */\n      0x1f\n        /* \"#utility.yul\":19726:19731   */\n      dup4\n        /* \"#utility.yul\":19722:19736   */\n      add\n        /* \"#utility.yul\":19718:19746   */\n      and\n        /* \"#utility.yul\":19708:19746   */\n      swap1\n      pop\n        /* \"#utility.yul\":19650:19752   */\n      swap2\n      swap1\n      pop\n      jump\t// out\n        /* \"#utility.yul\":19758:19936   */\n    tag_348:\n        /* \"#utility.yul\":19898:19928   */\n      0x63616c6c6572206973206e6f742061206469737472696275746f722e00000000\n        /* \"#utility.yul\":19894:19895   */\n      0x00\n        /* \"#utility.yul\":19886:19892   */\n      dup3\n        /* \"#utility.yul\":19882:19896   */\n      add\n        /* \"#utility.yul\":19875:19929   */\n      mstore\n        /* \"#utility.yul\":19758:19936   */\n      pop\n      jump\t// out\n        /* \"#utility.yul\":19942:20117   */\n    tag_353:\n        /* \"#utility.yul\":20082:20109   */\n      0x63616c6c6572206973206e6f7420612070726f64756365722e00000000000000\n        /* \"#utility.yul\":20078:20079   */\n      0x00\n        /* \"#utility.yul\":20070:20076   */\n      dup3\n        /* \"#utility.yul\":20066:20080   */\n      add\n        /* \"#utility.yul\":20059:20110   */\n      mstore\n        /* \"#utility.yul\":19942:20117   */\n      pop\n      jump\t// out\n        /* \"#utility.yul\":20123:20303   */\n    tag_358:\n        /* \"#utility.yul\":20263:20295   */\n      0x63616c6c6572206973206e6f742074686520746f6b656e206f776e65722e0000\n        /* \"#utility.yul\":20259:20260   */\n      0x00\n        /* \"#utility.yul\":20251:20257   */\n      dup3\n        /* \"#utility.yul\":20247:20261   */\n      add\n        /* \"#utility.yul\":20240:20296   */\n      mstore\n        /* \"#utility.yul\":20123:20303   */\n      pop\n      jump\t// out\n        /* \"#utility.yul\":20309:20421   */\n    tag_428:\n        /* \"#utility.yul\":20389:20390   */\n      0x05\n        /* \"#utility.yul\":20382:20387   */\n      dup2\n        /* \"#utility.yul\":20379:20391   */\n      lt\n        /* \"#utility.yul\":20369:20415   */\n      tag_471\n      jumpi\n        /* \"#utility.yul\":20395:20413   */\n      tag_472\n      tag_100\n      jump\t// in\n    tag_472:\n        /* \"#utility.yul\":20369:20415   */\n    tag_471:\n        /* \"#utility.yul\":20309:20421   */\n      pop\n      jump\t// out\n        /* \"#utility.yul\":20427:20540   */\n    tag_432:\n        /* \"#utility.yul\":20508:20509   */\n      0x06\n        /* \"#utility.yul\":20501:20506   */\n      dup2\n        /* \"#utility.yul\":20498:20510   */\n      lt\n        /* \"#utility.yul\":20488:20534   */\n      tag_474\n      jumpi\n        /* \"#utility.yul\":20514:20532   */\n      tag_475\n      tag_100\n      jump\t// in\n    tag_475:\n        /* \"#utility.yul\":20488:20534   */\n    tag_474:\n        /* \"#utility.yul\":20427:20540   */\n      pop\n      jump\t// out\n        /* \"#utility.yul\":20546:20668   */\n    tag_228:\n        /* \"#utility.yul\":20619:20643   */\n      tag_477\n        /* \"#utility.yul\":20637:20642   */\n      dup2\n        /* \"#utility.yul\":20619:20643   */\n      tag_321\n      jump\t// in\n    tag_477:\n        /* \"#utility.yul\":20612:20617   */\n      dup2\n        /* \"#utility.yul\":20609:20644   */\n      eq\n        /* \"#utility.yul\":20599:20662   */\n      tag_478\n      jumpi\n        /* \"#utility.yul\":20658:20659   */\n      0x00\n        /* \"#utility.yul\":20655:20656   */\n      dup1\n        /* \"#utility.yul\":20648:20660   */\n      revert\n        /* \"#utility.yul\":20599:20662   */\n    tag_478:\n        /* \"#utility.yul\":20546:20668   */\n      pop\n      jump\t// out\n        /* \"#utility.yul\":20674:20780   */\n    tag_232:\n        /* \"#utility.yul\":20754:20755   */\n      0x05\n        /* \"#utility.yul\":20747:20752   */\n      dup2\n        /* \"#utility.yul\":20744:20756   */\n      lt\n        /* \"#utility.yul\":20734:20774   */\n      tag_480\n      jumpi\n        /* \"#utility.yul\":20770:20771   */\n      0x00\n        /* \"#utility.yul\":20767:20768   */\n      dup1\n        /* \"#utility.yul\":20760:20772   */\n      revert\n        /* \"#utility.yul\":20734:20774   */\n    tag_480:\n        /* \"#utility.yul\":20674:20780   */\n      pop\n      jump\t// out\n        /* \"#utility.yul\":20786:20906   */\n    tag_236:\n        /* \"#utility.yul\":20858:20881   */\n      tag_482\n        /* \"#utility.yul\":20875:20880   */\n      dup2\n        /* \"#utility.yul\":20858:20881   */\n      tag_433\n      jump\t// in\n    tag_482:\n        /* \"#utility.yul\":20851:20856   */\n      dup2\n        /* \"#utility.yul\":20848:20882   */\n      eq\n        /* \"#utility.yul\":20838:20900   */\n      tag_483\n      jumpi\n        /* \"#utility.yul\":20896:20897   */\n      0x00\n        /* \"#utility.yul\":20893:20894   */\n      dup1\n        /* \"#utility.yul\":20886:20898   */\n      revert\n        /* \"#utility.yul\":20838:20900   */\n    tag_483:\n        /* \"#utility.yul\":20786:20906   */\n      pop\n      jump\t// out\n        /* \"#utility.yul\":20912:21034   */\n    tag_246:\n        /* \"#utility.yul\":20985:21009   */\n      tag_485\n        /* \"#utility.yul\":21003:21008   */\n      dup2\n        /* \"#utility.yul\":20985:21009   */\n      tag_362\n      jump\t// in\n    tag_485:\n        /* \"#utility.yul\":20978:20983   */\n      dup2\n        /* \"#utility.yul\":20975:21010   */\n      eq\n        /* \"#utility.yul\":20965:21028   */\n      tag_486\n      jumpi\n        /* \"#utility.yul\":21024:21025   */\n      0x00\n        /* \"#utility.yul\":21021:21022   */\n      dup1\n        /* \"#utility.yul\":21014:21026   */\n      revert\n        /* \"#utility.yul\":20965:21028   */\n    tag_486:\n        /* \"#utility.yul\":20912:21034   */\n      pop\n      jump\t// out\n\n    auxdata: 0xa26469706673582212209be75fb31200cff4f0821897a2b312c19fdaa3a2f16a04ff6e35f2483c891fc164736f6c63430008070033\n}\n",
				"bytecode": {
					"linkReferences": {},
					"object": "60806040523480156200001157600080fd5b50604051620024e8380380620024e8833981810160405281019062000037919062000243565b82600090805190602001906200004f929190620000fe565b50816001908051906020019062000068929190620000fe565b508060038190555033600260006101000a81548173ffffffffffffffffffffffffffffffffffffffff021916908373ffffffffffffffffffffffffffffffffffffffff16021790555080600460003373ffffffffffffffffffffffffffffffffffffffff1673ffffffffffffffffffffffffffffffffffffffff1681526020019081526020016000208190555050505062000485565b8280546200010c906200037c565b90600052602060002090601f0160209004810192826200013057600085556200017c565b82601f106200014b57805160ff19168380011785556200017c565b828001600101855582156200017c579182015b828111156200017b5782518255916020019190600101906200015e565b5b5090506200018b91906200018f565b5090565b5b80821115620001aa57600081600090555060010162000190565b5090565b6000620001c5620001bf8462000306565b620002dd565b905082815260208101848484011115620001e457620001e36200044b565b5b620001f184828562000346565b509392505050565b600082601f83011262000211576200021062000446565b5b815162000223848260208601620001ae565b91505092915050565b6000815190506200023d816200046b565b92915050565b6000806000606084860312156200025f576200025e62000455565b5b600084015167ffffffffffffffff81111562000280576200027f62000450565b5b6200028e86828701620001f9565b935050602084015167ffffffffffffffff811115620002b257620002b162000450565b5b620002c086828701620001f9565b9250506040620002d3868287016200022c565b9150509250925092565b6000620002e9620002fc565b9050620002f78282620003b2565b919050565b6000604051905090565b600067ffffffffffffffff82111562000324576200032362000417565b5b6200032f826200045a565b9050602081019050919050565b6000819050919050565b60005b838110156200036657808201518184015260208101905062000349565b8381111562000376576000848401525b50505050565b600060028204905060018216806200039557607f821691505b60208210811415620003ac57620003ab620003e8565b5b50919050565b620003bd826200045a565b810181811067ffffffffffffffff82111715620003df57620003de62000417565b5b80604052505050565b7f4e487b7100000000000000000000000000000000000000000000000000000000600052602260045260246000fd5b7f4e487b7100000000000000000000000000000000000000000000000000000000600052604160045260246000fd5b600080fd5b600080fd5b600080fd5b600080fd5b6000601f19601f8301169050919050565b62000476816200033c565b81146200048257600080fd5b50565b61205380620004956000396000f3fe6080604052600436106100dd5760003560e01c8063a0712d681161007f578063b292abf111610059578063b292abf114610277578063cd0c5896146102b5578063d2c351b4146102f2578063eedc966a14610336576100dd565b8063a0712d6814610219578063a3e6761014610242578063a48217191461026d576100dd565b8063561e0e98116100bb578063561e0e981461015f57806368cdafe61461018857806395d89b41146101c55780639dc29fac146101f0576100dd565b806306fdde03146100e257806340932fc21461010d57806345091a6014610136575b600080fd5b3480156100ee57600080fd5b506100f7610373565b6040516101049190611a36565b60405180910390f35b34801561011957600080fd5b50610134600480360381019061012f9190611562565b610401565b005b34801561014257600080fd5b5061015d6004803603810190610158919061167e565b610637565b005b34801561016b57600080fd5b5061018660048036038101906101819190611731565b610901565b005b34801561019457600080fd5b506101af60048036038101906101aa91906115d1565b610c4d565b6040516101bc91906119eb565b60405180910390f35b3480156101d157600080fd5b506101da610d8b565b6040516101e79190611a36565b60405180910390f35b3480156101fc57600080fd5b50610217600480360381019061021291906115d1565b610e19565b005b34801561022557600080fd5b50610240600480360381019061023b9190611611565b610fa2565b005b34801561024e57600080fd5b506102576110a4565b60405161026491906119d0565b60405180910390f35b6102756110ca565b005b34801561028357600080fd5b5061029e60048036038101906102999190611535565b611222565b6040516102ac929190611a06565b60405180910390f35b3480156102c157600080fd5b506102dc60048036038101906102d79190611535565b61134a565b6040516102e99190611ab8565b60405180910390f35b3480156102fe57600080fd5b506103196004803603810190610314919061163e565b61136b565b60405161032d989796959493929190611ad3565b60405180910390f35b34801561034257600080fd5b5061035d60048036038101906103589190611535565b611385565b60405161036a9190611ab8565b60405180910390f35b6000805461038090611d83565b80601f01602080910402602001604051908101604052809291908181526020018280546103ac90611d83565b80156103f95780601f106103ce576101008083540402835291602001916103f9565b820191906000526020600020905b8154815290600101906020018083116103dc57829003601f168201915b505050505081565b6000600560008573ffffffffffffffffffffffffffffffffffffffff1673ffffffffffffffffffffffffffffffffffffffff1681526020019081526020016000206040518060600160405290816000820160009054906101000a900460ff16600481111561047257610471611e44565b5b600481111561048457610483611e44565b5b815260200160018201805461049890611d83565b80601f01602080910402602001604051908101604052809291908181526020018280546104c490611d83565b80156105115780601f106104e657610100808354040283529160200191610511565b820191906000526020600020905b8154815290600101906020018083116104f457829003601f168201915b505050505081526020016002820160009054906101000a900460ff1615151515815250509050828160000190600481111561054f5761054e611e44565b5b9081600481111561056357610562611e44565b5b81525050818160200181905250600181604001901515908115158152505080600560008673ffffffffffffffffffffffffffffffffffffffff1673ffffffffffffffffffffffffffffffffffffffff16815260200190815260200160002060008201518160000160006101000a81548160ff021916908360048111156105ec576105eb611e44565b5b0217905550602082015181600101908051906020019061060d9291906113ce565b5060408201518160020160006101000a81548160ff02191690831515021790555090505050505050565b6001600481111561064b5761064a611e44565b5b600560003373ffffffffffffffffffffffffffffffffffffffff1673ffffffffffffffffffffffffffffffffffffffff16815260200190815260200160002060000160009054906101000a900460ff1660048111156106ad576106ac611e44565b5b146106ed576040517f08c379a00000000000000000000000000000000000000000000000000000000081526004016106e490611a58565b60405180910390fd5b60006006600087815260200190815260200160002090506000600460003373ffffffffffffffffffffffffffffffffffffffff1673ffffffffffffffffffffffffffffffffffffffff168152602001908152602001600020549050816008015481101561075957600080fd5b6000600581111561076d5761076c611e44565b5b8260070160009054906101000a900460ff16600581111561079157610790611e44565b5b1461079b57600080fd5b85600660008981526020019081526020016000206003016001600481106107c5576107c4611ea2565b5b0181905550336006600089815260200190815260200160002060090160006101000a81548173ffffffffffffffffffffffffffffffffffffffff021916908373ffffffffffffffffffffffffffffffffffffffff1602179055506108636006600089815260200190815260200160002060010160009054906101000a900473ffffffffffffffffffffffffffffffffffffffff168360080154610c4d565b5060056006600089815260200190815260200160002060070160006101000a81548160ff0219169083600581111561089e5761089d611e44565b5b0217905550336006600089815260200190815260200160002060010160006101000a81548173ffffffffffffffffffffffffffffffffffffffff021916908373ffffffffffffffffffffffffffffffffffffffff16021790555050505050505050565b6000600481111561091557610914611e44565b5b600560003373ffffffffffffffffffffffffffffffffffffffff1673ffffffffffffffffffffffffffffffffffffffff16815260200190815260200160002060000160009054906101000a900460ff16600481111561097757610976611e44565b5b146109b7576040517f08c379a00000000000000000000000000000000000000000000000000000000081526004016109ae90611a78565b60405180910390fd5b6000600660008c815260200190815260200160002090508a8160000181905550338160010160006101000a81548173ffffffffffffffffffffffffffffffffffffffff021916908373ffffffffffffffffffffffffffffffffffffffff160217905550338160020160006101000a81548173ffffffffffffffffffffffffffffffffffffffff021916908373ffffffffffffffffffffffffffffffffffffffff1602179055508981600301600060048110610a7557610a74611ea2565b5b018190555060008160070160006101000a81548160ff02191690836005811115610aa257610aa1611e44565b5b021790555088816008018190555060008160090160006101000a81548173ffffffffffffffffffffffffffffffffffffffff021916908373ffffffffffffffffffffffffffffffffffffffff160217905550600081600a0160006101000a81548173ffffffffffffffffffffffffffffffffffffffff021916908373ffffffffffffffffffffffffffffffffffffffff160217905550600081600b0160006101000a81548173ffffffffffffffffffffffffffffffffffffffff021916908373ffffffffffffffffffffffffffffffffffffffff1602179055508781600c016000019080519060200190610b979291906113ce565b508681600c016001019080519060200190610bb39291906113ce565b508581600c016002019080519060200190610bcf9291906113ce565b508481600c016003019080519060200190610beb9291906113ce565b508381600c016004019080519060200190610c079291906113ce565b508281600c016005019080519060200190610c239291906113ce565b508181600c016006019080519060200190610c3f9291906113ce565b505050505050505050505050565b600081600460003373ffffffffffffffffffffffffffffffffffffffff1673ffffffffffffffffffffffffffffffffffffffff168152602001908152602001600020541015610c9b57600080fd5b600073ffffffffffffffffffffffffffffffffffffffff168373ffffffffffffffffffffffffffffffffffffffff161415610cd557600080fd5b81600460003373ffffffffffffffffffffffffffffffffffffffff1673ffffffffffffffffffffffffffffffffffffffff1681526020019081526020016000206000828254610d249190611c5f565b9250508190555081600460008573ffffffffffffffffffffffffffffffffffffffff1673ffffffffffffffffffffffffffffffffffffffff1681526020019081526020016000206000828254610d7a9190611bd8565b925050819055506001905092915050565b60018054610d9890611d83565b80601f0160208091040260200160405190810160405280929190818152602001828054610dc490611d83565b8015610e115780601f10610de657610100808354040283529160200191610e11565b820191906000526020600020905b815481529060010190602001808311610df457829003601f168201915b505050505081565b600260009054906101000a900473ffffffffffffffffffffffffffffffffffffffff1673ffffffffffffffffffffffffffffffffffffffff163373ffffffffffffffffffffffffffffffffffffffff1614610ea9576040517f08c379a0000000000000000000000000000000000000000000000000000000008152600401610ea090611a98565b60405180910390fd5b600073ffffffffffffffffffffffffffffffffffffffff168273ffffffffffffffffffffffffffffffffffffffff161415610ee357600080fd5b600460008373ffffffffffffffffffffffffffffffffffffffff1673ffffffffffffffffffffffffffffffffffffffff16815260200190815260200160002054811115610f2f57600080fd5b8060036000828254610f419190611c5f565b9250508190555080600460008473ffffffffffffffffffffffffffffffffffffffff1673ffffffffffffffffffffffffffffffffffffffff1681526020019081526020016000206000828254610f979190611c5f565b925050819055505050565b600260009054906101000a900473ffffffffffffffffffffffffffffffffffffffff1673ffffffffffffffffffffffffffffffffffffffff163373ffffffffffffffffffffffffffffffffffffffff1614611032576040517f08c379a000000000000000000000000000000000000000000000000000000000815260040161102990611a98565b60405180910390fd5b80600360008282546110449190611bd8565b9250508190555080600460003373ffffffffffffffffffffffffffffffffffffffff1673ffffffffffffffffffffffffffffffffffffffff168152602001908152602001600020600082825461109a9190611bd8565b9250508190555050565b600260009054906101000a900473ffffffffffffffffffffffffffffffffffffffff1681565b60006064346110d99190611c2e565b9050600034116110e857600080fd5b600260009054906101000a900473ffffffffffffffffffffffffffffffffffffffff1673ffffffffffffffffffffffffffffffffffffffff166108fc349081150290604051600060405180830381858888f19350505050158015611150573d6000803e3d6000fd5b508060046000600260009054906101000a900473ffffffffffffffffffffffffffffffffffffffff1673ffffffffffffffffffffffffffffffffffffffff1673ffffffffffffffffffffffffffffffffffffffff16815260200190815260200160002060008282546111c29190611c5f565b9250508190555080600460003373ffffffffffffffffffffffffffffffffffffffff1673ffffffffffffffffffffffffffffffffffffffff16815260200190815260200160002060008282546112189190611bd8565b9250508190555050565b60006060600560008473ffffffffffffffffffffffffffffffffffffffff1673ffffffffffffffffffffffffffffffffffffffff16815260200190815260200160002060000160009054906101000a900460ff169150600560008473ffffffffffffffffffffffffffffffffffffffff1673ffffffffffffffffffffffffffffffffffffffff16815260200190815260200160002060010180546112c590611d83565b80601f01602080910402602001604051908101604052809291908181526020018280546112f190611d83565b801561133e5780601f106113135761010080835404028352916020019161133e565b820191906000526020600020905b81548152906001019060200180831161132157829003601f168201915b50505050509050915091565b60008173ffffffffffffffffffffffffffffffffffffffff16319050919050565b600080600060608060606000809295985092959890939650565b6000600460008373ffffffffffffffffffffffffffffffffffffffff1673ffffffffffffffffffffffffffffffffffffffff168152602001908152602001600020549050919050565b8280546113da90611d83565b90600052602060002090601f0160209004810192826113fc5760008555611443565b82601f1061141557805160ff1916838001178555611443565b82800160010185558215611443579182015b82811115611442578251825591602001919060010190611427565b5b5090506114509190611454565b5090565b5b8082111561146d576000816000905550600101611455565b5090565b600061148461147f84611b8b565b611b66565b9050828152602081018484840111156114a05761149f611f05565b5b6114ab848285611d41565b509392505050565b6000813590506114c281611fc8565b92915050565b6000813590506114d781611fdf565b92915050565b6000813590506114ec81611fef565b92915050565b600082601f83011261150757611506611f00565b5b8135611517848260208601611471565b91505092915050565b60008135905061152f81612006565b92915050565b60006020828403121561154b5761154a611f0f565b5b6000611559848285016114b3565b91505092915050565b60008060006060848603121561157b5761157a611f0f565b5b6000611589868287016114b3565b935050602061159a868287016114c8565b925050604084013567ffffffffffffffff8111156115bb576115ba611f0a565b5b6115c7868287016114f2565b9150509250925092565b600080604083850312156115e8576115e7611f0f565b5b60006115f6858286016114b3565b925050602061160785828601611520565b9150509250929050565b60006020828403121561162757611626611f0f565b5b600061163584828501611520565b91505092915050565b6000806040838503121561165557611654611f0f565b5b600061166385828601611520565b925050602061167485828601611520565b9150509250929050565b600080600080600060a0868803121561169a57611699611f0f565b5b60006116a888828901611520565b95505060206116b988828901611520565b945050604086013567ffffffffffffffff8111156116da576116d9611f0a565b5b6116e6888289016114f2565b935050606086013567ffffffffffffffff81111561170757611706611f0a565b5b611713888289016114f2565b9250506080611724888289016114dd565b9150509295509295909350565b6000806000806000806000806000806101408b8d03121561175557611754611f0f565b5b60006117638d828e01611520565b9a505060206117748d828e01611520565b99505060406117858d828e01611520565b98505060608b013567ffffffffffffffff8111156117a6576117a5611f0a565b5b6117b28d828e016114f2565b97505060808b013567ffffffffffffffff8111156117d3576117d2611f0a565b5b6117df8d828e016114f2565b96505060a08b013567ffffffffffffffff811115611800576117ff611f0a565b5b61180c8d828e016114f2565b95505060c08b013567ffffffffffffffff81111561182d5761182c611f0a565b5b6118398d828e016114f2565b94505060e08b013567ffffffffffffffff81111561185a57611859611f0a565b5b6118668d828e016114f2565b9350506101008b013567ffffffffffffffff81111561188857611887611f0a565b5b6118948d828e016114f2565b9250506101208b013567ffffffffffffffff8111156118b6576118b5611f0a565b5b6118c28d828e016114f2565b9150509295989b9194979a5092959850565b6118dd81611ca5565b82525050565b6118ec81611c93565b82525050565b6118fb81611cb7565b82525050565b61190a81611d1d565b82525050565b61191981611d2f565b82525050565b600061192a82611bbc565b6119348185611bc7565b9350611944818560208601611d50565b61194d81611f14565b840191505092915050565b6000611965601c83611bc7565b915061197082611f25565b602082019050919050565b6000611988601983611bc7565b915061199382611f4e565b602082019050919050565b60006119ab601e83611bc7565b91506119b682611f77565b602082019050919050565b6119ca81611d13565b82525050565b60006020820190506119e560008301846118d4565b92915050565b6000602082019050611a0060008301846118f2565b92915050565b6000604082019050611a1b6000830185611901565b8181036020830152611a2d818461191f565b90509392505050565b60006020820190508181036000830152611a50818461191f565b905092915050565b60006020820190508181036000830152611a7181611958565b9050919050565b60006020820190508181036000830152611a918161197b565b9050919050565b60006020820190508181036000830152611ab18161199e565b9050919050565b6000602082019050611acd60008301846119c1565b92915050565b600061010082019050611ae9600083018b6119c1565b611af6602083018a6118e3565b611b0360408301896118e3565b8181036060830152611b15818861191f565b90508181036080830152611b29818761191f565b905081810360a0830152611b3d818661191f565b9050611b4c60c08301856118f2565b611b5960e0830184611910565b9998505050505050505050565b6000611b70611b81565b9050611b7c8282611db5565b919050565b6000604051905090565b600067ffffffffffffffff821115611ba657611ba5611ed1565b5b611baf82611f14565b9050602081019050919050565b600081519050919050565b600082825260208201905092915050565b6000611be382611d13565b9150611bee83611d13565b9250827fffffffffffffffffffffffffffffffffffffffffffffffffffffffffffffffff03821115611c2357611c22611de6565b5b828201905092915050565b6000611c3982611d13565b9150611c4483611d13565b925082611c5457611c53611e15565b5b828204905092915050565b6000611c6a82611d13565b9150611c7583611d13565b925082821015611c8857611c87611de6565b5b828203905092915050565b6000611c9e82611cf3565b9050919050565b6000611cb082611cf3565b9050919050565b60008115159050919050565b6000819050611cd182611fa0565b919050565b6000819050611ce482611fb4565b919050565b6000819050919050565b600073ffffffffffffffffffffffffffffffffffffffff82169050919050565b6000819050919050565b6000611d2882611cc3565b9050919050565b6000611d3a82611cd6565b9050919050565b82818337600083830152505050565b60005b83811015611d6e578082015181840152602081019050611d53565b83811115611d7d576000848401525b50505050565b60006002820490506001821680611d9b57607f821691505b60208210811415611daf57611dae611e73565b5b50919050565b611dbe82611f14565b810181811067ffffffffffffffff82111715611ddd57611ddc611ed1565b5b80604052505050565b7f4e487b7100000000000000000000000000000000000000000000000000000000600052601160045260246000fd5b7f4e487b7100000000000000000000000000000000000000000000000000000000600052601260045260246000fd5b7f4e487b7100000000000000000000000000000000000000000000000000000000600052602160045260246000fd5b7f4e487b7100000000000000000000000000000000000000000000000000000000600052602260045260246000fd5b7f4e487b7100000000000000000000000000000000000000000000000000000000600052603260045260246000fd5b7f4e487b7100000000000000000000000000000000000000000000000000000000600052604160045260246000fd5b600080fd5b600080fd5b600080fd5b600080fd5b6000601f19601f8301169050919050565b7f63616c6c6572206973206e6f742061206469737472696275746f722e00000000600082015250565b7f63616c6c6572206973206e6f7420612070726f64756365722e00000000000000600082015250565b7f63616c6c6572206973206e6f742074686520746f6b656e206f776e65722e0000600082015250565b60058110611fb157611fb0611e44565b5b50565b60068110611fc557611fc4611e44565b5b50565b611fd181611c93565b8114611fdc57600080fd5b50565b60058110611fec57600080fd5b50565b611ff881611ce9565b811461200357600080fd5b50565b61200f81611d13565b811461201a57600080fd5b5056fea26469706673582212209be75fb31200cff4f0821897a2b312c19fdaa3a2f16a04ff6e35f2483c891fc164736f6c63430008070033",
					"opcodes": "PUSH1 0x80 PUSH1 0x40 MSTORE CALLVALUE DUP1 ISZERO PUSH3 0x11 JUMPI PUSH1 0x0 DUP1 REVERT JUMPDEST POP PUSH1 0x40 MLOAD PUSH3 0x24E8 CODESIZE SUB DUP1 PUSH3 0x24E8 DUP4 CODECOPY DUP2 DUP2 ADD PUSH1 0x40 MSTORE DUP2 ADD SWAP1 PUSH3 0x37 SWAP2 SWAP1 PUSH3 0x243 JUMP JUMPDEST DUP3 PUSH1 0x0 SWAP1 DUP1 MLOAD SWAP1 PUSH1 0x20 ADD SWAP1 PUSH3 0x4F SWAP3 SWAP2 SWAP1 PUSH3 0xFE JUMP JUMPDEST POP DUP2 PUSH1 0x1 SWAP1 DUP1 MLOAD SWAP1 PUSH1 0x20 ADD SWAP1 PUSH3 0x68 SWAP3 SWAP2 SWAP1 PUSH3 0xFE JUMP JUMPDEST POP DUP1 PUSH1 0x3 DUP2 SWAP1 SSTORE POP CALLER PUSH1 0x2 PUSH1 0x0 PUSH2 0x100 EXP DUP2 SLOAD DUP2 PUSH20 0xFFFFFFFFFFFFFFFFFFFFFFFFFFFFFFFFFFFFFFFF MUL NOT AND SWAP1 DUP4 PUSH20 0xFFFFFFFFFFFFFFFFFFFFFFFFFFFFFFFFFFFFFFFF AND MUL OR SWAP1 SSTORE POP DUP1 PUSH1 0x4 PUSH1 0x0 CALLER PUSH20 0xFFFFFFFFFFFFFFFFFFFFFFFFFFFFFFFFFFFFFFFF AND PUSH20 0xFFFFFFFFFFFFFFFFFFFFFFFFFFFFFFFFFFFFFFFF AND DUP2 MSTORE PUSH1 0x20 ADD SWAP1 DUP2 MSTORE PUSH1 0x20 ADD PUSH1 0x0 KECCAK256 DUP2 SWAP1 SSTORE POP POP POP POP PUSH3 0x485 JUMP JUMPDEST DUP3 DUP1 SLOAD PUSH3 0x10C SWAP1 PUSH3 0x37C JUMP JUMPDEST SWAP1 PUSH1 0x0 MSTORE PUSH1 0x20 PUSH1 0x0 KECCAK256 SWAP1 PUSH1 0x1F ADD PUSH1 0x20 SWAP1 DIV DUP2 ADD SWAP3 DUP3 PUSH3 0x130 JUMPI PUSH1 0x0 DUP6 SSTORE PUSH3 0x17C JUMP JUMPDEST DUP3 PUSH1 0x1F LT PUSH3 0x14B JUMPI DUP1 MLOAD PUSH1 0xFF NOT AND DUP4 DUP1 ADD OR DUP6 SSTORE PUSH3 0x17C JUMP JUMPDEST DUP3 DUP1 ADD PUSH1 0x1 ADD DUP6 SSTORE DUP3 ISZERO PUSH3 0x17C JUMPI SWAP2 DUP3 ADD JUMPDEST DUP3 DUP2 GT ISZERO PUSH3 0x17B JUMPI DUP3 MLOAD DUP3 SSTORE SWAP2 PUSH1 0x20 ADD SWAP2 SWAP1 PUSH1 0x1 ADD SWAP1 PUSH3 0x15E JUMP JUMPDEST JUMPDEST POP SWAP1 POP PUSH3 0x18B SWAP2 SWAP1 PUSH3 0x18F JUMP JUMPDEST POP SWAP1 JUMP JUMPDEST JUMPDEST DUP1 DUP3 GT ISZERO PUSH3 0x1AA JUMPI PUSH1 0x0 DUP2 PUSH1 0x0 SWAP1 SSTORE POP PUSH1 0x1 ADD PUSH3 0x190 JUMP JUMPDEST POP SWAP1 JUMP JUMPDEST PUSH1 0x0 PUSH3 0x1C5 PUSH3 0x1BF DUP5 PUSH3 0x306 JUMP JUMPDEST PUSH3 0x2DD JUMP JUMPDEST SWAP1 POP DUP3 DUP2 MSTORE PUSH1 0x20 DUP2 ADD DUP5 DUP5 DUP5 ADD GT ISZERO PUSH3 0x1E4 JUMPI PUSH3 0x1E3 PUSH3 0x44B JUMP JUMPDEST JUMPDEST PUSH3 0x1F1 DUP5 DUP3 DUP6 PUSH3 0x346 JUMP JUMPDEST POP SWAP4 SWAP3 POP POP POP JUMP JUMPDEST PUSH1 0x0 DUP3 PUSH1 0x1F DUP4 ADD SLT PUSH3 0x211 JUMPI PUSH3 0x210 PUSH3 0x446 JUMP JUMPDEST JUMPDEST DUP2 MLOAD PUSH3 0x223 DUP5 DUP3 PUSH1 0x20 DUP7 ADD PUSH3 0x1AE JUMP JUMPDEST SWAP2 POP POP SWAP3 SWAP2 POP POP JUMP JUMPDEST PUSH1 0x0 DUP2 MLOAD SWAP1 POP PUSH3 0x23D DUP2 PUSH3 0x46B JUMP JUMPDEST SWAP3 SWAP2 POP POP JUMP JUMPDEST PUSH1 0x0 DUP1 PUSH1 0x0 PUSH1 0x60 DUP5 DUP7 SUB SLT ISZERO PUSH3 0x25F JUMPI PUSH3 0x25E PUSH3 0x455 JUMP JUMPDEST JUMPDEST PUSH1 0x0 DUP5 ADD MLOAD PUSH8 0xFFFFFFFFFFFFFFFF DUP2 GT ISZERO PUSH3 0x280 JUMPI PUSH3 0x27F PUSH3 0x450 JUMP JUMPDEST JUMPDEST PUSH3 0x28E DUP7 DUP3 DUP8 ADD PUSH3 0x1F9 JUMP JUMPDEST SWAP4 POP POP PUSH1 0x20 DUP5 ADD MLOAD PUSH8 0xFFFFFFFFFFFFFFFF DUP2 GT ISZERO PUSH3 0x2B2 JUMPI PUSH3 0x2B1 PUSH3 0x450 JUMP JUMPDEST JUMPDEST PUSH3 0x2C0 DUP7 DUP3 DUP8 ADD PUSH3 0x1F9 JUMP JUMPDEST SWAP3 POP POP PUSH1 0x40 PUSH3 0x2D3 DUP7 DUP3 DUP8 ADD PUSH3 0x22C JUMP JUMPDEST SWAP2 POP POP SWAP3 POP SWAP3 POP SWAP3 JUMP JUMPDEST PUSH1 0x0 PUSH3 0x2E9 PUSH3 0x2FC JUMP JUMPDEST SWAP1 POP PUSH3 0x2F7 DUP3 DUP3 PUSH3 0x3B2 JUMP JUMPDEST SWAP2 SWAP1 POP JUMP JUMPDEST PUSH1 0x0 PUSH1 0x40 MLOAD SWAP1 POP SWAP1 JUMP JUMPDEST PUSH1 0x0 PUSH8 0xFFFFFFFFFFFFFFFF DUP3 GT ISZERO PUSH3 0x324 JUMPI PUSH3 0x323 PUSH3 0x417 JUMP JUMPDEST JUMPDEST PUSH3 0x32F DUP3 PUSH3 0x45A JUMP JUMPDEST SWAP1 POP PUSH1 0x20 DUP2 ADD SWAP1 POP SWAP2 SWAP1 POP JUMP JUMPDEST PUSH1 0x0 DUP2 SWAP1 POP SWAP2 SWAP1 POP JUMP JUMPDEST PUSH1 0x0 JUMPDEST DUP4 DUP2 LT ISZERO PUSH3 0x366 JUMPI DUP1 DUP3 ADD MLOAD DUP2 DUP5 ADD MSTORE PUSH1 0x20 DUP2 ADD SWAP1 POP PUSH3 0x349 JUMP JUMPDEST DUP4 DUP2 GT ISZERO PUSH3 0x376 JUMPI PUSH1 0x0 DUP5 DUP5 ADD MSTORE JUMPDEST POP POP POP POP JUMP JUMPDEST PUSH1 0x0 PUSH1 0x2 DUP3 DIV SWAP1 POP PUSH1 0x1 DUP3 AND DUP1 PUSH3 0x395 JUMPI PUSH1 0x7F DUP3 AND SWAP2 POP JUMPDEST PUSH1 0x20 DUP3 LT DUP2 EQ ISZERO PUSH3 0x3AC JUMPI PUSH3 0x3AB PUSH3 0x3E8 JUMP JUMPDEST JUMPDEST POP SWAP2 SWAP1 POP JUMP JUMPDEST PUSH3 0x3BD DUP3 PUSH3 0x45A JUMP JUMPDEST DUP2 ADD DUP2 DUP2 LT PUSH8 0xFFFFFFFFFFFFFFFF DUP3 GT OR ISZERO PUSH3 0x3DF JUMPI PUSH3 0x3DE PUSH3 0x417 JUMP JUMPDEST JUMPDEST DUP1 PUSH1 0x40 MSTORE POP POP POP JUMP JUMPDEST PUSH32 0x4E487B7100000000000000000000000000000000000000000000000000000000 PUSH1 0x0 MSTORE PUSH1 0x22 PUSH1 0x4 MSTORE PUSH1 0x24 PUSH1 0x0 REVERT JUMPDEST PUSH32 0x4E487B7100000000000000000000000000000000000000000000000000000000 PUSH1 0x0 MSTORE PUSH1 0x41 PUSH1 0x4 MSTORE PUSH1 0x24 PUSH1 0x0 REVERT JUMPDEST PUSH1 0x0 DUP1 REVERT JUMPDEST PUSH1 0x0 DUP1 REVERT JUMPDEST PUSH1 0x0 DUP1 REVERT JUMPDEST PUSH1 0x0 DUP1 REVERT JUMPDEST PUSH1 0x0 PUSH1 0x1F NOT PUSH1 0x1F DUP4 ADD AND SWAP1 POP SWAP2 SWAP1 POP JUMP JUMPDEST PUSH3 0x476 DUP2 PUSH3 0x33C JUMP JUMPDEST DUP2 EQ PUSH3 0x482 JUMPI PUSH1 0x0 DUP1 REVERT JUMPDEST POP JUMP JUMPDEST PUSH2 0x2053 DUP1 PUSH3 0x495 PUSH1 0x0 CODECOPY PUSH1 0x0 RETURN INVALID PUSH1 0x80 PUSH1 0x40 MSTORE PUSH1 0x4 CALLDATASIZE LT PUSH2 0xDD JUMPI PUSH1 0x0 CALLDATALOAD PUSH1 0xE0 SHR DUP1 PUSH4 0xA0712D68 GT PUSH2 0x7F JUMPI DUP1 PUSH4 0xB292ABF1 GT PUSH2 0x59 JUMPI DUP1 PUSH4 0xB292ABF1 EQ PUSH2 0x277 JUMPI DUP1 PUSH4 0xCD0C5896 EQ PUSH2 0x2B5 JUMPI DUP1 PUSH4 0xD2C351B4 EQ PUSH2 0x2F2 JUMPI DUP1 PUSH4 0xEEDC966A EQ PUSH2 0x336 JUMPI PUSH2 0xDD JUMP JUMPDEST DUP1 PUSH4 0xA0712D68 EQ PUSH2 0x219 JUMPI DUP1 PUSH4 0xA3E67610 EQ PUSH2 0x242 JUMPI DUP1 PUSH4 0xA4821719 EQ PUSH2 0x26D JUMPI PUSH2 0xDD JUMP JUMPDEST DUP1 PUSH4 0x561E0E98 GT PUSH2 0xBB JUMPI DUP1 PUSH4 0x561E0E98 EQ PUSH2 0x15F JUMPI DUP1 PUSH4 0x68CDAFE6 EQ PUSH2 0x188 JUMPI DUP1 PUSH4 0x95D89B41 EQ PUSH2 0x1C5 JUMPI DUP1 PUSH4 0x9DC29FAC EQ PUSH2 0x1F0 JUMPI PUSH2 0xDD JUMP JUMPDEST DUP1 PUSH4 0x6FDDE03 EQ PUSH2 0xE2 JUMPI DUP1 PUSH4 0x40932FC2 EQ PUSH2 0x10D JUMPI DUP1 PUSH4 0x45091A60 EQ PUSH2 0x136 JUMPI JUMPDEST PUSH1 0x0 DUP1 REVERT JUMPDEST CALLVALUE DUP1 ISZERO PUSH2 0xEE JUMPI PUSH1 0x0 DUP1 REVERT JUMPDEST POP PUSH2 0xF7 PUSH2 0x373 JUMP JUMPDEST PUSH1 0x40 MLOAD PUSH2 0x104 SWAP2 SWAP1 PUSH2 0x1A36 JUMP JUMPDEST PUSH1 0x40 MLOAD DUP1 SWAP2 SUB SWAP1 RETURN JUMPDEST CALLVALUE DUP1 ISZERO PUSH2 0x119 JUMPI PUSH1 0x0 DUP1 REVERT JUMPDEST POP PUSH2 0x134 PUSH1 0x4 DUP1 CALLDATASIZE SUB DUP2 ADD SWAP1 PUSH2 0x12F SWAP2 SWAP1 PUSH2 0x1562 JUMP JUMPDEST PUSH2 0x401 JUMP JUMPDEST STOP JUMPDEST CALLVALUE DUP1 ISZERO PUSH2 0x142 JUMPI PUSH1 0x0 DUP1 REVERT JUMPDEST POP PUSH2 0x15D PUSH1 0x4 DUP1 CALLDATASIZE SUB DUP2 ADD SWAP1 PUSH2 0x158 SWAP2 SWAP1 PUSH2 0x167E JUMP JUMPDEST PUSH2 0x637 JUMP JUMPDEST STOP JUMPDEST CALLVALUE DUP1 ISZERO PUSH2 0x16B JUMPI PUSH1 0x0 DUP1 REVERT JUMPDEST POP PUSH2 0x186 PUSH1 0x4 DUP1 CALLDATASIZE SUB DUP2 ADD SWAP1 PUSH2 0x181 SWAP2 SWAP1 PUSH2 0x1731 JUMP JUMPDEST PUSH2 0x901 JUMP JUMPDEST STOP JUMPDEST CALLVALUE DUP1 ISZERO PUSH2 0x194 JUMPI PUSH1 0x0 DUP1 REVERT JUMPDEST POP PUSH2 0x1AF PUSH1 0x4 DUP1 CALLDATASIZE SUB DUP2 ADD SWAP1 PUSH2 0x1AA SWAP2 SWAP1 PUSH2 0x15D1 JUMP JUMPDEST PUSH2 0xC4D JUMP JUMPDEST PUSH1 0x40 MLOAD PUSH2 0x1BC SWAP2 SWAP1 PUSH2 0x19EB JUMP JUMPDEST PUSH1 0x40 MLOAD DUP1 SWAP2 SUB SWAP1 RETURN JUMPDEST CALLVALUE DUP1 ISZERO PUSH2 0x1D1 JUMPI PUSH1 0x0 DUP1 REVERT JUMPDEST POP PUSH2 0x1DA PUSH2 0xD8B JUMP JUMPDEST PUSH1 0x40 MLOAD PUSH2 0x1E7 SWAP2 SWAP1 PUSH2 0x1A36 JUMP JUMPDEST PUSH1 0x40 MLOAD DUP1 SWAP2 SUB SWAP1 RETURN JUMPDEST CALLVALUE DUP1 ISZERO PUSH2 0x1FC JUMPI PUSH1 0x0 DUP1 REVERT JUMPDEST POP PUSH2 0x217 PUSH1 0x4 DUP1 CALLDATASIZE SUB DUP2 ADD SWAP1 PUSH2 0x212 SWAP2 SWAP1 PUSH2 0x15D1 JUMP JUMPDEST PUSH2 0xE19 JUMP JUMPDEST STOP JUMPDEST CALLVALUE DUP1 ISZERO PUSH2 0x225 JUMPI PUSH1 0x0 DUP1 REVERT JUMPDEST POP PUSH2 0x240 PUSH1 0x4 DUP1 CALLDATASIZE SUB DUP2 ADD SWAP1 PUSH2 0x23B SWAP2 SWAP1 PUSH2 0x1611 JUMP JUMPDEST PUSH2 0xFA2 JUMP JUMPDEST STOP JUMPDEST CALLVALUE DUP1 ISZERO PUSH2 0x24E JUMPI PUSH1 0x0 DUP1 REVERT JUMPDEST POP PUSH2 0x257 PUSH2 0x10A4 JUMP JUMPDEST PUSH1 0x40 MLOAD PUSH2 0x264 SWAP2 SWAP1 PUSH2 0x19D0 JUMP JUMPDEST PUSH1 0x40 MLOAD DUP1 SWAP2 SUB SWAP1 RETURN JUMPDEST PUSH2 0x275 PUSH2 0x10CA JUMP JUMPDEST STOP JUMPDEST CALLVALUE DUP1 ISZERO PUSH2 0x283 JUMPI PUSH1 0x0 DUP1 REVERT JUMPDEST POP PUSH2 0x29E PUSH1 0x4 DUP1 CALLDATASIZE SUB DUP2 ADD SWAP1 PUSH2 0x299 SWAP2 SWAP1 PUSH2 0x1535 JUMP JUMPDEST PUSH2 0x1222 JUMP JUMPDEST PUSH1 0x40 MLOAD PUSH2 0x2AC SWAP3 SWAP2 SWAP1 PUSH2 0x1A06 JUMP JUMPDEST PUSH1 0x40 MLOAD DUP1 SWAP2 SUB SWAP1 RETURN JUMPDEST CALLVALUE DUP1 ISZERO PUSH2 0x2C1 JUMPI PUSH1 0x0 DUP1 REVERT JUMPDEST POP PUSH2 0x2DC PUSH1 0x4 DUP1 CALLDATASIZE SUB DUP2 ADD SWAP1 PUSH2 0x2D7 SWAP2 SWAP1 PUSH2 0x1535 JUMP JUMPDEST PUSH2 0x134A JUMP JUMPDEST PUSH1 0x40 MLOAD PUSH2 0x2E9 SWAP2 SWAP1 PUSH2 0x1AB8 JUMP JUMPDEST PUSH1 0x40 MLOAD DUP1 SWAP2 SUB SWAP1 RETURN JUMPDEST CALLVALUE DUP1 ISZERO PUSH2 0x2FE JUMPI PUSH1 0x0 DUP1 REVERT JUMPDEST POP PUSH2 0x319 PUSH1 0x4 DUP1 CALLDATASIZE SUB DUP2 ADD SWAP1 PUSH2 0x314 SWAP2 SWAP1 PUSH2 0x163E JUMP JUMPDEST PUSH2 0x136B JUMP JUMPDEST PUSH1 0x40 MLOAD PUSH2 0x32D SWAP9 SWAP8 SWAP7 SWAP6 SWAP5 SWAP4 SWAP3 SWAP2 SWAP1 PUSH2 0x1AD3 JUMP JUMPDEST PUSH1 0x40 MLOAD DUP1 SWAP2 SUB SWAP1 RETURN JUMPDEST CALLVALUE DUP1 ISZERO PUSH2 0x342 JUMPI PUSH1 0x0 DUP1 REVERT JUMPDEST POP PUSH2 0x35D PUSH1 0x4 DUP1 CALLDATASIZE SUB DUP2 ADD SWAP1 PUSH2 0x358 SWAP2 SWAP1 PUSH2 0x1535 JUMP JUMPDEST PUSH2 0x1385 JUMP JUMPDEST PUSH1 0x40 MLOAD PUSH2 0x36A SWAP2 SWAP1 PUSH2 0x1AB8 JUMP JUMPDEST PUSH1 0x40 MLOAD DUP1 SWAP2 SUB SWAP1 RETURN JUMPDEST PUSH1 0x0 DUP1 SLOAD PUSH2 0x380 SWAP1 PUSH2 0x1D83 JUMP JUMPDEST DUP1 PUSH1 0x1F ADD PUSH1 0x20 DUP1 SWAP2 DIV MUL PUSH1 0x20 ADD PUSH1 0x40 MLOAD SWAP1 DUP2 ADD PUSH1 0x40 MSTORE DUP1 SWAP3 SWAP2 SWAP1 DUP2 DUP2 MSTORE PUSH1 0x20 ADD DUP3 DUP1 SLOAD PUSH2 0x3AC SWAP1 PUSH2 0x1D83 JUMP JUMPDEST DUP1 ISZERO PUSH2 0x3F9 JUMPI DUP1 PUSH1 0x1F LT PUSH2 0x3CE JUMPI PUSH2 0x100 DUP1 DUP4 SLOAD DIV MUL DUP4 MSTORE SWAP2 PUSH1 0x20 ADD SWAP2 PUSH2 0x3F9 JUMP JUMPDEST DUP3 ADD SWAP2 SWAP1 PUSH1 0x0 MSTORE PUSH1 0x20 PUSH1 0x0 KECCAK256 SWAP1 JUMPDEST DUP2 SLOAD DUP2 MSTORE SWAP1 PUSH1 0x1 ADD SWAP1 PUSH1 0x20 ADD DUP1 DUP4 GT PUSH2 0x3DC JUMPI DUP3 SWAP1 SUB PUSH1 0x1F AND DUP3 ADD SWAP2 JUMPDEST POP POP POP POP POP DUP2 JUMP JUMPDEST PUSH1 0x0 PUSH1 0x5 PUSH1 0x0 DUP6 PUSH20 0xFFFFFFFFFFFFFFFFFFFFFFFFFFFFFFFFFFFFFFFF AND PUSH20 0xFFFFFFFFFFFFFFFFFFFFFFFFFFFFFFFFFFFFFFFF AND DUP2 MSTORE PUSH1 0x20 ADD SWAP1 DUP2 MSTORE PUSH1 0x20 ADD PUSH1 0x0 KECCAK256 PUSH1 0x40 MLOAD DUP1 PUSH1 0x60 ADD PUSH1 0x40 MSTORE SWAP1 DUP2 PUSH1 0x0 DUP3 ADD PUSH1 0x0 SWAP1 SLOAD SWAP1 PUSH2 0x100 EXP SWAP1 DIV PUSH1 0xFF AND PUSH1 0x4 DUP2 GT ISZERO PUSH2 0x472 JUMPI PUSH2 0x471 PUSH2 0x1E44 JUMP JUMPDEST JUMPDEST PUSH1 0x4 DUP2 GT ISZERO PUSH2 0x484 JUMPI PUSH2 0x483 PUSH2 0x1E44 JUMP JUMPDEST JUMPDEST DUP2 MSTORE PUSH1 0x20 ADD PUSH1 0x1 DUP3 ADD DUP1 SLOAD PUSH2 0x498 SWAP1 PUSH2 0x1D83 JUMP JUMPDEST DUP1 PUSH1 0x1F ADD PUSH1 0x20 DUP1 SWAP2 DIV MUL PUSH1 0x20 ADD PUSH1 0x40 MLOAD SWAP1 DUP2 ADD PUSH1 0x40 MSTORE DUP1 SWAP3 SWAP2 SWAP1 DUP2 DUP2 MSTORE PUSH1 0x20 ADD DUP3 DUP1 SLOAD PUSH2 0x4C4 SWAP1 PUSH2 0x1D83 JUMP JUMPDEST DUP1 ISZERO PUSH2 0x511 JUMPI DUP1 PUSH1 0x1F LT PUSH2 0x4E6 JUMPI PUSH2 0x100 DUP1 DUP4 SLOAD DIV MUL DUP4 MSTORE SWAP2 PUSH1 0x20 ADD SWAP2 PUSH2 0x511 JUMP JUMPDEST DUP3 ADD SWAP2 SWAP1 PUSH1 0x0 MSTORE PUSH1 0x20 PUSH1 0x0 KECCAK256 SWAP1 JUMPDEST DUP2 SLOAD DUP2 MSTORE SWAP1 PUSH1 0x1 ADD SWAP1 PUSH1 0x20 ADD DUP1 DUP4 GT PUSH2 0x4F4 JUMPI DUP3 SWAP1 SUB PUSH1 0x1F AND DUP3 ADD SWAP2 JUMPDEST POP POP POP POP POP DUP2 MSTORE PUSH1 0x20 ADD PUSH1 0x2 DUP3 ADD PUSH1 0x0 SWAP1 SLOAD SWAP1 PUSH2 0x100 EXP SWAP1 DIV PUSH1 0xFF AND ISZERO ISZERO ISZERO ISZERO DUP2 MSTORE POP POP SWAP1 POP DUP3 DUP2 PUSH1 0x0 ADD SWAP1 PUSH1 0x4 DUP2 GT ISZERO PUSH2 0x54F JUMPI PUSH2 0x54E PUSH2 0x1E44 JUMP JUMPDEST JUMPDEST SWAP1 DUP2 PUSH1 0x4 DUP2 GT ISZERO PUSH2 0x563 JUMPI PUSH2 0x562 PUSH2 0x1E44 JUMP JUMPDEST JUMPDEST DUP2 MSTORE POP POP DUP2 DUP2 PUSH1 0x20 ADD DUP2 SWAP1 MSTORE POP PUSH1 0x1 DUP2 PUSH1 0x40 ADD SWAP1 ISZERO ISZERO SWAP1 DUP2 ISZERO ISZERO DUP2 MSTORE POP POP DUP1 PUSH1 0x5 PUSH1 0x0 DUP7 PUSH20 0xFFFFFFFFFFFFFFFFFFFFFFFFFFFFFFFFFFFFFFFF AND PUSH20 0xFFFFFFFFFFFFFFFFFFFFFFFFFFFFFFFFFFFFFFFF AND DUP2 MSTORE PUSH1 0x20 ADD SWAP1 DUP2 MSTORE PUSH1 0x20 ADD PUSH1 0x0 KECCAK256 PUSH1 0x0 DUP3 ADD MLOAD DUP2 PUSH1 0x0 ADD PUSH1 0x0 PUSH2 0x100 EXP DUP2 SLOAD DUP2 PUSH1 0xFF MUL NOT AND SWAP1 DUP4 PUSH1 0x4 DUP2 GT ISZERO PUSH2 0x5EC JUMPI PUSH2 0x5EB PUSH2 0x1E44 JUMP JUMPDEST JUMPDEST MUL OR SWAP1 SSTORE POP PUSH1 0x20 DUP3 ADD MLOAD DUP2 PUSH1 0x1 ADD SWAP1 DUP1 MLOAD SWAP1 PUSH1 0x20 ADD SWAP1 PUSH2 0x60D SWAP3 SWAP2 SWAP1 PUSH2 0x13CE JUMP JUMPDEST POP PUSH1 0x40 DUP3 ADD MLOAD DUP2 PUSH1 0x2 ADD PUSH1 0x0 PUSH2 0x100 EXP DUP2 SLOAD DUP2 PUSH1 0xFF MUL NOT AND SWAP1 DUP4 ISZERO ISZERO MUL OR SWAP1 SSTORE POP SWAP1 POP POP POP POP POP POP JUMP JUMPDEST PUSH1 0x1 PUSH1 0x4 DUP2 GT ISZERO PUSH2 0x64B JUMPI PUSH2 0x64A PUSH2 0x1E44 JUMP JUMPDEST JUMPDEST PUSH1 0x5 PUSH1 0x0 CALLER PUSH20 0xFFFFFFFFFFFFFFFFFFFFFFFFFFFFFFFFFFFFFFFF AND PUSH20 0xFFFFFFFFFFFFFFFFFFFFFFFFFFFFFFFFFFFFFFFF AND DUP2 MSTORE PUSH1 0x20 ADD SWAP1 DUP2 MSTORE PUSH1 0x20 ADD PUSH1 0x0 KECCAK256 PUSH1 0x0 ADD PUSH1 0x0 SWAP1 SLOAD SWAP1 PUSH2 0x100 EXP SWAP1 DIV PUSH1 0xFF AND PUSH1 0x4 DUP2 GT ISZERO PUSH2 0x6AD JUMPI PUSH2 0x6AC PUSH2 0x1E44 JUMP JUMPDEST JUMPDEST EQ PUSH2 0x6ED JUMPI PUSH1 0x40 MLOAD PUSH32 0x8C379A000000000000000000000000000000000000000000000000000000000 DUP2 MSTORE PUSH1 0x4 ADD PUSH2 0x6E4 SWAP1 PUSH2 0x1A58 JUMP JUMPDEST PUSH1 0x40 MLOAD DUP1 SWAP2 SUB SWAP1 REVERT JUMPDEST PUSH1 0x0 PUSH1 0x6 PUSH1 0x0 DUP8 DUP2 MSTORE PUSH1 0x20 ADD SWAP1 DUP2 MSTORE PUSH1 0x20 ADD PUSH1 0x0 KECCAK256 SWAP1 POP PUSH1 0x0 PUSH1 0x4 PUSH1 0x0 CALLER PUSH20 0xFFFFFFFFFFFFFFFFFFFFFFFFFFFFFFFFFFFFFFFF AND PUSH20 0xFFFFFFFFFFFFFFFFFFFFFFFFFFFFFFFFFFFFFFFF AND DUP2 MSTORE PUSH1 0x20 ADD SWAP1 DUP2 MSTORE PUSH1 0x20 ADD PUSH1 0x0 KECCAK256 SLOAD SWAP1 POP DUP2 PUSH1 0x8 ADD SLOAD DUP2 LT ISZERO PUSH2 0x759 JUMPI PUSH1 0x0 DUP1 REVERT JUMPDEST PUSH1 0x0 PUSH1 0x5 DUP2 GT ISZERO PUSH2 0x76D JUMPI PUSH2 0x76C PUSH2 0x1E44 JUMP JUMPDEST JUMPDEST DUP3 PUSH1 0x7 ADD PUSH1 0x0 SWAP1 SLOAD SWAP1 PUSH2 0x100 EXP SWAP1 DIV PUSH1 0xFF AND PUSH1 0x5 DUP2 GT ISZERO PUSH2 0x791 JUMPI PUSH2 0x790 PUSH2 0x1E44 JUMP JUMPDEST JUMPDEST EQ PUSH2 0x79B JUMPI PUSH1 0x0 DUP1 REVERT JUMPDEST DUP6 PUSH1 0x6 PUSH1 0x0 DUP10 DUP2 MSTORE PUSH1 0x20 ADD SWAP1 DUP2 MSTORE PUSH1 0x20 ADD PUSH1 0x0 KECCAK256 PUSH1 0x3 ADD PUSH1 0x1 PUSH1 0x4 DUP2 LT PUSH2 0x7C5 JUMPI PUSH2 0x7C4 PUSH2 0x1EA2 JUMP JUMPDEST JUMPDEST ADD DUP2 SWAP1 SSTORE POP CALLER PUSH1 0x6 PUSH1 0x0 DUP10 DUP2 MSTORE PUSH1 0x20 ADD SWAP1 DUP2 MSTORE PUSH1 0x20 ADD PUSH1 0x0 KECCAK256 PUSH1 0x9 ADD PUSH1 0x0 PUSH2 0x100 EXP DUP2 SLOAD DUP2 PUSH20 0xFFFFFFFFFFFFFFFFFFFFFFFFFFFFFFFFFFFFFFFF MUL NOT AND SWAP1 DUP4 PUSH20 0xFFFFFFFFFFFFFFFFFFFFFFFFFFFFFFFFFFFFFFFF AND MUL OR SWAP1 SSTORE POP PUSH2 0x863 PUSH1 0x6 PUSH1 0x0 DUP10 DUP2 MSTORE PUSH1 0x20 ADD SWAP1 DUP2 MSTORE PUSH1 0x20 ADD PUSH1 0x0 KECCAK256 PUSH1 0x1 ADD PUSH1 0x0 SWAP1 SLOAD SWAP1 PUSH2 0x100 EXP SWAP1 DIV PUSH20 0xFFFFFFFFFFFFFFFFFFFFFFFFFFFFFFFFFFFFFFFF AND DUP4 PUSH1 0x8 ADD SLOAD PUSH2 0xC4D JUMP JUMPDEST POP PUSH1 0x5 PUSH1 0x6 PUSH1 0x0 DUP10 DUP2 MSTORE PUSH1 0x20 ADD SWAP1 DUP2 MSTORE PUSH1 0x20 ADD PUSH1 0x0 KECCAK256 PUSH1 0x7 ADD PUSH1 0x0 PUSH2 0x100 EXP DUP2 SLOAD DUP2 PUSH1 0xFF MUL NOT AND SWAP1 DUP4 PUSH1 0x5 DUP2 GT ISZERO PUSH2 0x89E JUMPI PUSH2 0x89D PUSH2 0x1E44 JUMP JUMPDEST JUMPDEST MUL OR SWAP1 SSTORE POP CALLER PUSH1 0x6 PUSH1 0x0 DUP10 DUP2 MSTORE PUSH1 0x20 ADD SWAP1 DUP2 MSTORE PUSH1 0x20 ADD PUSH1 0x0 KECCAK256 PUSH1 0x1 ADD PUSH1 0x0 PUSH2 0x100 EXP DUP2 SLOAD DUP2 PUSH20 0xFFFFFFFFFFFFFFFFFFFFFFFFFFFFFFFFFFFFFFFF MUL NOT AND SWAP1 DUP4 PUSH20 0xFFFFFFFFFFFFFFFFFFFFFFFFFFFFFFFFFFFFFFFF AND MUL OR SWAP1 SSTORE POP POP POP POP POP POP POP POP JUMP JUMPDEST PUSH1 0x0 PUSH1 0x4 DUP2 GT ISZERO PUSH2 0x915 JUMPI PUSH2 0x914 PUSH2 0x1E44 JUMP JUMPDEST JUMPDEST PUSH1 0x5 PUSH1 0x0 CALLER PUSH20 0xFFFFFFFFFFFFFFFFFFFFFFFFFFFFFFFFFFFFFFFF AND PUSH20 0xFFFFFFFFFFFFFFFFFFFFFFFFFFFFFFFFFFFFFFFF AND DUP2 MSTORE PUSH1 0x20 ADD SWAP1 DUP2 MSTORE PUSH1 0x20 ADD PUSH1 0x0 KECCAK256 PUSH1 0x0 ADD PUSH1 0x0 SWAP1 SLOAD SWAP1 PUSH2 0x100 EXP SWAP1 DIV PUSH1 0xFF AND PUSH1 0x4 DUP2 GT ISZERO PUSH2 0x977 JUMPI PUSH2 0x976 PUSH2 0x1E44 JUMP JUMPDEST JUMPDEST EQ PUSH2 0x9B7 JUMPI PUSH1 0x40 MLOAD PUSH32 0x8C379A000000000000000000000000000000000000000000000000000000000 DUP2 MSTORE PUSH1 0x4 ADD PUSH2 0x9AE SWAP1 PUSH2 0x1A78 JUMP JUMPDEST PUSH1 0x40 MLOAD DUP1 SWAP2 SUB SWAP1 REVERT JUMPDEST PUSH1 0x0 PUSH1 0x6 PUSH1 0x0 DUP13 DUP2 MSTORE PUSH1 0x20 ADD SWAP1 DUP2 MSTORE PUSH1 0x20 ADD PUSH1 0x0 KECCAK256 SWAP1 POP DUP11 DUP2 PUSH1 0x0 ADD DUP2 SWAP1 SSTORE POP CALLER DUP2 PUSH1 0x1 ADD PUSH1 0x0 PUSH2 0x100 EXP DUP2 SLOAD DUP2 PUSH20 0xFFFFFFFFFFFFFFFFFFFFFFFFFFFFFFFFFFFFFFFF MUL NOT AND SWAP1 DUP4 PUSH20 0xFFFFFFFFFFFFFFFFFFFFFFFFFFFFFFFFFFFFFFFF AND MUL OR SWAP1 SSTORE POP CALLER DUP2 PUSH1 0x2 ADD PUSH1 0x0 PUSH2 0x100 EXP DUP2 SLOAD DUP2 PUSH20 0xFFFFFFFFFFFFFFFFFFFFFFFFFFFFFFFFFFFFFFFF MUL NOT AND SWAP1 DUP4 PUSH20 0xFFFFFFFFFFFFFFFFFFFFFFFFFFFFFFFFFFFFFFFF AND MUL OR SWAP1 SSTORE POP DUP10 DUP2 PUSH1 0x3 ADD PUSH1 0x0 PUSH1 0x4 DUP2 LT PUSH2 0xA75 JUMPI PUSH2 0xA74 PUSH2 0x1EA2 JUMP JUMPDEST JUMPDEST ADD DUP2 SWAP1 SSTORE POP PUSH1 0x0 DUP2 PUSH1 0x7 ADD PUSH1 0x0 PUSH2 0x100 EXP DUP2 SLOAD DUP2 PUSH1 0xFF MUL NOT AND SWAP1 DUP4 PUSH1 0x5 DUP2 GT ISZERO PUSH2 0xAA2 JUMPI PUSH2 0xAA1 PUSH2 0x1E44 JUMP JUMPDEST JUMPDEST MUL OR SWAP1 SSTORE POP DUP9 DUP2 PUSH1 0x8 ADD DUP2 SWAP1 SSTORE POP PUSH1 0x0 DUP2 PUSH1 0x9 ADD PUSH1 0x0 PUSH2 0x100 EXP DUP2 SLOAD DUP2 PUSH20 0xFFFFFFFFFFFFFFFFFFFFFFFFFFFFFFFFFFFFFFFF MUL NOT AND SWAP1 DUP4 PUSH20 0xFFFFFFFFFFFFFFFFFFFFFFFFFFFFFFFFFFFFFFFF AND MUL OR SWAP1 SSTORE POP PUSH1 0x0 DUP2 PUSH1 0xA ADD PUSH1 0x0 PUSH2 0x100 EXP DUP2 SLOAD DUP2 PUSH20 0xFFFFFFFFFFFFFFFFFFFFFFFFFFFFFFFFFFFFFFFF MUL NOT AND SWAP1 DUP4 PUSH20 0xFFFFFFFFFFFFFFFFFFFFFFFFFFFFFFFFFFFFFFFF AND MUL OR SWAP1 SSTORE POP PUSH1 0x0 DUP2 PUSH1 0xB ADD PUSH1 0x0 PUSH2 0x100 EXP DUP2 SLOAD DUP2 PUSH20 0xFFFFFFFFFFFFFFFFFFFFFFFFFFFFFFFFFFFFFFFF MUL NOT AND SWAP1 DUP4 PUSH20 0xFFFFFFFFFFFFFFFFFFFFFFFFFFFFFFFFFFFFFFFF AND MUL OR SWAP1 SSTORE POP DUP8 DUP2 PUSH1 0xC ADD PUSH1 0x0 ADD SWAP1 DUP1 MLOAD SWAP1 PUSH1 0x20 ADD SWAP1 PUSH2 0xB97 SWAP3 SWAP2 SWAP1 PUSH2 0x13CE JUMP JUMPDEST POP DUP7 DUP2 PUSH1 0xC ADD PUSH1 0x1 ADD SWAP1 DUP1 MLOAD SWAP1 PUSH1 0x20 ADD SWAP1 PUSH2 0xBB3 SWAP3 SWAP2 SWAP1 PUSH2 0x13CE JUMP JUMPDEST POP DUP6 DUP2 PUSH1 0xC ADD PUSH1 0x2 ADD SWAP1 DUP1 MLOAD SWAP1 PUSH1 0x20 ADD SWAP1 PUSH2 0xBCF SWAP3 SWAP2 SWAP1 PUSH2 0x13CE JUMP JUMPDEST POP DUP5 DUP2 PUSH1 0xC ADD PUSH1 0x3 ADD SWAP1 DUP1 MLOAD SWAP1 PUSH1 0x20 ADD SWAP1 PUSH2 0xBEB SWAP3 SWAP2 SWAP1 PUSH2 0x13CE JUMP JUMPDEST POP DUP4 DUP2 PUSH1 0xC ADD PUSH1 0x4 ADD SWAP1 DUP1 MLOAD SWAP1 PUSH1 0x20 ADD SWAP1 PUSH2 0xC07 SWAP3 SWAP2 SWAP1 PUSH2 0x13CE JUMP JUMPDEST POP DUP3 DUP2 PUSH1 0xC ADD PUSH1 0x5 ADD SWAP1 DUP1 MLOAD SWAP1 PUSH1 0x20 ADD SWAP1 PUSH2 0xC23 SWAP3 SWAP2 SWAP1 PUSH2 0x13CE JUMP JUMPDEST POP DUP2 DUP2 PUSH1 0xC ADD PUSH1 0x6 ADD SWAP1 DUP1 MLOAD SWAP1 PUSH1 0x20 ADD SWAP1 PUSH2 0xC3F SWAP3 SWAP2 SWAP1 PUSH2 0x13CE JUMP JUMPDEST POP POP POP POP POP POP POP POP POP POP POP POP JUMP JUMPDEST PUSH1 0x0 DUP2 PUSH1 0x4 PUSH1 0x0 CALLER PUSH20 0xFFFFFFFFFFFFFFFFFFFFFFFFFFFFFFFFFFFFFFFF AND PUSH20 0xFFFFFFFFFFFFFFFFFFFFFFFFFFFFFFFFFFFFFFFF AND DUP2 MSTORE PUSH1 0x20 ADD SWAP1 DUP2 MSTORE PUSH1 0x20 ADD PUSH1 0x0 KECCAK256 SLOAD LT ISZERO PUSH2 0xC9B JUMPI PUSH1 0x0 DUP1 REVERT JUMPDEST PUSH1 0x0 PUSH20 0xFFFFFFFFFFFFFFFFFFFFFFFFFFFFFFFFFFFFFFFF AND DUP4 PUSH20 0xFFFFFFFFFFFFFFFFFFFFFFFFFFFFFFFFFFFFFFFF AND EQ ISZERO PUSH2 0xCD5 JUMPI PUSH1 0x0 DUP1 REVERT JUMPDEST DUP2 PUSH1 0x4 PUSH1 0x0 CALLER PUSH20 0xFFFFFFFFFFFFFFFFFFFFFFFFFFFFFFFFFFFFFFFF AND PUSH20 0xFFFFFFFFFFFFFFFFFFFFFFFFFFFFFFFFFFFFFFFF AND DUP2 MSTORE PUSH1 0x20 ADD SWAP1 DUP2 MSTORE PUSH1 0x20 ADD PUSH1 0x0 KECCAK256 PUSH1 0x0 DUP3 DUP3 SLOAD PUSH2 0xD24 SWAP2 SWAP1 PUSH2 0x1C5F JUMP JUMPDEST SWAP3 POP POP DUP2 SWAP1 SSTORE POP DUP2 PUSH1 0x4 PUSH1 0x0 DUP6 PUSH20 0xFFFFFFFFFFFFFFFFFFFFFFFFFFFFFFFFFFFFFFFF AND PUSH20 0xFFFFFFFFFFFFFFFFFFFFFFFFFFFFFFFFFFFFFFFF AND DUP2 MSTORE PUSH1 0x20 ADD SWAP1 DUP2 MSTORE PUSH1 0x20 ADD PUSH1 0x0 KECCAK256 PUSH1 0x0 DUP3 DUP3 SLOAD PUSH2 0xD7A SWAP2 SWAP1 PUSH2 0x1BD8 JUMP JUMPDEST SWAP3 POP POP DUP2 SWAP1 SSTORE POP PUSH1 0x1 SWAP1 POP SWAP3 SWAP2 POP POP JUMP JUMPDEST PUSH1 0x1 DUP1 SLOAD PUSH2 0xD98 SWAP1 PUSH2 0x1D83 JUMP JUMPDEST DUP1 PUSH1 0x1F ADD PUSH1 0x20 DUP1 SWAP2 DIV MUL PUSH1 0x20 ADD PUSH1 0x40 MLOAD SWAP1 DUP2 ADD PUSH1 0x40 MSTORE DUP1 SWAP3 SWAP2 SWAP1 DUP2 DUP2 MSTORE PUSH1 0x20 ADD DUP3 DUP1 SLOAD PUSH2 0xDC4 SWAP1 PUSH2 0x1D83 JUMP JUMPDEST DUP1 ISZERO PUSH2 0xE11 JUMPI DUP1 PUSH1 0x1F LT PUSH2 0xDE6 JUMPI PUSH2 0x100 DUP1 DUP4 SLOAD DIV MUL DUP4 MSTORE SWAP2 PUSH1 0x20 ADD SWAP2 PUSH2 0xE11 JUMP JUMPDEST DUP3 ADD SWAP2 SWAP1 PUSH1 0x0 MSTORE PUSH1 0x20 PUSH1 0x0 KECCAK256 SWAP1 JUMPDEST DUP2 SLOAD DUP2 MSTORE SWAP1 PUSH1 0x1 ADD SWAP1 PUSH1 0x20 ADD DUP1 DUP4 GT PUSH2 0xDF4 JUMPI DUP3 SWAP1 SUB PUSH1 0x1F AND DUP3 ADD SWAP2 JUMPDEST POP POP POP POP POP DUP2 JUMP JUMPDEST PUSH1 0x2 PUSH1 0x0 SWAP1 SLOAD SWAP1 PUSH2 0x100 EXP SWAP1 DIV PUSH20 0xFFFFFFFFFFFFFFFFFFFFFFFFFFFFFFFFFFFFFFFF AND PUSH20 0xFFFFFFFFFFFFFFFFFFFFFFFFFFFFFFFFFFFFFFFF AND CALLER PUSH20 0xFFFFFFFFFFFFFFFFFFFFFFFFFFFFFFFFFFFFFFFF AND EQ PUSH2 0xEA9 JUMPI PUSH1 0x40 MLOAD PUSH32 0x8C379A000000000000000000000000000000000000000000000000000000000 DUP2 MSTORE PUSH1 0x4 ADD PUSH2 0xEA0 SWAP1 PUSH2 0x1A98 JUMP JUMPDEST PUSH1 0x40 MLOAD DUP1 SWAP2 SUB SWAP1 REVERT JUMPDEST PUSH1 0x0 PUSH20 0xFFFFFFFFFFFFFFFFFFFFFFFFFFFFFFFFFFFFFFFF AND DUP3 PUSH20 0xFFFFFFFFFFFFFFFFFFFFFFFFFFFFFFFFFFFFFFFF AND EQ ISZERO PUSH2 0xEE3 JUMPI PUSH1 0x0 DUP1 REVERT JUMPDEST PUSH1 0x4 PUSH1 0x0 DUP4 PUSH20 0xFFFFFFFFFFFFFFFFFFFFFFFFFFFFFFFFFFFFFFFF AND PUSH20 0xFFFFFFFFFFFFFFFFFFFFFFFFFFFFFFFFFFFFFFFF AND DUP2 MSTORE PUSH1 0x20 ADD SWAP1 DUP2 MSTORE PUSH1 0x20 ADD PUSH1 0x0 KECCAK256 SLOAD DUP2 GT ISZERO PUSH2 0xF2F JUMPI PUSH1 0x0 DUP1 REVERT JUMPDEST DUP1 PUSH1 0x3 PUSH1 0x0 DUP3 DUP3 SLOAD PUSH2 0xF41 SWAP2 SWAP1 PUSH2 0x1C5F JUMP JUMPDEST SWAP3 POP POP DUP2 SWAP1 SSTORE POP DUP1 PUSH1 0x4 PUSH1 0x0 DUP5 PUSH20 0xFFFFFFFFFFFFFFFFFFFFFFFFFFFFFFFFFFFFFFFF AND PUSH20 0xFFFFFFFFFFFFFFFFFFFFFFFFFFFFFFFFFFFFFFFF AND DUP2 MSTORE PUSH1 0x20 ADD SWAP1 DUP2 MSTORE PUSH1 0x20 ADD PUSH1 0x0 KECCAK256 PUSH1 0x0 DUP3 DUP3 SLOAD PUSH2 0xF97 SWAP2 SWAP1 PUSH2 0x1C5F JUMP JUMPDEST SWAP3 POP POP DUP2 SWAP1 SSTORE POP POP POP JUMP JUMPDEST PUSH1 0x2 PUSH1 0x0 SWAP1 SLOAD SWAP1 PUSH2 0x100 EXP SWAP1 DIV PUSH20 0xFFFFFFFFFFFFFFFFFFFFFFFFFFFFFFFFFFFFFFFF AND PUSH20 0xFFFFFFFFFFFFFFFFFFFFFFFFFFFFFFFFFFFFFFFF AND CALLER PUSH20 0xFFFFFFFFFFFFFFFFFFFFFFFFFFFFFFFFFFFFFFFF AND EQ PUSH2 0x1032 JUMPI PUSH1 0x40 MLOAD PUSH32 0x8C379A000000000000000000000000000000000000000000000000000000000 DUP2 MSTORE PUSH1 0x4 ADD PUSH2 0x1029 SWAP1 PUSH2 0x1A98 JUMP JUMPDEST PUSH1 0x40 MLOAD DUP1 SWAP2 SUB SWAP1 REVERT JUMPDEST DUP1 PUSH1 0x3 PUSH1 0x0 DUP3 DUP3 SLOAD PUSH2 0x1044 SWAP2 SWAP1 PUSH2 0x1BD8 JUMP JUMPDEST SWAP3 POP POP DUP2 SWAP1 SSTORE POP DUP1 PUSH1 0x4 PUSH1 0x0 CALLER PUSH20 0xFFFFFFFFFFFFFFFFFFFFFFFFFFFFFFFFFFFFFFFF AND PUSH20 0xFFFFFFFFFFFFFFFFFFFFFFFFFFFFFFFFFFFFFFFF AND DUP2 MSTORE PUSH1 0x20 ADD SWAP1 DUP2 MSTORE PUSH1 0x20 ADD PUSH1 0x0 KECCAK256 PUSH1 0x0 DUP3 DUP3 SLOAD PUSH2 0x109A SWAP2 SWAP1 PUSH2 0x1BD8 JUMP JUMPDEST SWAP3 POP POP DUP2 SWAP1 SSTORE POP POP JUMP JUMPDEST PUSH1 0x2 PUSH1 0x0 SWAP1 SLOAD SWAP1 PUSH2 0x100 EXP SWAP1 DIV PUSH20 0xFFFFFFFFFFFFFFFFFFFFFFFFFFFFFFFFFFFFFFFF AND DUP2 JUMP JUMPDEST PUSH1 0x0 PUSH1 0x64 CALLVALUE PUSH2 0x10D9 SWAP2 SWAP1 PUSH2 0x1C2E JUMP JUMPDEST SWAP1 POP PUSH1 0x0 CALLVALUE GT PUSH2 0x10E8 JUMPI PUSH1 0x0 DUP1 REVERT JUMPDEST PUSH1 0x2 PUSH1 0x0 SWAP1 SLOAD SWAP1 PUSH2 0x100 EXP SWAP1 DIV PUSH20 0xFFFFFFFFFFFFFFFFFFFFFFFFFFFFFFFFFFFFFFFF AND PUSH20 0xFFFFFFFFFFFFFFFFFFFFFFFFFFFFFFFFFFFFFFFF AND PUSH2 0x8FC CALLVALUE SWAP1 DUP2 ISZERO MUL SWAP1 PUSH1 0x40 MLOAD PUSH1 0x0 PUSH1 0x40 MLOAD DUP1 DUP4 SUB DUP2 DUP6 DUP9 DUP9 CALL SWAP4 POP POP POP POP ISZERO DUP1 ISZERO PUSH2 0x1150 JUMPI RETURNDATASIZE PUSH1 0x0 DUP1 RETURNDATACOPY RETURNDATASIZE PUSH1 0x0 REVERT JUMPDEST POP DUP1 PUSH1 0x4 PUSH1 0x0 PUSH1 0x2 PUSH1 0x0 SWAP1 SLOAD SWAP1 PUSH2 0x100 EXP SWAP1 DIV PUSH20 0xFFFFFFFFFFFFFFFFFFFFFFFFFFFFFFFFFFFFFFFF AND PUSH20 0xFFFFFFFFFFFFFFFFFFFFFFFFFFFFFFFFFFFFFFFF AND PUSH20 0xFFFFFFFFFFFFFFFFFFFFFFFFFFFFFFFFFFFFFFFF AND DUP2 MSTORE PUSH1 0x20 ADD SWAP1 DUP2 MSTORE PUSH1 0x20 ADD PUSH1 0x0 KECCAK256 PUSH1 0x0 DUP3 DUP3 SLOAD PUSH2 0x11C2 SWAP2 SWAP1 PUSH2 0x1C5F JUMP JUMPDEST SWAP3 POP POP DUP2 SWAP1 SSTORE POP DUP1 PUSH1 0x4 PUSH1 0x0 CALLER PUSH20 0xFFFFFFFFFFFFFFFFFFFFFFFFFFFFFFFFFFFFFFFF AND PUSH20 0xFFFFFFFFFFFFFFFFFFFFFFFFFFFFFFFFFFFFFFFF AND DUP2 MSTORE PUSH1 0x20 ADD SWAP1 DUP2 MSTORE PUSH1 0x20 ADD PUSH1 0x0 KECCAK256 PUSH1 0x0 DUP3 DUP3 SLOAD PUSH2 0x1218 SWAP2 SWAP1 PUSH2 0x1BD8 JUMP JUMPDEST SWAP3 POP POP DUP2 SWAP1 SSTORE POP POP JUMP JUMPDEST PUSH1 0x0 PUSH1 0x60 PUSH1 0x5 PUSH1 0x0 DUP5 PUSH20 0xFFFFFFFFFFFFFFFFFFFFFFFFFFFFFFFFFFFFFFFF AND PUSH20 0xFFFFFFFFFFFFFFFFFFFFFFFFFFFFFFFFFFFFFFFF AND DUP2 MSTORE PUSH1 0x20 ADD SWAP1 DUP2 MSTORE PUSH1 0x20 ADD PUSH1 0x0 KECCAK256 PUSH1 0x0 ADD PUSH1 0x0 SWAP1 SLOAD SWAP1 PUSH2 0x100 EXP SWAP1 DIV PUSH1 0xFF AND SWAP2 POP PUSH1 0x5 PUSH1 0x0 DUP5 PUSH20 0xFFFFFFFFFFFFFFFFFFFFFFFFFFFFFFFFFFFFFFFF AND PUSH20 0xFFFFFFFFFFFFFFFFFFFFFFFFFFFFFFFFFFFFFFFF AND DUP2 MSTORE PUSH1 0x20 ADD SWAP1 DUP2 MSTORE PUSH1 0x20 ADD PUSH1 0x0 KECCAK256 PUSH1 0x1 ADD DUP1 SLOAD PUSH2 0x12C5 SWAP1 PUSH2 0x1D83 JUMP JUMPDEST DUP1 PUSH1 0x1F ADD PUSH1 0x20 DUP1 SWAP2 DIV MUL PUSH1 0x20 ADD PUSH1 0x40 MLOAD SWAP1 DUP2 ADD PUSH1 0x40 MSTORE DUP1 SWAP3 SWAP2 SWAP1 DUP2 DUP2 MSTORE PUSH1 0x20 ADD DUP3 DUP1 SLOAD PUSH2 0x12F1 SWAP1 PUSH2 0x1D83 JUMP JUMPDEST DUP1 ISZERO PUSH2 0x133E JUMPI DUP1 PUSH1 0x1F LT PUSH2 0x1313 JUMPI PUSH2 0x100 DUP1 DUP4 SLOAD DIV MUL DUP4 MSTORE SWAP2 PUSH1 0x20 ADD SWAP2 PUSH2 0x133E JUMP JUMPDEST DUP3 ADD SWAP2 SWAP1 PUSH1 0x0 MSTORE PUSH1 0x20 PUSH1 0x0 KECCAK256 SWAP1 JUMPDEST DUP2 SLOAD DUP2 MSTORE SWAP1 PUSH1 0x1 ADD SWAP1 PUSH1 0x20 ADD DUP1 DUP4 GT PUSH2 0x1321 JUMPI DUP3 SWAP1 SUB PUSH1 0x1F AND DUP3 ADD SWAP2 JUMPDEST POP POP POP POP POP SWAP1 POP SWAP2 POP SWAP2 JUMP JUMPDEST PUSH1 0x0 DUP2 PUSH20 0xFFFFFFFFFFFFFFFFFFFFFFFFFFFFFFFFFFFFFFFF AND BALANCE SWAP1 POP SWAP2 SWAP1 POP JUMP JUMPDEST PUSH1 0x0 DUP1 PUSH1 0x0 PUSH1 0x60 DUP1 PUSH1 0x60 PUSH1 0x0 DUP1 SWAP3 SWAP6 SWAP9 POP SWAP3 SWAP6 SWAP9 SWAP1 SWAP4 SWAP7 POP JUMP JUMPDEST PUSH1 0x0 PUSH1 0x4 PUSH1 0x0 DUP4 PUSH20 0xFFFFFFFFFFFFFFFFFFFFFFFFFFFFFFFFFFFFFFFF AND PUSH20 0xFFFFFFFFFFFFFFFFFFFFFFFFFFFFFFFFFFFFFFFF AND DUP2 MSTORE PUSH1 0x20 ADD SWAP1 DUP2 MSTORE PUSH1 0x20 ADD PUSH1 0x0 KECCAK256 SLOAD SWAP1 POP SWAP2 SWAP1 POP JUMP JUMPDEST DUP3 DUP1 SLOAD PUSH2 0x13DA SWAP1 PUSH2 0x1D83 JUMP JUMPDEST SWAP1 PUSH1 0x0 MSTORE PUSH1 0x20 PUSH1 0x0 KECCAK256 SWAP1 PUSH1 0x1F ADD PUSH1 0x20 SWAP1 DIV DUP2 ADD SWAP3 DUP3 PUSH2 0x13FC JUMPI PUSH1 0x0 DUP6 SSTORE PUSH2 0x1443 JUMP JUMPDEST DUP3 PUSH1 0x1F LT PUSH2 0x1415 JUMPI DUP1 MLOAD PUSH1 0xFF NOT AND DUP4 DUP1 ADD OR DUP6 SSTORE PUSH2 0x1443 JUMP JUMPDEST DUP3 DUP1 ADD PUSH1 0x1 ADD DUP6 SSTORE DUP3 ISZERO PUSH2 0x1443 JUMPI SWAP2 DUP3 ADD JUMPDEST DUP3 DUP2 GT ISZERO PUSH2 0x1442 JUMPI DUP3 MLOAD DUP3 SSTORE SWAP2 PUSH1 0x20 ADD SWAP2 SWAP1 PUSH1 0x1 ADD SWAP1 PUSH2 0x1427 JUMP JUMPDEST JUMPDEST POP SWAP1 POP PUSH2 0x1450 SWAP2 SWAP1 PUSH2 0x1454 JUMP JUMPDEST POP SWAP1 JUMP JUMPDEST JUMPDEST DUP1 DUP3 GT ISZERO PUSH2 0x146D JUMPI PUSH1 0x0 DUP2 PUSH1 0x0 SWAP1 SSTORE POP PUSH1 0x1 ADD PUSH2 0x1455 JUMP JUMPDEST POP SWAP1 JUMP JUMPDEST PUSH1 0x0 PUSH2 0x1484 PUSH2 0x147F DUP5 PUSH2 0x1B8B JUMP JUMPDEST PUSH2 0x1B66 JUMP JUMPDEST SWAP1 POP DUP3 DUP2 MSTORE PUSH1 0x20 DUP2 ADD DUP5 DUP5 DUP5 ADD GT ISZERO PUSH2 0x14A0 JUMPI PUSH2 0x149F PUSH2 0x1F05 JUMP JUMPDEST JUMPDEST PUSH2 0x14AB DUP5 DUP3 DUP6 PUSH2 0x1D41 JUMP JUMPDEST POP SWAP4 SWAP3 POP POP POP JUMP JUMPDEST PUSH1 0x0 DUP2 CALLDATALOAD SWAP1 POP PUSH2 0x14C2 DUP2 PUSH2 0x1FC8 JUMP JUMPDEST SWAP3 SWAP2 POP POP JUMP JUMPDEST PUSH1 0x0 DUP2 CALLDATALOAD SWAP1 POP PUSH2 0x14D7 DUP2 PUSH2 0x1FDF JUMP JUMPDEST SWAP3 SWAP2 POP POP JUMP JUMPDEST PUSH1 0x0 DUP2 CALLDATALOAD SWAP1 POP PUSH2 0x14EC DUP2 PUSH2 0x1FEF JUMP JUMPDEST SWAP3 SWAP2 POP POP JUMP JUMPDEST PUSH1 0x0 DUP3 PUSH1 0x1F DUP4 ADD SLT PUSH2 0x1507 JUMPI PUSH2 0x1506 PUSH2 0x1F00 JUMP JUMPDEST JUMPDEST DUP2 CALLDATALOAD PUSH2 0x1517 DUP5 DUP3 PUSH1 0x20 DUP7 ADD PUSH2 0x1471 JUMP JUMPDEST SWAP2 POP POP SWAP3 SWAP2 POP POP JUMP JUMPDEST PUSH1 0x0 DUP2 CALLDATALOAD SWAP1 POP PUSH2 0x152F DUP2 PUSH2 0x2006 JUMP JUMPDEST SWAP3 SWAP2 POP POP JUMP JUMPDEST PUSH1 0x0 PUSH1 0x20 DUP3 DUP5 SUB SLT ISZERO PUSH2 0x154B JUMPI PUSH2 0x154A PUSH2 0x1F0F JUMP JUMPDEST JUMPDEST PUSH1 0x0 PUSH2 0x1559 DUP5 DUP3 DUP6 ADD PUSH2 0x14B3 JUMP JUMPDEST SWAP2 POP POP SWAP3 SWAP2 POP POP JUMP JUMPDEST PUSH1 0x0 DUP1 PUSH1 0x0 PUSH1 0x60 DUP5 DUP7 SUB SLT ISZERO PUSH2 0x157B JUMPI PUSH2 0x157A PUSH2 0x1F0F JUMP JUMPDEST JUMPDEST PUSH1 0x0 PUSH2 0x1589 DUP7 DUP3 DUP8 ADD PUSH2 0x14B3 JUMP JUMPDEST SWAP4 POP POP PUSH1 0x20 PUSH2 0x159A DUP7 DUP3 DUP8 ADD PUSH2 0x14C8 JUMP JUMPDEST SWAP3 POP POP PUSH1 0x40 DUP5 ADD CALLDATALOAD PUSH8 0xFFFFFFFFFFFFFFFF DUP2 GT ISZERO PUSH2 0x15BB JUMPI PUSH2 0x15BA PUSH2 0x1F0A JUMP JUMPDEST JUMPDEST PUSH2 0x15C7 DUP7 DUP3 DUP8 ADD PUSH2 0x14F2 JUMP JUMPDEST SWAP2 POP POP SWAP3 POP SWAP3 POP SWAP3 JUMP JUMPDEST PUSH1 0x0 DUP1 PUSH1 0x40 DUP4 DUP6 SUB SLT ISZERO PUSH2 0x15E8 JUMPI PUSH2 0x15E7 PUSH2 0x1F0F JUMP JUMPDEST JUMPDEST PUSH1 0x0 PUSH2 0x15F6 DUP6 DUP3 DUP7 ADD PUSH2 0x14B3 JUMP JUMPDEST SWAP3 POP POP PUSH1 0x20 PUSH2 0x1607 DUP6 DUP3 DUP7 ADD PUSH2 0x1520 JUMP JUMPDEST SWAP2 POP POP SWAP3 POP SWAP3 SWAP1 POP JUMP JUMPDEST PUSH1 0x0 PUSH1 0x20 DUP3 DUP5 SUB SLT ISZERO PUSH2 0x1627 JUMPI PUSH2 0x1626 PUSH2 0x1F0F JUMP JUMPDEST JUMPDEST PUSH1 0x0 PUSH2 0x1635 DUP5 DUP3 DUP6 ADD PUSH2 0x1520 JUMP JUMPDEST SWAP2 POP POP SWAP3 SWAP2 POP POP JUMP JUMPDEST PUSH1 0x0 DUP1 PUSH1 0x40 DUP4 DUP6 SUB SLT ISZERO PUSH2 0x1655 JUMPI PUSH2 0x1654 PUSH2 0x1F0F JUMP JUMPDEST JUMPDEST PUSH1 0x0 PUSH2 0x1663 DUP6 DUP3 DUP7 ADD PUSH2 0x1520 JUMP JUMPDEST SWAP3 POP POP PUSH1 0x20 PUSH2 0x1674 DUP6 DUP3 DUP7 ADD PUSH2 0x1520 JUMP JUMPDEST SWAP2 POP POP SWAP3 POP SWAP3 SWAP1 POP JUMP JUMPDEST PUSH1 0x0 DUP1 PUSH1 0x0 DUP1 PUSH1 0x0 PUSH1 0xA0 DUP7 DUP9 SUB SLT ISZERO PUSH2 0x169A JUMPI PUSH2 0x1699 PUSH2 0x1F0F JUMP JUMPDEST JUMPDEST PUSH1 0x0 PUSH2 0x16A8 DUP9 DUP3 DUP10 ADD PUSH2 0x1520 JUMP JUMPDEST SWAP6 POP POP PUSH1 0x20 PUSH2 0x16B9 DUP9 DUP3 DUP10 ADD PUSH2 0x1520 JUMP JUMPDEST SWAP5 POP POP PUSH1 0x40 DUP7 ADD CALLDATALOAD PUSH8 0xFFFFFFFFFFFFFFFF DUP2 GT ISZERO PUSH2 0x16DA JUMPI PUSH2 0x16D9 PUSH2 0x1F0A JUMP JUMPDEST JUMPDEST PUSH2 0x16E6 DUP9 DUP3 DUP10 ADD PUSH2 0x14F2 JUMP JUMPDEST SWAP4 POP POP PUSH1 0x60 DUP7 ADD CALLDATALOAD PUSH8 0xFFFFFFFFFFFFFFFF DUP2 GT ISZERO PUSH2 0x1707 JUMPI PUSH2 0x1706 PUSH2 0x1F0A JUMP JUMPDEST JUMPDEST PUSH2 0x1713 DUP9 DUP3 DUP10 ADD PUSH2 0x14F2 JUMP JUMPDEST SWAP3 POP POP PUSH1 0x80 PUSH2 0x1724 DUP9 DUP3 DUP10 ADD PUSH2 0x14DD JUMP JUMPDEST SWAP2 POP POP SWAP3 SWAP6 POP SWAP3 SWAP6 SWAP1 SWAP4 POP JUMP JUMPDEST PUSH1 0x0 DUP1 PUSH1 0x0 DUP1 PUSH1 0x0 DUP1 PUSH1 0x0 DUP1 PUSH1 0x0 DUP1 PUSH2 0x140 DUP12 DUP14 SUB SLT ISZERO PUSH2 0x1755 JUMPI PUSH2 0x1754 PUSH2 0x1F0F JUMP JUMPDEST JUMPDEST PUSH1 0x0 PUSH2 0x1763 DUP14 DUP3 DUP15 ADD PUSH2 0x1520 JUMP JUMPDEST SWAP11 POP POP PUSH1 0x20 PUSH2 0x1774 DUP14 DUP3 DUP15 ADD PUSH2 0x1520 JUMP JUMPDEST SWAP10 POP POP PUSH1 0x40 PUSH2 0x1785 DUP14 DUP3 DUP15 ADD PUSH2 0x1520 JUMP JUMPDEST SWAP9 POP POP PUSH1 0x60 DUP12 ADD CALLDATALOAD PUSH8 0xFFFFFFFFFFFFFFFF DUP2 GT ISZERO PUSH2 0x17A6 JUMPI PUSH2 0x17A5 PUSH2 0x1F0A JUMP JUMPDEST JUMPDEST PUSH2 0x17B2 DUP14 DUP3 DUP15 ADD PUSH2 0x14F2 JUMP JUMPDEST SWAP8 POP POP PUSH1 0x80 DUP12 ADD CALLDATALOAD PUSH8 0xFFFFFFFFFFFFFFFF DUP2 GT ISZERO PUSH2 0x17D3 JUMPI PUSH2 0x17D2 PUSH2 0x1F0A JUMP JUMPDEST JUMPDEST PUSH2 0x17DF DUP14 DUP3 DUP15 ADD PUSH2 0x14F2 JUMP JUMPDEST SWAP7 POP POP PUSH1 0xA0 DUP12 ADD CALLDATALOAD PUSH8 0xFFFFFFFFFFFFFFFF DUP2 GT ISZERO PUSH2 0x1800 JUMPI PUSH2 0x17FF PUSH2 0x1F0A JUMP JUMPDEST JUMPDEST PUSH2 0x180C DUP14 DUP3 DUP15 ADD PUSH2 0x14F2 JUMP JUMPDEST SWAP6 POP POP PUSH1 0xC0 DUP12 ADD CALLDATALOAD PUSH8 0xFFFFFFFFFFFFFFFF DUP2 GT ISZERO PUSH2 0x182D JUMPI PUSH2 0x182C PUSH2 0x1F0A JUMP JUMPDEST JUMPDEST PUSH2 0x1839 DUP14 DUP3 DUP15 ADD PUSH2 0x14F2 JUMP JUMPDEST SWAP5 POP POP PUSH1 0xE0 DUP12 ADD CALLDATALOAD PUSH8 0xFFFFFFFFFFFFFFFF DUP2 GT ISZERO PUSH2 0x185A JUMPI PUSH2 0x1859 PUSH2 0x1F0A JUMP JUMPDEST JUMPDEST PUSH2 0x1866 DUP14 DUP3 DUP15 ADD PUSH2 0x14F2 JUMP JUMPDEST SWAP4 POP POP PUSH2 0x100 DUP12 ADD CALLDATALOAD PUSH8 0xFFFFFFFFFFFFFFFF DUP2 GT ISZERO PUSH2 0x1888 JUMPI PUSH2 0x1887 PUSH2 0x1F0A JUMP JUMPDEST JUMPDEST PUSH2 0x1894 DUP14 DUP3 DUP15 ADD PUSH2 0x14F2 JUMP JUMPDEST SWAP3 POP POP PUSH2 0x120 DUP12 ADD CALLDATALOAD PUSH8 0xFFFFFFFFFFFFFFFF DUP2 GT ISZERO PUSH2 0x18B6 JUMPI PUSH2 0x18B5 PUSH2 0x1F0A JUMP JUMPDEST JUMPDEST PUSH2 0x18C2 DUP14 DUP3 DUP15 ADD PUSH2 0x14F2 JUMP JUMPDEST SWAP2 POP POP SWAP3 SWAP6 SWAP9 SWAP12 SWAP2 SWAP5 SWAP8 SWAP11 POP SWAP3 SWAP6 SWAP9 POP JUMP JUMPDEST PUSH2 0x18DD DUP2 PUSH2 0x1CA5 JUMP JUMPDEST DUP3 MSTORE POP POP JUMP JUMPDEST PUSH2 0x18EC DUP2 PUSH2 0x1C93 JUMP JUMPDEST DUP3 MSTORE POP POP JUMP JUMPDEST PUSH2 0x18FB DUP2 PUSH2 0x1CB7 JUMP JUMPDEST DUP3 MSTORE POP POP JUMP JUMPDEST PUSH2 0x190A DUP2 PUSH2 0x1D1D JUMP JUMPDEST DUP3 MSTORE POP POP JUMP JUMPDEST PUSH2 0x1919 DUP2 PUSH2 0x1D2F JUMP JUMPDEST DUP3 MSTORE POP POP JUMP JUMPDEST PUSH1 0x0 PUSH2 0x192A DUP3 PUSH2 0x1BBC JUMP JUMPDEST PUSH2 0x1934 DUP2 DUP6 PUSH2 0x1BC7 JUMP JUMPDEST SWAP4 POP PUSH2 0x1944 DUP2 DUP6 PUSH1 0x20 DUP7 ADD PUSH2 0x1D50 JUMP JUMPDEST PUSH2 0x194D DUP2 PUSH2 0x1F14 JUMP JUMPDEST DUP5 ADD SWAP2 POP POP SWAP3 SWAP2 POP POP JUMP JUMPDEST PUSH1 0x0 PUSH2 0x1965 PUSH1 0x1C DUP4 PUSH2 0x1BC7 JUMP JUMPDEST SWAP2 POP PUSH2 0x1970 DUP3 PUSH2 0x1F25 JUMP JUMPDEST PUSH1 0x20 DUP3 ADD SWAP1 POP SWAP2 SWAP1 POP JUMP JUMPDEST PUSH1 0x0 PUSH2 0x1988 PUSH1 0x19 DUP4 PUSH2 0x1BC7 JUMP JUMPDEST SWAP2 POP PUSH2 0x1993 DUP3 PUSH2 0x1F4E JUMP JUMPDEST PUSH1 0x20 DUP3 ADD SWAP1 POP SWAP2 SWAP1 POP JUMP JUMPDEST PUSH1 0x0 PUSH2 0x19AB PUSH1 0x1E DUP4 PUSH2 0x1BC7 JUMP JUMPDEST SWAP2 POP PUSH2 0x19B6 DUP3 PUSH2 0x1F77 JUMP JUMPDEST PUSH1 0x20 DUP3 ADD SWAP1 POP SWAP2 SWAP1 POP JUMP JUMPDEST PUSH2 0x19CA DUP2 PUSH2 0x1D13 JUMP JUMPDEST DUP3 MSTORE POP POP JUMP JUMPDEST PUSH1 0x0 PUSH1 0x20 DUP3 ADD SWAP1 POP PUSH2 0x19E5 PUSH1 0x0 DUP4 ADD DUP5 PUSH2 0x18D4 JUMP JUMPDEST SWAP3 SWAP2 POP POP JUMP JUMPDEST PUSH1 0x0 PUSH1 0x20 DUP3 ADD SWAP1 POP PUSH2 0x1A00 PUSH1 0x0 DUP4 ADD DUP5 PUSH2 0x18F2 JUMP JUMPDEST SWAP3 SWAP2 POP POP JUMP JUMPDEST PUSH1 0x0 PUSH1 0x40 DUP3 ADD SWAP1 POP PUSH2 0x1A1B PUSH1 0x0 DUP4 ADD DUP6 PUSH2 0x1901 JUMP JUMPDEST DUP2 DUP2 SUB PUSH1 0x20 DUP4 ADD MSTORE PUSH2 0x1A2D DUP2 DUP5 PUSH2 0x191F JUMP JUMPDEST SWAP1 POP SWAP4 SWAP3 POP POP POP JUMP JUMPDEST PUSH1 0x0 PUSH1 0x20 DUP3 ADD SWAP1 POP DUP2 DUP2 SUB PUSH1 0x0 DUP4 ADD MSTORE PUSH2 0x1A50 DUP2 DUP5 PUSH2 0x191F JUMP JUMPDEST SWAP1 POP SWAP3 SWAP2 POP POP JUMP JUMPDEST PUSH1 0x0 PUSH1 0x20 DUP3 ADD SWAP1 POP DUP2 DUP2 SUB PUSH1 0x0 DUP4 ADD MSTORE PUSH2 0x1A71 DUP2 PUSH2 0x1958 JUMP JUMPDEST SWAP1 POP SWAP2 SWAP1 POP JUMP JUMPDEST PUSH1 0x0 PUSH1 0x20 DUP3 ADD SWAP1 POP DUP2 DUP2 SUB PUSH1 0x0 DUP4 ADD MSTORE PUSH2 0x1A91 DUP2 PUSH2 0x197B JUMP JUMPDEST SWAP1 POP SWAP2 SWAP1 POP JUMP JUMPDEST PUSH1 0x0 PUSH1 0x20 DUP3 ADD SWAP1 POP DUP2 DUP2 SUB PUSH1 0x0 DUP4 ADD MSTORE PUSH2 0x1AB1 DUP2 PUSH2 0x199E JUMP JUMPDEST SWAP1 POP SWAP2 SWAP1 POP JUMP JUMPDEST PUSH1 0x0 PUSH1 0x20 DUP3 ADD SWAP1 POP PUSH2 0x1ACD PUSH1 0x0 DUP4 ADD DUP5 PUSH2 0x19C1 JUMP JUMPDEST SWAP3 SWAP2 POP POP JUMP JUMPDEST PUSH1 0x0 PUSH2 0x100 DUP3 ADD SWAP1 POP PUSH2 0x1AE9 PUSH1 0x0 DUP4 ADD DUP12 PUSH2 0x19C1 JUMP JUMPDEST PUSH2 0x1AF6 PUSH1 0x20 DUP4 ADD DUP11 PUSH2 0x18E3 JUMP JUMPDEST PUSH2 0x1B03 PUSH1 0x40 DUP4 ADD DUP10 PUSH2 0x18E3 JUMP JUMPDEST DUP2 DUP2 SUB PUSH1 0x60 DUP4 ADD MSTORE PUSH2 0x1B15 DUP2 DUP9 PUSH2 0x191F JUMP JUMPDEST SWAP1 POP DUP2 DUP2 SUB PUSH1 0x80 DUP4 ADD MSTORE PUSH2 0x1B29 DUP2 DUP8 PUSH2 0x191F JUMP JUMPDEST SWAP1 POP DUP2 DUP2 SUB PUSH1 0xA0 DUP4 ADD MSTORE PUSH2 0x1B3D DUP2 DUP7 PUSH2 0x191F JUMP JUMPDEST SWAP1 POP PUSH2 0x1B4C PUSH1 0xC0 DUP4 ADD DUP6 PUSH2 0x18F2 JUMP JUMPDEST PUSH2 0x1B59 PUSH1 0xE0 DUP4 ADD DUP5 PUSH2 0x1910 JUMP JUMPDEST SWAP10 SWAP9 POP POP POP POP POP POP POP POP POP JUMP JUMPDEST PUSH1 0x0 PUSH2 0x1B70 PUSH2 0x1B81 JUMP JUMPDEST SWAP1 POP PUSH2 0x1B7C DUP3 DUP3 PUSH2 0x1DB5 JUMP JUMPDEST SWAP2 SWAP1 POP JUMP JUMPDEST PUSH1 0x0 PUSH1 0x40 MLOAD SWAP1 POP SWAP1 JUMP JUMPDEST PUSH1 0x0 PUSH8 0xFFFFFFFFFFFFFFFF DUP3 GT ISZERO PUSH2 0x1BA6 JUMPI PUSH2 0x1BA5 PUSH2 0x1ED1 JUMP JUMPDEST JUMPDEST PUSH2 0x1BAF DUP3 PUSH2 0x1F14 JUMP JUMPDEST SWAP1 POP PUSH1 0x20 DUP2 ADD SWAP1 POP SWAP2 SWAP1 POP JUMP JUMPDEST PUSH1 0x0 DUP2 MLOAD SWAP1 POP SWAP2 SWAP1 POP JUMP JUMPDEST PUSH1 0x0 DUP3 DUP3 MSTORE PUSH1 0x20 DUP3 ADD SWAP1 POP SWAP3 SWAP2 POP POP JUMP JUMPDEST PUSH1 0x0 PUSH2 0x1BE3 DUP3 PUSH2 0x1D13 JUMP JUMPDEST SWAP2 POP PUSH2 0x1BEE DUP4 PUSH2 0x1D13 JUMP JUMPDEST SWAP3 POP DUP3 PUSH32 0xFFFFFFFFFFFFFFFFFFFFFFFFFFFFFFFFFFFFFFFFFFFFFFFFFFFFFFFFFFFFFFFF SUB DUP3 GT ISZERO PUSH2 0x1C23 JUMPI PUSH2 0x1C22 PUSH2 0x1DE6 JUMP JUMPDEST JUMPDEST DUP3 DUP3 ADD SWAP1 POP SWAP3 SWAP2 POP POP JUMP JUMPDEST PUSH1 0x0 PUSH2 0x1C39 DUP3 PUSH2 0x1D13 JUMP JUMPDEST SWAP2 POP PUSH2 0x1C44 DUP4 PUSH2 0x1D13 JUMP JUMPDEST SWAP3 POP DUP3 PUSH2 0x1C54 JUMPI PUSH2 0x1C53 PUSH2 0x1E15 JUMP JUMPDEST JUMPDEST DUP3 DUP3 DIV SWAP1 POP SWAP3 SWAP2 POP POP JUMP JUMPDEST PUSH1 0x0 PUSH2 0x1C6A DUP3 PUSH2 0x1D13 JUMP JUMPDEST SWAP2 POP PUSH2 0x1C75 DUP4 PUSH2 0x1D13 JUMP JUMPDEST SWAP3 POP DUP3 DUP3 LT ISZERO PUSH2 0x1C88 JUMPI PUSH2 0x1C87 PUSH2 0x1DE6 JUMP JUMPDEST JUMPDEST DUP3 DUP3 SUB SWAP1 POP SWAP3 SWAP2 POP POP JUMP JUMPDEST PUSH1 0x0 PUSH2 0x1C9E DUP3 PUSH2 0x1CF3 JUMP JUMPDEST SWAP1 POP SWAP2 SWAP1 POP JUMP JUMPDEST PUSH1 0x0 PUSH2 0x1CB0 DUP3 PUSH2 0x1CF3 JUMP JUMPDEST SWAP1 POP SWAP2 SWAP1 POP JUMP JUMPDEST PUSH1 0x0 DUP2 ISZERO ISZERO SWAP1 POP SWAP2 SWAP1 POP JUMP JUMPDEST PUSH1 0x0 DUP2 SWAP1 POP PUSH2 0x1CD1 DUP3 PUSH2 0x1FA0 JUMP JUMPDEST SWAP2 SWAP1 POP JUMP JUMPDEST PUSH1 0x0 DUP2 SWAP1 POP PUSH2 0x1CE4 DUP3 PUSH2 0x1FB4 JUMP JUMPDEST SWAP2 SWAP1 POP JUMP JUMPDEST PUSH1 0x0 DUP2 SWAP1 POP SWAP2 SWAP1 POP JUMP JUMPDEST PUSH1 0x0 PUSH20 0xFFFFFFFFFFFFFFFFFFFFFFFFFFFFFFFFFFFFFFFF DUP3 AND SWAP1 POP SWAP2 SWAP1 POP JUMP JUMPDEST PUSH1 0x0 DUP2 SWAP1 POP SWAP2 SWAP1 POP JUMP JUMPDEST PUSH1 0x0 PUSH2 0x1D28 DUP3 PUSH2 0x1CC3 JUMP JUMPDEST SWAP1 POP SWAP2 SWAP1 POP JUMP JUMPDEST PUSH1 0x0 PUSH2 0x1D3A DUP3 PUSH2 0x1CD6 JUMP JUMPDEST SWAP1 POP SWAP2 SWAP1 POP JUMP JUMPDEST DUP3 DUP2 DUP4 CALLDATACOPY PUSH1 0x0 DUP4 DUP4 ADD MSTORE POP POP POP JUMP JUMPDEST PUSH1 0x0 JUMPDEST DUP4 DUP2 LT ISZERO PUSH2 0x1D6E JUMPI DUP1 DUP3 ADD MLOAD DUP2 DUP5 ADD MSTORE PUSH1 0x20 DUP2 ADD SWAP1 POP PUSH2 0x1D53 JUMP JUMPDEST DUP4 DUP2 GT ISZERO PUSH2 0x1D7D JUMPI PUSH1 0x0 DUP5 DUP5 ADD MSTORE JUMPDEST POP POP POP POP JUMP JUMPDEST PUSH1 0x0 PUSH1 0x2 DUP3 DIV SWAP1 POP PUSH1 0x1 DUP3 AND DUP1 PUSH2 0x1D9B JUMPI PUSH1 0x7F DUP3 AND SWAP2 POP JUMPDEST PUSH1 0x20 DUP3 LT DUP2 EQ ISZERO PUSH2 0x1DAF JUMPI PUSH2 0x1DAE PUSH2 0x1E73 JUMP JUMPDEST JUMPDEST POP SWAP2 SWAP1 POP JUMP JUMPDEST PUSH2 0x1DBE DUP3 PUSH2 0x1F14 JUMP JUMPDEST DUP2 ADD DUP2 DUP2 LT PUSH8 0xFFFFFFFFFFFFFFFF DUP3 GT OR ISZERO PUSH2 0x1DDD JUMPI PUSH2 0x1DDC PUSH2 0x1ED1 JUMP JUMPDEST JUMPDEST DUP1 PUSH1 0x40 MSTORE POP POP POP JUMP JUMPDEST PUSH32 0x4E487B7100000000000000000000000000000000000000000000000000000000 PUSH1 0x0 MSTORE PUSH1 0x11 PUSH1 0x4 MSTORE PUSH1 0x24 PUSH1 0x0 REVERT JUMPDEST PUSH32 0x4E487B7100000000000000000000000000000000000000000000000000000000 PUSH1 0x0 MSTORE PUSH1 0x12 PUSH1 0x4 MSTORE PUSH1 0x24 PUSH1 0x0 REVERT JUMPDEST PUSH32 0x4E487B7100000000000000000000000000000000000000000000000000000000 PUSH1 0x0 MSTORE PUSH1 0x21 PUSH1 0x4 MSTORE PUSH1 0x24 PUSH1 0x0 REVERT JUMPDEST PUSH32 0x4E487B7100000000000000000000000000000000000000000000000000000000 PUSH1 0x0 MSTORE PUSH1 0x22 PUSH1 0x4 MSTORE PUSH1 0x24 PUSH1 0x0 REVERT JUMPDEST PUSH32 0x4E487B7100000000000000000000000000000000000000000000000000000000 PUSH1 0x0 MSTORE PUSH1 0x32 PUSH1 0x4 MSTORE PUSH1 0x24 PUSH1 0x0 REVERT JUMPDEST PUSH32 0x4E487B7100000000000000000000000000000000000000000000000000000000 PUSH1 0x0 MSTORE PUSH1 0x41 PUSH1 0x4 MSTORE PUSH1 0x24 PUSH1 0x0 REVERT JUMPDEST PUSH1 0x0 DUP1 REVERT JUMPDEST PUSH1 0x0 DUP1 REVERT JUMPDEST PUSH1 0x0 DUP1 REVERT JUMPDEST PUSH1 0x0 DUP1 REVERT JUMPDEST PUSH1 0x0 PUSH1 0x1F NOT PUSH1 0x1F DUP4 ADD AND SWAP1 POP SWAP2 SWAP1 POP JUMP JUMPDEST PUSH32 0x63616C6C6572206973206E6F742061206469737472696275746F722E00000000 PUSH1 0x0 DUP3 ADD MSTORE POP JUMP JUMPDEST PUSH32 0x63616C6C6572206973206E6F7420612070726F64756365722E00000000000000 PUSH1 0x0 DUP3 ADD MSTORE POP JUMP JUMPDEST PUSH32 0x63616C6C6572206973206E6F742074686520746F6B656E206F776E65722E0000 PUSH1 0x0 DUP3 ADD MSTORE POP JUMP JUMPDEST PUSH1 0x5 DUP2 LT PUSH2 0x1FB1 JUMPI PUSH2 0x1FB0 PUSH2 0x1E44 JUMP JUMPDEST JUMPDEST POP JUMP JUMPDEST PUSH1 0x6 DUP2 LT PUSH2 0x1FC5 JUMPI PUSH2 0x1FC4 PUSH2 0x1E44 JUMP JUMPDEST JUMPDEST POP JUMP JUMPDEST PUSH2 0x1FD1 DUP2 PUSH2 0x1C93 JUMP JUMPDEST DUP2 EQ PUSH2 0x1FDC JUMPI PUSH1 0x0 DUP1 REVERT JUMPDEST POP JUMP JUMPDEST PUSH1 0x5 DUP2 LT PUSH2 0x1FEC JUMPI PUSH1 0x0 DUP1 REVERT JUMPDEST POP JUMP JUMPDEST PUSH2 0x1FF8 DUP2 PUSH2 0x1CE9 JUMP JUMPDEST DUP2 EQ PUSH2 0x2003 JUMPI PUSH1 0x0 DUP1 REVERT JUMPDEST POP JUMP JUMPDEST PUSH2 0x200F DUP2 PUSH2 0x1D13 JUMP JUMPDEST DUP2 EQ PUSH2 0x201A JUMPI PUSH1 0x0 DUP1 REVERT JUMPDEST POP JUMP INVALID LOG2 PUSH5 0x6970667358 0x22 SLT KECCAK256 SWAP12 0xE7 0x5F 0xB3 SLT STOP 0xCF DELEGATECALL CREATE DUP3 XOR SWAP8 LOG2 0xB3 SLT 0xC1 SWAP16 0xDA LOG3 LOG2 CALL PUSH11 0x4FF6E35F2483C891FC164 PUSH20 0x6F6C634300080700330000000000000000000000 "
				},
				"gasEstimates": {
					"creation": {
						"codeDepositCost": "1655000",
						"executionCost": "infinite",
						"totalCost": "infinite"
					},
					"external": {
						"burn(address,uint256)": "infinite",
						"buyProduct(uint256,uint256,string,string,int256)": "infinite",
						"buyToken()": "infinite",
						"etherBalance(address)": "3301",
						"getActorInfo(address)": "infinite",
						"getProductInfo(uint256,uint256)": "infinite",
						"mint(uint256)": "infinite",
						"name()": "infinite",
						"produceProduct(uint256,uint256,uint256,string,string,string,string,string,string,string)": "infinite",
						"register(address,uint8,string)": "infinite",
						"symbol()": "infinite",
						"tokenBalance(address)": "2929",
						"tokenOwner()": "2559",
						"tokenTransfer(address,uint256)": "infinite"
					}
				},
				"methodIdentifiers": {
					"burn(address,uint256)": "9dc29fac",
					"buyProduct(uint256,uint256,string,string,int256)": "45091a60",
					"buyToken()": "a4821719",
					"etherBalance(address)": "cd0c5896",
					"getActorInfo(address)": "b292abf1",
					"getProductInfo(uint256,uint256)": "d2c351b4",
					"mint(uint256)": "a0712d68",
					"name()": "06fdde03",
					"produceProduct(uint256,uint256,uint256,string,string,string,string,string,string,string)": "561e0e98",
					"register(address,uint8,string)": "40932fc2",
					"symbol()": "95d89b41",
					"tokenBalance(address)": "eedc966a",
					"tokenOwner()": "a3e67610",
					"tokenTransfer(address,uint256)": "68cdafe6"
				}
			},
			"storageLayout": {
				"storage": [
					{
						"astId": 3,
						"contract": "contracts/4_Product.sol:ProductSC",
						"label": "name",
						"offset": 0,
						"slot": "0",
						"type": "t_string_storage"
					},
					{
						"astId": 5,
						"contract": "contracts/4_Product.sol:ProductSC",
						"label": "symbol",
						"offset": 0,
						"slot": "1",
						"type": "t_string_storage"
					},
					{
						"astId": 7,
						"contract": "contracts/4_Product.sol:ProductSC",
						"label": "tokenOwner",
						"offset": 0,
						"slot": "2",
						"type": "t_address_payable"
					},
					{
						"astId": 19,
						"contract": "contracts/4_Product.sol:ProductSC",
						"label": "_totalSupply",
						"offset": 0,
						"slot": "3",
						"type": "t_uint256"
					},
					{
						"astId": 84,
						"contract": "contracts/4_Product.sol:ProductSC",
						"label": "balances",
						"offset": 0,
						"slot": "4",
						"type": "t_mapping(t_address,t_uint256)"
					},
					{
						"astId": 89,
						"contract": "contracts/4_Product.sol:ProductSC",
						"label": "actors",
						"offset": 0,
						"slot": "5",
						"type": "t_mapping(t_address,t_struct(Actor)65_storage)"
					},
					{
						"astId": 94,
						"contract": "contracts/4_Product.sol:ProductSC",
						"label": "product",
						"offset": 0,
						"slot": "6",
						"type": "t_mapping(t_uint256,t_struct(Product)57_storage)"
					}
				],
				"types": {
					"t_address": {
						"encoding": "inplace",
						"label": "address",
						"numberOfBytes": "20"
					},
					"t_address_payable": {
						"encoding": "inplace",
						"label": "address payable",
						"numberOfBytes": "20"
					},
					"t_array(t_uint256)4_storage": {
						"base": "t_uint256",
						"encoding": "inplace",
						"label": "uint256[4]",
						"numberOfBytes": "128"
					},
					"t_bool": {
						"encoding": "inplace",
						"label": "bool",
						"numberOfBytes": "1"
					},
					"t_enum(Role)32": {
						"encoding": "inplace",
						"label": "enum ProductSC.Role",
						"numberOfBytes": "1"
					},
					"t_enum(State)26": {
						"encoding": "inplace",
						"label": "enum ProductSC.State",
						"numberOfBytes": "1"
					},
					"t_mapping(t_address,t_struct(Actor)65_storage)": {
						"encoding": "mapping",
						"key": "t_address",
						"label": "mapping(address => struct ProductSC.Actor)",
						"numberOfBytes": "32",
						"value": "t_struct(Actor)65_storage"
					},
					"t_mapping(t_address,t_uint256)": {
						"encoding": "mapping",
						"key": "t_address",
						"label": "mapping(address => uint256)",
						"numberOfBytes": "32",
						"value": "t_uint256"
					},
					"t_mapping(t_uint256,t_struct(Product)57_storage)": {
						"encoding": "mapping",
						"key": "t_uint256",
						"label": "mapping(uint256 => struct ProductSC.Product)",
						"numberOfBytes": "32",
						"value": "t_struct(Product)57_storage"
					},
					"t_string_storage": {
						"encoding": "bytes",
						"label": "string",
						"numberOfBytes": "32"
					},
					"t_struct(Actor)65_storage": {
						"encoding": "inplace",
						"label": "struct ProductSC.Actor",
						"members": [
							{
								"astId": 60,
								"contract": "contracts/4_Product.sol:ProductSC",
								"label": "role",
								"offset": 0,
								"slot": "0",
								"type": "t_enum(Role)32"
							},
							{
								"astId": 62,
								"contract": "contracts/4_Product.sol:ProductSC",
								"label": "name",
								"offset": 0,
								"slot": "1",
								"type": "t_string_storage"
							},
							{
								"astId": 64,
								"contract": "contracts/4_Product.sol:ProductSC",
								"label": "isDefined",
								"offset": 0,
								"slot": "2",
								"type": "t_bool"
							}
						],
						"numberOfBytes": "96"
					},
					"t_struct(Details)80_storage": {
						"encoding": "inplace",
						"label": "struct ProductSC.Details",
						"members": [
							{
								"astId": 67,
								"contract": "contracts/4_Product.sol:ProductSC",
								"label": "name",
								"offset": 0,
								"slot": "0",
								"type": "t_string_storage"
							},
							{
								"astId": 69,
								"contract": "contracts/4_Product.sol:ProductSC",
								"label": "brand",
								"offset": 0,
								"slot": "1",
								"type": "t_string_storage"
							},
							{
								"astId": 71,
								"contract": "contracts/4_Product.sol:ProductSC",
								"label": "size",
								"offset": 0,
								"slot": "2",
								"type": "t_string_storage"
							},
							{
								"astId": 73,
								"contract": "contracts/4_Product.sol:ProductSC",
								"label": "weight",
								"offset": 0,
								"slot": "3",
								"type": "t_string_storage"
							},
							{
								"astId": 75,
								"contract": "contracts/4_Product.sol:ProductSC",
								"label": "length",
								"offset": 0,
								"slot": "4",
								"type": "t_string_storage"
							},
							{
								"astId": 77,
								"contract": "contracts/4_Product.sol:ProductSC",
								"label": "width",
								"offset": 0,
								"slot": "5",
								"type": "t_string_storage"
							},
							{
								"astId": 79,
								"contract": "contracts/4_Product.sol:ProductSC",
								"label": "height",
								"offset": 0,
								"slot": "6",
								"type": "t_string_storage"
							}
						],
						"numberOfBytes": "224"
					},
					"t_struct(Product)57_storage": {
						"encoding": "inplace",
						"label": "struct ProductSC.Product",
						"members": [
							{
								"astId": 34,
								"contract": "contracts/4_Product.sol:ProductSC",
								"label": "ID",
								"offset": 0,
								"slot": "0",
								"type": "t_uint256"
							},
							{
								"astId": 36,
								"contract": "contracts/4_Product.sol:ProductSC",
								"label": "ownerID",
								"offset": 0,
								"slot": "1",
								"type": "t_address"
							},
							{
								"astId": 38,
								"contract": "contracts/4_Product.sol:ProductSC",
								"label": "producerID",
								"offset": 0,
								"slot": "2",
								"type": "t_address"
							},
							{
								"astId": 42,
								"contract": "contracts/4_Product.sol:ProductSC",
								"label": "timestamp",
								"offset": 0,
								"slot": "3",
								"type": "t_array(t_uint256)4_storage"
							},
							{
								"astId": 45,
								"contract": "contracts/4_Product.sol:ProductSC",
								"label": "productState",
								"offset": 0,
								"slot": "7",
								"type": "t_enum(State)26"
							},
							{
								"astId": 47,
								"contract": "contracts/4_Product.sol:ProductSC",
								"label": "productPrice",
								"offset": 0,
								"slot": "8",
								"type": "t_uint256"
							},
							{
								"astId": 49,
								"contract": "contracts/4_Product.sol:ProductSC",
								"label": "distributorID",
								"offset": 0,
								"slot": "9",
								"type": "t_address"
							},
							{
								"astId": 51,
								"contract": "contracts/4_Product.sol:ProductSC",
								"label": "retailerID",
								"offset": 0,
								"slot": "10",
								"type": "t_address"
							},
							{
								"astId": 53,
								"contract": "contracts/4_Product.sol:ProductSC",
								"label": "consumerID",
								"offset": 0,
								"slot": "11",
								"type": "t_address"
							},
							{
								"astId": 56,
								"contract": "contracts/4_Product.sol:ProductSC",
								"label": "details",
								"offset": 0,
								"slot": "12",
								"type": "t_struct(Details)80_storage"
							}
						],
						"numberOfBytes": "608"
					},
					"t_uint256": {
						"encoding": "inplace",
						"label": "uint256",
						"numberOfBytes": "32"
					}
				}
			},
			"userdoc": {
				"kind": "user",
				"methods": {},
				"version": 1
			}
		}
	}
}