{
	"contracts/4_Product.sol": {
		"ProductSC": {
			"abi": [
				{
					"inputs": [
						{
							"internalType": "string",
							"name": "_name",
							"type": "string"
						},
						{
							"internalType": "string",
							"name": "_symbol",
							"type": "string"
						},
						{
							"internalType": "uint256",
							"name": "_initialSupply",
							"type": "uint256"
						}
					],
					"stateMutability": "nonpayable",
					"type": "constructor"
				},
				{
					"inputs": [
						{
							"internalType": "address",
							"name": "_account",
							"type": "address"
						},
						{
							"internalType": "uint256",
							"name": "_amount",
							"type": "uint256"
						}
					],
					"name": "burn",
					"outputs": [],
					"stateMutability": "nonpayable",
					"type": "function"
				},
				{
					"inputs": [
						{
							"internalType": "uint256",
							"name": "_id",
							"type": "uint256"
						},
						{
							"internalType": "uint256",
							"name": "_timestamp",
							"type": "uint256"
						}
					],
					"name": "buyProduct",
					"outputs": [],
					"stateMutability": "nonpayable",
					"type": "function"
				},
				{
					"inputs": [],
					"name": "buyToken",
					"outputs": [],
					"stateMutability": "payable",
					"type": "function"
				},
				{
					"inputs": [
						{
							"internalType": "address",
							"name": "_addr",
							"type": "address"
						}
					],
					"name": "etherBalance",
					"outputs": [
						{
							"internalType": "uint256",
							"name": "",
							"type": "uint256"
						}
					],
					"stateMutability": "view",
					"type": "function"
				},
				{
					"inputs": [
						{
							"internalType": "address",
							"name": "_addr",
							"type": "address"
						}
					],
					"name": "getActorInfo",
					"outputs": [
						{
							"internalType": "enum ProductSC.Role",
							"name": "_role",
							"type": "uint8"
						},
						{
							"internalType": "string",
							"name": "_name",
							"type": "string"
						}
					],
					"stateMutability": "view",
					"type": "function"
				},
				{
					"inputs": [
						{
							"internalType": "uint256",
							"name": "_id",
							"type": "uint256"
						}
					],
					"name": "getProductDetails",
					"outputs": [
						{
							"internalType": "uint256",
							"name": "product_id",
							"type": "uint256"
						},
						{
							"internalType": "address",
							"name": "owner_id",
							"type": "address"
						},
						{
							"internalType": "enum ProductSC.State",
							"name": "currentProductState",
							"type": "uint8"
						},
						{
							"internalType": "uint256",
							"name": "productPrice",
							"type": "uint256"
						},
						{
							"internalType": "string",
							"name": "product_name",
							"type": "string"
						},
						{
							"internalType": "string",
							"name": "product_brand",
							"type": "string"
						},
						{
							"internalType": "string",
							"name": "product_size",
							"type": "string"
						},
						{
							"internalType": "string",
							"name": "product_weight",
							"type": "string"
						},
						{
							"internalType": "string",
							"name": "product_length",
							"type": "string"
						},
						{
							"internalType": "string",
							"name": "product_width",
							"type": "string"
						},
						{
							"internalType": "string",
							"name": "product_height",
							"type": "string"
						}
					],
					"stateMutability": "view",
					"type": "function"
				},
				{
					"inputs": [
						{
							"internalType": "uint256",
							"name": "_id",
							"type": "uint256"
						}
					],
					"name": "getProductInfo",
					"outputs": [
						{
							"internalType": "uint256",
							"name": "product_id",
							"type": "uint256"
						},
						{
							"internalType": "address",
							"name": "producer_id",
							"type": "address"
						},
						{
							"internalType": "address",
							"name": "owner_id",
							"type": "address"
						},
						{
							"internalType": "enum ProductSC.State",
							"name": "currentProductState",
							"type": "uint8"
						},
						{
							"internalType": "uint256",
							"name": "productPrice",
							"type": "uint256"
						},
						{
							"internalType": "address",
							"name": "distributor_id",
							"type": "address"
						},
						{
							"internalType": "address",
							"name": "retailer_id",
							"type": "address"
						},
						{
							"internalType": "address",
							"name": "consumer_id",
							"type": "address"
						},
						{
							"components": [
								{
									"internalType": "string",
									"name": "name",
									"type": "string"
								},
								{
									"internalType": "string",
									"name": "brand",
									"type": "string"
								},
								{
									"internalType": "string",
									"name": "size",
									"type": "string"
								},
								{
									"internalType": "string",
									"name": "weight",
									"type": "string"
								},
								{
									"internalType": "string",
									"name": "length",
									"type": "string"
								},
								{
									"internalType": "string",
									"name": "width",
									"type": "string"
								},
								{
									"internalType": "string",
									"name": "height",
									"type": "string"
								}
							],
							"internalType": "struct ProductSC.Details",
							"name": "details",
							"type": "tuple"
						}
					],
					"stateMutability": "view",
					"type": "function"
				},
				{
					"inputs": [
						{
							"internalType": "uint256",
							"name": "_amount",
							"type": "uint256"
						}
					],
					"name": "mint",
					"outputs": [],
					"stateMutability": "nonpayable",
					"type": "function"
				},
				{
					"inputs": [],
					"name": "name",
					"outputs": [
						{
							"internalType": "string",
							"name": "",
							"type": "string"
						}
					],
					"stateMutability": "view",
					"type": "function"
				},
				{
					"inputs": [
						{
							"internalType": "uint256",
							"name": "_amount",
							"type": "uint256"
						},
						{
							"internalType": "string",
							"name": "_name",
							"type": "string"
						},
						{
							"internalType": "string",
							"name": "_brand",
							"type": "string"
						},
						{
							"internalType": "string",
							"name": "_size",
							"type": "string"
						},
						{
							"internalType": "string",
							"name": "_weight",
							"type": "string"
						},
						{
							"internalType": "string",
							"name": "_length",
							"type": "string"
						},
						{
							"internalType": "string",
							"name": "_width",
							"type": "string"
						},
						{
							"internalType": "string",
							"name": "_height",
							"type": "string"
						}
					],
					"name": "orderProduct",
					"outputs": [],
					"stateMutability": "nonpayable",
					"type": "function"
				},
				{
					"inputs": [
						{
							"internalType": "uint256",
							"name": "_id",
							"type": "uint256"
						},
						{
							"internalType": "uint256",
							"name": "_timestamp",
							"type": "uint256"
						},
						{
							"internalType": "uint256",
							"name": "_price",
							"type": "uint256"
						},
						{
							"internalType": "string",
							"name": "_name",
							"type": "string"
						},
						{
							"internalType": "string",
							"name": "_brand",
							"type": "string"
						},
						{
							"internalType": "string",
							"name": "_size",
							"type": "string"
						},
						{
							"internalType": "string",
							"name": "_weight",
							"type": "string"
						},
						{
							"internalType": "string",
							"name": "_length",
							"type": "string"
						},
						{
							"internalType": "string",
							"name": "_width",
							"type": "string"
						},
						{
							"internalType": "string",
							"name": "_height",
							"type": "string"
						}
					],
					"name": "produceProduct",
					"outputs": [],
					"stateMutability": "nonpayable",
					"type": "function"
				},
				{
					"inputs": [
						{
							"internalType": "address",
							"name": "_addr",
							"type": "address"
						},
						{
							"internalType": "enum ProductSC.Role",
							"name": "_role",
							"type": "uint8"
						},
						{
							"internalType": "string",
							"name": "_name",
							"type": "string"
						}
					],
					"name": "register",
					"outputs": [],
					"stateMutability": "nonpayable",
					"type": "function"
				},
				{
					"inputs": [],
					"name": "symbol",
					"outputs": [
						{
							"internalType": "string",
							"name": "",
							"type": "string"
						}
					],
					"stateMutability": "view",
					"type": "function"
				},
				{
					"inputs": [
						{
							"internalType": "address",
							"name": "_addr",
							"type": "address"
						}
					],
					"name": "tokenBalance",
					"outputs": [
						{
							"internalType": "uint256",
							"name": "",
							"type": "uint256"
						}
					],
					"stateMutability": "view",
					"type": "function"
				},
				{
					"inputs": [],
					"name": "tokenOwner",
					"outputs": [
						{
							"internalType": "address payable",
							"name": "",
							"type": "address"
						}
					],
					"stateMutability": "view",
					"type": "function"
				},
				{
					"inputs": [
						{
							"internalType": "address",
							"name": "_to",
							"type": "address"
						},
						{
							"internalType": "uint256",
							"name": "_amount",
							"type": "uint256"
						}
					],
					"name": "tokenTransfer",
					"outputs": [
						{
							"internalType": "bool",
							"name": "",
							"type": "bool"
						}
					],
					"stateMutability": "nonpayable",
					"type": "function"
				}
			],
			"devdoc": {
				"kind": "dev",
				"methods": {},
				"version": 1
			},
			"evm": {
				"assembly": "    /* \"contracts/4_Product.sol\":35:11424  contract ProductSC {\r... */\n  mstore(0x40, 0x80)\n    /* \"contracts/4_Product.sol\":2110:2490  constructor (string memory _name, string memory _symbol, uint256 _initialSupply) {\r... */\n  callvalue\n  dup1\n  iszero\n  tag_1\n  jumpi\n  0x00\n  dup1\n  revert\ntag_1:\n  pop\n  mload(0x40)\n  sub(codesize, bytecodeSize)\n  dup1\n  bytecodeSize\n  dup4\n  codecopy\n  dup2\n  dup2\n  add\n  0x40\n  mstore\n  dup2\n  add\n  swap1\n  tag_2\n  swap2\n  swap1\n  tag_3\n  jump\t// in\ntag_2:\n    /* \"contracts/4_Product.sol\":2209:2214  _name */\n  dup3\n    /* \"contracts/4_Product.sol\":2202:2206  name */\n  0x00\n    /* \"contracts/4_Product.sol\":2202:2214  name = _name */\n  swap1\n  dup1\n  mload\n  swap1\n  0x20\n  add\n  swap1\n  tag_6\n  swap3\n  swap2\n  swap1\n  tag_7\n  jump\t// in\ntag_6:\n  pop\n    /* \"contracts/4_Product.sol\":2234:2241  _symbol */\n  dup2\n    /* \"contracts/4_Product.sol\":2225:2231  symbol */\n  0x01\n    /* \"contracts/4_Product.sol\":2225:2241  symbol = _symbol */\n  swap1\n  dup1\n  mload\n  swap1\n  0x20\n  add\n  swap1\n  tag_8\n  swap3\n  swap2\n  swap1\n  tag_7\n  jump\t// in\ntag_8:\n  pop\n    /* \"contracts/4_Product.sol\":2267:2281  _initialSupply */\n  dup1\n    /* \"contracts/4_Product.sol\":2252:2264  _totalSupply */\n  0x03\n    /* \"contracts/4_Product.sol\":2252:2281  _totalSupply = _initialSupply */\n  dup2\n  swap1\n  sstore\n  pop\n    /* \"contracts/4_Product.sol\":2313:2323  msg.sender */\n  caller\n    /* \"contracts/4_Product.sol\":2292:2302  tokenOwner */\n  0x02\n  0x00\n    /* \"contracts/4_Product.sol\":2292:2324  tokenOwner = payable(msg.sender) */\n  0x0100\n  exp\n  dup2\n  sload\n  dup2\n  0xffffffffffffffffffffffffffffffffffffffff\n  mul\n  not\n  and\n  swap1\n  dup4\n  0xffffffffffffffffffffffffffffffffffffffff\n  and\n  mul\n  or\n  swap1\n  sstore\n  pop\n    /* \"contracts/4_Product.sol\":2401:2415  _initialSupply */\n  dup1\n    /* \"contracts/4_Product.sol\":2378:2386  balances */\n  0x04\n    /* \"contracts/4_Product.sol\":2378:2398  balances[msg.sender] */\n  0x00\n    /* \"contracts/4_Product.sol\":2387:2397  msg.sender */\n  caller\n    /* \"contracts/4_Product.sol\":2378:2398  balances[msg.sender] */\n  0xffffffffffffffffffffffffffffffffffffffff\n  and\n  0xffffffffffffffffffffffffffffffffffffffff\n  and\n  dup2\n  mstore\n  0x20\n  add\n  swap1\n  dup2\n  mstore\n  0x20\n  add\n  0x00\n  keccak256\n    /* \"contracts/4_Product.sol\":2378:2415  balances[msg.sender] = _initialSupply */\n  dup2\n  swap1\n  sstore\n  pop\n    /* \"contracts/4_Product.sol\":2110:2490  constructor (string memory _name, string memory _symbol, uint256 _initialSupply) {\r... */\n  pop\n  pop\n  pop\n    /* \"contracts/4_Product.sol\":35:11424  contract ProductSC {\r... */\n  jump(tag_9)\ntag_7:\n  dup3\n  dup1\n  sload\n  tag_10\n  swap1\n  tag_11\n  jump\t// in\ntag_10:\n  swap1\n  0x00\n  mstore\n  keccak256(0x00, 0x20)\n  swap1\n  0x1f\n  add\n  0x20\n  swap1\n  div\n  dup2\n  add\n  swap3\n  dup3\n  tag_13\n  jumpi\n  0x00\n  dup6\n  sstore\n  jump(tag_12)\ntag_13:\n  dup3\n  0x1f\n  lt\n  tag_14\n  jumpi\n  dup1\n  mload\n  not(0xff)\n  and\n  dup4\n  dup1\n  add\n  or\n  dup6\n  sstore\n  jump(tag_12)\ntag_14:\n  dup3\n  dup1\n  add\n  0x01\n  add\n  dup6\n  sstore\n  dup3\n  iszero\n  tag_12\n  jumpi\n  swap2\n  dup3\n  add\ntag_15:\n  dup3\n  dup2\n  gt\n  iszero\n  tag_16\n  jumpi\n  dup3\n  mload\n  dup3\n  sstore\n  swap2\n  0x20\n  add\n  swap2\n  swap1\n  0x01\n  add\n  swap1\n  jump(tag_15)\ntag_16:\ntag_12:\n  pop\n  swap1\n  pop\n  tag_17\n  swap2\n  swap1\n  tag_18\n  jump\t// in\ntag_17:\n  pop\n  swap1\n  jump\t// out\ntag_18:\ntag_19:\n  dup1\n  dup3\n  gt\n  iszero\n  tag_20\n  jumpi\n  0x00\n  dup2\n  0x00\n  swap1\n  sstore\n  pop\n  0x01\n  add\n  jump(tag_19)\ntag_20:\n  pop\n  swap1\n  jump\t// out\n    /* \"#utility.yul\":7:428   */\ntag_22:\n    /* \"#utility.yul\":96:101   */\n  0x00\n    /* \"#utility.yul\":121:187   */\n  tag_24\n    /* \"#utility.yul\":137:186   */\n  tag_25\n    /* \"#utility.yul\":179:185   */\n  dup5\n    /* \"#utility.yul\":137:186   */\n  tag_26\n  jump\t// in\ntag_25:\n    /* \"#utility.yul\":121:187   */\n  tag_27\n  jump\t// in\ntag_24:\n    /* \"#utility.yul\":112:187   */\n  swap1\n  pop\n    /* \"#utility.yul\":210:216   */\n  dup3\n    /* \"#utility.yul\":203:208   */\n  dup2\n    /* \"#utility.yul\":196:217   */\n  mstore\n    /* \"#utility.yul\":248:252   */\n  0x20\n    /* \"#utility.yul\":241:246   */\n  dup2\n    /* \"#utility.yul\":237:253   */\n  add\n    /* \"#utility.yul\":286:289   */\n  dup5\n    /* \"#utility.yul\":277:283   */\n  dup5\n    /* \"#utility.yul\":272:275   */\n  dup5\n    /* \"#utility.yul\":268:284   */\n  add\n    /* \"#utility.yul\":265:290   */\n  gt\n    /* \"#utility.yul\":262:374   */\n  iszero\n  tag_28\n  jumpi\n    /* \"#utility.yul\":293:372   */\n  tag_29\n  tag_30\n  jump\t// in\ntag_29:\n    /* \"#utility.yul\":262:374   */\ntag_28:\n    /* \"#utility.yul\":383:422   */\n  tag_31\n    /* \"#utility.yul\":415:421   */\n  dup5\n    /* \"#utility.yul\":410:413   */\n  dup3\n    /* \"#utility.yul\":405:408   */\n  dup6\n    /* \"#utility.yul\":383:422   */\n  tag_32\n  jump\t// in\ntag_31:\n    /* \"#utility.yul\":102:428   */\n  pop\n    /* \"#utility.yul\":7:428   */\n  swap4\n  swap3\n  pop\n  pop\n  pop\n  jump\t// out\n    /* \"#utility.yul\":448:803   */\ntag_33:\n    /* \"#utility.yul\":515:520   */\n  0x00\n    /* \"#utility.yul\":564:567   */\n  dup3\n    /* \"#utility.yul\":557:561   */\n  0x1f\n    /* \"#utility.yul\":549:555   */\n  dup4\n    /* \"#utility.yul\":545:562   */\n  add\n    /* \"#utility.yul\":541:568   */\n  slt\n    /* \"#utility.yul\":531:653   */\n  tag_35\n  jumpi\n    /* \"#utility.yul\":572:651   */\n  tag_36\n  tag_37\n  jump\t// in\ntag_36:\n    /* \"#utility.yul\":531:653   */\ntag_35:\n    /* \"#utility.yul\":682:688   */\n  dup2\n    /* \"#utility.yul\":676:689   */\n  mload\n    /* \"#utility.yul\":707:797   */\n  tag_38\n    /* \"#utility.yul\":793:796   */\n  dup5\n    /* \"#utility.yul\":785:791   */\n  dup3\n    /* \"#utility.yul\":778:782   */\n  0x20\n    /* \"#utility.yul\":770:776   */\n  dup7\n    /* \"#utility.yul\":766:783   */\n  add\n    /* \"#utility.yul\":707:797   */\n  tag_22\n  jump\t// in\ntag_38:\n    /* \"#utility.yul\":698:797   */\n  swap2\n  pop\n    /* \"#utility.yul\":521:803   */\n  pop\n    /* \"#utility.yul\":448:803   */\n  swap3\n  swap2\n  pop\n  pop\n  jump\t// out\n    /* \"#utility.yul\":809:952   */\ntag_39:\n    /* \"#utility.yul\":866:871   */\n  0x00\n    /* \"#utility.yul\":897:903   */\n  dup2\n    /* \"#utility.yul\":891:904   */\n  mload\n    /* \"#utility.yul\":882:904   */\n  swap1\n  pop\n    /* \"#utility.yul\":913:946   */\n  tag_41\n    /* \"#utility.yul\":940:945   */\n  dup2\n    /* \"#utility.yul\":913:946   */\n  tag_42\n  jump\t// in\ntag_41:\n    /* \"#utility.yul\":809:952   */\n  swap3\n  swap2\n  pop\n  pop\n  jump\t// out\n    /* \"#utility.yul\":958:1967   */\ntag_3:\n    /* \"#utility.yul\":1066:1072   */\n  0x00\n    /* \"#utility.yul\":1074:1080   */\n  dup1\n    /* \"#utility.yul\":1082:1088   */\n  0x00\n    /* \"#utility.yul\":1131:1133   */\n  0x60\n    /* \"#utility.yul\":1119:1128   */\n  dup5\n    /* \"#utility.yul\":1110:1117   */\n  dup7\n    /* \"#utility.yul\":1106:1129   */\n  sub\n    /* \"#utility.yul\":1102:1134   */\n  slt\n    /* \"#utility.yul\":1099:1218   */\n  iszero\n  tag_44\n  jumpi\n    /* \"#utility.yul\":1137:1216   */\n  tag_45\n  tag_46\n  jump\t// in\ntag_45:\n    /* \"#utility.yul\":1099:1218   */\ntag_44:\n    /* \"#utility.yul\":1278:1279   */\n  0x00\n    /* \"#utility.yul\":1267:1276   */\n  dup5\n    /* \"#utility.yul\":1263:1280   */\n  add\n    /* \"#utility.yul\":1257:1281   */\n  mload\n    /* \"#utility.yul\":1308:1326   */\n  0xffffffffffffffff\n    /* \"#utility.yul\":1300:1306   */\n  dup2\n    /* \"#utility.yul\":1297:1327   */\n  gt\n    /* \"#utility.yul\":1294:1411   */\n  iszero\n  tag_47\n  jumpi\n    /* \"#utility.yul\":1330:1409   */\n  tag_48\n  tag_49\n  jump\t// in\ntag_48:\n    /* \"#utility.yul\":1294:1411   */\ntag_47:\n    /* \"#utility.yul\":1435:1509   */\n  tag_50\n    /* \"#utility.yul\":1501:1508   */\n  dup7\n    /* \"#utility.yul\":1492:1498   */\n  dup3\n    /* \"#utility.yul\":1481:1490   */\n  dup8\n    /* \"#utility.yul\":1477:1499   */\n  add\n    /* \"#utility.yul\":1435:1509   */\n  tag_33\n  jump\t// in\ntag_50:\n    /* \"#utility.yul\":1425:1509   */\n  swap4\n  pop\n    /* \"#utility.yul\":1228:1519   */\n  pop\n    /* \"#utility.yul\":1579:1581   */\n  0x20\n    /* \"#utility.yul\":1568:1577   */\n  dup5\n    /* \"#utility.yul\":1564:1582   */\n  add\n    /* \"#utility.yul\":1558:1583   */\n  mload\n    /* \"#utility.yul\":1610:1628   */\n  0xffffffffffffffff\n    /* \"#utility.yul\":1602:1608   */\n  dup2\n    /* \"#utility.yul\":1599:1629   */\n  gt\n    /* \"#utility.yul\":1596:1713   */\n  iszero\n  tag_51\n  jumpi\n    /* \"#utility.yul\":1632:1711   */\n  tag_52\n  tag_49\n  jump\t// in\ntag_52:\n    /* \"#utility.yul\":1596:1713   */\ntag_51:\n    /* \"#utility.yul\":1737:1811   */\n  tag_53\n    /* \"#utility.yul\":1803:1810   */\n  dup7\n    /* \"#utility.yul\":1794:1800   */\n  dup3\n    /* \"#utility.yul\":1783:1792   */\n  dup8\n    /* \"#utility.yul\":1779:1801   */\n  add\n    /* \"#utility.yul\":1737:1811   */\n  tag_33\n  jump\t// in\ntag_53:\n    /* \"#utility.yul\":1727:1811   */\n  swap3\n  pop\n    /* \"#utility.yul\":1529:1821   */\n  pop\n    /* \"#utility.yul\":1860:1862   */\n  0x40\n    /* \"#utility.yul\":1886:1950   */\n  tag_54\n    /* \"#utility.yul\":1942:1949   */\n  dup7\n    /* \"#utility.yul\":1933:1939   */\n  dup3\n    /* \"#utility.yul\":1922:1931   */\n  dup8\n    /* \"#utility.yul\":1918:1940   */\n  add\n    /* \"#utility.yul\":1886:1950   */\n  tag_39\n  jump\t// in\ntag_54:\n    /* \"#utility.yul\":1876:1950   */\n  swap2\n  pop\n    /* \"#utility.yul\":1831:1960   */\n  pop\n    /* \"#utility.yul\":958:1967   */\n  swap3\n  pop\n  swap3\n  pop\n  swap3\n  jump\t// out\n    /* \"#utility.yul\":1973:2102   */\ntag_27:\n    /* \"#utility.yul\":2007:2013   */\n  0x00\n    /* \"#utility.yul\":2034:2054   */\n  tag_56\n  tag_57\n  jump\t// in\ntag_56:\n    /* \"#utility.yul\":2024:2054   */\n  swap1\n  pop\n    /* \"#utility.yul\":2063:2096   */\n  tag_58\n    /* \"#utility.yul\":2091:2095   */\n  dup3\n    /* \"#utility.yul\":2083:2089   */\n  dup3\n    /* \"#utility.yul\":2063:2096   */\n  tag_59\n  jump\t// in\ntag_58:\n    /* \"#utility.yul\":1973:2102   */\n  swap2\n  swap1\n  pop\n  jump\t// out\n    /* \"#utility.yul\":2108:2183   */\ntag_57:\n    /* \"#utility.yul\":2141:2147   */\n  0x00\n    /* \"#utility.yul\":2174:2176   */\n  0x40\n    /* \"#utility.yul\":2168:2177   */\n  mload\n    /* \"#utility.yul\":2158:2177   */\n  swap1\n  pop\n    /* \"#utility.yul\":2108:2183   */\n  swap1\n  jump\t// out\n    /* \"#utility.yul\":2189:2497   */\ntag_26:\n    /* \"#utility.yul\":2251:2255   */\n  0x00\n    /* \"#utility.yul\":2341:2359   */\n  0xffffffffffffffff\n    /* \"#utility.yul\":2333:2339   */\n  dup3\n    /* \"#utility.yul\":2330:2360   */\n  gt\n    /* \"#utility.yul\":2327:2383   */\n  iszero\n  tag_62\n  jumpi\n    /* \"#utility.yul\":2363:2381   */\n  tag_63\n  tag_64\n  jump\t// in\ntag_63:\n    /* \"#utility.yul\":2327:2383   */\ntag_62:\n    /* \"#utility.yul\":2401:2430   */\n  tag_65\n    /* \"#utility.yul\":2423:2429   */\n  dup3\n    /* \"#utility.yul\":2401:2430   */\n  tag_66\n  jump\t// in\ntag_65:\n    /* \"#utility.yul\":2393:2430   */\n  swap1\n  pop\n    /* \"#utility.yul\":2485:2489   */\n  0x20\n    /* \"#utility.yul\":2479:2483   */\n  dup2\n    /* \"#utility.yul\":2475:2490   */\n  add\n    /* \"#utility.yul\":2467:2490   */\n  swap1\n  pop\n    /* \"#utility.yul\":2189:2497   */\n  swap2\n  swap1\n  pop\n  jump\t// out\n    /* \"#utility.yul\":2503:2580   */\ntag_67:\n    /* \"#utility.yul\":2540:2547   */\n  0x00\n    /* \"#utility.yul\":2569:2574   */\n  dup2\n    /* \"#utility.yul\":2558:2574   */\n  swap1\n  pop\n    /* \"#utility.yul\":2503:2580   */\n  swap2\n  swap1\n  pop\n  jump\t// out\n    /* \"#utility.yul\":2586:2893   */\ntag_32:\n    /* \"#utility.yul\":2654:2655   */\n  0x00\n    /* \"#utility.yul\":2664:2777   */\ntag_70:\n    /* \"#utility.yul\":2678:2684   */\n  dup4\n    /* \"#utility.yul\":2675:2676   */\n  dup2\n    /* \"#utility.yul\":2672:2685   */\n  lt\n    /* \"#utility.yul\":2664:2777   */\n  iszero\n  tag_72\n  jumpi\n    /* \"#utility.yul\":2763:2764   */\n  dup1\n    /* \"#utility.yul\":2758:2761   */\n  dup3\n    /* \"#utility.yul\":2754:2765   */\n  add\n    /* \"#utility.yul\":2748:2766   */\n  mload\n    /* \"#utility.yul\":2744:2745   */\n  dup2\n    /* \"#utility.yul\":2739:2742   */\n  dup5\n    /* \"#utility.yul\":2735:2746   */\n  add\n    /* \"#utility.yul\":2728:2767   */\n  mstore\n    /* \"#utility.yul\":2700:2702   */\n  0x20\n    /* \"#utility.yul\":2697:2698   */\n  dup2\n    /* \"#utility.yul\":2693:2703   */\n  add\n    /* \"#utility.yul\":2688:2703   */\n  swap1\n  pop\n    /* \"#utility.yul\":2664:2777   */\n  jump(tag_70)\ntag_72:\n    /* \"#utility.yul\":2795:2801   */\n  dup4\n    /* \"#utility.yul\":2792:2793   */\n  dup2\n    /* \"#utility.yul\":2789:2802   */\n  gt\n    /* \"#utility.yul\":2786:2887   */\n  iszero\n  tag_73\n  jumpi\n    /* \"#utility.yul\":2875:2876   */\n  0x00\n    /* \"#utility.yul\":2866:2872   */\n  dup5\n    /* \"#utility.yul\":2861:2864   */\n  dup5\n    /* \"#utility.yul\":2857:2873   */\n  add\n    /* \"#utility.yul\":2850:2877   */\n  mstore\n    /* \"#utility.yul\":2786:2887   */\ntag_73:\n    /* \"#utility.yul\":2635:2893   */\n  pop\n    /* \"#utility.yul\":2586:2893   */\n  pop\n  pop\n  pop\n  jump\t// out\n    /* \"#utility.yul\":2899:3219   */\ntag_11:\n    /* \"#utility.yul\":2943:2949   */\n  0x00\n    /* \"#utility.yul\":2980:2981   */\n  0x02\n    /* \"#utility.yul\":2974:2978   */\n  dup3\n    /* \"#utility.yul\":2970:2982   */\n  div\n    /* \"#utility.yul\":2960:2982   */\n  swap1\n  pop\n    /* \"#utility.yul\":3027:3028   */\n  0x01\n    /* \"#utility.yul\":3021:3025   */\n  dup3\n    /* \"#utility.yul\":3017:3029   */\n  and\n    /* \"#utility.yul\":3048:3066   */\n  dup1\n    /* \"#utility.yul\":3038:3119   */\n  tag_75\n  jumpi\n    /* \"#utility.yul\":3104:3108   */\n  0x7f\n    /* \"#utility.yul\":3096:3102   */\n  dup3\n    /* \"#utility.yul\":3092:3109   */\n  and\n    /* \"#utility.yul\":3082:3109   */\n  swap2\n  pop\n    /* \"#utility.yul\":3038:3119   */\ntag_75:\n    /* \"#utility.yul\":3166:3168   */\n  0x20\n    /* \"#utility.yul\":3158:3164   */\n  dup3\n    /* \"#utility.yul\":3155:3169   */\n  lt\n    /* \"#utility.yul\":3135:3153   */\n  dup2\n    /* \"#utility.yul\":3132:3170   */\n  eq\n    /* \"#utility.yul\":3129:3213   */\n  iszero\n  tag_76\n  jumpi\n    /* \"#utility.yul\":3185:3203   */\n  tag_77\n  tag_78\n  jump\t// in\ntag_77:\n    /* \"#utility.yul\":3129:3213   */\ntag_76:\n    /* \"#utility.yul\":2950:3219   */\n  pop\n    /* \"#utility.yul\":2899:3219   */\n  swap2\n  swap1\n  pop\n  jump\t// out\n    /* \"#utility.yul\":3225:3506   */\ntag_59:\n    /* \"#utility.yul\":3308:3335   */\n  tag_80\n    /* \"#utility.yul\":3330:3334   */\n  dup3\n    /* \"#utility.yul\":3308:3335   */\n  tag_66\n  jump\t// in\ntag_80:\n    /* \"#utility.yul\":3300:3306   */\n  dup2\n    /* \"#utility.yul\":3296:3336   */\n  add\n    /* \"#utility.yul\":3438:3444   */\n  dup2\n    /* \"#utility.yul\":3426:3436   */\n  dup2\n    /* \"#utility.yul\":3423:3445   */\n  lt\n    /* \"#utility.yul\":3402:3420   */\n  0xffffffffffffffff\n    /* \"#utility.yul\":3390:3400   */\n  dup3\n    /* \"#utility.yul\":3387:3421   */\n  gt\n    /* \"#utility.yul\":3384:3446   */\n  or\n    /* \"#utility.yul\":3381:3469   */\n  iszero\n  tag_81\n  jumpi\n    /* \"#utility.yul\":3449:3467   */\n  tag_82\n  tag_64\n  jump\t// in\ntag_82:\n    /* \"#utility.yul\":3381:3469   */\ntag_81:\n    /* \"#utility.yul\":3489:3499   */\n  dup1\n    /* \"#utility.yul\":3485:3487   */\n  0x40\n    /* \"#utility.yul\":3478:3500   */\n  mstore\n    /* \"#utility.yul\":3268:3506   */\n  pop\n    /* \"#utility.yul\":3225:3506   */\n  pop\n  pop\n  jump\t// out\n    /* \"#utility.yul\":3512:3692   */\ntag_78:\n    /* \"#utility.yul\":3560:3637   */\n  0x4e487b7100000000000000000000000000000000000000000000000000000000\n    /* \"#utility.yul\":3557:3558   */\n  0x00\n    /* \"#utility.yul\":3550:3638   */\n  mstore\n    /* \"#utility.yul\":3657:3661   */\n  0x22\n    /* \"#utility.yul\":3654:3655   */\n  0x04\n    /* \"#utility.yul\":3647:3662   */\n  mstore\n    /* \"#utility.yul\":3681:3685   */\n  0x24\n    /* \"#utility.yul\":3678:3679   */\n  0x00\n    /* \"#utility.yul\":3671:3686   */\n  revert\n    /* \"#utility.yul\":3698:3878   */\ntag_64:\n    /* \"#utility.yul\":3746:3823   */\n  0x4e487b7100000000000000000000000000000000000000000000000000000000\n    /* \"#utility.yul\":3743:3744   */\n  0x00\n    /* \"#utility.yul\":3736:3824   */\n  mstore\n    /* \"#utility.yul\":3843:3847   */\n  0x41\n    /* \"#utility.yul\":3840:3841   */\n  0x04\n    /* \"#utility.yul\":3833:3848   */\n  mstore\n    /* \"#utility.yul\":3867:3871   */\n  0x24\n    /* \"#utility.yul\":3864:3865   */\n  0x00\n    /* \"#utility.yul\":3857:3872   */\n  revert\n    /* \"#utility.yul\":3884:4001   */\ntag_37:\n    /* \"#utility.yul\":3993:3994   */\n  0x00\n    /* \"#utility.yul\":3990:3991   */\n  dup1\n    /* \"#utility.yul\":3983:3995   */\n  revert\n    /* \"#utility.yul\":4007:4124   */\ntag_30:\n    /* \"#utility.yul\":4116:4117   */\n  0x00\n    /* \"#utility.yul\":4113:4114   */\n  dup1\n    /* \"#utility.yul\":4106:4118   */\n  revert\n    /* \"#utility.yul\":4130:4247   */\ntag_49:\n    /* \"#utility.yul\":4239:4240   */\n  0x00\n    /* \"#utility.yul\":4236:4237   */\n  dup1\n    /* \"#utility.yul\":4229:4241   */\n  revert\n    /* \"#utility.yul\":4253:4370   */\ntag_46:\n    /* \"#utility.yul\":4362:4363   */\n  0x00\n    /* \"#utility.yul\":4359:4360   */\n  dup1\n    /* \"#utility.yul\":4352:4364   */\n  revert\n    /* \"#utility.yul\":4376:4478   */\ntag_66:\n    /* \"#utility.yul\":4417:4423   */\n  0x00\n    /* \"#utility.yul\":4468:4470   */\n  0x1f\n    /* \"#utility.yul\":4464:4471   */\n  not\n    /* \"#utility.yul\":4459:4461   */\n  0x1f\n    /* \"#utility.yul\":4452:4457   */\n  dup4\n    /* \"#utility.yul\":4448:4462   */\n  add\n    /* \"#utility.yul\":4444:4472   */\n  and\n    /* \"#utility.yul\":4434:4472   */\n  swap1\n  pop\n    /* \"#utility.yul\":4376:4478   */\n  swap2\n  swap1\n  pop\n  jump\t// out\n    /* \"#utility.yul\":4484:4606   */\ntag_42:\n    /* \"#utility.yul\":4557:4581   */\n  tag_91\n    /* \"#utility.yul\":4575:4580   */\n  dup2\n    /* \"#utility.yul\":4557:4581   */\n  tag_67\n  jump\t// in\ntag_91:\n    /* \"#utility.yul\":4550:4555   */\n  dup2\n    /* \"#utility.yul\":4547:4582   */\n  eq\n    /* \"#utility.yul\":4537:4600   */\n  tag_92\n  jumpi\n    /* \"#utility.yul\":4596:4597   */\n  0x00\n    /* \"#utility.yul\":4593:4594   */\n  dup1\n    /* \"#utility.yul\":4586:4598   */\n  revert\n    /* \"#utility.yul\":4537:4600   */\ntag_92:\n    /* \"#utility.yul\":4484:4606   */\n  pop\n  jump\t// out\n    /* \"contracts/4_Product.sol\":35:11424  contract ProductSC {\r... */\ntag_9:\n  dataSize(sub_0)\n  dup1\n  dataOffset(sub_0)\n  0x00\n  codecopy\n  0x00\n  return\nstop\n\nsub_0: assembly {\n        /* \"contracts/4_Product.sol\":35:11424  contract ProductSC {\r... */\n      mstore(0x40, 0x80)\n      jumpi(tag_1, lt(calldatasize, 0x04))\n      shr(0xe0, calldataload(0x00))\n      dup1\n      0x9dc29fac\n      gt\n      tag_18\n      jumpi\n      dup1\n      0xb292abf1\n      gt\n      tag_19\n      jumpi\n      dup1\n      0xb292abf1\n      eq\n      tag_14\n      jumpi\n      dup1\n      0xcd0c5896\n      eq\n      tag_15\n      jumpi\n      dup1\n      0xeedc966a\n      eq\n      tag_16\n      jumpi\n      dup1\n      0xf1091029\n      eq\n      tag_17\n      jumpi\n      jump(tag_1)\n    tag_19:\n      dup1\n      0x9dc29fac\n      eq\n      tag_10\n      jumpi\n      dup1\n      0xa0712d68\n      eq\n      tag_11\n      jumpi\n      dup1\n      0xa3e67610\n      eq\n      tag_12\n      jumpi\n      dup1\n      0xa4821719\n      eq\n      tag_13\n      jumpi\n      jump(tag_1)\n    tag_18:\n      dup1\n      0x6813b53b\n      gt\n      tag_20\n      jumpi\n      dup1\n      0x6813b53b\n      eq\n      tag_6\n      jumpi\n      dup1\n      0x68cdafe6\n      eq\n      tag_7\n      jumpi\n      dup1\n      0x79a85e6c\n      eq\n      tag_8\n      jumpi\n      dup1\n      0x95d89b41\n      eq\n      tag_9\n      jumpi\n      jump(tag_1)\n    tag_20:\n      dup1\n      0x06fdde03\n      eq\n      tag_2\n      jumpi\n      dup1\n      0x40932fc2\n      eq\n      tag_3\n      jumpi\n      dup1\n      0x53b62866\n      eq\n      tag_4\n      jumpi\n      dup1\n      0x561e0e98\n      eq\n      tag_5\n      jumpi\n    tag_1:\n      0x00\n      dup1\n      revert\n        /* \"contracts/4_Product.sol\":67:85  string public name */\n    tag_2:\n      callvalue\n      dup1\n      iszero\n      tag_21\n      jumpi\n      0x00\n      dup1\n      revert\n    tag_21:\n      pop\n      tag_22\n      tag_23\n      jump\t// in\n    tag_22:\n      mload(0x40)\n      tag_24\n      swap2\n      swap1\n      tag_25\n      jump\t// in\n    tag_24:\n      mload(0x40)\n      dup1\n      swap2\n      sub\n      swap1\n      return\n        /* \"contracts/4_Product.sol\":7051:7310  function register(address _addr, Role _role, string memory _name) public {\r... */\n    tag_3:\n      callvalue\n      dup1\n      iszero\n      tag_26\n      jumpi\n      0x00\n      dup1\n      revert\n    tag_26:\n      pop\n      tag_27\n      0x04\n      dup1\n      calldatasize\n      sub\n      dup2\n      add\n      swap1\n      tag_28\n      swap2\n      swap1\n      tag_29\n      jump\t// in\n    tag_28:\n      tag_30\n      jump\t// in\n    tag_27:\n      stop\n        /* \"contracts/4_Product.sol\":8497:9144  function buyProduct(uint256 _id, uint256 _timestamp) public OnlyDistributor{\r... */\n    tag_4:\n      callvalue\n      dup1\n      iszero\n      tag_31\n      jumpi\n      0x00\n      dup1\n      revert\n    tag_31:\n      pop\n      tag_32\n      0x04\n      dup1\n      calldatasize\n      sub\n      dup2\n      add\n      swap1\n      tag_33\n      swap2\n      swap1\n      tag_34\n      jump\t// in\n    tag_33:\n      tag_35\n      jump\t// in\n    tag_32:\n      stop\n        /* \"contracts/4_Product.sol\":7429:8450  function produceProduct(uint256 _id, uint256 _timestamp, uint256 _price, string memory _name, string memory _brand, string memory _size, string memory _weight, string memory _length ,string memory _width ,string memory _height) public OnlyProducer{\r... */\n    tag_5:\n      callvalue\n      dup1\n      iszero\n      tag_36\n      jumpi\n      0x00\n      dup1\n      revert\n    tag_36:\n      pop\n      tag_37\n      0x04\n      dup1\n      calldatasize\n      sub\n      dup2\n      add\n      swap1\n      tag_38\n      swap2\n      swap1\n      tag_39\n      jump\t// in\n    tag_38:\n      tag_40\n      jump\t// in\n    tag_37:\n      stop\n        /* \"contracts/4_Product.sol\":10105:11201  function getProductDetails(uint256 _id) public view returns \r... */\n    tag_6:\n      callvalue\n      dup1\n      iszero\n      tag_41\n      jumpi\n      0x00\n      dup1\n      revert\n    tag_41:\n      pop\n      tag_42\n      0x04\n      dup1\n      calldatasize\n      sub\n      dup2\n      add\n      swap1\n      tag_43\n      swap2\n      swap1\n      tag_44\n      jump\t// in\n    tag_43:\n      tag_45\n      jump\t// in\n    tag_42:\n      mload(0x40)\n      tag_46\n      swap12\n      swap11\n      swap10\n      swap9\n      swap8\n      swap7\n      swap6\n      swap5\n      swap4\n      swap3\n      swap2\n      swap1\n      tag_47\n      jump\t// in\n    tag_46:\n      mload(0x40)\n      dup1\n      swap2\n      sub\n      swap1\n      return\n        /* \"contracts/4_Product.sol\":6683:7039  function tokenTransfer(address _to, uint256 _amount) public returns (bool) {\r... */\n    tag_7:\n      callvalue\n      dup1\n      iszero\n      tag_48\n      jumpi\n      0x00\n      dup1\n      revert\n    tag_48:\n      pop\n      tag_49\n      0x04\n      dup1\n      calldatasize\n      sub\n      dup2\n      add\n      swap1\n      tag_50\n      swap2\n      swap1\n      tag_51\n      jump\t// in\n    tag_50:\n      tag_52\n      jump\t// in\n    tag_49:\n      mload(0x40)\n      tag_53\n      swap2\n      swap1\n      tag_54\n      jump\t// in\n    tag_53:\n      mload(0x40)\n      dup1\n      swap2\n      sub\n      swap1\n      return\n        /* \"contracts/4_Product.sol\":9217:10099  function getProductInfo(uint256 _id) public view returns \r... */\n    tag_8:\n      callvalue\n      dup1\n      iszero\n      tag_55\n      jumpi\n      0x00\n      dup1\n      revert\n    tag_55:\n      pop\n      tag_56\n      0x04\n      dup1\n      calldatasize\n      sub\n      dup2\n      add\n      swap1\n      tag_57\n      swap2\n      swap1\n      tag_44\n      jump\t// in\n    tag_57:\n      tag_58\n      jump\t// in\n    tag_56:\n      mload(0x40)\n      tag_59\n      swap10\n      swap9\n      swap8\n      swap7\n      swap6\n      swap5\n      swap4\n      swap3\n      swap2\n      swap1\n      tag_60\n      jump\t// in\n    tag_59:\n      mload(0x40)\n      dup1\n      swap2\n      sub\n      swap1\n      return\n        /* \"contracts/4_Product.sol\":114:134  string public symbol */\n    tag_9:\n      callvalue\n      dup1\n      iszero\n      tag_61\n      jumpi\n      0x00\n      dup1\n      revert\n    tag_61:\n      pop\n      tag_62\n      tag_63\n      jump\t// in\n    tag_62:\n      mload(0x40)\n      tag_64\n      swap2\n      swap1\n      tag_25\n      jump\t// in\n    tag_64:\n      mload(0x40)\n      dup1\n      swap2\n      sub\n      swap1\n      return\n        /* \"contracts/4_Product.sol\":5637:6054  function burn(address _account, uint256 _amount) public OnlyTokenOwner {\r... */\n    tag_10:\n      callvalue\n      dup1\n      iszero\n      tag_65\n      jumpi\n      0x00\n      dup1\n      revert\n    tag_65:\n      pop\n      tag_66\n      0x04\n      dup1\n      calldatasize\n      sub\n      dup2\n      add\n      swap1\n      tag_67\n      swap2\n      swap1\n      tag_51\n      jump\t// in\n    tag_67:\n      tag_68\n      jump\t// in\n    tag_66:\n      stop\n        /* \"contracts/4_Product.sol\":4027:4249  function mint(uint256 _amount) public OnlyTokenOwner {\r... */\n    tag_11:\n      callvalue\n      dup1\n      iszero\n      tag_69\n      jumpi\n      0x00\n      dup1\n      revert\n    tag_69:\n      pop\n      tag_70\n      0x04\n      dup1\n      calldatasize\n      sub\n      dup2\n      add\n      swap1\n      tag_71\n      swap2\n      swap1\n      tag_44\n      jump\t// in\n    tag_71:\n      tag_72\n      jump\t// in\n    tag_70:\n      stop\n        /* \"contracts/4_Product.sol\":165:199  address payable public  tokenOwner */\n    tag_12:\n      callvalue\n      dup1\n      iszero\n      tag_73\n      jumpi\n      0x00\n      dup1\n      revert\n    tag_73:\n      pop\n      tag_74\n      tag_75\n      jump\t// in\n    tag_74:\n      mload(0x40)\n      tag_76\n      swap2\n      swap1\n      tag_77\n      jump\t// in\n    tag_76:\n      mload(0x40)\n      dup1\n      swap2\n      sub\n      swap1\n      return\n        /* \"contracts/4_Product.sol\":6112:6609  function buyToken() public payable {\r... */\n    tag_13:\n      tag_78\n      tag_79\n      jump\t// in\n    tag_78:\n      stop\n        /* \"contracts/4_Product.sol\":11243:11419  function getActorInfo(address _addr) public view returns\r... */\n    tag_14:\n      callvalue\n      dup1\n      iszero\n      tag_80\n      jumpi\n      0x00\n      dup1\n      revert\n    tag_80:\n      pop\n      tag_81\n      0x04\n      dup1\n      calldatasize\n      sub\n      dup2\n      add\n      swap1\n      tag_82\n      swap2\n      swap1\n      tag_83\n      jump\t// in\n    tag_82:\n      tag_84\n      jump\t// in\n    tag_81:\n      mload(0x40)\n      tag_85\n      swap3\n      swap2\n      swap1\n      tag_86\n      jump\t// in\n    tag_85:\n      mload(0x40)\n      dup1\n      swap2\n      sub\n      swap1\n      return\n        /* \"contracts/4_Product.sol\":3805:3911  function etherBalance(address _addr) public view returns (uint256) {\r... */\n    tag_15:\n      callvalue\n      dup1\n      iszero\n      tag_87\n      jumpi\n      0x00\n      dup1\n      revert\n    tag_87:\n      pop\n      tag_88\n      0x04\n      dup1\n      calldatasize\n      sub\n      dup2\n      add\n      swap1\n      tag_89\n      swap2\n      swap1\n      tag_83\n      jump\t// in\n    tag_89:\n      tag_90\n      jump\t// in\n    tag_88:\n      mload(0x40)\n      tag_91\n      swap2\n      swap1\n      tag_92\n      jump\t// in\n    tag_91:\n      mload(0x40)\n      dup1\n      swap2\n      sub\n      swap1\n      return\n        /* \"contracts/4_Product.sol\":3631:3739  function tokenBalance(address _addr) public view returns (uint256) {\r... */\n    tag_16:\n      callvalue\n      dup1\n      iszero\n      tag_93\n      jumpi\n      0x00\n      dup1\n      revert\n    tag_93:\n      pop\n      tag_94\n      0x04\n      dup1\n      calldatasize\n      sub\n      dup2\n      add\n      swap1\n      tag_95\n      swap2\n      swap1\n      tag_83\n      jump\t// in\n    tag_95:\n      tag_96\n      jump\t// in\n    tag_94:\n      mload(0x40)\n      tag_97\n      swap2\n      swap1\n      tag_92\n      jump\t// in\n    tag_97:\n      mload(0x40)\n      dup1\n      swap2\n      sub\n      swap1\n      return\n        /* \"contracts/4_Product.sol\":4257:5478  function orderProduct(uint256 _amount, string memory _name, string memory _brand, string memory _size, string memory _weight, string memory _length, string memory _width, string memory _height) public OnlyTokenOwner {\r... */\n    tag_17:\n      callvalue\n      dup1\n      iszero\n      tag_98\n      jumpi\n      0x00\n      dup1\n      revert\n    tag_98:\n      pop\n      tag_99\n      0x04\n      dup1\n      calldatasize\n      sub\n      dup2\n      add\n      swap1\n      tag_100\n      swap2\n      swap1\n      tag_101\n      jump\t// in\n    tag_100:\n      tag_102\n      jump\t// in\n    tag_99:\n      stop\n        /* \"contracts/4_Product.sol\":67:85  string public name */\n    tag_23:\n      0x00\n      dup1\n      sload\n      tag_103\n      swap1\n      tag_104\n      jump\t// in\n    tag_103:\n      dup1\n      0x1f\n      add\n      0x20\n      dup1\n      swap2\n      div\n      mul\n      0x20\n      add\n      mload(0x40)\n      swap1\n      dup2\n      add\n      0x40\n      mstore\n      dup1\n      swap3\n      swap2\n      swap1\n      dup2\n      dup2\n      mstore\n      0x20\n      add\n      dup3\n      dup1\n      sload\n      tag_105\n      swap1\n      tag_104\n      jump\t// in\n    tag_105:\n      dup1\n      iszero\n      tag_106\n      jumpi\n      dup1\n      0x1f\n      lt\n      tag_107\n      jumpi\n      0x0100\n      dup1\n      dup4\n      sload\n      div\n      mul\n      dup4\n      mstore\n      swap2\n      0x20\n      add\n      swap2\n      jump(tag_106)\n    tag_107:\n      dup3\n      add\n      swap2\n      swap1\n      0x00\n      mstore\n      keccak256(0x00, 0x20)\n      swap1\n    tag_108:\n      dup2\n      sload\n      dup2\n      mstore\n      swap1\n      0x01\n      add\n      swap1\n      0x20\n      add\n      dup1\n      dup4\n      gt\n      tag_108\n      jumpi\n      dup3\n      swap1\n      sub\n      0x1f\n      and\n      dup3\n      add\n      swap2\n    tag_106:\n      pop\n      pop\n      pop\n      pop\n      pop\n      dup2\n      jump\t// out\n        /* \"contracts/4_Product.sol\":7051:7310  function register(address _addr, Role _role, string memory _name) public {\r... */\n    tag_30:\n        /* \"contracts/4_Product.sol\":7135:7153  Actor memory actor */\n      0x00\n        /* \"contracts/4_Product.sol\":7156:7162  actors */\n      0x05\n        /* \"contracts/4_Product.sol\":7156:7169  actors[_addr] */\n      0x00\n        /* \"contracts/4_Product.sol\":7163:7168  _addr */\n      dup6\n        /* \"contracts/4_Product.sol\":7156:7169  actors[_addr] */\n      0xffffffffffffffffffffffffffffffffffffffff\n      and\n      0xffffffffffffffffffffffffffffffffffffffff\n      and\n      dup2\n      mstore\n      0x20\n      add\n      swap1\n      dup2\n      mstore\n      0x20\n      add\n      0x00\n      keccak256\n        /* \"contracts/4_Product.sol\":7135:7169  Actor memory actor = actors[_addr] */\n      mload(0x40)\n      dup1\n      0x60\n      add\n      0x40\n      mstore\n      swap1\n      dup2\n      0x00\n      dup3\n      add\n      0x00\n      swap1\n      sload\n      swap1\n      0x0100\n      exp\n      swap1\n      div\n      0xff\n      and\n      0x04\n      dup2\n      gt\n      iszero\n      tag_110\n      jumpi\n      tag_111\n      tag_112\n      jump\t// in\n    tag_111:\n    tag_110:\n      0x04\n      dup2\n      gt\n      iszero\n      tag_113\n      jumpi\n      tag_114\n      tag_112\n      jump\t// in\n    tag_114:\n    tag_113:\n      dup2\n      mstore\n      0x20\n      add\n      0x01\n      dup3\n      add\n      dup1\n      sload\n      tag_115\n      swap1\n      tag_104\n      jump\t// in\n    tag_115:\n      dup1\n      0x1f\n      add\n      0x20\n      dup1\n      swap2\n      div\n      mul\n      0x20\n      add\n      mload(0x40)\n      swap1\n      dup2\n      add\n      0x40\n      mstore\n      dup1\n      swap3\n      swap2\n      swap1\n      dup2\n      dup2\n      mstore\n      0x20\n      add\n      dup3\n      dup1\n      sload\n      tag_116\n      swap1\n      tag_104\n      jump\t// in\n    tag_116:\n      dup1\n      iszero\n      tag_117\n      jumpi\n      dup1\n      0x1f\n      lt\n      tag_118\n      jumpi\n      0x0100\n      dup1\n      dup4\n      sload\n      div\n      mul\n      dup4\n      mstore\n      swap2\n      0x20\n      add\n      swap2\n      jump(tag_117)\n    tag_118:\n      dup3\n      add\n      swap2\n      swap1\n      0x00\n      mstore\n      keccak256(0x00, 0x20)\n      swap1\n    tag_119:\n      dup2\n      sload\n      dup2\n      mstore\n      swap1\n      0x01\n      add\n      swap1\n      0x20\n      add\n      dup1\n      dup4\n      gt\n      tag_119\n      jumpi\n      dup3\n      swap1\n      sub\n      0x1f\n      and\n      dup3\n      add\n      swap2\n    tag_117:\n      pop\n      pop\n      pop\n      pop\n      pop\n      dup2\n      mstore\n      0x20\n      add\n      0x02\n      dup3\n      add\n      0x00\n      swap1\n      sload\n      swap1\n      0x0100\n      exp\n      swap1\n      div\n      0xff\n      and\n      iszero\n      iszero\n      iszero\n      iszero\n      dup2\n      mstore\n      pop\n      pop\n      swap1\n      pop\n        /* \"contracts/4_Product.sol\":7193:7198  _role */\n      dup3\n        /* \"contracts/4_Product.sol\":7180:7185  actor */\n      dup2\n        /* \"contracts/4_Product.sol\":7180:7190  actor.role */\n      0x00\n      add\n        /* \"contracts/4_Product.sol\":7180:7198  actor.role = _role */\n      swap1\n      0x04\n      dup2\n      gt\n      iszero\n      tag_120\n      jumpi\n      tag_121\n      tag_112\n      jump\t// in\n    tag_121:\n    tag_120:\n      swap1\n      dup2\n      0x04\n      dup2\n      gt\n      iszero\n      tag_122\n      jumpi\n      tag_123\n      tag_112\n      jump\t// in\n    tag_123:\n    tag_122:\n      dup2\n      mstore\n      pop\n      pop\n        /* \"contracts/4_Product.sol\":7222:7227  _name */\n      dup2\n        /* \"contracts/4_Product.sol\":7209:7214  actor */\n      dup2\n        /* \"contracts/4_Product.sol\":7209:7219  actor.name */\n      0x20\n      add\n        /* \"contracts/4_Product.sol\":7209:7227  actor.name = _name */\n      dup2\n      swap1\n      mstore\n      pop\n        /* \"contracts/4_Product.sol\":7256:7260  true */\n      0x01\n        /* \"contracts/4_Product.sol\":7238:7243  actor */\n      dup2\n        /* \"contracts/4_Product.sol\":7238:7253  actor.isDefined */\n      0x40\n      add\n        /* \"contracts/4_Product.sol\":7238:7260  actor.isDefined = true */\n      swap1\n      iszero\n      iszero\n      swap1\n      dup2\n      iszero\n      iszero\n      dup2\n      mstore\n      pop\n      pop\n        /* \"contracts/4_Product.sol\":7287:7292  actor */\n      dup1\n        /* \"contracts/4_Product.sol\":7271:7277  actors */\n      0x05\n        /* \"contracts/4_Product.sol\":7271:7284  actors[_addr] */\n      0x00\n        /* \"contracts/4_Product.sol\":7278:7283  _addr */\n      dup7\n        /* \"contracts/4_Product.sol\":7271:7284  actors[_addr] */\n      0xffffffffffffffffffffffffffffffffffffffff\n      and\n      0xffffffffffffffffffffffffffffffffffffffff\n      and\n      dup2\n      mstore\n      0x20\n      add\n      swap1\n      dup2\n      mstore\n      0x20\n      add\n      0x00\n      keccak256\n        /* \"contracts/4_Product.sol\":7271:7292  actors[_addr] = actor */\n      0x00\n      dup3\n      add\n      mload\n      dup2\n      0x00\n      add\n      exp(0x0100, 0x00)\n      dup2\n      sload\n      dup2\n      0xff\n      mul\n      not\n      and\n      swap1\n      dup4\n      0x04\n      dup2\n      gt\n      iszero\n      tag_124\n      jumpi\n      tag_125\n      tag_112\n      jump\t// in\n    tag_125:\n    tag_124:\n      mul\n      or\n      swap1\n      sstore\n      pop\n      0x20\n      dup3\n      add\n      mload\n      dup2\n      0x01\n      add\n      swap1\n      dup1\n      mload\n      swap1\n      0x20\n      add\n      swap1\n      tag_126\n      swap3\n      swap2\n      swap1\n      tag_127\n      jump\t// in\n    tag_126:\n      pop\n      0x40\n      dup3\n      add\n      mload\n      dup2\n      0x02\n      add\n      exp(0x0100, 0x00)\n      dup2\n      sload\n      dup2\n      0xff\n      mul\n      not\n      and\n      swap1\n      dup4\n      iszero\n      iszero\n      mul\n      or\n      swap1\n      sstore\n      pop\n      swap1\n      pop\n      pop\n        /* \"contracts/4_Product.sol\":7124:7310  {\r... */\n      pop\n        /* \"contracts/4_Product.sol\":7051:7310  function register(address _addr, Role _role, string memory _name) public {\r... */\n      pop\n      pop\n      pop\n      jump\t// out\n        /* \"contracts/4_Product.sol\":8497:9144  function buyProduct(uint256 _id, uint256 _timestamp) public OnlyDistributor{\r... */\n    tag_35:\n        /* \"contracts/4_Product.sol\":2921:2937  Role.Distributor */\n      0x01\n        /* \"contracts/4_Product.sol\":2894:2937  actors[msg.sender].role == Role.Distributor */\n      0x04\n      dup2\n      gt\n      iszero\n      tag_129\n      jumpi\n      tag_130\n      tag_112\n      jump\t// in\n    tag_130:\n    tag_129:\n        /* \"contracts/4_Product.sol\":2894:2900  actors */\n      0x05\n        /* \"contracts/4_Product.sol\":2894:2912  actors[msg.sender] */\n      0x00\n        /* \"contracts/4_Product.sol\":2901:2911  msg.sender */\n      caller\n        /* \"contracts/4_Product.sol\":2894:2912  actors[msg.sender] */\n      0xffffffffffffffffffffffffffffffffffffffff\n      and\n      0xffffffffffffffffffffffffffffffffffffffff\n      and\n      dup2\n      mstore\n      0x20\n      add\n      swap1\n      dup2\n      mstore\n      0x20\n      add\n      0x00\n      keccak256\n        /* \"contracts/4_Product.sol\":2894:2917  actors[msg.sender].role */\n      0x00\n      add\n      0x00\n      swap1\n      sload\n      swap1\n      0x0100\n      exp\n      swap1\n      div\n      0xff\n      and\n        /* \"contracts/4_Product.sol\":2894:2937  actors[msg.sender].role == Role.Distributor */\n      0x04\n      dup2\n      gt\n      iszero\n      tag_131\n      jumpi\n      tag_132\n      tag_112\n      jump\t// in\n    tag_132:\n    tag_131:\n      eq\n        /* \"contracts/4_Product.sol\":2886:2970  require(actors[msg.sender].role == Role.Distributor, 'caller is not a distributor.') */\n      tag_133\n      jumpi\n      mload(0x40)\n      0x08c379a000000000000000000000000000000000000000000000000000000000\n      dup2\n      mstore\n      0x04\n      add\n      tag_134\n      swap1\n      tag_135\n      jump\t// in\n    tag_134:\n      mload(0x40)\n      dup1\n      swap2\n      sub\n      swap1\n      revert\n    tag_133:\n        /* \"contracts/4_Product.sol\":8583:8612  Product storage boughtProduct */\n      0x00\n        /* \"contracts/4_Product.sol\":8615:8622  product */\n      0x06\n        /* \"contracts/4_Product.sol\":8615:8627  product[_id] */\n      0x00\n        /* \"contracts/4_Product.sol\":8623:8626  _id */\n      dup5\n        /* \"contracts/4_Product.sol\":8615:8627  product[_id] */\n      dup2\n      mstore\n      0x20\n      add\n      swap1\n      dup2\n      mstore\n      0x20\n      add\n      0x00\n      keccak256\n        /* \"contracts/4_Product.sol\":8583:8627  Product storage boughtProduct = product[_id] */\n      swap1\n      pop\n        /* \"contracts/4_Product.sol\":8638:8657  uint256 tokenNumber */\n      0x00\n        /* \"contracts/4_Product.sol\":8660:8668  balances */\n      0x04\n        /* \"contracts/4_Product.sol\":8660:8680  balances[msg.sender] */\n      0x00\n        /* \"contracts/4_Product.sol\":8669:8679  msg.sender */\n      caller\n        /* \"contracts/4_Product.sol\":8660:8680  balances[msg.sender] */\n      0xffffffffffffffffffffffffffffffffffffffff\n      and\n      0xffffffffffffffffffffffffffffffffffffffff\n      and\n      dup2\n      mstore\n      0x20\n      add\n      swap1\n      dup2\n      mstore\n      0x20\n      add\n      0x00\n      keccak256\n      sload\n        /* \"contracts/4_Product.sol\":8638:8680  uint256 tokenNumber = balances[msg.sender] */\n      swap1\n      pop\n        /* \"contracts/4_Product.sol\":8714:8727  boughtProduct */\n      dup2\n        /* \"contracts/4_Product.sol\":8714:8740  boughtProduct.productPrice */\n      0x05\n      add\n      sload\n        /* \"contracts/4_Product.sol\":8699:8710  tokenNumber */\n      dup2\n        /* \"contracts/4_Product.sol\":8699:8740  tokenNumber >= boughtProduct.productPrice */\n      lt\n      iszero\n        /* \"contracts/4_Product.sol\":8691:8741  require(tokenNumber >= boughtProduct.productPrice) */\n      tag_137\n      jumpi\n      0x00\n      dup1\n      revert\n    tag_137:\n        /* \"contracts/4_Product.sol\":8790:8804  State.Produced */\n      0x01\n        /* \"contracts/4_Product.sol\":8760:8804  boughtProduct.productState == State.Produced */\n      0x05\n      dup2\n      gt\n      iszero\n      tag_138\n      jumpi\n      tag_139\n      tag_112\n      jump\t// in\n    tag_139:\n    tag_138:\n        /* \"contracts/4_Product.sol\":8760:8773  boughtProduct */\n      dup3\n        /* \"contracts/4_Product.sol\":8760:8786  boughtProduct.productState */\n      0x04\n      add\n      0x00\n      swap1\n      sload\n      swap1\n      0x0100\n      exp\n      swap1\n      div\n      0xff\n      and\n        /* \"contracts/4_Product.sol\":8760:8804  boughtProduct.productState == State.Produced */\n      0x05\n      dup2\n      gt\n      iszero\n      tag_140\n      jumpi\n      tag_141\n      tag_112\n      jump\t// in\n    tag_141:\n    tag_140:\n      eq\n        /* \"contracts/4_Product.sol\":8752:8805  require(boughtProduct.productState == State.Produced) */\n      tag_142\n      jumpi\n      0x00\n      dup1\n      revert\n    tag_142:\n        /* \"contracts/4_Product.sol\":8851:8861  _timestamp */\n      dup3\n        /* \"contracts/4_Product.sol\":8826:8833  product */\n      0x06\n        /* \"contracts/4_Product.sol\":8826:8838  product[_id] */\n      0x00\n        /* \"contracts/4_Product.sol\":8834:8837  _id */\n      dup7\n        /* \"contracts/4_Product.sol\":8826:8838  product[_id] */\n      dup2\n      mstore\n      0x20\n      add\n      swap1\n      dup2\n      mstore\n      0x20\n      add\n      0x00\n      keccak256\n        /* \"contracts/4_Product.sol\":8826:8848  product[_id].timestamp */\n      0x03\n      add\n        /* \"contracts/4_Product.sol\":8826:8861  product[_id].timestamp = _timestamp */\n      dup2\n      swap1\n      sstore\n      pop\n        /* \"contracts/4_Product.sol\":8938:8948  msg.sender */\n      caller\n        /* \"contracts/4_Product.sol\":8909:8916  product */\n      0x06\n        /* \"contracts/4_Product.sol\":8909:8921  product[_id] */\n      0x00\n        /* \"contracts/4_Product.sol\":8917:8920  _id */\n      dup7\n        /* \"contracts/4_Product.sol\":8909:8921  product[_id] */\n      dup2\n      mstore\n      0x20\n      add\n      swap1\n      dup2\n      mstore\n      0x20\n      add\n      0x00\n      keccak256\n        /* \"contracts/4_Product.sol\":8909:8935  product[_id].distributorID */\n      0x06\n      add\n      0x00\n        /* \"contracts/4_Product.sol\":8909:8948  product[_id].distributorID = msg.sender */\n      0x0100\n      exp\n      dup2\n      sload\n      dup2\n      0xffffffffffffffffffffffffffffffffffffffff\n      mul\n      not\n      and\n      swap1\n      dup4\n      0xffffffffffffffffffffffffffffffffffffffff\n      and\n      mul\n      or\n      swap1\n      sstore\n      pop\n        /* \"contracts/4_Product.sol\":8964:9026  tokenTransfer(product[_id].ownerID,boughtProduct.productPrice) */\n      tag_143\n        /* \"contracts/4_Product.sol\":8978:8985  product */\n      0x06\n        /* \"contracts/4_Product.sol\":8978:8990  product[_id] */\n      0x00\n        /* \"contracts/4_Product.sol\":8986:8989  _id */\n      dup7\n        /* \"contracts/4_Product.sol\":8978:8990  product[_id] */\n      dup2\n      mstore\n      0x20\n      add\n      swap1\n      dup2\n      mstore\n      0x20\n      add\n      0x00\n      keccak256\n        /* \"contracts/4_Product.sol\":8978:8998  product[_id].ownerID */\n      0x01\n      add\n      0x00\n      swap1\n      sload\n      swap1\n      0x0100\n      exp\n      swap1\n      div\n      0xffffffffffffffffffffffffffffffffffffffff\n      and\n        /* \"contracts/4_Product.sol\":8999:9012  boughtProduct */\n      dup4\n        /* \"contracts/4_Product.sol\":8999:9025  boughtProduct.productPrice */\n      0x05\n      add\n      sload\n        /* \"contracts/4_Product.sol\":8964:8977  tokenTransfer */\n      tag_52\n        /* \"contracts/4_Product.sol\":8964:9026  tokenTransfer(product[_id].ownerID,boughtProduct.productPrice) */\n      jump\t// in\n    tag_143:\n      pop\n        /* \"contracts/4_Product.sol\":9066:9081  State.Purchased */\n      0x05\n        /* \"contracts/4_Product.sol\":9038:9045  product */\n      0x06\n        /* \"contracts/4_Product.sol\":9038:9050  product[_id] */\n      0x00\n        /* \"contracts/4_Product.sol\":9046:9049  _id */\n      dup7\n        /* \"contracts/4_Product.sol\":9038:9050  product[_id] */\n      dup2\n      mstore\n      0x20\n      add\n      swap1\n      dup2\n      mstore\n      0x20\n      add\n      0x00\n      keccak256\n        /* \"contracts/4_Product.sol\":9038:9063  product[_id].productState */\n      0x04\n      add\n      0x00\n        /* \"contracts/4_Product.sol\":9038:9081  product[_id].productState = State.Purchased */\n      0x0100\n      exp\n      dup2\n      sload\n      dup2\n      0xff\n      mul\n      not\n      and\n      swap1\n      dup4\n      0x05\n      dup2\n      gt\n      iszero\n      tag_144\n      jumpi\n      tag_145\n      tag_112\n      jump\t// in\n    tag_145:\n    tag_144:\n      mul\n      or\n      swap1\n      sstore\n      pop\n        /* \"contracts/4_Product.sol\":9116:9126  msg.sender */\n      caller\n        /* \"contracts/4_Product.sol\":9093:9100  product */\n      0x06\n        /* \"contracts/4_Product.sol\":9093:9105  product[_id] */\n      0x00\n        /* \"contracts/4_Product.sol\":9101:9104  _id */\n      dup7\n        /* \"contracts/4_Product.sol\":9093:9105  product[_id] */\n      dup2\n      mstore\n      0x20\n      add\n      swap1\n      dup2\n      mstore\n      0x20\n      add\n      0x00\n      keccak256\n        /* \"contracts/4_Product.sol\":9093:9113  product[_id].ownerID */\n      0x01\n      add\n      0x00\n        /* \"contracts/4_Product.sol\":9093:9126  product[_id].ownerID = msg.sender */\n      0x0100\n      exp\n      dup2\n      sload\n      dup2\n      0xffffffffffffffffffffffffffffffffffffffff\n      mul\n      not\n      and\n      swap1\n      dup4\n      0xffffffffffffffffffffffffffffffffffffffff\n      and\n      mul\n      or\n      swap1\n      sstore\n      pop\n        /* \"contracts/4_Product.sol\":8572:9144  {\r... */\n      pop\n      pop\n        /* \"contracts/4_Product.sol\":8497:9144  function buyProduct(uint256 _id, uint256 _timestamp) public OnlyDistributor{\r... */\n      pop\n      pop\n      jump\t// out\n        /* \"contracts/4_Product.sol\":7429:8450  function produceProduct(uint256 _id, uint256 _timestamp, uint256 _price, string memory _name, string memory _brand, string memory _size, string memory _weight, string memory _length ,string memory _width ,string memory _height) public OnlyProducer{\r... */\n    tag_40:\n        /* \"contracts/4_Product.sol\":2773:2786  Role.Producer */\n      0x00\n        /* \"contracts/4_Product.sol\":2746:2786  actors[msg.sender].role == Role.Producer */\n      0x04\n      dup2\n      gt\n      iszero\n      tag_147\n      jumpi\n      tag_148\n      tag_112\n      jump\t// in\n    tag_148:\n    tag_147:\n        /* \"contracts/4_Product.sol\":2746:2752  actors */\n      0x05\n        /* \"contracts/4_Product.sol\":2746:2764  actors[msg.sender] */\n      0x00\n        /* \"contracts/4_Product.sol\":2753:2763  msg.sender */\n      caller\n        /* \"contracts/4_Product.sol\":2746:2764  actors[msg.sender] */\n      0xffffffffffffffffffffffffffffffffffffffff\n      and\n      0xffffffffffffffffffffffffffffffffffffffff\n      and\n      dup2\n      mstore\n      0x20\n      add\n      swap1\n      dup2\n      mstore\n      0x20\n      add\n      0x00\n      keccak256\n        /* \"contracts/4_Product.sol\":2746:2769  actors[msg.sender].role */\n      0x00\n      add\n      0x00\n      swap1\n      sload\n      swap1\n      0x0100\n      exp\n      swap1\n      div\n      0xff\n      and\n        /* \"contracts/4_Product.sol\":2746:2786  actors[msg.sender].role == Role.Producer */\n      0x04\n      dup2\n      gt\n      iszero\n      tag_149\n      jumpi\n      tag_150\n      tag_112\n      jump\t// in\n    tag_150:\n    tag_149:\n      eq\n        /* \"contracts/4_Product.sol\":2738:2815  require(actors[msg.sender].role == Role.Producer,'caller is not a producer.') */\n      tag_151\n      jumpi\n      mload(0x40)\n      0x08c379a000000000000000000000000000000000000000000000000000000000\n      dup2\n      mstore\n      0x04\n      add\n      tag_152\n      swap1\n      tag_153\n      jump\t// in\n    tag_152:\n      mload(0x40)\n      dup1\n      swap2\n      sub\n      swap1\n      revert\n    tag_151:\n        /* \"contracts/4_Product.sol\":7687:7713  Product storage newProduct */\n      0x00\n        /* \"contracts/4_Product.sol\":7716:7723  product */\n      0x06\n        /* \"contracts/4_Product.sol\":7716:7728  product[_id] */\n      0x00\n        /* \"contracts/4_Product.sol\":7724:7727  _id */\n      dup13\n        /* \"contracts/4_Product.sol\":7716:7728  product[_id] */\n      dup2\n      mstore\n      0x20\n      add\n      swap1\n      dup2\n      mstore\n      0x20\n      add\n      0x00\n      keccak256\n        /* \"contracts/4_Product.sol\":7687:7728  Product storage newProduct = product[_id] */\n      swap1\n      pop\n        /* \"contracts/4_Product.sol\":7755:7758  _id */\n      dup11\n        /* \"contracts/4_Product.sol\":7739:7749  newProduct */\n      dup2\n        /* \"contracts/4_Product.sol\":7739:7752  newProduct.ID */\n      0x00\n      add\n        /* \"contracts/4_Product.sol\":7739:7758  newProduct.ID = _id */\n      dup2\n      swap1\n      sstore\n      pop\n        /* \"contracts/4_Product.sol\":7790:7800  msg.sender */\n      caller\n        /* \"contracts/4_Product.sol\":7769:7779  newProduct */\n      dup2\n        /* \"contracts/4_Product.sol\":7769:7787  newProduct.ownerID */\n      0x01\n      add\n      0x00\n        /* \"contracts/4_Product.sol\":7769:7800  newProduct.ownerID = msg.sender */\n      0x0100\n      exp\n      dup2\n      sload\n      dup2\n      0xffffffffffffffffffffffffffffffffffffffff\n      mul\n      not\n      and\n      swap1\n      dup4\n      0xffffffffffffffffffffffffffffffffffffffff\n      and\n      mul\n      or\n      swap1\n      sstore\n      pop\n        /* \"contracts/4_Product.sol\":7835:7845  msg.sender */\n      caller\n        /* \"contracts/4_Product.sol\":7811:7821  newProduct */\n      dup2\n        /* \"contracts/4_Product.sol\":7811:7832  newProduct.producerID */\n      0x02\n      add\n      0x00\n        /* \"contracts/4_Product.sol\":7811:7845  newProduct.producerID = msg.sender */\n      0x0100\n      exp\n      dup2\n      sload\n      dup2\n      0xffffffffffffffffffffffffffffffffffffffff\n      mul\n      not\n      and\n      swap1\n      dup4\n      0xffffffffffffffffffffffffffffffffffffffff\n      and\n      mul\n      or\n      swap1\n      sstore\n      pop\n        /* \"contracts/4_Product.sol\":7879:7889  _timestamp */\n      dup10\n        /* \"contracts/4_Product.sol\":7856:7866  newProduct */\n      dup2\n        /* \"contracts/4_Product.sol\":7856:7876  newProduct.timestamp */\n      0x03\n      add\n        /* \"contracts/4_Product.sol\":7856:7889  newProduct.timestamp = _timestamp */\n      dup2\n      swap1\n      sstore\n      pop\n        /* \"contracts/4_Product.sol\":7933:7947  State.Produced */\n      0x01\n        /* \"contracts/4_Product.sol\":7908:7918  newProduct */\n      dup2\n        /* \"contracts/4_Product.sol\":7908:7931  newProduct.productState */\n      0x04\n      add\n      0x00\n        /* \"contracts/4_Product.sol\":7908:7947  newProduct.productState= State.Produced */\n      0x0100\n      exp\n      dup2\n      sload\n      dup2\n      0xff\n      mul\n      not\n      and\n      swap1\n      dup4\n      0x05\n      dup2\n      gt\n      iszero\n      tag_155\n      jumpi\n      tag_156\n      tag_112\n      jump\t// in\n    tag_156:\n    tag_155:\n      mul\n      or\n      swap1\n      sstore\n      pop\n        /* \"contracts/4_Product.sol\":7990:7996  _price */\n      dup9\n        /* \"contracts/4_Product.sol\":7966:7976  newProduct */\n      dup2\n        /* \"contracts/4_Product.sol\":7966:7989  newProduct.productPrice */\n      0x05\n      add\n        /* \"contracts/4_Product.sol\":7966:7996  newProduct.productPrice=_price */\n      dup2\n      swap1\n      sstore\n      pop\n        /* \"contracts/4_Product.sol\":8041:8042  0 */\n      0x00\n        /* \"contracts/4_Product.sol\":8008:8018  newProduct */\n      dup2\n        /* \"contracts/4_Product.sol\":8008:8032  newProduct.distributorID */\n      0x06\n      add\n      0x00\n        /* \"contracts/4_Product.sol\":8008:8043  newProduct.distributorID=address(0) */\n      0x0100\n      exp\n      dup2\n      sload\n      dup2\n      0xffffffffffffffffffffffffffffffffffffffff\n      mul\n      not\n      and\n      swap1\n      dup4\n      0xffffffffffffffffffffffffffffffffffffffff\n      and\n      mul\n      or\n      swap1\n      sstore\n      pop\n        /* \"contracts/4_Product.sol\":8084:8085  0 */\n      0x00\n        /* \"contracts/4_Product.sol\":8054:8064  newProduct */\n      dup2\n        /* \"contracts/4_Product.sol\":8054:8075  newProduct.retailerID */\n      0x07\n      add\n      0x00\n        /* \"contracts/4_Product.sol\":8054:8086  newProduct.retailerID=address(0) */\n      0x0100\n      exp\n      dup2\n      sload\n      dup2\n      0xffffffffffffffffffffffffffffffffffffffff\n      mul\n      not\n      and\n      swap1\n      dup4\n      0xffffffffffffffffffffffffffffffffffffffff\n      and\n      mul\n      or\n      swap1\n      sstore\n      pop\n        /* \"contracts/4_Product.sol\":8127:8128  0 */\n      0x00\n        /* \"contracts/4_Product.sol\":8097:8107  newProduct */\n      dup2\n        /* \"contracts/4_Product.sol\":8097:8118  newProduct.consumerID */\n      0x08\n      add\n      0x00\n        /* \"contracts/4_Product.sol\":8097:8129  newProduct.consumerID=address(0) */\n      0x0100\n      exp\n      dup2\n      sload\n      dup2\n      0xffffffffffffffffffffffffffffffffffffffff\n      mul\n      not\n      and\n      swap1\n      dup4\n      0xffffffffffffffffffffffffffffffffffffffff\n      and\n      mul\n      or\n      swap1\n      sstore\n      pop\n        /* \"contracts/4_Product.sol\":8166:8171  _name */\n      dup8\n        /* \"contracts/4_Product.sol\":8140:8150  newProduct */\n      dup2\n        /* \"contracts/4_Product.sol\":8140:8158  newProduct.details */\n      0x09\n      add\n        /* \"contracts/4_Product.sol\":8140:8163  newProduct.details.name */\n      0x00\n      add\n        /* \"contracts/4_Product.sol\":8140:8171  newProduct.details.name = _name */\n      swap1\n      dup1\n      mload\n      swap1\n      0x20\n      add\n      swap1\n      tag_157\n      swap3\n      swap2\n      swap1\n      tag_127\n      jump\t// in\n    tag_157:\n      pop\n        /* \"contracts/4_Product.sol\":8208:8214  _brand */\n      dup7\n        /* \"contracts/4_Product.sol\":8182:8192  newProduct */\n      dup2\n        /* \"contracts/4_Product.sol\":8182:8200  newProduct.details */\n      0x09\n      add\n        /* \"contracts/4_Product.sol\":8182:8206  newProduct.details.brand */\n      0x01\n      add\n        /* \"contracts/4_Product.sol\":8182:8214  newProduct.details.brand= _brand */\n      swap1\n      dup1\n      mload\n      swap1\n      0x20\n      add\n      swap1\n      tag_158\n      swap3\n      swap2\n      swap1\n      tag_127\n      jump\t// in\n    tag_158:\n      pop\n        /* \"contracts/4_Product.sol\":8251:8256  _size */\n      dup6\n        /* \"contracts/4_Product.sol\":8225:8235  newProduct */\n      dup2\n        /* \"contracts/4_Product.sol\":8225:8243  newProduct.details */\n      0x09\n      add\n        /* \"contracts/4_Product.sol\":8225:8248  newProduct.details.size */\n      0x02\n      add\n        /* \"contracts/4_Product.sol\":8225:8256  newProduct.details.size = _size */\n      swap1\n      dup1\n      mload\n      swap1\n      0x20\n      add\n      swap1\n      tag_159\n      swap3\n      swap2\n      swap1\n      tag_127\n      jump\t// in\n    tag_159:\n      pop\n        /* \"contracts/4_Product.sol\":8295:8302  _weight */\n      dup5\n        /* \"contracts/4_Product.sol\":8267:8277  newProduct */\n      dup2\n        /* \"contracts/4_Product.sol\":8267:8285  newProduct.details */\n      0x09\n      add\n        /* \"contracts/4_Product.sol\":8267:8292  newProduct.details.weight */\n      0x03\n      add\n        /* \"contracts/4_Product.sol\":8267:8302  newProduct.details.weight = _weight */\n      swap1\n      dup1\n      mload\n      swap1\n      0x20\n      add\n      swap1\n      tag_160\n      swap3\n      swap2\n      swap1\n      tag_127\n      jump\t// in\n    tag_160:\n      pop\n        /* \"contracts/4_Product.sol\":8341:8348  _length */\n      dup4\n        /* \"contracts/4_Product.sol\":8313:8323  newProduct */\n      dup2\n        /* \"contracts/4_Product.sol\":8313:8331  newProduct.details */\n      0x09\n      add\n        /* \"contracts/4_Product.sol\":8313:8338  newProduct.details.length */\n      0x04\n      add\n        /* \"contracts/4_Product.sol\":8313:8348  newProduct.details.length = _length */\n      swap1\n      dup1\n      mload\n      swap1\n      0x20\n      add\n      swap1\n      tag_161\n      swap3\n      swap2\n      swap1\n      tag_127\n      jump\t// in\n    tag_161:\n      pop\n        /* \"contracts/4_Product.sol\":8388:8394  _width */\n      dup3\n        /* \"contracts/4_Product.sol\":8361:8371  newProduct */\n      dup2\n        /* \"contracts/4_Product.sol\":8361:8379  newProduct.details */\n      0x09\n      add\n        /* \"contracts/4_Product.sol\":8361:8385  newProduct.details.width */\n      0x05\n      add\n        /* \"contracts/4_Product.sol\":8361:8394  newProduct.details.width = _width */\n      swap1\n      dup1\n      mload\n      swap1\n      0x20\n      add\n      swap1\n      tag_162\n      swap3\n      swap2\n      swap1\n      tag_127\n      jump\t// in\n    tag_162:\n      pop\n        /* \"contracts/4_Product.sol\":8435:8442  _height */\n      dup2\n        /* \"contracts/4_Product.sol\":8407:8417  newProduct */\n      dup2\n        /* \"contracts/4_Product.sol\":8407:8425  newProduct.details */\n      0x09\n      add\n        /* \"contracts/4_Product.sol\":8407:8432  newProduct.details.height */\n      0x06\n      add\n        /* \"contracts/4_Product.sol\":8407:8442  newProduct.details.height = _height */\n      swap1\n      dup1\n      mload\n      swap1\n      0x20\n      add\n      swap1\n      tag_163\n      swap3\n      swap2\n      swap1\n      tag_127\n      jump\t// in\n    tag_163:\n      pop\n        /* \"contracts/4_Product.sol\":7676:8450  {\r... */\n      pop\n        /* \"contracts/4_Product.sol\":7429:8450  function produceProduct(uint256 _id, uint256 _timestamp, uint256 _price, string memory _name, string memory _brand, string memory _size, string memory _weight, string memory _length ,string memory _width ,string memory _height) public OnlyProducer{\r... */\n      pop\n      pop\n      pop\n      pop\n      pop\n      pop\n      pop\n      pop\n      pop\n      pop\n      jump\t// out\n        /* \"contracts/4_Product.sol\":10105:11201  function getProductDetails(uint256 _id) public view returns \r... */\n    tag_45:\n        /* \"contracts/4_Product.sol\":10182:10200  uint256 product_id */\n      0x00\n        /* \"contracts/4_Product.sol\":10237:10253  address owner_id */\n      dup1\n        /* \"contracts/4_Product.sol\":10330:10355  State currentProductState */\n      0x00\n        /* \"contracts/4_Product.sol\":10366:10386  uint256 productPrice */\n      dup1\n        /* \"contracts/4_Product.sol\":10400:10426  string memory product_name */\n      0x60\n        /* \"contracts/4_Product.sol\":10437:10464  string memory product_brand */\n      dup1\n        /* \"contracts/4_Product.sol\":10475:10501  string memory product_size */\n      0x60\n        /* \"contracts/4_Product.sol\":10512:10540  string memory product_weight */\n      dup1\n        /* \"contracts/4_Product.sol\":10551:10579  string memory product_length */\n      0x60\n        /* \"contracts/4_Product.sol\":10592:10619  string memory product_width */\n      dup1\n        /* \"contracts/4_Product.sol\":10632:10660  string memory product_height */\n      0x60\n        /* \"contracts/4_Product.sol\":10699:10706  product */\n      0x06\n        /* \"contracts/4_Product.sol\":10699:10711  product[_id] */\n      0x00\n        /* \"contracts/4_Product.sol\":10707:10710  _id */\n      dup14\n        /* \"contracts/4_Product.sol\":10699:10711  product[_id] */\n      dup2\n      mstore\n      0x20\n      add\n      swap1\n      dup2\n      mstore\n      0x20\n      add\n      0x00\n      keccak256\n        /* \"contracts/4_Product.sol\":10699:10714  product[_id].ID */\n      0x00\n      add\n      sload\n        /* \"contracts/4_Product.sol\":10686:10714  product_id = product[_id].ID */\n      swap11\n      pop\n        /* \"contracts/4_Product.sol\":10733:10740  product */\n      0x06\n        /* \"contracts/4_Product.sol\":10733:10745  product[_id] */\n      0x00\n        /* \"contracts/4_Product.sol\":10741:10744  _id */\n      dup14\n        /* \"contracts/4_Product.sol\":10733:10745  product[_id] */\n      dup2\n      mstore\n      0x20\n      add\n      swap1\n      dup2\n      mstore\n      0x20\n      add\n      0x00\n      keccak256\n        /* \"contracts/4_Product.sol\":10733:10753  product[_id].ownerID */\n      0x01\n      add\n      0x00\n      swap1\n      sload\n      swap1\n      0x0100\n      exp\n      swap1\n      div\n      0xffffffffffffffffffffffffffffffffffffffff\n      and\n        /* \"contracts/4_Product.sol\":10722:10753  owner_id = product[_id].ownerID */\n      swap10\n      pop\n        /* \"contracts/4_Product.sol\":10784:10791  product */\n      0x06\n        /* \"contracts/4_Product.sol\":10784:10796  product[_id] */\n      0x00\n        /* \"contracts/4_Product.sol\":10792:10795  _id */\n      dup14\n        /* \"contracts/4_Product.sol\":10784:10796  product[_id] */\n      dup2\n      mstore\n      0x20\n      add\n      swap1\n      dup2\n      mstore\n      0x20\n      add\n      0x00\n      keccak256\n        /* \"contracts/4_Product.sol\":10784:10809  product[_id].productState */\n      0x04\n      add\n      0x00\n      swap1\n      sload\n      swap1\n      0x0100\n      exp\n      swap1\n      div\n      0xff\n      and\n        /* \"contracts/4_Product.sol\":10762:10809  currentProductState = product[_id].productState */\n      swap9\n      pop\n        /* \"contracts/4_Product.sol\":10831:10838  product */\n      0x06\n        /* \"contracts/4_Product.sol\":10831:10843  product[_id] */\n      0x00\n        /* \"contracts/4_Product.sol\":10839:10842  _id */\n      dup14\n        /* \"contracts/4_Product.sol\":10831:10843  product[_id] */\n      dup2\n      mstore\n      0x20\n      add\n      swap1\n      dup2\n      mstore\n      0x20\n      add\n      0x00\n      keccak256\n        /* \"contracts/4_Product.sol\":10831:10856  product[_id].productPrice */\n      0x05\n      add\n      sload\n        /* \"contracts/4_Product.sol\":10816:10856  productPrice = product[_id].productPrice */\n      swap8\n      pop\n        /* \"contracts/4_Product.sol\":10878:10885  product */\n      0x06\n        /* \"contracts/4_Product.sol\":10878:10890  product[_id] */\n      0x00\n        /* \"contracts/4_Product.sol\":10886:10889  _id */\n      dup14\n        /* \"contracts/4_Product.sol\":10878:10890  product[_id] */\n      dup2\n      mstore\n      0x20\n      add\n      swap1\n      dup2\n      mstore\n      0x20\n      add\n      0x00\n      keccak256\n        /* \"contracts/4_Product.sol\":10878:10898  product[_id].details */\n      0x09\n      add\n        /* \"contracts/4_Product.sol\":10878:10903  product[_id].details.name */\n      0x00\n      add\n        /* \"contracts/4_Product.sol\":10863:10903  product_name = product[_id].details.name */\n      dup1\n      sload\n      tag_165\n      swap1\n      tag_104\n      jump\t// in\n    tag_165:\n      dup1\n      0x1f\n      add\n      0x20\n      dup1\n      swap2\n      div\n      mul\n      0x20\n      add\n      mload(0x40)\n      swap1\n      dup2\n      add\n      0x40\n      mstore\n      dup1\n      swap3\n      swap2\n      swap1\n      dup2\n      dup2\n      mstore\n      0x20\n      add\n      dup3\n      dup1\n      sload\n      tag_166\n      swap1\n      tag_104\n      jump\t// in\n    tag_166:\n      dup1\n      iszero\n      tag_167\n      jumpi\n      dup1\n      0x1f\n      lt\n      tag_168\n      jumpi\n      0x0100\n      dup1\n      dup4\n      sload\n      div\n      mul\n      dup4\n      mstore\n      swap2\n      0x20\n      add\n      swap2\n      jump(tag_167)\n    tag_168:\n      dup3\n      add\n      swap2\n      swap1\n      0x00\n      mstore\n      keccak256(0x00, 0x20)\n      swap1\n    tag_169:\n      dup2\n      sload\n      dup2\n      mstore\n      swap1\n      0x01\n      add\n      swap1\n      0x20\n      add\n      dup1\n      dup4\n      gt\n      tag_169\n      jumpi\n      dup3\n      swap1\n      sub\n      0x1f\n      and\n      dup3\n      add\n      swap2\n    tag_167:\n      pop\n      pop\n      pop\n      pop\n      pop\n      swap7\n      pop\n        /* \"contracts/4_Product.sol\":10925:10932  product */\n      0x06\n        /* \"contracts/4_Product.sol\":10925:10937  product[_id] */\n      0x00\n        /* \"contracts/4_Product.sol\":10933:10936  _id */\n      dup14\n        /* \"contracts/4_Product.sol\":10925:10937  product[_id] */\n      dup2\n      mstore\n      0x20\n      add\n      swap1\n      dup2\n      mstore\n      0x20\n      add\n      0x00\n      keccak256\n        /* \"contracts/4_Product.sol\":10925:10945  product[_id].details */\n      0x09\n      add\n        /* \"contracts/4_Product.sol\":10925:10951  product[_id].details.brand */\n      0x01\n      add\n        /* \"contracts/4_Product.sol\":10910:10951  product_brand= product[_id].details.brand */\n      dup1\n      sload\n      tag_170\n      swap1\n      tag_104\n      jump\t// in\n    tag_170:\n      dup1\n      0x1f\n      add\n      0x20\n      dup1\n      swap2\n      div\n      mul\n      0x20\n      add\n      mload(0x40)\n      swap1\n      dup2\n      add\n      0x40\n      mstore\n      dup1\n      swap3\n      swap2\n      swap1\n      dup2\n      dup2\n      mstore\n      0x20\n      add\n      dup3\n      dup1\n      sload\n      tag_171\n      swap1\n      tag_104\n      jump\t// in\n    tag_171:\n      dup1\n      iszero\n      tag_172\n      jumpi\n      dup1\n      0x1f\n      lt\n      tag_173\n      jumpi\n      0x0100\n      dup1\n      dup4\n      sload\n      div\n      mul\n      dup4\n      mstore\n      swap2\n      0x20\n      add\n      swap2\n      jump(tag_172)\n    tag_173:\n      dup3\n      add\n      swap2\n      swap1\n      0x00\n      mstore\n      keccak256(0x00, 0x20)\n      swap1\n    tag_174:\n      dup2\n      sload\n      dup2\n      mstore\n      swap1\n      0x01\n      add\n      swap1\n      0x20\n      add\n      dup1\n      dup4\n      gt\n      tag_174\n      jumpi\n      dup3\n      swap1\n      sub\n      0x1f\n      and\n      dup3\n      add\n      swap2\n    tag_172:\n      pop\n      pop\n      pop\n      pop\n      pop\n      swap6\n      pop\n        /* \"contracts/4_Product.sol\":10972:10979  product */\n      0x06\n        /* \"contracts/4_Product.sol\":10972:10984  product[_id] */\n      0x00\n        /* \"contracts/4_Product.sol\":10980:10983  _id */\n      dup14\n        /* \"contracts/4_Product.sol\":10972:10984  product[_id] */\n      dup2\n      mstore\n      0x20\n      add\n      swap1\n      dup2\n      mstore\n      0x20\n      add\n      0x00\n      keccak256\n        /* \"contracts/4_Product.sol\":10972:10992  product[_id].details */\n      0x09\n      add\n        /* \"contracts/4_Product.sol\":10972:10997  product[_id].details.size */\n      0x02\n      add\n        /* \"contracts/4_Product.sol\":10958:10997  product_size= product[_id].details.size */\n      dup1\n      sload\n      tag_175\n      swap1\n      tag_104\n      jump\t// in\n    tag_175:\n      dup1\n      0x1f\n      add\n      0x20\n      dup1\n      swap2\n      div\n      mul\n      0x20\n      add\n      mload(0x40)\n      swap1\n      dup2\n      add\n      0x40\n      mstore\n      dup1\n      swap3\n      swap2\n      swap1\n      dup2\n      dup2\n      mstore\n      0x20\n      add\n      dup3\n      dup1\n      sload\n      tag_176\n      swap1\n      tag_104\n      jump\t// in\n    tag_176:\n      dup1\n      iszero\n      tag_177\n      jumpi\n      dup1\n      0x1f\n      lt\n      tag_178\n      jumpi\n      0x0100\n      dup1\n      dup4\n      sload\n      div\n      mul\n      dup4\n      mstore\n      swap2\n      0x20\n      add\n      swap2\n      jump(tag_177)\n    tag_178:\n      dup3\n      add\n      swap2\n      swap1\n      0x00\n      mstore\n      keccak256(0x00, 0x20)\n      swap1\n    tag_179:\n      dup2\n      sload\n      dup2\n      mstore\n      swap1\n      0x01\n      add\n      swap1\n      0x20\n      add\n      dup1\n      dup4\n      gt\n      tag_179\n      jumpi\n      dup3\n      swap1\n      sub\n      0x1f\n      and\n      dup3\n      add\n      swap2\n    tag_177:\n      pop\n      pop\n      pop\n      pop\n      pop\n      swap5\n      pop\n        /* \"contracts/4_Product.sol\":11020:11027  product */\n      0x06\n        /* \"contracts/4_Product.sol\":11020:11032  product[_id] */\n      0x00\n        /* \"contracts/4_Product.sol\":11028:11031  _id */\n      dup14\n        /* \"contracts/4_Product.sol\":11020:11032  product[_id] */\n      dup2\n      mstore\n      0x20\n      add\n      swap1\n      dup2\n      mstore\n      0x20\n      add\n      0x00\n      keccak256\n        /* \"contracts/4_Product.sol\":11020:11040  product[_id].details */\n      0x09\n      add\n        /* \"contracts/4_Product.sol\":11020:11047  product[_id].details.weight */\n      0x03\n      add\n        /* \"contracts/4_Product.sol\":11004:11047  product_weight= product[_id].details.weight */\n      dup1\n      sload\n      tag_180\n      swap1\n      tag_104\n      jump\t// in\n    tag_180:\n      dup1\n      0x1f\n      add\n      0x20\n      dup1\n      swap2\n      div\n      mul\n      0x20\n      add\n      mload(0x40)\n      swap1\n      dup2\n      add\n      0x40\n      mstore\n      dup1\n      swap3\n      swap2\n      swap1\n      dup2\n      dup2\n      mstore\n      0x20\n      add\n      dup3\n      dup1\n      sload\n      tag_181\n      swap1\n      tag_104\n      jump\t// in\n    tag_181:\n      dup1\n      iszero\n      tag_182\n      jumpi\n      dup1\n      0x1f\n      lt\n      tag_183\n      jumpi\n      0x0100\n      dup1\n      dup4\n      sload\n      div\n      mul\n      dup4\n      mstore\n      swap2\n      0x20\n      add\n      swap2\n      jump(tag_182)\n    tag_183:\n      dup3\n      add\n      swap2\n      swap1\n      0x00\n      mstore\n      keccak256(0x00, 0x20)\n      swap1\n    tag_184:\n      dup2\n      sload\n      dup2\n      mstore\n      swap1\n      0x01\n      add\n      swap1\n      0x20\n      add\n      dup1\n      dup4\n      gt\n      tag_184\n      jumpi\n      dup3\n      swap1\n      sub\n      0x1f\n      and\n      dup3\n      add\n      swap2\n    tag_182:\n      pop\n      pop\n      pop\n      pop\n      pop\n      swap4\n      pop\n        /* \"contracts/4_Product.sol\":11070:11077  product */\n      0x06\n        /* \"contracts/4_Product.sol\":11070:11082  product[_id] */\n      0x00\n        /* \"contracts/4_Product.sol\":11078:11081  _id */\n      dup14\n        /* \"contracts/4_Product.sol\":11070:11082  product[_id] */\n      dup2\n      mstore\n      0x20\n      add\n      swap1\n      dup2\n      mstore\n      0x20\n      add\n      0x00\n      keccak256\n        /* \"contracts/4_Product.sol\":11070:11090  product[_id].details */\n      0x09\n      add\n        /* \"contracts/4_Product.sol\":11070:11097  product[_id].details.length */\n      0x04\n      add\n        /* \"contracts/4_Product.sol\":11054:11097  product_length= product[_id].details.length */\n      dup1\n      sload\n      tag_185\n      swap1\n      tag_104\n      jump\t// in\n    tag_185:\n      dup1\n      0x1f\n      add\n      0x20\n      dup1\n      swap2\n      div\n      mul\n      0x20\n      add\n      mload(0x40)\n      swap1\n      dup2\n      add\n      0x40\n      mstore\n      dup1\n      swap3\n      swap2\n      swap1\n      dup2\n      dup2\n      mstore\n      0x20\n      add\n      dup3\n      dup1\n      sload\n      tag_186\n      swap1\n      tag_104\n      jump\t// in\n    tag_186:\n      dup1\n      iszero\n      tag_187\n      jumpi\n      dup1\n      0x1f\n      lt\n      tag_188\n      jumpi\n      0x0100\n      dup1\n      dup4\n      sload\n      div\n      mul\n      dup4\n      mstore\n      swap2\n      0x20\n      add\n      swap2\n      jump(tag_187)\n    tag_188:\n      dup3\n      add\n      swap2\n      swap1\n      0x00\n      mstore\n      keccak256(0x00, 0x20)\n      swap1\n    tag_189:\n      dup2\n      sload\n      dup2\n      mstore\n      swap1\n      0x01\n      add\n      swap1\n      0x20\n      add\n      dup1\n      dup4\n      gt\n      tag_189\n      jumpi\n      dup3\n      swap1\n      sub\n      0x1f\n      and\n      dup3\n      add\n      swap2\n    tag_187:\n      pop\n      pop\n      pop\n      pop\n      pop\n      swap3\n      pop\n        /* \"contracts/4_Product.sol\":11119:11126  product */\n      0x06\n        /* \"contracts/4_Product.sol\":11119:11131  product[_id] */\n      0x00\n        /* \"contracts/4_Product.sol\":11127:11130  _id */\n      dup14\n        /* \"contracts/4_Product.sol\":11119:11131  product[_id] */\n      dup2\n      mstore\n      0x20\n      add\n      swap1\n      dup2\n      mstore\n      0x20\n      add\n      0x00\n      keccak256\n        /* \"contracts/4_Product.sol\":11119:11139  product[_id].details */\n      0x09\n      add\n        /* \"contracts/4_Product.sol\":11119:11145  product[_id].details.width */\n      0x05\n      add\n        /* \"contracts/4_Product.sol\":11104:11145  product_width= product[_id].details.width */\n      dup1\n      sload\n      tag_190\n      swap1\n      tag_104\n      jump\t// in\n    tag_190:\n      dup1\n      0x1f\n      add\n      0x20\n      dup1\n      swap2\n      div\n      mul\n      0x20\n      add\n      mload(0x40)\n      swap1\n      dup2\n      add\n      0x40\n      mstore\n      dup1\n      swap3\n      swap2\n      swap1\n      dup2\n      dup2\n      mstore\n      0x20\n      add\n      dup3\n      dup1\n      sload\n      tag_191\n      swap1\n      tag_104\n      jump\t// in\n    tag_191:\n      dup1\n      iszero\n      tag_192\n      jumpi\n      dup1\n      0x1f\n      lt\n      tag_193\n      jumpi\n      0x0100\n      dup1\n      dup4\n      sload\n      div\n      mul\n      dup4\n      mstore\n      swap2\n      0x20\n      add\n      swap2\n      jump(tag_192)\n    tag_193:\n      dup3\n      add\n      swap2\n      swap1\n      0x00\n      mstore\n      keccak256(0x00, 0x20)\n      swap1\n    tag_194:\n      dup2\n      sload\n      dup2\n      mstore\n      swap1\n      0x01\n      add\n      swap1\n      0x20\n      add\n      dup1\n      dup4\n      gt\n      tag_194\n      jumpi\n      dup3\n      swap1\n      sub\n      0x1f\n      and\n      dup3\n      add\n      swap2\n    tag_192:\n      pop\n      pop\n      pop\n      pop\n      pop\n      swap2\n      pop\n        /* \"contracts/4_Product.sol\":11168:11175  product */\n      0x06\n        /* \"contracts/4_Product.sol\":11168:11180  product[_id] */\n      0x00\n        /* \"contracts/4_Product.sol\":11176:11179  _id */\n      dup14\n        /* \"contracts/4_Product.sol\":11168:11180  product[_id] */\n      dup2\n      mstore\n      0x20\n      add\n      swap1\n      dup2\n      mstore\n      0x20\n      add\n      0x00\n      keccak256\n        /* \"contracts/4_Product.sol\":11168:11188  product[_id].details */\n      0x09\n      add\n        /* \"contracts/4_Product.sol\":11168:11195  product[_id].details.height */\n      0x06\n      add\n        /* \"contracts/4_Product.sol\":11152:11195  product_height= product[_id].details.height */\n      dup1\n      sload\n      tag_195\n      swap1\n      tag_104\n      jump\t// in\n    tag_195:\n      dup1\n      0x1f\n      add\n      0x20\n      dup1\n      swap2\n      div\n      mul\n      0x20\n      add\n      mload(0x40)\n      swap1\n      dup2\n      add\n      0x40\n      mstore\n      dup1\n      swap3\n      swap2\n      swap1\n      dup2\n      dup2\n      mstore\n      0x20\n      add\n      dup3\n      dup1\n      sload\n      tag_196\n      swap1\n      tag_104\n      jump\t// in\n    tag_196:\n      dup1\n      iszero\n      tag_197\n      jumpi\n      dup1\n      0x1f\n      lt\n      tag_198\n      jumpi\n      0x0100\n      dup1\n      dup4\n      sload\n      div\n      mul\n      dup4\n      mstore\n      swap2\n      0x20\n      add\n      swap2\n      jump(tag_197)\n    tag_198:\n      dup3\n      add\n      swap2\n      swap1\n      0x00\n      mstore\n      keccak256(0x00, 0x20)\n      swap1\n    tag_199:\n      dup2\n      sload\n      dup2\n      mstore\n      swap1\n      0x01\n      add\n      swap1\n      0x20\n      add\n      dup1\n      dup4\n      gt\n      tag_199\n      jumpi\n      dup3\n      swap1\n      sub\n      0x1f\n      and\n      dup3\n      add\n      swap2\n    tag_197:\n      pop\n      pop\n      pop\n      pop\n      pop\n      swap1\n      pop\n        /* \"contracts/4_Product.sol\":10105:11201  function getProductDetails(uint256 _id) public view returns \r... */\n      swap2\n      swap4\n      swap6\n      swap8\n      swap10\n      swap12\n      swap1\n      swap3\n      swap5\n      swap7\n      swap9\n      swap11\n      pop\n      jump\t// out\n        /* \"contracts/4_Product.sol\":6683:7039  function tokenTransfer(address _to, uint256 _amount) public returns (bool) {\r... */\n    tag_52:\n        /* \"contracts/4_Product.sol\":6752:6756  bool */\n      0x00\n        /* \"contracts/4_Product.sol\":6801:6808  _amount */\n      dup2\n        /* \"contracts/4_Product.sol\":6777:6785  balances */\n      0x04\n        /* \"contracts/4_Product.sol\":6777:6797  balances[msg.sender] */\n      0x00\n        /* \"contracts/4_Product.sol\":6786:6796  msg.sender */\n      caller\n        /* \"contracts/4_Product.sol\":6777:6797  balances[msg.sender] */\n      0xffffffffffffffffffffffffffffffffffffffff\n      and\n      0xffffffffffffffffffffffffffffffffffffffff\n      and\n      dup2\n      mstore\n      0x20\n      add\n      swap1\n      dup2\n      mstore\n      0x20\n      add\n      0x00\n      keccak256\n      sload\n        /* \"contracts/4_Product.sol\":6777:6808  balances[msg.sender] >= _amount */\n      lt\n      iszero\n        /* \"contracts/4_Product.sol\":6769:6809  require(balances[msg.sender] >= _amount) */\n      tag_201\n      jumpi\n      0x00\n      dup1\n      revert\n    tag_201:\n        /* \"contracts/4_Product.sol\":6919:6920  0 */\n      0x00\n        /* \"contracts/4_Product.sol\":6904:6921  _to != address(0) */\n      0xffffffffffffffffffffffffffffffffffffffff\n      and\n        /* \"contracts/4_Product.sol\":6904:6907  _to */\n      dup4\n        /* \"contracts/4_Product.sol\":6904:6921  _to != address(0) */\n      0xffffffffffffffffffffffffffffffffffffffff\n      and\n      eq\n      iszero\n        /* \"contracts/4_Product.sol\":6896:6922  require(_to != address(0)) */\n      tag_202\n      jumpi\n      0x00\n      dup1\n      revert\n    tag_202:\n        /* \"contracts/4_Product.sol\":6967:6974  _amount */\n      dup2\n        /* \"contracts/4_Product.sol\":6943:6951  balances */\n      0x04\n        /* \"contracts/4_Product.sol\":6943:6963  balances[msg.sender] */\n      0x00\n        /* \"contracts/4_Product.sol\":6952:6962  msg.sender */\n      caller\n        /* \"contracts/4_Product.sol\":6943:6963  balances[msg.sender] */\n      0xffffffffffffffffffffffffffffffffffffffff\n      and\n      0xffffffffffffffffffffffffffffffffffffffff\n      and\n      dup2\n      mstore\n      0x20\n      add\n      swap1\n      dup2\n      mstore\n      0x20\n      add\n      0x00\n      keccak256\n      0x00\n        /* \"contracts/4_Product.sol\":6943:6974  balances[msg.sender] -= _amount */\n      dup3\n      dup3\n      sload\n      tag_203\n      swap2\n      swap1\n      tag_204\n      jump\t// in\n    tag_203:\n      swap3\n      pop\n      pop\n      dup2\n      swap1\n      sstore\n      pop\n        /* \"contracts/4_Product.sol\":7002:7009  _amount */\n      dup2\n        /* \"contracts/4_Product.sol\":6985:6993  balances */\n      0x04\n        /* \"contracts/4_Product.sol\":6985:6998  balances[_to] */\n      0x00\n        /* \"contracts/4_Product.sol\":6994:6997  _to */\n      dup6\n        /* \"contracts/4_Product.sol\":6985:6998  balances[_to] */\n      0xffffffffffffffffffffffffffffffffffffffff\n      and\n      0xffffffffffffffffffffffffffffffffffffffff\n      and\n      dup2\n      mstore\n      0x20\n      add\n      swap1\n      dup2\n      mstore\n      0x20\n      add\n      0x00\n      keccak256\n      0x00\n        /* \"contracts/4_Product.sol\":6985:7009  balances[_to] += _amount */\n      dup3\n      dup3\n      sload\n      tag_205\n      swap2\n      swap1\n      tag_206\n      jump\t// in\n    tag_205:\n      swap3\n      pop\n      pop\n      dup2\n      swap1\n      sstore\n      pop\n        /* \"contracts/4_Product.sol\":7027:7031  true */\n      0x01\n        /* \"contracts/4_Product.sol\":7020:7031  return true */\n      swap1\n      pop\n        /* \"contracts/4_Product.sol\":6683:7039  function tokenTransfer(address _to, uint256 _amount) public returns (bool) {\r... */\n      swap3\n      swap2\n      pop\n      pop\n      jump\t// out\n        /* \"contracts/4_Product.sol\":9217:10099  function getProductInfo(uint256 _id) public view returns \r... */\n    tag_58:\n        /* \"contracts/4_Product.sol\":9291:9309  uint256 product_id */\n      0x00\n        /* \"contracts/4_Product.sol\":9346:9365  address producer_id */\n      dup1\n        /* \"contracts/4_Product.sol\":9406:9422  address owner_id */\n      0x00\n        /* \"contracts/4_Product.sol\":9499:9524  State currentProductState */\n      dup1\n        /* \"contracts/4_Product.sol\":9535:9555  uint256 productPrice */\n      0x00\n        /* \"contracts/4_Product.sol\":9567:9589  address distributor_id */\n      dup1\n        /* \"contracts/4_Product.sol\":9600:9619  address retailer_id */\n      0x00\n        /* \"contracts/4_Product.sol\":9630:9649  address consumer_id */\n      dup1\n        /* \"contracts/4_Product.sol\":9660:9682  Details memory details */\n      tag_207\n      tag_208\n      jump\t// in\n    tag_207:\n        /* \"contracts/4_Product.sol\":9721:9728  product */\n      0x06\n        /* \"contracts/4_Product.sol\":9721:9733  product[_id] */\n      0x00\n        /* \"contracts/4_Product.sol\":9729:9732  _id */\n      dup12\n        /* \"contracts/4_Product.sol\":9721:9733  product[_id] */\n      dup2\n      mstore\n      0x20\n      add\n      swap1\n      dup2\n      mstore\n      0x20\n      add\n      0x00\n      keccak256\n        /* \"contracts/4_Product.sol\":9721:9736  product[_id].ID */\n      0x00\n      add\n      sload\n        /* \"contracts/4_Product.sol\":9708:9736  product_id = product[_id].ID */\n      swap9\n      pop\n        /* \"contracts/4_Product.sol\":9758:9765  product */\n      0x06\n        /* \"contracts/4_Product.sol\":9758:9770  product[_id] */\n      0x00\n        /* \"contracts/4_Product.sol\":9766:9769  _id */\n      dup12\n        /* \"contracts/4_Product.sol\":9758:9770  product[_id] */\n      dup2\n      mstore\n      0x20\n      add\n      swap1\n      dup2\n      mstore\n      0x20\n      add\n      0x00\n      keccak256\n        /* \"contracts/4_Product.sol\":9758:9781  product[_id].producerID */\n      0x02\n      add\n      0x00\n      swap1\n      sload\n      swap1\n      0x0100\n      exp\n      swap1\n      div\n      0xffffffffffffffffffffffffffffffffffffffff\n      and\n        /* \"contracts/4_Product.sol\":9744:9781  producer_id = product[_id].producerID */\n      swap8\n      pop\n        /* \"contracts/4_Product.sol\":9799:9806  product */\n      0x06\n        /* \"contracts/4_Product.sol\":9799:9811  product[_id] */\n      0x00\n        /* \"contracts/4_Product.sol\":9807:9810  _id */\n      dup12\n        /* \"contracts/4_Product.sol\":9799:9811  product[_id] */\n      dup2\n      mstore\n      0x20\n      add\n      swap1\n      dup2\n      mstore\n      0x20\n      add\n      0x00\n      keccak256\n        /* \"contracts/4_Product.sol\":9799:9819  product[_id].ownerID */\n      0x01\n      add\n      0x00\n      swap1\n      sload\n      swap1\n      0x0100\n      exp\n      swap1\n      div\n      0xffffffffffffffffffffffffffffffffffffffff\n      and\n        /* \"contracts/4_Product.sol\":9788:9819  owner_id = product[_id].ownerID */\n      swap7\n      pop\n        /* \"contracts/4_Product.sol\":9842:9849  product */\n      0x06\n        /* \"contracts/4_Product.sol\":9842:9854  product[_id] */\n      0x00\n        /* \"contracts/4_Product.sol\":9850:9853  _id */\n      dup12\n        /* \"contracts/4_Product.sol\":9842:9854  product[_id] */\n      dup2\n      mstore\n      0x20\n      add\n      swap1\n      dup2\n      mstore\n      0x20\n      add\n      0x00\n      keccak256\n        /* \"contracts/4_Product.sol\":9842:9868  product[_id].distributorID */\n      0x06\n      add\n      0x00\n      swap1\n      sload\n      swap1\n      0x0100\n      exp\n      swap1\n      div\n      0xffffffffffffffffffffffffffffffffffffffff\n      and\n        /* \"contracts/4_Product.sol\":9826:9868  distributor_id= product[_id].distributorID */\n      swap4\n      pop\n        /* \"contracts/4_Product.sol\":9888:9895  product */\n      0x06\n        /* \"contracts/4_Product.sol\":9888:9900  product[_id] */\n      0x00\n        /* \"contracts/4_Product.sol\":9896:9899  _id */\n      dup12\n        /* \"contracts/4_Product.sol\":9888:9900  product[_id] */\n      dup2\n      mstore\n      0x20\n      add\n      swap1\n      dup2\n      mstore\n      0x20\n      add\n      0x00\n      keccak256\n        /* \"contracts/4_Product.sol\":9888:9911  product[_id].retailerID */\n      0x07\n      add\n      0x00\n      swap1\n      sload\n      swap1\n      0x0100\n      exp\n      swap1\n      div\n      0xffffffffffffffffffffffffffffffffffffffff\n      and\n        /* \"contracts/4_Product.sol\":9875:9911  retailer_id= product[_id].retailerID */\n      swap3\n      pop\n        /* \"contracts/4_Product.sol\":9931:9938  product */\n      0x06\n        /* \"contracts/4_Product.sol\":9931:9943  product[_id] */\n      0x00\n        /* \"contracts/4_Product.sol\":9939:9942  _id */\n      dup12\n        /* \"contracts/4_Product.sol\":9931:9943  product[_id] */\n      dup2\n      mstore\n      0x20\n      add\n      swap1\n      dup2\n      mstore\n      0x20\n      add\n      0x00\n      keccak256\n        /* \"contracts/4_Product.sol\":9931:9954  product[_id].consumerID */\n      0x08\n      add\n      0x00\n      swap1\n      sload\n      swap1\n      0x0100\n      exp\n      swap1\n      div\n      0xffffffffffffffffffffffffffffffffffffffff\n      and\n        /* \"contracts/4_Product.sol\":9918:9954  consumer_id= product[_id].consumerID */\n      swap2\n      pop\n        /* \"contracts/4_Product.sol\":9985:9992  product */\n      0x06\n        /* \"contracts/4_Product.sol\":9985:9997  product[_id] */\n      0x00\n        /* \"contracts/4_Product.sol\":9993:9996  _id */\n      dup12\n        /* \"contracts/4_Product.sol\":9985:9997  product[_id] */\n      dup2\n      mstore\n      0x20\n      add\n      swap1\n      dup2\n      mstore\n      0x20\n      add\n      0x00\n      keccak256\n        /* \"contracts/4_Product.sol\":9985:10010  product[_id].productState */\n      0x04\n      add\n      0x00\n      swap1\n      sload\n      swap1\n      0x0100\n      exp\n      swap1\n      div\n      0xff\n      and\n        /* \"contracts/4_Product.sol\":9963:10010  currentProductState = product[_id].productState */\n      swap6\n      pop\n        /* \"contracts/4_Product.sol\":10032:10039  product */\n      0x06\n        /* \"contracts/4_Product.sol\":10032:10044  product[_id] */\n      0x00\n        /* \"contracts/4_Product.sol\":10040:10043  _id */\n      dup12\n        /* \"contracts/4_Product.sol\":10032:10044  product[_id] */\n      dup2\n      mstore\n      0x20\n      add\n      swap1\n      dup2\n      mstore\n      0x20\n      add\n      0x00\n      keccak256\n        /* \"contracts/4_Product.sol\":10032:10057  product[_id].productPrice */\n      0x05\n      add\n      sload\n        /* \"contracts/4_Product.sol\":10017:10057  productPrice = product[_id].productPrice */\n      swap5\n      pop\n        /* \"contracts/4_Product.sol\":10075:10082  product */\n      0x06\n        /* \"contracts/4_Product.sol\":10075:10087  product[_id] */\n      0x00\n        /* \"contracts/4_Product.sol\":10083:10086  _id */\n      dup12\n        /* \"contracts/4_Product.sol\":10075:10087  product[_id] */\n      dup2\n      mstore\n      0x20\n      add\n      swap1\n      dup2\n      mstore\n      0x20\n      add\n      0x00\n      keccak256\n        /* \"contracts/4_Product.sol\":10075:10095  product[_id].details */\n      0x09\n      add\n        /* \"contracts/4_Product.sol\":10066:10095  details= product[_id].details */\n      mload(0x40)\n      dup1\n      0xe0\n      add\n      0x40\n      mstore\n      swap1\n      dup2\n      0x00\n      dup3\n      add\n      dup1\n      sload\n      tag_210\n      swap1\n      tag_104\n      jump\t// in\n    tag_210:\n      dup1\n      0x1f\n      add\n      0x20\n      dup1\n      swap2\n      div\n      mul\n      0x20\n      add\n      mload(0x40)\n      swap1\n      dup2\n      add\n      0x40\n      mstore\n      dup1\n      swap3\n      swap2\n      swap1\n      dup2\n      dup2\n      mstore\n      0x20\n      add\n      dup3\n      dup1\n      sload\n      tag_211\n      swap1\n      tag_104\n      jump\t// in\n    tag_211:\n      dup1\n      iszero\n      tag_212\n      jumpi\n      dup1\n      0x1f\n      lt\n      tag_213\n      jumpi\n      0x0100\n      dup1\n      dup4\n      sload\n      div\n      mul\n      dup4\n      mstore\n      swap2\n      0x20\n      add\n      swap2\n      jump(tag_212)\n    tag_213:\n      dup3\n      add\n      swap2\n      swap1\n      0x00\n      mstore\n      keccak256(0x00, 0x20)\n      swap1\n    tag_214:\n      dup2\n      sload\n      dup2\n      mstore\n      swap1\n      0x01\n      add\n      swap1\n      0x20\n      add\n      dup1\n      dup4\n      gt\n      tag_214\n      jumpi\n      dup3\n      swap1\n      sub\n      0x1f\n      and\n      dup3\n      add\n      swap2\n    tag_212:\n      pop\n      pop\n      pop\n      pop\n      pop\n      dup2\n      mstore\n      0x20\n      add\n      0x01\n      dup3\n      add\n      dup1\n      sload\n      tag_215\n      swap1\n      tag_104\n      jump\t// in\n    tag_215:\n      dup1\n      0x1f\n      add\n      0x20\n      dup1\n      swap2\n      div\n      mul\n      0x20\n      add\n      mload(0x40)\n      swap1\n      dup2\n      add\n      0x40\n      mstore\n      dup1\n      swap3\n      swap2\n      swap1\n      dup2\n      dup2\n      mstore\n      0x20\n      add\n      dup3\n      dup1\n      sload\n      tag_216\n      swap1\n      tag_104\n      jump\t// in\n    tag_216:\n      dup1\n      iszero\n      tag_217\n      jumpi\n      dup1\n      0x1f\n      lt\n      tag_218\n      jumpi\n      0x0100\n      dup1\n      dup4\n      sload\n      div\n      mul\n      dup4\n      mstore\n      swap2\n      0x20\n      add\n      swap2\n      jump(tag_217)\n    tag_218:\n      dup3\n      add\n      swap2\n      swap1\n      0x00\n      mstore\n      keccak256(0x00, 0x20)\n      swap1\n    tag_219:\n      dup2\n      sload\n      dup2\n      mstore\n      swap1\n      0x01\n      add\n      swap1\n      0x20\n      add\n      dup1\n      dup4\n      gt\n      tag_219\n      jumpi\n      dup3\n      swap1\n      sub\n      0x1f\n      and\n      dup3\n      add\n      swap2\n    tag_217:\n      pop\n      pop\n      pop\n      pop\n      pop\n      dup2\n      mstore\n      0x20\n      add\n      0x02\n      dup3\n      add\n      dup1\n      sload\n      tag_220\n      swap1\n      tag_104\n      jump\t// in\n    tag_220:\n      dup1\n      0x1f\n      add\n      0x20\n      dup1\n      swap2\n      div\n      mul\n      0x20\n      add\n      mload(0x40)\n      swap1\n      dup2\n      add\n      0x40\n      mstore\n      dup1\n      swap3\n      swap2\n      swap1\n      dup2\n      dup2\n      mstore\n      0x20\n      add\n      dup3\n      dup1\n      sload\n      tag_221\n      swap1\n      tag_104\n      jump\t// in\n    tag_221:\n      dup1\n      iszero\n      tag_222\n      jumpi\n      dup1\n      0x1f\n      lt\n      tag_223\n      jumpi\n      0x0100\n      dup1\n      dup4\n      sload\n      div\n      mul\n      dup4\n      mstore\n      swap2\n      0x20\n      add\n      swap2\n      jump(tag_222)\n    tag_223:\n      dup3\n      add\n      swap2\n      swap1\n      0x00\n      mstore\n      keccak256(0x00, 0x20)\n      swap1\n    tag_224:\n      dup2\n      sload\n      dup2\n      mstore\n      swap1\n      0x01\n      add\n      swap1\n      0x20\n      add\n      dup1\n      dup4\n      gt\n      tag_224\n      jumpi\n      dup3\n      swap1\n      sub\n      0x1f\n      and\n      dup3\n      add\n      swap2\n    tag_222:\n      pop\n      pop\n      pop\n      pop\n      pop\n      dup2\n      mstore\n      0x20\n      add\n      0x03\n      dup3\n      add\n      dup1\n      sload\n      tag_225\n      swap1\n      tag_104\n      jump\t// in\n    tag_225:\n      dup1\n      0x1f\n      add\n      0x20\n      dup1\n      swap2\n      div\n      mul\n      0x20\n      add\n      mload(0x40)\n      swap1\n      dup2\n      add\n      0x40\n      mstore\n      dup1\n      swap3\n      swap2\n      swap1\n      dup2\n      dup2\n      mstore\n      0x20\n      add\n      dup3\n      dup1\n      sload\n      tag_226\n      swap1\n      tag_104\n      jump\t// in\n    tag_226:\n      dup1\n      iszero\n      tag_227\n      jumpi\n      dup1\n      0x1f\n      lt\n      tag_228\n      jumpi\n      0x0100\n      dup1\n      dup4\n      sload\n      div\n      mul\n      dup4\n      mstore\n      swap2\n      0x20\n      add\n      swap2\n      jump(tag_227)\n    tag_228:\n      dup3\n      add\n      swap2\n      swap1\n      0x00\n      mstore\n      keccak256(0x00, 0x20)\n      swap1\n    tag_229:\n      dup2\n      sload\n      dup2\n      mstore\n      swap1\n      0x01\n      add\n      swap1\n      0x20\n      add\n      dup1\n      dup4\n      gt\n      tag_229\n      jumpi\n      dup3\n      swap1\n      sub\n      0x1f\n      and\n      dup3\n      add\n      swap2\n    tag_227:\n      pop\n      pop\n      pop\n      pop\n      pop\n      dup2\n      mstore\n      0x20\n      add\n      0x04\n      dup3\n      add\n      dup1\n      sload\n      tag_230\n      swap1\n      tag_104\n      jump\t// in\n    tag_230:\n      dup1\n      0x1f\n      add\n      0x20\n      dup1\n      swap2\n      div\n      mul\n      0x20\n      add\n      mload(0x40)\n      swap1\n      dup2\n      add\n      0x40\n      mstore\n      dup1\n      swap3\n      swap2\n      swap1\n      dup2\n      dup2\n      mstore\n      0x20\n      add\n      dup3\n      dup1\n      sload\n      tag_231\n      swap1\n      tag_104\n      jump\t// in\n    tag_231:\n      dup1\n      iszero\n      tag_232\n      jumpi\n      dup1\n      0x1f\n      lt\n      tag_233\n      jumpi\n      0x0100\n      dup1\n      dup4\n      sload\n      div\n      mul\n      dup4\n      mstore\n      swap2\n      0x20\n      add\n      swap2\n      jump(tag_232)\n    tag_233:\n      dup3\n      add\n      swap2\n      swap1\n      0x00\n      mstore\n      keccak256(0x00, 0x20)\n      swap1\n    tag_234:\n      dup2\n      sload\n      dup2\n      mstore\n      swap1\n      0x01\n      add\n      swap1\n      0x20\n      add\n      dup1\n      dup4\n      gt\n      tag_234\n      jumpi\n      dup3\n      swap1\n      sub\n      0x1f\n      and\n      dup3\n      add\n      swap2\n    tag_232:\n      pop\n      pop\n      pop\n      pop\n      pop\n      dup2\n      mstore\n      0x20\n      add\n      0x05\n      dup3\n      add\n      dup1\n      sload\n      tag_235\n      swap1\n      tag_104\n      jump\t// in\n    tag_235:\n      dup1\n      0x1f\n      add\n      0x20\n      dup1\n      swap2\n      div\n      mul\n      0x20\n      add\n      mload(0x40)\n      swap1\n      dup2\n      add\n      0x40\n      mstore\n      dup1\n      swap3\n      swap2\n      swap1\n      dup2\n      dup2\n      mstore\n      0x20\n      add\n      dup3\n      dup1\n      sload\n      tag_236\n      swap1\n      tag_104\n      jump\t// in\n    tag_236:\n      dup1\n      iszero\n      tag_237\n      jumpi\n      dup1\n      0x1f\n      lt\n      tag_238\n      jumpi\n      0x0100\n      dup1\n      dup4\n      sload\n      div\n      mul\n      dup4\n      mstore\n      swap2\n      0x20\n      add\n      swap2\n      jump(tag_237)\n    tag_238:\n      dup3\n      add\n      swap2\n      swap1\n      0x00\n      mstore\n      keccak256(0x00, 0x20)\n      swap1\n    tag_239:\n      dup2\n      sload\n      dup2\n      mstore\n      swap1\n      0x01\n      add\n      swap1\n      0x20\n      add\n      dup1\n      dup4\n      gt\n      tag_239\n      jumpi\n      dup3\n      swap1\n      sub\n      0x1f\n      and\n      dup3\n      add\n      swap2\n    tag_237:\n      pop\n      pop\n      pop\n      pop\n      pop\n      dup2\n      mstore\n      0x20\n      add\n      0x06\n      dup3\n      add\n      dup1\n      sload\n      tag_240\n      swap1\n      tag_104\n      jump\t// in\n    tag_240:\n      dup1\n      0x1f\n      add\n      0x20\n      dup1\n      swap2\n      div\n      mul\n      0x20\n      add\n      mload(0x40)\n      swap1\n      dup2\n      add\n      0x40\n      mstore\n      dup1\n      swap3\n      swap2\n      swap1\n      dup2\n      dup2\n      mstore\n      0x20\n      add\n      dup3\n      dup1\n      sload\n      tag_241\n      swap1\n      tag_104\n      jump\t// in\n    tag_241:\n      dup1\n      iszero\n      tag_242\n      jumpi\n      dup1\n      0x1f\n      lt\n      tag_243\n      jumpi\n      0x0100\n      dup1\n      dup4\n      sload\n      div\n      mul\n      dup4\n      mstore\n      swap2\n      0x20\n      add\n      swap2\n      jump(tag_242)\n    tag_243:\n      dup3\n      add\n      swap2\n      swap1\n      0x00\n      mstore\n      keccak256(0x00, 0x20)\n      swap1\n    tag_244:\n      dup2\n      sload\n      dup2\n      mstore\n      swap1\n      0x01\n      add\n      swap1\n      0x20\n      add\n      dup1\n      dup4\n      gt\n      tag_244\n      jumpi\n      dup3\n      swap1\n      sub\n      0x1f\n      and\n      dup3\n      add\n      swap2\n    tag_242:\n      pop\n      pop\n      pop\n      pop\n      pop\n      dup2\n      mstore\n      pop\n      pop\n      swap1\n      pop\n        /* \"contracts/4_Product.sol\":9217:10099  function getProductInfo(uint256 _id) public view returns \r... */\n      swap2\n      swap4\n      swap6\n      swap8\n      swap10\n      swap1\n      swap3\n      swap5\n      swap7\n      swap9\n      pop\n      jump\t// out\n        /* \"contracts/4_Product.sol\":114:134  string public symbol */\n    tag_63:\n      0x01\n      dup1\n      sload\n      tag_245\n      swap1\n      tag_104\n      jump\t// in\n    tag_245:\n      dup1\n      0x1f\n      add\n      0x20\n      dup1\n      swap2\n      div\n      mul\n      0x20\n      add\n      mload(0x40)\n      swap1\n      dup2\n      add\n      0x40\n      mstore\n      dup1\n      swap3\n      swap2\n      swap1\n      dup2\n      dup2\n      mstore\n      0x20\n      add\n      dup3\n      dup1\n      sload\n      tag_246\n      swap1\n      tag_104\n      jump\t// in\n    tag_246:\n      dup1\n      iszero\n      tag_247\n      jumpi\n      dup1\n      0x1f\n      lt\n      tag_248\n      jumpi\n      0x0100\n      dup1\n      dup4\n      sload\n      div\n      mul\n      dup4\n      mstore\n      swap2\n      0x20\n      add\n      swap2\n      jump(tag_247)\n    tag_248:\n      dup3\n      add\n      swap2\n      swap1\n      0x00\n      mstore\n      keccak256(0x00, 0x20)\n      swap1\n    tag_249:\n      dup2\n      sload\n      dup2\n      mstore\n      swap1\n      0x01\n      add\n      swap1\n      0x20\n      add\n      dup1\n      dup4\n      gt\n      tag_249\n      jumpi\n      dup3\n      swap1\n      sub\n      0x1f\n      and\n      dup3\n      add\n      swap2\n    tag_247:\n      pop\n      pop\n      pop\n      pop\n      pop\n      dup2\n      jump\t// out\n        /* \"contracts/4_Product.sol\":5637:6054  function burn(address _account, uint256 _amount) public OnlyTokenOwner {\r... */\n    tag_68:\n        /* \"contracts/4_Product.sol\":2626:2636  tokenOwner */\n      0x02\n      0x00\n      swap1\n      sload\n      swap1\n      0x0100\n      exp\n      swap1\n      div\n      0xffffffffffffffffffffffffffffffffffffffff\n      and\n        /* \"contracts/4_Product.sol\":2612:2636  msg.sender == tokenOwner */\n      0xffffffffffffffffffffffffffffffffffffffff\n      and\n        /* \"contracts/4_Product.sol\":2612:2622  msg.sender */\n      caller\n        /* \"contracts/4_Product.sol\":2612:2636  msg.sender == tokenOwner */\n      0xffffffffffffffffffffffffffffffffffffffff\n      and\n      eq\n        /* \"contracts/4_Product.sol\":2604:2671  require(msg.sender == tokenOwner, 'caller is not the token owner.') */\n      tag_251\n      jumpi\n      mload(0x40)\n      0x08c379a000000000000000000000000000000000000000000000000000000000\n      dup2\n      mstore\n      0x04\n      add\n      tag_252\n      swap1\n      tag_253\n      jump\t// in\n    tag_252:\n      mload(0x40)\n      dup1\n      swap2\n      sub\n      swap1\n      revert\n    tag_251:\n        /* \"contracts/4_Product.sol\":5747:5748  0 */\n      0x00\n        /* \"contracts/4_Product.sol\":5727:5749  _account != address(0) */\n      0xffffffffffffffffffffffffffffffffffffffff\n      and\n        /* \"contracts/4_Product.sol\":5727:5735  _account */\n      dup3\n        /* \"contracts/4_Product.sol\":5727:5749  _account != address(0) */\n      0xffffffffffffffffffffffffffffffffffffffff\n      and\n      eq\n      iszero\n        /* \"contracts/4_Product.sol\":5719:5750  require(_account != address(0)) */\n      tag_255\n      jumpi\n      0x00\n      dup1\n      revert\n    tag_255:\n        /* \"contracts/4_Product.sol\":5875:5883  balances */\n      0x04\n        /* \"contracts/4_Product.sol\":5875:5893  balances[_account] */\n      0x00\n        /* \"contracts/4_Product.sol\":5884:5892  _account */\n      dup4\n        /* \"contracts/4_Product.sol\":5875:5893  balances[_account] */\n      0xffffffffffffffffffffffffffffffffffffffff\n      and\n      0xffffffffffffffffffffffffffffffffffffffff\n      and\n      dup2\n      mstore\n      0x20\n      add\n      swap1\n      dup2\n      mstore\n      0x20\n      add\n      0x00\n      keccak256\n      sload\n        /* \"contracts/4_Product.sol\":5864:5871  _amount */\n      dup2\n        /* \"contracts/4_Product.sol\":5864:5893  _amount <= balances[_account] */\n      gt\n      iszero\n        /* \"contracts/4_Product.sol\":5856:5894  require(_amount <= balances[_account]) */\n      tag_256\n      jumpi\n      0x00\n      dup1\n      revert\n    tag_256:\n        /* \"contracts/4_Product.sol\":5999:6006  _amount */\n      dup1\n        /* \"contracts/4_Product.sol\":5983:5995  _totalSupply */\n      0x03\n      0x00\n        /* \"contracts/4_Product.sol\":5983:6006  _totalSupply -= _amount */\n      dup3\n      dup3\n      sload\n      tag_257\n      swap2\n      swap1\n      tag_204\n      jump\t// in\n    tag_257:\n      swap3\n      pop\n      pop\n      dup2\n      swap1\n      sstore\n      pop\n        /* \"contracts/4_Product.sol\":6039:6046  _amount */\n      dup1\n        /* \"contracts/4_Product.sol\":6017:6025  balances */\n      0x04\n        /* \"contracts/4_Product.sol\":6017:6035  balances[_account] */\n      0x00\n        /* \"contracts/4_Product.sol\":6026:6034  _account */\n      dup5\n        /* \"contracts/4_Product.sol\":6017:6035  balances[_account] */\n      0xffffffffffffffffffffffffffffffffffffffff\n      and\n      0xffffffffffffffffffffffffffffffffffffffff\n      and\n      dup2\n      mstore\n      0x20\n      add\n      swap1\n      dup2\n      mstore\n      0x20\n      add\n      0x00\n      keccak256\n      0x00\n        /* \"contracts/4_Product.sol\":6017:6046  balances[_account] -= _amount */\n      dup3\n      dup3\n      sload\n      tag_258\n      swap2\n      swap1\n      tag_204\n      jump\t// in\n    tag_258:\n      swap3\n      pop\n      pop\n      dup2\n      swap1\n      sstore\n      pop\n        /* \"contracts/4_Product.sol\":5637:6054  function burn(address _account, uint256 _amount) public OnlyTokenOwner {\r... */\n      pop\n      pop\n      jump\t// out\n        /* \"contracts/4_Product.sol\":4027:4249  function mint(uint256 _amount) public OnlyTokenOwner {\r... */\n    tag_72:\n        /* \"contracts/4_Product.sol\":2626:2636  tokenOwner */\n      0x02\n      0x00\n      swap1\n      sload\n      swap1\n      0x0100\n      exp\n      swap1\n      div\n      0xffffffffffffffffffffffffffffffffffffffff\n      and\n        /* \"contracts/4_Product.sol\":2612:2636  msg.sender == tokenOwner */\n      0xffffffffffffffffffffffffffffffffffffffff\n      and\n        /* \"contracts/4_Product.sol\":2612:2622  msg.sender */\n      caller\n        /* \"contracts/4_Product.sol\":2612:2636  msg.sender == tokenOwner */\n      0xffffffffffffffffffffffffffffffffffffffff\n      and\n      eq\n        /* \"contracts/4_Product.sol\":2604:2671  require(msg.sender == tokenOwner, 'caller is not the token owner.') */\n      tag_260\n      jumpi\n      mload(0x40)\n      0x08c379a000000000000000000000000000000000000000000000000000000000\n      dup2\n      mstore\n      0x04\n      add\n      tag_261\n      swap1\n      tag_253\n      jump\t// in\n    tag_261:\n      mload(0x40)\n      dup1\n      swap2\n      sub\n      swap1\n      revert\n    tag_260:\n        /* \"contracts/4_Product.sol\":4107:4114  _amount */\n      dup1\n        /* \"contracts/4_Product.sol\":4091:4103  _totalSupply */\n      0x03\n      0x00\n        /* \"contracts/4_Product.sol\":4091:4114  _totalSupply += _amount */\n      dup3\n      dup3\n      sload\n      tag_263\n      swap2\n      swap1\n      tag_206\n      jump\t// in\n    tag_263:\n      swap3\n      pop\n      pop\n      dup2\n      swap1\n      sstore\n      pop\n        /* \"contracts/4_Product.sol\":4185:4192  _amount */\n      dup1\n        /* \"contracts/4_Product.sol\":4161:4169  balances */\n      0x04\n        /* \"contracts/4_Product.sol\":4161:4181  balances[msg.sender] */\n      0x00\n        /* \"contracts/4_Product.sol\":4170:4180  msg.sender */\n      caller\n        /* \"contracts/4_Product.sol\":4161:4181  balances[msg.sender] */\n      0xffffffffffffffffffffffffffffffffffffffff\n      and\n      0xffffffffffffffffffffffffffffffffffffffff\n      and\n      dup2\n      mstore\n      0x20\n      add\n      swap1\n      dup2\n      mstore\n      0x20\n      add\n      0x00\n      keccak256\n      0x00\n        /* \"contracts/4_Product.sol\":4161:4192  balances[msg.sender] += _amount */\n      dup3\n      dup3\n      sload\n      tag_264\n      swap2\n      swap1\n      tag_206\n      jump\t// in\n    tag_264:\n      swap3\n      pop\n      pop\n      dup2\n      swap1\n      sstore\n      pop\n        /* \"contracts/4_Product.sol\":4027:4249  function mint(uint256 _amount) public OnlyTokenOwner {\r... */\n      pop\n      jump\t// out\n        /* \"contracts/4_Product.sol\":165:199  address payable public  tokenOwner */\n    tag_75:\n      0x02\n      0x00\n      swap1\n      sload\n      swap1\n      0x0100\n      exp\n      swap1\n      div\n      0xffffffffffffffffffffffffffffffffffffffff\n      and\n      dup2\n      jump\t// out\n        /* \"contracts/4_Product.sol\":6112:6609  function buyToken() public payable {\r... */\n    tag_79:\n        /* \"contracts/4_Product.sol\":6157:6173  uint256 tokenNum */\n      0x00\n        /* \"contracts/4_Product.sol\":287:290  100 */\n      0x64\n        /* \"contracts/4_Product.sol\":6176:6185  msg.value */\n      callvalue\n        /* \"contracts/4_Product.sol\":6176:6196  msg.value/tokenPrice */\n      tag_266\n      swap2\n      swap1\n      tag_267\n      jump\t// in\n    tag_266:\n        /* \"contracts/4_Product.sol\":6157:6196  uint256 tokenNum = msg.value/tokenPrice */\n      swap1\n      pop\n        /* \"contracts/4_Product.sol\":6258:6259  0 */\n      0x00\n        /* \"contracts/4_Product.sol\":6246:6255  msg.value */\n      callvalue\n        /* \"contracts/4_Product.sol\":6246:6259  msg.value > 0 */\n      gt\n        /* \"contracts/4_Product.sol\":6238:6260  require(msg.value > 0) */\n      tag_268\n      jumpi\n      0x00\n      dup1\n      revert\n    tag_268:\n        /* \"contracts/4_Product.sol\":6308:6318  tokenOwner */\n      0x02\n      0x00\n      swap1\n      sload\n      swap1\n      0x0100\n      exp\n      swap1\n      div\n      0xffffffffffffffffffffffffffffffffffffffff\n      and\n        /* \"contracts/4_Product.sol\":6308:6327  tokenOwner.transfer */\n      0xffffffffffffffffffffffffffffffffffffffff\n      and\n        /* \"contracts/4_Product.sol\":6308:6338  tokenOwner.transfer(msg.value) */\n      0x08fc\n        /* \"contracts/4_Product.sol\":6328:6337  msg.value */\n      callvalue\n        /* \"contracts/4_Product.sol\":6308:6338  tokenOwner.transfer(msg.value) */\n      swap1\n      dup2\n      iszero\n      mul\n      swap1\n      mload(0x40)\n      0x00\n      mload(0x40)\n      dup1\n      dup4\n      sub\n      dup2\n      dup6\n      dup9\n      dup9\n      call\n      swap4\n      pop\n      pop\n      pop\n      pop\n      iszero\n      dup1\n      iszero\n      tag_270\n      jumpi\n      returndatasize\n      0x00\n      dup1\n      returndatacopy\n      revert(0x00, returndatasize)\n    tag_270:\n      pop\n        /* \"contracts/4_Product.sol\":6438:6446  tokenNum */\n      dup1\n        /* \"contracts/4_Product.sol\":6414:6422  balances */\n      0x04\n        /* \"contracts/4_Product.sol\":6414:6434  balances[tokenOwner] */\n      0x00\n        /* \"contracts/4_Product.sol\":6423:6433  tokenOwner */\n      0x02\n      0x00\n      swap1\n      sload\n      swap1\n      0x0100\n      exp\n      swap1\n      div\n      0xffffffffffffffffffffffffffffffffffffffff\n      and\n        /* \"contracts/4_Product.sol\":6414:6434  balances[tokenOwner] */\n      0xffffffffffffffffffffffffffffffffffffffff\n      and\n      0xffffffffffffffffffffffffffffffffffffffff\n      and\n      dup2\n      mstore\n      0x20\n      add\n      swap1\n      dup2\n      mstore\n      0x20\n      add\n      0x00\n      keccak256\n      0x00\n        /* \"contracts/4_Product.sol\":6414:6446  balances[tokenOwner] -= tokenNum */\n      dup3\n      dup3\n      sload\n      tag_271\n      swap2\n      swap1\n      tag_204\n      jump\t// in\n    tag_271:\n      swap3\n      pop\n      pop\n      dup2\n      swap1\n      sstore\n      pop\n        /* \"contracts/4_Product.sol\":6539:6547  tokenNum */\n      dup1\n        /* \"contracts/4_Product.sol\":6515:6523  balances */\n      0x04\n        /* \"contracts/4_Product.sol\":6515:6535  balances[msg.sender] */\n      0x00\n        /* \"contracts/4_Product.sol\":6524:6534  msg.sender */\n      caller\n        /* \"contracts/4_Product.sol\":6515:6535  balances[msg.sender] */\n      0xffffffffffffffffffffffffffffffffffffffff\n      and\n      0xffffffffffffffffffffffffffffffffffffffff\n      and\n      dup2\n      mstore\n      0x20\n      add\n      swap1\n      dup2\n      mstore\n      0x20\n      add\n      0x00\n      keccak256\n      0x00\n        /* \"contracts/4_Product.sol\":6515:6547  balances[msg.sender] += tokenNum */\n      dup3\n      dup3\n      sload\n      tag_272\n      swap2\n      swap1\n      tag_206\n      jump\t// in\n    tag_272:\n      swap3\n      pop\n      pop\n      dup2\n      swap1\n      sstore\n      pop\n        /* \"contracts/4_Product.sol\":6147:6609  {\r... */\n      pop\n        /* \"contracts/4_Product.sol\":6112:6609  function buyToken() public payable {\r... */\n      jump\t// out\n        /* \"contracts/4_Product.sol\":11243:11419  function getActorInfo(address _addr) public view returns\r... */\n    tag_84:\n        /* \"contracts/4_Product.sol\":11308:11318  Role _role */\n      0x00\n        /* \"contracts/4_Product.sol\":11325:11344  string memory _name */\n      0x60\n        /* \"contracts/4_Product.sol\":11364:11370  actors */\n      0x05\n        /* \"contracts/4_Product.sol\":11364:11377  actors[_addr] */\n      0x00\n        /* \"contracts/4_Product.sol\":11371:11376  _addr */\n      dup5\n        /* \"contracts/4_Product.sol\":11364:11377  actors[_addr] */\n      0xffffffffffffffffffffffffffffffffffffffff\n      and\n      0xffffffffffffffffffffffffffffffffffffffff\n      and\n      dup2\n      mstore\n      0x20\n      add\n      swap1\n      dup2\n      mstore\n      0x20\n      add\n      0x00\n      keccak256\n        /* \"contracts/4_Product.sol\":11364:11382  actors[_addr].role */\n      0x00\n      add\n      0x00\n      swap1\n      sload\n      swap1\n      0x0100\n      exp\n      swap1\n      div\n      0xff\n      and\n        /* \"contracts/4_Product.sol\":11356:11382  _role = actors[_addr].role */\n      swap2\n      pop\n        /* \"contracts/4_Product.sol\":11397:11403  actors */\n      0x05\n        /* \"contracts/4_Product.sol\":11397:11410  actors[_addr] */\n      0x00\n        /* \"contracts/4_Product.sol\":11404:11409  _addr */\n      dup5\n        /* \"contracts/4_Product.sol\":11397:11410  actors[_addr] */\n      0xffffffffffffffffffffffffffffffffffffffff\n      and\n      0xffffffffffffffffffffffffffffffffffffffff\n      and\n      dup2\n      mstore\n      0x20\n      add\n      swap1\n      dup2\n      mstore\n      0x20\n      add\n      0x00\n      keccak256\n        /* \"contracts/4_Product.sol\":11397:11415  actors[_addr].name */\n      0x01\n      add\n        /* \"contracts/4_Product.sol\":11389:11415  _name = actors[_addr].name */\n      dup1\n      sload\n      tag_274\n      swap1\n      tag_104\n      jump\t// in\n    tag_274:\n      dup1\n      0x1f\n      add\n      0x20\n      dup1\n      swap2\n      div\n      mul\n      0x20\n      add\n      mload(0x40)\n      swap1\n      dup2\n      add\n      0x40\n      mstore\n      dup1\n      swap3\n      swap2\n      swap1\n      dup2\n      dup2\n      mstore\n      0x20\n      add\n      dup3\n      dup1\n      sload\n      tag_275\n      swap1\n      tag_104\n      jump\t// in\n    tag_275:\n      dup1\n      iszero\n      tag_276\n      jumpi\n      dup1\n      0x1f\n      lt\n      tag_277\n      jumpi\n      0x0100\n      dup1\n      dup4\n      sload\n      div\n      mul\n      dup4\n      mstore\n      swap2\n      0x20\n      add\n      swap2\n      jump(tag_276)\n    tag_277:\n      dup3\n      add\n      swap2\n      swap1\n      0x00\n      mstore\n      keccak256(0x00, 0x20)\n      swap1\n    tag_278:\n      dup2\n      sload\n      dup2\n      mstore\n      swap1\n      0x01\n      add\n      swap1\n      0x20\n      add\n      dup1\n      dup4\n      gt\n      tag_278\n      jumpi\n      dup3\n      swap1\n      sub\n      0x1f\n      and\n      dup3\n      add\n      swap2\n    tag_276:\n      pop\n      pop\n      pop\n      pop\n      pop\n      swap1\n      pop\n        /* \"contracts/4_Product.sol\":11243:11419  function getActorInfo(address _addr) public view returns\r... */\n      swap2\n      pop\n      swap2\n      jump\t// out\n        /* \"contracts/4_Product.sol\":3805:3911  function etherBalance(address _addr) public view returns (uint256) {\r... */\n    tag_90:\n        /* \"contracts/4_Product.sol\":3863:3870  uint256 */\n      0x00\n        /* \"contracts/4_Product.sol\":3890:3895  _addr */\n      dup2\n        /* \"contracts/4_Product.sol\":3890:3903  _addr.balance */\n      0xffffffffffffffffffffffffffffffffffffffff\n      and\n      balance\n        /* \"contracts/4_Product.sol\":3883:3903  return _addr.balance */\n      swap1\n      pop\n        /* \"contracts/4_Product.sol\":3805:3911  function etherBalance(address _addr) public view returns (uint256) {\r... */\n      swap2\n      swap1\n      pop\n      jump\t// out\n        /* \"contracts/4_Product.sol\":3631:3739  function tokenBalance(address _addr) public view returns (uint256) {\r... */\n    tag_96:\n        /* \"contracts/4_Product.sol\":3689:3696  uint256 */\n      0x00\n        /* \"contracts/4_Product.sol\":3716:3724  balances */\n      0x04\n        /* \"contracts/4_Product.sol\":3716:3731  balances[_addr] */\n      0x00\n        /* \"contracts/4_Product.sol\":3725:3730  _addr */\n      dup4\n        /* \"contracts/4_Product.sol\":3716:3731  balances[_addr] */\n      0xffffffffffffffffffffffffffffffffffffffff\n      and\n      0xffffffffffffffffffffffffffffffffffffffff\n      and\n      dup2\n      mstore\n      0x20\n      add\n      swap1\n      dup2\n      mstore\n      0x20\n      add\n      0x00\n      keccak256\n      sload\n        /* \"contracts/4_Product.sol\":3709:3731  return balances[_addr] */\n      swap1\n      pop\n        /* \"contracts/4_Product.sol\":3631:3739  function tokenBalance(address _addr) public view returns (uint256) {\r... */\n      swap2\n      swap1\n      pop\n      jump\t// out\n        /* \"contracts/4_Product.sol\":4257:5478  function orderProduct(uint256 _amount, string memory _name, string memory _brand, string memory _size, string memory _weight, string memory _length, string memory _width, string memory _height) public OnlyTokenOwner {\r... */\n    tag_102:\n        /* \"contracts/4_Product.sol\":2626:2636  tokenOwner */\n      0x02\n      0x00\n      swap1\n      sload\n      swap1\n      0x0100\n      exp\n      swap1\n      div\n      0xffffffffffffffffffffffffffffffffffffffff\n      and\n        /* \"contracts/4_Product.sol\":2612:2636  msg.sender == tokenOwner */\n      0xffffffffffffffffffffffffffffffffffffffff\n      and\n        /* \"contracts/4_Product.sol\":2612:2622  msg.sender */\n      caller\n        /* \"contracts/4_Product.sol\":2612:2636  msg.sender == tokenOwner */\n      0xffffffffffffffffffffffffffffffffffffffff\n      and\n      eq\n        /* \"contracts/4_Product.sol\":2604:2671  require(msg.sender == tokenOwner, 'caller is not the token owner.') */\n      tag_282\n      jumpi\n      mload(0x40)\n      0x08c379a000000000000000000000000000000000000000000000000000000000\n      dup2\n      mstore\n      0x04\n      add\n      tag_283\n      swap1\n      tag_253\n      jump\t// in\n    tag_283:\n      mload(0x40)\n      dup1\n      swap2\n      sub\n      swap1\n      revert\n    tag_282:\n        /* \"contracts/4_Product.sol\":4484:4497  uint256 index */\n      0x00\n        /* \"contracts/4_Product.sol\":4529:4530  0 */\n      dup1\n        /* \"contracts/4_Product.sol\":4515:4527  _totalSupply */\n      sload(0x03)\n        /* \"contracts/4_Product.sol\":4515:4530  _totalSupply!=0 */\n      eq\n        /* \"contracts/4_Product.sol\":4512:4576  if(_totalSupply!=0){\r... */\n      tag_285\n      jumpi\n        /* \"contracts/4_Product.sol\":4552:4564  _totalSupply */\n      sload(0x03)\n        /* \"contracts/4_Product.sol\":4546:4564  index=_totalSupply */\n      swap1\n      pop\n        /* \"contracts/4_Product.sol\":4512:4576  if(_totalSupply!=0){\r... */\n    tag_285:\n        /* \"contracts/4_Product.sol\":4592:4615  Details memory _details */\n      tag_286\n      tag_208\n      jump\t// in\n    tag_286:\n        /* \"contracts/4_Product.sol\":4642:4647  _name */\n      dup9\n        /* \"contracts/4_Product.sol\":4628:4636  _details */\n      dup2\n        /* \"contracts/4_Product.sol\":4628:4641  _details.name */\n      0x00\n      add\n        /* \"contracts/4_Product.sol\":4628:4647  _details.name=_name */\n      dup2\n      swap1\n      mstore\n      pop\n        /* \"contracts/4_Product.sol\":4674:4680  _brand */\n      dup8\n        /* \"contracts/4_Product.sol\":4659:4667  _details */\n      dup2\n        /* \"contracts/4_Product.sol\":4659:4673  _details.brand */\n      0x20\n      add\n        /* \"contracts/4_Product.sol\":4659:4680  _details.brand=_brand */\n      dup2\n      swap1\n      mstore\n      pop\n        /* \"contracts/4_Product.sol\":4706:4711  _size */\n      dup7\n        /* \"contracts/4_Product.sol\":4692:4700  _details */\n      dup2\n        /* \"contracts/4_Product.sol\":4692:4705  _details.size */\n      0x40\n      add\n        /* \"contracts/4_Product.sol\":4692:4711  _details.size=_size */\n      dup2\n      swap1\n      mstore\n      pop\n        /* \"contracts/4_Product.sol\":4739:4746  _weight */\n      dup6\n        /* \"contracts/4_Product.sol\":4723:4731  _details */\n      dup2\n        /* \"contracts/4_Product.sol\":4723:4738  _details.weight */\n      0x60\n      add\n        /* \"contracts/4_Product.sol\":4723:4746  _details.weight=_weight */\n      dup2\n      swap1\n      mstore\n      pop\n        /* \"contracts/4_Product.sol\":4775:4782  _length */\n      dup5\n        /* \"contracts/4_Product.sol\":4758:4766  _details */\n      dup2\n        /* \"contracts/4_Product.sol\":4758:4773  _details.length */\n      0x80\n      add\n        /* \"contracts/4_Product.sol\":4758:4782  _details.length =_length */\n      dup2\n      swap1\n      mstore\n      pop\n        /* \"contracts/4_Product.sol\":4810:4816  _width */\n      dup4\n        /* \"contracts/4_Product.sol\":4794:4802  _details */\n      dup2\n        /* \"contracts/4_Product.sol\":4794:4808  _details.width */\n      0xa0\n      add\n        /* \"contracts/4_Product.sol\":4794:4816  _details.width =_width */\n      dup2\n      swap1\n      mstore\n      pop\n        /* \"contracts/4_Product.sol\":4844:4851  _height */\n      dup3\n        /* \"contracts/4_Product.sol\":4828:4836  _details */\n      dup2\n        /* \"contracts/4_Product.sol\":4828:4843  _details.height */\n      0xc0\n      add\n        /* \"contracts/4_Product.sol\":4828:4851  _details.height=_height */\n      dup2\n      swap1\n      mstore\n      pop\n        /* \"contracts/4_Product.sol\":4875:4884  uint256 i */\n      0x00\n        /* \"contracts/4_Product.sol\":4885:4890  index */\n      dup3\n        /* \"contracts/4_Product.sol\":4875:4890  uint256 i=index */\n      swap1\n      pop\n        /* \"contracts/4_Product.sol\":4871:5294  for(uint256 i=index;i<index+_amount;i++){\r... */\n    tag_287:\n        /* \"contracts/4_Product.sol\":4899:4906  _amount */\n      dup11\n        /* \"contracts/4_Product.sol\":4893:4898  index */\n      dup4\n        /* \"contracts/4_Product.sol\":4893:4906  index+_amount */\n      tag_290\n      swap2\n      swap1\n      tag_206\n      jump\t// in\n    tag_290:\n        /* \"contracts/4_Product.sol\":4891:4892  i */\n      dup2\n        /* \"contracts/4_Product.sol\":4891:4906  i<index+_amount */\n      lt\n        /* \"contracts/4_Product.sol\":4871:5294  for(uint256 i=index;i<index+_amount;i++){\r... */\n      iszero\n      tag_288\n      jumpi\n        /* \"contracts/4_Product.sol\":4938:5282  Product({  ID:i,\r... */\n      mload(0x40)\n      dup1\n      0x0140\n      add\n      0x40\n      mstore\n      dup1\n        /* \"contracts/4_Product.sol\":4952:4953  i */\n      dup3\n        /* \"contracts/4_Product.sol\":4938:5282  Product({  ID:i,\r... */\n      dup2\n      mstore\n      0x20\n      add\n        /* \"contracts/4_Product.sol\":4985:4986  0 */\n      0x00\n        /* \"contracts/4_Product.sol\":4938:5282  Product({  ID:i,\r... */\n      0xffffffffffffffffffffffffffffffffffffffff\n      and\n      dup2\n      mstore\n      0x20\n      add\n        /* \"contracts/4_Product.sol\":5022:5023  0 */\n      0x00\n        /* \"contracts/4_Product.sol\":4938:5282  Product({  ID:i,\r... */\n      0xffffffffffffffffffffffffffffffffffffffff\n      and\n      dup2\n      mstore\n      0x20\n      add\n        /* \"contracts/4_Product.sol\":5050:5065  block.timestamp */\n      timestamp\n        /* \"contracts/4_Product.sol\":4938:5282  Product({  ID:i,\r... */\n      dup2\n      mstore\n      0x20\n      add\n        /* \"contracts/4_Product.sol\":5093:5106  State.Ordered */\n      0x00\n        /* \"contracts/4_Product.sol\":4938:5282  Product({  ID:i,\r... */\n      0x05\n      dup2\n      gt\n      iszero\n      tag_291\n      jumpi\n      tag_292\n      tag_112\n      jump\t// in\n    tag_292:\n    tag_291:\n      dup2\n      mstore\n      0x20\n      add\n        /* \"contracts/4_Product.sol\":5134:5137  100 */\n      0x64\n        /* \"contracts/4_Product.sol\":4938:5282  Product({  ID:i,\r... */\n      dup2\n      mstore\n      0x20\n      add\n        /* \"contracts/4_Product.sol\":5174:5175  0 */\n      0x00\n        /* \"contracts/4_Product.sol\":4938:5282  Product({  ID:i,\r... */\n      0xffffffffffffffffffffffffffffffffffffffff\n      and\n      dup2\n      mstore\n      0x20\n      add\n        /* \"contracts/4_Product.sol\":5210:5211  0 */\n      0x00\n        /* \"contracts/4_Product.sol\":4938:5282  Product({  ID:i,\r... */\n      0xffffffffffffffffffffffffffffffffffffffff\n      and\n      dup2\n      mstore\n      0x20\n      add\n        /* \"contracts/4_Product.sol\":5246:5247  0 */\n      0x00\n        /* \"contracts/4_Product.sol\":4938:5282  Product({  ID:i,\r... */\n      0xffffffffffffffffffffffffffffffffffffffff\n      and\n      dup2\n      mstore\n      0x20\n      add\n        /* \"contracts/4_Product.sol\":5271:5279  _details */\n      dup4\n        /* \"contracts/4_Product.sol\":4938:5282  Product({  ID:i,\r... */\n      dup2\n      mstore\n      pop\n        /* \"contracts/4_Product.sol\":4926:4933  product */\n      0x06\n        /* \"contracts/4_Product.sol\":4926:4936  product[i] */\n      0x00\n        /* \"contracts/4_Product.sol\":4934:4935  i */\n      dup4\n        /* \"contracts/4_Product.sol\":4926:4936  product[i] */\n      dup2\n      mstore\n      0x20\n      add\n      swap1\n      dup2\n      mstore\n      0x20\n      add\n      0x00\n      keccak256\n        /* \"contracts/4_Product.sol\":4926:5282  product[i]= Product({  ID:i,\r... */\n      0x00\n      dup3\n      add\n      mload\n      dup2\n      0x00\n      add\n      sstore\n      0x20\n      dup3\n      add\n      mload\n      dup2\n      0x01\n      add\n      exp(0x0100, 0x00)\n      dup2\n      sload\n      dup2\n      0xffffffffffffffffffffffffffffffffffffffff\n      mul\n      not\n      and\n      swap1\n      dup4\n      0xffffffffffffffffffffffffffffffffffffffff\n      and\n      mul\n      or\n      swap1\n      sstore\n      pop\n      0x40\n      dup3\n      add\n      mload\n      dup2\n      0x02\n      add\n      exp(0x0100, 0x00)\n      dup2\n      sload\n      dup2\n      0xffffffffffffffffffffffffffffffffffffffff\n      mul\n      not\n      and\n      swap1\n      dup4\n      0xffffffffffffffffffffffffffffffffffffffff\n      and\n      mul\n      or\n      swap1\n      sstore\n      pop\n      0x60\n      dup3\n      add\n      mload\n      dup2\n      0x03\n      add\n      sstore\n      0x80\n      dup3\n      add\n      mload\n      dup2\n      0x04\n      add\n      exp(0x0100, 0x00)\n      dup2\n      sload\n      dup2\n      0xff\n      mul\n      not\n      and\n      swap1\n      dup4\n      0x05\n      dup2\n      gt\n      iszero\n      tag_293\n      jumpi\n      tag_294\n      tag_112\n      jump\t// in\n    tag_294:\n    tag_293:\n      mul\n      or\n      swap1\n      sstore\n      pop\n      0xa0\n      dup3\n      add\n      mload\n      dup2\n      0x05\n      add\n      sstore\n      0xc0\n      dup3\n      add\n      mload\n      dup2\n      0x06\n      add\n      exp(0x0100, 0x00)\n      dup2\n      sload\n      dup2\n      0xffffffffffffffffffffffffffffffffffffffff\n      mul\n      not\n      and\n      swap1\n      dup4\n      0xffffffffffffffffffffffffffffffffffffffff\n      and\n      mul\n      or\n      swap1\n      sstore\n      pop\n      0xe0\n      dup3\n      add\n      mload\n      dup2\n      0x07\n      add\n      exp(0x0100, 0x00)\n      dup2\n      sload\n      dup2\n      0xffffffffffffffffffffffffffffffffffffffff\n      mul\n      not\n      and\n      swap1\n      dup4\n      0xffffffffffffffffffffffffffffffffffffffff\n      and\n      mul\n      or\n      swap1\n      sstore\n      pop\n      0x0100\n      dup3\n      add\n      mload\n      dup2\n      0x08\n      add\n      exp(0x0100, 0x00)\n      dup2\n      sload\n      dup2\n      0xffffffffffffffffffffffffffffffffffffffff\n      mul\n      not\n      and\n      swap1\n      dup4\n      0xffffffffffffffffffffffffffffffffffffffff\n      and\n      mul\n      or\n      swap1\n      sstore\n      pop\n      0x0120\n      dup3\n      add\n      mload\n      dup2\n      0x09\n      add\n      0x00\n      dup3\n      add\n      mload\n      dup2\n      0x00\n      add\n      swap1\n      dup1\n      mload\n      swap1\n      0x20\n      add\n      swap1\n      tag_295\n      swap3\n      swap2\n      swap1\n      tag_127\n      jump\t// in\n    tag_295:\n      pop\n      0x20\n      dup3\n      add\n      mload\n      dup2\n      0x01\n      add\n      swap1\n      dup1\n      mload\n      swap1\n      0x20\n      add\n      swap1\n      tag_296\n      swap3\n      swap2\n      swap1\n      tag_127\n      jump\t// in\n    tag_296:\n      pop\n      0x40\n      dup3\n      add\n      mload\n      dup2\n      0x02\n      add\n      swap1\n      dup1\n      mload\n      swap1\n      0x20\n      add\n      swap1\n      tag_297\n      swap3\n      swap2\n      swap1\n      tag_127\n      jump\t// in\n    tag_297:\n      pop\n      0x60\n      dup3\n      add\n      mload\n      dup2\n      0x03\n      add\n      swap1\n      dup1\n      mload\n      swap1\n      0x20\n      add\n      swap1\n      tag_298\n      swap3\n      swap2\n      swap1\n      tag_127\n      jump\t// in\n    tag_298:\n      pop\n      0x80\n      dup3\n      add\n      mload\n      dup2\n      0x04\n      add\n      swap1\n      dup1\n      mload\n      swap1\n      0x20\n      add\n      swap1\n      tag_299\n      swap3\n      swap2\n      swap1\n      tag_127\n      jump\t// in\n    tag_299:\n      pop\n      0xa0\n      dup3\n      add\n      mload\n      dup2\n      0x05\n      add\n      swap1\n      dup1\n      mload\n      swap1\n      0x20\n      add\n      swap1\n      tag_300\n      swap3\n      swap2\n      swap1\n      tag_127\n      jump\t// in\n    tag_300:\n      pop\n      0xc0\n      dup3\n      add\n      mload\n      dup2\n      0x06\n      add\n      swap1\n      dup1\n      mload\n      swap1\n      0x20\n      add\n      swap1\n      tag_301\n      swap3\n      swap2\n      swap1\n      tag_127\n      jump\t// in\n    tag_301:\n      pop\n      pop\n      pop\n      swap1\n      pop\n      pop\n        /* \"contracts/4_Product.sol\":4907:4910  i++ */\n      dup1\n      dup1\n      tag_302\n      swap1\n      tag_303\n      jump\t// in\n    tag_302:\n      swap2\n      pop\n      pop\n        /* \"contracts/4_Product.sol\":4871:5294  for(uint256 i=index;i<index+_amount;i++){\r... */\n      jump(tag_287)\n    tag_288:\n      pop\n        /* \"contracts/4_Product.sol\":5322:5329  _amount */\n      dup10\n        /* \"contracts/4_Product.sol\":5306:5318  _totalSupply */\n      0x03\n      0x00\n        /* \"contracts/4_Product.sol\":5306:5329  _totalSupply += _amount */\n      dup3\n      dup3\n      sload\n      tag_304\n      swap2\n      swap1\n      tag_206\n      jump\t// in\n    tag_304:\n      swap3\n      pop\n      pop\n      dup2\n      swap1\n      sstore\n      pop\n        /* \"contracts/4_Product.sol\":5400:5407  _amount */\n      dup10\n        /* \"contracts/4_Product.sol\":5376:5384  balances */\n      0x04\n        /* \"contracts/4_Product.sol\":5376:5396  balances[msg.sender] */\n      0x00\n        /* \"contracts/4_Product.sol\":5385:5395  msg.sender */\n      caller\n        /* \"contracts/4_Product.sol\":5376:5396  balances[msg.sender] */\n      0xffffffffffffffffffffffffffffffffffffffff\n      and\n      0xffffffffffffffffffffffffffffffffffffffff\n      and\n      dup2\n      mstore\n      0x20\n      add\n      swap1\n      dup2\n      mstore\n      0x20\n      add\n      0x00\n      keccak256\n      0x00\n        /* \"contracts/4_Product.sol\":5376:5407  balances[msg.sender] += _amount */\n      dup3\n      dup3\n      sload\n      tag_305\n      swap2\n      swap1\n      tag_206\n      jump\t// in\n    tag_305:\n      swap3\n      pop\n      pop\n      dup2\n      swap1\n      sstore\n      pop\n        /* \"contracts/4_Product.sol\":4473:5478  {\r... */\n      pop\n      pop\n        /* \"contracts/4_Product.sol\":4257:5478  function orderProduct(uint256 _amount, string memory _name, string memory _brand, string memory _size, string memory _weight, string memory _length, string memory _width, string memory _height) public OnlyTokenOwner {\r... */\n      pop\n      pop\n      pop\n      pop\n      pop\n      pop\n      pop\n      pop\n      jump\t// out\n    tag_127:\n      dup3\n      dup1\n      sload\n      tag_306\n      swap1\n      tag_104\n      jump\t// in\n    tag_306:\n      swap1\n      0x00\n      mstore\n      keccak256(0x00, 0x20)\n      swap1\n      0x1f\n      add\n      0x20\n      swap1\n      div\n      dup2\n      add\n      swap3\n      dup3\n      tag_308\n      jumpi\n      0x00\n      dup6\n      sstore\n      jump(tag_307)\n    tag_308:\n      dup3\n      0x1f\n      lt\n      tag_309\n      jumpi\n      dup1\n      mload\n      not(0xff)\n      and\n      dup4\n      dup1\n      add\n      or\n      dup6\n      sstore\n      jump(tag_307)\n    tag_309:\n      dup3\n      dup1\n      add\n      0x01\n      add\n      dup6\n      sstore\n      dup3\n      iszero\n      tag_307\n      jumpi\n      swap2\n      dup3\n      add\n    tag_310:\n      dup3\n      dup2\n      gt\n      iszero\n      tag_311\n      jumpi\n      dup3\n      mload\n      dup3\n      sstore\n      swap2\n      0x20\n      add\n      swap2\n      swap1\n      0x01\n      add\n      swap1\n      jump(tag_310)\n    tag_311:\n    tag_307:\n      pop\n      swap1\n      pop\n      tag_312\n      swap2\n      swap1\n      tag_313\n      jump\t// in\n    tag_312:\n      pop\n      swap1\n      jump\t// out\n    tag_208:\n      mload(0x40)\n      dup1\n      0xe0\n      add\n      0x40\n      mstore\n      dup1\n      0x60\n      dup2\n      mstore\n      0x20\n      add\n      0x60\n      dup2\n      mstore\n      0x20\n      add\n      0x60\n      dup2\n      mstore\n      0x20\n      add\n      0x60\n      dup2\n      mstore\n      0x20\n      add\n      0x60\n      dup2\n      mstore\n      0x20\n      add\n      0x60\n      dup2\n      mstore\n      0x20\n      add\n      0x60\n      dup2\n      mstore\n      pop\n      swap1\n      jump\t// out\n    tag_313:\n    tag_314:\n      dup1\n      dup3\n      gt\n      iszero\n      tag_315\n      jumpi\n      0x00\n      dup2\n      0x00\n      swap1\n      sstore\n      pop\n      0x01\n      add\n      jump(tag_314)\n    tag_315:\n      pop\n      swap1\n      jump\t// out\n        /* \"#utility.yul\":7:419   */\n    tag_317:\n        /* \"#utility.yul\":85:90   */\n      0x00\n        /* \"#utility.yul\":110:176   */\n      tag_319\n        /* \"#utility.yul\":126:175   */\n      tag_320\n        /* \"#utility.yul\":168:174   */\n      dup5\n        /* \"#utility.yul\":126:175   */\n      tag_321\n      jump\t// in\n    tag_320:\n        /* \"#utility.yul\":110:176   */\n      tag_322\n      jump\t// in\n    tag_319:\n        /* \"#utility.yul\":101:176   */\n      swap1\n      pop\n        /* \"#utility.yul\":199:205   */\n      dup3\n        /* \"#utility.yul\":192:197   */\n      dup2\n        /* \"#utility.yul\":185:206   */\n      mstore\n        /* \"#utility.yul\":237:241   */\n      0x20\n        /* \"#utility.yul\":230:235   */\n      dup2\n        /* \"#utility.yul\":226:242   */\n      add\n        /* \"#utility.yul\":275:278   */\n      dup5\n        /* \"#utility.yul\":266:272   */\n      dup5\n        /* \"#utility.yul\":261:264   */\n      dup5\n        /* \"#utility.yul\":257:273   */\n      add\n        /* \"#utility.yul\":254:279   */\n      gt\n        /* \"#utility.yul\":251:363   */\n      iszero\n      tag_323\n      jumpi\n        /* \"#utility.yul\":282:361   */\n      tag_324\n      tag_325\n      jump\t// in\n    tag_324:\n        /* \"#utility.yul\":251:363   */\n    tag_323:\n        /* \"#utility.yul\":372:413   */\n      tag_326\n        /* \"#utility.yul\":406:412   */\n      dup5\n        /* \"#utility.yul\":401:404   */\n      dup3\n        /* \"#utility.yul\":396:399   */\n      dup6\n        /* \"#utility.yul\":372:413   */\n      tag_327\n      jump\t// in\n    tag_326:\n        /* \"#utility.yul\":91:419   */\n      pop\n        /* \"#utility.yul\":7:419   */\n      swap4\n      swap3\n      pop\n      pop\n      pop\n      jump\t// out\n        /* \"#utility.yul\":425:564   */\n    tag_328:\n        /* \"#utility.yul\":471:476   */\n      0x00\n        /* \"#utility.yul\":509:515   */\n      dup2\n        /* \"#utility.yul\":496:516   */\n      calldataload\n        /* \"#utility.yul\":487:516   */\n      swap1\n      pop\n        /* \"#utility.yul\":525:558   */\n      tag_330\n        /* \"#utility.yul\":552:557   */\n      dup2\n        /* \"#utility.yul\":525:558   */\n      tag_331\n      jump\t// in\n    tag_330:\n        /* \"#utility.yul\":425:564   */\n      swap3\n      swap2\n      pop\n      pop\n      jump\t// out\n        /* \"#utility.yul\":570:723   */\n    tag_332:\n        /* \"#utility.yul\":623:628   */\n      0x00\n        /* \"#utility.yul\":661:667   */\n      dup2\n        /* \"#utility.yul\":648:668   */\n      calldataload\n        /* \"#utility.yul\":639:668   */\n      swap1\n      pop\n        /* \"#utility.yul\":677:717   */\n      tag_334\n        /* \"#utility.yul\":711:716   */\n      dup2\n        /* \"#utility.yul\":677:717   */\n      tag_335\n      jump\t// in\n    tag_334:\n        /* \"#utility.yul\":570:723   */\n      swap3\n      swap2\n      pop\n      pop\n      jump\t// out\n        /* \"#utility.yul\":743:1083   */\n    tag_336:\n        /* \"#utility.yul\":799:804   */\n      0x00\n        /* \"#utility.yul\":848:851   */\n      dup3\n        /* \"#utility.yul\":841:845   */\n      0x1f\n        /* \"#utility.yul\":833:839   */\n      dup4\n        /* \"#utility.yul\":829:846   */\n      add\n        /* \"#utility.yul\":825:852   */\n      slt\n        /* \"#utility.yul\":815:937   */\n      tag_338\n      jumpi\n        /* \"#utility.yul\":856:935   */\n      tag_339\n      tag_340\n      jump\t// in\n    tag_339:\n        /* \"#utility.yul\":815:937   */\n    tag_338:\n        /* \"#utility.yul\":973:979   */\n      dup2\n        /* \"#utility.yul\":960:980   */\n      calldataload\n        /* \"#utility.yul\":998:1077   */\n      tag_341\n        /* \"#utility.yul\":1073:1076   */\n      dup5\n        /* \"#utility.yul\":1065:1071   */\n      dup3\n        /* \"#utility.yul\":1058:1062   */\n      0x20\n        /* \"#utility.yul\":1050:1056   */\n      dup7\n        /* \"#utility.yul\":1046:1063   */\n      add\n        /* \"#utility.yul\":998:1077   */\n      tag_317\n      jump\t// in\n    tag_341:\n        /* \"#utility.yul\":989:1077   */\n      swap2\n      pop\n        /* \"#utility.yul\":805:1083   */\n      pop\n        /* \"#utility.yul\":743:1083   */\n      swap3\n      swap2\n      pop\n      pop\n      jump\t// out\n        /* \"#utility.yul\":1089:1228   */\n    tag_342:\n        /* \"#utility.yul\":1135:1140   */\n      0x00\n        /* \"#utility.yul\":1173:1179   */\n      dup2\n        /* \"#utility.yul\":1160:1180   */\n      calldataload\n        /* \"#utility.yul\":1151:1180   */\n      swap1\n      pop\n        /* \"#utility.yul\":1189:1222   */\n      tag_344\n        /* \"#utility.yul\":1216:1221   */\n      dup2\n        /* \"#utility.yul\":1189:1222   */\n      tag_345\n      jump\t// in\n    tag_344:\n        /* \"#utility.yul\":1089:1228   */\n      swap3\n      swap2\n      pop\n      pop\n      jump\t// out\n        /* \"#utility.yul\":1234:1563   */\n    tag_83:\n        /* \"#utility.yul\":1293:1299   */\n      0x00\n        /* \"#utility.yul\":1342:1344   */\n      0x20\n        /* \"#utility.yul\":1330:1339   */\n      dup3\n        /* \"#utility.yul\":1321:1328   */\n      dup5\n        /* \"#utility.yul\":1317:1340   */\n      sub\n        /* \"#utility.yul\":1313:1345   */\n      slt\n        /* \"#utility.yul\":1310:1429   */\n      iszero\n      tag_347\n      jumpi\n        /* \"#utility.yul\":1348:1427   */\n      tag_348\n      tag_349\n      jump\t// in\n    tag_348:\n        /* \"#utility.yul\":1310:1429   */\n    tag_347:\n        /* \"#utility.yul\":1468:1469   */\n      0x00\n        /* \"#utility.yul\":1493:1546   */\n      tag_350\n        /* \"#utility.yul\":1538:1545   */\n      dup5\n        /* \"#utility.yul\":1529:1535   */\n      dup3\n        /* \"#utility.yul\":1518:1527   */\n      dup6\n        /* \"#utility.yul\":1514:1536   */\n      add\n        /* \"#utility.yul\":1493:1546   */\n      tag_328\n      jump\t// in\n    tag_350:\n        /* \"#utility.yul\":1483:1546   */\n      swap2\n      pop\n        /* \"#utility.yul\":1439:1556   */\n      pop\n        /* \"#utility.yul\":1234:1563   */\n      swap3\n      swap2\n      pop\n      pop\n      jump\t// out\n        /* \"#utility.yul\":1569:2382   */\n    tag_29:\n        /* \"#utility.yul\":1663:1669   */\n      0x00\n        /* \"#utility.yul\":1671:1677   */\n      dup1\n        /* \"#utility.yul\":1679:1685   */\n      0x00\n        /* \"#utility.yul\":1728:1730   */\n      0x60\n        /* \"#utility.yul\":1716:1725   */\n      dup5\n        /* \"#utility.yul\":1707:1714   */\n      dup7\n        /* \"#utility.yul\":1703:1726   */\n      sub\n        /* \"#utility.yul\":1699:1731   */\n      slt\n        /* \"#utility.yul\":1696:1815   */\n      iszero\n      tag_352\n      jumpi\n        /* \"#utility.yul\":1734:1813   */\n      tag_353\n      tag_349\n      jump\t// in\n    tag_353:\n        /* \"#utility.yul\":1696:1815   */\n    tag_352:\n        /* \"#utility.yul\":1854:1855   */\n      0x00\n        /* \"#utility.yul\":1879:1932   */\n      tag_354\n        /* \"#utility.yul\":1924:1931   */\n      dup7\n        /* \"#utility.yul\":1915:1921   */\n      dup3\n        /* \"#utility.yul\":1904:1913   */\n      dup8\n        /* \"#utility.yul\":1900:1922   */\n      add\n        /* \"#utility.yul\":1879:1932   */\n      tag_328\n      jump\t// in\n    tag_354:\n        /* \"#utility.yul\":1869:1932   */\n      swap4\n      pop\n        /* \"#utility.yul\":1825:1942   */\n      pop\n        /* \"#utility.yul\":1981:1983   */\n      0x20\n        /* \"#utility.yul\":2007:2067   */\n      tag_355\n        /* \"#utility.yul\":2059:2066   */\n      dup7\n        /* \"#utility.yul\":2050:2056   */\n      dup3\n        /* \"#utility.yul\":2039:2048   */\n      dup8\n        /* \"#utility.yul\":2035:2057   */\n      add\n        /* \"#utility.yul\":2007:2067   */\n      tag_332\n      jump\t// in\n    tag_355:\n        /* \"#utility.yul\":1997:2067   */\n      swap3\n      pop\n        /* \"#utility.yul\":1952:2077   */\n      pop\n        /* \"#utility.yul\":2144:2146   */\n      0x40\n        /* \"#utility.yul\":2133:2142   */\n      dup5\n        /* \"#utility.yul\":2129:2147   */\n      add\n        /* \"#utility.yul\":2116:2148   */\n      calldataload\n        /* \"#utility.yul\":2175:2193   */\n      0xffffffffffffffff\n        /* \"#utility.yul\":2167:2173   */\n      dup2\n        /* \"#utility.yul\":2164:2194   */\n      gt\n        /* \"#utility.yul\":2161:2278   */\n      iszero\n      tag_356\n      jumpi\n        /* \"#utility.yul\":2197:2276   */\n      tag_357\n      tag_358\n      jump\t// in\n    tag_357:\n        /* \"#utility.yul\":2161:2278   */\n    tag_356:\n        /* \"#utility.yul\":2302:2365   */\n      tag_359\n        /* \"#utility.yul\":2357:2364   */\n      dup7\n        /* \"#utility.yul\":2348:2354   */\n      dup3\n        /* \"#utility.yul\":2337:2346   */\n      dup8\n        /* \"#utility.yul\":2333:2355   */\n      add\n        /* \"#utility.yul\":2302:2365   */\n      tag_336\n      jump\t// in\n    tag_359:\n        /* \"#utility.yul\":2292:2365   */\n      swap2\n      pop\n        /* \"#utility.yul\":2087:2375   */\n      pop\n        /* \"#utility.yul\":1569:2382   */\n      swap3\n      pop\n      swap3\n      pop\n      swap3\n      jump\t// out\n        /* \"#utility.yul\":2388:2862   */\n    tag_51:\n        /* \"#utility.yul\":2456:2462   */\n      0x00\n        /* \"#utility.yul\":2464:2470   */\n      dup1\n        /* \"#utility.yul\":2513:2515   */\n      0x40\n        /* \"#utility.yul\":2501:2510   */\n      dup4\n        /* \"#utility.yul\":2492:2499   */\n      dup6\n        /* \"#utility.yul\":2488:2511   */\n      sub\n        /* \"#utility.yul\":2484:2516   */\n      slt\n        /* \"#utility.yul\":2481:2600   */\n      iszero\n      tag_361\n      jumpi\n        /* \"#utility.yul\":2519:2598   */\n      tag_362\n      tag_349\n      jump\t// in\n    tag_362:\n        /* \"#utility.yul\":2481:2600   */\n    tag_361:\n        /* \"#utility.yul\":2639:2640   */\n      0x00\n        /* \"#utility.yul\":2664:2717   */\n      tag_363\n        /* \"#utility.yul\":2709:2716   */\n      dup6\n        /* \"#utility.yul\":2700:2706   */\n      dup3\n        /* \"#utility.yul\":2689:2698   */\n      dup7\n        /* \"#utility.yul\":2685:2707   */\n      add\n        /* \"#utility.yul\":2664:2717   */\n      tag_328\n      jump\t// in\n    tag_363:\n        /* \"#utility.yul\":2654:2717   */\n      swap3\n      pop\n        /* \"#utility.yul\":2610:2727   */\n      pop\n        /* \"#utility.yul\":2766:2768   */\n      0x20\n        /* \"#utility.yul\":2792:2845   */\n      tag_364\n        /* \"#utility.yul\":2837:2844   */\n      dup6\n        /* \"#utility.yul\":2828:2834   */\n      dup3\n        /* \"#utility.yul\":2817:2826   */\n      dup7\n        /* \"#utility.yul\":2813:2835   */\n      add\n        /* \"#utility.yul\":2792:2845   */\n      tag_342\n      jump\t// in\n    tag_364:\n        /* \"#utility.yul\":2782:2845   */\n      swap2\n      pop\n        /* \"#utility.yul\":2737:2855   */\n      pop\n        /* \"#utility.yul\":2388:2862   */\n      swap3\n      pop\n      swap3\n      swap1\n      pop\n      jump\t// out\n        /* \"#utility.yul\":2868:3197   */\n    tag_44:\n        /* \"#utility.yul\":2927:2933   */\n      0x00\n        /* \"#utility.yul\":2976:2978   */\n      0x20\n        /* \"#utility.yul\":2964:2973   */\n      dup3\n        /* \"#utility.yul\":2955:2962   */\n      dup5\n        /* \"#utility.yul\":2951:2974   */\n      sub\n        /* \"#utility.yul\":2947:2979   */\n      slt\n        /* \"#utility.yul\":2944:3063   */\n      iszero\n      tag_366\n      jumpi\n        /* \"#utility.yul\":2982:3061   */\n      tag_367\n      tag_349\n      jump\t// in\n    tag_367:\n        /* \"#utility.yul\":2944:3063   */\n    tag_366:\n        /* \"#utility.yul\":3102:3103   */\n      0x00\n        /* \"#utility.yul\":3127:3180   */\n      tag_368\n        /* \"#utility.yul\":3172:3179   */\n      dup5\n        /* \"#utility.yul\":3163:3169   */\n      dup3\n        /* \"#utility.yul\":3152:3161   */\n      dup6\n        /* \"#utility.yul\":3148:3170   */\n      add\n        /* \"#utility.yul\":3127:3180   */\n      tag_342\n      jump\t// in\n    tag_368:\n        /* \"#utility.yul\":3117:3180   */\n      swap2\n      pop\n        /* \"#utility.yul\":3073:3190   */\n      pop\n        /* \"#utility.yul\":2868:3197   */\n      swap3\n      swap2\n      pop\n      pop\n      jump\t// out\n        /* \"#utility.yul\":3203:5812   */\n    tag_101:\n        /* \"#utility.yul\":3395:3401   */\n      0x00\n        /* \"#utility.yul\":3403:3409   */\n      dup1\n        /* \"#utility.yul\":3411:3417   */\n      0x00\n        /* \"#utility.yul\":3419:3425   */\n      dup1\n        /* \"#utility.yul\":3427:3433   */\n      0x00\n        /* \"#utility.yul\":3435:3441   */\n      dup1\n        /* \"#utility.yul\":3443:3449   */\n      0x00\n        /* \"#utility.yul\":3451:3457   */\n      dup1\n        /* \"#utility.yul\":3500:3503   */\n      0x0100\n        /* \"#utility.yul\":3488:3497   */\n      dup10\n        /* \"#utility.yul\":3479:3486   */\n      dup12\n        /* \"#utility.yul\":3475:3498   */\n      sub\n        /* \"#utility.yul\":3471:3504   */\n      slt\n        /* \"#utility.yul\":3468:3588   */\n      iszero\n      tag_370\n      jumpi\n        /* \"#utility.yul\":3507:3586   */\n      tag_371\n      tag_349\n      jump\t// in\n    tag_371:\n        /* \"#utility.yul\":3468:3588   */\n    tag_370:\n        /* \"#utility.yul\":3627:3628   */\n      0x00\n        /* \"#utility.yul\":3652:3705   */\n      tag_372\n        /* \"#utility.yul\":3697:3704   */\n      dup12\n        /* \"#utility.yul\":3688:3694   */\n      dup3\n        /* \"#utility.yul\":3677:3686   */\n      dup13\n        /* \"#utility.yul\":3673:3695   */\n      add\n        /* \"#utility.yul\":3652:3705   */\n      tag_342\n      jump\t// in\n    tag_372:\n        /* \"#utility.yul\":3642:3705   */\n      swap9\n      pop\n        /* \"#utility.yul\":3598:3715   */\n      pop\n        /* \"#utility.yul\":3782:3784   */\n      0x20\n        /* \"#utility.yul\":3771:3780   */\n      dup10\n        /* \"#utility.yul\":3767:3785   */\n      add\n        /* \"#utility.yul\":3754:3786   */\n      calldataload\n        /* \"#utility.yul\":3813:3831   */\n      0xffffffffffffffff\n        /* \"#utility.yul\":3805:3811   */\n      dup2\n        /* \"#utility.yul\":3802:3832   */\n      gt\n        /* \"#utility.yul\":3799:3916   */\n      iszero\n      tag_373\n      jumpi\n        /* \"#utility.yul\":3835:3914   */\n      tag_374\n      tag_358\n      jump\t// in\n    tag_374:\n        /* \"#utility.yul\":3799:3916   */\n    tag_373:\n        /* \"#utility.yul\":3940:4003   */\n      tag_375\n        /* \"#utility.yul\":3995:4002   */\n      dup12\n        /* \"#utility.yul\":3986:3992   */\n      dup3\n        /* \"#utility.yul\":3975:3984   */\n      dup13\n        /* \"#utility.yul\":3971:3993   */\n      add\n        /* \"#utility.yul\":3940:4003   */\n      tag_336\n      jump\t// in\n    tag_375:\n        /* \"#utility.yul\":3930:4003   */\n      swap8\n      pop\n        /* \"#utility.yul\":3725:4013   */\n      pop\n        /* \"#utility.yul\":4080:4082   */\n      0x40\n        /* \"#utility.yul\":4069:4078   */\n      dup10\n        /* \"#utility.yul\":4065:4083   */\n      add\n        /* \"#utility.yul\":4052:4084   */\n      calldataload\n        /* \"#utility.yul\":4111:4129   */\n      0xffffffffffffffff\n        /* \"#utility.yul\":4103:4109   */\n      dup2\n        /* \"#utility.yul\":4100:4130   */\n      gt\n        /* \"#utility.yul\":4097:4214   */\n      iszero\n      tag_376\n      jumpi\n        /* \"#utility.yul\":4133:4212   */\n      tag_377\n      tag_358\n      jump\t// in\n    tag_377:\n        /* \"#utility.yul\":4097:4214   */\n    tag_376:\n        /* \"#utility.yul\":4238:4301   */\n      tag_378\n        /* \"#utility.yul\":4293:4300   */\n      dup12\n        /* \"#utility.yul\":4284:4290   */\n      dup3\n        /* \"#utility.yul\":4273:4282   */\n      dup13\n        /* \"#utility.yul\":4269:4291   */\n      add\n        /* \"#utility.yul\":4238:4301   */\n      tag_336\n      jump\t// in\n    tag_378:\n        /* \"#utility.yul\":4228:4301   */\n      swap7\n      pop\n        /* \"#utility.yul\":4023:4311   */\n      pop\n        /* \"#utility.yul\":4378:4380   */\n      0x60\n        /* \"#utility.yul\":4367:4376   */\n      dup10\n        /* \"#utility.yul\":4363:4381   */\n      add\n        /* \"#utility.yul\":4350:4382   */\n      calldataload\n        /* \"#utility.yul\":4409:4427   */\n      0xffffffffffffffff\n        /* \"#utility.yul\":4401:4407   */\n      dup2\n        /* \"#utility.yul\":4398:4428   */\n      gt\n        /* \"#utility.yul\":4395:4512   */\n      iszero\n      tag_379\n      jumpi\n        /* \"#utility.yul\":4431:4510   */\n      tag_380\n      tag_358\n      jump\t// in\n    tag_380:\n        /* \"#utility.yul\":4395:4512   */\n    tag_379:\n        /* \"#utility.yul\":4536:4599   */\n      tag_381\n        /* \"#utility.yul\":4591:4598   */\n      dup12\n        /* \"#utility.yul\":4582:4588   */\n      dup3\n        /* \"#utility.yul\":4571:4580   */\n      dup13\n        /* \"#utility.yul\":4567:4589   */\n      add\n        /* \"#utility.yul\":4536:4599   */\n      tag_336\n      jump\t// in\n    tag_381:\n        /* \"#utility.yul\":4526:4599   */\n      swap6\n      pop\n        /* \"#utility.yul\":4321:4609   */\n      pop\n        /* \"#utility.yul\":4676:4679   */\n      0x80\n        /* \"#utility.yul\":4665:4674   */\n      dup10\n        /* \"#utility.yul\":4661:4680   */\n      add\n        /* \"#utility.yul\":4648:4681   */\n      calldataload\n        /* \"#utility.yul\":4708:4726   */\n      0xffffffffffffffff\n        /* \"#utility.yul\":4700:4706   */\n      dup2\n        /* \"#utility.yul\":4697:4727   */\n      gt\n        /* \"#utility.yul\":4694:4811   */\n      iszero\n      tag_382\n      jumpi\n        /* \"#utility.yul\":4730:4809   */\n      tag_383\n      tag_358\n      jump\t// in\n    tag_383:\n        /* \"#utility.yul\":4694:4811   */\n    tag_382:\n        /* \"#utility.yul\":4835:4898   */\n      tag_384\n        /* \"#utility.yul\":4890:4897   */\n      dup12\n        /* \"#utility.yul\":4881:4887   */\n      dup3\n        /* \"#utility.yul\":4870:4879   */\n      dup13\n        /* \"#utility.yul\":4866:4888   */\n      add\n        /* \"#utility.yul\":4835:4898   */\n      tag_336\n      jump\t// in\n    tag_384:\n        /* \"#utility.yul\":4825:4898   */\n      swap5\n      pop\n        /* \"#utility.yul\":4619:4908   */\n      pop\n        /* \"#utility.yul\":4975:4978   */\n      0xa0\n        /* \"#utility.yul\":4964:4973   */\n      dup10\n        /* \"#utility.yul\":4960:4979   */\n      add\n        /* \"#utility.yul\":4947:4980   */\n      calldataload\n        /* \"#utility.yul\":5007:5025   */\n      0xffffffffffffffff\n        /* \"#utility.yul\":4999:5005   */\n      dup2\n        /* \"#utility.yul\":4996:5026   */\n      gt\n        /* \"#utility.yul\":4993:5110   */\n      iszero\n      tag_385\n      jumpi\n        /* \"#utility.yul\":5029:5108   */\n      tag_386\n      tag_358\n      jump\t// in\n    tag_386:\n        /* \"#utility.yul\":4993:5110   */\n    tag_385:\n        /* \"#utility.yul\":5134:5197   */\n      tag_387\n        /* \"#utility.yul\":5189:5196   */\n      dup12\n        /* \"#utility.yul\":5180:5186   */\n      dup3\n        /* \"#utility.yul\":5169:5178   */\n      dup13\n        /* \"#utility.yul\":5165:5187   */\n      add\n        /* \"#utility.yul\":5134:5197   */\n      tag_336\n      jump\t// in\n    tag_387:\n        /* \"#utility.yul\":5124:5197   */\n      swap4\n      pop\n        /* \"#utility.yul\":4918:5207   */\n      pop\n        /* \"#utility.yul\":5274:5277   */\n      0xc0\n        /* \"#utility.yul\":5263:5272   */\n      dup10\n        /* \"#utility.yul\":5259:5278   */\n      add\n        /* \"#utility.yul\":5246:5279   */\n      calldataload\n        /* \"#utility.yul\":5306:5324   */\n      0xffffffffffffffff\n        /* \"#utility.yul\":5298:5304   */\n      dup2\n        /* \"#utility.yul\":5295:5325   */\n      gt\n        /* \"#utility.yul\":5292:5409   */\n      iszero\n      tag_388\n      jumpi\n        /* \"#utility.yul\":5328:5407   */\n      tag_389\n      tag_358\n      jump\t// in\n    tag_389:\n        /* \"#utility.yul\":5292:5409   */\n    tag_388:\n        /* \"#utility.yul\":5433:5496   */\n      tag_390\n        /* \"#utility.yul\":5488:5495   */\n      dup12\n        /* \"#utility.yul\":5479:5485   */\n      dup3\n        /* \"#utility.yul\":5468:5477   */\n      dup13\n        /* \"#utility.yul\":5464:5486   */\n      add\n        /* \"#utility.yul\":5433:5496   */\n      tag_336\n      jump\t// in\n    tag_390:\n        /* \"#utility.yul\":5423:5496   */\n      swap3\n      pop\n        /* \"#utility.yul\":5217:5506   */\n      pop\n        /* \"#utility.yul\":5573:5576   */\n      0xe0\n        /* \"#utility.yul\":5562:5571   */\n      dup10\n        /* \"#utility.yul\":5558:5577   */\n      add\n        /* \"#utility.yul\":5545:5578   */\n      calldataload\n        /* \"#utility.yul\":5605:5623   */\n      0xffffffffffffffff\n        /* \"#utility.yul\":5597:5603   */\n      dup2\n        /* \"#utility.yul\":5594:5624   */\n      gt\n        /* \"#utility.yul\":5591:5708   */\n      iszero\n      tag_391\n      jumpi\n        /* \"#utility.yul\":5627:5706   */\n      tag_392\n      tag_358\n      jump\t// in\n    tag_392:\n        /* \"#utility.yul\":5591:5708   */\n    tag_391:\n        /* \"#utility.yul\":5732:5795   */\n      tag_393\n        /* \"#utility.yul\":5787:5794   */\n      dup12\n        /* \"#utility.yul\":5778:5784   */\n      dup3\n        /* \"#utility.yul\":5767:5776   */\n      dup13\n        /* \"#utility.yul\":5763:5785   */\n      add\n        /* \"#utility.yul\":5732:5795   */\n      tag_336\n      jump\t// in\n    tag_393:\n        /* \"#utility.yul\":5722:5795   */\n      swap2\n      pop\n        /* \"#utility.yul\":5516:5805   */\n      pop\n        /* \"#utility.yul\":3203:5812   */\n      swap3\n      swap6\n      swap9\n      pop\n      swap3\n      swap6\n      swap9\n      swap1\n      swap4\n      swap7\n      pop\n      jump\t// out\n        /* \"#utility.yul\":5818:6292   */\n    tag_34:\n        /* \"#utility.yul\":5886:5892   */\n      0x00\n        /* \"#utility.yul\":5894:5900   */\n      dup1\n        /* \"#utility.yul\":5943:5945   */\n      0x40\n        /* \"#utility.yul\":5931:5940   */\n      dup4\n        /* \"#utility.yul\":5922:5929   */\n      dup6\n        /* \"#utility.yul\":5918:5941   */\n      sub\n        /* \"#utility.yul\":5914:5946   */\n      slt\n        /* \"#utility.yul\":5911:6030   */\n      iszero\n      tag_395\n      jumpi\n        /* \"#utility.yul\":5949:6028   */\n      tag_396\n      tag_349\n      jump\t// in\n    tag_396:\n        /* \"#utility.yul\":5911:6030   */\n    tag_395:\n        /* \"#utility.yul\":6069:6070   */\n      0x00\n        /* \"#utility.yul\":6094:6147   */\n      tag_397\n        /* \"#utility.yul\":6139:6146   */\n      dup6\n        /* \"#utility.yul\":6130:6136   */\n      dup3\n        /* \"#utility.yul\":6119:6128   */\n      dup7\n        /* \"#utility.yul\":6115:6137   */\n      add\n        /* \"#utility.yul\":6094:6147   */\n      tag_342\n      jump\t// in\n    tag_397:\n        /* \"#utility.yul\":6084:6147   */\n      swap3\n      pop\n        /* \"#utility.yul\":6040:6157   */\n      pop\n        /* \"#utility.yul\":6196:6198   */\n      0x20\n        /* \"#utility.yul\":6222:6275   */\n      tag_398\n        /* \"#utility.yul\":6267:6274   */\n      dup6\n        /* \"#utility.yul\":6258:6264   */\n      dup3\n        /* \"#utility.yul\":6247:6256   */\n      dup7\n        /* \"#utility.yul\":6243:6265   */\n      add\n        /* \"#utility.yul\":6222:6275   */\n      tag_342\n      jump\t// in\n    tag_398:\n        /* \"#utility.yul\":6212:6275   */\n      swap2\n      pop\n        /* \"#utility.yul\":6167:6285   */\n      pop\n        /* \"#utility.yul\":5818:6292   */\n      swap3\n      pop\n      swap3\n      swap1\n      pop\n      jump\t// out\n        /* \"#utility.yul\":6298:9199   */\n    tag_39:\n        /* \"#utility.yul\":6508:6514   */\n      0x00\n        /* \"#utility.yul\":6516:6522   */\n      dup1\n        /* \"#utility.yul\":6524:6530   */\n      0x00\n        /* \"#utility.yul\":6532:6538   */\n      dup1\n        /* \"#utility.yul\":6540:6546   */\n      0x00\n        /* \"#utility.yul\":6548:6554   */\n      dup1\n        /* \"#utility.yul\":6556:6562   */\n      0x00\n        /* \"#utility.yul\":6564:6570   */\n      dup1\n        /* \"#utility.yul\":6572:6578   */\n      0x00\n        /* \"#utility.yul\":6580:6586   */\n      dup1\n        /* \"#utility.yul\":6629:6632   */\n      0x0140\n        /* \"#utility.yul\":6617:6626   */\n      dup12\n        /* \"#utility.yul\":6608:6615   */\n      dup14\n        /* \"#utility.yul\":6604:6627   */\n      sub\n        /* \"#utility.yul\":6600:6633   */\n      slt\n        /* \"#utility.yul\":6597:6717   */\n      iszero\n      tag_400\n      jumpi\n        /* \"#utility.yul\":6636:6715   */\n      tag_401\n      tag_349\n      jump\t// in\n    tag_401:\n        /* \"#utility.yul\":6597:6717   */\n    tag_400:\n        /* \"#utility.yul\":6756:6757   */\n      0x00\n        /* \"#utility.yul\":6781:6834   */\n      tag_402\n        /* \"#utility.yul\":6826:6833   */\n      dup14\n        /* \"#utility.yul\":6817:6823   */\n      dup3\n        /* \"#utility.yul\":6806:6815   */\n      dup15\n        /* \"#utility.yul\":6802:6824   */\n      add\n        /* \"#utility.yul\":6781:6834   */\n      tag_342\n      jump\t// in\n    tag_402:\n        /* \"#utility.yul\":6771:6834   */\n      swap11\n      pop\n        /* \"#utility.yul\":6727:6844   */\n      pop\n        /* \"#utility.yul\":6883:6885   */\n      0x20\n        /* \"#utility.yul\":6909:6962   */\n      tag_403\n        /* \"#utility.yul\":6954:6961   */\n      dup14\n        /* \"#utility.yul\":6945:6951   */\n      dup3\n        /* \"#utility.yul\":6934:6943   */\n      dup15\n        /* \"#utility.yul\":6930:6952   */\n      add\n        /* \"#utility.yul\":6909:6962   */\n      tag_342\n      jump\t// in\n    tag_403:\n        /* \"#utility.yul\":6899:6962   */\n      swap10\n      pop\n        /* \"#utility.yul\":6854:6972   */\n      pop\n        /* \"#utility.yul\":7011:7013   */\n      0x40\n        /* \"#utility.yul\":7037:7090   */\n      tag_404\n        /* \"#utility.yul\":7082:7089   */\n      dup14\n        /* \"#utility.yul\":7073:7079   */\n      dup3\n        /* \"#utility.yul\":7062:7071   */\n      dup15\n        /* \"#utility.yul\":7058:7080   */\n      add\n        /* \"#utility.yul\":7037:7090   */\n      tag_342\n      jump\t// in\n    tag_404:\n        /* \"#utility.yul\":7027:7090   */\n      swap9\n      pop\n        /* \"#utility.yul\":6982:7100   */\n      pop\n        /* \"#utility.yul\":7167:7169   */\n      0x60\n        /* \"#utility.yul\":7156:7165   */\n      dup12\n        /* \"#utility.yul\":7152:7170   */\n      add\n        /* \"#utility.yul\":7139:7171   */\n      calldataload\n        /* \"#utility.yul\":7198:7216   */\n      0xffffffffffffffff\n        /* \"#utility.yul\":7190:7196   */\n      dup2\n        /* \"#utility.yul\":7187:7217   */\n      gt\n        /* \"#utility.yul\":7184:7301   */\n      iszero\n      tag_405\n      jumpi\n        /* \"#utility.yul\":7220:7299   */\n      tag_406\n      tag_358\n      jump\t// in\n    tag_406:\n        /* \"#utility.yul\":7184:7301   */\n    tag_405:\n        /* \"#utility.yul\":7325:7388   */\n      tag_407\n        /* \"#utility.yul\":7380:7387   */\n      dup14\n        /* \"#utility.yul\":7371:7377   */\n      dup3\n        /* \"#utility.yul\":7360:7369   */\n      dup15\n        /* \"#utility.yul\":7356:7378   */\n      add\n        /* \"#utility.yul\":7325:7388   */\n      tag_336\n      jump\t// in\n    tag_407:\n        /* \"#utility.yul\":7315:7388   */\n      swap8\n      pop\n        /* \"#utility.yul\":7110:7398   */\n      pop\n        /* \"#utility.yul\":7465:7468   */\n      0x80\n        /* \"#utility.yul\":7454:7463   */\n      dup12\n        /* \"#utility.yul\":7450:7469   */\n      add\n        /* \"#utility.yul\":7437:7470   */\n      calldataload\n        /* \"#utility.yul\":7497:7515   */\n      0xffffffffffffffff\n        /* \"#utility.yul\":7489:7495   */\n      dup2\n        /* \"#utility.yul\":7486:7516   */\n      gt\n        /* \"#utility.yul\":7483:7600   */\n      iszero\n      tag_408\n      jumpi\n        /* \"#utility.yul\":7519:7598   */\n      tag_409\n      tag_358\n      jump\t// in\n    tag_409:\n        /* \"#utility.yul\":7483:7600   */\n    tag_408:\n        /* \"#utility.yul\":7624:7687   */\n      tag_410\n        /* \"#utility.yul\":7679:7686   */\n      dup14\n        /* \"#utility.yul\":7670:7676   */\n      dup3\n        /* \"#utility.yul\":7659:7668   */\n      dup15\n        /* \"#utility.yul\":7655:7677   */\n      add\n        /* \"#utility.yul\":7624:7687   */\n      tag_336\n      jump\t// in\n    tag_410:\n        /* \"#utility.yul\":7614:7687   */\n      swap7\n      pop\n        /* \"#utility.yul\":7408:7697   */\n      pop\n        /* \"#utility.yul\":7764:7767   */\n      0xa0\n        /* \"#utility.yul\":7753:7762   */\n      dup12\n        /* \"#utility.yul\":7749:7768   */\n      add\n        /* \"#utility.yul\":7736:7769   */\n      calldataload\n        /* \"#utility.yul\":7796:7814   */\n      0xffffffffffffffff\n        /* \"#utility.yul\":7788:7794   */\n      dup2\n        /* \"#utility.yul\":7785:7815   */\n      gt\n        /* \"#utility.yul\":7782:7899   */\n      iszero\n      tag_411\n      jumpi\n        /* \"#utility.yul\":7818:7897   */\n      tag_412\n      tag_358\n      jump\t// in\n    tag_412:\n        /* \"#utility.yul\":7782:7899   */\n    tag_411:\n        /* \"#utility.yul\":7923:7986   */\n      tag_413\n        /* \"#utility.yul\":7978:7985   */\n      dup14\n        /* \"#utility.yul\":7969:7975   */\n      dup3\n        /* \"#utility.yul\":7958:7967   */\n      dup15\n        /* \"#utility.yul\":7954:7976   */\n      add\n        /* \"#utility.yul\":7923:7986   */\n      tag_336\n      jump\t// in\n    tag_413:\n        /* \"#utility.yul\":7913:7986   */\n      swap6\n      pop\n        /* \"#utility.yul\":7707:7996   */\n      pop\n        /* \"#utility.yul\":8063:8066   */\n      0xc0\n        /* \"#utility.yul\":8052:8061   */\n      dup12\n        /* \"#utility.yul\":8048:8067   */\n      add\n        /* \"#utility.yul\":8035:8068   */\n      calldataload\n        /* \"#utility.yul\":8095:8113   */\n      0xffffffffffffffff\n        /* \"#utility.yul\":8087:8093   */\n      dup2\n        /* \"#utility.yul\":8084:8114   */\n      gt\n        /* \"#utility.yul\":8081:8198   */\n      iszero\n      tag_414\n      jumpi\n        /* \"#utility.yul\":8117:8196   */\n      tag_415\n      tag_358\n      jump\t// in\n    tag_415:\n        /* \"#utility.yul\":8081:8198   */\n    tag_414:\n        /* \"#utility.yul\":8222:8285   */\n      tag_416\n        /* \"#utility.yul\":8277:8284   */\n      dup14\n        /* \"#utility.yul\":8268:8274   */\n      dup3\n        /* \"#utility.yul\":8257:8266   */\n      dup15\n        /* \"#utility.yul\":8253:8275   */\n      add\n        /* \"#utility.yul\":8222:8285   */\n      tag_336\n      jump\t// in\n    tag_416:\n        /* \"#utility.yul\":8212:8285   */\n      swap5\n      pop\n        /* \"#utility.yul\":8006:8295   */\n      pop\n        /* \"#utility.yul\":8362:8365   */\n      0xe0\n        /* \"#utility.yul\":8351:8360   */\n      dup12\n        /* \"#utility.yul\":8347:8366   */\n      add\n        /* \"#utility.yul\":8334:8367   */\n      calldataload\n        /* \"#utility.yul\":8394:8412   */\n      0xffffffffffffffff\n        /* \"#utility.yul\":8386:8392   */\n      dup2\n        /* \"#utility.yul\":8383:8413   */\n      gt\n        /* \"#utility.yul\":8380:8497   */\n      iszero\n      tag_417\n      jumpi\n        /* \"#utility.yul\":8416:8495   */\n      tag_418\n      tag_358\n      jump\t// in\n    tag_418:\n        /* \"#utility.yul\":8380:8497   */\n    tag_417:\n        /* \"#utility.yul\":8521:8584   */\n      tag_419\n        /* \"#utility.yul\":8576:8583   */\n      dup14\n        /* \"#utility.yul\":8567:8573   */\n      dup3\n        /* \"#utility.yul\":8556:8565   */\n      dup15\n        /* \"#utility.yul\":8552:8574   */\n      add\n        /* \"#utility.yul\":8521:8584   */\n      tag_336\n      jump\t// in\n    tag_419:\n        /* \"#utility.yul\":8511:8584   */\n      swap4\n      pop\n        /* \"#utility.yul\":8305:8594   */\n      pop\n        /* \"#utility.yul\":8661:8664   */\n      0x0100\n        /* \"#utility.yul\":8650:8659   */\n      dup12\n        /* \"#utility.yul\":8646:8665   */\n      add\n        /* \"#utility.yul\":8633:8666   */\n      calldataload\n        /* \"#utility.yul\":8693:8711   */\n      0xffffffffffffffff\n        /* \"#utility.yul\":8685:8691   */\n      dup2\n        /* \"#utility.yul\":8682:8712   */\n      gt\n        /* \"#utility.yul\":8679:8796   */\n      iszero\n      tag_420\n      jumpi\n        /* \"#utility.yul\":8715:8794   */\n      tag_421\n      tag_358\n      jump\t// in\n    tag_421:\n        /* \"#utility.yul\":8679:8796   */\n    tag_420:\n        /* \"#utility.yul\":8820:8883   */\n      tag_422\n        /* \"#utility.yul\":8875:8882   */\n      dup14\n        /* \"#utility.yul\":8866:8872   */\n      dup3\n        /* \"#utility.yul\":8855:8864   */\n      dup15\n        /* \"#utility.yul\":8851:8873   */\n      add\n        /* \"#utility.yul\":8820:8883   */\n      tag_336\n      jump\t// in\n    tag_422:\n        /* \"#utility.yul\":8810:8883   */\n      swap3\n      pop\n        /* \"#utility.yul\":8604:8893   */\n      pop\n        /* \"#utility.yul\":8960:8963   */\n      0x0120\n        /* \"#utility.yul\":8949:8958   */\n      dup12\n        /* \"#utility.yul\":8945:8964   */\n      add\n        /* \"#utility.yul\":8932:8965   */\n      calldataload\n        /* \"#utility.yul\":8992:9010   */\n      0xffffffffffffffff\n        /* \"#utility.yul\":8984:8990   */\n      dup2\n        /* \"#utility.yul\":8981:9011   */\n      gt\n        /* \"#utility.yul\":8978:9095   */\n      iszero\n      tag_423\n      jumpi\n        /* \"#utility.yul\":9014:9093   */\n      tag_424\n      tag_358\n      jump\t// in\n    tag_424:\n        /* \"#utility.yul\":8978:9095   */\n    tag_423:\n        /* \"#utility.yul\":9119:9182   */\n      tag_425\n        /* \"#utility.yul\":9174:9181   */\n      dup14\n        /* \"#utility.yul\":9165:9171   */\n      dup3\n        /* \"#utility.yul\":9154:9163   */\n      dup15\n        /* \"#utility.yul\":9150:9172   */\n      add\n        /* \"#utility.yul\":9119:9182   */\n      tag_336\n      jump\t// in\n    tag_425:\n        /* \"#utility.yul\":9109:9182   */\n      swap2\n      pop\n        /* \"#utility.yul\":8903:9192   */\n      pop\n        /* \"#utility.yul\":6298:9199   */\n      swap3\n      swap6\n      swap9\n      swap12\n      swap2\n      swap5\n      swap8\n      swap11\n      pop\n      swap3\n      swap6\n      swap9\n      pop\n      jump\t// out\n        /* \"#utility.yul\":9205:9347   */\n    tag_426:\n        /* \"#utility.yul\":9308:9340   */\n      tag_428\n        /* \"#utility.yul\":9334:9339   */\n      dup2\n        /* \"#utility.yul\":9308:9340   */\n      tag_429\n      jump\t// in\n    tag_428:\n        /* \"#utility.yul\":9303:9306   */\n      dup3\n        /* \"#utility.yul\":9296:9341   */\n      mstore\n        /* \"#utility.yul\":9205:9347   */\n      pop\n      pop\n      jump\t// out\n        /* \"#utility.yul\":9353:9471   */\n    tag_430:\n        /* \"#utility.yul\":9440:9464   */\n      tag_432\n        /* \"#utility.yul\":9458:9463   */\n      dup2\n        /* \"#utility.yul\":9440:9464   */\n      tag_433\n      jump\t// in\n    tag_432:\n        /* \"#utility.yul\":9435:9438   */\n      dup3\n        /* \"#utility.yul\":9428:9465   */\n      mstore\n        /* \"#utility.yul\":9353:9471   */\n      pop\n      pop\n      jump\t// out\n        /* \"#utility.yul\":9477:9586   */\n    tag_434:\n        /* \"#utility.yul\":9558:9579   */\n      tag_436\n        /* \"#utility.yul\":9573:9578   */\n      dup2\n        /* \"#utility.yul\":9558:9579   */\n      tag_437\n      jump\t// in\n    tag_436:\n        /* \"#utility.yul\":9553:9556   */\n      dup3\n        /* \"#utility.yul\":9546:9580   */\n      mstore\n        /* \"#utility.yul\":9477:9586   */\n      pop\n      pop\n      jump\t// out\n        /* \"#utility.yul\":9592:9733   */\n    tag_438:\n        /* \"#utility.yul\":9684:9726   */\n      tag_440\n        /* \"#utility.yul\":9720:9725   */\n      dup2\n        /* \"#utility.yul\":9684:9726   */\n      tag_441\n      jump\t// in\n    tag_440:\n        /* \"#utility.yul\":9679:9682   */\n      dup3\n        /* \"#utility.yul\":9672:9727   */\n      mstore\n        /* \"#utility.yul\":9592:9733   */\n      pop\n      pop\n      jump\t// out\n        /* \"#utility.yul\":9739:9882   */\n    tag_442:\n        /* \"#utility.yul\":9832:9875   */\n      tag_444\n        /* \"#utility.yul\":9869:9874   */\n      dup2\n        /* \"#utility.yul\":9832:9875   */\n      tag_445\n      jump\t// in\n    tag_444:\n        /* \"#utility.yul\":9827:9830   */\n      dup3\n        /* \"#utility.yul\":9820:9876   */\n      mstore\n        /* \"#utility.yul\":9739:9882   */\n      pop\n      pop\n      jump\t// out\n        /* \"#utility.yul\":9888:10232   */\n    tag_446:\n        /* \"#utility.yul\":9966:9969   */\n      0x00\n        /* \"#utility.yul\":9994:10033   */\n      tag_448\n        /* \"#utility.yul\":10027:10032   */\n      dup3\n        /* \"#utility.yul\":9994:10033   */\n      tag_449\n      jump\t// in\n    tag_448:\n        /* \"#utility.yul\":10049:10110   */\n      tag_450\n        /* \"#utility.yul\":10103:10109   */\n      dup2\n        /* \"#utility.yul\":10098:10101   */\n      dup6\n        /* \"#utility.yul\":10049:10110   */\n      tag_451\n      jump\t// in\n    tag_450:\n        /* \"#utility.yul\":10042:10110   */\n      swap4\n      pop\n        /* \"#utility.yul\":10119:10171   */\n      tag_452\n        /* \"#utility.yul\":10164:10170   */\n      dup2\n        /* \"#utility.yul\":10159:10162   */\n      dup6\n        /* \"#utility.yul\":10152:10156   */\n      0x20\n        /* \"#utility.yul\":10145:10150   */\n      dup7\n        /* \"#utility.yul\":10141:10157   */\n      add\n        /* \"#utility.yul\":10119:10171   */\n      tag_453\n      jump\t// in\n    tag_452:\n        /* \"#utility.yul\":10196:10225   */\n      tag_454\n        /* \"#utility.yul\":10218:10224   */\n      dup2\n        /* \"#utility.yul\":10196:10225   */\n      tag_455\n      jump\t// in\n    tag_454:\n        /* \"#utility.yul\":10191:10194   */\n      dup5\n        /* \"#utility.yul\":10187:10226   */\n      add\n        /* \"#utility.yul\":10180:10226   */\n      swap2\n      pop\n        /* \"#utility.yul\":9970:10232   */\n      pop\n        /* \"#utility.yul\":9888:10232   */\n      swap3\n      swap2\n      pop\n      pop\n      jump\t// out\n        /* \"#utility.yul\":10238:10602   */\n    tag_456:\n        /* \"#utility.yul\":10326:10329   */\n      0x00\n        /* \"#utility.yul\":10354:10393   */\n      tag_458\n        /* \"#utility.yul\":10387:10392   */\n      dup3\n        /* \"#utility.yul\":10354:10393   */\n      tag_449\n      jump\t// in\n    tag_458:\n        /* \"#utility.yul\":10409:10480   */\n      tag_459\n        /* \"#utility.yul\":10473:10479   */\n      dup2\n        /* \"#utility.yul\":10468:10471   */\n      dup6\n        /* \"#utility.yul\":10409:10480   */\n      tag_460\n      jump\t// in\n    tag_459:\n        /* \"#utility.yul\":10402:10480   */\n      swap4\n      pop\n        /* \"#utility.yul\":10489:10541   */\n      tag_461\n        /* \"#utility.yul\":10534:10540   */\n      dup2\n        /* \"#utility.yul\":10529:10532   */\n      dup6\n        /* \"#utility.yul\":10522:10526   */\n      0x20\n        /* \"#utility.yul\":10515:10520   */\n      dup7\n        /* \"#utility.yul\":10511:10527   */\n      add\n        /* \"#utility.yul\":10489:10541   */\n      tag_453\n      jump\t// in\n    tag_461:\n        /* \"#utility.yul\":10566:10595   */\n      tag_462\n        /* \"#utility.yul\":10588:10594   */\n      dup2\n        /* \"#utility.yul\":10566:10595   */\n      tag_455\n      jump\t// in\n    tag_462:\n        /* \"#utility.yul\":10561:10564   */\n      dup5\n        /* \"#utility.yul\":10557:10596   */\n      add\n        /* \"#utility.yul\":10550:10596   */\n      swap2\n      pop\n        /* \"#utility.yul\":10330:10602   */\n      pop\n        /* \"#utility.yul\":10238:10602   */\n      swap3\n      swap2\n      pop\n      pop\n      jump\t// out\n        /* \"#utility.yul\":10608:10974   */\n    tag_463:\n        /* \"#utility.yul\":10750:10753   */\n      0x00\n        /* \"#utility.yul\":10771:10838   */\n      tag_465\n        /* \"#utility.yul\":10835:10837   */\n      0x1c\n        /* \"#utility.yul\":10830:10833   */\n      dup4\n        /* \"#utility.yul\":10771:10838   */\n      tag_460\n      jump\t// in\n    tag_465:\n        /* \"#utility.yul\":10764:10838   */\n      swap2\n      pop\n        /* \"#utility.yul\":10847:10940   */\n      tag_466\n        /* \"#utility.yul\":10936:10939   */\n      dup3\n        /* \"#utility.yul\":10847:10940   */\n      tag_467\n      jump\t// in\n    tag_466:\n        /* \"#utility.yul\":10965:10967   */\n      0x20\n        /* \"#utility.yul\":10960:10963   */\n      dup3\n        /* \"#utility.yul\":10956:10968   */\n      add\n        /* \"#utility.yul\":10949:10968   */\n      swap1\n      pop\n        /* \"#utility.yul\":10608:10974   */\n      swap2\n      swap1\n      pop\n      jump\t// out\n        /* \"#utility.yul\":10980:11346   */\n    tag_468:\n        /* \"#utility.yul\":11122:11125   */\n      0x00\n        /* \"#utility.yul\":11143:11210   */\n      tag_470\n        /* \"#utility.yul\":11207:11209   */\n      0x19\n        /* \"#utility.yul\":11202:11205   */\n      dup4\n        /* \"#utility.yul\":11143:11210   */\n      tag_460\n      jump\t// in\n    tag_470:\n        /* \"#utility.yul\":11136:11210   */\n      swap2\n      pop\n        /* \"#utility.yul\":11219:11312   */\n      tag_471\n        /* \"#utility.yul\":11308:11311   */\n      dup3\n        /* \"#utility.yul\":11219:11312   */\n      tag_472\n      jump\t// in\n    tag_471:\n        /* \"#utility.yul\":11337:11339   */\n      0x20\n        /* \"#utility.yul\":11332:11335   */\n      dup3\n        /* \"#utility.yul\":11328:11340   */\n      add\n        /* \"#utility.yul\":11321:11340   */\n      swap1\n      pop\n        /* \"#utility.yul\":10980:11346   */\n      swap2\n      swap1\n      pop\n      jump\t// out\n        /* \"#utility.yul\":11352:11718   */\n    tag_473:\n        /* \"#utility.yul\":11494:11497   */\n      0x00\n        /* \"#utility.yul\":11515:11582   */\n      tag_475\n        /* \"#utility.yul\":11579:11581   */\n      0x1e\n        /* \"#utility.yul\":11574:11577   */\n      dup4\n        /* \"#utility.yul\":11515:11582   */\n      tag_460\n      jump\t// in\n    tag_475:\n        /* \"#utility.yul\":11508:11582   */\n      swap2\n      pop\n        /* \"#utility.yul\":11591:11684   */\n      tag_476\n        /* \"#utility.yul\":11680:11683   */\n      dup3\n        /* \"#utility.yul\":11591:11684   */\n      tag_477\n      jump\t// in\n    tag_476:\n        /* \"#utility.yul\":11709:11711   */\n      0x20\n        /* \"#utility.yul\":11704:11707   */\n      dup3\n        /* \"#utility.yul\":11700:11712   */\n      add\n        /* \"#utility.yul\":11693:11712   */\n      swap1\n      pop\n        /* \"#utility.yul\":11352:11718   */\n      swap2\n      swap1\n      pop\n      jump\t// out\n        /* \"#utility.yul\":11784:13690   */\n    tag_478:\n        /* \"#utility.yul\":11899:11902   */\n      0x00\n        /* \"#utility.yul\":11935:11939   */\n      0xe0\n        /* \"#utility.yul\":11930:11933   */\n      dup4\n        /* \"#utility.yul\":11926:11940   */\n      add\n        /* \"#utility.yul\":12022:12026   */\n      0x00\n        /* \"#utility.yul\":12015:12020   */\n      dup4\n        /* \"#utility.yul\":12011:12027   */\n      add\n        /* \"#utility.yul\":12005:12028   */\n      mload\n        /* \"#utility.yul\":12075:12078   */\n      dup5\n        /* \"#utility.yul\":12069:12073   */\n      dup3\n        /* \"#utility.yul\":12065:12079   */\n      sub\n        /* \"#utility.yul\":12058:12062   */\n      0x00\n        /* \"#utility.yul\":12053:12056   */\n      dup7\n        /* \"#utility.yul\":12049:12063   */\n      add\n        /* \"#utility.yul\":12042:12080   */\n      mstore\n        /* \"#utility.yul\":12101:12174   */\n      tag_480\n        /* \"#utility.yul\":12169:12173   */\n      dup3\n        /* \"#utility.yul\":12155:12167   */\n      dup3\n        /* \"#utility.yul\":12101:12174   */\n      tag_446\n      jump\t// in\n    tag_480:\n        /* \"#utility.yul\":12093:12174   */\n      swap2\n      pop\n        /* \"#utility.yul\":11950:12185   */\n      pop\n        /* \"#utility.yul\":12268:12272   */\n      0x20\n        /* \"#utility.yul\":12261:12266   */\n      dup4\n        /* \"#utility.yul\":12257:12273   */\n      add\n        /* \"#utility.yul\":12251:12274   */\n      mload\n        /* \"#utility.yul\":12321:12324   */\n      dup5\n        /* \"#utility.yul\":12315:12319   */\n      dup3\n        /* \"#utility.yul\":12311:12325   */\n      sub\n        /* \"#utility.yul\":12304:12308   */\n      0x20\n        /* \"#utility.yul\":12299:12302   */\n      dup7\n        /* \"#utility.yul\":12295:12309   */\n      add\n        /* \"#utility.yul\":12288:12326   */\n      mstore\n        /* \"#utility.yul\":12347:12420   */\n      tag_481\n        /* \"#utility.yul\":12415:12419   */\n      dup3\n        /* \"#utility.yul\":12401:12413   */\n      dup3\n        /* \"#utility.yul\":12347:12420   */\n      tag_446\n      jump\t// in\n    tag_481:\n        /* \"#utility.yul\":12339:12420   */\n      swap2\n      pop\n        /* \"#utility.yul\":12195:12431   */\n      pop\n        /* \"#utility.yul\":12513:12517   */\n      0x40\n        /* \"#utility.yul\":12506:12511   */\n      dup4\n        /* \"#utility.yul\":12502:12518   */\n      add\n        /* \"#utility.yul\":12496:12519   */\n      mload\n        /* \"#utility.yul\":12566:12569   */\n      dup5\n        /* \"#utility.yul\":12560:12564   */\n      dup3\n        /* \"#utility.yul\":12556:12570   */\n      sub\n        /* \"#utility.yul\":12549:12553   */\n      0x40\n        /* \"#utility.yul\":12544:12547   */\n      dup7\n        /* \"#utility.yul\":12540:12554   */\n      add\n        /* \"#utility.yul\":12533:12571   */\n      mstore\n        /* \"#utility.yul\":12592:12665   */\n      tag_482\n        /* \"#utility.yul\":12660:12664   */\n      dup3\n        /* \"#utility.yul\":12646:12658   */\n      dup3\n        /* \"#utility.yul\":12592:12665   */\n      tag_446\n      jump\t// in\n    tag_482:\n        /* \"#utility.yul\":12584:12665   */\n      swap2\n      pop\n        /* \"#utility.yul\":12441:12676   */\n      pop\n        /* \"#utility.yul\":12760:12764   */\n      0x60\n        /* \"#utility.yul\":12753:12758   */\n      dup4\n        /* \"#utility.yul\":12749:12765   */\n      add\n        /* \"#utility.yul\":12743:12766   */\n      mload\n        /* \"#utility.yul\":12813:12816   */\n      dup5\n        /* \"#utility.yul\":12807:12811   */\n      dup3\n        /* \"#utility.yul\":12803:12817   */\n      sub\n        /* \"#utility.yul\":12796:12800   */\n      0x60\n        /* \"#utility.yul\":12791:12794   */\n      dup7\n        /* \"#utility.yul\":12787:12801   */\n      add\n        /* \"#utility.yul\":12780:12818   */\n      mstore\n        /* \"#utility.yul\":12839:12912   */\n      tag_483\n        /* \"#utility.yul\":12907:12911   */\n      dup3\n        /* \"#utility.yul\":12893:12905   */\n      dup3\n        /* \"#utility.yul\":12839:12912   */\n      tag_446\n      jump\t// in\n    tag_483:\n        /* \"#utility.yul\":12831:12912   */\n      swap2\n      pop\n        /* \"#utility.yul\":12686:12923   */\n      pop\n        /* \"#utility.yul\":13007:13011   */\n      0x80\n        /* \"#utility.yul\":13000:13005   */\n      dup4\n        /* \"#utility.yul\":12996:13012   */\n      add\n        /* \"#utility.yul\":12990:13013   */\n      mload\n        /* \"#utility.yul\":13060:13063   */\n      dup5\n        /* \"#utility.yul\":13054:13058   */\n      dup3\n        /* \"#utility.yul\":13050:13064   */\n      sub\n        /* \"#utility.yul\":13043:13047   */\n      0x80\n        /* \"#utility.yul\":13038:13041   */\n      dup7\n        /* \"#utility.yul\":13034:13048   */\n      add\n        /* \"#utility.yul\":13027:13065   */\n      mstore\n        /* \"#utility.yul\":13086:13159   */\n      tag_484\n        /* \"#utility.yul\":13154:13158   */\n      dup3\n        /* \"#utility.yul\":13140:13152   */\n      dup3\n        /* \"#utility.yul\":13086:13159   */\n      tag_446\n      jump\t// in\n    tag_484:\n        /* \"#utility.yul\":13078:13159   */\n      swap2\n      pop\n        /* \"#utility.yul\":12933:13170   */\n      pop\n        /* \"#utility.yul\":13253:13257   */\n      0xa0\n        /* \"#utility.yul\":13246:13251   */\n      dup4\n        /* \"#utility.yul\":13242:13258   */\n      add\n        /* \"#utility.yul\":13236:13259   */\n      mload\n        /* \"#utility.yul\":13306:13309   */\n      dup5\n        /* \"#utility.yul\":13300:13304   */\n      dup3\n        /* \"#utility.yul\":13296:13310   */\n      sub\n        /* \"#utility.yul\":13289:13293   */\n      0xa0\n        /* \"#utility.yul\":13284:13287   */\n      dup7\n        /* \"#utility.yul\":13280:13294   */\n      add\n        /* \"#utility.yul\":13273:13311   */\n      mstore\n        /* \"#utility.yul\":13332:13405   */\n      tag_485\n        /* \"#utility.yul\":13400:13404   */\n      dup3\n        /* \"#utility.yul\":13386:13398   */\n      dup3\n        /* \"#utility.yul\":13332:13405   */\n      tag_446\n      jump\t// in\n    tag_485:\n        /* \"#utility.yul\":13324:13405   */\n      swap2\n      pop\n        /* \"#utility.yul\":13180:13416   */\n      pop\n        /* \"#utility.yul\":13500:13504   */\n      0xc0\n        /* \"#utility.yul\":13493:13498   */\n      dup4\n        /* \"#utility.yul\":13489:13505   */\n      add\n        /* \"#utility.yul\":13483:13506   */\n      mload\n        /* \"#utility.yul\":13553:13556   */\n      dup5\n        /* \"#utility.yul\":13547:13551   */\n      dup3\n        /* \"#utility.yul\":13543:13557   */\n      sub\n        /* \"#utility.yul\":13536:13540   */\n      0xc0\n        /* \"#utility.yul\":13531:13534   */\n      dup7\n        /* \"#utility.yul\":13527:13541   */\n      add\n        /* \"#utility.yul\":13520:13558   */\n      mstore\n        /* \"#utility.yul\":13579:13652   */\n      tag_486\n        /* \"#utility.yul\":13647:13651   */\n      dup3\n        /* \"#utility.yul\":13633:13645   */\n      dup3\n        /* \"#utility.yul\":13579:13652   */\n      tag_446\n      jump\t// in\n    tag_486:\n        /* \"#utility.yul\":13571:13652   */\n      swap2\n      pop\n        /* \"#utility.yul\":13426:13663   */\n      pop\n        /* \"#utility.yul\":13680:13684   */\n      dup1\n        /* \"#utility.yul\":13673:13684   */\n      swap2\n      pop\n        /* \"#utility.yul\":11904:13690   */\n      pop\n        /* \"#utility.yul\":11784:13690   */\n      swap3\n      swap2\n      pop\n      pop\n      jump\t// out\n        /* \"#utility.yul\":13696:13814   */\n    tag_487:\n        /* \"#utility.yul\":13783:13807   */\n      tag_489\n        /* \"#utility.yul\":13801:13806   */\n      dup2\n        /* \"#utility.yul\":13783:13807   */\n      tag_490\n      jump\t// in\n    tag_489:\n        /* \"#utility.yul\":13778:13781   */\n      dup3\n        /* \"#utility.yul\":13771:13808   */\n      mstore\n        /* \"#utility.yul\":13696:13814   */\n      pop\n      pop\n      jump\t// out\n        /* \"#utility.yul\":13820:14074   */\n    tag_77:\n        /* \"#utility.yul\":13929:13933   */\n      0x00\n        /* \"#utility.yul\":13967:13969   */\n      0x20\n        /* \"#utility.yul\":13956:13965   */\n      dup3\n        /* \"#utility.yul\":13952:13970   */\n      add\n        /* \"#utility.yul\":13944:13970   */\n      swap1\n      pop\n        /* \"#utility.yul\":13980:14067   */\n      tag_492\n        /* \"#utility.yul\":14064:14065   */\n      0x00\n        /* \"#utility.yul\":14053:14062   */\n      dup4\n        /* \"#utility.yul\":14049:14066   */\n      add\n        /* \"#utility.yul\":14040:14046   */\n      dup5\n        /* \"#utility.yul\":13980:14067   */\n      tag_426\n      jump\t// in\n    tag_492:\n        /* \"#utility.yul\":13820:14074   */\n      swap3\n      swap2\n      pop\n      pop\n      jump\t// out\n        /* \"#utility.yul\":14080:14290   */\n    tag_54:\n        /* \"#utility.yul\":14167:14171   */\n      0x00\n        /* \"#utility.yul\":14205:14207   */\n      0x20\n        /* \"#utility.yul\":14194:14203   */\n      dup3\n        /* \"#utility.yul\":14190:14208   */\n      add\n        /* \"#utility.yul\":14182:14208   */\n      swap1\n      pop\n        /* \"#utility.yul\":14218:14283   */\n      tag_494\n        /* \"#utility.yul\":14280:14281   */\n      0x00\n        /* \"#utility.yul\":14269:14278   */\n      dup4\n        /* \"#utility.yul\":14265:14282   */\n      add\n        /* \"#utility.yul\":14256:14262   */\n      dup5\n        /* \"#utility.yul\":14218:14283   */\n      tag_434\n      jump\t// in\n    tag_494:\n        /* \"#utility.yul\":14080:14290   */\n      swap3\n      swap2\n      pop\n      pop\n      jump\t// out\n        /* \"#utility.yul\":14296:14729   */\n    tag_86:\n        /* \"#utility.yul\":14442:14446   */\n      0x00\n        /* \"#utility.yul\":14480:14482   */\n      0x40\n        /* \"#utility.yul\":14469:14478   */\n      dup3\n        /* \"#utility.yul\":14465:14483   */\n      add\n        /* \"#utility.yul\":14457:14483   */\n      swap1\n      pop\n        /* \"#utility.yul\":14493:14569   */\n      tag_496\n        /* \"#utility.yul\":14566:14567   */\n      0x00\n        /* \"#utility.yul\":14555:14564   */\n      dup4\n        /* \"#utility.yul\":14551:14568   */\n      add\n        /* \"#utility.yul\":14542:14548   */\n      dup6\n        /* \"#utility.yul\":14493:14569   */\n      tag_438\n      jump\t// in\n    tag_496:\n        /* \"#utility.yul\":14616:14625   */\n      dup2\n        /* \"#utility.yul\":14610:14614   */\n      dup2\n        /* \"#utility.yul\":14606:14626   */\n      sub\n        /* \"#utility.yul\":14601:14603   */\n      0x20\n        /* \"#utility.yul\":14590:14599   */\n      dup4\n        /* \"#utility.yul\":14586:14604   */\n      add\n        /* \"#utility.yul\":14579:14627   */\n      mstore\n        /* \"#utility.yul\":14644:14722   */\n      tag_497\n        /* \"#utility.yul\":14717:14721   */\n      dup2\n        /* \"#utility.yul\":14708:14714   */\n      dup5\n        /* \"#utility.yul\":14644:14722   */\n      tag_456\n      jump\t// in\n    tag_497:\n        /* \"#utility.yul\":14636:14722   */\n      swap1\n      pop\n        /* \"#utility.yul\":14296:14729   */\n      swap4\n      swap3\n      pop\n      pop\n      pop\n      jump\t// out\n        /* \"#utility.yul\":14735:15048   */\n    tag_25:\n        /* \"#utility.yul\":14848:14852   */\n      0x00\n        /* \"#utility.yul\":14886:14888   */\n      0x20\n        /* \"#utility.yul\":14875:14884   */\n      dup3\n        /* \"#utility.yul\":14871:14889   */\n      add\n        /* \"#utility.yul\":14863:14889   */\n      swap1\n      pop\n        /* \"#utility.yul\":14935:14944   */\n      dup2\n        /* \"#utility.yul\":14929:14933   */\n      dup2\n        /* \"#utility.yul\":14925:14945   */\n      sub\n        /* \"#utility.yul\":14921:14922   */\n      0x00\n        /* \"#utility.yul\":14910:14919   */\n      dup4\n        /* \"#utility.yul\":14906:14923   */\n      add\n        /* \"#utility.yul\":14899:14946   */\n      mstore\n        /* \"#utility.yul\":14963:15041   */\n      tag_499\n        /* \"#utility.yul\":15036:15040   */\n      dup2\n        /* \"#utility.yul\":15027:15033   */\n      dup5\n        /* \"#utility.yul\":14963:15041   */\n      tag_456\n      jump\t// in\n    tag_499:\n        /* \"#utility.yul\":14955:15041   */\n      swap1\n      pop\n        /* \"#utility.yul\":14735:15048   */\n      swap3\n      swap2\n      pop\n      pop\n      jump\t// out\n        /* \"#utility.yul\":15054:15473   */\n    tag_135:\n        /* \"#utility.yul\":15220:15224   */\n      0x00\n        /* \"#utility.yul\":15258:15260   */\n      0x20\n        /* \"#utility.yul\":15247:15256   */\n      dup3\n        /* \"#utility.yul\":15243:15261   */\n      add\n        /* \"#utility.yul\":15235:15261   */\n      swap1\n      pop\n        /* \"#utility.yul\":15307:15316   */\n      dup2\n        /* \"#utility.yul\":15301:15305   */\n      dup2\n        /* \"#utility.yul\":15297:15317   */\n      sub\n        /* \"#utility.yul\":15293:15294   */\n      0x00\n        /* \"#utility.yul\":15282:15291   */\n      dup4\n        /* \"#utility.yul\":15278:15295   */\n      add\n        /* \"#utility.yul\":15271:15318   */\n      mstore\n        /* \"#utility.yul\":15335:15466   */\n      tag_501\n        /* \"#utility.yul\":15461:15465   */\n      dup2\n        /* \"#utility.yul\":15335:15466   */\n      tag_463\n      jump\t// in\n    tag_501:\n        /* \"#utility.yul\":15327:15466   */\n      swap1\n      pop\n        /* \"#utility.yul\":15054:15473   */\n      swap2\n      swap1\n      pop\n      jump\t// out\n        /* \"#utility.yul\":15479:15898   */\n    tag_153:\n        /* \"#utility.yul\":15645:15649   */\n      0x00\n        /* \"#utility.yul\":15683:15685   */\n      0x20\n        /* \"#utility.yul\":15672:15681   */\n      dup3\n        /* \"#utility.yul\":15668:15686   */\n      add\n        /* \"#utility.yul\":15660:15686   */\n      swap1\n      pop\n        /* \"#utility.yul\":15732:15741   */\n      dup2\n        /* \"#utility.yul\":15726:15730   */\n      dup2\n        /* \"#utility.yul\":15722:15742   */\n      sub\n        /* \"#utility.yul\":15718:15719   */\n      0x00\n        /* \"#utility.yul\":15707:15716   */\n      dup4\n        /* \"#utility.yul\":15703:15720   */\n      add\n        /* \"#utility.yul\":15696:15743   */\n      mstore\n        /* \"#utility.yul\":15760:15891   */\n      tag_503\n        /* \"#utility.yul\":15886:15890   */\n      dup2\n        /* \"#utility.yul\":15760:15891   */\n      tag_468\n      jump\t// in\n    tag_503:\n        /* \"#utility.yul\":15752:15891   */\n      swap1\n      pop\n        /* \"#utility.yul\":15479:15898   */\n      swap2\n      swap1\n      pop\n      jump\t// out\n        /* \"#utility.yul\":15904:16323   */\n    tag_253:\n        /* \"#utility.yul\":16070:16074   */\n      0x00\n        /* \"#utility.yul\":16108:16110   */\n      0x20\n        /* \"#utility.yul\":16097:16106   */\n      dup3\n        /* \"#utility.yul\":16093:16111   */\n      add\n        /* \"#utility.yul\":16085:16111   */\n      swap1\n      pop\n        /* \"#utility.yul\":16157:16166   */\n      dup2\n        /* \"#utility.yul\":16151:16155   */\n      dup2\n        /* \"#utility.yul\":16147:16167   */\n      sub\n        /* \"#utility.yul\":16143:16144   */\n      0x00\n        /* \"#utility.yul\":16132:16141   */\n      dup4\n        /* \"#utility.yul\":16128:16145   */\n      add\n        /* \"#utility.yul\":16121:16168   */\n      mstore\n        /* \"#utility.yul\":16185:16316   */\n      tag_505\n        /* \"#utility.yul\":16311:16315   */\n      dup2\n        /* \"#utility.yul\":16185:16316   */\n      tag_473\n      jump\t// in\n    tag_505:\n        /* \"#utility.yul\":16177:16316   */\n      swap1\n      pop\n        /* \"#utility.yul\":15904:16323   */\n      swap2\n      swap1\n      pop\n      jump\t// out\n        /* \"#utility.yul\":16329:16551   */\n    tag_92:\n        /* \"#utility.yul\":16422:16426   */\n      0x00\n        /* \"#utility.yul\":16460:16462   */\n      0x20\n        /* \"#utility.yul\":16449:16458   */\n      dup3\n        /* \"#utility.yul\":16445:16463   */\n      add\n        /* \"#utility.yul\":16437:16463   */\n      swap1\n      pop\n        /* \"#utility.yul\":16473:16544   */\n      tag_507\n        /* \"#utility.yul\":16541:16542   */\n      0x00\n        /* \"#utility.yul\":16530:16539   */\n      dup4\n        /* \"#utility.yul\":16526:16543   */\n      add\n        /* \"#utility.yul\":16517:16523   */\n      dup5\n        /* \"#utility.yul\":16473:16544   */\n      tag_487\n      jump\t// in\n    tag_507:\n        /* \"#utility.yul\":16329:16551   */\n      swap3\n      swap2\n      pop\n      pop\n      jump\t// out\n        /* \"#utility.yul\":16557:17820   */\n    tag_60:\n        /* \"#utility.yul\":16926:16930   */\n      0x00\n        /* \"#utility.yul\":16964:16967   */\n      0x0120\n        /* \"#utility.yul\":16953:16962   */\n      dup3\n        /* \"#utility.yul\":16949:16968   */\n      add\n        /* \"#utility.yul\":16941:16968   */\n      swap1\n      pop\n        /* \"#utility.yul\":16978:17049   */\n      tag_509\n        /* \"#utility.yul\":17046:17047   */\n      0x00\n        /* \"#utility.yul\":17035:17044   */\n      dup4\n        /* \"#utility.yul\":17031:17048   */\n      add\n        /* \"#utility.yul\":17022:17028   */\n      dup13\n        /* \"#utility.yul\":16978:17049   */\n      tag_487\n      jump\t// in\n    tag_509:\n        /* \"#utility.yul\":17059:17131   */\n      tag_510\n        /* \"#utility.yul\":17127:17129   */\n      0x20\n        /* \"#utility.yul\":17116:17125   */\n      dup4\n        /* \"#utility.yul\":17112:17130   */\n      add\n        /* \"#utility.yul\":17103:17109   */\n      dup12\n        /* \"#utility.yul\":17059:17131   */\n      tag_430\n      jump\t// in\n    tag_510:\n        /* \"#utility.yul\":17141:17213   */\n      tag_511\n        /* \"#utility.yul\":17209:17211   */\n      0x40\n        /* \"#utility.yul\":17198:17207   */\n      dup4\n        /* \"#utility.yul\":17194:17212   */\n      add\n        /* \"#utility.yul\":17185:17191   */\n      dup11\n        /* \"#utility.yul\":17141:17213   */\n      tag_430\n      jump\t// in\n    tag_511:\n        /* \"#utility.yul\":17223:17301   */\n      tag_512\n        /* \"#utility.yul\":17297:17299   */\n      0x60\n        /* \"#utility.yul\":17286:17295   */\n      dup4\n        /* \"#utility.yul\":17282:17300   */\n      add\n        /* \"#utility.yul\":17273:17279   */\n      dup10\n        /* \"#utility.yul\":17223:17301   */\n      tag_442\n      jump\t// in\n    tag_512:\n        /* \"#utility.yul\":17311:17384   */\n      tag_513\n        /* \"#utility.yul\":17379:17382   */\n      0x80\n        /* \"#utility.yul\":17368:17377   */\n      dup4\n        /* \"#utility.yul\":17364:17383   */\n      add\n        /* \"#utility.yul\":17355:17361   */\n      dup9\n        /* \"#utility.yul\":17311:17384   */\n      tag_487\n      jump\t// in\n    tag_513:\n        /* \"#utility.yul\":17394:17467   */\n      tag_514\n        /* \"#utility.yul\":17462:17465   */\n      0xa0\n        /* \"#utility.yul\":17451:17460   */\n      dup4\n        /* \"#utility.yul\":17447:17466   */\n      add\n        /* \"#utility.yul\":17438:17444   */\n      dup8\n        /* \"#utility.yul\":17394:17467   */\n      tag_430\n      jump\t// in\n    tag_514:\n        /* \"#utility.yul\":17477:17550   */\n      tag_515\n        /* \"#utility.yul\":17545:17548   */\n      0xc0\n        /* \"#utility.yul\":17534:17543   */\n      dup4\n        /* \"#utility.yul\":17530:17549   */\n      add\n        /* \"#utility.yul\":17521:17527   */\n      dup7\n        /* \"#utility.yul\":17477:17550   */\n      tag_430\n      jump\t// in\n    tag_515:\n        /* \"#utility.yul\":17560:17633   */\n      tag_516\n        /* \"#utility.yul\":17628:17631   */\n      0xe0\n        /* \"#utility.yul\":17617:17626   */\n      dup4\n        /* \"#utility.yul\":17613:17632   */\n      add\n        /* \"#utility.yul\":17604:17610   */\n      dup6\n        /* \"#utility.yul\":17560:17633   */\n      tag_430\n      jump\t// in\n    tag_516:\n        /* \"#utility.yul\":17681:17690   */\n      dup2\n        /* \"#utility.yul\":17675:17679   */\n      dup2\n        /* \"#utility.yul\":17671:17691   */\n      sub\n        /* \"#utility.yul\":17665:17668   */\n      0x0100\n        /* \"#utility.yul\":17654:17663   */\n      dup4\n        /* \"#utility.yul\":17650:17669   */\n      add\n        /* \"#utility.yul\":17643:17692   */\n      mstore\n        /* \"#utility.yul\":17709:17813   */\n      tag_517\n        /* \"#utility.yul\":17808:17812   */\n      dup2\n        /* \"#utility.yul\":17799:17805   */\n      dup5\n        /* \"#utility.yul\":17709:17813   */\n      tag_478\n      jump\t// in\n    tag_517:\n        /* \"#utility.yul\":17701:17813   */\n      swap1\n      pop\n        /* \"#utility.yul\":16557:17820   */\n      swap11\n      swap10\n      pop\n      pop\n      pop\n      pop\n      pop\n      pop\n      pop\n      pop\n      pop\n      pop\n      jump\t// out\n        /* \"#utility.yul\":17826:19807   */\n    tag_47:\n        /* \"#utility.yul\":18346:18350   */\n      0x00\n        /* \"#utility.yul\":18384:18387   */\n      0x0160\n        /* \"#utility.yul\":18373:18382   */\n      dup3\n        /* \"#utility.yul\":18369:18388   */\n      add\n        /* \"#utility.yul\":18361:18388   */\n      swap1\n      pop\n        /* \"#utility.yul\":18398:18469   */\n      tag_519\n        /* \"#utility.yul\":18466:18467   */\n      0x00\n        /* \"#utility.yul\":18455:18464   */\n      dup4\n        /* \"#utility.yul\":18451:18468   */\n      add\n        /* \"#utility.yul\":18442:18448   */\n      dup15\n        /* \"#utility.yul\":18398:18469   */\n      tag_487\n      jump\t// in\n    tag_519:\n        /* \"#utility.yul\":18479:18551   */\n      tag_520\n        /* \"#utility.yul\":18547:18549   */\n      0x20\n        /* \"#utility.yul\":18536:18545   */\n      dup4\n        /* \"#utility.yul\":18532:18550   */\n      add\n        /* \"#utility.yul\":18523:18529   */\n      dup14\n        /* \"#utility.yul\":18479:18551   */\n      tag_430\n      jump\t// in\n    tag_520:\n        /* \"#utility.yul\":18561:18639   */\n      tag_521\n        /* \"#utility.yul\":18635:18637   */\n      0x40\n        /* \"#utility.yul\":18624:18633   */\n      dup4\n        /* \"#utility.yul\":18620:18638   */\n      add\n        /* \"#utility.yul\":18611:18617   */\n      dup13\n        /* \"#utility.yul\":18561:18639   */\n      tag_442\n      jump\t// in\n    tag_521:\n        /* \"#utility.yul\":18649:18721   */\n      tag_522\n        /* \"#utility.yul\":18717:18719   */\n      0x60\n        /* \"#utility.yul\":18706:18715   */\n      dup4\n        /* \"#utility.yul\":18702:18720   */\n      add\n        /* \"#utility.yul\":18693:18699   */\n      dup12\n        /* \"#utility.yul\":18649:18721   */\n      tag_487\n      jump\t// in\n    tag_522:\n        /* \"#utility.yul\":18769:18778   */\n      dup2\n        /* \"#utility.yul\":18763:18767   */\n      dup2\n        /* \"#utility.yul\":18759:18779   */\n      sub\n        /* \"#utility.yul\":18753:18756   */\n      0x80\n        /* \"#utility.yul\":18742:18751   */\n      dup4\n        /* \"#utility.yul\":18738:18757   */\n      add\n        /* \"#utility.yul\":18731:18780   */\n      mstore\n        /* \"#utility.yul\":18797:18875   */\n      tag_523\n        /* \"#utility.yul\":18870:18874   */\n      dup2\n        /* \"#utility.yul\":18861:18867   */\n      dup11\n        /* \"#utility.yul\":18797:18875   */\n      tag_456\n      jump\t// in\n    tag_523:\n        /* \"#utility.yul\":18789:18875   */\n      swap1\n      pop\n        /* \"#utility.yul\":18923:18932   */\n      dup2\n        /* \"#utility.yul\":18917:18921   */\n      dup2\n        /* \"#utility.yul\":18913:18933   */\n      sub\n        /* \"#utility.yul\":18907:18910   */\n      0xa0\n        /* \"#utility.yul\":18896:18905   */\n      dup4\n        /* \"#utility.yul\":18892:18911   */\n      add\n        /* \"#utility.yul\":18885:18934   */\n      mstore\n        /* \"#utility.yul\":18951:19029   */\n      tag_524\n        /* \"#utility.yul\":19024:19028   */\n      dup2\n        /* \"#utility.yul\":19015:19021   */\n      dup10\n        /* \"#utility.yul\":18951:19029   */\n      tag_456\n      jump\t// in\n    tag_524:\n        /* \"#utility.yul\":18943:19029   */\n      swap1\n      pop\n        /* \"#utility.yul\":19077:19086   */\n      dup2\n        /* \"#utility.yul\":19071:19075   */\n      dup2\n        /* \"#utility.yul\":19067:19087   */\n      sub\n        /* \"#utility.yul\":19061:19064   */\n      0xc0\n        /* \"#utility.yul\":19050:19059   */\n      dup4\n        /* \"#utility.yul\":19046:19065   */\n      add\n        /* \"#utility.yul\":19039:19088   */\n      mstore\n        /* \"#utility.yul\":19105:19183   */\n      tag_525\n        /* \"#utility.yul\":19178:19182   */\n      dup2\n        /* \"#utility.yul\":19169:19175   */\n      dup9\n        /* \"#utility.yul\":19105:19183   */\n      tag_456\n      jump\t// in\n    tag_525:\n        /* \"#utility.yul\":19097:19183   */\n      swap1\n      pop\n        /* \"#utility.yul\":19231:19240   */\n      dup2\n        /* \"#utility.yul\":19225:19229   */\n      dup2\n        /* \"#utility.yul\":19221:19241   */\n      sub\n        /* \"#utility.yul\":19215:19218   */\n      0xe0\n        /* \"#utility.yul\":19204:19213   */\n      dup4\n        /* \"#utility.yul\":19200:19219   */\n      add\n        /* \"#utility.yul\":19193:19242   */\n      mstore\n        /* \"#utility.yul\":19259:19337   */\n      tag_526\n        /* \"#utility.yul\":19332:19336   */\n      dup2\n        /* \"#utility.yul\":19323:19329   */\n      dup8\n        /* \"#utility.yul\":19259:19337   */\n      tag_456\n      jump\t// in\n    tag_526:\n        /* \"#utility.yul\":19251:19337   */\n      swap1\n      pop\n        /* \"#utility.yul\":19385:19394   */\n      dup2\n        /* \"#utility.yul\":19379:19383   */\n      dup2\n        /* \"#utility.yul\":19375:19395   */\n      sub\n        /* \"#utility.yul\":19369:19372   */\n      0x0100\n        /* \"#utility.yul\":19358:19367   */\n      dup4\n        /* \"#utility.yul\":19354:19373   */\n      add\n        /* \"#utility.yul\":19347:19396   */\n      mstore\n        /* \"#utility.yul\":19413:19491   */\n      tag_527\n        /* \"#utility.yul\":19486:19490   */\n      dup2\n        /* \"#utility.yul\":19477:19483   */\n      dup7\n        /* \"#utility.yul\":19413:19491   */\n      tag_456\n      jump\t// in\n    tag_527:\n        /* \"#utility.yul\":19405:19491   */\n      swap1\n      pop\n        /* \"#utility.yul\":19539:19548   */\n      dup2\n        /* \"#utility.yul\":19533:19537   */\n      dup2\n        /* \"#utility.yul\":19529:19549   */\n      sub\n        /* \"#utility.yul\":19523:19526   */\n      0x0120\n        /* \"#utility.yul\":19512:19521   */\n      dup4\n        /* \"#utility.yul\":19508:19527   */\n      add\n        /* \"#utility.yul\":19501:19550   */\n      mstore\n        /* \"#utility.yul\":19567:19645   */\n      tag_528\n        /* \"#utility.yul\":19640:19644   */\n      dup2\n        /* \"#utility.yul\":19631:19637   */\n      dup6\n        /* \"#utility.yul\":19567:19645   */\n      tag_456\n      jump\t// in\n    tag_528:\n        /* \"#utility.yul\":19559:19645   */\n      swap1\n      pop\n        /* \"#utility.yul\":19693:19702   */\n      dup2\n        /* \"#utility.yul\":19687:19691   */\n      dup2\n        /* \"#utility.yul\":19683:19703   */\n      sub\n        /* \"#utility.yul\":19677:19680   */\n      0x0140\n        /* \"#utility.yul\":19666:19675   */\n      dup4\n        /* \"#utility.yul\":19662:19681   */\n      add\n        /* \"#utility.yul\":19655:19704   */\n      mstore\n        /* \"#utility.yul\":19721:19800   */\n      tag_529\n        /* \"#utility.yul\":19795:19799   */\n      dup2\n        /* \"#utility.yul\":19785:19792   */\n      dup5\n        /* \"#utility.yul\":19721:19800   */\n      tag_456\n      jump\t// in\n    tag_529:\n        /* \"#utility.yul\":19713:19800   */\n      swap1\n      pop\n        /* \"#utility.yul\":17826:19807   */\n      swap13\n      swap12\n      pop\n      pop\n      pop\n      pop\n      pop\n      pop\n      pop\n      pop\n      pop\n      pop\n      pop\n      pop\n      jump\t// out\n        /* \"#utility.yul\":19813:19942   */\n    tag_322:\n        /* \"#utility.yul\":19847:19853   */\n      0x00\n        /* \"#utility.yul\":19874:19894   */\n      tag_531\n      tag_532\n      jump\t// in\n    tag_531:\n        /* \"#utility.yul\":19864:19894   */\n      swap1\n      pop\n        /* \"#utility.yul\":19903:19936   */\n      tag_533\n        /* \"#utility.yul\":19931:19935   */\n      dup3\n        /* \"#utility.yul\":19923:19929   */\n      dup3\n        /* \"#utility.yul\":19903:19936   */\n      tag_534\n      jump\t// in\n    tag_533:\n        /* \"#utility.yul\":19813:19942   */\n      swap2\n      swap1\n      pop\n      jump\t// out\n        /* \"#utility.yul\":19948:20023   */\n    tag_532:\n        /* \"#utility.yul\":19981:19987   */\n      0x00\n        /* \"#utility.yul\":20014:20016   */\n      0x40\n        /* \"#utility.yul\":20008:20017   */\n      mload\n        /* \"#utility.yul\":19998:20017   */\n      swap1\n      pop\n        /* \"#utility.yul\":19948:20023   */\n      swap1\n      jump\t// out\n        /* \"#utility.yul\":20029:20337   */\n    tag_321:\n        /* \"#utility.yul\":20091:20095   */\n      0x00\n        /* \"#utility.yul\":20181:20199   */\n      0xffffffffffffffff\n        /* \"#utility.yul\":20173:20179   */\n      dup3\n        /* \"#utility.yul\":20170:20200   */\n      gt\n        /* \"#utility.yul\":20167:20223   */\n      iszero\n      tag_537\n      jumpi\n        /* \"#utility.yul\":20203:20221   */\n      tag_538\n      tag_539\n      jump\t// in\n    tag_538:\n        /* \"#utility.yul\":20167:20223   */\n    tag_537:\n        /* \"#utility.yul\":20241:20270   */\n      tag_540\n        /* \"#utility.yul\":20263:20269   */\n      dup3\n        /* \"#utility.yul\":20241:20270   */\n      tag_455\n      jump\t// in\n    tag_540:\n        /* \"#utility.yul\":20233:20270   */\n      swap1\n      pop\n        /* \"#utility.yul\":20325:20329   */\n      0x20\n        /* \"#utility.yul\":20319:20323   */\n      dup2\n        /* \"#utility.yul\":20315:20330   */\n      add\n        /* \"#utility.yul\":20307:20330   */\n      swap1\n      pop\n        /* \"#utility.yul\":20029:20337   */\n      swap2\n      swap1\n      pop\n      jump\t// out\n        /* \"#utility.yul\":20343:20442   */\n    tag_449:\n        /* \"#utility.yul\":20395:20401   */\n      0x00\n        /* \"#utility.yul\":20429:20434   */\n      dup2\n        /* \"#utility.yul\":20423:20435   */\n      mload\n        /* \"#utility.yul\":20413:20435   */\n      swap1\n      pop\n        /* \"#utility.yul\":20343:20442   */\n      swap2\n      swap1\n      pop\n      jump\t// out\n        /* \"#utility.yul\":20448:20607   */\n    tag_451:\n        /* \"#utility.yul\":20522:20533   */\n      0x00\n        /* \"#utility.yul\":20556:20562   */\n      dup3\n        /* \"#utility.yul\":20551:20554   */\n      dup3\n        /* \"#utility.yul\":20544:20563   */\n      mstore\n        /* \"#utility.yul\":20596:20600   */\n      0x20\n        /* \"#utility.yul\":20591:20594   */\n      dup3\n        /* \"#utility.yul\":20587:20601   */\n      add\n        /* \"#utility.yul\":20572:20601   */\n      swap1\n      pop\n        /* \"#utility.yul\":20448:20607   */\n      swap3\n      swap2\n      pop\n      pop\n      jump\t// out\n        /* \"#utility.yul\":20613:20782   */\n    tag_460:\n        /* \"#utility.yul\":20697:20708   */\n      0x00\n        /* \"#utility.yul\":20731:20737   */\n      dup3\n        /* \"#utility.yul\":20726:20729   */\n      dup3\n        /* \"#utility.yul\":20719:20738   */\n      mstore\n        /* \"#utility.yul\":20771:20775   */\n      0x20\n        /* \"#utility.yul\":20766:20769   */\n      dup3\n        /* \"#utility.yul\":20762:20776   */\n      add\n        /* \"#utility.yul\":20747:20776   */\n      swap1\n      pop\n        /* \"#utility.yul\":20613:20782   */\n      swap3\n      swap2\n      pop\n      pop\n      jump\t// out\n        /* \"#utility.yul\":20788:21093   */\n    tag_206:\n        /* \"#utility.yul\":20828:20831   */\n      0x00\n        /* \"#utility.yul\":20847:20867   */\n      tag_545\n        /* \"#utility.yul\":20865:20866   */\n      dup3\n        /* \"#utility.yul\":20847:20867   */\n      tag_490\n      jump\t// in\n    tag_545:\n        /* \"#utility.yul\":20842:20867   */\n      swap2\n      pop\n        /* \"#utility.yul\":20881:20901   */\n      tag_546\n        /* \"#utility.yul\":20899:20900   */\n      dup4\n        /* \"#utility.yul\":20881:20901   */\n      tag_490\n      jump\t// in\n    tag_546:\n        /* \"#utility.yul\":20876:20901   */\n      swap3\n      pop\n        /* \"#utility.yul\":21035:21036   */\n      dup3\n        /* \"#utility.yul\":20967:21033   */\n      0xffffffffffffffffffffffffffffffffffffffffffffffffffffffffffffffff\n        /* \"#utility.yul\":20963:21037   */\n      sub\n        /* \"#utility.yul\":20960:20961   */\n      dup3\n        /* \"#utility.yul\":20957:21038   */\n      gt\n        /* \"#utility.yul\":20954:21061   */\n      iszero\n      tag_547\n      jumpi\n        /* \"#utility.yul\":21041:21059   */\n      tag_548\n      tag_549\n      jump\t// in\n    tag_548:\n        /* \"#utility.yul\":20954:21061   */\n    tag_547:\n        /* \"#utility.yul\":21085:21086   */\n      dup3\n        /* \"#utility.yul\":21082:21083   */\n      dup3\n        /* \"#utility.yul\":21078:21087   */\n      add\n        /* \"#utility.yul\":21071:21087   */\n      swap1\n      pop\n        /* \"#utility.yul\":20788:21093   */\n      swap3\n      swap2\n      pop\n      pop\n      jump\t// out\n        /* \"#utility.yul\":21099:21284   */\n    tag_267:\n        /* \"#utility.yul\":21139:21140   */\n      0x00\n        /* \"#utility.yul\":21156:21176   */\n      tag_551\n        /* \"#utility.yul\":21174:21175   */\n      dup3\n        /* \"#utility.yul\":21156:21176   */\n      tag_490\n      jump\t// in\n    tag_551:\n        /* \"#utility.yul\":21151:21176   */\n      swap2\n      pop\n        /* \"#utility.yul\":21190:21210   */\n      tag_552\n        /* \"#utility.yul\":21208:21209   */\n      dup4\n        /* \"#utility.yul\":21190:21210   */\n      tag_490\n      jump\t// in\n    tag_552:\n        /* \"#utility.yul\":21185:21210   */\n      swap3\n      pop\n        /* \"#utility.yul\":21229:21230   */\n      dup3\n        /* \"#utility.yul\":21219:21254   */\n      tag_553\n      jumpi\n        /* \"#utility.yul\":21234:21252   */\n      tag_554\n      tag_555\n      jump\t// in\n    tag_554:\n        /* \"#utility.yul\":21219:21254   */\n    tag_553:\n        /* \"#utility.yul\":21276:21277   */\n      dup3\n        /* \"#utility.yul\":21273:21274   */\n      dup3\n        /* \"#utility.yul\":21269:21278   */\n      div\n        /* \"#utility.yul\":21264:21278   */\n      swap1\n      pop\n        /* \"#utility.yul\":21099:21284   */\n      swap3\n      swap2\n      pop\n      pop\n      jump\t// out\n        /* \"#utility.yul\":21290:21481   */\n    tag_204:\n        /* \"#utility.yul\":21330:21334   */\n      0x00\n        /* \"#utility.yul\":21350:21370   */\n      tag_557\n        /* \"#utility.yul\":21368:21369   */\n      dup3\n        /* \"#utility.yul\":21350:21370   */\n      tag_490\n      jump\t// in\n    tag_557:\n        /* \"#utility.yul\":21345:21370   */\n      swap2\n      pop\n        /* \"#utility.yul\":21384:21404   */\n      tag_558\n        /* \"#utility.yul\":21402:21403   */\n      dup4\n        /* \"#utility.yul\":21384:21404   */\n      tag_490\n      jump\t// in\n    tag_558:\n        /* \"#utility.yul\":21379:21404   */\n      swap3\n      pop\n        /* \"#utility.yul\":21423:21424   */\n      dup3\n        /* \"#utility.yul\":21420:21421   */\n      dup3\n        /* \"#utility.yul\":21417:21425   */\n      lt\n        /* \"#utility.yul\":21414:21448   */\n      iszero\n      tag_559\n      jumpi\n        /* \"#utility.yul\":21428:21446   */\n      tag_560\n      tag_549\n      jump\t// in\n    tag_560:\n        /* \"#utility.yul\":21414:21448   */\n    tag_559:\n        /* \"#utility.yul\":21473:21474   */\n      dup3\n        /* \"#utility.yul\":21470:21471   */\n      dup3\n        /* \"#utility.yul\":21466:21475   */\n      sub\n        /* \"#utility.yul\":21458:21475   */\n      swap1\n      pop\n        /* \"#utility.yul\":21290:21481   */\n      swap3\n      swap2\n      pop\n      pop\n      jump\t// out\n        /* \"#utility.yul\":21487:21583   */\n    tag_433:\n        /* \"#utility.yul\":21524:21531   */\n      0x00\n        /* \"#utility.yul\":21553:21577   */\n      tag_562\n        /* \"#utility.yul\":21571:21576   */\n      dup3\n        /* \"#utility.yul\":21553:21577   */\n      tag_563\n      jump\t// in\n    tag_562:\n        /* \"#utility.yul\":21542:21577   */\n      swap1\n      pop\n        /* \"#utility.yul\":21487:21583   */\n      swap2\n      swap1\n      pop\n      jump\t// out\n        /* \"#utility.yul\":21589:21693   */\n    tag_429:\n        /* \"#utility.yul\":21634:21641   */\n      0x00\n        /* \"#utility.yul\":21663:21687   */\n      tag_565\n        /* \"#utility.yul\":21681:21686   */\n      dup3\n        /* \"#utility.yul\":21663:21687   */\n      tag_563\n      jump\t// in\n    tag_565:\n        /* \"#utility.yul\":21652:21687   */\n      swap1\n      pop\n        /* \"#utility.yul\":21589:21693   */\n      swap2\n      swap1\n      pop\n      jump\t// out\n        /* \"#utility.yul\":21699:21789   */\n    tag_437:\n        /* \"#utility.yul\":21733:21740   */\n      0x00\n        /* \"#utility.yul\":21776:21781   */\n      dup2\n        /* \"#utility.yul\":21769:21782   */\n      iszero\n        /* \"#utility.yul\":21762:21783   */\n      iszero\n        /* \"#utility.yul\":21751:21783   */\n      swap1\n      pop\n        /* \"#utility.yul\":21699:21789   */\n      swap2\n      swap1\n      pop\n      jump\t// out\n        /* \"#utility.yul\":21795:21920   */\n    tag_567:\n        /* \"#utility.yul\":21839:21846   */\n      0x00\n        /* \"#utility.yul\":21868:21873   */\n      dup2\n        /* \"#utility.yul\":21857:21873   */\n      swap1\n      pop\n        /* \"#utility.yul\":21874:21914   */\n      tag_569\n        /* \"#utility.yul\":21908:21913   */\n      dup3\n        /* \"#utility.yul\":21874:21914   */\n      tag_570\n      jump\t// in\n    tag_569:\n        /* \"#utility.yul\":21795:21920   */\n      swap2\n      swap1\n      pop\n      jump\t// out\n        /* \"#utility.yul\":21926:22053   */\n    tag_571:\n        /* \"#utility.yul\":21971:21978   */\n      0x00\n        /* \"#utility.yul\":22000:22005   */\n      dup2\n        /* \"#utility.yul\":21989:22005   */\n      swap1\n      pop\n        /* \"#utility.yul\":22006:22047   */\n      tag_573\n        /* \"#utility.yul\":22041:22046   */\n      dup3\n        /* \"#utility.yul\":22006:22047   */\n      tag_574\n      jump\t// in\n    tag_573:\n        /* \"#utility.yul\":21926:22053   */\n      swap2\n      swap1\n      pop\n      jump\t// out\n        /* \"#utility.yul\":22059:22185   */\n    tag_563:\n        /* \"#utility.yul\":22096:22103   */\n      0x00\n        /* \"#utility.yul\":22136:22178   */\n      0xffffffffffffffffffffffffffffffffffffffff\n        /* \"#utility.yul\":22129:22134   */\n      dup3\n        /* \"#utility.yul\":22125:22179   */\n      and\n        /* \"#utility.yul\":22114:22179   */\n      swap1\n      pop\n        /* \"#utility.yul\":22059:22185   */\n      swap2\n      swap1\n      pop\n      jump\t// out\n        /* \"#utility.yul\":22191:22268   */\n    tag_490:\n        /* \"#utility.yul\":22228:22235   */\n      0x00\n        /* \"#utility.yul\":22257:22262   */\n      dup2\n        /* \"#utility.yul\":22246:22262   */\n      swap1\n      pop\n        /* \"#utility.yul\":22191:22268   */\n      swap2\n      swap1\n      pop\n      jump\t// out\n        /* \"#utility.yul\":22274:22399   */\n    tag_441:\n        /* \"#utility.yul\":22329:22338   */\n      0x00\n        /* \"#utility.yul\":22362:22393   */\n      tag_578\n        /* \"#utility.yul\":22387:22392   */\n      dup3\n        /* \"#utility.yul\":22362:22393   */\n      tag_567\n      jump\t// in\n    tag_578:\n        /* \"#utility.yul\":22349:22393   */\n      swap1\n      pop\n        /* \"#utility.yul\":22274:22399   */\n      swap2\n      swap1\n      pop\n      jump\t// out\n        /* \"#utility.yul\":22405:22532   */\n    tag_445:\n        /* \"#utility.yul\":22461:22470   */\n      0x00\n        /* \"#utility.yul\":22494:22526   */\n      tag_580\n        /* \"#utility.yul\":22520:22525   */\n      dup3\n        /* \"#utility.yul\":22494:22526   */\n      tag_571\n      jump\t// in\n    tag_580:\n        /* \"#utility.yul\":22481:22526   */\n      swap1\n      pop\n        /* \"#utility.yul\":22405:22532   */\n      swap2\n      swap1\n      pop\n      jump\t// out\n        /* \"#utility.yul\":22538:22692   */\n    tag_327:\n        /* \"#utility.yul\":22622:22628   */\n      dup3\n        /* \"#utility.yul\":22617:22620   */\n      dup2\n        /* \"#utility.yul\":22612:22615   */\n      dup4\n        /* \"#utility.yul\":22599:22629   */\n      calldatacopy\n        /* \"#utility.yul\":22684:22685   */\n      0x00\n        /* \"#utility.yul\":22675:22681   */\n      dup4\n        /* \"#utility.yul\":22670:22673   */\n      dup4\n        /* \"#utility.yul\":22666:22682   */\n      add\n        /* \"#utility.yul\":22659:22686   */\n      mstore\n        /* \"#utility.yul\":22538:22692   */\n      pop\n      pop\n      pop\n      jump\t// out\n        /* \"#utility.yul\":22698:23005   */\n    tag_453:\n        /* \"#utility.yul\":22766:22767   */\n      0x00\n        /* \"#utility.yul\":22776:22889   */\n    tag_583:\n        /* \"#utility.yul\":22790:22796   */\n      dup4\n        /* \"#utility.yul\":22787:22788   */\n      dup2\n        /* \"#utility.yul\":22784:22797   */\n      lt\n        /* \"#utility.yul\":22776:22889   */\n      iszero\n      tag_585\n      jumpi\n        /* \"#utility.yul\":22875:22876   */\n      dup1\n        /* \"#utility.yul\":22870:22873   */\n      dup3\n        /* \"#utility.yul\":22866:22877   */\n      add\n        /* \"#utility.yul\":22860:22878   */\n      mload\n        /* \"#utility.yul\":22856:22857   */\n      dup2\n        /* \"#utility.yul\":22851:22854   */\n      dup5\n        /* \"#utility.yul\":22847:22858   */\n      add\n        /* \"#utility.yul\":22840:22879   */\n      mstore\n        /* \"#utility.yul\":22812:22814   */\n      0x20\n        /* \"#utility.yul\":22809:22810   */\n      dup2\n        /* \"#utility.yul\":22805:22815   */\n      add\n        /* \"#utility.yul\":22800:22815   */\n      swap1\n      pop\n        /* \"#utility.yul\":22776:22889   */\n      jump(tag_583)\n    tag_585:\n        /* \"#utility.yul\":22907:22913   */\n      dup4\n        /* \"#utility.yul\":22904:22905   */\n      dup2\n        /* \"#utility.yul\":22901:22914   */\n      gt\n        /* \"#utility.yul\":22898:22999   */\n      iszero\n      tag_586\n      jumpi\n        /* \"#utility.yul\":22987:22988   */\n      0x00\n        /* \"#utility.yul\":22978:22984   */\n      dup5\n        /* \"#utility.yul\":22973:22976   */\n      dup5\n        /* \"#utility.yul\":22969:22985   */\n      add\n        /* \"#utility.yul\":22962:22989   */\n      mstore\n        /* \"#utility.yul\":22898:22999   */\n    tag_586:\n        /* \"#utility.yul\":22747:23005   */\n      pop\n        /* \"#utility.yul\":22698:23005   */\n      pop\n      pop\n      pop\n      jump\t// out\n        /* \"#utility.yul\":23011:23331   */\n    tag_104:\n        /* \"#utility.yul\":23055:23061   */\n      0x00\n        /* \"#utility.yul\":23092:23093   */\n      0x02\n        /* \"#utility.yul\":23086:23090   */\n      dup3\n        /* \"#utility.yul\":23082:23094   */\n      div\n        /* \"#utility.yul\":23072:23094   */\n      swap1\n      pop\n        /* \"#utility.yul\":23139:23140   */\n      0x01\n        /* \"#utility.yul\":23133:23137   */\n      dup3\n        /* \"#utility.yul\":23129:23141   */\n      and\n        /* \"#utility.yul\":23160:23178   */\n      dup1\n        /* \"#utility.yul\":23150:23231   */\n      tag_588\n      jumpi\n        /* \"#utility.yul\":23216:23220   */\n      0x7f\n        /* \"#utility.yul\":23208:23214   */\n      dup3\n        /* \"#utility.yul\":23204:23221   */\n      and\n        /* \"#utility.yul\":23194:23221   */\n      swap2\n      pop\n        /* \"#utility.yul\":23150:23231   */\n    tag_588:\n        /* \"#utility.yul\":23278:23280   */\n      0x20\n        /* \"#utility.yul\":23270:23276   */\n      dup3\n        /* \"#utility.yul\":23267:23281   */\n      lt\n        /* \"#utility.yul\":23247:23265   */\n      dup2\n        /* \"#utility.yul\":23244:23282   */\n      eq\n        /* \"#utility.yul\":23241:23325   */\n      iszero\n      tag_589\n      jumpi\n        /* \"#utility.yul\":23297:23315   */\n      tag_590\n      tag_591\n      jump\t// in\n    tag_590:\n        /* \"#utility.yul\":23241:23325   */\n    tag_589:\n        /* \"#utility.yul\":23062:23331   */\n      pop\n        /* \"#utility.yul\":23011:23331   */\n      swap2\n      swap1\n      pop\n      jump\t// out\n        /* \"#utility.yul\":23337:23618   */\n    tag_534:\n        /* \"#utility.yul\":23420:23447   */\n      tag_593\n        /* \"#utility.yul\":23442:23446   */\n      dup3\n        /* \"#utility.yul\":23420:23447   */\n      tag_455\n      jump\t// in\n    tag_593:\n        /* \"#utility.yul\":23412:23418   */\n      dup2\n        /* \"#utility.yul\":23408:23448   */\n      add\n        /* \"#utility.yul\":23550:23556   */\n      dup2\n        /* \"#utility.yul\":23538:23548   */\n      dup2\n        /* \"#utility.yul\":23535:23557   */\n      lt\n        /* \"#utility.yul\":23514:23532   */\n      0xffffffffffffffff\n        /* \"#utility.yul\":23502:23512   */\n      dup3\n        /* \"#utility.yul\":23499:23533   */\n      gt\n        /* \"#utility.yul\":23496:23558   */\n      or\n        /* \"#utility.yul\":23493:23581   */\n      iszero\n      tag_594\n      jumpi\n        /* \"#utility.yul\":23561:23579   */\n      tag_595\n      tag_539\n      jump\t// in\n    tag_595:\n        /* \"#utility.yul\":23493:23581   */\n    tag_594:\n        /* \"#utility.yul\":23601:23611   */\n      dup1\n        /* \"#utility.yul\":23597:23599   */\n      0x40\n        /* \"#utility.yul\":23590:23612   */\n      mstore\n        /* \"#utility.yul\":23380:23618   */\n      pop\n        /* \"#utility.yul\":23337:23618   */\n      pop\n      pop\n      jump\t// out\n        /* \"#utility.yul\":23624:23857   */\n    tag_303:\n        /* \"#utility.yul\":23663:23666   */\n      0x00\n        /* \"#utility.yul\":23686:23710   */\n      tag_597\n        /* \"#utility.yul\":23704:23709   */\n      dup3\n        /* \"#utility.yul\":23686:23710   */\n      tag_490\n      jump\t// in\n    tag_597:\n        /* \"#utility.yul\":23677:23710   */\n      swap2\n      pop\n        /* \"#utility.yul\":23732:23798   */\n      0xffffffffffffffffffffffffffffffffffffffffffffffffffffffffffffffff\n        /* \"#utility.yul\":23725:23730   */\n      dup3\n        /* \"#utility.yul\":23722:23799   */\n      eq\n        /* \"#utility.yul\":23719:23822   */\n      iszero\n      tag_598\n      jumpi\n        /* \"#utility.yul\":23802:23820   */\n      tag_599\n      tag_549\n      jump\t// in\n    tag_599:\n        /* \"#utility.yul\":23719:23822   */\n    tag_598:\n        /* \"#utility.yul\":23849:23850   */\n      0x01\n        /* \"#utility.yul\":23842:23847   */\n      dup3\n        /* \"#utility.yul\":23838:23851   */\n      add\n        /* \"#utility.yul\":23831:23851   */\n      swap1\n      pop\n        /* \"#utility.yul\":23624:23857   */\n      swap2\n      swap1\n      pop\n      jump\t// out\n        /* \"#utility.yul\":23863:24043   */\n    tag_549:\n        /* \"#utility.yul\":23911:23988   */\n      0x4e487b7100000000000000000000000000000000000000000000000000000000\n        /* \"#utility.yul\":23908:23909   */\n      0x00\n        /* \"#utility.yul\":23901:23989   */\n      mstore\n        /* \"#utility.yul\":24008:24012   */\n      0x11\n        /* \"#utility.yul\":24005:24006   */\n      0x04\n        /* \"#utility.yul\":23998:24013   */\n      mstore\n        /* \"#utility.yul\":24032:24036   */\n      0x24\n        /* \"#utility.yul\":24029:24030   */\n      0x00\n        /* \"#utility.yul\":24022:24037   */\n      revert\n        /* \"#utility.yul\":24049:24229   */\n    tag_555:\n        /* \"#utility.yul\":24097:24174   */\n      0x4e487b7100000000000000000000000000000000000000000000000000000000\n        /* \"#utility.yul\":24094:24095   */\n      0x00\n        /* \"#utility.yul\":24087:24175   */\n      mstore\n        /* \"#utility.yul\":24194:24198   */\n      0x12\n        /* \"#utility.yul\":24191:24192   */\n      0x04\n        /* \"#utility.yul\":24184:24199   */\n      mstore\n        /* \"#utility.yul\":24218:24222   */\n      0x24\n        /* \"#utility.yul\":24215:24216   */\n      0x00\n        /* \"#utility.yul\":24208:24223   */\n      revert\n        /* \"#utility.yul\":24235:24415   */\n    tag_112:\n        /* \"#utility.yul\":24283:24360   */\n      0x4e487b7100000000000000000000000000000000000000000000000000000000\n        /* \"#utility.yul\":24280:24281   */\n      0x00\n        /* \"#utility.yul\":24273:24361   */\n      mstore\n        /* \"#utility.yul\":24380:24384   */\n      0x21\n        /* \"#utility.yul\":24377:24378   */\n      0x04\n        /* \"#utility.yul\":24370:24385   */\n      mstore\n        /* \"#utility.yul\":24404:24408   */\n      0x24\n        /* \"#utility.yul\":24401:24402   */\n      0x00\n        /* \"#utility.yul\":24394:24409   */\n      revert\n        /* \"#utility.yul\":24421:24601   */\n    tag_591:\n        /* \"#utility.yul\":24469:24546   */\n      0x4e487b7100000000000000000000000000000000000000000000000000000000\n        /* \"#utility.yul\":24466:24467   */\n      0x00\n        /* \"#utility.yul\":24459:24547   */\n      mstore\n        /* \"#utility.yul\":24566:24570   */\n      0x22\n        /* \"#utility.yul\":24563:24564   */\n      0x04\n        /* \"#utility.yul\":24556:24571   */\n      mstore\n        /* \"#utility.yul\":24590:24594   */\n      0x24\n        /* \"#utility.yul\":24587:24588   */\n      0x00\n        /* \"#utility.yul\":24580:24595   */\n      revert\n        /* \"#utility.yul\":24607:24787   */\n    tag_539:\n        /* \"#utility.yul\":24655:24732   */\n      0x4e487b7100000000000000000000000000000000000000000000000000000000\n        /* \"#utility.yul\":24652:24653   */\n      0x00\n        /* \"#utility.yul\":24645:24733   */\n      mstore\n        /* \"#utility.yul\":24752:24756   */\n      0x41\n        /* \"#utility.yul\":24749:24750   */\n      0x04\n        /* \"#utility.yul\":24742:24757   */\n      mstore\n        /* \"#utility.yul\":24776:24780   */\n      0x24\n        /* \"#utility.yul\":24773:24774   */\n      0x00\n        /* \"#utility.yul\":24766:24781   */\n      revert\n        /* \"#utility.yul\":24793:24910   */\n    tag_340:\n        /* \"#utility.yul\":24902:24903   */\n      0x00\n        /* \"#utility.yul\":24899:24900   */\n      dup1\n        /* \"#utility.yul\":24892:24904   */\n      revert\n        /* \"#utility.yul\":24916:25033   */\n    tag_325:\n        /* \"#utility.yul\":25025:25026   */\n      0x00\n        /* \"#utility.yul\":25022:25023   */\n      dup1\n        /* \"#utility.yul\":25015:25027   */\n      revert\n        /* \"#utility.yul\":25039:25156   */\n    tag_358:\n        /* \"#utility.yul\":25148:25149   */\n      0x00\n        /* \"#utility.yul\":25145:25146   */\n      dup1\n        /* \"#utility.yul\":25138:25150   */\n      revert\n        /* \"#utility.yul\":25162:25279   */\n    tag_349:\n        /* \"#utility.yul\":25271:25272   */\n      0x00\n        /* \"#utility.yul\":25268:25269   */\n      dup1\n        /* \"#utility.yul\":25261:25273   */\n      revert\n        /* \"#utility.yul\":25285:25387   */\n    tag_455:\n        /* \"#utility.yul\":25326:25332   */\n      0x00\n        /* \"#utility.yul\":25377:25379   */\n      0x1f\n        /* \"#utility.yul\":25373:25380   */\n      not\n        /* \"#utility.yul\":25368:25370   */\n      0x1f\n        /* \"#utility.yul\":25361:25366   */\n      dup4\n        /* \"#utility.yul\":25357:25371   */\n      add\n        /* \"#utility.yul\":25353:25381   */\n      and\n        /* \"#utility.yul\":25343:25381   */\n      swap1\n      pop\n        /* \"#utility.yul\":25285:25387   */\n      swap2\n      swap1\n      pop\n      jump\t// out\n        /* \"#utility.yul\":25393:25571   */\n    tag_467:\n        /* \"#utility.yul\":25533:25563   */\n      0x63616c6c6572206973206e6f742061206469737472696275746f722e00000000\n        /* \"#utility.yul\":25529:25530   */\n      0x00\n        /* \"#utility.yul\":25521:25527   */\n      dup3\n        /* \"#utility.yul\":25517:25531   */\n      add\n        /* \"#utility.yul\":25510:25564   */\n      mstore\n        /* \"#utility.yul\":25393:25571   */\n      pop\n      jump\t// out\n        /* \"#utility.yul\":25577:25752   */\n    tag_472:\n        /* \"#utility.yul\":25717:25744   */\n      0x63616c6c6572206973206e6f7420612070726f64756365722e00000000000000\n        /* \"#utility.yul\":25713:25714   */\n      0x00\n        /* \"#utility.yul\":25705:25711   */\n      dup3\n        /* \"#utility.yul\":25701:25715   */\n      add\n        /* \"#utility.yul\":25694:25745   */\n      mstore\n        /* \"#utility.yul\":25577:25752   */\n      pop\n      jump\t// out\n        /* \"#utility.yul\":25758:25938   */\n    tag_477:\n        /* \"#utility.yul\":25898:25930   */\n      0x63616c6c6572206973206e6f742074686520746f6b656e206f776e65722e0000\n        /* \"#utility.yul\":25894:25895   */\n      0x00\n        /* \"#utility.yul\":25886:25892   */\n      dup3\n        /* \"#utility.yul\":25882:25896   */\n      add\n        /* \"#utility.yul\":25875:25931   */\n      mstore\n        /* \"#utility.yul\":25758:25938   */\n      pop\n      jump\t// out\n        /* \"#utility.yul\":25944:26056   */\n    tag_570:\n        /* \"#utility.yul\":26024:26025   */\n      0x05\n        /* \"#utility.yul\":26017:26022   */\n      dup2\n        /* \"#utility.yul\":26014:26026   */\n      lt\n        /* \"#utility.yul\":26004:26050   */\n      tag_614\n      jumpi\n        /* \"#utility.yul\":26030:26048   */\n      tag_615\n      tag_112\n      jump\t// in\n    tag_615:\n        /* \"#utility.yul\":26004:26050   */\n    tag_614:\n        /* \"#utility.yul\":25944:26056   */\n      pop\n      jump\t// out\n        /* \"#utility.yul\":26062:26175   */\n    tag_574:\n        /* \"#utility.yul\":26143:26144   */\n      0x06\n        /* \"#utility.yul\":26136:26141   */\n      dup2\n        /* \"#utility.yul\":26133:26145   */\n      lt\n        /* \"#utility.yul\":26123:26169   */\n      tag_617\n      jumpi\n        /* \"#utility.yul\":26149:26167   */\n      tag_618\n      tag_112\n      jump\t// in\n    tag_618:\n        /* \"#utility.yul\":26123:26169   */\n    tag_617:\n        /* \"#utility.yul\":26062:26175   */\n      pop\n      jump\t// out\n        /* \"#utility.yul\":26181:26303   */\n    tag_331:\n        /* \"#utility.yul\":26254:26278   */\n      tag_620\n        /* \"#utility.yul\":26272:26277   */\n      dup2\n        /* \"#utility.yul\":26254:26278   */\n      tag_433\n      jump\t// in\n    tag_620:\n        /* \"#utility.yul\":26247:26252   */\n      dup2\n        /* \"#utility.yul\":26244:26279   */\n      eq\n        /* \"#utility.yul\":26234:26297   */\n      tag_621\n      jumpi\n        /* \"#utility.yul\":26293:26294   */\n      0x00\n        /* \"#utility.yul\":26290:26291   */\n      dup1\n        /* \"#utility.yul\":26283:26295   */\n      revert\n        /* \"#utility.yul\":26234:26297   */\n    tag_621:\n        /* \"#utility.yul\":26181:26303   */\n      pop\n      jump\t// out\n        /* \"#utility.yul\":26309:26415   */\n    tag_335:\n        /* \"#utility.yul\":26389:26390   */\n      0x05\n        /* \"#utility.yul\":26382:26387   */\n      dup2\n        /* \"#utility.yul\":26379:26391   */\n      lt\n        /* \"#utility.yul\":26369:26409   */\n      tag_623\n      jumpi\n        /* \"#utility.yul\":26405:26406   */\n      0x00\n        /* \"#utility.yul\":26402:26403   */\n      dup1\n        /* \"#utility.yul\":26395:26407   */\n      revert\n        /* \"#utility.yul\":26369:26409   */\n    tag_623:\n        /* \"#utility.yul\":26309:26415   */\n      pop\n      jump\t// out\n        /* \"#utility.yul\":26421:26543   */\n    tag_345:\n        /* \"#utility.yul\":26494:26518   */\n      tag_625\n        /* \"#utility.yul\":26512:26517   */\n      dup2\n        /* \"#utility.yul\":26494:26518   */\n      tag_490\n      jump\t// in\n    tag_625:\n        /* \"#utility.yul\":26487:26492   */\n      dup2\n        /* \"#utility.yul\":26484:26519   */\n      eq\n        /* \"#utility.yul\":26474:26537   */\n      tag_626\n      jumpi\n        /* \"#utility.yul\":26533:26534   */\n      0x00\n        /* \"#utility.yul\":26530:26531   */\n      dup1\n        /* \"#utility.yul\":26523:26535   */\n      revert\n        /* \"#utility.yul\":26474:26537   */\n    tag_626:\n        /* \"#utility.yul\":26421:26543   */\n      pop\n      jump\t// out\n\n    auxdata: 0xa2646970667358221220d026556b268d167d914a91d32edb3dd468901481a415aaa417e46b4afe30532f64736f6c63430008070033\n}\n",
				"bytecode": {
					"linkReferences": {},
					"object": "60806040523480156200001157600080fd5b50604051620037df380380620037df833981810160405281019062000037919062000243565b82600090805190602001906200004f929190620000fe565b50816001908051906020019062000068929190620000fe565b508060038190555033600260006101000a81548173ffffffffffffffffffffffffffffffffffffffff021916908373ffffffffffffffffffffffffffffffffffffffff16021790555080600460003373ffffffffffffffffffffffffffffffffffffffff1673ffffffffffffffffffffffffffffffffffffffff1681526020019081526020016000208190555050505062000485565b8280546200010c906200037c565b90600052602060002090601f0160209004810192826200013057600085556200017c565b82601f106200014b57805160ff19168380011785556200017c565b828001600101855582156200017c579182015b828111156200017b5782518255916020019190600101906200015e565b5b5090506200018b91906200018f565b5090565b5b80821115620001aa57600081600090555060010162000190565b5090565b6000620001c5620001bf8462000306565b620002dd565b905082815260208101848484011115620001e457620001e36200044b565b5b620001f184828562000346565b509392505050565b600082601f83011262000211576200021062000446565b5b815162000223848260208601620001ae565b91505092915050565b6000815190506200023d816200046b565b92915050565b6000806000606084860312156200025f576200025e62000455565b5b600084015167ffffffffffffffff81111562000280576200027f62000450565b5b6200028e86828701620001f9565b935050602084015167ffffffffffffffff811115620002b257620002b162000450565b5b620002c086828701620001f9565b9250506040620002d3868287016200022c565b9150509250925092565b6000620002e9620002fc565b9050620002f78282620003b2565b919050565b6000604051905090565b600067ffffffffffffffff82111562000324576200032362000417565b5b6200032f826200045a565b9050602081019050919050565b6000819050919050565b60005b838110156200036657808201518184015260208101905062000349565b8381111562000376576000848401525b50505050565b600060028204905060018216806200039557607f821691505b60208210811415620003ac57620003ab620003e8565b5b50919050565b620003bd826200045a565b810181811067ffffffffffffffff82111715620003df57620003de62000417565b5b80604052505050565b7f4e487b7100000000000000000000000000000000000000000000000000000000600052602260045260246000fd5b7f4e487b7100000000000000000000000000000000000000000000000000000000600052604160045260246000fd5b600080fd5b600080fd5b600080fd5b600080fd5b6000601f19601f8301169050919050565b62000476816200033c565b81146200048257600080fd5b50565b61334a80620004956000396000f3fe6080604052600436106100f35760003560e01c80639dc29fac1161008a578063b292abf111610059578063b292abf114610319578063cd0c589614610357578063eedc966a14610394578063f1091029146103d1576100f3565b80639dc29fac14610292578063a0712d68146102bb578063a3e67610146102e4578063a48217191461030f576100f3565b80636813b53b116100c65780636813b53b1461019e57806368cdafe6146101e557806379a85e6c1461022257806395d89b4114610267576100f3565b806306fdde03146100f857806340932fc21461012357806353b628661461014c578063561e0e9814610175575b600080fd5b34801561010457600080fd5b5061010d6103fa565b60405161011a9190612c46565b60405180910390f35b34801561012f57600080fd5b5061014a600480360381019061014591906125ac565b610488565b005b34801561015857600080fd5b50610173600480360381019061016e9190612802565b6106be565b005b34801561018157600080fd5b5061019c60048036038101906101979190612842565b610971565b005b3480156101aa57600080fd5b506101c560048036038101906101c0919061265b565b610ca9565b6040516101dc9b9a99989796959493929190612d77565b60405180910390f35b3480156101f157600080fd5b5061020c6004803603810190610207919061261b565b6111d6565b6040516102199190612bfb565b60405180910390f35b34801561022e57600080fd5b506102496004803603810190610244919061265b565b611314565b60405161025e99989796959493929190612ce3565b60405180910390f35b34801561027357600080fd5b5061027c6118cb565b6040516102899190612c46565b60405180910390f35b34801561029e57600080fd5b506102b960048036038101906102b4919061261b565b611959565b005b3480156102c757600080fd5b506102e260048036038101906102dd919061265b565b611ae2565b005b3480156102f057600080fd5b506102f9611be4565b6040516103069190612be0565b60405180910390f35b610317611c0a565b005b34801561032557600080fd5b50610340600480360381019061033b919061257f565b611d62565b60405161034e929190612c16565b60405180910390f35b34801561036357600080fd5b5061037e6004803603810190610379919061257f565b611e8a565b60405161038b9190612cc8565b60405180910390f35b3480156103a057600080fd5b506103bb60048036038101906103b6919061257f565b611eab565b6040516103c89190612cc8565b60405180910390f35b3480156103dd57600080fd5b506103f860048036038101906103f39190612688565b611ef4565b005b6000805461040790613077565b80601f016020809104026020016040519081016040528092919081815260200182805461043390613077565b80156104805780601f1061045557610100808354040283529160200191610480565b820191906000526020600020905b81548152906001019060200180831161046357829003601f168201915b505050505081565b6000600560008573ffffffffffffffffffffffffffffffffffffffff1673ffffffffffffffffffffffffffffffffffffffff1681526020019081526020016000206040518060600160405290816000820160009054906101000a900460ff1660048111156104f9576104f8613181565b5b600481111561050b5761050a613181565b5b815260200160018201805461051f90613077565b80601f016020809104026020016040519081016040528092919081815260200182805461054b90613077565b80156105985780601f1061056d57610100808354040283529160200191610598565b820191906000526020600020905b81548152906001019060200180831161057b57829003601f168201915b505050505081526020016002820160009054906101000a900460ff161515151581525050905082816000019060048111156105d6576105d5613181565b5b908160048111156105ea576105e9613181565b5b81525050818160200181905250600181604001901515908115158152505080600560008673ffffffffffffffffffffffffffffffffffffffff1673ffffffffffffffffffffffffffffffffffffffff16815260200190815260200160002060008201518160000160006101000a81548160ff0219169083600481111561067357610672613181565b5b021790555060208201518160010190805190602001906106949291906123f0565b5060408201518160020160006101000a81548160ff02191690831515021790555090505050505050565b600160048111156106d2576106d1613181565b5b600560003373ffffffffffffffffffffffffffffffffffffffff1673ffffffffffffffffffffffffffffffffffffffff16815260200190815260200160002060000160009054906101000a900460ff16600481111561073457610733613181565b5b14610774576040517f08c379a000000000000000000000000000000000000000000000000000000000815260040161076b90612c68565b60405180910390fd5b60006006600084815260200190815260200160002090506000600460003373ffffffffffffffffffffffffffffffffffffffff1673ffffffffffffffffffffffffffffffffffffffff16815260200190815260200160002054905081600501548110156107e057600080fd5b600160058111156107f4576107f3613181565b5b8260040160009054906101000a900460ff16600581111561081857610817613181565b5b1461082257600080fd5b826006600086815260200190815260200160002060030181905550336006600086815260200190815260200160002060060160006101000a81548173ffffffffffffffffffffffffffffffffffffffff021916908373ffffffffffffffffffffffffffffffffffffffff1602179055506108d66006600086815260200190815260200160002060010160009054906101000a900473ffffffffffffffffffffffffffffffffffffffff1683600501546111d6565b5060056006600086815260200190815260200160002060040160006101000a81548160ff0219169083600581111561091157610910613181565b5b0217905550336006600086815260200190815260200160002060010160006101000a81548173ffffffffffffffffffffffffffffffffffffffff021916908373ffffffffffffffffffffffffffffffffffffffff16021790555050505050565b6000600481111561098557610984613181565b5b600560003373ffffffffffffffffffffffffffffffffffffffff1673ffffffffffffffffffffffffffffffffffffffff16815260200190815260200160002060000160009054906101000a900460ff1660048111156109e7576109e6613181565b5b14610a27576040517f08c379a0000000000000000000000000000000000000000000000000000000008152600401610a1e90612c88565b60405180910390fd5b6000600660008c815260200190815260200160002090508a8160000181905550338160010160006101000a81548173ffffffffffffffffffffffffffffffffffffffff021916908373ffffffffffffffffffffffffffffffffffffffff160217905550338160020160006101000a81548173ffffffffffffffffffffffffffffffffffffffff021916908373ffffffffffffffffffffffffffffffffffffffff16021790555089816003018190555060018160040160006101000a81548160ff02191690836005811115610afe57610afd613181565b5b021790555088816005018190555060008160060160006101000a81548173ffffffffffffffffffffffffffffffffffffffff021916908373ffffffffffffffffffffffffffffffffffffffff16021790555060008160070160006101000a81548173ffffffffffffffffffffffffffffffffffffffff021916908373ffffffffffffffffffffffffffffffffffffffff16021790555060008160080160006101000a81548173ffffffffffffffffffffffffffffffffffffffff021916908373ffffffffffffffffffffffffffffffffffffffff16021790555087816009016000019080519060200190610bf39291906123f0565b5086816009016001019080519060200190610c0f9291906123f0565b5085816009016002019080519060200190610c2b9291906123f0565b5084816009016003019080519060200190610c479291906123f0565b5083816009016004019080519060200190610c639291906123f0565b5082816009016005019080519060200190610c7f9291906123f0565b5081816009016006019080519060200190610c9b9291906123f0565b505050505050505050505050565b6000806000806060806060806060806060600660008d8152602001908152602001600020600001549a50600660008d815260200190815260200160002060010160009054906101000a900473ffffffffffffffffffffffffffffffffffffffff169950600660008d815260200190815260200160002060040160009054906101000a900460ff169850600660008d8152602001908152602001600020600501549750600660008d81526020019081526020016000206009016000018054610d6f90613077565b80601f0160208091040260200160405190810160405280929190818152602001828054610d9b90613077565b8015610de85780601f10610dbd57610100808354040283529160200191610de8565b820191906000526020600020905b815481529060010190602001808311610dcb57829003601f168201915b50505050509650600660008d81526020019081526020016000206009016001018054610e1390613077565b80601f0160208091040260200160405190810160405280929190818152602001828054610e3f90613077565b8015610e8c5780601f10610e6157610100808354040283529160200191610e8c565b820191906000526020600020905b815481529060010190602001808311610e6f57829003601f168201915b50505050509550600660008d81526020019081526020016000206009016002018054610eb790613077565b80601f0160208091040260200160405190810160405280929190818152602001828054610ee390613077565b8015610f305780601f10610f0557610100808354040283529160200191610f30565b820191906000526020600020905b815481529060010190602001808311610f1357829003601f168201915b50505050509450600660008d81526020019081526020016000206009016003018054610f5b90613077565b80601f0160208091040260200160405190810160405280929190818152602001828054610f8790613077565b8015610fd45780601f10610fa957610100808354040283529160200191610fd4565b820191906000526020600020905b815481529060010190602001808311610fb757829003601f168201915b50505050509350600660008d81526020019081526020016000206009016004018054610fff90613077565b80601f016020809104026020016040519081016040528092919081815260200182805461102b90613077565b80156110785780601f1061104d57610100808354040283529160200191611078565b820191906000526020600020905b81548152906001019060200180831161105b57829003601f168201915b50505050509250600660008d815260200190815260200160002060090160050180546110a390613077565b80601f01602080910402602001604051908101604052809291908181526020018280546110cf90613077565b801561111c5780601f106110f15761010080835404028352916020019161111c565b820191906000526020600020905b8154815290600101906020018083116110ff57829003601f168201915b50505050509150600660008d8152602001908152602001600020600901600601805461114790613077565b80601f016020809104026020016040519081016040528092919081815260200182805461117390613077565b80156111c05780601f10611195576101008083540402835291602001916111c0565b820191906000526020600020905b8154815290600101906020018083116111a357829003601f168201915b5050505050905091939597999b90929496989a50565b600081600460003373ffffffffffffffffffffffffffffffffffffffff1673ffffffffffffffffffffffffffffffffffffffff16815260200190815260200160002054101561122457600080fd5b600073ffffffffffffffffffffffffffffffffffffffff168373ffffffffffffffffffffffffffffffffffffffff16141561125e57600080fd5b81600460003373ffffffffffffffffffffffffffffffffffffffff1673ffffffffffffffffffffffffffffffffffffffff16815260200190815260200160002060008282546112ad9190612f5d565b9250508190555081600460008573ffffffffffffffffffffffffffffffffffffffff1673ffffffffffffffffffffffffffffffffffffffff16815260200190815260200160002060008282546113039190612ed6565b925050819055506001905092915050565b600080600080600080600080611328612476565b600660008b8152602001908152602001600020600001549850600660008b815260200190815260200160002060020160009054906101000a900473ffffffffffffffffffffffffffffffffffffffff169750600660008b815260200190815260200160002060010160009054906101000a900473ffffffffffffffffffffffffffffffffffffffff169650600660008b815260200190815260200160002060060160009054906101000a900473ffffffffffffffffffffffffffffffffffffffff169350600660008b815260200190815260200160002060070160009054906101000a900473ffffffffffffffffffffffffffffffffffffffff169250600660008b815260200190815260200160002060080160009054906101000a900473ffffffffffffffffffffffffffffffffffffffff169150600660008b815260200190815260200160002060040160009054906101000a900460ff169550600660008b8152602001908152602001600020600501549450600660008b81526020019081526020016000206009016040518060e00160405290816000820180546114ce90613077565b80601f01602080910402602001604051908101604052809291908181526020018280546114fa90613077565b80156115475780601f1061151c57610100808354040283529160200191611547565b820191906000526020600020905b81548152906001019060200180831161152a57829003601f168201915b5050505050815260200160018201805461156090613077565b80601f016020809104026020016040519081016040528092919081815260200182805461158c90613077565b80156115d95780601f106115ae576101008083540402835291602001916115d9565b820191906000526020600020905b8154815290600101906020018083116115bc57829003601f168201915b505050505081526020016002820180546115f290613077565b80601f016020809104026020016040519081016040528092919081815260200182805461161e90613077565b801561166b5780601f106116405761010080835404028352916020019161166b565b820191906000526020600020905b81548152906001019060200180831161164e57829003601f168201915b5050505050815260200160038201805461168490613077565b80601f01602080910402602001604051908101604052809291908181526020018280546116b090613077565b80156116fd5780601f106116d2576101008083540402835291602001916116fd565b820191906000526020600020905b8154815290600101906020018083116116e057829003601f168201915b5050505050815260200160048201805461171690613077565b80601f016020809104026020016040519081016040528092919081815260200182805461174290613077565b801561178f5780601f106117645761010080835404028352916020019161178f565b820191906000526020600020905b81548152906001019060200180831161177257829003601f168201915b505050505081526020016005820180546117a890613077565b80601f01602080910402602001604051908101604052809291908181526020018280546117d490613077565b80156118215780601f106117f657610100808354040283529160200191611821565b820191906000526020600020905b81548152906001019060200180831161180457829003601f168201915b5050505050815260200160068201805461183a90613077565b80601f016020809104026020016040519081016040528092919081815260200182805461186690613077565b80156118b35780601f10611888576101008083540402835291602001916118b3565b820191906000526020600020905b81548152906001019060200180831161189657829003601f168201915b50505050508152505090509193959799909294969850565b600180546118d890613077565b80601f016020809104026020016040519081016040528092919081815260200182805461190490613077565b80156119515780601f1061192657610100808354040283529160200191611951565b820191906000526020600020905b81548152906001019060200180831161193457829003601f168201915b505050505081565b600260009054906101000a900473ffffffffffffffffffffffffffffffffffffffff1673ffffffffffffffffffffffffffffffffffffffff163373ffffffffffffffffffffffffffffffffffffffff16146119e9576040517f08c379a00000000000000000000000000000000000000000000000000000000081526004016119e090612ca8565b60405180910390fd5b600073ffffffffffffffffffffffffffffffffffffffff168273ffffffffffffffffffffffffffffffffffffffff161415611a2357600080fd5b600460008373ffffffffffffffffffffffffffffffffffffffff1673ffffffffffffffffffffffffffffffffffffffff16815260200190815260200160002054811115611a6f57600080fd5b8060036000828254611a819190612f5d565b9250508190555080600460008473ffffffffffffffffffffffffffffffffffffffff1673ffffffffffffffffffffffffffffffffffffffff1681526020019081526020016000206000828254611ad79190612f5d565b925050819055505050565b600260009054906101000a900473ffffffffffffffffffffffffffffffffffffffff1673ffffffffffffffffffffffffffffffffffffffff163373ffffffffffffffffffffffffffffffffffffffff1614611b72576040517f08c379a0000000000000000000000000000000000000000000000000000000008152600401611b6990612ca8565b60405180910390fd5b8060036000828254611b849190612ed6565b9250508190555080600460003373ffffffffffffffffffffffffffffffffffffffff1673ffffffffffffffffffffffffffffffffffffffff1681526020019081526020016000206000828254611bda9190612ed6565b9250508190555050565b600260009054906101000a900473ffffffffffffffffffffffffffffffffffffffff1681565b6000606434611c199190612f2c565b905060003411611c2857600080fd5b600260009054906101000a900473ffffffffffffffffffffffffffffffffffffffff1673ffffffffffffffffffffffffffffffffffffffff166108fc349081150290604051600060405180830381858888f19350505050158015611c90573d6000803e3d6000fd5b508060046000600260009054906101000a900473ffffffffffffffffffffffffffffffffffffffff1673ffffffffffffffffffffffffffffffffffffffff1673ffffffffffffffffffffffffffffffffffffffff1681526020019081526020016000206000828254611d029190612f5d565b9250508190555080600460003373ffffffffffffffffffffffffffffffffffffffff1673ffffffffffffffffffffffffffffffffffffffff1681526020019081526020016000206000828254611d589190612ed6565b9250508190555050565b60006060600560008473ffffffffffffffffffffffffffffffffffffffff1673ffffffffffffffffffffffffffffffffffffffff16815260200190815260200160002060000160009054906101000a900460ff169150600560008473ffffffffffffffffffffffffffffffffffffffff1673ffffffffffffffffffffffffffffffffffffffff1681526020019081526020016000206001018054611e0590613077565b80601f0160208091040260200160405190810160405280929190818152602001828054611e3190613077565b8015611e7e5780601f10611e5357610100808354040283529160200191611e7e565b820191906000526020600020905b815481529060010190602001808311611e6157829003601f168201915b50505050509050915091565b60008173ffffffffffffffffffffffffffffffffffffffff16319050919050565b6000600460008373ffffffffffffffffffffffffffffffffffffffff1673ffffffffffffffffffffffffffffffffffffffff168152602001908152602001600020549050919050565b600260009054906101000a900473ffffffffffffffffffffffffffffffffffffffff1673ffffffffffffffffffffffffffffffffffffffff163373ffffffffffffffffffffffffffffffffffffffff1614611f84576040517f08c379a0000000000000000000000000000000000000000000000000000000008152600401611f7b90612ca8565b60405180910390fd5b60008060035414611f955760035490505b611f9d612476565b888160000181905250878160200181905250868160400181905250858160600181905250848160800181905250838160a00181905250828160c0018190525060008290505b8a83611fee9190612ed6565b81101561237457604051806101400160405280828152602001600073ffffffffffffffffffffffffffffffffffffffff168152602001600073ffffffffffffffffffffffffffffffffffffffff1681526020014281526020016000600581111561205b5761205a613181565b5b815260200160648152602001600073ffffffffffffffffffffffffffffffffffffffff168152602001600073ffffffffffffffffffffffffffffffffffffffff168152602001600073ffffffffffffffffffffffffffffffffffffffff16815260200183815250600660008381526020019081526020016000206000820151816000015560208201518160010160006101000a81548173ffffffffffffffffffffffffffffffffffffffff021916908373ffffffffffffffffffffffffffffffffffffffff16021790555060408201518160020160006101000a81548173ffffffffffffffffffffffffffffffffffffffff021916908373ffffffffffffffffffffffffffffffffffffffff1602179055506060820151816003015560808201518160040160006101000a81548160ff021916908360058111156121a2576121a1613181565b5b021790555060a0820151816005015560c08201518160060160006101000a81548173ffffffffffffffffffffffffffffffffffffffff021916908373ffffffffffffffffffffffffffffffffffffffff16021790555060e08201518160070160006101000a81548173ffffffffffffffffffffffffffffffffffffffff021916908373ffffffffffffffffffffffffffffffffffffffff1602179055506101008201518160080160006101000a81548173ffffffffffffffffffffffffffffffffffffffff021916908373ffffffffffffffffffffffffffffffffffffffff1602179055506101208201518160090160008201518160000190805190602001906122ad9291906123f0565b5060208201518160010190805190602001906122ca9291906123f0565b5060408201518160020190805190602001906122e79291906123f0565b5060608201518160030190805190602001906123049291906123f0565b5060808201518160040190805190602001906123219291906123f0565b5060a082015181600501908051906020019061233e9291906123f0565b5060c082015181600601908051906020019061235b9291906123f0565b505050905050808061236c906130da565b915050611fe2565b5089600360008282546123879190612ed6565b9250508190555089600460003373ffffffffffffffffffffffffffffffffffffffff1673ffffffffffffffffffffffffffffffffffffffff16815260200190815260200160002060008282546123dd9190612ed6565b9250508190555050505050505050505050565b8280546123fc90613077565b90600052602060002090601f01602090048101928261241e5760008555612465565b82601f1061243757805160ff1916838001178555612465565b82800160010185558215612465579182015b82811115612464578251825591602001919060010190612449565b5b50905061247291906124b3565b5090565b6040518060e00160405280606081526020016060815260200160608152602001606081526020016060815260200160608152602001606081525090565b5b808211156124cc5760008160009055506001016124b4565b5090565b60006124e36124de84612e78565b612e53565b9050828152602081018484840111156124ff576124fe613213565b5b61250a848285613035565b509392505050565b600081359050612521816132d6565b92915050565b600081359050612536816132ed565b92915050565b600082601f8301126125515761255061320e565b5b81356125618482602086016124d0565b91505092915050565b600081359050612579816132fd565b92915050565b6000602082840312156125955761259461321d565b5b60006125a384828501612512565b91505092915050565b6000806000606084860312156125c5576125c461321d565b5b60006125d386828701612512565b93505060206125e486828701612527565b925050604084013567ffffffffffffffff81111561260557612604613218565b5b6126118682870161253c565b9150509250925092565b600080604083850312156126325761263161321d565b5b600061264085828601612512565b92505060206126518582860161256a565b9150509250929050565b6000602082840312156126715761267061321d565b5b600061267f8482850161256a565b91505092915050565b600080600080600080600080610100898b0312156126a9576126a861321d565b5b60006126b78b828c0161256a565b985050602089013567ffffffffffffffff8111156126d8576126d7613218565b5b6126e48b828c0161253c565b975050604089013567ffffffffffffffff81111561270557612704613218565b5b6127118b828c0161253c565b965050606089013567ffffffffffffffff81111561273257612731613218565b5b61273e8b828c0161253c565b955050608089013567ffffffffffffffff81111561275f5761275e613218565b5b61276b8b828c0161253c565b94505060a089013567ffffffffffffffff81111561278c5761278b613218565b5b6127988b828c0161253c565b93505060c089013567ffffffffffffffff8111156127b9576127b8613218565b5b6127c58b828c0161253c565b92505060e089013567ffffffffffffffff8111156127e6576127e5613218565b5b6127f28b828c0161253c565b9150509295985092959890939650565b600080604083850312156128195761281861321d565b5b60006128278582860161256a565b92505060206128388582860161256a565b9150509250929050565b6000806000806000806000806000806101408b8d0312156128665761286561321d565b5b60006128748d828e0161256a565b9a505060206128858d828e0161256a565b99505060406128968d828e0161256a565b98505060608b013567ffffffffffffffff8111156128b7576128b6613218565b5b6128c38d828e0161253c565b97505060808b013567ffffffffffffffff8111156128e4576128e3613218565b5b6128f08d828e0161253c565b96505060a08b013567ffffffffffffffff81111561291157612910613218565b5b61291d8d828e0161253c565b95505060c08b013567ffffffffffffffff81111561293e5761293d613218565b5b61294a8d828e0161253c565b94505060e08b013567ffffffffffffffff81111561296b5761296a613218565b5b6129778d828e0161253c565b9350506101008b013567ffffffffffffffff81111561299957612998613218565b5b6129a58d828e0161253c565b9250506101208b013567ffffffffffffffff8111156129c7576129c6613218565b5b6129d38d828e0161253c565b9150509295989b9194979a5092959850565b6129ee81612fa3565b82525050565b6129fd81612f91565b82525050565b612a0c81612fb5565b82525050565b612a1b81613011565b82525050565b612a2a81613023565b82525050565b6000612a3b82612ea9565b612a458185612eb4565b9350612a55818560208601613044565b612a5e81613222565b840191505092915050565b6000612a7482612ea9565b612a7e8185612ec5565b9350612a8e818560208601613044565b612a9781613222565b840191505092915050565b6000612aaf601c83612ec5565b9150612aba82613233565b602082019050919050565b6000612ad2601983612ec5565b9150612add8261325c565b602082019050919050565b6000612af5601e83612ec5565b9150612b0082613285565b602082019050919050565b600060e0830160008301518482036000860152612b288282612a30565b91505060208301518482036020860152612b428282612a30565b91505060408301518482036040860152612b5c8282612a30565b91505060608301518482036060860152612b768282612a30565b91505060808301518482036080860152612b908282612a30565b91505060a083015184820360a0860152612baa8282612a30565b91505060c083015184820360c0860152612bc48282612a30565b9150508091505092915050565b612bda81613007565b82525050565b6000602082019050612bf560008301846129e5565b92915050565b6000602082019050612c106000830184612a03565b92915050565b6000604082019050612c2b6000830185612a12565b8181036020830152612c3d8184612a69565b90509392505050565b60006020820190508181036000830152612c608184612a69565b905092915050565b60006020820190508181036000830152612c8181612aa2565b9050919050565b60006020820190508181036000830152612ca181612ac5565b9050919050565b60006020820190508181036000830152612cc181612ae8565b9050919050565b6000602082019050612cdd6000830184612bd1565b92915050565b600061012082019050612cf9600083018c612bd1565b612d06602083018b6129f4565b612d13604083018a6129f4565b612d206060830189612a21565b612d2d6080830188612bd1565b612d3a60a08301876129f4565b612d4760c08301866129f4565b612d5460e08301856129f4565b818103610100830152612d678184612b0b565b90509a9950505050505050505050565b600061016082019050612d8d600083018e612bd1565b612d9a602083018d6129f4565b612da7604083018c612a21565b612db4606083018b612bd1565b8181036080830152612dc6818a612a69565b905081810360a0830152612dda8189612a69565b905081810360c0830152612dee8188612a69565b905081810360e0830152612e028187612a69565b9050818103610100830152612e178186612a69565b9050818103610120830152612e2c8185612a69565b9050818103610140830152612e418184612a69565b90509c9b505050505050505050505050565b6000612e5d612e6e565b9050612e6982826130a9565b919050565b6000604051905090565b600067ffffffffffffffff821115612e9357612e926131df565b5b612e9c82613222565b9050602081019050919050565b600081519050919050565b600082825260208201905092915050565b600082825260208201905092915050565b6000612ee182613007565b9150612eec83613007565b9250827fffffffffffffffffffffffffffffffffffffffffffffffffffffffffffffffff03821115612f2157612f20613123565b5b828201905092915050565b6000612f3782613007565b9150612f4283613007565b925082612f5257612f51613152565b5b828204905092915050565b6000612f6882613007565b9150612f7383613007565b925082821015612f8657612f85613123565b5b828203905092915050565b6000612f9c82612fe7565b9050919050565b6000612fae82612fe7565b9050919050565b60008115159050919050565b6000819050612fcf826132ae565b919050565b6000819050612fe2826132c2565b919050565b600073ffffffffffffffffffffffffffffffffffffffff82169050919050565b6000819050919050565b600061301c82612fc1565b9050919050565b600061302e82612fd4565b9050919050565b82818337600083830152505050565b60005b83811015613062578082015181840152602081019050613047565b83811115613071576000848401525b50505050565b6000600282049050600182168061308f57607f821691505b602082108114156130a3576130a26131b0565b5b50919050565b6130b282613222565b810181811067ffffffffffffffff821117156130d1576130d06131df565b5b80604052505050565b60006130e582613007565b91507fffffffffffffffffffffffffffffffffffffffffffffffffffffffffffffffff82141561311857613117613123565b5b600182019050919050565b7f4e487b7100000000000000000000000000000000000000000000000000000000600052601160045260246000fd5b7f4e487b7100000000000000000000000000000000000000000000000000000000600052601260045260246000fd5b7f4e487b7100000000000000000000000000000000000000000000000000000000600052602160045260246000fd5b7f4e487b7100000000000000000000000000000000000000000000000000000000600052602260045260246000fd5b7f4e487b7100000000000000000000000000000000000000000000000000000000600052604160045260246000fd5b600080fd5b600080fd5b600080fd5b600080fd5b6000601f19601f8301169050919050565b7f63616c6c6572206973206e6f742061206469737472696275746f722e00000000600082015250565b7f63616c6c6572206973206e6f7420612070726f64756365722e00000000000000600082015250565b7f63616c6c6572206973206e6f742074686520746f6b656e206f776e65722e0000600082015250565b600581106132bf576132be613181565b5b50565b600681106132d3576132d2613181565b5b50565b6132df81612f91565b81146132ea57600080fd5b50565b600581106132fa57600080fd5b50565b61330681613007565b811461331157600080fd5b5056fea2646970667358221220d026556b268d167d914a91d32edb3dd468901481a415aaa417e46b4afe30532f64736f6c63430008070033",
					"opcodes": "PUSH1 0x80 PUSH1 0x40 MSTORE CALLVALUE DUP1 ISZERO PUSH3 0x11 JUMPI PUSH1 0x0 DUP1 REVERT JUMPDEST POP PUSH1 0x40 MLOAD PUSH3 0x37DF CODESIZE SUB DUP1 PUSH3 0x37DF DUP4 CODECOPY DUP2 DUP2 ADD PUSH1 0x40 MSTORE DUP2 ADD SWAP1 PUSH3 0x37 SWAP2 SWAP1 PUSH3 0x243 JUMP JUMPDEST DUP3 PUSH1 0x0 SWAP1 DUP1 MLOAD SWAP1 PUSH1 0x20 ADD SWAP1 PUSH3 0x4F SWAP3 SWAP2 SWAP1 PUSH3 0xFE JUMP JUMPDEST POP DUP2 PUSH1 0x1 SWAP1 DUP1 MLOAD SWAP1 PUSH1 0x20 ADD SWAP1 PUSH3 0x68 SWAP3 SWAP2 SWAP1 PUSH3 0xFE JUMP JUMPDEST POP DUP1 PUSH1 0x3 DUP2 SWAP1 SSTORE POP CALLER PUSH1 0x2 PUSH1 0x0 PUSH2 0x100 EXP DUP2 SLOAD DUP2 PUSH20 0xFFFFFFFFFFFFFFFFFFFFFFFFFFFFFFFFFFFFFFFF MUL NOT AND SWAP1 DUP4 PUSH20 0xFFFFFFFFFFFFFFFFFFFFFFFFFFFFFFFFFFFFFFFF AND MUL OR SWAP1 SSTORE POP DUP1 PUSH1 0x4 PUSH1 0x0 CALLER PUSH20 0xFFFFFFFFFFFFFFFFFFFFFFFFFFFFFFFFFFFFFFFF AND PUSH20 0xFFFFFFFFFFFFFFFFFFFFFFFFFFFFFFFFFFFFFFFF AND DUP2 MSTORE PUSH1 0x20 ADD SWAP1 DUP2 MSTORE PUSH1 0x20 ADD PUSH1 0x0 KECCAK256 DUP2 SWAP1 SSTORE POP POP POP POP PUSH3 0x485 JUMP JUMPDEST DUP3 DUP1 SLOAD PUSH3 0x10C SWAP1 PUSH3 0x37C JUMP JUMPDEST SWAP1 PUSH1 0x0 MSTORE PUSH1 0x20 PUSH1 0x0 KECCAK256 SWAP1 PUSH1 0x1F ADD PUSH1 0x20 SWAP1 DIV DUP2 ADD SWAP3 DUP3 PUSH3 0x130 JUMPI PUSH1 0x0 DUP6 SSTORE PUSH3 0x17C JUMP JUMPDEST DUP3 PUSH1 0x1F LT PUSH3 0x14B JUMPI DUP1 MLOAD PUSH1 0xFF NOT AND DUP4 DUP1 ADD OR DUP6 SSTORE PUSH3 0x17C JUMP JUMPDEST DUP3 DUP1 ADD PUSH1 0x1 ADD DUP6 SSTORE DUP3 ISZERO PUSH3 0x17C JUMPI SWAP2 DUP3 ADD JUMPDEST DUP3 DUP2 GT ISZERO PUSH3 0x17B JUMPI DUP3 MLOAD DUP3 SSTORE SWAP2 PUSH1 0x20 ADD SWAP2 SWAP1 PUSH1 0x1 ADD SWAP1 PUSH3 0x15E JUMP JUMPDEST JUMPDEST POP SWAP1 POP PUSH3 0x18B SWAP2 SWAP1 PUSH3 0x18F JUMP JUMPDEST POP SWAP1 JUMP JUMPDEST JUMPDEST DUP1 DUP3 GT ISZERO PUSH3 0x1AA JUMPI PUSH1 0x0 DUP2 PUSH1 0x0 SWAP1 SSTORE POP PUSH1 0x1 ADD PUSH3 0x190 JUMP JUMPDEST POP SWAP1 JUMP JUMPDEST PUSH1 0x0 PUSH3 0x1C5 PUSH3 0x1BF DUP5 PUSH3 0x306 JUMP JUMPDEST PUSH3 0x2DD JUMP JUMPDEST SWAP1 POP DUP3 DUP2 MSTORE PUSH1 0x20 DUP2 ADD DUP5 DUP5 DUP5 ADD GT ISZERO PUSH3 0x1E4 JUMPI PUSH3 0x1E3 PUSH3 0x44B JUMP JUMPDEST JUMPDEST PUSH3 0x1F1 DUP5 DUP3 DUP6 PUSH3 0x346 JUMP JUMPDEST POP SWAP4 SWAP3 POP POP POP JUMP JUMPDEST PUSH1 0x0 DUP3 PUSH1 0x1F DUP4 ADD SLT PUSH3 0x211 JUMPI PUSH3 0x210 PUSH3 0x446 JUMP JUMPDEST JUMPDEST DUP2 MLOAD PUSH3 0x223 DUP5 DUP3 PUSH1 0x20 DUP7 ADD PUSH3 0x1AE JUMP JUMPDEST SWAP2 POP POP SWAP3 SWAP2 POP POP JUMP JUMPDEST PUSH1 0x0 DUP2 MLOAD SWAP1 POP PUSH3 0x23D DUP2 PUSH3 0x46B JUMP JUMPDEST SWAP3 SWAP2 POP POP JUMP JUMPDEST PUSH1 0x0 DUP1 PUSH1 0x0 PUSH1 0x60 DUP5 DUP7 SUB SLT ISZERO PUSH3 0x25F JUMPI PUSH3 0x25E PUSH3 0x455 JUMP JUMPDEST JUMPDEST PUSH1 0x0 DUP5 ADD MLOAD PUSH8 0xFFFFFFFFFFFFFFFF DUP2 GT ISZERO PUSH3 0x280 JUMPI PUSH3 0x27F PUSH3 0x450 JUMP JUMPDEST JUMPDEST PUSH3 0x28E DUP7 DUP3 DUP8 ADD PUSH3 0x1F9 JUMP JUMPDEST SWAP4 POP POP PUSH1 0x20 DUP5 ADD MLOAD PUSH8 0xFFFFFFFFFFFFFFFF DUP2 GT ISZERO PUSH3 0x2B2 JUMPI PUSH3 0x2B1 PUSH3 0x450 JUMP JUMPDEST JUMPDEST PUSH3 0x2C0 DUP7 DUP3 DUP8 ADD PUSH3 0x1F9 JUMP JUMPDEST SWAP3 POP POP PUSH1 0x40 PUSH3 0x2D3 DUP7 DUP3 DUP8 ADD PUSH3 0x22C JUMP JUMPDEST SWAP2 POP POP SWAP3 POP SWAP3 POP SWAP3 JUMP JUMPDEST PUSH1 0x0 PUSH3 0x2E9 PUSH3 0x2FC JUMP JUMPDEST SWAP1 POP PUSH3 0x2F7 DUP3 DUP3 PUSH3 0x3B2 JUMP JUMPDEST SWAP2 SWAP1 POP JUMP JUMPDEST PUSH1 0x0 PUSH1 0x40 MLOAD SWAP1 POP SWAP1 JUMP JUMPDEST PUSH1 0x0 PUSH8 0xFFFFFFFFFFFFFFFF DUP3 GT ISZERO PUSH3 0x324 JUMPI PUSH3 0x323 PUSH3 0x417 JUMP JUMPDEST JUMPDEST PUSH3 0x32F DUP3 PUSH3 0x45A JUMP JUMPDEST SWAP1 POP PUSH1 0x20 DUP2 ADD SWAP1 POP SWAP2 SWAP1 POP JUMP JUMPDEST PUSH1 0x0 DUP2 SWAP1 POP SWAP2 SWAP1 POP JUMP JUMPDEST PUSH1 0x0 JUMPDEST DUP4 DUP2 LT ISZERO PUSH3 0x366 JUMPI DUP1 DUP3 ADD MLOAD DUP2 DUP5 ADD MSTORE PUSH1 0x20 DUP2 ADD SWAP1 POP PUSH3 0x349 JUMP JUMPDEST DUP4 DUP2 GT ISZERO PUSH3 0x376 JUMPI PUSH1 0x0 DUP5 DUP5 ADD MSTORE JUMPDEST POP POP POP POP JUMP JUMPDEST PUSH1 0x0 PUSH1 0x2 DUP3 DIV SWAP1 POP PUSH1 0x1 DUP3 AND DUP1 PUSH3 0x395 JUMPI PUSH1 0x7F DUP3 AND SWAP2 POP JUMPDEST PUSH1 0x20 DUP3 LT DUP2 EQ ISZERO PUSH3 0x3AC JUMPI PUSH3 0x3AB PUSH3 0x3E8 JUMP JUMPDEST JUMPDEST POP SWAP2 SWAP1 POP JUMP JUMPDEST PUSH3 0x3BD DUP3 PUSH3 0x45A JUMP JUMPDEST DUP2 ADD DUP2 DUP2 LT PUSH8 0xFFFFFFFFFFFFFFFF DUP3 GT OR ISZERO PUSH3 0x3DF JUMPI PUSH3 0x3DE PUSH3 0x417 JUMP JUMPDEST JUMPDEST DUP1 PUSH1 0x40 MSTORE POP POP POP JUMP JUMPDEST PUSH32 0x4E487B7100000000000000000000000000000000000000000000000000000000 PUSH1 0x0 MSTORE PUSH1 0x22 PUSH1 0x4 MSTORE PUSH1 0x24 PUSH1 0x0 REVERT JUMPDEST PUSH32 0x4E487B7100000000000000000000000000000000000000000000000000000000 PUSH1 0x0 MSTORE PUSH1 0x41 PUSH1 0x4 MSTORE PUSH1 0x24 PUSH1 0x0 REVERT JUMPDEST PUSH1 0x0 DUP1 REVERT JUMPDEST PUSH1 0x0 DUP1 REVERT JUMPDEST PUSH1 0x0 DUP1 REVERT JUMPDEST PUSH1 0x0 DUP1 REVERT JUMPDEST PUSH1 0x0 PUSH1 0x1F NOT PUSH1 0x1F DUP4 ADD AND SWAP1 POP SWAP2 SWAP1 POP JUMP JUMPDEST PUSH3 0x476 DUP2 PUSH3 0x33C JUMP JUMPDEST DUP2 EQ PUSH3 0x482 JUMPI PUSH1 0x0 DUP1 REVERT JUMPDEST POP JUMP JUMPDEST PUSH2 0x334A DUP1 PUSH3 0x495 PUSH1 0x0 CODECOPY PUSH1 0x0 RETURN INVALID PUSH1 0x80 PUSH1 0x40 MSTORE PUSH1 0x4 CALLDATASIZE LT PUSH2 0xF3 JUMPI PUSH1 0x0 CALLDATALOAD PUSH1 0xE0 SHR DUP1 PUSH4 0x9DC29FAC GT PUSH2 0x8A JUMPI DUP1 PUSH4 0xB292ABF1 GT PUSH2 0x59 JUMPI DUP1 PUSH4 0xB292ABF1 EQ PUSH2 0x319 JUMPI DUP1 PUSH4 0xCD0C5896 EQ PUSH2 0x357 JUMPI DUP1 PUSH4 0xEEDC966A EQ PUSH2 0x394 JUMPI DUP1 PUSH4 0xF1091029 EQ PUSH2 0x3D1 JUMPI PUSH2 0xF3 JUMP JUMPDEST DUP1 PUSH4 0x9DC29FAC EQ PUSH2 0x292 JUMPI DUP1 PUSH4 0xA0712D68 EQ PUSH2 0x2BB JUMPI DUP1 PUSH4 0xA3E67610 EQ PUSH2 0x2E4 JUMPI DUP1 PUSH4 0xA4821719 EQ PUSH2 0x30F JUMPI PUSH2 0xF3 JUMP JUMPDEST DUP1 PUSH4 0x6813B53B GT PUSH2 0xC6 JUMPI DUP1 PUSH4 0x6813B53B EQ PUSH2 0x19E JUMPI DUP1 PUSH4 0x68CDAFE6 EQ PUSH2 0x1E5 JUMPI DUP1 PUSH4 0x79A85E6C EQ PUSH2 0x222 JUMPI DUP1 PUSH4 0x95D89B41 EQ PUSH2 0x267 JUMPI PUSH2 0xF3 JUMP JUMPDEST DUP1 PUSH4 0x6FDDE03 EQ PUSH2 0xF8 JUMPI DUP1 PUSH4 0x40932FC2 EQ PUSH2 0x123 JUMPI DUP1 PUSH4 0x53B62866 EQ PUSH2 0x14C JUMPI DUP1 PUSH4 0x561E0E98 EQ PUSH2 0x175 JUMPI JUMPDEST PUSH1 0x0 DUP1 REVERT JUMPDEST CALLVALUE DUP1 ISZERO PUSH2 0x104 JUMPI PUSH1 0x0 DUP1 REVERT JUMPDEST POP PUSH2 0x10D PUSH2 0x3FA JUMP JUMPDEST PUSH1 0x40 MLOAD PUSH2 0x11A SWAP2 SWAP1 PUSH2 0x2C46 JUMP JUMPDEST PUSH1 0x40 MLOAD DUP1 SWAP2 SUB SWAP1 RETURN JUMPDEST CALLVALUE DUP1 ISZERO PUSH2 0x12F JUMPI PUSH1 0x0 DUP1 REVERT JUMPDEST POP PUSH2 0x14A PUSH1 0x4 DUP1 CALLDATASIZE SUB DUP2 ADD SWAP1 PUSH2 0x145 SWAP2 SWAP1 PUSH2 0x25AC JUMP JUMPDEST PUSH2 0x488 JUMP JUMPDEST STOP JUMPDEST CALLVALUE DUP1 ISZERO PUSH2 0x158 JUMPI PUSH1 0x0 DUP1 REVERT JUMPDEST POP PUSH2 0x173 PUSH1 0x4 DUP1 CALLDATASIZE SUB DUP2 ADD SWAP1 PUSH2 0x16E SWAP2 SWAP1 PUSH2 0x2802 JUMP JUMPDEST PUSH2 0x6BE JUMP JUMPDEST STOP JUMPDEST CALLVALUE DUP1 ISZERO PUSH2 0x181 JUMPI PUSH1 0x0 DUP1 REVERT JUMPDEST POP PUSH2 0x19C PUSH1 0x4 DUP1 CALLDATASIZE SUB DUP2 ADD SWAP1 PUSH2 0x197 SWAP2 SWAP1 PUSH2 0x2842 JUMP JUMPDEST PUSH2 0x971 JUMP JUMPDEST STOP JUMPDEST CALLVALUE DUP1 ISZERO PUSH2 0x1AA JUMPI PUSH1 0x0 DUP1 REVERT JUMPDEST POP PUSH2 0x1C5 PUSH1 0x4 DUP1 CALLDATASIZE SUB DUP2 ADD SWAP1 PUSH2 0x1C0 SWAP2 SWAP1 PUSH2 0x265B JUMP JUMPDEST PUSH2 0xCA9 JUMP JUMPDEST PUSH1 0x40 MLOAD PUSH2 0x1DC SWAP12 SWAP11 SWAP10 SWAP9 SWAP8 SWAP7 SWAP6 SWAP5 SWAP4 SWAP3 SWAP2 SWAP1 PUSH2 0x2D77 JUMP JUMPDEST PUSH1 0x40 MLOAD DUP1 SWAP2 SUB SWAP1 RETURN JUMPDEST CALLVALUE DUP1 ISZERO PUSH2 0x1F1 JUMPI PUSH1 0x0 DUP1 REVERT JUMPDEST POP PUSH2 0x20C PUSH1 0x4 DUP1 CALLDATASIZE SUB DUP2 ADD SWAP1 PUSH2 0x207 SWAP2 SWAP1 PUSH2 0x261B JUMP JUMPDEST PUSH2 0x11D6 JUMP JUMPDEST PUSH1 0x40 MLOAD PUSH2 0x219 SWAP2 SWAP1 PUSH2 0x2BFB JUMP JUMPDEST PUSH1 0x40 MLOAD DUP1 SWAP2 SUB SWAP1 RETURN JUMPDEST CALLVALUE DUP1 ISZERO PUSH2 0x22E JUMPI PUSH1 0x0 DUP1 REVERT JUMPDEST POP PUSH2 0x249 PUSH1 0x4 DUP1 CALLDATASIZE SUB DUP2 ADD SWAP1 PUSH2 0x244 SWAP2 SWAP1 PUSH2 0x265B JUMP JUMPDEST PUSH2 0x1314 JUMP JUMPDEST PUSH1 0x40 MLOAD PUSH2 0x25E SWAP10 SWAP9 SWAP8 SWAP7 SWAP6 SWAP5 SWAP4 SWAP3 SWAP2 SWAP1 PUSH2 0x2CE3 JUMP JUMPDEST PUSH1 0x40 MLOAD DUP1 SWAP2 SUB SWAP1 RETURN JUMPDEST CALLVALUE DUP1 ISZERO PUSH2 0x273 JUMPI PUSH1 0x0 DUP1 REVERT JUMPDEST POP PUSH2 0x27C PUSH2 0x18CB JUMP JUMPDEST PUSH1 0x40 MLOAD PUSH2 0x289 SWAP2 SWAP1 PUSH2 0x2C46 JUMP JUMPDEST PUSH1 0x40 MLOAD DUP1 SWAP2 SUB SWAP1 RETURN JUMPDEST CALLVALUE DUP1 ISZERO PUSH2 0x29E JUMPI PUSH1 0x0 DUP1 REVERT JUMPDEST POP PUSH2 0x2B9 PUSH1 0x4 DUP1 CALLDATASIZE SUB DUP2 ADD SWAP1 PUSH2 0x2B4 SWAP2 SWAP1 PUSH2 0x261B JUMP JUMPDEST PUSH2 0x1959 JUMP JUMPDEST STOP JUMPDEST CALLVALUE DUP1 ISZERO PUSH2 0x2C7 JUMPI PUSH1 0x0 DUP1 REVERT JUMPDEST POP PUSH2 0x2E2 PUSH1 0x4 DUP1 CALLDATASIZE SUB DUP2 ADD SWAP1 PUSH2 0x2DD SWAP2 SWAP1 PUSH2 0x265B JUMP JUMPDEST PUSH2 0x1AE2 JUMP JUMPDEST STOP JUMPDEST CALLVALUE DUP1 ISZERO PUSH2 0x2F0 JUMPI PUSH1 0x0 DUP1 REVERT JUMPDEST POP PUSH2 0x2F9 PUSH2 0x1BE4 JUMP JUMPDEST PUSH1 0x40 MLOAD PUSH2 0x306 SWAP2 SWAP1 PUSH2 0x2BE0 JUMP JUMPDEST PUSH1 0x40 MLOAD DUP1 SWAP2 SUB SWAP1 RETURN JUMPDEST PUSH2 0x317 PUSH2 0x1C0A JUMP JUMPDEST STOP JUMPDEST CALLVALUE DUP1 ISZERO PUSH2 0x325 JUMPI PUSH1 0x0 DUP1 REVERT JUMPDEST POP PUSH2 0x340 PUSH1 0x4 DUP1 CALLDATASIZE SUB DUP2 ADD SWAP1 PUSH2 0x33B SWAP2 SWAP1 PUSH2 0x257F JUMP JUMPDEST PUSH2 0x1D62 JUMP JUMPDEST PUSH1 0x40 MLOAD PUSH2 0x34E SWAP3 SWAP2 SWAP1 PUSH2 0x2C16 JUMP JUMPDEST PUSH1 0x40 MLOAD DUP1 SWAP2 SUB SWAP1 RETURN JUMPDEST CALLVALUE DUP1 ISZERO PUSH2 0x363 JUMPI PUSH1 0x0 DUP1 REVERT JUMPDEST POP PUSH2 0x37E PUSH1 0x4 DUP1 CALLDATASIZE SUB DUP2 ADD SWAP1 PUSH2 0x379 SWAP2 SWAP1 PUSH2 0x257F JUMP JUMPDEST PUSH2 0x1E8A JUMP JUMPDEST PUSH1 0x40 MLOAD PUSH2 0x38B SWAP2 SWAP1 PUSH2 0x2CC8 JUMP JUMPDEST PUSH1 0x40 MLOAD DUP1 SWAP2 SUB SWAP1 RETURN JUMPDEST CALLVALUE DUP1 ISZERO PUSH2 0x3A0 JUMPI PUSH1 0x0 DUP1 REVERT JUMPDEST POP PUSH2 0x3BB PUSH1 0x4 DUP1 CALLDATASIZE SUB DUP2 ADD SWAP1 PUSH2 0x3B6 SWAP2 SWAP1 PUSH2 0x257F JUMP JUMPDEST PUSH2 0x1EAB JUMP JUMPDEST PUSH1 0x40 MLOAD PUSH2 0x3C8 SWAP2 SWAP1 PUSH2 0x2CC8 JUMP JUMPDEST PUSH1 0x40 MLOAD DUP1 SWAP2 SUB SWAP1 RETURN JUMPDEST CALLVALUE DUP1 ISZERO PUSH2 0x3DD JUMPI PUSH1 0x0 DUP1 REVERT JUMPDEST POP PUSH2 0x3F8 PUSH1 0x4 DUP1 CALLDATASIZE SUB DUP2 ADD SWAP1 PUSH2 0x3F3 SWAP2 SWAP1 PUSH2 0x2688 JUMP JUMPDEST PUSH2 0x1EF4 JUMP JUMPDEST STOP JUMPDEST PUSH1 0x0 DUP1 SLOAD PUSH2 0x407 SWAP1 PUSH2 0x3077 JUMP JUMPDEST DUP1 PUSH1 0x1F ADD PUSH1 0x20 DUP1 SWAP2 DIV MUL PUSH1 0x20 ADD PUSH1 0x40 MLOAD SWAP1 DUP2 ADD PUSH1 0x40 MSTORE DUP1 SWAP3 SWAP2 SWAP1 DUP2 DUP2 MSTORE PUSH1 0x20 ADD DUP3 DUP1 SLOAD PUSH2 0x433 SWAP1 PUSH2 0x3077 JUMP JUMPDEST DUP1 ISZERO PUSH2 0x480 JUMPI DUP1 PUSH1 0x1F LT PUSH2 0x455 JUMPI PUSH2 0x100 DUP1 DUP4 SLOAD DIV MUL DUP4 MSTORE SWAP2 PUSH1 0x20 ADD SWAP2 PUSH2 0x480 JUMP JUMPDEST DUP3 ADD SWAP2 SWAP1 PUSH1 0x0 MSTORE PUSH1 0x20 PUSH1 0x0 KECCAK256 SWAP1 JUMPDEST DUP2 SLOAD DUP2 MSTORE SWAP1 PUSH1 0x1 ADD SWAP1 PUSH1 0x20 ADD DUP1 DUP4 GT PUSH2 0x463 JUMPI DUP3 SWAP1 SUB PUSH1 0x1F AND DUP3 ADD SWAP2 JUMPDEST POP POP POP POP POP DUP2 JUMP JUMPDEST PUSH1 0x0 PUSH1 0x5 PUSH1 0x0 DUP6 PUSH20 0xFFFFFFFFFFFFFFFFFFFFFFFFFFFFFFFFFFFFFFFF AND PUSH20 0xFFFFFFFFFFFFFFFFFFFFFFFFFFFFFFFFFFFFFFFF AND DUP2 MSTORE PUSH1 0x20 ADD SWAP1 DUP2 MSTORE PUSH1 0x20 ADD PUSH1 0x0 KECCAK256 PUSH1 0x40 MLOAD DUP1 PUSH1 0x60 ADD PUSH1 0x40 MSTORE SWAP1 DUP2 PUSH1 0x0 DUP3 ADD PUSH1 0x0 SWAP1 SLOAD SWAP1 PUSH2 0x100 EXP SWAP1 DIV PUSH1 0xFF AND PUSH1 0x4 DUP2 GT ISZERO PUSH2 0x4F9 JUMPI PUSH2 0x4F8 PUSH2 0x3181 JUMP JUMPDEST JUMPDEST PUSH1 0x4 DUP2 GT ISZERO PUSH2 0x50B JUMPI PUSH2 0x50A PUSH2 0x3181 JUMP JUMPDEST JUMPDEST DUP2 MSTORE PUSH1 0x20 ADD PUSH1 0x1 DUP3 ADD DUP1 SLOAD PUSH2 0x51F SWAP1 PUSH2 0x3077 JUMP JUMPDEST DUP1 PUSH1 0x1F ADD PUSH1 0x20 DUP1 SWAP2 DIV MUL PUSH1 0x20 ADD PUSH1 0x40 MLOAD SWAP1 DUP2 ADD PUSH1 0x40 MSTORE DUP1 SWAP3 SWAP2 SWAP1 DUP2 DUP2 MSTORE PUSH1 0x20 ADD DUP3 DUP1 SLOAD PUSH2 0x54B SWAP1 PUSH2 0x3077 JUMP JUMPDEST DUP1 ISZERO PUSH2 0x598 JUMPI DUP1 PUSH1 0x1F LT PUSH2 0x56D JUMPI PUSH2 0x100 DUP1 DUP4 SLOAD DIV MUL DUP4 MSTORE SWAP2 PUSH1 0x20 ADD SWAP2 PUSH2 0x598 JUMP JUMPDEST DUP3 ADD SWAP2 SWAP1 PUSH1 0x0 MSTORE PUSH1 0x20 PUSH1 0x0 KECCAK256 SWAP1 JUMPDEST DUP2 SLOAD DUP2 MSTORE SWAP1 PUSH1 0x1 ADD SWAP1 PUSH1 0x20 ADD DUP1 DUP4 GT PUSH2 0x57B JUMPI DUP3 SWAP1 SUB PUSH1 0x1F AND DUP3 ADD SWAP2 JUMPDEST POP POP POP POP POP DUP2 MSTORE PUSH1 0x20 ADD PUSH1 0x2 DUP3 ADD PUSH1 0x0 SWAP1 SLOAD SWAP1 PUSH2 0x100 EXP SWAP1 DIV PUSH1 0xFF AND ISZERO ISZERO ISZERO ISZERO DUP2 MSTORE POP POP SWAP1 POP DUP3 DUP2 PUSH1 0x0 ADD SWAP1 PUSH1 0x4 DUP2 GT ISZERO PUSH2 0x5D6 JUMPI PUSH2 0x5D5 PUSH2 0x3181 JUMP JUMPDEST JUMPDEST SWAP1 DUP2 PUSH1 0x4 DUP2 GT ISZERO PUSH2 0x5EA JUMPI PUSH2 0x5E9 PUSH2 0x3181 JUMP JUMPDEST JUMPDEST DUP2 MSTORE POP POP DUP2 DUP2 PUSH1 0x20 ADD DUP2 SWAP1 MSTORE POP PUSH1 0x1 DUP2 PUSH1 0x40 ADD SWAP1 ISZERO ISZERO SWAP1 DUP2 ISZERO ISZERO DUP2 MSTORE POP POP DUP1 PUSH1 0x5 PUSH1 0x0 DUP7 PUSH20 0xFFFFFFFFFFFFFFFFFFFFFFFFFFFFFFFFFFFFFFFF AND PUSH20 0xFFFFFFFFFFFFFFFFFFFFFFFFFFFFFFFFFFFFFFFF AND DUP2 MSTORE PUSH1 0x20 ADD SWAP1 DUP2 MSTORE PUSH1 0x20 ADD PUSH1 0x0 KECCAK256 PUSH1 0x0 DUP3 ADD MLOAD DUP2 PUSH1 0x0 ADD PUSH1 0x0 PUSH2 0x100 EXP DUP2 SLOAD DUP2 PUSH1 0xFF MUL NOT AND SWAP1 DUP4 PUSH1 0x4 DUP2 GT ISZERO PUSH2 0x673 JUMPI PUSH2 0x672 PUSH2 0x3181 JUMP JUMPDEST JUMPDEST MUL OR SWAP1 SSTORE POP PUSH1 0x20 DUP3 ADD MLOAD DUP2 PUSH1 0x1 ADD SWAP1 DUP1 MLOAD SWAP1 PUSH1 0x20 ADD SWAP1 PUSH2 0x694 SWAP3 SWAP2 SWAP1 PUSH2 0x23F0 JUMP JUMPDEST POP PUSH1 0x40 DUP3 ADD MLOAD DUP2 PUSH1 0x2 ADD PUSH1 0x0 PUSH2 0x100 EXP DUP2 SLOAD DUP2 PUSH1 0xFF MUL NOT AND SWAP1 DUP4 ISZERO ISZERO MUL OR SWAP1 SSTORE POP SWAP1 POP POP POP POP POP POP JUMP JUMPDEST PUSH1 0x1 PUSH1 0x4 DUP2 GT ISZERO PUSH2 0x6D2 JUMPI PUSH2 0x6D1 PUSH2 0x3181 JUMP JUMPDEST JUMPDEST PUSH1 0x5 PUSH1 0x0 CALLER PUSH20 0xFFFFFFFFFFFFFFFFFFFFFFFFFFFFFFFFFFFFFFFF AND PUSH20 0xFFFFFFFFFFFFFFFFFFFFFFFFFFFFFFFFFFFFFFFF AND DUP2 MSTORE PUSH1 0x20 ADD SWAP1 DUP2 MSTORE PUSH1 0x20 ADD PUSH1 0x0 KECCAK256 PUSH1 0x0 ADD PUSH1 0x0 SWAP1 SLOAD SWAP1 PUSH2 0x100 EXP SWAP1 DIV PUSH1 0xFF AND PUSH1 0x4 DUP2 GT ISZERO PUSH2 0x734 JUMPI PUSH2 0x733 PUSH2 0x3181 JUMP JUMPDEST JUMPDEST EQ PUSH2 0x774 JUMPI PUSH1 0x40 MLOAD PUSH32 0x8C379A000000000000000000000000000000000000000000000000000000000 DUP2 MSTORE PUSH1 0x4 ADD PUSH2 0x76B SWAP1 PUSH2 0x2C68 JUMP JUMPDEST PUSH1 0x40 MLOAD DUP1 SWAP2 SUB SWAP1 REVERT JUMPDEST PUSH1 0x0 PUSH1 0x6 PUSH1 0x0 DUP5 DUP2 MSTORE PUSH1 0x20 ADD SWAP1 DUP2 MSTORE PUSH1 0x20 ADD PUSH1 0x0 KECCAK256 SWAP1 POP PUSH1 0x0 PUSH1 0x4 PUSH1 0x0 CALLER PUSH20 0xFFFFFFFFFFFFFFFFFFFFFFFFFFFFFFFFFFFFFFFF AND PUSH20 0xFFFFFFFFFFFFFFFFFFFFFFFFFFFFFFFFFFFFFFFF AND DUP2 MSTORE PUSH1 0x20 ADD SWAP1 DUP2 MSTORE PUSH1 0x20 ADD PUSH1 0x0 KECCAK256 SLOAD SWAP1 POP DUP2 PUSH1 0x5 ADD SLOAD DUP2 LT ISZERO PUSH2 0x7E0 JUMPI PUSH1 0x0 DUP1 REVERT JUMPDEST PUSH1 0x1 PUSH1 0x5 DUP2 GT ISZERO PUSH2 0x7F4 JUMPI PUSH2 0x7F3 PUSH2 0x3181 JUMP JUMPDEST JUMPDEST DUP3 PUSH1 0x4 ADD PUSH1 0x0 SWAP1 SLOAD SWAP1 PUSH2 0x100 EXP SWAP1 DIV PUSH1 0xFF AND PUSH1 0x5 DUP2 GT ISZERO PUSH2 0x818 JUMPI PUSH2 0x817 PUSH2 0x3181 JUMP JUMPDEST JUMPDEST EQ PUSH2 0x822 JUMPI PUSH1 0x0 DUP1 REVERT JUMPDEST DUP3 PUSH1 0x6 PUSH1 0x0 DUP7 DUP2 MSTORE PUSH1 0x20 ADD SWAP1 DUP2 MSTORE PUSH1 0x20 ADD PUSH1 0x0 KECCAK256 PUSH1 0x3 ADD DUP2 SWAP1 SSTORE POP CALLER PUSH1 0x6 PUSH1 0x0 DUP7 DUP2 MSTORE PUSH1 0x20 ADD SWAP1 DUP2 MSTORE PUSH1 0x20 ADD PUSH1 0x0 KECCAK256 PUSH1 0x6 ADD PUSH1 0x0 PUSH2 0x100 EXP DUP2 SLOAD DUP2 PUSH20 0xFFFFFFFFFFFFFFFFFFFFFFFFFFFFFFFFFFFFFFFF MUL NOT AND SWAP1 DUP4 PUSH20 0xFFFFFFFFFFFFFFFFFFFFFFFFFFFFFFFFFFFFFFFF AND MUL OR SWAP1 SSTORE POP PUSH2 0x8D6 PUSH1 0x6 PUSH1 0x0 DUP7 DUP2 MSTORE PUSH1 0x20 ADD SWAP1 DUP2 MSTORE PUSH1 0x20 ADD PUSH1 0x0 KECCAK256 PUSH1 0x1 ADD PUSH1 0x0 SWAP1 SLOAD SWAP1 PUSH2 0x100 EXP SWAP1 DIV PUSH20 0xFFFFFFFFFFFFFFFFFFFFFFFFFFFFFFFFFFFFFFFF AND DUP4 PUSH1 0x5 ADD SLOAD PUSH2 0x11D6 JUMP JUMPDEST POP PUSH1 0x5 PUSH1 0x6 PUSH1 0x0 DUP7 DUP2 MSTORE PUSH1 0x20 ADD SWAP1 DUP2 MSTORE PUSH1 0x20 ADD PUSH1 0x0 KECCAK256 PUSH1 0x4 ADD PUSH1 0x0 PUSH2 0x100 EXP DUP2 SLOAD DUP2 PUSH1 0xFF MUL NOT AND SWAP1 DUP4 PUSH1 0x5 DUP2 GT ISZERO PUSH2 0x911 JUMPI PUSH2 0x910 PUSH2 0x3181 JUMP JUMPDEST JUMPDEST MUL OR SWAP1 SSTORE POP CALLER PUSH1 0x6 PUSH1 0x0 DUP7 DUP2 MSTORE PUSH1 0x20 ADD SWAP1 DUP2 MSTORE PUSH1 0x20 ADD PUSH1 0x0 KECCAK256 PUSH1 0x1 ADD PUSH1 0x0 PUSH2 0x100 EXP DUP2 SLOAD DUP2 PUSH20 0xFFFFFFFFFFFFFFFFFFFFFFFFFFFFFFFFFFFFFFFF MUL NOT AND SWAP1 DUP4 PUSH20 0xFFFFFFFFFFFFFFFFFFFFFFFFFFFFFFFFFFFFFFFF AND MUL OR SWAP1 SSTORE POP POP POP POP POP JUMP JUMPDEST PUSH1 0x0 PUSH1 0x4 DUP2 GT ISZERO PUSH2 0x985 JUMPI PUSH2 0x984 PUSH2 0x3181 JUMP JUMPDEST JUMPDEST PUSH1 0x5 PUSH1 0x0 CALLER PUSH20 0xFFFFFFFFFFFFFFFFFFFFFFFFFFFFFFFFFFFFFFFF AND PUSH20 0xFFFFFFFFFFFFFFFFFFFFFFFFFFFFFFFFFFFFFFFF AND DUP2 MSTORE PUSH1 0x20 ADD SWAP1 DUP2 MSTORE PUSH1 0x20 ADD PUSH1 0x0 KECCAK256 PUSH1 0x0 ADD PUSH1 0x0 SWAP1 SLOAD SWAP1 PUSH2 0x100 EXP SWAP1 DIV PUSH1 0xFF AND PUSH1 0x4 DUP2 GT ISZERO PUSH2 0x9E7 JUMPI PUSH2 0x9E6 PUSH2 0x3181 JUMP JUMPDEST JUMPDEST EQ PUSH2 0xA27 JUMPI PUSH1 0x40 MLOAD PUSH32 0x8C379A000000000000000000000000000000000000000000000000000000000 DUP2 MSTORE PUSH1 0x4 ADD PUSH2 0xA1E SWAP1 PUSH2 0x2C88 JUMP JUMPDEST PUSH1 0x40 MLOAD DUP1 SWAP2 SUB SWAP1 REVERT JUMPDEST PUSH1 0x0 PUSH1 0x6 PUSH1 0x0 DUP13 DUP2 MSTORE PUSH1 0x20 ADD SWAP1 DUP2 MSTORE PUSH1 0x20 ADD PUSH1 0x0 KECCAK256 SWAP1 POP DUP11 DUP2 PUSH1 0x0 ADD DUP2 SWAP1 SSTORE POP CALLER DUP2 PUSH1 0x1 ADD PUSH1 0x0 PUSH2 0x100 EXP DUP2 SLOAD DUP2 PUSH20 0xFFFFFFFFFFFFFFFFFFFFFFFFFFFFFFFFFFFFFFFF MUL NOT AND SWAP1 DUP4 PUSH20 0xFFFFFFFFFFFFFFFFFFFFFFFFFFFFFFFFFFFFFFFF AND MUL OR SWAP1 SSTORE POP CALLER DUP2 PUSH1 0x2 ADD PUSH1 0x0 PUSH2 0x100 EXP DUP2 SLOAD DUP2 PUSH20 0xFFFFFFFFFFFFFFFFFFFFFFFFFFFFFFFFFFFFFFFF MUL NOT AND SWAP1 DUP4 PUSH20 0xFFFFFFFFFFFFFFFFFFFFFFFFFFFFFFFFFFFFFFFF AND MUL OR SWAP1 SSTORE POP DUP10 DUP2 PUSH1 0x3 ADD DUP2 SWAP1 SSTORE POP PUSH1 0x1 DUP2 PUSH1 0x4 ADD PUSH1 0x0 PUSH2 0x100 EXP DUP2 SLOAD DUP2 PUSH1 0xFF MUL NOT AND SWAP1 DUP4 PUSH1 0x5 DUP2 GT ISZERO PUSH2 0xAFE JUMPI PUSH2 0xAFD PUSH2 0x3181 JUMP JUMPDEST JUMPDEST MUL OR SWAP1 SSTORE POP DUP9 DUP2 PUSH1 0x5 ADD DUP2 SWAP1 SSTORE POP PUSH1 0x0 DUP2 PUSH1 0x6 ADD PUSH1 0x0 PUSH2 0x100 EXP DUP2 SLOAD DUP2 PUSH20 0xFFFFFFFFFFFFFFFFFFFFFFFFFFFFFFFFFFFFFFFF MUL NOT AND SWAP1 DUP4 PUSH20 0xFFFFFFFFFFFFFFFFFFFFFFFFFFFFFFFFFFFFFFFF AND MUL OR SWAP1 SSTORE POP PUSH1 0x0 DUP2 PUSH1 0x7 ADD PUSH1 0x0 PUSH2 0x100 EXP DUP2 SLOAD DUP2 PUSH20 0xFFFFFFFFFFFFFFFFFFFFFFFFFFFFFFFFFFFFFFFF MUL NOT AND SWAP1 DUP4 PUSH20 0xFFFFFFFFFFFFFFFFFFFFFFFFFFFFFFFFFFFFFFFF AND MUL OR SWAP1 SSTORE POP PUSH1 0x0 DUP2 PUSH1 0x8 ADD PUSH1 0x0 PUSH2 0x100 EXP DUP2 SLOAD DUP2 PUSH20 0xFFFFFFFFFFFFFFFFFFFFFFFFFFFFFFFFFFFFFFFF MUL NOT AND SWAP1 DUP4 PUSH20 0xFFFFFFFFFFFFFFFFFFFFFFFFFFFFFFFFFFFFFFFF AND MUL OR SWAP1 SSTORE POP DUP8 DUP2 PUSH1 0x9 ADD PUSH1 0x0 ADD SWAP1 DUP1 MLOAD SWAP1 PUSH1 0x20 ADD SWAP1 PUSH2 0xBF3 SWAP3 SWAP2 SWAP1 PUSH2 0x23F0 JUMP JUMPDEST POP DUP7 DUP2 PUSH1 0x9 ADD PUSH1 0x1 ADD SWAP1 DUP1 MLOAD SWAP1 PUSH1 0x20 ADD SWAP1 PUSH2 0xC0F SWAP3 SWAP2 SWAP1 PUSH2 0x23F0 JUMP JUMPDEST POP DUP6 DUP2 PUSH1 0x9 ADD PUSH1 0x2 ADD SWAP1 DUP1 MLOAD SWAP1 PUSH1 0x20 ADD SWAP1 PUSH2 0xC2B SWAP3 SWAP2 SWAP1 PUSH2 0x23F0 JUMP JUMPDEST POP DUP5 DUP2 PUSH1 0x9 ADD PUSH1 0x3 ADD SWAP1 DUP1 MLOAD SWAP1 PUSH1 0x20 ADD SWAP1 PUSH2 0xC47 SWAP3 SWAP2 SWAP1 PUSH2 0x23F0 JUMP JUMPDEST POP DUP4 DUP2 PUSH1 0x9 ADD PUSH1 0x4 ADD SWAP1 DUP1 MLOAD SWAP1 PUSH1 0x20 ADD SWAP1 PUSH2 0xC63 SWAP3 SWAP2 SWAP1 PUSH2 0x23F0 JUMP JUMPDEST POP DUP3 DUP2 PUSH1 0x9 ADD PUSH1 0x5 ADD SWAP1 DUP1 MLOAD SWAP1 PUSH1 0x20 ADD SWAP1 PUSH2 0xC7F SWAP3 SWAP2 SWAP1 PUSH2 0x23F0 JUMP JUMPDEST POP DUP2 DUP2 PUSH1 0x9 ADD PUSH1 0x6 ADD SWAP1 DUP1 MLOAD SWAP1 PUSH1 0x20 ADD SWAP1 PUSH2 0xC9B SWAP3 SWAP2 SWAP1 PUSH2 0x23F0 JUMP JUMPDEST POP POP POP POP POP POP POP POP POP POP POP POP JUMP JUMPDEST PUSH1 0x0 DUP1 PUSH1 0x0 DUP1 PUSH1 0x60 DUP1 PUSH1 0x60 DUP1 PUSH1 0x60 DUP1 PUSH1 0x60 PUSH1 0x6 PUSH1 0x0 DUP14 DUP2 MSTORE PUSH1 0x20 ADD SWAP1 DUP2 MSTORE PUSH1 0x20 ADD PUSH1 0x0 KECCAK256 PUSH1 0x0 ADD SLOAD SWAP11 POP PUSH1 0x6 PUSH1 0x0 DUP14 DUP2 MSTORE PUSH1 0x20 ADD SWAP1 DUP2 MSTORE PUSH1 0x20 ADD PUSH1 0x0 KECCAK256 PUSH1 0x1 ADD PUSH1 0x0 SWAP1 SLOAD SWAP1 PUSH2 0x100 EXP SWAP1 DIV PUSH20 0xFFFFFFFFFFFFFFFFFFFFFFFFFFFFFFFFFFFFFFFF AND SWAP10 POP PUSH1 0x6 PUSH1 0x0 DUP14 DUP2 MSTORE PUSH1 0x20 ADD SWAP1 DUP2 MSTORE PUSH1 0x20 ADD PUSH1 0x0 KECCAK256 PUSH1 0x4 ADD PUSH1 0x0 SWAP1 SLOAD SWAP1 PUSH2 0x100 EXP SWAP1 DIV PUSH1 0xFF AND SWAP9 POP PUSH1 0x6 PUSH1 0x0 DUP14 DUP2 MSTORE PUSH1 0x20 ADD SWAP1 DUP2 MSTORE PUSH1 0x20 ADD PUSH1 0x0 KECCAK256 PUSH1 0x5 ADD SLOAD SWAP8 POP PUSH1 0x6 PUSH1 0x0 DUP14 DUP2 MSTORE PUSH1 0x20 ADD SWAP1 DUP2 MSTORE PUSH1 0x20 ADD PUSH1 0x0 KECCAK256 PUSH1 0x9 ADD PUSH1 0x0 ADD DUP1 SLOAD PUSH2 0xD6F SWAP1 PUSH2 0x3077 JUMP JUMPDEST DUP1 PUSH1 0x1F ADD PUSH1 0x20 DUP1 SWAP2 DIV MUL PUSH1 0x20 ADD PUSH1 0x40 MLOAD SWAP1 DUP2 ADD PUSH1 0x40 MSTORE DUP1 SWAP3 SWAP2 SWAP1 DUP2 DUP2 MSTORE PUSH1 0x20 ADD DUP3 DUP1 SLOAD PUSH2 0xD9B SWAP1 PUSH2 0x3077 JUMP JUMPDEST DUP1 ISZERO PUSH2 0xDE8 JUMPI DUP1 PUSH1 0x1F LT PUSH2 0xDBD JUMPI PUSH2 0x100 DUP1 DUP4 SLOAD DIV MUL DUP4 MSTORE SWAP2 PUSH1 0x20 ADD SWAP2 PUSH2 0xDE8 JUMP JUMPDEST DUP3 ADD SWAP2 SWAP1 PUSH1 0x0 MSTORE PUSH1 0x20 PUSH1 0x0 KECCAK256 SWAP1 JUMPDEST DUP2 SLOAD DUP2 MSTORE SWAP1 PUSH1 0x1 ADD SWAP1 PUSH1 0x20 ADD DUP1 DUP4 GT PUSH2 0xDCB JUMPI DUP3 SWAP1 SUB PUSH1 0x1F AND DUP3 ADD SWAP2 JUMPDEST POP POP POP POP POP SWAP7 POP PUSH1 0x6 PUSH1 0x0 DUP14 DUP2 MSTORE PUSH1 0x20 ADD SWAP1 DUP2 MSTORE PUSH1 0x20 ADD PUSH1 0x0 KECCAK256 PUSH1 0x9 ADD PUSH1 0x1 ADD DUP1 SLOAD PUSH2 0xE13 SWAP1 PUSH2 0x3077 JUMP JUMPDEST DUP1 PUSH1 0x1F ADD PUSH1 0x20 DUP1 SWAP2 DIV MUL PUSH1 0x20 ADD PUSH1 0x40 MLOAD SWAP1 DUP2 ADD PUSH1 0x40 MSTORE DUP1 SWAP3 SWAP2 SWAP1 DUP2 DUP2 MSTORE PUSH1 0x20 ADD DUP3 DUP1 SLOAD PUSH2 0xE3F SWAP1 PUSH2 0x3077 JUMP JUMPDEST DUP1 ISZERO PUSH2 0xE8C JUMPI DUP1 PUSH1 0x1F LT PUSH2 0xE61 JUMPI PUSH2 0x100 DUP1 DUP4 SLOAD DIV MUL DUP4 MSTORE SWAP2 PUSH1 0x20 ADD SWAP2 PUSH2 0xE8C JUMP JUMPDEST DUP3 ADD SWAP2 SWAP1 PUSH1 0x0 MSTORE PUSH1 0x20 PUSH1 0x0 KECCAK256 SWAP1 JUMPDEST DUP2 SLOAD DUP2 MSTORE SWAP1 PUSH1 0x1 ADD SWAP1 PUSH1 0x20 ADD DUP1 DUP4 GT PUSH2 0xE6F JUMPI DUP3 SWAP1 SUB PUSH1 0x1F AND DUP3 ADD SWAP2 JUMPDEST POP POP POP POP POP SWAP6 POP PUSH1 0x6 PUSH1 0x0 DUP14 DUP2 MSTORE PUSH1 0x20 ADD SWAP1 DUP2 MSTORE PUSH1 0x20 ADD PUSH1 0x0 KECCAK256 PUSH1 0x9 ADD PUSH1 0x2 ADD DUP1 SLOAD PUSH2 0xEB7 SWAP1 PUSH2 0x3077 JUMP JUMPDEST DUP1 PUSH1 0x1F ADD PUSH1 0x20 DUP1 SWAP2 DIV MUL PUSH1 0x20 ADD PUSH1 0x40 MLOAD SWAP1 DUP2 ADD PUSH1 0x40 MSTORE DUP1 SWAP3 SWAP2 SWAP1 DUP2 DUP2 MSTORE PUSH1 0x20 ADD DUP3 DUP1 SLOAD PUSH2 0xEE3 SWAP1 PUSH2 0x3077 JUMP JUMPDEST DUP1 ISZERO PUSH2 0xF30 JUMPI DUP1 PUSH1 0x1F LT PUSH2 0xF05 JUMPI PUSH2 0x100 DUP1 DUP4 SLOAD DIV MUL DUP4 MSTORE SWAP2 PUSH1 0x20 ADD SWAP2 PUSH2 0xF30 JUMP JUMPDEST DUP3 ADD SWAP2 SWAP1 PUSH1 0x0 MSTORE PUSH1 0x20 PUSH1 0x0 KECCAK256 SWAP1 JUMPDEST DUP2 SLOAD DUP2 MSTORE SWAP1 PUSH1 0x1 ADD SWAP1 PUSH1 0x20 ADD DUP1 DUP4 GT PUSH2 0xF13 JUMPI DUP3 SWAP1 SUB PUSH1 0x1F AND DUP3 ADD SWAP2 JUMPDEST POP POP POP POP POP SWAP5 POP PUSH1 0x6 PUSH1 0x0 DUP14 DUP2 MSTORE PUSH1 0x20 ADD SWAP1 DUP2 MSTORE PUSH1 0x20 ADD PUSH1 0x0 KECCAK256 PUSH1 0x9 ADD PUSH1 0x3 ADD DUP1 SLOAD PUSH2 0xF5B SWAP1 PUSH2 0x3077 JUMP JUMPDEST DUP1 PUSH1 0x1F ADD PUSH1 0x20 DUP1 SWAP2 DIV MUL PUSH1 0x20 ADD PUSH1 0x40 MLOAD SWAP1 DUP2 ADD PUSH1 0x40 MSTORE DUP1 SWAP3 SWAP2 SWAP1 DUP2 DUP2 MSTORE PUSH1 0x20 ADD DUP3 DUP1 SLOAD PUSH2 0xF87 SWAP1 PUSH2 0x3077 JUMP JUMPDEST DUP1 ISZERO PUSH2 0xFD4 JUMPI DUP1 PUSH1 0x1F LT PUSH2 0xFA9 JUMPI PUSH2 0x100 DUP1 DUP4 SLOAD DIV MUL DUP4 MSTORE SWAP2 PUSH1 0x20 ADD SWAP2 PUSH2 0xFD4 JUMP JUMPDEST DUP3 ADD SWAP2 SWAP1 PUSH1 0x0 MSTORE PUSH1 0x20 PUSH1 0x0 KECCAK256 SWAP1 JUMPDEST DUP2 SLOAD DUP2 MSTORE SWAP1 PUSH1 0x1 ADD SWAP1 PUSH1 0x20 ADD DUP1 DUP4 GT PUSH2 0xFB7 JUMPI DUP3 SWAP1 SUB PUSH1 0x1F AND DUP3 ADD SWAP2 JUMPDEST POP POP POP POP POP SWAP4 POP PUSH1 0x6 PUSH1 0x0 DUP14 DUP2 MSTORE PUSH1 0x20 ADD SWAP1 DUP2 MSTORE PUSH1 0x20 ADD PUSH1 0x0 KECCAK256 PUSH1 0x9 ADD PUSH1 0x4 ADD DUP1 SLOAD PUSH2 0xFFF SWAP1 PUSH2 0x3077 JUMP JUMPDEST DUP1 PUSH1 0x1F ADD PUSH1 0x20 DUP1 SWAP2 DIV MUL PUSH1 0x20 ADD PUSH1 0x40 MLOAD SWAP1 DUP2 ADD PUSH1 0x40 MSTORE DUP1 SWAP3 SWAP2 SWAP1 DUP2 DUP2 MSTORE PUSH1 0x20 ADD DUP3 DUP1 SLOAD PUSH2 0x102B SWAP1 PUSH2 0x3077 JUMP JUMPDEST DUP1 ISZERO PUSH2 0x1078 JUMPI DUP1 PUSH1 0x1F LT PUSH2 0x104D JUMPI PUSH2 0x100 DUP1 DUP4 SLOAD DIV MUL DUP4 MSTORE SWAP2 PUSH1 0x20 ADD SWAP2 PUSH2 0x1078 JUMP JUMPDEST DUP3 ADD SWAP2 SWAP1 PUSH1 0x0 MSTORE PUSH1 0x20 PUSH1 0x0 KECCAK256 SWAP1 JUMPDEST DUP2 SLOAD DUP2 MSTORE SWAP1 PUSH1 0x1 ADD SWAP1 PUSH1 0x20 ADD DUP1 DUP4 GT PUSH2 0x105B JUMPI DUP3 SWAP1 SUB PUSH1 0x1F AND DUP3 ADD SWAP2 JUMPDEST POP POP POP POP POP SWAP3 POP PUSH1 0x6 PUSH1 0x0 DUP14 DUP2 MSTORE PUSH1 0x20 ADD SWAP1 DUP2 MSTORE PUSH1 0x20 ADD PUSH1 0x0 KECCAK256 PUSH1 0x9 ADD PUSH1 0x5 ADD DUP1 SLOAD PUSH2 0x10A3 SWAP1 PUSH2 0x3077 JUMP JUMPDEST DUP1 PUSH1 0x1F ADD PUSH1 0x20 DUP1 SWAP2 DIV MUL PUSH1 0x20 ADD PUSH1 0x40 MLOAD SWAP1 DUP2 ADD PUSH1 0x40 MSTORE DUP1 SWAP3 SWAP2 SWAP1 DUP2 DUP2 MSTORE PUSH1 0x20 ADD DUP3 DUP1 SLOAD PUSH2 0x10CF SWAP1 PUSH2 0x3077 JUMP JUMPDEST DUP1 ISZERO PUSH2 0x111C JUMPI DUP1 PUSH1 0x1F LT PUSH2 0x10F1 JUMPI PUSH2 0x100 DUP1 DUP4 SLOAD DIV MUL DUP4 MSTORE SWAP2 PUSH1 0x20 ADD SWAP2 PUSH2 0x111C JUMP JUMPDEST DUP3 ADD SWAP2 SWAP1 PUSH1 0x0 MSTORE PUSH1 0x20 PUSH1 0x0 KECCAK256 SWAP1 JUMPDEST DUP2 SLOAD DUP2 MSTORE SWAP1 PUSH1 0x1 ADD SWAP1 PUSH1 0x20 ADD DUP1 DUP4 GT PUSH2 0x10FF JUMPI DUP3 SWAP1 SUB PUSH1 0x1F AND DUP3 ADD SWAP2 JUMPDEST POP POP POP POP POP SWAP2 POP PUSH1 0x6 PUSH1 0x0 DUP14 DUP2 MSTORE PUSH1 0x20 ADD SWAP1 DUP2 MSTORE PUSH1 0x20 ADD PUSH1 0x0 KECCAK256 PUSH1 0x9 ADD PUSH1 0x6 ADD DUP1 SLOAD PUSH2 0x1147 SWAP1 PUSH2 0x3077 JUMP JUMPDEST DUP1 PUSH1 0x1F ADD PUSH1 0x20 DUP1 SWAP2 DIV MUL PUSH1 0x20 ADD PUSH1 0x40 MLOAD SWAP1 DUP2 ADD PUSH1 0x40 MSTORE DUP1 SWAP3 SWAP2 SWAP1 DUP2 DUP2 MSTORE PUSH1 0x20 ADD DUP3 DUP1 SLOAD PUSH2 0x1173 SWAP1 PUSH2 0x3077 JUMP JUMPDEST DUP1 ISZERO PUSH2 0x11C0 JUMPI DUP1 PUSH1 0x1F LT PUSH2 0x1195 JUMPI PUSH2 0x100 DUP1 DUP4 SLOAD DIV MUL DUP4 MSTORE SWAP2 PUSH1 0x20 ADD SWAP2 PUSH2 0x11C0 JUMP JUMPDEST DUP3 ADD SWAP2 SWAP1 PUSH1 0x0 MSTORE PUSH1 0x20 PUSH1 0x0 KECCAK256 SWAP1 JUMPDEST DUP2 SLOAD DUP2 MSTORE SWAP1 PUSH1 0x1 ADD SWAP1 PUSH1 0x20 ADD DUP1 DUP4 GT PUSH2 0x11A3 JUMPI DUP3 SWAP1 SUB PUSH1 0x1F AND DUP3 ADD SWAP2 JUMPDEST POP POP POP POP POP SWAP1 POP SWAP2 SWAP4 SWAP6 SWAP8 SWAP10 SWAP12 SWAP1 SWAP3 SWAP5 SWAP7 SWAP9 SWAP11 POP JUMP JUMPDEST PUSH1 0x0 DUP2 PUSH1 0x4 PUSH1 0x0 CALLER PUSH20 0xFFFFFFFFFFFFFFFFFFFFFFFFFFFFFFFFFFFFFFFF AND PUSH20 0xFFFFFFFFFFFFFFFFFFFFFFFFFFFFFFFFFFFFFFFF AND DUP2 MSTORE PUSH1 0x20 ADD SWAP1 DUP2 MSTORE PUSH1 0x20 ADD PUSH1 0x0 KECCAK256 SLOAD LT ISZERO PUSH2 0x1224 JUMPI PUSH1 0x0 DUP1 REVERT JUMPDEST PUSH1 0x0 PUSH20 0xFFFFFFFFFFFFFFFFFFFFFFFFFFFFFFFFFFFFFFFF AND DUP4 PUSH20 0xFFFFFFFFFFFFFFFFFFFFFFFFFFFFFFFFFFFFFFFF AND EQ ISZERO PUSH2 0x125E JUMPI PUSH1 0x0 DUP1 REVERT JUMPDEST DUP2 PUSH1 0x4 PUSH1 0x0 CALLER PUSH20 0xFFFFFFFFFFFFFFFFFFFFFFFFFFFFFFFFFFFFFFFF AND PUSH20 0xFFFFFFFFFFFFFFFFFFFFFFFFFFFFFFFFFFFFFFFF AND DUP2 MSTORE PUSH1 0x20 ADD SWAP1 DUP2 MSTORE PUSH1 0x20 ADD PUSH1 0x0 KECCAK256 PUSH1 0x0 DUP3 DUP3 SLOAD PUSH2 0x12AD SWAP2 SWAP1 PUSH2 0x2F5D JUMP JUMPDEST SWAP3 POP POP DUP2 SWAP1 SSTORE POP DUP2 PUSH1 0x4 PUSH1 0x0 DUP6 PUSH20 0xFFFFFFFFFFFFFFFFFFFFFFFFFFFFFFFFFFFFFFFF AND PUSH20 0xFFFFFFFFFFFFFFFFFFFFFFFFFFFFFFFFFFFFFFFF AND DUP2 MSTORE PUSH1 0x20 ADD SWAP1 DUP2 MSTORE PUSH1 0x20 ADD PUSH1 0x0 KECCAK256 PUSH1 0x0 DUP3 DUP3 SLOAD PUSH2 0x1303 SWAP2 SWAP1 PUSH2 0x2ED6 JUMP JUMPDEST SWAP3 POP POP DUP2 SWAP1 SSTORE POP PUSH1 0x1 SWAP1 POP SWAP3 SWAP2 POP POP JUMP JUMPDEST PUSH1 0x0 DUP1 PUSH1 0x0 DUP1 PUSH1 0x0 DUP1 PUSH1 0x0 DUP1 PUSH2 0x1328 PUSH2 0x2476 JUMP JUMPDEST PUSH1 0x6 PUSH1 0x0 DUP12 DUP2 MSTORE PUSH1 0x20 ADD SWAP1 DUP2 MSTORE PUSH1 0x20 ADD PUSH1 0x0 KECCAK256 PUSH1 0x0 ADD SLOAD SWAP9 POP PUSH1 0x6 PUSH1 0x0 DUP12 DUP2 MSTORE PUSH1 0x20 ADD SWAP1 DUP2 MSTORE PUSH1 0x20 ADD PUSH1 0x0 KECCAK256 PUSH1 0x2 ADD PUSH1 0x0 SWAP1 SLOAD SWAP1 PUSH2 0x100 EXP SWAP1 DIV PUSH20 0xFFFFFFFFFFFFFFFFFFFFFFFFFFFFFFFFFFFFFFFF AND SWAP8 POP PUSH1 0x6 PUSH1 0x0 DUP12 DUP2 MSTORE PUSH1 0x20 ADD SWAP1 DUP2 MSTORE PUSH1 0x20 ADD PUSH1 0x0 KECCAK256 PUSH1 0x1 ADD PUSH1 0x0 SWAP1 SLOAD SWAP1 PUSH2 0x100 EXP SWAP1 DIV PUSH20 0xFFFFFFFFFFFFFFFFFFFFFFFFFFFFFFFFFFFFFFFF AND SWAP7 POP PUSH1 0x6 PUSH1 0x0 DUP12 DUP2 MSTORE PUSH1 0x20 ADD SWAP1 DUP2 MSTORE PUSH1 0x20 ADD PUSH1 0x0 KECCAK256 PUSH1 0x6 ADD PUSH1 0x0 SWAP1 SLOAD SWAP1 PUSH2 0x100 EXP SWAP1 DIV PUSH20 0xFFFFFFFFFFFFFFFFFFFFFFFFFFFFFFFFFFFFFFFF AND SWAP4 POP PUSH1 0x6 PUSH1 0x0 DUP12 DUP2 MSTORE PUSH1 0x20 ADD SWAP1 DUP2 MSTORE PUSH1 0x20 ADD PUSH1 0x0 KECCAK256 PUSH1 0x7 ADD PUSH1 0x0 SWAP1 SLOAD SWAP1 PUSH2 0x100 EXP SWAP1 DIV PUSH20 0xFFFFFFFFFFFFFFFFFFFFFFFFFFFFFFFFFFFFFFFF AND SWAP3 POP PUSH1 0x6 PUSH1 0x0 DUP12 DUP2 MSTORE PUSH1 0x20 ADD SWAP1 DUP2 MSTORE PUSH1 0x20 ADD PUSH1 0x0 KECCAK256 PUSH1 0x8 ADD PUSH1 0x0 SWAP1 SLOAD SWAP1 PUSH2 0x100 EXP SWAP1 DIV PUSH20 0xFFFFFFFFFFFFFFFFFFFFFFFFFFFFFFFFFFFFFFFF AND SWAP2 POP PUSH1 0x6 PUSH1 0x0 DUP12 DUP2 MSTORE PUSH1 0x20 ADD SWAP1 DUP2 MSTORE PUSH1 0x20 ADD PUSH1 0x0 KECCAK256 PUSH1 0x4 ADD PUSH1 0x0 SWAP1 SLOAD SWAP1 PUSH2 0x100 EXP SWAP1 DIV PUSH1 0xFF AND SWAP6 POP PUSH1 0x6 PUSH1 0x0 DUP12 DUP2 MSTORE PUSH1 0x20 ADD SWAP1 DUP2 MSTORE PUSH1 0x20 ADD PUSH1 0x0 KECCAK256 PUSH1 0x5 ADD SLOAD SWAP5 POP PUSH1 0x6 PUSH1 0x0 DUP12 DUP2 MSTORE PUSH1 0x20 ADD SWAP1 DUP2 MSTORE PUSH1 0x20 ADD PUSH1 0x0 KECCAK256 PUSH1 0x9 ADD PUSH1 0x40 MLOAD DUP1 PUSH1 0xE0 ADD PUSH1 0x40 MSTORE SWAP1 DUP2 PUSH1 0x0 DUP3 ADD DUP1 SLOAD PUSH2 0x14CE SWAP1 PUSH2 0x3077 JUMP JUMPDEST DUP1 PUSH1 0x1F ADD PUSH1 0x20 DUP1 SWAP2 DIV MUL PUSH1 0x20 ADD PUSH1 0x40 MLOAD SWAP1 DUP2 ADD PUSH1 0x40 MSTORE DUP1 SWAP3 SWAP2 SWAP1 DUP2 DUP2 MSTORE PUSH1 0x20 ADD DUP3 DUP1 SLOAD PUSH2 0x14FA SWAP1 PUSH2 0x3077 JUMP JUMPDEST DUP1 ISZERO PUSH2 0x1547 JUMPI DUP1 PUSH1 0x1F LT PUSH2 0x151C JUMPI PUSH2 0x100 DUP1 DUP4 SLOAD DIV MUL DUP4 MSTORE SWAP2 PUSH1 0x20 ADD SWAP2 PUSH2 0x1547 JUMP JUMPDEST DUP3 ADD SWAP2 SWAP1 PUSH1 0x0 MSTORE PUSH1 0x20 PUSH1 0x0 KECCAK256 SWAP1 JUMPDEST DUP2 SLOAD DUP2 MSTORE SWAP1 PUSH1 0x1 ADD SWAP1 PUSH1 0x20 ADD DUP1 DUP4 GT PUSH2 0x152A JUMPI DUP3 SWAP1 SUB PUSH1 0x1F AND DUP3 ADD SWAP2 JUMPDEST POP POP POP POP POP DUP2 MSTORE PUSH1 0x20 ADD PUSH1 0x1 DUP3 ADD DUP1 SLOAD PUSH2 0x1560 SWAP1 PUSH2 0x3077 JUMP JUMPDEST DUP1 PUSH1 0x1F ADD PUSH1 0x20 DUP1 SWAP2 DIV MUL PUSH1 0x20 ADD PUSH1 0x40 MLOAD SWAP1 DUP2 ADD PUSH1 0x40 MSTORE DUP1 SWAP3 SWAP2 SWAP1 DUP2 DUP2 MSTORE PUSH1 0x20 ADD DUP3 DUP1 SLOAD PUSH2 0x158C SWAP1 PUSH2 0x3077 JUMP JUMPDEST DUP1 ISZERO PUSH2 0x15D9 JUMPI DUP1 PUSH1 0x1F LT PUSH2 0x15AE JUMPI PUSH2 0x100 DUP1 DUP4 SLOAD DIV MUL DUP4 MSTORE SWAP2 PUSH1 0x20 ADD SWAP2 PUSH2 0x15D9 JUMP JUMPDEST DUP3 ADD SWAP2 SWAP1 PUSH1 0x0 MSTORE PUSH1 0x20 PUSH1 0x0 KECCAK256 SWAP1 JUMPDEST DUP2 SLOAD DUP2 MSTORE SWAP1 PUSH1 0x1 ADD SWAP1 PUSH1 0x20 ADD DUP1 DUP4 GT PUSH2 0x15BC JUMPI DUP3 SWAP1 SUB PUSH1 0x1F AND DUP3 ADD SWAP2 JUMPDEST POP POP POP POP POP DUP2 MSTORE PUSH1 0x20 ADD PUSH1 0x2 DUP3 ADD DUP1 SLOAD PUSH2 0x15F2 SWAP1 PUSH2 0x3077 JUMP JUMPDEST DUP1 PUSH1 0x1F ADD PUSH1 0x20 DUP1 SWAP2 DIV MUL PUSH1 0x20 ADD PUSH1 0x40 MLOAD SWAP1 DUP2 ADD PUSH1 0x40 MSTORE DUP1 SWAP3 SWAP2 SWAP1 DUP2 DUP2 MSTORE PUSH1 0x20 ADD DUP3 DUP1 SLOAD PUSH2 0x161E SWAP1 PUSH2 0x3077 JUMP JUMPDEST DUP1 ISZERO PUSH2 0x166B JUMPI DUP1 PUSH1 0x1F LT PUSH2 0x1640 JUMPI PUSH2 0x100 DUP1 DUP4 SLOAD DIV MUL DUP4 MSTORE SWAP2 PUSH1 0x20 ADD SWAP2 PUSH2 0x166B JUMP JUMPDEST DUP3 ADD SWAP2 SWAP1 PUSH1 0x0 MSTORE PUSH1 0x20 PUSH1 0x0 KECCAK256 SWAP1 JUMPDEST DUP2 SLOAD DUP2 MSTORE SWAP1 PUSH1 0x1 ADD SWAP1 PUSH1 0x20 ADD DUP1 DUP4 GT PUSH2 0x164E JUMPI DUP3 SWAP1 SUB PUSH1 0x1F AND DUP3 ADD SWAP2 JUMPDEST POP POP POP POP POP DUP2 MSTORE PUSH1 0x20 ADD PUSH1 0x3 DUP3 ADD DUP1 SLOAD PUSH2 0x1684 SWAP1 PUSH2 0x3077 JUMP JUMPDEST DUP1 PUSH1 0x1F ADD PUSH1 0x20 DUP1 SWAP2 DIV MUL PUSH1 0x20 ADD PUSH1 0x40 MLOAD SWAP1 DUP2 ADD PUSH1 0x40 MSTORE DUP1 SWAP3 SWAP2 SWAP1 DUP2 DUP2 MSTORE PUSH1 0x20 ADD DUP3 DUP1 SLOAD PUSH2 0x16B0 SWAP1 PUSH2 0x3077 JUMP JUMPDEST DUP1 ISZERO PUSH2 0x16FD JUMPI DUP1 PUSH1 0x1F LT PUSH2 0x16D2 JUMPI PUSH2 0x100 DUP1 DUP4 SLOAD DIV MUL DUP4 MSTORE SWAP2 PUSH1 0x20 ADD SWAP2 PUSH2 0x16FD JUMP JUMPDEST DUP3 ADD SWAP2 SWAP1 PUSH1 0x0 MSTORE PUSH1 0x20 PUSH1 0x0 KECCAK256 SWAP1 JUMPDEST DUP2 SLOAD DUP2 MSTORE SWAP1 PUSH1 0x1 ADD SWAP1 PUSH1 0x20 ADD DUP1 DUP4 GT PUSH2 0x16E0 JUMPI DUP3 SWAP1 SUB PUSH1 0x1F AND DUP3 ADD SWAP2 JUMPDEST POP POP POP POP POP DUP2 MSTORE PUSH1 0x20 ADD PUSH1 0x4 DUP3 ADD DUP1 SLOAD PUSH2 0x1716 SWAP1 PUSH2 0x3077 JUMP JUMPDEST DUP1 PUSH1 0x1F ADD PUSH1 0x20 DUP1 SWAP2 DIV MUL PUSH1 0x20 ADD PUSH1 0x40 MLOAD SWAP1 DUP2 ADD PUSH1 0x40 MSTORE DUP1 SWAP3 SWAP2 SWAP1 DUP2 DUP2 MSTORE PUSH1 0x20 ADD DUP3 DUP1 SLOAD PUSH2 0x1742 SWAP1 PUSH2 0x3077 JUMP JUMPDEST DUP1 ISZERO PUSH2 0x178F JUMPI DUP1 PUSH1 0x1F LT PUSH2 0x1764 JUMPI PUSH2 0x100 DUP1 DUP4 SLOAD DIV MUL DUP4 MSTORE SWAP2 PUSH1 0x20 ADD SWAP2 PUSH2 0x178F JUMP JUMPDEST DUP3 ADD SWAP2 SWAP1 PUSH1 0x0 MSTORE PUSH1 0x20 PUSH1 0x0 KECCAK256 SWAP1 JUMPDEST DUP2 SLOAD DUP2 MSTORE SWAP1 PUSH1 0x1 ADD SWAP1 PUSH1 0x20 ADD DUP1 DUP4 GT PUSH2 0x1772 JUMPI DUP3 SWAP1 SUB PUSH1 0x1F AND DUP3 ADD SWAP2 JUMPDEST POP POP POP POP POP DUP2 MSTORE PUSH1 0x20 ADD PUSH1 0x5 DUP3 ADD DUP1 SLOAD PUSH2 0x17A8 SWAP1 PUSH2 0x3077 JUMP JUMPDEST DUP1 PUSH1 0x1F ADD PUSH1 0x20 DUP1 SWAP2 DIV MUL PUSH1 0x20 ADD PUSH1 0x40 MLOAD SWAP1 DUP2 ADD PUSH1 0x40 MSTORE DUP1 SWAP3 SWAP2 SWAP1 DUP2 DUP2 MSTORE PUSH1 0x20 ADD DUP3 DUP1 SLOAD PUSH2 0x17D4 SWAP1 PUSH2 0x3077 JUMP JUMPDEST DUP1 ISZERO PUSH2 0x1821 JUMPI DUP1 PUSH1 0x1F LT PUSH2 0x17F6 JUMPI PUSH2 0x100 DUP1 DUP4 SLOAD DIV MUL DUP4 MSTORE SWAP2 PUSH1 0x20 ADD SWAP2 PUSH2 0x1821 JUMP JUMPDEST DUP3 ADD SWAP2 SWAP1 PUSH1 0x0 MSTORE PUSH1 0x20 PUSH1 0x0 KECCAK256 SWAP1 JUMPDEST DUP2 SLOAD DUP2 MSTORE SWAP1 PUSH1 0x1 ADD SWAP1 PUSH1 0x20 ADD DUP1 DUP4 GT PUSH2 0x1804 JUMPI DUP3 SWAP1 SUB PUSH1 0x1F AND DUP3 ADD SWAP2 JUMPDEST POP POP POP POP POP DUP2 MSTORE PUSH1 0x20 ADD PUSH1 0x6 DUP3 ADD DUP1 SLOAD PUSH2 0x183A SWAP1 PUSH2 0x3077 JUMP JUMPDEST DUP1 PUSH1 0x1F ADD PUSH1 0x20 DUP1 SWAP2 DIV MUL PUSH1 0x20 ADD PUSH1 0x40 MLOAD SWAP1 DUP2 ADD PUSH1 0x40 MSTORE DUP1 SWAP3 SWAP2 SWAP1 DUP2 DUP2 MSTORE PUSH1 0x20 ADD DUP3 DUP1 SLOAD PUSH2 0x1866 SWAP1 PUSH2 0x3077 JUMP JUMPDEST DUP1 ISZERO PUSH2 0x18B3 JUMPI DUP1 PUSH1 0x1F LT PUSH2 0x1888 JUMPI PUSH2 0x100 DUP1 DUP4 SLOAD DIV MUL DUP4 MSTORE SWAP2 PUSH1 0x20 ADD SWAP2 PUSH2 0x18B3 JUMP JUMPDEST DUP3 ADD SWAP2 SWAP1 PUSH1 0x0 MSTORE PUSH1 0x20 PUSH1 0x0 KECCAK256 SWAP1 JUMPDEST DUP2 SLOAD DUP2 MSTORE SWAP1 PUSH1 0x1 ADD SWAP1 PUSH1 0x20 ADD DUP1 DUP4 GT PUSH2 0x1896 JUMPI DUP3 SWAP1 SUB PUSH1 0x1F AND DUP3 ADD SWAP2 JUMPDEST POP POP POP POP POP DUP2 MSTORE POP POP SWAP1 POP SWAP2 SWAP4 SWAP6 SWAP8 SWAP10 SWAP1 SWAP3 SWAP5 SWAP7 SWAP9 POP JUMP JUMPDEST PUSH1 0x1 DUP1 SLOAD PUSH2 0x18D8 SWAP1 PUSH2 0x3077 JUMP JUMPDEST DUP1 PUSH1 0x1F ADD PUSH1 0x20 DUP1 SWAP2 DIV MUL PUSH1 0x20 ADD PUSH1 0x40 MLOAD SWAP1 DUP2 ADD PUSH1 0x40 MSTORE DUP1 SWAP3 SWAP2 SWAP1 DUP2 DUP2 MSTORE PUSH1 0x20 ADD DUP3 DUP1 SLOAD PUSH2 0x1904 SWAP1 PUSH2 0x3077 JUMP JUMPDEST DUP1 ISZERO PUSH2 0x1951 JUMPI DUP1 PUSH1 0x1F LT PUSH2 0x1926 JUMPI PUSH2 0x100 DUP1 DUP4 SLOAD DIV MUL DUP4 MSTORE SWAP2 PUSH1 0x20 ADD SWAP2 PUSH2 0x1951 JUMP JUMPDEST DUP3 ADD SWAP2 SWAP1 PUSH1 0x0 MSTORE PUSH1 0x20 PUSH1 0x0 KECCAK256 SWAP1 JUMPDEST DUP2 SLOAD DUP2 MSTORE SWAP1 PUSH1 0x1 ADD SWAP1 PUSH1 0x20 ADD DUP1 DUP4 GT PUSH2 0x1934 JUMPI DUP3 SWAP1 SUB PUSH1 0x1F AND DUP3 ADD SWAP2 JUMPDEST POP POP POP POP POP DUP2 JUMP JUMPDEST PUSH1 0x2 PUSH1 0x0 SWAP1 SLOAD SWAP1 PUSH2 0x100 EXP SWAP1 DIV PUSH20 0xFFFFFFFFFFFFFFFFFFFFFFFFFFFFFFFFFFFFFFFF AND PUSH20 0xFFFFFFFFFFFFFFFFFFFFFFFFFFFFFFFFFFFFFFFF AND CALLER PUSH20 0xFFFFFFFFFFFFFFFFFFFFFFFFFFFFFFFFFFFFFFFF AND EQ PUSH2 0x19E9 JUMPI PUSH1 0x40 MLOAD PUSH32 0x8C379A000000000000000000000000000000000000000000000000000000000 DUP2 MSTORE PUSH1 0x4 ADD PUSH2 0x19E0 SWAP1 PUSH2 0x2CA8 JUMP JUMPDEST PUSH1 0x40 MLOAD DUP1 SWAP2 SUB SWAP1 REVERT JUMPDEST PUSH1 0x0 PUSH20 0xFFFFFFFFFFFFFFFFFFFFFFFFFFFFFFFFFFFFFFFF AND DUP3 PUSH20 0xFFFFFFFFFFFFFFFFFFFFFFFFFFFFFFFFFFFFFFFF AND EQ ISZERO PUSH2 0x1A23 JUMPI PUSH1 0x0 DUP1 REVERT JUMPDEST PUSH1 0x4 PUSH1 0x0 DUP4 PUSH20 0xFFFFFFFFFFFFFFFFFFFFFFFFFFFFFFFFFFFFFFFF AND PUSH20 0xFFFFFFFFFFFFFFFFFFFFFFFFFFFFFFFFFFFFFFFF AND DUP2 MSTORE PUSH1 0x20 ADD SWAP1 DUP2 MSTORE PUSH1 0x20 ADD PUSH1 0x0 KECCAK256 SLOAD DUP2 GT ISZERO PUSH2 0x1A6F JUMPI PUSH1 0x0 DUP1 REVERT JUMPDEST DUP1 PUSH1 0x3 PUSH1 0x0 DUP3 DUP3 SLOAD PUSH2 0x1A81 SWAP2 SWAP1 PUSH2 0x2F5D JUMP JUMPDEST SWAP3 POP POP DUP2 SWAP1 SSTORE POP DUP1 PUSH1 0x4 PUSH1 0x0 DUP5 PUSH20 0xFFFFFFFFFFFFFFFFFFFFFFFFFFFFFFFFFFFFFFFF AND PUSH20 0xFFFFFFFFFFFFFFFFFFFFFFFFFFFFFFFFFFFFFFFF AND DUP2 MSTORE PUSH1 0x20 ADD SWAP1 DUP2 MSTORE PUSH1 0x20 ADD PUSH1 0x0 KECCAK256 PUSH1 0x0 DUP3 DUP3 SLOAD PUSH2 0x1AD7 SWAP2 SWAP1 PUSH2 0x2F5D JUMP JUMPDEST SWAP3 POP POP DUP2 SWAP1 SSTORE POP POP POP JUMP JUMPDEST PUSH1 0x2 PUSH1 0x0 SWAP1 SLOAD SWAP1 PUSH2 0x100 EXP SWAP1 DIV PUSH20 0xFFFFFFFFFFFFFFFFFFFFFFFFFFFFFFFFFFFFFFFF AND PUSH20 0xFFFFFFFFFFFFFFFFFFFFFFFFFFFFFFFFFFFFFFFF AND CALLER PUSH20 0xFFFFFFFFFFFFFFFFFFFFFFFFFFFFFFFFFFFFFFFF AND EQ PUSH2 0x1B72 JUMPI PUSH1 0x40 MLOAD PUSH32 0x8C379A000000000000000000000000000000000000000000000000000000000 DUP2 MSTORE PUSH1 0x4 ADD PUSH2 0x1B69 SWAP1 PUSH2 0x2CA8 JUMP JUMPDEST PUSH1 0x40 MLOAD DUP1 SWAP2 SUB SWAP1 REVERT JUMPDEST DUP1 PUSH1 0x3 PUSH1 0x0 DUP3 DUP3 SLOAD PUSH2 0x1B84 SWAP2 SWAP1 PUSH2 0x2ED6 JUMP JUMPDEST SWAP3 POP POP DUP2 SWAP1 SSTORE POP DUP1 PUSH1 0x4 PUSH1 0x0 CALLER PUSH20 0xFFFFFFFFFFFFFFFFFFFFFFFFFFFFFFFFFFFFFFFF AND PUSH20 0xFFFFFFFFFFFFFFFFFFFFFFFFFFFFFFFFFFFFFFFF AND DUP2 MSTORE PUSH1 0x20 ADD SWAP1 DUP2 MSTORE PUSH1 0x20 ADD PUSH1 0x0 KECCAK256 PUSH1 0x0 DUP3 DUP3 SLOAD PUSH2 0x1BDA SWAP2 SWAP1 PUSH2 0x2ED6 JUMP JUMPDEST SWAP3 POP POP DUP2 SWAP1 SSTORE POP POP JUMP JUMPDEST PUSH1 0x2 PUSH1 0x0 SWAP1 SLOAD SWAP1 PUSH2 0x100 EXP SWAP1 DIV PUSH20 0xFFFFFFFFFFFFFFFFFFFFFFFFFFFFFFFFFFFFFFFF AND DUP2 JUMP JUMPDEST PUSH1 0x0 PUSH1 0x64 CALLVALUE PUSH2 0x1C19 SWAP2 SWAP1 PUSH2 0x2F2C JUMP JUMPDEST SWAP1 POP PUSH1 0x0 CALLVALUE GT PUSH2 0x1C28 JUMPI PUSH1 0x0 DUP1 REVERT JUMPDEST PUSH1 0x2 PUSH1 0x0 SWAP1 SLOAD SWAP1 PUSH2 0x100 EXP SWAP1 DIV PUSH20 0xFFFFFFFFFFFFFFFFFFFFFFFFFFFFFFFFFFFFFFFF AND PUSH20 0xFFFFFFFFFFFFFFFFFFFFFFFFFFFFFFFFFFFFFFFF AND PUSH2 0x8FC CALLVALUE SWAP1 DUP2 ISZERO MUL SWAP1 PUSH1 0x40 MLOAD PUSH1 0x0 PUSH1 0x40 MLOAD DUP1 DUP4 SUB DUP2 DUP6 DUP9 DUP9 CALL SWAP4 POP POP POP POP ISZERO DUP1 ISZERO PUSH2 0x1C90 JUMPI RETURNDATASIZE PUSH1 0x0 DUP1 RETURNDATACOPY RETURNDATASIZE PUSH1 0x0 REVERT JUMPDEST POP DUP1 PUSH1 0x4 PUSH1 0x0 PUSH1 0x2 PUSH1 0x0 SWAP1 SLOAD SWAP1 PUSH2 0x100 EXP SWAP1 DIV PUSH20 0xFFFFFFFFFFFFFFFFFFFFFFFFFFFFFFFFFFFFFFFF AND PUSH20 0xFFFFFFFFFFFFFFFFFFFFFFFFFFFFFFFFFFFFFFFF AND PUSH20 0xFFFFFFFFFFFFFFFFFFFFFFFFFFFFFFFFFFFFFFFF AND DUP2 MSTORE PUSH1 0x20 ADD SWAP1 DUP2 MSTORE PUSH1 0x20 ADD PUSH1 0x0 KECCAK256 PUSH1 0x0 DUP3 DUP3 SLOAD PUSH2 0x1D02 SWAP2 SWAP1 PUSH2 0x2F5D JUMP JUMPDEST SWAP3 POP POP DUP2 SWAP1 SSTORE POP DUP1 PUSH1 0x4 PUSH1 0x0 CALLER PUSH20 0xFFFFFFFFFFFFFFFFFFFFFFFFFFFFFFFFFFFFFFFF AND PUSH20 0xFFFFFFFFFFFFFFFFFFFFFFFFFFFFFFFFFFFFFFFF AND DUP2 MSTORE PUSH1 0x20 ADD SWAP1 DUP2 MSTORE PUSH1 0x20 ADD PUSH1 0x0 KECCAK256 PUSH1 0x0 DUP3 DUP3 SLOAD PUSH2 0x1D58 SWAP2 SWAP1 PUSH2 0x2ED6 JUMP JUMPDEST SWAP3 POP POP DUP2 SWAP1 SSTORE POP POP JUMP JUMPDEST PUSH1 0x0 PUSH1 0x60 PUSH1 0x5 PUSH1 0x0 DUP5 PUSH20 0xFFFFFFFFFFFFFFFFFFFFFFFFFFFFFFFFFFFFFFFF AND PUSH20 0xFFFFFFFFFFFFFFFFFFFFFFFFFFFFFFFFFFFFFFFF AND DUP2 MSTORE PUSH1 0x20 ADD SWAP1 DUP2 MSTORE PUSH1 0x20 ADD PUSH1 0x0 KECCAK256 PUSH1 0x0 ADD PUSH1 0x0 SWAP1 SLOAD SWAP1 PUSH2 0x100 EXP SWAP1 DIV PUSH1 0xFF AND SWAP2 POP PUSH1 0x5 PUSH1 0x0 DUP5 PUSH20 0xFFFFFFFFFFFFFFFFFFFFFFFFFFFFFFFFFFFFFFFF AND PUSH20 0xFFFFFFFFFFFFFFFFFFFFFFFFFFFFFFFFFFFFFFFF AND DUP2 MSTORE PUSH1 0x20 ADD SWAP1 DUP2 MSTORE PUSH1 0x20 ADD PUSH1 0x0 KECCAK256 PUSH1 0x1 ADD DUP1 SLOAD PUSH2 0x1E05 SWAP1 PUSH2 0x3077 JUMP JUMPDEST DUP1 PUSH1 0x1F ADD PUSH1 0x20 DUP1 SWAP2 DIV MUL PUSH1 0x20 ADD PUSH1 0x40 MLOAD SWAP1 DUP2 ADD PUSH1 0x40 MSTORE DUP1 SWAP3 SWAP2 SWAP1 DUP2 DUP2 MSTORE PUSH1 0x20 ADD DUP3 DUP1 SLOAD PUSH2 0x1E31 SWAP1 PUSH2 0x3077 JUMP JUMPDEST DUP1 ISZERO PUSH2 0x1E7E JUMPI DUP1 PUSH1 0x1F LT PUSH2 0x1E53 JUMPI PUSH2 0x100 DUP1 DUP4 SLOAD DIV MUL DUP4 MSTORE SWAP2 PUSH1 0x20 ADD SWAP2 PUSH2 0x1E7E JUMP JUMPDEST DUP3 ADD SWAP2 SWAP1 PUSH1 0x0 MSTORE PUSH1 0x20 PUSH1 0x0 KECCAK256 SWAP1 JUMPDEST DUP2 SLOAD DUP2 MSTORE SWAP1 PUSH1 0x1 ADD SWAP1 PUSH1 0x20 ADD DUP1 DUP4 GT PUSH2 0x1E61 JUMPI DUP3 SWAP1 SUB PUSH1 0x1F AND DUP3 ADD SWAP2 JUMPDEST POP POP POP POP POP SWAP1 POP SWAP2 POP SWAP2 JUMP JUMPDEST PUSH1 0x0 DUP2 PUSH20 0xFFFFFFFFFFFFFFFFFFFFFFFFFFFFFFFFFFFFFFFF AND BALANCE SWAP1 POP SWAP2 SWAP1 POP JUMP JUMPDEST PUSH1 0x0 PUSH1 0x4 PUSH1 0x0 DUP4 PUSH20 0xFFFFFFFFFFFFFFFFFFFFFFFFFFFFFFFFFFFFFFFF AND PUSH20 0xFFFFFFFFFFFFFFFFFFFFFFFFFFFFFFFFFFFFFFFF AND DUP2 MSTORE PUSH1 0x20 ADD SWAP1 DUP2 MSTORE PUSH1 0x20 ADD PUSH1 0x0 KECCAK256 SLOAD SWAP1 POP SWAP2 SWAP1 POP JUMP JUMPDEST PUSH1 0x2 PUSH1 0x0 SWAP1 SLOAD SWAP1 PUSH2 0x100 EXP SWAP1 DIV PUSH20 0xFFFFFFFFFFFFFFFFFFFFFFFFFFFFFFFFFFFFFFFF AND PUSH20 0xFFFFFFFFFFFFFFFFFFFFFFFFFFFFFFFFFFFFFFFF AND CALLER PUSH20 0xFFFFFFFFFFFFFFFFFFFFFFFFFFFFFFFFFFFFFFFF AND EQ PUSH2 0x1F84 JUMPI PUSH1 0x40 MLOAD PUSH32 0x8C379A000000000000000000000000000000000000000000000000000000000 DUP2 MSTORE PUSH1 0x4 ADD PUSH2 0x1F7B SWAP1 PUSH2 0x2CA8 JUMP JUMPDEST PUSH1 0x40 MLOAD DUP1 SWAP2 SUB SWAP1 REVERT JUMPDEST PUSH1 0x0 DUP1 PUSH1 0x3 SLOAD EQ PUSH2 0x1F95 JUMPI PUSH1 0x3 SLOAD SWAP1 POP JUMPDEST PUSH2 0x1F9D PUSH2 0x2476 JUMP JUMPDEST DUP9 DUP2 PUSH1 0x0 ADD DUP2 SWAP1 MSTORE POP DUP8 DUP2 PUSH1 0x20 ADD DUP2 SWAP1 MSTORE POP DUP7 DUP2 PUSH1 0x40 ADD DUP2 SWAP1 MSTORE POP DUP6 DUP2 PUSH1 0x60 ADD DUP2 SWAP1 MSTORE POP DUP5 DUP2 PUSH1 0x80 ADD DUP2 SWAP1 MSTORE POP DUP4 DUP2 PUSH1 0xA0 ADD DUP2 SWAP1 MSTORE POP DUP3 DUP2 PUSH1 0xC0 ADD DUP2 SWAP1 MSTORE POP PUSH1 0x0 DUP3 SWAP1 POP JUMPDEST DUP11 DUP4 PUSH2 0x1FEE SWAP2 SWAP1 PUSH2 0x2ED6 JUMP JUMPDEST DUP2 LT ISZERO PUSH2 0x2374 JUMPI PUSH1 0x40 MLOAD DUP1 PUSH2 0x140 ADD PUSH1 0x40 MSTORE DUP1 DUP3 DUP2 MSTORE PUSH1 0x20 ADD PUSH1 0x0 PUSH20 0xFFFFFFFFFFFFFFFFFFFFFFFFFFFFFFFFFFFFFFFF AND DUP2 MSTORE PUSH1 0x20 ADD PUSH1 0x0 PUSH20 0xFFFFFFFFFFFFFFFFFFFFFFFFFFFFFFFFFFFFFFFF AND DUP2 MSTORE PUSH1 0x20 ADD TIMESTAMP DUP2 MSTORE PUSH1 0x20 ADD PUSH1 0x0 PUSH1 0x5 DUP2 GT ISZERO PUSH2 0x205B JUMPI PUSH2 0x205A PUSH2 0x3181 JUMP JUMPDEST JUMPDEST DUP2 MSTORE PUSH1 0x20 ADD PUSH1 0x64 DUP2 MSTORE PUSH1 0x20 ADD PUSH1 0x0 PUSH20 0xFFFFFFFFFFFFFFFFFFFFFFFFFFFFFFFFFFFFFFFF AND DUP2 MSTORE PUSH1 0x20 ADD PUSH1 0x0 PUSH20 0xFFFFFFFFFFFFFFFFFFFFFFFFFFFFFFFFFFFFFFFF AND DUP2 MSTORE PUSH1 0x20 ADD PUSH1 0x0 PUSH20 0xFFFFFFFFFFFFFFFFFFFFFFFFFFFFFFFFFFFFFFFF AND DUP2 MSTORE PUSH1 0x20 ADD DUP4 DUP2 MSTORE POP PUSH1 0x6 PUSH1 0x0 DUP4 DUP2 MSTORE PUSH1 0x20 ADD SWAP1 DUP2 MSTORE PUSH1 0x20 ADD PUSH1 0x0 KECCAK256 PUSH1 0x0 DUP3 ADD MLOAD DUP2 PUSH1 0x0 ADD SSTORE PUSH1 0x20 DUP3 ADD MLOAD DUP2 PUSH1 0x1 ADD PUSH1 0x0 PUSH2 0x100 EXP DUP2 SLOAD DUP2 PUSH20 0xFFFFFFFFFFFFFFFFFFFFFFFFFFFFFFFFFFFFFFFF MUL NOT AND SWAP1 DUP4 PUSH20 0xFFFFFFFFFFFFFFFFFFFFFFFFFFFFFFFFFFFFFFFF AND MUL OR SWAP1 SSTORE POP PUSH1 0x40 DUP3 ADD MLOAD DUP2 PUSH1 0x2 ADD PUSH1 0x0 PUSH2 0x100 EXP DUP2 SLOAD DUP2 PUSH20 0xFFFFFFFFFFFFFFFFFFFFFFFFFFFFFFFFFFFFFFFF MUL NOT AND SWAP1 DUP4 PUSH20 0xFFFFFFFFFFFFFFFFFFFFFFFFFFFFFFFFFFFFFFFF AND MUL OR SWAP1 SSTORE POP PUSH1 0x60 DUP3 ADD MLOAD DUP2 PUSH1 0x3 ADD SSTORE PUSH1 0x80 DUP3 ADD MLOAD DUP2 PUSH1 0x4 ADD PUSH1 0x0 PUSH2 0x100 EXP DUP2 SLOAD DUP2 PUSH1 0xFF MUL NOT AND SWAP1 DUP4 PUSH1 0x5 DUP2 GT ISZERO PUSH2 0x21A2 JUMPI PUSH2 0x21A1 PUSH2 0x3181 JUMP JUMPDEST JUMPDEST MUL OR SWAP1 SSTORE POP PUSH1 0xA0 DUP3 ADD MLOAD DUP2 PUSH1 0x5 ADD SSTORE PUSH1 0xC0 DUP3 ADD MLOAD DUP2 PUSH1 0x6 ADD PUSH1 0x0 PUSH2 0x100 EXP DUP2 SLOAD DUP2 PUSH20 0xFFFFFFFFFFFFFFFFFFFFFFFFFFFFFFFFFFFFFFFF MUL NOT AND SWAP1 DUP4 PUSH20 0xFFFFFFFFFFFFFFFFFFFFFFFFFFFFFFFFFFFFFFFF AND MUL OR SWAP1 SSTORE POP PUSH1 0xE0 DUP3 ADD MLOAD DUP2 PUSH1 0x7 ADD PUSH1 0x0 PUSH2 0x100 EXP DUP2 SLOAD DUP2 PUSH20 0xFFFFFFFFFFFFFFFFFFFFFFFFFFFFFFFFFFFFFFFF MUL NOT AND SWAP1 DUP4 PUSH20 0xFFFFFFFFFFFFFFFFFFFFFFFFFFFFFFFFFFFFFFFF AND MUL OR SWAP1 SSTORE POP PUSH2 0x100 DUP3 ADD MLOAD DUP2 PUSH1 0x8 ADD PUSH1 0x0 PUSH2 0x100 EXP DUP2 SLOAD DUP2 PUSH20 0xFFFFFFFFFFFFFFFFFFFFFFFFFFFFFFFFFFFFFFFF MUL NOT AND SWAP1 DUP4 PUSH20 0xFFFFFFFFFFFFFFFFFFFFFFFFFFFFFFFFFFFFFFFF AND MUL OR SWAP1 SSTORE POP PUSH2 0x120 DUP3 ADD MLOAD DUP2 PUSH1 0x9 ADD PUSH1 0x0 DUP3 ADD MLOAD DUP2 PUSH1 0x0 ADD SWAP1 DUP1 MLOAD SWAP1 PUSH1 0x20 ADD SWAP1 PUSH2 0x22AD SWAP3 SWAP2 SWAP1 PUSH2 0x23F0 JUMP JUMPDEST POP PUSH1 0x20 DUP3 ADD MLOAD DUP2 PUSH1 0x1 ADD SWAP1 DUP1 MLOAD SWAP1 PUSH1 0x20 ADD SWAP1 PUSH2 0x22CA SWAP3 SWAP2 SWAP1 PUSH2 0x23F0 JUMP JUMPDEST POP PUSH1 0x40 DUP3 ADD MLOAD DUP2 PUSH1 0x2 ADD SWAP1 DUP1 MLOAD SWAP1 PUSH1 0x20 ADD SWAP1 PUSH2 0x22E7 SWAP3 SWAP2 SWAP1 PUSH2 0x23F0 JUMP JUMPDEST POP PUSH1 0x60 DUP3 ADD MLOAD DUP2 PUSH1 0x3 ADD SWAP1 DUP1 MLOAD SWAP1 PUSH1 0x20 ADD SWAP1 PUSH2 0x2304 SWAP3 SWAP2 SWAP1 PUSH2 0x23F0 JUMP JUMPDEST POP PUSH1 0x80 DUP3 ADD MLOAD DUP2 PUSH1 0x4 ADD SWAP1 DUP1 MLOAD SWAP1 PUSH1 0x20 ADD SWAP1 PUSH2 0x2321 SWAP3 SWAP2 SWAP1 PUSH2 0x23F0 JUMP JUMPDEST POP PUSH1 0xA0 DUP3 ADD MLOAD DUP2 PUSH1 0x5 ADD SWAP1 DUP1 MLOAD SWAP1 PUSH1 0x20 ADD SWAP1 PUSH2 0x233E SWAP3 SWAP2 SWAP1 PUSH2 0x23F0 JUMP JUMPDEST POP PUSH1 0xC0 DUP3 ADD MLOAD DUP2 PUSH1 0x6 ADD SWAP1 DUP1 MLOAD SWAP1 PUSH1 0x20 ADD SWAP1 PUSH2 0x235B SWAP3 SWAP2 SWAP1 PUSH2 0x23F0 JUMP JUMPDEST POP POP POP SWAP1 POP POP DUP1 DUP1 PUSH2 0x236C SWAP1 PUSH2 0x30DA JUMP JUMPDEST SWAP2 POP POP PUSH2 0x1FE2 JUMP JUMPDEST POP DUP10 PUSH1 0x3 PUSH1 0x0 DUP3 DUP3 SLOAD PUSH2 0x2387 SWAP2 SWAP1 PUSH2 0x2ED6 JUMP JUMPDEST SWAP3 POP POP DUP2 SWAP1 SSTORE POP DUP10 PUSH1 0x4 PUSH1 0x0 CALLER PUSH20 0xFFFFFFFFFFFFFFFFFFFFFFFFFFFFFFFFFFFFFFFF AND PUSH20 0xFFFFFFFFFFFFFFFFFFFFFFFFFFFFFFFFFFFFFFFF AND DUP2 MSTORE PUSH1 0x20 ADD SWAP1 DUP2 MSTORE PUSH1 0x20 ADD PUSH1 0x0 KECCAK256 PUSH1 0x0 DUP3 DUP3 SLOAD PUSH2 0x23DD SWAP2 SWAP1 PUSH2 0x2ED6 JUMP JUMPDEST SWAP3 POP POP DUP2 SWAP1 SSTORE POP POP POP POP POP POP POP POP POP POP POP JUMP JUMPDEST DUP3 DUP1 SLOAD PUSH2 0x23FC SWAP1 PUSH2 0x3077 JUMP JUMPDEST SWAP1 PUSH1 0x0 MSTORE PUSH1 0x20 PUSH1 0x0 KECCAK256 SWAP1 PUSH1 0x1F ADD PUSH1 0x20 SWAP1 DIV DUP2 ADD SWAP3 DUP3 PUSH2 0x241E JUMPI PUSH1 0x0 DUP6 SSTORE PUSH2 0x2465 JUMP JUMPDEST DUP3 PUSH1 0x1F LT PUSH2 0x2437 JUMPI DUP1 MLOAD PUSH1 0xFF NOT AND DUP4 DUP1 ADD OR DUP6 SSTORE PUSH2 0x2465 JUMP JUMPDEST DUP3 DUP1 ADD PUSH1 0x1 ADD DUP6 SSTORE DUP3 ISZERO PUSH2 0x2465 JUMPI SWAP2 DUP3 ADD JUMPDEST DUP3 DUP2 GT ISZERO PUSH2 0x2464 JUMPI DUP3 MLOAD DUP3 SSTORE SWAP2 PUSH1 0x20 ADD SWAP2 SWAP1 PUSH1 0x1 ADD SWAP1 PUSH2 0x2449 JUMP JUMPDEST JUMPDEST POP SWAP1 POP PUSH2 0x2472 SWAP2 SWAP1 PUSH2 0x24B3 JUMP JUMPDEST POP SWAP1 JUMP JUMPDEST PUSH1 0x40 MLOAD DUP1 PUSH1 0xE0 ADD PUSH1 0x40 MSTORE DUP1 PUSH1 0x60 DUP2 MSTORE PUSH1 0x20 ADD PUSH1 0x60 DUP2 MSTORE PUSH1 0x20 ADD PUSH1 0x60 DUP2 MSTORE PUSH1 0x20 ADD PUSH1 0x60 DUP2 MSTORE PUSH1 0x20 ADD PUSH1 0x60 DUP2 MSTORE PUSH1 0x20 ADD PUSH1 0x60 DUP2 MSTORE PUSH1 0x20 ADD PUSH1 0x60 DUP2 MSTORE POP SWAP1 JUMP JUMPDEST JUMPDEST DUP1 DUP3 GT ISZERO PUSH2 0x24CC JUMPI PUSH1 0x0 DUP2 PUSH1 0x0 SWAP1 SSTORE POP PUSH1 0x1 ADD PUSH2 0x24B4 JUMP JUMPDEST POP SWAP1 JUMP JUMPDEST PUSH1 0x0 PUSH2 0x24E3 PUSH2 0x24DE DUP5 PUSH2 0x2E78 JUMP JUMPDEST PUSH2 0x2E53 JUMP JUMPDEST SWAP1 POP DUP3 DUP2 MSTORE PUSH1 0x20 DUP2 ADD DUP5 DUP5 DUP5 ADD GT ISZERO PUSH2 0x24FF JUMPI PUSH2 0x24FE PUSH2 0x3213 JUMP JUMPDEST JUMPDEST PUSH2 0x250A DUP5 DUP3 DUP6 PUSH2 0x3035 JUMP JUMPDEST POP SWAP4 SWAP3 POP POP POP JUMP JUMPDEST PUSH1 0x0 DUP2 CALLDATALOAD SWAP1 POP PUSH2 0x2521 DUP2 PUSH2 0x32D6 JUMP JUMPDEST SWAP3 SWAP2 POP POP JUMP JUMPDEST PUSH1 0x0 DUP2 CALLDATALOAD SWAP1 POP PUSH2 0x2536 DUP2 PUSH2 0x32ED JUMP JUMPDEST SWAP3 SWAP2 POP POP JUMP JUMPDEST PUSH1 0x0 DUP3 PUSH1 0x1F DUP4 ADD SLT PUSH2 0x2551 JUMPI PUSH2 0x2550 PUSH2 0x320E JUMP JUMPDEST JUMPDEST DUP2 CALLDATALOAD PUSH2 0x2561 DUP5 DUP3 PUSH1 0x20 DUP7 ADD PUSH2 0x24D0 JUMP JUMPDEST SWAP2 POP POP SWAP3 SWAP2 POP POP JUMP JUMPDEST PUSH1 0x0 DUP2 CALLDATALOAD SWAP1 POP PUSH2 0x2579 DUP2 PUSH2 0x32FD JUMP JUMPDEST SWAP3 SWAP2 POP POP JUMP JUMPDEST PUSH1 0x0 PUSH1 0x20 DUP3 DUP5 SUB SLT ISZERO PUSH2 0x2595 JUMPI PUSH2 0x2594 PUSH2 0x321D JUMP JUMPDEST JUMPDEST PUSH1 0x0 PUSH2 0x25A3 DUP5 DUP3 DUP6 ADD PUSH2 0x2512 JUMP JUMPDEST SWAP2 POP POP SWAP3 SWAP2 POP POP JUMP JUMPDEST PUSH1 0x0 DUP1 PUSH1 0x0 PUSH1 0x60 DUP5 DUP7 SUB SLT ISZERO PUSH2 0x25C5 JUMPI PUSH2 0x25C4 PUSH2 0x321D JUMP JUMPDEST JUMPDEST PUSH1 0x0 PUSH2 0x25D3 DUP7 DUP3 DUP8 ADD PUSH2 0x2512 JUMP JUMPDEST SWAP4 POP POP PUSH1 0x20 PUSH2 0x25E4 DUP7 DUP3 DUP8 ADD PUSH2 0x2527 JUMP JUMPDEST SWAP3 POP POP PUSH1 0x40 DUP5 ADD CALLDATALOAD PUSH8 0xFFFFFFFFFFFFFFFF DUP2 GT ISZERO PUSH2 0x2605 JUMPI PUSH2 0x2604 PUSH2 0x3218 JUMP JUMPDEST JUMPDEST PUSH2 0x2611 DUP7 DUP3 DUP8 ADD PUSH2 0x253C JUMP JUMPDEST SWAP2 POP POP SWAP3 POP SWAP3 POP SWAP3 JUMP JUMPDEST PUSH1 0x0 DUP1 PUSH1 0x40 DUP4 DUP6 SUB SLT ISZERO PUSH2 0x2632 JUMPI PUSH2 0x2631 PUSH2 0x321D JUMP JUMPDEST JUMPDEST PUSH1 0x0 PUSH2 0x2640 DUP6 DUP3 DUP7 ADD PUSH2 0x2512 JUMP JUMPDEST SWAP3 POP POP PUSH1 0x20 PUSH2 0x2651 DUP6 DUP3 DUP7 ADD PUSH2 0x256A JUMP JUMPDEST SWAP2 POP POP SWAP3 POP SWAP3 SWAP1 POP JUMP JUMPDEST PUSH1 0x0 PUSH1 0x20 DUP3 DUP5 SUB SLT ISZERO PUSH2 0x2671 JUMPI PUSH2 0x2670 PUSH2 0x321D JUMP JUMPDEST JUMPDEST PUSH1 0x0 PUSH2 0x267F DUP5 DUP3 DUP6 ADD PUSH2 0x256A JUMP JUMPDEST SWAP2 POP POP SWAP3 SWAP2 POP POP JUMP JUMPDEST PUSH1 0x0 DUP1 PUSH1 0x0 DUP1 PUSH1 0x0 DUP1 PUSH1 0x0 DUP1 PUSH2 0x100 DUP10 DUP12 SUB SLT ISZERO PUSH2 0x26A9 JUMPI PUSH2 0x26A8 PUSH2 0x321D JUMP JUMPDEST JUMPDEST PUSH1 0x0 PUSH2 0x26B7 DUP12 DUP3 DUP13 ADD PUSH2 0x256A JUMP JUMPDEST SWAP9 POP POP PUSH1 0x20 DUP10 ADD CALLDATALOAD PUSH8 0xFFFFFFFFFFFFFFFF DUP2 GT ISZERO PUSH2 0x26D8 JUMPI PUSH2 0x26D7 PUSH2 0x3218 JUMP JUMPDEST JUMPDEST PUSH2 0x26E4 DUP12 DUP3 DUP13 ADD PUSH2 0x253C JUMP JUMPDEST SWAP8 POP POP PUSH1 0x40 DUP10 ADD CALLDATALOAD PUSH8 0xFFFFFFFFFFFFFFFF DUP2 GT ISZERO PUSH2 0x2705 JUMPI PUSH2 0x2704 PUSH2 0x3218 JUMP JUMPDEST JUMPDEST PUSH2 0x2711 DUP12 DUP3 DUP13 ADD PUSH2 0x253C JUMP JUMPDEST SWAP7 POP POP PUSH1 0x60 DUP10 ADD CALLDATALOAD PUSH8 0xFFFFFFFFFFFFFFFF DUP2 GT ISZERO PUSH2 0x2732 JUMPI PUSH2 0x2731 PUSH2 0x3218 JUMP JUMPDEST JUMPDEST PUSH2 0x273E DUP12 DUP3 DUP13 ADD PUSH2 0x253C JUMP JUMPDEST SWAP6 POP POP PUSH1 0x80 DUP10 ADD CALLDATALOAD PUSH8 0xFFFFFFFFFFFFFFFF DUP2 GT ISZERO PUSH2 0x275F JUMPI PUSH2 0x275E PUSH2 0x3218 JUMP JUMPDEST JUMPDEST PUSH2 0x276B DUP12 DUP3 DUP13 ADD PUSH2 0x253C JUMP JUMPDEST SWAP5 POP POP PUSH1 0xA0 DUP10 ADD CALLDATALOAD PUSH8 0xFFFFFFFFFFFFFFFF DUP2 GT ISZERO PUSH2 0x278C JUMPI PUSH2 0x278B PUSH2 0x3218 JUMP JUMPDEST JUMPDEST PUSH2 0x2798 DUP12 DUP3 DUP13 ADD PUSH2 0x253C JUMP JUMPDEST SWAP4 POP POP PUSH1 0xC0 DUP10 ADD CALLDATALOAD PUSH8 0xFFFFFFFFFFFFFFFF DUP2 GT ISZERO PUSH2 0x27B9 JUMPI PUSH2 0x27B8 PUSH2 0x3218 JUMP JUMPDEST JUMPDEST PUSH2 0x27C5 DUP12 DUP3 DUP13 ADD PUSH2 0x253C JUMP JUMPDEST SWAP3 POP POP PUSH1 0xE0 DUP10 ADD CALLDATALOAD PUSH8 0xFFFFFFFFFFFFFFFF DUP2 GT ISZERO PUSH2 0x27E6 JUMPI PUSH2 0x27E5 PUSH2 0x3218 JUMP JUMPDEST JUMPDEST PUSH2 0x27F2 DUP12 DUP3 DUP13 ADD PUSH2 0x253C JUMP JUMPDEST SWAP2 POP POP SWAP3 SWAP6 SWAP9 POP SWAP3 SWAP6 SWAP9 SWAP1 SWAP4 SWAP7 POP JUMP JUMPDEST PUSH1 0x0 DUP1 PUSH1 0x40 DUP4 DUP6 SUB SLT ISZERO PUSH2 0x2819 JUMPI PUSH2 0x2818 PUSH2 0x321D JUMP JUMPDEST JUMPDEST PUSH1 0x0 PUSH2 0x2827 DUP6 DUP3 DUP7 ADD PUSH2 0x256A JUMP JUMPDEST SWAP3 POP POP PUSH1 0x20 PUSH2 0x2838 DUP6 DUP3 DUP7 ADD PUSH2 0x256A JUMP JUMPDEST SWAP2 POP POP SWAP3 POP SWAP3 SWAP1 POP JUMP JUMPDEST PUSH1 0x0 DUP1 PUSH1 0x0 DUP1 PUSH1 0x0 DUP1 PUSH1 0x0 DUP1 PUSH1 0x0 DUP1 PUSH2 0x140 DUP12 DUP14 SUB SLT ISZERO PUSH2 0x2866 JUMPI PUSH2 0x2865 PUSH2 0x321D JUMP JUMPDEST JUMPDEST PUSH1 0x0 PUSH2 0x2874 DUP14 DUP3 DUP15 ADD PUSH2 0x256A JUMP JUMPDEST SWAP11 POP POP PUSH1 0x20 PUSH2 0x2885 DUP14 DUP3 DUP15 ADD PUSH2 0x256A JUMP JUMPDEST SWAP10 POP POP PUSH1 0x40 PUSH2 0x2896 DUP14 DUP3 DUP15 ADD PUSH2 0x256A JUMP JUMPDEST SWAP9 POP POP PUSH1 0x60 DUP12 ADD CALLDATALOAD PUSH8 0xFFFFFFFFFFFFFFFF DUP2 GT ISZERO PUSH2 0x28B7 JUMPI PUSH2 0x28B6 PUSH2 0x3218 JUMP JUMPDEST JUMPDEST PUSH2 0x28C3 DUP14 DUP3 DUP15 ADD PUSH2 0x253C JUMP JUMPDEST SWAP8 POP POP PUSH1 0x80 DUP12 ADD CALLDATALOAD PUSH8 0xFFFFFFFFFFFFFFFF DUP2 GT ISZERO PUSH2 0x28E4 JUMPI PUSH2 0x28E3 PUSH2 0x3218 JUMP JUMPDEST JUMPDEST PUSH2 0x28F0 DUP14 DUP3 DUP15 ADD PUSH2 0x253C JUMP JUMPDEST SWAP7 POP POP PUSH1 0xA0 DUP12 ADD CALLDATALOAD PUSH8 0xFFFFFFFFFFFFFFFF DUP2 GT ISZERO PUSH2 0x2911 JUMPI PUSH2 0x2910 PUSH2 0x3218 JUMP JUMPDEST JUMPDEST PUSH2 0x291D DUP14 DUP3 DUP15 ADD PUSH2 0x253C JUMP JUMPDEST SWAP6 POP POP PUSH1 0xC0 DUP12 ADD CALLDATALOAD PUSH8 0xFFFFFFFFFFFFFFFF DUP2 GT ISZERO PUSH2 0x293E JUMPI PUSH2 0x293D PUSH2 0x3218 JUMP JUMPDEST JUMPDEST PUSH2 0x294A DUP14 DUP3 DUP15 ADD PUSH2 0x253C JUMP JUMPDEST SWAP5 POP POP PUSH1 0xE0 DUP12 ADD CALLDATALOAD PUSH8 0xFFFFFFFFFFFFFFFF DUP2 GT ISZERO PUSH2 0x296B JUMPI PUSH2 0x296A PUSH2 0x3218 JUMP JUMPDEST JUMPDEST PUSH2 0x2977 DUP14 DUP3 DUP15 ADD PUSH2 0x253C JUMP JUMPDEST SWAP4 POP POP PUSH2 0x100 DUP12 ADD CALLDATALOAD PUSH8 0xFFFFFFFFFFFFFFFF DUP2 GT ISZERO PUSH2 0x2999 JUMPI PUSH2 0x2998 PUSH2 0x3218 JUMP JUMPDEST JUMPDEST PUSH2 0x29A5 DUP14 DUP3 DUP15 ADD PUSH2 0x253C JUMP JUMPDEST SWAP3 POP POP PUSH2 0x120 DUP12 ADD CALLDATALOAD PUSH8 0xFFFFFFFFFFFFFFFF DUP2 GT ISZERO PUSH2 0x29C7 JUMPI PUSH2 0x29C6 PUSH2 0x3218 JUMP JUMPDEST JUMPDEST PUSH2 0x29D3 DUP14 DUP3 DUP15 ADD PUSH2 0x253C JUMP JUMPDEST SWAP2 POP POP SWAP3 SWAP6 SWAP9 SWAP12 SWAP2 SWAP5 SWAP8 SWAP11 POP SWAP3 SWAP6 SWAP9 POP JUMP JUMPDEST PUSH2 0x29EE DUP2 PUSH2 0x2FA3 JUMP JUMPDEST DUP3 MSTORE POP POP JUMP JUMPDEST PUSH2 0x29FD DUP2 PUSH2 0x2F91 JUMP JUMPDEST DUP3 MSTORE POP POP JUMP JUMPDEST PUSH2 0x2A0C DUP2 PUSH2 0x2FB5 JUMP JUMPDEST DUP3 MSTORE POP POP JUMP JUMPDEST PUSH2 0x2A1B DUP2 PUSH2 0x3011 JUMP JUMPDEST DUP3 MSTORE POP POP JUMP JUMPDEST PUSH2 0x2A2A DUP2 PUSH2 0x3023 JUMP JUMPDEST DUP3 MSTORE POP POP JUMP JUMPDEST PUSH1 0x0 PUSH2 0x2A3B DUP3 PUSH2 0x2EA9 JUMP JUMPDEST PUSH2 0x2A45 DUP2 DUP6 PUSH2 0x2EB4 JUMP JUMPDEST SWAP4 POP PUSH2 0x2A55 DUP2 DUP6 PUSH1 0x20 DUP7 ADD PUSH2 0x3044 JUMP JUMPDEST PUSH2 0x2A5E DUP2 PUSH2 0x3222 JUMP JUMPDEST DUP5 ADD SWAP2 POP POP SWAP3 SWAP2 POP POP JUMP JUMPDEST PUSH1 0x0 PUSH2 0x2A74 DUP3 PUSH2 0x2EA9 JUMP JUMPDEST PUSH2 0x2A7E DUP2 DUP6 PUSH2 0x2EC5 JUMP JUMPDEST SWAP4 POP PUSH2 0x2A8E DUP2 DUP6 PUSH1 0x20 DUP7 ADD PUSH2 0x3044 JUMP JUMPDEST PUSH2 0x2A97 DUP2 PUSH2 0x3222 JUMP JUMPDEST DUP5 ADD SWAP2 POP POP SWAP3 SWAP2 POP POP JUMP JUMPDEST PUSH1 0x0 PUSH2 0x2AAF PUSH1 0x1C DUP4 PUSH2 0x2EC5 JUMP JUMPDEST SWAP2 POP PUSH2 0x2ABA DUP3 PUSH2 0x3233 JUMP JUMPDEST PUSH1 0x20 DUP3 ADD SWAP1 POP SWAP2 SWAP1 POP JUMP JUMPDEST PUSH1 0x0 PUSH2 0x2AD2 PUSH1 0x19 DUP4 PUSH2 0x2EC5 JUMP JUMPDEST SWAP2 POP PUSH2 0x2ADD DUP3 PUSH2 0x325C JUMP JUMPDEST PUSH1 0x20 DUP3 ADD SWAP1 POP SWAP2 SWAP1 POP JUMP JUMPDEST PUSH1 0x0 PUSH2 0x2AF5 PUSH1 0x1E DUP4 PUSH2 0x2EC5 JUMP JUMPDEST SWAP2 POP PUSH2 0x2B00 DUP3 PUSH2 0x3285 JUMP JUMPDEST PUSH1 0x20 DUP3 ADD SWAP1 POP SWAP2 SWAP1 POP JUMP JUMPDEST PUSH1 0x0 PUSH1 0xE0 DUP4 ADD PUSH1 0x0 DUP4 ADD MLOAD DUP5 DUP3 SUB PUSH1 0x0 DUP7 ADD MSTORE PUSH2 0x2B28 DUP3 DUP3 PUSH2 0x2A30 JUMP JUMPDEST SWAP2 POP POP PUSH1 0x20 DUP4 ADD MLOAD DUP5 DUP3 SUB PUSH1 0x20 DUP7 ADD MSTORE PUSH2 0x2B42 DUP3 DUP3 PUSH2 0x2A30 JUMP JUMPDEST SWAP2 POP POP PUSH1 0x40 DUP4 ADD MLOAD DUP5 DUP3 SUB PUSH1 0x40 DUP7 ADD MSTORE PUSH2 0x2B5C DUP3 DUP3 PUSH2 0x2A30 JUMP JUMPDEST SWAP2 POP POP PUSH1 0x60 DUP4 ADD MLOAD DUP5 DUP3 SUB PUSH1 0x60 DUP7 ADD MSTORE PUSH2 0x2B76 DUP3 DUP3 PUSH2 0x2A30 JUMP JUMPDEST SWAP2 POP POP PUSH1 0x80 DUP4 ADD MLOAD DUP5 DUP3 SUB PUSH1 0x80 DUP7 ADD MSTORE PUSH2 0x2B90 DUP3 DUP3 PUSH2 0x2A30 JUMP JUMPDEST SWAP2 POP POP PUSH1 0xA0 DUP4 ADD MLOAD DUP5 DUP3 SUB PUSH1 0xA0 DUP7 ADD MSTORE PUSH2 0x2BAA DUP3 DUP3 PUSH2 0x2A30 JUMP JUMPDEST SWAP2 POP POP PUSH1 0xC0 DUP4 ADD MLOAD DUP5 DUP3 SUB PUSH1 0xC0 DUP7 ADD MSTORE PUSH2 0x2BC4 DUP3 DUP3 PUSH2 0x2A30 JUMP JUMPDEST SWAP2 POP POP DUP1 SWAP2 POP POP SWAP3 SWAP2 POP POP JUMP JUMPDEST PUSH2 0x2BDA DUP2 PUSH2 0x3007 JUMP JUMPDEST DUP3 MSTORE POP POP JUMP JUMPDEST PUSH1 0x0 PUSH1 0x20 DUP3 ADD SWAP1 POP PUSH2 0x2BF5 PUSH1 0x0 DUP4 ADD DUP5 PUSH2 0x29E5 JUMP JUMPDEST SWAP3 SWAP2 POP POP JUMP JUMPDEST PUSH1 0x0 PUSH1 0x20 DUP3 ADD SWAP1 POP PUSH2 0x2C10 PUSH1 0x0 DUP4 ADD DUP5 PUSH2 0x2A03 JUMP JUMPDEST SWAP3 SWAP2 POP POP JUMP JUMPDEST PUSH1 0x0 PUSH1 0x40 DUP3 ADD SWAP1 POP PUSH2 0x2C2B PUSH1 0x0 DUP4 ADD DUP6 PUSH2 0x2A12 JUMP JUMPDEST DUP2 DUP2 SUB PUSH1 0x20 DUP4 ADD MSTORE PUSH2 0x2C3D DUP2 DUP5 PUSH2 0x2A69 JUMP JUMPDEST SWAP1 POP SWAP4 SWAP3 POP POP POP JUMP JUMPDEST PUSH1 0x0 PUSH1 0x20 DUP3 ADD SWAP1 POP DUP2 DUP2 SUB PUSH1 0x0 DUP4 ADD MSTORE PUSH2 0x2C60 DUP2 DUP5 PUSH2 0x2A69 JUMP JUMPDEST SWAP1 POP SWAP3 SWAP2 POP POP JUMP JUMPDEST PUSH1 0x0 PUSH1 0x20 DUP3 ADD SWAP1 POP DUP2 DUP2 SUB PUSH1 0x0 DUP4 ADD MSTORE PUSH2 0x2C81 DUP2 PUSH2 0x2AA2 JUMP JUMPDEST SWAP1 POP SWAP2 SWAP1 POP JUMP JUMPDEST PUSH1 0x0 PUSH1 0x20 DUP3 ADD SWAP1 POP DUP2 DUP2 SUB PUSH1 0x0 DUP4 ADD MSTORE PUSH2 0x2CA1 DUP2 PUSH2 0x2AC5 JUMP JUMPDEST SWAP1 POP SWAP2 SWAP1 POP JUMP JUMPDEST PUSH1 0x0 PUSH1 0x20 DUP3 ADD SWAP1 POP DUP2 DUP2 SUB PUSH1 0x0 DUP4 ADD MSTORE PUSH2 0x2CC1 DUP2 PUSH2 0x2AE8 JUMP JUMPDEST SWAP1 POP SWAP2 SWAP1 POP JUMP JUMPDEST PUSH1 0x0 PUSH1 0x20 DUP3 ADD SWAP1 POP PUSH2 0x2CDD PUSH1 0x0 DUP4 ADD DUP5 PUSH2 0x2BD1 JUMP JUMPDEST SWAP3 SWAP2 POP POP JUMP JUMPDEST PUSH1 0x0 PUSH2 0x120 DUP3 ADD SWAP1 POP PUSH2 0x2CF9 PUSH1 0x0 DUP4 ADD DUP13 PUSH2 0x2BD1 JUMP JUMPDEST PUSH2 0x2D06 PUSH1 0x20 DUP4 ADD DUP12 PUSH2 0x29F4 JUMP JUMPDEST PUSH2 0x2D13 PUSH1 0x40 DUP4 ADD DUP11 PUSH2 0x29F4 JUMP JUMPDEST PUSH2 0x2D20 PUSH1 0x60 DUP4 ADD DUP10 PUSH2 0x2A21 JUMP JUMPDEST PUSH2 0x2D2D PUSH1 0x80 DUP4 ADD DUP9 PUSH2 0x2BD1 JUMP JUMPDEST PUSH2 0x2D3A PUSH1 0xA0 DUP4 ADD DUP8 PUSH2 0x29F4 JUMP JUMPDEST PUSH2 0x2D47 PUSH1 0xC0 DUP4 ADD DUP7 PUSH2 0x29F4 JUMP JUMPDEST PUSH2 0x2D54 PUSH1 0xE0 DUP4 ADD DUP6 PUSH2 0x29F4 JUMP JUMPDEST DUP2 DUP2 SUB PUSH2 0x100 DUP4 ADD MSTORE PUSH2 0x2D67 DUP2 DUP5 PUSH2 0x2B0B JUMP JUMPDEST SWAP1 POP SWAP11 SWAP10 POP POP POP POP POP POP POP POP POP POP JUMP JUMPDEST PUSH1 0x0 PUSH2 0x160 DUP3 ADD SWAP1 POP PUSH2 0x2D8D PUSH1 0x0 DUP4 ADD DUP15 PUSH2 0x2BD1 JUMP JUMPDEST PUSH2 0x2D9A PUSH1 0x20 DUP4 ADD DUP14 PUSH2 0x29F4 JUMP JUMPDEST PUSH2 0x2DA7 PUSH1 0x40 DUP4 ADD DUP13 PUSH2 0x2A21 JUMP JUMPDEST PUSH2 0x2DB4 PUSH1 0x60 DUP4 ADD DUP12 PUSH2 0x2BD1 JUMP JUMPDEST DUP2 DUP2 SUB PUSH1 0x80 DUP4 ADD MSTORE PUSH2 0x2DC6 DUP2 DUP11 PUSH2 0x2A69 JUMP JUMPDEST SWAP1 POP DUP2 DUP2 SUB PUSH1 0xA0 DUP4 ADD MSTORE PUSH2 0x2DDA DUP2 DUP10 PUSH2 0x2A69 JUMP JUMPDEST SWAP1 POP DUP2 DUP2 SUB PUSH1 0xC0 DUP4 ADD MSTORE PUSH2 0x2DEE DUP2 DUP9 PUSH2 0x2A69 JUMP JUMPDEST SWAP1 POP DUP2 DUP2 SUB PUSH1 0xE0 DUP4 ADD MSTORE PUSH2 0x2E02 DUP2 DUP8 PUSH2 0x2A69 JUMP JUMPDEST SWAP1 POP DUP2 DUP2 SUB PUSH2 0x100 DUP4 ADD MSTORE PUSH2 0x2E17 DUP2 DUP7 PUSH2 0x2A69 JUMP JUMPDEST SWAP1 POP DUP2 DUP2 SUB PUSH2 0x120 DUP4 ADD MSTORE PUSH2 0x2E2C DUP2 DUP6 PUSH2 0x2A69 JUMP JUMPDEST SWAP1 POP DUP2 DUP2 SUB PUSH2 0x140 DUP4 ADD MSTORE PUSH2 0x2E41 DUP2 DUP5 PUSH2 0x2A69 JUMP JUMPDEST SWAP1 POP SWAP13 SWAP12 POP POP POP POP POP POP POP POP POP POP POP POP JUMP JUMPDEST PUSH1 0x0 PUSH2 0x2E5D PUSH2 0x2E6E JUMP JUMPDEST SWAP1 POP PUSH2 0x2E69 DUP3 DUP3 PUSH2 0x30A9 JUMP JUMPDEST SWAP2 SWAP1 POP JUMP JUMPDEST PUSH1 0x0 PUSH1 0x40 MLOAD SWAP1 POP SWAP1 JUMP JUMPDEST PUSH1 0x0 PUSH8 0xFFFFFFFFFFFFFFFF DUP3 GT ISZERO PUSH2 0x2E93 JUMPI PUSH2 0x2E92 PUSH2 0x31DF JUMP JUMPDEST JUMPDEST PUSH2 0x2E9C DUP3 PUSH2 0x3222 JUMP JUMPDEST SWAP1 POP PUSH1 0x20 DUP2 ADD SWAP1 POP SWAP2 SWAP1 POP JUMP JUMPDEST PUSH1 0x0 DUP2 MLOAD SWAP1 POP SWAP2 SWAP1 POP JUMP JUMPDEST PUSH1 0x0 DUP3 DUP3 MSTORE PUSH1 0x20 DUP3 ADD SWAP1 POP SWAP3 SWAP2 POP POP JUMP JUMPDEST PUSH1 0x0 DUP3 DUP3 MSTORE PUSH1 0x20 DUP3 ADD SWAP1 POP SWAP3 SWAP2 POP POP JUMP JUMPDEST PUSH1 0x0 PUSH2 0x2EE1 DUP3 PUSH2 0x3007 JUMP JUMPDEST SWAP2 POP PUSH2 0x2EEC DUP4 PUSH2 0x3007 JUMP JUMPDEST SWAP3 POP DUP3 PUSH32 0xFFFFFFFFFFFFFFFFFFFFFFFFFFFFFFFFFFFFFFFFFFFFFFFFFFFFFFFFFFFFFFFF SUB DUP3 GT ISZERO PUSH2 0x2F21 JUMPI PUSH2 0x2F20 PUSH2 0x3123 JUMP JUMPDEST JUMPDEST DUP3 DUP3 ADD SWAP1 POP SWAP3 SWAP2 POP POP JUMP JUMPDEST PUSH1 0x0 PUSH2 0x2F37 DUP3 PUSH2 0x3007 JUMP JUMPDEST SWAP2 POP PUSH2 0x2F42 DUP4 PUSH2 0x3007 JUMP JUMPDEST SWAP3 POP DUP3 PUSH2 0x2F52 JUMPI PUSH2 0x2F51 PUSH2 0x3152 JUMP JUMPDEST JUMPDEST DUP3 DUP3 DIV SWAP1 POP SWAP3 SWAP2 POP POP JUMP JUMPDEST PUSH1 0x0 PUSH2 0x2F68 DUP3 PUSH2 0x3007 JUMP JUMPDEST SWAP2 POP PUSH2 0x2F73 DUP4 PUSH2 0x3007 JUMP JUMPDEST SWAP3 POP DUP3 DUP3 LT ISZERO PUSH2 0x2F86 JUMPI PUSH2 0x2F85 PUSH2 0x3123 JUMP JUMPDEST JUMPDEST DUP3 DUP3 SUB SWAP1 POP SWAP3 SWAP2 POP POP JUMP JUMPDEST PUSH1 0x0 PUSH2 0x2F9C DUP3 PUSH2 0x2FE7 JUMP JUMPDEST SWAP1 POP SWAP2 SWAP1 POP JUMP JUMPDEST PUSH1 0x0 PUSH2 0x2FAE DUP3 PUSH2 0x2FE7 JUMP JUMPDEST SWAP1 POP SWAP2 SWAP1 POP JUMP JUMPDEST PUSH1 0x0 DUP2 ISZERO ISZERO SWAP1 POP SWAP2 SWAP1 POP JUMP JUMPDEST PUSH1 0x0 DUP2 SWAP1 POP PUSH2 0x2FCF DUP3 PUSH2 0x32AE JUMP JUMPDEST SWAP2 SWAP1 POP JUMP JUMPDEST PUSH1 0x0 DUP2 SWAP1 POP PUSH2 0x2FE2 DUP3 PUSH2 0x32C2 JUMP JUMPDEST SWAP2 SWAP1 POP JUMP JUMPDEST PUSH1 0x0 PUSH20 0xFFFFFFFFFFFFFFFFFFFFFFFFFFFFFFFFFFFFFFFF DUP3 AND SWAP1 POP SWAP2 SWAP1 POP JUMP JUMPDEST PUSH1 0x0 DUP2 SWAP1 POP SWAP2 SWAP1 POP JUMP JUMPDEST PUSH1 0x0 PUSH2 0x301C DUP3 PUSH2 0x2FC1 JUMP JUMPDEST SWAP1 POP SWAP2 SWAP1 POP JUMP JUMPDEST PUSH1 0x0 PUSH2 0x302E DUP3 PUSH2 0x2FD4 JUMP JUMPDEST SWAP1 POP SWAP2 SWAP1 POP JUMP JUMPDEST DUP3 DUP2 DUP4 CALLDATACOPY PUSH1 0x0 DUP4 DUP4 ADD MSTORE POP POP POP JUMP JUMPDEST PUSH1 0x0 JUMPDEST DUP4 DUP2 LT ISZERO PUSH2 0x3062 JUMPI DUP1 DUP3 ADD MLOAD DUP2 DUP5 ADD MSTORE PUSH1 0x20 DUP2 ADD SWAP1 POP PUSH2 0x3047 JUMP JUMPDEST DUP4 DUP2 GT ISZERO PUSH2 0x3071 JUMPI PUSH1 0x0 DUP5 DUP5 ADD MSTORE JUMPDEST POP POP POP POP JUMP JUMPDEST PUSH1 0x0 PUSH1 0x2 DUP3 DIV SWAP1 POP PUSH1 0x1 DUP3 AND DUP1 PUSH2 0x308F JUMPI PUSH1 0x7F DUP3 AND SWAP2 POP JUMPDEST PUSH1 0x20 DUP3 LT DUP2 EQ ISZERO PUSH2 0x30A3 JUMPI PUSH2 0x30A2 PUSH2 0x31B0 JUMP JUMPDEST JUMPDEST POP SWAP2 SWAP1 POP JUMP JUMPDEST PUSH2 0x30B2 DUP3 PUSH2 0x3222 JUMP JUMPDEST DUP2 ADD DUP2 DUP2 LT PUSH8 0xFFFFFFFFFFFFFFFF DUP3 GT OR ISZERO PUSH2 0x30D1 JUMPI PUSH2 0x30D0 PUSH2 0x31DF JUMP JUMPDEST JUMPDEST DUP1 PUSH1 0x40 MSTORE POP POP POP JUMP JUMPDEST PUSH1 0x0 PUSH2 0x30E5 DUP3 PUSH2 0x3007 JUMP JUMPDEST SWAP2 POP PUSH32 0xFFFFFFFFFFFFFFFFFFFFFFFFFFFFFFFFFFFFFFFFFFFFFFFFFFFFFFFFFFFFFFFF DUP3 EQ ISZERO PUSH2 0x3118 JUMPI PUSH2 0x3117 PUSH2 0x3123 JUMP JUMPDEST JUMPDEST PUSH1 0x1 DUP3 ADD SWAP1 POP SWAP2 SWAP1 POP JUMP JUMPDEST PUSH32 0x4E487B7100000000000000000000000000000000000000000000000000000000 PUSH1 0x0 MSTORE PUSH1 0x11 PUSH1 0x4 MSTORE PUSH1 0x24 PUSH1 0x0 REVERT JUMPDEST PUSH32 0x4E487B7100000000000000000000000000000000000000000000000000000000 PUSH1 0x0 MSTORE PUSH1 0x12 PUSH1 0x4 MSTORE PUSH1 0x24 PUSH1 0x0 REVERT JUMPDEST PUSH32 0x4E487B7100000000000000000000000000000000000000000000000000000000 PUSH1 0x0 MSTORE PUSH1 0x21 PUSH1 0x4 MSTORE PUSH1 0x24 PUSH1 0x0 REVERT JUMPDEST PUSH32 0x4E487B7100000000000000000000000000000000000000000000000000000000 PUSH1 0x0 MSTORE PUSH1 0x22 PUSH1 0x4 MSTORE PUSH1 0x24 PUSH1 0x0 REVERT JUMPDEST PUSH32 0x4E487B7100000000000000000000000000000000000000000000000000000000 PUSH1 0x0 MSTORE PUSH1 0x41 PUSH1 0x4 MSTORE PUSH1 0x24 PUSH1 0x0 REVERT JUMPDEST PUSH1 0x0 DUP1 REVERT JUMPDEST PUSH1 0x0 DUP1 REVERT JUMPDEST PUSH1 0x0 DUP1 REVERT JUMPDEST PUSH1 0x0 DUP1 REVERT JUMPDEST PUSH1 0x0 PUSH1 0x1F NOT PUSH1 0x1F DUP4 ADD AND SWAP1 POP SWAP2 SWAP1 POP JUMP JUMPDEST PUSH32 0x63616C6C6572206973206E6F742061206469737472696275746F722E00000000 PUSH1 0x0 DUP3 ADD MSTORE POP JUMP JUMPDEST PUSH32 0x63616C6C6572206973206E6F7420612070726F64756365722E00000000000000 PUSH1 0x0 DUP3 ADD MSTORE POP JUMP JUMPDEST PUSH32 0x63616C6C6572206973206E6F742074686520746F6B656E206F776E65722E0000 PUSH1 0x0 DUP3 ADD MSTORE POP JUMP JUMPDEST PUSH1 0x5 DUP2 LT PUSH2 0x32BF JUMPI PUSH2 0x32BE PUSH2 0x3181 JUMP JUMPDEST JUMPDEST POP JUMP JUMPDEST PUSH1 0x6 DUP2 LT PUSH2 0x32D3 JUMPI PUSH2 0x32D2 PUSH2 0x3181 JUMP JUMPDEST JUMPDEST POP JUMP JUMPDEST PUSH2 0x32DF DUP2 PUSH2 0x2F91 JUMP JUMPDEST DUP2 EQ PUSH2 0x32EA JUMPI PUSH1 0x0 DUP1 REVERT JUMPDEST POP JUMP JUMPDEST PUSH1 0x5 DUP2 LT PUSH2 0x32FA JUMPI PUSH1 0x0 DUP1 REVERT JUMPDEST POP JUMP JUMPDEST PUSH2 0x3306 DUP2 PUSH2 0x3007 JUMP JUMPDEST DUP2 EQ PUSH2 0x3311 JUMPI PUSH1 0x0 DUP1 REVERT JUMPDEST POP JUMP INVALID LOG2 PUSH5 0x6970667358 0x22 SLT KECCAK256 0xD0 0x26 SSTORE PUSH12 0x268D167D914A91D32EDB3DD4 PUSH9 0x901481A415AAA417E4 PUSH12 0x4AFE30532F64736F6C634300 ADDMOD SMOD STOP CALLER "
				},
				"gasEstimates": {
					"creation": {
						"codeDepositCost": "2626000",
						"executionCost": "infinite",
						"totalCost": "infinite"
					},
					"external": {
						"burn(address,uint256)": "infinite",
						"buyProduct(uint256,uint256)": "infinite",
						"buyToken()": "infinite",
						"etherBalance(address)": "3301",
						"getActorInfo(address)": "infinite",
						"getProductDetails(uint256)": "infinite",
						"getProductInfo(uint256)": "infinite",
						"mint(uint256)": "infinite",
						"name()": "infinite",
						"orderProduct(uint256,string,string,string,string,string,string,string)": "infinite",
						"produceProduct(uint256,uint256,uint256,string,string,string,string,string,string,string)": "infinite",
						"register(address,uint8,string)": "infinite",
						"symbol()": "infinite",
						"tokenBalance(address)": "2907",
						"tokenOwner()": "2581",
						"tokenTransfer(address,uint256)": "infinite"
					}
				},
				"methodIdentifiers": {
					"burn(address,uint256)": "9dc29fac",
					"buyProduct(uint256,uint256)": "53b62866",
					"buyToken()": "a4821719",
					"etherBalance(address)": "cd0c5896",
					"getActorInfo(address)": "b292abf1",
					"getProductDetails(uint256)": "6813b53b",
					"getProductInfo(uint256)": "79a85e6c",
					"mint(uint256)": "a0712d68",
					"name()": "06fdde03",
					"orderProduct(uint256,string,string,string,string,string,string,string)": "f1091029",
					"produceProduct(uint256,uint256,uint256,string,string,string,string,string,string,string)": "561e0e98",
					"register(address,uint8,string)": "40932fc2",
					"symbol()": "95d89b41",
					"tokenBalance(address)": "eedc966a",
					"tokenOwner()": "a3e67610",
					"tokenTransfer(address,uint256)": "68cdafe6"
				}
			},
			"storageLayout": {
				"storage": [
					{
						"astId": 3,
						"contract": "contracts/4_Product.sol:ProductSC",
						"label": "name",
						"offset": 0,
						"slot": "0",
						"type": "t_string_storage"
					},
					{
						"astId": 5,
						"contract": "contracts/4_Product.sol:ProductSC",
						"label": "symbol",
						"offset": 0,
						"slot": "1",
						"type": "t_string_storage"
					},
					{
						"astId": 7,
						"contract": "contracts/4_Product.sol:ProductSC",
						"label": "tokenOwner",
						"offset": 0,
						"slot": "2",
						"type": "t_address_payable"
					},
					{
						"astId": 12,
						"contract": "contracts/4_Product.sol:ProductSC",
						"label": "_totalSupply",
						"offset": 0,
						"slot": "3",
						"type": "t_uint256"
					},
					{
						"astId": 75,
						"contract": "contracts/4_Product.sol:ProductSC",
						"label": "balances",
						"offset": 0,
						"slot": "4",
						"type": "t_mapping(t_address,t_uint256)"
					},
					{
						"astId": 80,
						"contract": "contracts/4_Product.sol:ProductSC",
						"label": "actors",
						"offset": 0,
						"slot": "5",
						"type": "t_mapping(t_address,t_struct(Actor)56_storage)"
					},
					{
						"astId": 85,
						"contract": "contracts/4_Product.sol:ProductSC",
						"label": "product",
						"offset": 0,
						"slot": "6",
						"type": "t_mapping(t_uint256,t_struct(Product)48_storage)"
					}
				],
				"types": {
					"t_address": {
						"encoding": "inplace",
						"label": "address",
						"numberOfBytes": "20"
					},
					"t_address_payable": {
						"encoding": "inplace",
						"label": "address payable",
						"numberOfBytes": "20"
					},
					"t_bool": {
						"encoding": "inplace",
						"label": "bool",
						"numberOfBytes": "1"
					},
					"t_enum(Role)25": {
						"encoding": "inplace",
						"label": "enum ProductSC.Role",
						"numberOfBytes": "1"
					},
					"t_enum(State)19": {
						"encoding": "inplace",
						"label": "enum ProductSC.State",
						"numberOfBytes": "1"
					},
					"t_mapping(t_address,t_struct(Actor)56_storage)": {
						"encoding": "mapping",
						"key": "t_address",
						"label": "mapping(address => struct ProductSC.Actor)",
						"numberOfBytes": "32",
						"value": "t_struct(Actor)56_storage"
					},
					"t_mapping(t_address,t_uint256)": {
						"encoding": "mapping",
						"key": "t_address",
						"label": "mapping(address => uint256)",
						"numberOfBytes": "32",
						"value": "t_uint256"
					},
					"t_mapping(t_uint256,t_struct(Product)48_storage)": {
						"encoding": "mapping",
						"key": "t_uint256",
						"label": "mapping(uint256 => struct ProductSC.Product)",
						"numberOfBytes": "32",
						"value": "t_struct(Product)48_storage"
					},
					"t_string_storage": {
						"encoding": "bytes",
						"label": "string",
						"numberOfBytes": "32"
					},
					"t_struct(Actor)56_storage": {
						"encoding": "inplace",
						"label": "struct ProductSC.Actor",
						"members": [
							{
								"astId": 51,
								"contract": "contracts/4_Product.sol:ProductSC",
								"label": "role",
								"offset": 0,
								"slot": "0",
								"type": "t_enum(Role)25"
							},
							{
								"astId": 53,
								"contract": "contracts/4_Product.sol:ProductSC",
								"label": "name",
								"offset": 0,
								"slot": "1",
								"type": "t_string_storage"
							},
							{
								"astId": 55,
								"contract": "contracts/4_Product.sol:ProductSC",
								"label": "isDefined",
								"offset": 0,
								"slot": "2",
								"type": "t_bool"
							}
						],
						"numberOfBytes": "96"
					},
					"t_struct(Details)71_storage": {
						"encoding": "inplace",
						"label": "struct ProductSC.Details",
						"members": [
							{
								"astId": 58,
								"contract": "contracts/4_Product.sol:ProductSC",
								"label": "name",
								"offset": 0,
								"slot": "0",
								"type": "t_string_storage"
							},
							{
								"astId": 60,
								"contract": "contracts/4_Product.sol:ProductSC",
								"label": "brand",
								"offset": 0,
								"slot": "1",
								"type": "t_string_storage"
							},
							{
								"astId": 62,
								"contract": "contracts/4_Product.sol:ProductSC",
								"label": "size",
								"offset": 0,
								"slot": "2",
								"type": "t_string_storage"
							},
							{
								"astId": 64,
								"contract": "contracts/4_Product.sol:ProductSC",
								"label": "weight",
								"offset": 0,
								"slot": "3",
								"type": "t_string_storage"
							},
							{
								"astId": 66,
								"contract": "contracts/4_Product.sol:ProductSC",
								"label": "length",
								"offset": 0,
								"slot": "4",
								"type": "t_string_storage"
							},
							{
								"astId": 68,
								"contract": "contracts/4_Product.sol:ProductSC",
								"label": "width",
								"offset": 0,
								"slot": "5",
								"type": "t_string_storage"
							},
							{
								"astId": 70,
								"contract": "contracts/4_Product.sol:ProductSC",
								"label": "height",
								"offset": 0,
								"slot": "6",
								"type": "t_string_storage"
							}
						],
						"numberOfBytes": "224"
					},
					"t_struct(Product)48_storage": {
						"encoding": "inplace",
						"label": "struct ProductSC.Product",
						"members": [
							{
								"astId": 27,
								"contract": "contracts/4_Product.sol:ProductSC",
								"label": "ID",
								"offset": 0,
								"slot": "0",
								"type": "t_uint256"
							},
							{
								"astId": 29,
								"contract": "contracts/4_Product.sol:ProductSC",
								"label": "ownerID",
								"offset": 0,
								"slot": "1",
								"type": "t_address"
							},
							{
								"astId": 31,
								"contract": "contracts/4_Product.sol:ProductSC",
								"label": "producerID",
								"offset": 0,
								"slot": "2",
								"type": "t_address"
							},
							{
								"astId": 33,
								"contract": "contracts/4_Product.sol:ProductSC",
								"label": "timestamp",
								"offset": 0,
								"slot": "3",
								"type": "t_uint256"
							},
							{
								"astId": 36,
								"contract": "contracts/4_Product.sol:ProductSC",
								"label": "productState",
								"offset": 0,
								"slot": "4",
								"type": "t_enum(State)19"
							},
							{
								"astId": 38,
								"contract": "contracts/4_Product.sol:ProductSC",
								"label": "productPrice",
								"offset": 0,
								"slot": "5",
								"type": "t_uint256"
							},
							{
								"astId": 40,
								"contract": "contracts/4_Product.sol:ProductSC",
								"label": "distributorID",
								"offset": 0,
								"slot": "6",
								"type": "t_address"
							},
							{
								"astId": 42,
								"contract": "contracts/4_Product.sol:ProductSC",
								"label": "retailerID",
								"offset": 0,
								"slot": "7",
								"type": "t_address"
							},
							{
								"astId": 44,
								"contract": "contracts/4_Product.sol:ProductSC",
								"label": "consumerID",
								"offset": 0,
								"slot": "8",
								"type": "t_address"
							},
							{
								"astId": 47,
								"contract": "contracts/4_Product.sol:ProductSC",
								"label": "details",
								"offset": 0,
								"slot": "9",
								"type": "t_struct(Details)71_storage"
							}
						],
						"numberOfBytes": "512"
					},
					"t_uint256": {
						"encoding": "inplace",
						"label": "uint256",
						"numberOfBytes": "32"
					}
				}
			},
			"userdoc": {
				"kind": "user",
				"methods": {},
				"version": 1
			}
		}
	}
}