{
	"contracts/4_Product.sol": {
		"ProductSC": {
			"abi": [
				{
					"inputs": [
						{
							"internalType": "string",
							"name": "_name",
							"type": "string"
						},
						{
							"internalType": "string",
							"name": "_symbol",
							"type": "string"
						},
						{
							"internalType": "uint256",
							"name": "_initialSupply",
							"type": "uint256"
						}
					],
					"stateMutability": "nonpayable",
					"type": "constructor"
				},
				{
					"inputs": [
						{
							"internalType": "address",
							"name": "_account",
							"type": "address"
						},
						{
							"internalType": "uint256",
							"name": "_amount",
							"type": "uint256"
						}
					],
					"name": "burn",
					"outputs": [],
					"stateMutability": "nonpayable",
					"type": "function"
				},
				{
					"inputs": [],
					"name": "buyToken",
					"outputs": [],
					"stateMutability": "payable",
					"type": "function"
				},
				{
					"inputs": [
						{
							"internalType": "address",
							"name": "_addr",
							"type": "address"
						}
					],
					"name": "etherBalance",
					"outputs": [
						{
							"internalType": "uint256",
							"name": "",
							"type": "uint256"
						}
					],
					"stateMutability": "view",
					"type": "function"
				},
				{
					"inputs": [
						{
							"internalType": "address",
							"name": "_addr",
							"type": "address"
						}
					],
					"name": "getActorInfo",
					"outputs": [
						{
							"internalType": "enum ProductSC.Role",
							"name": "_role",
							"type": "uint8"
						},
						{
							"internalType": "string",
							"name": "_name",
							"type": "string"
						}
					],
					"stateMutability": "view",
					"type": "function"
				},
				{
					"inputs": [
						{
							"internalType": "uint256",
							"name": "_amount",
							"type": "uint256"
						}
					],
					"name": "mint",
					"outputs": [],
					"stateMutability": "nonpayable",
					"type": "function"
				},
				{
					"inputs": [],
					"name": "name",
					"outputs": [
						{
							"internalType": "string",
							"name": "",
							"type": "string"
						}
					],
					"stateMutability": "view",
					"type": "function"
				},
				{
					"inputs": [
						{
							"internalType": "uint256",
							"name": "_id",
							"type": "uint256"
						},
						{
							"internalType": "uint256",
							"name": "_timestamp",
							"type": "uint256"
						},
						{
							"internalType": "string",
							"name": "_origin",
							"type": "string"
						},
						{
							"internalType": "string",
							"name": "_lat",
							"type": "string"
						},
						{
							"internalType": "string",
							"name": "_log",
							"type": "string"
						},
						{
							"internalType": "int256",
							"name": "_temp",
							"type": "int256"
						},
						{
							"internalType": "uint256",
							"name": "_price",
							"type": "uint256"
						}
					],
					"name": "produceProduct",
					"outputs": [],
					"stateMutability": "nonpayable",
					"type": "function"
				},
				{
					"inputs": [
						{
							"internalType": "address",
							"name": "_addr",
							"type": "address"
						},
						{
							"internalType": "enum ProductSC.Role",
							"name": "_role",
							"type": "uint8"
						},
						{
							"internalType": "string",
							"name": "_name",
							"type": "string"
						}
					],
					"name": "register",
					"outputs": [],
					"stateMutability": "nonpayable",
					"type": "function"
				},
				{
					"inputs": [],
					"name": "symbol",
					"outputs": [
						{
							"internalType": "string",
							"name": "",
							"type": "string"
						}
					],
					"stateMutability": "view",
					"type": "function"
				},
				{
					"inputs": [
						{
							"internalType": "address",
							"name": "_addr",
							"type": "address"
						}
					],
					"name": "tokenBalance",
					"outputs": [
						{
							"internalType": "uint256",
							"name": "",
							"type": "uint256"
						}
					],
					"stateMutability": "view",
					"type": "function"
				},
				{
					"inputs": [],
					"name": "tokenOwner",
					"outputs": [
						{
							"internalType": "address payable",
							"name": "",
							"type": "address"
						}
					],
					"stateMutability": "view",
					"type": "function"
				},
				{
					"inputs": [
						{
							"internalType": "address",
							"name": "_to",
							"type": "address"
						},
						{
							"internalType": "uint256",
							"name": "_amount",
							"type": "uint256"
						}
					],
					"name": "tokenTransfer",
					"outputs": [
						{
							"internalType": "bool",
							"name": "",
							"type": "bool"
						}
					],
					"stateMutability": "nonpayable",
					"type": "function"
				}
			],
			"devdoc": {
				"kind": "dev",
				"methods": {},
				"version": 1
			},
			"evm": {
				"assembly": "    /* \"contracts/4_Product.sol\":35:10168  contract ProductSC {\r... */\n  mstore(0x40, 0x80)\n    /* \"contracts/4_Product.sol\":1978:2358  constructor (string memory _name, string memory _symbol, uint256 _initialSupply) {\r... */\n  callvalue\n  dup1\n  iszero\n  tag_1\n  jumpi\n  0x00\n  dup1\n  revert\ntag_1:\n  pop\n  mload(0x40)\n  sub(codesize, bytecodeSize)\n  dup1\n  bytecodeSize\n  dup4\n  codecopy\n  dup2\n  dup2\n  add\n  0x40\n  mstore\n  dup2\n  add\n  swap1\n  tag_2\n  swap2\n  swap1\n  tag_3\n  jump\t// in\ntag_2:\n    /* \"contracts/4_Product.sol\":2077:2082  _name */\n  dup3\n    /* \"contracts/4_Product.sol\":2070:2074  name */\n  0x00\n    /* \"contracts/4_Product.sol\":2070:2082  name = _name */\n  swap1\n  dup1\n  mload\n  swap1\n  0x20\n  add\n  swap1\n  tag_6\n  swap3\n  swap2\n  swap1\n  tag_7\n  jump\t// in\ntag_6:\n  pop\n    /* \"contracts/4_Product.sol\":2102:2109  _symbol */\n  dup2\n    /* \"contracts/4_Product.sol\":2093:2099  symbol */\n  0x01\n    /* \"contracts/4_Product.sol\":2093:2109  symbol = _symbol */\n  swap1\n  dup1\n  mload\n  swap1\n  0x20\n  add\n  swap1\n  tag_8\n  swap3\n  swap2\n  swap1\n  tag_7\n  jump\t// in\ntag_8:\n  pop\n    /* \"contracts/4_Product.sol\":2135:2149  _initialSupply */\n  dup1\n    /* \"contracts/4_Product.sol\":2120:2132  _totalSupply */\n  0x03\n    /* \"contracts/4_Product.sol\":2120:2149  _totalSupply = _initialSupply */\n  dup2\n  swap1\n  sstore\n  pop\n    /* \"contracts/4_Product.sol\":2181:2191  msg.sender */\n  caller\n    /* \"contracts/4_Product.sol\":2160:2170  tokenOwner */\n  0x02\n  0x00\n    /* \"contracts/4_Product.sol\":2160:2192  tokenOwner = payable(msg.sender) */\n  0x0100\n  exp\n  dup2\n  sload\n  dup2\n  0xffffffffffffffffffffffffffffffffffffffff\n  mul\n  not\n  and\n  swap1\n  dup4\n  0xffffffffffffffffffffffffffffffffffffffff\n  and\n  mul\n  or\n  swap1\n  sstore\n  pop\n    /* \"contracts/4_Product.sol\":2269:2283  _initialSupply */\n  dup1\n    /* \"contracts/4_Product.sol\":2246:2254  balances */\n  0x04\n    /* \"contracts/4_Product.sol\":2246:2266  balances[msg.sender] */\n  0x00\n    /* \"contracts/4_Product.sol\":2255:2265  msg.sender */\n  caller\n    /* \"contracts/4_Product.sol\":2246:2266  balances[msg.sender] */\n  0xffffffffffffffffffffffffffffffffffffffff\n  and\n  0xffffffffffffffffffffffffffffffffffffffff\n  and\n  dup2\n  mstore\n  0x20\n  add\n  swap1\n  dup2\n  mstore\n  0x20\n  add\n  0x00\n  keccak256\n    /* \"contracts/4_Product.sol\":2246:2283  balances[msg.sender] = _initialSupply */\n  dup2\n  swap1\n  sstore\n  pop\n    /* \"contracts/4_Product.sol\":1978:2358  constructor (string memory _name, string memory _symbol, uint256 _initialSupply) {\r... */\n  pop\n  pop\n  pop\n    /* \"contracts/4_Product.sol\":35:10168  contract ProductSC {\r... */\n  jump(tag_9)\ntag_7:\n  dup3\n  dup1\n  sload\n  tag_10\n  swap1\n  tag_11\n  jump\t// in\ntag_10:\n  swap1\n  0x00\n  mstore\n  keccak256(0x00, 0x20)\n  swap1\n  0x1f\n  add\n  0x20\n  swap1\n  div\n  dup2\n  add\n  swap3\n  dup3\n  tag_13\n  jumpi\n  0x00\n  dup6\n  sstore\n  jump(tag_12)\ntag_13:\n  dup3\n  0x1f\n  lt\n  tag_14\n  jumpi\n  dup1\n  mload\n  not(0xff)\n  and\n  dup4\n  dup1\n  add\n  or\n  dup6\n  sstore\n  jump(tag_12)\ntag_14:\n  dup3\n  dup1\n  add\n  0x01\n  add\n  dup6\n  sstore\n  dup3\n  iszero\n  tag_12\n  jumpi\n  swap2\n  dup3\n  add\ntag_15:\n  dup3\n  dup2\n  gt\n  iszero\n  tag_16\n  jumpi\n  dup3\n  mload\n  dup3\n  sstore\n  swap2\n  0x20\n  add\n  swap2\n  swap1\n  0x01\n  add\n  swap1\n  jump(tag_15)\ntag_16:\ntag_12:\n  pop\n  swap1\n  pop\n  tag_17\n  swap2\n  swap1\n  tag_18\n  jump\t// in\ntag_17:\n  pop\n  swap1\n  jump\t// out\ntag_18:\ntag_19:\n  dup1\n  dup3\n  gt\n  iszero\n  tag_20\n  jumpi\n  0x00\n  dup2\n  0x00\n  swap1\n  sstore\n  pop\n  0x01\n  add\n  jump(tag_19)\ntag_20:\n  pop\n  swap1\n  jump\t// out\n    /* \"#utility.yul\":7:428   */\ntag_22:\n    /* \"#utility.yul\":96:101   */\n  0x00\n    /* \"#utility.yul\":121:187   */\n  tag_24\n    /* \"#utility.yul\":137:186   */\n  tag_25\n    /* \"#utility.yul\":179:185   */\n  dup5\n    /* \"#utility.yul\":137:186   */\n  tag_26\n  jump\t// in\ntag_25:\n    /* \"#utility.yul\":121:187   */\n  tag_27\n  jump\t// in\ntag_24:\n    /* \"#utility.yul\":112:187   */\n  swap1\n  pop\n    /* \"#utility.yul\":210:216   */\n  dup3\n    /* \"#utility.yul\":203:208   */\n  dup2\n    /* \"#utility.yul\":196:217   */\n  mstore\n    /* \"#utility.yul\":248:252   */\n  0x20\n    /* \"#utility.yul\":241:246   */\n  dup2\n    /* \"#utility.yul\":237:253   */\n  add\n    /* \"#utility.yul\":286:289   */\n  dup5\n    /* \"#utility.yul\":277:283   */\n  dup5\n    /* \"#utility.yul\":272:275   */\n  dup5\n    /* \"#utility.yul\":268:284   */\n  add\n    /* \"#utility.yul\":265:290   */\n  gt\n    /* \"#utility.yul\":262:374   */\n  iszero\n  tag_28\n  jumpi\n    /* \"#utility.yul\":293:372   */\n  tag_29\n  tag_30\n  jump\t// in\ntag_29:\n    /* \"#utility.yul\":262:374   */\ntag_28:\n    /* \"#utility.yul\":383:422   */\n  tag_31\n    /* \"#utility.yul\":415:421   */\n  dup5\n    /* \"#utility.yul\":410:413   */\n  dup3\n    /* \"#utility.yul\":405:408   */\n  dup6\n    /* \"#utility.yul\":383:422   */\n  tag_32\n  jump\t// in\ntag_31:\n    /* \"#utility.yul\":102:428   */\n  pop\n    /* \"#utility.yul\":7:428   */\n  swap4\n  swap3\n  pop\n  pop\n  pop\n  jump\t// out\n    /* \"#utility.yul\":448:803   */\ntag_33:\n    /* \"#utility.yul\":515:520   */\n  0x00\n    /* \"#utility.yul\":564:567   */\n  dup3\n    /* \"#utility.yul\":557:561   */\n  0x1f\n    /* \"#utility.yul\":549:555   */\n  dup4\n    /* \"#utility.yul\":545:562   */\n  add\n    /* \"#utility.yul\":541:568   */\n  slt\n    /* \"#utility.yul\":531:653   */\n  tag_35\n  jumpi\n    /* \"#utility.yul\":572:651   */\n  tag_36\n  tag_37\n  jump\t// in\ntag_36:\n    /* \"#utility.yul\":531:653   */\ntag_35:\n    /* \"#utility.yul\":682:688   */\n  dup2\n    /* \"#utility.yul\":676:689   */\n  mload\n    /* \"#utility.yul\":707:797   */\n  tag_38\n    /* \"#utility.yul\":793:796   */\n  dup5\n    /* \"#utility.yul\":785:791   */\n  dup3\n    /* \"#utility.yul\":778:782   */\n  0x20\n    /* \"#utility.yul\":770:776   */\n  dup7\n    /* \"#utility.yul\":766:783   */\n  add\n    /* \"#utility.yul\":707:797   */\n  tag_22\n  jump\t// in\ntag_38:\n    /* \"#utility.yul\":698:797   */\n  swap2\n  pop\n    /* \"#utility.yul\":521:803   */\n  pop\n    /* \"#utility.yul\":448:803   */\n  swap3\n  swap2\n  pop\n  pop\n  jump\t// out\n    /* \"#utility.yul\":809:952   */\ntag_39:\n    /* \"#utility.yul\":866:871   */\n  0x00\n    /* \"#utility.yul\":897:903   */\n  dup2\n    /* \"#utility.yul\":891:904   */\n  mload\n    /* \"#utility.yul\":882:904   */\n  swap1\n  pop\n    /* \"#utility.yul\":913:946   */\n  tag_41\n    /* \"#utility.yul\":940:945   */\n  dup2\n    /* \"#utility.yul\":913:946   */\n  tag_42\n  jump\t// in\ntag_41:\n    /* \"#utility.yul\":809:952   */\n  swap3\n  swap2\n  pop\n  pop\n  jump\t// out\n    /* \"#utility.yul\":958:1967   */\ntag_3:\n    /* \"#utility.yul\":1066:1072   */\n  0x00\n    /* \"#utility.yul\":1074:1080   */\n  dup1\n    /* \"#utility.yul\":1082:1088   */\n  0x00\n    /* \"#utility.yul\":1131:1133   */\n  0x60\n    /* \"#utility.yul\":1119:1128   */\n  dup5\n    /* \"#utility.yul\":1110:1117   */\n  dup7\n    /* \"#utility.yul\":1106:1129   */\n  sub\n    /* \"#utility.yul\":1102:1134   */\n  slt\n    /* \"#utility.yul\":1099:1218   */\n  iszero\n  tag_44\n  jumpi\n    /* \"#utility.yul\":1137:1216   */\n  tag_45\n  tag_46\n  jump\t// in\ntag_45:\n    /* \"#utility.yul\":1099:1218   */\ntag_44:\n    /* \"#utility.yul\":1278:1279   */\n  0x00\n    /* \"#utility.yul\":1267:1276   */\n  dup5\n    /* \"#utility.yul\":1263:1280   */\n  add\n    /* \"#utility.yul\":1257:1281   */\n  mload\n    /* \"#utility.yul\":1308:1326   */\n  0xffffffffffffffff\n    /* \"#utility.yul\":1300:1306   */\n  dup2\n    /* \"#utility.yul\":1297:1327   */\n  gt\n    /* \"#utility.yul\":1294:1411   */\n  iszero\n  tag_47\n  jumpi\n    /* \"#utility.yul\":1330:1409   */\n  tag_48\n  tag_49\n  jump\t// in\ntag_48:\n    /* \"#utility.yul\":1294:1411   */\ntag_47:\n    /* \"#utility.yul\":1435:1509   */\n  tag_50\n    /* \"#utility.yul\":1501:1508   */\n  dup7\n    /* \"#utility.yul\":1492:1498   */\n  dup3\n    /* \"#utility.yul\":1481:1490   */\n  dup8\n    /* \"#utility.yul\":1477:1499   */\n  add\n    /* \"#utility.yul\":1435:1509   */\n  tag_33\n  jump\t// in\ntag_50:\n    /* \"#utility.yul\":1425:1509   */\n  swap4\n  pop\n    /* \"#utility.yul\":1228:1519   */\n  pop\n    /* \"#utility.yul\":1579:1581   */\n  0x20\n    /* \"#utility.yul\":1568:1577   */\n  dup5\n    /* \"#utility.yul\":1564:1582   */\n  add\n    /* \"#utility.yul\":1558:1583   */\n  mload\n    /* \"#utility.yul\":1610:1628   */\n  0xffffffffffffffff\n    /* \"#utility.yul\":1602:1608   */\n  dup2\n    /* \"#utility.yul\":1599:1629   */\n  gt\n    /* \"#utility.yul\":1596:1713   */\n  iszero\n  tag_51\n  jumpi\n    /* \"#utility.yul\":1632:1711   */\n  tag_52\n  tag_49\n  jump\t// in\ntag_52:\n    /* \"#utility.yul\":1596:1713   */\ntag_51:\n    /* \"#utility.yul\":1737:1811   */\n  tag_53\n    /* \"#utility.yul\":1803:1810   */\n  dup7\n    /* \"#utility.yul\":1794:1800   */\n  dup3\n    /* \"#utility.yul\":1783:1792   */\n  dup8\n    /* \"#utility.yul\":1779:1801   */\n  add\n    /* \"#utility.yul\":1737:1811   */\n  tag_33\n  jump\t// in\ntag_53:\n    /* \"#utility.yul\":1727:1811   */\n  swap3\n  pop\n    /* \"#utility.yul\":1529:1821   */\n  pop\n    /* \"#utility.yul\":1860:1862   */\n  0x40\n    /* \"#utility.yul\":1886:1950   */\n  tag_54\n    /* \"#utility.yul\":1942:1949   */\n  dup7\n    /* \"#utility.yul\":1933:1939   */\n  dup3\n    /* \"#utility.yul\":1922:1931   */\n  dup8\n    /* \"#utility.yul\":1918:1940   */\n  add\n    /* \"#utility.yul\":1886:1950   */\n  tag_39\n  jump\t// in\ntag_54:\n    /* \"#utility.yul\":1876:1950   */\n  swap2\n  pop\n    /* \"#utility.yul\":1831:1960   */\n  pop\n    /* \"#utility.yul\":958:1967   */\n  swap3\n  pop\n  swap3\n  pop\n  swap3\n  jump\t// out\n    /* \"#utility.yul\":1973:2102   */\ntag_27:\n    /* \"#utility.yul\":2007:2013   */\n  0x00\n    /* \"#utility.yul\":2034:2054   */\n  tag_56\n  tag_57\n  jump\t// in\ntag_56:\n    /* \"#utility.yul\":2024:2054   */\n  swap1\n  pop\n    /* \"#utility.yul\":2063:2096   */\n  tag_58\n    /* \"#utility.yul\":2091:2095   */\n  dup3\n    /* \"#utility.yul\":2083:2089   */\n  dup3\n    /* \"#utility.yul\":2063:2096   */\n  tag_59\n  jump\t// in\ntag_58:\n    /* \"#utility.yul\":1973:2102   */\n  swap2\n  swap1\n  pop\n  jump\t// out\n    /* \"#utility.yul\":2108:2183   */\ntag_57:\n    /* \"#utility.yul\":2141:2147   */\n  0x00\n    /* \"#utility.yul\":2174:2176   */\n  0x40\n    /* \"#utility.yul\":2168:2177   */\n  mload\n    /* \"#utility.yul\":2158:2177   */\n  swap1\n  pop\n    /* \"#utility.yul\":2108:2183   */\n  swap1\n  jump\t// out\n    /* \"#utility.yul\":2189:2497   */\ntag_26:\n    /* \"#utility.yul\":2251:2255   */\n  0x00\n    /* \"#utility.yul\":2341:2359   */\n  0xffffffffffffffff\n    /* \"#utility.yul\":2333:2339   */\n  dup3\n    /* \"#utility.yul\":2330:2360   */\n  gt\n    /* \"#utility.yul\":2327:2383   */\n  iszero\n  tag_62\n  jumpi\n    /* \"#utility.yul\":2363:2381   */\n  tag_63\n  tag_64\n  jump\t// in\ntag_63:\n    /* \"#utility.yul\":2327:2383   */\ntag_62:\n    /* \"#utility.yul\":2401:2430   */\n  tag_65\n    /* \"#utility.yul\":2423:2429   */\n  dup3\n    /* \"#utility.yul\":2401:2430   */\n  tag_66\n  jump\t// in\ntag_65:\n    /* \"#utility.yul\":2393:2430   */\n  swap1\n  pop\n    /* \"#utility.yul\":2485:2489   */\n  0x20\n    /* \"#utility.yul\":2479:2483   */\n  dup2\n    /* \"#utility.yul\":2475:2490   */\n  add\n    /* \"#utility.yul\":2467:2490   */\n  swap1\n  pop\n    /* \"#utility.yul\":2189:2497   */\n  swap2\n  swap1\n  pop\n  jump\t// out\n    /* \"#utility.yul\":2503:2580   */\ntag_67:\n    /* \"#utility.yul\":2540:2547   */\n  0x00\n    /* \"#utility.yul\":2569:2574   */\n  dup2\n    /* \"#utility.yul\":2558:2574   */\n  swap1\n  pop\n    /* \"#utility.yul\":2503:2580   */\n  swap2\n  swap1\n  pop\n  jump\t// out\n    /* \"#utility.yul\":2586:2893   */\ntag_32:\n    /* \"#utility.yul\":2654:2655   */\n  0x00\n    /* \"#utility.yul\":2664:2777   */\ntag_70:\n    /* \"#utility.yul\":2678:2684   */\n  dup4\n    /* \"#utility.yul\":2675:2676   */\n  dup2\n    /* \"#utility.yul\":2672:2685   */\n  lt\n    /* \"#utility.yul\":2664:2777   */\n  iszero\n  tag_72\n  jumpi\n    /* \"#utility.yul\":2763:2764   */\n  dup1\n    /* \"#utility.yul\":2758:2761   */\n  dup3\n    /* \"#utility.yul\":2754:2765   */\n  add\n    /* \"#utility.yul\":2748:2766   */\n  mload\n    /* \"#utility.yul\":2744:2745   */\n  dup2\n    /* \"#utility.yul\":2739:2742   */\n  dup5\n    /* \"#utility.yul\":2735:2746   */\n  add\n    /* \"#utility.yul\":2728:2767   */\n  mstore\n    /* \"#utility.yul\":2700:2702   */\n  0x20\n    /* \"#utility.yul\":2697:2698   */\n  dup2\n    /* \"#utility.yul\":2693:2703   */\n  add\n    /* \"#utility.yul\":2688:2703   */\n  swap1\n  pop\n    /* \"#utility.yul\":2664:2777   */\n  jump(tag_70)\ntag_72:\n    /* \"#utility.yul\":2795:2801   */\n  dup4\n    /* \"#utility.yul\":2792:2793   */\n  dup2\n    /* \"#utility.yul\":2789:2802   */\n  gt\n    /* \"#utility.yul\":2786:2887   */\n  iszero\n  tag_73\n  jumpi\n    /* \"#utility.yul\":2875:2876   */\n  0x00\n    /* \"#utility.yul\":2866:2872   */\n  dup5\n    /* \"#utility.yul\":2861:2864   */\n  dup5\n    /* \"#utility.yul\":2857:2873   */\n  add\n    /* \"#utility.yul\":2850:2877   */\n  mstore\n    /* \"#utility.yul\":2786:2887   */\ntag_73:\n    /* \"#utility.yul\":2635:2893   */\n  pop\n    /* \"#utility.yul\":2586:2893   */\n  pop\n  pop\n  pop\n  jump\t// out\n    /* \"#utility.yul\":2899:3219   */\ntag_11:\n    /* \"#utility.yul\":2943:2949   */\n  0x00\n    /* \"#utility.yul\":2980:2981   */\n  0x02\n    /* \"#utility.yul\":2974:2978   */\n  dup3\n    /* \"#utility.yul\":2970:2982   */\n  div\n    /* \"#utility.yul\":2960:2982   */\n  swap1\n  pop\n    /* \"#utility.yul\":3027:3028   */\n  0x01\n    /* \"#utility.yul\":3021:3025   */\n  dup3\n    /* \"#utility.yul\":3017:3029   */\n  and\n    /* \"#utility.yul\":3048:3066   */\n  dup1\n    /* \"#utility.yul\":3038:3119   */\n  tag_75\n  jumpi\n    /* \"#utility.yul\":3104:3108   */\n  0x7f\n    /* \"#utility.yul\":3096:3102   */\n  dup3\n    /* \"#utility.yul\":3092:3109   */\n  and\n    /* \"#utility.yul\":3082:3109   */\n  swap2\n  pop\n    /* \"#utility.yul\":3038:3119   */\ntag_75:\n    /* \"#utility.yul\":3166:3168   */\n  0x20\n    /* \"#utility.yul\":3158:3164   */\n  dup3\n    /* \"#utility.yul\":3155:3169   */\n  lt\n    /* \"#utility.yul\":3135:3153   */\n  dup2\n    /* \"#utility.yul\":3132:3170   */\n  eq\n    /* \"#utility.yul\":3129:3213   */\n  iszero\n  tag_76\n  jumpi\n    /* \"#utility.yul\":3185:3203   */\n  tag_77\n  tag_78\n  jump\t// in\ntag_77:\n    /* \"#utility.yul\":3129:3213   */\ntag_76:\n    /* \"#utility.yul\":2950:3219   */\n  pop\n    /* \"#utility.yul\":2899:3219   */\n  swap2\n  swap1\n  pop\n  jump\t// out\n    /* \"#utility.yul\":3225:3506   */\ntag_59:\n    /* \"#utility.yul\":3308:3335   */\n  tag_80\n    /* \"#utility.yul\":3330:3334   */\n  dup3\n    /* \"#utility.yul\":3308:3335   */\n  tag_66\n  jump\t// in\ntag_80:\n    /* \"#utility.yul\":3300:3306   */\n  dup2\n    /* \"#utility.yul\":3296:3336   */\n  add\n    /* \"#utility.yul\":3438:3444   */\n  dup2\n    /* \"#utility.yul\":3426:3436   */\n  dup2\n    /* \"#utility.yul\":3423:3445   */\n  lt\n    /* \"#utility.yul\":3402:3420   */\n  0xffffffffffffffff\n    /* \"#utility.yul\":3390:3400   */\n  dup3\n    /* \"#utility.yul\":3387:3421   */\n  gt\n    /* \"#utility.yul\":3384:3446   */\n  or\n    /* \"#utility.yul\":3381:3469   */\n  iszero\n  tag_81\n  jumpi\n    /* \"#utility.yul\":3449:3467   */\n  tag_82\n  tag_64\n  jump\t// in\ntag_82:\n    /* \"#utility.yul\":3381:3469   */\ntag_81:\n    /* \"#utility.yul\":3489:3499   */\n  dup1\n    /* \"#utility.yul\":3485:3487   */\n  0x40\n    /* \"#utility.yul\":3478:3500   */\n  mstore\n    /* \"#utility.yul\":3268:3506   */\n  pop\n    /* \"#utility.yul\":3225:3506   */\n  pop\n  pop\n  jump\t// out\n    /* \"#utility.yul\":3512:3692   */\ntag_78:\n    /* \"#utility.yul\":3560:3637   */\n  0x4e487b7100000000000000000000000000000000000000000000000000000000\n    /* \"#utility.yul\":3557:3558   */\n  0x00\n    /* \"#utility.yul\":3550:3638   */\n  mstore\n    /* \"#utility.yul\":3657:3661   */\n  0x22\n    /* \"#utility.yul\":3654:3655   */\n  0x04\n    /* \"#utility.yul\":3647:3662   */\n  mstore\n    /* \"#utility.yul\":3681:3685   */\n  0x24\n    /* \"#utility.yul\":3678:3679   */\n  0x00\n    /* \"#utility.yul\":3671:3686   */\n  revert\n    /* \"#utility.yul\":3698:3878   */\ntag_64:\n    /* \"#utility.yul\":3746:3823   */\n  0x4e487b7100000000000000000000000000000000000000000000000000000000\n    /* \"#utility.yul\":3743:3744   */\n  0x00\n    /* \"#utility.yul\":3736:3824   */\n  mstore\n    /* \"#utility.yul\":3843:3847   */\n  0x41\n    /* \"#utility.yul\":3840:3841   */\n  0x04\n    /* \"#utility.yul\":3833:3848   */\n  mstore\n    /* \"#utility.yul\":3867:3871   */\n  0x24\n    /* \"#utility.yul\":3864:3865   */\n  0x00\n    /* \"#utility.yul\":3857:3872   */\n  revert\n    /* \"#utility.yul\":3884:4001   */\ntag_37:\n    /* \"#utility.yul\":3993:3994   */\n  0x00\n    /* \"#utility.yul\":3990:3991   */\n  dup1\n    /* \"#utility.yul\":3983:3995   */\n  revert\n    /* \"#utility.yul\":4007:4124   */\ntag_30:\n    /* \"#utility.yul\":4116:4117   */\n  0x00\n    /* \"#utility.yul\":4113:4114   */\n  dup1\n    /* \"#utility.yul\":4106:4118   */\n  revert\n    /* \"#utility.yul\":4130:4247   */\ntag_49:\n    /* \"#utility.yul\":4239:4240   */\n  0x00\n    /* \"#utility.yul\":4236:4237   */\n  dup1\n    /* \"#utility.yul\":4229:4241   */\n  revert\n    /* \"#utility.yul\":4253:4370   */\ntag_46:\n    /* \"#utility.yul\":4362:4363   */\n  0x00\n    /* \"#utility.yul\":4359:4360   */\n  dup1\n    /* \"#utility.yul\":4352:4364   */\n  revert\n    /* \"#utility.yul\":4376:4478   */\ntag_66:\n    /* \"#utility.yul\":4417:4423   */\n  0x00\n    /* \"#utility.yul\":4468:4470   */\n  0x1f\n    /* \"#utility.yul\":4464:4471   */\n  not\n    /* \"#utility.yul\":4459:4461   */\n  0x1f\n    /* \"#utility.yul\":4452:4457   */\n  dup4\n    /* \"#utility.yul\":4448:4462   */\n  add\n    /* \"#utility.yul\":4444:4472   */\n  and\n    /* \"#utility.yul\":4434:4472   */\n  swap1\n  pop\n    /* \"#utility.yul\":4376:4478   */\n  swap2\n  swap1\n  pop\n  jump\t// out\n    /* \"#utility.yul\":4484:4606   */\ntag_42:\n    /* \"#utility.yul\":4557:4581   */\n  tag_91\n    /* \"#utility.yul\":4575:4580   */\n  dup2\n    /* \"#utility.yul\":4557:4581   */\n  tag_67\n  jump\t// in\ntag_91:\n    /* \"#utility.yul\":4550:4555   */\n  dup2\n    /* \"#utility.yul\":4547:4582   */\n  eq\n    /* \"#utility.yul\":4537:4600   */\n  tag_92\n  jumpi\n    /* \"#utility.yul\":4596:4597   */\n  0x00\n    /* \"#utility.yul\":4593:4594   */\n  dup1\n    /* \"#utility.yul\":4586:4598   */\n  revert\n    /* \"#utility.yul\":4537:4600   */\ntag_92:\n    /* \"#utility.yul\":4484:4606   */\n  pop\n  jump\t// out\n    /* \"contracts/4_Product.sol\":35:10168  contract ProductSC {\r... */\ntag_9:\n  dataSize(sub_0)\n  dup1\n  dataOffset(sub_0)\n  0x00\n  codecopy\n  0x00\n  return\nstop\n\nsub_0: assembly {\n        /* \"contracts/4_Product.sol\":35:10168  contract ProductSC {\r... */\n      mstore(0x40, 0x80)\n      jumpi(tag_1, lt(calldatasize, 0x04))\n      shr(0xe0, calldataload(0x00))\n      dup1\n      0xa0712d68\n      gt\n      tag_14\n      jumpi\n      dup1\n      0xa0712d68\n      eq\n      tag_8\n      jumpi\n      dup1\n      0xa3e67610\n      eq\n      tag_9\n      jumpi\n      dup1\n      0xa4821719\n      eq\n      tag_10\n      jumpi\n      dup1\n      0xb292abf1\n      eq\n      tag_11\n      jumpi\n      dup1\n      0xcd0c5896\n      eq\n      tag_12\n      jumpi\n      dup1\n      0xeedc966a\n      eq\n      tag_13\n      jumpi\n      jump(tag_1)\n    tag_14:\n      dup1\n      0x01f8938c\n      eq\n      tag_2\n      jumpi\n      dup1\n      0x06fdde03\n      eq\n      tag_3\n      jumpi\n      dup1\n      0x40932fc2\n      eq\n      tag_4\n      jumpi\n      dup1\n      0x68cdafe6\n      eq\n      tag_5\n      jumpi\n      dup1\n      0x95d89b41\n      eq\n      tag_6\n      jumpi\n      dup1\n      0x9dc29fac\n      eq\n      tag_7\n      jumpi\n    tag_1:\n      0x00\n      dup1\n      revert\n        /* \"contracts/4_Product.sol\":5959:6781  function produceProduct(uint256 _id, uint256 _timestamp, string memory _origin, string memory _lat, string memory _log, int256 _temp, uint256 _price) public OnlyProducer{\r... */\n    tag_2:\n      callvalue\n      dup1\n      iszero\n      tag_15\n      jumpi\n      0x00\n      dup1\n      revert\n    tag_15:\n      pop\n      tag_16\n      0x04\n      dup1\n      calldatasize\n      sub\n      dup2\n      add\n      swap1\n      tag_17\n      swap2\n      swap1\n      tag_18\n      jump\t// in\n    tag_17:\n      tag_19\n      jump\t// in\n    tag_16:\n      stop\n        /* \"contracts/4_Product.sol\":67:85  string public name */\n    tag_3:\n      callvalue\n      dup1\n      iszero\n      tag_20\n      jumpi\n      0x00\n      dup1\n      revert\n    tag_20:\n      pop\n      tag_21\n      tag_22\n      jump\t// in\n    tag_21:\n      mload(0x40)\n      tag_23\n      swap2\n      swap1\n      tag_24\n      jump\t// in\n    tag_23:\n      mload(0x40)\n      dup1\n      swap2\n      sub\n      swap1\n      return\n        /* \"contracts/4_Product.sol\":5688:5947  function register(address _addr, Role _role, string memory _name) public {\r... */\n    tag_4:\n      callvalue\n      dup1\n      iszero\n      tag_25\n      jumpi\n      0x00\n      dup1\n      revert\n    tag_25:\n      pop\n      tag_26\n      0x04\n      dup1\n      calldatasize\n      sub\n      dup2\n      add\n      swap1\n      tag_27\n      swap2\n      swap1\n      tag_28\n      jump\t// in\n    tag_27:\n      tag_29\n      jump\t// in\n    tag_26:\n      stop\n        /* \"contracts/4_Product.sol\":5320:5676  function tokenTransfer(address _to, uint256 _amount) public returns (bool) {\r... */\n    tag_5:\n      callvalue\n      dup1\n      iszero\n      tag_30\n      jumpi\n      0x00\n      dup1\n      revert\n    tag_30:\n      pop\n      tag_31\n      0x04\n      dup1\n      calldatasize\n      sub\n      dup2\n      add\n      swap1\n      tag_32\n      swap2\n      swap1\n      tag_33\n      jump\t// in\n    tag_32:\n      tag_34\n      jump\t// in\n    tag_31:\n      mload(0x40)\n      tag_35\n      swap2\n      swap1\n      tag_36\n      jump\t// in\n    tag_35:\n      mload(0x40)\n      dup1\n      swap2\n      sub\n      swap1\n      return\n        /* \"contracts/4_Product.sol\":114:134  string public symbol */\n    tag_6:\n      callvalue\n      dup1\n      iszero\n      tag_37\n      jumpi\n      0x00\n      dup1\n      revert\n    tag_37:\n      pop\n      tag_38\n      tag_39\n      jump\t// in\n    tag_38:\n      mload(0x40)\n      tag_40\n      swap2\n      swap1\n      tag_24\n      jump\t// in\n    tag_40:\n      mload(0x40)\n      dup1\n      swap2\n      sub\n      swap1\n      return\n        /* \"contracts/4_Product.sol\":4274:4691  function burn(address _account, uint256 _amount) public OnlyTokenOwner {\r... */\n    tag_7:\n      callvalue\n      dup1\n      iszero\n      tag_41\n      jumpi\n      0x00\n      dup1\n      revert\n    tag_41:\n      pop\n      tag_42\n      0x04\n      dup1\n      calldatasize\n      sub\n      dup2\n      add\n      swap1\n      tag_43\n      swap2\n      swap1\n      tag_33\n      jump\t// in\n    tag_43:\n      tag_44\n      jump\t// in\n    tag_42:\n      stop\n        /* \"contracts/4_Product.sol\":3895:4117  function mint(uint256 _amount) public OnlyTokenOwner {\r... */\n    tag_8:\n      callvalue\n      dup1\n      iszero\n      tag_45\n      jumpi\n      0x00\n      dup1\n      revert\n    tag_45:\n      pop\n      tag_46\n      0x04\n      dup1\n      calldatasize\n      sub\n      dup2\n      add\n      swap1\n      tag_47\n      swap2\n      swap1\n      tag_48\n      jump\t// in\n    tag_47:\n      tag_49\n      jump\t// in\n    tag_46:\n      stop\n        /* \"contracts/4_Product.sol\":165:199  address payable public  tokenOwner */\n    tag_9:\n      callvalue\n      dup1\n      iszero\n      tag_50\n      jumpi\n      0x00\n      dup1\n      revert\n    tag_50:\n      pop\n      tag_51\n      tag_52\n      jump\t// in\n    tag_51:\n      mload(0x40)\n      tag_53\n      swap2\n      swap1\n      tag_54\n      jump\t// in\n    tag_53:\n      mload(0x40)\n      dup1\n      swap2\n      sub\n      swap1\n      return\n        /* \"contracts/4_Product.sol\":4749:5246  function buyToken() public payable {\r... */\n    tag_10:\n      tag_55\n      tag_56\n      jump\t// in\n    tag_55:\n      stop\n        /* \"contracts/4_Product.sol\":9987:10163  function getActorInfo(address _addr) public view returns\r... */\n    tag_11:\n      callvalue\n      dup1\n      iszero\n      tag_57\n      jumpi\n      0x00\n      dup1\n      revert\n    tag_57:\n      pop\n      tag_58\n      0x04\n      dup1\n      calldatasize\n      sub\n      dup2\n      add\n      swap1\n      tag_59\n      swap2\n      swap1\n      tag_60\n      jump\t// in\n    tag_59:\n      tag_61\n      jump\t// in\n    tag_58:\n      mload(0x40)\n      tag_62\n      swap3\n      swap2\n      swap1\n      tag_63\n      jump\t// in\n    tag_62:\n      mload(0x40)\n      dup1\n      swap2\n      sub\n      swap1\n      return\n        /* \"contracts/4_Product.sol\":3673:3779  function etherBalance(address _addr) public view returns (uint256) {\r... */\n    tag_12:\n      callvalue\n      dup1\n      iszero\n      tag_64\n      jumpi\n      0x00\n      dup1\n      revert\n    tag_64:\n      pop\n      tag_65\n      0x04\n      dup1\n      calldatasize\n      sub\n      dup2\n      add\n      swap1\n      tag_66\n      swap2\n      swap1\n      tag_60\n      jump\t// in\n    tag_66:\n      tag_67\n      jump\t// in\n    tag_65:\n      mload(0x40)\n      tag_68\n      swap2\n      swap1\n      tag_69\n      jump\t// in\n    tag_68:\n      mload(0x40)\n      dup1\n      swap2\n      sub\n      swap1\n      return\n        /* \"contracts/4_Product.sol\":3499:3607  function tokenBalance(address _addr) public view returns (uint256) {\r... */\n    tag_13:\n      callvalue\n      dup1\n      iszero\n      tag_70\n      jumpi\n      0x00\n      dup1\n      revert\n    tag_70:\n      pop\n      tag_71\n      0x04\n      dup1\n      calldatasize\n      sub\n      dup2\n      add\n      swap1\n      tag_72\n      swap2\n      swap1\n      tag_60\n      jump\t// in\n    tag_72:\n      tag_73\n      jump\t// in\n    tag_71:\n      mload(0x40)\n      tag_74\n      swap2\n      swap1\n      tag_69\n      jump\t// in\n    tag_74:\n      mload(0x40)\n      dup1\n      swap2\n      sub\n      swap1\n      return\n        /* \"contracts/4_Product.sol\":5959:6781  function produceProduct(uint256 _id, uint256 _timestamp, string memory _origin, string memory _lat, string memory _log, int256 _temp, uint256 _price) public OnlyProducer{\r... */\n    tag_19:\n        /* \"contracts/4_Product.sol\":2641:2654  Role.Producer */\n      0x00\n        /* \"contracts/4_Product.sol\":2614:2654  actors[msg.sender].role == Role.Producer */\n      0x04\n      dup2\n      gt\n      iszero\n      tag_76\n      jumpi\n      tag_77\n      tag_78\n      jump\t// in\n    tag_77:\n    tag_76:\n        /* \"contracts/4_Product.sol\":2614:2620  actors */\n      0x05\n        /* \"contracts/4_Product.sol\":2614:2632  actors[msg.sender] */\n      0x00\n        /* \"contracts/4_Product.sol\":2621:2631  msg.sender */\n      caller\n        /* \"contracts/4_Product.sol\":2614:2632  actors[msg.sender] */\n      0xffffffffffffffffffffffffffffffffffffffff\n      and\n      0xffffffffffffffffffffffffffffffffffffffff\n      and\n      dup2\n      mstore\n      0x20\n      add\n      swap1\n      dup2\n      mstore\n      0x20\n      add\n      0x00\n      keccak256\n        /* \"contracts/4_Product.sol\":2614:2637  actors[msg.sender].role */\n      0x00\n      add\n      0x00\n      swap1\n      sload\n      swap1\n      0x0100\n      exp\n      swap1\n      div\n      0xff\n      and\n        /* \"contracts/4_Product.sol\":2614:2654  actors[msg.sender].role == Role.Producer */\n      0x04\n      dup2\n      gt\n      iszero\n      tag_79\n      jumpi\n      tag_80\n      tag_78\n      jump\t// in\n    tag_80:\n    tag_79:\n      eq\n        /* \"contracts/4_Product.sol\":2606:2683  require(actors[msg.sender].role == Role.Producer,'caller is not a producer.') */\n      tag_81\n      jumpi\n      mload(0x40)\n      0x08c379a000000000000000000000000000000000000000000000000000000000\n      dup2\n      mstore\n      0x04\n      add\n      tag_82\n      swap1\n      tag_83\n      jump\t// in\n    tag_82:\n      mload(0x40)\n      dup1\n      swap2\n      sub\n      swap1\n      revert\n    tag_81:\n        /* \"contracts/4_Product.sol\":6139:6165  Product storage newProduct */\n      0x00\n        /* \"contracts/4_Product.sol\":6168:6175  product */\n      0x06\n        /* \"contracts/4_Product.sol\":6168:6180  product[_id] */\n      0x00\n        /* \"contracts/4_Product.sol\":6176:6179  _id */\n      dup10\n        /* \"contracts/4_Product.sol\":6168:6180  product[_id] */\n      dup2\n      mstore\n      0x20\n      add\n      swap1\n      dup2\n      mstore\n      0x20\n      add\n      0x00\n      keccak256\n        /* \"contracts/4_Product.sol\":6139:6180  Product storage newProduct = product[_id] */\n      swap1\n      pop\n        /* \"contracts/4_Product.sol\":6207:6210  _id */\n      dup8\n        /* \"contracts/4_Product.sol\":6191:6201  newProduct */\n      dup2\n        /* \"contracts/4_Product.sol\":6191:6204  newProduct.ID */\n      0x00\n      add\n        /* \"contracts/4_Product.sol\":6191:6210  newProduct.ID = _id */\n      dup2\n      swap1\n      sstore\n      pop\n        /* \"contracts/4_Product.sol\":6242:6252  msg.sender */\n      caller\n        /* \"contracts/4_Product.sol\":6221:6231  newProduct */\n      dup2\n        /* \"contracts/4_Product.sol\":6221:6239  newProduct.ownerID */\n      0x01\n      add\n      0x00\n        /* \"contracts/4_Product.sol\":6221:6252  newProduct.ownerID = msg.sender */\n      0x0100\n      exp\n      dup2\n      sload\n      dup2\n      0xffffffffffffffffffffffffffffffffffffffff\n      mul\n      not\n      and\n      swap1\n      dup4\n      0xffffffffffffffffffffffffffffffffffffffff\n      and\n      mul\n      or\n      swap1\n      sstore\n      pop\n        /* \"contracts/4_Product.sol\":6289:6299  msg.sender */\n      caller\n        /* \"contracts/4_Product.sol\":6265:6275  newProduct */\n      dup2\n        /* \"contracts/4_Product.sol\":6265:6286  newProduct.producerID */\n      0x02\n      add\n      0x00\n        /* \"contracts/4_Product.sol\":6265:6299  newProduct.producerID = msg.sender */\n      0x0100\n      exp\n      dup2\n      sload\n      dup2\n      0xffffffffffffffffffffffffffffffffffffffff\n      mul\n      not\n      and\n      swap1\n      dup4\n      0xffffffffffffffffffffffffffffffffffffffff\n      and\n      mul\n      or\n      swap1\n      sstore\n      pop\n        /* \"contracts/4_Product.sol\":6128:6781  {\r... */\n      pop\n        /* \"contracts/4_Product.sol\":5959:6781  function produceProduct(uint256 _id, uint256 _timestamp, string memory _origin, string memory _lat, string memory _log, int256 _temp, uint256 _price) public OnlyProducer{\r... */\n      pop\n      pop\n      pop\n      pop\n      pop\n      pop\n      pop\n      jump\t// out\n        /* \"contracts/4_Product.sol\":67:85  string public name */\n    tag_22:\n      0x00\n      dup1\n      sload\n      tag_85\n      swap1\n      tag_86\n      jump\t// in\n    tag_85:\n      dup1\n      0x1f\n      add\n      0x20\n      dup1\n      swap2\n      div\n      mul\n      0x20\n      add\n      mload(0x40)\n      swap1\n      dup2\n      add\n      0x40\n      mstore\n      dup1\n      swap3\n      swap2\n      swap1\n      dup2\n      dup2\n      mstore\n      0x20\n      add\n      dup3\n      dup1\n      sload\n      tag_87\n      swap1\n      tag_86\n      jump\t// in\n    tag_87:\n      dup1\n      iszero\n      tag_88\n      jumpi\n      dup1\n      0x1f\n      lt\n      tag_89\n      jumpi\n      0x0100\n      dup1\n      dup4\n      sload\n      div\n      mul\n      dup4\n      mstore\n      swap2\n      0x20\n      add\n      swap2\n      jump(tag_88)\n    tag_89:\n      dup3\n      add\n      swap2\n      swap1\n      0x00\n      mstore\n      keccak256(0x00, 0x20)\n      swap1\n    tag_90:\n      dup2\n      sload\n      dup2\n      mstore\n      swap1\n      0x01\n      add\n      swap1\n      0x20\n      add\n      dup1\n      dup4\n      gt\n      tag_90\n      jumpi\n      dup3\n      swap1\n      sub\n      0x1f\n      and\n      dup3\n      add\n      swap2\n    tag_88:\n      pop\n      pop\n      pop\n      pop\n      pop\n      dup2\n      jump\t// out\n        /* \"contracts/4_Product.sol\":5688:5947  function register(address _addr, Role _role, string memory _name) public {\r... */\n    tag_29:\n        /* \"contracts/4_Product.sol\":5772:5790  Actor memory actor */\n      0x00\n        /* \"contracts/4_Product.sol\":5793:5799  actors */\n      0x05\n        /* \"contracts/4_Product.sol\":5793:5806  actors[_addr] */\n      0x00\n        /* \"contracts/4_Product.sol\":5800:5805  _addr */\n      dup6\n        /* \"contracts/4_Product.sol\":5793:5806  actors[_addr] */\n      0xffffffffffffffffffffffffffffffffffffffff\n      and\n      0xffffffffffffffffffffffffffffffffffffffff\n      and\n      dup2\n      mstore\n      0x20\n      add\n      swap1\n      dup2\n      mstore\n      0x20\n      add\n      0x00\n      keccak256\n        /* \"contracts/4_Product.sol\":5772:5806  Actor memory actor = actors[_addr] */\n      mload(0x40)\n      dup1\n      0x60\n      add\n      0x40\n      mstore\n      swap1\n      dup2\n      0x00\n      dup3\n      add\n      0x00\n      swap1\n      sload\n      swap1\n      0x0100\n      exp\n      swap1\n      div\n      0xff\n      and\n      0x04\n      dup2\n      gt\n      iszero\n      tag_92\n      jumpi\n      tag_93\n      tag_78\n      jump\t// in\n    tag_93:\n    tag_92:\n      0x04\n      dup2\n      gt\n      iszero\n      tag_94\n      jumpi\n      tag_95\n      tag_78\n      jump\t// in\n    tag_95:\n    tag_94:\n      dup2\n      mstore\n      0x20\n      add\n      0x01\n      dup3\n      add\n      dup1\n      sload\n      tag_96\n      swap1\n      tag_86\n      jump\t// in\n    tag_96:\n      dup1\n      0x1f\n      add\n      0x20\n      dup1\n      swap2\n      div\n      mul\n      0x20\n      add\n      mload(0x40)\n      swap1\n      dup2\n      add\n      0x40\n      mstore\n      dup1\n      swap3\n      swap2\n      swap1\n      dup2\n      dup2\n      mstore\n      0x20\n      add\n      dup3\n      dup1\n      sload\n      tag_97\n      swap1\n      tag_86\n      jump\t// in\n    tag_97:\n      dup1\n      iszero\n      tag_98\n      jumpi\n      dup1\n      0x1f\n      lt\n      tag_99\n      jumpi\n      0x0100\n      dup1\n      dup4\n      sload\n      div\n      mul\n      dup4\n      mstore\n      swap2\n      0x20\n      add\n      swap2\n      jump(tag_98)\n    tag_99:\n      dup3\n      add\n      swap2\n      swap1\n      0x00\n      mstore\n      keccak256(0x00, 0x20)\n      swap1\n    tag_100:\n      dup2\n      sload\n      dup2\n      mstore\n      swap1\n      0x01\n      add\n      swap1\n      0x20\n      add\n      dup1\n      dup4\n      gt\n      tag_100\n      jumpi\n      dup3\n      swap1\n      sub\n      0x1f\n      and\n      dup3\n      add\n      swap2\n    tag_98:\n      pop\n      pop\n      pop\n      pop\n      pop\n      dup2\n      mstore\n      0x20\n      add\n      0x02\n      dup3\n      add\n      0x00\n      swap1\n      sload\n      swap1\n      0x0100\n      exp\n      swap1\n      div\n      0xff\n      and\n      iszero\n      iszero\n      iszero\n      iszero\n      dup2\n      mstore\n      pop\n      pop\n      swap1\n      pop\n        /* \"contracts/4_Product.sol\":5830:5835  _role */\n      dup3\n        /* \"contracts/4_Product.sol\":5817:5822  actor */\n      dup2\n        /* \"contracts/4_Product.sol\":5817:5827  actor.role */\n      0x00\n      add\n        /* \"contracts/4_Product.sol\":5817:5835  actor.role = _role */\n      swap1\n      0x04\n      dup2\n      gt\n      iszero\n      tag_101\n      jumpi\n      tag_102\n      tag_78\n      jump\t// in\n    tag_102:\n    tag_101:\n      swap1\n      dup2\n      0x04\n      dup2\n      gt\n      iszero\n      tag_103\n      jumpi\n      tag_104\n      tag_78\n      jump\t// in\n    tag_104:\n    tag_103:\n      dup2\n      mstore\n      pop\n      pop\n        /* \"contracts/4_Product.sol\":5859:5864  _name */\n      dup2\n        /* \"contracts/4_Product.sol\":5846:5851  actor */\n      dup2\n        /* \"contracts/4_Product.sol\":5846:5856  actor.name */\n      0x20\n      add\n        /* \"contracts/4_Product.sol\":5846:5864  actor.name = _name */\n      dup2\n      swap1\n      mstore\n      pop\n        /* \"contracts/4_Product.sol\":5893:5897  true */\n      0x01\n        /* \"contracts/4_Product.sol\":5875:5880  actor */\n      dup2\n        /* \"contracts/4_Product.sol\":5875:5890  actor.isDefined */\n      0x40\n      add\n        /* \"contracts/4_Product.sol\":5875:5897  actor.isDefined = true */\n      swap1\n      iszero\n      iszero\n      swap1\n      dup2\n      iszero\n      iszero\n      dup2\n      mstore\n      pop\n      pop\n        /* \"contracts/4_Product.sol\":5924:5929  actor */\n      dup1\n        /* \"contracts/4_Product.sol\":5908:5914  actors */\n      0x05\n        /* \"contracts/4_Product.sol\":5908:5921  actors[_addr] */\n      0x00\n        /* \"contracts/4_Product.sol\":5915:5920  _addr */\n      dup7\n        /* \"contracts/4_Product.sol\":5908:5921  actors[_addr] */\n      0xffffffffffffffffffffffffffffffffffffffff\n      and\n      0xffffffffffffffffffffffffffffffffffffffff\n      and\n      dup2\n      mstore\n      0x20\n      add\n      swap1\n      dup2\n      mstore\n      0x20\n      add\n      0x00\n      keccak256\n        /* \"contracts/4_Product.sol\":5908:5929  actors[_addr] = actor */\n      0x00\n      dup3\n      add\n      mload\n      dup2\n      0x00\n      add\n      exp(0x0100, 0x00)\n      dup2\n      sload\n      dup2\n      0xff\n      mul\n      not\n      and\n      swap1\n      dup4\n      0x04\n      dup2\n      gt\n      iszero\n      tag_105\n      jumpi\n      tag_106\n      tag_78\n      jump\t// in\n    tag_106:\n    tag_105:\n      mul\n      or\n      swap1\n      sstore\n      pop\n      0x20\n      dup3\n      add\n      mload\n      dup2\n      0x01\n      add\n      swap1\n      dup1\n      mload\n      swap1\n      0x20\n      add\n      swap1\n      tag_107\n      swap3\n      swap2\n      swap1\n      tag_108\n      jump\t// in\n    tag_107:\n      pop\n      0x40\n      dup3\n      add\n      mload\n      dup2\n      0x02\n      add\n      exp(0x0100, 0x00)\n      dup2\n      sload\n      dup2\n      0xff\n      mul\n      not\n      and\n      swap1\n      dup4\n      iszero\n      iszero\n      mul\n      or\n      swap1\n      sstore\n      pop\n      swap1\n      pop\n      pop\n        /* \"contracts/4_Product.sol\":5761:5947  {\r... */\n      pop\n        /* \"contracts/4_Product.sol\":5688:5947  function register(address _addr, Role _role, string memory _name) public {\r... */\n      pop\n      pop\n      pop\n      jump\t// out\n        /* \"contracts/4_Product.sol\":5320:5676  function tokenTransfer(address _to, uint256 _amount) public returns (bool) {\r... */\n    tag_34:\n        /* \"contracts/4_Product.sol\":5389:5393  bool */\n      0x00\n        /* \"contracts/4_Product.sol\":5438:5445  _amount */\n      dup2\n        /* \"contracts/4_Product.sol\":5414:5422  balances */\n      0x04\n        /* \"contracts/4_Product.sol\":5414:5434  balances[msg.sender] */\n      0x00\n        /* \"contracts/4_Product.sol\":5423:5433  msg.sender */\n      caller\n        /* \"contracts/4_Product.sol\":5414:5434  balances[msg.sender] */\n      0xffffffffffffffffffffffffffffffffffffffff\n      and\n      0xffffffffffffffffffffffffffffffffffffffff\n      and\n      dup2\n      mstore\n      0x20\n      add\n      swap1\n      dup2\n      mstore\n      0x20\n      add\n      0x00\n      keccak256\n      sload\n        /* \"contracts/4_Product.sol\":5414:5445  balances[msg.sender] >= _amount */\n      lt\n      iszero\n        /* \"contracts/4_Product.sol\":5406:5446  require(balances[msg.sender] >= _amount) */\n      tag_110\n      jumpi\n      0x00\n      dup1\n      revert\n    tag_110:\n        /* \"contracts/4_Product.sol\":5556:5557  0 */\n      0x00\n        /* \"contracts/4_Product.sol\":5541:5558  _to != address(0) */\n      0xffffffffffffffffffffffffffffffffffffffff\n      and\n        /* \"contracts/4_Product.sol\":5541:5544  _to */\n      dup4\n        /* \"contracts/4_Product.sol\":5541:5558  _to != address(0) */\n      0xffffffffffffffffffffffffffffffffffffffff\n      and\n      eq\n      iszero\n        /* \"contracts/4_Product.sol\":5533:5559  require(_to != address(0)) */\n      tag_111\n      jumpi\n      0x00\n      dup1\n      revert\n    tag_111:\n        /* \"contracts/4_Product.sol\":5604:5611  _amount */\n      dup2\n        /* \"contracts/4_Product.sol\":5580:5588  balances */\n      0x04\n        /* \"contracts/4_Product.sol\":5580:5600  balances[msg.sender] */\n      0x00\n        /* \"contracts/4_Product.sol\":5589:5599  msg.sender */\n      caller\n        /* \"contracts/4_Product.sol\":5580:5600  balances[msg.sender] */\n      0xffffffffffffffffffffffffffffffffffffffff\n      and\n      0xffffffffffffffffffffffffffffffffffffffff\n      and\n      dup2\n      mstore\n      0x20\n      add\n      swap1\n      dup2\n      mstore\n      0x20\n      add\n      0x00\n      keccak256\n      0x00\n        /* \"contracts/4_Product.sol\":5580:5611  balances[msg.sender] -= _amount */\n      dup3\n      dup3\n      sload\n      tag_112\n      swap2\n      swap1\n      tag_113\n      jump\t// in\n    tag_112:\n      swap3\n      pop\n      pop\n      dup2\n      swap1\n      sstore\n      pop\n        /* \"contracts/4_Product.sol\":5639:5646  _amount */\n      dup2\n        /* \"contracts/4_Product.sol\":5622:5630  balances */\n      0x04\n        /* \"contracts/4_Product.sol\":5622:5635  balances[_to] */\n      0x00\n        /* \"contracts/4_Product.sol\":5631:5634  _to */\n      dup6\n        /* \"contracts/4_Product.sol\":5622:5635  balances[_to] */\n      0xffffffffffffffffffffffffffffffffffffffff\n      and\n      0xffffffffffffffffffffffffffffffffffffffff\n      and\n      dup2\n      mstore\n      0x20\n      add\n      swap1\n      dup2\n      mstore\n      0x20\n      add\n      0x00\n      keccak256\n      0x00\n        /* \"contracts/4_Product.sol\":5622:5646  balances[_to] += _amount */\n      dup3\n      dup3\n      sload\n      tag_114\n      swap2\n      swap1\n      tag_115\n      jump\t// in\n    tag_114:\n      swap3\n      pop\n      pop\n      dup2\n      swap1\n      sstore\n      pop\n        /* \"contracts/4_Product.sol\":5664:5668  true */\n      0x01\n        /* \"contracts/4_Product.sol\":5657:5668  return true */\n      swap1\n      pop\n        /* \"contracts/4_Product.sol\":5320:5676  function tokenTransfer(address _to, uint256 _amount) public returns (bool) {\r... */\n      swap3\n      swap2\n      pop\n      pop\n      jump\t// out\n        /* \"contracts/4_Product.sol\":114:134  string public symbol */\n    tag_39:\n      0x01\n      dup1\n      sload\n      tag_116\n      swap1\n      tag_86\n      jump\t// in\n    tag_116:\n      dup1\n      0x1f\n      add\n      0x20\n      dup1\n      swap2\n      div\n      mul\n      0x20\n      add\n      mload(0x40)\n      swap1\n      dup2\n      add\n      0x40\n      mstore\n      dup1\n      swap3\n      swap2\n      swap1\n      dup2\n      dup2\n      mstore\n      0x20\n      add\n      dup3\n      dup1\n      sload\n      tag_117\n      swap1\n      tag_86\n      jump\t// in\n    tag_117:\n      dup1\n      iszero\n      tag_118\n      jumpi\n      dup1\n      0x1f\n      lt\n      tag_119\n      jumpi\n      0x0100\n      dup1\n      dup4\n      sload\n      div\n      mul\n      dup4\n      mstore\n      swap2\n      0x20\n      add\n      swap2\n      jump(tag_118)\n    tag_119:\n      dup3\n      add\n      swap2\n      swap1\n      0x00\n      mstore\n      keccak256(0x00, 0x20)\n      swap1\n    tag_120:\n      dup2\n      sload\n      dup2\n      mstore\n      swap1\n      0x01\n      add\n      swap1\n      0x20\n      add\n      dup1\n      dup4\n      gt\n      tag_120\n      jumpi\n      dup3\n      swap1\n      sub\n      0x1f\n      and\n      dup3\n      add\n      swap2\n    tag_118:\n      pop\n      pop\n      pop\n      pop\n      pop\n      dup2\n      jump\t// out\n        /* \"contracts/4_Product.sol\":4274:4691  function burn(address _account, uint256 _amount) public OnlyTokenOwner {\r... */\n    tag_44:\n        /* \"contracts/4_Product.sol\":2494:2504  tokenOwner */\n      0x02\n      0x00\n      swap1\n      sload\n      swap1\n      0x0100\n      exp\n      swap1\n      div\n      0xffffffffffffffffffffffffffffffffffffffff\n      and\n        /* \"contracts/4_Product.sol\":2480:2504  msg.sender == tokenOwner */\n      0xffffffffffffffffffffffffffffffffffffffff\n      and\n        /* \"contracts/4_Product.sol\":2480:2490  msg.sender */\n      caller\n        /* \"contracts/4_Product.sol\":2480:2504  msg.sender == tokenOwner */\n      0xffffffffffffffffffffffffffffffffffffffff\n      and\n      eq\n        /* \"contracts/4_Product.sol\":2472:2539  require(msg.sender == tokenOwner, 'caller is not the token owner.') */\n      tag_122\n      jumpi\n      mload(0x40)\n      0x08c379a000000000000000000000000000000000000000000000000000000000\n      dup2\n      mstore\n      0x04\n      add\n      tag_123\n      swap1\n      tag_124\n      jump\t// in\n    tag_123:\n      mload(0x40)\n      dup1\n      swap2\n      sub\n      swap1\n      revert\n    tag_122:\n        /* \"contracts/4_Product.sol\":4384:4385  0 */\n      0x00\n        /* \"contracts/4_Product.sol\":4364:4386  _account != address(0) */\n      0xffffffffffffffffffffffffffffffffffffffff\n      and\n        /* \"contracts/4_Product.sol\":4364:4372  _account */\n      dup3\n        /* \"contracts/4_Product.sol\":4364:4386  _account != address(0) */\n      0xffffffffffffffffffffffffffffffffffffffff\n      and\n      eq\n      iszero\n        /* \"contracts/4_Product.sol\":4356:4387  require(_account != address(0)) */\n      tag_126\n      jumpi\n      0x00\n      dup1\n      revert\n    tag_126:\n        /* \"contracts/4_Product.sol\":4512:4520  balances */\n      0x04\n        /* \"contracts/4_Product.sol\":4512:4530  balances[_account] */\n      0x00\n        /* \"contracts/4_Product.sol\":4521:4529  _account */\n      dup4\n        /* \"contracts/4_Product.sol\":4512:4530  balances[_account] */\n      0xffffffffffffffffffffffffffffffffffffffff\n      and\n      0xffffffffffffffffffffffffffffffffffffffff\n      and\n      dup2\n      mstore\n      0x20\n      add\n      swap1\n      dup2\n      mstore\n      0x20\n      add\n      0x00\n      keccak256\n      sload\n        /* \"contracts/4_Product.sol\":4501:4508  _amount */\n      dup2\n        /* \"contracts/4_Product.sol\":4501:4530  _amount <= balances[_account] */\n      gt\n      iszero\n        /* \"contracts/4_Product.sol\":4493:4531  require(_amount <= balances[_account]) */\n      tag_127\n      jumpi\n      0x00\n      dup1\n      revert\n    tag_127:\n        /* \"contracts/4_Product.sol\":4636:4643  _amount */\n      dup1\n        /* \"contracts/4_Product.sol\":4620:4632  _totalSupply */\n      0x03\n      0x00\n        /* \"contracts/4_Product.sol\":4620:4643  _totalSupply -= _amount */\n      dup3\n      dup3\n      sload\n      tag_128\n      swap2\n      swap1\n      tag_113\n      jump\t// in\n    tag_128:\n      swap3\n      pop\n      pop\n      dup2\n      swap1\n      sstore\n      pop\n        /* \"contracts/4_Product.sol\":4676:4683  _amount */\n      dup1\n        /* \"contracts/4_Product.sol\":4654:4662  balances */\n      0x04\n        /* \"contracts/4_Product.sol\":4654:4672  balances[_account] */\n      0x00\n        /* \"contracts/4_Product.sol\":4663:4671  _account */\n      dup5\n        /* \"contracts/4_Product.sol\":4654:4672  balances[_account] */\n      0xffffffffffffffffffffffffffffffffffffffff\n      and\n      0xffffffffffffffffffffffffffffffffffffffff\n      and\n      dup2\n      mstore\n      0x20\n      add\n      swap1\n      dup2\n      mstore\n      0x20\n      add\n      0x00\n      keccak256\n      0x00\n        /* \"contracts/4_Product.sol\":4654:4683  balances[_account] -= _amount */\n      dup3\n      dup3\n      sload\n      tag_129\n      swap2\n      swap1\n      tag_113\n      jump\t// in\n    tag_129:\n      swap3\n      pop\n      pop\n      dup2\n      swap1\n      sstore\n      pop\n        /* \"contracts/4_Product.sol\":4274:4691  function burn(address _account, uint256 _amount) public OnlyTokenOwner {\r... */\n      pop\n      pop\n      jump\t// out\n        /* \"contracts/4_Product.sol\":3895:4117  function mint(uint256 _amount) public OnlyTokenOwner {\r... */\n    tag_49:\n        /* \"contracts/4_Product.sol\":2494:2504  tokenOwner */\n      0x02\n      0x00\n      swap1\n      sload\n      swap1\n      0x0100\n      exp\n      swap1\n      div\n      0xffffffffffffffffffffffffffffffffffffffff\n      and\n        /* \"contracts/4_Product.sol\":2480:2504  msg.sender == tokenOwner */\n      0xffffffffffffffffffffffffffffffffffffffff\n      and\n        /* \"contracts/4_Product.sol\":2480:2490  msg.sender */\n      caller\n        /* \"contracts/4_Product.sol\":2480:2504  msg.sender == tokenOwner */\n      0xffffffffffffffffffffffffffffffffffffffff\n      and\n      eq\n        /* \"contracts/4_Product.sol\":2472:2539  require(msg.sender == tokenOwner, 'caller is not the token owner.') */\n      tag_131\n      jumpi\n      mload(0x40)\n      0x08c379a000000000000000000000000000000000000000000000000000000000\n      dup2\n      mstore\n      0x04\n      add\n      tag_132\n      swap1\n      tag_124\n      jump\t// in\n    tag_132:\n      mload(0x40)\n      dup1\n      swap2\n      sub\n      swap1\n      revert\n    tag_131:\n        /* \"contracts/4_Product.sol\":3975:3982  _amount */\n      dup1\n        /* \"contracts/4_Product.sol\":3959:3971  _totalSupply */\n      0x03\n      0x00\n        /* \"contracts/4_Product.sol\":3959:3982  _totalSupply += _amount */\n      dup3\n      dup3\n      sload\n      tag_134\n      swap2\n      swap1\n      tag_115\n      jump\t// in\n    tag_134:\n      swap3\n      pop\n      pop\n      dup2\n      swap1\n      sstore\n      pop\n        /* \"contracts/4_Product.sol\":4053:4060  _amount */\n      dup1\n        /* \"contracts/4_Product.sol\":4029:4037  balances */\n      0x04\n        /* \"contracts/4_Product.sol\":4029:4049  balances[msg.sender] */\n      0x00\n        /* \"contracts/4_Product.sol\":4038:4048  msg.sender */\n      caller\n        /* \"contracts/4_Product.sol\":4029:4049  balances[msg.sender] */\n      0xffffffffffffffffffffffffffffffffffffffff\n      and\n      0xffffffffffffffffffffffffffffffffffffffff\n      and\n      dup2\n      mstore\n      0x20\n      add\n      swap1\n      dup2\n      mstore\n      0x20\n      add\n      0x00\n      keccak256\n      0x00\n        /* \"contracts/4_Product.sol\":4029:4060  balances[msg.sender] += _amount */\n      dup3\n      dup3\n      sload\n      tag_135\n      swap2\n      swap1\n      tag_115\n      jump\t// in\n    tag_135:\n      swap3\n      pop\n      pop\n      dup2\n      swap1\n      sstore\n      pop\n        /* \"contracts/4_Product.sol\":3895:4117  function mint(uint256 _amount) public OnlyTokenOwner {\r... */\n      pop\n      jump\t// out\n        /* \"contracts/4_Product.sol\":165:199  address payable public  tokenOwner */\n    tag_52:\n      0x02\n      0x00\n      swap1\n      sload\n      swap1\n      0x0100\n      exp\n      swap1\n      div\n      0xffffffffffffffffffffffffffffffffffffffff\n      and\n      dup2\n      jump\t// out\n        /* \"contracts/4_Product.sol\":4749:5246  function buyToken() public payable {\r... */\n    tag_56:\n        /* \"contracts/4_Product.sol\":4794:4810  uint256 tokenNum */\n      0x00\n        /* \"contracts/4_Product.sol\":287:290  100 */\n      0x64\n        /* \"contracts/4_Product.sol\":4813:4822  msg.value */\n      callvalue\n        /* \"contracts/4_Product.sol\":4813:4833  msg.value/tokenPrice */\n      tag_137\n      swap2\n      swap1\n      tag_138\n      jump\t// in\n    tag_137:\n        /* \"contracts/4_Product.sol\":4794:4833  uint256 tokenNum = msg.value/tokenPrice */\n      swap1\n      pop\n        /* \"contracts/4_Product.sol\":4895:4896  0 */\n      0x00\n        /* \"contracts/4_Product.sol\":4883:4892  msg.value */\n      callvalue\n        /* \"contracts/4_Product.sol\":4883:4896  msg.value > 0 */\n      gt\n        /* \"contracts/4_Product.sol\":4875:4897  require(msg.value > 0) */\n      tag_139\n      jumpi\n      0x00\n      dup1\n      revert\n    tag_139:\n        /* \"contracts/4_Product.sol\":4945:4955  tokenOwner */\n      0x02\n      0x00\n      swap1\n      sload\n      swap1\n      0x0100\n      exp\n      swap1\n      div\n      0xffffffffffffffffffffffffffffffffffffffff\n      and\n        /* \"contracts/4_Product.sol\":4945:4964  tokenOwner.transfer */\n      0xffffffffffffffffffffffffffffffffffffffff\n      and\n        /* \"contracts/4_Product.sol\":4945:4975  tokenOwner.transfer(msg.value) */\n      0x08fc\n        /* \"contracts/4_Product.sol\":4965:4974  msg.value */\n      callvalue\n        /* \"contracts/4_Product.sol\":4945:4975  tokenOwner.transfer(msg.value) */\n      swap1\n      dup2\n      iszero\n      mul\n      swap1\n      mload(0x40)\n      0x00\n      mload(0x40)\n      dup1\n      dup4\n      sub\n      dup2\n      dup6\n      dup9\n      dup9\n      call\n      swap4\n      pop\n      pop\n      pop\n      pop\n      iszero\n      dup1\n      iszero\n      tag_141\n      jumpi\n      returndatasize\n      0x00\n      dup1\n      returndatacopy\n      revert(0x00, returndatasize)\n    tag_141:\n      pop\n        /* \"contracts/4_Product.sol\":5075:5083  tokenNum */\n      dup1\n        /* \"contracts/4_Product.sol\":5051:5059  balances */\n      0x04\n        /* \"contracts/4_Product.sol\":5051:5071  balances[tokenOwner] */\n      0x00\n        /* \"contracts/4_Product.sol\":5060:5070  tokenOwner */\n      0x02\n      0x00\n      swap1\n      sload\n      swap1\n      0x0100\n      exp\n      swap1\n      div\n      0xffffffffffffffffffffffffffffffffffffffff\n      and\n        /* \"contracts/4_Product.sol\":5051:5071  balances[tokenOwner] */\n      0xffffffffffffffffffffffffffffffffffffffff\n      and\n      0xffffffffffffffffffffffffffffffffffffffff\n      and\n      dup2\n      mstore\n      0x20\n      add\n      swap1\n      dup2\n      mstore\n      0x20\n      add\n      0x00\n      keccak256\n      0x00\n        /* \"contracts/4_Product.sol\":5051:5083  balances[tokenOwner] -= tokenNum */\n      dup3\n      dup3\n      sload\n      tag_142\n      swap2\n      swap1\n      tag_113\n      jump\t// in\n    tag_142:\n      swap3\n      pop\n      pop\n      dup2\n      swap1\n      sstore\n      pop\n        /* \"contracts/4_Product.sol\":5176:5184  tokenNum */\n      dup1\n        /* \"contracts/4_Product.sol\":5152:5160  balances */\n      0x04\n        /* \"contracts/4_Product.sol\":5152:5172  balances[msg.sender] */\n      0x00\n        /* \"contracts/4_Product.sol\":5161:5171  msg.sender */\n      caller\n        /* \"contracts/4_Product.sol\":5152:5172  balances[msg.sender] */\n      0xffffffffffffffffffffffffffffffffffffffff\n      and\n      0xffffffffffffffffffffffffffffffffffffffff\n      and\n      dup2\n      mstore\n      0x20\n      add\n      swap1\n      dup2\n      mstore\n      0x20\n      add\n      0x00\n      keccak256\n      0x00\n        /* \"contracts/4_Product.sol\":5152:5184  balances[msg.sender] += tokenNum */\n      dup3\n      dup3\n      sload\n      tag_143\n      swap2\n      swap1\n      tag_115\n      jump\t// in\n    tag_143:\n      swap3\n      pop\n      pop\n      dup2\n      swap1\n      sstore\n      pop\n        /* \"contracts/4_Product.sol\":4784:5246  {\r... */\n      pop\n        /* \"contracts/4_Product.sol\":4749:5246  function buyToken() public payable {\r... */\n      jump\t// out\n        /* \"contracts/4_Product.sol\":9987:10163  function getActorInfo(address _addr) public view returns\r... */\n    tag_61:\n        /* \"contracts/4_Product.sol\":10052:10062  Role _role */\n      0x00\n        /* \"contracts/4_Product.sol\":10069:10088  string memory _name */\n      0x60\n        /* \"contracts/4_Product.sol\":10108:10114  actors */\n      0x05\n        /* \"contracts/4_Product.sol\":10108:10121  actors[_addr] */\n      0x00\n        /* \"contracts/4_Product.sol\":10115:10120  _addr */\n      dup5\n        /* \"contracts/4_Product.sol\":10108:10121  actors[_addr] */\n      0xffffffffffffffffffffffffffffffffffffffff\n      and\n      0xffffffffffffffffffffffffffffffffffffffff\n      and\n      dup2\n      mstore\n      0x20\n      add\n      swap1\n      dup2\n      mstore\n      0x20\n      add\n      0x00\n      keccak256\n        /* \"contracts/4_Product.sol\":10108:10126  actors[_addr].role */\n      0x00\n      add\n      0x00\n      swap1\n      sload\n      swap1\n      0x0100\n      exp\n      swap1\n      div\n      0xff\n      and\n        /* \"contracts/4_Product.sol\":10100:10126  _role = actors[_addr].role */\n      swap2\n      pop\n        /* \"contracts/4_Product.sol\":10141:10147  actors */\n      0x05\n        /* \"contracts/4_Product.sol\":10141:10154  actors[_addr] */\n      0x00\n        /* \"contracts/4_Product.sol\":10148:10153  _addr */\n      dup5\n        /* \"contracts/4_Product.sol\":10141:10154  actors[_addr] */\n      0xffffffffffffffffffffffffffffffffffffffff\n      and\n      0xffffffffffffffffffffffffffffffffffffffff\n      and\n      dup2\n      mstore\n      0x20\n      add\n      swap1\n      dup2\n      mstore\n      0x20\n      add\n      0x00\n      keccak256\n        /* \"contracts/4_Product.sol\":10141:10159  actors[_addr].name */\n      0x01\n      add\n        /* \"contracts/4_Product.sol\":10133:10159  _name = actors[_addr].name */\n      dup1\n      sload\n      tag_145\n      swap1\n      tag_86\n      jump\t// in\n    tag_145:\n      dup1\n      0x1f\n      add\n      0x20\n      dup1\n      swap2\n      div\n      mul\n      0x20\n      add\n      mload(0x40)\n      swap1\n      dup2\n      add\n      0x40\n      mstore\n      dup1\n      swap3\n      swap2\n      swap1\n      dup2\n      dup2\n      mstore\n      0x20\n      add\n      dup3\n      dup1\n      sload\n      tag_146\n      swap1\n      tag_86\n      jump\t// in\n    tag_146:\n      dup1\n      iszero\n      tag_147\n      jumpi\n      dup1\n      0x1f\n      lt\n      tag_148\n      jumpi\n      0x0100\n      dup1\n      dup4\n      sload\n      div\n      mul\n      dup4\n      mstore\n      swap2\n      0x20\n      add\n      swap2\n      jump(tag_147)\n    tag_148:\n      dup3\n      add\n      swap2\n      swap1\n      0x00\n      mstore\n      keccak256(0x00, 0x20)\n      swap1\n    tag_149:\n      dup2\n      sload\n      dup2\n      mstore\n      swap1\n      0x01\n      add\n      swap1\n      0x20\n      add\n      dup1\n      dup4\n      gt\n      tag_149\n      jumpi\n      dup3\n      swap1\n      sub\n      0x1f\n      and\n      dup3\n      add\n      swap2\n    tag_147:\n      pop\n      pop\n      pop\n      pop\n      pop\n      swap1\n      pop\n        /* \"contracts/4_Product.sol\":9987:10163  function getActorInfo(address _addr) public view returns\r... */\n      swap2\n      pop\n      swap2\n      jump\t// out\n        /* \"contracts/4_Product.sol\":3673:3779  function etherBalance(address _addr) public view returns (uint256) {\r... */\n    tag_67:\n        /* \"contracts/4_Product.sol\":3731:3738  uint256 */\n      0x00\n        /* \"contracts/4_Product.sol\":3758:3763  _addr */\n      dup2\n        /* \"contracts/4_Product.sol\":3758:3771  _addr.balance */\n      0xffffffffffffffffffffffffffffffffffffffff\n      and\n      balance\n        /* \"contracts/4_Product.sol\":3751:3771  return _addr.balance */\n      swap1\n      pop\n        /* \"contracts/4_Product.sol\":3673:3779  function etherBalance(address _addr) public view returns (uint256) {\r... */\n      swap2\n      swap1\n      pop\n      jump\t// out\n        /* \"contracts/4_Product.sol\":3499:3607  function tokenBalance(address _addr) public view returns (uint256) {\r... */\n    tag_73:\n        /* \"contracts/4_Product.sol\":3557:3564  uint256 */\n      0x00\n        /* \"contracts/4_Product.sol\":3584:3592  balances */\n      0x04\n        /* \"contracts/4_Product.sol\":3584:3599  balances[_addr] */\n      0x00\n        /* \"contracts/4_Product.sol\":3593:3598  _addr */\n      dup4\n        /* \"contracts/4_Product.sol\":3584:3599  balances[_addr] */\n      0xffffffffffffffffffffffffffffffffffffffff\n      and\n      0xffffffffffffffffffffffffffffffffffffffff\n      and\n      dup2\n      mstore\n      0x20\n      add\n      swap1\n      dup2\n      mstore\n      0x20\n      add\n      0x00\n      keccak256\n      sload\n        /* \"contracts/4_Product.sol\":3577:3599  return balances[_addr] */\n      swap1\n      pop\n        /* \"contracts/4_Product.sol\":3499:3607  function tokenBalance(address _addr) public view returns (uint256) {\r... */\n      swap2\n      swap1\n      pop\n      jump\t// out\n    tag_108:\n      dup3\n      dup1\n      sload\n      tag_152\n      swap1\n      tag_86\n      jump\t// in\n    tag_152:\n      swap1\n      0x00\n      mstore\n      keccak256(0x00, 0x20)\n      swap1\n      0x1f\n      add\n      0x20\n      swap1\n      div\n      dup2\n      add\n      swap3\n      dup3\n      tag_154\n      jumpi\n      0x00\n      dup6\n      sstore\n      jump(tag_153)\n    tag_154:\n      dup3\n      0x1f\n      lt\n      tag_155\n      jumpi\n      dup1\n      mload\n      not(0xff)\n      and\n      dup4\n      dup1\n      add\n      or\n      dup6\n      sstore\n      jump(tag_153)\n    tag_155:\n      dup3\n      dup1\n      add\n      0x01\n      add\n      dup6\n      sstore\n      dup3\n      iszero\n      tag_153\n      jumpi\n      swap2\n      dup3\n      add\n    tag_156:\n      dup3\n      dup2\n      gt\n      iszero\n      tag_157\n      jumpi\n      dup3\n      mload\n      dup3\n      sstore\n      swap2\n      0x20\n      add\n      swap2\n      swap1\n      0x01\n      add\n      swap1\n      jump(tag_156)\n    tag_157:\n    tag_153:\n      pop\n      swap1\n      pop\n      tag_158\n      swap2\n      swap1\n      tag_159\n      jump\t// in\n    tag_158:\n      pop\n      swap1\n      jump\t// out\n    tag_159:\n    tag_160:\n      dup1\n      dup3\n      gt\n      iszero\n      tag_161\n      jumpi\n      0x00\n      dup2\n      0x00\n      swap1\n      sstore\n      pop\n      0x01\n      add\n      jump(tag_160)\n    tag_161:\n      pop\n      swap1\n      jump\t// out\n        /* \"#utility.yul\":7:419   */\n    tag_163:\n        /* \"#utility.yul\":85:90   */\n      0x00\n        /* \"#utility.yul\":110:176   */\n      tag_165\n        /* \"#utility.yul\":126:175   */\n      tag_166\n        /* \"#utility.yul\":168:174   */\n      dup5\n        /* \"#utility.yul\":126:175   */\n      tag_167\n      jump\t// in\n    tag_166:\n        /* \"#utility.yul\":110:176   */\n      tag_168\n      jump\t// in\n    tag_165:\n        /* \"#utility.yul\":101:176   */\n      swap1\n      pop\n        /* \"#utility.yul\":199:205   */\n      dup3\n        /* \"#utility.yul\":192:197   */\n      dup2\n        /* \"#utility.yul\":185:206   */\n      mstore\n        /* \"#utility.yul\":237:241   */\n      0x20\n        /* \"#utility.yul\":230:235   */\n      dup2\n        /* \"#utility.yul\":226:242   */\n      add\n        /* \"#utility.yul\":275:278   */\n      dup5\n        /* \"#utility.yul\":266:272   */\n      dup5\n        /* \"#utility.yul\":261:264   */\n      dup5\n        /* \"#utility.yul\":257:273   */\n      add\n        /* \"#utility.yul\":254:279   */\n      gt\n        /* \"#utility.yul\":251:363   */\n      iszero\n      tag_169\n      jumpi\n        /* \"#utility.yul\":282:361   */\n      tag_170\n      tag_171\n      jump\t// in\n    tag_170:\n        /* \"#utility.yul\":251:363   */\n    tag_169:\n        /* \"#utility.yul\":372:413   */\n      tag_172\n        /* \"#utility.yul\":406:412   */\n      dup5\n        /* \"#utility.yul\":401:404   */\n      dup3\n        /* \"#utility.yul\":396:399   */\n      dup6\n        /* \"#utility.yul\":372:413   */\n      tag_173\n      jump\t// in\n    tag_172:\n        /* \"#utility.yul\":91:419   */\n      pop\n        /* \"#utility.yul\":7:419   */\n      swap4\n      swap3\n      pop\n      pop\n      pop\n      jump\t// out\n        /* \"#utility.yul\":425:564   */\n    tag_174:\n        /* \"#utility.yul\":471:476   */\n      0x00\n        /* \"#utility.yul\":509:515   */\n      dup2\n        /* \"#utility.yul\":496:516   */\n      calldataload\n        /* \"#utility.yul\":487:516   */\n      swap1\n      pop\n        /* \"#utility.yul\":525:558   */\n      tag_176\n        /* \"#utility.yul\":552:557   */\n      dup2\n        /* \"#utility.yul\":525:558   */\n      tag_177\n      jump\t// in\n    tag_176:\n        /* \"#utility.yul\":425:564   */\n      swap3\n      swap2\n      pop\n      pop\n      jump\t// out\n        /* \"#utility.yul\":570:723   */\n    tag_178:\n        /* \"#utility.yul\":623:628   */\n      0x00\n        /* \"#utility.yul\":661:667   */\n      dup2\n        /* \"#utility.yul\":648:668   */\n      calldataload\n        /* \"#utility.yul\":639:668   */\n      swap1\n      pop\n        /* \"#utility.yul\":677:717   */\n      tag_180\n        /* \"#utility.yul\":711:716   */\n      dup2\n        /* \"#utility.yul\":677:717   */\n      tag_181\n      jump\t// in\n    tag_180:\n        /* \"#utility.yul\":570:723   */\n      swap3\n      swap2\n      pop\n      pop\n      jump\t// out\n        /* \"#utility.yul\":729:866   */\n    tag_182:\n        /* \"#utility.yul\":774:779   */\n      0x00\n        /* \"#utility.yul\":812:818   */\n      dup2\n        /* \"#utility.yul\":799:819   */\n      calldataload\n        /* \"#utility.yul\":790:819   */\n      swap1\n      pop\n        /* \"#utility.yul\":828:860   */\n      tag_184\n        /* \"#utility.yul\":854:859   */\n      dup2\n        /* \"#utility.yul\":828:860   */\n      tag_185\n      jump\t// in\n    tag_184:\n        /* \"#utility.yul\":729:866   */\n      swap3\n      swap2\n      pop\n      pop\n      jump\t// out\n        /* \"#utility.yul\":886:1226   */\n    tag_186:\n        /* \"#utility.yul\":942:947   */\n      0x00\n        /* \"#utility.yul\":991:994   */\n      dup3\n        /* \"#utility.yul\":984:988   */\n      0x1f\n        /* \"#utility.yul\":976:982   */\n      dup4\n        /* \"#utility.yul\":972:989   */\n      add\n        /* \"#utility.yul\":968:995   */\n      slt\n        /* \"#utility.yul\":958:1080   */\n      tag_188\n      jumpi\n        /* \"#utility.yul\":999:1078   */\n      tag_189\n      tag_190\n      jump\t// in\n    tag_189:\n        /* \"#utility.yul\":958:1080   */\n    tag_188:\n        /* \"#utility.yul\":1116:1122   */\n      dup2\n        /* \"#utility.yul\":1103:1123   */\n      calldataload\n        /* \"#utility.yul\":1141:1220   */\n      tag_191\n        /* \"#utility.yul\":1216:1219   */\n      dup5\n        /* \"#utility.yul\":1208:1214   */\n      dup3\n        /* \"#utility.yul\":1201:1205   */\n      0x20\n        /* \"#utility.yul\":1193:1199   */\n      dup7\n        /* \"#utility.yul\":1189:1206   */\n      add\n        /* \"#utility.yul\":1141:1220   */\n      tag_163\n      jump\t// in\n    tag_191:\n        /* \"#utility.yul\":1132:1220   */\n      swap2\n      pop\n        /* \"#utility.yul\":948:1226   */\n      pop\n        /* \"#utility.yul\":886:1226   */\n      swap3\n      swap2\n      pop\n      pop\n      jump\t// out\n        /* \"#utility.yul\":1232:1371   */\n    tag_192:\n        /* \"#utility.yul\":1278:1283   */\n      0x00\n        /* \"#utility.yul\":1316:1322   */\n      dup2\n        /* \"#utility.yul\":1303:1323   */\n      calldataload\n        /* \"#utility.yul\":1294:1323   */\n      swap1\n      pop\n        /* \"#utility.yul\":1332:1365   */\n      tag_194\n        /* \"#utility.yul\":1359:1364   */\n      dup2\n        /* \"#utility.yul\":1332:1365   */\n      tag_195\n      jump\t// in\n    tag_194:\n        /* \"#utility.yul\":1232:1371   */\n      swap3\n      swap2\n      pop\n      pop\n      jump\t// out\n        /* \"#utility.yul\":1377:1706   */\n    tag_60:\n        /* \"#utility.yul\":1436:1442   */\n      0x00\n        /* \"#utility.yul\":1485:1487   */\n      0x20\n        /* \"#utility.yul\":1473:1482   */\n      dup3\n        /* \"#utility.yul\":1464:1471   */\n      dup5\n        /* \"#utility.yul\":1460:1483   */\n      sub\n        /* \"#utility.yul\":1456:1488   */\n      slt\n        /* \"#utility.yul\":1453:1572   */\n      iszero\n      tag_197\n      jumpi\n        /* \"#utility.yul\":1491:1570   */\n      tag_198\n      tag_199\n      jump\t// in\n    tag_198:\n        /* \"#utility.yul\":1453:1572   */\n    tag_197:\n        /* \"#utility.yul\":1611:1612   */\n      0x00\n        /* \"#utility.yul\":1636:1689   */\n      tag_200\n        /* \"#utility.yul\":1681:1688   */\n      dup5\n        /* \"#utility.yul\":1672:1678   */\n      dup3\n        /* \"#utility.yul\":1661:1670   */\n      dup6\n        /* \"#utility.yul\":1657:1679   */\n      add\n        /* \"#utility.yul\":1636:1689   */\n      tag_174\n      jump\t// in\n    tag_200:\n        /* \"#utility.yul\":1626:1689   */\n      swap2\n      pop\n        /* \"#utility.yul\":1582:1699   */\n      pop\n        /* \"#utility.yul\":1377:1706   */\n      swap3\n      swap2\n      pop\n      pop\n      jump\t// out\n        /* \"#utility.yul\":1712:2525   */\n    tag_28:\n        /* \"#utility.yul\":1806:1812   */\n      0x00\n        /* \"#utility.yul\":1814:1820   */\n      dup1\n        /* \"#utility.yul\":1822:1828   */\n      0x00\n        /* \"#utility.yul\":1871:1873   */\n      0x60\n        /* \"#utility.yul\":1859:1868   */\n      dup5\n        /* \"#utility.yul\":1850:1857   */\n      dup7\n        /* \"#utility.yul\":1846:1869   */\n      sub\n        /* \"#utility.yul\":1842:1874   */\n      slt\n        /* \"#utility.yul\":1839:1958   */\n      iszero\n      tag_202\n      jumpi\n        /* \"#utility.yul\":1877:1956   */\n      tag_203\n      tag_199\n      jump\t// in\n    tag_203:\n        /* \"#utility.yul\":1839:1958   */\n    tag_202:\n        /* \"#utility.yul\":1997:1998   */\n      0x00\n        /* \"#utility.yul\":2022:2075   */\n      tag_204\n        /* \"#utility.yul\":2067:2074   */\n      dup7\n        /* \"#utility.yul\":2058:2064   */\n      dup3\n        /* \"#utility.yul\":2047:2056   */\n      dup8\n        /* \"#utility.yul\":2043:2065   */\n      add\n        /* \"#utility.yul\":2022:2075   */\n      tag_174\n      jump\t// in\n    tag_204:\n        /* \"#utility.yul\":2012:2075   */\n      swap4\n      pop\n        /* \"#utility.yul\":1968:2085   */\n      pop\n        /* \"#utility.yul\":2124:2126   */\n      0x20\n        /* \"#utility.yul\":2150:2210   */\n      tag_205\n        /* \"#utility.yul\":2202:2209   */\n      dup7\n        /* \"#utility.yul\":2193:2199   */\n      dup3\n        /* \"#utility.yul\":2182:2191   */\n      dup8\n        /* \"#utility.yul\":2178:2200   */\n      add\n        /* \"#utility.yul\":2150:2210   */\n      tag_178\n      jump\t// in\n    tag_205:\n        /* \"#utility.yul\":2140:2210   */\n      swap3\n      pop\n        /* \"#utility.yul\":2095:2220   */\n      pop\n        /* \"#utility.yul\":2287:2289   */\n      0x40\n        /* \"#utility.yul\":2276:2285   */\n      dup5\n        /* \"#utility.yul\":2272:2290   */\n      add\n        /* \"#utility.yul\":2259:2291   */\n      calldataload\n        /* \"#utility.yul\":2318:2336   */\n      0xffffffffffffffff\n        /* \"#utility.yul\":2310:2316   */\n      dup2\n        /* \"#utility.yul\":2307:2337   */\n      gt\n        /* \"#utility.yul\":2304:2421   */\n      iszero\n      tag_206\n      jumpi\n        /* \"#utility.yul\":2340:2419   */\n      tag_207\n      tag_208\n      jump\t// in\n    tag_207:\n        /* \"#utility.yul\":2304:2421   */\n    tag_206:\n        /* \"#utility.yul\":2445:2508   */\n      tag_209\n        /* \"#utility.yul\":2500:2507   */\n      dup7\n        /* \"#utility.yul\":2491:2497   */\n      dup3\n        /* \"#utility.yul\":2480:2489   */\n      dup8\n        /* \"#utility.yul\":2476:2498   */\n      add\n        /* \"#utility.yul\":2445:2508   */\n      tag_186\n      jump\t// in\n    tag_209:\n        /* \"#utility.yul\":2435:2508   */\n      swap2\n      pop\n        /* \"#utility.yul\":2230:2518   */\n      pop\n        /* \"#utility.yul\":1712:2525   */\n      swap3\n      pop\n      swap3\n      pop\n      swap3\n      jump\t// out\n        /* \"#utility.yul\":2531:3005   */\n    tag_33:\n        /* \"#utility.yul\":2599:2605   */\n      0x00\n        /* \"#utility.yul\":2607:2613   */\n      dup1\n        /* \"#utility.yul\":2656:2658   */\n      0x40\n        /* \"#utility.yul\":2644:2653   */\n      dup4\n        /* \"#utility.yul\":2635:2642   */\n      dup6\n        /* \"#utility.yul\":2631:2654   */\n      sub\n        /* \"#utility.yul\":2627:2659   */\n      slt\n        /* \"#utility.yul\":2624:2743   */\n      iszero\n      tag_211\n      jumpi\n        /* \"#utility.yul\":2662:2741   */\n      tag_212\n      tag_199\n      jump\t// in\n    tag_212:\n        /* \"#utility.yul\":2624:2743   */\n    tag_211:\n        /* \"#utility.yul\":2782:2783   */\n      0x00\n        /* \"#utility.yul\":2807:2860   */\n      tag_213\n        /* \"#utility.yul\":2852:2859   */\n      dup6\n        /* \"#utility.yul\":2843:2849   */\n      dup3\n        /* \"#utility.yul\":2832:2841   */\n      dup7\n        /* \"#utility.yul\":2828:2850   */\n      add\n        /* \"#utility.yul\":2807:2860   */\n      tag_174\n      jump\t// in\n    tag_213:\n        /* \"#utility.yul\":2797:2860   */\n      swap3\n      pop\n        /* \"#utility.yul\":2753:2870   */\n      pop\n        /* \"#utility.yul\":2909:2911   */\n      0x20\n        /* \"#utility.yul\":2935:2988   */\n      tag_214\n        /* \"#utility.yul\":2980:2987   */\n      dup6\n        /* \"#utility.yul\":2971:2977   */\n      dup3\n        /* \"#utility.yul\":2960:2969   */\n      dup7\n        /* \"#utility.yul\":2956:2978   */\n      add\n        /* \"#utility.yul\":2935:2988   */\n      tag_192\n      jump\t// in\n    tag_214:\n        /* \"#utility.yul\":2925:2988   */\n      swap2\n      pop\n        /* \"#utility.yul\":2880:2998   */\n      pop\n        /* \"#utility.yul\":2531:3005   */\n      swap3\n      pop\n      swap3\n      swap1\n      pop\n      jump\t// out\n        /* \"#utility.yul\":3011:3340   */\n    tag_48:\n        /* \"#utility.yul\":3070:3076   */\n      0x00\n        /* \"#utility.yul\":3119:3121   */\n      0x20\n        /* \"#utility.yul\":3107:3116   */\n      dup3\n        /* \"#utility.yul\":3098:3105   */\n      dup5\n        /* \"#utility.yul\":3094:3117   */\n      sub\n        /* \"#utility.yul\":3090:3122   */\n      slt\n        /* \"#utility.yul\":3087:3206   */\n      iszero\n      tag_216\n      jumpi\n        /* \"#utility.yul\":3125:3204   */\n      tag_217\n      tag_199\n      jump\t// in\n    tag_217:\n        /* \"#utility.yul\":3087:3206   */\n    tag_216:\n        /* \"#utility.yul\":3245:3246   */\n      0x00\n        /* \"#utility.yul\":3270:3323   */\n      tag_218\n        /* \"#utility.yul\":3315:3322   */\n      dup5\n        /* \"#utility.yul\":3306:3312   */\n      dup3\n        /* \"#utility.yul\":3295:3304   */\n      dup6\n        /* \"#utility.yul\":3291:3313   */\n      add\n        /* \"#utility.yul\":3270:3323   */\n      tag_192\n      jump\t// in\n    tag_218:\n        /* \"#utility.yul\":3260:3323   */\n      swap2\n      pop\n        /* \"#utility.yul\":3216:3333   */\n      pop\n        /* \"#utility.yul\":3011:3340   */\n      swap3\n      swap2\n      pop\n      pop\n      jump\t// out\n        /* \"#utility.yul\":3346:5087   */\n    tag_18:\n        /* \"#utility.yul\":3488:3494   */\n      0x00\n        /* \"#utility.yul\":3496:3502   */\n      dup1\n        /* \"#utility.yul\":3504:3510   */\n      0x00\n        /* \"#utility.yul\":3512:3518   */\n      dup1\n        /* \"#utility.yul\":3520:3526   */\n      0x00\n        /* \"#utility.yul\":3528:3534   */\n      dup1\n        /* \"#utility.yul\":3536:3542   */\n      0x00\n        /* \"#utility.yul\":3585:3588   */\n      0xe0\n        /* \"#utility.yul\":3573:3582   */\n      dup9\n        /* \"#utility.yul\":3564:3571   */\n      dup11\n        /* \"#utility.yul\":3560:3583   */\n      sub\n        /* \"#utility.yul\":3556:3589   */\n      slt\n        /* \"#utility.yul\":3553:3673   */\n      iszero\n      tag_220\n      jumpi\n        /* \"#utility.yul\":3592:3671   */\n      tag_221\n      tag_199\n      jump\t// in\n    tag_221:\n        /* \"#utility.yul\":3553:3673   */\n    tag_220:\n        /* \"#utility.yul\":3712:3713   */\n      0x00\n        /* \"#utility.yul\":3737:3790   */\n      tag_222\n        /* \"#utility.yul\":3782:3789   */\n      dup11\n        /* \"#utility.yul\":3773:3779   */\n      dup3\n        /* \"#utility.yul\":3762:3771   */\n      dup12\n        /* \"#utility.yul\":3758:3780   */\n      add\n        /* \"#utility.yul\":3737:3790   */\n      tag_192\n      jump\t// in\n    tag_222:\n        /* \"#utility.yul\":3727:3790   */\n      swap8\n      pop\n        /* \"#utility.yul\":3683:3800   */\n      pop\n        /* \"#utility.yul\":3839:3841   */\n      0x20\n        /* \"#utility.yul\":3865:3918   */\n      tag_223\n        /* \"#utility.yul\":3910:3917   */\n      dup11\n        /* \"#utility.yul\":3901:3907   */\n      dup3\n        /* \"#utility.yul\":3890:3899   */\n      dup12\n        /* \"#utility.yul\":3886:3908   */\n      add\n        /* \"#utility.yul\":3865:3918   */\n      tag_192\n      jump\t// in\n    tag_223:\n        /* \"#utility.yul\":3855:3918   */\n      swap7\n      pop\n        /* \"#utility.yul\":3810:3928   */\n      pop\n        /* \"#utility.yul\":3995:3997   */\n      0x40\n        /* \"#utility.yul\":3984:3993   */\n      dup9\n        /* \"#utility.yul\":3980:3998   */\n      add\n        /* \"#utility.yul\":3967:3999   */\n      calldataload\n        /* \"#utility.yul\":4026:4044   */\n      0xffffffffffffffff\n        /* \"#utility.yul\":4018:4024   */\n      dup2\n        /* \"#utility.yul\":4015:4045   */\n      gt\n        /* \"#utility.yul\":4012:4129   */\n      iszero\n      tag_224\n      jumpi\n        /* \"#utility.yul\":4048:4127   */\n      tag_225\n      tag_208\n      jump\t// in\n    tag_225:\n        /* \"#utility.yul\":4012:4129   */\n    tag_224:\n        /* \"#utility.yul\":4153:4216   */\n      tag_226\n        /* \"#utility.yul\":4208:4215   */\n      dup11\n        /* \"#utility.yul\":4199:4205   */\n      dup3\n        /* \"#utility.yul\":4188:4197   */\n      dup12\n        /* \"#utility.yul\":4184:4206   */\n      add\n        /* \"#utility.yul\":4153:4216   */\n      tag_186\n      jump\t// in\n    tag_226:\n        /* \"#utility.yul\":4143:4216   */\n      swap6\n      pop\n        /* \"#utility.yul\":3938:4226   */\n      pop\n        /* \"#utility.yul\":4293:4295   */\n      0x60\n        /* \"#utility.yul\":4282:4291   */\n      dup9\n        /* \"#utility.yul\":4278:4296   */\n      add\n        /* \"#utility.yul\":4265:4297   */\n      calldataload\n        /* \"#utility.yul\":4324:4342   */\n      0xffffffffffffffff\n        /* \"#utility.yul\":4316:4322   */\n      dup2\n        /* \"#utility.yul\":4313:4343   */\n      gt\n        /* \"#utility.yul\":4310:4427   */\n      iszero\n      tag_227\n      jumpi\n        /* \"#utility.yul\":4346:4425   */\n      tag_228\n      tag_208\n      jump\t// in\n    tag_228:\n        /* \"#utility.yul\":4310:4427   */\n    tag_227:\n        /* \"#utility.yul\":4451:4514   */\n      tag_229\n        /* \"#utility.yul\":4506:4513   */\n      dup11\n        /* \"#utility.yul\":4497:4503   */\n      dup3\n        /* \"#utility.yul\":4486:4495   */\n      dup12\n        /* \"#utility.yul\":4482:4504   */\n      add\n        /* \"#utility.yul\":4451:4514   */\n      tag_186\n      jump\t// in\n    tag_229:\n        /* \"#utility.yul\":4441:4514   */\n      swap5\n      pop\n        /* \"#utility.yul\":4236:4524   */\n      pop\n        /* \"#utility.yul\":4591:4594   */\n      0x80\n        /* \"#utility.yul\":4580:4589   */\n      dup9\n        /* \"#utility.yul\":4576:4595   */\n      add\n        /* \"#utility.yul\":4563:4596   */\n      calldataload\n        /* \"#utility.yul\":4623:4641   */\n      0xffffffffffffffff\n        /* \"#utility.yul\":4615:4621   */\n      dup2\n        /* \"#utility.yul\":4612:4642   */\n      gt\n        /* \"#utility.yul\":4609:4726   */\n      iszero\n      tag_230\n      jumpi\n        /* \"#utility.yul\":4645:4724   */\n      tag_231\n      tag_208\n      jump\t// in\n    tag_231:\n        /* \"#utility.yul\":4609:4726   */\n    tag_230:\n        /* \"#utility.yul\":4750:4813   */\n      tag_232\n        /* \"#utility.yul\":4805:4812   */\n      dup11\n        /* \"#utility.yul\":4796:4802   */\n      dup3\n        /* \"#utility.yul\":4785:4794   */\n      dup12\n        /* \"#utility.yul\":4781:4803   */\n      add\n        /* \"#utility.yul\":4750:4813   */\n      tag_186\n      jump\t// in\n    tag_232:\n        /* \"#utility.yul\":4740:4813   */\n      swap4\n      pop\n        /* \"#utility.yul\":4534:4823   */\n      pop\n        /* \"#utility.yul\":4862:4865   */\n      0xa0\n        /* \"#utility.yul\":4889:4941   */\n      tag_233\n        /* \"#utility.yul\":4933:4940   */\n      dup11\n        /* \"#utility.yul\":4924:4930   */\n      dup3\n        /* \"#utility.yul\":4913:4922   */\n      dup12\n        /* \"#utility.yul\":4909:4931   */\n      add\n        /* \"#utility.yul\":4889:4941   */\n      tag_182\n      jump\t// in\n    tag_233:\n        /* \"#utility.yul\":4879:4941   */\n      swap3\n      pop\n        /* \"#utility.yul\":4833:4951   */\n      pop\n        /* \"#utility.yul\":4990:4993   */\n      0xc0\n        /* \"#utility.yul\":5017:5070   */\n      tag_234\n        /* \"#utility.yul\":5062:5069   */\n      dup11\n        /* \"#utility.yul\":5053:5059   */\n      dup3\n        /* \"#utility.yul\":5042:5051   */\n      dup12\n        /* \"#utility.yul\":5038:5060   */\n      add\n        /* \"#utility.yul\":5017:5070   */\n      tag_192\n      jump\t// in\n    tag_234:\n        /* \"#utility.yul\":5007:5070   */\n      swap2\n      pop\n        /* \"#utility.yul\":4961:5080   */\n      pop\n        /* \"#utility.yul\":3346:5087   */\n      swap3\n      swap6\n      swap9\n      swap2\n      swap5\n      swap8\n      pop\n      swap3\n      swap6\n      pop\n      jump\t// out\n        /* \"#utility.yul\":5093:5235   */\n    tag_235:\n        /* \"#utility.yul\":5196:5228   */\n      tag_237\n        /* \"#utility.yul\":5222:5227   */\n      dup2\n        /* \"#utility.yul\":5196:5228   */\n      tag_238\n      jump\t// in\n    tag_237:\n        /* \"#utility.yul\":5191:5194   */\n      dup3\n        /* \"#utility.yul\":5184:5229   */\n      mstore\n        /* \"#utility.yul\":5093:5235   */\n      pop\n      pop\n      jump\t// out\n        /* \"#utility.yul\":5241:5350   */\n    tag_239:\n        /* \"#utility.yul\":5322:5343   */\n      tag_241\n        /* \"#utility.yul\":5337:5342   */\n      dup2\n        /* \"#utility.yul\":5322:5343   */\n      tag_242\n      jump\t// in\n    tag_241:\n        /* \"#utility.yul\":5317:5320   */\n      dup3\n        /* \"#utility.yul\":5310:5344   */\n      mstore\n        /* \"#utility.yul\":5241:5350   */\n      pop\n      pop\n      jump\t// out\n        /* \"#utility.yul\":5356:5497   */\n    tag_243:\n        /* \"#utility.yul\":5448:5490   */\n      tag_245\n        /* \"#utility.yul\":5484:5489   */\n      dup2\n        /* \"#utility.yul\":5448:5490   */\n      tag_246\n      jump\t// in\n    tag_245:\n        /* \"#utility.yul\":5443:5446   */\n      dup3\n        /* \"#utility.yul\":5436:5491   */\n      mstore\n        /* \"#utility.yul\":5356:5497   */\n      pop\n      pop\n      jump\t// out\n        /* \"#utility.yul\":5503:5867   */\n    tag_247:\n        /* \"#utility.yul\":5591:5594   */\n      0x00\n        /* \"#utility.yul\":5619:5658   */\n      tag_249\n        /* \"#utility.yul\":5652:5657   */\n      dup3\n        /* \"#utility.yul\":5619:5658   */\n      tag_250\n      jump\t// in\n    tag_249:\n        /* \"#utility.yul\":5674:5745   */\n      tag_251\n        /* \"#utility.yul\":5738:5744   */\n      dup2\n        /* \"#utility.yul\":5733:5736   */\n      dup6\n        /* \"#utility.yul\":5674:5745   */\n      tag_252\n      jump\t// in\n    tag_251:\n        /* \"#utility.yul\":5667:5745   */\n      swap4\n      pop\n        /* \"#utility.yul\":5754:5806   */\n      tag_253\n        /* \"#utility.yul\":5799:5805   */\n      dup2\n        /* \"#utility.yul\":5794:5797   */\n      dup6\n        /* \"#utility.yul\":5787:5791   */\n      0x20\n        /* \"#utility.yul\":5780:5785   */\n      dup7\n        /* \"#utility.yul\":5776:5792   */\n      add\n        /* \"#utility.yul\":5754:5806   */\n      tag_254\n      jump\t// in\n    tag_253:\n        /* \"#utility.yul\":5831:5860   */\n      tag_255\n        /* \"#utility.yul\":5853:5859   */\n      dup2\n        /* \"#utility.yul\":5831:5860   */\n      tag_256\n      jump\t// in\n    tag_255:\n        /* \"#utility.yul\":5826:5829   */\n      dup5\n        /* \"#utility.yul\":5822:5861   */\n      add\n        /* \"#utility.yul\":5815:5861   */\n      swap2\n      pop\n        /* \"#utility.yul\":5595:5867   */\n      pop\n        /* \"#utility.yul\":5503:5867   */\n      swap3\n      swap2\n      pop\n      pop\n      jump\t// out\n        /* \"#utility.yul\":5873:6239   */\n    tag_257:\n        /* \"#utility.yul\":6015:6018   */\n      0x00\n        /* \"#utility.yul\":6036:6103   */\n      tag_259\n        /* \"#utility.yul\":6100:6102   */\n      0x19\n        /* \"#utility.yul\":6095:6098   */\n      dup4\n        /* \"#utility.yul\":6036:6103   */\n      tag_252\n      jump\t// in\n    tag_259:\n        /* \"#utility.yul\":6029:6103   */\n      swap2\n      pop\n        /* \"#utility.yul\":6112:6205   */\n      tag_260\n        /* \"#utility.yul\":6201:6204   */\n      dup3\n        /* \"#utility.yul\":6112:6205   */\n      tag_261\n      jump\t// in\n    tag_260:\n        /* \"#utility.yul\":6230:6232   */\n      0x20\n        /* \"#utility.yul\":6225:6228   */\n      dup3\n        /* \"#utility.yul\":6221:6233   */\n      add\n        /* \"#utility.yul\":6214:6233   */\n      swap1\n      pop\n        /* \"#utility.yul\":5873:6239   */\n      swap2\n      swap1\n      pop\n      jump\t// out\n        /* \"#utility.yul\":6245:6611   */\n    tag_262:\n        /* \"#utility.yul\":6387:6390   */\n      0x00\n        /* \"#utility.yul\":6408:6475   */\n      tag_264\n        /* \"#utility.yul\":6472:6474   */\n      0x1e\n        /* \"#utility.yul\":6467:6470   */\n      dup4\n        /* \"#utility.yul\":6408:6475   */\n      tag_252\n      jump\t// in\n    tag_264:\n        /* \"#utility.yul\":6401:6475   */\n      swap2\n      pop\n        /* \"#utility.yul\":6484:6577   */\n      tag_265\n        /* \"#utility.yul\":6573:6576   */\n      dup3\n        /* \"#utility.yul\":6484:6577   */\n      tag_266\n      jump\t// in\n    tag_265:\n        /* \"#utility.yul\":6602:6604   */\n      0x20\n        /* \"#utility.yul\":6597:6600   */\n      dup3\n        /* \"#utility.yul\":6593:6605   */\n      add\n        /* \"#utility.yul\":6586:6605   */\n      swap1\n      pop\n        /* \"#utility.yul\":6245:6611   */\n      swap2\n      swap1\n      pop\n      jump\t// out\n        /* \"#utility.yul\":6617:6735   */\n    tag_267:\n        /* \"#utility.yul\":6704:6728   */\n      tag_269\n        /* \"#utility.yul\":6722:6727   */\n      dup2\n        /* \"#utility.yul\":6704:6728   */\n      tag_270\n      jump\t// in\n    tag_269:\n        /* \"#utility.yul\":6699:6702   */\n      dup3\n        /* \"#utility.yul\":6692:6729   */\n      mstore\n        /* \"#utility.yul\":6617:6735   */\n      pop\n      pop\n      jump\t// out\n        /* \"#utility.yul\":6741:6995   */\n    tag_54:\n        /* \"#utility.yul\":6850:6854   */\n      0x00\n        /* \"#utility.yul\":6888:6890   */\n      0x20\n        /* \"#utility.yul\":6877:6886   */\n      dup3\n        /* \"#utility.yul\":6873:6891   */\n      add\n        /* \"#utility.yul\":6865:6891   */\n      swap1\n      pop\n        /* \"#utility.yul\":6901:6988   */\n      tag_272\n        /* \"#utility.yul\":6985:6986   */\n      0x00\n        /* \"#utility.yul\":6974:6983   */\n      dup4\n        /* \"#utility.yul\":6970:6987   */\n      add\n        /* \"#utility.yul\":6961:6967   */\n      dup5\n        /* \"#utility.yul\":6901:6988   */\n      tag_235\n      jump\t// in\n    tag_272:\n        /* \"#utility.yul\":6741:6995   */\n      swap3\n      swap2\n      pop\n      pop\n      jump\t// out\n        /* \"#utility.yul\":7001:7211   */\n    tag_36:\n        /* \"#utility.yul\":7088:7092   */\n      0x00\n        /* \"#utility.yul\":7126:7128   */\n      0x20\n        /* \"#utility.yul\":7115:7124   */\n      dup3\n        /* \"#utility.yul\":7111:7129   */\n      add\n        /* \"#utility.yul\":7103:7129   */\n      swap1\n      pop\n        /* \"#utility.yul\":7139:7204   */\n      tag_274\n        /* \"#utility.yul\":7201:7202   */\n      0x00\n        /* \"#utility.yul\":7190:7199   */\n      dup4\n        /* \"#utility.yul\":7186:7203   */\n      add\n        /* \"#utility.yul\":7177:7183   */\n      dup5\n        /* \"#utility.yul\":7139:7204   */\n      tag_239\n      jump\t// in\n    tag_274:\n        /* \"#utility.yul\":7001:7211   */\n      swap3\n      swap2\n      pop\n      pop\n      jump\t// out\n        /* \"#utility.yul\":7217:7650   */\n    tag_63:\n        /* \"#utility.yul\":7363:7367   */\n      0x00\n        /* \"#utility.yul\":7401:7403   */\n      0x40\n        /* \"#utility.yul\":7390:7399   */\n      dup3\n        /* \"#utility.yul\":7386:7404   */\n      add\n        /* \"#utility.yul\":7378:7404   */\n      swap1\n      pop\n        /* \"#utility.yul\":7414:7490   */\n      tag_276\n        /* \"#utility.yul\":7487:7488   */\n      0x00\n        /* \"#utility.yul\":7476:7485   */\n      dup4\n        /* \"#utility.yul\":7472:7489   */\n      add\n        /* \"#utility.yul\":7463:7469   */\n      dup6\n        /* \"#utility.yul\":7414:7490   */\n      tag_243\n      jump\t// in\n    tag_276:\n        /* \"#utility.yul\":7537:7546   */\n      dup2\n        /* \"#utility.yul\":7531:7535   */\n      dup2\n        /* \"#utility.yul\":7527:7547   */\n      sub\n        /* \"#utility.yul\":7522:7524   */\n      0x20\n        /* \"#utility.yul\":7511:7520   */\n      dup4\n        /* \"#utility.yul\":7507:7525   */\n      add\n        /* \"#utility.yul\":7500:7548   */\n      mstore\n        /* \"#utility.yul\":7565:7643   */\n      tag_277\n        /* \"#utility.yul\":7638:7642   */\n      dup2\n        /* \"#utility.yul\":7629:7635   */\n      dup5\n        /* \"#utility.yul\":7565:7643   */\n      tag_247\n      jump\t// in\n    tag_277:\n        /* \"#utility.yul\":7557:7643   */\n      swap1\n      pop\n        /* \"#utility.yul\":7217:7650   */\n      swap4\n      swap3\n      pop\n      pop\n      pop\n      jump\t// out\n        /* \"#utility.yul\":7656:7969   */\n    tag_24:\n        /* \"#utility.yul\":7769:7773   */\n      0x00\n        /* \"#utility.yul\":7807:7809   */\n      0x20\n        /* \"#utility.yul\":7796:7805   */\n      dup3\n        /* \"#utility.yul\":7792:7810   */\n      add\n        /* \"#utility.yul\":7784:7810   */\n      swap1\n      pop\n        /* \"#utility.yul\":7856:7865   */\n      dup2\n        /* \"#utility.yul\":7850:7854   */\n      dup2\n        /* \"#utility.yul\":7846:7866   */\n      sub\n        /* \"#utility.yul\":7842:7843   */\n      0x00\n        /* \"#utility.yul\":7831:7840   */\n      dup4\n        /* \"#utility.yul\":7827:7844   */\n      add\n        /* \"#utility.yul\":7820:7867   */\n      mstore\n        /* \"#utility.yul\":7884:7962   */\n      tag_279\n        /* \"#utility.yul\":7957:7961   */\n      dup2\n        /* \"#utility.yul\":7948:7954   */\n      dup5\n        /* \"#utility.yul\":7884:7962   */\n      tag_247\n      jump\t// in\n    tag_279:\n        /* \"#utility.yul\":7876:7962   */\n      swap1\n      pop\n        /* \"#utility.yul\":7656:7969   */\n      swap3\n      swap2\n      pop\n      pop\n      jump\t// out\n        /* \"#utility.yul\":7975:8394   */\n    tag_83:\n        /* \"#utility.yul\":8141:8145   */\n      0x00\n        /* \"#utility.yul\":8179:8181   */\n      0x20\n        /* \"#utility.yul\":8168:8177   */\n      dup3\n        /* \"#utility.yul\":8164:8182   */\n      add\n        /* \"#utility.yul\":8156:8182   */\n      swap1\n      pop\n        /* \"#utility.yul\":8228:8237   */\n      dup2\n        /* \"#utility.yul\":8222:8226   */\n      dup2\n        /* \"#utility.yul\":8218:8238   */\n      sub\n        /* \"#utility.yul\":8214:8215   */\n      0x00\n        /* \"#utility.yul\":8203:8212   */\n      dup4\n        /* \"#utility.yul\":8199:8216   */\n      add\n        /* \"#utility.yul\":8192:8239   */\n      mstore\n        /* \"#utility.yul\":8256:8387   */\n      tag_281\n        /* \"#utility.yul\":8382:8386   */\n      dup2\n        /* \"#utility.yul\":8256:8387   */\n      tag_257\n      jump\t// in\n    tag_281:\n        /* \"#utility.yul\":8248:8387   */\n      swap1\n      pop\n        /* \"#utility.yul\":7975:8394   */\n      swap2\n      swap1\n      pop\n      jump\t// out\n        /* \"#utility.yul\":8400:8819   */\n    tag_124:\n        /* \"#utility.yul\":8566:8570   */\n      0x00\n        /* \"#utility.yul\":8604:8606   */\n      0x20\n        /* \"#utility.yul\":8593:8602   */\n      dup3\n        /* \"#utility.yul\":8589:8607   */\n      add\n        /* \"#utility.yul\":8581:8607   */\n      swap1\n      pop\n        /* \"#utility.yul\":8653:8662   */\n      dup2\n        /* \"#utility.yul\":8647:8651   */\n      dup2\n        /* \"#utility.yul\":8643:8663   */\n      sub\n        /* \"#utility.yul\":8639:8640   */\n      0x00\n        /* \"#utility.yul\":8628:8637   */\n      dup4\n        /* \"#utility.yul\":8624:8641   */\n      add\n        /* \"#utility.yul\":8617:8664   */\n      mstore\n        /* \"#utility.yul\":8681:8812   */\n      tag_283\n        /* \"#utility.yul\":8807:8811   */\n      dup2\n        /* \"#utility.yul\":8681:8812   */\n      tag_262\n      jump\t// in\n    tag_283:\n        /* \"#utility.yul\":8673:8812   */\n      swap1\n      pop\n        /* \"#utility.yul\":8400:8819   */\n      swap2\n      swap1\n      pop\n      jump\t// out\n        /* \"#utility.yul\":8825:9047   */\n    tag_69:\n        /* \"#utility.yul\":8918:8922   */\n      0x00\n        /* \"#utility.yul\":8956:8958   */\n      0x20\n        /* \"#utility.yul\":8945:8954   */\n      dup3\n        /* \"#utility.yul\":8941:8959   */\n      add\n        /* \"#utility.yul\":8933:8959   */\n      swap1\n      pop\n        /* \"#utility.yul\":8969:9040   */\n      tag_285\n        /* \"#utility.yul\":9037:9038   */\n      0x00\n        /* \"#utility.yul\":9026:9035   */\n      dup4\n        /* \"#utility.yul\":9022:9039   */\n      add\n        /* \"#utility.yul\":9013:9019   */\n      dup5\n        /* \"#utility.yul\":8969:9040   */\n      tag_267\n      jump\t// in\n    tag_285:\n        /* \"#utility.yul\":8825:9047   */\n      swap3\n      swap2\n      pop\n      pop\n      jump\t// out\n        /* \"#utility.yul\":9053:9182   */\n    tag_168:\n        /* \"#utility.yul\":9087:9093   */\n      0x00\n        /* \"#utility.yul\":9114:9134   */\n      tag_287\n      tag_288\n      jump\t// in\n    tag_287:\n        /* \"#utility.yul\":9104:9134   */\n      swap1\n      pop\n        /* \"#utility.yul\":9143:9176   */\n      tag_289\n        /* \"#utility.yul\":9171:9175   */\n      dup3\n        /* \"#utility.yul\":9163:9169   */\n      dup3\n        /* \"#utility.yul\":9143:9176   */\n      tag_290\n      jump\t// in\n    tag_289:\n        /* \"#utility.yul\":9053:9182   */\n      swap2\n      swap1\n      pop\n      jump\t// out\n        /* \"#utility.yul\":9188:9263   */\n    tag_288:\n        /* \"#utility.yul\":9221:9227   */\n      0x00\n        /* \"#utility.yul\":9254:9256   */\n      0x40\n        /* \"#utility.yul\":9248:9257   */\n      mload\n        /* \"#utility.yul\":9238:9257   */\n      swap1\n      pop\n        /* \"#utility.yul\":9188:9263   */\n      swap1\n      jump\t// out\n        /* \"#utility.yul\":9269:9577   */\n    tag_167:\n        /* \"#utility.yul\":9331:9335   */\n      0x00\n        /* \"#utility.yul\":9421:9439   */\n      0xffffffffffffffff\n        /* \"#utility.yul\":9413:9419   */\n      dup3\n        /* \"#utility.yul\":9410:9440   */\n      gt\n        /* \"#utility.yul\":9407:9463   */\n      iszero\n      tag_293\n      jumpi\n        /* \"#utility.yul\":9443:9461   */\n      tag_294\n      tag_295\n      jump\t// in\n    tag_294:\n        /* \"#utility.yul\":9407:9463   */\n    tag_293:\n        /* \"#utility.yul\":9481:9510   */\n      tag_296\n        /* \"#utility.yul\":9503:9509   */\n      dup3\n        /* \"#utility.yul\":9481:9510   */\n      tag_256\n      jump\t// in\n    tag_296:\n        /* \"#utility.yul\":9473:9510   */\n      swap1\n      pop\n        /* \"#utility.yul\":9565:9569   */\n      0x20\n        /* \"#utility.yul\":9559:9563   */\n      dup2\n        /* \"#utility.yul\":9555:9570   */\n      add\n        /* \"#utility.yul\":9547:9570   */\n      swap1\n      pop\n        /* \"#utility.yul\":9269:9577   */\n      swap2\n      swap1\n      pop\n      jump\t// out\n        /* \"#utility.yul\":9583:9682   */\n    tag_250:\n        /* \"#utility.yul\":9635:9641   */\n      0x00\n        /* \"#utility.yul\":9669:9674   */\n      dup2\n        /* \"#utility.yul\":9663:9675   */\n      mload\n        /* \"#utility.yul\":9653:9675   */\n      swap1\n      pop\n        /* \"#utility.yul\":9583:9682   */\n      swap2\n      swap1\n      pop\n      jump\t// out\n        /* \"#utility.yul\":9688:9857   */\n    tag_252:\n        /* \"#utility.yul\":9772:9783   */\n      0x00\n        /* \"#utility.yul\":9806:9812   */\n      dup3\n        /* \"#utility.yul\":9801:9804   */\n      dup3\n        /* \"#utility.yul\":9794:9813   */\n      mstore\n        /* \"#utility.yul\":9846:9850   */\n      0x20\n        /* \"#utility.yul\":9841:9844   */\n      dup3\n        /* \"#utility.yul\":9837:9851   */\n      add\n        /* \"#utility.yul\":9822:9851   */\n      swap1\n      pop\n        /* \"#utility.yul\":9688:9857   */\n      swap3\n      swap2\n      pop\n      pop\n      jump\t// out\n        /* \"#utility.yul\":9863:10168   */\n    tag_115:\n        /* \"#utility.yul\":9903:9906   */\n      0x00\n        /* \"#utility.yul\":9922:9942   */\n      tag_300\n        /* \"#utility.yul\":9940:9941   */\n      dup3\n        /* \"#utility.yul\":9922:9942   */\n      tag_270\n      jump\t// in\n    tag_300:\n        /* \"#utility.yul\":9917:9942   */\n      swap2\n      pop\n        /* \"#utility.yul\":9956:9976   */\n      tag_301\n        /* \"#utility.yul\":9974:9975   */\n      dup4\n        /* \"#utility.yul\":9956:9976   */\n      tag_270\n      jump\t// in\n    tag_301:\n        /* \"#utility.yul\":9951:9976   */\n      swap3\n      pop\n        /* \"#utility.yul\":10110:10111   */\n      dup3\n        /* \"#utility.yul\":10042:10108   */\n      0xffffffffffffffffffffffffffffffffffffffffffffffffffffffffffffffff\n        /* \"#utility.yul\":10038:10112   */\n      sub\n        /* \"#utility.yul\":10035:10036   */\n      dup3\n        /* \"#utility.yul\":10032:10113   */\n      gt\n        /* \"#utility.yul\":10029:10136   */\n      iszero\n      tag_302\n      jumpi\n        /* \"#utility.yul\":10116:10134   */\n      tag_303\n      tag_304\n      jump\t// in\n    tag_303:\n        /* \"#utility.yul\":10029:10136   */\n    tag_302:\n        /* \"#utility.yul\":10160:10161   */\n      dup3\n        /* \"#utility.yul\":10157:10158   */\n      dup3\n        /* \"#utility.yul\":10153:10162   */\n      add\n        /* \"#utility.yul\":10146:10162   */\n      swap1\n      pop\n        /* \"#utility.yul\":9863:10168   */\n      swap3\n      swap2\n      pop\n      pop\n      jump\t// out\n        /* \"#utility.yul\":10174:10359   */\n    tag_138:\n        /* \"#utility.yul\":10214:10215   */\n      0x00\n        /* \"#utility.yul\":10231:10251   */\n      tag_306\n        /* \"#utility.yul\":10249:10250   */\n      dup3\n        /* \"#utility.yul\":10231:10251   */\n      tag_270\n      jump\t// in\n    tag_306:\n        /* \"#utility.yul\":10226:10251   */\n      swap2\n      pop\n        /* \"#utility.yul\":10265:10285   */\n      tag_307\n        /* \"#utility.yul\":10283:10284   */\n      dup4\n        /* \"#utility.yul\":10265:10285   */\n      tag_270\n      jump\t// in\n    tag_307:\n        /* \"#utility.yul\":10260:10285   */\n      swap3\n      pop\n        /* \"#utility.yul\":10304:10305   */\n      dup3\n        /* \"#utility.yul\":10294:10329   */\n      tag_308\n      jumpi\n        /* \"#utility.yul\":10309:10327   */\n      tag_309\n      tag_310\n      jump\t// in\n    tag_309:\n        /* \"#utility.yul\":10294:10329   */\n    tag_308:\n        /* \"#utility.yul\":10351:10352   */\n      dup3\n        /* \"#utility.yul\":10348:10349   */\n      dup3\n        /* \"#utility.yul\":10344:10353   */\n      div\n        /* \"#utility.yul\":10339:10353   */\n      swap1\n      pop\n        /* \"#utility.yul\":10174:10359   */\n      swap3\n      swap2\n      pop\n      pop\n      jump\t// out\n        /* \"#utility.yul\":10365:10556   */\n    tag_113:\n        /* \"#utility.yul\":10405:10409   */\n      0x00\n        /* \"#utility.yul\":10425:10445   */\n      tag_312\n        /* \"#utility.yul\":10443:10444   */\n      dup3\n        /* \"#utility.yul\":10425:10445   */\n      tag_270\n      jump\t// in\n    tag_312:\n        /* \"#utility.yul\":10420:10445   */\n      swap2\n      pop\n        /* \"#utility.yul\":10459:10479   */\n      tag_313\n        /* \"#utility.yul\":10477:10478   */\n      dup4\n        /* \"#utility.yul\":10459:10479   */\n      tag_270\n      jump\t// in\n    tag_313:\n        /* \"#utility.yul\":10454:10479   */\n      swap3\n      pop\n        /* \"#utility.yul\":10498:10499   */\n      dup3\n        /* \"#utility.yul\":10495:10496   */\n      dup3\n        /* \"#utility.yul\":10492:10500   */\n      lt\n        /* \"#utility.yul\":10489:10523   */\n      iszero\n      tag_314\n      jumpi\n        /* \"#utility.yul\":10503:10521   */\n      tag_315\n      tag_304\n      jump\t// in\n    tag_315:\n        /* \"#utility.yul\":10489:10523   */\n    tag_314:\n        /* \"#utility.yul\":10548:10549   */\n      dup3\n        /* \"#utility.yul\":10545:10546   */\n      dup3\n        /* \"#utility.yul\":10541:10550   */\n      sub\n        /* \"#utility.yul\":10533:10550   */\n      swap1\n      pop\n        /* \"#utility.yul\":10365:10556   */\n      swap3\n      swap2\n      pop\n      pop\n      jump\t// out\n        /* \"#utility.yul\":10562:10658   */\n    tag_316:\n        /* \"#utility.yul\":10599:10606   */\n      0x00\n        /* \"#utility.yul\":10628:10652   */\n      tag_318\n        /* \"#utility.yul\":10646:10651   */\n      dup3\n        /* \"#utility.yul\":10628:10652   */\n      tag_319\n      jump\t// in\n    tag_318:\n        /* \"#utility.yul\":10617:10652   */\n      swap1\n      pop\n        /* \"#utility.yul\":10562:10658   */\n      swap2\n      swap1\n      pop\n      jump\t// out\n        /* \"#utility.yul\":10664:10768   */\n    tag_238:\n        /* \"#utility.yul\":10709:10716   */\n      0x00\n        /* \"#utility.yul\":10738:10762   */\n      tag_321\n        /* \"#utility.yul\":10756:10761   */\n      dup3\n        /* \"#utility.yul\":10738:10762   */\n      tag_319\n      jump\t// in\n    tag_321:\n        /* \"#utility.yul\":10727:10762   */\n      swap1\n      pop\n        /* \"#utility.yul\":10664:10768   */\n      swap2\n      swap1\n      pop\n      jump\t// out\n        /* \"#utility.yul\":10774:10864   */\n    tag_242:\n        /* \"#utility.yul\":10808:10815   */\n      0x00\n        /* \"#utility.yul\":10851:10856   */\n      dup2\n        /* \"#utility.yul\":10844:10857   */\n      iszero\n        /* \"#utility.yul\":10837:10858   */\n      iszero\n        /* \"#utility.yul\":10826:10858   */\n      swap1\n      pop\n        /* \"#utility.yul\":10774:10864   */\n      swap2\n      swap1\n      pop\n      jump\t// out\n        /* \"#utility.yul\":10870:10995   */\n    tag_323:\n        /* \"#utility.yul\":10914:10921   */\n      0x00\n        /* \"#utility.yul\":10943:10948   */\n      dup2\n        /* \"#utility.yul\":10932:10948   */\n      swap1\n      pop\n        /* \"#utility.yul\":10949:10989   */\n      tag_325\n        /* \"#utility.yul\":10983:10988   */\n      dup3\n        /* \"#utility.yul\":10949:10989   */\n      tag_326\n      jump\t// in\n    tag_325:\n        /* \"#utility.yul\":10870:10995   */\n      swap2\n      swap1\n      pop\n      jump\t// out\n        /* \"#utility.yul\":11001:11077   */\n    tag_327:\n        /* \"#utility.yul\":11037:11044   */\n      0x00\n        /* \"#utility.yul\":11066:11071   */\n      dup2\n        /* \"#utility.yul\":11055:11071   */\n      swap1\n      pop\n        /* \"#utility.yul\":11001:11077   */\n      swap2\n      swap1\n      pop\n      jump\t// out\n        /* \"#utility.yul\":11083:11209   */\n    tag_319:\n        /* \"#utility.yul\":11120:11127   */\n      0x00\n        /* \"#utility.yul\":11160:11202   */\n      0xffffffffffffffffffffffffffffffffffffffff\n        /* \"#utility.yul\":11153:11158   */\n      dup3\n        /* \"#utility.yul\":11149:11203   */\n      and\n        /* \"#utility.yul\":11138:11203   */\n      swap1\n      pop\n        /* \"#utility.yul\":11083:11209   */\n      swap2\n      swap1\n      pop\n      jump\t// out\n        /* \"#utility.yul\":11215:11292   */\n    tag_270:\n        /* \"#utility.yul\":11252:11259   */\n      0x00\n        /* \"#utility.yul\":11281:11286   */\n      dup2\n        /* \"#utility.yul\":11270:11286   */\n      swap1\n      pop\n        /* \"#utility.yul\":11215:11292   */\n      swap2\n      swap1\n      pop\n      jump\t// out\n        /* \"#utility.yul\":11298:11423   */\n    tag_246:\n        /* \"#utility.yul\":11353:11362   */\n      0x00\n        /* \"#utility.yul\":11386:11417   */\n      tag_332\n        /* \"#utility.yul\":11411:11416   */\n      dup3\n        /* \"#utility.yul\":11386:11417   */\n      tag_323\n      jump\t// in\n    tag_332:\n        /* \"#utility.yul\":11373:11417   */\n      swap1\n      pop\n        /* \"#utility.yul\":11298:11423   */\n      swap2\n      swap1\n      pop\n      jump\t// out\n        /* \"#utility.yul\":11429:11583   */\n    tag_173:\n        /* \"#utility.yul\":11513:11519   */\n      dup3\n        /* \"#utility.yul\":11508:11511   */\n      dup2\n        /* \"#utility.yul\":11503:11506   */\n      dup4\n        /* \"#utility.yul\":11490:11520   */\n      calldatacopy\n        /* \"#utility.yul\":11575:11576   */\n      0x00\n        /* \"#utility.yul\":11566:11572   */\n      dup4\n        /* \"#utility.yul\":11561:11564   */\n      dup4\n        /* \"#utility.yul\":11557:11573   */\n      add\n        /* \"#utility.yul\":11550:11577   */\n      mstore\n        /* \"#utility.yul\":11429:11583   */\n      pop\n      pop\n      pop\n      jump\t// out\n        /* \"#utility.yul\":11589:11896   */\n    tag_254:\n        /* \"#utility.yul\":11657:11658   */\n      0x00\n        /* \"#utility.yul\":11667:11780   */\n    tag_335:\n        /* \"#utility.yul\":11681:11687   */\n      dup4\n        /* \"#utility.yul\":11678:11679   */\n      dup2\n        /* \"#utility.yul\":11675:11688   */\n      lt\n        /* \"#utility.yul\":11667:11780   */\n      iszero\n      tag_337\n      jumpi\n        /* \"#utility.yul\":11766:11767   */\n      dup1\n        /* \"#utility.yul\":11761:11764   */\n      dup3\n        /* \"#utility.yul\":11757:11768   */\n      add\n        /* \"#utility.yul\":11751:11769   */\n      mload\n        /* \"#utility.yul\":11747:11748   */\n      dup2\n        /* \"#utility.yul\":11742:11745   */\n      dup5\n        /* \"#utility.yul\":11738:11749   */\n      add\n        /* \"#utility.yul\":11731:11770   */\n      mstore\n        /* \"#utility.yul\":11703:11705   */\n      0x20\n        /* \"#utility.yul\":11700:11701   */\n      dup2\n        /* \"#utility.yul\":11696:11706   */\n      add\n        /* \"#utility.yul\":11691:11706   */\n      swap1\n      pop\n        /* \"#utility.yul\":11667:11780   */\n      jump(tag_335)\n    tag_337:\n        /* \"#utility.yul\":11798:11804   */\n      dup4\n        /* \"#utility.yul\":11795:11796   */\n      dup2\n        /* \"#utility.yul\":11792:11805   */\n      gt\n        /* \"#utility.yul\":11789:11890   */\n      iszero\n      tag_338\n      jumpi\n        /* \"#utility.yul\":11878:11879   */\n      0x00\n        /* \"#utility.yul\":11869:11875   */\n      dup5\n        /* \"#utility.yul\":11864:11867   */\n      dup5\n        /* \"#utility.yul\":11860:11876   */\n      add\n        /* \"#utility.yul\":11853:11880   */\n      mstore\n        /* \"#utility.yul\":11789:11890   */\n    tag_338:\n        /* \"#utility.yul\":11638:11896   */\n      pop\n        /* \"#utility.yul\":11589:11896   */\n      pop\n      pop\n      pop\n      jump\t// out\n        /* \"#utility.yul\":11902:12222   */\n    tag_86:\n        /* \"#utility.yul\":11946:11952   */\n      0x00\n        /* \"#utility.yul\":11983:11984   */\n      0x02\n        /* \"#utility.yul\":11977:11981   */\n      dup3\n        /* \"#utility.yul\":11973:11985   */\n      div\n        /* \"#utility.yul\":11963:11985   */\n      swap1\n      pop\n        /* \"#utility.yul\":12030:12031   */\n      0x01\n        /* \"#utility.yul\":12024:12028   */\n      dup3\n        /* \"#utility.yul\":12020:12032   */\n      and\n        /* \"#utility.yul\":12051:12069   */\n      dup1\n        /* \"#utility.yul\":12041:12122   */\n      tag_340\n      jumpi\n        /* \"#utility.yul\":12107:12111   */\n      0x7f\n        /* \"#utility.yul\":12099:12105   */\n      dup3\n        /* \"#utility.yul\":12095:12112   */\n      and\n        /* \"#utility.yul\":12085:12112   */\n      swap2\n      pop\n        /* \"#utility.yul\":12041:12122   */\n    tag_340:\n        /* \"#utility.yul\":12169:12171   */\n      0x20\n        /* \"#utility.yul\":12161:12167   */\n      dup3\n        /* \"#utility.yul\":12158:12172   */\n      lt\n        /* \"#utility.yul\":12138:12156   */\n      dup2\n        /* \"#utility.yul\":12135:12173   */\n      eq\n        /* \"#utility.yul\":12132:12216   */\n      iszero\n      tag_341\n      jumpi\n        /* \"#utility.yul\":12188:12206   */\n      tag_342\n      tag_343\n      jump\t// in\n    tag_342:\n        /* \"#utility.yul\":12132:12216   */\n    tag_341:\n        /* \"#utility.yul\":11953:12222   */\n      pop\n        /* \"#utility.yul\":11902:12222   */\n      swap2\n      swap1\n      pop\n      jump\t// out\n        /* \"#utility.yul\":12228:12509   */\n    tag_290:\n        /* \"#utility.yul\":12311:12338   */\n      tag_345\n        /* \"#utility.yul\":12333:12337   */\n      dup3\n        /* \"#utility.yul\":12311:12338   */\n      tag_256\n      jump\t// in\n    tag_345:\n        /* \"#utility.yul\":12303:12309   */\n      dup2\n        /* \"#utility.yul\":12299:12339   */\n      add\n        /* \"#utility.yul\":12441:12447   */\n      dup2\n        /* \"#utility.yul\":12429:12439   */\n      dup2\n        /* \"#utility.yul\":12426:12448   */\n      lt\n        /* \"#utility.yul\":12405:12423   */\n      0xffffffffffffffff\n        /* \"#utility.yul\":12393:12403   */\n      dup3\n        /* \"#utility.yul\":12390:12424   */\n      gt\n        /* \"#utility.yul\":12387:12449   */\n      or\n        /* \"#utility.yul\":12384:12472   */\n      iszero\n      tag_346\n      jumpi\n        /* \"#utility.yul\":12452:12470   */\n      tag_347\n      tag_295\n      jump\t// in\n    tag_347:\n        /* \"#utility.yul\":12384:12472   */\n    tag_346:\n        /* \"#utility.yul\":12492:12502   */\n      dup1\n        /* \"#utility.yul\":12488:12490   */\n      0x40\n        /* \"#utility.yul\":12481:12503   */\n      mstore\n        /* \"#utility.yul\":12271:12509   */\n      pop\n        /* \"#utility.yul\":12228:12509   */\n      pop\n      pop\n      jump\t// out\n        /* \"#utility.yul\":12515:12695   */\n    tag_304:\n        /* \"#utility.yul\":12563:12640   */\n      0x4e487b7100000000000000000000000000000000000000000000000000000000\n        /* \"#utility.yul\":12560:12561   */\n      0x00\n        /* \"#utility.yul\":12553:12641   */\n      mstore\n        /* \"#utility.yul\":12660:12664   */\n      0x11\n        /* \"#utility.yul\":12657:12658   */\n      0x04\n        /* \"#utility.yul\":12650:12665   */\n      mstore\n        /* \"#utility.yul\":12684:12688   */\n      0x24\n        /* \"#utility.yul\":12681:12682   */\n      0x00\n        /* \"#utility.yul\":12674:12689   */\n      revert\n        /* \"#utility.yul\":12701:12881   */\n    tag_310:\n        /* \"#utility.yul\":12749:12826   */\n      0x4e487b7100000000000000000000000000000000000000000000000000000000\n        /* \"#utility.yul\":12746:12747   */\n      0x00\n        /* \"#utility.yul\":12739:12827   */\n      mstore\n        /* \"#utility.yul\":12846:12850   */\n      0x12\n        /* \"#utility.yul\":12843:12844   */\n      0x04\n        /* \"#utility.yul\":12836:12851   */\n      mstore\n        /* \"#utility.yul\":12870:12874   */\n      0x24\n        /* \"#utility.yul\":12867:12868   */\n      0x00\n        /* \"#utility.yul\":12860:12875   */\n      revert\n        /* \"#utility.yul\":12887:13067   */\n    tag_78:\n        /* \"#utility.yul\":12935:13012   */\n      0x4e487b7100000000000000000000000000000000000000000000000000000000\n        /* \"#utility.yul\":12932:12933   */\n      0x00\n        /* \"#utility.yul\":12925:13013   */\n      mstore\n        /* \"#utility.yul\":13032:13036   */\n      0x21\n        /* \"#utility.yul\":13029:13030   */\n      0x04\n        /* \"#utility.yul\":13022:13037   */\n      mstore\n        /* \"#utility.yul\":13056:13060   */\n      0x24\n        /* \"#utility.yul\":13053:13054   */\n      0x00\n        /* \"#utility.yul\":13046:13061   */\n      revert\n        /* \"#utility.yul\":13073:13253   */\n    tag_343:\n        /* \"#utility.yul\":13121:13198   */\n      0x4e487b7100000000000000000000000000000000000000000000000000000000\n        /* \"#utility.yul\":13118:13119   */\n      0x00\n        /* \"#utility.yul\":13111:13199   */\n      mstore\n        /* \"#utility.yul\":13218:13222   */\n      0x22\n        /* \"#utility.yul\":13215:13216   */\n      0x04\n        /* \"#utility.yul\":13208:13223   */\n      mstore\n        /* \"#utility.yul\":13242:13246   */\n      0x24\n        /* \"#utility.yul\":13239:13240   */\n      0x00\n        /* \"#utility.yul\":13232:13247   */\n      revert\n        /* \"#utility.yul\":13259:13439   */\n    tag_295:\n        /* \"#utility.yul\":13307:13384   */\n      0x4e487b7100000000000000000000000000000000000000000000000000000000\n        /* \"#utility.yul\":13304:13305   */\n      0x00\n        /* \"#utility.yul\":13297:13385   */\n      mstore\n        /* \"#utility.yul\":13404:13408   */\n      0x41\n        /* \"#utility.yul\":13401:13402   */\n      0x04\n        /* \"#utility.yul\":13394:13409   */\n      mstore\n        /* \"#utility.yul\":13428:13432   */\n      0x24\n        /* \"#utility.yul\":13425:13426   */\n      0x00\n        /* \"#utility.yul\":13418:13433   */\n      revert\n        /* \"#utility.yul\":13445:13562   */\n    tag_190:\n        /* \"#utility.yul\":13554:13555   */\n      0x00\n        /* \"#utility.yul\":13551:13552   */\n      dup1\n        /* \"#utility.yul\":13544:13556   */\n      revert\n        /* \"#utility.yul\":13568:13685   */\n    tag_171:\n        /* \"#utility.yul\":13677:13678   */\n      0x00\n        /* \"#utility.yul\":13674:13675   */\n      dup1\n        /* \"#utility.yul\":13667:13679   */\n      revert\n        /* \"#utility.yul\":13691:13808   */\n    tag_208:\n        /* \"#utility.yul\":13800:13801   */\n      0x00\n        /* \"#utility.yul\":13797:13798   */\n      dup1\n        /* \"#utility.yul\":13790:13802   */\n      revert\n        /* \"#utility.yul\":13814:13931   */\n    tag_199:\n        /* \"#utility.yul\":13923:13924   */\n      0x00\n        /* \"#utility.yul\":13920:13921   */\n      dup1\n        /* \"#utility.yul\":13913:13925   */\n      revert\n        /* \"#utility.yul\":13937:14039   */\n    tag_256:\n        /* \"#utility.yul\":13978:13984   */\n      0x00\n        /* \"#utility.yul\":14029:14031   */\n      0x1f\n        /* \"#utility.yul\":14025:14032   */\n      not\n        /* \"#utility.yul\":14020:14022   */\n      0x1f\n        /* \"#utility.yul\":14013:14018   */\n      dup4\n        /* \"#utility.yul\":14009:14023   */\n      add\n        /* \"#utility.yul\":14005:14033   */\n      and\n        /* \"#utility.yul\":13995:14033   */\n      swap1\n      pop\n        /* \"#utility.yul\":13937:14039   */\n      swap2\n      swap1\n      pop\n      jump\t// out\n        /* \"#utility.yul\":14045:14220   */\n    tag_261:\n        /* \"#utility.yul\":14185:14212   */\n      0x63616c6c6572206973206e6f7420612070726f64756365722e00000000000000\n        /* \"#utility.yul\":14181:14182   */\n      0x00\n        /* \"#utility.yul\":14173:14179   */\n      dup3\n        /* \"#utility.yul\":14169:14183   */\n      add\n        /* \"#utility.yul\":14162:14213   */\n      mstore\n        /* \"#utility.yul\":14045:14220   */\n      pop\n      jump\t// out\n        /* \"#utility.yul\":14226:14406   */\n    tag_266:\n        /* \"#utility.yul\":14366:14398   */\n      0x63616c6c6572206973206e6f742074686520746f6b656e206f776e65722e0000\n        /* \"#utility.yul\":14362:14363   */\n      0x00\n        /* \"#utility.yul\":14354:14360   */\n      dup3\n        /* \"#utility.yul\":14350:14364   */\n      add\n        /* \"#utility.yul\":14343:14399   */\n      mstore\n        /* \"#utility.yul\":14226:14406   */\n      pop\n      jump\t// out\n        /* \"#utility.yul\":14412:14524   */\n    tag_326:\n        /* \"#utility.yul\":14492:14493   */\n      0x05\n        /* \"#utility.yul\":14485:14490   */\n      dup2\n        /* \"#utility.yul\":14482:14494   */\n      lt\n        /* \"#utility.yul\":14472:14518   */\n      tag_361\n      jumpi\n        /* \"#utility.yul\":14498:14516   */\n      tag_362\n      tag_78\n      jump\t// in\n    tag_362:\n        /* \"#utility.yul\":14472:14518   */\n    tag_361:\n        /* \"#utility.yul\":14412:14524   */\n      pop\n      jump\t// out\n        /* \"#utility.yul\":14530:14652   */\n    tag_177:\n        /* \"#utility.yul\":14603:14627   */\n      tag_364\n        /* \"#utility.yul\":14621:14626   */\n      dup2\n        /* \"#utility.yul\":14603:14627   */\n      tag_316\n      jump\t// in\n    tag_364:\n        /* \"#utility.yul\":14596:14601   */\n      dup2\n        /* \"#utility.yul\":14593:14628   */\n      eq\n        /* \"#utility.yul\":14583:14646   */\n      tag_365\n      jumpi\n        /* \"#utility.yul\":14642:14643   */\n      0x00\n        /* \"#utility.yul\":14639:14640   */\n      dup1\n        /* \"#utility.yul\":14632:14644   */\n      revert\n        /* \"#utility.yul\":14583:14646   */\n    tag_365:\n        /* \"#utility.yul\":14530:14652   */\n      pop\n      jump\t// out\n        /* \"#utility.yul\":14658:14764   */\n    tag_181:\n        /* \"#utility.yul\":14738:14739   */\n      0x05\n        /* \"#utility.yul\":14731:14736   */\n      dup2\n        /* \"#utility.yul\":14728:14740   */\n      lt\n        /* \"#utility.yul\":14718:14758   */\n      tag_367\n      jumpi\n        /* \"#utility.yul\":14754:14755   */\n      0x00\n        /* \"#utility.yul\":14751:14752   */\n      dup1\n        /* \"#utility.yul\":14744:14756   */\n      revert\n        /* \"#utility.yul\":14718:14758   */\n    tag_367:\n        /* \"#utility.yul\":14658:14764   */\n      pop\n      jump\t// out\n        /* \"#utility.yul\":14770:14890   */\n    tag_185:\n        /* \"#utility.yul\":14842:14865   */\n      tag_369\n        /* \"#utility.yul\":14859:14864   */\n      dup2\n        /* \"#utility.yul\":14842:14865   */\n      tag_327\n      jump\t// in\n    tag_369:\n        /* \"#utility.yul\":14835:14840   */\n      dup2\n        /* \"#utility.yul\":14832:14866   */\n      eq\n        /* \"#utility.yul\":14822:14884   */\n      tag_370\n      jumpi\n        /* \"#utility.yul\":14880:14881   */\n      0x00\n        /* \"#utility.yul\":14877:14878   */\n      dup1\n        /* \"#utility.yul\":14870:14882   */\n      revert\n        /* \"#utility.yul\":14822:14884   */\n    tag_370:\n        /* \"#utility.yul\":14770:14890   */\n      pop\n      jump\t// out\n        /* \"#utility.yul\":14896:15018   */\n    tag_195:\n        /* \"#utility.yul\":14969:14993   */\n      tag_372\n        /* \"#utility.yul\":14987:14992   */\n      dup2\n        /* \"#utility.yul\":14969:14993   */\n      tag_270\n      jump\t// in\n    tag_372:\n        /* \"#utility.yul\":14962:14967   */\n      dup2\n        /* \"#utility.yul\":14959:14994   */\n      eq\n        /* \"#utility.yul\":14949:15012   */\n      tag_373\n      jumpi\n        /* \"#utility.yul\":15008:15009   */\n      0x00\n        /* \"#utility.yul\":15005:15006   */\n      dup1\n        /* \"#utility.yul\":14998:15010   */\n      revert\n        /* \"#utility.yul\":14949:15012   */\n    tag_373:\n        /* \"#utility.yul\":14896:15018   */\n      pop\n      jump\t// out\n\n    auxdata: 0xa26469706673582212200c1313ac0674f4f5fe0f3c573c0f477917cc15606d693c4684fe292e601b0b3b64736f6c63430008070033\n}\n",
				"bytecode": {
					"linkReferences": {},
					"object": "60806040523480156200001157600080fd5b5060405162001c5638038062001c56833981810160405281019062000037919062000243565b82600090805190602001906200004f929190620000fe565b50816001908051906020019062000068929190620000fe565b508060038190555033600260006101000a81548173ffffffffffffffffffffffffffffffffffffffff021916908373ffffffffffffffffffffffffffffffffffffffff16021790555080600460003373ffffffffffffffffffffffffffffffffffffffff1673ffffffffffffffffffffffffffffffffffffffff1681526020019081526020016000208190555050505062000485565b8280546200010c906200037c565b90600052602060002090601f0160209004810192826200013057600085556200017c565b82601f106200014b57805160ff19168380011785556200017c565b828001600101855582156200017c579182015b828111156200017b5782518255916020019190600101906200015e565b5b5090506200018b91906200018f565b5090565b5b80821115620001aa57600081600090555060010162000190565b5090565b6000620001c5620001bf8462000306565b620002dd565b905082815260208101848484011115620001e457620001e36200044b565b5b620001f184828562000346565b509392505050565b600082601f83011262000211576200021062000446565b5b815162000223848260208601620001ae565b91505092915050565b6000815190506200023d816200046b565b92915050565b6000806000606084860312156200025f576200025e62000455565b5b600084015167ffffffffffffffff81111562000280576200027f62000450565b5b6200028e86828701620001f9565b935050602084015167ffffffffffffffff811115620002b257620002b162000450565b5b620002c086828701620001f9565b9250506040620002d3868287016200022c565b9150509250925092565b6000620002e9620002fc565b9050620002f78282620003b2565b919050565b6000604051905090565b600067ffffffffffffffff82111562000324576200032362000417565b5b6200032f826200045a565b9050602081019050919050565b6000819050919050565b60005b838110156200036657808201518184015260208101905062000349565b8381111562000376576000848401525b50505050565b600060028204905060018216806200039557607f821691505b60208210811415620003ac57620003ab620003e8565b5b50919050565b620003bd826200045a565b810181811067ffffffffffffffff82111715620003df57620003de62000417565b5b80604052505050565b7f4e487b7100000000000000000000000000000000000000000000000000000000600052602260045260246000fd5b7f4e487b7100000000000000000000000000000000000000000000000000000000600052604160045260246000fd5b600080fd5b600080fd5b600080fd5b600080fd5b6000601f19601f8301169050919050565b62000476816200033c565b81146200048257600080fd5b50565b6117c180620004956000396000f3fe6080604052600436106100a75760003560e01c8063a0712d6811610064578063a0712d68146101ba578063a3e67610146101e3578063a48217191461020e578063b292abf114610218578063cd0c589614610256578063eedc966a14610293576100a7565b806301f8938c146100ac57806306fdde03146100d557806340932fc21461010057806368cdafe61461012957806395d89b41146101665780639dc29fac14610191575b600080fd5b3480156100b857600080fd5b506100d360048036038101906100ce91906110d1565b6102d0565b005b3480156100e157600080fd5b506100ea610436565b6040516100f791906112e8565b60405180910390f35b34801561010c57600080fd5b5061012760048036038101906101229190610ff5565b6104c4565b005b34801561013557600080fd5b50610150600480360381019061014b9190611064565b6106fa565b60405161015d919061129d565b60405180910390f35b34801561017257600080fd5b5061017b610838565b60405161018891906112e8565b60405180910390f35b34801561019d57600080fd5b506101b860048036038101906101b39190611064565b6108c6565b005b3480156101c657600080fd5b506101e160048036038101906101dc91906110a4565b610a4f565b005b3480156101ef57600080fd5b506101f8610b51565b6040516102059190611282565b60405180910390f35b610216610b77565b005b34801561022457600080fd5b5061023f600480360381019061023a9190610fc8565b610ccf565b60405161024d9291906112b8565b60405180910390f35b34801561026257600080fd5b5061027d60048036038101906102789190610fc8565b610df7565b60405161028a919061134a565b60405180910390f35b34801561029f57600080fd5b506102ba60048036038101906102b59190610fc8565b610e18565b6040516102c7919061134a565b60405180910390f35b600060048111156102e4576102e361161e565b5b600560003373ffffffffffffffffffffffffffffffffffffffff1673ffffffffffffffffffffffffffffffffffffffff16815260200190815260200160002060000160009054906101000a900460ff1660048111156103465761034561161e565b5b14610386576040517f08c379a000000000000000000000000000000000000000000000000000000000815260040161037d9061130a565b60405180910390fd5b6000600660008981526020019081526020016000209050878160000181905550338160010160006101000a81548173ffffffffffffffffffffffffffffffffffffffff021916908373ffffffffffffffffffffffffffffffffffffffff160217905550338160020160006101000a81548173ffffffffffffffffffffffffffffffffffffffff021916908373ffffffffffffffffffffffffffffffffffffffff1602179055505050505050505050565b600080546104439061155d565b80601f016020809104026020016040519081016040528092919081815260200182805461046f9061155d565b80156104bc5780601f10610491576101008083540402835291602001916104bc565b820191906000526020600020905b81548152906001019060200180831161049f57829003601f168201915b505050505081565b6000600560008573ffffffffffffffffffffffffffffffffffffffff1673ffffffffffffffffffffffffffffffffffffffff1681526020019081526020016000206040518060600160405290816000820160009054906101000a900460ff1660048111156105355761053461161e565b5b60048111156105475761054661161e565b5b815260200160018201805461055b9061155d565b80601f01602080910402602001604051908101604052809291908181526020018280546105879061155d565b80156105d45780601f106105a9576101008083540402835291602001916105d4565b820191906000526020600020905b8154815290600101906020018083116105b757829003601f168201915b505050505081526020016002820160009054906101000a900460ff161515151581525050905082816000019060048111156106125761061161161e565b5b908160048111156106265761062561161e565b5b81525050818160200181905250600181604001901515908115158152505080600560008673ffffffffffffffffffffffffffffffffffffffff1673ffffffffffffffffffffffffffffffffffffffff16815260200190815260200160002060008201518160000160006101000a81548160ff021916908360048111156106af576106ae61161e565b5b021790555060208201518160010190805190602001906106d0929190610e61565b5060408201518160020160006101000a81548160ff02191690831515021790555090505050505050565b600081600460003373ffffffffffffffffffffffffffffffffffffffff1673ffffffffffffffffffffffffffffffffffffffff16815260200190815260200160002054101561074857600080fd5b600073ffffffffffffffffffffffffffffffffffffffff168373ffffffffffffffffffffffffffffffffffffffff16141561078257600080fd5b81600460003373ffffffffffffffffffffffffffffffffffffffff1673ffffffffffffffffffffffffffffffffffffffff16815260200190815260200160002060008282546107d1919061145e565b9250508190555081600460008573ffffffffffffffffffffffffffffffffffffffff1673ffffffffffffffffffffffffffffffffffffffff168152602001908152602001600020600082825461082791906113d7565b925050819055506001905092915050565b600180546108459061155d565b80601f01602080910402602001604051908101604052809291908181526020018280546108719061155d565b80156108be5780601f10610893576101008083540402835291602001916108be565b820191906000526020600020905b8154815290600101906020018083116108a157829003601f168201915b505050505081565b600260009054906101000a900473ffffffffffffffffffffffffffffffffffffffff1673ffffffffffffffffffffffffffffffffffffffff163373ffffffffffffffffffffffffffffffffffffffff1614610956576040517f08c379a000000000000000000000000000000000000000000000000000000000815260040161094d9061132a565b60405180910390fd5b600073ffffffffffffffffffffffffffffffffffffffff168273ffffffffffffffffffffffffffffffffffffffff16141561099057600080fd5b600460008373ffffffffffffffffffffffffffffffffffffffff1673ffffffffffffffffffffffffffffffffffffffff168152602001908152602001600020548111156109dc57600080fd5b80600360008282546109ee919061145e565b9250508190555080600460008473ffffffffffffffffffffffffffffffffffffffff1673ffffffffffffffffffffffffffffffffffffffff1681526020019081526020016000206000828254610a44919061145e565b925050819055505050565b600260009054906101000a900473ffffffffffffffffffffffffffffffffffffffff1673ffffffffffffffffffffffffffffffffffffffff163373ffffffffffffffffffffffffffffffffffffffff1614610adf576040517f08c379a0000000000000000000000000000000000000000000000000000000008152600401610ad69061132a565b60405180910390fd5b8060036000828254610af191906113d7565b9250508190555080600460003373ffffffffffffffffffffffffffffffffffffffff1673ffffffffffffffffffffffffffffffffffffffff1681526020019081526020016000206000828254610b4791906113d7565b9250508190555050565b600260009054906101000a900473ffffffffffffffffffffffffffffffffffffffff1681565b6000606434610b86919061142d565b905060003411610b9557600080fd5b600260009054906101000a900473ffffffffffffffffffffffffffffffffffffffff1673ffffffffffffffffffffffffffffffffffffffff166108fc349081150290604051600060405180830381858888f19350505050158015610bfd573d6000803e3d6000fd5b508060046000600260009054906101000a900473ffffffffffffffffffffffffffffffffffffffff1673ffffffffffffffffffffffffffffffffffffffff1673ffffffffffffffffffffffffffffffffffffffff1681526020019081526020016000206000828254610c6f919061145e565b9250508190555080600460003373ffffffffffffffffffffffffffffffffffffffff1673ffffffffffffffffffffffffffffffffffffffff1681526020019081526020016000206000828254610cc591906113d7565b9250508190555050565b60006060600560008473ffffffffffffffffffffffffffffffffffffffff1673ffffffffffffffffffffffffffffffffffffffff16815260200190815260200160002060000160009054906101000a900460ff169150600560008473ffffffffffffffffffffffffffffffffffffffff1673ffffffffffffffffffffffffffffffffffffffff1681526020019081526020016000206001018054610d729061155d565b80601f0160208091040260200160405190810160405280929190818152602001828054610d9e9061155d565b8015610deb5780601f10610dc057610100808354040283529160200191610deb565b820191906000526020600020905b815481529060010190602001808311610dce57829003601f168201915b50505050509050915091565b60008173ffffffffffffffffffffffffffffffffffffffff16319050919050565b6000600460008373ffffffffffffffffffffffffffffffffffffffff1673ffffffffffffffffffffffffffffffffffffffff168152602001908152602001600020549050919050565b828054610e6d9061155d565b90600052602060002090601f016020900481019282610e8f5760008555610ed6565b82601f10610ea857805160ff1916838001178555610ed6565b82800160010185558215610ed6579182015b82811115610ed5578251825591602001919060010190610eba565b5b509050610ee39190610ee7565b5090565b5b80821115610f00576000816000905550600101610ee8565b5090565b6000610f17610f128461138a565b611365565b905082815260208101848484011115610f3357610f326116b0565b5b610f3e84828561151b565b509392505050565b600081359050610f5581611736565b92915050565b600081359050610f6a8161174d565b92915050565b600081359050610f7f8161175d565b92915050565b600082601f830112610f9a57610f996116ab565b5b8135610faa848260208601610f04565b91505092915050565b600081359050610fc281611774565b92915050565b600060208284031215610fde57610fdd6116ba565b5b6000610fec84828501610f46565b91505092915050565b60008060006060848603121561100e5761100d6116ba565b5b600061101c86828701610f46565b935050602061102d86828701610f5b565b925050604084013567ffffffffffffffff81111561104e5761104d6116b5565b5b61105a86828701610f85565b9150509250925092565b6000806040838503121561107b5761107a6116ba565b5b600061108985828601610f46565b925050602061109a85828601610fb3565b9150509250929050565b6000602082840312156110ba576110b96116ba565b5b60006110c884828501610fb3565b91505092915050565b600080600080600080600060e0888a0312156110f0576110ef6116ba565b5b60006110fe8a828b01610fb3565b975050602061110f8a828b01610fb3565b965050604088013567ffffffffffffffff8111156111305761112f6116b5565b5b61113c8a828b01610f85565b955050606088013567ffffffffffffffff81111561115d5761115c6116b5565b5b6111698a828b01610f85565b945050608088013567ffffffffffffffff81111561118a576111896116b5565b5b6111968a828b01610f85565b93505060a06111a78a828b01610f70565b92505060c06111b88a828b01610fb3565b91505092959891949750929550565b6111d0816114a4565b82525050565b6111df816114b6565b82525050565b6111ee81611509565b82525050565b60006111ff826113bb565b61120981856113c6565b935061121981856020860161152a565b611222816116bf565b840191505092915050565b600061123a6019836113c6565b9150611245826116d0565b602082019050919050565b600061125d601e836113c6565b9150611268826116f9565b602082019050919050565b61127c816114ff565b82525050565b600060208201905061129760008301846111c7565b92915050565b60006020820190506112b260008301846111d6565b92915050565b60006040820190506112cd60008301856111e5565b81810360208301526112df81846111f4565b90509392505050565b6000602082019050818103600083015261130281846111f4565b905092915050565b600060208201905081810360008301526113238161122d565b9050919050565b6000602082019050818103600083015261134381611250565b9050919050565b600060208201905061135f6000830184611273565b92915050565b600061136f611380565b905061137b828261158f565b919050565b6000604051905090565b600067ffffffffffffffff8211156113a5576113a461167c565b5b6113ae826116bf565b9050602081019050919050565b600081519050919050565b600082825260208201905092915050565b60006113e2826114ff565b91506113ed836114ff565b9250827fffffffffffffffffffffffffffffffffffffffffffffffffffffffffffffffff03821115611422576114216115c0565b5b828201905092915050565b6000611438826114ff565b9150611443836114ff565b925082611453576114526115ef565b5b828204905092915050565b6000611469826114ff565b9150611474836114ff565b925082821015611487576114866115c0565b5b828203905092915050565b600061149d826114df565b9050919050565b60006114af826114df565b9050919050565b60008115159050919050565b60008190506114d082611722565b919050565b6000819050919050565b600073ffffffffffffffffffffffffffffffffffffffff82169050919050565b6000819050919050565b6000611514826114c2565b9050919050565b82818337600083830152505050565b60005b8381101561154857808201518184015260208101905061152d565b83811115611557576000848401525b50505050565b6000600282049050600182168061157557607f821691505b602082108114156115895761158861164d565b5b50919050565b611598826116bf565b810181811067ffffffffffffffff821117156115b7576115b661167c565b5b80604052505050565b7f4e487b7100000000000000000000000000000000000000000000000000000000600052601160045260246000fd5b7f4e487b7100000000000000000000000000000000000000000000000000000000600052601260045260246000fd5b7f4e487b7100000000000000000000000000000000000000000000000000000000600052602160045260246000fd5b7f4e487b7100000000000000000000000000000000000000000000000000000000600052602260045260246000fd5b7f4e487b7100000000000000000000000000000000000000000000000000000000600052604160045260246000fd5b600080fd5b600080fd5b600080fd5b600080fd5b6000601f19601f8301169050919050565b7f63616c6c6572206973206e6f7420612070726f64756365722e00000000000000600082015250565b7f63616c6c6572206973206e6f742074686520746f6b656e206f776e65722e0000600082015250565b600581106117335761173261161e565b5b50565b61173f81611492565b811461174a57600080fd5b50565b6005811061175a57600080fd5b50565b611766816114d5565b811461177157600080fd5b50565b61177d816114ff565b811461178857600080fd5b5056fea26469706673582212200c1313ac0674f4f5fe0f3c573c0f477917cc15606d693c4684fe292e601b0b3b64736f6c63430008070033",
					"opcodes": "PUSH1 0x80 PUSH1 0x40 MSTORE CALLVALUE DUP1 ISZERO PUSH3 0x11 JUMPI PUSH1 0x0 DUP1 REVERT JUMPDEST POP PUSH1 0x40 MLOAD PUSH3 0x1C56 CODESIZE SUB DUP1 PUSH3 0x1C56 DUP4 CODECOPY DUP2 DUP2 ADD PUSH1 0x40 MSTORE DUP2 ADD SWAP1 PUSH3 0x37 SWAP2 SWAP1 PUSH3 0x243 JUMP JUMPDEST DUP3 PUSH1 0x0 SWAP1 DUP1 MLOAD SWAP1 PUSH1 0x20 ADD SWAP1 PUSH3 0x4F SWAP3 SWAP2 SWAP1 PUSH3 0xFE JUMP JUMPDEST POP DUP2 PUSH1 0x1 SWAP1 DUP1 MLOAD SWAP1 PUSH1 0x20 ADD SWAP1 PUSH3 0x68 SWAP3 SWAP2 SWAP1 PUSH3 0xFE JUMP JUMPDEST POP DUP1 PUSH1 0x3 DUP2 SWAP1 SSTORE POP CALLER PUSH1 0x2 PUSH1 0x0 PUSH2 0x100 EXP DUP2 SLOAD DUP2 PUSH20 0xFFFFFFFFFFFFFFFFFFFFFFFFFFFFFFFFFFFFFFFF MUL NOT AND SWAP1 DUP4 PUSH20 0xFFFFFFFFFFFFFFFFFFFFFFFFFFFFFFFFFFFFFFFF AND MUL OR SWAP1 SSTORE POP DUP1 PUSH1 0x4 PUSH1 0x0 CALLER PUSH20 0xFFFFFFFFFFFFFFFFFFFFFFFFFFFFFFFFFFFFFFFF AND PUSH20 0xFFFFFFFFFFFFFFFFFFFFFFFFFFFFFFFFFFFFFFFF AND DUP2 MSTORE PUSH1 0x20 ADD SWAP1 DUP2 MSTORE PUSH1 0x20 ADD PUSH1 0x0 KECCAK256 DUP2 SWAP1 SSTORE POP POP POP POP PUSH3 0x485 JUMP JUMPDEST DUP3 DUP1 SLOAD PUSH3 0x10C SWAP1 PUSH3 0x37C JUMP JUMPDEST SWAP1 PUSH1 0x0 MSTORE PUSH1 0x20 PUSH1 0x0 KECCAK256 SWAP1 PUSH1 0x1F ADD PUSH1 0x20 SWAP1 DIV DUP2 ADD SWAP3 DUP3 PUSH3 0x130 JUMPI PUSH1 0x0 DUP6 SSTORE PUSH3 0x17C JUMP JUMPDEST DUP3 PUSH1 0x1F LT PUSH3 0x14B JUMPI DUP1 MLOAD PUSH1 0xFF NOT AND DUP4 DUP1 ADD OR DUP6 SSTORE PUSH3 0x17C JUMP JUMPDEST DUP3 DUP1 ADD PUSH1 0x1 ADD DUP6 SSTORE DUP3 ISZERO PUSH3 0x17C JUMPI SWAP2 DUP3 ADD JUMPDEST DUP3 DUP2 GT ISZERO PUSH3 0x17B JUMPI DUP3 MLOAD DUP3 SSTORE SWAP2 PUSH1 0x20 ADD SWAP2 SWAP1 PUSH1 0x1 ADD SWAP1 PUSH3 0x15E JUMP JUMPDEST JUMPDEST POP SWAP1 POP PUSH3 0x18B SWAP2 SWAP1 PUSH3 0x18F JUMP JUMPDEST POP SWAP1 JUMP JUMPDEST JUMPDEST DUP1 DUP3 GT ISZERO PUSH3 0x1AA JUMPI PUSH1 0x0 DUP2 PUSH1 0x0 SWAP1 SSTORE POP PUSH1 0x1 ADD PUSH3 0x190 JUMP JUMPDEST POP SWAP1 JUMP JUMPDEST PUSH1 0x0 PUSH3 0x1C5 PUSH3 0x1BF DUP5 PUSH3 0x306 JUMP JUMPDEST PUSH3 0x2DD JUMP JUMPDEST SWAP1 POP DUP3 DUP2 MSTORE PUSH1 0x20 DUP2 ADD DUP5 DUP5 DUP5 ADD GT ISZERO PUSH3 0x1E4 JUMPI PUSH3 0x1E3 PUSH3 0x44B JUMP JUMPDEST JUMPDEST PUSH3 0x1F1 DUP5 DUP3 DUP6 PUSH3 0x346 JUMP JUMPDEST POP SWAP4 SWAP3 POP POP POP JUMP JUMPDEST PUSH1 0x0 DUP3 PUSH1 0x1F DUP4 ADD SLT PUSH3 0x211 JUMPI PUSH3 0x210 PUSH3 0x446 JUMP JUMPDEST JUMPDEST DUP2 MLOAD PUSH3 0x223 DUP5 DUP3 PUSH1 0x20 DUP7 ADD PUSH3 0x1AE JUMP JUMPDEST SWAP2 POP POP SWAP3 SWAP2 POP POP JUMP JUMPDEST PUSH1 0x0 DUP2 MLOAD SWAP1 POP PUSH3 0x23D DUP2 PUSH3 0x46B JUMP JUMPDEST SWAP3 SWAP2 POP POP JUMP JUMPDEST PUSH1 0x0 DUP1 PUSH1 0x0 PUSH1 0x60 DUP5 DUP7 SUB SLT ISZERO PUSH3 0x25F JUMPI PUSH3 0x25E PUSH3 0x455 JUMP JUMPDEST JUMPDEST PUSH1 0x0 DUP5 ADD MLOAD PUSH8 0xFFFFFFFFFFFFFFFF DUP2 GT ISZERO PUSH3 0x280 JUMPI PUSH3 0x27F PUSH3 0x450 JUMP JUMPDEST JUMPDEST PUSH3 0x28E DUP7 DUP3 DUP8 ADD PUSH3 0x1F9 JUMP JUMPDEST SWAP4 POP POP PUSH1 0x20 DUP5 ADD MLOAD PUSH8 0xFFFFFFFFFFFFFFFF DUP2 GT ISZERO PUSH3 0x2B2 JUMPI PUSH3 0x2B1 PUSH3 0x450 JUMP JUMPDEST JUMPDEST PUSH3 0x2C0 DUP7 DUP3 DUP8 ADD PUSH3 0x1F9 JUMP JUMPDEST SWAP3 POP POP PUSH1 0x40 PUSH3 0x2D3 DUP7 DUP3 DUP8 ADD PUSH3 0x22C JUMP JUMPDEST SWAP2 POP POP SWAP3 POP SWAP3 POP SWAP3 JUMP JUMPDEST PUSH1 0x0 PUSH3 0x2E9 PUSH3 0x2FC JUMP JUMPDEST SWAP1 POP PUSH3 0x2F7 DUP3 DUP3 PUSH3 0x3B2 JUMP JUMPDEST SWAP2 SWAP1 POP JUMP JUMPDEST PUSH1 0x0 PUSH1 0x40 MLOAD SWAP1 POP SWAP1 JUMP JUMPDEST PUSH1 0x0 PUSH8 0xFFFFFFFFFFFFFFFF DUP3 GT ISZERO PUSH3 0x324 JUMPI PUSH3 0x323 PUSH3 0x417 JUMP JUMPDEST JUMPDEST PUSH3 0x32F DUP3 PUSH3 0x45A JUMP JUMPDEST SWAP1 POP PUSH1 0x20 DUP2 ADD SWAP1 POP SWAP2 SWAP1 POP JUMP JUMPDEST PUSH1 0x0 DUP2 SWAP1 POP SWAP2 SWAP1 POP JUMP JUMPDEST PUSH1 0x0 JUMPDEST DUP4 DUP2 LT ISZERO PUSH3 0x366 JUMPI DUP1 DUP3 ADD MLOAD DUP2 DUP5 ADD MSTORE PUSH1 0x20 DUP2 ADD SWAP1 POP PUSH3 0x349 JUMP JUMPDEST DUP4 DUP2 GT ISZERO PUSH3 0x376 JUMPI PUSH1 0x0 DUP5 DUP5 ADD MSTORE JUMPDEST POP POP POP POP JUMP JUMPDEST PUSH1 0x0 PUSH1 0x2 DUP3 DIV SWAP1 POP PUSH1 0x1 DUP3 AND DUP1 PUSH3 0x395 JUMPI PUSH1 0x7F DUP3 AND SWAP2 POP JUMPDEST PUSH1 0x20 DUP3 LT DUP2 EQ ISZERO PUSH3 0x3AC JUMPI PUSH3 0x3AB PUSH3 0x3E8 JUMP JUMPDEST JUMPDEST POP SWAP2 SWAP1 POP JUMP JUMPDEST PUSH3 0x3BD DUP3 PUSH3 0x45A JUMP JUMPDEST DUP2 ADD DUP2 DUP2 LT PUSH8 0xFFFFFFFFFFFFFFFF DUP3 GT OR ISZERO PUSH3 0x3DF JUMPI PUSH3 0x3DE PUSH3 0x417 JUMP JUMPDEST JUMPDEST DUP1 PUSH1 0x40 MSTORE POP POP POP JUMP JUMPDEST PUSH32 0x4E487B7100000000000000000000000000000000000000000000000000000000 PUSH1 0x0 MSTORE PUSH1 0x22 PUSH1 0x4 MSTORE PUSH1 0x24 PUSH1 0x0 REVERT JUMPDEST PUSH32 0x4E487B7100000000000000000000000000000000000000000000000000000000 PUSH1 0x0 MSTORE PUSH1 0x41 PUSH1 0x4 MSTORE PUSH1 0x24 PUSH1 0x0 REVERT JUMPDEST PUSH1 0x0 DUP1 REVERT JUMPDEST PUSH1 0x0 DUP1 REVERT JUMPDEST PUSH1 0x0 DUP1 REVERT JUMPDEST PUSH1 0x0 DUP1 REVERT JUMPDEST PUSH1 0x0 PUSH1 0x1F NOT PUSH1 0x1F DUP4 ADD AND SWAP1 POP SWAP2 SWAP1 POP JUMP JUMPDEST PUSH3 0x476 DUP2 PUSH3 0x33C JUMP JUMPDEST DUP2 EQ PUSH3 0x482 JUMPI PUSH1 0x0 DUP1 REVERT JUMPDEST POP JUMP JUMPDEST PUSH2 0x17C1 DUP1 PUSH3 0x495 PUSH1 0x0 CODECOPY PUSH1 0x0 RETURN INVALID PUSH1 0x80 PUSH1 0x40 MSTORE PUSH1 0x4 CALLDATASIZE LT PUSH2 0xA7 JUMPI PUSH1 0x0 CALLDATALOAD PUSH1 0xE0 SHR DUP1 PUSH4 0xA0712D68 GT PUSH2 0x64 JUMPI DUP1 PUSH4 0xA0712D68 EQ PUSH2 0x1BA JUMPI DUP1 PUSH4 0xA3E67610 EQ PUSH2 0x1E3 JUMPI DUP1 PUSH4 0xA4821719 EQ PUSH2 0x20E JUMPI DUP1 PUSH4 0xB292ABF1 EQ PUSH2 0x218 JUMPI DUP1 PUSH4 0xCD0C5896 EQ PUSH2 0x256 JUMPI DUP1 PUSH4 0xEEDC966A EQ PUSH2 0x293 JUMPI PUSH2 0xA7 JUMP JUMPDEST DUP1 PUSH4 0x1F8938C EQ PUSH2 0xAC JUMPI DUP1 PUSH4 0x6FDDE03 EQ PUSH2 0xD5 JUMPI DUP1 PUSH4 0x40932FC2 EQ PUSH2 0x100 JUMPI DUP1 PUSH4 0x68CDAFE6 EQ PUSH2 0x129 JUMPI DUP1 PUSH4 0x95D89B41 EQ PUSH2 0x166 JUMPI DUP1 PUSH4 0x9DC29FAC EQ PUSH2 0x191 JUMPI JUMPDEST PUSH1 0x0 DUP1 REVERT JUMPDEST CALLVALUE DUP1 ISZERO PUSH2 0xB8 JUMPI PUSH1 0x0 DUP1 REVERT JUMPDEST POP PUSH2 0xD3 PUSH1 0x4 DUP1 CALLDATASIZE SUB DUP2 ADD SWAP1 PUSH2 0xCE SWAP2 SWAP1 PUSH2 0x10D1 JUMP JUMPDEST PUSH2 0x2D0 JUMP JUMPDEST STOP JUMPDEST CALLVALUE DUP1 ISZERO PUSH2 0xE1 JUMPI PUSH1 0x0 DUP1 REVERT JUMPDEST POP PUSH2 0xEA PUSH2 0x436 JUMP JUMPDEST PUSH1 0x40 MLOAD PUSH2 0xF7 SWAP2 SWAP1 PUSH2 0x12E8 JUMP JUMPDEST PUSH1 0x40 MLOAD DUP1 SWAP2 SUB SWAP1 RETURN JUMPDEST CALLVALUE DUP1 ISZERO PUSH2 0x10C JUMPI PUSH1 0x0 DUP1 REVERT JUMPDEST POP PUSH2 0x127 PUSH1 0x4 DUP1 CALLDATASIZE SUB DUP2 ADD SWAP1 PUSH2 0x122 SWAP2 SWAP1 PUSH2 0xFF5 JUMP JUMPDEST PUSH2 0x4C4 JUMP JUMPDEST STOP JUMPDEST CALLVALUE DUP1 ISZERO PUSH2 0x135 JUMPI PUSH1 0x0 DUP1 REVERT JUMPDEST POP PUSH2 0x150 PUSH1 0x4 DUP1 CALLDATASIZE SUB DUP2 ADD SWAP1 PUSH2 0x14B SWAP2 SWAP1 PUSH2 0x1064 JUMP JUMPDEST PUSH2 0x6FA JUMP JUMPDEST PUSH1 0x40 MLOAD PUSH2 0x15D SWAP2 SWAP1 PUSH2 0x129D JUMP JUMPDEST PUSH1 0x40 MLOAD DUP1 SWAP2 SUB SWAP1 RETURN JUMPDEST CALLVALUE DUP1 ISZERO PUSH2 0x172 JUMPI PUSH1 0x0 DUP1 REVERT JUMPDEST POP PUSH2 0x17B PUSH2 0x838 JUMP JUMPDEST PUSH1 0x40 MLOAD PUSH2 0x188 SWAP2 SWAP1 PUSH2 0x12E8 JUMP JUMPDEST PUSH1 0x40 MLOAD DUP1 SWAP2 SUB SWAP1 RETURN JUMPDEST CALLVALUE DUP1 ISZERO PUSH2 0x19D JUMPI PUSH1 0x0 DUP1 REVERT JUMPDEST POP PUSH2 0x1B8 PUSH1 0x4 DUP1 CALLDATASIZE SUB DUP2 ADD SWAP1 PUSH2 0x1B3 SWAP2 SWAP1 PUSH2 0x1064 JUMP JUMPDEST PUSH2 0x8C6 JUMP JUMPDEST STOP JUMPDEST CALLVALUE DUP1 ISZERO PUSH2 0x1C6 JUMPI PUSH1 0x0 DUP1 REVERT JUMPDEST POP PUSH2 0x1E1 PUSH1 0x4 DUP1 CALLDATASIZE SUB DUP2 ADD SWAP1 PUSH2 0x1DC SWAP2 SWAP1 PUSH2 0x10A4 JUMP JUMPDEST PUSH2 0xA4F JUMP JUMPDEST STOP JUMPDEST CALLVALUE DUP1 ISZERO PUSH2 0x1EF JUMPI PUSH1 0x0 DUP1 REVERT JUMPDEST POP PUSH2 0x1F8 PUSH2 0xB51 JUMP JUMPDEST PUSH1 0x40 MLOAD PUSH2 0x205 SWAP2 SWAP1 PUSH2 0x1282 JUMP JUMPDEST PUSH1 0x40 MLOAD DUP1 SWAP2 SUB SWAP1 RETURN JUMPDEST PUSH2 0x216 PUSH2 0xB77 JUMP JUMPDEST STOP JUMPDEST CALLVALUE DUP1 ISZERO PUSH2 0x224 JUMPI PUSH1 0x0 DUP1 REVERT JUMPDEST POP PUSH2 0x23F PUSH1 0x4 DUP1 CALLDATASIZE SUB DUP2 ADD SWAP1 PUSH2 0x23A SWAP2 SWAP1 PUSH2 0xFC8 JUMP JUMPDEST PUSH2 0xCCF JUMP JUMPDEST PUSH1 0x40 MLOAD PUSH2 0x24D SWAP3 SWAP2 SWAP1 PUSH2 0x12B8 JUMP JUMPDEST PUSH1 0x40 MLOAD DUP1 SWAP2 SUB SWAP1 RETURN JUMPDEST CALLVALUE DUP1 ISZERO PUSH2 0x262 JUMPI PUSH1 0x0 DUP1 REVERT JUMPDEST POP PUSH2 0x27D PUSH1 0x4 DUP1 CALLDATASIZE SUB DUP2 ADD SWAP1 PUSH2 0x278 SWAP2 SWAP1 PUSH2 0xFC8 JUMP JUMPDEST PUSH2 0xDF7 JUMP JUMPDEST PUSH1 0x40 MLOAD PUSH2 0x28A SWAP2 SWAP1 PUSH2 0x134A JUMP JUMPDEST PUSH1 0x40 MLOAD DUP1 SWAP2 SUB SWAP1 RETURN JUMPDEST CALLVALUE DUP1 ISZERO PUSH2 0x29F JUMPI PUSH1 0x0 DUP1 REVERT JUMPDEST POP PUSH2 0x2BA PUSH1 0x4 DUP1 CALLDATASIZE SUB DUP2 ADD SWAP1 PUSH2 0x2B5 SWAP2 SWAP1 PUSH2 0xFC8 JUMP JUMPDEST PUSH2 0xE18 JUMP JUMPDEST PUSH1 0x40 MLOAD PUSH2 0x2C7 SWAP2 SWAP1 PUSH2 0x134A JUMP JUMPDEST PUSH1 0x40 MLOAD DUP1 SWAP2 SUB SWAP1 RETURN JUMPDEST PUSH1 0x0 PUSH1 0x4 DUP2 GT ISZERO PUSH2 0x2E4 JUMPI PUSH2 0x2E3 PUSH2 0x161E JUMP JUMPDEST JUMPDEST PUSH1 0x5 PUSH1 0x0 CALLER PUSH20 0xFFFFFFFFFFFFFFFFFFFFFFFFFFFFFFFFFFFFFFFF AND PUSH20 0xFFFFFFFFFFFFFFFFFFFFFFFFFFFFFFFFFFFFFFFF AND DUP2 MSTORE PUSH1 0x20 ADD SWAP1 DUP2 MSTORE PUSH1 0x20 ADD PUSH1 0x0 KECCAK256 PUSH1 0x0 ADD PUSH1 0x0 SWAP1 SLOAD SWAP1 PUSH2 0x100 EXP SWAP1 DIV PUSH1 0xFF AND PUSH1 0x4 DUP2 GT ISZERO PUSH2 0x346 JUMPI PUSH2 0x345 PUSH2 0x161E JUMP JUMPDEST JUMPDEST EQ PUSH2 0x386 JUMPI PUSH1 0x40 MLOAD PUSH32 0x8C379A000000000000000000000000000000000000000000000000000000000 DUP2 MSTORE PUSH1 0x4 ADD PUSH2 0x37D SWAP1 PUSH2 0x130A JUMP JUMPDEST PUSH1 0x40 MLOAD DUP1 SWAP2 SUB SWAP1 REVERT JUMPDEST PUSH1 0x0 PUSH1 0x6 PUSH1 0x0 DUP10 DUP2 MSTORE PUSH1 0x20 ADD SWAP1 DUP2 MSTORE PUSH1 0x20 ADD PUSH1 0x0 KECCAK256 SWAP1 POP DUP8 DUP2 PUSH1 0x0 ADD DUP2 SWAP1 SSTORE POP CALLER DUP2 PUSH1 0x1 ADD PUSH1 0x0 PUSH2 0x100 EXP DUP2 SLOAD DUP2 PUSH20 0xFFFFFFFFFFFFFFFFFFFFFFFFFFFFFFFFFFFFFFFF MUL NOT AND SWAP1 DUP4 PUSH20 0xFFFFFFFFFFFFFFFFFFFFFFFFFFFFFFFFFFFFFFFF AND MUL OR SWAP1 SSTORE POP CALLER DUP2 PUSH1 0x2 ADD PUSH1 0x0 PUSH2 0x100 EXP DUP2 SLOAD DUP2 PUSH20 0xFFFFFFFFFFFFFFFFFFFFFFFFFFFFFFFFFFFFFFFF MUL NOT AND SWAP1 DUP4 PUSH20 0xFFFFFFFFFFFFFFFFFFFFFFFFFFFFFFFFFFFFFFFF AND MUL OR SWAP1 SSTORE POP POP POP POP POP POP POP POP POP JUMP JUMPDEST PUSH1 0x0 DUP1 SLOAD PUSH2 0x443 SWAP1 PUSH2 0x155D JUMP JUMPDEST DUP1 PUSH1 0x1F ADD PUSH1 0x20 DUP1 SWAP2 DIV MUL PUSH1 0x20 ADD PUSH1 0x40 MLOAD SWAP1 DUP2 ADD PUSH1 0x40 MSTORE DUP1 SWAP3 SWAP2 SWAP1 DUP2 DUP2 MSTORE PUSH1 0x20 ADD DUP3 DUP1 SLOAD PUSH2 0x46F SWAP1 PUSH2 0x155D JUMP JUMPDEST DUP1 ISZERO PUSH2 0x4BC JUMPI DUP1 PUSH1 0x1F LT PUSH2 0x491 JUMPI PUSH2 0x100 DUP1 DUP4 SLOAD DIV MUL DUP4 MSTORE SWAP2 PUSH1 0x20 ADD SWAP2 PUSH2 0x4BC JUMP JUMPDEST DUP3 ADD SWAP2 SWAP1 PUSH1 0x0 MSTORE PUSH1 0x20 PUSH1 0x0 KECCAK256 SWAP1 JUMPDEST DUP2 SLOAD DUP2 MSTORE SWAP1 PUSH1 0x1 ADD SWAP1 PUSH1 0x20 ADD DUP1 DUP4 GT PUSH2 0x49F JUMPI DUP3 SWAP1 SUB PUSH1 0x1F AND DUP3 ADD SWAP2 JUMPDEST POP POP POP POP POP DUP2 JUMP JUMPDEST PUSH1 0x0 PUSH1 0x5 PUSH1 0x0 DUP6 PUSH20 0xFFFFFFFFFFFFFFFFFFFFFFFFFFFFFFFFFFFFFFFF AND PUSH20 0xFFFFFFFFFFFFFFFFFFFFFFFFFFFFFFFFFFFFFFFF AND DUP2 MSTORE PUSH1 0x20 ADD SWAP1 DUP2 MSTORE PUSH1 0x20 ADD PUSH1 0x0 KECCAK256 PUSH1 0x40 MLOAD DUP1 PUSH1 0x60 ADD PUSH1 0x40 MSTORE SWAP1 DUP2 PUSH1 0x0 DUP3 ADD PUSH1 0x0 SWAP1 SLOAD SWAP1 PUSH2 0x100 EXP SWAP1 DIV PUSH1 0xFF AND PUSH1 0x4 DUP2 GT ISZERO PUSH2 0x535 JUMPI PUSH2 0x534 PUSH2 0x161E JUMP JUMPDEST JUMPDEST PUSH1 0x4 DUP2 GT ISZERO PUSH2 0x547 JUMPI PUSH2 0x546 PUSH2 0x161E JUMP JUMPDEST JUMPDEST DUP2 MSTORE PUSH1 0x20 ADD PUSH1 0x1 DUP3 ADD DUP1 SLOAD PUSH2 0x55B SWAP1 PUSH2 0x155D JUMP JUMPDEST DUP1 PUSH1 0x1F ADD PUSH1 0x20 DUP1 SWAP2 DIV MUL PUSH1 0x20 ADD PUSH1 0x40 MLOAD SWAP1 DUP2 ADD PUSH1 0x40 MSTORE DUP1 SWAP3 SWAP2 SWAP1 DUP2 DUP2 MSTORE PUSH1 0x20 ADD DUP3 DUP1 SLOAD PUSH2 0x587 SWAP1 PUSH2 0x155D JUMP JUMPDEST DUP1 ISZERO PUSH2 0x5D4 JUMPI DUP1 PUSH1 0x1F LT PUSH2 0x5A9 JUMPI PUSH2 0x100 DUP1 DUP4 SLOAD DIV MUL DUP4 MSTORE SWAP2 PUSH1 0x20 ADD SWAP2 PUSH2 0x5D4 JUMP JUMPDEST DUP3 ADD SWAP2 SWAP1 PUSH1 0x0 MSTORE PUSH1 0x20 PUSH1 0x0 KECCAK256 SWAP1 JUMPDEST DUP2 SLOAD DUP2 MSTORE SWAP1 PUSH1 0x1 ADD SWAP1 PUSH1 0x20 ADD DUP1 DUP4 GT PUSH2 0x5B7 JUMPI DUP3 SWAP1 SUB PUSH1 0x1F AND DUP3 ADD SWAP2 JUMPDEST POP POP POP POP POP DUP2 MSTORE PUSH1 0x20 ADD PUSH1 0x2 DUP3 ADD PUSH1 0x0 SWAP1 SLOAD SWAP1 PUSH2 0x100 EXP SWAP1 DIV PUSH1 0xFF AND ISZERO ISZERO ISZERO ISZERO DUP2 MSTORE POP POP SWAP1 POP DUP3 DUP2 PUSH1 0x0 ADD SWAP1 PUSH1 0x4 DUP2 GT ISZERO PUSH2 0x612 JUMPI PUSH2 0x611 PUSH2 0x161E JUMP JUMPDEST JUMPDEST SWAP1 DUP2 PUSH1 0x4 DUP2 GT ISZERO PUSH2 0x626 JUMPI PUSH2 0x625 PUSH2 0x161E JUMP JUMPDEST JUMPDEST DUP2 MSTORE POP POP DUP2 DUP2 PUSH1 0x20 ADD DUP2 SWAP1 MSTORE POP PUSH1 0x1 DUP2 PUSH1 0x40 ADD SWAP1 ISZERO ISZERO SWAP1 DUP2 ISZERO ISZERO DUP2 MSTORE POP POP DUP1 PUSH1 0x5 PUSH1 0x0 DUP7 PUSH20 0xFFFFFFFFFFFFFFFFFFFFFFFFFFFFFFFFFFFFFFFF AND PUSH20 0xFFFFFFFFFFFFFFFFFFFFFFFFFFFFFFFFFFFFFFFF AND DUP2 MSTORE PUSH1 0x20 ADD SWAP1 DUP2 MSTORE PUSH1 0x20 ADD PUSH1 0x0 KECCAK256 PUSH1 0x0 DUP3 ADD MLOAD DUP2 PUSH1 0x0 ADD PUSH1 0x0 PUSH2 0x100 EXP DUP2 SLOAD DUP2 PUSH1 0xFF MUL NOT AND SWAP1 DUP4 PUSH1 0x4 DUP2 GT ISZERO PUSH2 0x6AF JUMPI PUSH2 0x6AE PUSH2 0x161E JUMP JUMPDEST JUMPDEST MUL OR SWAP1 SSTORE POP PUSH1 0x20 DUP3 ADD MLOAD DUP2 PUSH1 0x1 ADD SWAP1 DUP1 MLOAD SWAP1 PUSH1 0x20 ADD SWAP1 PUSH2 0x6D0 SWAP3 SWAP2 SWAP1 PUSH2 0xE61 JUMP JUMPDEST POP PUSH1 0x40 DUP3 ADD MLOAD DUP2 PUSH1 0x2 ADD PUSH1 0x0 PUSH2 0x100 EXP DUP2 SLOAD DUP2 PUSH1 0xFF MUL NOT AND SWAP1 DUP4 ISZERO ISZERO MUL OR SWAP1 SSTORE POP SWAP1 POP POP POP POP POP POP JUMP JUMPDEST PUSH1 0x0 DUP2 PUSH1 0x4 PUSH1 0x0 CALLER PUSH20 0xFFFFFFFFFFFFFFFFFFFFFFFFFFFFFFFFFFFFFFFF AND PUSH20 0xFFFFFFFFFFFFFFFFFFFFFFFFFFFFFFFFFFFFFFFF AND DUP2 MSTORE PUSH1 0x20 ADD SWAP1 DUP2 MSTORE PUSH1 0x20 ADD PUSH1 0x0 KECCAK256 SLOAD LT ISZERO PUSH2 0x748 JUMPI PUSH1 0x0 DUP1 REVERT JUMPDEST PUSH1 0x0 PUSH20 0xFFFFFFFFFFFFFFFFFFFFFFFFFFFFFFFFFFFFFFFF AND DUP4 PUSH20 0xFFFFFFFFFFFFFFFFFFFFFFFFFFFFFFFFFFFFFFFF AND EQ ISZERO PUSH2 0x782 JUMPI PUSH1 0x0 DUP1 REVERT JUMPDEST DUP2 PUSH1 0x4 PUSH1 0x0 CALLER PUSH20 0xFFFFFFFFFFFFFFFFFFFFFFFFFFFFFFFFFFFFFFFF AND PUSH20 0xFFFFFFFFFFFFFFFFFFFFFFFFFFFFFFFFFFFFFFFF AND DUP2 MSTORE PUSH1 0x20 ADD SWAP1 DUP2 MSTORE PUSH1 0x20 ADD PUSH1 0x0 KECCAK256 PUSH1 0x0 DUP3 DUP3 SLOAD PUSH2 0x7D1 SWAP2 SWAP1 PUSH2 0x145E JUMP JUMPDEST SWAP3 POP POP DUP2 SWAP1 SSTORE POP DUP2 PUSH1 0x4 PUSH1 0x0 DUP6 PUSH20 0xFFFFFFFFFFFFFFFFFFFFFFFFFFFFFFFFFFFFFFFF AND PUSH20 0xFFFFFFFFFFFFFFFFFFFFFFFFFFFFFFFFFFFFFFFF AND DUP2 MSTORE PUSH1 0x20 ADD SWAP1 DUP2 MSTORE PUSH1 0x20 ADD PUSH1 0x0 KECCAK256 PUSH1 0x0 DUP3 DUP3 SLOAD PUSH2 0x827 SWAP2 SWAP1 PUSH2 0x13D7 JUMP JUMPDEST SWAP3 POP POP DUP2 SWAP1 SSTORE POP PUSH1 0x1 SWAP1 POP SWAP3 SWAP2 POP POP JUMP JUMPDEST PUSH1 0x1 DUP1 SLOAD PUSH2 0x845 SWAP1 PUSH2 0x155D JUMP JUMPDEST DUP1 PUSH1 0x1F ADD PUSH1 0x20 DUP1 SWAP2 DIV MUL PUSH1 0x20 ADD PUSH1 0x40 MLOAD SWAP1 DUP2 ADD PUSH1 0x40 MSTORE DUP1 SWAP3 SWAP2 SWAP1 DUP2 DUP2 MSTORE PUSH1 0x20 ADD DUP3 DUP1 SLOAD PUSH2 0x871 SWAP1 PUSH2 0x155D JUMP JUMPDEST DUP1 ISZERO PUSH2 0x8BE JUMPI DUP1 PUSH1 0x1F LT PUSH2 0x893 JUMPI PUSH2 0x100 DUP1 DUP4 SLOAD DIV MUL DUP4 MSTORE SWAP2 PUSH1 0x20 ADD SWAP2 PUSH2 0x8BE JUMP JUMPDEST DUP3 ADD SWAP2 SWAP1 PUSH1 0x0 MSTORE PUSH1 0x20 PUSH1 0x0 KECCAK256 SWAP1 JUMPDEST DUP2 SLOAD DUP2 MSTORE SWAP1 PUSH1 0x1 ADD SWAP1 PUSH1 0x20 ADD DUP1 DUP4 GT PUSH2 0x8A1 JUMPI DUP3 SWAP1 SUB PUSH1 0x1F AND DUP3 ADD SWAP2 JUMPDEST POP POP POP POP POP DUP2 JUMP JUMPDEST PUSH1 0x2 PUSH1 0x0 SWAP1 SLOAD SWAP1 PUSH2 0x100 EXP SWAP1 DIV PUSH20 0xFFFFFFFFFFFFFFFFFFFFFFFFFFFFFFFFFFFFFFFF AND PUSH20 0xFFFFFFFFFFFFFFFFFFFFFFFFFFFFFFFFFFFFFFFF AND CALLER PUSH20 0xFFFFFFFFFFFFFFFFFFFFFFFFFFFFFFFFFFFFFFFF AND EQ PUSH2 0x956 JUMPI PUSH1 0x40 MLOAD PUSH32 0x8C379A000000000000000000000000000000000000000000000000000000000 DUP2 MSTORE PUSH1 0x4 ADD PUSH2 0x94D SWAP1 PUSH2 0x132A JUMP JUMPDEST PUSH1 0x40 MLOAD DUP1 SWAP2 SUB SWAP1 REVERT JUMPDEST PUSH1 0x0 PUSH20 0xFFFFFFFFFFFFFFFFFFFFFFFFFFFFFFFFFFFFFFFF AND DUP3 PUSH20 0xFFFFFFFFFFFFFFFFFFFFFFFFFFFFFFFFFFFFFFFF AND EQ ISZERO PUSH2 0x990 JUMPI PUSH1 0x0 DUP1 REVERT JUMPDEST PUSH1 0x4 PUSH1 0x0 DUP4 PUSH20 0xFFFFFFFFFFFFFFFFFFFFFFFFFFFFFFFFFFFFFFFF AND PUSH20 0xFFFFFFFFFFFFFFFFFFFFFFFFFFFFFFFFFFFFFFFF AND DUP2 MSTORE PUSH1 0x20 ADD SWAP1 DUP2 MSTORE PUSH1 0x20 ADD PUSH1 0x0 KECCAK256 SLOAD DUP2 GT ISZERO PUSH2 0x9DC JUMPI PUSH1 0x0 DUP1 REVERT JUMPDEST DUP1 PUSH1 0x3 PUSH1 0x0 DUP3 DUP3 SLOAD PUSH2 0x9EE SWAP2 SWAP1 PUSH2 0x145E JUMP JUMPDEST SWAP3 POP POP DUP2 SWAP1 SSTORE POP DUP1 PUSH1 0x4 PUSH1 0x0 DUP5 PUSH20 0xFFFFFFFFFFFFFFFFFFFFFFFFFFFFFFFFFFFFFFFF AND PUSH20 0xFFFFFFFFFFFFFFFFFFFFFFFFFFFFFFFFFFFFFFFF AND DUP2 MSTORE PUSH1 0x20 ADD SWAP1 DUP2 MSTORE PUSH1 0x20 ADD PUSH1 0x0 KECCAK256 PUSH1 0x0 DUP3 DUP3 SLOAD PUSH2 0xA44 SWAP2 SWAP1 PUSH2 0x145E JUMP JUMPDEST SWAP3 POP POP DUP2 SWAP1 SSTORE POP POP POP JUMP JUMPDEST PUSH1 0x2 PUSH1 0x0 SWAP1 SLOAD SWAP1 PUSH2 0x100 EXP SWAP1 DIV PUSH20 0xFFFFFFFFFFFFFFFFFFFFFFFFFFFFFFFFFFFFFFFF AND PUSH20 0xFFFFFFFFFFFFFFFFFFFFFFFFFFFFFFFFFFFFFFFF AND CALLER PUSH20 0xFFFFFFFFFFFFFFFFFFFFFFFFFFFFFFFFFFFFFFFF AND EQ PUSH2 0xADF JUMPI PUSH1 0x40 MLOAD PUSH32 0x8C379A000000000000000000000000000000000000000000000000000000000 DUP2 MSTORE PUSH1 0x4 ADD PUSH2 0xAD6 SWAP1 PUSH2 0x132A JUMP JUMPDEST PUSH1 0x40 MLOAD DUP1 SWAP2 SUB SWAP1 REVERT JUMPDEST DUP1 PUSH1 0x3 PUSH1 0x0 DUP3 DUP3 SLOAD PUSH2 0xAF1 SWAP2 SWAP1 PUSH2 0x13D7 JUMP JUMPDEST SWAP3 POP POP DUP2 SWAP1 SSTORE POP DUP1 PUSH1 0x4 PUSH1 0x0 CALLER PUSH20 0xFFFFFFFFFFFFFFFFFFFFFFFFFFFFFFFFFFFFFFFF AND PUSH20 0xFFFFFFFFFFFFFFFFFFFFFFFFFFFFFFFFFFFFFFFF AND DUP2 MSTORE PUSH1 0x20 ADD SWAP1 DUP2 MSTORE PUSH1 0x20 ADD PUSH1 0x0 KECCAK256 PUSH1 0x0 DUP3 DUP3 SLOAD PUSH2 0xB47 SWAP2 SWAP1 PUSH2 0x13D7 JUMP JUMPDEST SWAP3 POP POP DUP2 SWAP1 SSTORE POP POP JUMP JUMPDEST PUSH1 0x2 PUSH1 0x0 SWAP1 SLOAD SWAP1 PUSH2 0x100 EXP SWAP1 DIV PUSH20 0xFFFFFFFFFFFFFFFFFFFFFFFFFFFFFFFFFFFFFFFF AND DUP2 JUMP JUMPDEST PUSH1 0x0 PUSH1 0x64 CALLVALUE PUSH2 0xB86 SWAP2 SWAP1 PUSH2 0x142D JUMP JUMPDEST SWAP1 POP PUSH1 0x0 CALLVALUE GT PUSH2 0xB95 JUMPI PUSH1 0x0 DUP1 REVERT JUMPDEST PUSH1 0x2 PUSH1 0x0 SWAP1 SLOAD SWAP1 PUSH2 0x100 EXP SWAP1 DIV PUSH20 0xFFFFFFFFFFFFFFFFFFFFFFFFFFFFFFFFFFFFFFFF AND PUSH20 0xFFFFFFFFFFFFFFFFFFFFFFFFFFFFFFFFFFFFFFFF AND PUSH2 0x8FC CALLVALUE SWAP1 DUP2 ISZERO MUL SWAP1 PUSH1 0x40 MLOAD PUSH1 0x0 PUSH1 0x40 MLOAD DUP1 DUP4 SUB DUP2 DUP6 DUP9 DUP9 CALL SWAP4 POP POP POP POP ISZERO DUP1 ISZERO PUSH2 0xBFD JUMPI RETURNDATASIZE PUSH1 0x0 DUP1 RETURNDATACOPY RETURNDATASIZE PUSH1 0x0 REVERT JUMPDEST POP DUP1 PUSH1 0x4 PUSH1 0x0 PUSH1 0x2 PUSH1 0x0 SWAP1 SLOAD SWAP1 PUSH2 0x100 EXP SWAP1 DIV PUSH20 0xFFFFFFFFFFFFFFFFFFFFFFFFFFFFFFFFFFFFFFFF AND PUSH20 0xFFFFFFFFFFFFFFFFFFFFFFFFFFFFFFFFFFFFFFFF AND PUSH20 0xFFFFFFFFFFFFFFFFFFFFFFFFFFFFFFFFFFFFFFFF AND DUP2 MSTORE PUSH1 0x20 ADD SWAP1 DUP2 MSTORE PUSH1 0x20 ADD PUSH1 0x0 KECCAK256 PUSH1 0x0 DUP3 DUP3 SLOAD PUSH2 0xC6F SWAP2 SWAP1 PUSH2 0x145E JUMP JUMPDEST SWAP3 POP POP DUP2 SWAP1 SSTORE POP DUP1 PUSH1 0x4 PUSH1 0x0 CALLER PUSH20 0xFFFFFFFFFFFFFFFFFFFFFFFFFFFFFFFFFFFFFFFF AND PUSH20 0xFFFFFFFFFFFFFFFFFFFFFFFFFFFFFFFFFFFFFFFF AND DUP2 MSTORE PUSH1 0x20 ADD SWAP1 DUP2 MSTORE PUSH1 0x20 ADD PUSH1 0x0 KECCAK256 PUSH1 0x0 DUP3 DUP3 SLOAD PUSH2 0xCC5 SWAP2 SWAP1 PUSH2 0x13D7 JUMP JUMPDEST SWAP3 POP POP DUP2 SWAP1 SSTORE POP POP JUMP JUMPDEST PUSH1 0x0 PUSH1 0x60 PUSH1 0x5 PUSH1 0x0 DUP5 PUSH20 0xFFFFFFFFFFFFFFFFFFFFFFFFFFFFFFFFFFFFFFFF AND PUSH20 0xFFFFFFFFFFFFFFFFFFFFFFFFFFFFFFFFFFFFFFFF AND DUP2 MSTORE PUSH1 0x20 ADD SWAP1 DUP2 MSTORE PUSH1 0x20 ADD PUSH1 0x0 KECCAK256 PUSH1 0x0 ADD PUSH1 0x0 SWAP1 SLOAD SWAP1 PUSH2 0x100 EXP SWAP1 DIV PUSH1 0xFF AND SWAP2 POP PUSH1 0x5 PUSH1 0x0 DUP5 PUSH20 0xFFFFFFFFFFFFFFFFFFFFFFFFFFFFFFFFFFFFFFFF AND PUSH20 0xFFFFFFFFFFFFFFFFFFFFFFFFFFFFFFFFFFFFFFFF AND DUP2 MSTORE PUSH1 0x20 ADD SWAP1 DUP2 MSTORE PUSH1 0x20 ADD PUSH1 0x0 KECCAK256 PUSH1 0x1 ADD DUP1 SLOAD PUSH2 0xD72 SWAP1 PUSH2 0x155D JUMP JUMPDEST DUP1 PUSH1 0x1F ADD PUSH1 0x20 DUP1 SWAP2 DIV MUL PUSH1 0x20 ADD PUSH1 0x40 MLOAD SWAP1 DUP2 ADD PUSH1 0x40 MSTORE DUP1 SWAP3 SWAP2 SWAP1 DUP2 DUP2 MSTORE PUSH1 0x20 ADD DUP3 DUP1 SLOAD PUSH2 0xD9E SWAP1 PUSH2 0x155D JUMP JUMPDEST DUP1 ISZERO PUSH2 0xDEB JUMPI DUP1 PUSH1 0x1F LT PUSH2 0xDC0 JUMPI PUSH2 0x100 DUP1 DUP4 SLOAD DIV MUL DUP4 MSTORE SWAP2 PUSH1 0x20 ADD SWAP2 PUSH2 0xDEB JUMP JUMPDEST DUP3 ADD SWAP2 SWAP1 PUSH1 0x0 MSTORE PUSH1 0x20 PUSH1 0x0 KECCAK256 SWAP1 JUMPDEST DUP2 SLOAD DUP2 MSTORE SWAP1 PUSH1 0x1 ADD SWAP1 PUSH1 0x20 ADD DUP1 DUP4 GT PUSH2 0xDCE JUMPI DUP3 SWAP1 SUB PUSH1 0x1F AND DUP3 ADD SWAP2 JUMPDEST POP POP POP POP POP SWAP1 POP SWAP2 POP SWAP2 JUMP JUMPDEST PUSH1 0x0 DUP2 PUSH20 0xFFFFFFFFFFFFFFFFFFFFFFFFFFFFFFFFFFFFFFFF AND BALANCE SWAP1 POP SWAP2 SWAP1 POP JUMP JUMPDEST PUSH1 0x0 PUSH1 0x4 PUSH1 0x0 DUP4 PUSH20 0xFFFFFFFFFFFFFFFFFFFFFFFFFFFFFFFFFFFFFFFF AND PUSH20 0xFFFFFFFFFFFFFFFFFFFFFFFFFFFFFFFFFFFFFFFF AND DUP2 MSTORE PUSH1 0x20 ADD SWAP1 DUP2 MSTORE PUSH1 0x20 ADD PUSH1 0x0 KECCAK256 SLOAD SWAP1 POP SWAP2 SWAP1 POP JUMP JUMPDEST DUP3 DUP1 SLOAD PUSH2 0xE6D SWAP1 PUSH2 0x155D JUMP JUMPDEST SWAP1 PUSH1 0x0 MSTORE PUSH1 0x20 PUSH1 0x0 KECCAK256 SWAP1 PUSH1 0x1F ADD PUSH1 0x20 SWAP1 DIV DUP2 ADD SWAP3 DUP3 PUSH2 0xE8F JUMPI PUSH1 0x0 DUP6 SSTORE PUSH2 0xED6 JUMP JUMPDEST DUP3 PUSH1 0x1F LT PUSH2 0xEA8 JUMPI DUP1 MLOAD PUSH1 0xFF NOT AND DUP4 DUP1 ADD OR DUP6 SSTORE PUSH2 0xED6 JUMP JUMPDEST DUP3 DUP1 ADD PUSH1 0x1 ADD DUP6 SSTORE DUP3 ISZERO PUSH2 0xED6 JUMPI SWAP2 DUP3 ADD JUMPDEST DUP3 DUP2 GT ISZERO PUSH2 0xED5 JUMPI DUP3 MLOAD DUP3 SSTORE SWAP2 PUSH1 0x20 ADD SWAP2 SWAP1 PUSH1 0x1 ADD SWAP1 PUSH2 0xEBA JUMP JUMPDEST JUMPDEST POP SWAP1 POP PUSH2 0xEE3 SWAP2 SWAP1 PUSH2 0xEE7 JUMP JUMPDEST POP SWAP1 JUMP JUMPDEST JUMPDEST DUP1 DUP3 GT ISZERO PUSH2 0xF00 JUMPI PUSH1 0x0 DUP2 PUSH1 0x0 SWAP1 SSTORE POP PUSH1 0x1 ADD PUSH2 0xEE8 JUMP JUMPDEST POP SWAP1 JUMP JUMPDEST PUSH1 0x0 PUSH2 0xF17 PUSH2 0xF12 DUP5 PUSH2 0x138A JUMP JUMPDEST PUSH2 0x1365 JUMP JUMPDEST SWAP1 POP DUP3 DUP2 MSTORE PUSH1 0x20 DUP2 ADD DUP5 DUP5 DUP5 ADD GT ISZERO PUSH2 0xF33 JUMPI PUSH2 0xF32 PUSH2 0x16B0 JUMP JUMPDEST JUMPDEST PUSH2 0xF3E DUP5 DUP3 DUP6 PUSH2 0x151B JUMP JUMPDEST POP SWAP4 SWAP3 POP POP POP JUMP JUMPDEST PUSH1 0x0 DUP2 CALLDATALOAD SWAP1 POP PUSH2 0xF55 DUP2 PUSH2 0x1736 JUMP JUMPDEST SWAP3 SWAP2 POP POP JUMP JUMPDEST PUSH1 0x0 DUP2 CALLDATALOAD SWAP1 POP PUSH2 0xF6A DUP2 PUSH2 0x174D JUMP JUMPDEST SWAP3 SWAP2 POP POP JUMP JUMPDEST PUSH1 0x0 DUP2 CALLDATALOAD SWAP1 POP PUSH2 0xF7F DUP2 PUSH2 0x175D JUMP JUMPDEST SWAP3 SWAP2 POP POP JUMP JUMPDEST PUSH1 0x0 DUP3 PUSH1 0x1F DUP4 ADD SLT PUSH2 0xF9A JUMPI PUSH2 0xF99 PUSH2 0x16AB JUMP JUMPDEST JUMPDEST DUP2 CALLDATALOAD PUSH2 0xFAA DUP5 DUP3 PUSH1 0x20 DUP7 ADD PUSH2 0xF04 JUMP JUMPDEST SWAP2 POP POP SWAP3 SWAP2 POP POP JUMP JUMPDEST PUSH1 0x0 DUP2 CALLDATALOAD SWAP1 POP PUSH2 0xFC2 DUP2 PUSH2 0x1774 JUMP JUMPDEST SWAP3 SWAP2 POP POP JUMP JUMPDEST PUSH1 0x0 PUSH1 0x20 DUP3 DUP5 SUB SLT ISZERO PUSH2 0xFDE JUMPI PUSH2 0xFDD PUSH2 0x16BA JUMP JUMPDEST JUMPDEST PUSH1 0x0 PUSH2 0xFEC DUP5 DUP3 DUP6 ADD PUSH2 0xF46 JUMP JUMPDEST SWAP2 POP POP SWAP3 SWAP2 POP POP JUMP JUMPDEST PUSH1 0x0 DUP1 PUSH1 0x0 PUSH1 0x60 DUP5 DUP7 SUB SLT ISZERO PUSH2 0x100E JUMPI PUSH2 0x100D PUSH2 0x16BA JUMP JUMPDEST JUMPDEST PUSH1 0x0 PUSH2 0x101C DUP7 DUP3 DUP8 ADD PUSH2 0xF46 JUMP JUMPDEST SWAP4 POP POP PUSH1 0x20 PUSH2 0x102D DUP7 DUP3 DUP8 ADD PUSH2 0xF5B JUMP JUMPDEST SWAP3 POP POP PUSH1 0x40 DUP5 ADD CALLDATALOAD PUSH8 0xFFFFFFFFFFFFFFFF DUP2 GT ISZERO PUSH2 0x104E JUMPI PUSH2 0x104D PUSH2 0x16B5 JUMP JUMPDEST JUMPDEST PUSH2 0x105A DUP7 DUP3 DUP8 ADD PUSH2 0xF85 JUMP JUMPDEST SWAP2 POP POP SWAP3 POP SWAP3 POP SWAP3 JUMP JUMPDEST PUSH1 0x0 DUP1 PUSH1 0x40 DUP4 DUP6 SUB SLT ISZERO PUSH2 0x107B JUMPI PUSH2 0x107A PUSH2 0x16BA JUMP JUMPDEST JUMPDEST PUSH1 0x0 PUSH2 0x1089 DUP6 DUP3 DUP7 ADD PUSH2 0xF46 JUMP JUMPDEST SWAP3 POP POP PUSH1 0x20 PUSH2 0x109A DUP6 DUP3 DUP7 ADD PUSH2 0xFB3 JUMP JUMPDEST SWAP2 POP POP SWAP3 POP SWAP3 SWAP1 POP JUMP JUMPDEST PUSH1 0x0 PUSH1 0x20 DUP3 DUP5 SUB SLT ISZERO PUSH2 0x10BA JUMPI PUSH2 0x10B9 PUSH2 0x16BA JUMP JUMPDEST JUMPDEST PUSH1 0x0 PUSH2 0x10C8 DUP5 DUP3 DUP6 ADD PUSH2 0xFB3 JUMP JUMPDEST SWAP2 POP POP SWAP3 SWAP2 POP POP JUMP JUMPDEST PUSH1 0x0 DUP1 PUSH1 0x0 DUP1 PUSH1 0x0 DUP1 PUSH1 0x0 PUSH1 0xE0 DUP9 DUP11 SUB SLT ISZERO PUSH2 0x10F0 JUMPI PUSH2 0x10EF PUSH2 0x16BA JUMP JUMPDEST JUMPDEST PUSH1 0x0 PUSH2 0x10FE DUP11 DUP3 DUP12 ADD PUSH2 0xFB3 JUMP JUMPDEST SWAP8 POP POP PUSH1 0x20 PUSH2 0x110F DUP11 DUP3 DUP12 ADD PUSH2 0xFB3 JUMP JUMPDEST SWAP7 POP POP PUSH1 0x40 DUP9 ADD CALLDATALOAD PUSH8 0xFFFFFFFFFFFFFFFF DUP2 GT ISZERO PUSH2 0x1130 JUMPI PUSH2 0x112F PUSH2 0x16B5 JUMP JUMPDEST JUMPDEST PUSH2 0x113C DUP11 DUP3 DUP12 ADD PUSH2 0xF85 JUMP JUMPDEST SWAP6 POP POP PUSH1 0x60 DUP9 ADD CALLDATALOAD PUSH8 0xFFFFFFFFFFFFFFFF DUP2 GT ISZERO PUSH2 0x115D JUMPI PUSH2 0x115C PUSH2 0x16B5 JUMP JUMPDEST JUMPDEST PUSH2 0x1169 DUP11 DUP3 DUP12 ADD PUSH2 0xF85 JUMP JUMPDEST SWAP5 POP POP PUSH1 0x80 DUP9 ADD CALLDATALOAD PUSH8 0xFFFFFFFFFFFFFFFF DUP2 GT ISZERO PUSH2 0x118A JUMPI PUSH2 0x1189 PUSH2 0x16B5 JUMP JUMPDEST JUMPDEST PUSH2 0x1196 DUP11 DUP3 DUP12 ADD PUSH2 0xF85 JUMP JUMPDEST SWAP4 POP POP PUSH1 0xA0 PUSH2 0x11A7 DUP11 DUP3 DUP12 ADD PUSH2 0xF70 JUMP JUMPDEST SWAP3 POP POP PUSH1 0xC0 PUSH2 0x11B8 DUP11 DUP3 DUP12 ADD PUSH2 0xFB3 JUMP JUMPDEST SWAP2 POP POP SWAP3 SWAP6 SWAP9 SWAP2 SWAP5 SWAP8 POP SWAP3 SWAP6 POP JUMP JUMPDEST PUSH2 0x11D0 DUP2 PUSH2 0x14A4 JUMP JUMPDEST DUP3 MSTORE POP POP JUMP JUMPDEST PUSH2 0x11DF DUP2 PUSH2 0x14B6 JUMP JUMPDEST DUP3 MSTORE POP POP JUMP JUMPDEST PUSH2 0x11EE DUP2 PUSH2 0x1509 JUMP JUMPDEST DUP3 MSTORE POP POP JUMP JUMPDEST PUSH1 0x0 PUSH2 0x11FF DUP3 PUSH2 0x13BB JUMP JUMPDEST PUSH2 0x1209 DUP2 DUP6 PUSH2 0x13C6 JUMP JUMPDEST SWAP4 POP PUSH2 0x1219 DUP2 DUP6 PUSH1 0x20 DUP7 ADD PUSH2 0x152A JUMP JUMPDEST PUSH2 0x1222 DUP2 PUSH2 0x16BF JUMP JUMPDEST DUP5 ADD SWAP2 POP POP SWAP3 SWAP2 POP POP JUMP JUMPDEST PUSH1 0x0 PUSH2 0x123A PUSH1 0x19 DUP4 PUSH2 0x13C6 JUMP JUMPDEST SWAP2 POP PUSH2 0x1245 DUP3 PUSH2 0x16D0 JUMP JUMPDEST PUSH1 0x20 DUP3 ADD SWAP1 POP SWAP2 SWAP1 POP JUMP JUMPDEST PUSH1 0x0 PUSH2 0x125D PUSH1 0x1E DUP4 PUSH2 0x13C6 JUMP JUMPDEST SWAP2 POP PUSH2 0x1268 DUP3 PUSH2 0x16F9 JUMP JUMPDEST PUSH1 0x20 DUP3 ADD SWAP1 POP SWAP2 SWAP1 POP JUMP JUMPDEST PUSH2 0x127C DUP2 PUSH2 0x14FF JUMP JUMPDEST DUP3 MSTORE POP POP JUMP JUMPDEST PUSH1 0x0 PUSH1 0x20 DUP3 ADD SWAP1 POP PUSH2 0x1297 PUSH1 0x0 DUP4 ADD DUP5 PUSH2 0x11C7 JUMP JUMPDEST SWAP3 SWAP2 POP POP JUMP JUMPDEST PUSH1 0x0 PUSH1 0x20 DUP3 ADD SWAP1 POP PUSH2 0x12B2 PUSH1 0x0 DUP4 ADD DUP5 PUSH2 0x11D6 JUMP JUMPDEST SWAP3 SWAP2 POP POP JUMP JUMPDEST PUSH1 0x0 PUSH1 0x40 DUP3 ADD SWAP1 POP PUSH2 0x12CD PUSH1 0x0 DUP4 ADD DUP6 PUSH2 0x11E5 JUMP JUMPDEST DUP2 DUP2 SUB PUSH1 0x20 DUP4 ADD MSTORE PUSH2 0x12DF DUP2 DUP5 PUSH2 0x11F4 JUMP JUMPDEST SWAP1 POP SWAP4 SWAP3 POP POP POP JUMP JUMPDEST PUSH1 0x0 PUSH1 0x20 DUP3 ADD SWAP1 POP DUP2 DUP2 SUB PUSH1 0x0 DUP4 ADD MSTORE PUSH2 0x1302 DUP2 DUP5 PUSH2 0x11F4 JUMP JUMPDEST SWAP1 POP SWAP3 SWAP2 POP POP JUMP JUMPDEST PUSH1 0x0 PUSH1 0x20 DUP3 ADD SWAP1 POP DUP2 DUP2 SUB PUSH1 0x0 DUP4 ADD MSTORE PUSH2 0x1323 DUP2 PUSH2 0x122D JUMP JUMPDEST SWAP1 POP SWAP2 SWAP1 POP JUMP JUMPDEST PUSH1 0x0 PUSH1 0x20 DUP3 ADD SWAP1 POP DUP2 DUP2 SUB PUSH1 0x0 DUP4 ADD MSTORE PUSH2 0x1343 DUP2 PUSH2 0x1250 JUMP JUMPDEST SWAP1 POP SWAP2 SWAP1 POP JUMP JUMPDEST PUSH1 0x0 PUSH1 0x20 DUP3 ADD SWAP1 POP PUSH2 0x135F PUSH1 0x0 DUP4 ADD DUP5 PUSH2 0x1273 JUMP JUMPDEST SWAP3 SWAP2 POP POP JUMP JUMPDEST PUSH1 0x0 PUSH2 0x136F PUSH2 0x1380 JUMP JUMPDEST SWAP1 POP PUSH2 0x137B DUP3 DUP3 PUSH2 0x158F JUMP JUMPDEST SWAP2 SWAP1 POP JUMP JUMPDEST PUSH1 0x0 PUSH1 0x40 MLOAD SWAP1 POP SWAP1 JUMP JUMPDEST PUSH1 0x0 PUSH8 0xFFFFFFFFFFFFFFFF DUP3 GT ISZERO PUSH2 0x13A5 JUMPI PUSH2 0x13A4 PUSH2 0x167C JUMP JUMPDEST JUMPDEST PUSH2 0x13AE DUP3 PUSH2 0x16BF JUMP JUMPDEST SWAP1 POP PUSH1 0x20 DUP2 ADD SWAP1 POP SWAP2 SWAP1 POP JUMP JUMPDEST PUSH1 0x0 DUP2 MLOAD SWAP1 POP SWAP2 SWAP1 POP JUMP JUMPDEST PUSH1 0x0 DUP3 DUP3 MSTORE PUSH1 0x20 DUP3 ADD SWAP1 POP SWAP3 SWAP2 POP POP JUMP JUMPDEST PUSH1 0x0 PUSH2 0x13E2 DUP3 PUSH2 0x14FF JUMP JUMPDEST SWAP2 POP PUSH2 0x13ED DUP4 PUSH2 0x14FF JUMP JUMPDEST SWAP3 POP DUP3 PUSH32 0xFFFFFFFFFFFFFFFFFFFFFFFFFFFFFFFFFFFFFFFFFFFFFFFFFFFFFFFFFFFFFFFF SUB DUP3 GT ISZERO PUSH2 0x1422 JUMPI PUSH2 0x1421 PUSH2 0x15C0 JUMP JUMPDEST JUMPDEST DUP3 DUP3 ADD SWAP1 POP SWAP3 SWAP2 POP POP JUMP JUMPDEST PUSH1 0x0 PUSH2 0x1438 DUP3 PUSH2 0x14FF JUMP JUMPDEST SWAP2 POP PUSH2 0x1443 DUP4 PUSH2 0x14FF JUMP JUMPDEST SWAP3 POP DUP3 PUSH2 0x1453 JUMPI PUSH2 0x1452 PUSH2 0x15EF JUMP JUMPDEST JUMPDEST DUP3 DUP3 DIV SWAP1 POP SWAP3 SWAP2 POP POP JUMP JUMPDEST PUSH1 0x0 PUSH2 0x1469 DUP3 PUSH2 0x14FF JUMP JUMPDEST SWAP2 POP PUSH2 0x1474 DUP4 PUSH2 0x14FF JUMP JUMPDEST SWAP3 POP DUP3 DUP3 LT ISZERO PUSH2 0x1487 JUMPI PUSH2 0x1486 PUSH2 0x15C0 JUMP JUMPDEST JUMPDEST DUP3 DUP3 SUB SWAP1 POP SWAP3 SWAP2 POP POP JUMP JUMPDEST PUSH1 0x0 PUSH2 0x149D DUP3 PUSH2 0x14DF JUMP JUMPDEST SWAP1 POP SWAP2 SWAP1 POP JUMP JUMPDEST PUSH1 0x0 PUSH2 0x14AF DUP3 PUSH2 0x14DF JUMP JUMPDEST SWAP1 POP SWAP2 SWAP1 POP JUMP JUMPDEST PUSH1 0x0 DUP2 ISZERO ISZERO SWAP1 POP SWAP2 SWAP1 POP JUMP JUMPDEST PUSH1 0x0 DUP2 SWAP1 POP PUSH2 0x14D0 DUP3 PUSH2 0x1722 JUMP JUMPDEST SWAP2 SWAP1 POP JUMP JUMPDEST PUSH1 0x0 DUP2 SWAP1 POP SWAP2 SWAP1 POP JUMP JUMPDEST PUSH1 0x0 PUSH20 0xFFFFFFFFFFFFFFFFFFFFFFFFFFFFFFFFFFFFFFFF DUP3 AND SWAP1 POP SWAP2 SWAP1 POP JUMP JUMPDEST PUSH1 0x0 DUP2 SWAP1 POP SWAP2 SWAP1 POP JUMP JUMPDEST PUSH1 0x0 PUSH2 0x1514 DUP3 PUSH2 0x14C2 JUMP JUMPDEST SWAP1 POP SWAP2 SWAP1 POP JUMP JUMPDEST DUP3 DUP2 DUP4 CALLDATACOPY PUSH1 0x0 DUP4 DUP4 ADD MSTORE POP POP POP JUMP JUMPDEST PUSH1 0x0 JUMPDEST DUP4 DUP2 LT ISZERO PUSH2 0x1548 JUMPI DUP1 DUP3 ADD MLOAD DUP2 DUP5 ADD MSTORE PUSH1 0x20 DUP2 ADD SWAP1 POP PUSH2 0x152D JUMP JUMPDEST DUP4 DUP2 GT ISZERO PUSH2 0x1557 JUMPI PUSH1 0x0 DUP5 DUP5 ADD MSTORE JUMPDEST POP POP POP POP JUMP JUMPDEST PUSH1 0x0 PUSH1 0x2 DUP3 DIV SWAP1 POP PUSH1 0x1 DUP3 AND DUP1 PUSH2 0x1575 JUMPI PUSH1 0x7F DUP3 AND SWAP2 POP JUMPDEST PUSH1 0x20 DUP3 LT DUP2 EQ ISZERO PUSH2 0x1589 JUMPI PUSH2 0x1588 PUSH2 0x164D JUMP JUMPDEST JUMPDEST POP SWAP2 SWAP1 POP JUMP JUMPDEST PUSH2 0x1598 DUP3 PUSH2 0x16BF JUMP JUMPDEST DUP2 ADD DUP2 DUP2 LT PUSH8 0xFFFFFFFFFFFFFFFF DUP3 GT OR ISZERO PUSH2 0x15B7 JUMPI PUSH2 0x15B6 PUSH2 0x167C JUMP JUMPDEST JUMPDEST DUP1 PUSH1 0x40 MSTORE POP POP POP JUMP JUMPDEST PUSH32 0x4E487B7100000000000000000000000000000000000000000000000000000000 PUSH1 0x0 MSTORE PUSH1 0x11 PUSH1 0x4 MSTORE PUSH1 0x24 PUSH1 0x0 REVERT JUMPDEST PUSH32 0x4E487B7100000000000000000000000000000000000000000000000000000000 PUSH1 0x0 MSTORE PUSH1 0x12 PUSH1 0x4 MSTORE PUSH1 0x24 PUSH1 0x0 REVERT JUMPDEST PUSH32 0x4E487B7100000000000000000000000000000000000000000000000000000000 PUSH1 0x0 MSTORE PUSH1 0x21 PUSH1 0x4 MSTORE PUSH1 0x24 PUSH1 0x0 REVERT JUMPDEST PUSH32 0x4E487B7100000000000000000000000000000000000000000000000000000000 PUSH1 0x0 MSTORE PUSH1 0x22 PUSH1 0x4 MSTORE PUSH1 0x24 PUSH1 0x0 REVERT JUMPDEST PUSH32 0x4E487B7100000000000000000000000000000000000000000000000000000000 PUSH1 0x0 MSTORE PUSH1 0x41 PUSH1 0x4 MSTORE PUSH1 0x24 PUSH1 0x0 REVERT JUMPDEST PUSH1 0x0 DUP1 REVERT JUMPDEST PUSH1 0x0 DUP1 REVERT JUMPDEST PUSH1 0x0 DUP1 REVERT JUMPDEST PUSH1 0x0 DUP1 REVERT JUMPDEST PUSH1 0x0 PUSH1 0x1F NOT PUSH1 0x1F DUP4 ADD AND SWAP1 POP SWAP2 SWAP1 POP JUMP JUMPDEST PUSH32 0x63616C6C6572206973206E6F7420612070726F64756365722E00000000000000 PUSH1 0x0 DUP3 ADD MSTORE POP JUMP JUMPDEST PUSH32 0x63616C6C6572206973206E6F742074686520746F6B656E206F776E65722E0000 PUSH1 0x0 DUP3 ADD MSTORE POP JUMP JUMPDEST PUSH1 0x5 DUP2 LT PUSH2 0x1733 JUMPI PUSH2 0x1732 PUSH2 0x161E JUMP JUMPDEST JUMPDEST POP JUMP JUMPDEST PUSH2 0x173F DUP2 PUSH2 0x1492 JUMP JUMPDEST DUP2 EQ PUSH2 0x174A JUMPI PUSH1 0x0 DUP1 REVERT JUMPDEST POP JUMP JUMPDEST PUSH1 0x5 DUP2 LT PUSH2 0x175A JUMPI PUSH1 0x0 DUP1 REVERT JUMPDEST POP JUMP JUMPDEST PUSH2 0x1766 DUP2 PUSH2 0x14D5 JUMP JUMPDEST DUP2 EQ PUSH2 0x1771 JUMPI PUSH1 0x0 DUP1 REVERT JUMPDEST POP JUMP JUMPDEST PUSH2 0x177D DUP2 PUSH2 0x14FF JUMP JUMPDEST DUP2 EQ PUSH2 0x1788 JUMPI PUSH1 0x0 DUP1 REVERT JUMPDEST POP JUMP INVALID LOG2 PUSH5 0x6970667358 0x22 SLT KECCAK256 0xC SGT SGT 0xAC MOD PUSH21 0xF4F5FE0F3C573C0F477917CC15606D693C4684FE29 0x2E PUSH1 0x1B SIGNEXTEND EXTCODESIZE PUSH5 0x736F6C6343 STOP ADDMOD SMOD STOP CALLER "
				},
				"gasEstimates": {
					"creation": {
						"codeDepositCost": "1216200",
						"executionCost": "infinite",
						"totalCost": "infinite"
					},
					"external": {
						"burn(address,uint256)": "infinite",
						"buyToken()": "infinite",
						"etherBalance(address)": "3345",
						"getActorInfo(address)": "infinite",
						"mint(uint256)": "infinite",
						"name()": "infinite",
						"produceProduct(uint256,uint256,string,string,string,int256,uint256)": "infinite",
						"register(address,uint8,string)": "infinite",
						"symbol()": "infinite",
						"tokenBalance(address)": "2951",
						"tokenOwner()": "2536",
						"tokenTransfer(address,uint256)": "infinite"
					}
				},
				"methodIdentifiers": {
					"burn(address,uint256)": "9dc29fac",
					"buyToken()": "a4821719",
					"etherBalance(address)": "cd0c5896",
					"getActorInfo(address)": "b292abf1",
					"mint(uint256)": "a0712d68",
					"name()": "06fdde03",
					"produceProduct(uint256,uint256,string,string,string,int256,uint256)": "01f8938c",
					"register(address,uint8,string)": "40932fc2",
					"symbol()": "95d89b41",
					"tokenBalance(address)": "eedc966a",
					"tokenOwner()": "a3e67610",
					"tokenTransfer(address,uint256)": "68cdafe6"
				}
			},
			"storageLayout": {
				"storage": [
					{
						"astId": 3,
						"contract": "contracts/4_Product.sol:ProductSC",
						"label": "name",
						"offset": 0,
						"slot": "0",
						"type": "t_string_storage"
					},
					{
						"astId": 5,
						"contract": "contracts/4_Product.sol:ProductSC",
						"label": "symbol",
						"offset": 0,
						"slot": "1",
						"type": "t_string_storage"
					},
					{
						"astId": 7,
						"contract": "contracts/4_Product.sol:ProductSC",
						"label": "tokenOwner",
						"offset": 0,
						"slot": "2",
						"type": "t_address_payable"
					},
					{
						"astId": 19,
						"contract": "contracts/4_Product.sol:ProductSC",
						"label": "_totalSupply",
						"offset": 0,
						"slot": "3",
						"type": "t_uint256"
					},
					{
						"astId": 66,
						"contract": "contracts/4_Product.sol:ProductSC",
						"label": "balances",
						"offset": 0,
						"slot": "4",
						"type": "t_mapping(t_address,t_uint256)"
					},
					{
						"astId": 71,
						"contract": "contracts/4_Product.sol:ProductSC",
						"label": "actors",
						"offset": 0,
						"slot": "5",
						"type": "t_mapping(t_address,t_struct(Actor)62_storage)"
					},
					{
						"astId": 76,
						"contract": "contracts/4_Product.sol:ProductSC",
						"label": "product",
						"offset": 0,
						"slot": "6",
						"type": "t_mapping(t_uint256,t_struct(Product)54_storage)"
					}
				],
				"types": {
					"t_address": {
						"encoding": "inplace",
						"label": "address",
						"numberOfBytes": "20"
					},
					"t_address_payable": {
						"encoding": "inplace",
						"label": "address payable",
						"numberOfBytes": "20"
					},
					"t_array(t_uint256)4_storage": {
						"base": "t_uint256",
						"encoding": "inplace",
						"label": "uint256[4]",
						"numberOfBytes": "128"
					},
					"t_bool": {
						"encoding": "inplace",
						"label": "bool",
						"numberOfBytes": "1"
					},
					"t_enum(Role)32": {
						"encoding": "inplace",
						"label": "enum ProductSC.Role",
						"numberOfBytes": "1"
					},
					"t_enum(State)26": {
						"encoding": "inplace",
						"label": "enum ProductSC.State",
						"numberOfBytes": "1"
					},
					"t_mapping(t_address,t_struct(Actor)62_storage)": {
						"encoding": "mapping",
						"key": "t_address",
						"label": "mapping(address => struct ProductSC.Actor)",
						"numberOfBytes": "32",
						"value": "t_struct(Actor)62_storage"
					},
					"t_mapping(t_address,t_uint256)": {
						"encoding": "mapping",
						"key": "t_address",
						"label": "mapping(address => uint256)",
						"numberOfBytes": "32",
						"value": "t_uint256"
					},
					"t_mapping(t_uint256,t_struct(Product)54_storage)": {
						"encoding": "mapping",
						"key": "t_uint256",
						"label": "mapping(uint256 => struct ProductSC.Product)",
						"numberOfBytes": "32",
						"value": "t_struct(Product)54_storage"
					},
					"t_string_storage": {
						"encoding": "bytes",
						"label": "string",
						"numberOfBytes": "32"
					},
					"t_struct(Actor)62_storage": {
						"encoding": "inplace",
						"label": "struct ProductSC.Actor",
						"members": [
							{
								"astId": 57,
								"contract": "contracts/4_Product.sol:ProductSC",
								"label": "role",
								"offset": 0,
								"slot": "0",
								"type": "t_enum(Role)32"
							},
							{
								"astId": 59,
								"contract": "contracts/4_Product.sol:ProductSC",
								"label": "name",
								"offset": 0,
								"slot": "1",
								"type": "t_string_storage"
							},
							{
								"astId": 61,
								"contract": "contracts/4_Product.sol:ProductSC",
								"label": "isDefined",
								"offset": 0,
								"slot": "2",
								"type": "t_bool"
							}
						],
						"numberOfBytes": "96"
					},
					"t_struct(Product)54_storage": {
						"encoding": "inplace",
						"label": "struct ProductSC.Product",
						"members": [
							{
								"astId": 34,
								"contract": "contracts/4_Product.sol:ProductSC",
								"label": "ID",
								"offset": 0,
								"slot": "0",
								"type": "t_uint256"
							},
							{
								"astId": 36,
								"contract": "contracts/4_Product.sol:ProductSC",
								"label": "ownerID",
								"offset": 0,
								"slot": "1",
								"type": "t_address"
							},
							{
								"astId": 38,
								"contract": "contracts/4_Product.sol:ProductSC",
								"label": "producerID",
								"offset": 0,
								"slot": "2",
								"type": "t_address"
							},
							{
								"astId": 42,
								"contract": "contracts/4_Product.sol:ProductSC",
								"label": "timestamp",
								"offset": 0,
								"slot": "3",
								"type": "t_array(t_uint256)4_storage"
							},
							{
								"astId": 45,
								"contract": "contracts/4_Product.sol:ProductSC",
								"label": "productState",
								"offset": 0,
								"slot": "7",
								"type": "t_enum(State)26"
							},
							{
								"astId": 47,
								"contract": "contracts/4_Product.sol:ProductSC",
								"label": "productPrice",
								"offset": 0,
								"slot": "8",
								"type": "t_uint256"
							},
							{
								"astId": 49,
								"contract": "contracts/4_Product.sol:ProductSC",
								"label": "distributorID",
								"offset": 0,
								"slot": "9",
								"type": "t_address"
							},
							{
								"astId": 51,
								"contract": "contracts/4_Product.sol:ProductSC",
								"label": "retailerID",
								"offset": 0,
								"slot": "10",
								"type": "t_address"
							},
							{
								"astId": 53,
								"contract": "contracts/4_Product.sol:ProductSC",
								"label": "consumerID",
								"offset": 0,
								"slot": "11",
								"type": "t_address"
							}
						],
						"numberOfBytes": "384"
					},
					"t_uint256": {
						"encoding": "inplace",
						"label": "uint256",
						"numberOfBytes": "32"
					}
				}
			},
			"userdoc": {
				"kind": "user",
				"methods": {},
				"version": 1
			}
		}
	}
}