{
	"contracts/4_Product.sol": {
		"ProductSC": {
			"abi": [
				{
					"inputs": [
						{
							"internalType": "string",
							"name": "_name",
							"type": "string"
						},
						{
							"internalType": "string",
							"name": "_symbol",
							"type": "string"
						},
						{
							"internalType": "uint256",
							"name": "_initialSupply",
							"type": "uint256"
						}
					],
					"stateMutability": "nonpayable",
					"type": "constructor"
				},
				{
					"inputs": [
						{
							"internalType": "address",
							"name": "_account",
							"type": "address"
						},
						{
							"internalType": "uint256",
							"name": "_amount",
							"type": "uint256"
						}
					],
					"name": "burn",
					"outputs": [],
					"stateMutability": "nonpayable",
					"type": "function"
				},
				{
					"inputs": [
						{
							"internalType": "uint256",
							"name": "_id",
							"type": "uint256"
						},
						{
							"internalType": "uint256",
							"name": "_timestamp",
							"type": "uint256"
						}
					],
					"name": "buyProduct",
					"outputs": [],
					"stateMutability": "nonpayable",
					"type": "function"
				},
				{
					"inputs": [],
					"name": "buyToken",
					"outputs": [],
					"stateMutability": "payable",
					"type": "function"
				},
				{
					"inputs": [
						{
							"internalType": "address",
							"name": "_addr",
							"type": "address"
						}
					],
					"name": "etherBalance",
					"outputs": [
						{
							"internalType": "uint256",
							"name": "",
							"type": "uint256"
						}
					],
					"stateMutability": "view",
					"type": "function"
				},
				{
					"inputs": [
						{
							"internalType": "address",
							"name": "_addr",
							"type": "address"
						}
					],
					"name": "getActorInfo",
					"outputs": [
						{
							"internalType": "enum ProductSC.Role",
							"name": "_role",
							"type": "uint8"
						},
						{
							"internalType": "string",
							"name": "_name",
							"type": "string"
						}
					],
					"stateMutability": "view",
					"type": "function"
				},
				{
					"inputs": [
						{
							"internalType": "uint256",
							"name": "_id",
							"type": "uint256"
						},
						{
							"internalType": "uint256",
							"name": "_timestamp",
							"type": "uint256"
						}
					],
					"name": "getProductInfo",
					"outputs": [
						{
							"internalType": "uint256",
							"name": "product_id",
							"type": "uint256"
						},
						{
							"internalType": "address",
							"name": "producer_id",
							"type": "address"
						},
						{
							"internalType": "address",
							"name": "owner_id",
							"type": "address"
						},
						{
							"internalType": "enum ProductSC.State",
							"name": "currentProductState",
							"type": "uint8"
						},
						{
							"internalType": "uint256",
							"name": "productPrice",
							"type": "uint256"
						},
						{
							"internalType": "address",
							"name": "distributorID",
							"type": "address"
						},
						{
							"internalType": "address",
							"name": "retailerID",
							"type": "address"
						},
						{
							"internalType": "address",
							"name": "consumerID",
							"type": "address"
						},
						{
							"internalType": "string",
							"name": "name",
							"type": "string"
						},
						{
							"internalType": "string",
							"name": "brand",
							"type": "string"
						},
						{
							"internalType": "string",
							"name": "size",
							"type": "string"
						},
						{
							"internalType": "string",
							"name": "weight",
							"type": "string"
						}
					],
					"stateMutability": "view",
					"type": "function"
				},
				{
					"inputs": [
						{
							"internalType": "uint256",
							"name": "_amount",
							"type": "uint256"
						}
					],
					"name": "mint",
					"outputs": [],
					"stateMutability": "nonpayable",
					"type": "function"
				},
				{
					"inputs": [],
					"name": "name",
					"outputs": [
						{
							"internalType": "string",
							"name": "",
							"type": "string"
						}
					],
					"stateMutability": "view",
					"type": "function"
				},
				{
					"inputs": [
						{
							"internalType": "uint256",
							"name": "_id",
							"type": "uint256"
						},
						{
							"internalType": "uint256",
							"name": "_timestamp",
							"type": "uint256"
						},
						{
							"internalType": "uint256",
							"name": "_price",
							"type": "uint256"
						},
						{
							"internalType": "string",
							"name": "_name",
							"type": "string"
						},
						{
							"internalType": "string",
							"name": "_brand",
							"type": "string"
						},
						{
							"internalType": "string",
							"name": "_size",
							"type": "string"
						},
						{
							"internalType": "string",
							"name": "_weight",
							"type": "string"
						},
						{
							"internalType": "string",
							"name": "_length",
							"type": "string"
						},
						{
							"internalType": "string",
							"name": "_width",
							"type": "string"
						},
						{
							"internalType": "string",
							"name": "_height",
							"type": "string"
						}
					],
					"name": "produceProduct",
					"outputs": [],
					"stateMutability": "nonpayable",
					"type": "function"
				},
				{
					"inputs": [
						{
							"internalType": "address",
							"name": "_addr",
							"type": "address"
						},
						{
							"internalType": "enum ProductSC.Role",
							"name": "_role",
							"type": "uint8"
						},
						{
							"internalType": "string",
							"name": "_name",
							"type": "string"
						}
					],
					"name": "register",
					"outputs": [],
					"stateMutability": "nonpayable",
					"type": "function"
				},
				{
					"inputs": [],
					"name": "symbol",
					"outputs": [
						{
							"internalType": "string",
							"name": "",
							"type": "string"
						}
					],
					"stateMutability": "view",
					"type": "function"
				},
				{
					"inputs": [
						{
							"internalType": "address",
							"name": "_addr",
							"type": "address"
						}
					],
					"name": "tokenBalance",
					"outputs": [
						{
							"internalType": "uint256",
							"name": "",
							"type": "uint256"
						}
					],
					"stateMutability": "view",
					"type": "function"
				},
				{
					"inputs": [],
					"name": "tokenOwner",
					"outputs": [
						{
							"internalType": "address payable",
							"name": "",
							"type": "address"
						}
					],
					"stateMutability": "view",
					"type": "function"
				},
				{
					"inputs": [
						{
							"internalType": "address",
							"name": "_to",
							"type": "address"
						},
						{
							"internalType": "uint256",
							"name": "_amount",
							"type": "uint256"
						}
					],
					"name": "tokenTransfer",
					"outputs": [
						{
							"internalType": "bool",
							"name": "",
							"type": "bool"
						}
					],
					"stateMutability": "nonpayable",
					"type": "function"
				}
			],
			"devdoc": {
				"kind": "dev",
				"methods": {},
				"version": 1
			},
			"evm": {
				"assembly": "    /* \"contracts/4_Product.sol\":35:9799  contract ProductSC {\r... */\n  mstore(0x40, 0x80)\n    /* \"contracts/4_Product.sol\":2158:2538  constructor (string memory _name, string memory _symbol, uint256 _initialSupply) {\r... */\n  callvalue\n  dup1\n  iszero\n  tag_1\n  jumpi\n  0x00\n  dup1\n  revert\ntag_1:\n  pop\n  mload(0x40)\n  sub(codesize, bytecodeSize)\n  dup1\n  bytecodeSize\n  dup4\n  codecopy\n  dup2\n  dup2\n  add\n  0x40\n  mstore\n  dup2\n  add\n  swap1\n  tag_2\n  swap2\n  swap1\n  tag_3\n  jump\t// in\ntag_2:\n    /* \"contracts/4_Product.sol\":2257:2262  _name */\n  dup3\n    /* \"contracts/4_Product.sol\":2250:2254  name */\n  0x00\n    /* \"contracts/4_Product.sol\":2250:2262  name = _name */\n  swap1\n  dup1\n  mload\n  swap1\n  0x20\n  add\n  swap1\n  tag_6\n  swap3\n  swap2\n  swap1\n  tag_7\n  jump\t// in\ntag_6:\n  pop\n    /* \"contracts/4_Product.sol\":2282:2289  _symbol */\n  dup2\n    /* \"contracts/4_Product.sol\":2273:2279  symbol */\n  0x01\n    /* \"contracts/4_Product.sol\":2273:2289  symbol = _symbol */\n  swap1\n  dup1\n  mload\n  swap1\n  0x20\n  add\n  swap1\n  tag_8\n  swap3\n  swap2\n  swap1\n  tag_7\n  jump\t// in\ntag_8:\n  pop\n    /* \"contracts/4_Product.sol\":2315:2329  _initialSupply */\n  dup1\n    /* \"contracts/4_Product.sol\":2300:2312  _totalSupply */\n  0x03\n    /* \"contracts/4_Product.sol\":2300:2329  _totalSupply = _initialSupply */\n  dup2\n  swap1\n  sstore\n  pop\n    /* \"contracts/4_Product.sol\":2361:2371  msg.sender */\n  caller\n    /* \"contracts/4_Product.sol\":2340:2350  tokenOwner */\n  0x02\n  0x00\n    /* \"contracts/4_Product.sol\":2340:2372  tokenOwner = payable(msg.sender) */\n  0x0100\n  exp\n  dup2\n  sload\n  dup2\n  0xffffffffffffffffffffffffffffffffffffffff\n  mul\n  not\n  and\n  swap1\n  dup4\n  0xffffffffffffffffffffffffffffffffffffffff\n  and\n  mul\n  or\n  swap1\n  sstore\n  pop\n    /* \"contracts/4_Product.sol\":2449:2463  _initialSupply */\n  dup1\n    /* \"contracts/4_Product.sol\":2426:2434  balances */\n  0x04\n    /* \"contracts/4_Product.sol\":2426:2446  balances[msg.sender] */\n  0x00\n    /* \"contracts/4_Product.sol\":2435:2445  msg.sender */\n  caller\n    /* \"contracts/4_Product.sol\":2426:2446  balances[msg.sender] */\n  0xffffffffffffffffffffffffffffffffffffffff\n  and\n  0xffffffffffffffffffffffffffffffffffffffff\n  and\n  dup2\n  mstore\n  0x20\n  add\n  swap1\n  dup2\n  mstore\n  0x20\n  add\n  0x00\n  keccak256\n    /* \"contracts/4_Product.sol\":2426:2463  balances[msg.sender] = _initialSupply */\n  dup2\n  swap1\n  sstore\n  pop\n    /* \"contracts/4_Product.sol\":2158:2538  constructor (string memory _name, string memory _symbol, uint256 _initialSupply) {\r... */\n  pop\n  pop\n  pop\n    /* \"contracts/4_Product.sol\":35:9799  contract ProductSC {\r... */\n  jump(tag_9)\ntag_7:\n  dup3\n  dup1\n  sload\n  tag_10\n  swap1\n  tag_11\n  jump\t// in\ntag_10:\n  swap1\n  0x00\n  mstore\n  keccak256(0x00, 0x20)\n  swap1\n  0x1f\n  add\n  0x20\n  swap1\n  div\n  dup2\n  add\n  swap3\n  dup3\n  tag_13\n  jumpi\n  0x00\n  dup6\n  sstore\n  jump(tag_12)\ntag_13:\n  dup3\n  0x1f\n  lt\n  tag_14\n  jumpi\n  dup1\n  mload\n  not(0xff)\n  and\n  dup4\n  dup1\n  add\n  or\n  dup6\n  sstore\n  jump(tag_12)\ntag_14:\n  dup3\n  dup1\n  add\n  0x01\n  add\n  dup6\n  sstore\n  dup3\n  iszero\n  tag_12\n  jumpi\n  swap2\n  dup3\n  add\ntag_15:\n  dup3\n  dup2\n  gt\n  iszero\n  tag_16\n  jumpi\n  dup3\n  mload\n  dup3\n  sstore\n  swap2\n  0x20\n  add\n  swap2\n  swap1\n  0x01\n  add\n  swap1\n  jump(tag_15)\ntag_16:\ntag_12:\n  pop\n  swap1\n  pop\n  tag_17\n  swap2\n  swap1\n  tag_18\n  jump\t// in\ntag_17:\n  pop\n  swap1\n  jump\t// out\ntag_18:\ntag_19:\n  dup1\n  dup3\n  gt\n  iszero\n  tag_20\n  jumpi\n  0x00\n  dup2\n  0x00\n  swap1\n  sstore\n  pop\n  0x01\n  add\n  jump(tag_19)\ntag_20:\n  pop\n  swap1\n  jump\t// out\n    /* \"#utility.yul\":7:428   */\ntag_22:\n    /* \"#utility.yul\":96:101   */\n  0x00\n    /* \"#utility.yul\":121:187   */\n  tag_24\n    /* \"#utility.yul\":137:186   */\n  tag_25\n    /* \"#utility.yul\":179:185   */\n  dup5\n    /* \"#utility.yul\":137:186   */\n  tag_26\n  jump\t// in\ntag_25:\n    /* \"#utility.yul\":121:187   */\n  tag_27\n  jump\t// in\ntag_24:\n    /* \"#utility.yul\":112:187   */\n  swap1\n  pop\n    /* \"#utility.yul\":210:216   */\n  dup3\n    /* \"#utility.yul\":203:208   */\n  dup2\n    /* \"#utility.yul\":196:217   */\n  mstore\n    /* \"#utility.yul\":248:252   */\n  0x20\n    /* \"#utility.yul\":241:246   */\n  dup2\n    /* \"#utility.yul\":237:253   */\n  add\n    /* \"#utility.yul\":286:289   */\n  dup5\n    /* \"#utility.yul\":277:283   */\n  dup5\n    /* \"#utility.yul\":272:275   */\n  dup5\n    /* \"#utility.yul\":268:284   */\n  add\n    /* \"#utility.yul\":265:290   */\n  gt\n    /* \"#utility.yul\":262:374   */\n  iszero\n  tag_28\n  jumpi\n    /* \"#utility.yul\":293:372   */\n  tag_29\n  tag_30\n  jump\t// in\ntag_29:\n    /* \"#utility.yul\":262:374   */\ntag_28:\n    /* \"#utility.yul\":383:422   */\n  tag_31\n    /* \"#utility.yul\":415:421   */\n  dup5\n    /* \"#utility.yul\":410:413   */\n  dup3\n    /* \"#utility.yul\":405:408   */\n  dup6\n    /* \"#utility.yul\":383:422   */\n  tag_32\n  jump\t// in\ntag_31:\n    /* \"#utility.yul\":102:428   */\n  pop\n    /* \"#utility.yul\":7:428   */\n  swap4\n  swap3\n  pop\n  pop\n  pop\n  jump\t// out\n    /* \"#utility.yul\":448:803   */\ntag_33:\n    /* \"#utility.yul\":515:520   */\n  0x00\n    /* \"#utility.yul\":564:567   */\n  dup3\n    /* \"#utility.yul\":557:561   */\n  0x1f\n    /* \"#utility.yul\":549:555   */\n  dup4\n    /* \"#utility.yul\":545:562   */\n  add\n    /* \"#utility.yul\":541:568   */\n  slt\n    /* \"#utility.yul\":531:653   */\n  tag_35\n  jumpi\n    /* \"#utility.yul\":572:651   */\n  tag_36\n  tag_37\n  jump\t// in\ntag_36:\n    /* \"#utility.yul\":531:653   */\ntag_35:\n    /* \"#utility.yul\":682:688   */\n  dup2\n    /* \"#utility.yul\":676:689   */\n  mload\n    /* \"#utility.yul\":707:797   */\n  tag_38\n    /* \"#utility.yul\":793:796   */\n  dup5\n    /* \"#utility.yul\":785:791   */\n  dup3\n    /* \"#utility.yul\":778:782   */\n  0x20\n    /* \"#utility.yul\":770:776   */\n  dup7\n    /* \"#utility.yul\":766:783   */\n  add\n    /* \"#utility.yul\":707:797   */\n  tag_22\n  jump\t// in\ntag_38:\n    /* \"#utility.yul\":698:797   */\n  swap2\n  pop\n    /* \"#utility.yul\":521:803   */\n  pop\n    /* \"#utility.yul\":448:803   */\n  swap3\n  swap2\n  pop\n  pop\n  jump\t// out\n    /* \"#utility.yul\":809:952   */\ntag_39:\n    /* \"#utility.yul\":866:871   */\n  0x00\n    /* \"#utility.yul\":897:903   */\n  dup2\n    /* \"#utility.yul\":891:904   */\n  mload\n    /* \"#utility.yul\":882:904   */\n  swap1\n  pop\n    /* \"#utility.yul\":913:946   */\n  tag_41\n    /* \"#utility.yul\":940:945   */\n  dup2\n    /* \"#utility.yul\":913:946   */\n  tag_42\n  jump\t// in\ntag_41:\n    /* \"#utility.yul\":809:952   */\n  swap3\n  swap2\n  pop\n  pop\n  jump\t// out\n    /* \"#utility.yul\":958:1967   */\ntag_3:\n    /* \"#utility.yul\":1066:1072   */\n  0x00\n    /* \"#utility.yul\":1074:1080   */\n  dup1\n    /* \"#utility.yul\":1082:1088   */\n  0x00\n    /* \"#utility.yul\":1131:1133   */\n  0x60\n    /* \"#utility.yul\":1119:1128   */\n  dup5\n    /* \"#utility.yul\":1110:1117   */\n  dup7\n    /* \"#utility.yul\":1106:1129   */\n  sub\n    /* \"#utility.yul\":1102:1134   */\n  slt\n    /* \"#utility.yul\":1099:1218   */\n  iszero\n  tag_44\n  jumpi\n    /* \"#utility.yul\":1137:1216   */\n  tag_45\n  tag_46\n  jump\t// in\ntag_45:\n    /* \"#utility.yul\":1099:1218   */\ntag_44:\n    /* \"#utility.yul\":1278:1279   */\n  0x00\n    /* \"#utility.yul\":1267:1276   */\n  dup5\n    /* \"#utility.yul\":1263:1280   */\n  add\n    /* \"#utility.yul\":1257:1281   */\n  mload\n    /* \"#utility.yul\":1308:1326   */\n  0xffffffffffffffff\n    /* \"#utility.yul\":1300:1306   */\n  dup2\n    /* \"#utility.yul\":1297:1327   */\n  gt\n    /* \"#utility.yul\":1294:1411   */\n  iszero\n  tag_47\n  jumpi\n    /* \"#utility.yul\":1330:1409   */\n  tag_48\n  tag_49\n  jump\t// in\ntag_48:\n    /* \"#utility.yul\":1294:1411   */\ntag_47:\n    /* \"#utility.yul\":1435:1509   */\n  tag_50\n    /* \"#utility.yul\":1501:1508   */\n  dup7\n    /* \"#utility.yul\":1492:1498   */\n  dup3\n    /* \"#utility.yul\":1481:1490   */\n  dup8\n    /* \"#utility.yul\":1477:1499   */\n  add\n    /* \"#utility.yul\":1435:1509   */\n  tag_33\n  jump\t// in\ntag_50:\n    /* \"#utility.yul\":1425:1509   */\n  swap4\n  pop\n    /* \"#utility.yul\":1228:1519   */\n  pop\n    /* \"#utility.yul\":1579:1581   */\n  0x20\n    /* \"#utility.yul\":1568:1577   */\n  dup5\n    /* \"#utility.yul\":1564:1582   */\n  add\n    /* \"#utility.yul\":1558:1583   */\n  mload\n    /* \"#utility.yul\":1610:1628   */\n  0xffffffffffffffff\n    /* \"#utility.yul\":1602:1608   */\n  dup2\n    /* \"#utility.yul\":1599:1629   */\n  gt\n    /* \"#utility.yul\":1596:1713   */\n  iszero\n  tag_51\n  jumpi\n    /* \"#utility.yul\":1632:1711   */\n  tag_52\n  tag_49\n  jump\t// in\ntag_52:\n    /* \"#utility.yul\":1596:1713   */\ntag_51:\n    /* \"#utility.yul\":1737:1811   */\n  tag_53\n    /* \"#utility.yul\":1803:1810   */\n  dup7\n    /* \"#utility.yul\":1794:1800   */\n  dup3\n    /* \"#utility.yul\":1783:1792   */\n  dup8\n    /* \"#utility.yul\":1779:1801   */\n  add\n    /* \"#utility.yul\":1737:1811   */\n  tag_33\n  jump\t// in\ntag_53:\n    /* \"#utility.yul\":1727:1811   */\n  swap3\n  pop\n    /* \"#utility.yul\":1529:1821   */\n  pop\n    /* \"#utility.yul\":1860:1862   */\n  0x40\n    /* \"#utility.yul\":1886:1950   */\n  tag_54\n    /* \"#utility.yul\":1942:1949   */\n  dup7\n    /* \"#utility.yul\":1933:1939   */\n  dup3\n    /* \"#utility.yul\":1922:1931   */\n  dup8\n    /* \"#utility.yul\":1918:1940   */\n  add\n    /* \"#utility.yul\":1886:1950   */\n  tag_39\n  jump\t// in\ntag_54:\n    /* \"#utility.yul\":1876:1950   */\n  swap2\n  pop\n    /* \"#utility.yul\":1831:1960   */\n  pop\n    /* \"#utility.yul\":958:1967   */\n  swap3\n  pop\n  swap3\n  pop\n  swap3\n  jump\t// out\n    /* \"#utility.yul\":1973:2102   */\ntag_27:\n    /* \"#utility.yul\":2007:2013   */\n  0x00\n    /* \"#utility.yul\":2034:2054   */\n  tag_56\n  tag_57\n  jump\t// in\ntag_56:\n    /* \"#utility.yul\":2024:2054   */\n  swap1\n  pop\n    /* \"#utility.yul\":2063:2096   */\n  tag_58\n    /* \"#utility.yul\":2091:2095   */\n  dup3\n    /* \"#utility.yul\":2083:2089   */\n  dup3\n    /* \"#utility.yul\":2063:2096   */\n  tag_59\n  jump\t// in\ntag_58:\n    /* \"#utility.yul\":1973:2102   */\n  swap2\n  swap1\n  pop\n  jump\t// out\n    /* \"#utility.yul\":2108:2183   */\ntag_57:\n    /* \"#utility.yul\":2141:2147   */\n  0x00\n    /* \"#utility.yul\":2174:2176   */\n  0x40\n    /* \"#utility.yul\":2168:2177   */\n  mload\n    /* \"#utility.yul\":2158:2177   */\n  swap1\n  pop\n    /* \"#utility.yul\":2108:2183   */\n  swap1\n  jump\t// out\n    /* \"#utility.yul\":2189:2497   */\ntag_26:\n    /* \"#utility.yul\":2251:2255   */\n  0x00\n    /* \"#utility.yul\":2341:2359   */\n  0xffffffffffffffff\n    /* \"#utility.yul\":2333:2339   */\n  dup3\n    /* \"#utility.yul\":2330:2360   */\n  gt\n    /* \"#utility.yul\":2327:2383   */\n  iszero\n  tag_62\n  jumpi\n    /* \"#utility.yul\":2363:2381   */\n  tag_63\n  tag_64\n  jump\t// in\ntag_63:\n    /* \"#utility.yul\":2327:2383   */\ntag_62:\n    /* \"#utility.yul\":2401:2430   */\n  tag_65\n    /* \"#utility.yul\":2423:2429   */\n  dup3\n    /* \"#utility.yul\":2401:2430   */\n  tag_66\n  jump\t// in\ntag_65:\n    /* \"#utility.yul\":2393:2430   */\n  swap1\n  pop\n    /* \"#utility.yul\":2485:2489   */\n  0x20\n    /* \"#utility.yul\":2479:2483   */\n  dup2\n    /* \"#utility.yul\":2475:2490   */\n  add\n    /* \"#utility.yul\":2467:2490   */\n  swap1\n  pop\n    /* \"#utility.yul\":2189:2497   */\n  swap2\n  swap1\n  pop\n  jump\t// out\n    /* \"#utility.yul\":2503:2580   */\ntag_67:\n    /* \"#utility.yul\":2540:2547   */\n  0x00\n    /* \"#utility.yul\":2569:2574   */\n  dup2\n    /* \"#utility.yul\":2558:2574   */\n  swap1\n  pop\n    /* \"#utility.yul\":2503:2580   */\n  swap2\n  swap1\n  pop\n  jump\t// out\n    /* \"#utility.yul\":2586:2893   */\ntag_32:\n    /* \"#utility.yul\":2654:2655   */\n  0x00\n    /* \"#utility.yul\":2664:2777   */\ntag_70:\n    /* \"#utility.yul\":2678:2684   */\n  dup4\n    /* \"#utility.yul\":2675:2676   */\n  dup2\n    /* \"#utility.yul\":2672:2685   */\n  lt\n    /* \"#utility.yul\":2664:2777   */\n  iszero\n  tag_72\n  jumpi\n    /* \"#utility.yul\":2763:2764   */\n  dup1\n    /* \"#utility.yul\":2758:2761   */\n  dup3\n    /* \"#utility.yul\":2754:2765   */\n  add\n    /* \"#utility.yul\":2748:2766   */\n  mload\n    /* \"#utility.yul\":2744:2745   */\n  dup2\n    /* \"#utility.yul\":2739:2742   */\n  dup5\n    /* \"#utility.yul\":2735:2746   */\n  add\n    /* \"#utility.yul\":2728:2767   */\n  mstore\n    /* \"#utility.yul\":2700:2702   */\n  0x20\n    /* \"#utility.yul\":2697:2698   */\n  dup2\n    /* \"#utility.yul\":2693:2703   */\n  add\n    /* \"#utility.yul\":2688:2703   */\n  swap1\n  pop\n    /* \"#utility.yul\":2664:2777   */\n  jump(tag_70)\ntag_72:\n    /* \"#utility.yul\":2795:2801   */\n  dup4\n    /* \"#utility.yul\":2792:2793   */\n  dup2\n    /* \"#utility.yul\":2789:2802   */\n  gt\n    /* \"#utility.yul\":2786:2887   */\n  iszero\n  tag_73\n  jumpi\n    /* \"#utility.yul\":2875:2876   */\n  0x00\n    /* \"#utility.yul\":2866:2872   */\n  dup5\n    /* \"#utility.yul\":2861:2864   */\n  dup5\n    /* \"#utility.yul\":2857:2873   */\n  add\n    /* \"#utility.yul\":2850:2877   */\n  mstore\n    /* \"#utility.yul\":2786:2887   */\ntag_73:\n    /* \"#utility.yul\":2635:2893   */\n  pop\n    /* \"#utility.yul\":2586:2893   */\n  pop\n  pop\n  pop\n  jump\t// out\n    /* \"#utility.yul\":2899:3219   */\ntag_11:\n    /* \"#utility.yul\":2943:2949   */\n  0x00\n    /* \"#utility.yul\":2980:2981   */\n  0x02\n    /* \"#utility.yul\":2974:2978   */\n  dup3\n    /* \"#utility.yul\":2970:2982   */\n  div\n    /* \"#utility.yul\":2960:2982   */\n  swap1\n  pop\n    /* \"#utility.yul\":3027:3028   */\n  0x01\n    /* \"#utility.yul\":3021:3025   */\n  dup3\n    /* \"#utility.yul\":3017:3029   */\n  and\n    /* \"#utility.yul\":3048:3066   */\n  dup1\n    /* \"#utility.yul\":3038:3119   */\n  tag_75\n  jumpi\n    /* \"#utility.yul\":3104:3108   */\n  0x7f\n    /* \"#utility.yul\":3096:3102   */\n  dup3\n    /* \"#utility.yul\":3092:3109   */\n  and\n    /* \"#utility.yul\":3082:3109   */\n  swap2\n  pop\n    /* \"#utility.yul\":3038:3119   */\ntag_75:\n    /* \"#utility.yul\":3166:3168   */\n  0x20\n    /* \"#utility.yul\":3158:3164   */\n  dup3\n    /* \"#utility.yul\":3155:3169   */\n  lt\n    /* \"#utility.yul\":3135:3153   */\n  dup2\n    /* \"#utility.yul\":3132:3170   */\n  eq\n    /* \"#utility.yul\":3129:3213   */\n  iszero\n  tag_76\n  jumpi\n    /* \"#utility.yul\":3185:3203   */\n  tag_77\n  tag_78\n  jump\t// in\ntag_77:\n    /* \"#utility.yul\":3129:3213   */\ntag_76:\n    /* \"#utility.yul\":2950:3219   */\n  pop\n    /* \"#utility.yul\":2899:3219   */\n  swap2\n  swap1\n  pop\n  jump\t// out\n    /* \"#utility.yul\":3225:3506   */\ntag_59:\n    /* \"#utility.yul\":3308:3335   */\n  tag_80\n    /* \"#utility.yul\":3330:3334   */\n  dup3\n    /* \"#utility.yul\":3308:3335   */\n  tag_66\n  jump\t// in\ntag_80:\n    /* \"#utility.yul\":3300:3306   */\n  dup2\n    /* \"#utility.yul\":3296:3336   */\n  add\n    /* \"#utility.yul\":3438:3444   */\n  dup2\n    /* \"#utility.yul\":3426:3436   */\n  dup2\n    /* \"#utility.yul\":3423:3445   */\n  lt\n    /* \"#utility.yul\":3402:3420   */\n  0xffffffffffffffff\n    /* \"#utility.yul\":3390:3400   */\n  dup3\n    /* \"#utility.yul\":3387:3421   */\n  gt\n    /* \"#utility.yul\":3384:3446   */\n  or\n    /* \"#utility.yul\":3381:3469   */\n  iszero\n  tag_81\n  jumpi\n    /* \"#utility.yul\":3449:3467   */\n  tag_82\n  tag_64\n  jump\t// in\ntag_82:\n    /* \"#utility.yul\":3381:3469   */\ntag_81:\n    /* \"#utility.yul\":3489:3499   */\n  dup1\n    /* \"#utility.yul\":3485:3487   */\n  0x40\n    /* \"#utility.yul\":3478:3500   */\n  mstore\n    /* \"#utility.yul\":3268:3506   */\n  pop\n    /* \"#utility.yul\":3225:3506   */\n  pop\n  pop\n  jump\t// out\n    /* \"#utility.yul\":3512:3692   */\ntag_78:\n    /* \"#utility.yul\":3560:3637   */\n  0x4e487b7100000000000000000000000000000000000000000000000000000000\n    /* \"#utility.yul\":3557:3558   */\n  0x00\n    /* \"#utility.yul\":3550:3638   */\n  mstore\n    /* \"#utility.yul\":3657:3661   */\n  0x22\n    /* \"#utility.yul\":3654:3655   */\n  0x04\n    /* \"#utility.yul\":3647:3662   */\n  mstore\n    /* \"#utility.yul\":3681:3685   */\n  0x24\n    /* \"#utility.yul\":3678:3679   */\n  0x00\n    /* \"#utility.yul\":3671:3686   */\n  revert\n    /* \"#utility.yul\":3698:3878   */\ntag_64:\n    /* \"#utility.yul\":3746:3823   */\n  0x4e487b7100000000000000000000000000000000000000000000000000000000\n    /* \"#utility.yul\":3743:3744   */\n  0x00\n    /* \"#utility.yul\":3736:3824   */\n  mstore\n    /* \"#utility.yul\":3843:3847   */\n  0x41\n    /* \"#utility.yul\":3840:3841   */\n  0x04\n    /* \"#utility.yul\":3833:3848   */\n  mstore\n    /* \"#utility.yul\":3867:3871   */\n  0x24\n    /* \"#utility.yul\":3864:3865   */\n  0x00\n    /* \"#utility.yul\":3857:3872   */\n  revert\n    /* \"#utility.yul\":3884:4001   */\ntag_37:\n    /* \"#utility.yul\":3993:3994   */\n  0x00\n    /* \"#utility.yul\":3990:3991   */\n  dup1\n    /* \"#utility.yul\":3983:3995   */\n  revert\n    /* \"#utility.yul\":4007:4124   */\ntag_30:\n    /* \"#utility.yul\":4116:4117   */\n  0x00\n    /* \"#utility.yul\":4113:4114   */\n  dup1\n    /* \"#utility.yul\":4106:4118   */\n  revert\n    /* \"#utility.yul\":4130:4247   */\ntag_49:\n    /* \"#utility.yul\":4239:4240   */\n  0x00\n    /* \"#utility.yul\":4236:4237   */\n  dup1\n    /* \"#utility.yul\":4229:4241   */\n  revert\n    /* \"#utility.yul\":4253:4370   */\ntag_46:\n    /* \"#utility.yul\":4362:4363   */\n  0x00\n    /* \"#utility.yul\":4359:4360   */\n  dup1\n    /* \"#utility.yul\":4352:4364   */\n  revert\n    /* \"#utility.yul\":4376:4478   */\ntag_66:\n    /* \"#utility.yul\":4417:4423   */\n  0x00\n    /* \"#utility.yul\":4468:4470   */\n  0x1f\n    /* \"#utility.yul\":4464:4471   */\n  not\n    /* \"#utility.yul\":4459:4461   */\n  0x1f\n    /* \"#utility.yul\":4452:4457   */\n  dup4\n    /* \"#utility.yul\":4448:4462   */\n  add\n    /* \"#utility.yul\":4444:4472   */\n  and\n    /* \"#utility.yul\":4434:4472   */\n  swap1\n  pop\n    /* \"#utility.yul\":4376:4478   */\n  swap2\n  swap1\n  pop\n  jump\t// out\n    /* \"#utility.yul\":4484:4606   */\ntag_42:\n    /* \"#utility.yul\":4557:4581   */\n  tag_91\n    /* \"#utility.yul\":4575:4580   */\n  dup2\n    /* \"#utility.yul\":4557:4581   */\n  tag_67\n  jump\t// in\ntag_91:\n    /* \"#utility.yul\":4550:4555   */\n  dup2\n    /* \"#utility.yul\":4547:4582   */\n  eq\n    /* \"#utility.yul\":4537:4600   */\n  tag_92\n  jumpi\n    /* \"#utility.yul\":4596:4597   */\n  0x00\n    /* \"#utility.yul\":4593:4594   */\n  dup1\n    /* \"#utility.yul\":4586:4598   */\n  revert\n    /* \"#utility.yul\":4537:4600   */\ntag_92:\n    /* \"#utility.yul\":4484:4606   */\n  pop\n  jump\t// out\n    /* \"contracts/4_Product.sol\":35:9799  contract ProductSC {\r... */\ntag_9:\n  dataSize(sub_0)\n  dup1\n  dataOffset(sub_0)\n  0x00\n  codecopy\n  0x00\n  return\nstop\n\nsub_0: assembly {\n        /* \"contracts/4_Product.sol\":35:9799  contract ProductSC {\r... */\n      mstore(0x40, 0x80)\n      jumpi(tag_1, lt(calldatasize, 0x04))\n      shr(0xe0, calldataload(0x00))\n      dup1\n      0xa0712d68\n      gt\n      tag_16\n      jumpi\n      dup1\n      0xb292abf1\n      gt\n      tag_17\n      jumpi\n      dup1\n      0xb292abf1\n      eq\n      tag_12\n      jumpi\n      dup1\n      0xcd0c5896\n      eq\n      tag_13\n      jumpi\n      dup1\n      0xd2c351b4\n      eq\n      tag_14\n      jumpi\n      dup1\n      0xeedc966a\n      eq\n      tag_15\n      jumpi\n      jump(tag_1)\n    tag_17:\n      dup1\n      0xa0712d68\n      eq\n      tag_9\n      jumpi\n      dup1\n      0xa3e67610\n      eq\n      tag_10\n      jumpi\n      dup1\n      0xa4821719\n      eq\n      tag_11\n      jumpi\n      jump(tag_1)\n    tag_16:\n      dup1\n      0x561e0e98\n      gt\n      tag_18\n      jumpi\n      dup1\n      0x561e0e98\n      eq\n      tag_5\n      jumpi\n      dup1\n      0x68cdafe6\n      eq\n      tag_6\n      jumpi\n      dup1\n      0x95d89b41\n      eq\n      tag_7\n      jumpi\n      dup1\n      0x9dc29fac\n      eq\n      tag_8\n      jumpi\n      jump(tag_1)\n    tag_18:\n      dup1\n      0x06fdde03\n      eq\n      tag_2\n      jumpi\n      dup1\n      0x40932fc2\n      eq\n      tag_3\n      jumpi\n      dup1\n      0x53b62866\n      eq\n      tag_4\n      jumpi\n    tag_1:\n      0x00\n      dup1\n      revert\n        /* \"contracts/4_Product.sol\":67:85  string public name */\n    tag_2:\n      callvalue\n      dup1\n      iszero\n      tag_19\n      jumpi\n      0x00\n      dup1\n      revert\n    tag_19:\n      pop\n      tag_20\n      tag_21\n      jump\t// in\n    tag_20:\n      mload(0x40)\n      tag_22\n      swap2\n      swap1\n      tag_23\n      jump\t// in\n    tag_22:\n      mload(0x40)\n      dup1\n      swap2\n      sub\n      swap1\n      return\n        /* \"contracts/4_Product.sol\":5868:6127  function register(address _addr, Role _role, string memory _name) public {\r... */\n    tag_3:\n      callvalue\n      dup1\n      iszero\n      tag_24\n      jumpi\n      0x00\n      dup1\n      revert\n    tag_24:\n      pop\n      tag_25\n      0x04\n      dup1\n      calldatasize\n      sub\n      dup2\n      add\n      swap1\n      tag_26\n      swap2\n      swap1\n      tag_27\n      jump\t// in\n    tag_26:\n      tag_28\n      jump\t// in\n    tag_25:\n      stop\n        /* \"contracts/4_Product.sol\":7317:7967  function buyProduct(uint256 _id, uint256 _timestamp) public OnlyDistributor{\r... */\n    tag_4:\n      callvalue\n      dup1\n      iszero\n      tag_29\n      jumpi\n      0x00\n      dup1\n      revert\n    tag_29:\n      pop\n      tag_30\n      0x04\n      dup1\n      calldatasize\n      sub\n      dup2\n      add\n      swap1\n      tag_31\n      swap2\n      swap1\n      tag_32\n      jump\t// in\n    tag_31:\n      tag_33\n      jump\t// in\n    tag_30:\n      stop\n        /* \"contracts/4_Product.sol\":6246:7270  function produceProduct(uint256 _id, uint256 _timestamp, uint256 _price, string memory _name, string memory _brand, string memory _size, string memory _weight, string memory _length ,string memory _width ,string memory _height) public OnlyProducer{\r... */\n    tag_5:\n      callvalue\n      dup1\n      iszero\n      tag_34\n      jumpi\n      0x00\n      dup1\n      revert\n    tag_34:\n      pop\n      tag_35\n      0x04\n      dup1\n      calldatasize\n      sub\n      dup2\n      add\n      swap1\n      tag_36\n      swap2\n      swap1\n      tag_37\n      jump\t// in\n    tag_36:\n      tag_38\n      jump\t// in\n    tag_35:\n      stop\n        /* \"contracts/4_Product.sol\":5500:5856  function tokenTransfer(address _to, uint256 _amount) public returns (bool) {\r... */\n    tag_6:\n      callvalue\n      dup1\n      iszero\n      tag_39\n      jumpi\n      0x00\n      dup1\n      revert\n    tag_39:\n      pop\n      tag_40\n      0x04\n      dup1\n      calldatasize\n      sub\n      dup2\n      add\n      swap1\n      tag_41\n      swap2\n      swap1\n      tag_42\n      jump\t// in\n    tag_41:\n      tag_43\n      jump\t// in\n    tag_40:\n      mload(0x40)\n      tag_44\n      swap2\n      swap1\n      tag_45\n      jump\t// in\n    tag_44:\n      mload(0x40)\n      dup1\n      swap2\n      sub\n      swap1\n      return\n        /* \"contracts/4_Product.sol\":114:134  string public symbol */\n    tag_7:\n      callvalue\n      dup1\n      iszero\n      tag_46\n      jumpi\n      0x00\n      dup1\n      revert\n    tag_46:\n      pop\n      tag_47\n      tag_48\n      jump\t// in\n    tag_47:\n      mload(0x40)\n      tag_49\n      swap2\n      swap1\n      tag_23\n      jump\t// in\n    tag_49:\n      mload(0x40)\n      dup1\n      swap2\n      sub\n      swap1\n      return\n        /* \"contracts/4_Product.sol\":4454:4871  function burn(address _account, uint256 _amount) public OnlyTokenOwner {\r... */\n    tag_8:\n      callvalue\n      dup1\n      iszero\n      tag_50\n      jumpi\n      0x00\n      dup1\n      revert\n    tag_50:\n      pop\n      tag_51\n      0x04\n      dup1\n      calldatasize\n      sub\n      dup2\n      add\n      swap1\n      tag_52\n      swap2\n      swap1\n      tag_42\n      jump\t// in\n    tag_52:\n      tag_53\n      jump\t// in\n    tag_51:\n      stop\n        /* \"contracts/4_Product.sol\":4075:4297  function mint(uint256 _amount) public OnlyTokenOwner {\r... */\n    tag_9:\n      callvalue\n      dup1\n      iszero\n      tag_54\n      jumpi\n      0x00\n      dup1\n      revert\n    tag_54:\n      pop\n      tag_55\n      0x04\n      dup1\n      calldatasize\n      sub\n      dup2\n      add\n      swap1\n      tag_56\n      swap2\n      swap1\n      tag_57\n      jump\t// in\n    tag_56:\n      tag_58\n      jump\t// in\n    tag_55:\n      stop\n        /* \"contracts/4_Product.sol\":165:199  address payable public  tokenOwner */\n    tag_10:\n      callvalue\n      dup1\n      iszero\n      tag_59\n      jumpi\n      0x00\n      dup1\n      revert\n    tag_59:\n      pop\n      tag_60\n      tag_61\n      jump\t// in\n    tag_60:\n      mload(0x40)\n      tag_62\n      swap2\n      swap1\n      tag_63\n      jump\t// in\n    tag_62:\n      mload(0x40)\n      dup1\n      swap2\n      sub\n      swap1\n      return\n        /* \"contracts/4_Product.sol\":4929:5426  function buyToken() public payable {\r... */\n    tag_11:\n      tag_64\n      tag_65\n      jump\t// in\n    tag_64:\n      stop\n        /* \"contracts/4_Product.sol\":9618:9794  function getActorInfo(address _addr) public view returns\r... */\n    tag_12:\n      callvalue\n      dup1\n      iszero\n      tag_66\n      jumpi\n      0x00\n      dup1\n      revert\n    tag_66:\n      pop\n      tag_67\n      0x04\n      dup1\n      calldatasize\n      sub\n      dup2\n      add\n      swap1\n      tag_68\n      swap2\n      swap1\n      tag_69\n      jump\t// in\n    tag_68:\n      tag_70\n      jump\t// in\n    tag_67:\n      mload(0x40)\n      tag_71\n      swap3\n      swap2\n      swap1\n      tag_72\n      jump\t// in\n    tag_71:\n      mload(0x40)\n      dup1\n      swap2\n      sub\n      swap1\n      return\n        /* \"contracts/4_Product.sol\":3853:3959  function etherBalance(address _addr) public view returns (uint256) {\r... */\n    tag_13:\n      callvalue\n      dup1\n      iszero\n      tag_73\n      jumpi\n      0x00\n      dup1\n      revert\n    tag_73:\n      pop\n      tag_74\n      0x04\n      dup1\n      calldatasize\n      sub\n      dup2\n      add\n      swap1\n      tag_75\n      swap2\n      swap1\n      tag_69\n      jump\t// in\n    tag_75:\n      tag_76\n      jump\t// in\n    tag_74:\n      mload(0x40)\n      tag_77\n      swap2\n      swap1\n      tag_78\n      jump\t// in\n    tag_77:\n      mload(0x40)\n      dup1\n      swap2\n      sub\n      swap1\n      return\n        /* \"contracts/4_Product.sol\":8040:8811  function getProductInfo(uint256 _id, uint256 _timestamp) public view returns \r... */\n    tag_14:\n      callvalue\n      dup1\n      iszero\n      tag_79\n      jumpi\n      0x00\n      dup1\n      revert\n    tag_79:\n      pop\n      tag_80\n      0x04\n      dup1\n      calldatasize\n      sub\n      dup2\n      add\n      swap1\n      tag_81\n      swap2\n      swap1\n      tag_32\n      jump\t// in\n    tag_81:\n      tag_82\n      jump\t// in\n    tag_80:\n      mload(0x40)\n      tag_83\n      swap13\n      swap12\n      swap11\n      swap10\n      swap9\n      swap8\n      swap7\n      swap6\n      swap5\n      swap4\n      swap3\n      swap2\n      swap1\n      tag_84\n      jump\t// in\n    tag_83:\n      mload(0x40)\n      dup1\n      swap2\n      sub\n      swap1\n      return\n        /* \"contracts/4_Product.sol\":3679:3787  function tokenBalance(address _addr) public view returns (uint256) {\r... */\n    tag_15:\n      callvalue\n      dup1\n      iszero\n      tag_85\n      jumpi\n      0x00\n      dup1\n      revert\n    tag_85:\n      pop\n      tag_86\n      0x04\n      dup1\n      calldatasize\n      sub\n      dup2\n      add\n      swap1\n      tag_87\n      swap2\n      swap1\n      tag_69\n      jump\t// in\n    tag_87:\n      tag_88\n      jump\t// in\n    tag_86:\n      mload(0x40)\n      tag_89\n      swap2\n      swap1\n      tag_78\n      jump\t// in\n    tag_89:\n      mload(0x40)\n      dup1\n      swap2\n      sub\n      swap1\n      return\n        /* \"contracts/4_Product.sol\":67:85  string public name */\n    tag_21:\n      0x00\n      dup1\n      sload\n      tag_90\n      swap1\n      tag_91\n      jump\t// in\n    tag_90:\n      dup1\n      0x1f\n      add\n      0x20\n      dup1\n      swap2\n      div\n      mul\n      0x20\n      add\n      mload(0x40)\n      swap1\n      dup2\n      add\n      0x40\n      mstore\n      dup1\n      swap3\n      swap2\n      swap1\n      dup2\n      dup2\n      mstore\n      0x20\n      add\n      dup3\n      dup1\n      sload\n      tag_92\n      swap1\n      tag_91\n      jump\t// in\n    tag_92:\n      dup1\n      iszero\n      tag_93\n      jumpi\n      dup1\n      0x1f\n      lt\n      tag_94\n      jumpi\n      0x0100\n      dup1\n      dup4\n      sload\n      div\n      mul\n      dup4\n      mstore\n      swap2\n      0x20\n      add\n      swap2\n      jump(tag_93)\n    tag_94:\n      dup3\n      add\n      swap2\n      swap1\n      0x00\n      mstore\n      keccak256(0x00, 0x20)\n      swap1\n    tag_95:\n      dup2\n      sload\n      dup2\n      mstore\n      swap1\n      0x01\n      add\n      swap1\n      0x20\n      add\n      dup1\n      dup4\n      gt\n      tag_95\n      jumpi\n      dup3\n      swap1\n      sub\n      0x1f\n      and\n      dup3\n      add\n      swap2\n    tag_93:\n      pop\n      pop\n      pop\n      pop\n      pop\n      dup2\n      jump\t// out\n        /* \"contracts/4_Product.sol\":5868:6127  function register(address _addr, Role _role, string memory _name) public {\r... */\n    tag_28:\n        /* \"contracts/4_Product.sol\":5952:5970  Actor memory actor */\n      0x00\n        /* \"contracts/4_Product.sol\":5973:5979  actors */\n      0x05\n        /* \"contracts/4_Product.sol\":5973:5986  actors[_addr] */\n      0x00\n        /* \"contracts/4_Product.sol\":5980:5985  _addr */\n      dup6\n        /* \"contracts/4_Product.sol\":5973:5986  actors[_addr] */\n      0xffffffffffffffffffffffffffffffffffffffff\n      and\n      0xffffffffffffffffffffffffffffffffffffffff\n      and\n      dup2\n      mstore\n      0x20\n      add\n      swap1\n      dup2\n      mstore\n      0x20\n      add\n      0x00\n      keccak256\n        /* \"contracts/4_Product.sol\":5952:5986  Actor memory actor = actors[_addr] */\n      mload(0x40)\n      dup1\n      0x60\n      add\n      0x40\n      mstore\n      swap1\n      dup2\n      0x00\n      dup3\n      add\n      0x00\n      swap1\n      sload\n      swap1\n      0x0100\n      exp\n      swap1\n      div\n      0xff\n      and\n      0x04\n      dup2\n      gt\n      iszero\n      tag_97\n      jumpi\n      tag_98\n      tag_99\n      jump\t// in\n    tag_98:\n    tag_97:\n      0x04\n      dup2\n      gt\n      iszero\n      tag_100\n      jumpi\n      tag_101\n      tag_99\n      jump\t// in\n    tag_101:\n    tag_100:\n      dup2\n      mstore\n      0x20\n      add\n      0x01\n      dup3\n      add\n      dup1\n      sload\n      tag_102\n      swap1\n      tag_91\n      jump\t// in\n    tag_102:\n      dup1\n      0x1f\n      add\n      0x20\n      dup1\n      swap2\n      div\n      mul\n      0x20\n      add\n      mload(0x40)\n      swap1\n      dup2\n      add\n      0x40\n      mstore\n      dup1\n      swap3\n      swap2\n      swap1\n      dup2\n      dup2\n      mstore\n      0x20\n      add\n      dup3\n      dup1\n      sload\n      tag_103\n      swap1\n      tag_91\n      jump\t// in\n    tag_103:\n      dup1\n      iszero\n      tag_104\n      jumpi\n      dup1\n      0x1f\n      lt\n      tag_105\n      jumpi\n      0x0100\n      dup1\n      dup4\n      sload\n      div\n      mul\n      dup4\n      mstore\n      swap2\n      0x20\n      add\n      swap2\n      jump(tag_104)\n    tag_105:\n      dup3\n      add\n      swap2\n      swap1\n      0x00\n      mstore\n      keccak256(0x00, 0x20)\n      swap1\n    tag_106:\n      dup2\n      sload\n      dup2\n      mstore\n      swap1\n      0x01\n      add\n      swap1\n      0x20\n      add\n      dup1\n      dup4\n      gt\n      tag_106\n      jumpi\n      dup3\n      swap1\n      sub\n      0x1f\n      and\n      dup3\n      add\n      swap2\n    tag_104:\n      pop\n      pop\n      pop\n      pop\n      pop\n      dup2\n      mstore\n      0x20\n      add\n      0x02\n      dup3\n      add\n      0x00\n      swap1\n      sload\n      swap1\n      0x0100\n      exp\n      swap1\n      div\n      0xff\n      and\n      iszero\n      iszero\n      iszero\n      iszero\n      dup2\n      mstore\n      pop\n      pop\n      swap1\n      pop\n        /* \"contracts/4_Product.sol\":6010:6015  _role */\n      dup3\n        /* \"contracts/4_Product.sol\":5997:6002  actor */\n      dup2\n        /* \"contracts/4_Product.sol\":5997:6007  actor.role */\n      0x00\n      add\n        /* \"contracts/4_Product.sol\":5997:6015  actor.role = _role */\n      swap1\n      0x04\n      dup2\n      gt\n      iszero\n      tag_107\n      jumpi\n      tag_108\n      tag_99\n      jump\t// in\n    tag_108:\n    tag_107:\n      swap1\n      dup2\n      0x04\n      dup2\n      gt\n      iszero\n      tag_109\n      jumpi\n      tag_110\n      tag_99\n      jump\t// in\n    tag_110:\n    tag_109:\n      dup2\n      mstore\n      pop\n      pop\n        /* \"contracts/4_Product.sol\":6039:6044  _name */\n      dup2\n        /* \"contracts/4_Product.sol\":6026:6031  actor */\n      dup2\n        /* \"contracts/4_Product.sol\":6026:6036  actor.name */\n      0x20\n      add\n        /* \"contracts/4_Product.sol\":6026:6044  actor.name = _name */\n      dup2\n      swap1\n      mstore\n      pop\n        /* \"contracts/4_Product.sol\":6073:6077  true */\n      0x01\n        /* \"contracts/4_Product.sol\":6055:6060  actor */\n      dup2\n        /* \"contracts/4_Product.sol\":6055:6070  actor.isDefined */\n      0x40\n      add\n        /* \"contracts/4_Product.sol\":6055:6077  actor.isDefined = true */\n      swap1\n      iszero\n      iszero\n      swap1\n      dup2\n      iszero\n      iszero\n      dup2\n      mstore\n      pop\n      pop\n        /* \"contracts/4_Product.sol\":6104:6109  actor */\n      dup1\n        /* \"contracts/4_Product.sol\":6088:6094  actors */\n      0x05\n        /* \"contracts/4_Product.sol\":6088:6101  actors[_addr] */\n      0x00\n        /* \"contracts/4_Product.sol\":6095:6100  _addr */\n      dup7\n        /* \"contracts/4_Product.sol\":6088:6101  actors[_addr] */\n      0xffffffffffffffffffffffffffffffffffffffff\n      and\n      0xffffffffffffffffffffffffffffffffffffffff\n      and\n      dup2\n      mstore\n      0x20\n      add\n      swap1\n      dup2\n      mstore\n      0x20\n      add\n      0x00\n      keccak256\n        /* \"contracts/4_Product.sol\":6088:6109  actors[_addr] = actor */\n      0x00\n      dup3\n      add\n      mload\n      dup2\n      0x00\n      add\n      exp(0x0100, 0x00)\n      dup2\n      sload\n      dup2\n      0xff\n      mul\n      not\n      and\n      swap1\n      dup4\n      0x04\n      dup2\n      gt\n      iszero\n      tag_111\n      jumpi\n      tag_112\n      tag_99\n      jump\t// in\n    tag_112:\n    tag_111:\n      mul\n      or\n      swap1\n      sstore\n      pop\n      0x20\n      dup3\n      add\n      mload\n      dup2\n      0x01\n      add\n      swap1\n      dup1\n      mload\n      swap1\n      0x20\n      add\n      swap1\n      tag_113\n      swap3\n      swap2\n      swap1\n      tag_114\n      jump\t// in\n    tag_113:\n      pop\n      0x40\n      dup3\n      add\n      mload\n      dup2\n      0x02\n      add\n      exp(0x0100, 0x00)\n      dup2\n      sload\n      dup2\n      0xff\n      mul\n      not\n      and\n      swap1\n      dup4\n      iszero\n      iszero\n      mul\n      or\n      swap1\n      sstore\n      pop\n      swap1\n      pop\n      pop\n        /* \"contracts/4_Product.sol\":5941:6127  {\r... */\n      pop\n        /* \"contracts/4_Product.sol\":5868:6127  function register(address _addr, Role _role, string memory _name) public {\r... */\n      pop\n      pop\n      pop\n      jump\t// out\n        /* \"contracts/4_Product.sol\":7317:7967  function buyProduct(uint256 _id, uint256 _timestamp) public OnlyDistributor{\r... */\n    tag_33:\n        /* \"contracts/4_Product.sol\":2969:2985  Role.Distributor */\n      0x01\n        /* \"contracts/4_Product.sol\":2942:2985  actors[msg.sender].role == Role.Distributor */\n      0x04\n      dup2\n      gt\n      iszero\n      tag_116\n      jumpi\n      tag_117\n      tag_99\n      jump\t// in\n    tag_117:\n    tag_116:\n        /* \"contracts/4_Product.sol\":2942:2948  actors */\n      0x05\n        /* \"contracts/4_Product.sol\":2942:2960  actors[msg.sender] */\n      0x00\n        /* \"contracts/4_Product.sol\":2949:2959  msg.sender */\n      caller\n        /* \"contracts/4_Product.sol\":2942:2960  actors[msg.sender] */\n      0xffffffffffffffffffffffffffffffffffffffff\n      and\n      0xffffffffffffffffffffffffffffffffffffffff\n      and\n      dup2\n      mstore\n      0x20\n      add\n      swap1\n      dup2\n      mstore\n      0x20\n      add\n      0x00\n      keccak256\n        /* \"contracts/4_Product.sol\":2942:2965  actors[msg.sender].role */\n      0x00\n      add\n      0x00\n      swap1\n      sload\n      swap1\n      0x0100\n      exp\n      swap1\n      div\n      0xff\n      and\n        /* \"contracts/4_Product.sol\":2942:2985  actors[msg.sender].role == Role.Distributor */\n      0x04\n      dup2\n      gt\n      iszero\n      tag_118\n      jumpi\n      tag_119\n      tag_99\n      jump\t// in\n    tag_119:\n    tag_118:\n      eq\n        /* \"contracts/4_Product.sol\":2934:3018  require(actors[msg.sender].role == Role.Distributor, 'caller is not a distributor.') */\n      tag_120\n      jumpi\n      mload(0x40)\n      0x08c379a000000000000000000000000000000000000000000000000000000000\n      dup2\n      mstore\n      0x04\n      add\n      tag_121\n      swap1\n      tag_122\n      jump\t// in\n    tag_121:\n      mload(0x40)\n      dup1\n      swap2\n      sub\n      swap1\n      revert\n    tag_120:\n        /* \"contracts/4_Product.sol\":7403:7432  Product storage boughtProduct */\n      0x00\n        /* \"contracts/4_Product.sol\":7435:7442  product */\n      0x06\n        /* \"contracts/4_Product.sol\":7435:7447  product[_id] */\n      0x00\n        /* \"contracts/4_Product.sol\":7443:7446  _id */\n      dup5\n        /* \"contracts/4_Product.sol\":7435:7447  product[_id] */\n      dup2\n      mstore\n      0x20\n      add\n      swap1\n      dup2\n      mstore\n      0x20\n      add\n      0x00\n      keccak256\n        /* \"contracts/4_Product.sol\":7403:7447  Product storage boughtProduct = product[_id] */\n      swap1\n      pop\n        /* \"contracts/4_Product.sol\":7458:7477  uint256 tokenNumber */\n      0x00\n        /* \"contracts/4_Product.sol\":7480:7488  balances */\n      0x04\n        /* \"contracts/4_Product.sol\":7480:7500  balances[msg.sender] */\n      0x00\n        /* \"contracts/4_Product.sol\":7489:7499  msg.sender */\n      caller\n        /* \"contracts/4_Product.sol\":7480:7500  balances[msg.sender] */\n      0xffffffffffffffffffffffffffffffffffffffff\n      and\n      0xffffffffffffffffffffffffffffffffffffffff\n      and\n      dup2\n      mstore\n      0x20\n      add\n      swap1\n      dup2\n      mstore\n      0x20\n      add\n      0x00\n      keccak256\n      sload\n        /* \"contracts/4_Product.sol\":7458:7500  uint256 tokenNumber = balances[msg.sender] */\n      swap1\n      pop\n        /* \"contracts/4_Product.sol\":7534:7547  boughtProduct */\n      dup2\n        /* \"contracts/4_Product.sol\":7534:7560  boughtProduct.productPrice */\n      0x0a\n      add\n      sload\n        /* \"contracts/4_Product.sol\":7519:7530  tokenNumber */\n      dup2\n        /* \"contracts/4_Product.sol\":7519:7560  tokenNumber >= boughtProduct.productPrice */\n      lt\n      iszero\n        /* \"contracts/4_Product.sol\":7511:7561  require(tokenNumber >= boughtProduct.productPrice) */\n      tag_124\n      jumpi\n      0x00\n      dup1\n      revert\n    tag_124:\n        /* \"contracts/4_Product.sol\":7610:7624  State.Produced */\n      0x01\n        /* \"contracts/4_Product.sol\":7580:7624  boughtProduct.productState == State.Produced */\n      0x05\n      dup2\n      gt\n      iszero\n      tag_125\n      jumpi\n      tag_126\n      tag_99\n      jump\t// in\n    tag_126:\n    tag_125:\n        /* \"contracts/4_Product.sol\":7580:7593  boughtProduct */\n      dup3\n        /* \"contracts/4_Product.sol\":7580:7606  boughtProduct.productState */\n      0x09\n      add\n      0x00\n      swap1\n      sload\n      swap1\n      0x0100\n      exp\n      swap1\n      div\n      0xff\n      and\n        /* \"contracts/4_Product.sol\":7580:7624  boughtProduct.productState == State.Produced */\n      0x05\n      dup2\n      gt\n      iszero\n      tag_127\n      jumpi\n      tag_128\n      tag_99\n      jump\t// in\n    tag_128:\n    tag_127:\n      eq\n        /* \"contracts/4_Product.sol\":7572:7625  require(boughtProduct.productState == State.Produced) */\n      tag_129\n      jumpi\n      0x00\n      dup1\n      revert\n    tag_129:\n        /* \"contracts/4_Product.sol\":7674:7684  _timestamp */\n      dup3\n        /* \"contracts/4_Product.sol\":7646:7653  product */\n      0x06\n        /* \"contracts/4_Product.sol\":7646:7658  product[_id] */\n      0x00\n        /* \"contracts/4_Product.sol\":7654:7657  _id */\n      dup7\n        /* \"contracts/4_Product.sol\":7646:7658  product[_id] */\n      dup2\n      mstore\n      0x20\n      add\n      swap1\n      dup2\n      mstore\n      0x20\n      add\n      0x00\n      keccak256\n        /* \"contracts/4_Product.sol\":7646:7668  product[_id].timestamp */\n      0x03\n      add\n        /* \"contracts/4_Product.sol\":7669:7670  1 */\n      0x01\n        /* \"contracts/4_Product.sol\":7646:7671  product[_id].timestamp[1] */\n      0x06\n      dup2\n      lt\n      tag_130\n      jumpi\n      tag_131\n      tag_132\n      jump\t// in\n    tag_131:\n    tag_130:\n      add\n        /* \"contracts/4_Product.sol\":7646:7684  product[_id].timestamp[1] = _timestamp */\n      dup2\n      swap1\n      sstore\n      pop\n        /* \"contracts/4_Product.sol\":7761:7771  msg.sender */\n      caller\n        /* \"contracts/4_Product.sol\":7732:7739  product */\n      0x06\n        /* \"contracts/4_Product.sol\":7732:7744  product[_id] */\n      0x00\n        /* \"contracts/4_Product.sol\":7740:7743  _id */\n      dup7\n        /* \"contracts/4_Product.sol\":7732:7744  product[_id] */\n      dup2\n      mstore\n      0x20\n      add\n      swap1\n      dup2\n      mstore\n      0x20\n      add\n      0x00\n      keccak256\n        /* \"contracts/4_Product.sol\":7732:7758  product[_id].distributorID */\n      0x0b\n      add\n      0x00\n        /* \"contracts/4_Product.sol\":7732:7771  product[_id].distributorID = msg.sender */\n      0x0100\n      exp\n      dup2\n      sload\n      dup2\n      0xffffffffffffffffffffffffffffffffffffffff\n      mul\n      not\n      and\n      swap1\n      dup4\n      0xffffffffffffffffffffffffffffffffffffffff\n      and\n      mul\n      or\n      swap1\n      sstore\n      pop\n        /* \"contracts/4_Product.sol\":7787:7849  tokenTransfer(product[_id].ownerID,boughtProduct.productPrice) */\n      tag_134\n        /* \"contracts/4_Product.sol\":7801:7808  product */\n      0x06\n        /* \"contracts/4_Product.sol\":7801:7813  product[_id] */\n      0x00\n        /* \"contracts/4_Product.sol\":7809:7812  _id */\n      dup7\n        /* \"contracts/4_Product.sol\":7801:7813  product[_id] */\n      dup2\n      mstore\n      0x20\n      add\n      swap1\n      dup2\n      mstore\n      0x20\n      add\n      0x00\n      keccak256\n        /* \"contracts/4_Product.sol\":7801:7821  product[_id].ownerID */\n      0x01\n      add\n      0x00\n      swap1\n      sload\n      swap1\n      0x0100\n      exp\n      swap1\n      div\n      0xffffffffffffffffffffffffffffffffffffffff\n      and\n        /* \"contracts/4_Product.sol\":7822:7835  boughtProduct */\n      dup4\n        /* \"contracts/4_Product.sol\":7822:7848  boughtProduct.productPrice */\n      0x0a\n      add\n      sload\n        /* \"contracts/4_Product.sol\":7787:7800  tokenTransfer */\n      tag_43\n        /* \"contracts/4_Product.sol\":7787:7849  tokenTransfer(product[_id].ownerID,boughtProduct.productPrice) */\n      jump\t// in\n    tag_134:\n      pop\n        /* \"contracts/4_Product.sol\":7889:7904  State.Purchased */\n      0x05\n        /* \"contracts/4_Product.sol\":7861:7868  product */\n      0x06\n        /* \"contracts/4_Product.sol\":7861:7873  product[_id] */\n      0x00\n        /* \"contracts/4_Product.sol\":7869:7872  _id */\n      dup7\n        /* \"contracts/4_Product.sol\":7861:7873  product[_id] */\n      dup2\n      mstore\n      0x20\n      add\n      swap1\n      dup2\n      mstore\n      0x20\n      add\n      0x00\n      keccak256\n        /* \"contracts/4_Product.sol\":7861:7886  product[_id].productState */\n      0x09\n      add\n      0x00\n        /* \"contracts/4_Product.sol\":7861:7904  product[_id].productState = State.Purchased */\n      0x0100\n      exp\n      dup2\n      sload\n      dup2\n      0xff\n      mul\n      not\n      and\n      swap1\n      dup4\n      0x05\n      dup2\n      gt\n      iszero\n      tag_135\n      jumpi\n      tag_136\n      tag_99\n      jump\t// in\n    tag_136:\n    tag_135:\n      mul\n      or\n      swap1\n      sstore\n      pop\n        /* \"contracts/4_Product.sol\":7939:7949  msg.sender */\n      caller\n        /* \"contracts/4_Product.sol\":7916:7923  product */\n      0x06\n        /* \"contracts/4_Product.sol\":7916:7928  product[_id] */\n      0x00\n        /* \"contracts/4_Product.sol\":7924:7927  _id */\n      dup7\n        /* \"contracts/4_Product.sol\":7916:7928  product[_id] */\n      dup2\n      mstore\n      0x20\n      add\n      swap1\n      dup2\n      mstore\n      0x20\n      add\n      0x00\n      keccak256\n        /* \"contracts/4_Product.sol\":7916:7936  product[_id].ownerID */\n      0x01\n      add\n      0x00\n        /* \"contracts/4_Product.sol\":7916:7949  product[_id].ownerID = msg.sender */\n      0x0100\n      exp\n      dup2\n      sload\n      dup2\n      0xffffffffffffffffffffffffffffffffffffffff\n      mul\n      not\n      and\n      swap1\n      dup4\n      0xffffffffffffffffffffffffffffffffffffffff\n      and\n      mul\n      or\n      swap1\n      sstore\n      pop\n        /* \"contracts/4_Product.sol\":7392:7967  {\r... */\n      pop\n      pop\n        /* \"contracts/4_Product.sol\":7317:7967  function buyProduct(uint256 _id, uint256 _timestamp) public OnlyDistributor{\r... */\n      pop\n      pop\n      jump\t// out\n        /* \"contracts/4_Product.sol\":6246:7270  function produceProduct(uint256 _id, uint256 _timestamp, uint256 _price, string memory _name, string memory _brand, string memory _size, string memory _weight, string memory _length ,string memory _width ,string memory _height) public OnlyProducer{\r... */\n    tag_38:\n        /* \"contracts/4_Product.sol\":2821:2834  Role.Producer */\n      0x00\n        /* \"contracts/4_Product.sol\":2794:2834  actors[msg.sender].role == Role.Producer */\n      0x04\n      dup2\n      gt\n      iszero\n      tag_138\n      jumpi\n      tag_139\n      tag_99\n      jump\t// in\n    tag_139:\n    tag_138:\n        /* \"contracts/4_Product.sol\":2794:2800  actors */\n      0x05\n        /* \"contracts/4_Product.sol\":2794:2812  actors[msg.sender] */\n      0x00\n        /* \"contracts/4_Product.sol\":2801:2811  msg.sender */\n      caller\n        /* \"contracts/4_Product.sol\":2794:2812  actors[msg.sender] */\n      0xffffffffffffffffffffffffffffffffffffffff\n      and\n      0xffffffffffffffffffffffffffffffffffffffff\n      and\n      dup2\n      mstore\n      0x20\n      add\n      swap1\n      dup2\n      mstore\n      0x20\n      add\n      0x00\n      keccak256\n        /* \"contracts/4_Product.sol\":2794:2817  actors[msg.sender].role */\n      0x00\n      add\n      0x00\n      swap1\n      sload\n      swap1\n      0x0100\n      exp\n      swap1\n      div\n      0xff\n      and\n        /* \"contracts/4_Product.sol\":2794:2834  actors[msg.sender].role == Role.Producer */\n      0x04\n      dup2\n      gt\n      iszero\n      tag_140\n      jumpi\n      tag_141\n      tag_99\n      jump\t// in\n    tag_141:\n    tag_140:\n      eq\n        /* \"contracts/4_Product.sol\":2786:2863  require(actors[msg.sender].role == Role.Producer,'caller is not a producer.') */\n      tag_142\n      jumpi\n      mload(0x40)\n      0x08c379a000000000000000000000000000000000000000000000000000000000\n      dup2\n      mstore\n      0x04\n      add\n      tag_143\n      swap1\n      tag_144\n      jump\t// in\n    tag_143:\n      mload(0x40)\n      dup1\n      swap2\n      sub\n      swap1\n      revert\n    tag_142:\n        /* \"contracts/4_Product.sol\":6504:6530  Product storage newProduct */\n      0x00\n        /* \"contracts/4_Product.sol\":6533:6540  product */\n      0x06\n        /* \"contracts/4_Product.sol\":6533:6545  product[_id] */\n      0x00\n        /* \"contracts/4_Product.sol\":6541:6544  _id */\n      dup13\n        /* \"contracts/4_Product.sol\":6533:6545  product[_id] */\n      dup2\n      mstore\n      0x20\n      add\n      swap1\n      dup2\n      mstore\n      0x20\n      add\n      0x00\n      keccak256\n        /* \"contracts/4_Product.sol\":6504:6545  Product storage newProduct = product[_id] */\n      swap1\n      pop\n        /* \"contracts/4_Product.sol\":6572:6575  _id */\n      dup11\n        /* \"contracts/4_Product.sol\":6556:6566  newProduct */\n      dup2\n        /* \"contracts/4_Product.sol\":6556:6569  newProduct.ID */\n      0x00\n      add\n        /* \"contracts/4_Product.sol\":6556:6575  newProduct.ID = _id */\n      dup2\n      swap1\n      sstore\n      pop\n        /* \"contracts/4_Product.sol\":6607:6617  msg.sender */\n      caller\n        /* \"contracts/4_Product.sol\":6586:6596  newProduct */\n      dup2\n        /* \"contracts/4_Product.sol\":6586:6604  newProduct.ownerID */\n      0x01\n      add\n      0x00\n        /* \"contracts/4_Product.sol\":6586:6617  newProduct.ownerID = msg.sender */\n      0x0100\n      exp\n      dup2\n      sload\n      dup2\n      0xffffffffffffffffffffffffffffffffffffffff\n      mul\n      not\n      and\n      swap1\n      dup4\n      0xffffffffffffffffffffffffffffffffffffffff\n      and\n      mul\n      or\n      swap1\n      sstore\n      pop\n        /* \"contracts/4_Product.sol\":6652:6662  msg.sender */\n      caller\n        /* \"contracts/4_Product.sol\":6628:6638  newProduct */\n      dup2\n        /* \"contracts/4_Product.sol\":6628:6649  newProduct.producerID */\n      0x02\n      add\n      0x00\n        /* \"contracts/4_Product.sol\":6628:6662  newProduct.producerID = msg.sender */\n      0x0100\n      exp\n      dup2\n      sload\n      dup2\n      0xffffffffffffffffffffffffffffffffffffffff\n      mul\n      not\n      and\n      swap1\n      dup4\n      0xffffffffffffffffffffffffffffffffffffffff\n      and\n      mul\n      or\n      swap1\n      sstore\n      pop\n        /* \"contracts/4_Product.sol\":6699:6709  _timestamp */\n      dup10\n        /* \"contracts/4_Product.sol\":6673:6683  newProduct */\n      dup2\n        /* \"contracts/4_Product.sol\":6673:6693  newProduct.timestamp */\n      0x03\n      add\n        /* \"contracts/4_Product.sol\":6694:6695  0 */\n      0x00\n        /* \"contracts/4_Product.sol\":6673:6696  newProduct.timestamp[0] */\n      0x06\n      dup2\n      lt\n      tag_146\n      jumpi\n      tag_147\n      tag_132\n      jump\t// in\n    tag_147:\n    tag_146:\n      add\n        /* \"contracts/4_Product.sol\":6673:6709  newProduct.timestamp[0] = _timestamp */\n      dup2\n      swap1\n      sstore\n      pop\n        /* \"contracts/4_Product.sol\":6753:6767  State.Produced */\n      0x01\n        /* \"contracts/4_Product.sol\":6728:6738  newProduct */\n      dup2\n        /* \"contracts/4_Product.sol\":6728:6751  newProduct.productState */\n      0x09\n      add\n      0x00\n        /* \"contracts/4_Product.sol\":6728:6767  newProduct.productState= State.Produced */\n      0x0100\n      exp\n      dup2\n      sload\n      dup2\n      0xff\n      mul\n      not\n      and\n      swap1\n      dup4\n      0x05\n      dup2\n      gt\n      iszero\n      tag_149\n      jumpi\n      tag_150\n      tag_99\n      jump\t// in\n    tag_150:\n    tag_149:\n      mul\n      or\n      swap1\n      sstore\n      pop\n        /* \"contracts/4_Product.sol\":6810:6816  _price */\n      dup9\n        /* \"contracts/4_Product.sol\":6786:6796  newProduct */\n      dup2\n        /* \"contracts/4_Product.sol\":6786:6809  newProduct.productPrice */\n      0x0a\n      add\n        /* \"contracts/4_Product.sol\":6786:6816  newProduct.productPrice=_price */\n      dup2\n      swap1\n      sstore\n      pop\n        /* \"contracts/4_Product.sol\":6861:6862  0 */\n      0x00\n        /* \"contracts/4_Product.sol\":6828:6838  newProduct */\n      dup2\n        /* \"contracts/4_Product.sol\":6828:6852  newProduct.distributorID */\n      0x0b\n      add\n      0x00\n        /* \"contracts/4_Product.sol\":6828:6863  newProduct.distributorID=address(0) */\n      0x0100\n      exp\n      dup2\n      sload\n      dup2\n      0xffffffffffffffffffffffffffffffffffffffff\n      mul\n      not\n      and\n      swap1\n      dup4\n      0xffffffffffffffffffffffffffffffffffffffff\n      and\n      mul\n      or\n      swap1\n      sstore\n      pop\n        /* \"contracts/4_Product.sol\":6904:6905  0 */\n      0x00\n        /* \"contracts/4_Product.sol\":6874:6884  newProduct */\n      dup2\n        /* \"contracts/4_Product.sol\":6874:6895  newProduct.retailerID */\n      0x0c\n      add\n      0x00\n        /* \"contracts/4_Product.sol\":6874:6906  newProduct.retailerID=address(0) */\n      0x0100\n      exp\n      dup2\n      sload\n      dup2\n      0xffffffffffffffffffffffffffffffffffffffff\n      mul\n      not\n      and\n      swap1\n      dup4\n      0xffffffffffffffffffffffffffffffffffffffff\n      and\n      mul\n      or\n      swap1\n      sstore\n      pop\n        /* \"contracts/4_Product.sol\":6947:6948  0 */\n      0x00\n        /* \"contracts/4_Product.sol\":6917:6927  newProduct */\n      dup2\n        /* \"contracts/4_Product.sol\":6917:6938  newProduct.consumerID */\n      0x0d\n      add\n      0x00\n        /* \"contracts/4_Product.sol\":6917:6949  newProduct.consumerID=address(0) */\n      0x0100\n      exp\n      dup2\n      sload\n      dup2\n      0xffffffffffffffffffffffffffffffffffffffff\n      mul\n      not\n      and\n      swap1\n      dup4\n      0xffffffffffffffffffffffffffffffffffffffff\n      and\n      mul\n      or\n      swap1\n      sstore\n      pop\n        /* \"contracts/4_Product.sol\":6986:6991  _name */\n      dup8\n        /* \"contracts/4_Product.sol\":6960:6970  newProduct */\n      dup2\n        /* \"contracts/4_Product.sol\":6960:6978  newProduct.details */\n      0x0e\n      add\n        /* \"contracts/4_Product.sol\":6960:6983  newProduct.details.name */\n      0x00\n      add\n        /* \"contracts/4_Product.sol\":6960:6991  newProduct.details.name = _name */\n      swap1\n      dup1\n      mload\n      swap1\n      0x20\n      add\n      swap1\n      tag_151\n      swap3\n      swap2\n      swap1\n      tag_114\n      jump\t// in\n    tag_151:\n      pop\n        /* \"contracts/4_Product.sol\":7028:7034  _brand */\n      dup7\n        /* \"contracts/4_Product.sol\":7002:7012  newProduct */\n      dup2\n        /* \"contracts/4_Product.sol\":7002:7020  newProduct.details */\n      0x0e\n      add\n        /* \"contracts/4_Product.sol\":7002:7026  newProduct.details.brand */\n      0x01\n      add\n        /* \"contracts/4_Product.sol\":7002:7034  newProduct.details.brand= _brand */\n      swap1\n      dup1\n      mload\n      swap1\n      0x20\n      add\n      swap1\n      tag_152\n      swap3\n      swap2\n      swap1\n      tag_114\n      jump\t// in\n    tag_152:\n      pop\n        /* \"contracts/4_Product.sol\":7071:7076  _size */\n      dup6\n        /* \"contracts/4_Product.sol\":7045:7055  newProduct */\n      dup2\n        /* \"contracts/4_Product.sol\":7045:7063  newProduct.details */\n      0x0e\n      add\n        /* \"contracts/4_Product.sol\":7045:7068  newProduct.details.size */\n      0x02\n      add\n        /* \"contracts/4_Product.sol\":7045:7076  newProduct.details.size = _size */\n      swap1\n      dup1\n      mload\n      swap1\n      0x20\n      add\n      swap1\n      tag_153\n      swap3\n      swap2\n      swap1\n      tag_114\n      jump\t// in\n    tag_153:\n      pop\n        /* \"contracts/4_Product.sol\":7115:7122  _weight */\n      dup5\n        /* \"contracts/4_Product.sol\":7087:7097  newProduct */\n      dup2\n        /* \"contracts/4_Product.sol\":7087:7105  newProduct.details */\n      0x0e\n      add\n        /* \"contracts/4_Product.sol\":7087:7112  newProduct.details.weight */\n      0x03\n      add\n        /* \"contracts/4_Product.sol\":7087:7122  newProduct.details.weight = _weight */\n      swap1\n      dup1\n      mload\n      swap1\n      0x20\n      add\n      swap1\n      tag_154\n      swap3\n      swap2\n      swap1\n      tag_114\n      jump\t// in\n    tag_154:\n      pop\n        /* \"contracts/4_Product.sol\":7161:7168  _length */\n      dup4\n        /* \"contracts/4_Product.sol\":7133:7143  newProduct */\n      dup2\n        /* \"contracts/4_Product.sol\":7133:7151  newProduct.details */\n      0x0e\n      add\n        /* \"contracts/4_Product.sol\":7133:7158  newProduct.details.length */\n      0x04\n      add\n        /* \"contracts/4_Product.sol\":7133:7168  newProduct.details.length = _length */\n      swap1\n      dup1\n      mload\n      swap1\n      0x20\n      add\n      swap1\n      tag_155\n      swap3\n      swap2\n      swap1\n      tag_114\n      jump\t// in\n    tag_155:\n      pop\n        /* \"contracts/4_Product.sol\":7208:7214  _width */\n      dup3\n        /* \"contracts/4_Product.sol\":7181:7191  newProduct */\n      dup2\n        /* \"contracts/4_Product.sol\":7181:7199  newProduct.details */\n      0x0e\n      add\n        /* \"contracts/4_Product.sol\":7181:7205  newProduct.details.width */\n      0x05\n      add\n        /* \"contracts/4_Product.sol\":7181:7214  newProduct.details.width = _width */\n      swap1\n      dup1\n      mload\n      swap1\n      0x20\n      add\n      swap1\n      tag_156\n      swap3\n      swap2\n      swap1\n      tag_114\n      jump\t// in\n    tag_156:\n      pop\n        /* \"contracts/4_Product.sol\":7255:7262  _height */\n      dup2\n        /* \"contracts/4_Product.sol\":7227:7237  newProduct */\n      dup2\n        /* \"contracts/4_Product.sol\":7227:7245  newProduct.details */\n      0x0e\n      add\n        /* \"contracts/4_Product.sol\":7227:7252  newProduct.details.height */\n      0x06\n      add\n        /* \"contracts/4_Product.sol\":7227:7262  newProduct.details.height = _height */\n      swap1\n      dup1\n      mload\n      swap1\n      0x20\n      add\n      swap1\n      tag_157\n      swap3\n      swap2\n      swap1\n      tag_114\n      jump\t// in\n    tag_157:\n      pop\n        /* \"contracts/4_Product.sol\":6493:7270  {\r... */\n      pop\n        /* \"contracts/4_Product.sol\":6246:7270  function produceProduct(uint256 _id, uint256 _timestamp, uint256 _price, string memory _name, string memory _brand, string memory _size, string memory _weight, string memory _length ,string memory _width ,string memory _height) public OnlyProducer{\r... */\n      pop\n      pop\n      pop\n      pop\n      pop\n      pop\n      pop\n      pop\n      pop\n      pop\n      jump\t// out\n        /* \"contracts/4_Product.sol\":5500:5856  function tokenTransfer(address _to, uint256 _amount) public returns (bool) {\r... */\n    tag_43:\n        /* \"contracts/4_Product.sol\":5569:5573  bool */\n      0x00\n        /* \"contracts/4_Product.sol\":5618:5625  _amount */\n      dup2\n        /* \"contracts/4_Product.sol\":5594:5602  balances */\n      0x04\n        /* \"contracts/4_Product.sol\":5594:5614  balances[msg.sender] */\n      0x00\n        /* \"contracts/4_Product.sol\":5603:5613  msg.sender */\n      caller\n        /* \"contracts/4_Product.sol\":5594:5614  balances[msg.sender] */\n      0xffffffffffffffffffffffffffffffffffffffff\n      and\n      0xffffffffffffffffffffffffffffffffffffffff\n      and\n      dup2\n      mstore\n      0x20\n      add\n      swap1\n      dup2\n      mstore\n      0x20\n      add\n      0x00\n      keccak256\n      sload\n        /* \"contracts/4_Product.sol\":5594:5625  balances[msg.sender] >= _amount */\n      lt\n      iszero\n        /* \"contracts/4_Product.sol\":5586:5626  require(balances[msg.sender] >= _amount) */\n      tag_159\n      jumpi\n      0x00\n      dup1\n      revert\n    tag_159:\n        /* \"contracts/4_Product.sol\":5736:5737  0 */\n      0x00\n        /* \"contracts/4_Product.sol\":5721:5738  _to != address(0) */\n      0xffffffffffffffffffffffffffffffffffffffff\n      and\n        /* \"contracts/4_Product.sol\":5721:5724  _to */\n      dup4\n        /* \"contracts/4_Product.sol\":5721:5738  _to != address(0) */\n      0xffffffffffffffffffffffffffffffffffffffff\n      and\n      eq\n      iszero\n        /* \"contracts/4_Product.sol\":5713:5739  require(_to != address(0)) */\n      tag_160\n      jumpi\n      0x00\n      dup1\n      revert\n    tag_160:\n        /* \"contracts/4_Product.sol\":5784:5791  _amount */\n      dup2\n        /* \"contracts/4_Product.sol\":5760:5768  balances */\n      0x04\n        /* \"contracts/4_Product.sol\":5760:5780  balances[msg.sender] */\n      0x00\n        /* \"contracts/4_Product.sol\":5769:5779  msg.sender */\n      caller\n        /* \"contracts/4_Product.sol\":5760:5780  balances[msg.sender] */\n      0xffffffffffffffffffffffffffffffffffffffff\n      and\n      0xffffffffffffffffffffffffffffffffffffffff\n      and\n      dup2\n      mstore\n      0x20\n      add\n      swap1\n      dup2\n      mstore\n      0x20\n      add\n      0x00\n      keccak256\n      0x00\n        /* \"contracts/4_Product.sol\":5760:5791  balances[msg.sender] -= _amount */\n      dup3\n      dup3\n      sload\n      tag_161\n      swap2\n      swap1\n      tag_162\n      jump\t// in\n    tag_161:\n      swap3\n      pop\n      pop\n      dup2\n      swap1\n      sstore\n      pop\n        /* \"contracts/4_Product.sol\":5819:5826  _amount */\n      dup2\n        /* \"contracts/4_Product.sol\":5802:5810  balances */\n      0x04\n        /* \"contracts/4_Product.sol\":5802:5815  balances[_to] */\n      0x00\n        /* \"contracts/4_Product.sol\":5811:5814  _to */\n      dup6\n        /* \"contracts/4_Product.sol\":5802:5815  balances[_to] */\n      0xffffffffffffffffffffffffffffffffffffffff\n      and\n      0xffffffffffffffffffffffffffffffffffffffff\n      and\n      dup2\n      mstore\n      0x20\n      add\n      swap1\n      dup2\n      mstore\n      0x20\n      add\n      0x00\n      keccak256\n      0x00\n        /* \"contracts/4_Product.sol\":5802:5826  balances[_to] += _amount */\n      dup3\n      dup3\n      sload\n      tag_163\n      swap2\n      swap1\n      tag_164\n      jump\t// in\n    tag_163:\n      swap3\n      pop\n      pop\n      dup2\n      swap1\n      sstore\n      pop\n        /* \"contracts/4_Product.sol\":5844:5848  true */\n      0x01\n        /* \"contracts/4_Product.sol\":5837:5848  return true */\n      swap1\n      pop\n        /* \"contracts/4_Product.sol\":5500:5856  function tokenTransfer(address _to, uint256 _amount) public returns (bool) {\r... */\n      swap3\n      swap2\n      pop\n      pop\n      jump\t// out\n        /* \"contracts/4_Product.sol\":114:134  string public symbol */\n    tag_48:\n      0x01\n      dup1\n      sload\n      tag_165\n      swap1\n      tag_91\n      jump\t// in\n    tag_165:\n      dup1\n      0x1f\n      add\n      0x20\n      dup1\n      swap2\n      div\n      mul\n      0x20\n      add\n      mload(0x40)\n      swap1\n      dup2\n      add\n      0x40\n      mstore\n      dup1\n      swap3\n      swap2\n      swap1\n      dup2\n      dup2\n      mstore\n      0x20\n      add\n      dup3\n      dup1\n      sload\n      tag_166\n      swap1\n      tag_91\n      jump\t// in\n    tag_166:\n      dup1\n      iszero\n      tag_167\n      jumpi\n      dup1\n      0x1f\n      lt\n      tag_168\n      jumpi\n      0x0100\n      dup1\n      dup4\n      sload\n      div\n      mul\n      dup4\n      mstore\n      swap2\n      0x20\n      add\n      swap2\n      jump(tag_167)\n    tag_168:\n      dup3\n      add\n      swap2\n      swap1\n      0x00\n      mstore\n      keccak256(0x00, 0x20)\n      swap1\n    tag_169:\n      dup2\n      sload\n      dup2\n      mstore\n      swap1\n      0x01\n      add\n      swap1\n      0x20\n      add\n      dup1\n      dup4\n      gt\n      tag_169\n      jumpi\n      dup3\n      swap1\n      sub\n      0x1f\n      and\n      dup3\n      add\n      swap2\n    tag_167:\n      pop\n      pop\n      pop\n      pop\n      pop\n      dup2\n      jump\t// out\n        /* \"contracts/4_Product.sol\":4454:4871  function burn(address _account, uint256 _amount) public OnlyTokenOwner {\r... */\n    tag_53:\n        /* \"contracts/4_Product.sol\":2674:2684  tokenOwner */\n      0x02\n      0x00\n      swap1\n      sload\n      swap1\n      0x0100\n      exp\n      swap1\n      div\n      0xffffffffffffffffffffffffffffffffffffffff\n      and\n        /* \"contracts/4_Product.sol\":2660:2684  msg.sender == tokenOwner */\n      0xffffffffffffffffffffffffffffffffffffffff\n      and\n        /* \"contracts/4_Product.sol\":2660:2670  msg.sender */\n      caller\n        /* \"contracts/4_Product.sol\":2660:2684  msg.sender == tokenOwner */\n      0xffffffffffffffffffffffffffffffffffffffff\n      and\n      eq\n        /* \"contracts/4_Product.sol\":2652:2719  require(msg.sender == tokenOwner, 'caller is not the token owner.') */\n      tag_171\n      jumpi\n      mload(0x40)\n      0x08c379a000000000000000000000000000000000000000000000000000000000\n      dup2\n      mstore\n      0x04\n      add\n      tag_172\n      swap1\n      tag_173\n      jump\t// in\n    tag_172:\n      mload(0x40)\n      dup1\n      swap2\n      sub\n      swap1\n      revert\n    tag_171:\n        /* \"contracts/4_Product.sol\":4564:4565  0 */\n      0x00\n        /* \"contracts/4_Product.sol\":4544:4566  _account != address(0) */\n      0xffffffffffffffffffffffffffffffffffffffff\n      and\n        /* \"contracts/4_Product.sol\":4544:4552  _account */\n      dup3\n        /* \"contracts/4_Product.sol\":4544:4566  _account != address(0) */\n      0xffffffffffffffffffffffffffffffffffffffff\n      and\n      eq\n      iszero\n        /* \"contracts/4_Product.sol\":4536:4567  require(_account != address(0)) */\n      tag_175\n      jumpi\n      0x00\n      dup1\n      revert\n    tag_175:\n        /* \"contracts/4_Product.sol\":4692:4700  balances */\n      0x04\n        /* \"contracts/4_Product.sol\":4692:4710  balances[_account] */\n      0x00\n        /* \"contracts/4_Product.sol\":4701:4709  _account */\n      dup4\n        /* \"contracts/4_Product.sol\":4692:4710  balances[_account] */\n      0xffffffffffffffffffffffffffffffffffffffff\n      and\n      0xffffffffffffffffffffffffffffffffffffffff\n      and\n      dup2\n      mstore\n      0x20\n      add\n      swap1\n      dup2\n      mstore\n      0x20\n      add\n      0x00\n      keccak256\n      sload\n        /* \"contracts/4_Product.sol\":4681:4688  _amount */\n      dup2\n        /* \"contracts/4_Product.sol\":4681:4710  _amount <= balances[_account] */\n      gt\n      iszero\n        /* \"contracts/4_Product.sol\":4673:4711  require(_amount <= balances[_account]) */\n      tag_176\n      jumpi\n      0x00\n      dup1\n      revert\n    tag_176:\n        /* \"contracts/4_Product.sol\":4816:4823  _amount */\n      dup1\n        /* \"contracts/4_Product.sol\":4800:4812  _totalSupply */\n      0x03\n      0x00\n        /* \"contracts/4_Product.sol\":4800:4823  _totalSupply -= _amount */\n      dup3\n      dup3\n      sload\n      tag_177\n      swap2\n      swap1\n      tag_162\n      jump\t// in\n    tag_177:\n      swap3\n      pop\n      pop\n      dup2\n      swap1\n      sstore\n      pop\n        /* \"contracts/4_Product.sol\":4856:4863  _amount */\n      dup1\n        /* \"contracts/4_Product.sol\":4834:4842  balances */\n      0x04\n        /* \"contracts/4_Product.sol\":4834:4852  balances[_account] */\n      0x00\n        /* \"contracts/4_Product.sol\":4843:4851  _account */\n      dup5\n        /* \"contracts/4_Product.sol\":4834:4852  balances[_account] */\n      0xffffffffffffffffffffffffffffffffffffffff\n      and\n      0xffffffffffffffffffffffffffffffffffffffff\n      and\n      dup2\n      mstore\n      0x20\n      add\n      swap1\n      dup2\n      mstore\n      0x20\n      add\n      0x00\n      keccak256\n      0x00\n        /* \"contracts/4_Product.sol\":4834:4863  balances[_account] -= _amount */\n      dup3\n      dup3\n      sload\n      tag_178\n      swap2\n      swap1\n      tag_162\n      jump\t// in\n    tag_178:\n      swap3\n      pop\n      pop\n      dup2\n      swap1\n      sstore\n      pop\n        /* \"contracts/4_Product.sol\":4454:4871  function burn(address _account, uint256 _amount) public OnlyTokenOwner {\r... */\n      pop\n      pop\n      jump\t// out\n        /* \"contracts/4_Product.sol\":4075:4297  function mint(uint256 _amount) public OnlyTokenOwner {\r... */\n    tag_58:\n        /* \"contracts/4_Product.sol\":2674:2684  tokenOwner */\n      0x02\n      0x00\n      swap1\n      sload\n      swap1\n      0x0100\n      exp\n      swap1\n      div\n      0xffffffffffffffffffffffffffffffffffffffff\n      and\n        /* \"contracts/4_Product.sol\":2660:2684  msg.sender == tokenOwner */\n      0xffffffffffffffffffffffffffffffffffffffff\n      and\n        /* \"contracts/4_Product.sol\":2660:2670  msg.sender */\n      caller\n        /* \"contracts/4_Product.sol\":2660:2684  msg.sender == tokenOwner */\n      0xffffffffffffffffffffffffffffffffffffffff\n      and\n      eq\n        /* \"contracts/4_Product.sol\":2652:2719  require(msg.sender == tokenOwner, 'caller is not the token owner.') */\n      tag_180\n      jumpi\n      mload(0x40)\n      0x08c379a000000000000000000000000000000000000000000000000000000000\n      dup2\n      mstore\n      0x04\n      add\n      tag_181\n      swap1\n      tag_173\n      jump\t// in\n    tag_181:\n      mload(0x40)\n      dup1\n      swap2\n      sub\n      swap1\n      revert\n    tag_180:\n        /* \"contracts/4_Product.sol\":4155:4162  _amount */\n      dup1\n        /* \"contracts/4_Product.sol\":4139:4151  _totalSupply */\n      0x03\n      0x00\n        /* \"contracts/4_Product.sol\":4139:4162  _totalSupply += _amount */\n      dup3\n      dup3\n      sload\n      tag_183\n      swap2\n      swap1\n      tag_164\n      jump\t// in\n    tag_183:\n      swap3\n      pop\n      pop\n      dup2\n      swap1\n      sstore\n      pop\n        /* \"contracts/4_Product.sol\":4233:4240  _amount */\n      dup1\n        /* \"contracts/4_Product.sol\":4209:4217  balances */\n      0x04\n        /* \"contracts/4_Product.sol\":4209:4229  balances[msg.sender] */\n      0x00\n        /* \"contracts/4_Product.sol\":4218:4228  msg.sender */\n      caller\n        /* \"contracts/4_Product.sol\":4209:4229  balances[msg.sender] */\n      0xffffffffffffffffffffffffffffffffffffffff\n      and\n      0xffffffffffffffffffffffffffffffffffffffff\n      and\n      dup2\n      mstore\n      0x20\n      add\n      swap1\n      dup2\n      mstore\n      0x20\n      add\n      0x00\n      keccak256\n      0x00\n        /* \"contracts/4_Product.sol\":4209:4240  balances[msg.sender] += _amount */\n      dup3\n      dup3\n      sload\n      tag_184\n      swap2\n      swap1\n      tag_164\n      jump\t// in\n    tag_184:\n      swap3\n      pop\n      pop\n      dup2\n      swap1\n      sstore\n      pop\n        /* \"contracts/4_Product.sol\":4075:4297  function mint(uint256 _amount) public OnlyTokenOwner {\r... */\n      pop\n      jump\t// out\n        /* \"contracts/4_Product.sol\":165:199  address payable public  tokenOwner */\n    tag_61:\n      0x02\n      0x00\n      swap1\n      sload\n      swap1\n      0x0100\n      exp\n      swap1\n      div\n      0xffffffffffffffffffffffffffffffffffffffff\n      and\n      dup2\n      jump\t// out\n        /* \"contracts/4_Product.sol\":4929:5426  function buyToken() public payable {\r... */\n    tag_65:\n        /* \"contracts/4_Product.sol\":4974:4990  uint256 tokenNum */\n      0x00\n        /* \"contracts/4_Product.sol\":287:290  100 */\n      0x64\n        /* \"contracts/4_Product.sol\":4993:5002  msg.value */\n      callvalue\n        /* \"contracts/4_Product.sol\":4993:5013  msg.value/tokenPrice */\n      tag_186\n      swap2\n      swap1\n      tag_187\n      jump\t// in\n    tag_186:\n        /* \"contracts/4_Product.sol\":4974:5013  uint256 tokenNum = msg.value/tokenPrice */\n      swap1\n      pop\n        /* \"contracts/4_Product.sol\":5075:5076  0 */\n      0x00\n        /* \"contracts/4_Product.sol\":5063:5072  msg.value */\n      callvalue\n        /* \"contracts/4_Product.sol\":5063:5076  msg.value > 0 */\n      gt\n        /* \"contracts/4_Product.sol\":5055:5077  require(msg.value > 0) */\n      tag_188\n      jumpi\n      0x00\n      dup1\n      revert\n    tag_188:\n        /* \"contracts/4_Product.sol\":5125:5135  tokenOwner */\n      0x02\n      0x00\n      swap1\n      sload\n      swap1\n      0x0100\n      exp\n      swap1\n      div\n      0xffffffffffffffffffffffffffffffffffffffff\n      and\n        /* \"contracts/4_Product.sol\":5125:5144  tokenOwner.transfer */\n      0xffffffffffffffffffffffffffffffffffffffff\n      and\n        /* \"contracts/4_Product.sol\":5125:5155  tokenOwner.transfer(msg.value) */\n      0x08fc\n        /* \"contracts/4_Product.sol\":5145:5154  msg.value */\n      callvalue\n        /* \"contracts/4_Product.sol\":5125:5155  tokenOwner.transfer(msg.value) */\n      swap1\n      dup2\n      iszero\n      mul\n      swap1\n      mload(0x40)\n      0x00\n      mload(0x40)\n      dup1\n      dup4\n      sub\n      dup2\n      dup6\n      dup9\n      dup9\n      call\n      swap4\n      pop\n      pop\n      pop\n      pop\n      iszero\n      dup1\n      iszero\n      tag_190\n      jumpi\n      returndatasize\n      0x00\n      dup1\n      returndatacopy\n      revert(0x00, returndatasize)\n    tag_190:\n      pop\n        /* \"contracts/4_Product.sol\":5255:5263  tokenNum */\n      dup1\n        /* \"contracts/4_Product.sol\":5231:5239  balances */\n      0x04\n        /* \"contracts/4_Product.sol\":5231:5251  balances[tokenOwner] */\n      0x00\n        /* \"contracts/4_Product.sol\":5240:5250  tokenOwner */\n      0x02\n      0x00\n      swap1\n      sload\n      swap1\n      0x0100\n      exp\n      swap1\n      div\n      0xffffffffffffffffffffffffffffffffffffffff\n      and\n        /* \"contracts/4_Product.sol\":5231:5251  balances[tokenOwner] */\n      0xffffffffffffffffffffffffffffffffffffffff\n      and\n      0xffffffffffffffffffffffffffffffffffffffff\n      and\n      dup2\n      mstore\n      0x20\n      add\n      swap1\n      dup2\n      mstore\n      0x20\n      add\n      0x00\n      keccak256\n      0x00\n        /* \"contracts/4_Product.sol\":5231:5263  balances[tokenOwner] -= tokenNum */\n      dup3\n      dup3\n      sload\n      tag_191\n      swap2\n      swap1\n      tag_162\n      jump\t// in\n    tag_191:\n      swap3\n      pop\n      pop\n      dup2\n      swap1\n      sstore\n      pop\n        /* \"contracts/4_Product.sol\":5356:5364  tokenNum */\n      dup1\n        /* \"contracts/4_Product.sol\":5332:5340  balances */\n      0x04\n        /* \"contracts/4_Product.sol\":5332:5352  balances[msg.sender] */\n      0x00\n        /* \"contracts/4_Product.sol\":5341:5351  msg.sender */\n      caller\n        /* \"contracts/4_Product.sol\":5332:5352  balances[msg.sender] */\n      0xffffffffffffffffffffffffffffffffffffffff\n      and\n      0xffffffffffffffffffffffffffffffffffffffff\n      and\n      dup2\n      mstore\n      0x20\n      add\n      swap1\n      dup2\n      mstore\n      0x20\n      add\n      0x00\n      keccak256\n      0x00\n        /* \"contracts/4_Product.sol\":5332:5364  balances[msg.sender] += tokenNum */\n      dup3\n      dup3\n      sload\n      tag_192\n      swap2\n      swap1\n      tag_164\n      jump\t// in\n    tag_192:\n      swap3\n      pop\n      pop\n      dup2\n      swap1\n      sstore\n      pop\n        /* \"contracts/4_Product.sol\":4964:5426  {\r... */\n      pop\n        /* \"contracts/4_Product.sol\":4929:5426  function buyToken() public payable {\r... */\n      jump\t// out\n        /* \"contracts/4_Product.sol\":9618:9794  function getActorInfo(address _addr) public view returns\r... */\n    tag_70:\n        /* \"contracts/4_Product.sol\":9683:9693  Role _role */\n      0x00\n        /* \"contracts/4_Product.sol\":9700:9719  string memory _name */\n      0x60\n        /* \"contracts/4_Product.sol\":9739:9745  actors */\n      0x05\n        /* \"contracts/4_Product.sol\":9739:9752  actors[_addr] */\n      0x00\n        /* \"contracts/4_Product.sol\":9746:9751  _addr */\n      dup5\n        /* \"contracts/4_Product.sol\":9739:9752  actors[_addr] */\n      0xffffffffffffffffffffffffffffffffffffffff\n      and\n      0xffffffffffffffffffffffffffffffffffffffff\n      and\n      dup2\n      mstore\n      0x20\n      add\n      swap1\n      dup2\n      mstore\n      0x20\n      add\n      0x00\n      keccak256\n        /* \"contracts/4_Product.sol\":9739:9757  actors[_addr].role */\n      0x00\n      add\n      0x00\n      swap1\n      sload\n      swap1\n      0x0100\n      exp\n      swap1\n      div\n      0xff\n      and\n        /* \"contracts/4_Product.sol\":9731:9757  _role = actors[_addr].role */\n      swap2\n      pop\n        /* \"contracts/4_Product.sol\":9772:9778  actors */\n      0x05\n        /* \"contracts/4_Product.sol\":9772:9785  actors[_addr] */\n      0x00\n        /* \"contracts/4_Product.sol\":9779:9784  _addr */\n      dup5\n        /* \"contracts/4_Product.sol\":9772:9785  actors[_addr] */\n      0xffffffffffffffffffffffffffffffffffffffff\n      and\n      0xffffffffffffffffffffffffffffffffffffffff\n      and\n      dup2\n      mstore\n      0x20\n      add\n      swap1\n      dup2\n      mstore\n      0x20\n      add\n      0x00\n      keccak256\n        /* \"contracts/4_Product.sol\":9772:9790  actors[_addr].name */\n      0x01\n      add\n        /* \"contracts/4_Product.sol\":9764:9790  _name = actors[_addr].name */\n      dup1\n      sload\n      tag_194\n      swap1\n      tag_91\n      jump\t// in\n    tag_194:\n      dup1\n      0x1f\n      add\n      0x20\n      dup1\n      swap2\n      div\n      mul\n      0x20\n      add\n      mload(0x40)\n      swap1\n      dup2\n      add\n      0x40\n      mstore\n      dup1\n      swap3\n      swap2\n      swap1\n      dup2\n      dup2\n      mstore\n      0x20\n      add\n      dup3\n      dup1\n      sload\n      tag_195\n      swap1\n      tag_91\n      jump\t// in\n    tag_195:\n      dup1\n      iszero\n      tag_196\n      jumpi\n      dup1\n      0x1f\n      lt\n      tag_197\n      jumpi\n      0x0100\n      dup1\n      dup4\n      sload\n      div\n      mul\n      dup4\n      mstore\n      swap2\n      0x20\n      add\n      swap2\n      jump(tag_196)\n    tag_197:\n      dup3\n      add\n      swap2\n      swap1\n      0x00\n      mstore\n      keccak256(0x00, 0x20)\n      swap1\n    tag_198:\n      dup2\n      sload\n      dup2\n      mstore\n      swap1\n      0x01\n      add\n      swap1\n      0x20\n      add\n      dup1\n      dup4\n      gt\n      tag_198\n      jumpi\n      dup3\n      swap1\n      sub\n      0x1f\n      and\n      dup3\n      add\n      swap2\n    tag_196:\n      pop\n      pop\n      pop\n      pop\n      pop\n      swap1\n      pop\n        /* \"contracts/4_Product.sol\":9618:9794  function getActorInfo(address _addr) public view returns\r... */\n      swap2\n      pop\n      swap2\n      jump\t// out\n        /* \"contracts/4_Product.sol\":3853:3959  function etherBalance(address _addr) public view returns (uint256) {\r... */\n    tag_76:\n        /* \"contracts/4_Product.sol\":3911:3918  uint256 */\n      0x00\n        /* \"contracts/4_Product.sol\":3938:3943  _addr */\n      dup2\n        /* \"contracts/4_Product.sol\":3938:3951  _addr.balance */\n      0xffffffffffffffffffffffffffffffffffffffff\n      and\n      balance\n        /* \"contracts/4_Product.sol\":3931:3951  return _addr.balance */\n      swap1\n      pop\n        /* \"contracts/4_Product.sol\":3853:3959  function etherBalance(address _addr) public view returns (uint256) {\r... */\n      swap2\n      swap1\n      pop\n      jump\t// out\n        /* \"contracts/4_Product.sol\":8040:8811  function getProductInfo(uint256 _id, uint256 _timestamp) public view returns \r... */\n    tag_82:\n        /* \"contracts/4_Product.sol\":8136:8154  uint256 product_id */\n      0x00\n        /* \"contracts/4_Product.sol\":8191:8210  address producer_id */\n      dup1\n        /* \"contracts/4_Product.sol\":8251:8267  address owner_id */\n      0x00\n        /* \"contracts/4_Product.sol\":8344:8369  State currentProductState */\n      dup1\n        /* \"contracts/4_Product.sol\":8380:8400  uint256 productPrice */\n      0x00\n        /* \"contracts/4_Product.sol\":8412:8433  address distributorID */\n      dup1\n        /* \"contracts/4_Product.sol\":8444:8462  address retailerID */\n      0x00\n        /* \"contracts/4_Product.sol\":8473:8491  address consumerID */\n      dup1\n        /* \"contracts/4_Product.sol\":8502:8520  string memory name */\n      0x60\n        /* \"contracts/4_Product.sol\":8531:8550  string memory brand */\n      dup1\n        /* \"contracts/4_Product.sol\":8561:8579  string memory size */\n      0x60\n        /* \"contracts/4_Product.sol\":8590:8610  string memory weight */\n      dup1\n        /* \"contracts/4_Product.sol\":8655:8662  product */\n      0x06\n        /* \"contracts/4_Product.sol\":8655:8667  product[_id] */\n      0x00\n        /* \"contracts/4_Product.sol\":8663:8666  _id */\n      dup16\n        /* \"contracts/4_Product.sol\":8655:8667  product[_id] */\n      dup2\n      mstore\n      0x20\n      add\n      swap1\n      dup2\n      mstore\n      0x20\n      add\n      0x00\n      keccak256\n        /* \"contracts/4_Product.sol\":8655:8670  product[_id].ID */\n      0x00\n      add\n      sload\n        /* \"contracts/4_Product.sol\":8642:8670  product_id = product[_id].ID */\n      swap12\n      pop\n        /* \"contracts/4_Product.sol\":8692:8699  product */\n      0x06\n        /* \"contracts/4_Product.sol\":8692:8704  product[_id] */\n      0x00\n        /* \"contracts/4_Product.sol\":8700:8703  _id */\n      dup16\n        /* \"contracts/4_Product.sol\":8692:8704  product[_id] */\n      dup2\n      mstore\n      0x20\n      add\n      swap1\n      dup2\n      mstore\n      0x20\n      add\n      0x00\n      keccak256\n        /* \"contracts/4_Product.sol\":8692:8715  product[_id].producerID */\n      0x02\n      add\n      0x00\n      swap1\n      sload\n      swap1\n      0x0100\n      exp\n      swap1\n      div\n      0xffffffffffffffffffffffffffffffffffffffff\n      and\n        /* \"contracts/4_Product.sol\":8678:8715  producer_id = product[_id].producerID */\n      swap11\n      pop\n        /* \"contracts/4_Product.sol\":8733:8740  product */\n      0x06\n        /* \"contracts/4_Product.sol\":8733:8745  product[_id] */\n      0x00\n        /* \"contracts/4_Product.sol\":8741:8744  _id */\n      dup16\n        /* \"contracts/4_Product.sol\":8733:8745  product[_id] */\n      dup2\n      mstore\n      0x20\n      add\n      swap1\n      dup2\n      mstore\n      0x20\n      add\n      0x00\n      keccak256\n        /* \"contracts/4_Product.sol\":8733:8753  product[_id].ownerID */\n      0x01\n      add\n      0x00\n      swap1\n      sload\n      swap1\n      0x0100\n      exp\n      swap1\n      div\n      0xffffffffffffffffffffffffffffffffffffffff\n      and\n        /* \"contracts/4_Product.sol\":8722:8753  owner_id = product[_id].ownerID */\n      swap10\n      pop\n        /* \"contracts/4_Product.sol\":8782:8789  product */\n      0x06\n        /* \"contracts/4_Product.sol\":8782:8794  product[_id] */\n      0x00\n        /* \"contracts/4_Product.sol\":8790:8793  _id */\n      dup16\n        /* \"contracts/4_Product.sol\":8782:8794  product[_id] */\n      dup2\n      mstore\n      0x20\n      add\n      swap1\n      dup2\n      mstore\n      0x20\n      add\n      0x00\n      keccak256\n        /* \"contracts/4_Product.sol\":8782:8807  product[_id].productState */\n      0x09\n      add\n      0x00\n      swap1\n      sload\n      swap1\n      0x0100\n      exp\n      swap1\n      div\n      0xff\n      and\n        /* \"contracts/4_Product.sol\":8760:8807  currentProductState = product[_id].productState */\n      swap9\n      pop\n        /* \"contracts/4_Product.sol\":8040:8811  function getProductInfo(uint256 _id, uint256 _timestamp) public view returns \r... */\n      swap3\n      swap6\n      swap9\n      swap12\n      pop\n      swap3\n      swap6\n      swap9\n      swap12\n      pop\n      swap3\n      swap6\n      swap9\n      swap12\n      jump\t// out\n        /* \"contracts/4_Product.sol\":3679:3787  function tokenBalance(address _addr) public view returns (uint256) {\r... */\n    tag_88:\n        /* \"contracts/4_Product.sol\":3737:3744  uint256 */\n      0x00\n        /* \"contracts/4_Product.sol\":3764:3772  balances */\n      0x04\n        /* \"contracts/4_Product.sol\":3764:3779  balances[_addr] */\n      0x00\n        /* \"contracts/4_Product.sol\":3773:3778  _addr */\n      dup4\n        /* \"contracts/4_Product.sol\":3764:3779  balances[_addr] */\n      0xffffffffffffffffffffffffffffffffffffffff\n      and\n      0xffffffffffffffffffffffffffffffffffffffff\n      and\n      dup2\n      mstore\n      0x20\n      add\n      swap1\n      dup2\n      mstore\n      0x20\n      add\n      0x00\n      keccak256\n      sload\n        /* \"contracts/4_Product.sol\":3757:3779  return balances[_addr] */\n      swap1\n      pop\n        /* \"contracts/4_Product.sol\":3679:3787  function tokenBalance(address _addr) public view returns (uint256) {\r... */\n      swap2\n      swap1\n      pop\n      jump\t// out\n    tag_114:\n      dup3\n      dup1\n      sload\n      tag_202\n      swap1\n      tag_91\n      jump\t// in\n    tag_202:\n      swap1\n      0x00\n      mstore\n      keccak256(0x00, 0x20)\n      swap1\n      0x1f\n      add\n      0x20\n      swap1\n      div\n      dup2\n      add\n      swap3\n      dup3\n      tag_204\n      jumpi\n      0x00\n      dup6\n      sstore\n      jump(tag_203)\n    tag_204:\n      dup3\n      0x1f\n      lt\n      tag_205\n      jumpi\n      dup1\n      mload\n      not(0xff)\n      and\n      dup4\n      dup1\n      add\n      or\n      dup6\n      sstore\n      jump(tag_203)\n    tag_205:\n      dup3\n      dup1\n      add\n      0x01\n      add\n      dup6\n      sstore\n      dup3\n      iszero\n      tag_203\n      jumpi\n      swap2\n      dup3\n      add\n    tag_206:\n      dup3\n      dup2\n      gt\n      iszero\n      tag_207\n      jumpi\n      dup3\n      mload\n      dup3\n      sstore\n      swap2\n      0x20\n      add\n      swap2\n      swap1\n      0x01\n      add\n      swap1\n      jump(tag_206)\n    tag_207:\n    tag_203:\n      pop\n      swap1\n      pop\n      tag_208\n      swap2\n      swap1\n      tag_209\n      jump\t// in\n    tag_208:\n      pop\n      swap1\n      jump\t// out\n    tag_209:\n    tag_210:\n      dup1\n      dup3\n      gt\n      iszero\n      tag_211\n      jumpi\n      0x00\n      dup2\n      0x00\n      swap1\n      sstore\n      pop\n      0x01\n      add\n      jump(tag_210)\n    tag_211:\n      pop\n      swap1\n      jump\t// out\n        /* \"#utility.yul\":7:419   */\n    tag_213:\n        /* \"#utility.yul\":85:90   */\n      0x00\n        /* \"#utility.yul\":110:176   */\n      tag_215\n        /* \"#utility.yul\":126:175   */\n      tag_216\n        /* \"#utility.yul\":168:174   */\n      dup5\n        /* \"#utility.yul\":126:175   */\n      tag_217\n      jump\t// in\n    tag_216:\n        /* \"#utility.yul\":110:176   */\n      tag_218\n      jump\t// in\n    tag_215:\n        /* \"#utility.yul\":101:176   */\n      swap1\n      pop\n        /* \"#utility.yul\":199:205   */\n      dup3\n        /* \"#utility.yul\":192:197   */\n      dup2\n        /* \"#utility.yul\":185:206   */\n      mstore\n        /* \"#utility.yul\":237:241   */\n      0x20\n        /* \"#utility.yul\":230:235   */\n      dup2\n        /* \"#utility.yul\":226:242   */\n      add\n        /* \"#utility.yul\":275:278   */\n      dup5\n        /* \"#utility.yul\":266:272   */\n      dup5\n        /* \"#utility.yul\":261:264   */\n      dup5\n        /* \"#utility.yul\":257:273   */\n      add\n        /* \"#utility.yul\":254:279   */\n      gt\n        /* \"#utility.yul\":251:363   */\n      iszero\n      tag_219\n      jumpi\n        /* \"#utility.yul\":282:361   */\n      tag_220\n      tag_221\n      jump\t// in\n    tag_220:\n        /* \"#utility.yul\":251:363   */\n    tag_219:\n        /* \"#utility.yul\":372:413   */\n      tag_222\n        /* \"#utility.yul\":406:412   */\n      dup5\n        /* \"#utility.yul\":401:404   */\n      dup3\n        /* \"#utility.yul\":396:399   */\n      dup6\n        /* \"#utility.yul\":372:413   */\n      tag_223\n      jump\t// in\n    tag_222:\n        /* \"#utility.yul\":91:419   */\n      pop\n        /* \"#utility.yul\":7:419   */\n      swap4\n      swap3\n      pop\n      pop\n      pop\n      jump\t// out\n        /* \"#utility.yul\":425:564   */\n    tag_224:\n        /* \"#utility.yul\":471:476   */\n      0x00\n        /* \"#utility.yul\":509:515   */\n      dup2\n        /* \"#utility.yul\":496:516   */\n      calldataload\n        /* \"#utility.yul\":487:516   */\n      swap1\n      pop\n        /* \"#utility.yul\":525:558   */\n      tag_226\n        /* \"#utility.yul\":552:557   */\n      dup2\n        /* \"#utility.yul\":525:558   */\n      tag_227\n      jump\t// in\n    tag_226:\n        /* \"#utility.yul\":425:564   */\n      swap3\n      swap2\n      pop\n      pop\n      jump\t// out\n        /* \"#utility.yul\":570:723   */\n    tag_228:\n        /* \"#utility.yul\":623:628   */\n      0x00\n        /* \"#utility.yul\":661:667   */\n      dup2\n        /* \"#utility.yul\":648:668   */\n      calldataload\n        /* \"#utility.yul\":639:668   */\n      swap1\n      pop\n        /* \"#utility.yul\":677:717   */\n      tag_230\n        /* \"#utility.yul\":711:716   */\n      dup2\n        /* \"#utility.yul\":677:717   */\n      tag_231\n      jump\t// in\n    tag_230:\n        /* \"#utility.yul\":570:723   */\n      swap3\n      swap2\n      pop\n      pop\n      jump\t// out\n        /* \"#utility.yul\":743:1083   */\n    tag_232:\n        /* \"#utility.yul\":799:804   */\n      0x00\n        /* \"#utility.yul\":848:851   */\n      dup3\n        /* \"#utility.yul\":841:845   */\n      0x1f\n        /* \"#utility.yul\":833:839   */\n      dup4\n        /* \"#utility.yul\":829:846   */\n      add\n        /* \"#utility.yul\":825:852   */\n      slt\n        /* \"#utility.yul\":815:937   */\n      tag_234\n      jumpi\n        /* \"#utility.yul\":856:935   */\n      tag_235\n      tag_236\n      jump\t// in\n    tag_235:\n        /* \"#utility.yul\":815:937   */\n    tag_234:\n        /* \"#utility.yul\":973:979   */\n      dup2\n        /* \"#utility.yul\":960:980   */\n      calldataload\n        /* \"#utility.yul\":998:1077   */\n      tag_237\n        /* \"#utility.yul\":1073:1076   */\n      dup5\n        /* \"#utility.yul\":1065:1071   */\n      dup3\n        /* \"#utility.yul\":1058:1062   */\n      0x20\n        /* \"#utility.yul\":1050:1056   */\n      dup7\n        /* \"#utility.yul\":1046:1063   */\n      add\n        /* \"#utility.yul\":998:1077   */\n      tag_213\n      jump\t// in\n    tag_237:\n        /* \"#utility.yul\":989:1077   */\n      swap2\n      pop\n        /* \"#utility.yul\":805:1083   */\n      pop\n        /* \"#utility.yul\":743:1083   */\n      swap3\n      swap2\n      pop\n      pop\n      jump\t// out\n        /* \"#utility.yul\":1089:1228   */\n    tag_238:\n        /* \"#utility.yul\":1135:1140   */\n      0x00\n        /* \"#utility.yul\":1173:1179   */\n      dup2\n        /* \"#utility.yul\":1160:1180   */\n      calldataload\n        /* \"#utility.yul\":1151:1180   */\n      swap1\n      pop\n        /* \"#utility.yul\":1189:1222   */\n      tag_240\n        /* \"#utility.yul\":1216:1221   */\n      dup2\n        /* \"#utility.yul\":1189:1222   */\n      tag_241\n      jump\t// in\n    tag_240:\n        /* \"#utility.yul\":1089:1228   */\n      swap3\n      swap2\n      pop\n      pop\n      jump\t// out\n        /* \"#utility.yul\":1234:1563   */\n    tag_69:\n        /* \"#utility.yul\":1293:1299   */\n      0x00\n        /* \"#utility.yul\":1342:1344   */\n      0x20\n        /* \"#utility.yul\":1330:1339   */\n      dup3\n        /* \"#utility.yul\":1321:1328   */\n      dup5\n        /* \"#utility.yul\":1317:1340   */\n      sub\n        /* \"#utility.yul\":1313:1345   */\n      slt\n        /* \"#utility.yul\":1310:1429   */\n      iszero\n      tag_243\n      jumpi\n        /* \"#utility.yul\":1348:1427   */\n      tag_244\n      tag_245\n      jump\t// in\n    tag_244:\n        /* \"#utility.yul\":1310:1429   */\n    tag_243:\n        /* \"#utility.yul\":1468:1469   */\n      0x00\n        /* \"#utility.yul\":1493:1546   */\n      tag_246\n        /* \"#utility.yul\":1538:1545   */\n      dup5\n        /* \"#utility.yul\":1529:1535   */\n      dup3\n        /* \"#utility.yul\":1518:1527   */\n      dup6\n        /* \"#utility.yul\":1514:1536   */\n      add\n        /* \"#utility.yul\":1493:1546   */\n      tag_224\n      jump\t// in\n    tag_246:\n        /* \"#utility.yul\":1483:1546   */\n      swap2\n      pop\n        /* \"#utility.yul\":1439:1556   */\n      pop\n        /* \"#utility.yul\":1234:1563   */\n      swap3\n      swap2\n      pop\n      pop\n      jump\t// out\n        /* \"#utility.yul\":1569:2382   */\n    tag_27:\n        /* \"#utility.yul\":1663:1669   */\n      0x00\n        /* \"#utility.yul\":1671:1677   */\n      dup1\n        /* \"#utility.yul\":1679:1685   */\n      0x00\n        /* \"#utility.yul\":1728:1730   */\n      0x60\n        /* \"#utility.yul\":1716:1725   */\n      dup5\n        /* \"#utility.yul\":1707:1714   */\n      dup7\n        /* \"#utility.yul\":1703:1726   */\n      sub\n        /* \"#utility.yul\":1699:1731   */\n      slt\n        /* \"#utility.yul\":1696:1815   */\n      iszero\n      tag_248\n      jumpi\n        /* \"#utility.yul\":1734:1813   */\n      tag_249\n      tag_245\n      jump\t// in\n    tag_249:\n        /* \"#utility.yul\":1696:1815   */\n    tag_248:\n        /* \"#utility.yul\":1854:1855   */\n      0x00\n        /* \"#utility.yul\":1879:1932   */\n      tag_250\n        /* \"#utility.yul\":1924:1931   */\n      dup7\n        /* \"#utility.yul\":1915:1921   */\n      dup3\n        /* \"#utility.yul\":1904:1913   */\n      dup8\n        /* \"#utility.yul\":1900:1922   */\n      add\n        /* \"#utility.yul\":1879:1932   */\n      tag_224\n      jump\t// in\n    tag_250:\n        /* \"#utility.yul\":1869:1932   */\n      swap4\n      pop\n        /* \"#utility.yul\":1825:1942   */\n      pop\n        /* \"#utility.yul\":1981:1983   */\n      0x20\n        /* \"#utility.yul\":2007:2067   */\n      tag_251\n        /* \"#utility.yul\":2059:2066   */\n      dup7\n        /* \"#utility.yul\":2050:2056   */\n      dup3\n        /* \"#utility.yul\":2039:2048   */\n      dup8\n        /* \"#utility.yul\":2035:2057   */\n      add\n        /* \"#utility.yul\":2007:2067   */\n      tag_228\n      jump\t// in\n    tag_251:\n        /* \"#utility.yul\":1997:2067   */\n      swap3\n      pop\n        /* \"#utility.yul\":1952:2077   */\n      pop\n        /* \"#utility.yul\":2144:2146   */\n      0x40\n        /* \"#utility.yul\":2133:2142   */\n      dup5\n        /* \"#utility.yul\":2129:2147   */\n      add\n        /* \"#utility.yul\":2116:2148   */\n      calldataload\n        /* \"#utility.yul\":2175:2193   */\n      0xffffffffffffffff\n        /* \"#utility.yul\":2167:2173   */\n      dup2\n        /* \"#utility.yul\":2164:2194   */\n      gt\n        /* \"#utility.yul\":2161:2278   */\n      iszero\n      tag_252\n      jumpi\n        /* \"#utility.yul\":2197:2276   */\n      tag_253\n      tag_254\n      jump\t// in\n    tag_253:\n        /* \"#utility.yul\":2161:2278   */\n    tag_252:\n        /* \"#utility.yul\":2302:2365   */\n      tag_255\n        /* \"#utility.yul\":2357:2364   */\n      dup7\n        /* \"#utility.yul\":2348:2354   */\n      dup3\n        /* \"#utility.yul\":2337:2346   */\n      dup8\n        /* \"#utility.yul\":2333:2355   */\n      add\n        /* \"#utility.yul\":2302:2365   */\n      tag_232\n      jump\t// in\n    tag_255:\n        /* \"#utility.yul\":2292:2365   */\n      swap2\n      pop\n        /* \"#utility.yul\":2087:2375   */\n      pop\n        /* \"#utility.yul\":1569:2382   */\n      swap3\n      pop\n      swap3\n      pop\n      swap3\n      jump\t// out\n        /* \"#utility.yul\":2388:2862   */\n    tag_42:\n        /* \"#utility.yul\":2456:2462   */\n      0x00\n        /* \"#utility.yul\":2464:2470   */\n      dup1\n        /* \"#utility.yul\":2513:2515   */\n      0x40\n        /* \"#utility.yul\":2501:2510   */\n      dup4\n        /* \"#utility.yul\":2492:2499   */\n      dup6\n        /* \"#utility.yul\":2488:2511   */\n      sub\n        /* \"#utility.yul\":2484:2516   */\n      slt\n        /* \"#utility.yul\":2481:2600   */\n      iszero\n      tag_257\n      jumpi\n        /* \"#utility.yul\":2519:2598   */\n      tag_258\n      tag_245\n      jump\t// in\n    tag_258:\n        /* \"#utility.yul\":2481:2600   */\n    tag_257:\n        /* \"#utility.yul\":2639:2640   */\n      0x00\n        /* \"#utility.yul\":2664:2717   */\n      tag_259\n        /* \"#utility.yul\":2709:2716   */\n      dup6\n        /* \"#utility.yul\":2700:2706   */\n      dup3\n        /* \"#utility.yul\":2689:2698   */\n      dup7\n        /* \"#utility.yul\":2685:2707   */\n      add\n        /* \"#utility.yul\":2664:2717   */\n      tag_224\n      jump\t// in\n    tag_259:\n        /* \"#utility.yul\":2654:2717   */\n      swap3\n      pop\n        /* \"#utility.yul\":2610:2727   */\n      pop\n        /* \"#utility.yul\":2766:2768   */\n      0x20\n        /* \"#utility.yul\":2792:2845   */\n      tag_260\n        /* \"#utility.yul\":2837:2844   */\n      dup6\n        /* \"#utility.yul\":2828:2834   */\n      dup3\n        /* \"#utility.yul\":2817:2826   */\n      dup7\n        /* \"#utility.yul\":2813:2835   */\n      add\n        /* \"#utility.yul\":2792:2845   */\n      tag_238\n      jump\t// in\n    tag_260:\n        /* \"#utility.yul\":2782:2845   */\n      swap2\n      pop\n        /* \"#utility.yul\":2737:2855   */\n      pop\n        /* \"#utility.yul\":2388:2862   */\n      swap3\n      pop\n      swap3\n      swap1\n      pop\n      jump\t// out\n        /* \"#utility.yul\":2868:3197   */\n    tag_57:\n        /* \"#utility.yul\":2927:2933   */\n      0x00\n        /* \"#utility.yul\":2976:2978   */\n      0x20\n        /* \"#utility.yul\":2964:2973   */\n      dup3\n        /* \"#utility.yul\":2955:2962   */\n      dup5\n        /* \"#utility.yul\":2951:2974   */\n      sub\n        /* \"#utility.yul\":2947:2979   */\n      slt\n        /* \"#utility.yul\":2944:3063   */\n      iszero\n      tag_262\n      jumpi\n        /* \"#utility.yul\":2982:3061   */\n      tag_263\n      tag_245\n      jump\t// in\n    tag_263:\n        /* \"#utility.yul\":2944:3063   */\n    tag_262:\n        /* \"#utility.yul\":3102:3103   */\n      0x00\n        /* \"#utility.yul\":3127:3180   */\n      tag_264\n        /* \"#utility.yul\":3172:3179   */\n      dup5\n        /* \"#utility.yul\":3163:3169   */\n      dup3\n        /* \"#utility.yul\":3152:3161   */\n      dup6\n        /* \"#utility.yul\":3148:3170   */\n      add\n        /* \"#utility.yul\":3127:3180   */\n      tag_238\n      jump\t// in\n    tag_264:\n        /* \"#utility.yul\":3117:3180   */\n      swap2\n      pop\n        /* \"#utility.yul\":3073:3190   */\n      pop\n        /* \"#utility.yul\":2868:3197   */\n      swap3\n      swap2\n      pop\n      pop\n      jump\t// out\n        /* \"#utility.yul\":3203:3677   */\n    tag_32:\n        /* \"#utility.yul\":3271:3277   */\n      0x00\n        /* \"#utility.yul\":3279:3285   */\n      dup1\n        /* \"#utility.yul\":3328:3330   */\n      0x40\n        /* \"#utility.yul\":3316:3325   */\n      dup4\n        /* \"#utility.yul\":3307:3314   */\n      dup6\n        /* \"#utility.yul\":3303:3326   */\n      sub\n        /* \"#utility.yul\":3299:3331   */\n      slt\n        /* \"#utility.yul\":3296:3415   */\n      iszero\n      tag_266\n      jumpi\n        /* \"#utility.yul\":3334:3413   */\n      tag_267\n      tag_245\n      jump\t// in\n    tag_267:\n        /* \"#utility.yul\":3296:3415   */\n    tag_266:\n        /* \"#utility.yul\":3454:3455   */\n      0x00\n        /* \"#utility.yul\":3479:3532   */\n      tag_268\n        /* \"#utility.yul\":3524:3531   */\n      dup6\n        /* \"#utility.yul\":3515:3521   */\n      dup3\n        /* \"#utility.yul\":3504:3513   */\n      dup7\n        /* \"#utility.yul\":3500:3522   */\n      add\n        /* \"#utility.yul\":3479:3532   */\n      tag_238\n      jump\t// in\n    tag_268:\n        /* \"#utility.yul\":3469:3532   */\n      swap3\n      pop\n        /* \"#utility.yul\":3425:3542   */\n      pop\n        /* \"#utility.yul\":3581:3583   */\n      0x20\n        /* \"#utility.yul\":3607:3660   */\n      tag_269\n        /* \"#utility.yul\":3652:3659   */\n      dup6\n        /* \"#utility.yul\":3643:3649   */\n      dup3\n        /* \"#utility.yul\":3632:3641   */\n      dup7\n        /* \"#utility.yul\":3628:3650   */\n      add\n        /* \"#utility.yul\":3607:3660   */\n      tag_238\n      jump\t// in\n    tag_269:\n        /* \"#utility.yul\":3597:3660   */\n      swap2\n      pop\n        /* \"#utility.yul\":3552:3670   */\n      pop\n        /* \"#utility.yul\":3203:3677   */\n      swap3\n      pop\n      swap3\n      swap1\n      pop\n      jump\t// out\n        /* \"#utility.yul\":3683:6584   */\n    tag_37:\n        /* \"#utility.yul\":3893:3899   */\n      0x00\n        /* \"#utility.yul\":3901:3907   */\n      dup1\n        /* \"#utility.yul\":3909:3915   */\n      0x00\n        /* \"#utility.yul\":3917:3923   */\n      dup1\n        /* \"#utility.yul\":3925:3931   */\n      0x00\n        /* \"#utility.yul\":3933:3939   */\n      dup1\n        /* \"#utility.yul\":3941:3947   */\n      0x00\n        /* \"#utility.yul\":3949:3955   */\n      dup1\n        /* \"#utility.yul\":3957:3963   */\n      0x00\n        /* \"#utility.yul\":3965:3971   */\n      dup1\n        /* \"#utility.yul\":4014:4017   */\n      0x0140\n        /* \"#utility.yul\":4002:4011   */\n      dup12\n        /* \"#utility.yul\":3993:4000   */\n      dup14\n        /* \"#utility.yul\":3989:4012   */\n      sub\n        /* \"#utility.yul\":3985:4018   */\n      slt\n        /* \"#utility.yul\":3982:4102   */\n      iszero\n      tag_271\n      jumpi\n        /* \"#utility.yul\":4021:4100   */\n      tag_272\n      tag_245\n      jump\t// in\n    tag_272:\n        /* \"#utility.yul\":3982:4102   */\n    tag_271:\n        /* \"#utility.yul\":4141:4142   */\n      0x00\n        /* \"#utility.yul\":4166:4219   */\n      tag_273\n        /* \"#utility.yul\":4211:4218   */\n      dup14\n        /* \"#utility.yul\":4202:4208   */\n      dup3\n        /* \"#utility.yul\":4191:4200   */\n      dup15\n        /* \"#utility.yul\":4187:4209   */\n      add\n        /* \"#utility.yul\":4166:4219   */\n      tag_238\n      jump\t// in\n    tag_273:\n        /* \"#utility.yul\":4156:4219   */\n      swap11\n      pop\n        /* \"#utility.yul\":4112:4229   */\n      pop\n        /* \"#utility.yul\":4268:4270   */\n      0x20\n        /* \"#utility.yul\":4294:4347   */\n      tag_274\n        /* \"#utility.yul\":4339:4346   */\n      dup14\n        /* \"#utility.yul\":4330:4336   */\n      dup3\n        /* \"#utility.yul\":4319:4328   */\n      dup15\n        /* \"#utility.yul\":4315:4337   */\n      add\n        /* \"#utility.yul\":4294:4347   */\n      tag_238\n      jump\t// in\n    tag_274:\n        /* \"#utility.yul\":4284:4347   */\n      swap10\n      pop\n        /* \"#utility.yul\":4239:4357   */\n      pop\n        /* \"#utility.yul\":4396:4398   */\n      0x40\n        /* \"#utility.yul\":4422:4475   */\n      tag_275\n        /* \"#utility.yul\":4467:4474   */\n      dup14\n        /* \"#utility.yul\":4458:4464   */\n      dup3\n        /* \"#utility.yul\":4447:4456   */\n      dup15\n        /* \"#utility.yul\":4443:4465   */\n      add\n        /* \"#utility.yul\":4422:4475   */\n      tag_238\n      jump\t// in\n    tag_275:\n        /* \"#utility.yul\":4412:4475   */\n      swap9\n      pop\n        /* \"#utility.yul\":4367:4485   */\n      pop\n        /* \"#utility.yul\":4552:4554   */\n      0x60\n        /* \"#utility.yul\":4541:4550   */\n      dup12\n        /* \"#utility.yul\":4537:4555   */\n      add\n        /* \"#utility.yul\":4524:4556   */\n      calldataload\n        /* \"#utility.yul\":4583:4601   */\n      0xffffffffffffffff\n        /* \"#utility.yul\":4575:4581   */\n      dup2\n        /* \"#utility.yul\":4572:4602   */\n      gt\n        /* \"#utility.yul\":4569:4686   */\n      iszero\n      tag_276\n      jumpi\n        /* \"#utility.yul\":4605:4684   */\n      tag_277\n      tag_254\n      jump\t// in\n    tag_277:\n        /* \"#utility.yul\":4569:4686   */\n    tag_276:\n        /* \"#utility.yul\":4710:4773   */\n      tag_278\n        /* \"#utility.yul\":4765:4772   */\n      dup14\n        /* \"#utility.yul\":4756:4762   */\n      dup3\n        /* \"#utility.yul\":4745:4754   */\n      dup15\n        /* \"#utility.yul\":4741:4763   */\n      add\n        /* \"#utility.yul\":4710:4773   */\n      tag_232\n      jump\t// in\n    tag_278:\n        /* \"#utility.yul\":4700:4773   */\n      swap8\n      pop\n        /* \"#utility.yul\":4495:4783   */\n      pop\n        /* \"#utility.yul\":4850:4853   */\n      0x80\n        /* \"#utility.yul\":4839:4848   */\n      dup12\n        /* \"#utility.yul\":4835:4854   */\n      add\n        /* \"#utility.yul\":4822:4855   */\n      calldataload\n        /* \"#utility.yul\":4882:4900   */\n      0xffffffffffffffff\n        /* \"#utility.yul\":4874:4880   */\n      dup2\n        /* \"#utility.yul\":4871:4901   */\n      gt\n        /* \"#utility.yul\":4868:4985   */\n      iszero\n      tag_279\n      jumpi\n        /* \"#utility.yul\":4904:4983   */\n      tag_280\n      tag_254\n      jump\t// in\n    tag_280:\n        /* \"#utility.yul\":4868:4985   */\n    tag_279:\n        /* \"#utility.yul\":5009:5072   */\n      tag_281\n        /* \"#utility.yul\":5064:5071   */\n      dup14\n        /* \"#utility.yul\":5055:5061   */\n      dup3\n        /* \"#utility.yul\":5044:5053   */\n      dup15\n        /* \"#utility.yul\":5040:5062   */\n      add\n        /* \"#utility.yul\":5009:5072   */\n      tag_232\n      jump\t// in\n    tag_281:\n        /* \"#utility.yul\":4999:5072   */\n      swap7\n      pop\n        /* \"#utility.yul\":4793:5082   */\n      pop\n        /* \"#utility.yul\":5149:5152   */\n      0xa0\n        /* \"#utility.yul\":5138:5147   */\n      dup12\n        /* \"#utility.yul\":5134:5153   */\n      add\n        /* \"#utility.yul\":5121:5154   */\n      calldataload\n        /* \"#utility.yul\":5181:5199   */\n      0xffffffffffffffff\n        /* \"#utility.yul\":5173:5179   */\n      dup2\n        /* \"#utility.yul\":5170:5200   */\n      gt\n        /* \"#utility.yul\":5167:5284   */\n      iszero\n      tag_282\n      jumpi\n        /* \"#utility.yul\":5203:5282   */\n      tag_283\n      tag_254\n      jump\t// in\n    tag_283:\n        /* \"#utility.yul\":5167:5284   */\n    tag_282:\n        /* \"#utility.yul\":5308:5371   */\n      tag_284\n        /* \"#utility.yul\":5363:5370   */\n      dup14\n        /* \"#utility.yul\":5354:5360   */\n      dup3\n        /* \"#utility.yul\":5343:5352   */\n      dup15\n        /* \"#utility.yul\":5339:5361   */\n      add\n        /* \"#utility.yul\":5308:5371   */\n      tag_232\n      jump\t// in\n    tag_284:\n        /* \"#utility.yul\":5298:5371   */\n      swap6\n      pop\n        /* \"#utility.yul\":5092:5381   */\n      pop\n        /* \"#utility.yul\":5448:5451   */\n      0xc0\n        /* \"#utility.yul\":5437:5446   */\n      dup12\n        /* \"#utility.yul\":5433:5452   */\n      add\n        /* \"#utility.yul\":5420:5453   */\n      calldataload\n        /* \"#utility.yul\":5480:5498   */\n      0xffffffffffffffff\n        /* \"#utility.yul\":5472:5478   */\n      dup2\n        /* \"#utility.yul\":5469:5499   */\n      gt\n        /* \"#utility.yul\":5466:5583   */\n      iszero\n      tag_285\n      jumpi\n        /* \"#utility.yul\":5502:5581   */\n      tag_286\n      tag_254\n      jump\t// in\n    tag_286:\n        /* \"#utility.yul\":5466:5583   */\n    tag_285:\n        /* \"#utility.yul\":5607:5670   */\n      tag_287\n        /* \"#utility.yul\":5662:5669   */\n      dup14\n        /* \"#utility.yul\":5653:5659   */\n      dup3\n        /* \"#utility.yul\":5642:5651   */\n      dup15\n        /* \"#utility.yul\":5638:5660   */\n      add\n        /* \"#utility.yul\":5607:5670   */\n      tag_232\n      jump\t// in\n    tag_287:\n        /* \"#utility.yul\":5597:5670   */\n      swap5\n      pop\n        /* \"#utility.yul\":5391:5680   */\n      pop\n        /* \"#utility.yul\":5747:5750   */\n      0xe0\n        /* \"#utility.yul\":5736:5745   */\n      dup12\n        /* \"#utility.yul\":5732:5751   */\n      add\n        /* \"#utility.yul\":5719:5752   */\n      calldataload\n        /* \"#utility.yul\":5779:5797   */\n      0xffffffffffffffff\n        /* \"#utility.yul\":5771:5777   */\n      dup2\n        /* \"#utility.yul\":5768:5798   */\n      gt\n        /* \"#utility.yul\":5765:5882   */\n      iszero\n      tag_288\n      jumpi\n        /* \"#utility.yul\":5801:5880   */\n      tag_289\n      tag_254\n      jump\t// in\n    tag_289:\n        /* \"#utility.yul\":5765:5882   */\n    tag_288:\n        /* \"#utility.yul\":5906:5969   */\n      tag_290\n        /* \"#utility.yul\":5961:5968   */\n      dup14\n        /* \"#utility.yul\":5952:5958   */\n      dup3\n        /* \"#utility.yul\":5941:5950   */\n      dup15\n        /* \"#utility.yul\":5937:5959   */\n      add\n        /* \"#utility.yul\":5906:5969   */\n      tag_232\n      jump\t// in\n    tag_290:\n        /* \"#utility.yul\":5896:5969   */\n      swap4\n      pop\n        /* \"#utility.yul\":5690:5979   */\n      pop\n        /* \"#utility.yul\":6046:6049   */\n      0x0100\n        /* \"#utility.yul\":6035:6044   */\n      dup12\n        /* \"#utility.yul\":6031:6050   */\n      add\n        /* \"#utility.yul\":6018:6051   */\n      calldataload\n        /* \"#utility.yul\":6078:6096   */\n      0xffffffffffffffff\n        /* \"#utility.yul\":6070:6076   */\n      dup2\n        /* \"#utility.yul\":6067:6097   */\n      gt\n        /* \"#utility.yul\":6064:6181   */\n      iszero\n      tag_291\n      jumpi\n        /* \"#utility.yul\":6100:6179   */\n      tag_292\n      tag_254\n      jump\t// in\n    tag_292:\n        /* \"#utility.yul\":6064:6181   */\n    tag_291:\n        /* \"#utility.yul\":6205:6268   */\n      tag_293\n        /* \"#utility.yul\":6260:6267   */\n      dup14\n        /* \"#utility.yul\":6251:6257   */\n      dup3\n        /* \"#utility.yul\":6240:6249   */\n      dup15\n        /* \"#utility.yul\":6236:6258   */\n      add\n        /* \"#utility.yul\":6205:6268   */\n      tag_232\n      jump\t// in\n    tag_293:\n        /* \"#utility.yul\":6195:6268   */\n      swap3\n      pop\n        /* \"#utility.yul\":5989:6278   */\n      pop\n        /* \"#utility.yul\":6345:6348   */\n      0x0120\n        /* \"#utility.yul\":6334:6343   */\n      dup12\n        /* \"#utility.yul\":6330:6349   */\n      add\n        /* \"#utility.yul\":6317:6350   */\n      calldataload\n        /* \"#utility.yul\":6377:6395   */\n      0xffffffffffffffff\n        /* \"#utility.yul\":6369:6375   */\n      dup2\n        /* \"#utility.yul\":6366:6396   */\n      gt\n        /* \"#utility.yul\":6363:6480   */\n      iszero\n      tag_294\n      jumpi\n        /* \"#utility.yul\":6399:6478   */\n      tag_295\n      tag_254\n      jump\t// in\n    tag_295:\n        /* \"#utility.yul\":6363:6480   */\n    tag_294:\n        /* \"#utility.yul\":6504:6567   */\n      tag_296\n        /* \"#utility.yul\":6559:6566   */\n      dup14\n        /* \"#utility.yul\":6550:6556   */\n      dup3\n        /* \"#utility.yul\":6539:6548   */\n      dup15\n        /* \"#utility.yul\":6535:6557   */\n      add\n        /* \"#utility.yul\":6504:6567   */\n      tag_232\n      jump\t// in\n    tag_296:\n        /* \"#utility.yul\":6494:6567   */\n      swap2\n      pop\n        /* \"#utility.yul\":6288:6577   */\n      pop\n        /* \"#utility.yul\":3683:6584   */\n      swap3\n      swap6\n      swap9\n      swap12\n      swap2\n      swap5\n      swap8\n      swap11\n      pop\n      swap3\n      swap6\n      swap9\n      pop\n      jump\t// out\n        /* \"#utility.yul\":6590:6732   */\n    tag_297:\n        /* \"#utility.yul\":6693:6725   */\n      tag_299\n        /* \"#utility.yul\":6719:6724   */\n      dup2\n        /* \"#utility.yul\":6693:6725   */\n      tag_300\n      jump\t// in\n    tag_299:\n        /* \"#utility.yul\":6688:6691   */\n      dup3\n        /* \"#utility.yul\":6681:6726   */\n      mstore\n        /* \"#utility.yul\":6590:6732   */\n      pop\n      pop\n      jump\t// out\n        /* \"#utility.yul\":6738:6856   */\n    tag_301:\n        /* \"#utility.yul\":6825:6849   */\n      tag_303\n        /* \"#utility.yul\":6843:6848   */\n      dup2\n        /* \"#utility.yul\":6825:6849   */\n      tag_304\n      jump\t// in\n    tag_303:\n        /* \"#utility.yul\":6820:6823   */\n      dup3\n        /* \"#utility.yul\":6813:6850   */\n      mstore\n        /* \"#utility.yul\":6738:6856   */\n      pop\n      pop\n      jump\t// out\n        /* \"#utility.yul\":6862:6971   */\n    tag_305:\n        /* \"#utility.yul\":6943:6964   */\n      tag_307\n        /* \"#utility.yul\":6958:6963   */\n      dup2\n        /* \"#utility.yul\":6943:6964   */\n      tag_308\n      jump\t// in\n    tag_307:\n        /* \"#utility.yul\":6938:6941   */\n      dup3\n        /* \"#utility.yul\":6931:6965   */\n      mstore\n        /* \"#utility.yul\":6862:6971   */\n      pop\n      pop\n      jump\t// out\n        /* \"#utility.yul\":6977:7118   */\n    tag_309:\n        /* \"#utility.yul\":7069:7111   */\n      tag_311\n        /* \"#utility.yul\":7105:7110   */\n      dup2\n        /* \"#utility.yul\":7069:7111   */\n      tag_312\n      jump\t// in\n    tag_311:\n        /* \"#utility.yul\":7064:7067   */\n      dup3\n        /* \"#utility.yul\":7057:7112   */\n      mstore\n        /* \"#utility.yul\":6977:7118   */\n      pop\n      pop\n      jump\t// out\n        /* \"#utility.yul\":7124:7267   */\n    tag_313:\n        /* \"#utility.yul\":7217:7260   */\n      tag_315\n        /* \"#utility.yul\":7254:7259   */\n      dup2\n        /* \"#utility.yul\":7217:7260   */\n      tag_316\n      jump\t// in\n    tag_315:\n        /* \"#utility.yul\":7212:7215   */\n      dup3\n        /* \"#utility.yul\":7205:7261   */\n      mstore\n        /* \"#utility.yul\":7124:7267   */\n      pop\n      pop\n      jump\t// out\n        /* \"#utility.yul\":7273:7637   */\n    tag_317:\n        /* \"#utility.yul\":7361:7364   */\n      0x00\n        /* \"#utility.yul\":7389:7428   */\n      tag_319\n        /* \"#utility.yul\":7422:7427   */\n      dup3\n        /* \"#utility.yul\":7389:7428   */\n      tag_320\n      jump\t// in\n    tag_319:\n        /* \"#utility.yul\":7444:7515   */\n      tag_321\n        /* \"#utility.yul\":7508:7514   */\n      dup2\n        /* \"#utility.yul\":7503:7506   */\n      dup6\n        /* \"#utility.yul\":7444:7515   */\n      tag_322\n      jump\t// in\n    tag_321:\n        /* \"#utility.yul\":7437:7515   */\n      swap4\n      pop\n        /* \"#utility.yul\":7524:7576   */\n      tag_323\n        /* \"#utility.yul\":7569:7575   */\n      dup2\n        /* \"#utility.yul\":7564:7567   */\n      dup6\n        /* \"#utility.yul\":7557:7561   */\n      0x20\n        /* \"#utility.yul\":7550:7555   */\n      dup7\n        /* \"#utility.yul\":7546:7562   */\n      add\n        /* \"#utility.yul\":7524:7576   */\n      tag_324\n      jump\t// in\n    tag_323:\n        /* \"#utility.yul\":7601:7630   */\n      tag_325\n        /* \"#utility.yul\":7623:7629   */\n      dup2\n        /* \"#utility.yul\":7601:7630   */\n      tag_326\n      jump\t// in\n    tag_325:\n        /* \"#utility.yul\":7596:7599   */\n      dup5\n        /* \"#utility.yul\":7592:7631   */\n      add\n        /* \"#utility.yul\":7585:7631   */\n      swap2\n      pop\n        /* \"#utility.yul\":7365:7637   */\n      pop\n        /* \"#utility.yul\":7273:7637   */\n      swap3\n      swap2\n      pop\n      pop\n      jump\t// out\n        /* \"#utility.yul\":7643:8009   */\n    tag_327:\n        /* \"#utility.yul\":7785:7788   */\n      0x00\n        /* \"#utility.yul\":7806:7873   */\n      tag_329\n        /* \"#utility.yul\":7870:7872   */\n      0x1c\n        /* \"#utility.yul\":7865:7868   */\n      dup4\n        /* \"#utility.yul\":7806:7873   */\n      tag_322\n      jump\t// in\n    tag_329:\n        /* \"#utility.yul\":7799:7873   */\n      swap2\n      pop\n        /* \"#utility.yul\":7882:7975   */\n      tag_330\n        /* \"#utility.yul\":7971:7974   */\n      dup3\n        /* \"#utility.yul\":7882:7975   */\n      tag_331\n      jump\t// in\n    tag_330:\n        /* \"#utility.yul\":8000:8002   */\n      0x20\n        /* \"#utility.yul\":7995:7998   */\n      dup3\n        /* \"#utility.yul\":7991:8003   */\n      add\n        /* \"#utility.yul\":7984:8003   */\n      swap1\n      pop\n        /* \"#utility.yul\":7643:8009   */\n      swap2\n      swap1\n      pop\n      jump\t// out\n        /* \"#utility.yul\":8015:8381   */\n    tag_332:\n        /* \"#utility.yul\":8157:8160   */\n      0x00\n        /* \"#utility.yul\":8178:8245   */\n      tag_334\n        /* \"#utility.yul\":8242:8244   */\n      0x19\n        /* \"#utility.yul\":8237:8240   */\n      dup4\n        /* \"#utility.yul\":8178:8245   */\n      tag_322\n      jump\t// in\n    tag_334:\n        /* \"#utility.yul\":8171:8245   */\n      swap2\n      pop\n        /* \"#utility.yul\":8254:8347   */\n      tag_335\n        /* \"#utility.yul\":8343:8346   */\n      dup3\n        /* \"#utility.yul\":8254:8347   */\n      tag_336\n      jump\t// in\n    tag_335:\n        /* \"#utility.yul\":8372:8374   */\n      0x20\n        /* \"#utility.yul\":8367:8370   */\n      dup3\n        /* \"#utility.yul\":8363:8375   */\n      add\n        /* \"#utility.yul\":8356:8375   */\n      swap1\n      pop\n        /* \"#utility.yul\":8015:8381   */\n      swap2\n      swap1\n      pop\n      jump\t// out\n        /* \"#utility.yul\":8387:8753   */\n    tag_337:\n        /* \"#utility.yul\":8529:8532   */\n      0x00\n        /* \"#utility.yul\":8550:8617   */\n      tag_339\n        /* \"#utility.yul\":8614:8616   */\n      0x1e\n        /* \"#utility.yul\":8609:8612   */\n      dup4\n        /* \"#utility.yul\":8550:8617   */\n      tag_322\n      jump\t// in\n    tag_339:\n        /* \"#utility.yul\":8543:8617   */\n      swap2\n      pop\n        /* \"#utility.yul\":8626:8719   */\n      tag_340\n        /* \"#utility.yul\":8715:8718   */\n      dup3\n        /* \"#utility.yul\":8626:8719   */\n      tag_341\n      jump\t// in\n    tag_340:\n        /* \"#utility.yul\":8744:8746   */\n      0x20\n        /* \"#utility.yul\":8739:8742   */\n      dup3\n        /* \"#utility.yul\":8735:8747   */\n      add\n        /* \"#utility.yul\":8728:8747   */\n      swap1\n      pop\n        /* \"#utility.yul\":8387:8753   */\n      swap2\n      swap1\n      pop\n      jump\t// out\n        /* \"#utility.yul\":8759:8877   */\n    tag_342:\n        /* \"#utility.yul\":8846:8870   */\n      tag_344\n        /* \"#utility.yul\":8864:8869   */\n      dup2\n        /* \"#utility.yul\":8846:8870   */\n      tag_345\n      jump\t// in\n    tag_344:\n        /* \"#utility.yul\":8841:8844   */\n      dup3\n        /* \"#utility.yul\":8834:8871   */\n      mstore\n        /* \"#utility.yul\":8759:8877   */\n      pop\n      pop\n      jump\t// out\n        /* \"#utility.yul\":8883:9137   */\n    tag_63:\n        /* \"#utility.yul\":8992:8996   */\n      0x00\n        /* \"#utility.yul\":9030:9032   */\n      0x20\n        /* \"#utility.yul\":9019:9028   */\n      dup3\n        /* \"#utility.yul\":9015:9033   */\n      add\n        /* \"#utility.yul\":9007:9033   */\n      swap1\n      pop\n        /* \"#utility.yul\":9043:9130   */\n      tag_347\n        /* \"#utility.yul\":9127:9128   */\n      0x00\n        /* \"#utility.yul\":9116:9125   */\n      dup4\n        /* \"#utility.yul\":9112:9129   */\n      add\n        /* \"#utility.yul\":9103:9109   */\n      dup5\n        /* \"#utility.yul\":9043:9130   */\n      tag_297\n      jump\t// in\n    tag_347:\n        /* \"#utility.yul\":8883:9137   */\n      swap3\n      swap2\n      pop\n      pop\n      jump\t// out\n        /* \"#utility.yul\":9143:9353   */\n    tag_45:\n        /* \"#utility.yul\":9230:9234   */\n      0x00\n        /* \"#utility.yul\":9268:9270   */\n      0x20\n        /* \"#utility.yul\":9257:9266   */\n      dup3\n        /* \"#utility.yul\":9253:9271   */\n      add\n        /* \"#utility.yul\":9245:9271   */\n      swap1\n      pop\n        /* \"#utility.yul\":9281:9346   */\n      tag_349\n        /* \"#utility.yul\":9343:9344   */\n      0x00\n        /* \"#utility.yul\":9332:9341   */\n      dup4\n        /* \"#utility.yul\":9328:9345   */\n      add\n        /* \"#utility.yul\":9319:9325   */\n      dup5\n        /* \"#utility.yul\":9281:9346   */\n      tag_305\n      jump\t// in\n    tag_349:\n        /* \"#utility.yul\":9143:9353   */\n      swap3\n      swap2\n      pop\n      pop\n      jump\t// out\n        /* \"#utility.yul\":9359:9792   */\n    tag_72:\n        /* \"#utility.yul\":9505:9509   */\n      0x00\n        /* \"#utility.yul\":9543:9545   */\n      0x40\n        /* \"#utility.yul\":9532:9541   */\n      dup3\n        /* \"#utility.yul\":9528:9546   */\n      add\n        /* \"#utility.yul\":9520:9546   */\n      swap1\n      pop\n        /* \"#utility.yul\":9556:9632   */\n      tag_351\n        /* \"#utility.yul\":9629:9630   */\n      0x00\n        /* \"#utility.yul\":9618:9627   */\n      dup4\n        /* \"#utility.yul\":9614:9631   */\n      add\n        /* \"#utility.yul\":9605:9611   */\n      dup6\n        /* \"#utility.yul\":9556:9632   */\n      tag_309\n      jump\t// in\n    tag_351:\n        /* \"#utility.yul\":9679:9688   */\n      dup2\n        /* \"#utility.yul\":9673:9677   */\n      dup2\n        /* \"#utility.yul\":9669:9689   */\n      sub\n        /* \"#utility.yul\":9664:9666   */\n      0x20\n        /* \"#utility.yul\":9653:9662   */\n      dup4\n        /* \"#utility.yul\":9649:9667   */\n      add\n        /* \"#utility.yul\":9642:9690   */\n      mstore\n        /* \"#utility.yul\":9707:9785   */\n      tag_352\n        /* \"#utility.yul\":9780:9784   */\n      dup2\n        /* \"#utility.yul\":9771:9777   */\n      dup5\n        /* \"#utility.yul\":9707:9785   */\n      tag_317\n      jump\t// in\n    tag_352:\n        /* \"#utility.yul\":9699:9785   */\n      swap1\n      pop\n        /* \"#utility.yul\":9359:9792   */\n      swap4\n      swap3\n      pop\n      pop\n      pop\n      jump\t// out\n        /* \"#utility.yul\":9798:10111   */\n    tag_23:\n        /* \"#utility.yul\":9911:9915   */\n      0x00\n        /* \"#utility.yul\":9949:9951   */\n      0x20\n        /* \"#utility.yul\":9938:9947   */\n      dup3\n        /* \"#utility.yul\":9934:9952   */\n      add\n        /* \"#utility.yul\":9926:9952   */\n      swap1\n      pop\n        /* \"#utility.yul\":9998:10007   */\n      dup2\n        /* \"#utility.yul\":9992:9996   */\n      dup2\n        /* \"#utility.yul\":9988:10008   */\n      sub\n        /* \"#utility.yul\":9984:9985   */\n      0x00\n        /* \"#utility.yul\":9973:9982   */\n      dup4\n        /* \"#utility.yul\":9969:9986   */\n      add\n        /* \"#utility.yul\":9962:10009   */\n      mstore\n        /* \"#utility.yul\":10026:10104   */\n      tag_354\n        /* \"#utility.yul\":10099:10103   */\n      dup2\n        /* \"#utility.yul\":10090:10096   */\n      dup5\n        /* \"#utility.yul\":10026:10104   */\n      tag_317\n      jump\t// in\n    tag_354:\n        /* \"#utility.yul\":10018:10104   */\n      swap1\n      pop\n        /* \"#utility.yul\":9798:10111   */\n      swap3\n      swap2\n      pop\n      pop\n      jump\t// out\n        /* \"#utility.yul\":10117:10536   */\n    tag_122:\n        /* \"#utility.yul\":10283:10287   */\n      0x00\n        /* \"#utility.yul\":10321:10323   */\n      0x20\n        /* \"#utility.yul\":10310:10319   */\n      dup3\n        /* \"#utility.yul\":10306:10324   */\n      add\n        /* \"#utility.yul\":10298:10324   */\n      swap1\n      pop\n        /* \"#utility.yul\":10370:10379   */\n      dup2\n        /* \"#utility.yul\":10364:10368   */\n      dup2\n        /* \"#utility.yul\":10360:10380   */\n      sub\n        /* \"#utility.yul\":10356:10357   */\n      0x00\n        /* \"#utility.yul\":10345:10354   */\n      dup4\n        /* \"#utility.yul\":10341:10358   */\n      add\n        /* \"#utility.yul\":10334:10381   */\n      mstore\n        /* \"#utility.yul\":10398:10529   */\n      tag_356\n        /* \"#utility.yul\":10524:10528   */\n      dup2\n        /* \"#utility.yul\":10398:10529   */\n      tag_327\n      jump\t// in\n    tag_356:\n        /* \"#utility.yul\":10390:10529   */\n      swap1\n      pop\n        /* \"#utility.yul\":10117:10536   */\n      swap2\n      swap1\n      pop\n      jump\t// out\n        /* \"#utility.yul\":10542:10961   */\n    tag_144:\n        /* \"#utility.yul\":10708:10712   */\n      0x00\n        /* \"#utility.yul\":10746:10748   */\n      0x20\n        /* \"#utility.yul\":10735:10744   */\n      dup3\n        /* \"#utility.yul\":10731:10749   */\n      add\n        /* \"#utility.yul\":10723:10749   */\n      swap1\n      pop\n        /* \"#utility.yul\":10795:10804   */\n      dup2\n        /* \"#utility.yul\":10789:10793   */\n      dup2\n        /* \"#utility.yul\":10785:10805   */\n      sub\n        /* \"#utility.yul\":10781:10782   */\n      0x00\n        /* \"#utility.yul\":10770:10779   */\n      dup4\n        /* \"#utility.yul\":10766:10783   */\n      add\n        /* \"#utility.yul\":10759:10806   */\n      mstore\n        /* \"#utility.yul\":10823:10954   */\n      tag_358\n        /* \"#utility.yul\":10949:10953   */\n      dup2\n        /* \"#utility.yul\":10823:10954   */\n      tag_332\n      jump\t// in\n    tag_358:\n        /* \"#utility.yul\":10815:10954   */\n      swap1\n      pop\n        /* \"#utility.yul\":10542:10961   */\n      swap2\n      swap1\n      pop\n      jump\t// out\n        /* \"#utility.yul\":10967:11386   */\n    tag_173:\n        /* \"#utility.yul\":11133:11137   */\n      0x00\n        /* \"#utility.yul\":11171:11173   */\n      0x20\n        /* \"#utility.yul\":11160:11169   */\n      dup3\n        /* \"#utility.yul\":11156:11174   */\n      add\n        /* \"#utility.yul\":11148:11174   */\n      swap1\n      pop\n        /* \"#utility.yul\":11220:11229   */\n      dup2\n        /* \"#utility.yul\":11214:11218   */\n      dup2\n        /* \"#utility.yul\":11210:11230   */\n      sub\n        /* \"#utility.yul\":11206:11207   */\n      0x00\n        /* \"#utility.yul\":11195:11204   */\n      dup4\n        /* \"#utility.yul\":11191:11208   */\n      add\n        /* \"#utility.yul\":11184:11231   */\n      mstore\n        /* \"#utility.yul\":11248:11379   */\n      tag_360\n        /* \"#utility.yul\":11374:11378   */\n      dup2\n        /* \"#utility.yul\":11248:11379   */\n      tag_337\n      jump\t// in\n    tag_360:\n        /* \"#utility.yul\":11240:11379   */\n      swap1\n      pop\n        /* \"#utility.yul\":10967:11386   */\n      swap2\n      swap1\n      pop\n      jump\t// out\n        /* \"#utility.yul\":11392:11614   */\n    tag_78:\n        /* \"#utility.yul\":11485:11489   */\n      0x00\n        /* \"#utility.yul\":11523:11525   */\n      0x20\n        /* \"#utility.yul\":11512:11521   */\n      dup3\n        /* \"#utility.yul\":11508:11526   */\n      add\n        /* \"#utility.yul\":11500:11526   */\n      swap1\n      pop\n        /* \"#utility.yul\":11536:11607   */\n      tag_362\n        /* \"#utility.yul\":11604:11605   */\n      0x00\n        /* \"#utility.yul\":11593:11602   */\n      dup4\n        /* \"#utility.yul\":11589:11606   */\n      add\n        /* \"#utility.yul\":11580:11586   */\n      dup5\n        /* \"#utility.yul\":11536:11607   */\n      tag_342\n      jump\t// in\n    tag_362:\n        /* \"#utility.yul\":11392:11614   */\n      swap3\n      swap2\n      pop\n      pop\n      jump\t// out\n        /* \"#utility.yul\":11620:13441   */\n    tag_84:\n        /* \"#utility.yul\":12109:12113   */\n      0x00\n        /* \"#utility.yul\":12147:12150   */\n      0x0180\n        /* \"#utility.yul\":12136:12145   */\n      dup3\n        /* \"#utility.yul\":12132:12151   */\n      add\n        /* \"#utility.yul\":12124:12151   */\n      swap1\n      pop\n        /* \"#utility.yul\":12161:12232   */\n      tag_364\n        /* \"#utility.yul\":12229:12230   */\n      0x00\n        /* \"#utility.yul\":12218:12227   */\n      dup4\n        /* \"#utility.yul\":12214:12231   */\n      add\n        /* \"#utility.yul\":12205:12211   */\n      dup16\n        /* \"#utility.yul\":12161:12232   */\n      tag_342\n      jump\t// in\n    tag_364:\n        /* \"#utility.yul\":12242:12314   */\n      tag_365\n        /* \"#utility.yul\":12310:12312   */\n      0x20\n        /* \"#utility.yul\":12299:12308   */\n      dup4\n        /* \"#utility.yul\":12295:12313   */\n      add\n        /* \"#utility.yul\":12286:12292   */\n      dup15\n        /* \"#utility.yul\":12242:12314   */\n      tag_301\n      jump\t// in\n    tag_365:\n        /* \"#utility.yul\":12324:12396   */\n      tag_366\n        /* \"#utility.yul\":12392:12394   */\n      0x40\n        /* \"#utility.yul\":12381:12390   */\n      dup4\n        /* \"#utility.yul\":12377:12395   */\n      add\n        /* \"#utility.yul\":12368:12374   */\n      dup14\n        /* \"#utility.yul\":12324:12396   */\n      tag_301\n      jump\t// in\n    tag_366:\n        /* \"#utility.yul\":12406:12484   */\n      tag_367\n        /* \"#utility.yul\":12480:12482   */\n      0x60\n        /* \"#utility.yul\":12469:12478   */\n      dup4\n        /* \"#utility.yul\":12465:12483   */\n      add\n        /* \"#utility.yul\":12456:12462   */\n      dup13\n        /* \"#utility.yul\":12406:12484   */\n      tag_313\n      jump\t// in\n    tag_367:\n        /* \"#utility.yul\":12494:12567   */\n      tag_368\n        /* \"#utility.yul\":12562:12565   */\n      0x80\n        /* \"#utility.yul\":12551:12560   */\n      dup4\n        /* \"#utility.yul\":12547:12566   */\n      add\n        /* \"#utility.yul\":12538:12544   */\n      dup12\n        /* \"#utility.yul\":12494:12567   */\n      tag_342\n      jump\t// in\n    tag_368:\n        /* \"#utility.yul\":12577:12650   */\n      tag_369\n        /* \"#utility.yul\":12645:12648   */\n      0xa0\n        /* \"#utility.yul\":12634:12643   */\n      dup4\n        /* \"#utility.yul\":12630:12649   */\n      add\n        /* \"#utility.yul\":12621:12627   */\n      dup11\n        /* \"#utility.yul\":12577:12650   */\n      tag_301\n      jump\t// in\n    tag_369:\n        /* \"#utility.yul\":12660:12733   */\n      tag_370\n        /* \"#utility.yul\":12728:12731   */\n      0xc0\n        /* \"#utility.yul\":12717:12726   */\n      dup4\n        /* \"#utility.yul\":12713:12732   */\n      add\n        /* \"#utility.yul\":12704:12710   */\n      dup10\n        /* \"#utility.yul\":12660:12733   */\n      tag_301\n      jump\t// in\n    tag_370:\n        /* \"#utility.yul\":12743:12816   */\n      tag_371\n        /* \"#utility.yul\":12811:12814   */\n      0xe0\n        /* \"#utility.yul\":12800:12809   */\n      dup4\n        /* \"#utility.yul\":12796:12815   */\n      add\n        /* \"#utility.yul\":12787:12793   */\n      dup9\n        /* \"#utility.yul\":12743:12816   */\n      tag_301\n      jump\t// in\n    tag_371:\n        /* \"#utility.yul\":12864:12873   */\n      dup2\n        /* \"#utility.yul\":12858:12862   */\n      dup2\n        /* \"#utility.yul\":12854:12874   */\n      sub\n        /* \"#utility.yul\":12848:12851   */\n      0x0100\n        /* \"#utility.yul\":12837:12846   */\n      dup4\n        /* \"#utility.yul\":12833:12852   */\n      add\n        /* \"#utility.yul\":12826:12875   */\n      mstore\n        /* \"#utility.yul\":12892:12970   */\n      tag_372\n        /* \"#utility.yul\":12965:12969   */\n      dup2\n        /* \"#utility.yul\":12956:12962   */\n      dup8\n        /* \"#utility.yul\":12892:12970   */\n      tag_317\n      jump\t// in\n    tag_372:\n        /* \"#utility.yul\":12884:12970   */\n      swap1\n      pop\n        /* \"#utility.yul\":13018:13027   */\n      dup2\n        /* \"#utility.yul\":13012:13016   */\n      dup2\n        /* \"#utility.yul\":13008:13028   */\n      sub\n        /* \"#utility.yul\":13002:13005   */\n      0x0120\n        /* \"#utility.yul\":12991:13000   */\n      dup4\n        /* \"#utility.yul\":12987:13006   */\n      add\n        /* \"#utility.yul\":12980:13029   */\n      mstore\n        /* \"#utility.yul\":13046:13124   */\n      tag_373\n        /* \"#utility.yul\":13119:13123   */\n      dup2\n        /* \"#utility.yul\":13110:13116   */\n      dup7\n        /* \"#utility.yul\":13046:13124   */\n      tag_317\n      jump\t// in\n    tag_373:\n        /* \"#utility.yul\":13038:13124   */\n      swap1\n      pop\n        /* \"#utility.yul\":13172:13181   */\n      dup2\n        /* \"#utility.yul\":13166:13170   */\n      dup2\n        /* \"#utility.yul\":13162:13182   */\n      sub\n        /* \"#utility.yul\":13156:13159   */\n      0x0140\n        /* \"#utility.yul\":13145:13154   */\n      dup4\n        /* \"#utility.yul\":13141:13160   */\n      add\n        /* \"#utility.yul\":13134:13183   */\n      mstore\n        /* \"#utility.yul\":13200:13279   */\n      tag_374\n        /* \"#utility.yul\":13274:13278   */\n      dup2\n        /* \"#utility.yul\":13264:13271   */\n      dup6\n        /* \"#utility.yul\":13200:13279   */\n      tag_317\n      jump\t// in\n    tag_374:\n        /* \"#utility.yul\":13192:13279   */\n      swap1\n      pop\n        /* \"#utility.yul\":13327:13336   */\n      dup2\n        /* \"#utility.yul\":13321:13325   */\n      dup2\n        /* \"#utility.yul\":13317:13337   */\n      sub\n        /* \"#utility.yul\":13311:13314   */\n      0x0160\n        /* \"#utility.yul\":13300:13309   */\n      dup4\n        /* \"#utility.yul\":13296:13315   */\n      add\n        /* \"#utility.yul\":13289:13338   */\n      mstore\n        /* \"#utility.yul\":13355:13434   */\n      tag_375\n        /* \"#utility.yul\":13429:13433   */\n      dup2\n        /* \"#utility.yul\":13419:13426   */\n      dup5\n        /* \"#utility.yul\":13355:13434   */\n      tag_317\n      jump\t// in\n    tag_375:\n        /* \"#utility.yul\":13347:13434   */\n      swap1\n      pop\n        /* \"#utility.yul\":11620:13441   */\n      swap14\n      swap13\n      pop\n      pop\n      pop\n      pop\n      pop\n      pop\n      pop\n      pop\n      pop\n      pop\n      pop\n      pop\n      pop\n      jump\t// out\n        /* \"#utility.yul\":13447:13576   */\n    tag_218:\n        /* \"#utility.yul\":13481:13487   */\n      0x00\n        /* \"#utility.yul\":13508:13528   */\n      tag_377\n      tag_378\n      jump\t// in\n    tag_377:\n        /* \"#utility.yul\":13498:13528   */\n      swap1\n      pop\n        /* \"#utility.yul\":13537:13570   */\n      tag_379\n        /* \"#utility.yul\":13565:13569   */\n      dup3\n        /* \"#utility.yul\":13557:13563   */\n      dup3\n        /* \"#utility.yul\":13537:13570   */\n      tag_380\n      jump\t// in\n    tag_379:\n        /* \"#utility.yul\":13447:13576   */\n      swap2\n      swap1\n      pop\n      jump\t// out\n        /* \"#utility.yul\":13582:13657   */\n    tag_378:\n        /* \"#utility.yul\":13615:13621   */\n      0x00\n        /* \"#utility.yul\":13648:13650   */\n      0x40\n        /* \"#utility.yul\":13642:13651   */\n      mload\n        /* \"#utility.yul\":13632:13651   */\n      swap1\n      pop\n        /* \"#utility.yul\":13582:13657   */\n      swap1\n      jump\t// out\n        /* \"#utility.yul\":13663:13971   */\n    tag_217:\n        /* \"#utility.yul\":13725:13729   */\n      0x00\n        /* \"#utility.yul\":13815:13833   */\n      0xffffffffffffffff\n        /* \"#utility.yul\":13807:13813   */\n      dup3\n        /* \"#utility.yul\":13804:13834   */\n      gt\n        /* \"#utility.yul\":13801:13857   */\n      iszero\n      tag_383\n      jumpi\n        /* \"#utility.yul\":13837:13855   */\n      tag_384\n      tag_385\n      jump\t// in\n    tag_384:\n        /* \"#utility.yul\":13801:13857   */\n    tag_383:\n        /* \"#utility.yul\":13875:13904   */\n      tag_386\n        /* \"#utility.yul\":13897:13903   */\n      dup3\n        /* \"#utility.yul\":13875:13904   */\n      tag_326\n      jump\t// in\n    tag_386:\n        /* \"#utility.yul\":13867:13904   */\n      swap1\n      pop\n        /* \"#utility.yul\":13959:13963   */\n      0x20\n        /* \"#utility.yul\":13953:13957   */\n      dup2\n        /* \"#utility.yul\":13949:13964   */\n      add\n        /* \"#utility.yul\":13941:13964   */\n      swap1\n      pop\n        /* \"#utility.yul\":13663:13971   */\n      swap2\n      swap1\n      pop\n      jump\t// out\n        /* \"#utility.yul\":13977:14076   */\n    tag_320:\n        /* \"#utility.yul\":14029:14035   */\n      0x00\n        /* \"#utility.yul\":14063:14068   */\n      dup2\n        /* \"#utility.yul\":14057:14069   */\n      mload\n        /* \"#utility.yul\":14047:14069   */\n      swap1\n      pop\n        /* \"#utility.yul\":13977:14076   */\n      swap2\n      swap1\n      pop\n      jump\t// out\n        /* \"#utility.yul\":14082:14251   */\n    tag_322:\n        /* \"#utility.yul\":14166:14177   */\n      0x00\n        /* \"#utility.yul\":14200:14206   */\n      dup3\n        /* \"#utility.yul\":14195:14198   */\n      dup3\n        /* \"#utility.yul\":14188:14207   */\n      mstore\n        /* \"#utility.yul\":14240:14244   */\n      0x20\n        /* \"#utility.yul\":14235:14238   */\n      dup3\n        /* \"#utility.yul\":14231:14245   */\n      add\n        /* \"#utility.yul\":14216:14245   */\n      swap1\n      pop\n        /* \"#utility.yul\":14082:14251   */\n      swap3\n      swap2\n      pop\n      pop\n      jump\t// out\n        /* \"#utility.yul\":14257:14562   */\n    tag_164:\n        /* \"#utility.yul\":14297:14300   */\n      0x00\n        /* \"#utility.yul\":14316:14336   */\n      tag_390\n        /* \"#utility.yul\":14334:14335   */\n      dup3\n        /* \"#utility.yul\":14316:14336   */\n      tag_345\n      jump\t// in\n    tag_390:\n        /* \"#utility.yul\":14311:14336   */\n      swap2\n      pop\n        /* \"#utility.yul\":14350:14370   */\n      tag_391\n        /* \"#utility.yul\":14368:14369   */\n      dup4\n        /* \"#utility.yul\":14350:14370   */\n      tag_345\n      jump\t// in\n    tag_391:\n        /* \"#utility.yul\":14345:14370   */\n      swap3\n      pop\n        /* \"#utility.yul\":14504:14505   */\n      dup3\n        /* \"#utility.yul\":14436:14502   */\n      0xffffffffffffffffffffffffffffffffffffffffffffffffffffffffffffffff\n        /* \"#utility.yul\":14432:14506   */\n      sub\n        /* \"#utility.yul\":14429:14430   */\n      dup3\n        /* \"#utility.yul\":14426:14507   */\n      gt\n        /* \"#utility.yul\":14423:14530   */\n      iszero\n      tag_392\n      jumpi\n        /* \"#utility.yul\":14510:14528   */\n      tag_393\n      tag_394\n      jump\t// in\n    tag_393:\n        /* \"#utility.yul\":14423:14530   */\n    tag_392:\n        /* \"#utility.yul\":14554:14555   */\n      dup3\n        /* \"#utility.yul\":14551:14552   */\n      dup3\n        /* \"#utility.yul\":14547:14556   */\n      add\n        /* \"#utility.yul\":14540:14556   */\n      swap1\n      pop\n        /* \"#utility.yul\":14257:14562   */\n      swap3\n      swap2\n      pop\n      pop\n      jump\t// out\n        /* \"#utility.yul\":14568:14753   */\n    tag_187:\n        /* \"#utility.yul\":14608:14609   */\n      0x00\n        /* \"#utility.yul\":14625:14645   */\n      tag_396\n        /* \"#utility.yul\":14643:14644   */\n      dup3\n        /* \"#utility.yul\":14625:14645   */\n      tag_345\n      jump\t// in\n    tag_396:\n        /* \"#utility.yul\":14620:14645   */\n      swap2\n      pop\n        /* \"#utility.yul\":14659:14679   */\n      tag_397\n        /* \"#utility.yul\":14677:14678   */\n      dup4\n        /* \"#utility.yul\":14659:14679   */\n      tag_345\n      jump\t// in\n    tag_397:\n        /* \"#utility.yul\":14654:14679   */\n      swap3\n      pop\n        /* \"#utility.yul\":14698:14699   */\n      dup3\n        /* \"#utility.yul\":14688:14723   */\n      tag_398\n      jumpi\n        /* \"#utility.yul\":14703:14721   */\n      tag_399\n      tag_400\n      jump\t// in\n    tag_399:\n        /* \"#utility.yul\":14688:14723   */\n    tag_398:\n        /* \"#utility.yul\":14745:14746   */\n      dup3\n        /* \"#utility.yul\":14742:14743   */\n      dup3\n        /* \"#utility.yul\":14738:14747   */\n      div\n        /* \"#utility.yul\":14733:14747   */\n      swap1\n      pop\n        /* \"#utility.yul\":14568:14753   */\n      swap3\n      swap2\n      pop\n      pop\n      jump\t// out\n        /* \"#utility.yul\":14759:14950   */\n    tag_162:\n        /* \"#utility.yul\":14799:14803   */\n      0x00\n        /* \"#utility.yul\":14819:14839   */\n      tag_402\n        /* \"#utility.yul\":14837:14838   */\n      dup3\n        /* \"#utility.yul\":14819:14839   */\n      tag_345\n      jump\t// in\n    tag_402:\n        /* \"#utility.yul\":14814:14839   */\n      swap2\n      pop\n        /* \"#utility.yul\":14853:14873   */\n      tag_403\n        /* \"#utility.yul\":14871:14872   */\n      dup4\n        /* \"#utility.yul\":14853:14873   */\n      tag_345\n      jump\t// in\n    tag_403:\n        /* \"#utility.yul\":14848:14873   */\n      swap3\n      pop\n        /* \"#utility.yul\":14892:14893   */\n      dup3\n        /* \"#utility.yul\":14889:14890   */\n      dup3\n        /* \"#utility.yul\":14886:14894   */\n      lt\n        /* \"#utility.yul\":14883:14917   */\n      iszero\n      tag_404\n      jumpi\n        /* \"#utility.yul\":14897:14915   */\n      tag_405\n      tag_394\n      jump\t// in\n    tag_405:\n        /* \"#utility.yul\":14883:14917   */\n    tag_404:\n        /* \"#utility.yul\":14942:14943   */\n      dup3\n        /* \"#utility.yul\":14939:14940   */\n      dup3\n        /* \"#utility.yul\":14935:14944   */\n      sub\n        /* \"#utility.yul\":14927:14944   */\n      swap1\n      pop\n        /* \"#utility.yul\":14759:14950   */\n      swap3\n      swap2\n      pop\n      pop\n      jump\t// out\n        /* \"#utility.yul\":14956:15052   */\n    tag_304:\n        /* \"#utility.yul\":14993:15000   */\n      0x00\n        /* \"#utility.yul\":15022:15046   */\n      tag_407\n        /* \"#utility.yul\":15040:15045   */\n      dup3\n        /* \"#utility.yul\":15022:15046   */\n      tag_408\n      jump\t// in\n    tag_407:\n        /* \"#utility.yul\":15011:15046   */\n      swap1\n      pop\n        /* \"#utility.yul\":14956:15052   */\n      swap2\n      swap1\n      pop\n      jump\t// out\n        /* \"#utility.yul\":15058:15162   */\n    tag_300:\n        /* \"#utility.yul\":15103:15110   */\n      0x00\n        /* \"#utility.yul\":15132:15156   */\n      tag_410\n        /* \"#utility.yul\":15150:15155   */\n      dup3\n        /* \"#utility.yul\":15132:15156   */\n      tag_408\n      jump\t// in\n    tag_410:\n        /* \"#utility.yul\":15121:15156   */\n      swap1\n      pop\n        /* \"#utility.yul\":15058:15162   */\n      swap2\n      swap1\n      pop\n      jump\t// out\n        /* \"#utility.yul\":15168:15258   */\n    tag_308:\n        /* \"#utility.yul\":15202:15209   */\n      0x00\n        /* \"#utility.yul\":15245:15250   */\n      dup2\n        /* \"#utility.yul\":15238:15251   */\n      iszero\n        /* \"#utility.yul\":15231:15252   */\n      iszero\n        /* \"#utility.yul\":15220:15252   */\n      swap1\n      pop\n        /* \"#utility.yul\":15168:15258   */\n      swap2\n      swap1\n      pop\n      jump\t// out\n        /* \"#utility.yul\":15264:15389   */\n    tag_412:\n        /* \"#utility.yul\":15308:15315   */\n      0x00\n        /* \"#utility.yul\":15337:15342   */\n      dup2\n        /* \"#utility.yul\":15326:15342   */\n      swap1\n      pop\n        /* \"#utility.yul\":15343:15383   */\n      tag_414\n        /* \"#utility.yul\":15377:15382   */\n      dup3\n        /* \"#utility.yul\":15343:15383   */\n      tag_415\n      jump\t// in\n    tag_414:\n        /* \"#utility.yul\":15264:15389   */\n      swap2\n      swap1\n      pop\n      jump\t// out\n        /* \"#utility.yul\":15395:15522   */\n    tag_416:\n        /* \"#utility.yul\":15440:15447   */\n      0x00\n        /* \"#utility.yul\":15469:15474   */\n      dup2\n        /* \"#utility.yul\":15458:15474   */\n      swap1\n      pop\n        /* \"#utility.yul\":15475:15516   */\n      tag_418\n        /* \"#utility.yul\":15510:15515   */\n      dup3\n        /* \"#utility.yul\":15475:15516   */\n      tag_419\n      jump\t// in\n    tag_418:\n        /* \"#utility.yul\":15395:15522   */\n      swap2\n      swap1\n      pop\n      jump\t// out\n        /* \"#utility.yul\":15528:15654   */\n    tag_408:\n        /* \"#utility.yul\":15565:15572   */\n      0x00\n        /* \"#utility.yul\":15605:15647   */\n      0xffffffffffffffffffffffffffffffffffffffff\n        /* \"#utility.yul\":15598:15603   */\n      dup3\n        /* \"#utility.yul\":15594:15648   */\n      and\n        /* \"#utility.yul\":15583:15648   */\n      swap1\n      pop\n        /* \"#utility.yul\":15528:15654   */\n      swap2\n      swap1\n      pop\n      jump\t// out\n        /* \"#utility.yul\":15660:15737   */\n    tag_345:\n        /* \"#utility.yul\":15697:15704   */\n      0x00\n        /* \"#utility.yul\":15726:15731   */\n      dup2\n        /* \"#utility.yul\":15715:15731   */\n      swap1\n      pop\n        /* \"#utility.yul\":15660:15737   */\n      swap2\n      swap1\n      pop\n      jump\t// out\n        /* \"#utility.yul\":15743:15868   */\n    tag_312:\n        /* \"#utility.yul\":15798:15807   */\n      0x00\n        /* \"#utility.yul\":15831:15862   */\n      tag_423\n        /* \"#utility.yul\":15856:15861   */\n      dup3\n        /* \"#utility.yul\":15831:15862   */\n      tag_412\n      jump\t// in\n    tag_423:\n        /* \"#utility.yul\":15818:15862   */\n      swap1\n      pop\n        /* \"#utility.yul\":15743:15868   */\n      swap2\n      swap1\n      pop\n      jump\t// out\n        /* \"#utility.yul\":15874:16001   */\n    tag_316:\n        /* \"#utility.yul\":15930:15939   */\n      0x00\n        /* \"#utility.yul\":15963:15995   */\n      tag_425\n        /* \"#utility.yul\":15989:15994   */\n      dup3\n        /* \"#utility.yul\":15963:15995   */\n      tag_416\n      jump\t// in\n    tag_425:\n        /* \"#utility.yul\":15950:15995   */\n      swap1\n      pop\n        /* \"#utility.yul\":15874:16001   */\n      swap2\n      swap1\n      pop\n      jump\t// out\n        /* \"#utility.yul\":16007:16161   */\n    tag_223:\n        /* \"#utility.yul\":16091:16097   */\n      dup3\n        /* \"#utility.yul\":16086:16089   */\n      dup2\n        /* \"#utility.yul\":16081:16084   */\n      dup4\n        /* \"#utility.yul\":16068:16098   */\n      calldatacopy\n        /* \"#utility.yul\":16153:16154   */\n      0x00\n        /* \"#utility.yul\":16144:16150   */\n      dup4\n        /* \"#utility.yul\":16139:16142   */\n      dup4\n        /* \"#utility.yul\":16135:16151   */\n      add\n        /* \"#utility.yul\":16128:16155   */\n      mstore\n        /* \"#utility.yul\":16007:16161   */\n      pop\n      pop\n      pop\n      jump\t// out\n        /* \"#utility.yul\":16167:16474   */\n    tag_324:\n        /* \"#utility.yul\":16235:16236   */\n      0x00\n        /* \"#utility.yul\":16245:16358   */\n    tag_428:\n        /* \"#utility.yul\":16259:16265   */\n      dup4\n        /* \"#utility.yul\":16256:16257   */\n      dup2\n        /* \"#utility.yul\":16253:16266   */\n      lt\n        /* \"#utility.yul\":16245:16358   */\n      iszero\n      tag_430\n      jumpi\n        /* \"#utility.yul\":16344:16345   */\n      dup1\n        /* \"#utility.yul\":16339:16342   */\n      dup3\n        /* \"#utility.yul\":16335:16346   */\n      add\n        /* \"#utility.yul\":16329:16347   */\n      mload\n        /* \"#utility.yul\":16325:16326   */\n      dup2\n        /* \"#utility.yul\":16320:16323   */\n      dup5\n        /* \"#utility.yul\":16316:16327   */\n      add\n        /* \"#utility.yul\":16309:16348   */\n      mstore\n        /* \"#utility.yul\":16281:16283   */\n      0x20\n        /* \"#utility.yul\":16278:16279   */\n      dup2\n        /* \"#utility.yul\":16274:16284   */\n      add\n        /* \"#utility.yul\":16269:16284   */\n      swap1\n      pop\n        /* \"#utility.yul\":16245:16358   */\n      jump(tag_428)\n    tag_430:\n        /* \"#utility.yul\":16376:16382   */\n      dup4\n        /* \"#utility.yul\":16373:16374   */\n      dup2\n        /* \"#utility.yul\":16370:16383   */\n      gt\n        /* \"#utility.yul\":16367:16468   */\n      iszero\n      tag_431\n      jumpi\n        /* \"#utility.yul\":16456:16457   */\n      0x00\n        /* \"#utility.yul\":16447:16453   */\n      dup5\n        /* \"#utility.yul\":16442:16445   */\n      dup5\n        /* \"#utility.yul\":16438:16454   */\n      add\n        /* \"#utility.yul\":16431:16458   */\n      mstore\n        /* \"#utility.yul\":16367:16468   */\n    tag_431:\n        /* \"#utility.yul\":16216:16474   */\n      pop\n        /* \"#utility.yul\":16167:16474   */\n      pop\n      pop\n      pop\n      jump\t// out\n        /* \"#utility.yul\":16480:16800   */\n    tag_91:\n        /* \"#utility.yul\":16524:16530   */\n      0x00\n        /* \"#utility.yul\":16561:16562   */\n      0x02\n        /* \"#utility.yul\":16555:16559   */\n      dup3\n        /* \"#utility.yul\":16551:16563   */\n      div\n        /* \"#utility.yul\":16541:16563   */\n      swap1\n      pop\n        /* \"#utility.yul\":16608:16609   */\n      0x01\n        /* \"#utility.yul\":16602:16606   */\n      dup3\n        /* \"#utility.yul\":16598:16610   */\n      and\n        /* \"#utility.yul\":16629:16647   */\n      dup1\n        /* \"#utility.yul\":16619:16700   */\n      tag_433\n      jumpi\n        /* \"#utility.yul\":16685:16689   */\n      0x7f\n        /* \"#utility.yul\":16677:16683   */\n      dup3\n        /* \"#utility.yul\":16673:16690   */\n      and\n        /* \"#utility.yul\":16663:16690   */\n      swap2\n      pop\n        /* \"#utility.yul\":16619:16700   */\n    tag_433:\n        /* \"#utility.yul\":16747:16749   */\n      0x20\n        /* \"#utility.yul\":16739:16745   */\n      dup3\n        /* \"#utility.yul\":16736:16750   */\n      lt\n        /* \"#utility.yul\":16716:16734   */\n      dup2\n        /* \"#utility.yul\":16713:16751   */\n      eq\n        /* \"#utility.yul\":16710:16794   */\n      iszero\n      tag_434\n      jumpi\n        /* \"#utility.yul\":16766:16784   */\n      tag_435\n      tag_436\n      jump\t// in\n    tag_435:\n        /* \"#utility.yul\":16710:16794   */\n    tag_434:\n        /* \"#utility.yul\":16531:16800   */\n      pop\n        /* \"#utility.yul\":16480:16800   */\n      swap2\n      swap1\n      pop\n      jump\t// out\n        /* \"#utility.yul\":16806:17087   */\n    tag_380:\n        /* \"#utility.yul\":16889:16916   */\n      tag_438\n        /* \"#utility.yul\":16911:16915   */\n      dup3\n        /* \"#utility.yul\":16889:16916   */\n      tag_326\n      jump\t// in\n    tag_438:\n        /* \"#utility.yul\":16881:16887   */\n      dup2\n        /* \"#utility.yul\":16877:16917   */\n      add\n        /* \"#utility.yul\":17019:17025   */\n      dup2\n        /* \"#utility.yul\":17007:17017   */\n      dup2\n        /* \"#utility.yul\":17004:17026   */\n      lt\n        /* \"#utility.yul\":16983:17001   */\n      0xffffffffffffffff\n        /* \"#utility.yul\":16971:16981   */\n      dup3\n        /* \"#utility.yul\":16968:17002   */\n      gt\n        /* \"#utility.yul\":16965:17027   */\n      or\n        /* \"#utility.yul\":16962:17050   */\n      iszero\n      tag_439\n      jumpi\n        /* \"#utility.yul\":17030:17048   */\n      tag_440\n      tag_385\n      jump\t// in\n    tag_440:\n        /* \"#utility.yul\":16962:17050   */\n    tag_439:\n        /* \"#utility.yul\":17070:17080   */\n      dup1\n        /* \"#utility.yul\":17066:17068   */\n      0x40\n        /* \"#utility.yul\":17059:17081   */\n      mstore\n        /* \"#utility.yul\":16849:17087   */\n      pop\n        /* \"#utility.yul\":16806:17087   */\n      pop\n      pop\n      jump\t// out\n        /* \"#utility.yul\":17093:17273   */\n    tag_394:\n        /* \"#utility.yul\":17141:17218   */\n      0x4e487b7100000000000000000000000000000000000000000000000000000000\n        /* \"#utility.yul\":17138:17139   */\n      0x00\n        /* \"#utility.yul\":17131:17219   */\n      mstore\n        /* \"#utility.yul\":17238:17242   */\n      0x11\n        /* \"#utility.yul\":17235:17236   */\n      0x04\n        /* \"#utility.yul\":17228:17243   */\n      mstore\n        /* \"#utility.yul\":17262:17266   */\n      0x24\n        /* \"#utility.yul\":17259:17260   */\n      0x00\n        /* \"#utility.yul\":17252:17267   */\n      revert\n        /* \"#utility.yul\":17279:17459   */\n    tag_400:\n        /* \"#utility.yul\":17327:17404   */\n      0x4e487b7100000000000000000000000000000000000000000000000000000000\n        /* \"#utility.yul\":17324:17325   */\n      0x00\n        /* \"#utility.yul\":17317:17405   */\n      mstore\n        /* \"#utility.yul\":17424:17428   */\n      0x12\n        /* \"#utility.yul\":17421:17422   */\n      0x04\n        /* \"#utility.yul\":17414:17429   */\n      mstore\n        /* \"#utility.yul\":17448:17452   */\n      0x24\n        /* \"#utility.yul\":17445:17446   */\n      0x00\n        /* \"#utility.yul\":17438:17453   */\n      revert\n        /* \"#utility.yul\":17465:17645   */\n    tag_99:\n        /* \"#utility.yul\":17513:17590   */\n      0x4e487b7100000000000000000000000000000000000000000000000000000000\n        /* \"#utility.yul\":17510:17511   */\n      0x00\n        /* \"#utility.yul\":17503:17591   */\n      mstore\n        /* \"#utility.yul\":17610:17614   */\n      0x21\n        /* \"#utility.yul\":17607:17608   */\n      0x04\n        /* \"#utility.yul\":17600:17615   */\n      mstore\n        /* \"#utility.yul\":17634:17638   */\n      0x24\n        /* \"#utility.yul\":17631:17632   */\n      0x00\n        /* \"#utility.yul\":17624:17639   */\n      revert\n        /* \"#utility.yul\":17651:17831   */\n    tag_436:\n        /* \"#utility.yul\":17699:17776   */\n      0x4e487b7100000000000000000000000000000000000000000000000000000000\n        /* \"#utility.yul\":17696:17697   */\n      0x00\n        /* \"#utility.yul\":17689:17777   */\n      mstore\n        /* \"#utility.yul\":17796:17800   */\n      0x22\n        /* \"#utility.yul\":17793:17794   */\n      0x04\n        /* \"#utility.yul\":17786:17801   */\n      mstore\n        /* \"#utility.yul\":17820:17824   */\n      0x24\n        /* \"#utility.yul\":17817:17818   */\n      0x00\n        /* \"#utility.yul\":17810:17825   */\n      revert\n        /* \"#utility.yul\":17837:18017   */\n    tag_132:\n        /* \"#utility.yul\":17885:17962   */\n      0x4e487b7100000000000000000000000000000000000000000000000000000000\n        /* \"#utility.yul\":17882:17883   */\n      0x00\n        /* \"#utility.yul\":17875:17963   */\n      mstore\n        /* \"#utility.yul\":17982:17986   */\n      0x32\n        /* \"#utility.yul\":17979:17980   */\n      0x04\n        /* \"#utility.yul\":17972:17987   */\n      mstore\n        /* \"#utility.yul\":18006:18010   */\n      0x24\n        /* \"#utility.yul\":18003:18004   */\n      0x00\n        /* \"#utility.yul\":17996:18011   */\n      revert\n        /* \"#utility.yul\":18023:18203   */\n    tag_385:\n        /* \"#utility.yul\":18071:18148   */\n      0x4e487b7100000000000000000000000000000000000000000000000000000000\n        /* \"#utility.yul\":18068:18069   */\n      0x00\n        /* \"#utility.yul\":18061:18149   */\n      mstore\n        /* \"#utility.yul\":18168:18172   */\n      0x41\n        /* \"#utility.yul\":18165:18166   */\n      0x04\n        /* \"#utility.yul\":18158:18173   */\n      mstore\n        /* \"#utility.yul\":18192:18196   */\n      0x24\n        /* \"#utility.yul\":18189:18190   */\n      0x00\n        /* \"#utility.yul\":18182:18197   */\n      revert\n        /* \"#utility.yul\":18209:18326   */\n    tag_236:\n        /* \"#utility.yul\":18318:18319   */\n      0x00\n        /* \"#utility.yul\":18315:18316   */\n      dup1\n        /* \"#utility.yul\":18308:18320   */\n      revert\n        /* \"#utility.yul\":18332:18449   */\n    tag_221:\n        /* \"#utility.yul\":18441:18442   */\n      0x00\n        /* \"#utility.yul\":18438:18439   */\n      dup1\n        /* \"#utility.yul\":18431:18443   */\n      revert\n        /* \"#utility.yul\":18455:18572   */\n    tag_254:\n        /* \"#utility.yul\":18564:18565   */\n      0x00\n        /* \"#utility.yul\":18561:18562   */\n      dup1\n        /* \"#utility.yul\":18554:18566   */\n      revert\n        /* \"#utility.yul\":18578:18695   */\n    tag_245:\n        /* \"#utility.yul\":18687:18688   */\n      0x00\n        /* \"#utility.yul\":18684:18685   */\n      dup1\n        /* \"#utility.yul\":18677:18689   */\n      revert\n        /* \"#utility.yul\":18701:18803   */\n    tag_326:\n        /* \"#utility.yul\":18742:18748   */\n      0x00\n        /* \"#utility.yul\":18793:18795   */\n      0x1f\n        /* \"#utility.yul\":18789:18796   */\n      not\n        /* \"#utility.yul\":18784:18786   */\n      0x1f\n        /* \"#utility.yul\":18777:18782   */\n      dup4\n        /* \"#utility.yul\":18773:18787   */\n      add\n        /* \"#utility.yul\":18769:18797   */\n      and\n        /* \"#utility.yul\":18759:18797   */\n      swap1\n      pop\n        /* \"#utility.yul\":18701:18803   */\n      swap2\n      swap1\n      pop\n      jump\t// out\n        /* \"#utility.yul\":18809:18987   */\n    tag_331:\n        /* \"#utility.yul\":18949:18979   */\n      0x63616c6c6572206973206e6f742061206469737472696275746f722e00000000\n        /* \"#utility.yul\":18945:18946   */\n      0x00\n        /* \"#utility.yul\":18937:18943   */\n      dup3\n        /* \"#utility.yul\":18933:18947   */\n      add\n        /* \"#utility.yul\":18926:18980   */\n      mstore\n        /* \"#utility.yul\":18809:18987   */\n      pop\n      jump\t// out\n        /* \"#utility.yul\":18993:19168   */\n    tag_336:\n        /* \"#utility.yul\":19133:19160   */\n      0x63616c6c6572206973206e6f7420612070726f64756365722e00000000000000\n        /* \"#utility.yul\":19129:19130   */\n      0x00\n        /* \"#utility.yul\":19121:19127   */\n      dup3\n        /* \"#utility.yul\":19117:19131   */\n      add\n        /* \"#utility.yul\":19110:19161   */\n      mstore\n        /* \"#utility.yul\":18993:19168   */\n      pop\n      jump\t// out\n        /* \"#utility.yul\":19174:19354   */\n    tag_341:\n        /* \"#utility.yul\":19314:19346   */\n      0x63616c6c6572206973206e6f742074686520746f6b656e206f776e65722e0000\n        /* \"#utility.yul\":19310:19311   */\n      0x00\n        /* \"#utility.yul\":19302:19308   */\n      dup3\n        /* \"#utility.yul\":19298:19312   */\n      add\n        /* \"#utility.yul\":19291:19347   */\n      mstore\n        /* \"#utility.yul\":19174:19354   */\n      pop\n      jump\t// out\n        /* \"#utility.yul\":19360:19472   */\n    tag_415:\n        /* \"#utility.yul\":19440:19441   */\n      0x05\n        /* \"#utility.yul\":19433:19438   */\n      dup2\n        /* \"#utility.yul\":19430:19442   */\n      lt\n        /* \"#utility.yul\":19420:19466   */\n      tag_456\n      jumpi\n        /* \"#utility.yul\":19446:19464   */\n      tag_457\n      tag_99\n      jump\t// in\n    tag_457:\n        /* \"#utility.yul\":19420:19466   */\n    tag_456:\n        /* \"#utility.yul\":19360:19472   */\n      pop\n      jump\t// out\n        /* \"#utility.yul\":19478:19591   */\n    tag_419:\n        /* \"#utility.yul\":19559:19560   */\n      0x06\n        /* \"#utility.yul\":19552:19557   */\n      dup2\n        /* \"#utility.yul\":19549:19561   */\n      lt\n        /* \"#utility.yul\":19539:19585   */\n      tag_459\n      jumpi\n        /* \"#utility.yul\":19565:19583   */\n      tag_460\n      tag_99\n      jump\t// in\n    tag_460:\n        /* \"#utility.yul\":19539:19585   */\n    tag_459:\n        /* \"#utility.yul\":19478:19591   */\n      pop\n      jump\t// out\n        /* \"#utility.yul\":19597:19719   */\n    tag_227:\n        /* \"#utility.yul\":19670:19694   */\n      tag_462\n        /* \"#utility.yul\":19688:19693   */\n      dup2\n        /* \"#utility.yul\":19670:19694   */\n      tag_304\n      jump\t// in\n    tag_462:\n        /* \"#utility.yul\":19663:19668   */\n      dup2\n        /* \"#utility.yul\":19660:19695   */\n      eq\n        /* \"#utility.yul\":19650:19713   */\n      tag_463\n      jumpi\n        /* \"#utility.yul\":19709:19710   */\n      0x00\n        /* \"#utility.yul\":19706:19707   */\n      dup1\n        /* \"#utility.yul\":19699:19711   */\n      revert\n        /* \"#utility.yul\":19650:19713   */\n    tag_463:\n        /* \"#utility.yul\":19597:19719   */\n      pop\n      jump\t// out\n        /* \"#utility.yul\":19725:19831   */\n    tag_231:\n        /* \"#utility.yul\":19805:19806   */\n      0x05\n        /* \"#utility.yul\":19798:19803   */\n      dup2\n        /* \"#utility.yul\":19795:19807   */\n      lt\n        /* \"#utility.yul\":19785:19825   */\n      tag_465\n      jumpi\n        /* \"#utility.yul\":19821:19822   */\n      0x00\n        /* \"#utility.yul\":19818:19819   */\n      dup1\n        /* \"#utility.yul\":19811:19823   */\n      revert\n        /* \"#utility.yul\":19785:19825   */\n    tag_465:\n        /* \"#utility.yul\":19725:19831   */\n      pop\n      jump\t// out\n        /* \"#utility.yul\":19837:19959   */\n    tag_241:\n        /* \"#utility.yul\":19910:19934   */\n      tag_467\n        /* \"#utility.yul\":19928:19933   */\n      dup2\n        /* \"#utility.yul\":19910:19934   */\n      tag_345\n      jump\t// in\n    tag_467:\n        /* \"#utility.yul\":19903:19908   */\n      dup2\n        /* \"#utility.yul\":19900:19935   */\n      eq\n        /* \"#utility.yul\":19890:19953   */\n      tag_468\n      jumpi\n        /* \"#utility.yul\":19949:19950   */\n      0x00\n        /* \"#utility.yul\":19946:19947   */\n      dup1\n        /* \"#utility.yul\":19939:19951   */\n      revert\n        /* \"#utility.yul\":19890:19953   */\n    tag_468:\n        /* \"#utility.yul\":19837:19959   */\n      pop\n      jump\t// out\n\n    auxdata: 0xa2646970667358221220af98b906daf9426b2e537dfcee98df007b55a18f1041f00f3007adf0e79d9da364736f6c63430008070033\n}\n",
				"bytecode": {
					"linkReferences": {},
					"object": "60806040523480156200001157600080fd5b50604051620024fc380380620024fc833981810160405281019062000037919062000243565b82600090805190602001906200004f929190620000fe565b50816001908051906020019062000068929190620000fe565b508060038190555033600260006101000a81548173ffffffffffffffffffffffffffffffffffffffff021916908373ffffffffffffffffffffffffffffffffffffffff16021790555080600460003373ffffffffffffffffffffffffffffffffffffffff1673ffffffffffffffffffffffffffffffffffffffff1681526020019081526020016000208190555050505062000485565b8280546200010c906200037c565b90600052602060002090601f0160209004810192826200013057600085556200017c565b82601f106200014b57805160ff19168380011785556200017c565b828001600101855582156200017c579182015b828111156200017b5782518255916020019190600101906200015e565b5b5090506200018b91906200018f565b5090565b5b80821115620001aa57600081600090555060010162000190565b5090565b6000620001c5620001bf8462000306565b620002dd565b905082815260208101848484011115620001e457620001e36200044b565b5b620001f184828562000346565b509392505050565b600082601f83011262000211576200021062000446565b5b815162000223848260208601620001ae565b91505092915050565b6000815190506200023d816200046b565b92915050565b6000806000606084860312156200025f576200025e62000455565b5b600084015167ffffffffffffffff81111562000280576200027f62000450565b5b6200028e86828701620001f9565b935050602084015167ffffffffffffffff811115620002b257620002b162000450565b5b620002c086828701620001f9565b9250506040620002d3868287016200022c565b9150509250925092565b6000620002e9620002fc565b9050620002f78282620003b2565b919050565b6000604051905090565b600067ffffffffffffffff82111562000324576200032362000417565b5b6200032f826200045a565b9050602081019050919050565b6000819050919050565b60005b838110156200036657808201518184015260208101905062000349565b8381111562000376576000848401525b50505050565b600060028204905060018216806200039557607f821691505b60208210811415620003ac57620003ab620003e8565b5b50919050565b620003bd826200045a565b810181811067ffffffffffffffff82111715620003df57620003de62000417565b5b80604052505050565b7f4e487b7100000000000000000000000000000000000000000000000000000000600052602260045260246000fd5b7f4e487b7100000000000000000000000000000000000000000000000000000000600052604160045260246000fd5b600080fd5b600080fd5b600080fd5b600080fd5b6000601f19601f8301169050919050565b62000476816200033c565b81146200048257600080fd5b50565b61206780620004956000396000f3fe6080604052600436106100dd5760003560e01c8063a0712d681161007f578063b292abf111610059578063b292abf114610277578063cd0c5896146102b5578063d2c351b4146102f2578063eedc966a1461033a576100dd565b8063a0712d6814610219578063a3e6761014610242578063a48217191461026d576100dd565b8063561e0e98116100bb578063561e0e981461015f57806368cdafe61461018857806395d89b41146101c55780639dc29fac146101f0576100dd565b806306fdde03146100e257806340932fc21461010d57806353b6286614610136575b600080fd5b3480156100ee57600080fd5b506100f7610377565b6040516101049190611a28565b60405180910390f35b34801561011957600080fd5b50610134600480360381019061012f9190611607565b610405565b005b34801561014257600080fd5b5061015d600480360381019061015891906116e3565b61063b565b005b34801561016b57600080fd5b5061018660048036038101906101819190611723565b610902565b005b34801561019457600080fd5b506101af60048036038101906101aa9190611676565b610c4e565b6040516101bc91906119dd565b60405180910390f35b3480156101d157600080fd5b506101da610d8c565b6040516101e79190611a28565b60405180910390f35b3480156101fc57600080fd5b5061021760048036038101906102129190611676565b610e1a565b005b34801561022557600080fd5b50610240600480360381019061023b91906116b6565b610fa3565b005b34801561024e57600080fd5b506102576110a5565b60405161026491906119c2565b60405180910390f35b6102756110cb565b005b34801561028357600080fd5b5061029e600480360381019061029991906115da565b611223565b6040516102ac9291906119f8565b60405180910390f35b3480156102c157600080fd5b506102dc60048036038101906102d791906115da565b61134b565b6040516102e99190611aaa565b60405180910390f35b3480156102fe57600080fd5b50610319600480360381019061031491906116e3565b61136c565b6040516103319c9b9a99989796959493929190611ac5565b60405180910390f35b34801561034657600080fd5b50610361600480360381019061035c91906115da565b61143f565b60405161036e9190611aaa565b60405180910390f35b6000805461038490611dae565b80601f01602080910402602001604051908101604052809291908181526020018280546103b090611dae565b80156103fd5780601f106103d2576101008083540402835291602001916103fd565b820191906000526020600020905b8154815290600101906020018083116103e057829003601f168201915b505050505081565b6000600560008573ffffffffffffffffffffffffffffffffffffffff1673ffffffffffffffffffffffffffffffffffffffff1681526020019081526020016000206040518060600160405290816000820160009054906101000a900460ff16600481111561047657610475611e6f565b5b600481111561048857610487611e6f565b5b815260200160018201805461049c90611dae565b80601f01602080910402602001604051908101604052809291908181526020018280546104c890611dae565b80156105155780601f106104ea57610100808354040283529160200191610515565b820191906000526020600020905b8154815290600101906020018083116104f857829003601f168201915b505050505081526020016002820160009054906101000a900460ff1615151515815250509050828160000190600481111561055357610552611e6f565b5b9081600481111561056757610566611e6f565b5b81525050818160200181905250600181604001901515908115158152505080600560008673ffffffffffffffffffffffffffffffffffffffff1673ffffffffffffffffffffffffffffffffffffffff16815260200190815260200160002060008201518160000160006101000a81548160ff021916908360048111156105f0576105ef611e6f565b5b02179055506020820151816001019080519060200190610611929190611488565b5060408201518160020160006101000a81548160ff02191690831515021790555090505050505050565b6001600481111561064f5761064e611e6f565b5b600560003373ffffffffffffffffffffffffffffffffffffffff1673ffffffffffffffffffffffffffffffffffffffff16815260200190815260200160002060000160009054906101000a900460ff1660048111156106b1576106b0611e6f565b5b146106f1576040517f08c379a00000000000000000000000000000000000000000000000000000000081526004016106e890611a4a565b60405180910390fd5b60006006600084815260200190815260200160002090506000600460003373ffffffffffffffffffffffffffffffffffffffff1673ffffffffffffffffffffffffffffffffffffffff16815260200190815260200160002054905081600a015481101561075d57600080fd5b6001600581111561077157610770611e6f565b5b8260090160009054906101000a900460ff16600581111561079557610794611e6f565b5b1461079f57600080fd5b82600660008681526020019081526020016000206003016001600681106107c9576107c8611ecd565b5b01819055503360066000868152602001908152602001600020600b0160006101000a81548173ffffffffffffffffffffffffffffffffffffffff021916908373ffffffffffffffffffffffffffffffffffffffff1602179055506108676006600086815260200190815260200160002060010160009054906101000a900473ffffffffffffffffffffffffffffffffffffffff1683600a0154610c4e565b5060056006600086815260200190815260200160002060090160006101000a81548160ff021916908360058111156108a2576108a1611e6f565b5b0217905550336006600086815260200190815260200160002060010160006101000a81548173ffffffffffffffffffffffffffffffffffffffff021916908373ffffffffffffffffffffffffffffffffffffffff16021790555050505050565b6000600481111561091657610915611e6f565b5b600560003373ffffffffffffffffffffffffffffffffffffffff1673ffffffffffffffffffffffffffffffffffffffff16815260200190815260200160002060000160009054906101000a900460ff16600481111561097857610977611e6f565b5b146109b8576040517f08c379a00000000000000000000000000000000000000000000000000000000081526004016109af90611a6a565b60405180910390fd5b6000600660008c815260200190815260200160002090508a8160000181905550338160010160006101000a81548173ffffffffffffffffffffffffffffffffffffffff021916908373ffffffffffffffffffffffffffffffffffffffff160217905550338160020160006101000a81548173ffffffffffffffffffffffffffffffffffffffff021916908373ffffffffffffffffffffffffffffffffffffffff1602179055508981600301600060068110610a7657610a75611ecd565b5b018190555060018160090160006101000a81548160ff02191690836005811115610aa357610aa2611e6f565b5b02179055508881600a0181905550600081600b0160006101000a81548173ffffffffffffffffffffffffffffffffffffffff021916908373ffffffffffffffffffffffffffffffffffffffff160217905550600081600c0160006101000a81548173ffffffffffffffffffffffffffffffffffffffff021916908373ffffffffffffffffffffffffffffffffffffffff160217905550600081600d0160006101000a81548173ffffffffffffffffffffffffffffffffffffffff021916908373ffffffffffffffffffffffffffffffffffffffff1602179055508781600e016000019080519060200190610b98929190611488565b508681600e016001019080519060200190610bb4929190611488565b508581600e016002019080519060200190610bd0929190611488565b508481600e016003019080519060200190610bec929190611488565b508381600e016004019080519060200190610c08929190611488565b508281600e016005019080519060200190610c24929190611488565b508181600e016006019080519060200190610c40929190611488565b505050505050505050505050565b600081600460003373ffffffffffffffffffffffffffffffffffffffff1673ffffffffffffffffffffffffffffffffffffffff168152602001908152602001600020541015610c9c57600080fd5b600073ffffffffffffffffffffffffffffffffffffffff168373ffffffffffffffffffffffffffffffffffffffff161415610cd657600080fd5b81600460003373ffffffffffffffffffffffffffffffffffffffff1673ffffffffffffffffffffffffffffffffffffffff1681526020019081526020016000206000828254610d259190611c94565b9250508190555081600460008573ffffffffffffffffffffffffffffffffffffffff1673ffffffffffffffffffffffffffffffffffffffff1681526020019081526020016000206000828254610d7b9190611c0d565b925050819055506001905092915050565b60018054610d9990611dae565b80601f0160208091040260200160405190810160405280929190818152602001828054610dc590611dae565b8015610e125780601f10610de757610100808354040283529160200191610e12565b820191906000526020600020905b815481529060010190602001808311610df557829003601f168201915b505050505081565b600260009054906101000a900473ffffffffffffffffffffffffffffffffffffffff1673ffffffffffffffffffffffffffffffffffffffff163373ffffffffffffffffffffffffffffffffffffffff1614610eaa576040517f08c379a0000000000000000000000000000000000000000000000000000000008152600401610ea190611a8a565b60405180910390fd5b600073ffffffffffffffffffffffffffffffffffffffff168273ffffffffffffffffffffffffffffffffffffffff161415610ee457600080fd5b600460008373ffffffffffffffffffffffffffffffffffffffff1673ffffffffffffffffffffffffffffffffffffffff16815260200190815260200160002054811115610f3057600080fd5b8060036000828254610f429190611c94565b9250508190555080600460008473ffffffffffffffffffffffffffffffffffffffff1673ffffffffffffffffffffffffffffffffffffffff1681526020019081526020016000206000828254610f989190611c94565b925050819055505050565b600260009054906101000a900473ffffffffffffffffffffffffffffffffffffffff1673ffffffffffffffffffffffffffffffffffffffff163373ffffffffffffffffffffffffffffffffffffffff1614611033576040517f08c379a000000000000000000000000000000000000000000000000000000000815260040161102a90611a8a565b60405180910390fd5b80600360008282546110459190611c0d565b9250508190555080600460003373ffffffffffffffffffffffffffffffffffffffff1673ffffffffffffffffffffffffffffffffffffffff168152602001908152602001600020600082825461109b9190611c0d565b9250508190555050565b600260009054906101000a900473ffffffffffffffffffffffffffffffffffffffff1681565b60006064346110da9190611c63565b9050600034116110e957600080fd5b600260009054906101000a900473ffffffffffffffffffffffffffffffffffffffff1673ffffffffffffffffffffffffffffffffffffffff166108fc349081150290604051600060405180830381858888f19350505050158015611151573d6000803e3d6000fd5b508060046000600260009054906101000a900473ffffffffffffffffffffffffffffffffffffffff1673ffffffffffffffffffffffffffffffffffffffff1673ffffffffffffffffffffffffffffffffffffffff16815260200190815260200160002060008282546111c39190611c94565b9250508190555080600460003373ffffffffffffffffffffffffffffffffffffffff1673ffffffffffffffffffffffffffffffffffffffff16815260200190815260200160002060008282546112199190611c0d565b9250508190555050565b60006060600560008473ffffffffffffffffffffffffffffffffffffffff1673ffffffffffffffffffffffffffffffffffffffff16815260200190815260200160002060000160009054906101000a900460ff169150600560008473ffffffffffffffffffffffffffffffffffffffff1673ffffffffffffffffffffffffffffffffffffffff16815260200190815260200160002060010180546112c690611dae565b80601f01602080910402602001604051908101604052809291908181526020018280546112f290611dae565b801561133f5780601f106113145761010080835404028352916020019161133f565b820191906000526020600020905b81548152906001019060200180831161132257829003601f168201915b50505050509050915091565b60008173ffffffffffffffffffffffffffffffffffffffff16319050919050565b600080600080600080600080606080606080600660008f8152602001908152602001600020600001549b50600660008f815260200190815260200160002060020160009054906101000a900473ffffffffffffffffffffffffffffffffffffffff169a50600660008f815260200190815260200160002060010160009054906101000a900473ffffffffffffffffffffffffffffffffffffffff169950600660008f815260200190815260200160002060090160009054906101000a900460ff1698509295989b509295989b509295989b565b6000600460008373ffffffffffffffffffffffffffffffffffffffff1673ffffffffffffffffffffffffffffffffffffffff168152602001908152602001600020549050919050565b82805461149490611dae565b90600052602060002090601f0160209004810192826114b657600085556114fd565b82601f106114cf57805160ff19168380011785556114fd565b828001600101855582156114fd579182015b828111156114fc5782518255916020019190600101906114e1565b5b50905061150a919061150e565b5090565b5b8082111561152757600081600090555060010161150f565b5090565b600061153e61153984611bc0565b611b9b565b90508281526020810184848401111561155a57611559611f30565b5b611565848285611d6c565b509392505050565b60008135905061157c81611ff3565b92915050565b6000813590506115918161200a565b92915050565b600082601f8301126115ac576115ab611f2b565b5b81356115bc84826020860161152b565b91505092915050565b6000813590506115d48161201a565b92915050565b6000602082840312156115f0576115ef611f3a565b5b60006115fe8482850161156d565b91505092915050565b6000806000606084860312156116205761161f611f3a565b5b600061162e8682870161156d565b935050602061163f86828701611582565b925050604084013567ffffffffffffffff8111156116605761165f611f35565b5b61166c86828701611597565b9150509250925092565b6000806040838503121561168d5761168c611f3a565b5b600061169b8582860161156d565b92505060206116ac858286016115c5565b9150509250929050565b6000602082840312156116cc576116cb611f3a565b5b60006116da848285016115c5565b91505092915050565b600080604083850312156116fa576116f9611f3a565b5b6000611708858286016115c5565b9250506020611719858286016115c5565b9150509250929050565b6000806000806000806000806000806101408b8d03121561174757611746611f3a565b5b60006117558d828e016115c5565b9a505060206117668d828e016115c5565b99505060406117778d828e016115c5565b98505060608b013567ffffffffffffffff81111561179857611797611f35565b5b6117a48d828e01611597565b97505060808b013567ffffffffffffffff8111156117c5576117c4611f35565b5b6117d18d828e01611597565b96505060a08b013567ffffffffffffffff8111156117f2576117f1611f35565b5b6117fe8d828e01611597565b95505060c08b013567ffffffffffffffff81111561181f5761181e611f35565b5b61182b8d828e01611597565b94505060e08b013567ffffffffffffffff81111561184c5761184b611f35565b5b6118588d828e01611597565b9350506101008b013567ffffffffffffffff81111561187a57611879611f35565b5b6118868d828e01611597565b9250506101208b013567ffffffffffffffff8111156118a8576118a7611f35565b5b6118b48d828e01611597565b9150509295989b9194979a5092959850565b6118cf81611cda565b82525050565b6118de81611cc8565b82525050565b6118ed81611cec565b82525050565b6118fc81611d48565b82525050565b61190b81611d5a565b82525050565b600061191c82611bf1565b6119268185611bfc565b9350611936818560208601611d7b565b61193f81611f3f565b840191505092915050565b6000611957601c83611bfc565b915061196282611f50565b602082019050919050565b600061197a601983611bfc565b915061198582611f79565b602082019050919050565b600061199d601e83611bfc565b91506119a882611fa2565b602082019050919050565b6119bc81611d3e565b82525050565b60006020820190506119d760008301846118c6565b92915050565b60006020820190506119f260008301846118e4565b92915050565b6000604082019050611a0d60008301856118f3565b8181036020830152611a1f8184611911565b90509392505050565b60006020820190508181036000830152611a428184611911565b905092915050565b60006020820190508181036000830152611a638161194a565b9050919050565b60006020820190508181036000830152611a838161196d565b9050919050565b60006020820190508181036000830152611aa381611990565b9050919050565b6000602082019050611abf60008301846119b3565b92915050565b600061018082019050611adb600083018f6119b3565b611ae8602083018e6118d5565b611af5604083018d6118d5565b611b02606083018c611902565b611b0f608083018b6119b3565b611b1c60a083018a6118d5565b611b2960c08301896118d5565b611b3660e08301886118d5565b818103610100830152611b498187611911565b9050818103610120830152611b5e8186611911565b9050818103610140830152611b738185611911565b9050818103610160830152611b888184611911565b90509d9c50505050505050505050505050565b6000611ba5611bb6565b9050611bb18282611de0565b919050565b6000604051905090565b600067ffffffffffffffff821115611bdb57611bda611efc565b5b611be482611f3f565b9050602081019050919050565b600081519050919050565b600082825260208201905092915050565b6000611c1882611d3e565b9150611c2383611d3e565b9250827fffffffffffffffffffffffffffffffffffffffffffffffffffffffffffffffff03821115611c5857611c57611e11565b5b828201905092915050565b6000611c6e82611d3e565b9150611c7983611d3e565b925082611c8957611c88611e40565b5b828204905092915050565b6000611c9f82611d3e565b9150611caa83611d3e565b925082821015611cbd57611cbc611e11565b5b828203905092915050565b6000611cd382611d1e565b9050919050565b6000611ce582611d1e565b9050919050565b60008115159050919050565b6000819050611d0682611fcb565b919050565b6000819050611d1982611fdf565b919050565b600073ffffffffffffffffffffffffffffffffffffffff82169050919050565b6000819050919050565b6000611d5382611cf8565b9050919050565b6000611d6582611d0b565b9050919050565b82818337600083830152505050565b60005b83811015611d99578082015181840152602081019050611d7e565b83811115611da8576000848401525b50505050565b60006002820490506001821680611dc657607f821691505b60208210811415611dda57611dd9611e9e565b5b50919050565b611de982611f3f565b810181811067ffffffffffffffff82111715611e0857611e07611efc565b5b80604052505050565b7f4e487b7100000000000000000000000000000000000000000000000000000000600052601160045260246000fd5b7f4e487b7100000000000000000000000000000000000000000000000000000000600052601260045260246000fd5b7f4e487b7100000000000000000000000000000000000000000000000000000000600052602160045260246000fd5b7f4e487b7100000000000000000000000000000000000000000000000000000000600052602260045260246000fd5b7f4e487b7100000000000000000000000000000000000000000000000000000000600052603260045260246000fd5b7f4e487b7100000000000000000000000000000000000000000000000000000000600052604160045260246000fd5b600080fd5b600080fd5b600080fd5b600080fd5b6000601f19601f8301169050919050565b7f63616c6c6572206973206e6f742061206469737472696275746f722e00000000600082015250565b7f63616c6c6572206973206e6f7420612070726f64756365722e00000000000000600082015250565b7f63616c6c6572206973206e6f742074686520746f6b656e206f776e65722e0000600082015250565b60058110611fdc57611fdb611e6f565b5b50565b60068110611ff057611fef611e6f565b5b50565b611ffc81611cc8565b811461200757600080fd5b50565b6005811061201757600080fd5b50565b61202381611d3e565b811461202e57600080fd5b5056fea2646970667358221220af98b906daf9426b2e537dfcee98df007b55a18f1041f00f3007adf0e79d9da364736f6c63430008070033",
					"opcodes": "PUSH1 0x80 PUSH1 0x40 MSTORE CALLVALUE DUP1 ISZERO PUSH3 0x11 JUMPI PUSH1 0x0 DUP1 REVERT JUMPDEST POP PUSH1 0x40 MLOAD PUSH3 0x24FC CODESIZE SUB DUP1 PUSH3 0x24FC DUP4 CODECOPY DUP2 DUP2 ADD PUSH1 0x40 MSTORE DUP2 ADD SWAP1 PUSH3 0x37 SWAP2 SWAP1 PUSH3 0x243 JUMP JUMPDEST DUP3 PUSH1 0x0 SWAP1 DUP1 MLOAD SWAP1 PUSH1 0x20 ADD SWAP1 PUSH3 0x4F SWAP3 SWAP2 SWAP1 PUSH3 0xFE JUMP JUMPDEST POP DUP2 PUSH1 0x1 SWAP1 DUP1 MLOAD SWAP1 PUSH1 0x20 ADD SWAP1 PUSH3 0x68 SWAP3 SWAP2 SWAP1 PUSH3 0xFE JUMP JUMPDEST POP DUP1 PUSH1 0x3 DUP2 SWAP1 SSTORE POP CALLER PUSH1 0x2 PUSH1 0x0 PUSH2 0x100 EXP DUP2 SLOAD DUP2 PUSH20 0xFFFFFFFFFFFFFFFFFFFFFFFFFFFFFFFFFFFFFFFF MUL NOT AND SWAP1 DUP4 PUSH20 0xFFFFFFFFFFFFFFFFFFFFFFFFFFFFFFFFFFFFFFFF AND MUL OR SWAP1 SSTORE POP DUP1 PUSH1 0x4 PUSH1 0x0 CALLER PUSH20 0xFFFFFFFFFFFFFFFFFFFFFFFFFFFFFFFFFFFFFFFF AND PUSH20 0xFFFFFFFFFFFFFFFFFFFFFFFFFFFFFFFFFFFFFFFF AND DUP2 MSTORE PUSH1 0x20 ADD SWAP1 DUP2 MSTORE PUSH1 0x20 ADD PUSH1 0x0 KECCAK256 DUP2 SWAP1 SSTORE POP POP POP POP PUSH3 0x485 JUMP JUMPDEST DUP3 DUP1 SLOAD PUSH3 0x10C SWAP1 PUSH3 0x37C JUMP JUMPDEST SWAP1 PUSH1 0x0 MSTORE PUSH1 0x20 PUSH1 0x0 KECCAK256 SWAP1 PUSH1 0x1F ADD PUSH1 0x20 SWAP1 DIV DUP2 ADD SWAP3 DUP3 PUSH3 0x130 JUMPI PUSH1 0x0 DUP6 SSTORE PUSH3 0x17C JUMP JUMPDEST DUP3 PUSH1 0x1F LT PUSH3 0x14B JUMPI DUP1 MLOAD PUSH1 0xFF NOT AND DUP4 DUP1 ADD OR DUP6 SSTORE PUSH3 0x17C JUMP JUMPDEST DUP3 DUP1 ADD PUSH1 0x1 ADD DUP6 SSTORE DUP3 ISZERO PUSH3 0x17C JUMPI SWAP2 DUP3 ADD JUMPDEST DUP3 DUP2 GT ISZERO PUSH3 0x17B JUMPI DUP3 MLOAD DUP3 SSTORE SWAP2 PUSH1 0x20 ADD SWAP2 SWAP1 PUSH1 0x1 ADD SWAP1 PUSH3 0x15E JUMP JUMPDEST JUMPDEST POP SWAP1 POP PUSH3 0x18B SWAP2 SWAP1 PUSH3 0x18F JUMP JUMPDEST POP SWAP1 JUMP JUMPDEST JUMPDEST DUP1 DUP3 GT ISZERO PUSH3 0x1AA JUMPI PUSH1 0x0 DUP2 PUSH1 0x0 SWAP1 SSTORE POP PUSH1 0x1 ADD PUSH3 0x190 JUMP JUMPDEST POP SWAP1 JUMP JUMPDEST PUSH1 0x0 PUSH3 0x1C5 PUSH3 0x1BF DUP5 PUSH3 0x306 JUMP JUMPDEST PUSH3 0x2DD JUMP JUMPDEST SWAP1 POP DUP3 DUP2 MSTORE PUSH1 0x20 DUP2 ADD DUP5 DUP5 DUP5 ADD GT ISZERO PUSH3 0x1E4 JUMPI PUSH3 0x1E3 PUSH3 0x44B JUMP JUMPDEST JUMPDEST PUSH3 0x1F1 DUP5 DUP3 DUP6 PUSH3 0x346 JUMP JUMPDEST POP SWAP4 SWAP3 POP POP POP JUMP JUMPDEST PUSH1 0x0 DUP3 PUSH1 0x1F DUP4 ADD SLT PUSH3 0x211 JUMPI PUSH3 0x210 PUSH3 0x446 JUMP JUMPDEST JUMPDEST DUP2 MLOAD PUSH3 0x223 DUP5 DUP3 PUSH1 0x20 DUP7 ADD PUSH3 0x1AE JUMP JUMPDEST SWAP2 POP POP SWAP3 SWAP2 POP POP JUMP JUMPDEST PUSH1 0x0 DUP2 MLOAD SWAP1 POP PUSH3 0x23D DUP2 PUSH3 0x46B JUMP JUMPDEST SWAP3 SWAP2 POP POP JUMP JUMPDEST PUSH1 0x0 DUP1 PUSH1 0x0 PUSH1 0x60 DUP5 DUP7 SUB SLT ISZERO PUSH3 0x25F JUMPI PUSH3 0x25E PUSH3 0x455 JUMP JUMPDEST JUMPDEST PUSH1 0x0 DUP5 ADD MLOAD PUSH8 0xFFFFFFFFFFFFFFFF DUP2 GT ISZERO PUSH3 0x280 JUMPI PUSH3 0x27F PUSH3 0x450 JUMP JUMPDEST JUMPDEST PUSH3 0x28E DUP7 DUP3 DUP8 ADD PUSH3 0x1F9 JUMP JUMPDEST SWAP4 POP POP PUSH1 0x20 DUP5 ADD MLOAD PUSH8 0xFFFFFFFFFFFFFFFF DUP2 GT ISZERO PUSH3 0x2B2 JUMPI PUSH3 0x2B1 PUSH3 0x450 JUMP JUMPDEST JUMPDEST PUSH3 0x2C0 DUP7 DUP3 DUP8 ADD PUSH3 0x1F9 JUMP JUMPDEST SWAP3 POP POP PUSH1 0x40 PUSH3 0x2D3 DUP7 DUP3 DUP8 ADD PUSH3 0x22C JUMP JUMPDEST SWAP2 POP POP SWAP3 POP SWAP3 POP SWAP3 JUMP JUMPDEST PUSH1 0x0 PUSH3 0x2E9 PUSH3 0x2FC JUMP JUMPDEST SWAP1 POP PUSH3 0x2F7 DUP3 DUP3 PUSH3 0x3B2 JUMP JUMPDEST SWAP2 SWAP1 POP JUMP JUMPDEST PUSH1 0x0 PUSH1 0x40 MLOAD SWAP1 POP SWAP1 JUMP JUMPDEST PUSH1 0x0 PUSH8 0xFFFFFFFFFFFFFFFF DUP3 GT ISZERO PUSH3 0x324 JUMPI PUSH3 0x323 PUSH3 0x417 JUMP JUMPDEST JUMPDEST PUSH3 0x32F DUP3 PUSH3 0x45A JUMP JUMPDEST SWAP1 POP PUSH1 0x20 DUP2 ADD SWAP1 POP SWAP2 SWAP1 POP JUMP JUMPDEST PUSH1 0x0 DUP2 SWAP1 POP SWAP2 SWAP1 POP JUMP JUMPDEST PUSH1 0x0 JUMPDEST DUP4 DUP2 LT ISZERO PUSH3 0x366 JUMPI DUP1 DUP3 ADD MLOAD DUP2 DUP5 ADD MSTORE PUSH1 0x20 DUP2 ADD SWAP1 POP PUSH3 0x349 JUMP JUMPDEST DUP4 DUP2 GT ISZERO PUSH3 0x376 JUMPI PUSH1 0x0 DUP5 DUP5 ADD MSTORE JUMPDEST POP POP POP POP JUMP JUMPDEST PUSH1 0x0 PUSH1 0x2 DUP3 DIV SWAP1 POP PUSH1 0x1 DUP3 AND DUP1 PUSH3 0x395 JUMPI PUSH1 0x7F DUP3 AND SWAP2 POP JUMPDEST PUSH1 0x20 DUP3 LT DUP2 EQ ISZERO PUSH3 0x3AC JUMPI PUSH3 0x3AB PUSH3 0x3E8 JUMP JUMPDEST JUMPDEST POP SWAP2 SWAP1 POP JUMP JUMPDEST PUSH3 0x3BD DUP3 PUSH3 0x45A JUMP JUMPDEST DUP2 ADD DUP2 DUP2 LT PUSH8 0xFFFFFFFFFFFFFFFF DUP3 GT OR ISZERO PUSH3 0x3DF JUMPI PUSH3 0x3DE PUSH3 0x417 JUMP JUMPDEST JUMPDEST DUP1 PUSH1 0x40 MSTORE POP POP POP JUMP JUMPDEST PUSH32 0x4E487B7100000000000000000000000000000000000000000000000000000000 PUSH1 0x0 MSTORE PUSH1 0x22 PUSH1 0x4 MSTORE PUSH1 0x24 PUSH1 0x0 REVERT JUMPDEST PUSH32 0x4E487B7100000000000000000000000000000000000000000000000000000000 PUSH1 0x0 MSTORE PUSH1 0x41 PUSH1 0x4 MSTORE PUSH1 0x24 PUSH1 0x0 REVERT JUMPDEST PUSH1 0x0 DUP1 REVERT JUMPDEST PUSH1 0x0 DUP1 REVERT JUMPDEST PUSH1 0x0 DUP1 REVERT JUMPDEST PUSH1 0x0 DUP1 REVERT JUMPDEST PUSH1 0x0 PUSH1 0x1F NOT PUSH1 0x1F DUP4 ADD AND SWAP1 POP SWAP2 SWAP1 POP JUMP JUMPDEST PUSH3 0x476 DUP2 PUSH3 0x33C JUMP JUMPDEST DUP2 EQ PUSH3 0x482 JUMPI PUSH1 0x0 DUP1 REVERT JUMPDEST POP JUMP JUMPDEST PUSH2 0x2067 DUP1 PUSH3 0x495 PUSH1 0x0 CODECOPY PUSH1 0x0 RETURN INVALID PUSH1 0x80 PUSH1 0x40 MSTORE PUSH1 0x4 CALLDATASIZE LT PUSH2 0xDD JUMPI PUSH1 0x0 CALLDATALOAD PUSH1 0xE0 SHR DUP1 PUSH4 0xA0712D68 GT PUSH2 0x7F JUMPI DUP1 PUSH4 0xB292ABF1 GT PUSH2 0x59 JUMPI DUP1 PUSH4 0xB292ABF1 EQ PUSH2 0x277 JUMPI DUP1 PUSH4 0xCD0C5896 EQ PUSH2 0x2B5 JUMPI DUP1 PUSH4 0xD2C351B4 EQ PUSH2 0x2F2 JUMPI DUP1 PUSH4 0xEEDC966A EQ PUSH2 0x33A JUMPI PUSH2 0xDD JUMP JUMPDEST DUP1 PUSH4 0xA0712D68 EQ PUSH2 0x219 JUMPI DUP1 PUSH4 0xA3E67610 EQ PUSH2 0x242 JUMPI DUP1 PUSH4 0xA4821719 EQ PUSH2 0x26D JUMPI PUSH2 0xDD JUMP JUMPDEST DUP1 PUSH4 0x561E0E98 GT PUSH2 0xBB JUMPI DUP1 PUSH4 0x561E0E98 EQ PUSH2 0x15F JUMPI DUP1 PUSH4 0x68CDAFE6 EQ PUSH2 0x188 JUMPI DUP1 PUSH4 0x95D89B41 EQ PUSH2 0x1C5 JUMPI DUP1 PUSH4 0x9DC29FAC EQ PUSH2 0x1F0 JUMPI PUSH2 0xDD JUMP JUMPDEST DUP1 PUSH4 0x6FDDE03 EQ PUSH2 0xE2 JUMPI DUP1 PUSH4 0x40932FC2 EQ PUSH2 0x10D JUMPI DUP1 PUSH4 0x53B62866 EQ PUSH2 0x136 JUMPI JUMPDEST PUSH1 0x0 DUP1 REVERT JUMPDEST CALLVALUE DUP1 ISZERO PUSH2 0xEE JUMPI PUSH1 0x0 DUP1 REVERT JUMPDEST POP PUSH2 0xF7 PUSH2 0x377 JUMP JUMPDEST PUSH1 0x40 MLOAD PUSH2 0x104 SWAP2 SWAP1 PUSH2 0x1A28 JUMP JUMPDEST PUSH1 0x40 MLOAD DUP1 SWAP2 SUB SWAP1 RETURN JUMPDEST CALLVALUE DUP1 ISZERO PUSH2 0x119 JUMPI PUSH1 0x0 DUP1 REVERT JUMPDEST POP PUSH2 0x134 PUSH1 0x4 DUP1 CALLDATASIZE SUB DUP2 ADD SWAP1 PUSH2 0x12F SWAP2 SWAP1 PUSH2 0x1607 JUMP JUMPDEST PUSH2 0x405 JUMP JUMPDEST STOP JUMPDEST CALLVALUE DUP1 ISZERO PUSH2 0x142 JUMPI PUSH1 0x0 DUP1 REVERT JUMPDEST POP PUSH2 0x15D PUSH1 0x4 DUP1 CALLDATASIZE SUB DUP2 ADD SWAP1 PUSH2 0x158 SWAP2 SWAP1 PUSH2 0x16E3 JUMP JUMPDEST PUSH2 0x63B JUMP JUMPDEST STOP JUMPDEST CALLVALUE DUP1 ISZERO PUSH2 0x16B JUMPI PUSH1 0x0 DUP1 REVERT JUMPDEST POP PUSH2 0x186 PUSH1 0x4 DUP1 CALLDATASIZE SUB DUP2 ADD SWAP1 PUSH2 0x181 SWAP2 SWAP1 PUSH2 0x1723 JUMP JUMPDEST PUSH2 0x902 JUMP JUMPDEST STOP JUMPDEST CALLVALUE DUP1 ISZERO PUSH2 0x194 JUMPI PUSH1 0x0 DUP1 REVERT JUMPDEST POP PUSH2 0x1AF PUSH1 0x4 DUP1 CALLDATASIZE SUB DUP2 ADD SWAP1 PUSH2 0x1AA SWAP2 SWAP1 PUSH2 0x1676 JUMP JUMPDEST PUSH2 0xC4E JUMP JUMPDEST PUSH1 0x40 MLOAD PUSH2 0x1BC SWAP2 SWAP1 PUSH2 0x19DD JUMP JUMPDEST PUSH1 0x40 MLOAD DUP1 SWAP2 SUB SWAP1 RETURN JUMPDEST CALLVALUE DUP1 ISZERO PUSH2 0x1D1 JUMPI PUSH1 0x0 DUP1 REVERT JUMPDEST POP PUSH2 0x1DA PUSH2 0xD8C JUMP JUMPDEST PUSH1 0x40 MLOAD PUSH2 0x1E7 SWAP2 SWAP1 PUSH2 0x1A28 JUMP JUMPDEST PUSH1 0x40 MLOAD DUP1 SWAP2 SUB SWAP1 RETURN JUMPDEST CALLVALUE DUP1 ISZERO PUSH2 0x1FC JUMPI PUSH1 0x0 DUP1 REVERT JUMPDEST POP PUSH2 0x217 PUSH1 0x4 DUP1 CALLDATASIZE SUB DUP2 ADD SWAP1 PUSH2 0x212 SWAP2 SWAP1 PUSH2 0x1676 JUMP JUMPDEST PUSH2 0xE1A JUMP JUMPDEST STOP JUMPDEST CALLVALUE DUP1 ISZERO PUSH2 0x225 JUMPI PUSH1 0x0 DUP1 REVERT JUMPDEST POP PUSH2 0x240 PUSH1 0x4 DUP1 CALLDATASIZE SUB DUP2 ADD SWAP1 PUSH2 0x23B SWAP2 SWAP1 PUSH2 0x16B6 JUMP JUMPDEST PUSH2 0xFA3 JUMP JUMPDEST STOP JUMPDEST CALLVALUE DUP1 ISZERO PUSH2 0x24E JUMPI PUSH1 0x0 DUP1 REVERT JUMPDEST POP PUSH2 0x257 PUSH2 0x10A5 JUMP JUMPDEST PUSH1 0x40 MLOAD PUSH2 0x264 SWAP2 SWAP1 PUSH2 0x19C2 JUMP JUMPDEST PUSH1 0x40 MLOAD DUP1 SWAP2 SUB SWAP1 RETURN JUMPDEST PUSH2 0x275 PUSH2 0x10CB JUMP JUMPDEST STOP JUMPDEST CALLVALUE DUP1 ISZERO PUSH2 0x283 JUMPI PUSH1 0x0 DUP1 REVERT JUMPDEST POP PUSH2 0x29E PUSH1 0x4 DUP1 CALLDATASIZE SUB DUP2 ADD SWAP1 PUSH2 0x299 SWAP2 SWAP1 PUSH2 0x15DA JUMP JUMPDEST PUSH2 0x1223 JUMP JUMPDEST PUSH1 0x40 MLOAD PUSH2 0x2AC SWAP3 SWAP2 SWAP1 PUSH2 0x19F8 JUMP JUMPDEST PUSH1 0x40 MLOAD DUP1 SWAP2 SUB SWAP1 RETURN JUMPDEST CALLVALUE DUP1 ISZERO PUSH2 0x2C1 JUMPI PUSH1 0x0 DUP1 REVERT JUMPDEST POP PUSH2 0x2DC PUSH1 0x4 DUP1 CALLDATASIZE SUB DUP2 ADD SWAP1 PUSH2 0x2D7 SWAP2 SWAP1 PUSH2 0x15DA JUMP JUMPDEST PUSH2 0x134B JUMP JUMPDEST PUSH1 0x40 MLOAD PUSH2 0x2E9 SWAP2 SWAP1 PUSH2 0x1AAA JUMP JUMPDEST PUSH1 0x40 MLOAD DUP1 SWAP2 SUB SWAP1 RETURN JUMPDEST CALLVALUE DUP1 ISZERO PUSH2 0x2FE JUMPI PUSH1 0x0 DUP1 REVERT JUMPDEST POP PUSH2 0x319 PUSH1 0x4 DUP1 CALLDATASIZE SUB DUP2 ADD SWAP1 PUSH2 0x314 SWAP2 SWAP1 PUSH2 0x16E3 JUMP JUMPDEST PUSH2 0x136C JUMP JUMPDEST PUSH1 0x40 MLOAD PUSH2 0x331 SWAP13 SWAP12 SWAP11 SWAP10 SWAP9 SWAP8 SWAP7 SWAP6 SWAP5 SWAP4 SWAP3 SWAP2 SWAP1 PUSH2 0x1AC5 JUMP JUMPDEST PUSH1 0x40 MLOAD DUP1 SWAP2 SUB SWAP1 RETURN JUMPDEST CALLVALUE DUP1 ISZERO PUSH2 0x346 JUMPI PUSH1 0x0 DUP1 REVERT JUMPDEST POP PUSH2 0x361 PUSH1 0x4 DUP1 CALLDATASIZE SUB DUP2 ADD SWAP1 PUSH2 0x35C SWAP2 SWAP1 PUSH2 0x15DA JUMP JUMPDEST PUSH2 0x143F JUMP JUMPDEST PUSH1 0x40 MLOAD PUSH2 0x36E SWAP2 SWAP1 PUSH2 0x1AAA JUMP JUMPDEST PUSH1 0x40 MLOAD DUP1 SWAP2 SUB SWAP1 RETURN JUMPDEST PUSH1 0x0 DUP1 SLOAD PUSH2 0x384 SWAP1 PUSH2 0x1DAE JUMP JUMPDEST DUP1 PUSH1 0x1F ADD PUSH1 0x20 DUP1 SWAP2 DIV MUL PUSH1 0x20 ADD PUSH1 0x40 MLOAD SWAP1 DUP2 ADD PUSH1 0x40 MSTORE DUP1 SWAP3 SWAP2 SWAP1 DUP2 DUP2 MSTORE PUSH1 0x20 ADD DUP3 DUP1 SLOAD PUSH2 0x3B0 SWAP1 PUSH2 0x1DAE JUMP JUMPDEST DUP1 ISZERO PUSH2 0x3FD JUMPI DUP1 PUSH1 0x1F LT PUSH2 0x3D2 JUMPI PUSH2 0x100 DUP1 DUP4 SLOAD DIV MUL DUP4 MSTORE SWAP2 PUSH1 0x20 ADD SWAP2 PUSH2 0x3FD JUMP JUMPDEST DUP3 ADD SWAP2 SWAP1 PUSH1 0x0 MSTORE PUSH1 0x20 PUSH1 0x0 KECCAK256 SWAP1 JUMPDEST DUP2 SLOAD DUP2 MSTORE SWAP1 PUSH1 0x1 ADD SWAP1 PUSH1 0x20 ADD DUP1 DUP4 GT PUSH2 0x3E0 JUMPI DUP3 SWAP1 SUB PUSH1 0x1F AND DUP3 ADD SWAP2 JUMPDEST POP POP POP POP POP DUP2 JUMP JUMPDEST PUSH1 0x0 PUSH1 0x5 PUSH1 0x0 DUP6 PUSH20 0xFFFFFFFFFFFFFFFFFFFFFFFFFFFFFFFFFFFFFFFF AND PUSH20 0xFFFFFFFFFFFFFFFFFFFFFFFFFFFFFFFFFFFFFFFF AND DUP2 MSTORE PUSH1 0x20 ADD SWAP1 DUP2 MSTORE PUSH1 0x20 ADD PUSH1 0x0 KECCAK256 PUSH1 0x40 MLOAD DUP1 PUSH1 0x60 ADD PUSH1 0x40 MSTORE SWAP1 DUP2 PUSH1 0x0 DUP3 ADD PUSH1 0x0 SWAP1 SLOAD SWAP1 PUSH2 0x100 EXP SWAP1 DIV PUSH1 0xFF AND PUSH1 0x4 DUP2 GT ISZERO PUSH2 0x476 JUMPI PUSH2 0x475 PUSH2 0x1E6F JUMP JUMPDEST JUMPDEST PUSH1 0x4 DUP2 GT ISZERO PUSH2 0x488 JUMPI PUSH2 0x487 PUSH2 0x1E6F JUMP JUMPDEST JUMPDEST DUP2 MSTORE PUSH1 0x20 ADD PUSH1 0x1 DUP3 ADD DUP1 SLOAD PUSH2 0x49C SWAP1 PUSH2 0x1DAE JUMP JUMPDEST DUP1 PUSH1 0x1F ADD PUSH1 0x20 DUP1 SWAP2 DIV MUL PUSH1 0x20 ADD PUSH1 0x40 MLOAD SWAP1 DUP2 ADD PUSH1 0x40 MSTORE DUP1 SWAP3 SWAP2 SWAP1 DUP2 DUP2 MSTORE PUSH1 0x20 ADD DUP3 DUP1 SLOAD PUSH2 0x4C8 SWAP1 PUSH2 0x1DAE JUMP JUMPDEST DUP1 ISZERO PUSH2 0x515 JUMPI DUP1 PUSH1 0x1F LT PUSH2 0x4EA JUMPI PUSH2 0x100 DUP1 DUP4 SLOAD DIV MUL DUP4 MSTORE SWAP2 PUSH1 0x20 ADD SWAP2 PUSH2 0x515 JUMP JUMPDEST DUP3 ADD SWAP2 SWAP1 PUSH1 0x0 MSTORE PUSH1 0x20 PUSH1 0x0 KECCAK256 SWAP1 JUMPDEST DUP2 SLOAD DUP2 MSTORE SWAP1 PUSH1 0x1 ADD SWAP1 PUSH1 0x20 ADD DUP1 DUP4 GT PUSH2 0x4F8 JUMPI DUP3 SWAP1 SUB PUSH1 0x1F AND DUP3 ADD SWAP2 JUMPDEST POP POP POP POP POP DUP2 MSTORE PUSH1 0x20 ADD PUSH1 0x2 DUP3 ADD PUSH1 0x0 SWAP1 SLOAD SWAP1 PUSH2 0x100 EXP SWAP1 DIV PUSH1 0xFF AND ISZERO ISZERO ISZERO ISZERO DUP2 MSTORE POP POP SWAP1 POP DUP3 DUP2 PUSH1 0x0 ADD SWAP1 PUSH1 0x4 DUP2 GT ISZERO PUSH2 0x553 JUMPI PUSH2 0x552 PUSH2 0x1E6F JUMP JUMPDEST JUMPDEST SWAP1 DUP2 PUSH1 0x4 DUP2 GT ISZERO PUSH2 0x567 JUMPI PUSH2 0x566 PUSH2 0x1E6F JUMP JUMPDEST JUMPDEST DUP2 MSTORE POP POP DUP2 DUP2 PUSH1 0x20 ADD DUP2 SWAP1 MSTORE POP PUSH1 0x1 DUP2 PUSH1 0x40 ADD SWAP1 ISZERO ISZERO SWAP1 DUP2 ISZERO ISZERO DUP2 MSTORE POP POP DUP1 PUSH1 0x5 PUSH1 0x0 DUP7 PUSH20 0xFFFFFFFFFFFFFFFFFFFFFFFFFFFFFFFFFFFFFFFF AND PUSH20 0xFFFFFFFFFFFFFFFFFFFFFFFFFFFFFFFFFFFFFFFF AND DUP2 MSTORE PUSH1 0x20 ADD SWAP1 DUP2 MSTORE PUSH1 0x20 ADD PUSH1 0x0 KECCAK256 PUSH1 0x0 DUP3 ADD MLOAD DUP2 PUSH1 0x0 ADD PUSH1 0x0 PUSH2 0x100 EXP DUP2 SLOAD DUP2 PUSH1 0xFF MUL NOT AND SWAP1 DUP4 PUSH1 0x4 DUP2 GT ISZERO PUSH2 0x5F0 JUMPI PUSH2 0x5EF PUSH2 0x1E6F JUMP JUMPDEST JUMPDEST MUL OR SWAP1 SSTORE POP PUSH1 0x20 DUP3 ADD MLOAD DUP2 PUSH1 0x1 ADD SWAP1 DUP1 MLOAD SWAP1 PUSH1 0x20 ADD SWAP1 PUSH2 0x611 SWAP3 SWAP2 SWAP1 PUSH2 0x1488 JUMP JUMPDEST POP PUSH1 0x40 DUP3 ADD MLOAD DUP2 PUSH1 0x2 ADD PUSH1 0x0 PUSH2 0x100 EXP DUP2 SLOAD DUP2 PUSH1 0xFF MUL NOT AND SWAP1 DUP4 ISZERO ISZERO MUL OR SWAP1 SSTORE POP SWAP1 POP POP POP POP POP POP JUMP JUMPDEST PUSH1 0x1 PUSH1 0x4 DUP2 GT ISZERO PUSH2 0x64F JUMPI PUSH2 0x64E PUSH2 0x1E6F JUMP JUMPDEST JUMPDEST PUSH1 0x5 PUSH1 0x0 CALLER PUSH20 0xFFFFFFFFFFFFFFFFFFFFFFFFFFFFFFFFFFFFFFFF AND PUSH20 0xFFFFFFFFFFFFFFFFFFFFFFFFFFFFFFFFFFFFFFFF AND DUP2 MSTORE PUSH1 0x20 ADD SWAP1 DUP2 MSTORE PUSH1 0x20 ADD PUSH1 0x0 KECCAK256 PUSH1 0x0 ADD PUSH1 0x0 SWAP1 SLOAD SWAP1 PUSH2 0x100 EXP SWAP1 DIV PUSH1 0xFF AND PUSH1 0x4 DUP2 GT ISZERO PUSH2 0x6B1 JUMPI PUSH2 0x6B0 PUSH2 0x1E6F JUMP JUMPDEST JUMPDEST EQ PUSH2 0x6F1 JUMPI PUSH1 0x40 MLOAD PUSH32 0x8C379A000000000000000000000000000000000000000000000000000000000 DUP2 MSTORE PUSH1 0x4 ADD PUSH2 0x6E8 SWAP1 PUSH2 0x1A4A JUMP JUMPDEST PUSH1 0x40 MLOAD DUP1 SWAP2 SUB SWAP1 REVERT JUMPDEST PUSH1 0x0 PUSH1 0x6 PUSH1 0x0 DUP5 DUP2 MSTORE PUSH1 0x20 ADD SWAP1 DUP2 MSTORE PUSH1 0x20 ADD PUSH1 0x0 KECCAK256 SWAP1 POP PUSH1 0x0 PUSH1 0x4 PUSH1 0x0 CALLER PUSH20 0xFFFFFFFFFFFFFFFFFFFFFFFFFFFFFFFFFFFFFFFF AND PUSH20 0xFFFFFFFFFFFFFFFFFFFFFFFFFFFFFFFFFFFFFFFF AND DUP2 MSTORE PUSH1 0x20 ADD SWAP1 DUP2 MSTORE PUSH1 0x20 ADD PUSH1 0x0 KECCAK256 SLOAD SWAP1 POP DUP2 PUSH1 0xA ADD SLOAD DUP2 LT ISZERO PUSH2 0x75D JUMPI PUSH1 0x0 DUP1 REVERT JUMPDEST PUSH1 0x1 PUSH1 0x5 DUP2 GT ISZERO PUSH2 0x771 JUMPI PUSH2 0x770 PUSH2 0x1E6F JUMP JUMPDEST JUMPDEST DUP3 PUSH1 0x9 ADD PUSH1 0x0 SWAP1 SLOAD SWAP1 PUSH2 0x100 EXP SWAP1 DIV PUSH1 0xFF AND PUSH1 0x5 DUP2 GT ISZERO PUSH2 0x795 JUMPI PUSH2 0x794 PUSH2 0x1E6F JUMP JUMPDEST JUMPDEST EQ PUSH2 0x79F JUMPI PUSH1 0x0 DUP1 REVERT JUMPDEST DUP3 PUSH1 0x6 PUSH1 0x0 DUP7 DUP2 MSTORE PUSH1 0x20 ADD SWAP1 DUP2 MSTORE PUSH1 0x20 ADD PUSH1 0x0 KECCAK256 PUSH1 0x3 ADD PUSH1 0x1 PUSH1 0x6 DUP2 LT PUSH2 0x7C9 JUMPI PUSH2 0x7C8 PUSH2 0x1ECD JUMP JUMPDEST JUMPDEST ADD DUP2 SWAP1 SSTORE POP CALLER PUSH1 0x6 PUSH1 0x0 DUP7 DUP2 MSTORE PUSH1 0x20 ADD SWAP1 DUP2 MSTORE PUSH1 0x20 ADD PUSH1 0x0 KECCAK256 PUSH1 0xB ADD PUSH1 0x0 PUSH2 0x100 EXP DUP2 SLOAD DUP2 PUSH20 0xFFFFFFFFFFFFFFFFFFFFFFFFFFFFFFFFFFFFFFFF MUL NOT AND SWAP1 DUP4 PUSH20 0xFFFFFFFFFFFFFFFFFFFFFFFFFFFFFFFFFFFFFFFF AND MUL OR SWAP1 SSTORE POP PUSH2 0x867 PUSH1 0x6 PUSH1 0x0 DUP7 DUP2 MSTORE PUSH1 0x20 ADD SWAP1 DUP2 MSTORE PUSH1 0x20 ADD PUSH1 0x0 KECCAK256 PUSH1 0x1 ADD PUSH1 0x0 SWAP1 SLOAD SWAP1 PUSH2 0x100 EXP SWAP1 DIV PUSH20 0xFFFFFFFFFFFFFFFFFFFFFFFFFFFFFFFFFFFFFFFF AND DUP4 PUSH1 0xA ADD SLOAD PUSH2 0xC4E JUMP JUMPDEST POP PUSH1 0x5 PUSH1 0x6 PUSH1 0x0 DUP7 DUP2 MSTORE PUSH1 0x20 ADD SWAP1 DUP2 MSTORE PUSH1 0x20 ADD PUSH1 0x0 KECCAK256 PUSH1 0x9 ADD PUSH1 0x0 PUSH2 0x100 EXP DUP2 SLOAD DUP2 PUSH1 0xFF MUL NOT AND SWAP1 DUP4 PUSH1 0x5 DUP2 GT ISZERO PUSH2 0x8A2 JUMPI PUSH2 0x8A1 PUSH2 0x1E6F JUMP JUMPDEST JUMPDEST MUL OR SWAP1 SSTORE POP CALLER PUSH1 0x6 PUSH1 0x0 DUP7 DUP2 MSTORE PUSH1 0x20 ADD SWAP1 DUP2 MSTORE PUSH1 0x20 ADD PUSH1 0x0 KECCAK256 PUSH1 0x1 ADD PUSH1 0x0 PUSH2 0x100 EXP DUP2 SLOAD DUP2 PUSH20 0xFFFFFFFFFFFFFFFFFFFFFFFFFFFFFFFFFFFFFFFF MUL NOT AND SWAP1 DUP4 PUSH20 0xFFFFFFFFFFFFFFFFFFFFFFFFFFFFFFFFFFFFFFFF AND MUL OR SWAP1 SSTORE POP POP POP POP POP JUMP JUMPDEST PUSH1 0x0 PUSH1 0x4 DUP2 GT ISZERO PUSH2 0x916 JUMPI PUSH2 0x915 PUSH2 0x1E6F JUMP JUMPDEST JUMPDEST PUSH1 0x5 PUSH1 0x0 CALLER PUSH20 0xFFFFFFFFFFFFFFFFFFFFFFFFFFFFFFFFFFFFFFFF AND PUSH20 0xFFFFFFFFFFFFFFFFFFFFFFFFFFFFFFFFFFFFFFFF AND DUP2 MSTORE PUSH1 0x20 ADD SWAP1 DUP2 MSTORE PUSH1 0x20 ADD PUSH1 0x0 KECCAK256 PUSH1 0x0 ADD PUSH1 0x0 SWAP1 SLOAD SWAP1 PUSH2 0x100 EXP SWAP1 DIV PUSH1 0xFF AND PUSH1 0x4 DUP2 GT ISZERO PUSH2 0x978 JUMPI PUSH2 0x977 PUSH2 0x1E6F JUMP JUMPDEST JUMPDEST EQ PUSH2 0x9B8 JUMPI PUSH1 0x40 MLOAD PUSH32 0x8C379A000000000000000000000000000000000000000000000000000000000 DUP2 MSTORE PUSH1 0x4 ADD PUSH2 0x9AF SWAP1 PUSH2 0x1A6A JUMP JUMPDEST PUSH1 0x40 MLOAD DUP1 SWAP2 SUB SWAP1 REVERT JUMPDEST PUSH1 0x0 PUSH1 0x6 PUSH1 0x0 DUP13 DUP2 MSTORE PUSH1 0x20 ADD SWAP1 DUP2 MSTORE PUSH1 0x20 ADD PUSH1 0x0 KECCAK256 SWAP1 POP DUP11 DUP2 PUSH1 0x0 ADD DUP2 SWAP1 SSTORE POP CALLER DUP2 PUSH1 0x1 ADD PUSH1 0x0 PUSH2 0x100 EXP DUP2 SLOAD DUP2 PUSH20 0xFFFFFFFFFFFFFFFFFFFFFFFFFFFFFFFFFFFFFFFF MUL NOT AND SWAP1 DUP4 PUSH20 0xFFFFFFFFFFFFFFFFFFFFFFFFFFFFFFFFFFFFFFFF AND MUL OR SWAP1 SSTORE POP CALLER DUP2 PUSH1 0x2 ADD PUSH1 0x0 PUSH2 0x100 EXP DUP2 SLOAD DUP2 PUSH20 0xFFFFFFFFFFFFFFFFFFFFFFFFFFFFFFFFFFFFFFFF MUL NOT AND SWAP1 DUP4 PUSH20 0xFFFFFFFFFFFFFFFFFFFFFFFFFFFFFFFFFFFFFFFF AND MUL OR SWAP1 SSTORE POP DUP10 DUP2 PUSH1 0x3 ADD PUSH1 0x0 PUSH1 0x6 DUP2 LT PUSH2 0xA76 JUMPI PUSH2 0xA75 PUSH2 0x1ECD JUMP JUMPDEST JUMPDEST ADD DUP2 SWAP1 SSTORE POP PUSH1 0x1 DUP2 PUSH1 0x9 ADD PUSH1 0x0 PUSH2 0x100 EXP DUP2 SLOAD DUP2 PUSH1 0xFF MUL NOT AND SWAP1 DUP4 PUSH1 0x5 DUP2 GT ISZERO PUSH2 0xAA3 JUMPI PUSH2 0xAA2 PUSH2 0x1E6F JUMP JUMPDEST JUMPDEST MUL OR SWAP1 SSTORE POP DUP9 DUP2 PUSH1 0xA ADD DUP2 SWAP1 SSTORE POP PUSH1 0x0 DUP2 PUSH1 0xB ADD PUSH1 0x0 PUSH2 0x100 EXP DUP2 SLOAD DUP2 PUSH20 0xFFFFFFFFFFFFFFFFFFFFFFFFFFFFFFFFFFFFFFFF MUL NOT AND SWAP1 DUP4 PUSH20 0xFFFFFFFFFFFFFFFFFFFFFFFFFFFFFFFFFFFFFFFF AND MUL OR SWAP1 SSTORE POP PUSH1 0x0 DUP2 PUSH1 0xC ADD PUSH1 0x0 PUSH2 0x100 EXP DUP2 SLOAD DUP2 PUSH20 0xFFFFFFFFFFFFFFFFFFFFFFFFFFFFFFFFFFFFFFFF MUL NOT AND SWAP1 DUP4 PUSH20 0xFFFFFFFFFFFFFFFFFFFFFFFFFFFFFFFFFFFFFFFF AND MUL OR SWAP1 SSTORE POP PUSH1 0x0 DUP2 PUSH1 0xD ADD PUSH1 0x0 PUSH2 0x100 EXP DUP2 SLOAD DUP2 PUSH20 0xFFFFFFFFFFFFFFFFFFFFFFFFFFFFFFFFFFFFFFFF MUL NOT AND SWAP1 DUP4 PUSH20 0xFFFFFFFFFFFFFFFFFFFFFFFFFFFFFFFFFFFFFFFF AND MUL OR SWAP1 SSTORE POP DUP8 DUP2 PUSH1 0xE ADD PUSH1 0x0 ADD SWAP1 DUP1 MLOAD SWAP1 PUSH1 0x20 ADD SWAP1 PUSH2 0xB98 SWAP3 SWAP2 SWAP1 PUSH2 0x1488 JUMP JUMPDEST POP DUP7 DUP2 PUSH1 0xE ADD PUSH1 0x1 ADD SWAP1 DUP1 MLOAD SWAP1 PUSH1 0x20 ADD SWAP1 PUSH2 0xBB4 SWAP3 SWAP2 SWAP1 PUSH2 0x1488 JUMP JUMPDEST POP DUP6 DUP2 PUSH1 0xE ADD PUSH1 0x2 ADD SWAP1 DUP1 MLOAD SWAP1 PUSH1 0x20 ADD SWAP1 PUSH2 0xBD0 SWAP3 SWAP2 SWAP1 PUSH2 0x1488 JUMP JUMPDEST POP DUP5 DUP2 PUSH1 0xE ADD PUSH1 0x3 ADD SWAP1 DUP1 MLOAD SWAP1 PUSH1 0x20 ADD SWAP1 PUSH2 0xBEC SWAP3 SWAP2 SWAP1 PUSH2 0x1488 JUMP JUMPDEST POP DUP4 DUP2 PUSH1 0xE ADD PUSH1 0x4 ADD SWAP1 DUP1 MLOAD SWAP1 PUSH1 0x20 ADD SWAP1 PUSH2 0xC08 SWAP3 SWAP2 SWAP1 PUSH2 0x1488 JUMP JUMPDEST POP DUP3 DUP2 PUSH1 0xE ADD PUSH1 0x5 ADD SWAP1 DUP1 MLOAD SWAP1 PUSH1 0x20 ADD SWAP1 PUSH2 0xC24 SWAP3 SWAP2 SWAP1 PUSH2 0x1488 JUMP JUMPDEST POP DUP2 DUP2 PUSH1 0xE ADD PUSH1 0x6 ADD SWAP1 DUP1 MLOAD SWAP1 PUSH1 0x20 ADD SWAP1 PUSH2 0xC40 SWAP3 SWAP2 SWAP1 PUSH2 0x1488 JUMP JUMPDEST POP POP POP POP POP POP POP POP POP POP POP POP JUMP JUMPDEST PUSH1 0x0 DUP2 PUSH1 0x4 PUSH1 0x0 CALLER PUSH20 0xFFFFFFFFFFFFFFFFFFFFFFFFFFFFFFFFFFFFFFFF AND PUSH20 0xFFFFFFFFFFFFFFFFFFFFFFFFFFFFFFFFFFFFFFFF AND DUP2 MSTORE PUSH1 0x20 ADD SWAP1 DUP2 MSTORE PUSH1 0x20 ADD PUSH1 0x0 KECCAK256 SLOAD LT ISZERO PUSH2 0xC9C JUMPI PUSH1 0x0 DUP1 REVERT JUMPDEST PUSH1 0x0 PUSH20 0xFFFFFFFFFFFFFFFFFFFFFFFFFFFFFFFFFFFFFFFF AND DUP4 PUSH20 0xFFFFFFFFFFFFFFFFFFFFFFFFFFFFFFFFFFFFFFFF AND EQ ISZERO PUSH2 0xCD6 JUMPI PUSH1 0x0 DUP1 REVERT JUMPDEST DUP2 PUSH1 0x4 PUSH1 0x0 CALLER PUSH20 0xFFFFFFFFFFFFFFFFFFFFFFFFFFFFFFFFFFFFFFFF AND PUSH20 0xFFFFFFFFFFFFFFFFFFFFFFFFFFFFFFFFFFFFFFFF AND DUP2 MSTORE PUSH1 0x20 ADD SWAP1 DUP2 MSTORE PUSH1 0x20 ADD PUSH1 0x0 KECCAK256 PUSH1 0x0 DUP3 DUP3 SLOAD PUSH2 0xD25 SWAP2 SWAP1 PUSH2 0x1C94 JUMP JUMPDEST SWAP3 POP POP DUP2 SWAP1 SSTORE POP DUP2 PUSH1 0x4 PUSH1 0x0 DUP6 PUSH20 0xFFFFFFFFFFFFFFFFFFFFFFFFFFFFFFFFFFFFFFFF AND PUSH20 0xFFFFFFFFFFFFFFFFFFFFFFFFFFFFFFFFFFFFFFFF AND DUP2 MSTORE PUSH1 0x20 ADD SWAP1 DUP2 MSTORE PUSH1 0x20 ADD PUSH1 0x0 KECCAK256 PUSH1 0x0 DUP3 DUP3 SLOAD PUSH2 0xD7B SWAP2 SWAP1 PUSH2 0x1C0D JUMP JUMPDEST SWAP3 POP POP DUP2 SWAP1 SSTORE POP PUSH1 0x1 SWAP1 POP SWAP3 SWAP2 POP POP JUMP JUMPDEST PUSH1 0x1 DUP1 SLOAD PUSH2 0xD99 SWAP1 PUSH2 0x1DAE JUMP JUMPDEST DUP1 PUSH1 0x1F ADD PUSH1 0x20 DUP1 SWAP2 DIV MUL PUSH1 0x20 ADD PUSH1 0x40 MLOAD SWAP1 DUP2 ADD PUSH1 0x40 MSTORE DUP1 SWAP3 SWAP2 SWAP1 DUP2 DUP2 MSTORE PUSH1 0x20 ADD DUP3 DUP1 SLOAD PUSH2 0xDC5 SWAP1 PUSH2 0x1DAE JUMP JUMPDEST DUP1 ISZERO PUSH2 0xE12 JUMPI DUP1 PUSH1 0x1F LT PUSH2 0xDE7 JUMPI PUSH2 0x100 DUP1 DUP4 SLOAD DIV MUL DUP4 MSTORE SWAP2 PUSH1 0x20 ADD SWAP2 PUSH2 0xE12 JUMP JUMPDEST DUP3 ADD SWAP2 SWAP1 PUSH1 0x0 MSTORE PUSH1 0x20 PUSH1 0x0 KECCAK256 SWAP1 JUMPDEST DUP2 SLOAD DUP2 MSTORE SWAP1 PUSH1 0x1 ADD SWAP1 PUSH1 0x20 ADD DUP1 DUP4 GT PUSH2 0xDF5 JUMPI DUP3 SWAP1 SUB PUSH1 0x1F AND DUP3 ADD SWAP2 JUMPDEST POP POP POP POP POP DUP2 JUMP JUMPDEST PUSH1 0x2 PUSH1 0x0 SWAP1 SLOAD SWAP1 PUSH2 0x100 EXP SWAP1 DIV PUSH20 0xFFFFFFFFFFFFFFFFFFFFFFFFFFFFFFFFFFFFFFFF AND PUSH20 0xFFFFFFFFFFFFFFFFFFFFFFFFFFFFFFFFFFFFFFFF AND CALLER PUSH20 0xFFFFFFFFFFFFFFFFFFFFFFFFFFFFFFFFFFFFFFFF AND EQ PUSH2 0xEAA JUMPI PUSH1 0x40 MLOAD PUSH32 0x8C379A000000000000000000000000000000000000000000000000000000000 DUP2 MSTORE PUSH1 0x4 ADD PUSH2 0xEA1 SWAP1 PUSH2 0x1A8A JUMP JUMPDEST PUSH1 0x40 MLOAD DUP1 SWAP2 SUB SWAP1 REVERT JUMPDEST PUSH1 0x0 PUSH20 0xFFFFFFFFFFFFFFFFFFFFFFFFFFFFFFFFFFFFFFFF AND DUP3 PUSH20 0xFFFFFFFFFFFFFFFFFFFFFFFFFFFFFFFFFFFFFFFF AND EQ ISZERO PUSH2 0xEE4 JUMPI PUSH1 0x0 DUP1 REVERT JUMPDEST PUSH1 0x4 PUSH1 0x0 DUP4 PUSH20 0xFFFFFFFFFFFFFFFFFFFFFFFFFFFFFFFFFFFFFFFF AND PUSH20 0xFFFFFFFFFFFFFFFFFFFFFFFFFFFFFFFFFFFFFFFF AND DUP2 MSTORE PUSH1 0x20 ADD SWAP1 DUP2 MSTORE PUSH1 0x20 ADD PUSH1 0x0 KECCAK256 SLOAD DUP2 GT ISZERO PUSH2 0xF30 JUMPI PUSH1 0x0 DUP1 REVERT JUMPDEST DUP1 PUSH1 0x3 PUSH1 0x0 DUP3 DUP3 SLOAD PUSH2 0xF42 SWAP2 SWAP1 PUSH2 0x1C94 JUMP JUMPDEST SWAP3 POP POP DUP2 SWAP1 SSTORE POP DUP1 PUSH1 0x4 PUSH1 0x0 DUP5 PUSH20 0xFFFFFFFFFFFFFFFFFFFFFFFFFFFFFFFFFFFFFFFF AND PUSH20 0xFFFFFFFFFFFFFFFFFFFFFFFFFFFFFFFFFFFFFFFF AND DUP2 MSTORE PUSH1 0x20 ADD SWAP1 DUP2 MSTORE PUSH1 0x20 ADD PUSH1 0x0 KECCAK256 PUSH1 0x0 DUP3 DUP3 SLOAD PUSH2 0xF98 SWAP2 SWAP1 PUSH2 0x1C94 JUMP JUMPDEST SWAP3 POP POP DUP2 SWAP1 SSTORE POP POP POP JUMP JUMPDEST PUSH1 0x2 PUSH1 0x0 SWAP1 SLOAD SWAP1 PUSH2 0x100 EXP SWAP1 DIV PUSH20 0xFFFFFFFFFFFFFFFFFFFFFFFFFFFFFFFFFFFFFFFF AND PUSH20 0xFFFFFFFFFFFFFFFFFFFFFFFFFFFFFFFFFFFFFFFF AND CALLER PUSH20 0xFFFFFFFFFFFFFFFFFFFFFFFFFFFFFFFFFFFFFFFF AND EQ PUSH2 0x1033 JUMPI PUSH1 0x40 MLOAD PUSH32 0x8C379A000000000000000000000000000000000000000000000000000000000 DUP2 MSTORE PUSH1 0x4 ADD PUSH2 0x102A SWAP1 PUSH2 0x1A8A JUMP JUMPDEST PUSH1 0x40 MLOAD DUP1 SWAP2 SUB SWAP1 REVERT JUMPDEST DUP1 PUSH1 0x3 PUSH1 0x0 DUP3 DUP3 SLOAD PUSH2 0x1045 SWAP2 SWAP1 PUSH2 0x1C0D JUMP JUMPDEST SWAP3 POP POP DUP2 SWAP1 SSTORE POP DUP1 PUSH1 0x4 PUSH1 0x0 CALLER PUSH20 0xFFFFFFFFFFFFFFFFFFFFFFFFFFFFFFFFFFFFFFFF AND PUSH20 0xFFFFFFFFFFFFFFFFFFFFFFFFFFFFFFFFFFFFFFFF AND DUP2 MSTORE PUSH1 0x20 ADD SWAP1 DUP2 MSTORE PUSH1 0x20 ADD PUSH1 0x0 KECCAK256 PUSH1 0x0 DUP3 DUP3 SLOAD PUSH2 0x109B SWAP2 SWAP1 PUSH2 0x1C0D JUMP JUMPDEST SWAP3 POP POP DUP2 SWAP1 SSTORE POP POP JUMP JUMPDEST PUSH1 0x2 PUSH1 0x0 SWAP1 SLOAD SWAP1 PUSH2 0x100 EXP SWAP1 DIV PUSH20 0xFFFFFFFFFFFFFFFFFFFFFFFFFFFFFFFFFFFFFFFF AND DUP2 JUMP JUMPDEST PUSH1 0x0 PUSH1 0x64 CALLVALUE PUSH2 0x10DA SWAP2 SWAP1 PUSH2 0x1C63 JUMP JUMPDEST SWAP1 POP PUSH1 0x0 CALLVALUE GT PUSH2 0x10E9 JUMPI PUSH1 0x0 DUP1 REVERT JUMPDEST PUSH1 0x2 PUSH1 0x0 SWAP1 SLOAD SWAP1 PUSH2 0x100 EXP SWAP1 DIV PUSH20 0xFFFFFFFFFFFFFFFFFFFFFFFFFFFFFFFFFFFFFFFF AND PUSH20 0xFFFFFFFFFFFFFFFFFFFFFFFFFFFFFFFFFFFFFFFF AND PUSH2 0x8FC CALLVALUE SWAP1 DUP2 ISZERO MUL SWAP1 PUSH1 0x40 MLOAD PUSH1 0x0 PUSH1 0x40 MLOAD DUP1 DUP4 SUB DUP2 DUP6 DUP9 DUP9 CALL SWAP4 POP POP POP POP ISZERO DUP1 ISZERO PUSH2 0x1151 JUMPI RETURNDATASIZE PUSH1 0x0 DUP1 RETURNDATACOPY RETURNDATASIZE PUSH1 0x0 REVERT JUMPDEST POP DUP1 PUSH1 0x4 PUSH1 0x0 PUSH1 0x2 PUSH1 0x0 SWAP1 SLOAD SWAP1 PUSH2 0x100 EXP SWAP1 DIV PUSH20 0xFFFFFFFFFFFFFFFFFFFFFFFFFFFFFFFFFFFFFFFF AND PUSH20 0xFFFFFFFFFFFFFFFFFFFFFFFFFFFFFFFFFFFFFFFF AND PUSH20 0xFFFFFFFFFFFFFFFFFFFFFFFFFFFFFFFFFFFFFFFF AND DUP2 MSTORE PUSH1 0x20 ADD SWAP1 DUP2 MSTORE PUSH1 0x20 ADD PUSH1 0x0 KECCAK256 PUSH1 0x0 DUP3 DUP3 SLOAD PUSH2 0x11C3 SWAP2 SWAP1 PUSH2 0x1C94 JUMP JUMPDEST SWAP3 POP POP DUP2 SWAP1 SSTORE POP DUP1 PUSH1 0x4 PUSH1 0x0 CALLER PUSH20 0xFFFFFFFFFFFFFFFFFFFFFFFFFFFFFFFFFFFFFFFF AND PUSH20 0xFFFFFFFFFFFFFFFFFFFFFFFFFFFFFFFFFFFFFFFF AND DUP2 MSTORE PUSH1 0x20 ADD SWAP1 DUP2 MSTORE PUSH1 0x20 ADD PUSH1 0x0 KECCAK256 PUSH1 0x0 DUP3 DUP3 SLOAD PUSH2 0x1219 SWAP2 SWAP1 PUSH2 0x1C0D JUMP JUMPDEST SWAP3 POP POP DUP2 SWAP1 SSTORE POP POP JUMP JUMPDEST PUSH1 0x0 PUSH1 0x60 PUSH1 0x5 PUSH1 0x0 DUP5 PUSH20 0xFFFFFFFFFFFFFFFFFFFFFFFFFFFFFFFFFFFFFFFF AND PUSH20 0xFFFFFFFFFFFFFFFFFFFFFFFFFFFFFFFFFFFFFFFF AND DUP2 MSTORE PUSH1 0x20 ADD SWAP1 DUP2 MSTORE PUSH1 0x20 ADD PUSH1 0x0 KECCAK256 PUSH1 0x0 ADD PUSH1 0x0 SWAP1 SLOAD SWAP1 PUSH2 0x100 EXP SWAP1 DIV PUSH1 0xFF AND SWAP2 POP PUSH1 0x5 PUSH1 0x0 DUP5 PUSH20 0xFFFFFFFFFFFFFFFFFFFFFFFFFFFFFFFFFFFFFFFF AND PUSH20 0xFFFFFFFFFFFFFFFFFFFFFFFFFFFFFFFFFFFFFFFF AND DUP2 MSTORE PUSH1 0x20 ADD SWAP1 DUP2 MSTORE PUSH1 0x20 ADD PUSH1 0x0 KECCAK256 PUSH1 0x1 ADD DUP1 SLOAD PUSH2 0x12C6 SWAP1 PUSH2 0x1DAE JUMP JUMPDEST DUP1 PUSH1 0x1F ADD PUSH1 0x20 DUP1 SWAP2 DIV MUL PUSH1 0x20 ADD PUSH1 0x40 MLOAD SWAP1 DUP2 ADD PUSH1 0x40 MSTORE DUP1 SWAP3 SWAP2 SWAP1 DUP2 DUP2 MSTORE PUSH1 0x20 ADD DUP3 DUP1 SLOAD PUSH2 0x12F2 SWAP1 PUSH2 0x1DAE JUMP JUMPDEST DUP1 ISZERO PUSH2 0x133F JUMPI DUP1 PUSH1 0x1F LT PUSH2 0x1314 JUMPI PUSH2 0x100 DUP1 DUP4 SLOAD DIV MUL DUP4 MSTORE SWAP2 PUSH1 0x20 ADD SWAP2 PUSH2 0x133F JUMP JUMPDEST DUP3 ADD SWAP2 SWAP1 PUSH1 0x0 MSTORE PUSH1 0x20 PUSH1 0x0 KECCAK256 SWAP1 JUMPDEST DUP2 SLOAD DUP2 MSTORE SWAP1 PUSH1 0x1 ADD SWAP1 PUSH1 0x20 ADD DUP1 DUP4 GT PUSH2 0x1322 JUMPI DUP3 SWAP1 SUB PUSH1 0x1F AND DUP3 ADD SWAP2 JUMPDEST POP POP POP POP POP SWAP1 POP SWAP2 POP SWAP2 JUMP JUMPDEST PUSH1 0x0 DUP2 PUSH20 0xFFFFFFFFFFFFFFFFFFFFFFFFFFFFFFFFFFFFFFFF AND BALANCE SWAP1 POP SWAP2 SWAP1 POP JUMP JUMPDEST PUSH1 0x0 DUP1 PUSH1 0x0 DUP1 PUSH1 0x0 DUP1 PUSH1 0x0 DUP1 PUSH1 0x60 DUP1 PUSH1 0x60 DUP1 PUSH1 0x6 PUSH1 0x0 DUP16 DUP2 MSTORE PUSH1 0x20 ADD SWAP1 DUP2 MSTORE PUSH1 0x20 ADD PUSH1 0x0 KECCAK256 PUSH1 0x0 ADD SLOAD SWAP12 POP PUSH1 0x6 PUSH1 0x0 DUP16 DUP2 MSTORE PUSH1 0x20 ADD SWAP1 DUP2 MSTORE PUSH1 0x20 ADD PUSH1 0x0 KECCAK256 PUSH1 0x2 ADD PUSH1 0x0 SWAP1 SLOAD SWAP1 PUSH2 0x100 EXP SWAP1 DIV PUSH20 0xFFFFFFFFFFFFFFFFFFFFFFFFFFFFFFFFFFFFFFFF AND SWAP11 POP PUSH1 0x6 PUSH1 0x0 DUP16 DUP2 MSTORE PUSH1 0x20 ADD SWAP1 DUP2 MSTORE PUSH1 0x20 ADD PUSH1 0x0 KECCAK256 PUSH1 0x1 ADD PUSH1 0x0 SWAP1 SLOAD SWAP1 PUSH2 0x100 EXP SWAP1 DIV PUSH20 0xFFFFFFFFFFFFFFFFFFFFFFFFFFFFFFFFFFFFFFFF AND SWAP10 POP PUSH1 0x6 PUSH1 0x0 DUP16 DUP2 MSTORE PUSH1 0x20 ADD SWAP1 DUP2 MSTORE PUSH1 0x20 ADD PUSH1 0x0 KECCAK256 PUSH1 0x9 ADD PUSH1 0x0 SWAP1 SLOAD SWAP1 PUSH2 0x100 EXP SWAP1 DIV PUSH1 0xFF AND SWAP9 POP SWAP3 SWAP6 SWAP9 SWAP12 POP SWAP3 SWAP6 SWAP9 SWAP12 POP SWAP3 SWAP6 SWAP9 SWAP12 JUMP JUMPDEST PUSH1 0x0 PUSH1 0x4 PUSH1 0x0 DUP4 PUSH20 0xFFFFFFFFFFFFFFFFFFFFFFFFFFFFFFFFFFFFFFFF AND PUSH20 0xFFFFFFFFFFFFFFFFFFFFFFFFFFFFFFFFFFFFFFFF AND DUP2 MSTORE PUSH1 0x20 ADD SWAP1 DUP2 MSTORE PUSH1 0x20 ADD PUSH1 0x0 KECCAK256 SLOAD SWAP1 POP SWAP2 SWAP1 POP JUMP JUMPDEST DUP3 DUP1 SLOAD PUSH2 0x1494 SWAP1 PUSH2 0x1DAE JUMP JUMPDEST SWAP1 PUSH1 0x0 MSTORE PUSH1 0x20 PUSH1 0x0 KECCAK256 SWAP1 PUSH1 0x1F ADD PUSH1 0x20 SWAP1 DIV DUP2 ADD SWAP3 DUP3 PUSH2 0x14B6 JUMPI PUSH1 0x0 DUP6 SSTORE PUSH2 0x14FD JUMP JUMPDEST DUP3 PUSH1 0x1F LT PUSH2 0x14CF JUMPI DUP1 MLOAD PUSH1 0xFF NOT AND DUP4 DUP1 ADD OR DUP6 SSTORE PUSH2 0x14FD JUMP JUMPDEST DUP3 DUP1 ADD PUSH1 0x1 ADD DUP6 SSTORE DUP3 ISZERO PUSH2 0x14FD JUMPI SWAP2 DUP3 ADD JUMPDEST DUP3 DUP2 GT ISZERO PUSH2 0x14FC JUMPI DUP3 MLOAD DUP3 SSTORE SWAP2 PUSH1 0x20 ADD SWAP2 SWAP1 PUSH1 0x1 ADD SWAP1 PUSH2 0x14E1 JUMP JUMPDEST JUMPDEST POP SWAP1 POP PUSH2 0x150A SWAP2 SWAP1 PUSH2 0x150E JUMP JUMPDEST POP SWAP1 JUMP JUMPDEST JUMPDEST DUP1 DUP3 GT ISZERO PUSH2 0x1527 JUMPI PUSH1 0x0 DUP2 PUSH1 0x0 SWAP1 SSTORE POP PUSH1 0x1 ADD PUSH2 0x150F JUMP JUMPDEST POP SWAP1 JUMP JUMPDEST PUSH1 0x0 PUSH2 0x153E PUSH2 0x1539 DUP5 PUSH2 0x1BC0 JUMP JUMPDEST PUSH2 0x1B9B JUMP JUMPDEST SWAP1 POP DUP3 DUP2 MSTORE PUSH1 0x20 DUP2 ADD DUP5 DUP5 DUP5 ADD GT ISZERO PUSH2 0x155A JUMPI PUSH2 0x1559 PUSH2 0x1F30 JUMP JUMPDEST JUMPDEST PUSH2 0x1565 DUP5 DUP3 DUP6 PUSH2 0x1D6C JUMP JUMPDEST POP SWAP4 SWAP3 POP POP POP JUMP JUMPDEST PUSH1 0x0 DUP2 CALLDATALOAD SWAP1 POP PUSH2 0x157C DUP2 PUSH2 0x1FF3 JUMP JUMPDEST SWAP3 SWAP2 POP POP JUMP JUMPDEST PUSH1 0x0 DUP2 CALLDATALOAD SWAP1 POP PUSH2 0x1591 DUP2 PUSH2 0x200A JUMP JUMPDEST SWAP3 SWAP2 POP POP JUMP JUMPDEST PUSH1 0x0 DUP3 PUSH1 0x1F DUP4 ADD SLT PUSH2 0x15AC JUMPI PUSH2 0x15AB PUSH2 0x1F2B JUMP JUMPDEST JUMPDEST DUP2 CALLDATALOAD PUSH2 0x15BC DUP5 DUP3 PUSH1 0x20 DUP7 ADD PUSH2 0x152B JUMP JUMPDEST SWAP2 POP POP SWAP3 SWAP2 POP POP JUMP JUMPDEST PUSH1 0x0 DUP2 CALLDATALOAD SWAP1 POP PUSH2 0x15D4 DUP2 PUSH2 0x201A JUMP JUMPDEST SWAP3 SWAP2 POP POP JUMP JUMPDEST PUSH1 0x0 PUSH1 0x20 DUP3 DUP5 SUB SLT ISZERO PUSH2 0x15F0 JUMPI PUSH2 0x15EF PUSH2 0x1F3A JUMP JUMPDEST JUMPDEST PUSH1 0x0 PUSH2 0x15FE DUP5 DUP3 DUP6 ADD PUSH2 0x156D JUMP JUMPDEST SWAP2 POP POP SWAP3 SWAP2 POP POP JUMP JUMPDEST PUSH1 0x0 DUP1 PUSH1 0x0 PUSH1 0x60 DUP5 DUP7 SUB SLT ISZERO PUSH2 0x1620 JUMPI PUSH2 0x161F PUSH2 0x1F3A JUMP JUMPDEST JUMPDEST PUSH1 0x0 PUSH2 0x162E DUP7 DUP3 DUP8 ADD PUSH2 0x156D JUMP JUMPDEST SWAP4 POP POP PUSH1 0x20 PUSH2 0x163F DUP7 DUP3 DUP8 ADD PUSH2 0x1582 JUMP JUMPDEST SWAP3 POP POP PUSH1 0x40 DUP5 ADD CALLDATALOAD PUSH8 0xFFFFFFFFFFFFFFFF DUP2 GT ISZERO PUSH2 0x1660 JUMPI PUSH2 0x165F PUSH2 0x1F35 JUMP JUMPDEST JUMPDEST PUSH2 0x166C DUP7 DUP3 DUP8 ADD PUSH2 0x1597 JUMP JUMPDEST SWAP2 POP POP SWAP3 POP SWAP3 POP SWAP3 JUMP JUMPDEST PUSH1 0x0 DUP1 PUSH1 0x40 DUP4 DUP6 SUB SLT ISZERO PUSH2 0x168D JUMPI PUSH2 0x168C PUSH2 0x1F3A JUMP JUMPDEST JUMPDEST PUSH1 0x0 PUSH2 0x169B DUP6 DUP3 DUP7 ADD PUSH2 0x156D JUMP JUMPDEST SWAP3 POP POP PUSH1 0x20 PUSH2 0x16AC DUP6 DUP3 DUP7 ADD PUSH2 0x15C5 JUMP JUMPDEST SWAP2 POP POP SWAP3 POP SWAP3 SWAP1 POP JUMP JUMPDEST PUSH1 0x0 PUSH1 0x20 DUP3 DUP5 SUB SLT ISZERO PUSH2 0x16CC JUMPI PUSH2 0x16CB PUSH2 0x1F3A JUMP JUMPDEST JUMPDEST PUSH1 0x0 PUSH2 0x16DA DUP5 DUP3 DUP6 ADD PUSH2 0x15C5 JUMP JUMPDEST SWAP2 POP POP SWAP3 SWAP2 POP POP JUMP JUMPDEST PUSH1 0x0 DUP1 PUSH1 0x40 DUP4 DUP6 SUB SLT ISZERO PUSH2 0x16FA JUMPI PUSH2 0x16F9 PUSH2 0x1F3A JUMP JUMPDEST JUMPDEST PUSH1 0x0 PUSH2 0x1708 DUP6 DUP3 DUP7 ADD PUSH2 0x15C5 JUMP JUMPDEST SWAP3 POP POP PUSH1 0x20 PUSH2 0x1719 DUP6 DUP3 DUP7 ADD PUSH2 0x15C5 JUMP JUMPDEST SWAP2 POP POP SWAP3 POP SWAP3 SWAP1 POP JUMP JUMPDEST PUSH1 0x0 DUP1 PUSH1 0x0 DUP1 PUSH1 0x0 DUP1 PUSH1 0x0 DUP1 PUSH1 0x0 DUP1 PUSH2 0x140 DUP12 DUP14 SUB SLT ISZERO PUSH2 0x1747 JUMPI PUSH2 0x1746 PUSH2 0x1F3A JUMP JUMPDEST JUMPDEST PUSH1 0x0 PUSH2 0x1755 DUP14 DUP3 DUP15 ADD PUSH2 0x15C5 JUMP JUMPDEST SWAP11 POP POP PUSH1 0x20 PUSH2 0x1766 DUP14 DUP3 DUP15 ADD PUSH2 0x15C5 JUMP JUMPDEST SWAP10 POP POP PUSH1 0x40 PUSH2 0x1777 DUP14 DUP3 DUP15 ADD PUSH2 0x15C5 JUMP JUMPDEST SWAP9 POP POP PUSH1 0x60 DUP12 ADD CALLDATALOAD PUSH8 0xFFFFFFFFFFFFFFFF DUP2 GT ISZERO PUSH2 0x1798 JUMPI PUSH2 0x1797 PUSH2 0x1F35 JUMP JUMPDEST JUMPDEST PUSH2 0x17A4 DUP14 DUP3 DUP15 ADD PUSH2 0x1597 JUMP JUMPDEST SWAP8 POP POP PUSH1 0x80 DUP12 ADD CALLDATALOAD PUSH8 0xFFFFFFFFFFFFFFFF DUP2 GT ISZERO PUSH2 0x17C5 JUMPI PUSH2 0x17C4 PUSH2 0x1F35 JUMP JUMPDEST JUMPDEST PUSH2 0x17D1 DUP14 DUP3 DUP15 ADD PUSH2 0x1597 JUMP JUMPDEST SWAP7 POP POP PUSH1 0xA0 DUP12 ADD CALLDATALOAD PUSH8 0xFFFFFFFFFFFFFFFF DUP2 GT ISZERO PUSH2 0x17F2 JUMPI PUSH2 0x17F1 PUSH2 0x1F35 JUMP JUMPDEST JUMPDEST PUSH2 0x17FE DUP14 DUP3 DUP15 ADD PUSH2 0x1597 JUMP JUMPDEST SWAP6 POP POP PUSH1 0xC0 DUP12 ADD CALLDATALOAD PUSH8 0xFFFFFFFFFFFFFFFF DUP2 GT ISZERO PUSH2 0x181F JUMPI PUSH2 0x181E PUSH2 0x1F35 JUMP JUMPDEST JUMPDEST PUSH2 0x182B DUP14 DUP3 DUP15 ADD PUSH2 0x1597 JUMP JUMPDEST SWAP5 POP POP PUSH1 0xE0 DUP12 ADD CALLDATALOAD PUSH8 0xFFFFFFFFFFFFFFFF DUP2 GT ISZERO PUSH2 0x184C JUMPI PUSH2 0x184B PUSH2 0x1F35 JUMP JUMPDEST JUMPDEST PUSH2 0x1858 DUP14 DUP3 DUP15 ADD PUSH2 0x1597 JUMP JUMPDEST SWAP4 POP POP PUSH2 0x100 DUP12 ADD CALLDATALOAD PUSH8 0xFFFFFFFFFFFFFFFF DUP2 GT ISZERO PUSH2 0x187A JUMPI PUSH2 0x1879 PUSH2 0x1F35 JUMP JUMPDEST JUMPDEST PUSH2 0x1886 DUP14 DUP3 DUP15 ADD PUSH2 0x1597 JUMP JUMPDEST SWAP3 POP POP PUSH2 0x120 DUP12 ADD CALLDATALOAD PUSH8 0xFFFFFFFFFFFFFFFF DUP2 GT ISZERO PUSH2 0x18A8 JUMPI PUSH2 0x18A7 PUSH2 0x1F35 JUMP JUMPDEST JUMPDEST PUSH2 0x18B4 DUP14 DUP3 DUP15 ADD PUSH2 0x1597 JUMP JUMPDEST SWAP2 POP POP SWAP3 SWAP6 SWAP9 SWAP12 SWAP2 SWAP5 SWAP8 SWAP11 POP SWAP3 SWAP6 SWAP9 POP JUMP JUMPDEST PUSH2 0x18CF DUP2 PUSH2 0x1CDA JUMP JUMPDEST DUP3 MSTORE POP POP JUMP JUMPDEST PUSH2 0x18DE DUP2 PUSH2 0x1CC8 JUMP JUMPDEST DUP3 MSTORE POP POP JUMP JUMPDEST PUSH2 0x18ED DUP2 PUSH2 0x1CEC JUMP JUMPDEST DUP3 MSTORE POP POP JUMP JUMPDEST PUSH2 0x18FC DUP2 PUSH2 0x1D48 JUMP JUMPDEST DUP3 MSTORE POP POP JUMP JUMPDEST PUSH2 0x190B DUP2 PUSH2 0x1D5A JUMP JUMPDEST DUP3 MSTORE POP POP JUMP JUMPDEST PUSH1 0x0 PUSH2 0x191C DUP3 PUSH2 0x1BF1 JUMP JUMPDEST PUSH2 0x1926 DUP2 DUP6 PUSH2 0x1BFC JUMP JUMPDEST SWAP4 POP PUSH2 0x1936 DUP2 DUP6 PUSH1 0x20 DUP7 ADD PUSH2 0x1D7B JUMP JUMPDEST PUSH2 0x193F DUP2 PUSH2 0x1F3F JUMP JUMPDEST DUP5 ADD SWAP2 POP POP SWAP3 SWAP2 POP POP JUMP JUMPDEST PUSH1 0x0 PUSH2 0x1957 PUSH1 0x1C DUP4 PUSH2 0x1BFC JUMP JUMPDEST SWAP2 POP PUSH2 0x1962 DUP3 PUSH2 0x1F50 JUMP JUMPDEST PUSH1 0x20 DUP3 ADD SWAP1 POP SWAP2 SWAP1 POP JUMP JUMPDEST PUSH1 0x0 PUSH2 0x197A PUSH1 0x19 DUP4 PUSH2 0x1BFC JUMP JUMPDEST SWAP2 POP PUSH2 0x1985 DUP3 PUSH2 0x1F79 JUMP JUMPDEST PUSH1 0x20 DUP3 ADD SWAP1 POP SWAP2 SWAP1 POP JUMP JUMPDEST PUSH1 0x0 PUSH2 0x199D PUSH1 0x1E DUP4 PUSH2 0x1BFC JUMP JUMPDEST SWAP2 POP PUSH2 0x19A8 DUP3 PUSH2 0x1FA2 JUMP JUMPDEST PUSH1 0x20 DUP3 ADD SWAP1 POP SWAP2 SWAP1 POP JUMP JUMPDEST PUSH2 0x19BC DUP2 PUSH2 0x1D3E JUMP JUMPDEST DUP3 MSTORE POP POP JUMP JUMPDEST PUSH1 0x0 PUSH1 0x20 DUP3 ADD SWAP1 POP PUSH2 0x19D7 PUSH1 0x0 DUP4 ADD DUP5 PUSH2 0x18C6 JUMP JUMPDEST SWAP3 SWAP2 POP POP JUMP JUMPDEST PUSH1 0x0 PUSH1 0x20 DUP3 ADD SWAP1 POP PUSH2 0x19F2 PUSH1 0x0 DUP4 ADD DUP5 PUSH2 0x18E4 JUMP JUMPDEST SWAP3 SWAP2 POP POP JUMP JUMPDEST PUSH1 0x0 PUSH1 0x40 DUP3 ADD SWAP1 POP PUSH2 0x1A0D PUSH1 0x0 DUP4 ADD DUP6 PUSH2 0x18F3 JUMP JUMPDEST DUP2 DUP2 SUB PUSH1 0x20 DUP4 ADD MSTORE PUSH2 0x1A1F DUP2 DUP5 PUSH2 0x1911 JUMP JUMPDEST SWAP1 POP SWAP4 SWAP3 POP POP POP JUMP JUMPDEST PUSH1 0x0 PUSH1 0x20 DUP3 ADD SWAP1 POP DUP2 DUP2 SUB PUSH1 0x0 DUP4 ADD MSTORE PUSH2 0x1A42 DUP2 DUP5 PUSH2 0x1911 JUMP JUMPDEST SWAP1 POP SWAP3 SWAP2 POP POP JUMP JUMPDEST PUSH1 0x0 PUSH1 0x20 DUP3 ADD SWAP1 POP DUP2 DUP2 SUB PUSH1 0x0 DUP4 ADD MSTORE PUSH2 0x1A63 DUP2 PUSH2 0x194A JUMP JUMPDEST SWAP1 POP SWAP2 SWAP1 POP JUMP JUMPDEST PUSH1 0x0 PUSH1 0x20 DUP3 ADD SWAP1 POP DUP2 DUP2 SUB PUSH1 0x0 DUP4 ADD MSTORE PUSH2 0x1A83 DUP2 PUSH2 0x196D JUMP JUMPDEST SWAP1 POP SWAP2 SWAP1 POP JUMP JUMPDEST PUSH1 0x0 PUSH1 0x20 DUP3 ADD SWAP1 POP DUP2 DUP2 SUB PUSH1 0x0 DUP4 ADD MSTORE PUSH2 0x1AA3 DUP2 PUSH2 0x1990 JUMP JUMPDEST SWAP1 POP SWAP2 SWAP1 POP JUMP JUMPDEST PUSH1 0x0 PUSH1 0x20 DUP3 ADD SWAP1 POP PUSH2 0x1ABF PUSH1 0x0 DUP4 ADD DUP5 PUSH2 0x19B3 JUMP JUMPDEST SWAP3 SWAP2 POP POP JUMP JUMPDEST PUSH1 0x0 PUSH2 0x180 DUP3 ADD SWAP1 POP PUSH2 0x1ADB PUSH1 0x0 DUP4 ADD DUP16 PUSH2 0x19B3 JUMP JUMPDEST PUSH2 0x1AE8 PUSH1 0x20 DUP4 ADD DUP15 PUSH2 0x18D5 JUMP JUMPDEST PUSH2 0x1AF5 PUSH1 0x40 DUP4 ADD DUP14 PUSH2 0x18D5 JUMP JUMPDEST PUSH2 0x1B02 PUSH1 0x60 DUP4 ADD DUP13 PUSH2 0x1902 JUMP JUMPDEST PUSH2 0x1B0F PUSH1 0x80 DUP4 ADD DUP12 PUSH2 0x19B3 JUMP JUMPDEST PUSH2 0x1B1C PUSH1 0xA0 DUP4 ADD DUP11 PUSH2 0x18D5 JUMP JUMPDEST PUSH2 0x1B29 PUSH1 0xC0 DUP4 ADD DUP10 PUSH2 0x18D5 JUMP JUMPDEST PUSH2 0x1B36 PUSH1 0xE0 DUP4 ADD DUP9 PUSH2 0x18D5 JUMP JUMPDEST DUP2 DUP2 SUB PUSH2 0x100 DUP4 ADD MSTORE PUSH2 0x1B49 DUP2 DUP8 PUSH2 0x1911 JUMP JUMPDEST SWAP1 POP DUP2 DUP2 SUB PUSH2 0x120 DUP4 ADD MSTORE PUSH2 0x1B5E DUP2 DUP7 PUSH2 0x1911 JUMP JUMPDEST SWAP1 POP DUP2 DUP2 SUB PUSH2 0x140 DUP4 ADD MSTORE PUSH2 0x1B73 DUP2 DUP6 PUSH2 0x1911 JUMP JUMPDEST SWAP1 POP DUP2 DUP2 SUB PUSH2 0x160 DUP4 ADD MSTORE PUSH2 0x1B88 DUP2 DUP5 PUSH2 0x1911 JUMP JUMPDEST SWAP1 POP SWAP14 SWAP13 POP POP POP POP POP POP POP POP POP POP POP POP POP JUMP JUMPDEST PUSH1 0x0 PUSH2 0x1BA5 PUSH2 0x1BB6 JUMP JUMPDEST SWAP1 POP PUSH2 0x1BB1 DUP3 DUP3 PUSH2 0x1DE0 JUMP JUMPDEST SWAP2 SWAP1 POP JUMP JUMPDEST PUSH1 0x0 PUSH1 0x40 MLOAD SWAP1 POP SWAP1 JUMP JUMPDEST PUSH1 0x0 PUSH8 0xFFFFFFFFFFFFFFFF DUP3 GT ISZERO PUSH2 0x1BDB JUMPI PUSH2 0x1BDA PUSH2 0x1EFC JUMP JUMPDEST JUMPDEST PUSH2 0x1BE4 DUP3 PUSH2 0x1F3F JUMP JUMPDEST SWAP1 POP PUSH1 0x20 DUP2 ADD SWAP1 POP SWAP2 SWAP1 POP JUMP JUMPDEST PUSH1 0x0 DUP2 MLOAD SWAP1 POP SWAP2 SWAP1 POP JUMP JUMPDEST PUSH1 0x0 DUP3 DUP3 MSTORE PUSH1 0x20 DUP3 ADD SWAP1 POP SWAP3 SWAP2 POP POP JUMP JUMPDEST PUSH1 0x0 PUSH2 0x1C18 DUP3 PUSH2 0x1D3E JUMP JUMPDEST SWAP2 POP PUSH2 0x1C23 DUP4 PUSH2 0x1D3E JUMP JUMPDEST SWAP3 POP DUP3 PUSH32 0xFFFFFFFFFFFFFFFFFFFFFFFFFFFFFFFFFFFFFFFFFFFFFFFFFFFFFFFFFFFFFFFF SUB DUP3 GT ISZERO PUSH2 0x1C58 JUMPI PUSH2 0x1C57 PUSH2 0x1E11 JUMP JUMPDEST JUMPDEST DUP3 DUP3 ADD SWAP1 POP SWAP3 SWAP2 POP POP JUMP JUMPDEST PUSH1 0x0 PUSH2 0x1C6E DUP3 PUSH2 0x1D3E JUMP JUMPDEST SWAP2 POP PUSH2 0x1C79 DUP4 PUSH2 0x1D3E JUMP JUMPDEST SWAP3 POP DUP3 PUSH2 0x1C89 JUMPI PUSH2 0x1C88 PUSH2 0x1E40 JUMP JUMPDEST JUMPDEST DUP3 DUP3 DIV SWAP1 POP SWAP3 SWAP2 POP POP JUMP JUMPDEST PUSH1 0x0 PUSH2 0x1C9F DUP3 PUSH2 0x1D3E JUMP JUMPDEST SWAP2 POP PUSH2 0x1CAA DUP4 PUSH2 0x1D3E JUMP JUMPDEST SWAP3 POP DUP3 DUP3 LT ISZERO PUSH2 0x1CBD JUMPI PUSH2 0x1CBC PUSH2 0x1E11 JUMP JUMPDEST JUMPDEST DUP3 DUP3 SUB SWAP1 POP SWAP3 SWAP2 POP POP JUMP JUMPDEST PUSH1 0x0 PUSH2 0x1CD3 DUP3 PUSH2 0x1D1E JUMP JUMPDEST SWAP1 POP SWAP2 SWAP1 POP JUMP JUMPDEST PUSH1 0x0 PUSH2 0x1CE5 DUP3 PUSH2 0x1D1E JUMP JUMPDEST SWAP1 POP SWAP2 SWAP1 POP JUMP JUMPDEST PUSH1 0x0 DUP2 ISZERO ISZERO SWAP1 POP SWAP2 SWAP1 POP JUMP JUMPDEST PUSH1 0x0 DUP2 SWAP1 POP PUSH2 0x1D06 DUP3 PUSH2 0x1FCB JUMP JUMPDEST SWAP2 SWAP1 POP JUMP JUMPDEST PUSH1 0x0 DUP2 SWAP1 POP PUSH2 0x1D19 DUP3 PUSH2 0x1FDF JUMP JUMPDEST SWAP2 SWAP1 POP JUMP JUMPDEST PUSH1 0x0 PUSH20 0xFFFFFFFFFFFFFFFFFFFFFFFFFFFFFFFFFFFFFFFF DUP3 AND SWAP1 POP SWAP2 SWAP1 POP JUMP JUMPDEST PUSH1 0x0 DUP2 SWAP1 POP SWAP2 SWAP1 POP JUMP JUMPDEST PUSH1 0x0 PUSH2 0x1D53 DUP3 PUSH2 0x1CF8 JUMP JUMPDEST SWAP1 POP SWAP2 SWAP1 POP JUMP JUMPDEST PUSH1 0x0 PUSH2 0x1D65 DUP3 PUSH2 0x1D0B JUMP JUMPDEST SWAP1 POP SWAP2 SWAP1 POP JUMP JUMPDEST DUP3 DUP2 DUP4 CALLDATACOPY PUSH1 0x0 DUP4 DUP4 ADD MSTORE POP POP POP JUMP JUMPDEST PUSH1 0x0 JUMPDEST DUP4 DUP2 LT ISZERO PUSH2 0x1D99 JUMPI DUP1 DUP3 ADD MLOAD DUP2 DUP5 ADD MSTORE PUSH1 0x20 DUP2 ADD SWAP1 POP PUSH2 0x1D7E JUMP JUMPDEST DUP4 DUP2 GT ISZERO PUSH2 0x1DA8 JUMPI PUSH1 0x0 DUP5 DUP5 ADD MSTORE JUMPDEST POP POP POP POP JUMP JUMPDEST PUSH1 0x0 PUSH1 0x2 DUP3 DIV SWAP1 POP PUSH1 0x1 DUP3 AND DUP1 PUSH2 0x1DC6 JUMPI PUSH1 0x7F DUP3 AND SWAP2 POP JUMPDEST PUSH1 0x20 DUP3 LT DUP2 EQ ISZERO PUSH2 0x1DDA JUMPI PUSH2 0x1DD9 PUSH2 0x1E9E JUMP JUMPDEST JUMPDEST POP SWAP2 SWAP1 POP JUMP JUMPDEST PUSH2 0x1DE9 DUP3 PUSH2 0x1F3F JUMP JUMPDEST DUP2 ADD DUP2 DUP2 LT PUSH8 0xFFFFFFFFFFFFFFFF DUP3 GT OR ISZERO PUSH2 0x1E08 JUMPI PUSH2 0x1E07 PUSH2 0x1EFC JUMP JUMPDEST JUMPDEST DUP1 PUSH1 0x40 MSTORE POP POP POP JUMP JUMPDEST PUSH32 0x4E487B7100000000000000000000000000000000000000000000000000000000 PUSH1 0x0 MSTORE PUSH1 0x11 PUSH1 0x4 MSTORE PUSH1 0x24 PUSH1 0x0 REVERT JUMPDEST PUSH32 0x4E487B7100000000000000000000000000000000000000000000000000000000 PUSH1 0x0 MSTORE PUSH1 0x12 PUSH1 0x4 MSTORE PUSH1 0x24 PUSH1 0x0 REVERT JUMPDEST PUSH32 0x4E487B7100000000000000000000000000000000000000000000000000000000 PUSH1 0x0 MSTORE PUSH1 0x21 PUSH1 0x4 MSTORE PUSH1 0x24 PUSH1 0x0 REVERT JUMPDEST PUSH32 0x4E487B7100000000000000000000000000000000000000000000000000000000 PUSH1 0x0 MSTORE PUSH1 0x22 PUSH1 0x4 MSTORE PUSH1 0x24 PUSH1 0x0 REVERT JUMPDEST PUSH32 0x4E487B7100000000000000000000000000000000000000000000000000000000 PUSH1 0x0 MSTORE PUSH1 0x32 PUSH1 0x4 MSTORE PUSH1 0x24 PUSH1 0x0 REVERT JUMPDEST PUSH32 0x4E487B7100000000000000000000000000000000000000000000000000000000 PUSH1 0x0 MSTORE PUSH1 0x41 PUSH1 0x4 MSTORE PUSH1 0x24 PUSH1 0x0 REVERT JUMPDEST PUSH1 0x0 DUP1 REVERT JUMPDEST PUSH1 0x0 DUP1 REVERT JUMPDEST PUSH1 0x0 DUP1 REVERT JUMPDEST PUSH1 0x0 DUP1 REVERT JUMPDEST PUSH1 0x0 PUSH1 0x1F NOT PUSH1 0x1F DUP4 ADD AND SWAP1 POP SWAP2 SWAP1 POP JUMP JUMPDEST PUSH32 0x63616C6C6572206973206E6F742061206469737472696275746F722E00000000 PUSH1 0x0 DUP3 ADD MSTORE POP JUMP JUMPDEST PUSH32 0x63616C6C6572206973206E6F7420612070726F64756365722E00000000000000 PUSH1 0x0 DUP3 ADD MSTORE POP JUMP JUMPDEST PUSH32 0x63616C6C6572206973206E6F742074686520746F6B656E206F776E65722E0000 PUSH1 0x0 DUP3 ADD MSTORE POP JUMP JUMPDEST PUSH1 0x5 DUP2 LT PUSH2 0x1FDC JUMPI PUSH2 0x1FDB PUSH2 0x1E6F JUMP JUMPDEST JUMPDEST POP JUMP JUMPDEST PUSH1 0x6 DUP2 LT PUSH2 0x1FF0 JUMPI PUSH2 0x1FEF PUSH2 0x1E6F JUMP JUMPDEST JUMPDEST POP JUMP JUMPDEST PUSH2 0x1FFC DUP2 PUSH2 0x1CC8 JUMP JUMPDEST DUP2 EQ PUSH2 0x2007 JUMPI PUSH1 0x0 DUP1 REVERT JUMPDEST POP JUMP JUMPDEST PUSH1 0x5 DUP2 LT PUSH2 0x2017 JUMPI PUSH1 0x0 DUP1 REVERT JUMPDEST POP JUMP JUMPDEST PUSH2 0x2023 DUP2 PUSH2 0x1D3E JUMP JUMPDEST DUP2 EQ PUSH2 0x202E JUMPI PUSH1 0x0 DUP1 REVERT JUMPDEST POP JUMP INVALID LOG2 PUSH5 0x6970667358 0x22 SLT KECCAK256 0xAF SWAP9 0xB9 MOD 0xDA 0xF9 TIMESTAMP PUSH12 0x2E537DFCEE98DF007B55A18F LT COINBASE CREATE 0xF ADDRESS SMOD 0xAD CREATE 0xE7 SWAP14 SWAP14 LOG3 PUSH5 0x736F6C6343 STOP ADDMOD SMOD STOP CALLER "
				},
				"gasEstimates": {
					"creation": {
						"codeDepositCost": "1659000",
						"executionCost": "infinite",
						"totalCost": "infinite"
					},
					"external": {
						"burn(address,uint256)": "infinite",
						"buyProduct(uint256,uint256)": "infinite",
						"buyToken()": "infinite",
						"etherBalance(address)": "3301",
						"getActorInfo(address)": "infinite",
						"getProductInfo(uint256,uint256)": "infinite",
						"mint(uint256)": "infinite",
						"name()": "infinite",
						"produceProduct(uint256,uint256,uint256,string,string,string,string,string,string,string)": "infinite",
						"register(address,uint8,string)": "infinite",
						"symbol()": "infinite",
						"tokenBalance(address)": "2929",
						"tokenOwner()": "2559",
						"tokenTransfer(address,uint256)": "infinite"
					}
				},
				"methodIdentifiers": {
					"burn(address,uint256)": "9dc29fac",
					"buyProduct(uint256,uint256)": "53b62866",
					"buyToken()": "a4821719",
					"etherBalance(address)": "cd0c5896",
					"getActorInfo(address)": "b292abf1",
					"getProductInfo(uint256,uint256)": "d2c351b4",
					"mint(uint256)": "a0712d68",
					"name()": "06fdde03",
					"produceProduct(uint256,uint256,uint256,string,string,string,string,string,string,string)": "561e0e98",
					"register(address,uint8,string)": "40932fc2",
					"symbol()": "95d89b41",
					"tokenBalance(address)": "eedc966a",
					"tokenOwner()": "a3e67610",
					"tokenTransfer(address,uint256)": "68cdafe6"
				}
			},
			"storageLayout": {
				"storage": [
					{
						"astId": 3,
						"contract": "contracts/4_Product.sol:ProductSC",
						"label": "name",
						"offset": 0,
						"slot": "0",
						"type": "t_string_storage"
					},
					{
						"astId": 5,
						"contract": "contracts/4_Product.sol:ProductSC",
						"label": "symbol",
						"offset": 0,
						"slot": "1",
						"type": "t_string_storage"
					},
					{
						"astId": 7,
						"contract": "contracts/4_Product.sol:ProductSC",
						"label": "tokenOwner",
						"offset": 0,
						"slot": "2",
						"type": "t_address_payable"
					},
					{
						"astId": 15,
						"contract": "contracts/4_Product.sol:ProductSC",
						"label": "_totalSupply",
						"offset": 0,
						"slot": "3",
						"type": "t_uint256"
					},
					{
						"astId": 80,
						"contract": "contracts/4_Product.sol:ProductSC",
						"label": "balances",
						"offset": 0,
						"slot": "4",
						"type": "t_mapping(t_address,t_uint256)"
					},
					{
						"astId": 85,
						"contract": "contracts/4_Product.sol:ProductSC",
						"label": "actors",
						"offset": 0,
						"slot": "5",
						"type": "t_mapping(t_address,t_struct(Actor)61_storage)"
					},
					{
						"astId": 90,
						"contract": "contracts/4_Product.sol:ProductSC",
						"label": "product",
						"offset": 0,
						"slot": "6",
						"type": "t_mapping(t_uint256,t_struct(Product)53_storage)"
					}
				],
				"types": {
					"t_address": {
						"encoding": "inplace",
						"label": "address",
						"numberOfBytes": "20"
					},
					"t_address_payable": {
						"encoding": "inplace",
						"label": "address payable",
						"numberOfBytes": "20"
					},
					"t_array(t_uint256)6_storage": {
						"base": "t_uint256",
						"encoding": "inplace",
						"label": "uint256[6]",
						"numberOfBytes": "192"
					},
					"t_bool": {
						"encoding": "inplace",
						"label": "bool",
						"numberOfBytes": "1"
					},
					"t_enum(Role)28": {
						"encoding": "inplace",
						"label": "enum ProductSC.Role",
						"numberOfBytes": "1"
					},
					"t_enum(State)22": {
						"encoding": "inplace",
						"label": "enum ProductSC.State",
						"numberOfBytes": "1"
					},
					"t_mapping(t_address,t_struct(Actor)61_storage)": {
						"encoding": "mapping",
						"key": "t_address",
						"label": "mapping(address => struct ProductSC.Actor)",
						"numberOfBytes": "32",
						"value": "t_struct(Actor)61_storage"
					},
					"t_mapping(t_address,t_uint256)": {
						"encoding": "mapping",
						"key": "t_address",
						"label": "mapping(address => uint256)",
						"numberOfBytes": "32",
						"value": "t_uint256"
					},
					"t_mapping(t_uint256,t_struct(Product)53_storage)": {
						"encoding": "mapping",
						"key": "t_uint256",
						"label": "mapping(uint256 => struct ProductSC.Product)",
						"numberOfBytes": "32",
						"value": "t_struct(Product)53_storage"
					},
					"t_string_storage": {
						"encoding": "bytes",
						"label": "string",
						"numberOfBytes": "32"
					},
					"t_struct(Actor)61_storage": {
						"encoding": "inplace",
						"label": "struct ProductSC.Actor",
						"members": [
							{
								"astId": 56,
								"contract": "contracts/4_Product.sol:ProductSC",
								"label": "role",
								"offset": 0,
								"slot": "0",
								"type": "t_enum(Role)28"
							},
							{
								"astId": 58,
								"contract": "contracts/4_Product.sol:ProductSC",
								"label": "name",
								"offset": 0,
								"slot": "1",
								"type": "t_string_storage"
							},
							{
								"astId": 60,
								"contract": "contracts/4_Product.sol:ProductSC",
								"label": "isDefined",
								"offset": 0,
								"slot": "2",
								"type": "t_bool"
							}
						],
						"numberOfBytes": "96"
					},
					"t_struct(Details)76_storage": {
						"encoding": "inplace",
						"label": "struct ProductSC.Details",
						"members": [
							{
								"astId": 63,
								"contract": "contracts/4_Product.sol:ProductSC",
								"label": "name",
								"offset": 0,
								"slot": "0",
								"type": "t_string_storage"
							},
							{
								"astId": 65,
								"contract": "contracts/4_Product.sol:ProductSC",
								"label": "brand",
								"offset": 0,
								"slot": "1",
								"type": "t_string_storage"
							},
							{
								"astId": 67,
								"contract": "contracts/4_Product.sol:ProductSC",
								"label": "size",
								"offset": 0,
								"slot": "2",
								"type": "t_string_storage"
							},
							{
								"astId": 69,
								"contract": "contracts/4_Product.sol:ProductSC",
								"label": "weight",
								"offset": 0,
								"slot": "3",
								"type": "t_string_storage"
							},
							{
								"astId": 71,
								"contract": "contracts/4_Product.sol:ProductSC",
								"label": "length",
								"offset": 0,
								"slot": "4",
								"type": "t_string_storage"
							},
							{
								"astId": 73,
								"contract": "contracts/4_Product.sol:ProductSC",
								"label": "width",
								"offset": 0,
								"slot": "5",
								"type": "t_string_storage"
							},
							{
								"astId": 75,
								"contract": "contracts/4_Product.sol:ProductSC",
								"label": "height",
								"offset": 0,
								"slot": "6",
								"type": "t_string_storage"
							}
						],
						"numberOfBytes": "224"
					},
					"t_struct(Product)53_storage": {
						"encoding": "inplace",
						"label": "struct ProductSC.Product",
						"members": [
							{
								"astId": 30,
								"contract": "contracts/4_Product.sol:ProductSC",
								"label": "ID",
								"offset": 0,
								"slot": "0",
								"type": "t_uint256"
							},
							{
								"astId": 32,
								"contract": "contracts/4_Product.sol:ProductSC",
								"label": "ownerID",
								"offset": 0,
								"slot": "1",
								"type": "t_address"
							},
							{
								"astId": 34,
								"contract": "contracts/4_Product.sol:ProductSC",
								"label": "producerID",
								"offset": 0,
								"slot": "2",
								"type": "t_address"
							},
							{
								"astId": 38,
								"contract": "contracts/4_Product.sol:ProductSC",
								"label": "timestamp",
								"offset": 0,
								"slot": "3",
								"type": "t_array(t_uint256)6_storage"
							},
							{
								"astId": 41,
								"contract": "contracts/4_Product.sol:ProductSC",
								"label": "productState",
								"offset": 0,
								"slot": "9",
								"type": "t_enum(State)22"
							},
							{
								"astId": 43,
								"contract": "contracts/4_Product.sol:ProductSC",
								"label": "productPrice",
								"offset": 0,
								"slot": "10",
								"type": "t_uint256"
							},
							{
								"astId": 45,
								"contract": "contracts/4_Product.sol:ProductSC",
								"label": "distributorID",
								"offset": 0,
								"slot": "11",
								"type": "t_address"
							},
							{
								"astId": 47,
								"contract": "contracts/4_Product.sol:ProductSC",
								"label": "retailerID",
								"offset": 0,
								"slot": "12",
								"type": "t_address"
							},
							{
								"astId": 49,
								"contract": "contracts/4_Product.sol:ProductSC",
								"label": "consumerID",
								"offset": 0,
								"slot": "13",
								"type": "t_address"
							},
							{
								"astId": 52,
								"contract": "contracts/4_Product.sol:ProductSC",
								"label": "details",
								"offset": 0,
								"slot": "14",
								"type": "t_struct(Details)76_storage"
							}
						],
						"numberOfBytes": "672"
					},
					"t_uint256": {
						"encoding": "inplace",
						"label": "uint256",
						"numberOfBytes": "32"
					}
				}
			},
			"userdoc": {
				"kind": "user",
				"methods": {},
				"version": 1
			}
		}
	}
}