{
	"contracts/4_Product.sol": {
		"ProductSC": {
			"abi": [
				{
					"inputs": [
						{
							"internalType": "string",
							"name": "_name",
							"type": "string"
						},
						{
							"internalType": "string",
							"name": "_symbol",
							"type": "string"
						},
						{
							"internalType": "uint256",
							"name": "_initialSupply",
							"type": "uint256"
						}
					],
					"stateMutability": "nonpayable",
					"type": "constructor"
				},
				{
					"inputs": [
						{
							"internalType": "address",
							"name": "_account",
							"type": "address"
						},
						{
							"internalType": "uint256",
							"name": "_amount",
							"type": "uint256"
						}
					],
					"name": "burn",
					"outputs": [],
					"stateMutability": "nonpayable",
					"type": "function"
				},
				{
					"inputs": [
						{
							"internalType": "uint256",
							"name": "_id",
							"type": "uint256"
						},
						{
							"internalType": "uint256",
							"name": "_timestamp",
							"type": "uint256"
						},
						{
							"internalType": "string",
							"name": "_log",
							"type": "string"
						}
					],
					"name": "buyProduct",
					"outputs": [],
					"stateMutability": "nonpayable",
					"type": "function"
				},
				{
					"inputs": [],
					"name": "buyToken",
					"outputs": [],
					"stateMutability": "payable",
					"type": "function"
				},
				{
					"inputs": [
						{
							"internalType": "address",
							"name": "_addr",
							"type": "address"
						}
					],
					"name": "etherBalance",
					"outputs": [
						{
							"internalType": "uint256",
							"name": "",
							"type": "uint256"
						}
					],
					"stateMutability": "view",
					"type": "function"
				},
				{
					"inputs": [
						{
							"internalType": "address",
							"name": "_addr",
							"type": "address"
						}
					],
					"name": "getActorInfo",
					"outputs": [
						{
							"internalType": "enum ProductSC.Role",
							"name": "_role",
							"type": "uint8"
						},
						{
							"internalType": "string",
							"name": "_name",
							"type": "string"
						}
					],
					"stateMutability": "view",
					"type": "function"
				},
				{
					"inputs": [
						{
							"internalType": "uint256",
							"name": "_amount",
							"type": "uint256"
						}
					],
					"name": "mint",
					"outputs": [],
					"stateMutability": "nonpayable",
					"type": "function"
				},
				{
					"inputs": [],
					"name": "name",
					"outputs": [
						{
							"internalType": "string",
							"name": "",
							"type": "string"
						}
					],
					"stateMutability": "view",
					"type": "function"
				},
				{
					"inputs": [
						{
							"internalType": "uint256",
							"name": "_id",
							"type": "uint256"
						},
						{
							"internalType": "uint256",
							"name": "_timestamp",
							"type": "uint256"
						},
						{
							"internalType": "uint256",
							"name": "_price",
							"type": "uint256"
						},
						{
							"internalType": "string",
							"name": "_name",
							"type": "string"
						},
						{
							"internalType": "string",
							"name": "_brand",
							"type": "string"
						},
						{
							"internalType": "string",
							"name": "_size",
							"type": "string"
						},
						{
							"internalType": "string",
							"name": "_weight",
							"type": "string"
						},
						{
							"internalType": "string",
							"name": "_length",
							"type": "string"
						},
						{
							"internalType": "string",
							"name": "_width",
							"type": "string"
						},
						{
							"internalType": "string",
							"name": "_height",
							"type": "string"
						}
					],
					"name": "produceProduct",
					"outputs": [],
					"stateMutability": "nonpayable",
					"type": "function"
				},
				{
					"inputs": [
						{
							"internalType": "address",
							"name": "_addr",
							"type": "address"
						},
						{
							"internalType": "enum ProductSC.Role",
							"name": "_role",
							"type": "uint8"
						},
						{
							"internalType": "string",
							"name": "_name",
							"type": "string"
						}
					],
					"name": "register",
					"outputs": [],
					"stateMutability": "nonpayable",
					"type": "function"
				},
				{
					"inputs": [],
					"name": "symbol",
					"outputs": [
						{
							"internalType": "string",
							"name": "",
							"type": "string"
						}
					],
					"stateMutability": "view",
					"type": "function"
				},
				{
					"inputs": [
						{
							"internalType": "address",
							"name": "_addr",
							"type": "address"
						}
					],
					"name": "tokenBalance",
					"outputs": [
						{
							"internalType": "uint256",
							"name": "",
							"type": "uint256"
						}
					],
					"stateMutability": "view",
					"type": "function"
				},
				{
					"inputs": [],
					"name": "tokenOwner",
					"outputs": [
						{
							"internalType": "address payable",
							"name": "",
							"type": "address"
						}
					],
					"stateMutability": "view",
					"type": "function"
				},
				{
					"inputs": [
						{
							"internalType": "address",
							"name": "_to",
							"type": "address"
						},
						{
							"internalType": "uint256",
							"name": "_amount",
							"type": "uint256"
						}
					],
					"name": "tokenTransfer",
					"outputs": [
						{
							"internalType": "bool",
							"name": "",
							"type": "bool"
						}
					],
					"stateMutability": "nonpayable",
					"type": "function"
				}
			],
			"devdoc": {
				"kind": "dev",
				"methods": {},
				"version": 1
			},
			"evm": {
				"assembly": "    /* \"contracts/4_Product.sol\":35:9789  contract ProductSC {\r... */\n  mstore(0x40, 0x80)\n    /* \"contracts/4_Product.sol\":2204:2584  constructor (string memory _name, string memory _symbol, uint256 _initialSupply) {\r... */\n  callvalue\n  dup1\n  iszero\n  tag_1\n  jumpi\n  0x00\n  dup1\n  revert\ntag_1:\n  pop\n  mload(0x40)\n  sub(codesize, bytecodeSize)\n  dup1\n  bytecodeSize\n  dup4\n  codecopy\n  dup2\n  dup2\n  add\n  0x40\n  mstore\n  dup2\n  add\n  swap1\n  tag_2\n  swap2\n  swap1\n  tag_3\n  jump\t// in\ntag_2:\n    /* \"contracts/4_Product.sol\":2303:2308  _name */\n  dup3\n    /* \"contracts/4_Product.sol\":2296:2300  name */\n  0x00\n    /* \"contracts/4_Product.sol\":2296:2308  name = _name */\n  swap1\n  dup1\n  mload\n  swap1\n  0x20\n  add\n  swap1\n  tag_6\n  swap3\n  swap2\n  swap1\n  tag_7\n  jump\t// in\ntag_6:\n  pop\n    /* \"contracts/4_Product.sol\":2328:2335  _symbol */\n  dup2\n    /* \"contracts/4_Product.sol\":2319:2325  symbol */\n  0x01\n    /* \"contracts/4_Product.sol\":2319:2335  symbol = _symbol */\n  swap1\n  dup1\n  mload\n  swap1\n  0x20\n  add\n  swap1\n  tag_8\n  swap3\n  swap2\n  swap1\n  tag_7\n  jump\t// in\ntag_8:\n  pop\n    /* \"contracts/4_Product.sol\":2361:2375  _initialSupply */\n  dup1\n    /* \"contracts/4_Product.sol\":2346:2358  _totalSupply */\n  0x03\n    /* \"contracts/4_Product.sol\":2346:2375  _totalSupply = _initialSupply */\n  dup2\n  swap1\n  sstore\n  pop\n    /* \"contracts/4_Product.sol\":2407:2417  msg.sender */\n  caller\n    /* \"contracts/4_Product.sol\":2386:2396  tokenOwner */\n  0x02\n  0x00\n    /* \"contracts/4_Product.sol\":2386:2418  tokenOwner = payable(msg.sender) */\n  0x0100\n  exp\n  dup2\n  sload\n  dup2\n  0xffffffffffffffffffffffffffffffffffffffff\n  mul\n  not\n  and\n  swap1\n  dup4\n  0xffffffffffffffffffffffffffffffffffffffff\n  and\n  mul\n  or\n  swap1\n  sstore\n  pop\n    /* \"contracts/4_Product.sol\":2495:2509  _initialSupply */\n  dup1\n    /* \"contracts/4_Product.sol\":2472:2480  balances */\n  0x04\n    /* \"contracts/4_Product.sol\":2472:2492  balances[msg.sender] */\n  0x00\n    /* \"contracts/4_Product.sol\":2481:2491  msg.sender */\n  caller\n    /* \"contracts/4_Product.sol\":2472:2492  balances[msg.sender] */\n  0xffffffffffffffffffffffffffffffffffffffff\n  and\n  0xffffffffffffffffffffffffffffffffffffffff\n  and\n  dup2\n  mstore\n  0x20\n  add\n  swap1\n  dup2\n  mstore\n  0x20\n  add\n  0x00\n  keccak256\n    /* \"contracts/4_Product.sol\":2472:2509  balances[msg.sender] = _initialSupply */\n  dup2\n  swap1\n  sstore\n  pop\n    /* \"contracts/4_Product.sol\":2204:2584  constructor (string memory _name, string memory _symbol, uint256 _initialSupply) {\r... */\n  pop\n  pop\n  pop\n    /* \"contracts/4_Product.sol\":35:9789  contract ProductSC {\r... */\n  jump(tag_9)\ntag_7:\n  dup3\n  dup1\n  sload\n  tag_10\n  swap1\n  tag_11\n  jump\t// in\ntag_10:\n  swap1\n  0x00\n  mstore\n  keccak256(0x00, 0x20)\n  swap1\n  0x1f\n  add\n  0x20\n  swap1\n  div\n  dup2\n  add\n  swap3\n  dup3\n  tag_13\n  jumpi\n  0x00\n  dup6\n  sstore\n  jump(tag_12)\ntag_13:\n  dup3\n  0x1f\n  lt\n  tag_14\n  jumpi\n  dup1\n  mload\n  not(0xff)\n  and\n  dup4\n  dup1\n  add\n  or\n  dup6\n  sstore\n  jump(tag_12)\ntag_14:\n  dup3\n  dup1\n  add\n  0x01\n  add\n  dup6\n  sstore\n  dup3\n  iszero\n  tag_12\n  jumpi\n  swap2\n  dup3\n  add\ntag_15:\n  dup3\n  dup2\n  gt\n  iszero\n  tag_16\n  jumpi\n  dup3\n  mload\n  dup3\n  sstore\n  swap2\n  0x20\n  add\n  swap2\n  swap1\n  0x01\n  add\n  swap1\n  jump(tag_15)\ntag_16:\ntag_12:\n  pop\n  swap1\n  pop\n  tag_17\n  swap2\n  swap1\n  tag_18\n  jump\t// in\ntag_17:\n  pop\n  swap1\n  jump\t// out\ntag_18:\ntag_19:\n  dup1\n  dup3\n  gt\n  iszero\n  tag_20\n  jumpi\n  0x00\n  dup2\n  0x00\n  swap1\n  sstore\n  pop\n  0x01\n  add\n  jump(tag_19)\ntag_20:\n  pop\n  swap1\n  jump\t// out\n    /* \"#utility.yul\":7:428   */\ntag_22:\n    /* \"#utility.yul\":96:101   */\n  0x00\n    /* \"#utility.yul\":121:187   */\n  tag_24\n    /* \"#utility.yul\":137:186   */\n  tag_25\n    /* \"#utility.yul\":179:185   */\n  dup5\n    /* \"#utility.yul\":137:186   */\n  tag_26\n  jump\t// in\ntag_25:\n    /* \"#utility.yul\":121:187   */\n  tag_27\n  jump\t// in\ntag_24:\n    /* \"#utility.yul\":112:187   */\n  swap1\n  pop\n    /* \"#utility.yul\":210:216   */\n  dup3\n    /* \"#utility.yul\":203:208   */\n  dup2\n    /* \"#utility.yul\":196:217   */\n  mstore\n    /* \"#utility.yul\":248:252   */\n  0x20\n    /* \"#utility.yul\":241:246   */\n  dup2\n    /* \"#utility.yul\":237:253   */\n  add\n    /* \"#utility.yul\":286:289   */\n  dup5\n    /* \"#utility.yul\":277:283   */\n  dup5\n    /* \"#utility.yul\":272:275   */\n  dup5\n    /* \"#utility.yul\":268:284   */\n  add\n    /* \"#utility.yul\":265:290   */\n  gt\n    /* \"#utility.yul\":262:374   */\n  iszero\n  tag_28\n  jumpi\n    /* \"#utility.yul\":293:372   */\n  tag_29\n  tag_30\n  jump\t// in\ntag_29:\n    /* \"#utility.yul\":262:374   */\ntag_28:\n    /* \"#utility.yul\":383:422   */\n  tag_31\n    /* \"#utility.yul\":415:421   */\n  dup5\n    /* \"#utility.yul\":410:413   */\n  dup3\n    /* \"#utility.yul\":405:408   */\n  dup6\n    /* \"#utility.yul\":383:422   */\n  tag_32\n  jump\t// in\ntag_31:\n    /* \"#utility.yul\":102:428   */\n  pop\n    /* \"#utility.yul\":7:428   */\n  swap4\n  swap3\n  pop\n  pop\n  pop\n  jump\t// out\n    /* \"#utility.yul\":448:803   */\ntag_33:\n    /* \"#utility.yul\":515:520   */\n  0x00\n    /* \"#utility.yul\":564:567   */\n  dup3\n    /* \"#utility.yul\":557:561   */\n  0x1f\n    /* \"#utility.yul\":549:555   */\n  dup4\n    /* \"#utility.yul\":545:562   */\n  add\n    /* \"#utility.yul\":541:568   */\n  slt\n    /* \"#utility.yul\":531:653   */\n  tag_35\n  jumpi\n    /* \"#utility.yul\":572:651   */\n  tag_36\n  tag_37\n  jump\t// in\ntag_36:\n    /* \"#utility.yul\":531:653   */\ntag_35:\n    /* \"#utility.yul\":682:688   */\n  dup2\n    /* \"#utility.yul\":676:689   */\n  mload\n    /* \"#utility.yul\":707:797   */\n  tag_38\n    /* \"#utility.yul\":793:796   */\n  dup5\n    /* \"#utility.yul\":785:791   */\n  dup3\n    /* \"#utility.yul\":778:782   */\n  0x20\n    /* \"#utility.yul\":770:776   */\n  dup7\n    /* \"#utility.yul\":766:783   */\n  add\n    /* \"#utility.yul\":707:797   */\n  tag_22\n  jump\t// in\ntag_38:\n    /* \"#utility.yul\":698:797   */\n  swap2\n  pop\n    /* \"#utility.yul\":521:803   */\n  pop\n    /* \"#utility.yul\":448:803   */\n  swap3\n  swap2\n  pop\n  pop\n  jump\t// out\n    /* \"#utility.yul\":809:952   */\ntag_39:\n    /* \"#utility.yul\":866:871   */\n  0x00\n    /* \"#utility.yul\":897:903   */\n  dup2\n    /* \"#utility.yul\":891:904   */\n  mload\n    /* \"#utility.yul\":882:904   */\n  swap1\n  pop\n    /* \"#utility.yul\":913:946   */\n  tag_41\n    /* \"#utility.yul\":940:945   */\n  dup2\n    /* \"#utility.yul\":913:946   */\n  tag_42\n  jump\t// in\ntag_41:\n    /* \"#utility.yul\":809:952   */\n  swap3\n  swap2\n  pop\n  pop\n  jump\t// out\n    /* \"#utility.yul\":958:1967   */\ntag_3:\n    /* \"#utility.yul\":1066:1072   */\n  0x00\n    /* \"#utility.yul\":1074:1080   */\n  dup1\n    /* \"#utility.yul\":1082:1088   */\n  0x00\n    /* \"#utility.yul\":1131:1133   */\n  0x60\n    /* \"#utility.yul\":1119:1128   */\n  dup5\n    /* \"#utility.yul\":1110:1117   */\n  dup7\n    /* \"#utility.yul\":1106:1129   */\n  sub\n    /* \"#utility.yul\":1102:1134   */\n  slt\n    /* \"#utility.yul\":1099:1218   */\n  iszero\n  tag_44\n  jumpi\n    /* \"#utility.yul\":1137:1216   */\n  tag_45\n  tag_46\n  jump\t// in\ntag_45:\n    /* \"#utility.yul\":1099:1218   */\ntag_44:\n    /* \"#utility.yul\":1278:1279   */\n  0x00\n    /* \"#utility.yul\":1267:1276   */\n  dup5\n    /* \"#utility.yul\":1263:1280   */\n  add\n    /* \"#utility.yul\":1257:1281   */\n  mload\n    /* \"#utility.yul\":1308:1326   */\n  0xffffffffffffffff\n    /* \"#utility.yul\":1300:1306   */\n  dup2\n    /* \"#utility.yul\":1297:1327   */\n  gt\n    /* \"#utility.yul\":1294:1411   */\n  iszero\n  tag_47\n  jumpi\n    /* \"#utility.yul\":1330:1409   */\n  tag_48\n  tag_49\n  jump\t// in\ntag_48:\n    /* \"#utility.yul\":1294:1411   */\ntag_47:\n    /* \"#utility.yul\":1435:1509   */\n  tag_50\n    /* \"#utility.yul\":1501:1508   */\n  dup7\n    /* \"#utility.yul\":1492:1498   */\n  dup3\n    /* \"#utility.yul\":1481:1490   */\n  dup8\n    /* \"#utility.yul\":1477:1499   */\n  add\n    /* \"#utility.yul\":1435:1509   */\n  tag_33\n  jump\t// in\ntag_50:\n    /* \"#utility.yul\":1425:1509   */\n  swap4\n  pop\n    /* \"#utility.yul\":1228:1519   */\n  pop\n    /* \"#utility.yul\":1579:1581   */\n  0x20\n    /* \"#utility.yul\":1568:1577   */\n  dup5\n    /* \"#utility.yul\":1564:1582   */\n  add\n    /* \"#utility.yul\":1558:1583   */\n  mload\n    /* \"#utility.yul\":1610:1628   */\n  0xffffffffffffffff\n    /* \"#utility.yul\":1602:1608   */\n  dup2\n    /* \"#utility.yul\":1599:1629   */\n  gt\n    /* \"#utility.yul\":1596:1713   */\n  iszero\n  tag_51\n  jumpi\n    /* \"#utility.yul\":1632:1711   */\n  tag_52\n  tag_49\n  jump\t// in\ntag_52:\n    /* \"#utility.yul\":1596:1713   */\ntag_51:\n    /* \"#utility.yul\":1737:1811   */\n  tag_53\n    /* \"#utility.yul\":1803:1810   */\n  dup7\n    /* \"#utility.yul\":1794:1800   */\n  dup3\n    /* \"#utility.yul\":1783:1792   */\n  dup8\n    /* \"#utility.yul\":1779:1801   */\n  add\n    /* \"#utility.yul\":1737:1811   */\n  tag_33\n  jump\t// in\ntag_53:\n    /* \"#utility.yul\":1727:1811   */\n  swap3\n  pop\n    /* \"#utility.yul\":1529:1821   */\n  pop\n    /* \"#utility.yul\":1860:1862   */\n  0x40\n    /* \"#utility.yul\":1886:1950   */\n  tag_54\n    /* \"#utility.yul\":1942:1949   */\n  dup7\n    /* \"#utility.yul\":1933:1939   */\n  dup3\n    /* \"#utility.yul\":1922:1931   */\n  dup8\n    /* \"#utility.yul\":1918:1940   */\n  add\n    /* \"#utility.yul\":1886:1950   */\n  tag_39\n  jump\t// in\ntag_54:\n    /* \"#utility.yul\":1876:1950   */\n  swap2\n  pop\n    /* \"#utility.yul\":1831:1960   */\n  pop\n    /* \"#utility.yul\":958:1967   */\n  swap3\n  pop\n  swap3\n  pop\n  swap3\n  jump\t// out\n    /* \"#utility.yul\":1973:2102   */\ntag_27:\n    /* \"#utility.yul\":2007:2013   */\n  0x00\n    /* \"#utility.yul\":2034:2054   */\n  tag_56\n  tag_57\n  jump\t// in\ntag_56:\n    /* \"#utility.yul\":2024:2054   */\n  swap1\n  pop\n    /* \"#utility.yul\":2063:2096   */\n  tag_58\n    /* \"#utility.yul\":2091:2095   */\n  dup3\n    /* \"#utility.yul\":2083:2089   */\n  dup3\n    /* \"#utility.yul\":2063:2096   */\n  tag_59\n  jump\t// in\ntag_58:\n    /* \"#utility.yul\":1973:2102   */\n  swap2\n  swap1\n  pop\n  jump\t// out\n    /* \"#utility.yul\":2108:2183   */\ntag_57:\n    /* \"#utility.yul\":2141:2147   */\n  0x00\n    /* \"#utility.yul\":2174:2176   */\n  0x40\n    /* \"#utility.yul\":2168:2177   */\n  mload\n    /* \"#utility.yul\":2158:2177   */\n  swap1\n  pop\n    /* \"#utility.yul\":2108:2183   */\n  swap1\n  jump\t// out\n    /* \"#utility.yul\":2189:2497   */\ntag_26:\n    /* \"#utility.yul\":2251:2255   */\n  0x00\n    /* \"#utility.yul\":2341:2359   */\n  0xffffffffffffffff\n    /* \"#utility.yul\":2333:2339   */\n  dup3\n    /* \"#utility.yul\":2330:2360   */\n  gt\n    /* \"#utility.yul\":2327:2383   */\n  iszero\n  tag_62\n  jumpi\n    /* \"#utility.yul\":2363:2381   */\n  tag_63\n  tag_64\n  jump\t// in\ntag_63:\n    /* \"#utility.yul\":2327:2383   */\ntag_62:\n    /* \"#utility.yul\":2401:2430   */\n  tag_65\n    /* \"#utility.yul\":2423:2429   */\n  dup3\n    /* \"#utility.yul\":2401:2430   */\n  tag_66\n  jump\t// in\ntag_65:\n    /* \"#utility.yul\":2393:2430   */\n  swap1\n  pop\n    /* \"#utility.yul\":2485:2489   */\n  0x20\n    /* \"#utility.yul\":2479:2483   */\n  dup2\n    /* \"#utility.yul\":2475:2490   */\n  add\n    /* \"#utility.yul\":2467:2490   */\n  swap1\n  pop\n    /* \"#utility.yul\":2189:2497   */\n  swap2\n  swap1\n  pop\n  jump\t// out\n    /* \"#utility.yul\":2503:2580   */\ntag_67:\n    /* \"#utility.yul\":2540:2547   */\n  0x00\n    /* \"#utility.yul\":2569:2574   */\n  dup2\n    /* \"#utility.yul\":2558:2574   */\n  swap1\n  pop\n    /* \"#utility.yul\":2503:2580   */\n  swap2\n  swap1\n  pop\n  jump\t// out\n    /* \"#utility.yul\":2586:2893   */\ntag_32:\n    /* \"#utility.yul\":2654:2655   */\n  0x00\n    /* \"#utility.yul\":2664:2777   */\ntag_70:\n    /* \"#utility.yul\":2678:2684   */\n  dup4\n    /* \"#utility.yul\":2675:2676   */\n  dup2\n    /* \"#utility.yul\":2672:2685   */\n  lt\n    /* \"#utility.yul\":2664:2777   */\n  iszero\n  tag_72\n  jumpi\n    /* \"#utility.yul\":2763:2764   */\n  dup1\n    /* \"#utility.yul\":2758:2761   */\n  dup3\n    /* \"#utility.yul\":2754:2765   */\n  add\n    /* \"#utility.yul\":2748:2766   */\n  mload\n    /* \"#utility.yul\":2744:2745   */\n  dup2\n    /* \"#utility.yul\":2739:2742   */\n  dup5\n    /* \"#utility.yul\":2735:2746   */\n  add\n    /* \"#utility.yul\":2728:2767   */\n  mstore\n    /* \"#utility.yul\":2700:2702   */\n  0x20\n    /* \"#utility.yul\":2697:2698   */\n  dup2\n    /* \"#utility.yul\":2693:2703   */\n  add\n    /* \"#utility.yul\":2688:2703   */\n  swap1\n  pop\n    /* \"#utility.yul\":2664:2777   */\n  jump(tag_70)\ntag_72:\n    /* \"#utility.yul\":2795:2801   */\n  dup4\n    /* \"#utility.yul\":2792:2793   */\n  dup2\n    /* \"#utility.yul\":2789:2802   */\n  gt\n    /* \"#utility.yul\":2786:2887   */\n  iszero\n  tag_73\n  jumpi\n    /* \"#utility.yul\":2875:2876   */\n  0x00\n    /* \"#utility.yul\":2866:2872   */\n  dup5\n    /* \"#utility.yul\":2861:2864   */\n  dup5\n    /* \"#utility.yul\":2857:2873   */\n  add\n    /* \"#utility.yul\":2850:2877   */\n  mstore\n    /* \"#utility.yul\":2786:2887   */\ntag_73:\n    /* \"#utility.yul\":2635:2893   */\n  pop\n    /* \"#utility.yul\":2586:2893   */\n  pop\n  pop\n  pop\n  jump\t// out\n    /* \"#utility.yul\":2899:3219   */\ntag_11:\n    /* \"#utility.yul\":2943:2949   */\n  0x00\n    /* \"#utility.yul\":2980:2981   */\n  0x02\n    /* \"#utility.yul\":2974:2978   */\n  dup3\n    /* \"#utility.yul\":2970:2982   */\n  div\n    /* \"#utility.yul\":2960:2982   */\n  swap1\n  pop\n    /* \"#utility.yul\":3027:3028   */\n  0x01\n    /* \"#utility.yul\":3021:3025   */\n  dup3\n    /* \"#utility.yul\":3017:3029   */\n  and\n    /* \"#utility.yul\":3048:3066   */\n  dup1\n    /* \"#utility.yul\":3038:3119   */\n  tag_75\n  jumpi\n    /* \"#utility.yul\":3104:3108   */\n  0x7f\n    /* \"#utility.yul\":3096:3102   */\n  dup3\n    /* \"#utility.yul\":3092:3109   */\n  and\n    /* \"#utility.yul\":3082:3109   */\n  swap2\n  pop\n    /* \"#utility.yul\":3038:3119   */\ntag_75:\n    /* \"#utility.yul\":3166:3168   */\n  0x20\n    /* \"#utility.yul\":3158:3164   */\n  dup3\n    /* \"#utility.yul\":3155:3169   */\n  lt\n    /* \"#utility.yul\":3135:3153   */\n  dup2\n    /* \"#utility.yul\":3132:3170   */\n  eq\n    /* \"#utility.yul\":3129:3213   */\n  iszero\n  tag_76\n  jumpi\n    /* \"#utility.yul\":3185:3203   */\n  tag_77\n  tag_78\n  jump\t// in\ntag_77:\n    /* \"#utility.yul\":3129:3213   */\ntag_76:\n    /* \"#utility.yul\":2950:3219   */\n  pop\n    /* \"#utility.yul\":2899:3219   */\n  swap2\n  swap1\n  pop\n  jump\t// out\n    /* \"#utility.yul\":3225:3506   */\ntag_59:\n    /* \"#utility.yul\":3308:3335   */\n  tag_80\n    /* \"#utility.yul\":3330:3334   */\n  dup3\n    /* \"#utility.yul\":3308:3335   */\n  tag_66\n  jump\t// in\ntag_80:\n    /* \"#utility.yul\":3300:3306   */\n  dup2\n    /* \"#utility.yul\":3296:3336   */\n  add\n    /* \"#utility.yul\":3438:3444   */\n  dup2\n    /* \"#utility.yul\":3426:3436   */\n  dup2\n    /* \"#utility.yul\":3423:3445   */\n  lt\n    /* \"#utility.yul\":3402:3420   */\n  0xffffffffffffffff\n    /* \"#utility.yul\":3390:3400   */\n  dup3\n    /* \"#utility.yul\":3387:3421   */\n  gt\n    /* \"#utility.yul\":3384:3446   */\n  or\n    /* \"#utility.yul\":3381:3469   */\n  iszero\n  tag_81\n  jumpi\n    /* \"#utility.yul\":3449:3467   */\n  tag_82\n  tag_64\n  jump\t// in\ntag_82:\n    /* \"#utility.yul\":3381:3469   */\ntag_81:\n    /* \"#utility.yul\":3489:3499   */\n  dup1\n    /* \"#utility.yul\":3485:3487   */\n  0x40\n    /* \"#utility.yul\":3478:3500   */\n  mstore\n    /* \"#utility.yul\":3268:3506   */\n  pop\n    /* \"#utility.yul\":3225:3506   */\n  pop\n  pop\n  jump\t// out\n    /* \"#utility.yul\":3512:3692   */\ntag_78:\n    /* \"#utility.yul\":3560:3637   */\n  0x4e487b7100000000000000000000000000000000000000000000000000000000\n    /* \"#utility.yul\":3557:3558   */\n  0x00\n    /* \"#utility.yul\":3550:3638   */\n  mstore\n    /* \"#utility.yul\":3657:3661   */\n  0x22\n    /* \"#utility.yul\":3654:3655   */\n  0x04\n    /* \"#utility.yul\":3647:3662   */\n  mstore\n    /* \"#utility.yul\":3681:3685   */\n  0x24\n    /* \"#utility.yul\":3678:3679   */\n  0x00\n    /* \"#utility.yul\":3671:3686   */\n  revert\n    /* \"#utility.yul\":3698:3878   */\ntag_64:\n    /* \"#utility.yul\":3746:3823   */\n  0x4e487b7100000000000000000000000000000000000000000000000000000000\n    /* \"#utility.yul\":3743:3744   */\n  0x00\n    /* \"#utility.yul\":3736:3824   */\n  mstore\n    /* \"#utility.yul\":3843:3847   */\n  0x41\n    /* \"#utility.yul\":3840:3841   */\n  0x04\n    /* \"#utility.yul\":3833:3848   */\n  mstore\n    /* \"#utility.yul\":3867:3871   */\n  0x24\n    /* \"#utility.yul\":3864:3865   */\n  0x00\n    /* \"#utility.yul\":3857:3872   */\n  revert\n    /* \"#utility.yul\":3884:4001   */\ntag_37:\n    /* \"#utility.yul\":3993:3994   */\n  0x00\n    /* \"#utility.yul\":3990:3991   */\n  dup1\n    /* \"#utility.yul\":3983:3995   */\n  revert\n    /* \"#utility.yul\":4007:4124   */\ntag_30:\n    /* \"#utility.yul\":4116:4117   */\n  0x00\n    /* \"#utility.yul\":4113:4114   */\n  dup1\n    /* \"#utility.yul\":4106:4118   */\n  revert\n    /* \"#utility.yul\":4130:4247   */\ntag_49:\n    /* \"#utility.yul\":4239:4240   */\n  0x00\n    /* \"#utility.yul\":4236:4237   */\n  dup1\n    /* \"#utility.yul\":4229:4241   */\n  revert\n    /* \"#utility.yul\":4253:4370   */\ntag_46:\n    /* \"#utility.yul\":4362:4363   */\n  0x00\n    /* \"#utility.yul\":4359:4360   */\n  dup1\n    /* \"#utility.yul\":4352:4364   */\n  revert\n    /* \"#utility.yul\":4376:4478   */\ntag_66:\n    /* \"#utility.yul\":4417:4423   */\n  0x00\n    /* \"#utility.yul\":4468:4470   */\n  0x1f\n    /* \"#utility.yul\":4464:4471   */\n  not\n    /* \"#utility.yul\":4459:4461   */\n  0x1f\n    /* \"#utility.yul\":4452:4457   */\n  dup4\n    /* \"#utility.yul\":4448:4462   */\n  add\n    /* \"#utility.yul\":4444:4472   */\n  and\n    /* \"#utility.yul\":4434:4472   */\n  swap1\n  pop\n    /* \"#utility.yul\":4376:4478   */\n  swap2\n  swap1\n  pop\n  jump\t// out\n    /* \"#utility.yul\":4484:4606   */\ntag_42:\n    /* \"#utility.yul\":4557:4581   */\n  tag_91\n    /* \"#utility.yul\":4575:4580   */\n  dup2\n    /* \"#utility.yul\":4557:4581   */\n  tag_67\n  jump\t// in\ntag_91:\n    /* \"#utility.yul\":4550:4555   */\n  dup2\n    /* \"#utility.yul\":4547:4582   */\n  eq\n    /* \"#utility.yul\":4537:4600   */\n  tag_92\n  jumpi\n    /* \"#utility.yul\":4596:4597   */\n  0x00\n    /* \"#utility.yul\":4593:4594   */\n  dup1\n    /* \"#utility.yul\":4586:4598   */\n  revert\n    /* \"#utility.yul\":4537:4600   */\ntag_92:\n    /* \"#utility.yul\":4484:4606   */\n  pop\n  jump\t// out\n    /* \"contracts/4_Product.sol\":35:9789  contract ProductSC {\r... */\ntag_9:\n  dataSize(sub_0)\n  dup1\n  dataOffset(sub_0)\n  0x00\n  codecopy\n  0x00\n  return\nstop\n\nsub_0: assembly {\n        /* \"contracts/4_Product.sol\":35:9789  contract ProductSC {\r... */\n      mstore(0x40, 0x80)\n      jumpi(tag_1, lt(calldatasize, 0x04))\n      shr(0xe0, calldataload(0x00))\n      dup1\n      0xa0712d68\n      gt\n      tag_15\n      jumpi\n      dup1\n      0xb292abf1\n      gt\n      tag_16\n      jumpi\n      dup1\n      0xb292abf1\n      eq\n      tag_11\n      jumpi\n      dup1\n      0xcd0c5896\n      eq\n      tag_12\n      jumpi\n      dup1\n      0xebc9368f\n      eq\n      tag_13\n      jumpi\n      dup1\n      0xeedc966a\n      eq\n      tag_14\n      jumpi\n      jump(tag_1)\n    tag_16:\n      dup1\n      0xa0712d68\n      eq\n      tag_8\n      jumpi\n      dup1\n      0xa3e67610\n      eq\n      tag_9\n      jumpi\n      dup1\n      0xa4821719\n      eq\n      tag_10\n      jumpi\n      jump(tag_1)\n    tag_15:\n      dup1\n      0x06fdde03\n      eq\n      tag_2\n      jumpi\n      dup1\n      0x40932fc2\n      eq\n      tag_3\n      jumpi\n      dup1\n      0x561e0e98\n      eq\n      tag_4\n      jumpi\n      dup1\n      0x68cdafe6\n      eq\n      tag_5\n      jumpi\n      dup1\n      0x95d89b41\n      eq\n      tag_6\n      jumpi\n      dup1\n      0x9dc29fac\n      eq\n      tag_7\n      jumpi\n    tag_1:\n      0x00\n      dup1\n      revert\n        /* \"contracts/4_Product.sol\":67:85  string public name */\n    tag_2:\n      callvalue\n      dup1\n      iszero\n      tag_17\n      jumpi\n      0x00\n      dup1\n      revert\n    tag_17:\n      pop\n      tag_18\n      tag_19\n      jump\t// in\n    tag_18:\n      mload(0x40)\n      tag_20\n      swap2\n      swap1\n      tag_21\n      jump\t// in\n    tag_20:\n      mload(0x40)\n      dup1\n      swap2\n      sub\n      swap1\n      return\n        /* \"contracts/4_Product.sol\":5914:6173  function register(address _addr, Role _role, string memory _name) public {\r... */\n    tag_3:\n      callvalue\n      dup1\n      iszero\n      tag_22\n      jumpi\n      0x00\n      dup1\n      revert\n    tag_22:\n      pop\n      tag_23\n      0x04\n      dup1\n      calldatasize\n      sub\n      dup2\n      add\n      swap1\n      tag_24\n      swap2\n      swap1\n      tag_25\n      jump\t// in\n    tag_24:\n      tag_26\n      jump\t// in\n    tag_23:\n      stop\n        /* \"contracts/4_Product.sol\":6292:7316  function produceProduct(uint256 _id, uint256 _timestamp, uint256 _price, string memory _name, string memory _brand, string memory _size, string memory _weight, string memory _length ,string memory _width ,string memory _height) public OnlyProducer{\r... */\n    tag_4:\n      callvalue\n      dup1\n      iszero\n      tag_27\n      jumpi\n      0x00\n      dup1\n      revert\n    tag_27:\n      pop\n      tag_28\n      0x04\n      dup1\n      calldatasize\n      sub\n      dup2\n      add\n      swap1\n      tag_29\n      swap2\n      swap1\n      tag_30\n      jump\t// in\n    tag_29:\n      tag_31\n      jump\t// in\n    tag_28:\n      stop\n        /* \"contracts/4_Product.sol\":5546:5902  function tokenTransfer(address _to, uint256 _amount) public returns (bool) {\r... */\n    tag_5:\n      callvalue\n      dup1\n      iszero\n      tag_32\n      jumpi\n      0x00\n      dup1\n      revert\n    tag_32:\n      pop\n      tag_33\n      0x04\n      dup1\n      calldatasize\n      sub\n      dup2\n      add\n      swap1\n      tag_34\n      swap2\n      swap1\n      tag_35\n      jump\t// in\n    tag_34:\n      tag_36\n      jump\t// in\n    tag_33:\n      mload(0x40)\n      tag_37\n      swap2\n      swap1\n      tag_38\n      jump\t// in\n    tag_37:\n      mload(0x40)\n      dup1\n      swap2\n      sub\n      swap1\n      return\n        /* \"contracts/4_Product.sol\":114:134  string public symbol */\n    tag_6:\n      callvalue\n      dup1\n      iszero\n      tag_39\n      jumpi\n      0x00\n      dup1\n      revert\n    tag_39:\n      pop\n      tag_40\n      tag_41\n      jump\t// in\n    tag_40:\n      mload(0x40)\n      tag_42\n      swap2\n      swap1\n      tag_21\n      jump\t// in\n    tag_42:\n      mload(0x40)\n      dup1\n      swap2\n      sub\n      swap1\n      return\n        /* \"contracts/4_Product.sol\":4500:4917  function burn(address _account, uint256 _amount) public OnlyTokenOwner {\r... */\n    tag_7:\n      callvalue\n      dup1\n      iszero\n      tag_43\n      jumpi\n      0x00\n      dup1\n      revert\n    tag_43:\n      pop\n      tag_44\n      0x04\n      dup1\n      calldatasize\n      sub\n      dup2\n      add\n      swap1\n      tag_45\n      swap2\n      swap1\n      tag_35\n      jump\t// in\n    tag_45:\n      tag_46\n      jump\t// in\n    tag_44:\n      stop\n        /* \"contracts/4_Product.sol\":4121:4343  function mint(uint256 _amount) public OnlyTokenOwner {\r... */\n    tag_8:\n      callvalue\n      dup1\n      iszero\n      tag_47\n      jumpi\n      0x00\n      dup1\n      revert\n    tag_47:\n      pop\n      tag_48\n      0x04\n      dup1\n      calldatasize\n      sub\n      dup2\n      add\n      swap1\n      tag_49\n      swap2\n      swap1\n      tag_50\n      jump\t// in\n    tag_49:\n      tag_51\n      jump\t// in\n    tag_48:\n      stop\n        /* \"contracts/4_Product.sol\":165:199  address payable public  tokenOwner */\n    tag_9:\n      callvalue\n      dup1\n      iszero\n      tag_52\n      jumpi\n      0x00\n      dup1\n      revert\n    tag_52:\n      pop\n      tag_53\n      tag_54\n      jump\t// in\n    tag_53:\n      mload(0x40)\n      tag_55\n      swap2\n      swap1\n      tag_56\n      jump\t// in\n    tag_55:\n      mload(0x40)\n      dup1\n      swap2\n      sub\n      swap1\n      return\n        /* \"contracts/4_Product.sol\":4975:5472  function buyToken() public payable {\r... */\n    tag_10:\n      tag_57\n      tag_58\n      jump\t// in\n    tag_57:\n      stop\n        /* \"contracts/4_Product.sol\":9608:9784  function getActorInfo(address _addr) public view returns\r... */\n    tag_11:\n      callvalue\n      dup1\n      iszero\n      tag_59\n      jumpi\n      0x00\n      dup1\n      revert\n    tag_59:\n      pop\n      tag_60\n      0x04\n      dup1\n      calldatasize\n      sub\n      dup2\n      add\n      swap1\n      tag_61\n      swap2\n      swap1\n      tag_62\n      jump\t// in\n    tag_61:\n      tag_63\n      jump\t// in\n    tag_60:\n      mload(0x40)\n      tag_64\n      swap3\n      swap2\n      swap1\n      tag_65\n      jump\t// in\n    tag_64:\n      mload(0x40)\n      dup1\n      swap2\n      sub\n      swap1\n      return\n        /* \"contracts/4_Product.sol\":3899:4005  function etherBalance(address _addr) public view returns (uint256) {\r... */\n    tag_12:\n      callvalue\n      dup1\n      iszero\n      tag_66\n      jumpi\n      0x00\n      dup1\n      revert\n    tag_66:\n      pop\n      tag_67\n      0x04\n      dup1\n      calldatasize\n      sub\n      dup2\n      add\n      swap1\n      tag_68\n      swap2\n      swap1\n      tag_62\n      jump\t// in\n    tag_68:\n      tag_69\n      jump\t// in\n    tag_67:\n      mload(0x40)\n      tag_70\n      swap2\n      swap1\n      tag_71\n      jump\t// in\n    tag_70:\n      mload(0x40)\n      dup1\n      swap2\n      sub\n      swap1\n      return\n        /* \"contracts/4_Product.sol\":7363:8034  function buyProduct(uint256 _id, uint256 _timestamp,  string memory _log) public OnlyDistributor{\r... */\n    tag_13:\n      callvalue\n      dup1\n      iszero\n      tag_72\n      jumpi\n      0x00\n      dup1\n      revert\n    tag_72:\n      pop\n      tag_73\n      0x04\n      dup1\n      calldatasize\n      sub\n      dup2\n      add\n      swap1\n      tag_74\n      swap2\n      swap1\n      tag_75\n      jump\t// in\n    tag_74:\n      tag_76\n      jump\t// in\n    tag_73:\n      stop\n        /* \"contracts/4_Product.sol\":3725:3833  function tokenBalance(address _addr) public view returns (uint256) {\r... */\n    tag_14:\n      callvalue\n      dup1\n      iszero\n      tag_77\n      jumpi\n      0x00\n      dup1\n      revert\n    tag_77:\n      pop\n      tag_78\n      0x04\n      dup1\n      calldatasize\n      sub\n      dup2\n      add\n      swap1\n      tag_79\n      swap2\n      swap1\n      tag_62\n      jump\t// in\n    tag_79:\n      tag_80\n      jump\t// in\n    tag_78:\n      mload(0x40)\n      tag_81\n      swap2\n      swap1\n      tag_71\n      jump\t// in\n    tag_81:\n      mload(0x40)\n      dup1\n      swap2\n      sub\n      swap1\n      return\n        /* \"contracts/4_Product.sol\":67:85  string public name */\n    tag_19:\n      0x00\n      dup1\n      sload\n      tag_82\n      swap1\n      tag_83\n      jump\t// in\n    tag_82:\n      dup1\n      0x1f\n      add\n      0x20\n      dup1\n      swap2\n      div\n      mul\n      0x20\n      add\n      mload(0x40)\n      swap1\n      dup2\n      add\n      0x40\n      mstore\n      dup1\n      swap3\n      swap2\n      swap1\n      dup2\n      dup2\n      mstore\n      0x20\n      add\n      dup3\n      dup1\n      sload\n      tag_84\n      swap1\n      tag_83\n      jump\t// in\n    tag_84:\n      dup1\n      iszero\n      tag_85\n      jumpi\n      dup1\n      0x1f\n      lt\n      tag_86\n      jumpi\n      0x0100\n      dup1\n      dup4\n      sload\n      div\n      mul\n      dup4\n      mstore\n      swap2\n      0x20\n      add\n      swap2\n      jump(tag_85)\n    tag_86:\n      dup3\n      add\n      swap2\n      swap1\n      0x00\n      mstore\n      keccak256(0x00, 0x20)\n      swap1\n    tag_87:\n      dup2\n      sload\n      dup2\n      mstore\n      swap1\n      0x01\n      add\n      swap1\n      0x20\n      add\n      dup1\n      dup4\n      gt\n      tag_87\n      jumpi\n      dup3\n      swap1\n      sub\n      0x1f\n      and\n      dup3\n      add\n      swap2\n    tag_85:\n      pop\n      pop\n      pop\n      pop\n      pop\n      dup2\n      jump\t// out\n        /* \"contracts/4_Product.sol\":5914:6173  function register(address _addr, Role _role, string memory _name) public {\r... */\n    tag_26:\n        /* \"contracts/4_Product.sol\":5998:6016  Actor memory actor */\n      0x00\n        /* \"contracts/4_Product.sol\":6019:6025  actors */\n      0x05\n        /* \"contracts/4_Product.sol\":6019:6032  actors[_addr] */\n      0x00\n        /* \"contracts/4_Product.sol\":6026:6031  _addr */\n      dup6\n        /* \"contracts/4_Product.sol\":6019:6032  actors[_addr] */\n      0xffffffffffffffffffffffffffffffffffffffff\n      and\n      0xffffffffffffffffffffffffffffffffffffffff\n      and\n      dup2\n      mstore\n      0x20\n      add\n      swap1\n      dup2\n      mstore\n      0x20\n      add\n      0x00\n      keccak256\n        /* \"contracts/4_Product.sol\":5998:6032  Actor memory actor = actors[_addr] */\n      mload(0x40)\n      dup1\n      0x60\n      add\n      0x40\n      mstore\n      swap1\n      dup2\n      0x00\n      dup3\n      add\n      0x00\n      swap1\n      sload\n      swap1\n      0x0100\n      exp\n      swap1\n      div\n      0xff\n      and\n      0x04\n      dup2\n      gt\n      iszero\n      tag_89\n      jumpi\n      tag_90\n      tag_91\n      jump\t// in\n    tag_90:\n    tag_89:\n      0x04\n      dup2\n      gt\n      iszero\n      tag_92\n      jumpi\n      tag_93\n      tag_91\n      jump\t// in\n    tag_93:\n    tag_92:\n      dup2\n      mstore\n      0x20\n      add\n      0x01\n      dup3\n      add\n      dup1\n      sload\n      tag_94\n      swap1\n      tag_83\n      jump\t// in\n    tag_94:\n      dup1\n      0x1f\n      add\n      0x20\n      dup1\n      swap2\n      div\n      mul\n      0x20\n      add\n      mload(0x40)\n      swap1\n      dup2\n      add\n      0x40\n      mstore\n      dup1\n      swap3\n      swap2\n      swap1\n      dup2\n      dup2\n      mstore\n      0x20\n      add\n      dup3\n      dup1\n      sload\n      tag_95\n      swap1\n      tag_83\n      jump\t// in\n    tag_95:\n      dup1\n      iszero\n      tag_96\n      jumpi\n      dup1\n      0x1f\n      lt\n      tag_97\n      jumpi\n      0x0100\n      dup1\n      dup4\n      sload\n      div\n      mul\n      dup4\n      mstore\n      swap2\n      0x20\n      add\n      swap2\n      jump(tag_96)\n    tag_97:\n      dup3\n      add\n      swap2\n      swap1\n      0x00\n      mstore\n      keccak256(0x00, 0x20)\n      swap1\n    tag_98:\n      dup2\n      sload\n      dup2\n      mstore\n      swap1\n      0x01\n      add\n      swap1\n      0x20\n      add\n      dup1\n      dup4\n      gt\n      tag_98\n      jumpi\n      dup3\n      swap1\n      sub\n      0x1f\n      and\n      dup3\n      add\n      swap2\n    tag_96:\n      pop\n      pop\n      pop\n      pop\n      pop\n      dup2\n      mstore\n      0x20\n      add\n      0x02\n      dup3\n      add\n      0x00\n      swap1\n      sload\n      swap1\n      0x0100\n      exp\n      swap1\n      div\n      0xff\n      and\n      iszero\n      iszero\n      iszero\n      iszero\n      dup2\n      mstore\n      pop\n      pop\n      swap1\n      pop\n        /* \"contracts/4_Product.sol\":6056:6061  _role */\n      dup3\n        /* \"contracts/4_Product.sol\":6043:6048  actor */\n      dup2\n        /* \"contracts/4_Product.sol\":6043:6053  actor.role */\n      0x00\n      add\n        /* \"contracts/4_Product.sol\":6043:6061  actor.role = _role */\n      swap1\n      0x04\n      dup2\n      gt\n      iszero\n      tag_99\n      jumpi\n      tag_100\n      tag_91\n      jump\t// in\n    tag_100:\n    tag_99:\n      swap1\n      dup2\n      0x04\n      dup2\n      gt\n      iszero\n      tag_101\n      jumpi\n      tag_102\n      tag_91\n      jump\t// in\n    tag_102:\n    tag_101:\n      dup2\n      mstore\n      pop\n      pop\n        /* \"contracts/4_Product.sol\":6085:6090  _name */\n      dup2\n        /* \"contracts/4_Product.sol\":6072:6077  actor */\n      dup2\n        /* \"contracts/4_Product.sol\":6072:6082  actor.name */\n      0x20\n      add\n        /* \"contracts/4_Product.sol\":6072:6090  actor.name = _name */\n      dup2\n      swap1\n      mstore\n      pop\n        /* \"contracts/4_Product.sol\":6119:6123  true */\n      0x01\n        /* \"contracts/4_Product.sol\":6101:6106  actor */\n      dup2\n        /* \"contracts/4_Product.sol\":6101:6116  actor.isDefined */\n      0x40\n      add\n        /* \"contracts/4_Product.sol\":6101:6123  actor.isDefined = true */\n      swap1\n      iszero\n      iszero\n      swap1\n      dup2\n      iszero\n      iszero\n      dup2\n      mstore\n      pop\n      pop\n        /* \"contracts/4_Product.sol\":6150:6155  actor */\n      dup1\n        /* \"contracts/4_Product.sol\":6134:6140  actors */\n      0x05\n        /* \"contracts/4_Product.sol\":6134:6147  actors[_addr] */\n      0x00\n        /* \"contracts/4_Product.sol\":6141:6146  _addr */\n      dup7\n        /* \"contracts/4_Product.sol\":6134:6147  actors[_addr] */\n      0xffffffffffffffffffffffffffffffffffffffff\n      and\n      0xffffffffffffffffffffffffffffffffffffffff\n      and\n      dup2\n      mstore\n      0x20\n      add\n      swap1\n      dup2\n      mstore\n      0x20\n      add\n      0x00\n      keccak256\n        /* \"contracts/4_Product.sol\":6134:6155  actors[_addr] = actor */\n      0x00\n      dup3\n      add\n      mload\n      dup2\n      0x00\n      add\n      exp(0x0100, 0x00)\n      dup2\n      sload\n      dup2\n      0xff\n      mul\n      not\n      and\n      swap1\n      dup4\n      0x04\n      dup2\n      gt\n      iszero\n      tag_103\n      jumpi\n      tag_104\n      tag_91\n      jump\t// in\n    tag_104:\n    tag_103:\n      mul\n      or\n      swap1\n      sstore\n      pop\n      0x20\n      dup3\n      add\n      mload\n      dup2\n      0x01\n      add\n      swap1\n      dup1\n      mload\n      swap1\n      0x20\n      add\n      swap1\n      tag_105\n      swap3\n      swap2\n      swap1\n      tag_106\n      jump\t// in\n    tag_105:\n      pop\n      0x40\n      dup3\n      add\n      mload\n      dup2\n      0x02\n      add\n      exp(0x0100, 0x00)\n      dup2\n      sload\n      dup2\n      0xff\n      mul\n      not\n      and\n      swap1\n      dup4\n      iszero\n      iszero\n      mul\n      or\n      swap1\n      sstore\n      pop\n      swap1\n      pop\n      pop\n        /* \"contracts/4_Product.sol\":5987:6173  {\r... */\n      pop\n        /* \"contracts/4_Product.sol\":5914:6173  function register(address _addr, Role _role, string memory _name) public {\r... */\n      pop\n      pop\n      pop\n      jump\t// out\n        /* \"contracts/4_Product.sol\":6292:7316  function produceProduct(uint256 _id, uint256 _timestamp, uint256 _price, string memory _name, string memory _brand, string memory _size, string memory _weight, string memory _length ,string memory _width ,string memory _height) public OnlyProducer{\r... */\n    tag_31:\n        /* \"contracts/4_Product.sol\":2867:2880  Role.Producer */\n      0x00\n        /* \"contracts/4_Product.sol\":2840:2880  actors[msg.sender].role == Role.Producer */\n      0x04\n      dup2\n      gt\n      iszero\n      tag_108\n      jumpi\n      tag_109\n      tag_91\n      jump\t// in\n    tag_109:\n    tag_108:\n        /* \"contracts/4_Product.sol\":2840:2846  actors */\n      0x05\n        /* \"contracts/4_Product.sol\":2840:2858  actors[msg.sender] */\n      0x00\n        /* \"contracts/4_Product.sol\":2847:2857  msg.sender */\n      caller\n        /* \"contracts/4_Product.sol\":2840:2858  actors[msg.sender] */\n      0xffffffffffffffffffffffffffffffffffffffff\n      and\n      0xffffffffffffffffffffffffffffffffffffffff\n      and\n      dup2\n      mstore\n      0x20\n      add\n      swap1\n      dup2\n      mstore\n      0x20\n      add\n      0x00\n      keccak256\n        /* \"contracts/4_Product.sol\":2840:2863  actors[msg.sender].role */\n      0x00\n      add\n      0x00\n      swap1\n      sload\n      swap1\n      0x0100\n      exp\n      swap1\n      div\n      0xff\n      and\n        /* \"contracts/4_Product.sol\":2840:2880  actors[msg.sender].role == Role.Producer */\n      0x04\n      dup2\n      gt\n      iszero\n      tag_110\n      jumpi\n      tag_111\n      tag_91\n      jump\t// in\n    tag_111:\n    tag_110:\n      eq\n        /* \"contracts/4_Product.sol\":2832:2909  require(actors[msg.sender].role == Role.Producer,'caller is not a producer.') */\n      tag_112\n      jumpi\n      mload(0x40)\n      0x08c379a000000000000000000000000000000000000000000000000000000000\n      dup2\n      mstore\n      0x04\n      add\n      tag_113\n      swap1\n      tag_114\n      jump\t// in\n    tag_113:\n      mload(0x40)\n      dup1\n      swap2\n      sub\n      swap1\n      revert\n    tag_112:\n        /* \"contracts/4_Product.sol\":6550:6576  Product storage newProduct */\n      0x00\n        /* \"contracts/4_Product.sol\":6579:6586  product */\n      0x06\n        /* \"contracts/4_Product.sol\":6579:6591  product[_id] */\n      0x00\n        /* \"contracts/4_Product.sol\":6587:6590  _id */\n      dup13\n        /* \"contracts/4_Product.sol\":6579:6591  product[_id] */\n      dup2\n      mstore\n      0x20\n      add\n      swap1\n      dup2\n      mstore\n      0x20\n      add\n      0x00\n      keccak256\n        /* \"contracts/4_Product.sol\":6550:6591  Product storage newProduct = product[_id] */\n      swap1\n      pop\n        /* \"contracts/4_Product.sol\":6618:6621  _id */\n      dup11\n        /* \"contracts/4_Product.sol\":6602:6612  newProduct */\n      dup2\n        /* \"contracts/4_Product.sol\":6602:6615  newProduct.ID */\n      0x00\n      add\n        /* \"contracts/4_Product.sol\":6602:6621  newProduct.ID = _id */\n      dup2\n      swap1\n      sstore\n      pop\n        /* \"contracts/4_Product.sol\":6653:6663  msg.sender */\n      caller\n        /* \"contracts/4_Product.sol\":6632:6642  newProduct */\n      dup2\n        /* \"contracts/4_Product.sol\":6632:6650  newProduct.ownerID */\n      0x01\n      add\n      0x00\n        /* \"contracts/4_Product.sol\":6632:6663  newProduct.ownerID = msg.sender */\n      0x0100\n      exp\n      dup2\n      sload\n      dup2\n      0xffffffffffffffffffffffffffffffffffffffff\n      mul\n      not\n      and\n      swap1\n      dup4\n      0xffffffffffffffffffffffffffffffffffffffff\n      and\n      mul\n      or\n      swap1\n      sstore\n      pop\n        /* \"contracts/4_Product.sol\":6698:6708  msg.sender */\n      caller\n        /* \"contracts/4_Product.sol\":6674:6684  newProduct */\n      dup2\n        /* \"contracts/4_Product.sol\":6674:6695  newProduct.producerID */\n      0x02\n      add\n      0x00\n        /* \"contracts/4_Product.sol\":6674:6708  newProduct.producerID = msg.sender */\n      0x0100\n      exp\n      dup2\n      sload\n      dup2\n      0xffffffffffffffffffffffffffffffffffffffff\n      mul\n      not\n      and\n      swap1\n      dup4\n      0xffffffffffffffffffffffffffffffffffffffff\n      and\n      mul\n      or\n      swap1\n      sstore\n      pop\n        /* \"contracts/4_Product.sol\":6745:6755  _timestamp */\n      dup10\n        /* \"contracts/4_Product.sol\":6719:6729  newProduct */\n      dup2\n        /* \"contracts/4_Product.sol\":6719:6739  newProduct.timestamp */\n      0x03\n      add\n        /* \"contracts/4_Product.sol\":6740:6741  0 */\n      0x00\n        /* \"contracts/4_Product.sol\":6719:6742  newProduct.timestamp[0] */\n      0x04\n      dup2\n      lt\n      tag_116\n      jumpi\n      tag_117\n      tag_118\n      jump\t// in\n    tag_117:\n    tag_116:\n      add\n        /* \"contracts/4_Product.sol\":6719:6755  newProduct.timestamp[0] = _timestamp */\n      dup2\n      swap1\n      sstore\n      pop\n        /* \"contracts/4_Product.sol\":6799:6813  State.Produced */\n      0x00\n        /* \"contracts/4_Product.sol\":6774:6784  newProduct */\n      dup2\n        /* \"contracts/4_Product.sol\":6774:6797  newProduct.productState */\n      0x07\n      add\n      0x00\n        /* \"contracts/4_Product.sol\":6774:6813  newProduct.productState= State.Produced */\n      0x0100\n      exp\n      dup2\n      sload\n      dup2\n      0xff\n      mul\n      not\n      and\n      swap1\n      dup4\n      0x05\n      dup2\n      gt\n      iszero\n      tag_120\n      jumpi\n      tag_121\n      tag_91\n      jump\t// in\n    tag_121:\n    tag_120:\n      mul\n      or\n      swap1\n      sstore\n      pop\n        /* \"contracts/4_Product.sol\":6856:6862  _price */\n      dup9\n        /* \"contracts/4_Product.sol\":6832:6842  newProduct */\n      dup2\n        /* \"contracts/4_Product.sol\":6832:6855  newProduct.productPrice */\n      0x08\n      add\n        /* \"contracts/4_Product.sol\":6832:6862  newProduct.productPrice=_price */\n      dup2\n      swap1\n      sstore\n      pop\n        /* \"contracts/4_Product.sol\":6907:6908  0 */\n      0x00\n        /* \"contracts/4_Product.sol\":6874:6884  newProduct */\n      dup2\n        /* \"contracts/4_Product.sol\":6874:6898  newProduct.distributorID */\n      0x09\n      add\n      0x00\n        /* \"contracts/4_Product.sol\":6874:6909  newProduct.distributorID=address(0) */\n      0x0100\n      exp\n      dup2\n      sload\n      dup2\n      0xffffffffffffffffffffffffffffffffffffffff\n      mul\n      not\n      and\n      swap1\n      dup4\n      0xffffffffffffffffffffffffffffffffffffffff\n      and\n      mul\n      or\n      swap1\n      sstore\n      pop\n        /* \"contracts/4_Product.sol\":6950:6951  0 */\n      0x00\n        /* \"contracts/4_Product.sol\":6920:6930  newProduct */\n      dup2\n        /* \"contracts/4_Product.sol\":6920:6941  newProduct.retailerID */\n      0x0a\n      add\n      0x00\n        /* \"contracts/4_Product.sol\":6920:6952  newProduct.retailerID=address(0) */\n      0x0100\n      exp\n      dup2\n      sload\n      dup2\n      0xffffffffffffffffffffffffffffffffffffffff\n      mul\n      not\n      and\n      swap1\n      dup4\n      0xffffffffffffffffffffffffffffffffffffffff\n      and\n      mul\n      or\n      swap1\n      sstore\n      pop\n        /* \"contracts/4_Product.sol\":6993:6994  0 */\n      0x00\n        /* \"contracts/4_Product.sol\":6963:6973  newProduct */\n      dup2\n        /* \"contracts/4_Product.sol\":6963:6984  newProduct.consumerID */\n      0x0b\n      add\n      0x00\n        /* \"contracts/4_Product.sol\":6963:6995  newProduct.consumerID=address(0) */\n      0x0100\n      exp\n      dup2\n      sload\n      dup2\n      0xffffffffffffffffffffffffffffffffffffffff\n      mul\n      not\n      and\n      swap1\n      dup4\n      0xffffffffffffffffffffffffffffffffffffffff\n      and\n      mul\n      or\n      swap1\n      sstore\n      pop\n        /* \"contracts/4_Product.sol\":7032:7037  _name */\n      dup8\n        /* \"contracts/4_Product.sol\":7006:7016  newProduct */\n      dup2\n        /* \"contracts/4_Product.sol\":7006:7024  newProduct.details */\n      0x0c\n      add\n        /* \"contracts/4_Product.sol\":7006:7029  newProduct.details.name */\n      0x00\n      add\n        /* \"contracts/4_Product.sol\":7006:7037  newProduct.details.name = _name */\n      swap1\n      dup1\n      mload\n      swap1\n      0x20\n      add\n      swap1\n      tag_122\n      swap3\n      swap2\n      swap1\n      tag_106\n      jump\t// in\n    tag_122:\n      pop\n        /* \"contracts/4_Product.sol\":7074:7080  _brand */\n      dup7\n        /* \"contracts/4_Product.sol\":7048:7058  newProduct */\n      dup2\n        /* \"contracts/4_Product.sol\":7048:7066  newProduct.details */\n      0x0c\n      add\n        /* \"contracts/4_Product.sol\":7048:7072  newProduct.details.brand */\n      0x01\n      add\n        /* \"contracts/4_Product.sol\":7048:7080  newProduct.details.brand= _brand */\n      swap1\n      dup1\n      mload\n      swap1\n      0x20\n      add\n      swap1\n      tag_123\n      swap3\n      swap2\n      swap1\n      tag_106\n      jump\t// in\n    tag_123:\n      pop\n        /* \"contracts/4_Product.sol\":7117:7122  _size */\n      dup6\n        /* \"contracts/4_Product.sol\":7091:7101  newProduct */\n      dup2\n        /* \"contracts/4_Product.sol\":7091:7109  newProduct.details */\n      0x0c\n      add\n        /* \"contracts/4_Product.sol\":7091:7114  newProduct.details.size */\n      0x02\n      add\n        /* \"contracts/4_Product.sol\":7091:7122  newProduct.details.size = _size */\n      swap1\n      dup1\n      mload\n      swap1\n      0x20\n      add\n      swap1\n      tag_124\n      swap3\n      swap2\n      swap1\n      tag_106\n      jump\t// in\n    tag_124:\n      pop\n        /* \"contracts/4_Product.sol\":7161:7168  _weight */\n      dup5\n        /* \"contracts/4_Product.sol\":7133:7143  newProduct */\n      dup2\n        /* \"contracts/4_Product.sol\":7133:7151  newProduct.details */\n      0x0c\n      add\n        /* \"contracts/4_Product.sol\":7133:7158  newProduct.details.weight */\n      0x03\n      add\n        /* \"contracts/4_Product.sol\":7133:7168  newProduct.details.weight = _weight */\n      swap1\n      dup1\n      mload\n      swap1\n      0x20\n      add\n      swap1\n      tag_125\n      swap3\n      swap2\n      swap1\n      tag_106\n      jump\t// in\n    tag_125:\n      pop\n        /* \"contracts/4_Product.sol\":7207:7214  _length */\n      dup4\n        /* \"contracts/4_Product.sol\":7179:7189  newProduct */\n      dup2\n        /* \"contracts/4_Product.sol\":7179:7197  newProduct.details */\n      0x0c\n      add\n        /* \"contracts/4_Product.sol\":7179:7204  newProduct.details.length */\n      0x04\n      add\n        /* \"contracts/4_Product.sol\":7179:7214  newProduct.details.length = _length */\n      swap1\n      dup1\n      mload\n      swap1\n      0x20\n      add\n      swap1\n      tag_126\n      swap3\n      swap2\n      swap1\n      tag_106\n      jump\t// in\n    tag_126:\n      pop\n        /* \"contracts/4_Product.sol\":7254:7260  _width */\n      dup3\n        /* \"contracts/4_Product.sol\":7227:7237  newProduct */\n      dup2\n        /* \"contracts/4_Product.sol\":7227:7245  newProduct.details */\n      0x0c\n      add\n        /* \"contracts/4_Product.sol\":7227:7251  newProduct.details.width */\n      0x05\n      add\n        /* \"contracts/4_Product.sol\":7227:7260  newProduct.details.width = _width */\n      swap1\n      dup1\n      mload\n      swap1\n      0x20\n      add\n      swap1\n      tag_127\n      swap3\n      swap2\n      swap1\n      tag_106\n      jump\t// in\n    tag_127:\n      pop\n        /* \"contracts/4_Product.sol\":7301:7308  _height */\n      dup2\n        /* \"contracts/4_Product.sol\":7273:7283  newProduct */\n      dup2\n        /* \"contracts/4_Product.sol\":7273:7291  newProduct.details */\n      0x0c\n      add\n        /* \"contracts/4_Product.sol\":7273:7298  newProduct.details.height */\n      0x06\n      add\n        /* \"contracts/4_Product.sol\":7273:7308  newProduct.details.height = _height */\n      swap1\n      dup1\n      mload\n      swap1\n      0x20\n      add\n      swap1\n      tag_128\n      swap3\n      swap2\n      swap1\n      tag_106\n      jump\t// in\n    tag_128:\n      pop\n        /* \"contracts/4_Product.sol\":6539:7316  {\r... */\n      pop\n        /* \"contracts/4_Product.sol\":6292:7316  function produceProduct(uint256 _id, uint256 _timestamp, uint256 _price, string memory _name, string memory _brand, string memory _size, string memory _weight, string memory _length ,string memory _width ,string memory _height) public OnlyProducer{\r... */\n      pop\n      pop\n      pop\n      pop\n      pop\n      pop\n      pop\n      pop\n      pop\n      pop\n      jump\t// out\n        /* \"contracts/4_Product.sol\":5546:5902  function tokenTransfer(address _to, uint256 _amount) public returns (bool) {\r... */\n    tag_36:\n        /* \"contracts/4_Product.sol\":5615:5619  bool */\n      0x00\n        /* \"contracts/4_Product.sol\":5664:5671  _amount */\n      dup2\n        /* \"contracts/4_Product.sol\":5640:5648  balances */\n      0x04\n        /* \"contracts/4_Product.sol\":5640:5660  balances[msg.sender] */\n      0x00\n        /* \"contracts/4_Product.sol\":5649:5659  msg.sender */\n      caller\n        /* \"contracts/4_Product.sol\":5640:5660  balances[msg.sender] */\n      0xffffffffffffffffffffffffffffffffffffffff\n      and\n      0xffffffffffffffffffffffffffffffffffffffff\n      and\n      dup2\n      mstore\n      0x20\n      add\n      swap1\n      dup2\n      mstore\n      0x20\n      add\n      0x00\n      keccak256\n      sload\n        /* \"contracts/4_Product.sol\":5640:5671  balances[msg.sender] >= _amount */\n      lt\n      iszero\n        /* \"contracts/4_Product.sol\":5632:5672  require(balances[msg.sender] >= _amount) */\n      tag_130\n      jumpi\n      0x00\n      dup1\n      revert\n    tag_130:\n        /* \"contracts/4_Product.sol\":5782:5783  0 */\n      0x00\n        /* \"contracts/4_Product.sol\":5767:5784  _to != address(0) */\n      0xffffffffffffffffffffffffffffffffffffffff\n      and\n        /* \"contracts/4_Product.sol\":5767:5770  _to */\n      dup4\n        /* \"contracts/4_Product.sol\":5767:5784  _to != address(0) */\n      0xffffffffffffffffffffffffffffffffffffffff\n      and\n      eq\n      iszero\n        /* \"contracts/4_Product.sol\":5759:5785  require(_to != address(0)) */\n      tag_131\n      jumpi\n      0x00\n      dup1\n      revert\n    tag_131:\n        /* \"contracts/4_Product.sol\":5830:5837  _amount */\n      dup2\n        /* \"contracts/4_Product.sol\":5806:5814  balances */\n      0x04\n        /* \"contracts/4_Product.sol\":5806:5826  balances[msg.sender] */\n      0x00\n        /* \"contracts/4_Product.sol\":5815:5825  msg.sender */\n      caller\n        /* \"contracts/4_Product.sol\":5806:5826  balances[msg.sender] */\n      0xffffffffffffffffffffffffffffffffffffffff\n      and\n      0xffffffffffffffffffffffffffffffffffffffff\n      and\n      dup2\n      mstore\n      0x20\n      add\n      swap1\n      dup2\n      mstore\n      0x20\n      add\n      0x00\n      keccak256\n      0x00\n        /* \"contracts/4_Product.sol\":5806:5837  balances[msg.sender] -= _amount */\n      dup3\n      dup3\n      sload\n      tag_132\n      swap2\n      swap1\n      tag_133\n      jump\t// in\n    tag_132:\n      swap3\n      pop\n      pop\n      dup2\n      swap1\n      sstore\n      pop\n        /* \"contracts/4_Product.sol\":5865:5872  _amount */\n      dup2\n        /* \"contracts/4_Product.sol\":5848:5856  balances */\n      0x04\n        /* \"contracts/4_Product.sol\":5848:5861  balances[_to] */\n      0x00\n        /* \"contracts/4_Product.sol\":5857:5860  _to */\n      dup6\n        /* \"contracts/4_Product.sol\":5848:5861  balances[_to] */\n      0xffffffffffffffffffffffffffffffffffffffff\n      and\n      0xffffffffffffffffffffffffffffffffffffffff\n      and\n      dup2\n      mstore\n      0x20\n      add\n      swap1\n      dup2\n      mstore\n      0x20\n      add\n      0x00\n      keccak256\n      0x00\n        /* \"contracts/4_Product.sol\":5848:5872  balances[_to] += _amount */\n      dup3\n      dup3\n      sload\n      tag_134\n      swap2\n      swap1\n      tag_135\n      jump\t// in\n    tag_134:\n      swap3\n      pop\n      pop\n      dup2\n      swap1\n      sstore\n      pop\n        /* \"contracts/4_Product.sol\":5890:5894  true */\n      0x01\n        /* \"contracts/4_Product.sol\":5883:5894  return true */\n      swap1\n      pop\n        /* \"contracts/4_Product.sol\":5546:5902  function tokenTransfer(address _to, uint256 _amount) public returns (bool) {\r... */\n      swap3\n      swap2\n      pop\n      pop\n      jump\t// out\n        /* \"contracts/4_Product.sol\":114:134  string public symbol */\n    tag_41:\n      0x01\n      dup1\n      sload\n      tag_136\n      swap1\n      tag_83\n      jump\t// in\n    tag_136:\n      dup1\n      0x1f\n      add\n      0x20\n      dup1\n      swap2\n      div\n      mul\n      0x20\n      add\n      mload(0x40)\n      swap1\n      dup2\n      add\n      0x40\n      mstore\n      dup1\n      swap3\n      swap2\n      swap1\n      dup2\n      dup2\n      mstore\n      0x20\n      add\n      dup3\n      dup1\n      sload\n      tag_137\n      swap1\n      tag_83\n      jump\t// in\n    tag_137:\n      dup1\n      iszero\n      tag_138\n      jumpi\n      dup1\n      0x1f\n      lt\n      tag_139\n      jumpi\n      0x0100\n      dup1\n      dup4\n      sload\n      div\n      mul\n      dup4\n      mstore\n      swap2\n      0x20\n      add\n      swap2\n      jump(tag_138)\n    tag_139:\n      dup3\n      add\n      swap2\n      swap1\n      0x00\n      mstore\n      keccak256(0x00, 0x20)\n      swap1\n    tag_140:\n      dup2\n      sload\n      dup2\n      mstore\n      swap1\n      0x01\n      add\n      swap1\n      0x20\n      add\n      dup1\n      dup4\n      gt\n      tag_140\n      jumpi\n      dup3\n      swap1\n      sub\n      0x1f\n      and\n      dup3\n      add\n      swap2\n    tag_138:\n      pop\n      pop\n      pop\n      pop\n      pop\n      dup2\n      jump\t// out\n        /* \"contracts/4_Product.sol\":4500:4917  function burn(address _account, uint256 _amount) public OnlyTokenOwner {\r... */\n    tag_46:\n        /* \"contracts/4_Product.sol\":2720:2730  tokenOwner */\n      0x02\n      0x00\n      swap1\n      sload\n      swap1\n      0x0100\n      exp\n      swap1\n      div\n      0xffffffffffffffffffffffffffffffffffffffff\n      and\n        /* \"contracts/4_Product.sol\":2706:2730  msg.sender == tokenOwner */\n      0xffffffffffffffffffffffffffffffffffffffff\n      and\n        /* \"contracts/4_Product.sol\":2706:2716  msg.sender */\n      caller\n        /* \"contracts/4_Product.sol\":2706:2730  msg.sender == tokenOwner */\n      0xffffffffffffffffffffffffffffffffffffffff\n      and\n      eq\n        /* \"contracts/4_Product.sol\":2698:2765  require(msg.sender == tokenOwner, 'caller is not the token owner.') */\n      tag_142\n      jumpi\n      mload(0x40)\n      0x08c379a000000000000000000000000000000000000000000000000000000000\n      dup2\n      mstore\n      0x04\n      add\n      tag_143\n      swap1\n      tag_144\n      jump\t// in\n    tag_143:\n      mload(0x40)\n      dup1\n      swap2\n      sub\n      swap1\n      revert\n    tag_142:\n        /* \"contracts/4_Product.sol\":4610:4611  0 */\n      0x00\n        /* \"contracts/4_Product.sol\":4590:4612  _account != address(0) */\n      0xffffffffffffffffffffffffffffffffffffffff\n      and\n        /* \"contracts/4_Product.sol\":4590:4598  _account */\n      dup3\n        /* \"contracts/4_Product.sol\":4590:4612  _account != address(0) */\n      0xffffffffffffffffffffffffffffffffffffffff\n      and\n      eq\n      iszero\n        /* \"contracts/4_Product.sol\":4582:4613  require(_account != address(0)) */\n      tag_146\n      jumpi\n      0x00\n      dup1\n      revert\n    tag_146:\n        /* \"contracts/4_Product.sol\":4738:4746  balances */\n      0x04\n        /* \"contracts/4_Product.sol\":4738:4756  balances[_account] */\n      0x00\n        /* \"contracts/4_Product.sol\":4747:4755  _account */\n      dup4\n        /* \"contracts/4_Product.sol\":4738:4756  balances[_account] */\n      0xffffffffffffffffffffffffffffffffffffffff\n      and\n      0xffffffffffffffffffffffffffffffffffffffff\n      and\n      dup2\n      mstore\n      0x20\n      add\n      swap1\n      dup2\n      mstore\n      0x20\n      add\n      0x00\n      keccak256\n      sload\n        /* \"contracts/4_Product.sol\":4727:4734  _amount */\n      dup2\n        /* \"contracts/4_Product.sol\":4727:4756  _amount <= balances[_account] */\n      gt\n      iszero\n        /* \"contracts/4_Product.sol\":4719:4757  require(_amount <= balances[_account]) */\n      tag_147\n      jumpi\n      0x00\n      dup1\n      revert\n    tag_147:\n        /* \"contracts/4_Product.sol\":4862:4869  _amount */\n      dup1\n        /* \"contracts/4_Product.sol\":4846:4858  _totalSupply */\n      0x03\n      0x00\n        /* \"contracts/4_Product.sol\":4846:4869  _totalSupply -= _amount */\n      dup3\n      dup3\n      sload\n      tag_148\n      swap2\n      swap1\n      tag_133\n      jump\t// in\n    tag_148:\n      swap3\n      pop\n      pop\n      dup2\n      swap1\n      sstore\n      pop\n        /* \"contracts/4_Product.sol\":4902:4909  _amount */\n      dup1\n        /* \"contracts/4_Product.sol\":4880:4888  balances */\n      0x04\n        /* \"contracts/4_Product.sol\":4880:4898  balances[_account] */\n      0x00\n        /* \"contracts/4_Product.sol\":4889:4897  _account */\n      dup5\n        /* \"contracts/4_Product.sol\":4880:4898  balances[_account] */\n      0xffffffffffffffffffffffffffffffffffffffff\n      and\n      0xffffffffffffffffffffffffffffffffffffffff\n      and\n      dup2\n      mstore\n      0x20\n      add\n      swap1\n      dup2\n      mstore\n      0x20\n      add\n      0x00\n      keccak256\n      0x00\n        /* \"contracts/4_Product.sol\":4880:4909  balances[_account] -= _amount */\n      dup3\n      dup3\n      sload\n      tag_149\n      swap2\n      swap1\n      tag_133\n      jump\t// in\n    tag_149:\n      swap3\n      pop\n      pop\n      dup2\n      swap1\n      sstore\n      pop\n        /* \"contracts/4_Product.sol\":4500:4917  function burn(address _account, uint256 _amount) public OnlyTokenOwner {\r... */\n      pop\n      pop\n      jump\t// out\n        /* \"contracts/4_Product.sol\":4121:4343  function mint(uint256 _amount) public OnlyTokenOwner {\r... */\n    tag_51:\n        /* \"contracts/4_Product.sol\":2720:2730  tokenOwner */\n      0x02\n      0x00\n      swap1\n      sload\n      swap1\n      0x0100\n      exp\n      swap1\n      div\n      0xffffffffffffffffffffffffffffffffffffffff\n      and\n        /* \"contracts/4_Product.sol\":2706:2730  msg.sender == tokenOwner */\n      0xffffffffffffffffffffffffffffffffffffffff\n      and\n        /* \"contracts/4_Product.sol\":2706:2716  msg.sender */\n      caller\n        /* \"contracts/4_Product.sol\":2706:2730  msg.sender == tokenOwner */\n      0xffffffffffffffffffffffffffffffffffffffff\n      and\n      eq\n        /* \"contracts/4_Product.sol\":2698:2765  require(msg.sender == tokenOwner, 'caller is not the token owner.') */\n      tag_151\n      jumpi\n      mload(0x40)\n      0x08c379a000000000000000000000000000000000000000000000000000000000\n      dup2\n      mstore\n      0x04\n      add\n      tag_152\n      swap1\n      tag_144\n      jump\t// in\n    tag_152:\n      mload(0x40)\n      dup1\n      swap2\n      sub\n      swap1\n      revert\n    tag_151:\n        /* \"contracts/4_Product.sol\":4201:4208  _amount */\n      dup1\n        /* \"contracts/4_Product.sol\":4185:4197  _totalSupply */\n      0x03\n      0x00\n        /* \"contracts/4_Product.sol\":4185:4208  _totalSupply += _amount */\n      dup3\n      dup3\n      sload\n      tag_154\n      swap2\n      swap1\n      tag_135\n      jump\t// in\n    tag_154:\n      swap3\n      pop\n      pop\n      dup2\n      swap1\n      sstore\n      pop\n        /* \"contracts/4_Product.sol\":4279:4286  _amount */\n      dup1\n        /* \"contracts/4_Product.sol\":4255:4263  balances */\n      0x04\n        /* \"contracts/4_Product.sol\":4255:4275  balances[msg.sender] */\n      0x00\n        /* \"contracts/4_Product.sol\":4264:4274  msg.sender */\n      caller\n        /* \"contracts/4_Product.sol\":4255:4275  balances[msg.sender] */\n      0xffffffffffffffffffffffffffffffffffffffff\n      and\n      0xffffffffffffffffffffffffffffffffffffffff\n      and\n      dup2\n      mstore\n      0x20\n      add\n      swap1\n      dup2\n      mstore\n      0x20\n      add\n      0x00\n      keccak256\n      0x00\n        /* \"contracts/4_Product.sol\":4255:4286  balances[msg.sender] += _amount */\n      dup3\n      dup3\n      sload\n      tag_155\n      swap2\n      swap1\n      tag_135\n      jump\t// in\n    tag_155:\n      swap3\n      pop\n      pop\n      dup2\n      swap1\n      sstore\n      pop\n        /* \"contracts/4_Product.sol\":4121:4343  function mint(uint256 _amount) public OnlyTokenOwner {\r... */\n      pop\n      jump\t// out\n        /* \"contracts/4_Product.sol\":165:199  address payable public  tokenOwner */\n    tag_54:\n      0x02\n      0x00\n      swap1\n      sload\n      swap1\n      0x0100\n      exp\n      swap1\n      div\n      0xffffffffffffffffffffffffffffffffffffffff\n      and\n      dup2\n      jump\t// out\n        /* \"contracts/4_Product.sol\":4975:5472  function buyToken() public payable {\r... */\n    tag_58:\n        /* \"contracts/4_Product.sol\":5020:5036  uint256 tokenNum */\n      0x00\n        /* \"contracts/4_Product.sol\":287:290  100 */\n      0x64\n        /* \"contracts/4_Product.sol\":5039:5048  msg.value */\n      callvalue\n        /* \"contracts/4_Product.sol\":5039:5059  msg.value/tokenPrice */\n      tag_157\n      swap2\n      swap1\n      tag_158\n      jump\t// in\n    tag_157:\n        /* \"contracts/4_Product.sol\":5020:5059  uint256 tokenNum = msg.value/tokenPrice */\n      swap1\n      pop\n        /* \"contracts/4_Product.sol\":5121:5122  0 */\n      0x00\n        /* \"contracts/4_Product.sol\":5109:5118  msg.value */\n      callvalue\n        /* \"contracts/4_Product.sol\":5109:5122  msg.value > 0 */\n      gt\n        /* \"contracts/4_Product.sol\":5101:5123  require(msg.value > 0) */\n      tag_159\n      jumpi\n      0x00\n      dup1\n      revert\n    tag_159:\n        /* \"contracts/4_Product.sol\":5171:5181  tokenOwner */\n      0x02\n      0x00\n      swap1\n      sload\n      swap1\n      0x0100\n      exp\n      swap1\n      div\n      0xffffffffffffffffffffffffffffffffffffffff\n      and\n        /* \"contracts/4_Product.sol\":5171:5190  tokenOwner.transfer */\n      0xffffffffffffffffffffffffffffffffffffffff\n      and\n        /* \"contracts/4_Product.sol\":5171:5201  tokenOwner.transfer(msg.value) */\n      0x08fc\n        /* \"contracts/4_Product.sol\":5191:5200  msg.value */\n      callvalue\n        /* \"contracts/4_Product.sol\":5171:5201  tokenOwner.transfer(msg.value) */\n      swap1\n      dup2\n      iszero\n      mul\n      swap1\n      mload(0x40)\n      0x00\n      mload(0x40)\n      dup1\n      dup4\n      sub\n      dup2\n      dup6\n      dup9\n      dup9\n      call\n      swap4\n      pop\n      pop\n      pop\n      pop\n      iszero\n      dup1\n      iszero\n      tag_161\n      jumpi\n      returndatasize\n      0x00\n      dup1\n      returndatacopy\n      revert(0x00, returndatasize)\n    tag_161:\n      pop\n        /* \"contracts/4_Product.sol\":5301:5309  tokenNum */\n      dup1\n        /* \"contracts/4_Product.sol\":5277:5285  balances */\n      0x04\n        /* \"contracts/4_Product.sol\":5277:5297  balances[tokenOwner] */\n      0x00\n        /* \"contracts/4_Product.sol\":5286:5296  tokenOwner */\n      0x02\n      0x00\n      swap1\n      sload\n      swap1\n      0x0100\n      exp\n      swap1\n      div\n      0xffffffffffffffffffffffffffffffffffffffff\n      and\n        /* \"contracts/4_Product.sol\":5277:5297  balances[tokenOwner] */\n      0xffffffffffffffffffffffffffffffffffffffff\n      and\n      0xffffffffffffffffffffffffffffffffffffffff\n      and\n      dup2\n      mstore\n      0x20\n      add\n      swap1\n      dup2\n      mstore\n      0x20\n      add\n      0x00\n      keccak256\n      0x00\n        /* \"contracts/4_Product.sol\":5277:5309  balances[tokenOwner] -= tokenNum */\n      dup3\n      dup3\n      sload\n      tag_162\n      swap2\n      swap1\n      tag_133\n      jump\t// in\n    tag_162:\n      swap3\n      pop\n      pop\n      dup2\n      swap1\n      sstore\n      pop\n        /* \"contracts/4_Product.sol\":5402:5410  tokenNum */\n      dup1\n        /* \"contracts/4_Product.sol\":5378:5386  balances */\n      0x04\n        /* \"contracts/4_Product.sol\":5378:5398  balances[msg.sender] */\n      0x00\n        /* \"contracts/4_Product.sol\":5387:5397  msg.sender */\n      caller\n        /* \"contracts/4_Product.sol\":5378:5398  balances[msg.sender] */\n      0xffffffffffffffffffffffffffffffffffffffff\n      and\n      0xffffffffffffffffffffffffffffffffffffffff\n      and\n      dup2\n      mstore\n      0x20\n      add\n      swap1\n      dup2\n      mstore\n      0x20\n      add\n      0x00\n      keccak256\n      0x00\n        /* \"contracts/4_Product.sol\":5378:5410  balances[msg.sender] += tokenNum */\n      dup3\n      dup3\n      sload\n      tag_163\n      swap2\n      swap1\n      tag_135\n      jump\t// in\n    tag_163:\n      swap3\n      pop\n      pop\n      dup2\n      swap1\n      sstore\n      pop\n        /* \"contracts/4_Product.sol\":5010:5472  {\r... */\n      pop\n        /* \"contracts/4_Product.sol\":4975:5472  function buyToken() public payable {\r... */\n      jump\t// out\n        /* \"contracts/4_Product.sol\":9608:9784  function getActorInfo(address _addr) public view returns\r... */\n    tag_63:\n        /* \"contracts/4_Product.sol\":9673:9683  Role _role */\n      0x00\n        /* \"contracts/4_Product.sol\":9690:9709  string memory _name */\n      0x60\n        /* \"contracts/4_Product.sol\":9729:9735  actors */\n      0x05\n        /* \"contracts/4_Product.sol\":9729:9742  actors[_addr] */\n      0x00\n        /* \"contracts/4_Product.sol\":9736:9741  _addr */\n      dup5\n        /* \"contracts/4_Product.sol\":9729:9742  actors[_addr] */\n      0xffffffffffffffffffffffffffffffffffffffff\n      and\n      0xffffffffffffffffffffffffffffffffffffffff\n      and\n      dup2\n      mstore\n      0x20\n      add\n      swap1\n      dup2\n      mstore\n      0x20\n      add\n      0x00\n      keccak256\n        /* \"contracts/4_Product.sol\":9729:9747  actors[_addr].role */\n      0x00\n      add\n      0x00\n      swap1\n      sload\n      swap1\n      0x0100\n      exp\n      swap1\n      div\n      0xff\n      and\n        /* \"contracts/4_Product.sol\":9721:9747  _role = actors[_addr].role */\n      swap2\n      pop\n        /* \"contracts/4_Product.sol\":9762:9768  actors */\n      0x05\n        /* \"contracts/4_Product.sol\":9762:9775  actors[_addr] */\n      0x00\n        /* \"contracts/4_Product.sol\":9769:9774  _addr */\n      dup5\n        /* \"contracts/4_Product.sol\":9762:9775  actors[_addr] */\n      0xffffffffffffffffffffffffffffffffffffffff\n      and\n      0xffffffffffffffffffffffffffffffffffffffff\n      and\n      dup2\n      mstore\n      0x20\n      add\n      swap1\n      dup2\n      mstore\n      0x20\n      add\n      0x00\n      keccak256\n        /* \"contracts/4_Product.sol\":9762:9780  actors[_addr].name */\n      0x01\n      add\n        /* \"contracts/4_Product.sol\":9754:9780  _name = actors[_addr].name */\n      dup1\n      sload\n      tag_165\n      swap1\n      tag_83\n      jump\t// in\n    tag_165:\n      dup1\n      0x1f\n      add\n      0x20\n      dup1\n      swap2\n      div\n      mul\n      0x20\n      add\n      mload(0x40)\n      swap1\n      dup2\n      add\n      0x40\n      mstore\n      dup1\n      swap3\n      swap2\n      swap1\n      dup2\n      dup2\n      mstore\n      0x20\n      add\n      dup3\n      dup1\n      sload\n      tag_166\n      swap1\n      tag_83\n      jump\t// in\n    tag_166:\n      dup1\n      iszero\n      tag_167\n      jumpi\n      dup1\n      0x1f\n      lt\n      tag_168\n      jumpi\n      0x0100\n      dup1\n      dup4\n      sload\n      div\n      mul\n      dup4\n      mstore\n      swap2\n      0x20\n      add\n      swap2\n      jump(tag_167)\n    tag_168:\n      dup3\n      add\n      swap2\n      swap1\n      0x00\n      mstore\n      keccak256(0x00, 0x20)\n      swap1\n    tag_169:\n      dup2\n      sload\n      dup2\n      mstore\n      swap1\n      0x01\n      add\n      swap1\n      0x20\n      add\n      dup1\n      dup4\n      gt\n      tag_169\n      jumpi\n      dup3\n      swap1\n      sub\n      0x1f\n      and\n      dup3\n      add\n      swap2\n    tag_167:\n      pop\n      pop\n      pop\n      pop\n      pop\n      swap1\n      pop\n        /* \"contracts/4_Product.sol\":9608:9784  function getActorInfo(address _addr) public view returns\r... */\n      swap2\n      pop\n      swap2\n      jump\t// out\n        /* \"contracts/4_Product.sol\":3899:4005  function etherBalance(address _addr) public view returns (uint256) {\r... */\n    tag_69:\n        /* \"contracts/4_Product.sol\":3957:3964  uint256 */\n      0x00\n        /* \"contracts/4_Product.sol\":3984:3989  _addr */\n      dup2\n        /* \"contracts/4_Product.sol\":3984:3997  _addr.balance */\n      0xffffffffffffffffffffffffffffffffffffffff\n      and\n      balance\n        /* \"contracts/4_Product.sol\":3977:3997  return _addr.balance */\n      swap1\n      pop\n        /* \"contracts/4_Product.sol\":3899:4005  function etherBalance(address _addr) public view returns (uint256) {\r... */\n      swap2\n      swap1\n      pop\n      jump\t// out\n        /* \"contracts/4_Product.sol\":7363:8034  function buyProduct(uint256 _id, uint256 _timestamp,  string memory _log) public OnlyDistributor{\r... */\n    tag_76:\n        /* \"contracts/4_Product.sol\":3015:3031  Role.Distributor */\n      0x01\n        /* \"contracts/4_Product.sol\":2988:3031  actors[msg.sender].role == Role.Distributor */\n      0x04\n      dup2\n      gt\n      iszero\n      tag_172\n      jumpi\n      tag_173\n      tag_91\n      jump\t// in\n    tag_173:\n    tag_172:\n        /* \"contracts/4_Product.sol\":2988:2994  actors */\n      0x05\n        /* \"contracts/4_Product.sol\":2988:3006  actors[msg.sender] */\n      0x00\n        /* \"contracts/4_Product.sol\":2995:3005  msg.sender */\n      caller\n        /* \"contracts/4_Product.sol\":2988:3006  actors[msg.sender] */\n      0xffffffffffffffffffffffffffffffffffffffff\n      and\n      0xffffffffffffffffffffffffffffffffffffffff\n      and\n      dup2\n      mstore\n      0x20\n      add\n      swap1\n      dup2\n      mstore\n      0x20\n      add\n      0x00\n      keccak256\n        /* \"contracts/4_Product.sol\":2988:3011  actors[msg.sender].role */\n      0x00\n      add\n      0x00\n      swap1\n      sload\n      swap1\n      0x0100\n      exp\n      swap1\n      div\n      0xff\n      and\n        /* \"contracts/4_Product.sol\":2988:3031  actors[msg.sender].role == Role.Distributor */\n      0x04\n      dup2\n      gt\n      iszero\n      tag_174\n      jumpi\n      tag_175\n      tag_91\n      jump\t// in\n    tag_175:\n    tag_174:\n      eq\n        /* \"contracts/4_Product.sol\":2980:3064  require(actors[msg.sender].role == Role.Distributor, 'caller is not a distributor.') */\n      tag_176\n      jumpi\n      mload(0x40)\n      0x08c379a000000000000000000000000000000000000000000000000000000000\n      dup2\n      mstore\n      0x04\n      add\n      tag_177\n      swap1\n      tag_178\n      jump\t// in\n    tag_177:\n      mload(0x40)\n      dup1\n      swap2\n      sub\n      swap1\n      revert\n    tag_176:\n        /* \"contracts/4_Product.sol\":7470:7499  Product storage boughtProduct */\n      0x00\n        /* \"contracts/4_Product.sol\":7502:7509  product */\n      0x06\n        /* \"contracts/4_Product.sol\":7502:7514  product[_id] */\n      0x00\n        /* \"contracts/4_Product.sol\":7510:7513  _id */\n      dup6\n        /* \"contracts/4_Product.sol\":7502:7514  product[_id] */\n      dup2\n      mstore\n      0x20\n      add\n      swap1\n      dup2\n      mstore\n      0x20\n      add\n      0x00\n      keccak256\n        /* \"contracts/4_Product.sol\":7470:7514  Product storage boughtProduct = product[_id] */\n      swap1\n      pop\n        /* \"contracts/4_Product.sol\":7525:7544  uint256 tokenNumber */\n      0x00\n        /* \"contracts/4_Product.sol\":7547:7555  balances */\n      0x04\n        /* \"contracts/4_Product.sol\":7547:7567  balances[msg.sender] */\n      0x00\n        /* \"contracts/4_Product.sol\":7556:7566  msg.sender */\n      caller\n        /* \"contracts/4_Product.sol\":7547:7567  balances[msg.sender] */\n      0xffffffffffffffffffffffffffffffffffffffff\n      and\n      0xffffffffffffffffffffffffffffffffffffffff\n      and\n      dup2\n      mstore\n      0x20\n      add\n      swap1\n      dup2\n      mstore\n      0x20\n      add\n      0x00\n      keccak256\n      sload\n        /* \"contracts/4_Product.sol\":7525:7567  uint256 tokenNumber = balances[msg.sender] */\n      swap1\n      pop\n        /* \"contracts/4_Product.sol\":7601:7614  boughtProduct */\n      dup2\n        /* \"contracts/4_Product.sol\":7601:7627  boughtProduct.productPrice */\n      0x08\n      add\n      sload\n        /* \"contracts/4_Product.sol\":7586:7597  tokenNumber */\n      dup2\n        /* \"contracts/4_Product.sol\":7586:7627  tokenNumber >= boughtProduct.productPrice */\n      lt\n      iszero\n        /* \"contracts/4_Product.sol\":7578:7628  require(tokenNumber >= boughtProduct.productPrice) */\n      tag_180\n      jumpi\n      0x00\n      dup1\n      revert\n    tag_180:\n        /* \"contracts/4_Product.sol\":7677:7691  State.Produced */\n      0x00\n        /* \"contracts/4_Product.sol\":7647:7691  boughtProduct.productState == State.Produced */\n      0x05\n      dup2\n      gt\n      iszero\n      tag_181\n      jumpi\n      tag_182\n      tag_91\n      jump\t// in\n    tag_182:\n    tag_181:\n        /* \"contracts/4_Product.sol\":7647:7660  boughtProduct */\n      dup3\n        /* \"contracts/4_Product.sol\":7647:7673  boughtProduct.productState */\n      0x07\n      add\n      0x00\n      swap1\n      sload\n      swap1\n      0x0100\n      exp\n      swap1\n      div\n      0xff\n      and\n        /* \"contracts/4_Product.sol\":7647:7691  boughtProduct.productState == State.Produced */\n      0x05\n      dup2\n      gt\n      iszero\n      tag_183\n      jumpi\n      tag_184\n      tag_91\n      jump\t// in\n    tag_184:\n    tag_183:\n      eq\n        /* \"contracts/4_Product.sol\":7639:7692  require(boughtProduct.productState == State.Produced) */\n      tag_185\n      jumpi\n      0x00\n      dup1\n      revert\n    tag_185:\n        /* \"contracts/4_Product.sol\":7741:7751  _timestamp */\n      dup4\n        /* \"contracts/4_Product.sol\":7713:7720  product */\n      0x06\n        /* \"contracts/4_Product.sol\":7713:7725  product[_id] */\n      0x00\n        /* \"contracts/4_Product.sol\":7721:7724  _id */\n      dup8\n        /* \"contracts/4_Product.sol\":7713:7725  product[_id] */\n      dup2\n      mstore\n      0x20\n      add\n      swap1\n      dup2\n      mstore\n      0x20\n      add\n      0x00\n      keccak256\n        /* \"contracts/4_Product.sol\":7713:7735  product[_id].timestamp */\n      0x03\n      add\n        /* \"contracts/4_Product.sol\":7736:7737  1 */\n      0x01\n        /* \"contracts/4_Product.sol\":7713:7738  product[_id].timestamp[1] */\n      0x04\n      dup2\n      lt\n      tag_186\n      jumpi\n      tag_187\n      tag_118\n      jump\t// in\n    tag_187:\n    tag_186:\n      add\n        /* \"contracts/4_Product.sol\":7713:7751  product[_id].timestamp[1] = _timestamp */\n      dup2\n      swap1\n      sstore\n      pop\n        /* \"contracts/4_Product.sol\":7828:7838  msg.sender */\n      caller\n        /* \"contracts/4_Product.sol\":7799:7806  product */\n      0x06\n        /* \"contracts/4_Product.sol\":7799:7811  product[_id] */\n      0x00\n        /* \"contracts/4_Product.sol\":7807:7810  _id */\n      dup8\n        /* \"contracts/4_Product.sol\":7799:7811  product[_id] */\n      dup2\n      mstore\n      0x20\n      add\n      swap1\n      dup2\n      mstore\n      0x20\n      add\n      0x00\n      keccak256\n        /* \"contracts/4_Product.sol\":7799:7825  product[_id].distributorID */\n      0x09\n      add\n      0x00\n        /* \"contracts/4_Product.sol\":7799:7838  product[_id].distributorID = msg.sender */\n      0x0100\n      exp\n      dup2\n      sload\n      dup2\n      0xffffffffffffffffffffffffffffffffffffffff\n      mul\n      not\n      and\n      swap1\n      dup4\n      0xffffffffffffffffffffffffffffffffffffffff\n      and\n      mul\n      or\n      swap1\n      sstore\n      pop\n        /* \"contracts/4_Product.sol\":7854:7916  tokenTransfer(product[_id].ownerID,boughtProduct.productPrice) */\n      tag_189\n        /* \"contracts/4_Product.sol\":7868:7875  product */\n      0x06\n        /* \"contracts/4_Product.sol\":7868:7880  product[_id] */\n      0x00\n        /* \"contracts/4_Product.sol\":7876:7879  _id */\n      dup8\n        /* \"contracts/4_Product.sol\":7868:7880  product[_id] */\n      dup2\n      mstore\n      0x20\n      add\n      swap1\n      dup2\n      mstore\n      0x20\n      add\n      0x00\n      keccak256\n        /* \"contracts/4_Product.sol\":7868:7888  product[_id].ownerID */\n      0x01\n      add\n      0x00\n      swap1\n      sload\n      swap1\n      0x0100\n      exp\n      swap1\n      div\n      0xffffffffffffffffffffffffffffffffffffffff\n      and\n        /* \"contracts/4_Product.sol\":7889:7902  boughtProduct */\n      dup4\n        /* \"contracts/4_Product.sol\":7889:7915  boughtProduct.productPrice */\n      0x08\n      add\n      sload\n        /* \"contracts/4_Product.sol\":7854:7867  tokenTransfer */\n      tag_36\n        /* \"contracts/4_Product.sol\":7854:7916  tokenTransfer(product[_id].ownerID,boughtProduct.productPrice) */\n      jump\t// in\n    tag_189:\n      pop\n        /* \"contracts/4_Product.sol\":7956:7971  State.Purchased */\n      0x05\n        /* \"contracts/4_Product.sol\":7928:7935  product */\n      0x06\n        /* \"contracts/4_Product.sol\":7928:7940  product[_id] */\n      0x00\n        /* \"contracts/4_Product.sol\":7936:7939  _id */\n      dup8\n        /* \"contracts/4_Product.sol\":7928:7940  product[_id] */\n      dup2\n      mstore\n      0x20\n      add\n      swap1\n      dup2\n      mstore\n      0x20\n      add\n      0x00\n      keccak256\n        /* \"contracts/4_Product.sol\":7928:7953  product[_id].productState */\n      0x07\n      add\n      0x00\n        /* \"contracts/4_Product.sol\":7928:7971  product[_id].productState = State.Purchased */\n      0x0100\n      exp\n      dup2\n      sload\n      dup2\n      0xff\n      mul\n      not\n      and\n      swap1\n      dup4\n      0x05\n      dup2\n      gt\n      iszero\n      tag_190\n      jumpi\n      tag_191\n      tag_91\n      jump\t// in\n    tag_191:\n    tag_190:\n      mul\n      or\n      swap1\n      sstore\n      pop\n        /* \"contracts/4_Product.sol\":8006:8016  msg.sender */\n      caller\n        /* \"contracts/4_Product.sol\":7983:7990  product */\n      0x06\n        /* \"contracts/4_Product.sol\":7983:7995  product[_id] */\n      0x00\n        /* \"contracts/4_Product.sol\":7991:7994  _id */\n      dup8\n        /* \"contracts/4_Product.sol\":7983:7995  product[_id] */\n      dup2\n      mstore\n      0x20\n      add\n      swap1\n      dup2\n      mstore\n      0x20\n      add\n      0x00\n      keccak256\n        /* \"contracts/4_Product.sol\":7983:8003  product[_id].ownerID */\n      0x01\n      add\n      0x00\n        /* \"contracts/4_Product.sol\":7983:8016  product[_id].ownerID = msg.sender */\n      0x0100\n      exp\n      dup2\n      sload\n      dup2\n      0xffffffffffffffffffffffffffffffffffffffff\n      mul\n      not\n      and\n      swap1\n      dup4\n      0xffffffffffffffffffffffffffffffffffffffff\n      and\n      mul\n      or\n      swap1\n      sstore\n      pop\n        /* \"contracts/4_Product.sol\":7459:8034  {\r... */\n      pop\n      pop\n        /* \"contracts/4_Product.sol\":7363:8034  function buyProduct(uint256 _id, uint256 _timestamp,  string memory _log) public OnlyDistributor{\r... */\n      pop\n      pop\n      pop\n      jump\t// out\n        /* \"contracts/4_Product.sol\":3725:3833  function tokenBalance(address _addr) public view returns (uint256) {\r... */\n    tag_80:\n        /* \"contracts/4_Product.sol\":3783:3790  uint256 */\n      0x00\n        /* \"contracts/4_Product.sol\":3810:3818  balances */\n      0x04\n        /* \"contracts/4_Product.sol\":3810:3825  balances[_addr] */\n      0x00\n        /* \"contracts/4_Product.sol\":3819:3824  _addr */\n      dup4\n        /* \"contracts/4_Product.sol\":3810:3825  balances[_addr] */\n      0xffffffffffffffffffffffffffffffffffffffff\n      and\n      0xffffffffffffffffffffffffffffffffffffffff\n      and\n      dup2\n      mstore\n      0x20\n      add\n      swap1\n      dup2\n      mstore\n      0x20\n      add\n      0x00\n      keccak256\n      sload\n        /* \"contracts/4_Product.sol\":3803:3825  return balances[_addr] */\n      swap1\n      pop\n        /* \"contracts/4_Product.sol\":3725:3833  function tokenBalance(address _addr) public view returns (uint256) {\r... */\n      swap2\n      swap1\n      pop\n      jump\t// out\n    tag_106:\n      dup3\n      dup1\n      sload\n      tag_193\n      swap1\n      tag_83\n      jump\t// in\n    tag_193:\n      swap1\n      0x00\n      mstore\n      keccak256(0x00, 0x20)\n      swap1\n      0x1f\n      add\n      0x20\n      swap1\n      div\n      dup2\n      add\n      swap3\n      dup3\n      tag_195\n      jumpi\n      0x00\n      dup6\n      sstore\n      jump(tag_194)\n    tag_195:\n      dup3\n      0x1f\n      lt\n      tag_196\n      jumpi\n      dup1\n      mload\n      not(0xff)\n      and\n      dup4\n      dup1\n      add\n      or\n      dup6\n      sstore\n      jump(tag_194)\n    tag_196:\n      dup3\n      dup1\n      add\n      0x01\n      add\n      dup6\n      sstore\n      dup3\n      iszero\n      tag_194\n      jumpi\n      swap2\n      dup3\n      add\n    tag_197:\n      dup3\n      dup2\n      gt\n      iszero\n      tag_198\n      jumpi\n      dup3\n      mload\n      dup3\n      sstore\n      swap2\n      0x20\n      add\n      swap2\n      swap1\n      0x01\n      add\n      swap1\n      jump(tag_197)\n    tag_198:\n    tag_194:\n      pop\n      swap1\n      pop\n      tag_199\n      swap2\n      swap1\n      tag_200\n      jump\t// in\n    tag_199:\n      pop\n      swap1\n      jump\t// out\n    tag_200:\n    tag_201:\n      dup1\n      dup3\n      gt\n      iszero\n      tag_202\n      jumpi\n      0x00\n      dup2\n      0x00\n      swap1\n      sstore\n      pop\n      0x01\n      add\n      jump(tag_201)\n    tag_202:\n      pop\n      swap1\n      jump\t// out\n        /* \"#utility.yul\":7:419   */\n    tag_204:\n        /* \"#utility.yul\":85:90   */\n      0x00\n        /* \"#utility.yul\":110:176   */\n      tag_206\n        /* \"#utility.yul\":126:175   */\n      tag_207\n        /* \"#utility.yul\":168:174   */\n      dup5\n        /* \"#utility.yul\":126:175   */\n      tag_208\n      jump\t// in\n    tag_207:\n        /* \"#utility.yul\":110:176   */\n      tag_209\n      jump\t// in\n    tag_206:\n        /* \"#utility.yul\":101:176   */\n      swap1\n      pop\n        /* \"#utility.yul\":199:205   */\n      dup3\n        /* \"#utility.yul\":192:197   */\n      dup2\n        /* \"#utility.yul\":185:206   */\n      mstore\n        /* \"#utility.yul\":237:241   */\n      0x20\n        /* \"#utility.yul\":230:235   */\n      dup2\n        /* \"#utility.yul\":226:242   */\n      add\n        /* \"#utility.yul\":275:278   */\n      dup5\n        /* \"#utility.yul\":266:272   */\n      dup5\n        /* \"#utility.yul\":261:264   */\n      dup5\n        /* \"#utility.yul\":257:273   */\n      add\n        /* \"#utility.yul\":254:279   */\n      gt\n        /* \"#utility.yul\":251:363   */\n      iszero\n      tag_210\n      jumpi\n        /* \"#utility.yul\":282:361   */\n      tag_211\n      tag_212\n      jump\t// in\n    tag_211:\n        /* \"#utility.yul\":251:363   */\n    tag_210:\n        /* \"#utility.yul\":372:413   */\n      tag_213\n        /* \"#utility.yul\":406:412   */\n      dup5\n        /* \"#utility.yul\":401:404   */\n      dup3\n        /* \"#utility.yul\":396:399   */\n      dup6\n        /* \"#utility.yul\":372:413   */\n      tag_214\n      jump\t// in\n    tag_213:\n        /* \"#utility.yul\":91:419   */\n      pop\n        /* \"#utility.yul\":7:419   */\n      swap4\n      swap3\n      pop\n      pop\n      pop\n      jump\t// out\n        /* \"#utility.yul\":425:564   */\n    tag_215:\n        /* \"#utility.yul\":471:476   */\n      0x00\n        /* \"#utility.yul\":509:515   */\n      dup2\n        /* \"#utility.yul\":496:516   */\n      calldataload\n        /* \"#utility.yul\":487:516   */\n      swap1\n      pop\n        /* \"#utility.yul\":525:558   */\n      tag_217\n        /* \"#utility.yul\":552:557   */\n      dup2\n        /* \"#utility.yul\":525:558   */\n      tag_218\n      jump\t// in\n    tag_217:\n        /* \"#utility.yul\":425:564   */\n      swap3\n      swap2\n      pop\n      pop\n      jump\t// out\n        /* \"#utility.yul\":570:723   */\n    tag_219:\n        /* \"#utility.yul\":623:628   */\n      0x00\n        /* \"#utility.yul\":661:667   */\n      dup2\n        /* \"#utility.yul\":648:668   */\n      calldataload\n        /* \"#utility.yul\":639:668   */\n      swap1\n      pop\n        /* \"#utility.yul\":677:717   */\n      tag_221\n        /* \"#utility.yul\":711:716   */\n      dup2\n        /* \"#utility.yul\":677:717   */\n      tag_222\n      jump\t// in\n    tag_221:\n        /* \"#utility.yul\":570:723   */\n      swap3\n      swap2\n      pop\n      pop\n      jump\t// out\n        /* \"#utility.yul\":743:1083   */\n    tag_223:\n        /* \"#utility.yul\":799:804   */\n      0x00\n        /* \"#utility.yul\":848:851   */\n      dup3\n        /* \"#utility.yul\":841:845   */\n      0x1f\n        /* \"#utility.yul\":833:839   */\n      dup4\n        /* \"#utility.yul\":829:846   */\n      add\n        /* \"#utility.yul\":825:852   */\n      slt\n        /* \"#utility.yul\":815:937   */\n      tag_225\n      jumpi\n        /* \"#utility.yul\":856:935   */\n      tag_226\n      tag_227\n      jump\t// in\n    tag_226:\n        /* \"#utility.yul\":815:937   */\n    tag_225:\n        /* \"#utility.yul\":973:979   */\n      dup2\n        /* \"#utility.yul\":960:980   */\n      calldataload\n        /* \"#utility.yul\":998:1077   */\n      tag_228\n        /* \"#utility.yul\":1073:1076   */\n      dup5\n        /* \"#utility.yul\":1065:1071   */\n      dup3\n        /* \"#utility.yul\":1058:1062   */\n      0x20\n        /* \"#utility.yul\":1050:1056   */\n      dup7\n        /* \"#utility.yul\":1046:1063   */\n      add\n        /* \"#utility.yul\":998:1077   */\n      tag_204\n      jump\t// in\n    tag_228:\n        /* \"#utility.yul\":989:1077   */\n      swap2\n      pop\n        /* \"#utility.yul\":805:1083   */\n      pop\n        /* \"#utility.yul\":743:1083   */\n      swap3\n      swap2\n      pop\n      pop\n      jump\t// out\n        /* \"#utility.yul\":1089:1228   */\n    tag_229:\n        /* \"#utility.yul\":1135:1140   */\n      0x00\n        /* \"#utility.yul\":1173:1179   */\n      dup2\n        /* \"#utility.yul\":1160:1180   */\n      calldataload\n        /* \"#utility.yul\":1151:1180   */\n      swap1\n      pop\n        /* \"#utility.yul\":1189:1222   */\n      tag_231\n        /* \"#utility.yul\":1216:1221   */\n      dup2\n        /* \"#utility.yul\":1189:1222   */\n      tag_232\n      jump\t// in\n    tag_231:\n        /* \"#utility.yul\":1089:1228   */\n      swap3\n      swap2\n      pop\n      pop\n      jump\t// out\n        /* \"#utility.yul\":1234:1563   */\n    tag_62:\n        /* \"#utility.yul\":1293:1299   */\n      0x00\n        /* \"#utility.yul\":1342:1344   */\n      0x20\n        /* \"#utility.yul\":1330:1339   */\n      dup3\n        /* \"#utility.yul\":1321:1328   */\n      dup5\n        /* \"#utility.yul\":1317:1340   */\n      sub\n        /* \"#utility.yul\":1313:1345   */\n      slt\n        /* \"#utility.yul\":1310:1429   */\n      iszero\n      tag_234\n      jumpi\n        /* \"#utility.yul\":1348:1427   */\n      tag_235\n      tag_236\n      jump\t// in\n    tag_235:\n        /* \"#utility.yul\":1310:1429   */\n    tag_234:\n        /* \"#utility.yul\":1468:1469   */\n      0x00\n        /* \"#utility.yul\":1493:1546   */\n      tag_237\n        /* \"#utility.yul\":1538:1545   */\n      dup5\n        /* \"#utility.yul\":1529:1535   */\n      dup3\n        /* \"#utility.yul\":1518:1527   */\n      dup6\n        /* \"#utility.yul\":1514:1536   */\n      add\n        /* \"#utility.yul\":1493:1546   */\n      tag_215\n      jump\t// in\n    tag_237:\n        /* \"#utility.yul\":1483:1546   */\n      swap2\n      pop\n        /* \"#utility.yul\":1439:1556   */\n      pop\n        /* \"#utility.yul\":1234:1563   */\n      swap3\n      swap2\n      pop\n      pop\n      jump\t// out\n        /* \"#utility.yul\":1569:2382   */\n    tag_25:\n        /* \"#utility.yul\":1663:1669   */\n      0x00\n        /* \"#utility.yul\":1671:1677   */\n      dup1\n        /* \"#utility.yul\":1679:1685   */\n      0x00\n        /* \"#utility.yul\":1728:1730   */\n      0x60\n        /* \"#utility.yul\":1716:1725   */\n      dup5\n        /* \"#utility.yul\":1707:1714   */\n      dup7\n        /* \"#utility.yul\":1703:1726   */\n      sub\n        /* \"#utility.yul\":1699:1731   */\n      slt\n        /* \"#utility.yul\":1696:1815   */\n      iszero\n      tag_239\n      jumpi\n        /* \"#utility.yul\":1734:1813   */\n      tag_240\n      tag_236\n      jump\t// in\n    tag_240:\n        /* \"#utility.yul\":1696:1815   */\n    tag_239:\n        /* \"#utility.yul\":1854:1855   */\n      0x00\n        /* \"#utility.yul\":1879:1932   */\n      tag_241\n        /* \"#utility.yul\":1924:1931   */\n      dup7\n        /* \"#utility.yul\":1915:1921   */\n      dup3\n        /* \"#utility.yul\":1904:1913   */\n      dup8\n        /* \"#utility.yul\":1900:1922   */\n      add\n        /* \"#utility.yul\":1879:1932   */\n      tag_215\n      jump\t// in\n    tag_241:\n        /* \"#utility.yul\":1869:1932   */\n      swap4\n      pop\n        /* \"#utility.yul\":1825:1942   */\n      pop\n        /* \"#utility.yul\":1981:1983   */\n      0x20\n        /* \"#utility.yul\":2007:2067   */\n      tag_242\n        /* \"#utility.yul\":2059:2066   */\n      dup7\n        /* \"#utility.yul\":2050:2056   */\n      dup3\n        /* \"#utility.yul\":2039:2048   */\n      dup8\n        /* \"#utility.yul\":2035:2057   */\n      add\n        /* \"#utility.yul\":2007:2067   */\n      tag_219\n      jump\t// in\n    tag_242:\n        /* \"#utility.yul\":1997:2067   */\n      swap3\n      pop\n        /* \"#utility.yul\":1952:2077   */\n      pop\n        /* \"#utility.yul\":2144:2146   */\n      0x40\n        /* \"#utility.yul\":2133:2142   */\n      dup5\n        /* \"#utility.yul\":2129:2147   */\n      add\n        /* \"#utility.yul\":2116:2148   */\n      calldataload\n        /* \"#utility.yul\":2175:2193   */\n      0xffffffffffffffff\n        /* \"#utility.yul\":2167:2173   */\n      dup2\n        /* \"#utility.yul\":2164:2194   */\n      gt\n        /* \"#utility.yul\":2161:2278   */\n      iszero\n      tag_243\n      jumpi\n        /* \"#utility.yul\":2197:2276   */\n      tag_244\n      tag_245\n      jump\t// in\n    tag_244:\n        /* \"#utility.yul\":2161:2278   */\n    tag_243:\n        /* \"#utility.yul\":2302:2365   */\n      tag_246\n        /* \"#utility.yul\":2357:2364   */\n      dup7\n        /* \"#utility.yul\":2348:2354   */\n      dup3\n        /* \"#utility.yul\":2337:2346   */\n      dup8\n        /* \"#utility.yul\":2333:2355   */\n      add\n        /* \"#utility.yul\":2302:2365   */\n      tag_223\n      jump\t// in\n    tag_246:\n        /* \"#utility.yul\":2292:2365   */\n      swap2\n      pop\n        /* \"#utility.yul\":2087:2375   */\n      pop\n        /* \"#utility.yul\":1569:2382   */\n      swap3\n      pop\n      swap3\n      pop\n      swap3\n      jump\t// out\n        /* \"#utility.yul\":2388:2862   */\n    tag_35:\n        /* \"#utility.yul\":2456:2462   */\n      0x00\n        /* \"#utility.yul\":2464:2470   */\n      dup1\n        /* \"#utility.yul\":2513:2515   */\n      0x40\n        /* \"#utility.yul\":2501:2510   */\n      dup4\n        /* \"#utility.yul\":2492:2499   */\n      dup6\n        /* \"#utility.yul\":2488:2511   */\n      sub\n        /* \"#utility.yul\":2484:2516   */\n      slt\n        /* \"#utility.yul\":2481:2600   */\n      iszero\n      tag_248\n      jumpi\n        /* \"#utility.yul\":2519:2598   */\n      tag_249\n      tag_236\n      jump\t// in\n    tag_249:\n        /* \"#utility.yul\":2481:2600   */\n    tag_248:\n        /* \"#utility.yul\":2639:2640   */\n      0x00\n        /* \"#utility.yul\":2664:2717   */\n      tag_250\n        /* \"#utility.yul\":2709:2716   */\n      dup6\n        /* \"#utility.yul\":2700:2706   */\n      dup3\n        /* \"#utility.yul\":2689:2698   */\n      dup7\n        /* \"#utility.yul\":2685:2707   */\n      add\n        /* \"#utility.yul\":2664:2717   */\n      tag_215\n      jump\t// in\n    tag_250:\n        /* \"#utility.yul\":2654:2717   */\n      swap3\n      pop\n        /* \"#utility.yul\":2610:2727   */\n      pop\n        /* \"#utility.yul\":2766:2768   */\n      0x20\n        /* \"#utility.yul\":2792:2845   */\n      tag_251\n        /* \"#utility.yul\":2837:2844   */\n      dup6\n        /* \"#utility.yul\":2828:2834   */\n      dup3\n        /* \"#utility.yul\":2817:2826   */\n      dup7\n        /* \"#utility.yul\":2813:2835   */\n      add\n        /* \"#utility.yul\":2792:2845   */\n      tag_229\n      jump\t// in\n    tag_251:\n        /* \"#utility.yul\":2782:2845   */\n      swap2\n      pop\n        /* \"#utility.yul\":2737:2855   */\n      pop\n        /* \"#utility.yul\":2388:2862   */\n      swap3\n      pop\n      swap3\n      swap1\n      pop\n      jump\t// out\n        /* \"#utility.yul\":2868:3197   */\n    tag_50:\n        /* \"#utility.yul\":2927:2933   */\n      0x00\n        /* \"#utility.yul\":2976:2978   */\n      0x20\n        /* \"#utility.yul\":2964:2973   */\n      dup3\n        /* \"#utility.yul\":2955:2962   */\n      dup5\n        /* \"#utility.yul\":2951:2974   */\n      sub\n        /* \"#utility.yul\":2947:2979   */\n      slt\n        /* \"#utility.yul\":2944:3063   */\n      iszero\n      tag_253\n      jumpi\n        /* \"#utility.yul\":2982:3061   */\n      tag_254\n      tag_236\n      jump\t// in\n    tag_254:\n        /* \"#utility.yul\":2944:3063   */\n    tag_253:\n        /* \"#utility.yul\":3102:3103   */\n      0x00\n        /* \"#utility.yul\":3127:3180   */\n      tag_255\n        /* \"#utility.yul\":3172:3179   */\n      dup5\n        /* \"#utility.yul\":3163:3169   */\n      dup3\n        /* \"#utility.yul\":3152:3161   */\n      dup6\n        /* \"#utility.yul\":3148:3170   */\n      add\n        /* \"#utility.yul\":3127:3180   */\n      tag_229\n      jump\t// in\n    tag_255:\n        /* \"#utility.yul\":3117:3180   */\n      swap2\n      pop\n        /* \"#utility.yul\":3073:3190   */\n      pop\n        /* \"#utility.yul\":2868:3197   */\n      swap3\n      swap2\n      pop\n      pop\n      jump\t// out\n        /* \"#utility.yul\":3203:4002   */\n    tag_75:\n        /* \"#utility.yul\":3290:3296   */\n      0x00\n        /* \"#utility.yul\":3298:3304   */\n      dup1\n        /* \"#utility.yul\":3306:3312   */\n      0x00\n        /* \"#utility.yul\":3355:3357   */\n      0x60\n        /* \"#utility.yul\":3343:3352   */\n      dup5\n        /* \"#utility.yul\":3334:3341   */\n      dup7\n        /* \"#utility.yul\":3330:3353   */\n      sub\n        /* \"#utility.yul\":3326:3358   */\n      slt\n        /* \"#utility.yul\":3323:3442   */\n      iszero\n      tag_257\n      jumpi\n        /* \"#utility.yul\":3361:3440   */\n      tag_258\n      tag_236\n      jump\t// in\n    tag_258:\n        /* \"#utility.yul\":3323:3442   */\n    tag_257:\n        /* \"#utility.yul\":3481:3482   */\n      0x00\n        /* \"#utility.yul\":3506:3559   */\n      tag_259\n        /* \"#utility.yul\":3551:3558   */\n      dup7\n        /* \"#utility.yul\":3542:3548   */\n      dup3\n        /* \"#utility.yul\":3531:3540   */\n      dup8\n        /* \"#utility.yul\":3527:3549   */\n      add\n        /* \"#utility.yul\":3506:3559   */\n      tag_229\n      jump\t// in\n    tag_259:\n        /* \"#utility.yul\":3496:3559   */\n      swap4\n      pop\n        /* \"#utility.yul\":3452:3569   */\n      pop\n        /* \"#utility.yul\":3608:3610   */\n      0x20\n        /* \"#utility.yul\":3634:3687   */\n      tag_260\n        /* \"#utility.yul\":3679:3686   */\n      dup7\n        /* \"#utility.yul\":3670:3676   */\n      dup3\n        /* \"#utility.yul\":3659:3668   */\n      dup8\n        /* \"#utility.yul\":3655:3677   */\n      add\n        /* \"#utility.yul\":3634:3687   */\n      tag_229\n      jump\t// in\n    tag_260:\n        /* \"#utility.yul\":3624:3687   */\n      swap3\n      pop\n        /* \"#utility.yul\":3579:3697   */\n      pop\n        /* \"#utility.yul\":3764:3766   */\n      0x40\n        /* \"#utility.yul\":3753:3762   */\n      dup5\n        /* \"#utility.yul\":3749:3767   */\n      add\n        /* \"#utility.yul\":3736:3768   */\n      calldataload\n        /* \"#utility.yul\":3795:3813   */\n      0xffffffffffffffff\n        /* \"#utility.yul\":3787:3793   */\n      dup2\n        /* \"#utility.yul\":3784:3814   */\n      gt\n        /* \"#utility.yul\":3781:3898   */\n      iszero\n      tag_261\n      jumpi\n        /* \"#utility.yul\":3817:3896   */\n      tag_262\n      tag_245\n      jump\t// in\n    tag_262:\n        /* \"#utility.yul\":3781:3898   */\n    tag_261:\n        /* \"#utility.yul\":3922:3985   */\n      tag_263\n        /* \"#utility.yul\":3977:3984   */\n      dup7\n        /* \"#utility.yul\":3968:3974   */\n      dup3\n        /* \"#utility.yul\":3957:3966   */\n      dup8\n        /* \"#utility.yul\":3953:3975   */\n      add\n        /* \"#utility.yul\":3922:3985   */\n      tag_223\n      jump\t// in\n    tag_263:\n        /* \"#utility.yul\":3912:3985   */\n      swap2\n      pop\n        /* \"#utility.yul\":3707:3995   */\n      pop\n        /* \"#utility.yul\":3203:4002   */\n      swap3\n      pop\n      swap3\n      pop\n      swap3\n      jump\t// out\n        /* \"#utility.yul\":4008:6909   */\n    tag_30:\n        /* \"#utility.yul\":4218:4224   */\n      0x00\n        /* \"#utility.yul\":4226:4232   */\n      dup1\n        /* \"#utility.yul\":4234:4240   */\n      0x00\n        /* \"#utility.yul\":4242:4248   */\n      dup1\n        /* \"#utility.yul\":4250:4256   */\n      0x00\n        /* \"#utility.yul\":4258:4264   */\n      dup1\n        /* \"#utility.yul\":4266:4272   */\n      0x00\n        /* \"#utility.yul\":4274:4280   */\n      dup1\n        /* \"#utility.yul\":4282:4288   */\n      0x00\n        /* \"#utility.yul\":4290:4296   */\n      dup1\n        /* \"#utility.yul\":4339:4342   */\n      0x0140\n        /* \"#utility.yul\":4327:4336   */\n      dup12\n        /* \"#utility.yul\":4318:4325   */\n      dup14\n        /* \"#utility.yul\":4314:4337   */\n      sub\n        /* \"#utility.yul\":4310:4343   */\n      slt\n        /* \"#utility.yul\":4307:4427   */\n      iszero\n      tag_265\n      jumpi\n        /* \"#utility.yul\":4346:4425   */\n      tag_266\n      tag_236\n      jump\t// in\n    tag_266:\n        /* \"#utility.yul\":4307:4427   */\n    tag_265:\n        /* \"#utility.yul\":4466:4467   */\n      0x00\n        /* \"#utility.yul\":4491:4544   */\n      tag_267\n        /* \"#utility.yul\":4536:4543   */\n      dup14\n        /* \"#utility.yul\":4527:4533   */\n      dup3\n        /* \"#utility.yul\":4516:4525   */\n      dup15\n        /* \"#utility.yul\":4512:4534   */\n      add\n        /* \"#utility.yul\":4491:4544   */\n      tag_229\n      jump\t// in\n    tag_267:\n        /* \"#utility.yul\":4481:4544   */\n      swap11\n      pop\n        /* \"#utility.yul\":4437:4554   */\n      pop\n        /* \"#utility.yul\":4593:4595   */\n      0x20\n        /* \"#utility.yul\":4619:4672   */\n      tag_268\n        /* \"#utility.yul\":4664:4671   */\n      dup14\n        /* \"#utility.yul\":4655:4661   */\n      dup3\n        /* \"#utility.yul\":4644:4653   */\n      dup15\n        /* \"#utility.yul\":4640:4662   */\n      add\n        /* \"#utility.yul\":4619:4672   */\n      tag_229\n      jump\t// in\n    tag_268:\n        /* \"#utility.yul\":4609:4672   */\n      swap10\n      pop\n        /* \"#utility.yul\":4564:4682   */\n      pop\n        /* \"#utility.yul\":4721:4723   */\n      0x40\n        /* \"#utility.yul\":4747:4800   */\n      tag_269\n        /* \"#utility.yul\":4792:4799   */\n      dup14\n        /* \"#utility.yul\":4783:4789   */\n      dup3\n        /* \"#utility.yul\":4772:4781   */\n      dup15\n        /* \"#utility.yul\":4768:4790   */\n      add\n        /* \"#utility.yul\":4747:4800   */\n      tag_229\n      jump\t// in\n    tag_269:\n        /* \"#utility.yul\":4737:4800   */\n      swap9\n      pop\n        /* \"#utility.yul\":4692:4810   */\n      pop\n        /* \"#utility.yul\":4877:4879   */\n      0x60\n        /* \"#utility.yul\":4866:4875   */\n      dup12\n        /* \"#utility.yul\":4862:4880   */\n      add\n        /* \"#utility.yul\":4849:4881   */\n      calldataload\n        /* \"#utility.yul\":4908:4926   */\n      0xffffffffffffffff\n        /* \"#utility.yul\":4900:4906   */\n      dup2\n        /* \"#utility.yul\":4897:4927   */\n      gt\n        /* \"#utility.yul\":4894:5011   */\n      iszero\n      tag_270\n      jumpi\n        /* \"#utility.yul\":4930:5009   */\n      tag_271\n      tag_245\n      jump\t// in\n    tag_271:\n        /* \"#utility.yul\":4894:5011   */\n    tag_270:\n        /* \"#utility.yul\":5035:5098   */\n      tag_272\n        /* \"#utility.yul\":5090:5097   */\n      dup14\n        /* \"#utility.yul\":5081:5087   */\n      dup3\n        /* \"#utility.yul\":5070:5079   */\n      dup15\n        /* \"#utility.yul\":5066:5088   */\n      add\n        /* \"#utility.yul\":5035:5098   */\n      tag_223\n      jump\t// in\n    tag_272:\n        /* \"#utility.yul\":5025:5098   */\n      swap8\n      pop\n        /* \"#utility.yul\":4820:5108   */\n      pop\n        /* \"#utility.yul\":5175:5178   */\n      0x80\n        /* \"#utility.yul\":5164:5173   */\n      dup12\n        /* \"#utility.yul\":5160:5179   */\n      add\n        /* \"#utility.yul\":5147:5180   */\n      calldataload\n        /* \"#utility.yul\":5207:5225   */\n      0xffffffffffffffff\n        /* \"#utility.yul\":5199:5205   */\n      dup2\n        /* \"#utility.yul\":5196:5226   */\n      gt\n        /* \"#utility.yul\":5193:5310   */\n      iszero\n      tag_273\n      jumpi\n        /* \"#utility.yul\":5229:5308   */\n      tag_274\n      tag_245\n      jump\t// in\n    tag_274:\n        /* \"#utility.yul\":5193:5310   */\n    tag_273:\n        /* \"#utility.yul\":5334:5397   */\n      tag_275\n        /* \"#utility.yul\":5389:5396   */\n      dup14\n        /* \"#utility.yul\":5380:5386   */\n      dup3\n        /* \"#utility.yul\":5369:5378   */\n      dup15\n        /* \"#utility.yul\":5365:5387   */\n      add\n        /* \"#utility.yul\":5334:5397   */\n      tag_223\n      jump\t// in\n    tag_275:\n        /* \"#utility.yul\":5324:5397   */\n      swap7\n      pop\n        /* \"#utility.yul\":5118:5407   */\n      pop\n        /* \"#utility.yul\":5474:5477   */\n      0xa0\n        /* \"#utility.yul\":5463:5472   */\n      dup12\n        /* \"#utility.yul\":5459:5478   */\n      add\n        /* \"#utility.yul\":5446:5479   */\n      calldataload\n        /* \"#utility.yul\":5506:5524   */\n      0xffffffffffffffff\n        /* \"#utility.yul\":5498:5504   */\n      dup2\n        /* \"#utility.yul\":5495:5525   */\n      gt\n        /* \"#utility.yul\":5492:5609   */\n      iszero\n      tag_276\n      jumpi\n        /* \"#utility.yul\":5528:5607   */\n      tag_277\n      tag_245\n      jump\t// in\n    tag_277:\n        /* \"#utility.yul\":5492:5609   */\n    tag_276:\n        /* \"#utility.yul\":5633:5696   */\n      tag_278\n        /* \"#utility.yul\":5688:5695   */\n      dup14\n        /* \"#utility.yul\":5679:5685   */\n      dup3\n        /* \"#utility.yul\":5668:5677   */\n      dup15\n        /* \"#utility.yul\":5664:5686   */\n      add\n        /* \"#utility.yul\":5633:5696   */\n      tag_223\n      jump\t// in\n    tag_278:\n        /* \"#utility.yul\":5623:5696   */\n      swap6\n      pop\n        /* \"#utility.yul\":5417:5706   */\n      pop\n        /* \"#utility.yul\":5773:5776   */\n      0xc0\n        /* \"#utility.yul\":5762:5771   */\n      dup12\n        /* \"#utility.yul\":5758:5777   */\n      add\n        /* \"#utility.yul\":5745:5778   */\n      calldataload\n        /* \"#utility.yul\":5805:5823   */\n      0xffffffffffffffff\n        /* \"#utility.yul\":5797:5803   */\n      dup2\n        /* \"#utility.yul\":5794:5824   */\n      gt\n        /* \"#utility.yul\":5791:5908   */\n      iszero\n      tag_279\n      jumpi\n        /* \"#utility.yul\":5827:5906   */\n      tag_280\n      tag_245\n      jump\t// in\n    tag_280:\n        /* \"#utility.yul\":5791:5908   */\n    tag_279:\n        /* \"#utility.yul\":5932:5995   */\n      tag_281\n        /* \"#utility.yul\":5987:5994   */\n      dup14\n        /* \"#utility.yul\":5978:5984   */\n      dup3\n        /* \"#utility.yul\":5967:5976   */\n      dup15\n        /* \"#utility.yul\":5963:5985   */\n      add\n        /* \"#utility.yul\":5932:5995   */\n      tag_223\n      jump\t// in\n    tag_281:\n        /* \"#utility.yul\":5922:5995   */\n      swap5\n      pop\n        /* \"#utility.yul\":5716:6005   */\n      pop\n        /* \"#utility.yul\":6072:6075   */\n      0xe0\n        /* \"#utility.yul\":6061:6070   */\n      dup12\n        /* \"#utility.yul\":6057:6076   */\n      add\n        /* \"#utility.yul\":6044:6077   */\n      calldataload\n        /* \"#utility.yul\":6104:6122   */\n      0xffffffffffffffff\n        /* \"#utility.yul\":6096:6102   */\n      dup2\n        /* \"#utility.yul\":6093:6123   */\n      gt\n        /* \"#utility.yul\":6090:6207   */\n      iszero\n      tag_282\n      jumpi\n        /* \"#utility.yul\":6126:6205   */\n      tag_283\n      tag_245\n      jump\t// in\n    tag_283:\n        /* \"#utility.yul\":6090:6207   */\n    tag_282:\n        /* \"#utility.yul\":6231:6294   */\n      tag_284\n        /* \"#utility.yul\":6286:6293   */\n      dup14\n        /* \"#utility.yul\":6277:6283   */\n      dup3\n        /* \"#utility.yul\":6266:6275   */\n      dup15\n        /* \"#utility.yul\":6262:6284   */\n      add\n        /* \"#utility.yul\":6231:6294   */\n      tag_223\n      jump\t// in\n    tag_284:\n        /* \"#utility.yul\":6221:6294   */\n      swap4\n      pop\n        /* \"#utility.yul\":6015:6304   */\n      pop\n        /* \"#utility.yul\":6371:6374   */\n      0x0100\n        /* \"#utility.yul\":6360:6369   */\n      dup12\n        /* \"#utility.yul\":6356:6375   */\n      add\n        /* \"#utility.yul\":6343:6376   */\n      calldataload\n        /* \"#utility.yul\":6403:6421   */\n      0xffffffffffffffff\n        /* \"#utility.yul\":6395:6401   */\n      dup2\n        /* \"#utility.yul\":6392:6422   */\n      gt\n        /* \"#utility.yul\":6389:6506   */\n      iszero\n      tag_285\n      jumpi\n        /* \"#utility.yul\":6425:6504   */\n      tag_286\n      tag_245\n      jump\t// in\n    tag_286:\n        /* \"#utility.yul\":6389:6506   */\n    tag_285:\n        /* \"#utility.yul\":6530:6593   */\n      tag_287\n        /* \"#utility.yul\":6585:6592   */\n      dup14\n        /* \"#utility.yul\":6576:6582   */\n      dup3\n        /* \"#utility.yul\":6565:6574   */\n      dup15\n        /* \"#utility.yul\":6561:6583   */\n      add\n        /* \"#utility.yul\":6530:6593   */\n      tag_223\n      jump\t// in\n    tag_287:\n        /* \"#utility.yul\":6520:6593   */\n      swap3\n      pop\n        /* \"#utility.yul\":6314:6603   */\n      pop\n        /* \"#utility.yul\":6670:6673   */\n      0x0120\n        /* \"#utility.yul\":6659:6668   */\n      dup12\n        /* \"#utility.yul\":6655:6674   */\n      add\n        /* \"#utility.yul\":6642:6675   */\n      calldataload\n        /* \"#utility.yul\":6702:6720   */\n      0xffffffffffffffff\n        /* \"#utility.yul\":6694:6700   */\n      dup2\n        /* \"#utility.yul\":6691:6721   */\n      gt\n        /* \"#utility.yul\":6688:6805   */\n      iszero\n      tag_288\n      jumpi\n        /* \"#utility.yul\":6724:6803   */\n      tag_289\n      tag_245\n      jump\t// in\n    tag_289:\n        /* \"#utility.yul\":6688:6805   */\n    tag_288:\n        /* \"#utility.yul\":6829:6892   */\n      tag_290\n        /* \"#utility.yul\":6884:6891   */\n      dup14\n        /* \"#utility.yul\":6875:6881   */\n      dup3\n        /* \"#utility.yul\":6864:6873   */\n      dup15\n        /* \"#utility.yul\":6860:6882   */\n      add\n        /* \"#utility.yul\":6829:6892   */\n      tag_223\n      jump\t// in\n    tag_290:\n        /* \"#utility.yul\":6819:6892   */\n      swap2\n      pop\n        /* \"#utility.yul\":6613:6902   */\n      pop\n        /* \"#utility.yul\":4008:6909   */\n      swap3\n      swap6\n      swap9\n      swap12\n      swap2\n      swap5\n      swap8\n      swap11\n      pop\n      swap3\n      swap6\n      swap9\n      pop\n      jump\t// out\n        /* \"#utility.yul\":6915:7057   */\n    tag_291:\n        /* \"#utility.yul\":7018:7050   */\n      tag_293\n        /* \"#utility.yul\":7044:7049   */\n      dup2\n        /* \"#utility.yul\":7018:7050   */\n      tag_294\n      jump\t// in\n    tag_293:\n        /* \"#utility.yul\":7013:7016   */\n      dup3\n        /* \"#utility.yul\":7006:7051   */\n      mstore\n        /* \"#utility.yul\":6915:7057   */\n      pop\n      pop\n      jump\t// out\n        /* \"#utility.yul\":7063:7172   */\n    tag_295:\n        /* \"#utility.yul\":7144:7165   */\n      tag_297\n        /* \"#utility.yul\":7159:7164   */\n      dup2\n        /* \"#utility.yul\":7144:7165   */\n      tag_298\n      jump\t// in\n    tag_297:\n        /* \"#utility.yul\":7139:7142   */\n      dup3\n        /* \"#utility.yul\":7132:7166   */\n      mstore\n        /* \"#utility.yul\":7063:7172   */\n      pop\n      pop\n      jump\t// out\n        /* \"#utility.yul\":7178:7319   */\n    tag_299:\n        /* \"#utility.yul\":7270:7312   */\n      tag_301\n        /* \"#utility.yul\":7306:7311   */\n      dup2\n        /* \"#utility.yul\":7270:7312   */\n      tag_302\n      jump\t// in\n    tag_301:\n        /* \"#utility.yul\":7265:7268   */\n      dup3\n        /* \"#utility.yul\":7258:7313   */\n      mstore\n        /* \"#utility.yul\":7178:7319   */\n      pop\n      pop\n      jump\t// out\n        /* \"#utility.yul\":7325:7689   */\n    tag_303:\n        /* \"#utility.yul\":7413:7416   */\n      0x00\n        /* \"#utility.yul\":7441:7480   */\n      tag_305\n        /* \"#utility.yul\":7474:7479   */\n      dup3\n        /* \"#utility.yul\":7441:7480   */\n      tag_306\n      jump\t// in\n    tag_305:\n        /* \"#utility.yul\":7496:7567   */\n      tag_307\n        /* \"#utility.yul\":7560:7566   */\n      dup2\n        /* \"#utility.yul\":7555:7558   */\n      dup6\n        /* \"#utility.yul\":7496:7567   */\n      tag_308\n      jump\t// in\n    tag_307:\n        /* \"#utility.yul\":7489:7567   */\n      swap4\n      pop\n        /* \"#utility.yul\":7576:7628   */\n      tag_309\n        /* \"#utility.yul\":7621:7627   */\n      dup2\n        /* \"#utility.yul\":7616:7619   */\n      dup6\n        /* \"#utility.yul\":7609:7613   */\n      0x20\n        /* \"#utility.yul\":7602:7607   */\n      dup7\n        /* \"#utility.yul\":7598:7614   */\n      add\n        /* \"#utility.yul\":7576:7628   */\n      tag_310\n      jump\t// in\n    tag_309:\n        /* \"#utility.yul\":7653:7682   */\n      tag_311\n        /* \"#utility.yul\":7675:7681   */\n      dup2\n        /* \"#utility.yul\":7653:7682   */\n      tag_312\n      jump\t// in\n    tag_311:\n        /* \"#utility.yul\":7648:7651   */\n      dup5\n        /* \"#utility.yul\":7644:7683   */\n      add\n        /* \"#utility.yul\":7637:7683   */\n      swap2\n      pop\n        /* \"#utility.yul\":7417:7689   */\n      pop\n        /* \"#utility.yul\":7325:7689   */\n      swap3\n      swap2\n      pop\n      pop\n      jump\t// out\n        /* \"#utility.yul\":7695:8061   */\n    tag_313:\n        /* \"#utility.yul\":7837:7840   */\n      0x00\n        /* \"#utility.yul\":7858:7925   */\n      tag_315\n        /* \"#utility.yul\":7922:7924   */\n      0x1c\n        /* \"#utility.yul\":7917:7920   */\n      dup4\n        /* \"#utility.yul\":7858:7925   */\n      tag_308\n      jump\t// in\n    tag_315:\n        /* \"#utility.yul\":7851:7925   */\n      swap2\n      pop\n        /* \"#utility.yul\":7934:8027   */\n      tag_316\n        /* \"#utility.yul\":8023:8026   */\n      dup3\n        /* \"#utility.yul\":7934:8027   */\n      tag_317\n      jump\t// in\n    tag_316:\n        /* \"#utility.yul\":8052:8054   */\n      0x20\n        /* \"#utility.yul\":8047:8050   */\n      dup3\n        /* \"#utility.yul\":8043:8055   */\n      add\n        /* \"#utility.yul\":8036:8055   */\n      swap1\n      pop\n        /* \"#utility.yul\":7695:8061   */\n      swap2\n      swap1\n      pop\n      jump\t// out\n        /* \"#utility.yul\":8067:8433   */\n    tag_318:\n        /* \"#utility.yul\":8209:8212   */\n      0x00\n        /* \"#utility.yul\":8230:8297   */\n      tag_320\n        /* \"#utility.yul\":8294:8296   */\n      0x19\n        /* \"#utility.yul\":8289:8292   */\n      dup4\n        /* \"#utility.yul\":8230:8297   */\n      tag_308\n      jump\t// in\n    tag_320:\n        /* \"#utility.yul\":8223:8297   */\n      swap2\n      pop\n        /* \"#utility.yul\":8306:8399   */\n      tag_321\n        /* \"#utility.yul\":8395:8398   */\n      dup3\n        /* \"#utility.yul\":8306:8399   */\n      tag_322\n      jump\t// in\n    tag_321:\n        /* \"#utility.yul\":8424:8426   */\n      0x20\n        /* \"#utility.yul\":8419:8422   */\n      dup3\n        /* \"#utility.yul\":8415:8427   */\n      add\n        /* \"#utility.yul\":8408:8427   */\n      swap1\n      pop\n        /* \"#utility.yul\":8067:8433   */\n      swap2\n      swap1\n      pop\n      jump\t// out\n        /* \"#utility.yul\":8439:8805   */\n    tag_323:\n        /* \"#utility.yul\":8581:8584   */\n      0x00\n        /* \"#utility.yul\":8602:8669   */\n      tag_325\n        /* \"#utility.yul\":8666:8668   */\n      0x1e\n        /* \"#utility.yul\":8661:8664   */\n      dup4\n        /* \"#utility.yul\":8602:8669   */\n      tag_308\n      jump\t// in\n    tag_325:\n        /* \"#utility.yul\":8595:8669   */\n      swap2\n      pop\n        /* \"#utility.yul\":8678:8771   */\n      tag_326\n        /* \"#utility.yul\":8767:8770   */\n      dup3\n        /* \"#utility.yul\":8678:8771   */\n      tag_327\n      jump\t// in\n    tag_326:\n        /* \"#utility.yul\":8796:8798   */\n      0x20\n        /* \"#utility.yul\":8791:8794   */\n      dup3\n        /* \"#utility.yul\":8787:8799   */\n      add\n        /* \"#utility.yul\":8780:8799   */\n      swap1\n      pop\n        /* \"#utility.yul\":8439:8805   */\n      swap2\n      swap1\n      pop\n      jump\t// out\n        /* \"#utility.yul\":8811:8929   */\n    tag_328:\n        /* \"#utility.yul\":8898:8922   */\n      tag_330\n        /* \"#utility.yul\":8916:8921   */\n      dup2\n        /* \"#utility.yul\":8898:8922   */\n      tag_331\n      jump\t// in\n    tag_330:\n        /* \"#utility.yul\":8893:8896   */\n      dup3\n        /* \"#utility.yul\":8886:8923   */\n      mstore\n        /* \"#utility.yul\":8811:8929   */\n      pop\n      pop\n      jump\t// out\n        /* \"#utility.yul\":8935:9189   */\n    tag_56:\n        /* \"#utility.yul\":9044:9048   */\n      0x00\n        /* \"#utility.yul\":9082:9084   */\n      0x20\n        /* \"#utility.yul\":9071:9080   */\n      dup3\n        /* \"#utility.yul\":9067:9085   */\n      add\n        /* \"#utility.yul\":9059:9085   */\n      swap1\n      pop\n        /* \"#utility.yul\":9095:9182   */\n      tag_333\n        /* \"#utility.yul\":9179:9180   */\n      0x00\n        /* \"#utility.yul\":9168:9177   */\n      dup4\n        /* \"#utility.yul\":9164:9181   */\n      add\n        /* \"#utility.yul\":9155:9161   */\n      dup5\n        /* \"#utility.yul\":9095:9182   */\n      tag_291\n      jump\t// in\n    tag_333:\n        /* \"#utility.yul\":8935:9189   */\n      swap3\n      swap2\n      pop\n      pop\n      jump\t// out\n        /* \"#utility.yul\":9195:9405   */\n    tag_38:\n        /* \"#utility.yul\":9282:9286   */\n      0x00\n        /* \"#utility.yul\":9320:9322   */\n      0x20\n        /* \"#utility.yul\":9309:9318   */\n      dup3\n        /* \"#utility.yul\":9305:9323   */\n      add\n        /* \"#utility.yul\":9297:9323   */\n      swap1\n      pop\n        /* \"#utility.yul\":9333:9398   */\n      tag_335\n        /* \"#utility.yul\":9395:9396   */\n      0x00\n        /* \"#utility.yul\":9384:9393   */\n      dup4\n        /* \"#utility.yul\":9380:9397   */\n      add\n        /* \"#utility.yul\":9371:9377   */\n      dup5\n        /* \"#utility.yul\":9333:9398   */\n      tag_295\n      jump\t// in\n    tag_335:\n        /* \"#utility.yul\":9195:9405   */\n      swap3\n      swap2\n      pop\n      pop\n      jump\t// out\n        /* \"#utility.yul\":9411:9844   */\n    tag_65:\n        /* \"#utility.yul\":9557:9561   */\n      0x00\n        /* \"#utility.yul\":9595:9597   */\n      0x40\n        /* \"#utility.yul\":9584:9593   */\n      dup3\n        /* \"#utility.yul\":9580:9598   */\n      add\n        /* \"#utility.yul\":9572:9598   */\n      swap1\n      pop\n        /* \"#utility.yul\":9608:9684   */\n      tag_337\n        /* \"#utility.yul\":9681:9682   */\n      0x00\n        /* \"#utility.yul\":9670:9679   */\n      dup4\n        /* \"#utility.yul\":9666:9683   */\n      add\n        /* \"#utility.yul\":9657:9663   */\n      dup6\n        /* \"#utility.yul\":9608:9684   */\n      tag_299\n      jump\t// in\n    tag_337:\n        /* \"#utility.yul\":9731:9740   */\n      dup2\n        /* \"#utility.yul\":9725:9729   */\n      dup2\n        /* \"#utility.yul\":9721:9741   */\n      sub\n        /* \"#utility.yul\":9716:9718   */\n      0x20\n        /* \"#utility.yul\":9705:9714   */\n      dup4\n        /* \"#utility.yul\":9701:9719   */\n      add\n        /* \"#utility.yul\":9694:9742   */\n      mstore\n        /* \"#utility.yul\":9759:9837   */\n      tag_338\n        /* \"#utility.yul\":9832:9836   */\n      dup2\n        /* \"#utility.yul\":9823:9829   */\n      dup5\n        /* \"#utility.yul\":9759:9837   */\n      tag_303\n      jump\t// in\n    tag_338:\n        /* \"#utility.yul\":9751:9837   */\n      swap1\n      pop\n        /* \"#utility.yul\":9411:9844   */\n      swap4\n      swap3\n      pop\n      pop\n      pop\n      jump\t// out\n        /* \"#utility.yul\":9850:10163   */\n    tag_21:\n        /* \"#utility.yul\":9963:9967   */\n      0x00\n        /* \"#utility.yul\":10001:10003   */\n      0x20\n        /* \"#utility.yul\":9990:9999   */\n      dup3\n        /* \"#utility.yul\":9986:10004   */\n      add\n        /* \"#utility.yul\":9978:10004   */\n      swap1\n      pop\n        /* \"#utility.yul\":10050:10059   */\n      dup2\n        /* \"#utility.yul\":10044:10048   */\n      dup2\n        /* \"#utility.yul\":10040:10060   */\n      sub\n        /* \"#utility.yul\":10036:10037   */\n      0x00\n        /* \"#utility.yul\":10025:10034   */\n      dup4\n        /* \"#utility.yul\":10021:10038   */\n      add\n        /* \"#utility.yul\":10014:10061   */\n      mstore\n        /* \"#utility.yul\":10078:10156   */\n      tag_340\n        /* \"#utility.yul\":10151:10155   */\n      dup2\n        /* \"#utility.yul\":10142:10148   */\n      dup5\n        /* \"#utility.yul\":10078:10156   */\n      tag_303\n      jump\t// in\n    tag_340:\n        /* \"#utility.yul\":10070:10156   */\n      swap1\n      pop\n        /* \"#utility.yul\":9850:10163   */\n      swap3\n      swap2\n      pop\n      pop\n      jump\t// out\n        /* \"#utility.yul\":10169:10588   */\n    tag_178:\n        /* \"#utility.yul\":10335:10339   */\n      0x00\n        /* \"#utility.yul\":10373:10375   */\n      0x20\n        /* \"#utility.yul\":10362:10371   */\n      dup3\n        /* \"#utility.yul\":10358:10376   */\n      add\n        /* \"#utility.yul\":10350:10376   */\n      swap1\n      pop\n        /* \"#utility.yul\":10422:10431   */\n      dup2\n        /* \"#utility.yul\":10416:10420   */\n      dup2\n        /* \"#utility.yul\":10412:10432   */\n      sub\n        /* \"#utility.yul\":10408:10409   */\n      0x00\n        /* \"#utility.yul\":10397:10406   */\n      dup4\n        /* \"#utility.yul\":10393:10410   */\n      add\n        /* \"#utility.yul\":10386:10433   */\n      mstore\n        /* \"#utility.yul\":10450:10581   */\n      tag_342\n        /* \"#utility.yul\":10576:10580   */\n      dup2\n        /* \"#utility.yul\":10450:10581   */\n      tag_313\n      jump\t// in\n    tag_342:\n        /* \"#utility.yul\":10442:10581   */\n      swap1\n      pop\n        /* \"#utility.yul\":10169:10588   */\n      swap2\n      swap1\n      pop\n      jump\t// out\n        /* \"#utility.yul\":10594:11013   */\n    tag_114:\n        /* \"#utility.yul\":10760:10764   */\n      0x00\n        /* \"#utility.yul\":10798:10800   */\n      0x20\n        /* \"#utility.yul\":10787:10796   */\n      dup3\n        /* \"#utility.yul\":10783:10801   */\n      add\n        /* \"#utility.yul\":10775:10801   */\n      swap1\n      pop\n        /* \"#utility.yul\":10847:10856   */\n      dup2\n        /* \"#utility.yul\":10841:10845   */\n      dup2\n        /* \"#utility.yul\":10837:10857   */\n      sub\n        /* \"#utility.yul\":10833:10834   */\n      0x00\n        /* \"#utility.yul\":10822:10831   */\n      dup4\n        /* \"#utility.yul\":10818:10835   */\n      add\n        /* \"#utility.yul\":10811:10858   */\n      mstore\n        /* \"#utility.yul\":10875:11006   */\n      tag_344\n        /* \"#utility.yul\":11001:11005   */\n      dup2\n        /* \"#utility.yul\":10875:11006   */\n      tag_318\n      jump\t// in\n    tag_344:\n        /* \"#utility.yul\":10867:11006   */\n      swap1\n      pop\n        /* \"#utility.yul\":10594:11013   */\n      swap2\n      swap1\n      pop\n      jump\t// out\n        /* \"#utility.yul\":11019:11438   */\n    tag_144:\n        /* \"#utility.yul\":11185:11189   */\n      0x00\n        /* \"#utility.yul\":11223:11225   */\n      0x20\n        /* \"#utility.yul\":11212:11221   */\n      dup3\n        /* \"#utility.yul\":11208:11226   */\n      add\n        /* \"#utility.yul\":11200:11226   */\n      swap1\n      pop\n        /* \"#utility.yul\":11272:11281   */\n      dup2\n        /* \"#utility.yul\":11266:11270   */\n      dup2\n        /* \"#utility.yul\":11262:11282   */\n      sub\n        /* \"#utility.yul\":11258:11259   */\n      0x00\n        /* \"#utility.yul\":11247:11256   */\n      dup4\n        /* \"#utility.yul\":11243:11260   */\n      add\n        /* \"#utility.yul\":11236:11283   */\n      mstore\n        /* \"#utility.yul\":11300:11431   */\n      tag_346\n        /* \"#utility.yul\":11426:11430   */\n      dup2\n        /* \"#utility.yul\":11300:11431   */\n      tag_323\n      jump\t// in\n    tag_346:\n        /* \"#utility.yul\":11292:11431   */\n      swap1\n      pop\n        /* \"#utility.yul\":11019:11438   */\n      swap2\n      swap1\n      pop\n      jump\t// out\n        /* \"#utility.yul\":11444:11666   */\n    tag_71:\n        /* \"#utility.yul\":11537:11541   */\n      0x00\n        /* \"#utility.yul\":11575:11577   */\n      0x20\n        /* \"#utility.yul\":11564:11573   */\n      dup3\n        /* \"#utility.yul\":11560:11578   */\n      add\n        /* \"#utility.yul\":11552:11578   */\n      swap1\n      pop\n        /* \"#utility.yul\":11588:11659   */\n      tag_348\n        /* \"#utility.yul\":11656:11657   */\n      0x00\n        /* \"#utility.yul\":11645:11654   */\n      dup4\n        /* \"#utility.yul\":11641:11658   */\n      add\n        /* \"#utility.yul\":11632:11638   */\n      dup5\n        /* \"#utility.yul\":11588:11659   */\n      tag_328\n      jump\t// in\n    tag_348:\n        /* \"#utility.yul\":11444:11666   */\n      swap3\n      swap2\n      pop\n      pop\n      jump\t// out\n        /* \"#utility.yul\":11672:11801   */\n    tag_209:\n        /* \"#utility.yul\":11706:11712   */\n      0x00\n        /* \"#utility.yul\":11733:11753   */\n      tag_350\n      tag_351\n      jump\t// in\n    tag_350:\n        /* \"#utility.yul\":11723:11753   */\n      swap1\n      pop\n        /* \"#utility.yul\":11762:11795   */\n      tag_352\n        /* \"#utility.yul\":11790:11794   */\n      dup3\n        /* \"#utility.yul\":11782:11788   */\n      dup3\n        /* \"#utility.yul\":11762:11795   */\n      tag_353\n      jump\t// in\n    tag_352:\n        /* \"#utility.yul\":11672:11801   */\n      swap2\n      swap1\n      pop\n      jump\t// out\n        /* \"#utility.yul\":11807:11882   */\n    tag_351:\n        /* \"#utility.yul\":11840:11846   */\n      0x00\n        /* \"#utility.yul\":11873:11875   */\n      0x40\n        /* \"#utility.yul\":11867:11876   */\n      mload\n        /* \"#utility.yul\":11857:11876   */\n      swap1\n      pop\n        /* \"#utility.yul\":11807:11882   */\n      swap1\n      jump\t// out\n        /* \"#utility.yul\":11888:12196   */\n    tag_208:\n        /* \"#utility.yul\":11950:11954   */\n      0x00\n        /* \"#utility.yul\":12040:12058   */\n      0xffffffffffffffff\n        /* \"#utility.yul\":12032:12038   */\n      dup3\n        /* \"#utility.yul\":12029:12059   */\n      gt\n        /* \"#utility.yul\":12026:12082   */\n      iszero\n      tag_356\n      jumpi\n        /* \"#utility.yul\":12062:12080   */\n      tag_357\n      tag_358\n      jump\t// in\n    tag_357:\n        /* \"#utility.yul\":12026:12082   */\n    tag_356:\n        /* \"#utility.yul\":12100:12129   */\n      tag_359\n        /* \"#utility.yul\":12122:12128   */\n      dup3\n        /* \"#utility.yul\":12100:12129   */\n      tag_312\n      jump\t// in\n    tag_359:\n        /* \"#utility.yul\":12092:12129   */\n      swap1\n      pop\n        /* \"#utility.yul\":12184:12188   */\n      0x20\n        /* \"#utility.yul\":12178:12182   */\n      dup2\n        /* \"#utility.yul\":12174:12189   */\n      add\n        /* \"#utility.yul\":12166:12189   */\n      swap1\n      pop\n        /* \"#utility.yul\":11888:12196   */\n      swap2\n      swap1\n      pop\n      jump\t// out\n        /* \"#utility.yul\":12202:12301   */\n    tag_306:\n        /* \"#utility.yul\":12254:12260   */\n      0x00\n        /* \"#utility.yul\":12288:12293   */\n      dup2\n        /* \"#utility.yul\":12282:12294   */\n      mload\n        /* \"#utility.yul\":12272:12294   */\n      swap1\n      pop\n        /* \"#utility.yul\":12202:12301   */\n      swap2\n      swap1\n      pop\n      jump\t// out\n        /* \"#utility.yul\":12307:12476   */\n    tag_308:\n        /* \"#utility.yul\":12391:12402   */\n      0x00\n        /* \"#utility.yul\":12425:12431   */\n      dup3\n        /* \"#utility.yul\":12420:12423   */\n      dup3\n        /* \"#utility.yul\":12413:12432   */\n      mstore\n        /* \"#utility.yul\":12465:12469   */\n      0x20\n        /* \"#utility.yul\":12460:12463   */\n      dup3\n        /* \"#utility.yul\":12456:12470   */\n      add\n        /* \"#utility.yul\":12441:12470   */\n      swap1\n      pop\n        /* \"#utility.yul\":12307:12476   */\n      swap3\n      swap2\n      pop\n      pop\n      jump\t// out\n        /* \"#utility.yul\":12482:12787   */\n    tag_135:\n        /* \"#utility.yul\":12522:12525   */\n      0x00\n        /* \"#utility.yul\":12541:12561   */\n      tag_363\n        /* \"#utility.yul\":12559:12560   */\n      dup3\n        /* \"#utility.yul\":12541:12561   */\n      tag_331\n      jump\t// in\n    tag_363:\n        /* \"#utility.yul\":12536:12561   */\n      swap2\n      pop\n        /* \"#utility.yul\":12575:12595   */\n      tag_364\n        /* \"#utility.yul\":12593:12594   */\n      dup4\n        /* \"#utility.yul\":12575:12595   */\n      tag_331\n      jump\t// in\n    tag_364:\n        /* \"#utility.yul\":12570:12595   */\n      swap3\n      pop\n        /* \"#utility.yul\":12729:12730   */\n      dup3\n        /* \"#utility.yul\":12661:12727   */\n      0xffffffffffffffffffffffffffffffffffffffffffffffffffffffffffffffff\n        /* \"#utility.yul\":12657:12731   */\n      sub\n        /* \"#utility.yul\":12654:12655   */\n      dup3\n        /* \"#utility.yul\":12651:12732   */\n      gt\n        /* \"#utility.yul\":12648:12755   */\n      iszero\n      tag_365\n      jumpi\n        /* \"#utility.yul\":12735:12753   */\n      tag_366\n      tag_367\n      jump\t// in\n    tag_366:\n        /* \"#utility.yul\":12648:12755   */\n    tag_365:\n        /* \"#utility.yul\":12779:12780   */\n      dup3\n        /* \"#utility.yul\":12776:12777   */\n      dup3\n        /* \"#utility.yul\":12772:12781   */\n      add\n        /* \"#utility.yul\":12765:12781   */\n      swap1\n      pop\n        /* \"#utility.yul\":12482:12787   */\n      swap3\n      swap2\n      pop\n      pop\n      jump\t// out\n        /* \"#utility.yul\":12793:12978   */\n    tag_158:\n        /* \"#utility.yul\":12833:12834   */\n      0x00\n        /* \"#utility.yul\":12850:12870   */\n      tag_369\n        /* \"#utility.yul\":12868:12869   */\n      dup3\n        /* \"#utility.yul\":12850:12870   */\n      tag_331\n      jump\t// in\n    tag_369:\n        /* \"#utility.yul\":12845:12870   */\n      swap2\n      pop\n        /* \"#utility.yul\":12884:12904   */\n      tag_370\n        /* \"#utility.yul\":12902:12903   */\n      dup4\n        /* \"#utility.yul\":12884:12904   */\n      tag_331\n      jump\t// in\n    tag_370:\n        /* \"#utility.yul\":12879:12904   */\n      swap3\n      pop\n        /* \"#utility.yul\":12923:12924   */\n      dup3\n        /* \"#utility.yul\":12913:12948   */\n      tag_371\n      jumpi\n        /* \"#utility.yul\":12928:12946   */\n      tag_372\n      tag_373\n      jump\t// in\n    tag_372:\n        /* \"#utility.yul\":12913:12948   */\n    tag_371:\n        /* \"#utility.yul\":12970:12971   */\n      dup3\n        /* \"#utility.yul\":12967:12968   */\n      dup3\n        /* \"#utility.yul\":12963:12972   */\n      div\n        /* \"#utility.yul\":12958:12972   */\n      swap1\n      pop\n        /* \"#utility.yul\":12793:12978   */\n      swap3\n      swap2\n      pop\n      pop\n      jump\t// out\n        /* \"#utility.yul\":12984:13175   */\n    tag_133:\n        /* \"#utility.yul\":13024:13028   */\n      0x00\n        /* \"#utility.yul\":13044:13064   */\n      tag_375\n        /* \"#utility.yul\":13062:13063   */\n      dup3\n        /* \"#utility.yul\":13044:13064   */\n      tag_331\n      jump\t// in\n    tag_375:\n        /* \"#utility.yul\":13039:13064   */\n      swap2\n      pop\n        /* \"#utility.yul\":13078:13098   */\n      tag_376\n        /* \"#utility.yul\":13096:13097   */\n      dup4\n        /* \"#utility.yul\":13078:13098   */\n      tag_331\n      jump\t// in\n    tag_376:\n        /* \"#utility.yul\":13073:13098   */\n      swap3\n      pop\n        /* \"#utility.yul\":13117:13118   */\n      dup3\n        /* \"#utility.yul\":13114:13115   */\n      dup3\n        /* \"#utility.yul\":13111:13119   */\n      lt\n        /* \"#utility.yul\":13108:13142   */\n      iszero\n      tag_377\n      jumpi\n        /* \"#utility.yul\":13122:13140   */\n      tag_378\n      tag_367\n      jump\t// in\n    tag_378:\n        /* \"#utility.yul\":13108:13142   */\n    tag_377:\n        /* \"#utility.yul\":13167:13168   */\n      dup3\n        /* \"#utility.yul\":13164:13165   */\n      dup3\n        /* \"#utility.yul\":13160:13169   */\n      sub\n        /* \"#utility.yul\":13152:13169   */\n      swap1\n      pop\n        /* \"#utility.yul\":12984:13175   */\n      swap3\n      swap2\n      pop\n      pop\n      jump\t// out\n        /* \"#utility.yul\":13181:13277   */\n    tag_379:\n        /* \"#utility.yul\":13218:13225   */\n      0x00\n        /* \"#utility.yul\":13247:13271   */\n      tag_381\n        /* \"#utility.yul\":13265:13270   */\n      dup3\n        /* \"#utility.yul\":13247:13271   */\n      tag_382\n      jump\t// in\n    tag_381:\n        /* \"#utility.yul\":13236:13271   */\n      swap1\n      pop\n        /* \"#utility.yul\":13181:13277   */\n      swap2\n      swap1\n      pop\n      jump\t// out\n        /* \"#utility.yul\":13283:13387   */\n    tag_294:\n        /* \"#utility.yul\":13328:13335   */\n      0x00\n        /* \"#utility.yul\":13357:13381   */\n      tag_384\n        /* \"#utility.yul\":13375:13380   */\n      dup3\n        /* \"#utility.yul\":13357:13381   */\n      tag_382\n      jump\t// in\n    tag_384:\n        /* \"#utility.yul\":13346:13381   */\n      swap1\n      pop\n        /* \"#utility.yul\":13283:13387   */\n      swap2\n      swap1\n      pop\n      jump\t// out\n        /* \"#utility.yul\":13393:13483   */\n    tag_298:\n        /* \"#utility.yul\":13427:13434   */\n      0x00\n        /* \"#utility.yul\":13470:13475   */\n      dup2\n        /* \"#utility.yul\":13463:13476   */\n      iszero\n        /* \"#utility.yul\":13456:13477   */\n      iszero\n        /* \"#utility.yul\":13445:13477   */\n      swap1\n      pop\n        /* \"#utility.yul\":13393:13483   */\n      swap2\n      swap1\n      pop\n      jump\t// out\n        /* \"#utility.yul\":13489:13614   */\n    tag_386:\n        /* \"#utility.yul\":13533:13540   */\n      0x00\n        /* \"#utility.yul\":13562:13567   */\n      dup2\n        /* \"#utility.yul\":13551:13567   */\n      swap1\n      pop\n        /* \"#utility.yul\":13568:13608   */\n      tag_388\n        /* \"#utility.yul\":13602:13607   */\n      dup3\n        /* \"#utility.yul\":13568:13608   */\n      tag_389\n      jump\t// in\n    tag_388:\n        /* \"#utility.yul\":13489:13614   */\n      swap2\n      swap1\n      pop\n      jump\t// out\n        /* \"#utility.yul\":13620:13746   */\n    tag_382:\n        /* \"#utility.yul\":13657:13664   */\n      0x00\n        /* \"#utility.yul\":13697:13739   */\n      0xffffffffffffffffffffffffffffffffffffffff\n        /* \"#utility.yul\":13690:13695   */\n      dup3\n        /* \"#utility.yul\":13686:13740   */\n      and\n        /* \"#utility.yul\":13675:13740   */\n      swap1\n      pop\n        /* \"#utility.yul\":13620:13746   */\n      swap2\n      swap1\n      pop\n      jump\t// out\n        /* \"#utility.yul\":13752:13829   */\n    tag_331:\n        /* \"#utility.yul\":13789:13796   */\n      0x00\n        /* \"#utility.yul\":13818:13823   */\n      dup2\n        /* \"#utility.yul\":13807:13823   */\n      swap1\n      pop\n        /* \"#utility.yul\":13752:13829   */\n      swap2\n      swap1\n      pop\n      jump\t// out\n        /* \"#utility.yul\":13835:13960   */\n    tag_302:\n        /* \"#utility.yul\":13890:13899   */\n      0x00\n        /* \"#utility.yul\":13923:13954   */\n      tag_393\n        /* \"#utility.yul\":13948:13953   */\n      dup3\n        /* \"#utility.yul\":13923:13954   */\n      tag_386\n      jump\t// in\n    tag_393:\n        /* \"#utility.yul\":13910:13954   */\n      swap1\n      pop\n        /* \"#utility.yul\":13835:13960   */\n      swap2\n      swap1\n      pop\n      jump\t// out\n        /* \"#utility.yul\":13966:14120   */\n    tag_214:\n        /* \"#utility.yul\":14050:14056   */\n      dup3\n        /* \"#utility.yul\":14045:14048   */\n      dup2\n        /* \"#utility.yul\":14040:14043   */\n      dup4\n        /* \"#utility.yul\":14027:14057   */\n      calldatacopy\n        /* \"#utility.yul\":14112:14113   */\n      0x00\n        /* \"#utility.yul\":14103:14109   */\n      dup4\n        /* \"#utility.yul\":14098:14101   */\n      dup4\n        /* \"#utility.yul\":14094:14110   */\n      add\n        /* \"#utility.yul\":14087:14114   */\n      mstore\n        /* \"#utility.yul\":13966:14120   */\n      pop\n      pop\n      pop\n      jump\t// out\n        /* \"#utility.yul\":14126:14433   */\n    tag_310:\n        /* \"#utility.yul\":14194:14195   */\n      0x00\n        /* \"#utility.yul\":14204:14317   */\n    tag_396:\n        /* \"#utility.yul\":14218:14224   */\n      dup4\n        /* \"#utility.yul\":14215:14216   */\n      dup2\n        /* \"#utility.yul\":14212:14225   */\n      lt\n        /* \"#utility.yul\":14204:14317   */\n      iszero\n      tag_398\n      jumpi\n        /* \"#utility.yul\":14303:14304   */\n      dup1\n        /* \"#utility.yul\":14298:14301   */\n      dup3\n        /* \"#utility.yul\":14294:14305   */\n      add\n        /* \"#utility.yul\":14288:14306   */\n      mload\n        /* \"#utility.yul\":14284:14285   */\n      dup2\n        /* \"#utility.yul\":14279:14282   */\n      dup5\n        /* \"#utility.yul\":14275:14286   */\n      add\n        /* \"#utility.yul\":14268:14307   */\n      mstore\n        /* \"#utility.yul\":14240:14242   */\n      0x20\n        /* \"#utility.yul\":14237:14238   */\n      dup2\n        /* \"#utility.yul\":14233:14243   */\n      add\n        /* \"#utility.yul\":14228:14243   */\n      swap1\n      pop\n        /* \"#utility.yul\":14204:14317   */\n      jump(tag_396)\n    tag_398:\n        /* \"#utility.yul\":14335:14341   */\n      dup4\n        /* \"#utility.yul\":14332:14333   */\n      dup2\n        /* \"#utility.yul\":14329:14342   */\n      gt\n        /* \"#utility.yul\":14326:14427   */\n      iszero\n      tag_399\n      jumpi\n        /* \"#utility.yul\":14415:14416   */\n      0x00\n        /* \"#utility.yul\":14406:14412   */\n      dup5\n        /* \"#utility.yul\":14401:14404   */\n      dup5\n        /* \"#utility.yul\":14397:14413   */\n      add\n        /* \"#utility.yul\":14390:14417   */\n      mstore\n        /* \"#utility.yul\":14326:14427   */\n    tag_399:\n        /* \"#utility.yul\":14175:14433   */\n      pop\n        /* \"#utility.yul\":14126:14433   */\n      pop\n      pop\n      pop\n      jump\t// out\n        /* \"#utility.yul\":14439:14759   */\n    tag_83:\n        /* \"#utility.yul\":14483:14489   */\n      0x00\n        /* \"#utility.yul\":14520:14521   */\n      0x02\n        /* \"#utility.yul\":14514:14518   */\n      dup3\n        /* \"#utility.yul\":14510:14522   */\n      div\n        /* \"#utility.yul\":14500:14522   */\n      swap1\n      pop\n        /* \"#utility.yul\":14567:14568   */\n      0x01\n        /* \"#utility.yul\":14561:14565   */\n      dup3\n        /* \"#utility.yul\":14557:14569   */\n      and\n        /* \"#utility.yul\":14588:14606   */\n      dup1\n        /* \"#utility.yul\":14578:14659   */\n      tag_401\n      jumpi\n        /* \"#utility.yul\":14644:14648   */\n      0x7f\n        /* \"#utility.yul\":14636:14642   */\n      dup3\n        /* \"#utility.yul\":14632:14649   */\n      and\n        /* \"#utility.yul\":14622:14649   */\n      swap2\n      pop\n        /* \"#utility.yul\":14578:14659   */\n    tag_401:\n        /* \"#utility.yul\":14706:14708   */\n      0x20\n        /* \"#utility.yul\":14698:14704   */\n      dup3\n        /* \"#utility.yul\":14695:14709   */\n      lt\n        /* \"#utility.yul\":14675:14693   */\n      dup2\n        /* \"#utility.yul\":14672:14710   */\n      eq\n        /* \"#utility.yul\":14669:14753   */\n      iszero\n      tag_402\n      jumpi\n        /* \"#utility.yul\":14725:14743   */\n      tag_403\n      tag_404\n      jump\t// in\n    tag_403:\n        /* \"#utility.yul\":14669:14753   */\n    tag_402:\n        /* \"#utility.yul\":14490:14759   */\n      pop\n        /* \"#utility.yul\":14439:14759   */\n      swap2\n      swap1\n      pop\n      jump\t// out\n        /* \"#utility.yul\":14765:15046   */\n    tag_353:\n        /* \"#utility.yul\":14848:14875   */\n      tag_406\n        /* \"#utility.yul\":14870:14874   */\n      dup3\n        /* \"#utility.yul\":14848:14875   */\n      tag_312\n      jump\t// in\n    tag_406:\n        /* \"#utility.yul\":14840:14846   */\n      dup2\n        /* \"#utility.yul\":14836:14876   */\n      add\n        /* \"#utility.yul\":14978:14984   */\n      dup2\n        /* \"#utility.yul\":14966:14976   */\n      dup2\n        /* \"#utility.yul\":14963:14985   */\n      lt\n        /* \"#utility.yul\":14942:14960   */\n      0xffffffffffffffff\n        /* \"#utility.yul\":14930:14940   */\n      dup3\n        /* \"#utility.yul\":14927:14961   */\n      gt\n        /* \"#utility.yul\":14924:14986   */\n      or\n        /* \"#utility.yul\":14921:15009   */\n      iszero\n      tag_407\n      jumpi\n        /* \"#utility.yul\":14989:15007   */\n      tag_408\n      tag_358\n      jump\t// in\n    tag_408:\n        /* \"#utility.yul\":14921:15009   */\n    tag_407:\n        /* \"#utility.yul\":15029:15039   */\n      dup1\n        /* \"#utility.yul\":15025:15027   */\n      0x40\n        /* \"#utility.yul\":15018:15040   */\n      mstore\n        /* \"#utility.yul\":14808:15046   */\n      pop\n        /* \"#utility.yul\":14765:15046   */\n      pop\n      pop\n      jump\t// out\n        /* \"#utility.yul\":15052:15232   */\n    tag_367:\n        /* \"#utility.yul\":15100:15177   */\n      0x4e487b7100000000000000000000000000000000000000000000000000000000\n        /* \"#utility.yul\":15097:15098   */\n      0x00\n        /* \"#utility.yul\":15090:15178   */\n      mstore\n        /* \"#utility.yul\":15197:15201   */\n      0x11\n        /* \"#utility.yul\":15194:15195   */\n      0x04\n        /* \"#utility.yul\":15187:15202   */\n      mstore\n        /* \"#utility.yul\":15221:15225   */\n      0x24\n        /* \"#utility.yul\":15218:15219   */\n      0x00\n        /* \"#utility.yul\":15211:15226   */\n      revert\n        /* \"#utility.yul\":15238:15418   */\n    tag_373:\n        /* \"#utility.yul\":15286:15363   */\n      0x4e487b7100000000000000000000000000000000000000000000000000000000\n        /* \"#utility.yul\":15283:15284   */\n      0x00\n        /* \"#utility.yul\":15276:15364   */\n      mstore\n        /* \"#utility.yul\":15383:15387   */\n      0x12\n        /* \"#utility.yul\":15380:15381   */\n      0x04\n        /* \"#utility.yul\":15373:15388   */\n      mstore\n        /* \"#utility.yul\":15407:15411   */\n      0x24\n        /* \"#utility.yul\":15404:15405   */\n      0x00\n        /* \"#utility.yul\":15397:15412   */\n      revert\n        /* \"#utility.yul\":15424:15604   */\n    tag_91:\n        /* \"#utility.yul\":15472:15549   */\n      0x4e487b7100000000000000000000000000000000000000000000000000000000\n        /* \"#utility.yul\":15469:15470   */\n      0x00\n        /* \"#utility.yul\":15462:15550   */\n      mstore\n        /* \"#utility.yul\":15569:15573   */\n      0x21\n        /* \"#utility.yul\":15566:15567   */\n      0x04\n        /* \"#utility.yul\":15559:15574   */\n      mstore\n        /* \"#utility.yul\":15593:15597   */\n      0x24\n        /* \"#utility.yul\":15590:15591   */\n      0x00\n        /* \"#utility.yul\":15583:15598   */\n      revert\n        /* \"#utility.yul\":15610:15790   */\n    tag_404:\n        /* \"#utility.yul\":15658:15735   */\n      0x4e487b7100000000000000000000000000000000000000000000000000000000\n        /* \"#utility.yul\":15655:15656   */\n      0x00\n        /* \"#utility.yul\":15648:15736   */\n      mstore\n        /* \"#utility.yul\":15755:15759   */\n      0x22\n        /* \"#utility.yul\":15752:15753   */\n      0x04\n        /* \"#utility.yul\":15745:15760   */\n      mstore\n        /* \"#utility.yul\":15779:15783   */\n      0x24\n        /* \"#utility.yul\":15776:15777   */\n      0x00\n        /* \"#utility.yul\":15769:15784   */\n      revert\n        /* \"#utility.yul\":15796:15976   */\n    tag_118:\n        /* \"#utility.yul\":15844:15921   */\n      0x4e487b7100000000000000000000000000000000000000000000000000000000\n        /* \"#utility.yul\":15841:15842   */\n      0x00\n        /* \"#utility.yul\":15834:15922   */\n      mstore\n        /* \"#utility.yul\":15941:15945   */\n      0x32\n        /* \"#utility.yul\":15938:15939   */\n      0x04\n        /* \"#utility.yul\":15931:15946   */\n      mstore\n        /* \"#utility.yul\":15965:15969   */\n      0x24\n        /* \"#utility.yul\":15962:15963   */\n      0x00\n        /* \"#utility.yul\":15955:15970   */\n      revert\n        /* \"#utility.yul\":15982:16162   */\n    tag_358:\n        /* \"#utility.yul\":16030:16107   */\n      0x4e487b7100000000000000000000000000000000000000000000000000000000\n        /* \"#utility.yul\":16027:16028   */\n      0x00\n        /* \"#utility.yul\":16020:16108   */\n      mstore\n        /* \"#utility.yul\":16127:16131   */\n      0x41\n        /* \"#utility.yul\":16124:16125   */\n      0x04\n        /* \"#utility.yul\":16117:16132   */\n      mstore\n        /* \"#utility.yul\":16151:16155   */\n      0x24\n        /* \"#utility.yul\":16148:16149   */\n      0x00\n        /* \"#utility.yul\":16141:16156   */\n      revert\n        /* \"#utility.yul\":16168:16285   */\n    tag_227:\n        /* \"#utility.yul\":16277:16278   */\n      0x00\n        /* \"#utility.yul\":16274:16275   */\n      dup1\n        /* \"#utility.yul\":16267:16279   */\n      revert\n        /* \"#utility.yul\":16291:16408   */\n    tag_212:\n        /* \"#utility.yul\":16400:16401   */\n      0x00\n        /* \"#utility.yul\":16397:16398   */\n      dup1\n        /* \"#utility.yul\":16390:16402   */\n      revert\n        /* \"#utility.yul\":16414:16531   */\n    tag_245:\n        /* \"#utility.yul\":16523:16524   */\n      0x00\n        /* \"#utility.yul\":16520:16521   */\n      dup1\n        /* \"#utility.yul\":16513:16525   */\n      revert\n        /* \"#utility.yul\":16537:16654   */\n    tag_236:\n        /* \"#utility.yul\":16646:16647   */\n      0x00\n        /* \"#utility.yul\":16643:16644   */\n      dup1\n        /* \"#utility.yul\":16636:16648   */\n      revert\n        /* \"#utility.yul\":16660:16762   */\n    tag_312:\n        /* \"#utility.yul\":16701:16707   */\n      0x00\n        /* \"#utility.yul\":16752:16754   */\n      0x1f\n        /* \"#utility.yul\":16748:16755   */\n      not\n        /* \"#utility.yul\":16743:16745   */\n      0x1f\n        /* \"#utility.yul\":16736:16741   */\n      dup4\n        /* \"#utility.yul\":16732:16746   */\n      add\n        /* \"#utility.yul\":16728:16756   */\n      and\n        /* \"#utility.yul\":16718:16756   */\n      swap1\n      pop\n        /* \"#utility.yul\":16660:16762   */\n      swap2\n      swap1\n      pop\n      jump\t// out\n        /* \"#utility.yul\":16768:16946   */\n    tag_317:\n        /* \"#utility.yul\":16908:16938   */\n      0x63616c6c6572206973206e6f742061206469737472696275746f722e00000000\n        /* \"#utility.yul\":16904:16905   */\n      0x00\n        /* \"#utility.yul\":16896:16902   */\n      dup3\n        /* \"#utility.yul\":16892:16906   */\n      add\n        /* \"#utility.yul\":16885:16939   */\n      mstore\n        /* \"#utility.yul\":16768:16946   */\n      pop\n      jump\t// out\n        /* \"#utility.yul\":16952:17127   */\n    tag_322:\n        /* \"#utility.yul\":17092:17119   */\n      0x63616c6c6572206973206e6f7420612070726f64756365722e00000000000000\n        /* \"#utility.yul\":17088:17089   */\n      0x00\n        /* \"#utility.yul\":17080:17086   */\n      dup3\n        /* \"#utility.yul\":17076:17090   */\n      add\n        /* \"#utility.yul\":17069:17120   */\n      mstore\n        /* \"#utility.yul\":16952:17127   */\n      pop\n      jump\t// out\n        /* \"#utility.yul\":17133:17313   */\n    tag_327:\n        /* \"#utility.yul\":17273:17305   */\n      0x63616c6c6572206973206e6f742074686520746f6b656e206f776e65722e0000\n        /* \"#utility.yul\":17269:17270   */\n      0x00\n        /* \"#utility.yul\":17261:17267   */\n      dup3\n        /* \"#utility.yul\":17257:17271   */\n      add\n        /* \"#utility.yul\":17250:17306   */\n      mstore\n        /* \"#utility.yul\":17133:17313   */\n      pop\n      jump\t// out\n        /* \"#utility.yul\":17319:17431   */\n    tag_389:\n        /* \"#utility.yul\":17399:17400   */\n      0x05\n        /* \"#utility.yul\":17392:17397   */\n      dup2\n        /* \"#utility.yul\":17389:17401   */\n      lt\n        /* \"#utility.yul\":17379:17425   */\n      tag_424\n      jumpi\n        /* \"#utility.yul\":17405:17423   */\n      tag_425\n      tag_91\n      jump\t// in\n    tag_425:\n        /* \"#utility.yul\":17379:17425   */\n    tag_424:\n        /* \"#utility.yul\":17319:17431   */\n      pop\n      jump\t// out\n        /* \"#utility.yul\":17437:17559   */\n    tag_218:\n        /* \"#utility.yul\":17510:17534   */\n      tag_427\n        /* \"#utility.yul\":17528:17533   */\n      dup2\n        /* \"#utility.yul\":17510:17534   */\n      tag_379\n      jump\t// in\n    tag_427:\n        /* \"#utility.yul\":17503:17508   */\n      dup2\n        /* \"#utility.yul\":17500:17535   */\n      eq\n        /* \"#utility.yul\":17490:17553   */\n      tag_428\n      jumpi\n        /* \"#utility.yul\":17549:17550   */\n      0x00\n        /* \"#utility.yul\":17546:17547   */\n      dup1\n        /* \"#utility.yul\":17539:17551   */\n      revert\n        /* \"#utility.yul\":17490:17553   */\n    tag_428:\n        /* \"#utility.yul\":17437:17559   */\n      pop\n      jump\t// out\n        /* \"#utility.yul\":17565:17671   */\n    tag_222:\n        /* \"#utility.yul\":17645:17646   */\n      0x05\n        /* \"#utility.yul\":17638:17643   */\n      dup2\n        /* \"#utility.yul\":17635:17647   */\n      lt\n        /* \"#utility.yul\":17625:17665   */\n      tag_430\n      jumpi\n        /* \"#utility.yul\":17661:17662   */\n      0x00\n        /* \"#utility.yul\":17658:17659   */\n      dup1\n        /* \"#utility.yul\":17651:17663   */\n      revert\n        /* \"#utility.yul\":17625:17665   */\n    tag_430:\n        /* \"#utility.yul\":17565:17671   */\n      pop\n      jump\t// out\n        /* \"#utility.yul\":17677:17799   */\n    tag_232:\n        /* \"#utility.yul\":17750:17774   */\n      tag_432\n        /* \"#utility.yul\":17768:17773   */\n      dup2\n        /* \"#utility.yul\":17750:17774   */\n      tag_331\n      jump\t// in\n    tag_432:\n        /* \"#utility.yul\":17743:17748   */\n      dup2\n        /* \"#utility.yul\":17740:17775   */\n      eq\n        /* \"#utility.yul\":17730:17793   */\n      tag_433\n      jumpi\n        /* \"#utility.yul\":17789:17790   */\n      0x00\n        /* \"#utility.yul\":17786:17787   */\n      dup1\n        /* \"#utility.yul\":17779:17791   */\n      revert\n        /* \"#utility.yul\":17730:17793   */\n    tag_433:\n        /* \"#utility.yul\":17677:17799   */\n      pop\n      jump\t// out\n\n    auxdata: 0xa2646970667358221220fc64eb0db91abb1470c3d51dfb691eeb456dfd3290f91582579548430c36a04564736f6c63430008070033\n}\n",
				"bytecode": {
					"linkReferences": {},
					"object": "60806040523480156200001157600080fd5b50604051620022c9380380620022c9833981810160405281019062000037919062000243565b82600090805190602001906200004f929190620000fe565b50816001908051906020019062000068929190620000fe565b508060038190555033600260006101000a81548173ffffffffffffffffffffffffffffffffffffffff021916908373ffffffffffffffffffffffffffffffffffffffff16021790555080600460003373ffffffffffffffffffffffffffffffffffffffff1673ffffffffffffffffffffffffffffffffffffffff1681526020019081526020016000208190555050505062000485565b8280546200010c906200037c565b90600052602060002090601f0160209004810192826200013057600085556200017c565b82601f106200014b57805160ff19168380011785556200017c565b828001600101855582156200017c579182015b828111156200017b5782518255916020019190600101906200015e565b5b5090506200018b91906200018f565b5090565b5b80821115620001aa57600081600090555060010162000190565b5090565b6000620001c5620001bf8462000306565b620002dd565b905082815260208101848484011115620001e457620001e36200044b565b5b620001f184828562000346565b509392505050565b600082601f83011262000211576200021062000446565b5b815162000223848260208601620001ae565b91505092915050565b6000815190506200023d816200046b565b92915050565b6000806000606084860312156200025f576200025e62000455565b5b600084015167ffffffffffffffff81111562000280576200027f62000450565b5b6200028e86828701620001f9565b935050602084015167ffffffffffffffff811115620002b257620002b162000450565b5b620002c086828701620001f9565b9250506040620002d3868287016200022c565b9150509250925092565b6000620002e9620002fc565b9050620002f78282620003b2565b919050565b6000604051905090565b600067ffffffffffffffff82111562000324576200032362000417565b5b6200032f826200045a565b9050602081019050919050565b6000819050919050565b60005b838110156200036657808201518184015260208101905062000349565b8381111562000376576000848401525b50505050565b600060028204905060018216806200039557607f821691505b60208210811415620003ac57620003ab620003e8565b5b50919050565b620003bd826200045a565b810181811067ffffffffffffffff82111715620003df57620003de62000417565b5b80604052505050565b7f4e487b7100000000000000000000000000000000000000000000000000000000600052602260045260246000fd5b7f4e487b7100000000000000000000000000000000000000000000000000000000600052604160045260246000fd5b600080fd5b600080fd5b600080fd5b600080fd5b6000601f19601f8301169050919050565b62000476816200033c565b81146200048257600080fd5b50565b611e3480620004956000396000f3fe6080604052600436106100c25760003560e01c8063a0712d681161007f578063b292abf111610059578063b292abf114610233578063cd0c589614610271578063ebc9368f146102ae578063eedc966a146102d7576100c2565b8063a0712d68146101d5578063a3e67610146101fe578063a482171914610229576100c2565b806306fdde03146100c757806340932fc2146100f2578063561e0e981461011b57806368cdafe61461014457806395d89b41146101815780639dc29fac146101ac575b600080fd5b3480156100d357600080fd5b506100dc610314565b6040516100e99190611904565b60405180910390f35b3480156100fe57600080fd5b50610119600480360381019061011491906114d2565b6103a2565b005b34801561012757600080fd5b50610142600480360381019061013d919061161d565b6105d8565b005b34801561015057600080fd5b5061016b60048036038101906101669190611541565b610924565b60405161017891906118b9565b60405180910390f35b34801561018d57600080fd5b50610196610a62565b6040516101a39190611904565b60405180910390f35b3480156101b857600080fd5b506101d360048036038101906101ce9190611541565b610af0565b005b3480156101e157600080fd5b506101fc60048036038101906101f79190611581565b610c79565b005b34801561020a57600080fd5b50610213610d7b565b604051610220919061189e565b60405180910390f35b610231610da1565b005b34801561023f57600080fd5b5061025a600480360381019061025591906114a5565b610ef9565b6040516102689291906118d4565b60405180910390f35b34801561027d57600080fd5b50610298600480360381019061029391906114a5565b611021565b6040516102a59190611986565b60405180910390f35b3480156102ba57600080fd5b506102d560048036038101906102d091906115ae565b611042565b005b3480156102e357600080fd5b506102fe60048036038101906102f991906114a5565b61130a565b60405161030b9190611986565b60405180910390f35b6000805461032190611b8f565b80601f016020809104026020016040519081016040528092919081815260200182805461034d90611b8f565b801561039a5780601f1061036f5761010080835404028352916020019161039a565b820191906000526020600020905b81548152906001019060200180831161037d57829003601f168201915b505050505081565b6000600560008573ffffffffffffffffffffffffffffffffffffffff1673ffffffffffffffffffffffffffffffffffffffff1681526020019081526020016000206040518060600160405290816000820160009054906101000a900460ff16600481111561041357610412611c50565b5b600481111561042557610424611c50565b5b815260200160018201805461043990611b8f565b80601f016020809104026020016040519081016040528092919081815260200182805461046590611b8f565b80156104b25780601f10610487576101008083540402835291602001916104b2565b820191906000526020600020905b81548152906001019060200180831161049557829003601f168201915b505050505081526020016002820160009054906101000a900460ff161515151581525050905082816000019060048111156104f0576104ef611c50565b5b9081600481111561050457610503611c50565b5b81525050818160200181905250600181604001901515908115158152505080600560008673ffffffffffffffffffffffffffffffffffffffff1673ffffffffffffffffffffffffffffffffffffffff16815260200190815260200160002060008201518160000160006101000a81548160ff0219169083600481111561058d5761058c611c50565b5b021790555060208201518160010190805190602001906105ae929190611353565b5060408201518160020160006101000a81548160ff02191690831515021790555090505050505050565b600060048111156105ec576105eb611c50565b5b600560003373ffffffffffffffffffffffffffffffffffffffff1673ffffffffffffffffffffffffffffffffffffffff16815260200190815260200160002060000160009054906101000a900460ff16600481111561064e5761064d611c50565b5b1461068e576040517f08c379a000000000000000000000000000000000000000000000000000000000815260040161068590611946565b60405180910390fd5b6000600660008c815260200190815260200160002090508a8160000181905550338160010160006101000a81548173ffffffffffffffffffffffffffffffffffffffff021916908373ffffffffffffffffffffffffffffffffffffffff160217905550338160020160006101000a81548173ffffffffffffffffffffffffffffffffffffffff021916908373ffffffffffffffffffffffffffffffffffffffff160217905550898160030160006004811061074c5761074b611cae565b5b018190555060008160070160006101000a81548160ff0219169083600581111561077957610778611c50565b5b021790555088816008018190555060008160090160006101000a81548173ffffffffffffffffffffffffffffffffffffffff021916908373ffffffffffffffffffffffffffffffffffffffff160217905550600081600a0160006101000a81548173ffffffffffffffffffffffffffffffffffffffff021916908373ffffffffffffffffffffffffffffffffffffffff160217905550600081600b0160006101000a81548173ffffffffffffffffffffffffffffffffffffffff021916908373ffffffffffffffffffffffffffffffffffffffff1602179055508781600c01600001908051906020019061086e929190611353565b508681600c01600101908051906020019061088a929190611353565b508581600c0160020190805190602001906108a6929190611353565b508481600c0160030190805190602001906108c2929190611353565b508381600c0160040190805190602001906108de929190611353565b508281600c0160050190805190602001906108fa929190611353565b508181600c016006019080519060200190610916929190611353565b505050505050505050505050565b600081600460003373ffffffffffffffffffffffffffffffffffffffff1673ffffffffffffffffffffffffffffffffffffffff16815260200190815260200160002054101561097257600080fd5b600073ffffffffffffffffffffffffffffffffffffffff168373ffffffffffffffffffffffffffffffffffffffff1614156109ac57600080fd5b81600460003373ffffffffffffffffffffffffffffffffffffffff1673ffffffffffffffffffffffffffffffffffffffff16815260200190815260200160002060008282546109fb9190611a9a565b9250508190555081600460008573ffffffffffffffffffffffffffffffffffffffff1673ffffffffffffffffffffffffffffffffffffffff1681526020019081526020016000206000828254610a519190611a13565b925050819055506001905092915050565b60018054610a6f90611b8f565b80601f0160208091040260200160405190810160405280929190818152602001828054610a9b90611b8f565b8015610ae85780601f10610abd57610100808354040283529160200191610ae8565b820191906000526020600020905b815481529060010190602001808311610acb57829003601f168201915b505050505081565b600260009054906101000a900473ffffffffffffffffffffffffffffffffffffffff1673ffffffffffffffffffffffffffffffffffffffff163373ffffffffffffffffffffffffffffffffffffffff1614610b80576040517f08c379a0000000000000000000000000000000000000000000000000000000008152600401610b7790611966565b60405180910390fd5b600073ffffffffffffffffffffffffffffffffffffffff168273ffffffffffffffffffffffffffffffffffffffff161415610bba57600080fd5b600460008373ffffffffffffffffffffffffffffffffffffffff1673ffffffffffffffffffffffffffffffffffffffff16815260200190815260200160002054811115610c0657600080fd5b8060036000828254610c189190611a9a565b9250508190555080600460008473ffffffffffffffffffffffffffffffffffffffff1673ffffffffffffffffffffffffffffffffffffffff1681526020019081526020016000206000828254610c6e9190611a9a565b925050819055505050565b600260009054906101000a900473ffffffffffffffffffffffffffffffffffffffff1673ffffffffffffffffffffffffffffffffffffffff163373ffffffffffffffffffffffffffffffffffffffff1614610d09576040517f08c379a0000000000000000000000000000000000000000000000000000000008152600401610d0090611966565b60405180910390fd5b8060036000828254610d1b9190611a13565b9250508190555080600460003373ffffffffffffffffffffffffffffffffffffffff1673ffffffffffffffffffffffffffffffffffffffff1681526020019081526020016000206000828254610d719190611a13565b9250508190555050565b600260009054906101000a900473ffffffffffffffffffffffffffffffffffffffff1681565b6000606434610db09190611a69565b905060003411610dbf57600080fd5b600260009054906101000a900473ffffffffffffffffffffffffffffffffffffffff1673ffffffffffffffffffffffffffffffffffffffff166108fc349081150290604051600060405180830381858888f19350505050158015610e27573d6000803e3d6000fd5b508060046000600260009054906101000a900473ffffffffffffffffffffffffffffffffffffffff1673ffffffffffffffffffffffffffffffffffffffff1673ffffffffffffffffffffffffffffffffffffffff1681526020019081526020016000206000828254610e999190611a9a565b9250508190555080600460003373ffffffffffffffffffffffffffffffffffffffff1673ffffffffffffffffffffffffffffffffffffffff1681526020019081526020016000206000828254610eef9190611a13565b9250508190555050565b60006060600560008473ffffffffffffffffffffffffffffffffffffffff1673ffffffffffffffffffffffffffffffffffffffff16815260200190815260200160002060000160009054906101000a900460ff169150600560008473ffffffffffffffffffffffffffffffffffffffff1673ffffffffffffffffffffffffffffffffffffffff1681526020019081526020016000206001018054610f9c90611b8f565b80601f0160208091040260200160405190810160405280929190818152602001828054610fc890611b8f565b80156110155780601f10610fea57610100808354040283529160200191611015565b820191906000526020600020905b815481529060010190602001808311610ff857829003601f168201915b50505050509050915091565b60008173ffffffffffffffffffffffffffffffffffffffff16319050919050565b6001600481111561105657611055611c50565b5b600560003373ffffffffffffffffffffffffffffffffffffffff1673ffffffffffffffffffffffffffffffffffffffff16815260200190815260200160002060000160009054906101000a900460ff1660048111156110b8576110b7611c50565b5b146110f8576040517f08c379a00000000000000000000000000000000000000000000000000000000081526004016110ef90611926565b60405180910390fd5b60006006600085815260200190815260200160002090506000600460003373ffffffffffffffffffffffffffffffffffffffff1673ffffffffffffffffffffffffffffffffffffffff168152602001908152602001600020549050816008015481101561116457600080fd5b6000600581111561117857611177611c50565b5b8260070160009054906101000a900460ff16600581111561119c5761119b611c50565b5b146111a657600080fd5b83600660008781526020019081526020016000206003016001600481106111d0576111cf611cae565b5b0181905550336006600087815260200190815260200160002060090160006101000a81548173ffffffffffffffffffffffffffffffffffffffff021916908373ffffffffffffffffffffffffffffffffffffffff16021790555061126e6006600087815260200190815260200160002060010160009054906101000a900473ffffffffffffffffffffffffffffffffffffffff168360080154610924565b5060056006600087815260200190815260200160002060070160006101000a81548160ff021916908360058111156112a9576112a8611c50565b5b0217905550336006600087815260200190815260200160002060010160006101000a81548173ffffffffffffffffffffffffffffffffffffffff021916908373ffffffffffffffffffffffffffffffffffffffff1602179055505050505050565b6000600460008373ffffffffffffffffffffffffffffffffffffffff1673ffffffffffffffffffffffffffffffffffffffff168152602001908152602001600020549050919050565b82805461135f90611b8f565b90600052602060002090601f01602090048101928261138157600085556113c8565b82601f1061139a57805160ff19168380011785556113c8565b828001600101855582156113c8579182015b828111156113c75782518255916020019190600101906113ac565b5b5090506113d591906113d9565b5090565b5b808211156113f25760008160009055506001016113da565b5090565b6000611409611404846119c6565b6119a1565b90508281526020810184848401111561142557611424611d11565b5b611430848285611b4d565b509392505050565b60008135905061144781611dc0565b92915050565b60008135905061145c81611dd7565b92915050565b600082601f83011261147757611476611d0c565b5b81356114878482602086016113f6565b91505092915050565b60008135905061149f81611de7565b92915050565b6000602082840312156114bb576114ba611d1b565b5b60006114c984828501611438565b91505092915050565b6000806000606084860312156114eb576114ea611d1b565b5b60006114f986828701611438565b935050602061150a8682870161144d565b925050604084013567ffffffffffffffff81111561152b5761152a611d16565b5b61153786828701611462565b9150509250925092565b6000806040838503121561155857611557611d1b565b5b600061156685828601611438565b925050602061157785828601611490565b9150509250929050565b60006020828403121561159757611596611d1b565b5b60006115a584828501611490565b91505092915050565b6000806000606084860312156115c7576115c6611d1b565b5b60006115d586828701611490565b93505060206115e686828701611490565b925050604084013567ffffffffffffffff81111561160757611606611d16565b5b61161386828701611462565b9150509250925092565b6000806000806000806000806000806101408b8d03121561164157611640611d1b565b5b600061164f8d828e01611490565b9a505060206116608d828e01611490565b99505060406116718d828e01611490565b98505060608b013567ffffffffffffffff81111561169257611691611d16565b5b61169e8d828e01611462565b97505060808b013567ffffffffffffffff8111156116bf576116be611d16565b5b6116cb8d828e01611462565b96505060a08b013567ffffffffffffffff8111156116ec576116eb611d16565b5b6116f88d828e01611462565b95505060c08b013567ffffffffffffffff81111561171957611718611d16565b5b6117258d828e01611462565b94505060e08b013567ffffffffffffffff81111561174657611745611d16565b5b6117528d828e01611462565b9350506101008b013567ffffffffffffffff81111561177457611773611d16565b5b6117808d828e01611462565b9250506101208b013567ffffffffffffffff8111156117a2576117a1611d16565b5b6117ae8d828e01611462565b9150509295989b9194979a5092959850565b6117c981611ae0565b82525050565b6117d881611af2565b82525050565b6117e781611b3b565b82525050565b60006117f8826119f7565b6118028185611a02565b9350611812818560208601611b5c565b61181b81611d20565b840191505092915050565b6000611833601c83611a02565b915061183e82611d31565b602082019050919050565b6000611856601983611a02565b915061186182611d5a565b602082019050919050565b6000611879601e83611a02565b915061188482611d83565b602082019050919050565b61189881611b31565b82525050565b60006020820190506118b360008301846117c0565b92915050565b60006020820190506118ce60008301846117cf565b92915050565b60006040820190506118e960008301856117de565b81810360208301526118fb81846117ed565b90509392505050565b6000602082019050818103600083015261191e81846117ed565b905092915050565b6000602082019050818103600083015261193f81611826565b9050919050565b6000602082019050818103600083015261195f81611849565b9050919050565b6000602082019050818103600083015261197f8161186c565b9050919050565b600060208201905061199b600083018461188f565b92915050565b60006119ab6119bc565b90506119b78282611bc1565b919050565b6000604051905090565b600067ffffffffffffffff8211156119e1576119e0611cdd565b5b6119ea82611d20565b9050602081019050919050565b600081519050919050565b600082825260208201905092915050565b6000611a1e82611b31565b9150611a2983611b31565b9250827fffffffffffffffffffffffffffffffffffffffffffffffffffffffffffffffff03821115611a5e57611a5d611bf2565b5b828201905092915050565b6000611a7482611b31565b9150611a7f83611b31565b925082611a8f57611a8e611c21565b5b828204905092915050565b6000611aa582611b31565b9150611ab083611b31565b925082821015611ac357611ac2611bf2565b5b828203905092915050565b6000611ad982611b11565b9050919050565b6000611aeb82611b11565b9050919050565b60008115159050919050565b6000819050611b0c82611dac565b919050565b600073ffffffffffffffffffffffffffffffffffffffff82169050919050565b6000819050919050565b6000611b4682611afe565b9050919050565b82818337600083830152505050565b60005b83811015611b7a578082015181840152602081019050611b5f565b83811115611b89576000848401525b50505050565b60006002820490506001821680611ba757607f821691505b60208210811415611bbb57611bba611c7f565b5b50919050565b611bca82611d20565b810181811067ffffffffffffffff82111715611be957611be8611cdd565b5b80604052505050565b7f4e487b7100000000000000000000000000000000000000000000000000000000600052601160045260246000fd5b7f4e487b7100000000000000000000000000000000000000000000000000000000600052601260045260246000fd5b7f4e487b7100000000000000000000000000000000000000000000000000000000600052602160045260246000fd5b7f4e487b7100000000000000000000000000000000000000000000000000000000600052602260045260246000fd5b7f4e487b7100000000000000000000000000000000000000000000000000000000600052603260045260246000fd5b7f4e487b7100000000000000000000000000000000000000000000000000000000600052604160045260246000fd5b600080fd5b600080fd5b600080fd5b600080fd5b6000601f19601f8301169050919050565b7f63616c6c6572206973206e6f742061206469737472696275746f722e00000000600082015250565b7f63616c6c6572206973206e6f7420612070726f64756365722e00000000000000600082015250565b7f63616c6c6572206973206e6f742074686520746f6b656e206f776e65722e0000600082015250565b60058110611dbd57611dbc611c50565b5b50565b611dc981611ace565b8114611dd457600080fd5b50565b60058110611de457600080fd5b50565b611df081611b31565b8114611dfb57600080fd5b5056fea2646970667358221220fc64eb0db91abb1470c3d51dfb691eeb456dfd3290f91582579548430c36a04564736f6c63430008070033",
					"opcodes": "PUSH1 0x80 PUSH1 0x40 MSTORE CALLVALUE DUP1 ISZERO PUSH3 0x11 JUMPI PUSH1 0x0 DUP1 REVERT JUMPDEST POP PUSH1 0x40 MLOAD PUSH3 0x22C9 CODESIZE SUB DUP1 PUSH3 0x22C9 DUP4 CODECOPY DUP2 DUP2 ADD PUSH1 0x40 MSTORE DUP2 ADD SWAP1 PUSH3 0x37 SWAP2 SWAP1 PUSH3 0x243 JUMP JUMPDEST DUP3 PUSH1 0x0 SWAP1 DUP1 MLOAD SWAP1 PUSH1 0x20 ADD SWAP1 PUSH3 0x4F SWAP3 SWAP2 SWAP1 PUSH3 0xFE JUMP JUMPDEST POP DUP2 PUSH1 0x1 SWAP1 DUP1 MLOAD SWAP1 PUSH1 0x20 ADD SWAP1 PUSH3 0x68 SWAP3 SWAP2 SWAP1 PUSH3 0xFE JUMP JUMPDEST POP DUP1 PUSH1 0x3 DUP2 SWAP1 SSTORE POP CALLER PUSH1 0x2 PUSH1 0x0 PUSH2 0x100 EXP DUP2 SLOAD DUP2 PUSH20 0xFFFFFFFFFFFFFFFFFFFFFFFFFFFFFFFFFFFFFFFF MUL NOT AND SWAP1 DUP4 PUSH20 0xFFFFFFFFFFFFFFFFFFFFFFFFFFFFFFFFFFFFFFFF AND MUL OR SWAP1 SSTORE POP DUP1 PUSH1 0x4 PUSH1 0x0 CALLER PUSH20 0xFFFFFFFFFFFFFFFFFFFFFFFFFFFFFFFFFFFFFFFF AND PUSH20 0xFFFFFFFFFFFFFFFFFFFFFFFFFFFFFFFFFFFFFFFF AND DUP2 MSTORE PUSH1 0x20 ADD SWAP1 DUP2 MSTORE PUSH1 0x20 ADD PUSH1 0x0 KECCAK256 DUP2 SWAP1 SSTORE POP POP POP POP PUSH3 0x485 JUMP JUMPDEST DUP3 DUP1 SLOAD PUSH3 0x10C SWAP1 PUSH3 0x37C JUMP JUMPDEST SWAP1 PUSH1 0x0 MSTORE PUSH1 0x20 PUSH1 0x0 KECCAK256 SWAP1 PUSH1 0x1F ADD PUSH1 0x20 SWAP1 DIV DUP2 ADD SWAP3 DUP3 PUSH3 0x130 JUMPI PUSH1 0x0 DUP6 SSTORE PUSH3 0x17C JUMP JUMPDEST DUP3 PUSH1 0x1F LT PUSH3 0x14B JUMPI DUP1 MLOAD PUSH1 0xFF NOT AND DUP4 DUP1 ADD OR DUP6 SSTORE PUSH3 0x17C JUMP JUMPDEST DUP3 DUP1 ADD PUSH1 0x1 ADD DUP6 SSTORE DUP3 ISZERO PUSH3 0x17C JUMPI SWAP2 DUP3 ADD JUMPDEST DUP3 DUP2 GT ISZERO PUSH3 0x17B JUMPI DUP3 MLOAD DUP3 SSTORE SWAP2 PUSH1 0x20 ADD SWAP2 SWAP1 PUSH1 0x1 ADD SWAP1 PUSH3 0x15E JUMP JUMPDEST JUMPDEST POP SWAP1 POP PUSH3 0x18B SWAP2 SWAP1 PUSH3 0x18F JUMP JUMPDEST POP SWAP1 JUMP JUMPDEST JUMPDEST DUP1 DUP3 GT ISZERO PUSH3 0x1AA JUMPI PUSH1 0x0 DUP2 PUSH1 0x0 SWAP1 SSTORE POP PUSH1 0x1 ADD PUSH3 0x190 JUMP JUMPDEST POP SWAP1 JUMP JUMPDEST PUSH1 0x0 PUSH3 0x1C5 PUSH3 0x1BF DUP5 PUSH3 0x306 JUMP JUMPDEST PUSH3 0x2DD JUMP JUMPDEST SWAP1 POP DUP3 DUP2 MSTORE PUSH1 0x20 DUP2 ADD DUP5 DUP5 DUP5 ADD GT ISZERO PUSH3 0x1E4 JUMPI PUSH3 0x1E3 PUSH3 0x44B JUMP JUMPDEST JUMPDEST PUSH3 0x1F1 DUP5 DUP3 DUP6 PUSH3 0x346 JUMP JUMPDEST POP SWAP4 SWAP3 POP POP POP JUMP JUMPDEST PUSH1 0x0 DUP3 PUSH1 0x1F DUP4 ADD SLT PUSH3 0x211 JUMPI PUSH3 0x210 PUSH3 0x446 JUMP JUMPDEST JUMPDEST DUP2 MLOAD PUSH3 0x223 DUP5 DUP3 PUSH1 0x20 DUP7 ADD PUSH3 0x1AE JUMP JUMPDEST SWAP2 POP POP SWAP3 SWAP2 POP POP JUMP JUMPDEST PUSH1 0x0 DUP2 MLOAD SWAP1 POP PUSH3 0x23D DUP2 PUSH3 0x46B JUMP JUMPDEST SWAP3 SWAP2 POP POP JUMP JUMPDEST PUSH1 0x0 DUP1 PUSH1 0x0 PUSH1 0x60 DUP5 DUP7 SUB SLT ISZERO PUSH3 0x25F JUMPI PUSH3 0x25E PUSH3 0x455 JUMP JUMPDEST JUMPDEST PUSH1 0x0 DUP5 ADD MLOAD PUSH8 0xFFFFFFFFFFFFFFFF DUP2 GT ISZERO PUSH3 0x280 JUMPI PUSH3 0x27F PUSH3 0x450 JUMP JUMPDEST JUMPDEST PUSH3 0x28E DUP7 DUP3 DUP8 ADD PUSH3 0x1F9 JUMP JUMPDEST SWAP4 POP POP PUSH1 0x20 DUP5 ADD MLOAD PUSH8 0xFFFFFFFFFFFFFFFF DUP2 GT ISZERO PUSH3 0x2B2 JUMPI PUSH3 0x2B1 PUSH3 0x450 JUMP JUMPDEST JUMPDEST PUSH3 0x2C0 DUP7 DUP3 DUP8 ADD PUSH3 0x1F9 JUMP JUMPDEST SWAP3 POP POP PUSH1 0x40 PUSH3 0x2D3 DUP7 DUP3 DUP8 ADD PUSH3 0x22C JUMP JUMPDEST SWAP2 POP POP SWAP3 POP SWAP3 POP SWAP3 JUMP JUMPDEST PUSH1 0x0 PUSH3 0x2E9 PUSH3 0x2FC JUMP JUMPDEST SWAP1 POP PUSH3 0x2F7 DUP3 DUP3 PUSH3 0x3B2 JUMP JUMPDEST SWAP2 SWAP1 POP JUMP JUMPDEST PUSH1 0x0 PUSH1 0x40 MLOAD SWAP1 POP SWAP1 JUMP JUMPDEST PUSH1 0x0 PUSH8 0xFFFFFFFFFFFFFFFF DUP3 GT ISZERO PUSH3 0x324 JUMPI PUSH3 0x323 PUSH3 0x417 JUMP JUMPDEST JUMPDEST PUSH3 0x32F DUP3 PUSH3 0x45A JUMP JUMPDEST SWAP1 POP PUSH1 0x20 DUP2 ADD SWAP1 POP SWAP2 SWAP1 POP JUMP JUMPDEST PUSH1 0x0 DUP2 SWAP1 POP SWAP2 SWAP1 POP JUMP JUMPDEST PUSH1 0x0 JUMPDEST DUP4 DUP2 LT ISZERO PUSH3 0x366 JUMPI DUP1 DUP3 ADD MLOAD DUP2 DUP5 ADD MSTORE PUSH1 0x20 DUP2 ADD SWAP1 POP PUSH3 0x349 JUMP JUMPDEST DUP4 DUP2 GT ISZERO PUSH3 0x376 JUMPI PUSH1 0x0 DUP5 DUP5 ADD MSTORE JUMPDEST POP POP POP POP JUMP JUMPDEST PUSH1 0x0 PUSH1 0x2 DUP3 DIV SWAP1 POP PUSH1 0x1 DUP3 AND DUP1 PUSH3 0x395 JUMPI PUSH1 0x7F DUP3 AND SWAP2 POP JUMPDEST PUSH1 0x20 DUP3 LT DUP2 EQ ISZERO PUSH3 0x3AC JUMPI PUSH3 0x3AB PUSH3 0x3E8 JUMP JUMPDEST JUMPDEST POP SWAP2 SWAP1 POP JUMP JUMPDEST PUSH3 0x3BD DUP3 PUSH3 0x45A JUMP JUMPDEST DUP2 ADD DUP2 DUP2 LT PUSH8 0xFFFFFFFFFFFFFFFF DUP3 GT OR ISZERO PUSH3 0x3DF JUMPI PUSH3 0x3DE PUSH3 0x417 JUMP JUMPDEST JUMPDEST DUP1 PUSH1 0x40 MSTORE POP POP POP JUMP JUMPDEST PUSH32 0x4E487B7100000000000000000000000000000000000000000000000000000000 PUSH1 0x0 MSTORE PUSH1 0x22 PUSH1 0x4 MSTORE PUSH1 0x24 PUSH1 0x0 REVERT JUMPDEST PUSH32 0x4E487B7100000000000000000000000000000000000000000000000000000000 PUSH1 0x0 MSTORE PUSH1 0x41 PUSH1 0x4 MSTORE PUSH1 0x24 PUSH1 0x0 REVERT JUMPDEST PUSH1 0x0 DUP1 REVERT JUMPDEST PUSH1 0x0 DUP1 REVERT JUMPDEST PUSH1 0x0 DUP1 REVERT JUMPDEST PUSH1 0x0 DUP1 REVERT JUMPDEST PUSH1 0x0 PUSH1 0x1F NOT PUSH1 0x1F DUP4 ADD AND SWAP1 POP SWAP2 SWAP1 POP JUMP JUMPDEST PUSH3 0x476 DUP2 PUSH3 0x33C JUMP JUMPDEST DUP2 EQ PUSH3 0x482 JUMPI PUSH1 0x0 DUP1 REVERT JUMPDEST POP JUMP JUMPDEST PUSH2 0x1E34 DUP1 PUSH3 0x495 PUSH1 0x0 CODECOPY PUSH1 0x0 RETURN INVALID PUSH1 0x80 PUSH1 0x40 MSTORE PUSH1 0x4 CALLDATASIZE LT PUSH2 0xC2 JUMPI PUSH1 0x0 CALLDATALOAD PUSH1 0xE0 SHR DUP1 PUSH4 0xA0712D68 GT PUSH2 0x7F JUMPI DUP1 PUSH4 0xB292ABF1 GT PUSH2 0x59 JUMPI DUP1 PUSH4 0xB292ABF1 EQ PUSH2 0x233 JUMPI DUP1 PUSH4 0xCD0C5896 EQ PUSH2 0x271 JUMPI DUP1 PUSH4 0xEBC9368F EQ PUSH2 0x2AE JUMPI DUP1 PUSH4 0xEEDC966A EQ PUSH2 0x2D7 JUMPI PUSH2 0xC2 JUMP JUMPDEST DUP1 PUSH4 0xA0712D68 EQ PUSH2 0x1D5 JUMPI DUP1 PUSH4 0xA3E67610 EQ PUSH2 0x1FE JUMPI DUP1 PUSH4 0xA4821719 EQ PUSH2 0x229 JUMPI PUSH2 0xC2 JUMP JUMPDEST DUP1 PUSH4 0x6FDDE03 EQ PUSH2 0xC7 JUMPI DUP1 PUSH4 0x40932FC2 EQ PUSH2 0xF2 JUMPI DUP1 PUSH4 0x561E0E98 EQ PUSH2 0x11B JUMPI DUP1 PUSH4 0x68CDAFE6 EQ PUSH2 0x144 JUMPI DUP1 PUSH4 0x95D89B41 EQ PUSH2 0x181 JUMPI DUP1 PUSH4 0x9DC29FAC EQ PUSH2 0x1AC JUMPI JUMPDEST PUSH1 0x0 DUP1 REVERT JUMPDEST CALLVALUE DUP1 ISZERO PUSH2 0xD3 JUMPI PUSH1 0x0 DUP1 REVERT JUMPDEST POP PUSH2 0xDC PUSH2 0x314 JUMP JUMPDEST PUSH1 0x40 MLOAD PUSH2 0xE9 SWAP2 SWAP1 PUSH2 0x1904 JUMP JUMPDEST PUSH1 0x40 MLOAD DUP1 SWAP2 SUB SWAP1 RETURN JUMPDEST CALLVALUE DUP1 ISZERO PUSH2 0xFE JUMPI PUSH1 0x0 DUP1 REVERT JUMPDEST POP PUSH2 0x119 PUSH1 0x4 DUP1 CALLDATASIZE SUB DUP2 ADD SWAP1 PUSH2 0x114 SWAP2 SWAP1 PUSH2 0x14D2 JUMP JUMPDEST PUSH2 0x3A2 JUMP JUMPDEST STOP JUMPDEST CALLVALUE DUP1 ISZERO PUSH2 0x127 JUMPI PUSH1 0x0 DUP1 REVERT JUMPDEST POP PUSH2 0x142 PUSH1 0x4 DUP1 CALLDATASIZE SUB DUP2 ADD SWAP1 PUSH2 0x13D SWAP2 SWAP1 PUSH2 0x161D JUMP JUMPDEST PUSH2 0x5D8 JUMP JUMPDEST STOP JUMPDEST CALLVALUE DUP1 ISZERO PUSH2 0x150 JUMPI PUSH1 0x0 DUP1 REVERT JUMPDEST POP PUSH2 0x16B PUSH1 0x4 DUP1 CALLDATASIZE SUB DUP2 ADD SWAP1 PUSH2 0x166 SWAP2 SWAP1 PUSH2 0x1541 JUMP JUMPDEST PUSH2 0x924 JUMP JUMPDEST PUSH1 0x40 MLOAD PUSH2 0x178 SWAP2 SWAP1 PUSH2 0x18B9 JUMP JUMPDEST PUSH1 0x40 MLOAD DUP1 SWAP2 SUB SWAP1 RETURN JUMPDEST CALLVALUE DUP1 ISZERO PUSH2 0x18D JUMPI PUSH1 0x0 DUP1 REVERT JUMPDEST POP PUSH2 0x196 PUSH2 0xA62 JUMP JUMPDEST PUSH1 0x40 MLOAD PUSH2 0x1A3 SWAP2 SWAP1 PUSH2 0x1904 JUMP JUMPDEST PUSH1 0x40 MLOAD DUP1 SWAP2 SUB SWAP1 RETURN JUMPDEST CALLVALUE DUP1 ISZERO PUSH2 0x1B8 JUMPI PUSH1 0x0 DUP1 REVERT JUMPDEST POP PUSH2 0x1D3 PUSH1 0x4 DUP1 CALLDATASIZE SUB DUP2 ADD SWAP1 PUSH2 0x1CE SWAP2 SWAP1 PUSH2 0x1541 JUMP JUMPDEST PUSH2 0xAF0 JUMP JUMPDEST STOP JUMPDEST CALLVALUE DUP1 ISZERO PUSH2 0x1E1 JUMPI PUSH1 0x0 DUP1 REVERT JUMPDEST POP PUSH2 0x1FC PUSH1 0x4 DUP1 CALLDATASIZE SUB DUP2 ADD SWAP1 PUSH2 0x1F7 SWAP2 SWAP1 PUSH2 0x1581 JUMP JUMPDEST PUSH2 0xC79 JUMP JUMPDEST STOP JUMPDEST CALLVALUE DUP1 ISZERO PUSH2 0x20A JUMPI PUSH1 0x0 DUP1 REVERT JUMPDEST POP PUSH2 0x213 PUSH2 0xD7B JUMP JUMPDEST PUSH1 0x40 MLOAD PUSH2 0x220 SWAP2 SWAP1 PUSH2 0x189E JUMP JUMPDEST PUSH1 0x40 MLOAD DUP1 SWAP2 SUB SWAP1 RETURN JUMPDEST PUSH2 0x231 PUSH2 0xDA1 JUMP JUMPDEST STOP JUMPDEST CALLVALUE DUP1 ISZERO PUSH2 0x23F JUMPI PUSH1 0x0 DUP1 REVERT JUMPDEST POP PUSH2 0x25A PUSH1 0x4 DUP1 CALLDATASIZE SUB DUP2 ADD SWAP1 PUSH2 0x255 SWAP2 SWAP1 PUSH2 0x14A5 JUMP JUMPDEST PUSH2 0xEF9 JUMP JUMPDEST PUSH1 0x40 MLOAD PUSH2 0x268 SWAP3 SWAP2 SWAP1 PUSH2 0x18D4 JUMP JUMPDEST PUSH1 0x40 MLOAD DUP1 SWAP2 SUB SWAP1 RETURN JUMPDEST CALLVALUE DUP1 ISZERO PUSH2 0x27D JUMPI PUSH1 0x0 DUP1 REVERT JUMPDEST POP PUSH2 0x298 PUSH1 0x4 DUP1 CALLDATASIZE SUB DUP2 ADD SWAP1 PUSH2 0x293 SWAP2 SWAP1 PUSH2 0x14A5 JUMP JUMPDEST PUSH2 0x1021 JUMP JUMPDEST PUSH1 0x40 MLOAD PUSH2 0x2A5 SWAP2 SWAP1 PUSH2 0x1986 JUMP JUMPDEST PUSH1 0x40 MLOAD DUP1 SWAP2 SUB SWAP1 RETURN JUMPDEST CALLVALUE DUP1 ISZERO PUSH2 0x2BA JUMPI PUSH1 0x0 DUP1 REVERT JUMPDEST POP PUSH2 0x2D5 PUSH1 0x4 DUP1 CALLDATASIZE SUB DUP2 ADD SWAP1 PUSH2 0x2D0 SWAP2 SWAP1 PUSH2 0x15AE JUMP JUMPDEST PUSH2 0x1042 JUMP JUMPDEST STOP JUMPDEST CALLVALUE DUP1 ISZERO PUSH2 0x2E3 JUMPI PUSH1 0x0 DUP1 REVERT JUMPDEST POP PUSH2 0x2FE PUSH1 0x4 DUP1 CALLDATASIZE SUB DUP2 ADD SWAP1 PUSH2 0x2F9 SWAP2 SWAP1 PUSH2 0x14A5 JUMP JUMPDEST PUSH2 0x130A JUMP JUMPDEST PUSH1 0x40 MLOAD PUSH2 0x30B SWAP2 SWAP1 PUSH2 0x1986 JUMP JUMPDEST PUSH1 0x40 MLOAD DUP1 SWAP2 SUB SWAP1 RETURN JUMPDEST PUSH1 0x0 DUP1 SLOAD PUSH2 0x321 SWAP1 PUSH2 0x1B8F JUMP JUMPDEST DUP1 PUSH1 0x1F ADD PUSH1 0x20 DUP1 SWAP2 DIV MUL PUSH1 0x20 ADD PUSH1 0x40 MLOAD SWAP1 DUP2 ADD PUSH1 0x40 MSTORE DUP1 SWAP3 SWAP2 SWAP1 DUP2 DUP2 MSTORE PUSH1 0x20 ADD DUP3 DUP1 SLOAD PUSH2 0x34D SWAP1 PUSH2 0x1B8F JUMP JUMPDEST DUP1 ISZERO PUSH2 0x39A JUMPI DUP1 PUSH1 0x1F LT PUSH2 0x36F JUMPI PUSH2 0x100 DUP1 DUP4 SLOAD DIV MUL DUP4 MSTORE SWAP2 PUSH1 0x20 ADD SWAP2 PUSH2 0x39A JUMP JUMPDEST DUP3 ADD SWAP2 SWAP1 PUSH1 0x0 MSTORE PUSH1 0x20 PUSH1 0x0 KECCAK256 SWAP1 JUMPDEST DUP2 SLOAD DUP2 MSTORE SWAP1 PUSH1 0x1 ADD SWAP1 PUSH1 0x20 ADD DUP1 DUP4 GT PUSH2 0x37D JUMPI DUP3 SWAP1 SUB PUSH1 0x1F AND DUP3 ADD SWAP2 JUMPDEST POP POP POP POP POP DUP2 JUMP JUMPDEST PUSH1 0x0 PUSH1 0x5 PUSH1 0x0 DUP6 PUSH20 0xFFFFFFFFFFFFFFFFFFFFFFFFFFFFFFFFFFFFFFFF AND PUSH20 0xFFFFFFFFFFFFFFFFFFFFFFFFFFFFFFFFFFFFFFFF AND DUP2 MSTORE PUSH1 0x20 ADD SWAP1 DUP2 MSTORE PUSH1 0x20 ADD PUSH1 0x0 KECCAK256 PUSH1 0x40 MLOAD DUP1 PUSH1 0x60 ADD PUSH1 0x40 MSTORE SWAP1 DUP2 PUSH1 0x0 DUP3 ADD PUSH1 0x0 SWAP1 SLOAD SWAP1 PUSH2 0x100 EXP SWAP1 DIV PUSH1 0xFF AND PUSH1 0x4 DUP2 GT ISZERO PUSH2 0x413 JUMPI PUSH2 0x412 PUSH2 0x1C50 JUMP JUMPDEST JUMPDEST PUSH1 0x4 DUP2 GT ISZERO PUSH2 0x425 JUMPI PUSH2 0x424 PUSH2 0x1C50 JUMP JUMPDEST JUMPDEST DUP2 MSTORE PUSH1 0x20 ADD PUSH1 0x1 DUP3 ADD DUP1 SLOAD PUSH2 0x439 SWAP1 PUSH2 0x1B8F JUMP JUMPDEST DUP1 PUSH1 0x1F ADD PUSH1 0x20 DUP1 SWAP2 DIV MUL PUSH1 0x20 ADD PUSH1 0x40 MLOAD SWAP1 DUP2 ADD PUSH1 0x40 MSTORE DUP1 SWAP3 SWAP2 SWAP1 DUP2 DUP2 MSTORE PUSH1 0x20 ADD DUP3 DUP1 SLOAD PUSH2 0x465 SWAP1 PUSH2 0x1B8F JUMP JUMPDEST DUP1 ISZERO PUSH2 0x4B2 JUMPI DUP1 PUSH1 0x1F LT PUSH2 0x487 JUMPI PUSH2 0x100 DUP1 DUP4 SLOAD DIV MUL DUP4 MSTORE SWAP2 PUSH1 0x20 ADD SWAP2 PUSH2 0x4B2 JUMP JUMPDEST DUP3 ADD SWAP2 SWAP1 PUSH1 0x0 MSTORE PUSH1 0x20 PUSH1 0x0 KECCAK256 SWAP1 JUMPDEST DUP2 SLOAD DUP2 MSTORE SWAP1 PUSH1 0x1 ADD SWAP1 PUSH1 0x20 ADD DUP1 DUP4 GT PUSH2 0x495 JUMPI DUP3 SWAP1 SUB PUSH1 0x1F AND DUP3 ADD SWAP2 JUMPDEST POP POP POP POP POP DUP2 MSTORE PUSH1 0x20 ADD PUSH1 0x2 DUP3 ADD PUSH1 0x0 SWAP1 SLOAD SWAP1 PUSH2 0x100 EXP SWAP1 DIV PUSH1 0xFF AND ISZERO ISZERO ISZERO ISZERO DUP2 MSTORE POP POP SWAP1 POP DUP3 DUP2 PUSH1 0x0 ADD SWAP1 PUSH1 0x4 DUP2 GT ISZERO PUSH2 0x4F0 JUMPI PUSH2 0x4EF PUSH2 0x1C50 JUMP JUMPDEST JUMPDEST SWAP1 DUP2 PUSH1 0x4 DUP2 GT ISZERO PUSH2 0x504 JUMPI PUSH2 0x503 PUSH2 0x1C50 JUMP JUMPDEST JUMPDEST DUP2 MSTORE POP POP DUP2 DUP2 PUSH1 0x20 ADD DUP2 SWAP1 MSTORE POP PUSH1 0x1 DUP2 PUSH1 0x40 ADD SWAP1 ISZERO ISZERO SWAP1 DUP2 ISZERO ISZERO DUP2 MSTORE POP POP DUP1 PUSH1 0x5 PUSH1 0x0 DUP7 PUSH20 0xFFFFFFFFFFFFFFFFFFFFFFFFFFFFFFFFFFFFFFFF AND PUSH20 0xFFFFFFFFFFFFFFFFFFFFFFFFFFFFFFFFFFFFFFFF AND DUP2 MSTORE PUSH1 0x20 ADD SWAP1 DUP2 MSTORE PUSH1 0x20 ADD PUSH1 0x0 KECCAK256 PUSH1 0x0 DUP3 ADD MLOAD DUP2 PUSH1 0x0 ADD PUSH1 0x0 PUSH2 0x100 EXP DUP2 SLOAD DUP2 PUSH1 0xFF MUL NOT AND SWAP1 DUP4 PUSH1 0x4 DUP2 GT ISZERO PUSH2 0x58D JUMPI PUSH2 0x58C PUSH2 0x1C50 JUMP JUMPDEST JUMPDEST MUL OR SWAP1 SSTORE POP PUSH1 0x20 DUP3 ADD MLOAD DUP2 PUSH1 0x1 ADD SWAP1 DUP1 MLOAD SWAP1 PUSH1 0x20 ADD SWAP1 PUSH2 0x5AE SWAP3 SWAP2 SWAP1 PUSH2 0x1353 JUMP JUMPDEST POP PUSH1 0x40 DUP3 ADD MLOAD DUP2 PUSH1 0x2 ADD PUSH1 0x0 PUSH2 0x100 EXP DUP2 SLOAD DUP2 PUSH1 0xFF MUL NOT AND SWAP1 DUP4 ISZERO ISZERO MUL OR SWAP1 SSTORE POP SWAP1 POP POP POP POP POP POP JUMP JUMPDEST PUSH1 0x0 PUSH1 0x4 DUP2 GT ISZERO PUSH2 0x5EC JUMPI PUSH2 0x5EB PUSH2 0x1C50 JUMP JUMPDEST JUMPDEST PUSH1 0x5 PUSH1 0x0 CALLER PUSH20 0xFFFFFFFFFFFFFFFFFFFFFFFFFFFFFFFFFFFFFFFF AND PUSH20 0xFFFFFFFFFFFFFFFFFFFFFFFFFFFFFFFFFFFFFFFF AND DUP2 MSTORE PUSH1 0x20 ADD SWAP1 DUP2 MSTORE PUSH1 0x20 ADD PUSH1 0x0 KECCAK256 PUSH1 0x0 ADD PUSH1 0x0 SWAP1 SLOAD SWAP1 PUSH2 0x100 EXP SWAP1 DIV PUSH1 0xFF AND PUSH1 0x4 DUP2 GT ISZERO PUSH2 0x64E JUMPI PUSH2 0x64D PUSH2 0x1C50 JUMP JUMPDEST JUMPDEST EQ PUSH2 0x68E JUMPI PUSH1 0x40 MLOAD PUSH32 0x8C379A000000000000000000000000000000000000000000000000000000000 DUP2 MSTORE PUSH1 0x4 ADD PUSH2 0x685 SWAP1 PUSH2 0x1946 JUMP JUMPDEST PUSH1 0x40 MLOAD DUP1 SWAP2 SUB SWAP1 REVERT JUMPDEST PUSH1 0x0 PUSH1 0x6 PUSH1 0x0 DUP13 DUP2 MSTORE PUSH1 0x20 ADD SWAP1 DUP2 MSTORE PUSH1 0x20 ADD PUSH1 0x0 KECCAK256 SWAP1 POP DUP11 DUP2 PUSH1 0x0 ADD DUP2 SWAP1 SSTORE POP CALLER DUP2 PUSH1 0x1 ADD PUSH1 0x0 PUSH2 0x100 EXP DUP2 SLOAD DUP2 PUSH20 0xFFFFFFFFFFFFFFFFFFFFFFFFFFFFFFFFFFFFFFFF MUL NOT AND SWAP1 DUP4 PUSH20 0xFFFFFFFFFFFFFFFFFFFFFFFFFFFFFFFFFFFFFFFF AND MUL OR SWAP1 SSTORE POP CALLER DUP2 PUSH1 0x2 ADD PUSH1 0x0 PUSH2 0x100 EXP DUP2 SLOAD DUP2 PUSH20 0xFFFFFFFFFFFFFFFFFFFFFFFFFFFFFFFFFFFFFFFF MUL NOT AND SWAP1 DUP4 PUSH20 0xFFFFFFFFFFFFFFFFFFFFFFFFFFFFFFFFFFFFFFFF AND MUL OR SWAP1 SSTORE POP DUP10 DUP2 PUSH1 0x3 ADD PUSH1 0x0 PUSH1 0x4 DUP2 LT PUSH2 0x74C JUMPI PUSH2 0x74B PUSH2 0x1CAE JUMP JUMPDEST JUMPDEST ADD DUP2 SWAP1 SSTORE POP PUSH1 0x0 DUP2 PUSH1 0x7 ADD PUSH1 0x0 PUSH2 0x100 EXP DUP2 SLOAD DUP2 PUSH1 0xFF MUL NOT AND SWAP1 DUP4 PUSH1 0x5 DUP2 GT ISZERO PUSH2 0x779 JUMPI PUSH2 0x778 PUSH2 0x1C50 JUMP JUMPDEST JUMPDEST MUL OR SWAP1 SSTORE POP DUP9 DUP2 PUSH1 0x8 ADD DUP2 SWAP1 SSTORE POP PUSH1 0x0 DUP2 PUSH1 0x9 ADD PUSH1 0x0 PUSH2 0x100 EXP DUP2 SLOAD DUP2 PUSH20 0xFFFFFFFFFFFFFFFFFFFFFFFFFFFFFFFFFFFFFFFF MUL NOT AND SWAP1 DUP4 PUSH20 0xFFFFFFFFFFFFFFFFFFFFFFFFFFFFFFFFFFFFFFFF AND MUL OR SWAP1 SSTORE POP PUSH1 0x0 DUP2 PUSH1 0xA ADD PUSH1 0x0 PUSH2 0x100 EXP DUP2 SLOAD DUP2 PUSH20 0xFFFFFFFFFFFFFFFFFFFFFFFFFFFFFFFFFFFFFFFF MUL NOT AND SWAP1 DUP4 PUSH20 0xFFFFFFFFFFFFFFFFFFFFFFFFFFFFFFFFFFFFFFFF AND MUL OR SWAP1 SSTORE POP PUSH1 0x0 DUP2 PUSH1 0xB ADD PUSH1 0x0 PUSH2 0x100 EXP DUP2 SLOAD DUP2 PUSH20 0xFFFFFFFFFFFFFFFFFFFFFFFFFFFFFFFFFFFFFFFF MUL NOT AND SWAP1 DUP4 PUSH20 0xFFFFFFFFFFFFFFFFFFFFFFFFFFFFFFFFFFFFFFFF AND MUL OR SWAP1 SSTORE POP DUP8 DUP2 PUSH1 0xC ADD PUSH1 0x0 ADD SWAP1 DUP1 MLOAD SWAP1 PUSH1 0x20 ADD SWAP1 PUSH2 0x86E SWAP3 SWAP2 SWAP1 PUSH2 0x1353 JUMP JUMPDEST POP DUP7 DUP2 PUSH1 0xC ADD PUSH1 0x1 ADD SWAP1 DUP1 MLOAD SWAP1 PUSH1 0x20 ADD SWAP1 PUSH2 0x88A SWAP3 SWAP2 SWAP1 PUSH2 0x1353 JUMP JUMPDEST POP DUP6 DUP2 PUSH1 0xC ADD PUSH1 0x2 ADD SWAP1 DUP1 MLOAD SWAP1 PUSH1 0x20 ADD SWAP1 PUSH2 0x8A6 SWAP3 SWAP2 SWAP1 PUSH2 0x1353 JUMP JUMPDEST POP DUP5 DUP2 PUSH1 0xC ADD PUSH1 0x3 ADD SWAP1 DUP1 MLOAD SWAP1 PUSH1 0x20 ADD SWAP1 PUSH2 0x8C2 SWAP3 SWAP2 SWAP1 PUSH2 0x1353 JUMP JUMPDEST POP DUP4 DUP2 PUSH1 0xC ADD PUSH1 0x4 ADD SWAP1 DUP1 MLOAD SWAP1 PUSH1 0x20 ADD SWAP1 PUSH2 0x8DE SWAP3 SWAP2 SWAP1 PUSH2 0x1353 JUMP JUMPDEST POP DUP3 DUP2 PUSH1 0xC ADD PUSH1 0x5 ADD SWAP1 DUP1 MLOAD SWAP1 PUSH1 0x20 ADD SWAP1 PUSH2 0x8FA SWAP3 SWAP2 SWAP1 PUSH2 0x1353 JUMP JUMPDEST POP DUP2 DUP2 PUSH1 0xC ADD PUSH1 0x6 ADD SWAP1 DUP1 MLOAD SWAP1 PUSH1 0x20 ADD SWAP1 PUSH2 0x916 SWAP3 SWAP2 SWAP1 PUSH2 0x1353 JUMP JUMPDEST POP POP POP POP POP POP POP POP POP POP POP POP JUMP JUMPDEST PUSH1 0x0 DUP2 PUSH1 0x4 PUSH1 0x0 CALLER PUSH20 0xFFFFFFFFFFFFFFFFFFFFFFFFFFFFFFFFFFFFFFFF AND PUSH20 0xFFFFFFFFFFFFFFFFFFFFFFFFFFFFFFFFFFFFFFFF AND DUP2 MSTORE PUSH1 0x20 ADD SWAP1 DUP2 MSTORE PUSH1 0x20 ADD PUSH1 0x0 KECCAK256 SLOAD LT ISZERO PUSH2 0x972 JUMPI PUSH1 0x0 DUP1 REVERT JUMPDEST PUSH1 0x0 PUSH20 0xFFFFFFFFFFFFFFFFFFFFFFFFFFFFFFFFFFFFFFFF AND DUP4 PUSH20 0xFFFFFFFFFFFFFFFFFFFFFFFFFFFFFFFFFFFFFFFF AND EQ ISZERO PUSH2 0x9AC JUMPI PUSH1 0x0 DUP1 REVERT JUMPDEST DUP2 PUSH1 0x4 PUSH1 0x0 CALLER PUSH20 0xFFFFFFFFFFFFFFFFFFFFFFFFFFFFFFFFFFFFFFFF AND PUSH20 0xFFFFFFFFFFFFFFFFFFFFFFFFFFFFFFFFFFFFFFFF AND DUP2 MSTORE PUSH1 0x20 ADD SWAP1 DUP2 MSTORE PUSH1 0x20 ADD PUSH1 0x0 KECCAK256 PUSH1 0x0 DUP3 DUP3 SLOAD PUSH2 0x9FB SWAP2 SWAP1 PUSH2 0x1A9A JUMP JUMPDEST SWAP3 POP POP DUP2 SWAP1 SSTORE POP DUP2 PUSH1 0x4 PUSH1 0x0 DUP6 PUSH20 0xFFFFFFFFFFFFFFFFFFFFFFFFFFFFFFFFFFFFFFFF AND PUSH20 0xFFFFFFFFFFFFFFFFFFFFFFFFFFFFFFFFFFFFFFFF AND DUP2 MSTORE PUSH1 0x20 ADD SWAP1 DUP2 MSTORE PUSH1 0x20 ADD PUSH1 0x0 KECCAK256 PUSH1 0x0 DUP3 DUP3 SLOAD PUSH2 0xA51 SWAP2 SWAP1 PUSH2 0x1A13 JUMP JUMPDEST SWAP3 POP POP DUP2 SWAP1 SSTORE POP PUSH1 0x1 SWAP1 POP SWAP3 SWAP2 POP POP JUMP JUMPDEST PUSH1 0x1 DUP1 SLOAD PUSH2 0xA6F SWAP1 PUSH2 0x1B8F JUMP JUMPDEST DUP1 PUSH1 0x1F ADD PUSH1 0x20 DUP1 SWAP2 DIV MUL PUSH1 0x20 ADD PUSH1 0x40 MLOAD SWAP1 DUP2 ADD PUSH1 0x40 MSTORE DUP1 SWAP3 SWAP2 SWAP1 DUP2 DUP2 MSTORE PUSH1 0x20 ADD DUP3 DUP1 SLOAD PUSH2 0xA9B SWAP1 PUSH2 0x1B8F JUMP JUMPDEST DUP1 ISZERO PUSH2 0xAE8 JUMPI DUP1 PUSH1 0x1F LT PUSH2 0xABD JUMPI PUSH2 0x100 DUP1 DUP4 SLOAD DIV MUL DUP4 MSTORE SWAP2 PUSH1 0x20 ADD SWAP2 PUSH2 0xAE8 JUMP JUMPDEST DUP3 ADD SWAP2 SWAP1 PUSH1 0x0 MSTORE PUSH1 0x20 PUSH1 0x0 KECCAK256 SWAP1 JUMPDEST DUP2 SLOAD DUP2 MSTORE SWAP1 PUSH1 0x1 ADD SWAP1 PUSH1 0x20 ADD DUP1 DUP4 GT PUSH2 0xACB JUMPI DUP3 SWAP1 SUB PUSH1 0x1F AND DUP3 ADD SWAP2 JUMPDEST POP POP POP POP POP DUP2 JUMP JUMPDEST PUSH1 0x2 PUSH1 0x0 SWAP1 SLOAD SWAP1 PUSH2 0x100 EXP SWAP1 DIV PUSH20 0xFFFFFFFFFFFFFFFFFFFFFFFFFFFFFFFFFFFFFFFF AND PUSH20 0xFFFFFFFFFFFFFFFFFFFFFFFFFFFFFFFFFFFFFFFF AND CALLER PUSH20 0xFFFFFFFFFFFFFFFFFFFFFFFFFFFFFFFFFFFFFFFF AND EQ PUSH2 0xB80 JUMPI PUSH1 0x40 MLOAD PUSH32 0x8C379A000000000000000000000000000000000000000000000000000000000 DUP2 MSTORE PUSH1 0x4 ADD PUSH2 0xB77 SWAP1 PUSH2 0x1966 JUMP JUMPDEST PUSH1 0x40 MLOAD DUP1 SWAP2 SUB SWAP1 REVERT JUMPDEST PUSH1 0x0 PUSH20 0xFFFFFFFFFFFFFFFFFFFFFFFFFFFFFFFFFFFFFFFF AND DUP3 PUSH20 0xFFFFFFFFFFFFFFFFFFFFFFFFFFFFFFFFFFFFFFFF AND EQ ISZERO PUSH2 0xBBA JUMPI PUSH1 0x0 DUP1 REVERT JUMPDEST PUSH1 0x4 PUSH1 0x0 DUP4 PUSH20 0xFFFFFFFFFFFFFFFFFFFFFFFFFFFFFFFFFFFFFFFF AND PUSH20 0xFFFFFFFFFFFFFFFFFFFFFFFFFFFFFFFFFFFFFFFF AND DUP2 MSTORE PUSH1 0x20 ADD SWAP1 DUP2 MSTORE PUSH1 0x20 ADD PUSH1 0x0 KECCAK256 SLOAD DUP2 GT ISZERO PUSH2 0xC06 JUMPI PUSH1 0x0 DUP1 REVERT JUMPDEST DUP1 PUSH1 0x3 PUSH1 0x0 DUP3 DUP3 SLOAD PUSH2 0xC18 SWAP2 SWAP1 PUSH2 0x1A9A JUMP JUMPDEST SWAP3 POP POP DUP2 SWAP1 SSTORE POP DUP1 PUSH1 0x4 PUSH1 0x0 DUP5 PUSH20 0xFFFFFFFFFFFFFFFFFFFFFFFFFFFFFFFFFFFFFFFF AND PUSH20 0xFFFFFFFFFFFFFFFFFFFFFFFFFFFFFFFFFFFFFFFF AND DUP2 MSTORE PUSH1 0x20 ADD SWAP1 DUP2 MSTORE PUSH1 0x20 ADD PUSH1 0x0 KECCAK256 PUSH1 0x0 DUP3 DUP3 SLOAD PUSH2 0xC6E SWAP2 SWAP1 PUSH2 0x1A9A JUMP JUMPDEST SWAP3 POP POP DUP2 SWAP1 SSTORE POP POP POP JUMP JUMPDEST PUSH1 0x2 PUSH1 0x0 SWAP1 SLOAD SWAP1 PUSH2 0x100 EXP SWAP1 DIV PUSH20 0xFFFFFFFFFFFFFFFFFFFFFFFFFFFFFFFFFFFFFFFF AND PUSH20 0xFFFFFFFFFFFFFFFFFFFFFFFFFFFFFFFFFFFFFFFF AND CALLER PUSH20 0xFFFFFFFFFFFFFFFFFFFFFFFFFFFFFFFFFFFFFFFF AND EQ PUSH2 0xD09 JUMPI PUSH1 0x40 MLOAD PUSH32 0x8C379A000000000000000000000000000000000000000000000000000000000 DUP2 MSTORE PUSH1 0x4 ADD PUSH2 0xD00 SWAP1 PUSH2 0x1966 JUMP JUMPDEST PUSH1 0x40 MLOAD DUP1 SWAP2 SUB SWAP1 REVERT JUMPDEST DUP1 PUSH1 0x3 PUSH1 0x0 DUP3 DUP3 SLOAD PUSH2 0xD1B SWAP2 SWAP1 PUSH2 0x1A13 JUMP JUMPDEST SWAP3 POP POP DUP2 SWAP1 SSTORE POP DUP1 PUSH1 0x4 PUSH1 0x0 CALLER PUSH20 0xFFFFFFFFFFFFFFFFFFFFFFFFFFFFFFFFFFFFFFFF AND PUSH20 0xFFFFFFFFFFFFFFFFFFFFFFFFFFFFFFFFFFFFFFFF AND DUP2 MSTORE PUSH1 0x20 ADD SWAP1 DUP2 MSTORE PUSH1 0x20 ADD PUSH1 0x0 KECCAK256 PUSH1 0x0 DUP3 DUP3 SLOAD PUSH2 0xD71 SWAP2 SWAP1 PUSH2 0x1A13 JUMP JUMPDEST SWAP3 POP POP DUP2 SWAP1 SSTORE POP POP JUMP JUMPDEST PUSH1 0x2 PUSH1 0x0 SWAP1 SLOAD SWAP1 PUSH2 0x100 EXP SWAP1 DIV PUSH20 0xFFFFFFFFFFFFFFFFFFFFFFFFFFFFFFFFFFFFFFFF AND DUP2 JUMP JUMPDEST PUSH1 0x0 PUSH1 0x64 CALLVALUE PUSH2 0xDB0 SWAP2 SWAP1 PUSH2 0x1A69 JUMP JUMPDEST SWAP1 POP PUSH1 0x0 CALLVALUE GT PUSH2 0xDBF JUMPI PUSH1 0x0 DUP1 REVERT JUMPDEST PUSH1 0x2 PUSH1 0x0 SWAP1 SLOAD SWAP1 PUSH2 0x100 EXP SWAP1 DIV PUSH20 0xFFFFFFFFFFFFFFFFFFFFFFFFFFFFFFFFFFFFFFFF AND PUSH20 0xFFFFFFFFFFFFFFFFFFFFFFFFFFFFFFFFFFFFFFFF AND PUSH2 0x8FC CALLVALUE SWAP1 DUP2 ISZERO MUL SWAP1 PUSH1 0x40 MLOAD PUSH1 0x0 PUSH1 0x40 MLOAD DUP1 DUP4 SUB DUP2 DUP6 DUP9 DUP9 CALL SWAP4 POP POP POP POP ISZERO DUP1 ISZERO PUSH2 0xE27 JUMPI RETURNDATASIZE PUSH1 0x0 DUP1 RETURNDATACOPY RETURNDATASIZE PUSH1 0x0 REVERT JUMPDEST POP DUP1 PUSH1 0x4 PUSH1 0x0 PUSH1 0x2 PUSH1 0x0 SWAP1 SLOAD SWAP1 PUSH2 0x100 EXP SWAP1 DIV PUSH20 0xFFFFFFFFFFFFFFFFFFFFFFFFFFFFFFFFFFFFFFFF AND PUSH20 0xFFFFFFFFFFFFFFFFFFFFFFFFFFFFFFFFFFFFFFFF AND PUSH20 0xFFFFFFFFFFFFFFFFFFFFFFFFFFFFFFFFFFFFFFFF AND DUP2 MSTORE PUSH1 0x20 ADD SWAP1 DUP2 MSTORE PUSH1 0x20 ADD PUSH1 0x0 KECCAK256 PUSH1 0x0 DUP3 DUP3 SLOAD PUSH2 0xE99 SWAP2 SWAP1 PUSH2 0x1A9A JUMP JUMPDEST SWAP3 POP POP DUP2 SWAP1 SSTORE POP DUP1 PUSH1 0x4 PUSH1 0x0 CALLER PUSH20 0xFFFFFFFFFFFFFFFFFFFFFFFFFFFFFFFFFFFFFFFF AND PUSH20 0xFFFFFFFFFFFFFFFFFFFFFFFFFFFFFFFFFFFFFFFF AND DUP2 MSTORE PUSH1 0x20 ADD SWAP1 DUP2 MSTORE PUSH1 0x20 ADD PUSH1 0x0 KECCAK256 PUSH1 0x0 DUP3 DUP3 SLOAD PUSH2 0xEEF SWAP2 SWAP1 PUSH2 0x1A13 JUMP JUMPDEST SWAP3 POP POP DUP2 SWAP1 SSTORE POP POP JUMP JUMPDEST PUSH1 0x0 PUSH1 0x60 PUSH1 0x5 PUSH1 0x0 DUP5 PUSH20 0xFFFFFFFFFFFFFFFFFFFFFFFFFFFFFFFFFFFFFFFF AND PUSH20 0xFFFFFFFFFFFFFFFFFFFFFFFFFFFFFFFFFFFFFFFF AND DUP2 MSTORE PUSH1 0x20 ADD SWAP1 DUP2 MSTORE PUSH1 0x20 ADD PUSH1 0x0 KECCAK256 PUSH1 0x0 ADD PUSH1 0x0 SWAP1 SLOAD SWAP1 PUSH2 0x100 EXP SWAP1 DIV PUSH1 0xFF AND SWAP2 POP PUSH1 0x5 PUSH1 0x0 DUP5 PUSH20 0xFFFFFFFFFFFFFFFFFFFFFFFFFFFFFFFFFFFFFFFF AND PUSH20 0xFFFFFFFFFFFFFFFFFFFFFFFFFFFFFFFFFFFFFFFF AND DUP2 MSTORE PUSH1 0x20 ADD SWAP1 DUP2 MSTORE PUSH1 0x20 ADD PUSH1 0x0 KECCAK256 PUSH1 0x1 ADD DUP1 SLOAD PUSH2 0xF9C SWAP1 PUSH2 0x1B8F JUMP JUMPDEST DUP1 PUSH1 0x1F ADD PUSH1 0x20 DUP1 SWAP2 DIV MUL PUSH1 0x20 ADD PUSH1 0x40 MLOAD SWAP1 DUP2 ADD PUSH1 0x40 MSTORE DUP1 SWAP3 SWAP2 SWAP1 DUP2 DUP2 MSTORE PUSH1 0x20 ADD DUP3 DUP1 SLOAD PUSH2 0xFC8 SWAP1 PUSH2 0x1B8F JUMP JUMPDEST DUP1 ISZERO PUSH2 0x1015 JUMPI DUP1 PUSH1 0x1F LT PUSH2 0xFEA JUMPI PUSH2 0x100 DUP1 DUP4 SLOAD DIV MUL DUP4 MSTORE SWAP2 PUSH1 0x20 ADD SWAP2 PUSH2 0x1015 JUMP JUMPDEST DUP3 ADD SWAP2 SWAP1 PUSH1 0x0 MSTORE PUSH1 0x20 PUSH1 0x0 KECCAK256 SWAP1 JUMPDEST DUP2 SLOAD DUP2 MSTORE SWAP1 PUSH1 0x1 ADD SWAP1 PUSH1 0x20 ADD DUP1 DUP4 GT PUSH2 0xFF8 JUMPI DUP3 SWAP1 SUB PUSH1 0x1F AND DUP3 ADD SWAP2 JUMPDEST POP POP POP POP POP SWAP1 POP SWAP2 POP SWAP2 JUMP JUMPDEST PUSH1 0x0 DUP2 PUSH20 0xFFFFFFFFFFFFFFFFFFFFFFFFFFFFFFFFFFFFFFFF AND BALANCE SWAP1 POP SWAP2 SWAP1 POP JUMP JUMPDEST PUSH1 0x1 PUSH1 0x4 DUP2 GT ISZERO PUSH2 0x1056 JUMPI PUSH2 0x1055 PUSH2 0x1C50 JUMP JUMPDEST JUMPDEST PUSH1 0x5 PUSH1 0x0 CALLER PUSH20 0xFFFFFFFFFFFFFFFFFFFFFFFFFFFFFFFFFFFFFFFF AND PUSH20 0xFFFFFFFFFFFFFFFFFFFFFFFFFFFFFFFFFFFFFFFF AND DUP2 MSTORE PUSH1 0x20 ADD SWAP1 DUP2 MSTORE PUSH1 0x20 ADD PUSH1 0x0 KECCAK256 PUSH1 0x0 ADD PUSH1 0x0 SWAP1 SLOAD SWAP1 PUSH2 0x100 EXP SWAP1 DIV PUSH1 0xFF AND PUSH1 0x4 DUP2 GT ISZERO PUSH2 0x10B8 JUMPI PUSH2 0x10B7 PUSH2 0x1C50 JUMP JUMPDEST JUMPDEST EQ PUSH2 0x10F8 JUMPI PUSH1 0x40 MLOAD PUSH32 0x8C379A000000000000000000000000000000000000000000000000000000000 DUP2 MSTORE PUSH1 0x4 ADD PUSH2 0x10EF SWAP1 PUSH2 0x1926 JUMP JUMPDEST PUSH1 0x40 MLOAD DUP1 SWAP2 SUB SWAP1 REVERT JUMPDEST PUSH1 0x0 PUSH1 0x6 PUSH1 0x0 DUP6 DUP2 MSTORE PUSH1 0x20 ADD SWAP1 DUP2 MSTORE PUSH1 0x20 ADD PUSH1 0x0 KECCAK256 SWAP1 POP PUSH1 0x0 PUSH1 0x4 PUSH1 0x0 CALLER PUSH20 0xFFFFFFFFFFFFFFFFFFFFFFFFFFFFFFFFFFFFFFFF AND PUSH20 0xFFFFFFFFFFFFFFFFFFFFFFFFFFFFFFFFFFFFFFFF AND DUP2 MSTORE PUSH1 0x20 ADD SWAP1 DUP2 MSTORE PUSH1 0x20 ADD PUSH1 0x0 KECCAK256 SLOAD SWAP1 POP DUP2 PUSH1 0x8 ADD SLOAD DUP2 LT ISZERO PUSH2 0x1164 JUMPI PUSH1 0x0 DUP1 REVERT JUMPDEST PUSH1 0x0 PUSH1 0x5 DUP2 GT ISZERO PUSH2 0x1178 JUMPI PUSH2 0x1177 PUSH2 0x1C50 JUMP JUMPDEST JUMPDEST DUP3 PUSH1 0x7 ADD PUSH1 0x0 SWAP1 SLOAD SWAP1 PUSH2 0x100 EXP SWAP1 DIV PUSH1 0xFF AND PUSH1 0x5 DUP2 GT ISZERO PUSH2 0x119C JUMPI PUSH2 0x119B PUSH2 0x1C50 JUMP JUMPDEST JUMPDEST EQ PUSH2 0x11A6 JUMPI PUSH1 0x0 DUP1 REVERT JUMPDEST DUP4 PUSH1 0x6 PUSH1 0x0 DUP8 DUP2 MSTORE PUSH1 0x20 ADD SWAP1 DUP2 MSTORE PUSH1 0x20 ADD PUSH1 0x0 KECCAK256 PUSH1 0x3 ADD PUSH1 0x1 PUSH1 0x4 DUP2 LT PUSH2 0x11D0 JUMPI PUSH2 0x11CF PUSH2 0x1CAE JUMP JUMPDEST JUMPDEST ADD DUP2 SWAP1 SSTORE POP CALLER PUSH1 0x6 PUSH1 0x0 DUP8 DUP2 MSTORE PUSH1 0x20 ADD SWAP1 DUP2 MSTORE PUSH1 0x20 ADD PUSH1 0x0 KECCAK256 PUSH1 0x9 ADD PUSH1 0x0 PUSH2 0x100 EXP DUP2 SLOAD DUP2 PUSH20 0xFFFFFFFFFFFFFFFFFFFFFFFFFFFFFFFFFFFFFFFF MUL NOT AND SWAP1 DUP4 PUSH20 0xFFFFFFFFFFFFFFFFFFFFFFFFFFFFFFFFFFFFFFFF AND MUL OR SWAP1 SSTORE POP PUSH2 0x126E PUSH1 0x6 PUSH1 0x0 DUP8 DUP2 MSTORE PUSH1 0x20 ADD SWAP1 DUP2 MSTORE PUSH1 0x20 ADD PUSH1 0x0 KECCAK256 PUSH1 0x1 ADD PUSH1 0x0 SWAP1 SLOAD SWAP1 PUSH2 0x100 EXP SWAP1 DIV PUSH20 0xFFFFFFFFFFFFFFFFFFFFFFFFFFFFFFFFFFFFFFFF AND DUP4 PUSH1 0x8 ADD SLOAD PUSH2 0x924 JUMP JUMPDEST POP PUSH1 0x5 PUSH1 0x6 PUSH1 0x0 DUP8 DUP2 MSTORE PUSH1 0x20 ADD SWAP1 DUP2 MSTORE PUSH1 0x20 ADD PUSH1 0x0 KECCAK256 PUSH1 0x7 ADD PUSH1 0x0 PUSH2 0x100 EXP DUP2 SLOAD DUP2 PUSH1 0xFF MUL NOT AND SWAP1 DUP4 PUSH1 0x5 DUP2 GT ISZERO PUSH2 0x12A9 JUMPI PUSH2 0x12A8 PUSH2 0x1C50 JUMP JUMPDEST JUMPDEST MUL OR SWAP1 SSTORE POP CALLER PUSH1 0x6 PUSH1 0x0 DUP8 DUP2 MSTORE PUSH1 0x20 ADD SWAP1 DUP2 MSTORE PUSH1 0x20 ADD PUSH1 0x0 KECCAK256 PUSH1 0x1 ADD PUSH1 0x0 PUSH2 0x100 EXP DUP2 SLOAD DUP2 PUSH20 0xFFFFFFFFFFFFFFFFFFFFFFFFFFFFFFFFFFFFFFFF MUL NOT AND SWAP1 DUP4 PUSH20 0xFFFFFFFFFFFFFFFFFFFFFFFFFFFFFFFFFFFFFFFF AND MUL OR SWAP1 SSTORE POP POP POP POP POP POP JUMP JUMPDEST PUSH1 0x0 PUSH1 0x4 PUSH1 0x0 DUP4 PUSH20 0xFFFFFFFFFFFFFFFFFFFFFFFFFFFFFFFFFFFFFFFF AND PUSH20 0xFFFFFFFFFFFFFFFFFFFFFFFFFFFFFFFFFFFFFFFF AND DUP2 MSTORE PUSH1 0x20 ADD SWAP1 DUP2 MSTORE PUSH1 0x20 ADD PUSH1 0x0 KECCAK256 SLOAD SWAP1 POP SWAP2 SWAP1 POP JUMP JUMPDEST DUP3 DUP1 SLOAD PUSH2 0x135F SWAP1 PUSH2 0x1B8F JUMP JUMPDEST SWAP1 PUSH1 0x0 MSTORE PUSH1 0x20 PUSH1 0x0 KECCAK256 SWAP1 PUSH1 0x1F ADD PUSH1 0x20 SWAP1 DIV DUP2 ADD SWAP3 DUP3 PUSH2 0x1381 JUMPI PUSH1 0x0 DUP6 SSTORE PUSH2 0x13C8 JUMP JUMPDEST DUP3 PUSH1 0x1F LT PUSH2 0x139A JUMPI DUP1 MLOAD PUSH1 0xFF NOT AND DUP4 DUP1 ADD OR DUP6 SSTORE PUSH2 0x13C8 JUMP JUMPDEST DUP3 DUP1 ADD PUSH1 0x1 ADD DUP6 SSTORE DUP3 ISZERO PUSH2 0x13C8 JUMPI SWAP2 DUP3 ADD JUMPDEST DUP3 DUP2 GT ISZERO PUSH2 0x13C7 JUMPI DUP3 MLOAD DUP3 SSTORE SWAP2 PUSH1 0x20 ADD SWAP2 SWAP1 PUSH1 0x1 ADD SWAP1 PUSH2 0x13AC JUMP JUMPDEST JUMPDEST POP SWAP1 POP PUSH2 0x13D5 SWAP2 SWAP1 PUSH2 0x13D9 JUMP JUMPDEST POP SWAP1 JUMP JUMPDEST JUMPDEST DUP1 DUP3 GT ISZERO PUSH2 0x13F2 JUMPI PUSH1 0x0 DUP2 PUSH1 0x0 SWAP1 SSTORE POP PUSH1 0x1 ADD PUSH2 0x13DA JUMP JUMPDEST POP SWAP1 JUMP JUMPDEST PUSH1 0x0 PUSH2 0x1409 PUSH2 0x1404 DUP5 PUSH2 0x19C6 JUMP JUMPDEST PUSH2 0x19A1 JUMP JUMPDEST SWAP1 POP DUP3 DUP2 MSTORE PUSH1 0x20 DUP2 ADD DUP5 DUP5 DUP5 ADD GT ISZERO PUSH2 0x1425 JUMPI PUSH2 0x1424 PUSH2 0x1D11 JUMP JUMPDEST JUMPDEST PUSH2 0x1430 DUP5 DUP3 DUP6 PUSH2 0x1B4D JUMP JUMPDEST POP SWAP4 SWAP3 POP POP POP JUMP JUMPDEST PUSH1 0x0 DUP2 CALLDATALOAD SWAP1 POP PUSH2 0x1447 DUP2 PUSH2 0x1DC0 JUMP JUMPDEST SWAP3 SWAP2 POP POP JUMP JUMPDEST PUSH1 0x0 DUP2 CALLDATALOAD SWAP1 POP PUSH2 0x145C DUP2 PUSH2 0x1DD7 JUMP JUMPDEST SWAP3 SWAP2 POP POP JUMP JUMPDEST PUSH1 0x0 DUP3 PUSH1 0x1F DUP4 ADD SLT PUSH2 0x1477 JUMPI PUSH2 0x1476 PUSH2 0x1D0C JUMP JUMPDEST JUMPDEST DUP2 CALLDATALOAD PUSH2 0x1487 DUP5 DUP3 PUSH1 0x20 DUP7 ADD PUSH2 0x13F6 JUMP JUMPDEST SWAP2 POP POP SWAP3 SWAP2 POP POP JUMP JUMPDEST PUSH1 0x0 DUP2 CALLDATALOAD SWAP1 POP PUSH2 0x149F DUP2 PUSH2 0x1DE7 JUMP JUMPDEST SWAP3 SWAP2 POP POP JUMP JUMPDEST PUSH1 0x0 PUSH1 0x20 DUP3 DUP5 SUB SLT ISZERO PUSH2 0x14BB JUMPI PUSH2 0x14BA PUSH2 0x1D1B JUMP JUMPDEST JUMPDEST PUSH1 0x0 PUSH2 0x14C9 DUP5 DUP3 DUP6 ADD PUSH2 0x1438 JUMP JUMPDEST SWAP2 POP POP SWAP3 SWAP2 POP POP JUMP JUMPDEST PUSH1 0x0 DUP1 PUSH1 0x0 PUSH1 0x60 DUP5 DUP7 SUB SLT ISZERO PUSH2 0x14EB JUMPI PUSH2 0x14EA PUSH2 0x1D1B JUMP JUMPDEST JUMPDEST PUSH1 0x0 PUSH2 0x14F9 DUP7 DUP3 DUP8 ADD PUSH2 0x1438 JUMP JUMPDEST SWAP4 POP POP PUSH1 0x20 PUSH2 0x150A DUP7 DUP3 DUP8 ADD PUSH2 0x144D JUMP JUMPDEST SWAP3 POP POP PUSH1 0x40 DUP5 ADD CALLDATALOAD PUSH8 0xFFFFFFFFFFFFFFFF DUP2 GT ISZERO PUSH2 0x152B JUMPI PUSH2 0x152A PUSH2 0x1D16 JUMP JUMPDEST JUMPDEST PUSH2 0x1537 DUP7 DUP3 DUP8 ADD PUSH2 0x1462 JUMP JUMPDEST SWAP2 POP POP SWAP3 POP SWAP3 POP SWAP3 JUMP JUMPDEST PUSH1 0x0 DUP1 PUSH1 0x40 DUP4 DUP6 SUB SLT ISZERO PUSH2 0x1558 JUMPI PUSH2 0x1557 PUSH2 0x1D1B JUMP JUMPDEST JUMPDEST PUSH1 0x0 PUSH2 0x1566 DUP6 DUP3 DUP7 ADD PUSH2 0x1438 JUMP JUMPDEST SWAP3 POP POP PUSH1 0x20 PUSH2 0x1577 DUP6 DUP3 DUP7 ADD PUSH2 0x1490 JUMP JUMPDEST SWAP2 POP POP SWAP3 POP SWAP3 SWAP1 POP JUMP JUMPDEST PUSH1 0x0 PUSH1 0x20 DUP3 DUP5 SUB SLT ISZERO PUSH2 0x1597 JUMPI PUSH2 0x1596 PUSH2 0x1D1B JUMP JUMPDEST JUMPDEST PUSH1 0x0 PUSH2 0x15A5 DUP5 DUP3 DUP6 ADD PUSH2 0x1490 JUMP JUMPDEST SWAP2 POP POP SWAP3 SWAP2 POP POP JUMP JUMPDEST PUSH1 0x0 DUP1 PUSH1 0x0 PUSH1 0x60 DUP5 DUP7 SUB SLT ISZERO PUSH2 0x15C7 JUMPI PUSH2 0x15C6 PUSH2 0x1D1B JUMP JUMPDEST JUMPDEST PUSH1 0x0 PUSH2 0x15D5 DUP7 DUP3 DUP8 ADD PUSH2 0x1490 JUMP JUMPDEST SWAP4 POP POP PUSH1 0x20 PUSH2 0x15E6 DUP7 DUP3 DUP8 ADD PUSH2 0x1490 JUMP JUMPDEST SWAP3 POP POP PUSH1 0x40 DUP5 ADD CALLDATALOAD PUSH8 0xFFFFFFFFFFFFFFFF DUP2 GT ISZERO PUSH2 0x1607 JUMPI PUSH2 0x1606 PUSH2 0x1D16 JUMP JUMPDEST JUMPDEST PUSH2 0x1613 DUP7 DUP3 DUP8 ADD PUSH2 0x1462 JUMP JUMPDEST SWAP2 POP POP SWAP3 POP SWAP3 POP SWAP3 JUMP JUMPDEST PUSH1 0x0 DUP1 PUSH1 0x0 DUP1 PUSH1 0x0 DUP1 PUSH1 0x0 DUP1 PUSH1 0x0 DUP1 PUSH2 0x140 DUP12 DUP14 SUB SLT ISZERO PUSH2 0x1641 JUMPI PUSH2 0x1640 PUSH2 0x1D1B JUMP JUMPDEST JUMPDEST PUSH1 0x0 PUSH2 0x164F DUP14 DUP3 DUP15 ADD PUSH2 0x1490 JUMP JUMPDEST SWAP11 POP POP PUSH1 0x20 PUSH2 0x1660 DUP14 DUP3 DUP15 ADD PUSH2 0x1490 JUMP JUMPDEST SWAP10 POP POP PUSH1 0x40 PUSH2 0x1671 DUP14 DUP3 DUP15 ADD PUSH2 0x1490 JUMP JUMPDEST SWAP9 POP POP PUSH1 0x60 DUP12 ADD CALLDATALOAD PUSH8 0xFFFFFFFFFFFFFFFF DUP2 GT ISZERO PUSH2 0x1692 JUMPI PUSH2 0x1691 PUSH2 0x1D16 JUMP JUMPDEST JUMPDEST PUSH2 0x169E DUP14 DUP3 DUP15 ADD PUSH2 0x1462 JUMP JUMPDEST SWAP8 POP POP PUSH1 0x80 DUP12 ADD CALLDATALOAD PUSH8 0xFFFFFFFFFFFFFFFF DUP2 GT ISZERO PUSH2 0x16BF JUMPI PUSH2 0x16BE PUSH2 0x1D16 JUMP JUMPDEST JUMPDEST PUSH2 0x16CB DUP14 DUP3 DUP15 ADD PUSH2 0x1462 JUMP JUMPDEST SWAP7 POP POP PUSH1 0xA0 DUP12 ADD CALLDATALOAD PUSH8 0xFFFFFFFFFFFFFFFF DUP2 GT ISZERO PUSH2 0x16EC JUMPI PUSH2 0x16EB PUSH2 0x1D16 JUMP JUMPDEST JUMPDEST PUSH2 0x16F8 DUP14 DUP3 DUP15 ADD PUSH2 0x1462 JUMP JUMPDEST SWAP6 POP POP PUSH1 0xC0 DUP12 ADD CALLDATALOAD PUSH8 0xFFFFFFFFFFFFFFFF DUP2 GT ISZERO PUSH2 0x1719 JUMPI PUSH2 0x1718 PUSH2 0x1D16 JUMP JUMPDEST JUMPDEST PUSH2 0x1725 DUP14 DUP3 DUP15 ADD PUSH2 0x1462 JUMP JUMPDEST SWAP5 POP POP PUSH1 0xE0 DUP12 ADD CALLDATALOAD PUSH8 0xFFFFFFFFFFFFFFFF DUP2 GT ISZERO PUSH2 0x1746 JUMPI PUSH2 0x1745 PUSH2 0x1D16 JUMP JUMPDEST JUMPDEST PUSH2 0x1752 DUP14 DUP3 DUP15 ADD PUSH2 0x1462 JUMP JUMPDEST SWAP4 POP POP PUSH2 0x100 DUP12 ADD CALLDATALOAD PUSH8 0xFFFFFFFFFFFFFFFF DUP2 GT ISZERO PUSH2 0x1774 JUMPI PUSH2 0x1773 PUSH2 0x1D16 JUMP JUMPDEST JUMPDEST PUSH2 0x1780 DUP14 DUP3 DUP15 ADD PUSH2 0x1462 JUMP JUMPDEST SWAP3 POP POP PUSH2 0x120 DUP12 ADD CALLDATALOAD PUSH8 0xFFFFFFFFFFFFFFFF DUP2 GT ISZERO PUSH2 0x17A2 JUMPI PUSH2 0x17A1 PUSH2 0x1D16 JUMP JUMPDEST JUMPDEST PUSH2 0x17AE DUP14 DUP3 DUP15 ADD PUSH2 0x1462 JUMP JUMPDEST SWAP2 POP POP SWAP3 SWAP6 SWAP9 SWAP12 SWAP2 SWAP5 SWAP8 SWAP11 POP SWAP3 SWAP6 SWAP9 POP JUMP JUMPDEST PUSH2 0x17C9 DUP2 PUSH2 0x1AE0 JUMP JUMPDEST DUP3 MSTORE POP POP JUMP JUMPDEST PUSH2 0x17D8 DUP2 PUSH2 0x1AF2 JUMP JUMPDEST DUP3 MSTORE POP POP JUMP JUMPDEST PUSH2 0x17E7 DUP2 PUSH2 0x1B3B JUMP JUMPDEST DUP3 MSTORE POP POP JUMP JUMPDEST PUSH1 0x0 PUSH2 0x17F8 DUP3 PUSH2 0x19F7 JUMP JUMPDEST PUSH2 0x1802 DUP2 DUP6 PUSH2 0x1A02 JUMP JUMPDEST SWAP4 POP PUSH2 0x1812 DUP2 DUP6 PUSH1 0x20 DUP7 ADD PUSH2 0x1B5C JUMP JUMPDEST PUSH2 0x181B DUP2 PUSH2 0x1D20 JUMP JUMPDEST DUP5 ADD SWAP2 POP POP SWAP3 SWAP2 POP POP JUMP JUMPDEST PUSH1 0x0 PUSH2 0x1833 PUSH1 0x1C DUP4 PUSH2 0x1A02 JUMP JUMPDEST SWAP2 POP PUSH2 0x183E DUP3 PUSH2 0x1D31 JUMP JUMPDEST PUSH1 0x20 DUP3 ADD SWAP1 POP SWAP2 SWAP1 POP JUMP JUMPDEST PUSH1 0x0 PUSH2 0x1856 PUSH1 0x19 DUP4 PUSH2 0x1A02 JUMP JUMPDEST SWAP2 POP PUSH2 0x1861 DUP3 PUSH2 0x1D5A JUMP JUMPDEST PUSH1 0x20 DUP3 ADD SWAP1 POP SWAP2 SWAP1 POP JUMP JUMPDEST PUSH1 0x0 PUSH2 0x1879 PUSH1 0x1E DUP4 PUSH2 0x1A02 JUMP JUMPDEST SWAP2 POP PUSH2 0x1884 DUP3 PUSH2 0x1D83 JUMP JUMPDEST PUSH1 0x20 DUP3 ADD SWAP1 POP SWAP2 SWAP1 POP JUMP JUMPDEST PUSH2 0x1898 DUP2 PUSH2 0x1B31 JUMP JUMPDEST DUP3 MSTORE POP POP JUMP JUMPDEST PUSH1 0x0 PUSH1 0x20 DUP3 ADD SWAP1 POP PUSH2 0x18B3 PUSH1 0x0 DUP4 ADD DUP5 PUSH2 0x17C0 JUMP JUMPDEST SWAP3 SWAP2 POP POP JUMP JUMPDEST PUSH1 0x0 PUSH1 0x20 DUP3 ADD SWAP1 POP PUSH2 0x18CE PUSH1 0x0 DUP4 ADD DUP5 PUSH2 0x17CF JUMP JUMPDEST SWAP3 SWAP2 POP POP JUMP JUMPDEST PUSH1 0x0 PUSH1 0x40 DUP3 ADD SWAP1 POP PUSH2 0x18E9 PUSH1 0x0 DUP4 ADD DUP6 PUSH2 0x17DE JUMP JUMPDEST DUP2 DUP2 SUB PUSH1 0x20 DUP4 ADD MSTORE PUSH2 0x18FB DUP2 DUP5 PUSH2 0x17ED JUMP JUMPDEST SWAP1 POP SWAP4 SWAP3 POP POP POP JUMP JUMPDEST PUSH1 0x0 PUSH1 0x20 DUP3 ADD SWAP1 POP DUP2 DUP2 SUB PUSH1 0x0 DUP4 ADD MSTORE PUSH2 0x191E DUP2 DUP5 PUSH2 0x17ED JUMP JUMPDEST SWAP1 POP SWAP3 SWAP2 POP POP JUMP JUMPDEST PUSH1 0x0 PUSH1 0x20 DUP3 ADD SWAP1 POP DUP2 DUP2 SUB PUSH1 0x0 DUP4 ADD MSTORE PUSH2 0x193F DUP2 PUSH2 0x1826 JUMP JUMPDEST SWAP1 POP SWAP2 SWAP1 POP JUMP JUMPDEST PUSH1 0x0 PUSH1 0x20 DUP3 ADD SWAP1 POP DUP2 DUP2 SUB PUSH1 0x0 DUP4 ADD MSTORE PUSH2 0x195F DUP2 PUSH2 0x1849 JUMP JUMPDEST SWAP1 POP SWAP2 SWAP1 POP JUMP JUMPDEST PUSH1 0x0 PUSH1 0x20 DUP3 ADD SWAP1 POP DUP2 DUP2 SUB PUSH1 0x0 DUP4 ADD MSTORE PUSH2 0x197F DUP2 PUSH2 0x186C JUMP JUMPDEST SWAP1 POP SWAP2 SWAP1 POP JUMP JUMPDEST PUSH1 0x0 PUSH1 0x20 DUP3 ADD SWAP1 POP PUSH2 0x199B PUSH1 0x0 DUP4 ADD DUP5 PUSH2 0x188F JUMP JUMPDEST SWAP3 SWAP2 POP POP JUMP JUMPDEST PUSH1 0x0 PUSH2 0x19AB PUSH2 0x19BC JUMP JUMPDEST SWAP1 POP PUSH2 0x19B7 DUP3 DUP3 PUSH2 0x1BC1 JUMP JUMPDEST SWAP2 SWAP1 POP JUMP JUMPDEST PUSH1 0x0 PUSH1 0x40 MLOAD SWAP1 POP SWAP1 JUMP JUMPDEST PUSH1 0x0 PUSH8 0xFFFFFFFFFFFFFFFF DUP3 GT ISZERO PUSH2 0x19E1 JUMPI PUSH2 0x19E0 PUSH2 0x1CDD JUMP JUMPDEST JUMPDEST PUSH2 0x19EA DUP3 PUSH2 0x1D20 JUMP JUMPDEST SWAP1 POP PUSH1 0x20 DUP2 ADD SWAP1 POP SWAP2 SWAP1 POP JUMP JUMPDEST PUSH1 0x0 DUP2 MLOAD SWAP1 POP SWAP2 SWAP1 POP JUMP JUMPDEST PUSH1 0x0 DUP3 DUP3 MSTORE PUSH1 0x20 DUP3 ADD SWAP1 POP SWAP3 SWAP2 POP POP JUMP JUMPDEST PUSH1 0x0 PUSH2 0x1A1E DUP3 PUSH2 0x1B31 JUMP JUMPDEST SWAP2 POP PUSH2 0x1A29 DUP4 PUSH2 0x1B31 JUMP JUMPDEST SWAP3 POP DUP3 PUSH32 0xFFFFFFFFFFFFFFFFFFFFFFFFFFFFFFFFFFFFFFFFFFFFFFFFFFFFFFFFFFFFFFFF SUB DUP3 GT ISZERO PUSH2 0x1A5E JUMPI PUSH2 0x1A5D PUSH2 0x1BF2 JUMP JUMPDEST JUMPDEST DUP3 DUP3 ADD SWAP1 POP SWAP3 SWAP2 POP POP JUMP JUMPDEST PUSH1 0x0 PUSH2 0x1A74 DUP3 PUSH2 0x1B31 JUMP JUMPDEST SWAP2 POP PUSH2 0x1A7F DUP4 PUSH2 0x1B31 JUMP JUMPDEST SWAP3 POP DUP3 PUSH2 0x1A8F JUMPI PUSH2 0x1A8E PUSH2 0x1C21 JUMP JUMPDEST JUMPDEST DUP3 DUP3 DIV SWAP1 POP SWAP3 SWAP2 POP POP JUMP JUMPDEST PUSH1 0x0 PUSH2 0x1AA5 DUP3 PUSH2 0x1B31 JUMP JUMPDEST SWAP2 POP PUSH2 0x1AB0 DUP4 PUSH2 0x1B31 JUMP JUMPDEST SWAP3 POP DUP3 DUP3 LT ISZERO PUSH2 0x1AC3 JUMPI PUSH2 0x1AC2 PUSH2 0x1BF2 JUMP JUMPDEST JUMPDEST DUP3 DUP3 SUB SWAP1 POP SWAP3 SWAP2 POP POP JUMP JUMPDEST PUSH1 0x0 PUSH2 0x1AD9 DUP3 PUSH2 0x1B11 JUMP JUMPDEST SWAP1 POP SWAP2 SWAP1 POP JUMP JUMPDEST PUSH1 0x0 PUSH2 0x1AEB DUP3 PUSH2 0x1B11 JUMP JUMPDEST SWAP1 POP SWAP2 SWAP1 POP JUMP JUMPDEST PUSH1 0x0 DUP2 ISZERO ISZERO SWAP1 POP SWAP2 SWAP1 POP JUMP JUMPDEST PUSH1 0x0 DUP2 SWAP1 POP PUSH2 0x1B0C DUP3 PUSH2 0x1DAC JUMP JUMPDEST SWAP2 SWAP1 POP JUMP JUMPDEST PUSH1 0x0 PUSH20 0xFFFFFFFFFFFFFFFFFFFFFFFFFFFFFFFFFFFFFFFF DUP3 AND SWAP1 POP SWAP2 SWAP1 POP JUMP JUMPDEST PUSH1 0x0 DUP2 SWAP1 POP SWAP2 SWAP1 POP JUMP JUMPDEST PUSH1 0x0 PUSH2 0x1B46 DUP3 PUSH2 0x1AFE JUMP JUMPDEST SWAP1 POP SWAP2 SWAP1 POP JUMP JUMPDEST DUP3 DUP2 DUP4 CALLDATACOPY PUSH1 0x0 DUP4 DUP4 ADD MSTORE POP POP POP JUMP JUMPDEST PUSH1 0x0 JUMPDEST DUP4 DUP2 LT ISZERO PUSH2 0x1B7A JUMPI DUP1 DUP3 ADD MLOAD DUP2 DUP5 ADD MSTORE PUSH1 0x20 DUP2 ADD SWAP1 POP PUSH2 0x1B5F JUMP JUMPDEST DUP4 DUP2 GT ISZERO PUSH2 0x1B89 JUMPI PUSH1 0x0 DUP5 DUP5 ADD MSTORE JUMPDEST POP POP POP POP JUMP JUMPDEST PUSH1 0x0 PUSH1 0x2 DUP3 DIV SWAP1 POP PUSH1 0x1 DUP3 AND DUP1 PUSH2 0x1BA7 JUMPI PUSH1 0x7F DUP3 AND SWAP2 POP JUMPDEST PUSH1 0x20 DUP3 LT DUP2 EQ ISZERO PUSH2 0x1BBB JUMPI PUSH2 0x1BBA PUSH2 0x1C7F JUMP JUMPDEST JUMPDEST POP SWAP2 SWAP1 POP JUMP JUMPDEST PUSH2 0x1BCA DUP3 PUSH2 0x1D20 JUMP JUMPDEST DUP2 ADD DUP2 DUP2 LT PUSH8 0xFFFFFFFFFFFFFFFF DUP3 GT OR ISZERO PUSH2 0x1BE9 JUMPI PUSH2 0x1BE8 PUSH2 0x1CDD JUMP JUMPDEST JUMPDEST DUP1 PUSH1 0x40 MSTORE POP POP POP JUMP JUMPDEST PUSH32 0x4E487B7100000000000000000000000000000000000000000000000000000000 PUSH1 0x0 MSTORE PUSH1 0x11 PUSH1 0x4 MSTORE PUSH1 0x24 PUSH1 0x0 REVERT JUMPDEST PUSH32 0x4E487B7100000000000000000000000000000000000000000000000000000000 PUSH1 0x0 MSTORE PUSH1 0x12 PUSH1 0x4 MSTORE PUSH1 0x24 PUSH1 0x0 REVERT JUMPDEST PUSH32 0x4E487B7100000000000000000000000000000000000000000000000000000000 PUSH1 0x0 MSTORE PUSH1 0x21 PUSH1 0x4 MSTORE PUSH1 0x24 PUSH1 0x0 REVERT JUMPDEST PUSH32 0x4E487B7100000000000000000000000000000000000000000000000000000000 PUSH1 0x0 MSTORE PUSH1 0x22 PUSH1 0x4 MSTORE PUSH1 0x24 PUSH1 0x0 REVERT JUMPDEST PUSH32 0x4E487B7100000000000000000000000000000000000000000000000000000000 PUSH1 0x0 MSTORE PUSH1 0x32 PUSH1 0x4 MSTORE PUSH1 0x24 PUSH1 0x0 REVERT JUMPDEST PUSH32 0x4E487B7100000000000000000000000000000000000000000000000000000000 PUSH1 0x0 MSTORE PUSH1 0x41 PUSH1 0x4 MSTORE PUSH1 0x24 PUSH1 0x0 REVERT JUMPDEST PUSH1 0x0 DUP1 REVERT JUMPDEST PUSH1 0x0 DUP1 REVERT JUMPDEST PUSH1 0x0 DUP1 REVERT JUMPDEST PUSH1 0x0 DUP1 REVERT JUMPDEST PUSH1 0x0 PUSH1 0x1F NOT PUSH1 0x1F DUP4 ADD AND SWAP1 POP SWAP2 SWAP1 POP JUMP JUMPDEST PUSH32 0x63616C6C6572206973206E6F742061206469737472696275746F722E00000000 PUSH1 0x0 DUP3 ADD MSTORE POP JUMP JUMPDEST PUSH32 0x63616C6C6572206973206E6F7420612070726F64756365722E00000000000000 PUSH1 0x0 DUP3 ADD MSTORE POP JUMP JUMPDEST PUSH32 0x63616C6C6572206973206E6F742074686520746F6B656E206F776E65722E0000 PUSH1 0x0 DUP3 ADD MSTORE POP JUMP JUMPDEST PUSH1 0x5 DUP2 LT PUSH2 0x1DBD JUMPI PUSH2 0x1DBC PUSH2 0x1C50 JUMP JUMPDEST JUMPDEST POP JUMP JUMPDEST PUSH2 0x1DC9 DUP2 PUSH2 0x1ACE JUMP JUMPDEST DUP2 EQ PUSH2 0x1DD4 JUMPI PUSH1 0x0 DUP1 REVERT JUMPDEST POP JUMP JUMPDEST PUSH1 0x5 DUP2 LT PUSH2 0x1DE4 JUMPI PUSH1 0x0 DUP1 REVERT JUMPDEST POP JUMP JUMPDEST PUSH2 0x1DF0 DUP2 PUSH2 0x1B31 JUMP JUMPDEST DUP2 EQ PUSH2 0x1DFB JUMPI PUSH1 0x0 DUP1 REVERT JUMPDEST POP JUMP INVALID LOG2 PUSH5 0x6970667358 0x22 SLT KECCAK256 0xFC PUSH5 0xEB0DB91ABB EQ PUSH17 0xC3D51DFB691EEB456DFD3290F915825795 BASEFEE NUMBER 0xC CALLDATASIZE LOG0 GASLIMIT PUSH5 0x736F6C6343 STOP ADDMOD SMOD STOP CALLER "
				},
				"gasEstimates": {
					"creation": {
						"codeDepositCost": "1546400",
						"executionCost": "infinite",
						"totalCost": "infinite"
					},
					"external": {
						"burn(address,uint256)": "infinite",
						"buyProduct(uint256,uint256,string)": "infinite",
						"buyToken()": "infinite",
						"etherBalance(address)": "3301",
						"getActorInfo(address)": "infinite",
						"mint(uint256)": "infinite",
						"name()": "infinite",
						"produceProduct(uint256,uint256,uint256,string,string,string,string,string,string,string)": "infinite",
						"register(address,uint8,string)": "infinite",
						"symbol()": "infinite",
						"tokenBalance(address)": "2929",
						"tokenOwner()": "2559",
						"tokenTransfer(address,uint256)": "infinite"
					}
				},
				"methodIdentifiers": {
					"burn(address,uint256)": "9dc29fac",
					"buyProduct(uint256,uint256,string)": "ebc9368f",
					"buyToken()": "a4821719",
					"etherBalance(address)": "cd0c5896",
					"getActorInfo(address)": "b292abf1",
					"mint(uint256)": "a0712d68",
					"name()": "06fdde03",
					"produceProduct(uint256,uint256,uint256,string,string,string,string,string,string,string)": "561e0e98",
					"register(address,uint8,string)": "40932fc2",
					"symbol()": "95d89b41",
					"tokenBalance(address)": "eedc966a",
					"tokenOwner()": "a3e67610",
					"tokenTransfer(address,uint256)": "68cdafe6"
				}
			},
			"storageLayout": {
				"storage": [
					{
						"astId": 3,
						"contract": "contracts/4_Product.sol:ProductSC",
						"label": "name",
						"offset": 0,
						"slot": "0",
						"type": "t_string_storage"
					},
					{
						"astId": 5,
						"contract": "contracts/4_Product.sol:ProductSC",
						"label": "symbol",
						"offset": 0,
						"slot": "1",
						"type": "t_string_storage"
					},
					{
						"astId": 7,
						"contract": "contracts/4_Product.sol:ProductSC",
						"label": "tokenOwner",
						"offset": 0,
						"slot": "2",
						"type": "t_address_payable"
					},
					{
						"astId": 19,
						"contract": "contracts/4_Product.sol:ProductSC",
						"label": "_totalSupply",
						"offset": 0,
						"slot": "3",
						"type": "t_uint256"
					},
					{
						"astId": 84,
						"contract": "contracts/4_Product.sol:ProductSC",
						"label": "balances",
						"offset": 0,
						"slot": "4",
						"type": "t_mapping(t_address,t_uint256)"
					},
					{
						"astId": 89,
						"contract": "contracts/4_Product.sol:ProductSC",
						"label": "actors",
						"offset": 0,
						"slot": "5",
						"type": "t_mapping(t_address,t_struct(Actor)65_storage)"
					},
					{
						"astId": 94,
						"contract": "contracts/4_Product.sol:ProductSC",
						"label": "product",
						"offset": 0,
						"slot": "6",
						"type": "t_mapping(t_uint256,t_struct(Product)57_storage)"
					}
				],
				"types": {
					"t_address": {
						"encoding": "inplace",
						"label": "address",
						"numberOfBytes": "20"
					},
					"t_address_payable": {
						"encoding": "inplace",
						"label": "address payable",
						"numberOfBytes": "20"
					},
					"t_array(t_uint256)4_storage": {
						"base": "t_uint256",
						"encoding": "inplace",
						"label": "uint256[4]",
						"numberOfBytes": "128"
					},
					"t_bool": {
						"encoding": "inplace",
						"label": "bool",
						"numberOfBytes": "1"
					},
					"t_enum(Role)32": {
						"encoding": "inplace",
						"label": "enum ProductSC.Role",
						"numberOfBytes": "1"
					},
					"t_enum(State)26": {
						"encoding": "inplace",
						"label": "enum ProductSC.State",
						"numberOfBytes": "1"
					},
					"t_mapping(t_address,t_struct(Actor)65_storage)": {
						"encoding": "mapping",
						"key": "t_address",
						"label": "mapping(address => struct ProductSC.Actor)",
						"numberOfBytes": "32",
						"value": "t_struct(Actor)65_storage"
					},
					"t_mapping(t_address,t_uint256)": {
						"encoding": "mapping",
						"key": "t_address",
						"label": "mapping(address => uint256)",
						"numberOfBytes": "32",
						"value": "t_uint256"
					},
					"t_mapping(t_uint256,t_struct(Product)57_storage)": {
						"encoding": "mapping",
						"key": "t_uint256",
						"label": "mapping(uint256 => struct ProductSC.Product)",
						"numberOfBytes": "32",
						"value": "t_struct(Product)57_storage"
					},
					"t_string_storage": {
						"encoding": "bytes",
						"label": "string",
						"numberOfBytes": "32"
					},
					"t_struct(Actor)65_storage": {
						"encoding": "inplace",
						"label": "struct ProductSC.Actor",
						"members": [
							{
								"astId": 60,
								"contract": "contracts/4_Product.sol:ProductSC",
								"label": "role",
								"offset": 0,
								"slot": "0",
								"type": "t_enum(Role)32"
							},
							{
								"astId": 62,
								"contract": "contracts/4_Product.sol:ProductSC",
								"label": "name",
								"offset": 0,
								"slot": "1",
								"type": "t_string_storage"
							},
							{
								"astId": 64,
								"contract": "contracts/4_Product.sol:ProductSC",
								"label": "isDefined",
								"offset": 0,
								"slot": "2",
								"type": "t_bool"
							}
						],
						"numberOfBytes": "96"
					},
					"t_struct(Details)80_storage": {
						"encoding": "inplace",
						"label": "struct ProductSC.Details",
						"members": [
							{
								"astId": 67,
								"contract": "contracts/4_Product.sol:ProductSC",
								"label": "name",
								"offset": 0,
								"slot": "0",
								"type": "t_string_storage"
							},
							{
								"astId": 69,
								"contract": "contracts/4_Product.sol:ProductSC",
								"label": "brand",
								"offset": 0,
								"slot": "1",
								"type": "t_string_storage"
							},
							{
								"astId": 71,
								"contract": "contracts/4_Product.sol:ProductSC",
								"label": "size",
								"offset": 0,
								"slot": "2",
								"type": "t_string_storage"
							},
							{
								"astId": 73,
								"contract": "contracts/4_Product.sol:ProductSC",
								"label": "weight",
								"offset": 0,
								"slot": "3",
								"type": "t_string_storage"
							},
							{
								"astId": 75,
								"contract": "contracts/4_Product.sol:ProductSC",
								"label": "length",
								"offset": 0,
								"slot": "4",
								"type": "t_string_storage"
							},
							{
								"astId": 77,
								"contract": "contracts/4_Product.sol:ProductSC",
								"label": "width",
								"offset": 0,
								"slot": "5",
								"type": "t_string_storage"
							},
							{
								"astId": 79,
								"contract": "contracts/4_Product.sol:ProductSC",
								"label": "height",
								"offset": 0,
								"slot": "6",
								"type": "t_string_storage"
							}
						],
						"numberOfBytes": "224"
					},
					"t_struct(Product)57_storage": {
						"encoding": "inplace",
						"label": "struct ProductSC.Product",
						"members": [
							{
								"astId": 34,
								"contract": "contracts/4_Product.sol:ProductSC",
								"label": "ID",
								"offset": 0,
								"slot": "0",
								"type": "t_uint256"
							},
							{
								"astId": 36,
								"contract": "contracts/4_Product.sol:ProductSC",
								"label": "ownerID",
								"offset": 0,
								"slot": "1",
								"type": "t_address"
							},
							{
								"astId": 38,
								"contract": "contracts/4_Product.sol:ProductSC",
								"label": "producerID",
								"offset": 0,
								"slot": "2",
								"type": "t_address"
							},
							{
								"astId": 42,
								"contract": "contracts/4_Product.sol:ProductSC",
								"label": "timestamp",
								"offset": 0,
								"slot": "3",
								"type": "t_array(t_uint256)4_storage"
							},
							{
								"astId": 45,
								"contract": "contracts/4_Product.sol:ProductSC",
								"label": "productState",
								"offset": 0,
								"slot": "7",
								"type": "t_enum(State)26"
							},
							{
								"astId": 47,
								"contract": "contracts/4_Product.sol:ProductSC",
								"label": "productPrice",
								"offset": 0,
								"slot": "8",
								"type": "t_uint256"
							},
							{
								"astId": 49,
								"contract": "contracts/4_Product.sol:ProductSC",
								"label": "distributorID",
								"offset": 0,
								"slot": "9",
								"type": "t_address"
							},
							{
								"astId": 51,
								"contract": "contracts/4_Product.sol:ProductSC",
								"label": "retailerID",
								"offset": 0,
								"slot": "10",
								"type": "t_address"
							},
							{
								"astId": 53,
								"contract": "contracts/4_Product.sol:ProductSC",
								"label": "consumerID",
								"offset": 0,
								"slot": "11",
								"type": "t_address"
							},
							{
								"astId": 56,
								"contract": "contracts/4_Product.sol:ProductSC",
								"label": "details",
								"offset": 0,
								"slot": "12",
								"type": "t_struct(Details)80_storage"
							}
						],
						"numberOfBytes": "608"
					},
					"t_uint256": {
						"encoding": "inplace",
						"label": "uint256",
						"numberOfBytes": "32"
					}
				}
			},
			"userdoc": {
				"kind": "user",
				"methods": {},
				"version": 1
			}
		}
	}
}