{
	"contracts/4_Product.sol": {
		"ProductSC": {
			"abi": [
				{
					"inputs": [
						{
							"internalType": "string",
							"name": "_name",
							"type": "string"
						},
						{
							"internalType": "string",
							"name": "_symbol",
							"type": "string"
						},
						{
							"internalType": "uint256",
							"name": "_initialSupply",
							"type": "uint256"
						}
					],
					"stateMutability": "nonpayable",
					"type": "constructor"
				},
				{
					"inputs": [
						{
							"internalType": "address",
							"name": "_account",
							"type": "address"
						},
						{
							"internalType": "uint256",
							"name": "_amount",
							"type": "uint256"
						}
					],
					"name": "burn",
					"outputs": [],
					"stateMutability": "nonpayable",
					"type": "function"
				},
				{
					"inputs": [
						{
							"internalType": "uint256",
							"name": "_id",
							"type": "uint256"
						},
						{
							"internalType": "uint256",
							"name": "_timestamp",
							"type": "uint256"
						}
					],
					"name": "buyProduct",
					"outputs": [],
					"stateMutability": "nonpayable",
					"type": "function"
				},
				{
					"inputs": [],
					"name": "buyToken",
					"outputs": [],
					"stateMutability": "payable",
					"type": "function"
				},
				{
					"inputs": [
						{
							"internalType": "address",
							"name": "_addr",
							"type": "address"
						}
					],
					"name": "etherBalance",
					"outputs": [
						{
							"internalType": "uint256",
							"name": "",
							"type": "uint256"
						}
					],
					"stateMutability": "view",
					"type": "function"
				},
				{
					"inputs": [
						{
							"internalType": "address",
							"name": "_addr",
							"type": "address"
						}
					],
					"name": "getActorInfo",
					"outputs": [
						{
							"internalType": "enum ProductSC.Role",
							"name": "_role",
							"type": "uint8"
						},
						{
							"internalType": "string",
							"name": "_name",
							"type": "string"
						}
					],
					"stateMutability": "view",
					"type": "function"
				},
				{
					"inputs": [
						{
							"internalType": "uint256",
							"name": "_id",
							"type": "uint256"
						}
					],
					"name": "getProductDetails",
					"outputs": [
						{
							"internalType": "uint256",
							"name": "product_id",
							"type": "uint256"
						},
						{
							"internalType": "address",
							"name": "owner_id",
							"type": "address"
						},
						{
							"internalType": "enum ProductSC.State",
							"name": "currentProductState",
							"type": "uint8"
						},
						{
							"internalType": "uint256",
							"name": "productPrice",
							"type": "uint256"
						},
						{
							"internalType": "string",
							"name": "product_name",
							"type": "string"
						},
						{
							"internalType": "string",
							"name": "product_brand",
							"type": "string"
						},
						{
							"internalType": "string",
							"name": "product_size",
							"type": "string"
						},
						{
							"internalType": "string",
							"name": "product_weight",
							"type": "string"
						},
						{
							"internalType": "string",
							"name": "product_length",
							"type": "string"
						},
						{
							"internalType": "string",
							"name": "product_width",
							"type": "string"
						},
						{
							"internalType": "string",
							"name": "product_height",
							"type": "string"
						}
					],
					"stateMutability": "view",
					"type": "function"
				},
				{
					"inputs": [
						{
							"internalType": "uint256",
							"name": "_id",
							"type": "uint256"
						}
					],
					"name": "getProductInfo",
					"outputs": [
						{
							"internalType": "uint256",
							"name": "product_id",
							"type": "uint256"
						},
						{
							"internalType": "address",
							"name": "producer_id",
							"type": "address"
						},
						{
							"internalType": "address",
							"name": "owner_id",
							"type": "address"
						},
						{
							"internalType": "enum ProductSC.State",
							"name": "currentProductState",
							"type": "uint8"
						},
						{
							"internalType": "uint256",
							"name": "productPrice",
							"type": "uint256"
						},
						{
							"internalType": "address",
							"name": "distributor_id",
							"type": "address"
						},
						{
							"internalType": "address",
							"name": "retailer_id",
							"type": "address"
						},
						{
							"internalType": "address",
							"name": "consumer_id",
							"type": "address"
						},
						{
							"components": [
								{
									"internalType": "string",
									"name": "name",
									"type": "string"
								},
								{
									"internalType": "string",
									"name": "brand",
									"type": "string"
								},
								{
									"internalType": "string",
									"name": "size",
									"type": "string"
								},
								{
									"internalType": "string",
									"name": "weight",
									"type": "string"
								},
								{
									"internalType": "string",
									"name": "length",
									"type": "string"
								},
								{
									"internalType": "string",
									"name": "width",
									"type": "string"
								},
								{
									"internalType": "string",
									"name": "height",
									"type": "string"
								}
							],
							"internalType": "struct ProductSC.Details",
							"name": "details",
							"type": "tuple"
						}
					],
					"stateMutability": "view",
					"type": "function"
				},
				{
					"inputs": [
						{
							"internalType": "uint256",
							"name": "_amount",
							"type": "uint256"
						}
					],
					"name": "mint",
					"outputs": [],
					"stateMutability": "nonpayable",
					"type": "function"
				},
				{
					"inputs": [],
					"name": "name",
					"outputs": [
						{
							"internalType": "string",
							"name": "",
							"type": "string"
						}
					],
					"stateMutability": "view",
					"type": "function"
				},
				{
					"inputs": [
						{
							"internalType": "uint256",
							"name": "_amount",
							"type": "uint256"
						},
						{
							"components": [
								{
									"internalType": "string",
									"name": "name",
									"type": "string"
								},
								{
									"internalType": "string",
									"name": "brand",
									"type": "string"
								},
								{
									"internalType": "string",
									"name": "size",
									"type": "string"
								},
								{
									"internalType": "string",
									"name": "weight",
									"type": "string"
								},
								{
									"internalType": "string",
									"name": "length",
									"type": "string"
								},
								{
									"internalType": "string",
									"name": "width",
									"type": "string"
								},
								{
									"internalType": "string",
									"name": "height",
									"type": "string"
								}
							],
							"internalType": "struct ProductSC.Details",
							"name": "details",
							"type": "tuple"
						}
					],
					"name": "orderProduct",
					"outputs": [],
					"stateMutability": "nonpayable",
					"type": "function"
				},
				{
					"inputs": [
						{
							"internalType": "uint256",
							"name": "_id",
							"type": "uint256"
						},
						{
							"internalType": "uint256",
							"name": "_timestamp",
							"type": "uint256"
						},
						{
							"internalType": "uint256",
							"name": "_price",
							"type": "uint256"
						},
						{
							"internalType": "string",
							"name": "_name",
							"type": "string"
						},
						{
							"internalType": "string",
							"name": "_brand",
							"type": "string"
						},
						{
							"internalType": "string",
							"name": "_size",
							"type": "string"
						},
						{
							"internalType": "string",
							"name": "_weight",
							"type": "string"
						},
						{
							"internalType": "string",
							"name": "_length",
							"type": "string"
						},
						{
							"internalType": "string",
							"name": "_width",
							"type": "string"
						},
						{
							"internalType": "string",
							"name": "_height",
							"type": "string"
						}
					],
					"name": "produceProduct",
					"outputs": [],
					"stateMutability": "nonpayable",
					"type": "function"
				},
				{
					"inputs": [
						{
							"internalType": "address",
							"name": "_addr",
							"type": "address"
						},
						{
							"internalType": "enum ProductSC.Role",
							"name": "_role",
							"type": "uint8"
						},
						{
							"internalType": "string",
							"name": "_name",
							"type": "string"
						}
					],
					"name": "register",
					"outputs": [],
					"stateMutability": "nonpayable",
					"type": "function"
				},
				{
					"inputs": [],
					"name": "symbol",
					"outputs": [
						{
							"internalType": "string",
							"name": "",
							"type": "string"
						}
					],
					"stateMutability": "view",
					"type": "function"
				},
				{
					"inputs": [
						{
							"internalType": "address",
							"name": "_addr",
							"type": "address"
						}
					],
					"name": "tokenBalance",
					"outputs": [
						{
							"internalType": "uint256",
							"name": "",
							"type": "uint256"
						}
					],
					"stateMutability": "view",
					"type": "function"
				},
				{
					"inputs": [],
					"name": "tokenOwner",
					"outputs": [
						{
							"internalType": "address payable",
							"name": "",
							"type": "address"
						}
					],
					"stateMutability": "view",
					"type": "function"
				},
				{
					"inputs": [
						{
							"internalType": "address",
							"name": "_to",
							"type": "address"
						},
						{
							"internalType": "uint256",
							"name": "_amount",
							"type": "uint256"
						}
					],
					"name": "tokenTransfer",
					"outputs": [
						{
							"internalType": "bool",
							"name": "",
							"type": "bool"
						}
					],
					"stateMutability": "nonpayable",
					"type": "function"
				},
				{
					"inputs": [
						{
							"internalType": "uint256",
							"name": "",
							"type": "uint256"
						}
					],
					"name": "tokens",
					"outputs": [
						{
							"internalType": "int256",
							"name": "",
							"type": "int256"
						}
					],
					"stateMutability": "view",
					"type": "function"
				}
			],
			"devdoc": {
				"kind": "dev",
				"methods": {},
				"version": 1
			},
			"evm": {
				"assembly": "    /* \"contracts/4_Product.sol\":35:10558  contract ProductSC {\r... */\n  mstore(0x40, 0x80)\n    /* \"contracts/4_Product.sol\":2205:2585  constructor (string memory _name, string memory _symbol, uint256 _initialSupply) {\r... */\n  callvalue\n  dup1\n  iszero\n  tag_1\n  jumpi\n  0x00\n  dup1\n  revert\ntag_1:\n  pop\n  mload(0x40)\n  sub(codesize, bytecodeSize)\n  dup1\n  bytecodeSize\n  dup4\n  codecopy\n  dup2\n  dup2\n  add\n  0x40\n  mstore\n  dup2\n  add\n  swap1\n  tag_2\n  swap2\n  swap1\n  tag_3\n  jump\t// in\ntag_2:\n    /* \"contracts/4_Product.sol\":2304:2309  _name */\n  dup3\n    /* \"contracts/4_Product.sol\":2297:2301  name */\n  0x00\n    /* \"contracts/4_Product.sol\":2297:2309  name = _name */\n  swap1\n  dup1\n  mload\n  swap1\n  0x20\n  add\n  swap1\n  tag_6\n  swap3\n  swap2\n  swap1\n  tag_7\n  jump\t// in\ntag_6:\n  pop\n    /* \"contracts/4_Product.sol\":2329:2336  _symbol */\n  dup2\n    /* \"contracts/4_Product.sol\":2320:2326  symbol */\n  0x01\n    /* \"contracts/4_Product.sol\":2320:2336  symbol = _symbol */\n  swap1\n  dup1\n  mload\n  swap1\n  0x20\n  add\n  swap1\n  tag_8\n  swap3\n  swap2\n  swap1\n  tag_7\n  jump\t// in\ntag_8:\n  pop\n    /* \"contracts/4_Product.sol\":2362:2376  _initialSupply */\n  dup1\n    /* \"contracts/4_Product.sol\":2347:2359  _totalSupply */\n  0x04\n    /* \"contracts/4_Product.sol\":2347:2376  _totalSupply = _initialSupply */\n  dup2\n  swap1\n  sstore\n  pop\n    /* \"contracts/4_Product.sol\":2408:2418  msg.sender */\n  caller\n    /* \"contracts/4_Product.sol\":2387:2397  tokenOwner */\n  0x02\n  0x00\n    /* \"contracts/4_Product.sol\":2387:2419  tokenOwner = payable(msg.sender) */\n  0x0100\n  exp\n  dup2\n  sload\n  dup2\n  0xffffffffffffffffffffffffffffffffffffffff\n  mul\n  not\n  and\n  swap1\n  dup4\n  0xffffffffffffffffffffffffffffffffffffffff\n  and\n  mul\n  or\n  swap1\n  sstore\n  pop\n    /* \"contracts/4_Product.sol\":2496:2510  _initialSupply */\n  dup1\n    /* \"contracts/4_Product.sol\":2473:2481  balances */\n  0x05\n    /* \"contracts/4_Product.sol\":2473:2493  balances[msg.sender] */\n  0x00\n    /* \"contracts/4_Product.sol\":2482:2492  msg.sender */\n  caller\n    /* \"contracts/4_Product.sol\":2473:2493  balances[msg.sender] */\n  0xffffffffffffffffffffffffffffffffffffffff\n  and\n  0xffffffffffffffffffffffffffffffffffffffff\n  and\n  dup2\n  mstore\n  0x20\n  add\n  swap1\n  dup2\n  mstore\n  0x20\n  add\n  0x00\n  keccak256\n    /* \"contracts/4_Product.sol\":2473:2510  balances[msg.sender] = _initialSupply */\n  dup2\n  swap1\n  sstore\n  pop\n    /* \"contracts/4_Product.sol\":2205:2585  constructor (string memory _name, string memory _symbol, uint256 _initialSupply) {\r... */\n  pop\n  pop\n  pop\n    /* \"contracts/4_Product.sol\":35:10558  contract ProductSC {\r... */\n  jump(tag_9)\ntag_7:\n  dup3\n  dup1\n  sload\n  tag_10\n  swap1\n  tag_11\n  jump\t// in\ntag_10:\n  swap1\n  0x00\n  mstore\n  keccak256(0x00, 0x20)\n  swap1\n  0x1f\n  add\n  0x20\n  swap1\n  div\n  dup2\n  add\n  swap3\n  dup3\n  tag_13\n  jumpi\n  0x00\n  dup6\n  sstore\n  jump(tag_12)\ntag_13:\n  dup3\n  0x1f\n  lt\n  tag_14\n  jumpi\n  dup1\n  mload\n  not(0xff)\n  and\n  dup4\n  dup1\n  add\n  or\n  dup6\n  sstore\n  jump(tag_12)\ntag_14:\n  dup3\n  dup1\n  add\n  0x01\n  add\n  dup6\n  sstore\n  dup3\n  iszero\n  tag_12\n  jumpi\n  swap2\n  dup3\n  add\ntag_15:\n  dup3\n  dup2\n  gt\n  iszero\n  tag_16\n  jumpi\n  dup3\n  mload\n  dup3\n  sstore\n  swap2\n  0x20\n  add\n  swap2\n  swap1\n  0x01\n  add\n  swap1\n  jump(tag_15)\ntag_16:\ntag_12:\n  pop\n  swap1\n  pop\n  tag_17\n  swap2\n  swap1\n  tag_18\n  jump\t// in\ntag_17:\n  pop\n  swap1\n  jump\t// out\ntag_18:\ntag_19:\n  dup1\n  dup3\n  gt\n  iszero\n  tag_20\n  jumpi\n  0x00\n  dup2\n  0x00\n  swap1\n  sstore\n  pop\n  0x01\n  add\n  jump(tag_19)\ntag_20:\n  pop\n  swap1\n  jump\t// out\n    /* \"#utility.yul\":7:428   */\ntag_22:\n    /* \"#utility.yul\":96:101   */\n  0x00\n    /* \"#utility.yul\":121:187   */\n  tag_24\n    /* \"#utility.yul\":137:186   */\n  tag_25\n    /* \"#utility.yul\":179:185   */\n  dup5\n    /* \"#utility.yul\":137:186   */\n  tag_26\n  jump\t// in\ntag_25:\n    /* \"#utility.yul\":121:187   */\n  tag_27\n  jump\t// in\ntag_24:\n    /* \"#utility.yul\":112:187   */\n  swap1\n  pop\n    /* \"#utility.yul\":210:216   */\n  dup3\n    /* \"#utility.yul\":203:208   */\n  dup2\n    /* \"#utility.yul\":196:217   */\n  mstore\n    /* \"#utility.yul\":248:252   */\n  0x20\n    /* \"#utility.yul\":241:246   */\n  dup2\n    /* \"#utility.yul\":237:253   */\n  add\n    /* \"#utility.yul\":286:289   */\n  dup5\n    /* \"#utility.yul\":277:283   */\n  dup5\n    /* \"#utility.yul\":272:275   */\n  dup5\n    /* \"#utility.yul\":268:284   */\n  add\n    /* \"#utility.yul\":265:290   */\n  gt\n    /* \"#utility.yul\":262:374   */\n  iszero\n  tag_28\n  jumpi\n    /* \"#utility.yul\":293:372   */\n  tag_29\n  tag_30\n  jump\t// in\ntag_29:\n    /* \"#utility.yul\":262:374   */\ntag_28:\n    /* \"#utility.yul\":383:422   */\n  tag_31\n    /* \"#utility.yul\":415:421   */\n  dup5\n    /* \"#utility.yul\":410:413   */\n  dup3\n    /* \"#utility.yul\":405:408   */\n  dup6\n    /* \"#utility.yul\":383:422   */\n  tag_32\n  jump\t// in\ntag_31:\n    /* \"#utility.yul\":102:428   */\n  pop\n    /* \"#utility.yul\":7:428   */\n  swap4\n  swap3\n  pop\n  pop\n  pop\n  jump\t// out\n    /* \"#utility.yul\":448:803   */\ntag_33:\n    /* \"#utility.yul\":515:520   */\n  0x00\n    /* \"#utility.yul\":564:567   */\n  dup3\n    /* \"#utility.yul\":557:561   */\n  0x1f\n    /* \"#utility.yul\":549:555   */\n  dup4\n    /* \"#utility.yul\":545:562   */\n  add\n    /* \"#utility.yul\":541:568   */\n  slt\n    /* \"#utility.yul\":531:653   */\n  tag_35\n  jumpi\n    /* \"#utility.yul\":572:651   */\n  tag_36\n  tag_37\n  jump\t// in\ntag_36:\n    /* \"#utility.yul\":531:653   */\ntag_35:\n    /* \"#utility.yul\":682:688   */\n  dup2\n    /* \"#utility.yul\":676:689   */\n  mload\n    /* \"#utility.yul\":707:797   */\n  tag_38\n    /* \"#utility.yul\":793:796   */\n  dup5\n    /* \"#utility.yul\":785:791   */\n  dup3\n    /* \"#utility.yul\":778:782   */\n  0x20\n    /* \"#utility.yul\":770:776   */\n  dup7\n    /* \"#utility.yul\":766:783   */\n  add\n    /* \"#utility.yul\":707:797   */\n  tag_22\n  jump\t// in\ntag_38:\n    /* \"#utility.yul\":698:797   */\n  swap2\n  pop\n    /* \"#utility.yul\":521:803   */\n  pop\n    /* \"#utility.yul\":448:803   */\n  swap3\n  swap2\n  pop\n  pop\n  jump\t// out\n    /* \"#utility.yul\":809:952   */\ntag_39:\n    /* \"#utility.yul\":866:871   */\n  0x00\n    /* \"#utility.yul\":897:903   */\n  dup2\n    /* \"#utility.yul\":891:904   */\n  mload\n    /* \"#utility.yul\":882:904   */\n  swap1\n  pop\n    /* \"#utility.yul\":913:946   */\n  tag_41\n    /* \"#utility.yul\":940:945   */\n  dup2\n    /* \"#utility.yul\":913:946   */\n  tag_42\n  jump\t// in\ntag_41:\n    /* \"#utility.yul\":809:952   */\n  swap3\n  swap2\n  pop\n  pop\n  jump\t// out\n    /* \"#utility.yul\":958:1967   */\ntag_3:\n    /* \"#utility.yul\":1066:1072   */\n  0x00\n    /* \"#utility.yul\":1074:1080   */\n  dup1\n    /* \"#utility.yul\":1082:1088   */\n  0x00\n    /* \"#utility.yul\":1131:1133   */\n  0x60\n    /* \"#utility.yul\":1119:1128   */\n  dup5\n    /* \"#utility.yul\":1110:1117   */\n  dup7\n    /* \"#utility.yul\":1106:1129   */\n  sub\n    /* \"#utility.yul\":1102:1134   */\n  slt\n    /* \"#utility.yul\":1099:1218   */\n  iszero\n  tag_44\n  jumpi\n    /* \"#utility.yul\":1137:1216   */\n  tag_45\n  tag_46\n  jump\t// in\ntag_45:\n    /* \"#utility.yul\":1099:1218   */\ntag_44:\n    /* \"#utility.yul\":1278:1279   */\n  0x00\n    /* \"#utility.yul\":1267:1276   */\n  dup5\n    /* \"#utility.yul\":1263:1280   */\n  add\n    /* \"#utility.yul\":1257:1281   */\n  mload\n    /* \"#utility.yul\":1308:1326   */\n  0xffffffffffffffff\n    /* \"#utility.yul\":1300:1306   */\n  dup2\n    /* \"#utility.yul\":1297:1327   */\n  gt\n    /* \"#utility.yul\":1294:1411   */\n  iszero\n  tag_47\n  jumpi\n    /* \"#utility.yul\":1330:1409   */\n  tag_48\n  tag_49\n  jump\t// in\ntag_48:\n    /* \"#utility.yul\":1294:1411   */\ntag_47:\n    /* \"#utility.yul\":1435:1509   */\n  tag_50\n    /* \"#utility.yul\":1501:1508   */\n  dup7\n    /* \"#utility.yul\":1492:1498   */\n  dup3\n    /* \"#utility.yul\":1481:1490   */\n  dup8\n    /* \"#utility.yul\":1477:1499   */\n  add\n    /* \"#utility.yul\":1435:1509   */\n  tag_33\n  jump\t// in\ntag_50:\n    /* \"#utility.yul\":1425:1509   */\n  swap4\n  pop\n    /* \"#utility.yul\":1228:1519   */\n  pop\n    /* \"#utility.yul\":1579:1581   */\n  0x20\n    /* \"#utility.yul\":1568:1577   */\n  dup5\n    /* \"#utility.yul\":1564:1582   */\n  add\n    /* \"#utility.yul\":1558:1583   */\n  mload\n    /* \"#utility.yul\":1610:1628   */\n  0xffffffffffffffff\n    /* \"#utility.yul\":1602:1608   */\n  dup2\n    /* \"#utility.yul\":1599:1629   */\n  gt\n    /* \"#utility.yul\":1596:1713   */\n  iszero\n  tag_51\n  jumpi\n    /* \"#utility.yul\":1632:1711   */\n  tag_52\n  tag_49\n  jump\t// in\ntag_52:\n    /* \"#utility.yul\":1596:1713   */\ntag_51:\n    /* \"#utility.yul\":1737:1811   */\n  tag_53\n    /* \"#utility.yul\":1803:1810   */\n  dup7\n    /* \"#utility.yul\":1794:1800   */\n  dup3\n    /* \"#utility.yul\":1783:1792   */\n  dup8\n    /* \"#utility.yul\":1779:1801   */\n  add\n    /* \"#utility.yul\":1737:1811   */\n  tag_33\n  jump\t// in\ntag_53:\n    /* \"#utility.yul\":1727:1811   */\n  swap3\n  pop\n    /* \"#utility.yul\":1529:1821   */\n  pop\n    /* \"#utility.yul\":1860:1862   */\n  0x40\n    /* \"#utility.yul\":1886:1950   */\n  tag_54\n    /* \"#utility.yul\":1942:1949   */\n  dup7\n    /* \"#utility.yul\":1933:1939   */\n  dup3\n    /* \"#utility.yul\":1922:1931   */\n  dup8\n    /* \"#utility.yul\":1918:1940   */\n  add\n    /* \"#utility.yul\":1886:1950   */\n  tag_39\n  jump\t// in\ntag_54:\n    /* \"#utility.yul\":1876:1950   */\n  swap2\n  pop\n    /* \"#utility.yul\":1831:1960   */\n  pop\n    /* \"#utility.yul\":958:1967   */\n  swap3\n  pop\n  swap3\n  pop\n  swap3\n  jump\t// out\n    /* \"#utility.yul\":1973:2102   */\ntag_27:\n    /* \"#utility.yul\":2007:2013   */\n  0x00\n    /* \"#utility.yul\":2034:2054   */\n  tag_56\n  tag_57\n  jump\t// in\ntag_56:\n    /* \"#utility.yul\":2024:2054   */\n  swap1\n  pop\n    /* \"#utility.yul\":2063:2096   */\n  tag_58\n    /* \"#utility.yul\":2091:2095   */\n  dup3\n    /* \"#utility.yul\":2083:2089   */\n  dup3\n    /* \"#utility.yul\":2063:2096   */\n  tag_59\n  jump\t// in\ntag_58:\n    /* \"#utility.yul\":1973:2102   */\n  swap2\n  swap1\n  pop\n  jump\t// out\n    /* \"#utility.yul\":2108:2183   */\ntag_57:\n    /* \"#utility.yul\":2141:2147   */\n  0x00\n    /* \"#utility.yul\":2174:2176   */\n  0x40\n    /* \"#utility.yul\":2168:2177   */\n  mload\n    /* \"#utility.yul\":2158:2177   */\n  swap1\n  pop\n    /* \"#utility.yul\":2108:2183   */\n  swap1\n  jump\t// out\n    /* \"#utility.yul\":2189:2497   */\ntag_26:\n    /* \"#utility.yul\":2251:2255   */\n  0x00\n    /* \"#utility.yul\":2341:2359   */\n  0xffffffffffffffff\n    /* \"#utility.yul\":2333:2339   */\n  dup3\n    /* \"#utility.yul\":2330:2360   */\n  gt\n    /* \"#utility.yul\":2327:2383   */\n  iszero\n  tag_62\n  jumpi\n    /* \"#utility.yul\":2363:2381   */\n  tag_63\n  tag_64\n  jump\t// in\ntag_63:\n    /* \"#utility.yul\":2327:2383   */\ntag_62:\n    /* \"#utility.yul\":2401:2430   */\n  tag_65\n    /* \"#utility.yul\":2423:2429   */\n  dup3\n    /* \"#utility.yul\":2401:2430   */\n  tag_66\n  jump\t// in\ntag_65:\n    /* \"#utility.yul\":2393:2430   */\n  swap1\n  pop\n    /* \"#utility.yul\":2485:2489   */\n  0x20\n    /* \"#utility.yul\":2479:2483   */\n  dup2\n    /* \"#utility.yul\":2475:2490   */\n  add\n    /* \"#utility.yul\":2467:2490   */\n  swap1\n  pop\n    /* \"#utility.yul\":2189:2497   */\n  swap2\n  swap1\n  pop\n  jump\t// out\n    /* \"#utility.yul\":2503:2580   */\ntag_67:\n    /* \"#utility.yul\":2540:2547   */\n  0x00\n    /* \"#utility.yul\":2569:2574   */\n  dup2\n    /* \"#utility.yul\":2558:2574   */\n  swap1\n  pop\n    /* \"#utility.yul\":2503:2580   */\n  swap2\n  swap1\n  pop\n  jump\t// out\n    /* \"#utility.yul\":2586:2893   */\ntag_32:\n    /* \"#utility.yul\":2654:2655   */\n  0x00\n    /* \"#utility.yul\":2664:2777   */\ntag_70:\n    /* \"#utility.yul\":2678:2684   */\n  dup4\n    /* \"#utility.yul\":2675:2676   */\n  dup2\n    /* \"#utility.yul\":2672:2685   */\n  lt\n    /* \"#utility.yul\":2664:2777   */\n  iszero\n  tag_72\n  jumpi\n    /* \"#utility.yul\":2763:2764   */\n  dup1\n    /* \"#utility.yul\":2758:2761   */\n  dup3\n    /* \"#utility.yul\":2754:2765   */\n  add\n    /* \"#utility.yul\":2748:2766   */\n  mload\n    /* \"#utility.yul\":2744:2745   */\n  dup2\n    /* \"#utility.yul\":2739:2742   */\n  dup5\n    /* \"#utility.yul\":2735:2746   */\n  add\n    /* \"#utility.yul\":2728:2767   */\n  mstore\n    /* \"#utility.yul\":2700:2702   */\n  0x20\n    /* \"#utility.yul\":2697:2698   */\n  dup2\n    /* \"#utility.yul\":2693:2703   */\n  add\n    /* \"#utility.yul\":2688:2703   */\n  swap1\n  pop\n    /* \"#utility.yul\":2664:2777   */\n  jump(tag_70)\ntag_72:\n    /* \"#utility.yul\":2795:2801   */\n  dup4\n    /* \"#utility.yul\":2792:2793   */\n  dup2\n    /* \"#utility.yul\":2789:2802   */\n  gt\n    /* \"#utility.yul\":2786:2887   */\n  iszero\n  tag_73\n  jumpi\n    /* \"#utility.yul\":2875:2876   */\n  0x00\n    /* \"#utility.yul\":2866:2872   */\n  dup5\n    /* \"#utility.yul\":2861:2864   */\n  dup5\n    /* \"#utility.yul\":2857:2873   */\n  add\n    /* \"#utility.yul\":2850:2877   */\n  mstore\n    /* \"#utility.yul\":2786:2887   */\ntag_73:\n    /* \"#utility.yul\":2635:2893   */\n  pop\n    /* \"#utility.yul\":2586:2893   */\n  pop\n  pop\n  pop\n  jump\t// out\n    /* \"#utility.yul\":2899:3219   */\ntag_11:\n    /* \"#utility.yul\":2943:2949   */\n  0x00\n    /* \"#utility.yul\":2980:2981   */\n  0x02\n    /* \"#utility.yul\":2974:2978   */\n  dup3\n    /* \"#utility.yul\":2970:2982   */\n  div\n    /* \"#utility.yul\":2960:2982   */\n  swap1\n  pop\n    /* \"#utility.yul\":3027:3028   */\n  0x01\n    /* \"#utility.yul\":3021:3025   */\n  dup3\n    /* \"#utility.yul\":3017:3029   */\n  and\n    /* \"#utility.yul\":3048:3066   */\n  dup1\n    /* \"#utility.yul\":3038:3119   */\n  tag_75\n  jumpi\n    /* \"#utility.yul\":3104:3108   */\n  0x7f\n    /* \"#utility.yul\":3096:3102   */\n  dup3\n    /* \"#utility.yul\":3092:3109   */\n  and\n    /* \"#utility.yul\":3082:3109   */\n  swap2\n  pop\n    /* \"#utility.yul\":3038:3119   */\ntag_75:\n    /* \"#utility.yul\":3166:3168   */\n  0x20\n    /* \"#utility.yul\":3158:3164   */\n  dup3\n    /* \"#utility.yul\":3155:3169   */\n  lt\n    /* \"#utility.yul\":3135:3153   */\n  dup2\n    /* \"#utility.yul\":3132:3170   */\n  eq\n    /* \"#utility.yul\":3129:3213   */\n  iszero\n  tag_76\n  jumpi\n    /* \"#utility.yul\":3185:3203   */\n  tag_77\n  tag_78\n  jump\t// in\ntag_77:\n    /* \"#utility.yul\":3129:3213   */\ntag_76:\n    /* \"#utility.yul\":2950:3219   */\n  pop\n    /* \"#utility.yul\":2899:3219   */\n  swap2\n  swap1\n  pop\n  jump\t// out\n    /* \"#utility.yul\":3225:3506   */\ntag_59:\n    /* \"#utility.yul\":3308:3335   */\n  tag_80\n    /* \"#utility.yul\":3330:3334   */\n  dup3\n    /* \"#utility.yul\":3308:3335   */\n  tag_66\n  jump\t// in\ntag_80:\n    /* \"#utility.yul\":3300:3306   */\n  dup2\n    /* \"#utility.yul\":3296:3336   */\n  add\n    /* \"#utility.yul\":3438:3444   */\n  dup2\n    /* \"#utility.yul\":3426:3436   */\n  dup2\n    /* \"#utility.yul\":3423:3445   */\n  lt\n    /* \"#utility.yul\":3402:3420   */\n  0xffffffffffffffff\n    /* \"#utility.yul\":3390:3400   */\n  dup3\n    /* \"#utility.yul\":3387:3421   */\n  gt\n    /* \"#utility.yul\":3384:3446   */\n  or\n    /* \"#utility.yul\":3381:3469   */\n  iszero\n  tag_81\n  jumpi\n    /* \"#utility.yul\":3449:3467   */\n  tag_82\n  tag_64\n  jump\t// in\ntag_82:\n    /* \"#utility.yul\":3381:3469   */\ntag_81:\n    /* \"#utility.yul\":3489:3499   */\n  dup1\n    /* \"#utility.yul\":3485:3487   */\n  0x40\n    /* \"#utility.yul\":3478:3500   */\n  mstore\n    /* \"#utility.yul\":3268:3506   */\n  pop\n    /* \"#utility.yul\":3225:3506   */\n  pop\n  pop\n  jump\t// out\n    /* \"#utility.yul\":3512:3692   */\ntag_78:\n    /* \"#utility.yul\":3560:3637   */\n  0x4e487b7100000000000000000000000000000000000000000000000000000000\n    /* \"#utility.yul\":3557:3558   */\n  0x00\n    /* \"#utility.yul\":3550:3638   */\n  mstore\n    /* \"#utility.yul\":3657:3661   */\n  0x22\n    /* \"#utility.yul\":3654:3655   */\n  0x04\n    /* \"#utility.yul\":3647:3662   */\n  mstore\n    /* \"#utility.yul\":3681:3685   */\n  0x24\n    /* \"#utility.yul\":3678:3679   */\n  0x00\n    /* \"#utility.yul\":3671:3686   */\n  revert\n    /* \"#utility.yul\":3698:3878   */\ntag_64:\n    /* \"#utility.yul\":3746:3823   */\n  0x4e487b7100000000000000000000000000000000000000000000000000000000\n    /* \"#utility.yul\":3743:3744   */\n  0x00\n    /* \"#utility.yul\":3736:3824   */\n  mstore\n    /* \"#utility.yul\":3843:3847   */\n  0x41\n    /* \"#utility.yul\":3840:3841   */\n  0x04\n    /* \"#utility.yul\":3833:3848   */\n  mstore\n    /* \"#utility.yul\":3867:3871   */\n  0x24\n    /* \"#utility.yul\":3864:3865   */\n  0x00\n    /* \"#utility.yul\":3857:3872   */\n  revert\n    /* \"#utility.yul\":3884:4001   */\ntag_37:\n    /* \"#utility.yul\":3993:3994   */\n  0x00\n    /* \"#utility.yul\":3990:3991   */\n  dup1\n    /* \"#utility.yul\":3983:3995   */\n  revert\n    /* \"#utility.yul\":4007:4124   */\ntag_30:\n    /* \"#utility.yul\":4116:4117   */\n  0x00\n    /* \"#utility.yul\":4113:4114   */\n  dup1\n    /* \"#utility.yul\":4106:4118   */\n  revert\n    /* \"#utility.yul\":4130:4247   */\ntag_49:\n    /* \"#utility.yul\":4239:4240   */\n  0x00\n    /* \"#utility.yul\":4236:4237   */\n  dup1\n    /* \"#utility.yul\":4229:4241   */\n  revert\n    /* \"#utility.yul\":4253:4370   */\ntag_46:\n    /* \"#utility.yul\":4362:4363   */\n  0x00\n    /* \"#utility.yul\":4359:4360   */\n  dup1\n    /* \"#utility.yul\":4352:4364   */\n  revert\n    /* \"#utility.yul\":4376:4478   */\ntag_66:\n    /* \"#utility.yul\":4417:4423   */\n  0x00\n    /* \"#utility.yul\":4468:4470   */\n  0x1f\n    /* \"#utility.yul\":4464:4471   */\n  not\n    /* \"#utility.yul\":4459:4461   */\n  0x1f\n    /* \"#utility.yul\":4452:4457   */\n  dup4\n    /* \"#utility.yul\":4448:4462   */\n  add\n    /* \"#utility.yul\":4444:4472   */\n  and\n    /* \"#utility.yul\":4434:4472   */\n  swap1\n  pop\n    /* \"#utility.yul\":4376:4478   */\n  swap2\n  swap1\n  pop\n  jump\t// out\n    /* \"#utility.yul\":4484:4606   */\ntag_42:\n    /* \"#utility.yul\":4557:4581   */\n  tag_91\n    /* \"#utility.yul\":4575:4580   */\n  dup2\n    /* \"#utility.yul\":4557:4581   */\n  tag_67\n  jump\t// in\ntag_91:\n    /* \"#utility.yul\":4550:4555   */\n  dup2\n    /* \"#utility.yul\":4547:4582   */\n  eq\n    /* \"#utility.yul\":4537:4600   */\n  tag_92\n  jumpi\n    /* \"#utility.yul\":4596:4597   */\n  0x00\n    /* \"#utility.yul\":4593:4594   */\n  dup1\n    /* \"#utility.yul\":4586:4598   */\n  revert\n    /* \"#utility.yul\":4537:4600   */\ntag_92:\n    /* \"#utility.yul\":4484:4606   */\n  pop\n  jump\t// out\n    /* \"contracts/4_Product.sol\":35:10558  contract ProductSC {\r... */\ntag_9:\n  dataSize(sub_0)\n  dup1\n  dataOffset(sub_0)\n  0x00\n  codecopy\n  0x00\n  return\nstop\n\nsub_0: assembly {\n        /* \"contracts/4_Product.sol\":35:10558  contract ProductSC {\r... */\n      mstore(0x40, 0x80)\n      jumpi(tag_1, lt(calldatasize, 0x04))\n      shr(0xe0, calldataload(0x00))\n      dup1\n      0x79a85e6c\n      gt\n      tag_19\n      jumpi\n      dup1\n      0xa3e67610\n      gt\n      tag_20\n      jumpi\n      dup1\n      0xa3e67610\n      eq\n      tag_14\n      jumpi\n      dup1\n      0xa4821719\n      eq\n      tag_15\n      jumpi\n      dup1\n      0xb292abf1\n      eq\n      tag_16\n      jumpi\n      dup1\n      0xcd0c5896\n      eq\n      tag_17\n      jumpi\n      dup1\n      0xeedc966a\n      eq\n      tag_18\n      jumpi\n      jump(tag_1)\n    tag_20:\n      dup1\n      0x79a85e6c\n      eq\n      tag_10\n      jumpi\n      dup1\n      0x95d89b41\n      eq\n      tag_11\n      jumpi\n      dup1\n      0x9dc29fac\n      eq\n      tag_12\n      jumpi\n      dup1\n      0xa0712d68\n      eq\n      tag_13\n      jumpi\n      jump(tag_1)\n    tag_19:\n      dup1\n      0x53b62866\n      gt\n      tag_21\n      jumpi\n      dup1\n      0x53b62866\n      eq\n      tag_6\n      jumpi\n      dup1\n      0x561e0e98\n      eq\n      tag_7\n      jumpi\n      dup1\n      0x6813b53b\n      eq\n      tag_8\n      jumpi\n      dup1\n      0x68cdafe6\n      eq\n      tag_9\n      jumpi\n      jump(tag_1)\n    tag_21:\n      dup1\n      0x06fdde03\n      eq\n      tag_2\n      jumpi\n      dup1\n      0x2bd5889f\n      eq\n      tag_3\n      jumpi\n      dup1\n      0x40932fc2\n      eq\n      tag_4\n      jumpi\n      dup1\n      0x4f64b2be\n      eq\n      tag_5\n      jumpi\n    tag_1:\n      0x00\n      dup1\n      revert\n        /* \"contracts/4_Product.sol\":67:85  string public name */\n    tag_2:\n      callvalue\n      dup1\n      iszero\n      tag_22\n      jumpi\n      0x00\n      dup1\n      revert\n    tag_22:\n      pop\n      tag_23\n      tag_24\n      jump\t// in\n    tag_23:\n      mload(0x40)\n      tag_25\n      swap2\n      swap1\n      tag_26\n      jump\t// in\n    tag_25:\n      mload(0x40)\n      dup1\n      swap2\n      sub\n      swap1\n      return\n        /* \"contracts/4_Product.sol\":4352:4606  function orderProduct(uint256 _amount, Details memory details) public OnlyTokenOwner {\r... */\n    tag_3:\n      callvalue\n      dup1\n      iszero\n      tag_27\n      jumpi\n      0x00\n      dup1\n      revert\n    tag_27:\n      pop\n      tag_28\n      0x04\n      dup1\n      calldatasize\n      sub\n      dup2\n      add\n      swap1\n      tag_29\n      swap2\n      swap1\n      tag_30\n      jump\t// in\n    tag_29:\n      tag_31\n      jump\t// in\n    tag_28:\n      stop\n        /* \"contracts/4_Product.sol\":6179:6438  function register(address _addr, Role _role, string memory _name) public {\r... */\n    tag_4:\n      callvalue\n      dup1\n      iszero\n      tag_32\n      jumpi\n      0x00\n      dup1\n      revert\n    tag_32:\n      pop\n      tag_33\n      0x04\n      dup1\n      calldatasize\n      sub\n      dup2\n      add\n      swap1\n      tag_34\n      swap2\n      swap1\n      tag_35\n      jump\t// in\n    tag_34:\n      tag_36\n      jump\t// in\n    tag_33:\n      stop\n        /* \"contracts/4_Product.sol\":359:399  mapping(uint256 => int256) public tokens */\n    tag_5:\n      callvalue\n      dup1\n      iszero\n      tag_37\n      jumpi\n      0x00\n      dup1\n      revert\n    tag_37:\n      pop\n      tag_38\n      0x04\n      dup1\n      calldatasize\n      sub\n      dup2\n      add\n      swap1\n      tag_39\n      swap2\n      swap1\n      tag_40\n      jump\t// in\n    tag_39:\n      tag_41\n      jump\t// in\n    tag_38:\n      mload(0x40)\n      tag_42\n      swap2\n      swap1\n      tag_43\n      jump\t// in\n    tag_42:\n      mload(0x40)\n      dup1\n      swap2\n      sub\n      swap1\n      return\n        /* \"contracts/4_Product.sol\":7628:8278  function buyProduct(uint256 _id, uint256 _timestamp) public OnlyDistributor{\r... */\n    tag_6:\n      callvalue\n      dup1\n      iszero\n      tag_44\n      jumpi\n      0x00\n      dup1\n      revert\n    tag_44:\n      pop\n      tag_45\n      0x04\n      dup1\n      calldatasize\n      sub\n      dup2\n      add\n      swap1\n      tag_46\n      swap2\n      swap1\n      tag_47\n      jump\t// in\n    tag_46:\n      tag_48\n      jump\t// in\n    tag_45:\n      stop\n        /* \"contracts/4_Product.sol\":6557:7581  function produceProduct(uint256 _id, uint256 _timestamp, uint256 _price, string memory _name, string memory _brand, string memory _size, string memory _weight, string memory _length ,string memory _width ,string memory _height) public OnlyProducer{\r... */\n    tag_7:\n      callvalue\n      dup1\n      iszero\n      tag_49\n      jumpi\n      0x00\n      dup1\n      revert\n    tag_49:\n      pop\n      tag_50\n      0x04\n      dup1\n      calldatasize\n      sub\n      dup2\n      add\n      swap1\n      tag_51\n      swap2\n      swap1\n      tag_52\n      jump\t// in\n    tag_51:\n      tag_53\n      jump\t// in\n    tag_50:\n      stop\n        /* \"contracts/4_Product.sol\":9239:10335  function getProductDetails(uint256 _id) public view returns \r... */\n    tag_8:\n      callvalue\n      dup1\n      iszero\n      tag_54\n      jumpi\n      0x00\n      dup1\n      revert\n    tag_54:\n      pop\n      tag_55\n      0x04\n      dup1\n      calldatasize\n      sub\n      dup2\n      add\n      swap1\n      tag_56\n      swap2\n      swap1\n      tag_40\n      jump\t// in\n    tag_56:\n      tag_57\n      jump\t// in\n    tag_55:\n      mload(0x40)\n      tag_58\n      swap12\n      swap11\n      swap10\n      swap9\n      swap8\n      swap7\n      swap6\n      swap5\n      swap4\n      swap3\n      swap2\n      swap1\n      tag_59\n      jump\t// in\n    tag_58:\n      mload(0x40)\n      dup1\n      swap2\n      sub\n      swap1\n      return\n        /* \"contracts/4_Product.sol\":5811:6167  function tokenTransfer(address _to, uint256 _amount) public returns (bool) {\r... */\n    tag_9:\n      callvalue\n      dup1\n      iszero\n      tag_60\n      jumpi\n      0x00\n      dup1\n      revert\n    tag_60:\n      pop\n      tag_61\n      0x04\n      dup1\n      calldatasize\n      sub\n      dup2\n      add\n      swap1\n      tag_62\n      swap2\n      swap1\n      tag_63\n      jump\t// in\n    tag_62:\n      tag_64\n      jump\t// in\n    tag_61:\n      mload(0x40)\n      tag_65\n      swap2\n      swap1\n      tag_66\n      jump\t// in\n    tag_65:\n      mload(0x40)\n      dup1\n      swap2\n      sub\n      swap1\n      return\n        /* \"contracts/4_Product.sol\":8351:9233  function getProductInfo(uint256 _id) public view returns \r... */\n    tag_10:\n      callvalue\n      dup1\n      iszero\n      tag_67\n      jumpi\n      0x00\n      dup1\n      revert\n    tag_67:\n      pop\n      tag_68\n      0x04\n      dup1\n      calldatasize\n      sub\n      dup2\n      add\n      swap1\n      tag_69\n      swap2\n      swap1\n      tag_40\n      jump\t// in\n    tag_69:\n      tag_70\n      jump\t// in\n    tag_68:\n      mload(0x40)\n      tag_71\n      swap10\n      swap9\n      swap8\n      swap7\n      swap6\n      swap5\n      swap4\n      swap3\n      swap2\n      swap1\n      tag_72\n      jump\t// in\n    tag_71:\n      mload(0x40)\n      dup1\n      swap2\n      sub\n      swap1\n      return\n        /* \"contracts/4_Product.sol\":114:134  string public symbol */\n    tag_11:\n      callvalue\n      dup1\n      iszero\n      tag_73\n      jumpi\n      0x00\n      dup1\n      revert\n    tag_73:\n      pop\n      tag_74\n      tag_75\n      jump\t// in\n    tag_74:\n      mload(0x40)\n      tag_76\n      swap2\n      swap1\n      tag_26\n      jump\t// in\n    tag_76:\n      mload(0x40)\n      dup1\n      swap2\n      sub\n      swap1\n      return\n        /* \"contracts/4_Product.sol\":4765:5182  function burn(address _account, uint256 _amount) public OnlyTokenOwner {\r... */\n    tag_12:\n      callvalue\n      dup1\n      iszero\n      tag_77\n      jumpi\n      0x00\n      dup1\n      revert\n    tag_77:\n      pop\n      tag_78\n      0x04\n      dup1\n      calldatasize\n      sub\n      dup2\n      add\n      swap1\n      tag_79\n      swap2\n      swap1\n      tag_63\n      jump\t// in\n    tag_79:\n      tag_80\n      jump\t// in\n    tag_78:\n      stop\n        /* \"contracts/4_Product.sol\":4122:4344  function mint(uint256 _amount) public OnlyTokenOwner {\r... */\n    tag_13:\n      callvalue\n      dup1\n      iszero\n      tag_81\n      jumpi\n      0x00\n      dup1\n      revert\n    tag_81:\n      pop\n      tag_82\n      0x04\n      dup1\n      calldatasize\n      sub\n      dup2\n      add\n      swap1\n      tag_83\n      swap2\n      swap1\n      tag_40\n      jump\t// in\n    tag_83:\n      tag_84\n      jump\t// in\n    tag_82:\n      stop\n        /* \"contracts/4_Product.sol\":165:199  address payable public  tokenOwner */\n    tag_14:\n      callvalue\n      dup1\n      iszero\n      tag_85\n      jumpi\n      0x00\n      dup1\n      revert\n    tag_85:\n      pop\n      tag_86\n      tag_87\n      jump\t// in\n    tag_86:\n      mload(0x40)\n      tag_88\n      swap2\n      swap1\n      tag_89\n      jump\t// in\n    tag_88:\n      mload(0x40)\n      dup1\n      swap2\n      sub\n      swap1\n      return\n        /* \"contracts/4_Product.sol\":5240:5737  function buyToken() public payable {\r... */\n    tag_15:\n      tag_90\n      tag_91\n      jump\t// in\n    tag_90:\n      stop\n        /* \"contracts/4_Product.sol\":10377:10553  function getActorInfo(address _addr) public view returns\r... */\n    tag_16:\n      callvalue\n      dup1\n      iszero\n      tag_92\n      jumpi\n      0x00\n      dup1\n      revert\n    tag_92:\n      pop\n      tag_93\n      0x04\n      dup1\n      calldatasize\n      sub\n      dup2\n      add\n      swap1\n      tag_94\n      swap2\n      swap1\n      tag_95\n      jump\t// in\n    tag_94:\n      tag_96\n      jump\t// in\n    tag_93:\n      mload(0x40)\n      tag_97\n      swap3\n      swap2\n      swap1\n      tag_98\n      jump\t// in\n    tag_97:\n      mload(0x40)\n      dup1\n      swap2\n      sub\n      swap1\n      return\n        /* \"contracts/4_Product.sol\":3900:4006  function etherBalance(address _addr) public view returns (uint256) {\r... */\n    tag_17:\n      callvalue\n      dup1\n      iszero\n      tag_99\n      jumpi\n      0x00\n      dup1\n      revert\n    tag_99:\n      pop\n      tag_100\n      0x04\n      dup1\n      calldatasize\n      sub\n      dup2\n      add\n      swap1\n      tag_101\n      swap2\n      swap1\n      tag_95\n      jump\t// in\n    tag_101:\n      tag_102\n      jump\t// in\n    tag_100:\n      mload(0x40)\n      tag_103\n      swap2\n      swap1\n      tag_104\n      jump\t// in\n    tag_103:\n      mload(0x40)\n      dup1\n      swap2\n      sub\n      swap1\n      return\n        /* \"contracts/4_Product.sol\":3726:3834  function tokenBalance(address _addr) public view returns (uint256) {\r... */\n    tag_18:\n      callvalue\n      dup1\n      iszero\n      tag_105\n      jumpi\n      0x00\n      dup1\n      revert\n    tag_105:\n      pop\n      tag_106\n      0x04\n      dup1\n      calldatasize\n      sub\n      dup2\n      add\n      swap1\n      tag_107\n      swap2\n      swap1\n      tag_95\n      jump\t// in\n    tag_107:\n      tag_108\n      jump\t// in\n    tag_106:\n      mload(0x40)\n      tag_109\n      swap2\n      swap1\n      tag_104\n      jump\t// in\n    tag_109:\n      mload(0x40)\n      dup1\n      swap2\n      sub\n      swap1\n      return\n        /* \"contracts/4_Product.sol\":67:85  string public name */\n    tag_24:\n      0x00\n      dup1\n      sload\n      tag_110\n      swap1\n      tag_111\n      jump\t// in\n    tag_110:\n      dup1\n      0x1f\n      add\n      0x20\n      dup1\n      swap2\n      div\n      mul\n      0x20\n      add\n      mload(0x40)\n      swap1\n      dup2\n      add\n      0x40\n      mstore\n      dup1\n      swap3\n      swap2\n      swap1\n      dup2\n      dup2\n      mstore\n      0x20\n      add\n      dup3\n      dup1\n      sload\n      tag_112\n      swap1\n      tag_111\n      jump\t// in\n    tag_112:\n      dup1\n      iszero\n      tag_113\n      jumpi\n      dup1\n      0x1f\n      lt\n      tag_114\n      jumpi\n      0x0100\n      dup1\n      dup4\n      sload\n      div\n      mul\n      dup4\n      mstore\n      swap2\n      0x20\n      add\n      swap2\n      jump(tag_113)\n    tag_114:\n      dup3\n      add\n      swap2\n      swap1\n      0x00\n      mstore\n      keccak256(0x00, 0x20)\n      swap1\n    tag_115:\n      dup2\n      sload\n      dup2\n      mstore\n      swap1\n      0x01\n      add\n      swap1\n      0x20\n      add\n      dup1\n      dup4\n      gt\n      tag_115\n      jumpi\n      dup3\n      swap1\n      sub\n      0x1f\n      and\n      dup3\n      add\n      swap2\n    tag_113:\n      pop\n      pop\n      pop\n      pop\n      pop\n      dup2\n      jump\t// out\n        /* \"contracts/4_Product.sol\":4352:4606  function orderProduct(uint256 _amount, Details memory details) public OnlyTokenOwner {\r... */\n    tag_31:\n        /* \"contracts/4_Product.sol\":2721:2731  tokenOwner */\n      0x02\n      0x00\n      swap1\n      sload\n      swap1\n      0x0100\n      exp\n      swap1\n      div\n      0xffffffffffffffffffffffffffffffffffffffff\n      and\n        /* \"contracts/4_Product.sol\":2707:2731  msg.sender == tokenOwner */\n      0xffffffffffffffffffffffffffffffffffffffff\n      and\n        /* \"contracts/4_Product.sol\":2707:2717  msg.sender */\n      caller\n        /* \"contracts/4_Product.sol\":2707:2731  msg.sender == tokenOwner */\n      0xffffffffffffffffffffffffffffffffffffffff\n      and\n      eq\n        /* \"contracts/4_Product.sol\":2699:2766  require(msg.sender == tokenOwner, 'caller is not the token owner.') */\n      tag_117\n      jumpi\n      mload(0x40)\n      0x08c379a000000000000000000000000000000000000000000000000000000000\n      dup2\n      mstore\n      0x04\n      add\n      tag_118\n      swap1\n      tag_119\n      jump\t// in\n    tag_118:\n      mload(0x40)\n      dup1\n      swap2\n      sub\n      swap1\n      revert\n    tag_117:\n        /* \"contracts/4_Product.sol\":4464:4471  _amount */\n      dup2\n        /* \"contracts/4_Product.sol\":4448:4460  _totalSupply */\n      0x04\n      0x00\n        /* \"contracts/4_Product.sol\":4448:4471  _totalSupply += _amount */\n      dup3\n      dup3\n      sload\n      tag_121\n      swap2\n      swap1\n      tag_122\n      jump\t// in\n    tag_121:\n      swap3\n      pop\n      pop\n      dup2\n      swap1\n      sstore\n      pop\n        /* \"contracts/4_Product.sol\":4542:4549  _amount */\n      dup2\n        /* \"contracts/4_Product.sol\":4518:4526  balances */\n      0x05\n        /* \"contracts/4_Product.sol\":4518:4538  balances[msg.sender] */\n      0x00\n        /* \"contracts/4_Product.sol\":4527:4537  msg.sender */\n      caller\n        /* \"contracts/4_Product.sol\":4518:4538  balances[msg.sender] */\n      0xffffffffffffffffffffffffffffffffffffffff\n      and\n      0xffffffffffffffffffffffffffffffffffffffff\n      and\n      dup2\n      mstore\n      0x20\n      add\n      swap1\n      dup2\n      mstore\n      0x20\n      add\n      0x00\n      keccak256\n      0x00\n        /* \"contracts/4_Product.sol\":4518:4549  balances[msg.sender] += _amount */\n      dup3\n      dup3\n      sload\n      tag_123\n      swap2\n      swap1\n      tag_122\n      jump\t// in\n    tag_123:\n      swap3\n      pop\n      pop\n      dup2\n      swap1\n      sstore\n      pop\n        /* \"contracts/4_Product.sol\":4352:4606  function orderProduct(uint256 _amount, Details memory details) public OnlyTokenOwner {\r... */\n      pop\n      pop\n      jump\t// out\n        /* \"contracts/4_Product.sol\":6179:6438  function register(address _addr, Role _role, string memory _name) public {\r... */\n    tag_36:\n        /* \"contracts/4_Product.sol\":6263:6281  Actor memory actor */\n      0x00\n        /* \"contracts/4_Product.sol\":6284:6290  actors */\n      0x06\n        /* \"contracts/4_Product.sol\":6284:6297  actors[_addr] */\n      0x00\n        /* \"contracts/4_Product.sol\":6291:6296  _addr */\n      dup6\n        /* \"contracts/4_Product.sol\":6284:6297  actors[_addr] */\n      0xffffffffffffffffffffffffffffffffffffffff\n      and\n      0xffffffffffffffffffffffffffffffffffffffff\n      and\n      dup2\n      mstore\n      0x20\n      add\n      swap1\n      dup2\n      mstore\n      0x20\n      add\n      0x00\n      keccak256\n        /* \"contracts/4_Product.sol\":6263:6297  Actor memory actor = actors[_addr] */\n      mload(0x40)\n      dup1\n      0x60\n      add\n      0x40\n      mstore\n      swap1\n      dup2\n      0x00\n      dup3\n      add\n      0x00\n      swap1\n      sload\n      swap1\n      0x0100\n      exp\n      swap1\n      div\n      0xff\n      and\n      0x04\n      dup2\n      gt\n      iszero\n      tag_125\n      jumpi\n      tag_126\n      tag_127\n      jump\t// in\n    tag_126:\n    tag_125:\n      0x04\n      dup2\n      gt\n      iszero\n      tag_128\n      jumpi\n      tag_129\n      tag_127\n      jump\t// in\n    tag_129:\n    tag_128:\n      dup2\n      mstore\n      0x20\n      add\n      0x01\n      dup3\n      add\n      dup1\n      sload\n      tag_130\n      swap1\n      tag_111\n      jump\t// in\n    tag_130:\n      dup1\n      0x1f\n      add\n      0x20\n      dup1\n      swap2\n      div\n      mul\n      0x20\n      add\n      mload(0x40)\n      swap1\n      dup2\n      add\n      0x40\n      mstore\n      dup1\n      swap3\n      swap2\n      swap1\n      dup2\n      dup2\n      mstore\n      0x20\n      add\n      dup3\n      dup1\n      sload\n      tag_131\n      swap1\n      tag_111\n      jump\t// in\n    tag_131:\n      dup1\n      iszero\n      tag_132\n      jumpi\n      dup1\n      0x1f\n      lt\n      tag_133\n      jumpi\n      0x0100\n      dup1\n      dup4\n      sload\n      div\n      mul\n      dup4\n      mstore\n      swap2\n      0x20\n      add\n      swap2\n      jump(tag_132)\n    tag_133:\n      dup3\n      add\n      swap2\n      swap1\n      0x00\n      mstore\n      keccak256(0x00, 0x20)\n      swap1\n    tag_134:\n      dup2\n      sload\n      dup2\n      mstore\n      swap1\n      0x01\n      add\n      swap1\n      0x20\n      add\n      dup1\n      dup4\n      gt\n      tag_134\n      jumpi\n      dup3\n      swap1\n      sub\n      0x1f\n      and\n      dup3\n      add\n      swap2\n    tag_132:\n      pop\n      pop\n      pop\n      pop\n      pop\n      dup2\n      mstore\n      0x20\n      add\n      0x02\n      dup3\n      add\n      0x00\n      swap1\n      sload\n      swap1\n      0x0100\n      exp\n      swap1\n      div\n      0xff\n      and\n      iszero\n      iszero\n      iszero\n      iszero\n      dup2\n      mstore\n      pop\n      pop\n      swap1\n      pop\n        /* \"contracts/4_Product.sol\":6321:6326  _role */\n      dup3\n        /* \"contracts/4_Product.sol\":6308:6313  actor */\n      dup2\n        /* \"contracts/4_Product.sol\":6308:6318  actor.role */\n      0x00\n      add\n        /* \"contracts/4_Product.sol\":6308:6326  actor.role = _role */\n      swap1\n      0x04\n      dup2\n      gt\n      iszero\n      tag_135\n      jumpi\n      tag_136\n      tag_127\n      jump\t// in\n    tag_136:\n    tag_135:\n      swap1\n      dup2\n      0x04\n      dup2\n      gt\n      iszero\n      tag_137\n      jumpi\n      tag_138\n      tag_127\n      jump\t// in\n    tag_138:\n    tag_137:\n      dup2\n      mstore\n      pop\n      pop\n        /* \"contracts/4_Product.sol\":6350:6355  _name */\n      dup2\n        /* \"contracts/4_Product.sol\":6337:6342  actor */\n      dup2\n        /* \"contracts/4_Product.sol\":6337:6347  actor.name */\n      0x20\n      add\n        /* \"contracts/4_Product.sol\":6337:6355  actor.name = _name */\n      dup2\n      swap1\n      mstore\n      pop\n        /* \"contracts/4_Product.sol\":6384:6388  true */\n      0x01\n        /* \"contracts/4_Product.sol\":6366:6371  actor */\n      dup2\n        /* \"contracts/4_Product.sol\":6366:6381  actor.isDefined */\n      0x40\n      add\n        /* \"contracts/4_Product.sol\":6366:6388  actor.isDefined = true */\n      swap1\n      iszero\n      iszero\n      swap1\n      dup2\n      iszero\n      iszero\n      dup2\n      mstore\n      pop\n      pop\n        /* \"contracts/4_Product.sol\":6415:6420  actor */\n      dup1\n        /* \"contracts/4_Product.sol\":6399:6405  actors */\n      0x06\n        /* \"contracts/4_Product.sol\":6399:6412  actors[_addr] */\n      0x00\n        /* \"contracts/4_Product.sol\":6406:6411  _addr */\n      dup7\n        /* \"contracts/4_Product.sol\":6399:6412  actors[_addr] */\n      0xffffffffffffffffffffffffffffffffffffffff\n      and\n      0xffffffffffffffffffffffffffffffffffffffff\n      and\n      dup2\n      mstore\n      0x20\n      add\n      swap1\n      dup2\n      mstore\n      0x20\n      add\n      0x00\n      keccak256\n        /* \"contracts/4_Product.sol\":6399:6420  actors[_addr] = actor */\n      0x00\n      dup3\n      add\n      mload\n      dup2\n      0x00\n      add\n      exp(0x0100, 0x00)\n      dup2\n      sload\n      dup2\n      0xff\n      mul\n      not\n      and\n      swap1\n      dup4\n      0x04\n      dup2\n      gt\n      iszero\n      tag_139\n      jumpi\n      tag_140\n      tag_127\n      jump\t// in\n    tag_140:\n    tag_139:\n      mul\n      or\n      swap1\n      sstore\n      pop\n      0x20\n      dup3\n      add\n      mload\n      dup2\n      0x01\n      add\n      swap1\n      dup1\n      mload\n      swap1\n      0x20\n      add\n      swap1\n      tag_141\n      swap3\n      swap2\n      swap1\n      tag_142\n      jump\t// in\n    tag_141:\n      pop\n      0x40\n      dup3\n      add\n      mload\n      dup2\n      0x02\n      add\n      exp(0x0100, 0x00)\n      dup2\n      sload\n      dup2\n      0xff\n      mul\n      not\n      and\n      swap1\n      dup4\n      iszero\n      iszero\n      mul\n      or\n      swap1\n      sstore\n      pop\n      swap1\n      pop\n      pop\n        /* \"contracts/4_Product.sol\":6252:6438  {\r... */\n      pop\n        /* \"contracts/4_Product.sol\":6179:6438  function register(address _addr, Role _role, string memory _name) public {\r... */\n      pop\n      pop\n      pop\n      jump\t// out\n        /* \"contracts/4_Product.sol\":359:399  mapping(uint256 => int256) public tokens */\n    tag_41:\n      mstore(0x20, 0x03)\n      dup1\n      0x00\n      mstore\n      keccak256(0x00, 0x40)\n      0x00\n      swap2\n      pop\n      swap1\n      pop\n      sload\n      dup2\n      jump\t// out\n        /* \"contracts/4_Product.sol\":7628:8278  function buyProduct(uint256 _id, uint256 _timestamp) public OnlyDistributor{\r... */\n    tag_48:\n        /* \"contracts/4_Product.sol\":3016:3032  Role.Distributor */\n      0x01\n        /* \"contracts/4_Product.sol\":2989:3032  actors[msg.sender].role == Role.Distributor */\n      0x04\n      dup2\n      gt\n      iszero\n      tag_144\n      jumpi\n      tag_145\n      tag_127\n      jump\t// in\n    tag_145:\n    tag_144:\n        /* \"contracts/4_Product.sol\":2989:2995  actors */\n      0x06\n        /* \"contracts/4_Product.sol\":2989:3007  actors[msg.sender] */\n      0x00\n        /* \"contracts/4_Product.sol\":2996:3006  msg.sender */\n      caller\n        /* \"contracts/4_Product.sol\":2989:3007  actors[msg.sender] */\n      0xffffffffffffffffffffffffffffffffffffffff\n      and\n      0xffffffffffffffffffffffffffffffffffffffff\n      and\n      dup2\n      mstore\n      0x20\n      add\n      swap1\n      dup2\n      mstore\n      0x20\n      add\n      0x00\n      keccak256\n        /* \"contracts/4_Product.sol\":2989:3012  actors[msg.sender].role */\n      0x00\n      add\n      0x00\n      swap1\n      sload\n      swap1\n      0x0100\n      exp\n      swap1\n      div\n      0xff\n      and\n        /* \"contracts/4_Product.sol\":2989:3032  actors[msg.sender].role == Role.Distributor */\n      0x04\n      dup2\n      gt\n      iszero\n      tag_146\n      jumpi\n      tag_147\n      tag_127\n      jump\t// in\n    tag_147:\n    tag_146:\n      eq\n        /* \"contracts/4_Product.sol\":2981:3065  require(actors[msg.sender].role == Role.Distributor, 'caller is not a distributor.') */\n      tag_148\n      jumpi\n      mload(0x40)\n      0x08c379a000000000000000000000000000000000000000000000000000000000\n      dup2\n      mstore\n      0x04\n      add\n      tag_149\n      swap1\n      tag_150\n      jump\t// in\n    tag_149:\n      mload(0x40)\n      dup1\n      swap2\n      sub\n      swap1\n      revert\n    tag_148:\n        /* \"contracts/4_Product.sol\":7714:7743  Product storage boughtProduct */\n      0x00\n        /* \"contracts/4_Product.sol\":7746:7753  product */\n      0x07\n        /* \"contracts/4_Product.sol\":7746:7758  product[_id] */\n      0x00\n        /* \"contracts/4_Product.sol\":7754:7757  _id */\n      dup5\n        /* \"contracts/4_Product.sol\":7746:7758  product[_id] */\n      dup2\n      mstore\n      0x20\n      add\n      swap1\n      dup2\n      mstore\n      0x20\n      add\n      0x00\n      keccak256\n        /* \"contracts/4_Product.sol\":7714:7758  Product storage boughtProduct = product[_id] */\n      swap1\n      pop\n        /* \"contracts/4_Product.sol\":7769:7788  uint256 tokenNumber */\n      0x00\n        /* \"contracts/4_Product.sol\":7791:7799  balances */\n      0x05\n        /* \"contracts/4_Product.sol\":7791:7811  balances[msg.sender] */\n      0x00\n        /* \"contracts/4_Product.sol\":7800:7810  msg.sender */\n      caller\n        /* \"contracts/4_Product.sol\":7791:7811  balances[msg.sender] */\n      0xffffffffffffffffffffffffffffffffffffffff\n      and\n      0xffffffffffffffffffffffffffffffffffffffff\n      and\n      dup2\n      mstore\n      0x20\n      add\n      swap1\n      dup2\n      mstore\n      0x20\n      add\n      0x00\n      keccak256\n      sload\n        /* \"contracts/4_Product.sol\":7769:7811  uint256 tokenNumber = balances[msg.sender] */\n      swap1\n      pop\n        /* \"contracts/4_Product.sol\":7845:7858  boughtProduct */\n      dup2\n        /* \"contracts/4_Product.sol\":7845:7871  boughtProduct.productPrice */\n      0x0a\n      add\n      sload\n        /* \"contracts/4_Product.sol\":7830:7841  tokenNumber */\n      dup2\n        /* \"contracts/4_Product.sol\":7830:7871  tokenNumber >= boughtProduct.productPrice */\n      lt\n      iszero\n        /* \"contracts/4_Product.sol\":7822:7872  require(tokenNumber >= boughtProduct.productPrice) */\n      tag_152\n      jumpi\n      0x00\n      dup1\n      revert\n    tag_152:\n        /* \"contracts/4_Product.sol\":7921:7935  State.Produced */\n      0x01\n        /* \"contracts/4_Product.sol\":7891:7935  boughtProduct.productState == State.Produced */\n      0x05\n      dup2\n      gt\n      iszero\n      tag_153\n      jumpi\n      tag_154\n      tag_127\n      jump\t// in\n    tag_154:\n    tag_153:\n        /* \"contracts/4_Product.sol\":7891:7904  boughtProduct */\n      dup3\n        /* \"contracts/4_Product.sol\":7891:7917  boughtProduct.productState */\n      0x09\n      add\n      0x00\n      swap1\n      sload\n      swap1\n      0x0100\n      exp\n      swap1\n      div\n      0xff\n      and\n        /* \"contracts/4_Product.sol\":7891:7935  boughtProduct.productState == State.Produced */\n      0x05\n      dup2\n      gt\n      iszero\n      tag_155\n      jumpi\n      tag_156\n      tag_127\n      jump\t// in\n    tag_156:\n    tag_155:\n      eq\n        /* \"contracts/4_Product.sol\":7883:7936  require(boughtProduct.productState == State.Produced) */\n      tag_157\n      jumpi\n      0x00\n      dup1\n      revert\n    tag_157:\n        /* \"contracts/4_Product.sol\":7985:7995  _timestamp */\n      dup3\n        /* \"contracts/4_Product.sol\":7957:7964  product */\n      0x07\n        /* \"contracts/4_Product.sol\":7957:7969  product[_id] */\n      0x00\n        /* \"contracts/4_Product.sol\":7965:7968  _id */\n      dup7\n        /* \"contracts/4_Product.sol\":7957:7969  product[_id] */\n      dup2\n      mstore\n      0x20\n      add\n      swap1\n      dup2\n      mstore\n      0x20\n      add\n      0x00\n      keccak256\n        /* \"contracts/4_Product.sol\":7957:7979  product[_id].timestamp */\n      0x03\n      add\n        /* \"contracts/4_Product.sol\":7980:7981  1 */\n      0x01\n        /* \"contracts/4_Product.sol\":7957:7982  product[_id].timestamp[1] */\n      0x06\n      dup2\n      lt\n      tag_158\n      jumpi\n      tag_159\n      tag_160\n      jump\t// in\n    tag_159:\n    tag_158:\n      add\n        /* \"contracts/4_Product.sol\":7957:7995  product[_id].timestamp[1] = _timestamp */\n      dup2\n      swap1\n      sstore\n      pop\n        /* \"contracts/4_Product.sol\":8072:8082  msg.sender */\n      caller\n        /* \"contracts/4_Product.sol\":8043:8050  product */\n      0x07\n        /* \"contracts/4_Product.sol\":8043:8055  product[_id] */\n      0x00\n        /* \"contracts/4_Product.sol\":8051:8054  _id */\n      dup7\n        /* \"contracts/4_Product.sol\":8043:8055  product[_id] */\n      dup2\n      mstore\n      0x20\n      add\n      swap1\n      dup2\n      mstore\n      0x20\n      add\n      0x00\n      keccak256\n        /* \"contracts/4_Product.sol\":8043:8069  product[_id].distributorID */\n      0x0b\n      add\n      0x00\n        /* \"contracts/4_Product.sol\":8043:8082  product[_id].distributorID = msg.sender */\n      0x0100\n      exp\n      dup2\n      sload\n      dup2\n      0xffffffffffffffffffffffffffffffffffffffff\n      mul\n      not\n      and\n      swap1\n      dup4\n      0xffffffffffffffffffffffffffffffffffffffff\n      and\n      mul\n      or\n      swap1\n      sstore\n      pop\n        /* \"contracts/4_Product.sol\":8098:8160  tokenTransfer(product[_id].ownerID,boughtProduct.productPrice) */\n      tag_162\n        /* \"contracts/4_Product.sol\":8112:8119  product */\n      0x07\n        /* \"contracts/4_Product.sol\":8112:8124  product[_id] */\n      0x00\n        /* \"contracts/4_Product.sol\":8120:8123  _id */\n      dup7\n        /* \"contracts/4_Product.sol\":8112:8124  product[_id] */\n      dup2\n      mstore\n      0x20\n      add\n      swap1\n      dup2\n      mstore\n      0x20\n      add\n      0x00\n      keccak256\n        /* \"contracts/4_Product.sol\":8112:8132  product[_id].ownerID */\n      0x01\n      add\n      0x00\n      swap1\n      sload\n      swap1\n      0x0100\n      exp\n      swap1\n      div\n      0xffffffffffffffffffffffffffffffffffffffff\n      and\n        /* \"contracts/4_Product.sol\":8133:8146  boughtProduct */\n      dup4\n        /* \"contracts/4_Product.sol\":8133:8159  boughtProduct.productPrice */\n      0x0a\n      add\n      sload\n        /* \"contracts/4_Product.sol\":8098:8111  tokenTransfer */\n      tag_64\n        /* \"contracts/4_Product.sol\":8098:8160  tokenTransfer(product[_id].ownerID,boughtProduct.productPrice) */\n      jump\t// in\n    tag_162:\n      pop\n        /* \"contracts/4_Product.sol\":8200:8215  State.Purchased */\n      0x05\n        /* \"contracts/4_Product.sol\":8172:8179  product */\n      0x07\n        /* \"contracts/4_Product.sol\":8172:8184  product[_id] */\n      0x00\n        /* \"contracts/4_Product.sol\":8180:8183  _id */\n      dup7\n        /* \"contracts/4_Product.sol\":8172:8184  product[_id] */\n      dup2\n      mstore\n      0x20\n      add\n      swap1\n      dup2\n      mstore\n      0x20\n      add\n      0x00\n      keccak256\n        /* \"contracts/4_Product.sol\":8172:8197  product[_id].productState */\n      0x09\n      add\n      0x00\n        /* \"contracts/4_Product.sol\":8172:8215  product[_id].productState = State.Purchased */\n      0x0100\n      exp\n      dup2\n      sload\n      dup2\n      0xff\n      mul\n      not\n      and\n      swap1\n      dup4\n      0x05\n      dup2\n      gt\n      iszero\n      tag_163\n      jumpi\n      tag_164\n      tag_127\n      jump\t// in\n    tag_164:\n    tag_163:\n      mul\n      or\n      swap1\n      sstore\n      pop\n        /* \"contracts/4_Product.sol\":8250:8260  msg.sender */\n      caller\n        /* \"contracts/4_Product.sol\":8227:8234  product */\n      0x07\n        /* \"contracts/4_Product.sol\":8227:8239  product[_id] */\n      0x00\n        /* \"contracts/4_Product.sol\":8235:8238  _id */\n      dup7\n        /* \"contracts/4_Product.sol\":8227:8239  product[_id] */\n      dup2\n      mstore\n      0x20\n      add\n      swap1\n      dup2\n      mstore\n      0x20\n      add\n      0x00\n      keccak256\n        /* \"contracts/4_Product.sol\":8227:8247  product[_id].ownerID */\n      0x01\n      add\n      0x00\n        /* \"contracts/4_Product.sol\":8227:8260  product[_id].ownerID = msg.sender */\n      0x0100\n      exp\n      dup2\n      sload\n      dup2\n      0xffffffffffffffffffffffffffffffffffffffff\n      mul\n      not\n      and\n      swap1\n      dup4\n      0xffffffffffffffffffffffffffffffffffffffff\n      and\n      mul\n      or\n      swap1\n      sstore\n      pop\n        /* \"contracts/4_Product.sol\":7703:8278  {\r... */\n      pop\n      pop\n        /* \"contracts/4_Product.sol\":7628:8278  function buyProduct(uint256 _id, uint256 _timestamp) public OnlyDistributor{\r... */\n      pop\n      pop\n      jump\t// out\n        /* \"contracts/4_Product.sol\":6557:7581  function produceProduct(uint256 _id, uint256 _timestamp, uint256 _price, string memory _name, string memory _brand, string memory _size, string memory _weight, string memory _length ,string memory _width ,string memory _height) public OnlyProducer{\r... */\n    tag_53:\n        /* \"contracts/4_Product.sol\":2868:2881  Role.Producer */\n      0x00\n        /* \"contracts/4_Product.sol\":2841:2881  actors[msg.sender].role == Role.Producer */\n      0x04\n      dup2\n      gt\n      iszero\n      tag_166\n      jumpi\n      tag_167\n      tag_127\n      jump\t// in\n    tag_167:\n    tag_166:\n        /* \"contracts/4_Product.sol\":2841:2847  actors */\n      0x06\n        /* \"contracts/4_Product.sol\":2841:2859  actors[msg.sender] */\n      0x00\n        /* \"contracts/4_Product.sol\":2848:2858  msg.sender */\n      caller\n        /* \"contracts/4_Product.sol\":2841:2859  actors[msg.sender] */\n      0xffffffffffffffffffffffffffffffffffffffff\n      and\n      0xffffffffffffffffffffffffffffffffffffffff\n      and\n      dup2\n      mstore\n      0x20\n      add\n      swap1\n      dup2\n      mstore\n      0x20\n      add\n      0x00\n      keccak256\n        /* \"contracts/4_Product.sol\":2841:2864  actors[msg.sender].role */\n      0x00\n      add\n      0x00\n      swap1\n      sload\n      swap1\n      0x0100\n      exp\n      swap1\n      div\n      0xff\n      and\n        /* \"contracts/4_Product.sol\":2841:2881  actors[msg.sender].role == Role.Producer */\n      0x04\n      dup2\n      gt\n      iszero\n      tag_168\n      jumpi\n      tag_169\n      tag_127\n      jump\t// in\n    tag_169:\n    tag_168:\n      eq\n        /* \"contracts/4_Product.sol\":2833:2910  require(actors[msg.sender].role == Role.Producer,'caller is not a producer.') */\n      tag_170\n      jumpi\n      mload(0x40)\n      0x08c379a000000000000000000000000000000000000000000000000000000000\n      dup2\n      mstore\n      0x04\n      add\n      tag_171\n      swap1\n      tag_172\n      jump\t// in\n    tag_171:\n      mload(0x40)\n      dup1\n      swap2\n      sub\n      swap1\n      revert\n    tag_170:\n        /* \"contracts/4_Product.sol\":6815:6841  Product storage newProduct */\n      0x00\n        /* \"contracts/4_Product.sol\":6844:6851  product */\n      0x07\n        /* \"contracts/4_Product.sol\":6844:6856  product[_id] */\n      0x00\n        /* \"contracts/4_Product.sol\":6852:6855  _id */\n      dup13\n        /* \"contracts/4_Product.sol\":6844:6856  product[_id] */\n      dup2\n      mstore\n      0x20\n      add\n      swap1\n      dup2\n      mstore\n      0x20\n      add\n      0x00\n      keccak256\n        /* \"contracts/4_Product.sol\":6815:6856  Product storage newProduct = product[_id] */\n      swap1\n      pop\n        /* \"contracts/4_Product.sol\":6883:6886  _id */\n      dup11\n        /* \"contracts/4_Product.sol\":6867:6877  newProduct */\n      dup2\n        /* \"contracts/4_Product.sol\":6867:6880  newProduct.ID */\n      0x00\n      add\n        /* \"contracts/4_Product.sol\":6867:6886  newProduct.ID = _id */\n      dup2\n      swap1\n      sstore\n      pop\n        /* \"contracts/4_Product.sol\":6918:6928  msg.sender */\n      caller\n        /* \"contracts/4_Product.sol\":6897:6907  newProduct */\n      dup2\n        /* \"contracts/4_Product.sol\":6897:6915  newProduct.ownerID */\n      0x01\n      add\n      0x00\n        /* \"contracts/4_Product.sol\":6897:6928  newProduct.ownerID = msg.sender */\n      0x0100\n      exp\n      dup2\n      sload\n      dup2\n      0xffffffffffffffffffffffffffffffffffffffff\n      mul\n      not\n      and\n      swap1\n      dup4\n      0xffffffffffffffffffffffffffffffffffffffff\n      and\n      mul\n      or\n      swap1\n      sstore\n      pop\n        /* \"contracts/4_Product.sol\":6963:6973  msg.sender */\n      caller\n        /* \"contracts/4_Product.sol\":6939:6949  newProduct */\n      dup2\n        /* \"contracts/4_Product.sol\":6939:6960  newProduct.producerID */\n      0x02\n      add\n      0x00\n        /* \"contracts/4_Product.sol\":6939:6973  newProduct.producerID = msg.sender */\n      0x0100\n      exp\n      dup2\n      sload\n      dup2\n      0xffffffffffffffffffffffffffffffffffffffff\n      mul\n      not\n      and\n      swap1\n      dup4\n      0xffffffffffffffffffffffffffffffffffffffff\n      and\n      mul\n      or\n      swap1\n      sstore\n      pop\n        /* \"contracts/4_Product.sol\":7010:7020  _timestamp */\n      dup10\n        /* \"contracts/4_Product.sol\":6984:6994  newProduct */\n      dup2\n        /* \"contracts/4_Product.sol\":6984:7004  newProduct.timestamp */\n      0x03\n      add\n        /* \"contracts/4_Product.sol\":7005:7006  0 */\n      0x00\n        /* \"contracts/4_Product.sol\":6984:7007  newProduct.timestamp[0] */\n      0x06\n      dup2\n      lt\n      tag_174\n      jumpi\n      tag_175\n      tag_160\n      jump\t// in\n    tag_175:\n    tag_174:\n      add\n        /* \"contracts/4_Product.sol\":6984:7020  newProduct.timestamp[0] = _timestamp */\n      dup2\n      swap1\n      sstore\n      pop\n        /* \"contracts/4_Product.sol\":7064:7078  State.Produced */\n      0x01\n        /* \"contracts/4_Product.sol\":7039:7049  newProduct */\n      dup2\n        /* \"contracts/4_Product.sol\":7039:7062  newProduct.productState */\n      0x09\n      add\n      0x00\n        /* \"contracts/4_Product.sol\":7039:7078  newProduct.productState= State.Produced */\n      0x0100\n      exp\n      dup2\n      sload\n      dup2\n      0xff\n      mul\n      not\n      and\n      swap1\n      dup4\n      0x05\n      dup2\n      gt\n      iszero\n      tag_177\n      jumpi\n      tag_178\n      tag_127\n      jump\t// in\n    tag_178:\n    tag_177:\n      mul\n      or\n      swap1\n      sstore\n      pop\n        /* \"contracts/4_Product.sol\":7121:7127  _price */\n      dup9\n        /* \"contracts/4_Product.sol\":7097:7107  newProduct */\n      dup2\n        /* \"contracts/4_Product.sol\":7097:7120  newProduct.productPrice */\n      0x0a\n      add\n        /* \"contracts/4_Product.sol\":7097:7127  newProduct.productPrice=_price */\n      dup2\n      swap1\n      sstore\n      pop\n        /* \"contracts/4_Product.sol\":7172:7173  0 */\n      0x00\n        /* \"contracts/4_Product.sol\":7139:7149  newProduct */\n      dup2\n        /* \"contracts/4_Product.sol\":7139:7163  newProduct.distributorID */\n      0x0b\n      add\n      0x00\n        /* \"contracts/4_Product.sol\":7139:7174  newProduct.distributorID=address(0) */\n      0x0100\n      exp\n      dup2\n      sload\n      dup2\n      0xffffffffffffffffffffffffffffffffffffffff\n      mul\n      not\n      and\n      swap1\n      dup4\n      0xffffffffffffffffffffffffffffffffffffffff\n      and\n      mul\n      or\n      swap1\n      sstore\n      pop\n        /* \"contracts/4_Product.sol\":7215:7216  0 */\n      0x00\n        /* \"contracts/4_Product.sol\":7185:7195  newProduct */\n      dup2\n        /* \"contracts/4_Product.sol\":7185:7206  newProduct.retailerID */\n      0x0c\n      add\n      0x00\n        /* \"contracts/4_Product.sol\":7185:7217  newProduct.retailerID=address(0) */\n      0x0100\n      exp\n      dup2\n      sload\n      dup2\n      0xffffffffffffffffffffffffffffffffffffffff\n      mul\n      not\n      and\n      swap1\n      dup4\n      0xffffffffffffffffffffffffffffffffffffffff\n      and\n      mul\n      or\n      swap1\n      sstore\n      pop\n        /* \"contracts/4_Product.sol\":7258:7259  0 */\n      0x00\n        /* \"contracts/4_Product.sol\":7228:7238  newProduct */\n      dup2\n        /* \"contracts/4_Product.sol\":7228:7249  newProduct.consumerID */\n      0x0d\n      add\n      0x00\n        /* \"contracts/4_Product.sol\":7228:7260  newProduct.consumerID=address(0) */\n      0x0100\n      exp\n      dup2\n      sload\n      dup2\n      0xffffffffffffffffffffffffffffffffffffffff\n      mul\n      not\n      and\n      swap1\n      dup4\n      0xffffffffffffffffffffffffffffffffffffffff\n      and\n      mul\n      or\n      swap1\n      sstore\n      pop\n        /* \"contracts/4_Product.sol\":7297:7302  _name */\n      dup8\n        /* \"contracts/4_Product.sol\":7271:7281  newProduct */\n      dup2\n        /* \"contracts/4_Product.sol\":7271:7289  newProduct.details */\n      0x0e\n      add\n        /* \"contracts/4_Product.sol\":7271:7294  newProduct.details.name */\n      0x00\n      add\n        /* \"contracts/4_Product.sol\":7271:7302  newProduct.details.name = _name */\n      swap1\n      dup1\n      mload\n      swap1\n      0x20\n      add\n      swap1\n      tag_179\n      swap3\n      swap2\n      swap1\n      tag_142\n      jump\t// in\n    tag_179:\n      pop\n        /* \"contracts/4_Product.sol\":7339:7345  _brand */\n      dup7\n        /* \"contracts/4_Product.sol\":7313:7323  newProduct */\n      dup2\n        /* \"contracts/4_Product.sol\":7313:7331  newProduct.details */\n      0x0e\n      add\n        /* \"contracts/4_Product.sol\":7313:7337  newProduct.details.brand */\n      0x01\n      add\n        /* \"contracts/4_Product.sol\":7313:7345  newProduct.details.brand= _brand */\n      swap1\n      dup1\n      mload\n      swap1\n      0x20\n      add\n      swap1\n      tag_180\n      swap3\n      swap2\n      swap1\n      tag_142\n      jump\t// in\n    tag_180:\n      pop\n        /* \"contracts/4_Product.sol\":7382:7387  _size */\n      dup6\n        /* \"contracts/4_Product.sol\":7356:7366  newProduct */\n      dup2\n        /* \"contracts/4_Product.sol\":7356:7374  newProduct.details */\n      0x0e\n      add\n        /* \"contracts/4_Product.sol\":7356:7379  newProduct.details.size */\n      0x02\n      add\n        /* \"contracts/4_Product.sol\":7356:7387  newProduct.details.size = _size */\n      swap1\n      dup1\n      mload\n      swap1\n      0x20\n      add\n      swap1\n      tag_181\n      swap3\n      swap2\n      swap1\n      tag_142\n      jump\t// in\n    tag_181:\n      pop\n        /* \"contracts/4_Product.sol\":7426:7433  _weight */\n      dup5\n        /* \"contracts/4_Product.sol\":7398:7408  newProduct */\n      dup2\n        /* \"contracts/4_Product.sol\":7398:7416  newProduct.details */\n      0x0e\n      add\n        /* \"contracts/4_Product.sol\":7398:7423  newProduct.details.weight */\n      0x03\n      add\n        /* \"contracts/4_Product.sol\":7398:7433  newProduct.details.weight = _weight */\n      swap1\n      dup1\n      mload\n      swap1\n      0x20\n      add\n      swap1\n      tag_182\n      swap3\n      swap2\n      swap1\n      tag_142\n      jump\t// in\n    tag_182:\n      pop\n        /* \"contracts/4_Product.sol\":7472:7479  _length */\n      dup4\n        /* \"contracts/4_Product.sol\":7444:7454  newProduct */\n      dup2\n        /* \"contracts/4_Product.sol\":7444:7462  newProduct.details */\n      0x0e\n      add\n        /* \"contracts/4_Product.sol\":7444:7469  newProduct.details.length */\n      0x04\n      add\n        /* \"contracts/4_Product.sol\":7444:7479  newProduct.details.length = _length */\n      swap1\n      dup1\n      mload\n      swap1\n      0x20\n      add\n      swap1\n      tag_183\n      swap3\n      swap2\n      swap1\n      tag_142\n      jump\t// in\n    tag_183:\n      pop\n        /* \"contracts/4_Product.sol\":7519:7525  _width */\n      dup3\n        /* \"contracts/4_Product.sol\":7492:7502  newProduct */\n      dup2\n        /* \"contracts/4_Product.sol\":7492:7510  newProduct.details */\n      0x0e\n      add\n        /* \"contracts/4_Product.sol\":7492:7516  newProduct.details.width */\n      0x05\n      add\n        /* \"contracts/4_Product.sol\":7492:7525  newProduct.details.width = _width */\n      swap1\n      dup1\n      mload\n      swap1\n      0x20\n      add\n      swap1\n      tag_184\n      swap3\n      swap2\n      swap1\n      tag_142\n      jump\t// in\n    tag_184:\n      pop\n        /* \"contracts/4_Product.sol\":7566:7573  _height */\n      dup2\n        /* \"contracts/4_Product.sol\":7538:7548  newProduct */\n      dup2\n        /* \"contracts/4_Product.sol\":7538:7556  newProduct.details */\n      0x0e\n      add\n        /* \"contracts/4_Product.sol\":7538:7563  newProduct.details.height */\n      0x06\n      add\n        /* \"contracts/4_Product.sol\":7538:7573  newProduct.details.height = _height */\n      swap1\n      dup1\n      mload\n      swap1\n      0x20\n      add\n      swap1\n      tag_185\n      swap3\n      swap2\n      swap1\n      tag_142\n      jump\t// in\n    tag_185:\n      pop\n        /* \"contracts/4_Product.sol\":6804:7581  {\r... */\n      pop\n        /* \"contracts/4_Product.sol\":6557:7581  function produceProduct(uint256 _id, uint256 _timestamp, uint256 _price, string memory _name, string memory _brand, string memory _size, string memory _weight, string memory _length ,string memory _width ,string memory _height) public OnlyProducer{\r... */\n      pop\n      pop\n      pop\n      pop\n      pop\n      pop\n      pop\n      pop\n      pop\n      pop\n      jump\t// out\n        /* \"contracts/4_Product.sol\":9239:10335  function getProductDetails(uint256 _id) public view returns \r... */\n    tag_57:\n        /* \"contracts/4_Product.sol\":9316:9334  uint256 product_id */\n      0x00\n        /* \"contracts/4_Product.sol\":9371:9387  address owner_id */\n      dup1\n        /* \"contracts/4_Product.sol\":9464:9489  State currentProductState */\n      0x00\n        /* \"contracts/4_Product.sol\":9500:9520  uint256 productPrice */\n      dup1\n        /* \"contracts/4_Product.sol\":9534:9560  string memory product_name */\n      0x60\n        /* \"contracts/4_Product.sol\":9571:9598  string memory product_brand */\n      dup1\n        /* \"contracts/4_Product.sol\":9609:9635  string memory product_size */\n      0x60\n        /* \"contracts/4_Product.sol\":9646:9674  string memory product_weight */\n      dup1\n        /* \"contracts/4_Product.sol\":9685:9713  string memory product_length */\n      0x60\n        /* \"contracts/4_Product.sol\":9726:9753  string memory product_width */\n      dup1\n        /* \"contracts/4_Product.sol\":9766:9794  string memory product_height */\n      0x60\n        /* \"contracts/4_Product.sol\":9833:9840  product */\n      0x07\n        /* \"contracts/4_Product.sol\":9833:9845  product[_id] */\n      0x00\n        /* \"contracts/4_Product.sol\":9841:9844  _id */\n      dup14\n        /* \"contracts/4_Product.sol\":9833:9845  product[_id] */\n      dup2\n      mstore\n      0x20\n      add\n      swap1\n      dup2\n      mstore\n      0x20\n      add\n      0x00\n      keccak256\n        /* \"contracts/4_Product.sol\":9833:9848  product[_id].ID */\n      0x00\n      add\n      sload\n        /* \"contracts/4_Product.sol\":9820:9848  product_id = product[_id].ID */\n      swap11\n      pop\n        /* \"contracts/4_Product.sol\":9867:9874  product */\n      0x07\n        /* \"contracts/4_Product.sol\":9867:9879  product[_id] */\n      0x00\n        /* \"contracts/4_Product.sol\":9875:9878  _id */\n      dup14\n        /* \"contracts/4_Product.sol\":9867:9879  product[_id] */\n      dup2\n      mstore\n      0x20\n      add\n      swap1\n      dup2\n      mstore\n      0x20\n      add\n      0x00\n      keccak256\n        /* \"contracts/4_Product.sol\":9867:9887  product[_id].ownerID */\n      0x01\n      add\n      0x00\n      swap1\n      sload\n      swap1\n      0x0100\n      exp\n      swap1\n      div\n      0xffffffffffffffffffffffffffffffffffffffff\n      and\n        /* \"contracts/4_Product.sol\":9856:9887  owner_id = product[_id].ownerID */\n      swap10\n      pop\n        /* \"contracts/4_Product.sol\":9918:9925  product */\n      0x07\n        /* \"contracts/4_Product.sol\":9918:9930  product[_id] */\n      0x00\n        /* \"contracts/4_Product.sol\":9926:9929  _id */\n      dup14\n        /* \"contracts/4_Product.sol\":9918:9930  product[_id] */\n      dup2\n      mstore\n      0x20\n      add\n      swap1\n      dup2\n      mstore\n      0x20\n      add\n      0x00\n      keccak256\n        /* \"contracts/4_Product.sol\":9918:9943  product[_id].productState */\n      0x09\n      add\n      0x00\n      swap1\n      sload\n      swap1\n      0x0100\n      exp\n      swap1\n      div\n      0xff\n      and\n        /* \"contracts/4_Product.sol\":9896:9943  currentProductState = product[_id].productState */\n      swap9\n      pop\n        /* \"contracts/4_Product.sol\":9965:9972  product */\n      0x07\n        /* \"contracts/4_Product.sol\":9965:9977  product[_id] */\n      0x00\n        /* \"contracts/4_Product.sol\":9973:9976  _id */\n      dup14\n        /* \"contracts/4_Product.sol\":9965:9977  product[_id] */\n      dup2\n      mstore\n      0x20\n      add\n      swap1\n      dup2\n      mstore\n      0x20\n      add\n      0x00\n      keccak256\n        /* \"contracts/4_Product.sol\":9965:9990  product[_id].productPrice */\n      0x0a\n      add\n      sload\n        /* \"contracts/4_Product.sol\":9950:9990  productPrice = product[_id].productPrice */\n      swap8\n      pop\n        /* \"contracts/4_Product.sol\":10012:10019  product */\n      0x07\n        /* \"contracts/4_Product.sol\":10012:10024  product[_id] */\n      0x00\n        /* \"contracts/4_Product.sol\":10020:10023  _id */\n      dup14\n        /* \"contracts/4_Product.sol\":10012:10024  product[_id] */\n      dup2\n      mstore\n      0x20\n      add\n      swap1\n      dup2\n      mstore\n      0x20\n      add\n      0x00\n      keccak256\n        /* \"contracts/4_Product.sol\":10012:10032  product[_id].details */\n      0x0e\n      add\n        /* \"contracts/4_Product.sol\":10012:10037  product[_id].details.name */\n      0x00\n      add\n        /* \"contracts/4_Product.sol\":9997:10037  product_name = product[_id].details.name */\n      dup1\n      sload\n      tag_187\n      swap1\n      tag_111\n      jump\t// in\n    tag_187:\n      dup1\n      0x1f\n      add\n      0x20\n      dup1\n      swap2\n      div\n      mul\n      0x20\n      add\n      mload(0x40)\n      swap1\n      dup2\n      add\n      0x40\n      mstore\n      dup1\n      swap3\n      swap2\n      swap1\n      dup2\n      dup2\n      mstore\n      0x20\n      add\n      dup3\n      dup1\n      sload\n      tag_188\n      swap1\n      tag_111\n      jump\t// in\n    tag_188:\n      dup1\n      iszero\n      tag_189\n      jumpi\n      dup1\n      0x1f\n      lt\n      tag_190\n      jumpi\n      0x0100\n      dup1\n      dup4\n      sload\n      div\n      mul\n      dup4\n      mstore\n      swap2\n      0x20\n      add\n      swap2\n      jump(tag_189)\n    tag_190:\n      dup3\n      add\n      swap2\n      swap1\n      0x00\n      mstore\n      keccak256(0x00, 0x20)\n      swap1\n    tag_191:\n      dup2\n      sload\n      dup2\n      mstore\n      swap1\n      0x01\n      add\n      swap1\n      0x20\n      add\n      dup1\n      dup4\n      gt\n      tag_191\n      jumpi\n      dup3\n      swap1\n      sub\n      0x1f\n      and\n      dup3\n      add\n      swap2\n    tag_189:\n      pop\n      pop\n      pop\n      pop\n      pop\n      swap7\n      pop\n        /* \"contracts/4_Product.sol\":10059:10066  product */\n      0x07\n        /* \"contracts/4_Product.sol\":10059:10071  product[_id] */\n      0x00\n        /* \"contracts/4_Product.sol\":10067:10070  _id */\n      dup14\n        /* \"contracts/4_Product.sol\":10059:10071  product[_id] */\n      dup2\n      mstore\n      0x20\n      add\n      swap1\n      dup2\n      mstore\n      0x20\n      add\n      0x00\n      keccak256\n        /* \"contracts/4_Product.sol\":10059:10079  product[_id].details */\n      0x0e\n      add\n        /* \"contracts/4_Product.sol\":10059:10085  product[_id].details.brand */\n      0x01\n      add\n        /* \"contracts/4_Product.sol\":10044:10085  product_brand= product[_id].details.brand */\n      dup1\n      sload\n      tag_192\n      swap1\n      tag_111\n      jump\t// in\n    tag_192:\n      dup1\n      0x1f\n      add\n      0x20\n      dup1\n      swap2\n      div\n      mul\n      0x20\n      add\n      mload(0x40)\n      swap1\n      dup2\n      add\n      0x40\n      mstore\n      dup1\n      swap3\n      swap2\n      swap1\n      dup2\n      dup2\n      mstore\n      0x20\n      add\n      dup3\n      dup1\n      sload\n      tag_193\n      swap1\n      tag_111\n      jump\t// in\n    tag_193:\n      dup1\n      iszero\n      tag_194\n      jumpi\n      dup1\n      0x1f\n      lt\n      tag_195\n      jumpi\n      0x0100\n      dup1\n      dup4\n      sload\n      div\n      mul\n      dup4\n      mstore\n      swap2\n      0x20\n      add\n      swap2\n      jump(tag_194)\n    tag_195:\n      dup3\n      add\n      swap2\n      swap1\n      0x00\n      mstore\n      keccak256(0x00, 0x20)\n      swap1\n    tag_196:\n      dup2\n      sload\n      dup2\n      mstore\n      swap1\n      0x01\n      add\n      swap1\n      0x20\n      add\n      dup1\n      dup4\n      gt\n      tag_196\n      jumpi\n      dup3\n      swap1\n      sub\n      0x1f\n      and\n      dup3\n      add\n      swap2\n    tag_194:\n      pop\n      pop\n      pop\n      pop\n      pop\n      swap6\n      pop\n        /* \"contracts/4_Product.sol\":10106:10113  product */\n      0x07\n        /* \"contracts/4_Product.sol\":10106:10118  product[_id] */\n      0x00\n        /* \"contracts/4_Product.sol\":10114:10117  _id */\n      dup14\n        /* \"contracts/4_Product.sol\":10106:10118  product[_id] */\n      dup2\n      mstore\n      0x20\n      add\n      swap1\n      dup2\n      mstore\n      0x20\n      add\n      0x00\n      keccak256\n        /* \"contracts/4_Product.sol\":10106:10126  product[_id].details */\n      0x0e\n      add\n        /* \"contracts/4_Product.sol\":10106:10131  product[_id].details.size */\n      0x02\n      add\n        /* \"contracts/4_Product.sol\":10092:10131  product_size= product[_id].details.size */\n      dup1\n      sload\n      tag_197\n      swap1\n      tag_111\n      jump\t// in\n    tag_197:\n      dup1\n      0x1f\n      add\n      0x20\n      dup1\n      swap2\n      div\n      mul\n      0x20\n      add\n      mload(0x40)\n      swap1\n      dup2\n      add\n      0x40\n      mstore\n      dup1\n      swap3\n      swap2\n      swap1\n      dup2\n      dup2\n      mstore\n      0x20\n      add\n      dup3\n      dup1\n      sload\n      tag_198\n      swap1\n      tag_111\n      jump\t// in\n    tag_198:\n      dup1\n      iszero\n      tag_199\n      jumpi\n      dup1\n      0x1f\n      lt\n      tag_200\n      jumpi\n      0x0100\n      dup1\n      dup4\n      sload\n      div\n      mul\n      dup4\n      mstore\n      swap2\n      0x20\n      add\n      swap2\n      jump(tag_199)\n    tag_200:\n      dup3\n      add\n      swap2\n      swap1\n      0x00\n      mstore\n      keccak256(0x00, 0x20)\n      swap1\n    tag_201:\n      dup2\n      sload\n      dup2\n      mstore\n      swap1\n      0x01\n      add\n      swap1\n      0x20\n      add\n      dup1\n      dup4\n      gt\n      tag_201\n      jumpi\n      dup3\n      swap1\n      sub\n      0x1f\n      and\n      dup3\n      add\n      swap2\n    tag_199:\n      pop\n      pop\n      pop\n      pop\n      pop\n      swap5\n      pop\n        /* \"contracts/4_Product.sol\":10154:10161  product */\n      0x07\n        /* \"contracts/4_Product.sol\":10154:10166  product[_id] */\n      0x00\n        /* \"contracts/4_Product.sol\":10162:10165  _id */\n      dup14\n        /* \"contracts/4_Product.sol\":10154:10166  product[_id] */\n      dup2\n      mstore\n      0x20\n      add\n      swap1\n      dup2\n      mstore\n      0x20\n      add\n      0x00\n      keccak256\n        /* \"contracts/4_Product.sol\":10154:10174  product[_id].details */\n      0x0e\n      add\n        /* \"contracts/4_Product.sol\":10154:10181  product[_id].details.weight */\n      0x03\n      add\n        /* \"contracts/4_Product.sol\":10138:10181  product_weight= product[_id].details.weight */\n      dup1\n      sload\n      tag_202\n      swap1\n      tag_111\n      jump\t// in\n    tag_202:\n      dup1\n      0x1f\n      add\n      0x20\n      dup1\n      swap2\n      div\n      mul\n      0x20\n      add\n      mload(0x40)\n      swap1\n      dup2\n      add\n      0x40\n      mstore\n      dup1\n      swap3\n      swap2\n      swap1\n      dup2\n      dup2\n      mstore\n      0x20\n      add\n      dup3\n      dup1\n      sload\n      tag_203\n      swap1\n      tag_111\n      jump\t// in\n    tag_203:\n      dup1\n      iszero\n      tag_204\n      jumpi\n      dup1\n      0x1f\n      lt\n      tag_205\n      jumpi\n      0x0100\n      dup1\n      dup4\n      sload\n      div\n      mul\n      dup4\n      mstore\n      swap2\n      0x20\n      add\n      swap2\n      jump(tag_204)\n    tag_205:\n      dup3\n      add\n      swap2\n      swap1\n      0x00\n      mstore\n      keccak256(0x00, 0x20)\n      swap1\n    tag_206:\n      dup2\n      sload\n      dup2\n      mstore\n      swap1\n      0x01\n      add\n      swap1\n      0x20\n      add\n      dup1\n      dup4\n      gt\n      tag_206\n      jumpi\n      dup3\n      swap1\n      sub\n      0x1f\n      and\n      dup3\n      add\n      swap2\n    tag_204:\n      pop\n      pop\n      pop\n      pop\n      pop\n      swap4\n      pop\n        /* \"contracts/4_Product.sol\":10204:10211  product */\n      0x07\n        /* \"contracts/4_Product.sol\":10204:10216  product[_id] */\n      0x00\n        /* \"contracts/4_Product.sol\":10212:10215  _id */\n      dup14\n        /* \"contracts/4_Product.sol\":10204:10216  product[_id] */\n      dup2\n      mstore\n      0x20\n      add\n      swap1\n      dup2\n      mstore\n      0x20\n      add\n      0x00\n      keccak256\n        /* \"contracts/4_Product.sol\":10204:10224  product[_id].details */\n      0x0e\n      add\n        /* \"contracts/4_Product.sol\":10204:10231  product[_id].details.length */\n      0x04\n      add\n        /* \"contracts/4_Product.sol\":10188:10231  product_length= product[_id].details.length */\n      dup1\n      sload\n      tag_207\n      swap1\n      tag_111\n      jump\t// in\n    tag_207:\n      dup1\n      0x1f\n      add\n      0x20\n      dup1\n      swap2\n      div\n      mul\n      0x20\n      add\n      mload(0x40)\n      swap1\n      dup2\n      add\n      0x40\n      mstore\n      dup1\n      swap3\n      swap2\n      swap1\n      dup2\n      dup2\n      mstore\n      0x20\n      add\n      dup3\n      dup1\n      sload\n      tag_208\n      swap1\n      tag_111\n      jump\t// in\n    tag_208:\n      dup1\n      iszero\n      tag_209\n      jumpi\n      dup1\n      0x1f\n      lt\n      tag_210\n      jumpi\n      0x0100\n      dup1\n      dup4\n      sload\n      div\n      mul\n      dup4\n      mstore\n      swap2\n      0x20\n      add\n      swap2\n      jump(tag_209)\n    tag_210:\n      dup3\n      add\n      swap2\n      swap1\n      0x00\n      mstore\n      keccak256(0x00, 0x20)\n      swap1\n    tag_211:\n      dup2\n      sload\n      dup2\n      mstore\n      swap1\n      0x01\n      add\n      swap1\n      0x20\n      add\n      dup1\n      dup4\n      gt\n      tag_211\n      jumpi\n      dup3\n      swap1\n      sub\n      0x1f\n      and\n      dup3\n      add\n      swap2\n    tag_209:\n      pop\n      pop\n      pop\n      pop\n      pop\n      swap3\n      pop\n        /* \"contracts/4_Product.sol\":10253:10260  product */\n      0x07\n        /* \"contracts/4_Product.sol\":10253:10265  product[_id] */\n      0x00\n        /* \"contracts/4_Product.sol\":10261:10264  _id */\n      dup14\n        /* \"contracts/4_Product.sol\":10253:10265  product[_id] */\n      dup2\n      mstore\n      0x20\n      add\n      swap1\n      dup2\n      mstore\n      0x20\n      add\n      0x00\n      keccak256\n        /* \"contracts/4_Product.sol\":10253:10273  product[_id].details */\n      0x0e\n      add\n        /* \"contracts/4_Product.sol\":10253:10279  product[_id].details.width */\n      0x05\n      add\n        /* \"contracts/4_Product.sol\":10238:10279  product_width= product[_id].details.width */\n      dup1\n      sload\n      tag_212\n      swap1\n      tag_111\n      jump\t// in\n    tag_212:\n      dup1\n      0x1f\n      add\n      0x20\n      dup1\n      swap2\n      div\n      mul\n      0x20\n      add\n      mload(0x40)\n      swap1\n      dup2\n      add\n      0x40\n      mstore\n      dup1\n      swap3\n      swap2\n      swap1\n      dup2\n      dup2\n      mstore\n      0x20\n      add\n      dup3\n      dup1\n      sload\n      tag_213\n      swap1\n      tag_111\n      jump\t// in\n    tag_213:\n      dup1\n      iszero\n      tag_214\n      jumpi\n      dup1\n      0x1f\n      lt\n      tag_215\n      jumpi\n      0x0100\n      dup1\n      dup4\n      sload\n      div\n      mul\n      dup4\n      mstore\n      swap2\n      0x20\n      add\n      swap2\n      jump(tag_214)\n    tag_215:\n      dup3\n      add\n      swap2\n      swap1\n      0x00\n      mstore\n      keccak256(0x00, 0x20)\n      swap1\n    tag_216:\n      dup2\n      sload\n      dup2\n      mstore\n      swap1\n      0x01\n      add\n      swap1\n      0x20\n      add\n      dup1\n      dup4\n      gt\n      tag_216\n      jumpi\n      dup3\n      swap1\n      sub\n      0x1f\n      and\n      dup3\n      add\n      swap2\n    tag_214:\n      pop\n      pop\n      pop\n      pop\n      pop\n      swap2\n      pop\n        /* \"contracts/4_Product.sol\":10302:10309  product */\n      0x07\n        /* \"contracts/4_Product.sol\":10302:10314  product[_id] */\n      0x00\n        /* \"contracts/4_Product.sol\":10310:10313  _id */\n      dup14\n        /* \"contracts/4_Product.sol\":10302:10314  product[_id] */\n      dup2\n      mstore\n      0x20\n      add\n      swap1\n      dup2\n      mstore\n      0x20\n      add\n      0x00\n      keccak256\n        /* \"contracts/4_Product.sol\":10302:10322  product[_id].details */\n      0x0e\n      add\n        /* \"contracts/4_Product.sol\":10302:10329  product[_id].details.height */\n      0x06\n      add\n        /* \"contracts/4_Product.sol\":10286:10329  product_height= product[_id].details.height */\n      dup1\n      sload\n      tag_217\n      swap1\n      tag_111\n      jump\t// in\n    tag_217:\n      dup1\n      0x1f\n      add\n      0x20\n      dup1\n      swap2\n      div\n      mul\n      0x20\n      add\n      mload(0x40)\n      swap1\n      dup2\n      add\n      0x40\n      mstore\n      dup1\n      swap3\n      swap2\n      swap1\n      dup2\n      dup2\n      mstore\n      0x20\n      add\n      dup3\n      dup1\n      sload\n      tag_218\n      swap1\n      tag_111\n      jump\t// in\n    tag_218:\n      dup1\n      iszero\n      tag_219\n      jumpi\n      dup1\n      0x1f\n      lt\n      tag_220\n      jumpi\n      0x0100\n      dup1\n      dup4\n      sload\n      div\n      mul\n      dup4\n      mstore\n      swap2\n      0x20\n      add\n      swap2\n      jump(tag_219)\n    tag_220:\n      dup3\n      add\n      swap2\n      swap1\n      0x00\n      mstore\n      keccak256(0x00, 0x20)\n      swap1\n    tag_221:\n      dup2\n      sload\n      dup2\n      mstore\n      swap1\n      0x01\n      add\n      swap1\n      0x20\n      add\n      dup1\n      dup4\n      gt\n      tag_221\n      jumpi\n      dup3\n      swap1\n      sub\n      0x1f\n      and\n      dup3\n      add\n      swap2\n    tag_219:\n      pop\n      pop\n      pop\n      pop\n      pop\n      swap1\n      pop\n        /* \"contracts/4_Product.sol\":9239:10335  function getProductDetails(uint256 _id) public view returns \r... */\n      swap2\n      swap4\n      swap6\n      swap8\n      swap10\n      swap12\n      swap1\n      swap3\n      swap5\n      swap7\n      swap9\n      swap11\n      pop\n      jump\t// out\n        /* \"contracts/4_Product.sol\":5811:6167  function tokenTransfer(address _to, uint256 _amount) public returns (bool) {\r... */\n    tag_64:\n        /* \"contracts/4_Product.sol\":5880:5884  bool */\n      0x00\n        /* \"contracts/4_Product.sol\":5929:5936  _amount */\n      dup2\n        /* \"contracts/4_Product.sol\":5905:5913  balances */\n      0x05\n        /* \"contracts/4_Product.sol\":5905:5925  balances[msg.sender] */\n      0x00\n        /* \"contracts/4_Product.sol\":5914:5924  msg.sender */\n      caller\n        /* \"contracts/4_Product.sol\":5905:5925  balances[msg.sender] */\n      0xffffffffffffffffffffffffffffffffffffffff\n      and\n      0xffffffffffffffffffffffffffffffffffffffff\n      and\n      dup2\n      mstore\n      0x20\n      add\n      swap1\n      dup2\n      mstore\n      0x20\n      add\n      0x00\n      keccak256\n      sload\n        /* \"contracts/4_Product.sol\":5905:5936  balances[msg.sender] >= _amount */\n      lt\n      iszero\n        /* \"contracts/4_Product.sol\":5897:5937  require(balances[msg.sender] >= _amount) */\n      tag_223\n      jumpi\n      0x00\n      dup1\n      revert\n    tag_223:\n        /* \"contracts/4_Product.sol\":6047:6048  0 */\n      0x00\n        /* \"contracts/4_Product.sol\":6032:6049  _to != address(0) */\n      0xffffffffffffffffffffffffffffffffffffffff\n      and\n        /* \"contracts/4_Product.sol\":6032:6035  _to */\n      dup4\n        /* \"contracts/4_Product.sol\":6032:6049  _to != address(0) */\n      0xffffffffffffffffffffffffffffffffffffffff\n      and\n      eq\n      iszero\n        /* \"contracts/4_Product.sol\":6024:6050  require(_to != address(0)) */\n      tag_224\n      jumpi\n      0x00\n      dup1\n      revert\n    tag_224:\n        /* \"contracts/4_Product.sol\":6095:6102  _amount */\n      dup2\n        /* \"contracts/4_Product.sol\":6071:6079  balances */\n      0x05\n        /* \"contracts/4_Product.sol\":6071:6091  balances[msg.sender] */\n      0x00\n        /* \"contracts/4_Product.sol\":6080:6090  msg.sender */\n      caller\n        /* \"contracts/4_Product.sol\":6071:6091  balances[msg.sender] */\n      0xffffffffffffffffffffffffffffffffffffffff\n      and\n      0xffffffffffffffffffffffffffffffffffffffff\n      and\n      dup2\n      mstore\n      0x20\n      add\n      swap1\n      dup2\n      mstore\n      0x20\n      add\n      0x00\n      keccak256\n      0x00\n        /* \"contracts/4_Product.sol\":6071:6102  balances[msg.sender] -= _amount */\n      dup3\n      dup3\n      sload\n      tag_225\n      swap2\n      swap1\n      tag_226\n      jump\t// in\n    tag_225:\n      swap3\n      pop\n      pop\n      dup2\n      swap1\n      sstore\n      pop\n        /* \"contracts/4_Product.sol\":6130:6137  _amount */\n      dup2\n        /* \"contracts/4_Product.sol\":6113:6121  balances */\n      0x05\n        /* \"contracts/4_Product.sol\":6113:6126  balances[_to] */\n      0x00\n        /* \"contracts/4_Product.sol\":6122:6125  _to */\n      dup6\n        /* \"contracts/4_Product.sol\":6113:6126  balances[_to] */\n      0xffffffffffffffffffffffffffffffffffffffff\n      and\n      0xffffffffffffffffffffffffffffffffffffffff\n      and\n      dup2\n      mstore\n      0x20\n      add\n      swap1\n      dup2\n      mstore\n      0x20\n      add\n      0x00\n      keccak256\n      0x00\n        /* \"contracts/4_Product.sol\":6113:6137  balances[_to] += _amount */\n      dup3\n      dup3\n      sload\n      tag_227\n      swap2\n      swap1\n      tag_122\n      jump\t// in\n    tag_227:\n      swap3\n      pop\n      pop\n      dup2\n      swap1\n      sstore\n      pop\n        /* \"contracts/4_Product.sol\":6155:6159  true */\n      0x01\n        /* \"contracts/4_Product.sol\":6148:6159  return true */\n      swap1\n      pop\n        /* \"contracts/4_Product.sol\":5811:6167  function tokenTransfer(address _to, uint256 _amount) public returns (bool) {\r... */\n      swap3\n      swap2\n      pop\n      pop\n      jump\t// out\n        /* \"contracts/4_Product.sol\":8351:9233  function getProductInfo(uint256 _id) public view returns \r... */\n    tag_70:\n        /* \"contracts/4_Product.sol\":8425:8443  uint256 product_id */\n      0x00\n        /* \"contracts/4_Product.sol\":8480:8499  address producer_id */\n      dup1\n        /* \"contracts/4_Product.sol\":8540:8556  address owner_id */\n      0x00\n        /* \"contracts/4_Product.sol\":8633:8658  State currentProductState */\n      dup1\n        /* \"contracts/4_Product.sol\":8669:8689  uint256 productPrice */\n      0x00\n        /* \"contracts/4_Product.sol\":8701:8723  address distributor_id */\n      dup1\n        /* \"contracts/4_Product.sol\":8734:8753  address retailer_id */\n      0x00\n        /* \"contracts/4_Product.sol\":8764:8783  address consumer_id */\n      dup1\n        /* \"contracts/4_Product.sol\":8794:8816  Details memory details */\n      tag_228\n      tag_229\n      jump\t// in\n    tag_228:\n        /* \"contracts/4_Product.sol\":8855:8862  product */\n      0x07\n        /* \"contracts/4_Product.sol\":8855:8867  product[_id] */\n      0x00\n        /* \"contracts/4_Product.sol\":8863:8866  _id */\n      dup12\n        /* \"contracts/4_Product.sol\":8855:8867  product[_id] */\n      dup2\n      mstore\n      0x20\n      add\n      swap1\n      dup2\n      mstore\n      0x20\n      add\n      0x00\n      keccak256\n        /* \"contracts/4_Product.sol\":8855:8870  product[_id].ID */\n      0x00\n      add\n      sload\n        /* \"contracts/4_Product.sol\":8842:8870  product_id = product[_id].ID */\n      swap9\n      pop\n        /* \"contracts/4_Product.sol\":8892:8899  product */\n      0x07\n        /* \"contracts/4_Product.sol\":8892:8904  product[_id] */\n      0x00\n        /* \"contracts/4_Product.sol\":8900:8903  _id */\n      dup12\n        /* \"contracts/4_Product.sol\":8892:8904  product[_id] */\n      dup2\n      mstore\n      0x20\n      add\n      swap1\n      dup2\n      mstore\n      0x20\n      add\n      0x00\n      keccak256\n        /* \"contracts/4_Product.sol\":8892:8915  product[_id].producerID */\n      0x02\n      add\n      0x00\n      swap1\n      sload\n      swap1\n      0x0100\n      exp\n      swap1\n      div\n      0xffffffffffffffffffffffffffffffffffffffff\n      and\n        /* \"contracts/4_Product.sol\":8878:8915  producer_id = product[_id].producerID */\n      swap8\n      pop\n        /* \"contracts/4_Product.sol\":8933:8940  product */\n      0x07\n        /* \"contracts/4_Product.sol\":8933:8945  product[_id] */\n      0x00\n        /* \"contracts/4_Product.sol\":8941:8944  _id */\n      dup12\n        /* \"contracts/4_Product.sol\":8933:8945  product[_id] */\n      dup2\n      mstore\n      0x20\n      add\n      swap1\n      dup2\n      mstore\n      0x20\n      add\n      0x00\n      keccak256\n        /* \"contracts/4_Product.sol\":8933:8953  product[_id].ownerID */\n      0x01\n      add\n      0x00\n      swap1\n      sload\n      swap1\n      0x0100\n      exp\n      swap1\n      div\n      0xffffffffffffffffffffffffffffffffffffffff\n      and\n        /* \"contracts/4_Product.sol\":8922:8953  owner_id = product[_id].ownerID */\n      swap7\n      pop\n        /* \"contracts/4_Product.sol\":8976:8983  product */\n      0x07\n        /* \"contracts/4_Product.sol\":8976:8988  product[_id] */\n      0x00\n        /* \"contracts/4_Product.sol\":8984:8987  _id */\n      dup12\n        /* \"contracts/4_Product.sol\":8976:8988  product[_id] */\n      dup2\n      mstore\n      0x20\n      add\n      swap1\n      dup2\n      mstore\n      0x20\n      add\n      0x00\n      keccak256\n        /* \"contracts/4_Product.sol\":8976:9002  product[_id].distributorID */\n      0x0b\n      add\n      0x00\n      swap1\n      sload\n      swap1\n      0x0100\n      exp\n      swap1\n      div\n      0xffffffffffffffffffffffffffffffffffffffff\n      and\n        /* \"contracts/4_Product.sol\":8960:9002  distributor_id= product[_id].distributorID */\n      swap4\n      pop\n        /* \"contracts/4_Product.sol\":9022:9029  product */\n      0x07\n        /* \"contracts/4_Product.sol\":9022:9034  product[_id] */\n      0x00\n        /* \"contracts/4_Product.sol\":9030:9033  _id */\n      dup12\n        /* \"contracts/4_Product.sol\":9022:9034  product[_id] */\n      dup2\n      mstore\n      0x20\n      add\n      swap1\n      dup2\n      mstore\n      0x20\n      add\n      0x00\n      keccak256\n        /* \"contracts/4_Product.sol\":9022:9045  product[_id].retailerID */\n      0x0c\n      add\n      0x00\n      swap1\n      sload\n      swap1\n      0x0100\n      exp\n      swap1\n      div\n      0xffffffffffffffffffffffffffffffffffffffff\n      and\n        /* \"contracts/4_Product.sol\":9009:9045  retailer_id= product[_id].retailerID */\n      swap3\n      pop\n        /* \"contracts/4_Product.sol\":9065:9072  product */\n      0x07\n        /* \"contracts/4_Product.sol\":9065:9077  product[_id] */\n      0x00\n        /* \"contracts/4_Product.sol\":9073:9076  _id */\n      dup12\n        /* \"contracts/4_Product.sol\":9065:9077  product[_id] */\n      dup2\n      mstore\n      0x20\n      add\n      swap1\n      dup2\n      mstore\n      0x20\n      add\n      0x00\n      keccak256\n        /* \"contracts/4_Product.sol\":9065:9088  product[_id].consumerID */\n      0x0d\n      add\n      0x00\n      swap1\n      sload\n      swap1\n      0x0100\n      exp\n      swap1\n      div\n      0xffffffffffffffffffffffffffffffffffffffff\n      and\n        /* \"contracts/4_Product.sol\":9052:9088  consumer_id= product[_id].consumerID */\n      swap2\n      pop\n        /* \"contracts/4_Product.sol\":9119:9126  product */\n      0x07\n        /* \"contracts/4_Product.sol\":9119:9131  product[_id] */\n      0x00\n        /* \"contracts/4_Product.sol\":9127:9130  _id */\n      dup12\n        /* \"contracts/4_Product.sol\":9119:9131  product[_id] */\n      dup2\n      mstore\n      0x20\n      add\n      swap1\n      dup2\n      mstore\n      0x20\n      add\n      0x00\n      keccak256\n        /* \"contracts/4_Product.sol\":9119:9144  product[_id].productState */\n      0x09\n      add\n      0x00\n      swap1\n      sload\n      swap1\n      0x0100\n      exp\n      swap1\n      div\n      0xff\n      and\n        /* \"contracts/4_Product.sol\":9097:9144  currentProductState = product[_id].productState */\n      swap6\n      pop\n        /* \"contracts/4_Product.sol\":9166:9173  product */\n      0x07\n        /* \"contracts/4_Product.sol\":9166:9178  product[_id] */\n      0x00\n        /* \"contracts/4_Product.sol\":9174:9177  _id */\n      dup12\n        /* \"contracts/4_Product.sol\":9166:9178  product[_id] */\n      dup2\n      mstore\n      0x20\n      add\n      swap1\n      dup2\n      mstore\n      0x20\n      add\n      0x00\n      keccak256\n        /* \"contracts/4_Product.sol\":9166:9191  product[_id].productPrice */\n      0x0a\n      add\n      sload\n        /* \"contracts/4_Product.sol\":9151:9191  productPrice = product[_id].productPrice */\n      swap5\n      pop\n        /* \"contracts/4_Product.sol\":9209:9216  product */\n      0x07\n        /* \"contracts/4_Product.sol\":9209:9221  product[_id] */\n      0x00\n        /* \"contracts/4_Product.sol\":9217:9220  _id */\n      dup12\n        /* \"contracts/4_Product.sol\":9209:9221  product[_id] */\n      dup2\n      mstore\n      0x20\n      add\n      swap1\n      dup2\n      mstore\n      0x20\n      add\n      0x00\n      keccak256\n        /* \"contracts/4_Product.sol\":9209:9229  product[_id].details */\n      0x0e\n      add\n        /* \"contracts/4_Product.sol\":9200:9229  details= product[_id].details */\n      mload(0x40)\n      dup1\n      0xe0\n      add\n      0x40\n      mstore\n      swap1\n      dup2\n      0x00\n      dup3\n      add\n      dup1\n      sload\n      tag_231\n      swap1\n      tag_111\n      jump\t// in\n    tag_231:\n      dup1\n      0x1f\n      add\n      0x20\n      dup1\n      swap2\n      div\n      mul\n      0x20\n      add\n      mload(0x40)\n      swap1\n      dup2\n      add\n      0x40\n      mstore\n      dup1\n      swap3\n      swap2\n      swap1\n      dup2\n      dup2\n      mstore\n      0x20\n      add\n      dup3\n      dup1\n      sload\n      tag_232\n      swap1\n      tag_111\n      jump\t// in\n    tag_232:\n      dup1\n      iszero\n      tag_233\n      jumpi\n      dup1\n      0x1f\n      lt\n      tag_234\n      jumpi\n      0x0100\n      dup1\n      dup4\n      sload\n      div\n      mul\n      dup4\n      mstore\n      swap2\n      0x20\n      add\n      swap2\n      jump(tag_233)\n    tag_234:\n      dup3\n      add\n      swap2\n      swap1\n      0x00\n      mstore\n      keccak256(0x00, 0x20)\n      swap1\n    tag_235:\n      dup2\n      sload\n      dup2\n      mstore\n      swap1\n      0x01\n      add\n      swap1\n      0x20\n      add\n      dup1\n      dup4\n      gt\n      tag_235\n      jumpi\n      dup3\n      swap1\n      sub\n      0x1f\n      and\n      dup3\n      add\n      swap2\n    tag_233:\n      pop\n      pop\n      pop\n      pop\n      pop\n      dup2\n      mstore\n      0x20\n      add\n      0x01\n      dup3\n      add\n      dup1\n      sload\n      tag_236\n      swap1\n      tag_111\n      jump\t// in\n    tag_236:\n      dup1\n      0x1f\n      add\n      0x20\n      dup1\n      swap2\n      div\n      mul\n      0x20\n      add\n      mload(0x40)\n      swap1\n      dup2\n      add\n      0x40\n      mstore\n      dup1\n      swap3\n      swap2\n      swap1\n      dup2\n      dup2\n      mstore\n      0x20\n      add\n      dup3\n      dup1\n      sload\n      tag_237\n      swap1\n      tag_111\n      jump\t// in\n    tag_237:\n      dup1\n      iszero\n      tag_238\n      jumpi\n      dup1\n      0x1f\n      lt\n      tag_239\n      jumpi\n      0x0100\n      dup1\n      dup4\n      sload\n      div\n      mul\n      dup4\n      mstore\n      swap2\n      0x20\n      add\n      swap2\n      jump(tag_238)\n    tag_239:\n      dup3\n      add\n      swap2\n      swap1\n      0x00\n      mstore\n      keccak256(0x00, 0x20)\n      swap1\n    tag_240:\n      dup2\n      sload\n      dup2\n      mstore\n      swap1\n      0x01\n      add\n      swap1\n      0x20\n      add\n      dup1\n      dup4\n      gt\n      tag_240\n      jumpi\n      dup3\n      swap1\n      sub\n      0x1f\n      and\n      dup3\n      add\n      swap2\n    tag_238:\n      pop\n      pop\n      pop\n      pop\n      pop\n      dup2\n      mstore\n      0x20\n      add\n      0x02\n      dup3\n      add\n      dup1\n      sload\n      tag_241\n      swap1\n      tag_111\n      jump\t// in\n    tag_241:\n      dup1\n      0x1f\n      add\n      0x20\n      dup1\n      swap2\n      div\n      mul\n      0x20\n      add\n      mload(0x40)\n      swap1\n      dup2\n      add\n      0x40\n      mstore\n      dup1\n      swap3\n      swap2\n      swap1\n      dup2\n      dup2\n      mstore\n      0x20\n      add\n      dup3\n      dup1\n      sload\n      tag_242\n      swap1\n      tag_111\n      jump\t// in\n    tag_242:\n      dup1\n      iszero\n      tag_243\n      jumpi\n      dup1\n      0x1f\n      lt\n      tag_244\n      jumpi\n      0x0100\n      dup1\n      dup4\n      sload\n      div\n      mul\n      dup4\n      mstore\n      swap2\n      0x20\n      add\n      swap2\n      jump(tag_243)\n    tag_244:\n      dup3\n      add\n      swap2\n      swap1\n      0x00\n      mstore\n      keccak256(0x00, 0x20)\n      swap1\n    tag_245:\n      dup2\n      sload\n      dup2\n      mstore\n      swap1\n      0x01\n      add\n      swap1\n      0x20\n      add\n      dup1\n      dup4\n      gt\n      tag_245\n      jumpi\n      dup3\n      swap1\n      sub\n      0x1f\n      and\n      dup3\n      add\n      swap2\n    tag_243:\n      pop\n      pop\n      pop\n      pop\n      pop\n      dup2\n      mstore\n      0x20\n      add\n      0x03\n      dup3\n      add\n      dup1\n      sload\n      tag_246\n      swap1\n      tag_111\n      jump\t// in\n    tag_246:\n      dup1\n      0x1f\n      add\n      0x20\n      dup1\n      swap2\n      div\n      mul\n      0x20\n      add\n      mload(0x40)\n      swap1\n      dup2\n      add\n      0x40\n      mstore\n      dup1\n      swap3\n      swap2\n      swap1\n      dup2\n      dup2\n      mstore\n      0x20\n      add\n      dup3\n      dup1\n      sload\n      tag_247\n      swap1\n      tag_111\n      jump\t// in\n    tag_247:\n      dup1\n      iszero\n      tag_248\n      jumpi\n      dup1\n      0x1f\n      lt\n      tag_249\n      jumpi\n      0x0100\n      dup1\n      dup4\n      sload\n      div\n      mul\n      dup4\n      mstore\n      swap2\n      0x20\n      add\n      swap2\n      jump(tag_248)\n    tag_249:\n      dup3\n      add\n      swap2\n      swap1\n      0x00\n      mstore\n      keccak256(0x00, 0x20)\n      swap1\n    tag_250:\n      dup2\n      sload\n      dup2\n      mstore\n      swap1\n      0x01\n      add\n      swap1\n      0x20\n      add\n      dup1\n      dup4\n      gt\n      tag_250\n      jumpi\n      dup3\n      swap1\n      sub\n      0x1f\n      and\n      dup3\n      add\n      swap2\n    tag_248:\n      pop\n      pop\n      pop\n      pop\n      pop\n      dup2\n      mstore\n      0x20\n      add\n      0x04\n      dup3\n      add\n      dup1\n      sload\n      tag_251\n      swap1\n      tag_111\n      jump\t// in\n    tag_251:\n      dup1\n      0x1f\n      add\n      0x20\n      dup1\n      swap2\n      div\n      mul\n      0x20\n      add\n      mload(0x40)\n      swap1\n      dup2\n      add\n      0x40\n      mstore\n      dup1\n      swap3\n      swap2\n      swap1\n      dup2\n      dup2\n      mstore\n      0x20\n      add\n      dup3\n      dup1\n      sload\n      tag_252\n      swap1\n      tag_111\n      jump\t// in\n    tag_252:\n      dup1\n      iszero\n      tag_253\n      jumpi\n      dup1\n      0x1f\n      lt\n      tag_254\n      jumpi\n      0x0100\n      dup1\n      dup4\n      sload\n      div\n      mul\n      dup4\n      mstore\n      swap2\n      0x20\n      add\n      swap2\n      jump(tag_253)\n    tag_254:\n      dup3\n      add\n      swap2\n      swap1\n      0x00\n      mstore\n      keccak256(0x00, 0x20)\n      swap1\n    tag_255:\n      dup2\n      sload\n      dup2\n      mstore\n      swap1\n      0x01\n      add\n      swap1\n      0x20\n      add\n      dup1\n      dup4\n      gt\n      tag_255\n      jumpi\n      dup3\n      swap1\n      sub\n      0x1f\n      and\n      dup3\n      add\n      swap2\n    tag_253:\n      pop\n      pop\n      pop\n      pop\n      pop\n      dup2\n      mstore\n      0x20\n      add\n      0x05\n      dup3\n      add\n      dup1\n      sload\n      tag_256\n      swap1\n      tag_111\n      jump\t// in\n    tag_256:\n      dup1\n      0x1f\n      add\n      0x20\n      dup1\n      swap2\n      div\n      mul\n      0x20\n      add\n      mload(0x40)\n      swap1\n      dup2\n      add\n      0x40\n      mstore\n      dup1\n      swap3\n      swap2\n      swap1\n      dup2\n      dup2\n      mstore\n      0x20\n      add\n      dup3\n      dup1\n      sload\n      tag_257\n      swap1\n      tag_111\n      jump\t// in\n    tag_257:\n      dup1\n      iszero\n      tag_258\n      jumpi\n      dup1\n      0x1f\n      lt\n      tag_259\n      jumpi\n      0x0100\n      dup1\n      dup4\n      sload\n      div\n      mul\n      dup4\n      mstore\n      swap2\n      0x20\n      add\n      swap2\n      jump(tag_258)\n    tag_259:\n      dup3\n      add\n      swap2\n      swap1\n      0x00\n      mstore\n      keccak256(0x00, 0x20)\n      swap1\n    tag_260:\n      dup2\n      sload\n      dup2\n      mstore\n      swap1\n      0x01\n      add\n      swap1\n      0x20\n      add\n      dup1\n      dup4\n      gt\n      tag_260\n      jumpi\n      dup3\n      swap1\n      sub\n      0x1f\n      and\n      dup3\n      add\n      swap2\n    tag_258:\n      pop\n      pop\n      pop\n      pop\n      pop\n      dup2\n      mstore\n      0x20\n      add\n      0x06\n      dup3\n      add\n      dup1\n      sload\n      tag_261\n      swap1\n      tag_111\n      jump\t// in\n    tag_261:\n      dup1\n      0x1f\n      add\n      0x20\n      dup1\n      swap2\n      div\n      mul\n      0x20\n      add\n      mload(0x40)\n      swap1\n      dup2\n      add\n      0x40\n      mstore\n      dup1\n      swap3\n      swap2\n      swap1\n      dup2\n      dup2\n      mstore\n      0x20\n      add\n      dup3\n      dup1\n      sload\n      tag_262\n      swap1\n      tag_111\n      jump\t// in\n    tag_262:\n      dup1\n      iszero\n      tag_263\n      jumpi\n      dup1\n      0x1f\n      lt\n      tag_264\n      jumpi\n      0x0100\n      dup1\n      dup4\n      sload\n      div\n      mul\n      dup4\n      mstore\n      swap2\n      0x20\n      add\n      swap2\n      jump(tag_263)\n    tag_264:\n      dup3\n      add\n      swap2\n      swap1\n      0x00\n      mstore\n      keccak256(0x00, 0x20)\n      swap1\n    tag_265:\n      dup2\n      sload\n      dup2\n      mstore\n      swap1\n      0x01\n      add\n      swap1\n      0x20\n      add\n      dup1\n      dup4\n      gt\n      tag_265\n      jumpi\n      dup3\n      swap1\n      sub\n      0x1f\n      and\n      dup3\n      add\n      swap2\n    tag_263:\n      pop\n      pop\n      pop\n      pop\n      pop\n      dup2\n      mstore\n      pop\n      pop\n      swap1\n      pop\n        /* \"contracts/4_Product.sol\":8351:9233  function getProductInfo(uint256 _id) public view returns \r... */\n      swap2\n      swap4\n      swap6\n      swap8\n      swap10\n      swap1\n      swap3\n      swap5\n      swap7\n      swap9\n      pop\n      jump\t// out\n        /* \"contracts/4_Product.sol\":114:134  string public symbol */\n    tag_75:\n      0x01\n      dup1\n      sload\n      tag_266\n      swap1\n      tag_111\n      jump\t// in\n    tag_266:\n      dup1\n      0x1f\n      add\n      0x20\n      dup1\n      swap2\n      div\n      mul\n      0x20\n      add\n      mload(0x40)\n      swap1\n      dup2\n      add\n      0x40\n      mstore\n      dup1\n      swap3\n      swap2\n      swap1\n      dup2\n      dup2\n      mstore\n      0x20\n      add\n      dup3\n      dup1\n      sload\n      tag_267\n      swap1\n      tag_111\n      jump\t// in\n    tag_267:\n      dup1\n      iszero\n      tag_268\n      jumpi\n      dup1\n      0x1f\n      lt\n      tag_269\n      jumpi\n      0x0100\n      dup1\n      dup4\n      sload\n      div\n      mul\n      dup4\n      mstore\n      swap2\n      0x20\n      add\n      swap2\n      jump(tag_268)\n    tag_269:\n      dup3\n      add\n      swap2\n      swap1\n      0x00\n      mstore\n      keccak256(0x00, 0x20)\n      swap1\n    tag_270:\n      dup2\n      sload\n      dup2\n      mstore\n      swap1\n      0x01\n      add\n      swap1\n      0x20\n      add\n      dup1\n      dup4\n      gt\n      tag_270\n      jumpi\n      dup3\n      swap1\n      sub\n      0x1f\n      and\n      dup3\n      add\n      swap2\n    tag_268:\n      pop\n      pop\n      pop\n      pop\n      pop\n      dup2\n      jump\t// out\n        /* \"contracts/4_Product.sol\":4765:5182  function burn(address _account, uint256 _amount) public OnlyTokenOwner {\r... */\n    tag_80:\n        /* \"contracts/4_Product.sol\":2721:2731  tokenOwner */\n      0x02\n      0x00\n      swap1\n      sload\n      swap1\n      0x0100\n      exp\n      swap1\n      div\n      0xffffffffffffffffffffffffffffffffffffffff\n      and\n        /* \"contracts/4_Product.sol\":2707:2731  msg.sender == tokenOwner */\n      0xffffffffffffffffffffffffffffffffffffffff\n      and\n        /* \"contracts/4_Product.sol\":2707:2717  msg.sender */\n      caller\n        /* \"contracts/4_Product.sol\":2707:2731  msg.sender == tokenOwner */\n      0xffffffffffffffffffffffffffffffffffffffff\n      and\n      eq\n        /* \"contracts/4_Product.sol\":2699:2766  require(msg.sender == tokenOwner, 'caller is not the token owner.') */\n      tag_272\n      jumpi\n      mload(0x40)\n      0x08c379a000000000000000000000000000000000000000000000000000000000\n      dup2\n      mstore\n      0x04\n      add\n      tag_273\n      swap1\n      tag_119\n      jump\t// in\n    tag_273:\n      mload(0x40)\n      dup1\n      swap2\n      sub\n      swap1\n      revert\n    tag_272:\n        /* \"contracts/4_Product.sol\":4875:4876  0 */\n      0x00\n        /* \"contracts/4_Product.sol\":4855:4877  _account != address(0) */\n      0xffffffffffffffffffffffffffffffffffffffff\n      and\n        /* \"contracts/4_Product.sol\":4855:4863  _account */\n      dup3\n        /* \"contracts/4_Product.sol\":4855:4877  _account != address(0) */\n      0xffffffffffffffffffffffffffffffffffffffff\n      and\n      eq\n      iszero\n        /* \"contracts/4_Product.sol\":4847:4878  require(_account != address(0)) */\n      tag_275\n      jumpi\n      0x00\n      dup1\n      revert\n    tag_275:\n        /* \"contracts/4_Product.sol\":5003:5011  balances */\n      0x05\n        /* \"contracts/4_Product.sol\":5003:5021  balances[_account] */\n      0x00\n        /* \"contracts/4_Product.sol\":5012:5020  _account */\n      dup4\n        /* \"contracts/4_Product.sol\":5003:5021  balances[_account] */\n      0xffffffffffffffffffffffffffffffffffffffff\n      and\n      0xffffffffffffffffffffffffffffffffffffffff\n      and\n      dup2\n      mstore\n      0x20\n      add\n      swap1\n      dup2\n      mstore\n      0x20\n      add\n      0x00\n      keccak256\n      sload\n        /* \"contracts/4_Product.sol\":4992:4999  _amount */\n      dup2\n        /* \"contracts/4_Product.sol\":4992:5021  _amount <= balances[_account] */\n      gt\n      iszero\n        /* \"contracts/4_Product.sol\":4984:5022  require(_amount <= balances[_account]) */\n      tag_276\n      jumpi\n      0x00\n      dup1\n      revert\n    tag_276:\n        /* \"contracts/4_Product.sol\":5127:5134  _amount */\n      dup1\n        /* \"contracts/4_Product.sol\":5111:5123  _totalSupply */\n      0x04\n      0x00\n        /* \"contracts/4_Product.sol\":5111:5134  _totalSupply -= _amount */\n      dup3\n      dup3\n      sload\n      tag_277\n      swap2\n      swap1\n      tag_226\n      jump\t// in\n    tag_277:\n      swap3\n      pop\n      pop\n      dup2\n      swap1\n      sstore\n      pop\n        /* \"contracts/4_Product.sol\":5167:5174  _amount */\n      dup1\n        /* \"contracts/4_Product.sol\":5145:5153  balances */\n      0x05\n        /* \"contracts/4_Product.sol\":5145:5163  balances[_account] */\n      0x00\n        /* \"contracts/4_Product.sol\":5154:5162  _account */\n      dup5\n        /* \"contracts/4_Product.sol\":5145:5163  balances[_account] */\n      0xffffffffffffffffffffffffffffffffffffffff\n      and\n      0xffffffffffffffffffffffffffffffffffffffff\n      and\n      dup2\n      mstore\n      0x20\n      add\n      swap1\n      dup2\n      mstore\n      0x20\n      add\n      0x00\n      keccak256\n      0x00\n        /* \"contracts/4_Product.sol\":5145:5174  balances[_account] -= _amount */\n      dup3\n      dup3\n      sload\n      tag_278\n      swap2\n      swap1\n      tag_226\n      jump\t// in\n    tag_278:\n      swap3\n      pop\n      pop\n      dup2\n      swap1\n      sstore\n      pop\n        /* \"contracts/4_Product.sol\":4765:5182  function burn(address _account, uint256 _amount) public OnlyTokenOwner {\r... */\n      pop\n      pop\n      jump\t// out\n        /* \"contracts/4_Product.sol\":4122:4344  function mint(uint256 _amount) public OnlyTokenOwner {\r... */\n    tag_84:\n        /* \"contracts/4_Product.sol\":2721:2731  tokenOwner */\n      0x02\n      0x00\n      swap1\n      sload\n      swap1\n      0x0100\n      exp\n      swap1\n      div\n      0xffffffffffffffffffffffffffffffffffffffff\n      and\n        /* \"contracts/4_Product.sol\":2707:2731  msg.sender == tokenOwner */\n      0xffffffffffffffffffffffffffffffffffffffff\n      and\n        /* \"contracts/4_Product.sol\":2707:2717  msg.sender */\n      caller\n        /* \"contracts/4_Product.sol\":2707:2731  msg.sender == tokenOwner */\n      0xffffffffffffffffffffffffffffffffffffffff\n      and\n      eq\n        /* \"contracts/4_Product.sol\":2699:2766  require(msg.sender == tokenOwner, 'caller is not the token owner.') */\n      tag_280\n      jumpi\n      mload(0x40)\n      0x08c379a000000000000000000000000000000000000000000000000000000000\n      dup2\n      mstore\n      0x04\n      add\n      tag_281\n      swap1\n      tag_119\n      jump\t// in\n    tag_281:\n      mload(0x40)\n      dup1\n      swap2\n      sub\n      swap1\n      revert\n    tag_280:\n        /* \"contracts/4_Product.sol\":4202:4209  _amount */\n      dup1\n        /* \"contracts/4_Product.sol\":4186:4198  _totalSupply */\n      0x04\n      0x00\n        /* \"contracts/4_Product.sol\":4186:4209  _totalSupply += _amount */\n      dup3\n      dup3\n      sload\n      tag_283\n      swap2\n      swap1\n      tag_122\n      jump\t// in\n    tag_283:\n      swap3\n      pop\n      pop\n      dup2\n      swap1\n      sstore\n      pop\n        /* \"contracts/4_Product.sol\":4280:4287  _amount */\n      dup1\n        /* \"contracts/4_Product.sol\":4256:4264  balances */\n      0x05\n        /* \"contracts/4_Product.sol\":4256:4276  balances[msg.sender] */\n      0x00\n        /* \"contracts/4_Product.sol\":4265:4275  msg.sender */\n      caller\n        /* \"contracts/4_Product.sol\":4256:4276  balances[msg.sender] */\n      0xffffffffffffffffffffffffffffffffffffffff\n      and\n      0xffffffffffffffffffffffffffffffffffffffff\n      and\n      dup2\n      mstore\n      0x20\n      add\n      swap1\n      dup2\n      mstore\n      0x20\n      add\n      0x00\n      keccak256\n      0x00\n        /* \"contracts/4_Product.sol\":4256:4287  balances[msg.sender] += _amount */\n      dup3\n      dup3\n      sload\n      tag_284\n      swap2\n      swap1\n      tag_122\n      jump\t// in\n    tag_284:\n      swap3\n      pop\n      pop\n      dup2\n      swap1\n      sstore\n      pop\n        /* \"contracts/4_Product.sol\":4122:4344  function mint(uint256 _amount) public OnlyTokenOwner {\r... */\n      pop\n      jump\t// out\n        /* \"contracts/4_Product.sol\":165:199  address payable public  tokenOwner */\n    tag_87:\n      0x02\n      0x00\n      swap1\n      sload\n      swap1\n      0x0100\n      exp\n      swap1\n      div\n      0xffffffffffffffffffffffffffffffffffffffff\n      and\n      dup2\n      jump\t// out\n        /* \"contracts/4_Product.sol\":5240:5737  function buyToken() public payable {\r... */\n    tag_91:\n        /* \"contracts/4_Product.sol\":5285:5301  uint256 tokenNum */\n      0x00\n        /* \"contracts/4_Product.sol\":287:290  100 */\n      0x64\n        /* \"contracts/4_Product.sol\":5304:5313  msg.value */\n      callvalue\n        /* \"contracts/4_Product.sol\":5304:5324  msg.value/tokenPrice */\n      tag_286\n      swap2\n      swap1\n      tag_287\n      jump\t// in\n    tag_286:\n        /* \"contracts/4_Product.sol\":5285:5324  uint256 tokenNum = msg.value/tokenPrice */\n      swap1\n      pop\n        /* \"contracts/4_Product.sol\":5386:5387  0 */\n      0x00\n        /* \"contracts/4_Product.sol\":5374:5383  msg.value */\n      callvalue\n        /* \"contracts/4_Product.sol\":5374:5387  msg.value > 0 */\n      gt\n        /* \"contracts/4_Product.sol\":5366:5388  require(msg.value > 0) */\n      tag_288\n      jumpi\n      0x00\n      dup1\n      revert\n    tag_288:\n        /* \"contracts/4_Product.sol\":5436:5446  tokenOwner */\n      0x02\n      0x00\n      swap1\n      sload\n      swap1\n      0x0100\n      exp\n      swap1\n      div\n      0xffffffffffffffffffffffffffffffffffffffff\n      and\n        /* \"contracts/4_Product.sol\":5436:5455  tokenOwner.transfer */\n      0xffffffffffffffffffffffffffffffffffffffff\n      and\n        /* \"contracts/4_Product.sol\":5436:5466  tokenOwner.transfer(msg.value) */\n      0x08fc\n        /* \"contracts/4_Product.sol\":5456:5465  msg.value */\n      callvalue\n        /* \"contracts/4_Product.sol\":5436:5466  tokenOwner.transfer(msg.value) */\n      swap1\n      dup2\n      iszero\n      mul\n      swap1\n      mload(0x40)\n      0x00\n      mload(0x40)\n      dup1\n      dup4\n      sub\n      dup2\n      dup6\n      dup9\n      dup9\n      call\n      swap4\n      pop\n      pop\n      pop\n      pop\n      iszero\n      dup1\n      iszero\n      tag_290\n      jumpi\n      returndatasize\n      0x00\n      dup1\n      returndatacopy\n      revert(0x00, returndatasize)\n    tag_290:\n      pop\n        /* \"contracts/4_Product.sol\":5566:5574  tokenNum */\n      dup1\n        /* \"contracts/4_Product.sol\":5542:5550  balances */\n      0x05\n        /* \"contracts/4_Product.sol\":5542:5562  balances[tokenOwner] */\n      0x00\n        /* \"contracts/4_Product.sol\":5551:5561  tokenOwner */\n      0x02\n      0x00\n      swap1\n      sload\n      swap1\n      0x0100\n      exp\n      swap1\n      div\n      0xffffffffffffffffffffffffffffffffffffffff\n      and\n        /* \"contracts/4_Product.sol\":5542:5562  balances[tokenOwner] */\n      0xffffffffffffffffffffffffffffffffffffffff\n      and\n      0xffffffffffffffffffffffffffffffffffffffff\n      and\n      dup2\n      mstore\n      0x20\n      add\n      swap1\n      dup2\n      mstore\n      0x20\n      add\n      0x00\n      keccak256\n      0x00\n        /* \"contracts/4_Product.sol\":5542:5574  balances[tokenOwner] -= tokenNum */\n      dup3\n      dup3\n      sload\n      tag_291\n      swap2\n      swap1\n      tag_226\n      jump\t// in\n    tag_291:\n      swap3\n      pop\n      pop\n      dup2\n      swap1\n      sstore\n      pop\n        /* \"contracts/4_Product.sol\":5667:5675  tokenNum */\n      dup1\n        /* \"contracts/4_Product.sol\":5643:5651  balances */\n      0x05\n        /* \"contracts/4_Product.sol\":5643:5663  balances[msg.sender] */\n      0x00\n        /* \"contracts/4_Product.sol\":5652:5662  msg.sender */\n      caller\n        /* \"contracts/4_Product.sol\":5643:5663  balances[msg.sender] */\n      0xffffffffffffffffffffffffffffffffffffffff\n      and\n      0xffffffffffffffffffffffffffffffffffffffff\n      and\n      dup2\n      mstore\n      0x20\n      add\n      swap1\n      dup2\n      mstore\n      0x20\n      add\n      0x00\n      keccak256\n      0x00\n        /* \"contracts/4_Product.sol\":5643:5675  balances[msg.sender] += tokenNum */\n      dup3\n      dup3\n      sload\n      tag_292\n      swap2\n      swap1\n      tag_122\n      jump\t// in\n    tag_292:\n      swap3\n      pop\n      pop\n      dup2\n      swap1\n      sstore\n      pop\n        /* \"contracts/4_Product.sol\":5275:5737  {\r... */\n      pop\n        /* \"contracts/4_Product.sol\":5240:5737  function buyToken() public payable {\r... */\n      jump\t// out\n        /* \"contracts/4_Product.sol\":10377:10553  function getActorInfo(address _addr) public view returns\r... */\n    tag_96:\n        /* \"contracts/4_Product.sol\":10442:10452  Role _role */\n      0x00\n        /* \"contracts/4_Product.sol\":10459:10478  string memory _name */\n      0x60\n        /* \"contracts/4_Product.sol\":10498:10504  actors */\n      0x06\n        /* \"contracts/4_Product.sol\":10498:10511  actors[_addr] */\n      0x00\n        /* \"contracts/4_Product.sol\":10505:10510  _addr */\n      dup5\n        /* \"contracts/4_Product.sol\":10498:10511  actors[_addr] */\n      0xffffffffffffffffffffffffffffffffffffffff\n      and\n      0xffffffffffffffffffffffffffffffffffffffff\n      and\n      dup2\n      mstore\n      0x20\n      add\n      swap1\n      dup2\n      mstore\n      0x20\n      add\n      0x00\n      keccak256\n        /* \"contracts/4_Product.sol\":10498:10516  actors[_addr].role */\n      0x00\n      add\n      0x00\n      swap1\n      sload\n      swap1\n      0x0100\n      exp\n      swap1\n      div\n      0xff\n      and\n        /* \"contracts/4_Product.sol\":10490:10516  _role = actors[_addr].role */\n      swap2\n      pop\n        /* \"contracts/4_Product.sol\":10531:10537  actors */\n      0x06\n        /* \"contracts/4_Product.sol\":10531:10544  actors[_addr] */\n      0x00\n        /* \"contracts/4_Product.sol\":10538:10543  _addr */\n      dup5\n        /* \"contracts/4_Product.sol\":10531:10544  actors[_addr] */\n      0xffffffffffffffffffffffffffffffffffffffff\n      and\n      0xffffffffffffffffffffffffffffffffffffffff\n      and\n      dup2\n      mstore\n      0x20\n      add\n      swap1\n      dup2\n      mstore\n      0x20\n      add\n      0x00\n      keccak256\n        /* \"contracts/4_Product.sol\":10531:10549  actors[_addr].name */\n      0x01\n      add\n        /* \"contracts/4_Product.sol\":10523:10549  _name = actors[_addr].name */\n      dup1\n      sload\n      tag_294\n      swap1\n      tag_111\n      jump\t// in\n    tag_294:\n      dup1\n      0x1f\n      add\n      0x20\n      dup1\n      swap2\n      div\n      mul\n      0x20\n      add\n      mload(0x40)\n      swap1\n      dup2\n      add\n      0x40\n      mstore\n      dup1\n      swap3\n      swap2\n      swap1\n      dup2\n      dup2\n      mstore\n      0x20\n      add\n      dup3\n      dup1\n      sload\n      tag_295\n      swap1\n      tag_111\n      jump\t// in\n    tag_295:\n      dup1\n      iszero\n      tag_296\n      jumpi\n      dup1\n      0x1f\n      lt\n      tag_297\n      jumpi\n      0x0100\n      dup1\n      dup4\n      sload\n      div\n      mul\n      dup4\n      mstore\n      swap2\n      0x20\n      add\n      swap2\n      jump(tag_296)\n    tag_297:\n      dup3\n      add\n      swap2\n      swap1\n      0x00\n      mstore\n      keccak256(0x00, 0x20)\n      swap1\n    tag_298:\n      dup2\n      sload\n      dup2\n      mstore\n      swap1\n      0x01\n      add\n      swap1\n      0x20\n      add\n      dup1\n      dup4\n      gt\n      tag_298\n      jumpi\n      dup3\n      swap1\n      sub\n      0x1f\n      and\n      dup3\n      add\n      swap2\n    tag_296:\n      pop\n      pop\n      pop\n      pop\n      pop\n      swap1\n      pop\n        /* \"contracts/4_Product.sol\":10377:10553  function getActorInfo(address _addr) public view returns\r... */\n      swap2\n      pop\n      swap2\n      jump\t// out\n        /* \"contracts/4_Product.sol\":3900:4006  function etherBalance(address _addr) public view returns (uint256) {\r... */\n    tag_102:\n        /* \"contracts/4_Product.sol\":3958:3965  uint256 */\n      0x00\n        /* \"contracts/4_Product.sol\":3985:3990  _addr */\n      dup2\n        /* \"contracts/4_Product.sol\":3985:3998  _addr.balance */\n      0xffffffffffffffffffffffffffffffffffffffff\n      and\n      balance\n        /* \"contracts/4_Product.sol\":3978:3998  return _addr.balance */\n      swap1\n      pop\n        /* \"contracts/4_Product.sol\":3900:4006  function etherBalance(address _addr) public view returns (uint256) {\r... */\n      swap2\n      swap1\n      pop\n      jump\t// out\n        /* \"contracts/4_Product.sol\":3726:3834  function tokenBalance(address _addr) public view returns (uint256) {\r... */\n    tag_108:\n        /* \"contracts/4_Product.sol\":3784:3791  uint256 */\n      0x00\n        /* \"contracts/4_Product.sol\":3811:3819  balances */\n      0x05\n        /* \"contracts/4_Product.sol\":3811:3826  balances[_addr] */\n      0x00\n        /* \"contracts/4_Product.sol\":3820:3825  _addr */\n      dup4\n        /* \"contracts/4_Product.sol\":3811:3826  balances[_addr] */\n      0xffffffffffffffffffffffffffffffffffffffff\n      and\n      0xffffffffffffffffffffffffffffffffffffffff\n      and\n      dup2\n      mstore\n      0x20\n      add\n      swap1\n      dup2\n      mstore\n      0x20\n      add\n      0x00\n      keccak256\n      sload\n        /* \"contracts/4_Product.sol\":3804:3826  return balances[_addr] */\n      swap1\n      pop\n        /* \"contracts/4_Product.sol\":3726:3834  function tokenBalance(address _addr) public view returns (uint256) {\r... */\n      swap2\n      swap1\n      pop\n      jump\t// out\n    tag_142:\n      dup3\n      dup1\n      sload\n      tag_301\n      swap1\n      tag_111\n      jump\t// in\n    tag_301:\n      swap1\n      0x00\n      mstore\n      keccak256(0x00, 0x20)\n      swap1\n      0x1f\n      add\n      0x20\n      swap1\n      div\n      dup2\n      add\n      swap3\n      dup3\n      tag_303\n      jumpi\n      0x00\n      dup6\n      sstore\n      jump(tag_302)\n    tag_303:\n      dup3\n      0x1f\n      lt\n      tag_304\n      jumpi\n      dup1\n      mload\n      not(0xff)\n      and\n      dup4\n      dup1\n      add\n      or\n      dup6\n      sstore\n      jump(tag_302)\n    tag_304:\n      dup3\n      dup1\n      add\n      0x01\n      add\n      dup6\n      sstore\n      dup3\n      iszero\n      tag_302\n      jumpi\n      swap2\n      dup3\n      add\n    tag_305:\n      dup3\n      dup2\n      gt\n      iszero\n      tag_306\n      jumpi\n      dup3\n      mload\n      dup3\n      sstore\n      swap2\n      0x20\n      add\n      swap2\n      swap1\n      0x01\n      add\n      swap1\n      jump(tag_305)\n    tag_306:\n    tag_302:\n      pop\n      swap1\n      pop\n      tag_307\n      swap2\n      swap1\n      tag_308\n      jump\t// in\n    tag_307:\n      pop\n      swap1\n      jump\t// out\n    tag_229:\n      mload(0x40)\n      dup1\n      0xe0\n      add\n      0x40\n      mstore\n      dup1\n      0x60\n      dup2\n      mstore\n      0x20\n      add\n      0x60\n      dup2\n      mstore\n      0x20\n      add\n      0x60\n      dup2\n      mstore\n      0x20\n      add\n      0x60\n      dup2\n      mstore\n      0x20\n      add\n      0x60\n      dup2\n      mstore\n      0x20\n      add\n      0x60\n      dup2\n      mstore\n      0x20\n      add\n      0x60\n      dup2\n      mstore\n      pop\n      swap1\n      jump\t// out\n    tag_308:\n    tag_309:\n      dup1\n      dup3\n      gt\n      iszero\n      tag_310\n      jumpi\n      0x00\n      dup2\n      0x00\n      swap1\n      sstore\n      pop\n      0x01\n      add\n      jump(tag_309)\n    tag_310:\n      pop\n      swap1\n      jump\t// out\n        /* \"#utility.yul\":7:419   */\n    tag_312:\n        /* \"#utility.yul\":85:90   */\n      0x00\n        /* \"#utility.yul\":110:176   */\n      tag_314\n        /* \"#utility.yul\":126:175   */\n      tag_315\n        /* \"#utility.yul\":168:174   */\n      dup5\n        /* \"#utility.yul\":126:175   */\n      tag_316\n      jump\t// in\n    tag_315:\n        /* \"#utility.yul\":110:176   */\n      tag_317\n      jump\t// in\n    tag_314:\n        /* \"#utility.yul\":101:176   */\n      swap1\n      pop\n        /* \"#utility.yul\":199:205   */\n      dup3\n        /* \"#utility.yul\":192:197   */\n      dup2\n        /* \"#utility.yul\":185:206   */\n      mstore\n        /* \"#utility.yul\":237:241   */\n      0x20\n        /* \"#utility.yul\":230:235   */\n      dup2\n        /* \"#utility.yul\":226:242   */\n      add\n        /* \"#utility.yul\":275:278   */\n      dup5\n        /* \"#utility.yul\":266:272   */\n      dup5\n        /* \"#utility.yul\":261:264   */\n      dup5\n        /* \"#utility.yul\":257:273   */\n      add\n        /* \"#utility.yul\":254:279   */\n      gt\n        /* \"#utility.yul\":251:363   */\n      iszero\n      tag_318\n      jumpi\n        /* \"#utility.yul\":282:361   */\n      tag_319\n      tag_320\n      jump\t// in\n    tag_319:\n        /* \"#utility.yul\":251:363   */\n    tag_318:\n        /* \"#utility.yul\":372:413   */\n      tag_321\n        /* \"#utility.yul\":406:412   */\n      dup5\n        /* \"#utility.yul\":401:404   */\n      dup3\n        /* \"#utility.yul\":396:399   */\n      dup6\n        /* \"#utility.yul\":372:413   */\n      tag_322\n      jump\t// in\n    tag_321:\n        /* \"#utility.yul\":91:419   */\n      pop\n        /* \"#utility.yul\":7:419   */\n      swap4\n      swap3\n      pop\n      pop\n      pop\n      jump\t// out\n        /* \"#utility.yul\":425:564   */\n    tag_323:\n        /* \"#utility.yul\":471:476   */\n      0x00\n        /* \"#utility.yul\":509:515   */\n      dup2\n        /* \"#utility.yul\":496:516   */\n      calldataload\n        /* \"#utility.yul\":487:516   */\n      swap1\n      pop\n        /* \"#utility.yul\":525:558   */\n      tag_325\n        /* \"#utility.yul\":552:557   */\n      dup2\n        /* \"#utility.yul\":525:558   */\n      tag_326\n      jump\t// in\n    tag_325:\n        /* \"#utility.yul\":425:564   */\n      swap3\n      swap2\n      pop\n      pop\n      jump\t// out\n        /* \"#utility.yul\":570:723   */\n    tag_327:\n        /* \"#utility.yul\":623:628   */\n      0x00\n        /* \"#utility.yul\":661:667   */\n      dup2\n        /* \"#utility.yul\":648:668   */\n      calldataload\n        /* \"#utility.yul\":639:668   */\n      swap1\n      pop\n        /* \"#utility.yul\":677:717   */\n      tag_329\n        /* \"#utility.yul\":711:716   */\n      dup2\n        /* \"#utility.yul\":677:717   */\n      tag_330\n      jump\t// in\n    tag_329:\n        /* \"#utility.yul\":570:723   */\n      swap3\n      swap2\n      pop\n      pop\n      jump\t// out\n        /* \"#utility.yul\":743:1083   */\n    tag_331:\n        /* \"#utility.yul\":799:804   */\n      0x00\n        /* \"#utility.yul\":848:851   */\n      dup3\n        /* \"#utility.yul\":841:845   */\n      0x1f\n        /* \"#utility.yul\":833:839   */\n      dup4\n        /* \"#utility.yul\":829:846   */\n      add\n        /* \"#utility.yul\":825:852   */\n      slt\n        /* \"#utility.yul\":815:937   */\n      tag_333\n      jumpi\n        /* \"#utility.yul\":856:935   */\n      tag_334\n      tag_335\n      jump\t// in\n    tag_334:\n        /* \"#utility.yul\":815:937   */\n    tag_333:\n        /* \"#utility.yul\":973:979   */\n      dup2\n        /* \"#utility.yul\":960:980   */\n      calldataload\n        /* \"#utility.yul\":998:1077   */\n      tag_336\n        /* \"#utility.yul\":1073:1076   */\n      dup5\n        /* \"#utility.yul\":1065:1071   */\n      dup3\n        /* \"#utility.yul\":1058:1062   */\n      0x20\n        /* \"#utility.yul\":1050:1056   */\n      dup7\n        /* \"#utility.yul\":1046:1063   */\n      add\n        /* \"#utility.yul\":998:1077   */\n      tag_312\n      jump\t// in\n    tag_336:\n        /* \"#utility.yul\":989:1077   */\n      swap2\n      pop\n        /* \"#utility.yul\":805:1083   */\n      pop\n        /* \"#utility.yul\":743:1083   */\n      swap3\n      swap2\n      pop\n      pop\n      jump\t// out\n        /* \"#utility.yul\":1121:3699   */\n    tag_337:\n        /* \"#utility.yul\":1193:1198   */\n      0x00\n        /* \"#utility.yul\":1237:1241   */\n      0xe0\n        /* \"#utility.yul\":1225:1234   */\n      dup3\n        /* \"#utility.yul\":1220:1223   */\n      dup5\n        /* \"#utility.yul\":1216:1235   */\n      sub\n        /* \"#utility.yul\":1212:1242   */\n      slt\n        /* \"#utility.yul\":1209:1326   */\n      iszero\n      tag_339\n      jumpi\n        /* \"#utility.yul\":1245:1324   */\n      tag_340\n      tag_341\n      jump\t// in\n    tag_340:\n        /* \"#utility.yul\":1209:1326   */\n    tag_339:\n        /* \"#utility.yul\":1344:1365   */\n      tag_342\n        /* \"#utility.yul\":1360:1364   */\n      0xe0\n        /* \"#utility.yul\":1344:1365   */\n      tag_317\n      jump\t// in\n    tag_342:\n        /* \"#utility.yul\":1335:1365   */\n      swap1\n      pop\n        /* \"#utility.yul\":1452:1453   */\n      0x00\n        /* \"#utility.yul\":1441:1450   */\n      dup3\n        /* \"#utility.yul\":1437:1454   */\n      add\n        /* \"#utility.yul\":1424:1455   */\n      calldataload\n        /* \"#utility.yul\":1482:1500   */\n      0xffffffffffffffff\n        /* \"#utility.yul\":1474:1480   */\n      dup2\n        /* \"#utility.yul\":1471:1501   */\n      gt\n        /* \"#utility.yul\":1468:1585   */\n      iszero\n      tag_343\n      jumpi\n        /* \"#utility.yul\":1504:1583   */\n      tag_344\n      tag_345\n      jump\t// in\n    tag_344:\n        /* \"#utility.yul\":1468:1585   */\n    tag_343:\n        /* \"#utility.yul\":1624:1683   */\n      tag_346\n        /* \"#utility.yul\":1679:1682   */\n      dup5\n        /* \"#utility.yul\":1670:1676   */\n      dup3\n        /* \"#utility.yul\":1659:1668   */\n      dup6\n        /* \"#utility.yul\":1655:1677   */\n      add\n        /* \"#utility.yul\":1624:1683   */\n      tag_331\n      jump\t// in\n    tag_346:\n        /* \"#utility.yul\":1617:1621   */\n      0x00\n        /* \"#utility.yul\":1610:1615   */\n      dup4\n        /* \"#utility.yul\":1606:1622   */\n      add\n        /* \"#utility.yul\":1599:1684   */\n      mstore\n        /* \"#utility.yul\":1375:1695   */\n      pop\n        /* \"#utility.yul\":1783:1785   */\n      0x20\n        /* \"#utility.yul\":1772:1781   */\n      dup3\n        /* \"#utility.yul\":1768:1786   */\n      add\n        /* \"#utility.yul\":1755:1787   */\n      calldataload\n        /* \"#utility.yul\":1814:1832   */\n      0xffffffffffffffff\n        /* \"#utility.yul\":1806:1812   */\n      dup2\n        /* \"#utility.yul\":1803:1833   */\n      gt\n        /* \"#utility.yul\":1800:1917   */\n      iszero\n      tag_347\n      jumpi\n        /* \"#utility.yul\":1836:1915   */\n      tag_348\n      tag_345\n      jump\t// in\n    tag_348:\n        /* \"#utility.yul\":1800:1917   */\n    tag_347:\n        /* \"#utility.yul\":1956:2015   */\n      tag_349\n        /* \"#utility.yul\":2011:2014   */\n      dup5\n        /* \"#utility.yul\":2002:2008   */\n      dup3\n        /* \"#utility.yul\":1991:2000   */\n      dup6\n        /* \"#utility.yul\":1987:2009   */\n      add\n        /* \"#utility.yul\":1956:2015   */\n      tag_331\n      jump\t// in\n    tag_349:\n        /* \"#utility.yul\":1949:1953   */\n      0x20\n        /* \"#utility.yul\":1942:1947   */\n      dup4\n        /* \"#utility.yul\":1938:1954   */\n      add\n        /* \"#utility.yul\":1931:2016   */\n      mstore\n        /* \"#utility.yul\":1705:2027   */\n      pop\n        /* \"#utility.yul\":2114:2116   */\n      0x40\n        /* \"#utility.yul\":2103:2112   */\n      dup3\n        /* \"#utility.yul\":2099:2117   */\n      add\n        /* \"#utility.yul\":2086:2118   */\n      calldataload\n        /* \"#utility.yul\":2145:2163   */\n      0xffffffffffffffff\n        /* \"#utility.yul\":2137:2143   */\n      dup2\n        /* \"#utility.yul\":2134:2164   */\n      gt\n        /* \"#utility.yul\":2131:2248   */\n      iszero\n      tag_350\n      jumpi\n        /* \"#utility.yul\":2167:2246   */\n      tag_351\n      tag_345\n      jump\t// in\n    tag_351:\n        /* \"#utility.yul\":2131:2248   */\n    tag_350:\n        /* \"#utility.yul\":2287:2346   */\n      tag_352\n        /* \"#utility.yul\":2342:2345   */\n      dup5\n        /* \"#utility.yul\":2333:2339   */\n      dup3\n        /* \"#utility.yul\":2322:2331   */\n      dup6\n        /* \"#utility.yul\":2318:2340   */\n      add\n        /* \"#utility.yul\":2287:2346   */\n      tag_331\n      jump\t// in\n    tag_352:\n        /* \"#utility.yul\":2280:2284   */\n      0x40\n        /* \"#utility.yul\":2273:2278   */\n      dup4\n        /* \"#utility.yul\":2269:2285   */\n      add\n        /* \"#utility.yul\":2262:2347   */\n      mstore\n        /* \"#utility.yul\":2037:2358   */\n      pop\n        /* \"#utility.yul\":2447:2449   */\n      0x60\n        /* \"#utility.yul\":2436:2445   */\n      dup3\n        /* \"#utility.yul\":2432:2450   */\n      add\n        /* \"#utility.yul\":2419:2451   */\n      calldataload\n        /* \"#utility.yul\":2478:2496   */\n      0xffffffffffffffff\n        /* \"#utility.yul\":2470:2476   */\n      dup2\n        /* \"#utility.yul\":2467:2497   */\n      gt\n        /* \"#utility.yul\":2464:2581   */\n      iszero\n      tag_353\n      jumpi\n        /* \"#utility.yul\":2500:2579   */\n      tag_354\n      tag_345\n      jump\t// in\n    tag_354:\n        /* \"#utility.yul\":2464:2581   */\n    tag_353:\n        /* \"#utility.yul\":2620:2679   */\n      tag_355\n        /* \"#utility.yul\":2675:2678   */\n      dup5\n        /* \"#utility.yul\":2666:2672   */\n      dup3\n        /* \"#utility.yul\":2655:2664   */\n      dup6\n        /* \"#utility.yul\":2651:2673   */\n      add\n        /* \"#utility.yul\":2620:2679   */\n      tag_331\n      jump\t// in\n    tag_355:\n        /* \"#utility.yul\":2613:2617   */\n      0x60\n        /* \"#utility.yul\":2606:2611   */\n      dup4\n        /* \"#utility.yul\":2602:2618   */\n      add\n        /* \"#utility.yul\":2595:2680   */\n      mstore\n        /* \"#utility.yul\":2368:2691   */\n      pop\n        /* \"#utility.yul\":2780:2783   */\n      0x80\n        /* \"#utility.yul\":2769:2778   */\n      dup3\n        /* \"#utility.yul\":2765:2784   */\n      add\n        /* \"#utility.yul\":2752:2785   */\n      calldataload\n        /* \"#utility.yul\":2812:2830   */\n      0xffffffffffffffff\n        /* \"#utility.yul\":2804:2810   */\n      dup2\n        /* \"#utility.yul\":2801:2831   */\n      gt\n        /* \"#utility.yul\":2798:2915   */\n      iszero\n      tag_356\n      jumpi\n        /* \"#utility.yul\":2834:2913   */\n      tag_357\n      tag_345\n      jump\t// in\n    tag_357:\n        /* \"#utility.yul\":2798:2915   */\n    tag_356:\n        /* \"#utility.yul\":2954:3013   */\n      tag_358\n        /* \"#utility.yul\":3009:3012   */\n      dup5\n        /* \"#utility.yul\":3000:3006   */\n      dup3\n        /* \"#utility.yul\":2989:2998   */\n      dup6\n        /* \"#utility.yul\":2985:3007   */\n      add\n        /* \"#utility.yul\":2954:3013   */\n      tag_331\n      jump\t// in\n    tag_358:\n        /* \"#utility.yul\":2947:2951   */\n      0x80\n        /* \"#utility.yul\":2940:2945   */\n      dup4\n        /* \"#utility.yul\":2936:2952   */\n      add\n        /* \"#utility.yul\":2929:3014   */\n      mstore\n        /* \"#utility.yul\":2701:3025   */\n      pop\n        /* \"#utility.yul\":3113:3116   */\n      0xa0\n        /* \"#utility.yul\":3102:3111   */\n      dup3\n        /* \"#utility.yul\":3098:3117   */\n      add\n        /* \"#utility.yul\":3085:3118   */\n      calldataload\n        /* \"#utility.yul\":3145:3163   */\n      0xffffffffffffffff\n        /* \"#utility.yul\":3137:3143   */\n      dup2\n        /* \"#utility.yul\":3134:3164   */\n      gt\n        /* \"#utility.yul\":3131:3248   */\n      iszero\n      tag_359\n      jumpi\n        /* \"#utility.yul\":3167:3246   */\n      tag_360\n      tag_345\n      jump\t// in\n    tag_360:\n        /* \"#utility.yul\":3131:3248   */\n    tag_359:\n        /* \"#utility.yul\":3287:3346   */\n      tag_361\n        /* \"#utility.yul\":3342:3345   */\n      dup5\n        /* \"#utility.yul\":3333:3339   */\n      dup3\n        /* \"#utility.yul\":3322:3331   */\n      dup6\n        /* \"#utility.yul\":3318:3340   */\n      add\n        /* \"#utility.yul\":3287:3346   */\n      tag_331\n      jump\t// in\n    tag_361:\n        /* \"#utility.yul\":3280:3284   */\n      0xa0\n        /* \"#utility.yul\":3273:3278   */\n      dup4\n        /* \"#utility.yul\":3269:3285   */\n      add\n        /* \"#utility.yul\":3262:3347   */\n      mstore\n        /* \"#utility.yul\":3035:3358   */\n      pop\n        /* \"#utility.yul\":3447:3450   */\n      0xc0\n        /* \"#utility.yul\":3436:3445   */\n      dup3\n        /* \"#utility.yul\":3432:3451   */\n      add\n        /* \"#utility.yul\":3419:3452   */\n      calldataload\n        /* \"#utility.yul\":3479:3497   */\n      0xffffffffffffffff\n        /* \"#utility.yul\":3471:3477   */\n      dup2\n        /* \"#utility.yul\":3468:3498   */\n      gt\n        /* \"#utility.yul\":3465:3582   */\n      iszero\n      tag_362\n      jumpi\n        /* \"#utility.yul\":3501:3580   */\n      tag_363\n      tag_345\n      jump\t// in\n    tag_363:\n        /* \"#utility.yul\":3465:3582   */\n    tag_362:\n        /* \"#utility.yul\":3621:3680   */\n      tag_364\n        /* \"#utility.yul\":3676:3679   */\n      dup5\n        /* \"#utility.yul\":3667:3673   */\n      dup3\n        /* \"#utility.yul\":3656:3665   */\n      dup6\n        /* \"#utility.yul\":3652:3674   */\n      add\n        /* \"#utility.yul\":3621:3680   */\n      tag_331\n      jump\t// in\n    tag_364:\n        /* \"#utility.yul\":3614:3618   */\n      0xc0\n        /* \"#utility.yul\":3607:3612   */\n      dup4\n        /* \"#utility.yul\":3603:3619   */\n      add\n        /* \"#utility.yul\":3596:3681   */\n      mstore\n        /* \"#utility.yul\":3368:3692   */\n      pop\n        /* \"#utility.yul\":1121:3699   */\n      swap3\n      swap2\n      pop\n      pop\n      jump\t// out\n        /* \"#utility.yul\":3705:3844   */\n    tag_365:\n        /* \"#utility.yul\":3751:3756   */\n      0x00\n        /* \"#utility.yul\":3789:3795   */\n      dup2\n        /* \"#utility.yul\":3776:3796   */\n      calldataload\n        /* \"#utility.yul\":3767:3796   */\n      swap1\n      pop\n        /* \"#utility.yul\":3805:3838   */\n      tag_367\n        /* \"#utility.yul\":3832:3837   */\n      dup2\n        /* \"#utility.yul\":3805:3838   */\n      tag_368\n      jump\t// in\n    tag_367:\n        /* \"#utility.yul\":3705:3844   */\n      swap3\n      swap2\n      pop\n      pop\n      jump\t// out\n        /* \"#utility.yul\":3850:4179   */\n    tag_95:\n        /* \"#utility.yul\":3909:3915   */\n      0x00\n        /* \"#utility.yul\":3958:3960   */\n      0x20\n        /* \"#utility.yul\":3946:3955   */\n      dup3\n        /* \"#utility.yul\":3937:3944   */\n      dup5\n        /* \"#utility.yul\":3933:3956   */\n      sub\n        /* \"#utility.yul\":3929:3961   */\n      slt\n        /* \"#utility.yul\":3926:4045   */\n      iszero\n      tag_370\n      jumpi\n        /* \"#utility.yul\":3964:4043   */\n      tag_371\n      tag_372\n      jump\t// in\n    tag_371:\n        /* \"#utility.yul\":3926:4045   */\n    tag_370:\n        /* \"#utility.yul\":4084:4085   */\n      0x00\n        /* \"#utility.yul\":4109:4162   */\n      tag_373\n        /* \"#utility.yul\":4154:4161   */\n      dup5\n        /* \"#utility.yul\":4145:4151   */\n      dup3\n        /* \"#utility.yul\":4134:4143   */\n      dup6\n        /* \"#utility.yul\":4130:4152   */\n      add\n        /* \"#utility.yul\":4109:4162   */\n      tag_323\n      jump\t// in\n    tag_373:\n        /* \"#utility.yul\":4099:4162   */\n      swap2\n      pop\n        /* \"#utility.yul\":4055:4172   */\n      pop\n        /* \"#utility.yul\":3850:4179   */\n      swap3\n      swap2\n      pop\n      pop\n      jump\t// out\n        /* \"#utility.yul\":4185:4998   */\n    tag_35:\n        /* \"#utility.yul\":4279:4285   */\n      0x00\n        /* \"#utility.yul\":4287:4293   */\n      dup1\n        /* \"#utility.yul\":4295:4301   */\n      0x00\n        /* \"#utility.yul\":4344:4346   */\n      0x60\n        /* \"#utility.yul\":4332:4341   */\n      dup5\n        /* \"#utility.yul\":4323:4330   */\n      dup7\n        /* \"#utility.yul\":4319:4342   */\n      sub\n        /* \"#utility.yul\":4315:4347   */\n      slt\n        /* \"#utility.yul\":4312:4431   */\n      iszero\n      tag_375\n      jumpi\n        /* \"#utility.yul\":4350:4429   */\n      tag_376\n      tag_372\n      jump\t// in\n    tag_376:\n        /* \"#utility.yul\":4312:4431   */\n    tag_375:\n        /* \"#utility.yul\":4470:4471   */\n      0x00\n        /* \"#utility.yul\":4495:4548   */\n      tag_377\n        /* \"#utility.yul\":4540:4547   */\n      dup7\n        /* \"#utility.yul\":4531:4537   */\n      dup3\n        /* \"#utility.yul\":4520:4529   */\n      dup8\n        /* \"#utility.yul\":4516:4538   */\n      add\n        /* \"#utility.yul\":4495:4548   */\n      tag_323\n      jump\t// in\n    tag_377:\n        /* \"#utility.yul\":4485:4548   */\n      swap4\n      pop\n        /* \"#utility.yul\":4441:4558   */\n      pop\n        /* \"#utility.yul\":4597:4599   */\n      0x20\n        /* \"#utility.yul\":4623:4683   */\n      tag_378\n        /* \"#utility.yul\":4675:4682   */\n      dup7\n        /* \"#utility.yul\":4666:4672   */\n      dup3\n        /* \"#utility.yul\":4655:4664   */\n      dup8\n        /* \"#utility.yul\":4651:4673   */\n      add\n        /* \"#utility.yul\":4623:4683   */\n      tag_327\n      jump\t// in\n    tag_378:\n        /* \"#utility.yul\":4613:4683   */\n      swap3\n      pop\n        /* \"#utility.yul\":4568:4693   */\n      pop\n        /* \"#utility.yul\":4760:4762   */\n      0x40\n        /* \"#utility.yul\":4749:4758   */\n      dup5\n        /* \"#utility.yul\":4745:4763   */\n      add\n        /* \"#utility.yul\":4732:4764   */\n      calldataload\n        /* \"#utility.yul\":4791:4809   */\n      0xffffffffffffffff\n        /* \"#utility.yul\":4783:4789   */\n      dup2\n        /* \"#utility.yul\":4780:4810   */\n      gt\n        /* \"#utility.yul\":4777:4894   */\n      iszero\n      tag_379\n      jumpi\n        /* \"#utility.yul\":4813:4892   */\n      tag_380\n      tag_381\n      jump\t// in\n    tag_380:\n        /* \"#utility.yul\":4777:4894   */\n    tag_379:\n        /* \"#utility.yul\":4918:4981   */\n      tag_382\n        /* \"#utility.yul\":4973:4980   */\n      dup7\n        /* \"#utility.yul\":4964:4970   */\n      dup3\n        /* \"#utility.yul\":4953:4962   */\n      dup8\n        /* \"#utility.yul\":4949:4971   */\n      add\n        /* \"#utility.yul\":4918:4981   */\n      tag_331\n      jump\t// in\n    tag_382:\n        /* \"#utility.yul\":4908:4981   */\n      swap2\n      pop\n        /* \"#utility.yul\":4703:4991   */\n      pop\n        /* \"#utility.yul\":4185:4998   */\n      swap3\n      pop\n      swap3\n      pop\n      swap3\n      jump\t// out\n        /* \"#utility.yul\":5004:5478   */\n    tag_63:\n        /* \"#utility.yul\":5072:5078   */\n      0x00\n        /* \"#utility.yul\":5080:5086   */\n      dup1\n        /* \"#utility.yul\":5129:5131   */\n      0x40\n        /* \"#utility.yul\":5117:5126   */\n      dup4\n        /* \"#utility.yul\":5108:5115   */\n      dup6\n        /* \"#utility.yul\":5104:5127   */\n      sub\n        /* \"#utility.yul\":5100:5132   */\n      slt\n        /* \"#utility.yul\":5097:5216   */\n      iszero\n      tag_384\n      jumpi\n        /* \"#utility.yul\":5135:5214   */\n      tag_385\n      tag_372\n      jump\t// in\n    tag_385:\n        /* \"#utility.yul\":5097:5216   */\n    tag_384:\n        /* \"#utility.yul\":5255:5256   */\n      0x00\n        /* \"#utility.yul\":5280:5333   */\n      tag_386\n        /* \"#utility.yul\":5325:5332   */\n      dup6\n        /* \"#utility.yul\":5316:5322   */\n      dup3\n        /* \"#utility.yul\":5305:5314   */\n      dup7\n        /* \"#utility.yul\":5301:5323   */\n      add\n        /* \"#utility.yul\":5280:5333   */\n      tag_323\n      jump\t// in\n    tag_386:\n        /* \"#utility.yul\":5270:5333   */\n      swap3\n      pop\n        /* \"#utility.yul\":5226:5343   */\n      pop\n        /* \"#utility.yul\":5382:5384   */\n      0x20\n        /* \"#utility.yul\":5408:5461   */\n      tag_387\n        /* \"#utility.yul\":5453:5460   */\n      dup6\n        /* \"#utility.yul\":5444:5450   */\n      dup3\n        /* \"#utility.yul\":5433:5442   */\n      dup7\n        /* \"#utility.yul\":5429:5451   */\n      add\n        /* \"#utility.yul\":5408:5461   */\n      tag_365\n      jump\t// in\n    tag_387:\n        /* \"#utility.yul\":5398:5461   */\n      swap2\n      pop\n        /* \"#utility.yul\":5353:5471   */\n      pop\n        /* \"#utility.yul\":5004:5478   */\n      swap3\n      pop\n      swap3\n      swap1\n      pop\n      jump\t// out\n        /* \"#utility.yul\":5484:5813   */\n    tag_40:\n        /* \"#utility.yul\":5543:5549   */\n      0x00\n        /* \"#utility.yul\":5592:5594   */\n      0x20\n        /* \"#utility.yul\":5580:5589   */\n      dup3\n        /* \"#utility.yul\":5571:5578   */\n      dup5\n        /* \"#utility.yul\":5567:5590   */\n      sub\n        /* \"#utility.yul\":5563:5595   */\n      slt\n        /* \"#utility.yul\":5560:5679   */\n      iszero\n      tag_389\n      jumpi\n        /* \"#utility.yul\":5598:5677   */\n      tag_390\n      tag_372\n      jump\t// in\n    tag_390:\n        /* \"#utility.yul\":5560:5679   */\n    tag_389:\n        /* \"#utility.yul\":5718:5719   */\n      0x00\n        /* \"#utility.yul\":5743:5796   */\n      tag_391\n        /* \"#utility.yul\":5788:5795   */\n      dup5\n        /* \"#utility.yul\":5779:5785   */\n      dup3\n        /* \"#utility.yul\":5768:5777   */\n      dup6\n        /* \"#utility.yul\":5764:5786   */\n      add\n        /* \"#utility.yul\":5743:5796   */\n      tag_365\n      jump\t// in\n    tag_391:\n        /* \"#utility.yul\":5733:5796   */\n      swap2\n      pop\n        /* \"#utility.yul\":5689:5806   */\n      pop\n        /* \"#utility.yul\":5484:5813   */\n      swap3\n      swap2\n      pop\n      pop\n      jump\t// out\n        /* \"#utility.yul\":5819:6499   */\n    tag_30:\n        /* \"#utility.yul\":5910:5916   */\n      0x00\n        /* \"#utility.yul\":5918:5924   */\n      dup1\n        /* \"#utility.yul\":5967:5969   */\n      0x40\n        /* \"#utility.yul\":5955:5964   */\n      dup4\n        /* \"#utility.yul\":5946:5953   */\n      dup6\n        /* \"#utility.yul\":5942:5965   */\n      sub\n        /* \"#utility.yul\":5938:5970   */\n      slt\n        /* \"#utility.yul\":5935:6054   */\n      iszero\n      tag_393\n      jumpi\n        /* \"#utility.yul\":5973:6052   */\n      tag_394\n      tag_372\n      jump\t// in\n    tag_394:\n        /* \"#utility.yul\":5935:6054   */\n    tag_393:\n        /* \"#utility.yul\":6093:6094   */\n      0x00\n        /* \"#utility.yul\":6118:6171   */\n      tag_395\n        /* \"#utility.yul\":6163:6170   */\n      dup6\n        /* \"#utility.yul\":6154:6160   */\n      dup3\n        /* \"#utility.yul\":6143:6152   */\n      dup7\n        /* \"#utility.yul\":6139:6161   */\n      add\n        /* \"#utility.yul\":6118:6171   */\n      tag_365\n      jump\t// in\n    tag_395:\n        /* \"#utility.yul\":6108:6171   */\n      swap3\n      pop\n        /* \"#utility.yul\":6064:6181   */\n      pop\n        /* \"#utility.yul\":6248:6250   */\n      0x20\n        /* \"#utility.yul\":6237:6246   */\n      dup4\n        /* \"#utility.yul\":6233:6251   */\n      add\n        /* \"#utility.yul\":6220:6252   */\n      calldataload\n        /* \"#utility.yul\":6279:6297   */\n      0xffffffffffffffff\n        /* \"#utility.yul\":6271:6277   */\n      dup2\n        /* \"#utility.yul\":6268:6298   */\n      gt\n        /* \"#utility.yul\":6265:6382   */\n      iszero\n      tag_396\n      jumpi\n        /* \"#utility.yul\":6301:6380   */\n      tag_397\n      tag_381\n      jump\t// in\n    tag_397:\n        /* \"#utility.yul\":6265:6382   */\n    tag_396:\n        /* \"#utility.yul\":6406:6482   */\n      tag_398\n        /* \"#utility.yul\":6474:6481   */\n      dup6\n        /* \"#utility.yul\":6465:6471   */\n      dup3\n        /* \"#utility.yul\":6454:6463   */\n      dup7\n        /* \"#utility.yul\":6450:6472   */\n      add\n        /* \"#utility.yul\":6406:6482   */\n      tag_337\n      jump\t// in\n    tag_398:\n        /* \"#utility.yul\":6396:6482   */\n      swap2\n      pop\n        /* \"#utility.yul\":6191:6492   */\n      pop\n        /* \"#utility.yul\":5819:6499   */\n      swap3\n      pop\n      swap3\n      swap1\n      pop\n      jump\t// out\n        /* \"#utility.yul\":6505:6979   */\n    tag_47:\n        /* \"#utility.yul\":6573:6579   */\n      0x00\n        /* \"#utility.yul\":6581:6587   */\n      dup1\n        /* \"#utility.yul\":6630:6632   */\n      0x40\n        /* \"#utility.yul\":6618:6627   */\n      dup4\n        /* \"#utility.yul\":6609:6616   */\n      dup6\n        /* \"#utility.yul\":6605:6628   */\n      sub\n        /* \"#utility.yul\":6601:6633   */\n      slt\n        /* \"#utility.yul\":6598:6717   */\n      iszero\n      tag_400\n      jumpi\n        /* \"#utility.yul\":6636:6715   */\n      tag_401\n      tag_372\n      jump\t// in\n    tag_401:\n        /* \"#utility.yul\":6598:6717   */\n    tag_400:\n        /* \"#utility.yul\":6756:6757   */\n      0x00\n        /* \"#utility.yul\":6781:6834   */\n      tag_402\n        /* \"#utility.yul\":6826:6833   */\n      dup6\n        /* \"#utility.yul\":6817:6823   */\n      dup3\n        /* \"#utility.yul\":6806:6815   */\n      dup7\n        /* \"#utility.yul\":6802:6824   */\n      add\n        /* \"#utility.yul\":6781:6834   */\n      tag_365\n      jump\t// in\n    tag_402:\n        /* \"#utility.yul\":6771:6834   */\n      swap3\n      pop\n        /* \"#utility.yul\":6727:6844   */\n      pop\n        /* \"#utility.yul\":6883:6885   */\n      0x20\n        /* \"#utility.yul\":6909:6962   */\n      tag_403\n        /* \"#utility.yul\":6954:6961   */\n      dup6\n        /* \"#utility.yul\":6945:6951   */\n      dup3\n        /* \"#utility.yul\":6934:6943   */\n      dup7\n        /* \"#utility.yul\":6930:6952   */\n      add\n        /* \"#utility.yul\":6909:6962   */\n      tag_365\n      jump\t// in\n    tag_403:\n        /* \"#utility.yul\":6899:6962   */\n      swap2\n      pop\n        /* \"#utility.yul\":6854:6972   */\n      pop\n        /* \"#utility.yul\":6505:6979   */\n      swap3\n      pop\n      swap3\n      swap1\n      pop\n      jump\t// out\n        /* \"#utility.yul\":6985:9886   */\n    tag_52:\n        /* \"#utility.yul\":7195:7201   */\n      0x00\n        /* \"#utility.yul\":7203:7209   */\n      dup1\n        /* \"#utility.yul\":7211:7217   */\n      0x00\n        /* \"#utility.yul\":7219:7225   */\n      dup1\n        /* \"#utility.yul\":7227:7233   */\n      0x00\n        /* \"#utility.yul\":7235:7241   */\n      dup1\n        /* \"#utility.yul\":7243:7249   */\n      0x00\n        /* \"#utility.yul\":7251:7257   */\n      dup1\n        /* \"#utility.yul\":7259:7265   */\n      0x00\n        /* \"#utility.yul\":7267:7273   */\n      dup1\n        /* \"#utility.yul\":7316:7319   */\n      0x0140\n        /* \"#utility.yul\":7304:7313   */\n      dup12\n        /* \"#utility.yul\":7295:7302   */\n      dup14\n        /* \"#utility.yul\":7291:7314   */\n      sub\n        /* \"#utility.yul\":7287:7320   */\n      slt\n        /* \"#utility.yul\":7284:7404   */\n      iszero\n      tag_405\n      jumpi\n        /* \"#utility.yul\":7323:7402   */\n      tag_406\n      tag_372\n      jump\t// in\n    tag_406:\n        /* \"#utility.yul\":7284:7404   */\n    tag_405:\n        /* \"#utility.yul\":7443:7444   */\n      0x00\n        /* \"#utility.yul\":7468:7521   */\n      tag_407\n        /* \"#utility.yul\":7513:7520   */\n      dup14\n        /* \"#utility.yul\":7504:7510   */\n      dup3\n        /* \"#utility.yul\":7493:7502   */\n      dup15\n        /* \"#utility.yul\":7489:7511   */\n      add\n        /* \"#utility.yul\":7468:7521   */\n      tag_365\n      jump\t// in\n    tag_407:\n        /* \"#utility.yul\":7458:7521   */\n      swap11\n      pop\n        /* \"#utility.yul\":7414:7531   */\n      pop\n        /* \"#utility.yul\":7570:7572   */\n      0x20\n        /* \"#utility.yul\":7596:7649   */\n      tag_408\n        /* \"#utility.yul\":7641:7648   */\n      dup14\n        /* \"#utility.yul\":7632:7638   */\n      dup3\n        /* \"#utility.yul\":7621:7630   */\n      dup15\n        /* \"#utility.yul\":7617:7639   */\n      add\n        /* \"#utility.yul\":7596:7649   */\n      tag_365\n      jump\t// in\n    tag_408:\n        /* \"#utility.yul\":7586:7649   */\n      swap10\n      pop\n        /* \"#utility.yul\":7541:7659   */\n      pop\n        /* \"#utility.yul\":7698:7700   */\n      0x40\n        /* \"#utility.yul\":7724:7777   */\n      tag_409\n        /* \"#utility.yul\":7769:7776   */\n      dup14\n        /* \"#utility.yul\":7760:7766   */\n      dup3\n        /* \"#utility.yul\":7749:7758   */\n      dup15\n        /* \"#utility.yul\":7745:7767   */\n      add\n        /* \"#utility.yul\":7724:7777   */\n      tag_365\n      jump\t// in\n    tag_409:\n        /* \"#utility.yul\":7714:7777   */\n      swap9\n      pop\n        /* \"#utility.yul\":7669:7787   */\n      pop\n        /* \"#utility.yul\":7854:7856   */\n      0x60\n        /* \"#utility.yul\":7843:7852   */\n      dup12\n        /* \"#utility.yul\":7839:7857   */\n      add\n        /* \"#utility.yul\":7826:7858   */\n      calldataload\n        /* \"#utility.yul\":7885:7903   */\n      0xffffffffffffffff\n        /* \"#utility.yul\":7877:7883   */\n      dup2\n        /* \"#utility.yul\":7874:7904   */\n      gt\n        /* \"#utility.yul\":7871:7988   */\n      iszero\n      tag_410\n      jumpi\n        /* \"#utility.yul\":7907:7986   */\n      tag_411\n      tag_381\n      jump\t// in\n    tag_411:\n        /* \"#utility.yul\":7871:7988   */\n    tag_410:\n        /* \"#utility.yul\":8012:8075   */\n      tag_412\n        /* \"#utility.yul\":8067:8074   */\n      dup14\n        /* \"#utility.yul\":8058:8064   */\n      dup3\n        /* \"#utility.yul\":8047:8056   */\n      dup15\n        /* \"#utility.yul\":8043:8065   */\n      add\n        /* \"#utility.yul\":8012:8075   */\n      tag_331\n      jump\t// in\n    tag_412:\n        /* \"#utility.yul\":8002:8075   */\n      swap8\n      pop\n        /* \"#utility.yul\":7797:8085   */\n      pop\n        /* \"#utility.yul\":8152:8155   */\n      0x80\n        /* \"#utility.yul\":8141:8150   */\n      dup12\n        /* \"#utility.yul\":8137:8156   */\n      add\n        /* \"#utility.yul\":8124:8157   */\n      calldataload\n        /* \"#utility.yul\":8184:8202   */\n      0xffffffffffffffff\n        /* \"#utility.yul\":8176:8182   */\n      dup2\n        /* \"#utility.yul\":8173:8203   */\n      gt\n        /* \"#utility.yul\":8170:8287   */\n      iszero\n      tag_413\n      jumpi\n        /* \"#utility.yul\":8206:8285   */\n      tag_414\n      tag_381\n      jump\t// in\n    tag_414:\n        /* \"#utility.yul\":8170:8287   */\n    tag_413:\n        /* \"#utility.yul\":8311:8374   */\n      tag_415\n        /* \"#utility.yul\":8366:8373   */\n      dup14\n        /* \"#utility.yul\":8357:8363   */\n      dup3\n        /* \"#utility.yul\":8346:8355   */\n      dup15\n        /* \"#utility.yul\":8342:8364   */\n      add\n        /* \"#utility.yul\":8311:8374   */\n      tag_331\n      jump\t// in\n    tag_415:\n        /* \"#utility.yul\":8301:8374   */\n      swap7\n      pop\n        /* \"#utility.yul\":8095:8384   */\n      pop\n        /* \"#utility.yul\":8451:8454   */\n      0xa0\n        /* \"#utility.yul\":8440:8449   */\n      dup12\n        /* \"#utility.yul\":8436:8455   */\n      add\n        /* \"#utility.yul\":8423:8456   */\n      calldataload\n        /* \"#utility.yul\":8483:8501   */\n      0xffffffffffffffff\n        /* \"#utility.yul\":8475:8481   */\n      dup2\n        /* \"#utility.yul\":8472:8502   */\n      gt\n        /* \"#utility.yul\":8469:8586   */\n      iszero\n      tag_416\n      jumpi\n        /* \"#utility.yul\":8505:8584   */\n      tag_417\n      tag_381\n      jump\t// in\n    tag_417:\n        /* \"#utility.yul\":8469:8586   */\n    tag_416:\n        /* \"#utility.yul\":8610:8673   */\n      tag_418\n        /* \"#utility.yul\":8665:8672   */\n      dup14\n        /* \"#utility.yul\":8656:8662   */\n      dup3\n        /* \"#utility.yul\":8645:8654   */\n      dup15\n        /* \"#utility.yul\":8641:8663   */\n      add\n        /* \"#utility.yul\":8610:8673   */\n      tag_331\n      jump\t// in\n    tag_418:\n        /* \"#utility.yul\":8600:8673   */\n      swap6\n      pop\n        /* \"#utility.yul\":8394:8683   */\n      pop\n        /* \"#utility.yul\":8750:8753   */\n      0xc0\n        /* \"#utility.yul\":8739:8748   */\n      dup12\n        /* \"#utility.yul\":8735:8754   */\n      add\n        /* \"#utility.yul\":8722:8755   */\n      calldataload\n        /* \"#utility.yul\":8782:8800   */\n      0xffffffffffffffff\n        /* \"#utility.yul\":8774:8780   */\n      dup2\n        /* \"#utility.yul\":8771:8801   */\n      gt\n        /* \"#utility.yul\":8768:8885   */\n      iszero\n      tag_419\n      jumpi\n        /* \"#utility.yul\":8804:8883   */\n      tag_420\n      tag_381\n      jump\t// in\n    tag_420:\n        /* \"#utility.yul\":8768:8885   */\n    tag_419:\n        /* \"#utility.yul\":8909:8972   */\n      tag_421\n        /* \"#utility.yul\":8964:8971   */\n      dup14\n        /* \"#utility.yul\":8955:8961   */\n      dup3\n        /* \"#utility.yul\":8944:8953   */\n      dup15\n        /* \"#utility.yul\":8940:8962   */\n      add\n        /* \"#utility.yul\":8909:8972   */\n      tag_331\n      jump\t// in\n    tag_421:\n        /* \"#utility.yul\":8899:8972   */\n      swap5\n      pop\n        /* \"#utility.yul\":8693:8982   */\n      pop\n        /* \"#utility.yul\":9049:9052   */\n      0xe0\n        /* \"#utility.yul\":9038:9047   */\n      dup12\n        /* \"#utility.yul\":9034:9053   */\n      add\n        /* \"#utility.yul\":9021:9054   */\n      calldataload\n        /* \"#utility.yul\":9081:9099   */\n      0xffffffffffffffff\n        /* \"#utility.yul\":9073:9079   */\n      dup2\n        /* \"#utility.yul\":9070:9100   */\n      gt\n        /* \"#utility.yul\":9067:9184   */\n      iszero\n      tag_422\n      jumpi\n        /* \"#utility.yul\":9103:9182   */\n      tag_423\n      tag_381\n      jump\t// in\n    tag_423:\n        /* \"#utility.yul\":9067:9184   */\n    tag_422:\n        /* \"#utility.yul\":9208:9271   */\n      tag_424\n        /* \"#utility.yul\":9263:9270   */\n      dup14\n        /* \"#utility.yul\":9254:9260   */\n      dup3\n        /* \"#utility.yul\":9243:9252   */\n      dup15\n        /* \"#utility.yul\":9239:9261   */\n      add\n        /* \"#utility.yul\":9208:9271   */\n      tag_331\n      jump\t// in\n    tag_424:\n        /* \"#utility.yul\":9198:9271   */\n      swap4\n      pop\n        /* \"#utility.yul\":8992:9281   */\n      pop\n        /* \"#utility.yul\":9348:9351   */\n      0x0100\n        /* \"#utility.yul\":9337:9346   */\n      dup12\n        /* \"#utility.yul\":9333:9352   */\n      add\n        /* \"#utility.yul\":9320:9353   */\n      calldataload\n        /* \"#utility.yul\":9380:9398   */\n      0xffffffffffffffff\n        /* \"#utility.yul\":9372:9378   */\n      dup2\n        /* \"#utility.yul\":9369:9399   */\n      gt\n        /* \"#utility.yul\":9366:9483   */\n      iszero\n      tag_425\n      jumpi\n        /* \"#utility.yul\":9402:9481   */\n      tag_426\n      tag_381\n      jump\t// in\n    tag_426:\n        /* \"#utility.yul\":9366:9483   */\n    tag_425:\n        /* \"#utility.yul\":9507:9570   */\n      tag_427\n        /* \"#utility.yul\":9562:9569   */\n      dup14\n        /* \"#utility.yul\":9553:9559   */\n      dup3\n        /* \"#utility.yul\":9542:9551   */\n      dup15\n        /* \"#utility.yul\":9538:9560   */\n      add\n        /* \"#utility.yul\":9507:9570   */\n      tag_331\n      jump\t// in\n    tag_427:\n        /* \"#utility.yul\":9497:9570   */\n      swap3\n      pop\n        /* \"#utility.yul\":9291:9580   */\n      pop\n        /* \"#utility.yul\":9647:9650   */\n      0x0120\n        /* \"#utility.yul\":9636:9645   */\n      dup12\n        /* \"#utility.yul\":9632:9651   */\n      add\n        /* \"#utility.yul\":9619:9652   */\n      calldataload\n        /* \"#utility.yul\":9679:9697   */\n      0xffffffffffffffff\n        /* \"#utility.yul\":9671:9677   */\n      dup2\n        /* \"#utility.yul\":9668:9698   */\n      gt\n        /* \"#utility.yul\":9665:9782   */\n      iszero\n      tag_428\n      jumpi\n        /* \"#utility.yul\":9701:9780   */\n      tag_429\n      tag_381\n      jump\t// in\n    tag_429:\n        /* \"#utility.yul\":9665:9782   */\n    tag_428:\n        /* \"#utility.yul\":9806:9869   */\n      tag_430\n        /* \"#utility.yul\":9861:9868   */\n      dup14\n        /* \"#utility.yul\":9852:9858   */\n      dup3\n        /* \"#utility.yul\":9841:9850   */\n      dup15\n        /* \"#utility.yul\":9837:9859   */\n      add\n        /* \"#utility.yul\":9806:9869   */\n      tag_331\n      jump\t// in\n    tag_430:\n        /* \"#utility.yul\":9796:9869   */\n      swap2\n      pop\n        /* \"#utility.yul\":9590:9879   */\n      pop\n        /* \"#utility.yul\":6985:9886   */\n      swap3\n      swap6\n      swap9\n      swap12\n      swap2\n      swap5\n      swap8\n      swap11\n      pop\n      swap3\n      swap6\n      swap9\n      pop\n      jump\t// out\n        /* \"#utility.yul\":9892:10034   */\n    tag_431:\n        /* \"#utility.yul\":9995:10027   */\n      tag_433\n        /* \"#utility.yul\":10021:10026   */\n      dup2\n        /* \"#utility.yul\":9995:10027   */\n      tag_434\n      jump\t// in\n    tag_433:\n        /* \"#utility.yul\":9990:9993   */\n      dup3\n        /* \"#utility.yul\":9983:10028   */\n      mstore\n        /* \"#utility.yul\":9892:10034   */\n      pop\n      pop\n      jump\t// out\n        /* \"#utility.yul\":10040:10158   */\n    tag_435:\n        /* \"#utility.yul\":10127:10151   */\n      tag_437\n        /* \"#utility.yul\":10145:10150   */\n      dup2\n        /* \"#utility.yul\":10127:10151   */\n      tag_438\n      jump\t// in\n    tag_437:\n        /* \"#utility.yul\":10122:10125   */\n      dup3\n        /* \"#utility.yul\":10115:10152   */\n      mstore\n        /* \"#utility.yul\":10040:10158   */\n      pop\n      pop\n      jump\t// out\n        /* \"#utility.yul\":10164:10273   */\n    tag_439:\n        /* \"#utility.yul\":10245:10266   */\n      tag_441\n        /* \"#utility.yul\":10260:10265   */\n      dup2\n        /* \"#utility.yul\":10245:10266   */\n      tag_442\n      jump\t// in\n    tag_441:\n        /* \"#utility.yul\":10240:10243   */\n      dup3\n        /* \"#utility.yul\":10233:10267   */\n      mstore\n        /* \"#utility.yul\":10164:10273   */\n      pop\n      pop\n      jump\t// out\n        /* \"#utility.yul\":10279:10420   */\n    tag_443:\n        /* \"#utility.yul\":10371:10413   */\n      tag_445\n        /* \"#utility.yul\":10407:10412   */\n      dup2\n        /* \"#utility.yul\":10371:10413   */\n      tag_446\n      jump\t// in\n    tag_445:\n        /* \"#utility.yul\":10366:10369   */\n      dup3\n        /* \"#utility.yul\":10359:10414   */\n      mstore\n        /* \"#utility.yul\":10279:10420   */\n      pop\n      pop\n      jump\t// out\n        /* \"#utility.yul\":10426:10569   */\n    tag_447:\n        /* \"#utility.yul\":10519:10562   */\n      tag_449\n        /* \"#utility.yul\":10556:10561   */\n      dup2\n        /* \"#utility.yul\":10519:10562   */\n      tag_450\n      jump\t// in\n    tag_449:\n        /* \"#utility.yul\":10514:10517   */\n      dup3\n        /* \"#utility.yul\":10507:10563   */\n      mstore\n        /* \"#utility.yul\":10426:10569   */\n      pop\n      pop\n      jump\t// out\n        /* \"#utility.yul\":10575:10690   */\n    tag_451:\n        /* \"#utility.yul\":10660:10683   */\n      tag_453\n        /* \"#utility.yul\":10677:10682   */\n      dup2\n        /* \"#utility.yul\":10660:10683   */\n      tag_454\n      jump\t// in\n    tag_453:\n        /* \"#utility.yul\":10655:10658   */\n      dup3\n        /* \"#utility.yul\":10648:10684   */\n      mstore\n        /* \"#utility.yul\":10575:10690   */\n      pop\n      pop\n      jump\t// out\n        /* \"#utility.yul\":10696:11040   */\n    tag_455:\n        /* \"#utility.yul\":10774:10777   */\n      0x00\n        /* \"#utility.yul\":10802:10841   */\n      tag_457\n        /* \"#utility.yul\":10835:10840   */\n      dup3\n        /* \"#utility.yul\":10802:10841   */\n      tag_458\n      jump\t// in\n    tag_457:\n        /* \"#utility.yul\":10857:10918   */\n      tag_459\n        /* \"#utility.yul\":10911:10917   */\n      dup2\n        /* \"#utility.yul\":10906:10909   */\n      dup6\n        /* \"#utility.yul\":10857:10918   */\n      tag_460\n      jump\t// in\n    tag_459:\n        /* \"#utility.yul\":10850:10918   */\n      swap4\n      pop\n        /* \"#utility.yul\":10927:10979   */\n      tag_461\n        /* \"#utility.yul\":10972:10978   */\n      dup2\n        /* \"#utility.yul\":10967:10970   */\n      dup6\n        /* \"#utility.yul\":10960:10964   */\n      0x20\n        /* \"#utility.yul\":10953:10958   */\n      dup7\n        /* \"#utility.yul\":10949:10965   */\n      add\n        /* \"#utility.yul\":10927:10979   */\n      tag_462\n      jump\t// in\n    tag_461:\n        /* \"#utility.yul\":11004:11033   */\n      tag_463\n        /* \"#utility.yul\":11026:11032   */\n      dup2\n        /* \"#utility.yul\":11004:11033   */\n      tag_464\n      jump\t// in\n    tag_463:\n        /* \"#utility.yul\":10999:11002   */\n      dup5\n        /* \"#utility.yul\":10995:11034   */\n      add\n        /* \"#utility.yul\":10988:11034   */\n      swap2\n      pop\n        /* \"#utility.yul\":10778:11040   */\n      pop\n        /* \"#utility.yul\":10696:11040   */\n      swap3\n      swap2\n      pop\n      pop\n      jump\t// out\n        /* \"#utility.yul\":11046:11410   */\n    tag_465:\n        /* \"#utility.yul\":11134:11137   */\n      0x00\n        /* \"#utility.yul\":11162:11201   */\n      tag_467\n        /* \"#utility.yul\":11195:11200   */\n      dup3\n        /* \"#utility.yul\":11162:11201   */\n      tag_458\n      jump\t// in\n    tag_467:\n        /* \"#utility.yul\":11217:11288   */\n      tag_468\n        /* \"#utility.yul\":11281:11287   */\n      dup2\n        /* \"#utility.yul\":11276:11279   */\n      dup6\n        /* \"#utility.yul\":11217:11288   */\n      tag_469\n      jump\t// in\n    tag_468:\n        /* \"#utility.yul\":11210:11288   */\n      swap4\n      pop\n        /* \"#utility.yul\":11297:11349   */\n      tag_470\n        /* \"#utility.yul\":11342:11348   */\n      dup2\n        /* \"#utility.yul\":11337:11340   */\n      dup6\n        /* \"#utility.yul\":11330:11334   */\n      0x20\n        /* \"#utility.yul\":11323:11328   */\n      dup7\n        /* \"#utility.yul\":11319:11335   */\n      add\n        /* \"#utility.yul\":11297:11349   */\n      tag_462\n      jump\t// in\n    tag_470:\n        /* \"#utility.yul\":11374:11403   */\n      tag_471\n        /* \"#utility.yul\":11396:11402   */\n      dup2\n        /* \"#utility.yul\":11374:11403   */\n      tag_464\n      jump\t// in\n    tag_471:\n        /* \"#utility.yul\":11369:11372   */\n      dup5\n        /* \"#utility.yul\":11365:11404   */\n      add\n        /* \"#utility.yul\":11358:11404   */\n      swap2\n      pop\n        /* \"#utility.yul\":11138:11410   */\n      pop\n        /* \"#utility.yul\":11046:11410   */\n      swap3\n      swap2\n      pop\n      pop\n      jump\t// out\n        /* \"#utility.yul\":11416:11782   */\n    tag_472:\n        /* \"#utility.yul\":11558:11561   */\n      0x00\n        /* \"#utility.yul\":11579:11646   */\n      tag_474\n        /* \"#utility.yul\":11643:11645   */\n      0x1c\n        /* \"#utility.yul\":11638:11641   */\n      dup4\n        /* \"#utility.yul\":11579:11646   */\n      tag_469\n      jump\t// in\n    tag_474:\n        /* \"#utility.yul\":11572:11646   */\n      swap2\n      pop\n        /* \"#utility.yul\":11655:11748   */\n      tag_475\n        /* \"#utility.yul\":11744:11747   */\n      dup3\n        /* \"#utility.yul\":11655:11748   */\n      tag_476\n      jump\t// in\n    tag_475:\n        /* \"#utility.yul\":11773:11775   */\n      0x20\n        /* \"#utility.yul\":11768:11771   */\n      dup3\n        /* \"#utility.yul\":11764:11776   */\n      add\n        /* \"#utility.yul\":11757:11776   */\n      swap1\n      pop\n        /* \"#utility.yul\":11416:11782   */\n      swap2\n      swap1\n      pop\n      jump\t// out\n        /* \"#utility.yul\":11788:12154   */\n    tag_477:\n        /* \"#utility.yul\":11930:11933   */\n      0x00\n        /* \"#utility.yul\":11951:12018   */\n      tag_479\n        /* \"#utility.yul\":12015:12017   */\n      0x19\n        /* \"#utility.yul\":12010:12013   */\n      dup4\n        /* \"#utility.yul\":11951:12018   */\n      tag_469\n      jump\t// in\n    tag_479:\n        /* \"#utility.yul\":11944:12018   */\n      swap2\n      pop\n        /* \"#utility.yul\":12027:12120   */\n      tag_480\n        /* \"#utility.yul\":12116:12119   */\n      dup3\n        /* \"#utility.yul\":12027:12120   */\n      tag_481\n      jump\t// in\n    tag_480:\n        /* \"#utility.yul\":12145:12147   */\n      0x20\n        /* \"#utility.yul\":12140:12143   */\n      dup3\n        /* \"#utility.yul\":12136:12148   */\n      add\n        /* \"#utility.yul\":12129:12148   */\n      swap1\n      pop\n        /* \"#utility.yul\":11788:12154   */\n      swap2\n      swap1\n      pop\n      jump\t// out\n        /* \"#utility.yul\":12160:12526   */\n    tag_482:\n        /* \"#utility.yul\":12302:12305   */\n      0x00\n        /* \"#utility.yul\":12323:12390   */\n      tag_484\n        /* \"#utility.yul\":12387:12389   */\n      0x1e\n        /* \"#utility.yul\":12382:12385   */\n      dup4\n        /* \"#utility.yul\":12323:12390   */\n      tag_469\n      jump\t// in\n    tag_484:\n        /* \"#utility.yul\":12316:12390   */\n      swap2\n      pop\n        /* \"#utility.yul\":12399:12492   */\n      tag_485\n        /* \"#utility.yul\":12488:12491   */\n      dup3\n        /* \"#utility.yul\":12399:12492   */\n      tag_486\n      jump\t// in\n    tag_485:\n        /* \"#utility.yul\":12517:12519   */\n      0x20\n        /* \"#utility.yul\":12512:12515   */\n      dup3\n        /* \"#utility.yul\":12508:12520   */\n      add\n        /* \"#utility.yul\":12501:12520   */\n      swap1\n      pop\n        /* \"#utility.yul\":12160:12526   */\n      swap2\n      swap1\n      pop\n      jump\t// out\n        /* \"#utility.yul\":12592:14498   */\n    tag_487:\n        /* \"#utility.yul\":12707:12710   */\n      0x00\n        /* \"#utility.yul\":12743:12747   */\n      0xe0\n        /* \"#utility.yul\":12738:12741   */\n      dup4\n        /* \"#utility.yul\":12734:12748   */\n      add\n        /* \"#utility.yul\":12830:12834   */\n      0x00\n        /* \"#utility.yul\":12823:12828   */\n      dup4\n        /* \"#utility.yul\":12819:12835   */\n      add\n        /* \"#utility.yul\":12813:12836   */\n      mload\n        /* \"#utility.yul\":12883:12886   */\n      dup5\n        /* \"#utility.yul\":12877:12881   */\n      dup3\n        /* \"#utility.yul\":12873:12887   */\n      sub\n        /* \"#utility.yul\":12866:12870   */\n      0x00\n        /* \"#utility.yul\":12861:12864   */\n      dup7\n        /* \"#utility.yul\":12857:12871   */\n      add\n        /* \"#utility.yul\":12850:12888   */\n      mstore\n        /* \"#utility.yul\":12909:12982   */\n      tag_489\n        /* \"#utility.yul\":12977:12981   */\n      dup3\n        /* \"#utility.yul\":12963:12975   */\n      dup3\n        /* \"#utility.yul\":12909:12982   */\n      tag_455\n      jump\t// in\n    tag_489:\n        /* \"#utility.yul\":12901:12982   */\n      swap2\n      pop\n        /* \"#utility.yul\":12758:12993   */\n      pop\n        /* \"#utility.yul\":13076:13080   */\n      0x20\n        /* \"#utility.yul\":13069:13074   */\n      dup4\n        /* \"#utility.yul\":13065:13081   */\n      add\n        /* \"#utility.yul\":13059:13082   */\n      mload\n        /* \"#utility.yul\":13129:13132   */\n      dup5\n        /* \"#utility.yul\":13123:13127   */\n      dup3\n        /* \"#utility.yul\":13119:13133   */\n      sub\n        /* \"#utility.yul\":13112:13116   */\n      0x20\n        /* \"#utility.yul\":13107:13110   */\n      dup7\n        /* \"#utility.yul\":13103:13117   */\n      add\n        /* \"#utility.yul\":13096:13134   */\n      mstore\n        /* \"#utility.yul\":13155:13228   */\n      tag_490\n        /* \"#utility.yul\":13223:13227   */\n      dup3\n        /* \"#utility.yul\":13209:13221   */\n      dup3\n        /* \"#utility.yul\":13155:13228   */\n      tag_455\n      jump\t// in\n    tag_490:\n        /* \"#utility.yul\":13147:13228   */\n      swap2\n      pop\n        /* \"#utility.yul\":13003:13239   */\n      pop\n        /* \"#utility.yul\":13321:13325   */\n      0x40\n        /* \"#utility.yul\":13314:13319   */\n      dup4\n        /* \"#utility.yul\":13310:13326   */\n      add\n        /* \"#utility.yul\":13304:13327   */\n      mload\n        /* \"#utility.yul\":13374:13377   */\n      dup5\n        /* \"#utility.yul\":13368:13372   */\n      dup3\n        /* \"#utility.yul\":13364:13378   */\n      sub\n        /* \"#utility.yul\":13357:13361   */\n      0x40\n        /* \"#utility.yul\":13352:13355   */\n      dup7\n        /* \"#utility.yul\":13348:13362   */\n      add\n        /* \"#utility.yul\":13341:13379   */\n      mstore\n        /* \"#utility.yul\":13400:13473   */\n      tag_491\n        /* \"#utility.yul\":13468:13472   */\n      dup3\n        /* \"#utility.yul\":13454:13466   */\n      dup3\n        /* \"#utility.yul\":13400:13473   */\n      tag_455\n      jump\t// in\n    tag_491:\n        /* \"#utility.yul\":13392:13473   */\n      swap2\n      pop\n        /* \"#utility.yul\":13249:13484   */\n      pop\n        /* \"#utility.yul\":13568:13572   */\n      0x60\n        /* \"#utility.yul\":13561:13566   */\n      dup4\n        /* \"#utility.yul\":13557:13573   */\n      add\n        /* \"#utility.yul\":13551:13574   */\n      mload\n        /* \"#utility.yul\":13621:13624   */\n      dup5\n        /* \"#utility.yul\":13615:13619   */\n      dup3\n        /* \"#utility.yul\":13611:13625   */\n      sub\n        /* \"#utility.yul\":13604:13608   */\n      0x60\n        /* \"#utility.yul\":13599:13602   */\n      dup7\n        /* \"#utility.yul\":13595:13609   */\n      add\n        /* \"#utility.yul\":13588:13626   */\n      mstore\n        /* \"#utility.yul\":13647:13720   */\n      tag_492\n        /* \"#utility.yul\":13715:13719   */\n      dup3\n        /* \"#utility.yul\":13701:13713   */\n      dup3\n        /* \"#utility.yul\":13647:13720   */\n      tag_455\n      jump\t// in\n    tag_492:\n        /* \"#utility.yul\":13639:13720   */\n      swap2\n      pop\n        /* \"#utility.yul\":13494:13731   */\n      pop\n        /* \"#utility.yul\":13815:13819   */\n      0x80\n        /* \"#utility.yul\":13808:13813   */\n      dup4\n        /* \"#utility.yul\":13804:13820   */\n      add\n        /* \"#utility.yul\":13798:13821   */\n      mload\n        /* \"#utility.yul\":13868:13871   */\n      dup5\n        /* \"#utility.yul\":13862:13866   */\n      dup3\n        /* \"#utility.yul\":13858:13872   */\n      sub\n        /* \"#utility.yul\":13851:13855   */\n      0x80\n        /* \"#utility.yul\":13846:13849   */\n      dup7\n        /* \"#utility.yul\":13842:13856   */\n      add\n        /* \"#utility.yul\":13835:13873   */\n      mstore\n        /* \"#utility.yul\":13894:13967   */\n      tag_493\n        /* \"#utility.yul\":13962:13966   */\n      dup3\n        /* \"#utility.yul\":13948:13960   */\n      dup3\n        /* \"#utility.yul\":13894:13967   */\n      tag_455\n      jump\t// in\n    tag_493:\n        /* \"#utility.yul\":13886:13967   */\n      swap2\n      pop\n        /* \"#utility.yul\":13741:13978   */\n      pop\n        /* \"#utility.yul\":14061:14065   */\n      0xa0\n        /* \"#utility.yul\":14054:14059   */\n      dup4\n        /* \"#utility.yul\":14050:14066   */\n      add\n        /* \"#utility.yul\":14044:14067   */\n      mload\n        /* \"#utility.yul\":14114:14117   */\n      dup5\n        /* \"#utility.yul\":14108:14112   */\n      dup3\n        /* \"#utility.yul\":14104:14118   */\n      sub\n        /* \"#utility.yul\":14097:14101   */\n      0xa0\n        /* \"#utility.yul\":14092:14095   */\n      dup7\n        /* \"#utility.yul\":14088:14102   */\n      add\n        /* \"#utility.yul\":14081:14119   */\n      mstore\n        /* \"#utility.yul\":14140:14213   */\n      tag_494\n        /* \"#utility.yul\":14208:14212   */\n      dup3\n        /* \"#utility.yul\":14194:14206   */\n      dup3\n        /* \"#utility.yul\":14140:14213   */\n      tag_455\n      jump\t// in\n    tag_494:\n        /* \"#utility.yul\":14132:14213   */\n      swap2\n      pop\n        /* \"#utility.yul\":13988:14224   */\n      pop\n        /* \"#utility.yul\":14308:14312   */\n      0xc0\n        /* \"#utility.yul\":14301:14306   */\n      dup4\n        /* \"#utility.yul\":14297:14313   */\n      add\n        /* \"#utility.yul\":14291:14314   */\n      mload\n        /* \"#utility.yul\":14361:14364   */\n      dup5\n        /* \"#utility.yul\":14355:14359   */\n      dup3\n        /* \"#utility.yul\":14351:14365   */\n      sub\n        /* \"#utility.yul\":14344:14348   */\n      0xc0\n        /* \"#utility.yul\":14339:14342   */\n      dup7\n        /* \"#utility.yul\":14335:14349   */\n      add\n        /* \"#utility.yul\":14328:14366   */\n      mstore\n        /* \"#utility.yul\":14387:14460   */\n      tag_495\n        /* \"#utility.yul\":14455:14459   */\n      dup3\n        /* \"#utility.yul\":14441:14453   */\n      dup3\n        /* \"#utility.yul\":14387:14460   */\n      tag_455\n      jump\t// in\n    tag_495:\n        /* \"#utility.yul\":14379:14460   */\n      swap2\n      pop\n        /* \"#utility.yul\":14234:14471   */\n      pop\n        /* \"#utility.yul\":14488:14492   */\n      dup1\n        /* \"#utility.yul\":14481:14492   */\n      swap2\n      pop\n        /* \"#utility.yul\":12712:14498   */\n      pop\n        /* \"#utility.yul\":12592:14498   */\n      swap3\n      swap2\n      pop\n      pop\n      jump\t// out\n        /* \"#utility.yul\":14504:14622   */\n    tag_496:\n        /* \"#utility.yul\":14591:14615   */\n      tag_498\n        /* \"#utility.yul\":14609:14614   */\n      dup2\n        /* \"#utility.yul\":14591:14615   */\n      tag_499\n      jump\t// in\n    tag_498:\n        /* \"#utility.yul\":14586:14589   */\n      dup3\n        /* \"#utility.yul\":14579:14616   */\n      mstore\n        /* \"#utility.yul\":14504:14622   */\n      pop\n      pop\n      jump\t// out\n        /* \"#utility.yul\":14628:14882   */\n    tag_89:\n        /* \"#utility.yul\":14737:14741   */\n      0x00\n        /* \"#utility.yul\":14775:14777   */\n      0x20\n        /* \"#utility.yul\":14764:14773   */\n      dup3\n        /* \"#utility.yul\":14760:14778   */\n      add\n        /* \"#utility.yul\":14752:14778   */\n      swap1\n      pop\n        /* \"#utility.yul\":14788:14875   */\n      tag_501\n        /* \"#utility.yul\":14872:14873   */\n      0x00\n        /* \"#utility.yul\":14861:14870   */\n      dup4\n        /* \"#utility.yul\":14857:14874   */\n      add\n        /* \"#utility.yul\":14848:14854   */\n      dup5\n        /* \"#utility.yul\":14788:14875   */\n      tag_431\n      jump\t// in\n    tag_501:\n        /* \"#utility.yul\":14628:14882   */\n      swap3\n      swap2\n      pop\n      pop\n      jump\t// out\n        /* \"#utility.yul\":14888:15098   */\n    tag_66:\n        /* \"#utility.yul\":14975:14979   */\n      0x00\n        /* \"#utility.yul\":15013:15015   */\n      0x20\n        /* \"#utility.yul\":15002:15011   */\n      dup3\n        /* \"#utility.yul\":14998:15016   */\n      add\n        /* \"#utility.yul\":14990:15016   */\n      swap1\n      pop\n        /* \"#utility.yul\":15026:15091   */\n      tag_503\n        /* \"#utility.yul\":15088:15089   */\n      0x00\n        /* \"#utility.yul\":15077:15086   */\n      dup4\n        /* \"#utility.yul\":15073:15090   */\n      add\n        /* \"#utility.yul\":15064:15070   */\n      dup5\n        /* \"#utility.yul\":15026:15091   */\n      tag_439\n      jump\t// in\n    tag_503:\n        /* \"#utility.yul\":14888:15098   */\n      swap3\n      swap2\n      pop\n      pop\n      jump\t// out\n        /* \"#utility.yul\":15104:15537   */\n    tag_98:\n        /* \"#utility.yul\":15250:15254   */\n      0x00\n        /* \"#utility.yul\":15288:15290   */\n      0x40\n        /* \"#utility.yul\":15277:15286   */\n      dup3\n        /* \"#utility.yul\":15273:15291   */\n      add\n        /* \"#utility.yul\":15265:15291   */\n      swap1\n      pop\n        /* \"#utility.yul\":15301:15377   */\n      tag_505\n        /* \"#utility.yul\":15374:15375   */\n      0x00\n        /* \"#utility.yul\":15363:15372   */\n      dup4\n        /* \"#utility.yul\":15359:15376   */\n      add\n        /* \"#utility.yul\":15350:15356   */\n      dup6\n        /* \"#utility.yul\":15301:15377   */\n      tag_443\n      jump\t// in\n    tag_505:\n        /* \"#utility.yul\":15424:15433   */\n      dup2\n        /* \"#utility.yul\":15418:15422   */\n      dup2\n        /* \"#utility.yul\":15414:15434   */\n      sub\n        /* \"#utility.yul\":15409:15411   */\n      0x20\n        /* \"#utility.yul\":15398:15407   */\n      dup4\n        /* \"#utility.yul\":15394:15412   */\n      add\n        /* \"#utility.yul\":15387:15435   */\n      mstore\n        /* \"#utility.yul\":15452:15530   */\n      tag_506\n        /* \"#utility.yul\":15525:15529   */\n      dup2\n        /* \"#utility.yul\":15516:15522   */\n      dup5\n        /* \"#utility.yul\":15452:15530   */\n      tag_465\n      jump\t// in\n    tag_506:\n        /* \"#utility.yul\":15444:15530   */\n      swap1\n      pop\n        /* \"#utility.yul\":15104:15537   */\n      swap4\n      swap3\n      pop\n      pop\n      pop\n      jump\t// out\n        /* \"#utility.yul\":15543:15761   */\n    tag_43:\n        /* \"#utility.yul\":15634:15638   */\n      0x00\n        /* \"#utility.yul\":15672:15674   */\n      0x20\n        /* \"#utility.yul\":15661:15670   */\n      dup3\n        /* \"#utility.yul\":15657:15675   */\n      add\n        /* \"#utility.yul\":15649:15675   */\n      swap1\n      pop\n        /* \"#utility.yul\":15685:15754   */\n      tag_508\n        /* \"#utility.yul\":15751:15752   */\n      0x00\n        /* \"#utility.yul\":15740:15749   */\n      dup4\n        /* \"#utility.yul\":15736:15753   */\n      add\n        /* \"#utility.yul\":15727:15733   */\n      dup5\n        /* \"#utility.yul\":15685:15754   */\n      tag_451\n      jump\t// in\n    tag_508:\n        /* \"#utility.yul\":15543:15761   */\n      swap3\n      swap2\n      pop\n      pop\n      jump\t// out\n        /* \"#utility.yul\":15767:16080   */\n    tag_26:\n        /* \"#utility.yul\":15880:15884   */\n      0x00\n        /* \"#utility.yul\":15918:15920   */\n      0x20\n        /* \"#utility.yul\":15907:15916   */\n      dup3\n        /* \"#utility.yul\":15903:15921   */\n      add\n        /* \"#utility.yul\":15895:15921   */\n      swap1\n      pop\n        /* \"#utility.yul\":15967:15976   */\n      dup2\n        /* \"#utility.yul\":15961:15965   */\n      dup2\n        /* \"#utility.yul\":15957:15977   */\n      sub\n        /* \"#utility.yul\":15953:15954   */\n      0x00\n        /* \"#utility.yul\":15942:15951   */\n      dup4\n        /* \"#utility.yul\":15938:15955   */\n      add\n        /* \"#utility.yul\":15931:15978   */\n      mstore\n        /* \"#utility.yul\":15995:16073   */\n      tag_510\n        /* \"#utility.yul\":16068:16072   */\n      dup2\n        /* \"#utility.yul\":16059:16065   */\n      dup5\n        /* \"#utility.yul\":15995:16073   */\n      tag_465\n      jump\t// in\n    tag_510:\n        /* \"#utility.yul\":15987:16073   */\n      swap1\n      pop\n        /* \"#utility.yul\":15767:16080   */\n      swap3\n      swap2\n      pop\n      pop\n      jump\t// out\n        /* \"#utility.yul\":16086:16505   */\n    tag_150:\n        /* \"#utility.yul\":16252:16256   */\n      0x00\n        /* \"#utility.yul\":16290:16292   */\n      0x20\n        /* \"#utility.yul\":16279:16288   */\n      dup3\n        /* \"#utility.yul\":16275:16293   */\n      add\n        /* \"#utility.yul\":16267:16293   */\n      swap1\n      pop\n        /* \"#utility.yul\":16339:16348   */\n      dup2\n        /* \"#utility.yul\":16333:16337   */\n      dup2\n        /* \"#utility.yul\":16329:16349   */\n      sub\n        /* \"#utility.yul\":16325:16326   */\n      0x00\n        /* \"#utility.yul\":16314:16323   */\n      dup4\n        /* \"#utility.yul\":16310:16327   */\n      add\n        /* \"#utility.yul\":16303:16350   */\n      mstore\n        /* \"#utility.yul\":16367:16498   */\n      tag_512\n        /* \"#utility.yul\":16493:16497   */\n      dup2\n        /* \"#utility.yul\":16367:16498   */\n      tag_472\n      jump\t// in\n    tag_512:\n        /* \"#utility.yul\":16359:16498   */\n      swap1\n      pop\n        /* \"#utility.yul\":16086:16505   */\n      swap2\n      swap1\n      pop\n      jump\t// out\n        /* \"#utility.yul\":16511:16930   */\n    tag_172:\n        /* \"#utility.yul\":16677:16681   */\n      0x00\n        /* \"#utility.yul\":16715:16717   */\n      0x20\n        /* \"#utility.yul\":16704:16713   */\n      dup3\n        /* \"#utility.yul\":16700:16718   */\n      add\n        /* \"#utility.yul\":16692:16718   */\n      swap1\n      pop\n        /* \"#utility.yul\":16764:16773   */\n      dup2\n        /* \"#utility.yul\":16758:16762   */\n      dup2\n        /* \"#utility.yul\":16754:16774   */\n      sub\n        /* \"#utility.yul\":16750:16751   */\n      0x00\n        /* \"#utility.yul\":16739:16748   */\n      dup4\n        /* \"#utility.yul\":16735:16752   */\n      add\n        /* \"#utility.yul\":16728:16775   */\n      mstore\n        /* \"#utility.yul\":16792:16923   */\n      tag_514\n        /* \"#utility.yul\":16918:16922   */\n      dup2\n        /* \"#utility.yul\":16792:16923   */\n      tag_477\n      jump\t// in\n    tag_514:\n        /* \"#utility.yul\":16784:16923   */\n      swap1\n      pop\n        /* \"#utility.yul\":16511:16930   */\n      swap2\n      swap1\n      pop\n      jump\t// out\n        /* \"#utility.yul\":16936:17355   */\n    tag_119:\n        /* \"#utility.yul\":17102:17106   */\n      0x00\n        /* \"#utility.yul\":17140:17142   */\n      0x20\n        /* \"#utility.yul\":17129:17138   */\n      dup3\n        /* \"#utility.yul\":17125:17143   */\n      add\n        /* \"#utility.yul\":17117:17143   */\n      swap1\n      pop\n        /* \"#utility.yul\":17189:17198   */\n      dup2\n        /* \"#utility.yul\":17183:17187   */\n      dup2\n        /* \"#utility.yul\":17179:17199   */\n      sub\n        /* \"#utility.yul\":17175:17176   */\n      0x00\n        /* \"#utility.yul\":17164:17173   */\n      dup4\n        /* \"#utility.yul\":17160:17177   */\n      add\n        /* \"#utility.yul\":17153:17200   */\n      mstore\n        /* \"#utility.yul\":17217:17348   */\n      tag_516\n        /* \"#utility.yul\":17343:17347   */\n      dup2\n        /* \"#utility.yul\":17217:17348   */\n      tag_482\n      jump\t// in\n    tag_516:\n        /* \"#utility.yul\":17209:17348   */\n      swap1\n      pop\n        /* \"#utility.yul\":16936:17355   */\n      swap2\n      swap1\n      pop\n      jump\t// out\n        /* \"#utility.yul\":17361:17583   */\n    tag_104:\n        /* \"#utility.yul\":17454:17458   */\n      0x00\n        /* \"#utility.yul\":17492:17494   */\n      0x20\n        /* \"#utility.yul\":17481:17490   */\n      dup3\n        /* \"#utility.yul\":17477:17495   */\n      add\n        /* \"#utility.yul\":17469:17495   */\n      swap1\n      pop\n        /* \"#utility.yul\":17505:17576   */\n      tag_518\n        /* \"#utility.yul\":17573:17574   */\n      0x00\n        /* \"#utility.yul\":17562:17571   */\n      dup4\n        /* \"#utility.yul\":17558:17575   */\n      add\n        /* \"#utility.yul\":17549:17555   */\n      dup5\n        /* \"#utility.yul\":17505:17576   */\n      tag_496\n      jump\t// in\n    tag_518:\n        /* \"#utility.yul\":17361:17583   */\n      swap3\n      swap2\n      pop\n      pop\n      jump\t// out\n        /* \"#utility.yul\":17589:18852   */\n    tag_72:\n        /* \"#utility.yul\":17958:17962   */\n      0x00\n        /* \"#utility.yul\":17996:17999   */\n      0x0120\n        /* \"#utility.yul\":17985:17994   */\n      dup3\n        /* \"#utility.yul\":17981:18000   */\n      add\n        /* \"#utility.yul\":17973:18000   */\n      swap1\n      pop\n        /* \"#utility.yul\":18010:18081   */\n      tag_520\n        /* \"#utility.yul\":18078:18079   */\n      0x00\n        /* \"#utility.yul\":18067:18076   */\n      dup4\n        /* \"#utility.yul\":18063:18080   */\n      add\n        /* \"#utility.yul\":18054:18060   */\n      dup13\n        /* \"#utility.yul\":18010:18081   */\n      tag_496\n      jump\t// in\n    tag_520:\n        /* \"#utility.yul\":18091:18163   */\n      tag_521\n        /* \"#utility.yul\":18159:18161   */\n      0x20\n        /* \"#utility.yul\":18148:18157   */\n      dup4\n        /* \"#utility.yul\":18144:18162   */\n      add\n        /* \"#utility.yul\":18135:18141   */\n      dup12\n        /* \"#utility.yul\":18091:18163   */\n      tag_435\n      jump\t// in\n    tag_521:\n        /* \"#utility.yul\":18173:18245   */\n      tag_522\n        /* \"#utility.yul\":18241:18243   */\n      0x40\n        /* \"#utility.yul\":18230:18239   */\n      dup4\n        /* \"#utility.yul\":18226:18244   */\n      add\n        /* \"#utility.yul\":18217:18223   */\n      dup11\n        /* \"#utility.yul\":18173:18245   */\n      tag_435\n      jump\t// in\n    tag_522:\n        /* \"#utility.yul\":18255:18333   */\n      tag_523\n        /* \"#utility.yul\":18329:18331   */\n      0x60\n        /* \"#utility.yul\":18318:18327   */\n      dup4\n        /* \"#utility.yul\":18314:18332   */\n      add\n        /* \"#utility.yul\":18305:18311   */\n      dup10\n        /* \"#utility.yul\":18255:18333   */\n      tag_447\n      jump\t// in\n    tag_523:\n        /* \"#utility.yul\":18343:18416   */\n      tag_524\n        /* \"#utility.yul\":18411:18414   */\n      0x80\n        /* \"#utility.yul\":18400:18409   */\n      dup4\n        /* \"#utility.yul\":18396:18415   */\n      add\n        /* \"#utility.yul\":18387:18393   */\n      dup9\n        /* \"#utility.yul\":18343:18416   */\n      tag_496\n      jump\t// in\n    tag_524:\n        /* \"#utility.yul\":18426:18499   */\n      tag_525\n        /* \"#utility.yul\":18494:18497   */\n      0xa0\n        /* \"#utility.yul\":18483:18492   */\n      dup4\n        /* \"#utility.yul\":18479:18498   */\n      add\n        /* \"#utility.yul\":18470:18476   */\n      dup8\n        /* \"#utility.yul\":18426:18499   */\n      tag_435\n      jump\t// in\n    tag_525:\n        /* \"#utility.yul\":18509:18582   */\n      tag_526\n        /* \"#utility.yul\":18577:18580   */\n      0xc0\n        /* \"#utility.yul\":18566:18575   */\n      dup4\n        /* \"#utility.yul\":18562:18581   */\n      add\n        /* \"#utility.yul\":18553:18559   */\n      dup7\n        /* \"#utility.yul\":18509:18582   */\n      tag_435\n      jump\t// in\n    tag_526:\n        /* \"#utility.yul\":18592:18665   */\n      tag_527\n        /* \"#utility.yul\":18660:18663   */\n      0xe0\n        /* \"#utility.yul\":18649:18658   */\n      dup4\n        /* \"#utility.yul\":18645:18664   */\n      add\n        /* \"#utility.yul\":18636:18642   */\n      dup6\n        /* \"#utility.yul\":18592:18665   */\n      tag_435\n      jump\t// in\n    tag_527:\n        /* \"#utility.yul\":18713:18722   */\n      dup2\n        /* \"#utility.yul\":18707:18711   */\n      dup2\n        /* \"#utility.yul\":18703:18723   */\n      sub\n        /* \"#utility.yul\":18697:18700   */\n      0x0100\n        /* \"#utility.yul\":18686:18695   */\n      dup4\n        /* \"#utility.yul\":18682:18701   */\n      add\n        /* \"#utility.yul\":18675:18724   */\n      mstore\n        /* \"#utility.yul\":18741:18845   */\n      tag_528\n        /* \"#utility.yul\":18840:18844   */\n      dup2\n        /* \"#utility.yul\":18831:18837   */\n      dup5\n        /* \"#utility.yul\":18741:18845   */\n      tag_487\n      jump\t// in\n    tag_528:\n        /* \"#utility.yul\":18733:18845   */\n      swap1\n      pop\n        /* \"#utility.yul\":17589:18852   */\n      swap11\n      swap10\n      pop\n      pop\n      pop\n      pop\n      pop\n      pop\n      pop\n      pop\n      pop\n      pop\n      jump\t// out\n        /* \"#utility.yul\":18858:20839   */\n    tag_59:\n        /* \"#utility.yul\":19378:19382   */\n      0x00\n        /* \"#utility.yul\":19416:19419   */\n      0x0160\n        /* \"#utility.yul\":19405:19414   */\n      dup3\n        /* \"#utility.yul\":19401:19420   */\n      add\n        /* \"#utility.yul\":19393:19420   */\n      swap1\n      pop\n        /* \"#utility.yul\":19430:19501   */\n      tag_530\n        /* \"#utility.yul\":19498:19499   */\n      0x00\n        /* \"#utility.yul\":19487:19496   */\n      dup4\n        /* \"#utility.yul\":19483:19500   */\n      add\n        /* \"#utility.yul\":19474:19480   */\n      dup15\n        /* \"#utility.yul\":19430:19501   */\n      tag_496\n      jump\t// in\n    tag_530:\n        /* \"#utility.yul\":19511:19583   */\n      tag_531\n        /* \"#utility.yul\":19579:19581   */\n      0x20\n        /* \"#utility.yul\":19568:19577   */\n      dup4\n        /* \"#utility.yul\":19564:19582   */\n      add\n        /* \"#utility.yul\":19555:19561   */\n      dup14\n        /* \"#utility.yul\":19511:19583   */\n      tag_435\n      jump\t// in\n    tag_531:\n        /* \"#utility.yul\":19593:19671   */\n      tag_532\n        /* \"#utility.yul\":19667:19669   */\n      0x40\n        /* \"#utility.yul\":19656:19665   */\n      dup4\n        /* \"#utility.yul\":19652:19670   */\n      add\n        /* \"#utility.yul\":19643:19649   */\n      dup13\n        /* \"#utility.yul\":19593:19671   */\n      tag_447\n      jump\t// in\n    tag_532:\n        /* \"#utility.yul\":19681:19753   */\n      tag_533\n        /* \"#utility.yul\":19749:19751   */\n      0x60\n        /* \"#utility.yul\":19738:19747   */\n      dup4\n        /* \"#utility.yul\":19734:19752   */\n      add\n        /* \"#utility.yul\":19725:19731   */\n      dup12\n        /* \"#utility.yul\":19681:19753   */\n      tag_496\n      jump\t// in\n    tag_533:\n        /* \"#utility.yul\":19801:19810   */\n      dup2\n        /* \"#utility.yul\":19795:19799   */\n      dup2\n        /* \"#utility.yul\":19791:19811   */\n      sub\n        /* \"#utility.yul\":19785:19788   */\n      0x80\n        /* \"#utility.yul\":19774:19783   */\n      dup4\n        /* \"#utility.yul\":19770:19789   */\n      add\n        /* \"#utility.yul\":19763:19812   */\n      mstore\n        /* \"#utility.yul\":19829:19907   */\n      tag_534\n        /* \"#utility.yul\":19902:19906   */\n      dup2\n        /* \"#utility.yul\":19893:19899   */\n      dup11\n        /* \"#utility.yul\":19829:19907   */\n      tag_465\n      jump\t// in\n    tag_534:\n        /* \"#utility.yul\":19821:19907   */\n      swap1\n      pop\n        /* \"#utility.yul\":19955:19964   */\n      dup2\n        /* \"#utility.yul\":19949:19953   */\n      dup2\n        /* \"#utility.yul\":19945:19965   */\n      sub\n        /* \"#utility.yul\":19939:19942   */\n      0xa0\n        /* \"#utility.yul\":19928:19937   */\n      dup4\n        /* \"#utility.yul\":19924:19943   */\n      add\n        /* \"#utility.yul\":19917:19966   */\n      mstore\n        /* \"#utility.yul\":19983:20061   */\n      tag_535\n        /* \"#utility.yul\":20056:20060   */\n      dup2\n        /* \"#utility.yul\":20047:20053   */\n      dup10\n        /* \"#utility.yul\":19983:20061   */\n      tag_465\n      jump\t// in\n    tag_535:\n        /* \"#utility.yul\":19975:20061   */\n      swap1\n      pop\n        /* \"#utility.yul\":20109:20118   */\n      dup2\n        /* \"#utility.yul\":20103:20107   */\n      dup2\n        /* \"#utility.yul\":20099:20119   */\n      sub\n        /* \"#utility.yul\":20093:20096   */\n      0xc0\n        /* \"#utility.yul\":20082:20091   */\n      dup4\n        /* \"#utility.yul\":20078:20097   */\n      add\n        /* \"#utility.yul\":20071:20120   */\n      mstore\n        /* \"#utility.yul\":20137:20215   */\n      tag_536\n        /* \"#utility.yul\":20210:20214   */\n      dup2\n        /* \"#utility.yul\":20201:20207   */\n      dup9\n        /* \"#utility.yul\":20137:20215   */\n      tag_465\n      jump\t// in\n    tag_536:\n        /* \"#utility.yul\":20129:20215   */\n      swap1\n      pop\n        /* \"#utility.yul\":20263:20272   */\n      dup2\n        /* \"#utility.yul\":20257:20261   */\n      dup2\n        /* \"#utility.yul\":20253:20273   */\n      sub\n        /* \"#utility.yul\":20247:20250   */\n      0xe0\n        /* \"#utility.yul\":20236:20245   */\n      dup4\n        /* \"#utility.yul\":20232:20251   */\n      add\n        /* \"#utility.yul\":20225:20274   */\n      mstore\n        /* \"#utility.yul\":20291:20369   */\n      tag_537\n        /* \"#utility.yul\":20364:20368   */\n      dup2\n        /* \"#utility.yul\":20355:20361   */\n      dup8\n        /* \"#utility.yul\":20291:20369   */\n      tag_465\n      jump\t// in\n    tag_537:\n        /* \"#utility.yul\":20283:20369   */\n      swap1\n      pop\n        /* \"#utility.yul\":20417:20426   */\n      dup2\n        /* \"#utility.yul\":20411:20415   */\n      dup2\n        /* \"#utility.yul\":20407:20427   */\n      sub\n        /* \"#utility.yul\":20401:20404   */\n      0x0100\n        /* \"#utility.yul\":20390:20399   */\n      dup4\n        /* \"#utility.yul\":20386:20405   */\n      add\n        /* \"#utility.yul\":20379:20428   */\n      mstore\n        /* \"#utility.yul\":20445:20523   */\n      tag_538\n        /* \"#utility.yul\":20518:20522   */\n      dup2\n        /* \"#utility.yul\":20509:20515   */\n      dup7\n        /* \"#utility.yul\":20445:20523   */\n      tag_465\n      jump\t// in\n    tag_538:\n        /* \"#utility.yul\":20437:20523   */\n      swap1\n      pop\n        /* \"#utility.yul\":20571:20580   */\n      dup2\n        /* \"#utility.yul\":20565:20569   */\n      dup2\n        /* \"#utility.yul\":20561:20581   */\n      sub\n        /* \"#utility.yul\":20555:20558   */\n      0x0120\n        /* \"#utility.yul\":20544:20553   */\n      dup4\n        /* \"#utility.yul\":20540:20559   */\n      add\n        /* \"#utility.yul\":20533:20582   */\n      mstore\n        /* \"#utility.yul\":20599:20677   */\n      tag_539\n        /* \"#utility.yul\":20672:20676   */\n      dup2\n        /* \"#utility.yul\":20663:20669   */\n      dup6\n        /* \"#utility.yul\":20599:20677   */\n      tag_465\n      jump\t// in\n    tag_539:\n        /* \"#utility.yul\":20591:20677   */\n      swap1\n      pop\n        /* \"#utility.yul\":20725:20734   */\n      dup2\n        /* \"#utility.yul\":20719:20723   */\n      dup2\n        /* \"#utility.yul\":20715:20735   */\n      sub\n        /* \"#utility.yul\":20709:20712   */\n      0x0140\n        /* \"#utility.yul\":20698:20707   */\n      dup4\n        /* \"#utility.yul\":20694:20713   */\n      add\n        /* \"#utility.yul\":20687:20736   */\n      mstore\n        /* \"#utility.yul\":20753:20832   */\n      tag_540\n        /* \"#utility.yul\":20827:20831   */\n      dup2\n        /* \"#utility.yul\":20817:20824   */\n      dup5\n        /* \"#utility.yul\":20753:20832   */\n      tag_465\n      jump\t// in\n    tag_540:\n        /* \"#utility.yul\":20745:20832   */\n      swap1\n      pop\n        /* \"#utility.yul\":18858:20839   */\n      swap13\n      swap12\n      pop\n      pop\n      pop\n      pop\n      pop\n      pop\n      pop\n      pop\n      pop\n      pop\n      pop\n      pop\n      jump\t// out\n        /* \"#utility.yul\":20845:20974   */\n    tag_317:\n        /* \"#utility.yul\":20879:20885   */\n      0x00\n        /* \"#utility.yul\":20906:20926   */\n      tag_542\n      tag_543\n      jump\t// in\n    tag_542:\n        /* \"#utility.yul\":20896:20926   */\n      swap1\n      pop\n        /* \"#utility.yul\":20935:20968   */\n      tag_544\n        /* \"#utility.yul\":20963:20967   */\n      dup3\n        /* \"#utility.yul\":20955:20961   */\n      dup3\n        /* \"#utility.yul\":20935:20968   */\n      tag_545\n      jump\t// in\n    tag_544:\n        /* \"#utility.yul\":20845:20974   */\n      swap2\n      swap1\n      pop\n      jump\t// out\n        /* \"#utility.yul\":20980:21055   */\n    tag_543:\n        /* \"#utility.yul\":21013:21019   */\n      0x00\n        /* \"#utility.yul\":21046:21048   */\n      0x40\n        /* \"#utility.yul\":21040:21049   */\n      mload\n        /* \"#utility.yul\":21030:21049   */\n      swap1\n      pop\n        /* \"#utility.yul\":20980:21055   */\n      swap1\n      jump\t// out\n        /* \"#utility.yul\":21061:21369   */\n    tag_316:\n        /* \"#utility.yul\":21123:21127   */\n      0x00\n        /* \"#utility.yul\":21213:21231   */\n      0xffffffffffffffff\n        /* \"#utility.yul\":21205:21211   */\n      dup3\n        /* \"#utility.yul\":21202:21232   */\n      gt\n        /* \"#utility.yul\":21199:21255   */\n      iszero\n      tag_548\n      jumpi\n        /* \"#utility.yul\":21235:21253   */\n      tag_549\n      tag_550\n      jump\t// in\n    tag_549:\n        /* \"#utility.yul\":21199:21255   */\n    tag_548:\n        /* \"#utility.yul\":21273:21302   */\n      tag_551\n        /* \"#utility.yul\":21295:21301   */\n      dup3\n        /* \"#utility.yul\":21273:21302   */\n      tag_464\n      jump\t// in\n    tag_551:\n        /* \"#utility.yul\":21265:21302   */\n      swap1\n      pop\n        /* \"#utility.yul\":21357:21361   */\n      0x20\n        /* \"#utility.yul\":21351:21355   */\n      dup2\n        /* \"#utility.yul\":21347:21362   */\n      add\n        /* \"#utility.yul\":21339:21362   */\n      swap1\n      pop\n        /* \"#utility.yul\":21061:21369   */\n      swap2\n      swap1\n      pop\n      jump\t// out\n        /* \"#utility.yul\":21375:21474   */\n    tag_458:\n        /* \"#utility.yul\":21427:21433   */\n      0x00\n        /* \"#utility.yul\":21461:21466   */\n      dup2\n        /* \"#utility.yul\":21455:21467   */\n      mload\n        /* \"#utility.yul\":21445:21467   */\n      swap1\n      pop\n        /* \"#utility.yul\":21375:21474   */\n      swap2\n      swap1\n      pop\n      jump\t// out\n        /* \"#utility.yul\":21480:21639   */\n    tag_460:\n        /* \"#utility.yul\":21554:21565   */\n      0x00\n        /* \"#utility.yul\":21588:21594   */\n      dup3\n        /* \"#utility.yul\":21583:21586   */\n      dup3\n        /* \"#utility.yul\":21576:21595   */\n      mstore\n        /* \"#utility.yul\":21628:21632   */\n      0x20\n        /* \"#utility.yul\":21623:21626   */\n      dup3\n        /* \"#utility.yul\":21619:21633   */\n      add\n        /* \"#utility.yul\":21604:21633   */\n      swap1\n      pop\n        /* \"#utility.yul\":21480:21639   */\n      swap3\n      swap2\n      pop\n      pop\n      jump\t// out\n        /* \"#utility.yul\":21645:21814   */\n    tag_469:\n        /* \"#utility.yul\":21729:21740   */\n      0x00\n        /* \"#utility.yul\":21763:21769   */\n      dup3\n        /* \"#utility.yul\":21758:21761   */\n      dup3\n        /* \"#utility.yul\":21751:21770   */\n      mstore\n        /* \"#utility.yul\":21803:21807   */\n      0x20\n        /* \"#utility.yul\":21798:21801   */\n      dup3\n        /* \"#utility.yul\":21794:21808   */\n      add\n        /* \"#utility.yul\":21779:21808   */\n      swap1\n      pop\n        /* \"#utility.yul\":21645:21814   */\n      swap3\n      swap2\n      pop\n      pop\n      jump\t// out\n        /* \"#utility.yul\":21820:22125   */\n    tag_122:\n        /* \"#utility.yul\":21860:21863   */\n      0x00\n        /* \"#utility.yul\":21879:21899   */\n      tag_556\n        /* \"#utility.yul\":21897:21898   */\n      dup3\n        /* \"#utility.yul\":21879:21899   */\n      tag_499\n      jump\t// in\n    tag_556:\n        /* \"#utility.yul\":21874:21899   */\n      swap2\n      pop\n        /* \"#utility.yul\":21913:21933   */\n      tag_557\n        /* \"#utility.yul\":21931:21932   */\n      dup4\n        /* \"#utility.yul\":21913:21933   */\n      tag_499\n      jump\t// in\n    tag_557:\n        /* \"#utility.yul\":21908:21933   */\n      swap3\n      pop\n        /* \"#utility.yul\":22067:22068   */\n      dup3\n        /* \"#utility.yul\":21999:22065   */\n      0xffffffffffffffffffffffffffffffffffffffffffffffffffffffffffffffff\n        /* \"#utility.yul\":21995:22069   */\n      sub\n        /* \"#utility.yul\":21992:21993   */\n      dup3\n        /* \"#utility.yul\":21989:22070   */\n      gt\n        /* \"#utility.yul\":21986:22093   */\n      iszero\n      tag_558\n      jumpi\n        /* \"#utility.yul\":22073:22091   */\n      tag_559\n      tag_560\n      jump\t// in\n    tag_559:\n        /* \"#utility.yul\":21986:22093   */\n    tag_558:\n        /* \"#utility.yul\":22117:22118   */\n      dup3\n        /* \"#utility.yul\":22114:22115   */\n      dup3\n        /* \"#utility.yul\":22110:22119   */\n      add\n        /* \"#utility.yul\":22103:22119   */\n      swap1\n      pop\n        /* \"#utility.yul\":21820:22125   */\n      swap3\n      swap2\n      pop\n      pop\n      jump\t// out\n        /* \"#utility.yul\":22131:22316   */\n    tag_287:\n        /* \"#utility.yul\":22171:22172   */\n      0x00\n        /* \"#utility.yul\":22188:22208   */\n      tag_562\n        /* \"#utility.yul\":22206:22207   */\n      dup3\n        /* \"#utility.yul\":22188:22208   */\n      tag_499\n      jump\t// in\n    tag_562:\n        /* \"#utility.yul\":22183:22208   */\n      swap2\n      pop\n        /* \"#utility.yul\":22222:22242   */\n      tag_563\n        /* \"#utility.yul\":22240:22241   */\n      dup4\n        /* \"#utility.yul\":22222:22242   */\n      tag_499\n      jump\t// in\n    tag_563:\n        /* \"#utility.yul\":22217:22242   */\n      swap3\n      pop\n        /* \"#utility.yul\":22261:22262   */\n      dup3\n        /* \"#utility.yul\":22251:22286   */\n      tag_564\n      jumpi\n        /* \"#utility.yul\":22266:22284   */\n      tag_565\n      tag_566\n      jump\t// in\n    tag_565:\n        /* \"#utility.yul\":22251:22286   */\n    tag_564:\n        /* \"#utility.yul\":22308:22309   */\n      dup3\n        /* \"#utility.yul\":22305:22306   */\n      dup3\n        /* \"#utility.yul\":22301:22310   */\n      div\n        /* \"#utility.yul\":22296:22310   */\n      swap1\n      pop\n        /* \"#utility.yul\":22131:22316   */\n      swap3\n      swap2\n      pop\n      pop\n      jump\t// out\n        /* \"#utility.yul\":22322:22513   */\n    tag_226:\n        /* \"#utility.yul\":22362:22366   */\n      0x00\n        /* \"#utility.yul\":22382:22402   */\n      tag_568\n        /* \"#utility.yul\":22400:22401   */\n      dup3\n        /* \"#utility.yul\":22382:22402   */\n      tag_499\n      jump\t// in\n    tag_568:\n        /* \"#utility.yul\":22377:22402   */\n      swap2\n      pop\n        /* \"#utility.yul\":22416:22436   */\n      tag_569\n        /* \"#utility.yul\":22434:22435   */\n      dup4\n        /* \"#utility.yul\":22416:22436   */\n      tag_499\n      jump\t// in\n    tag_569:\n        /* \"#utility.yul\":22411:22436   */\n      swap3\n      pop\n        /* \"#utility.yul\":22455:22456   */\n      dup3\n        /* \"#utility.yul\":22452:22453   */\n      dup3\n        /* \"#utility.yul\":22449:22457   */\n      lt\n        /* \"#utility.yul\":22446:22480   */\n      iszero\n      tag_570\n      jumpi\n        /* \"#utility.yul\":22460:22478   */\n      tag_571\n      tag_560\n      jump\t// in\n    tag_571:\n        /* \"#utility.yul\":22446:22480   */\n    tag_570:\n        /* \"#utility.yul\":22505:22506   */\n      dup3\n        /* \"#utility.yul\":22502:22503   */\n      dup3\n        /* \"#utility.yul\":22498:22507   */\n      sub\n        /* \"#utility.yul\":22490:22507   */\n      swap1\n      pop\n        /* \"#utility.yul\":22322:22513   */\n      swap3\n      swap2\n      pop\n      pop\n      jump\t// out\n        /* \"#utility.yul\":22519:22615   */\n    tag_438:\n        /* \"#utility.yul\":22556:22563   */\n      0x00\n        /* \"#utility.yul\":22585:22609   */\n      tag_573\n        /* \"#utility.yul\":22603:22608   */\n      dup3\n        /* \"#utility.yul\":22585:22609   */\n      tag_574\n      jump\t// in\n    tag_573:\n        /* \"#utility.yul\":22574:22609   */\n      swap1\n      pop\n        /* \"#utility.yul\":22519:22615   */\n      swap2\n      swap1\n      pop\n      jump\t// out\n        /* \"#utility.yul\":22621:22725   */\n    tag_434:\n        /* \"#utility.yul\":22666:22673   */\n      0x00\n        /* \"#utility.yul\":22695:22719   */\n      tag_576\n        /* \"#utility.yul\":22713:22718   */\n      dup3\n        /* \"#utility.yul\":22695:22719   */\n      tag_574\n      jump\t// in\n    tag_576:\n        /* \"#utility.yul\":22684:22719   */\n      swap1\n      pop\n        /* \"#utility.yul\":22621:22725   */\n      swap2\n      swap1\n      pop\n      jump\t// out\n        /* \"#utility.yul\":22731:22821   */\n    tag_442:\n        /* \"#utility.yul\":22765:22772   */\n      0x00\n        /* \"#utility.yul\":22808:22813   */\n      dup2\n        /* \"#utility.yul\":22801:22814   */\n      iszero\n        /* \"#utility.yul\":22794:22815   */\n      iszero\n        /* \"#utility.yul\":22783:22815   */\n      swap1\n      pop\n        /* \"#utility.yul\":22731:22821   */\n      swap2\n      swap1\n      pop\n      jump\t// out\n        /* \"#utility.yul\":22827:22952   */\n    tag_578:\n        /* \"#utility.yul\":22871:22878   */\n      0x00\n        /* \"#utility.yul\":22900:22905   */\n      dup2\n        /* \"#utility.yul\":22889:22905   */\n      swap1\n      pop\n        /* \"#utility.yul\":22906:22946   */\n      tag_580\n        /* \"#utility.yul\":22940:22945   */\n      dup3\n        /* \"#utility.yul\":22906:22946   */\n      tag_581\n      jump\t// in\n    tag_580:\n        /* \"#utility.yul\":22827:22952   */\n      swap2\n      swap1\n      pop\n      jump\t// out\n        /* \"#utility.yul\":22958:23085   */\n    tag_582:\n        /* \"#utility.yul\":23003:23010   */\n      0x00\n        /* \"#utility.yul\":23032:23037   */\n      dup2\n        /* \"#utility.yul\":23021:23037   */\n      swap1\n      pop\n        /* \"#utility.yul\":23038:23079   */\n      tag_584\n        /* \"#utility.yul\":23073:23078   */\n      dup3\n        /* \"#utility.yul\":23038:23079   */\n      tag_585\n      jump\t// in\n    tag_584:\n        /* \"#utility.yul\":22958:23085   */\n      swap2\n      swap1\n      pop\n      jump\t// out\n        /* \"#utility.yul\":23091:23167   */\n    tag_454:\n        /* \"#utility.yul\":23127:23134   */\n      0x00\n        /* \"#utility.yul\":23156:23161   */\n      dup2\n        /* \"#utility.yul\":23145:23161   */\n      swap1\n      pop\n        /* \"#utility.yul\":23091:23167   */\n      swap2\n      swap1\n      pop\n      jump\t// out\n        /* \"#utility.yul\":23173:23299   */\n    tag_574:\n        /* \"#utility.yul\":23210:23217   */\n      0x00\n        /* \"#utility.yul\":23250:23292   */\n      0xffffffffffffffffffffffffffffffffffffffff\n        /* \"#utility.yul\":23243:23248   */\n      dup3\n        /* \"#utility.yul\":23239:23293   */\n      and\n        /* \"#utility.yul\":23228:23293   */\n      swap1\n      pop\n        /* \"#utility.yul\":23173:23299   */\n      swap2\n      swap1\n      pop\n      jump\t// out\n        /* \"#utility.yul\":23305:23382   */\n    tag_499:\n        /* \"#utility.yul\":23342:23349   */\n      0x00\n        /* \"#utility.yul\":23371:23376   */\n      dup2\n        /* \"#utility.yul\":23360:23376   */\n      swap1\n      pop\n        /* \"#utility.yul\":23305:23382   */\n      swap2\n      swap1\n      pop\n      jump\t// out\n        /* \"#utility.yul\":23388:23513   */\n    tag_446:\n        /* \"#utility.yul\":23443:23452   */\n      0x00\n        /* \"#utility.yul\":23476:23507   */\n      tag_590\n        /* \"#utility.yul\":23501:23506   */\n      dup3\n        /* \"#utility.yul\":23476:23507   */\n      tag_578\n      jump\t// in\n    tag_590:\n        /* \"#utility.yul\":23463:23507   */\n      swap1\n      pop\n        /* \"#utility.yul\":23388:23513   */\n      swap2\n      swap1\n      pop\n      jump\t// out\n        /* \"#utility.yul\":23519:23646   */\n    tag_450:\n        /* \"#utility.yul\":23575:23584   */\n      0x00\n        /* \"#utility.yul\":23608:23640   */\n      tag_592\n        /* \"#utility.yul\":23634:23639   */\n      dup3\n        /* \"#utility.yul\":23608:23640   */\n      tag_582\n      jump\t// in\n    tag_592:\n        /* \"#utility.yul\":23595:23640   */\n      swap1\n      pop\n        /* \"#utility.yul\":23519:23646   */\n      swap2\n      swap1\n      pop\n      jump\t// out\n        /* \"#utility.yul\":23652:23806   */\n    tag_322:\n        /* \"#utility.yul\":23736:23742   */\n      dup3\n        /* \"#utility.yul\":23731:23734   */\n      dup2\n        /* \"#utility.yul\":23726:23729   */\n      dup4\n        /* \"#utility.yul\":23713:23743   */\n      calldatacopy\n        /* \"#utility.yul\":23798:23799   */\n      0x00\n        /* \"#utility.yul\":23789:23795   */\n      dup4\n        /* \"#utility.yul\":23784:23787   */\n      dup4\n        /* \"#utility.yul\":23780:23796   */\n      add\n        /* \"#utility.yul\":23773:23800   */\n      mstore\n        /* \"#utility.yul\":23652:23806   */\n      pop\n      pop\n      pop\n      jump\t// out\n        /* \"#utility.yul\":23812:24119   */\n    tag_462:\n        /* \"#utility.yul\":23880:23881   */\n      0x00\n        /* \"#utility.yul\":23890:24003   */\n    tag_595:\n        /* \"#utility.yul\":23904:23910   */\n      dup4\n        /* \"#utility.yul\":23901:23902   */\n      dup2\n        /* \"#utility.yul\":23898:23911   */\n      lt\n        /* \"#utility.yul\":23890:24003   */\n      iszero\n      tag_597\n      jumpi\n        /* \"#utility.yul\":23989:23990   */\n      dup1\n        /* \"#utility.yul\":23984:23987   */\n      dup3\n        /* \"#utility.yul\":23980:23991   */\n      add\n        /* \"#utility.yul\":23974:23992   */\n      mload\n        /* \"#utility.yul\":23970:23971   */\n      dup2\n        /* \"#utility.yul\":23965:23968   */\n      dup5\n        /* \"#utility.yul\":23961:23972   */\n      add\n        /* \"#utility.yul\":23954:23993   */\n      mstore\n        /* \"#utility.yul\":23926:23928   */\n      0x20\n        /* \"#utility.yul\":23923:23924   */\n      dup2\n        /* \"#utility.yul\":23919:23929   */\n      add\n        /* \"#utility.yul\":23914:23929   */\n      swap1\n      pop\n        /* \"#utility.yul\":23890:24003   */\n      jump(tag_595)\n    tag_597:\n        /* \"#utility.yul\":24021:24027   */\n      dup4\n        /* \"#utility.yul\":24018:24019   */\n      dup2\n        /* \"#utility.yul\":24015:24028   */\n      gt\n        /* \"#utility.yul\":24012:24113   */\n      iszero\n      tag_598\n      jumpi\n        /* \"#utility.yul\":24101:24102   */\n      0x00\n        /* \"#utility.yul\":24092:24098   */\n      dup5\n        /* \"#utility.yul\":24087:24090   */\n      dup5\n        /* \"#utility.yul\":24083:24099   */\n      add\n        /* \"#utility.yul\":24076:24103   */\n      mstore\n        /* \"#utility.yul\":24012:24113   */\n    tag_598:\n        /* \"#utility.yul\":23861:24119   */\n      pop\n        /* \"#utility.yul\":23812:24119   */\n      pop\n      pop\n      pop\n      jump\t// out\n        /* \"#utility.yul\":24125:24445   */\n    tag_111:\n        /* \"#utility.yul\":24169:24175   */\n      0x00\n        /* \"#utility.yul\":24206:24207   */\n      0x02\n        /* \"#utility.yul\":24200:24204   */\n      dup3\n        /* \"#utility.yul\":24196:24208   */\n      div\n        /* \"#utility.yul\":24186:24208   */\n      swap1\n      pop\n        /* \"#utility.yul\":24253:24254   */\n      0x01\n        /* \"#utility.yul\":24247:24251   */\n      dup3\n        /* \"#utility.yul\":24243:24255   */\n      and\n        /* \"#utility.yul\":24274:24292   */\n      dup1\n        /* \"#utility.yul\":24264:24345   */\n      tag_600\n      jumpi\n        /* \"#utility.yul\":24330:24334   */\n      0x7f\n        /* \"#utility.yul\":24322:24328   */\n      dup3\n        /* \"#utility.yul\":24318:24335   */\n      and\n        /* \"#utility.yul\":24308:24335   */\n      swap2\n      pop\n        /* \"#utility.yul\":24264:24345   */\n    tag_600:\n        /* \"#utility.yul\":24392:24394   */\n      0x20\n        /* \"#utility.yul\":24384:24390   */\n      dup3\n        /* \"#utility.yul\":24381:24395   */\n      lt\n        /* \"#utility.yul\":24361:24379   */\n      dup2\n        /* \"#utility.yul\":24358:24396   */\n      eq\n        /* \"#utility.yul\":24355:24439   */\n      iszero\n      tag_601\n      jumpi\n        /* \"#utility.yul\":24411:24429   */\n      tag_602\n      tag_603\n      jump\t// in\n    tag_602:\n        /* \"#utility.yul\":24355:24439   */\n    tag_601:\n        /* \"#utility.yul\":24176:24445   */\n      pop\n        /* \"#utility.yul\":24125:24445   */\n      swap2\n      swap1\n      pop\n      jump\t// out\n        /* \"#utility.yul\":24451:24732   */\n    tag_545:\n        /* \"#utility.yul\":24534:24561   */\n      tag_605\n        /* \"#utility.yul\":24556:24560   */\n      dup3\n        /* \"#utility.yul\":24534:24561   */\n      tag_464\n      jump\t// in\n    tag_605:\n        /* \"#utility.yul\":24526:24532   */\n      dup2\n        /* \"#utility.yul\":24522:24562   */\n      add\n        /* \"#utility.yul\":24664:24670   */\n      dup2\n        /* \"#utility.yul\":24652:24662   */\n      dup2\n        /* \"#utility.yul\":24649:24671   */\n      lt\n        /* \"#utility.yul\":24628:24646   */\n      0xffffffffffffffff\n        /* \"#utility.yul\":24616:24626   */\n      dup3\n        /* \"#utility.yul\":24613:24647   */\n      gt\n        /* \"#utility.yul\":24610:24672   */\n      or\n        /* \"#utility.yul\":24607:24695   */\n      iszero\n      tag_606\n      jumpi\n        /* \"#utility.yul\":24675:24693   */\n      tag_607\n      tag_550\n      jump\t// in\n    tag_607:\n        /* \"#utility.yul\":24607:24695   */\n    tag_606:\n        /* \"#utility.yul\":24715:24725   */\n      dup1\n        /* \"#utility.yul\":24711:24713   */\n      0x40\n        /* \"#utility.yul\":24704:24726   */\n      mstore\n        /* \"#utility.yul\":24494:24732   */\n      pop\n        /* \"#utility.yul\":24451:24732   */\n      pop\n      pop\n      jump\t// out\n        /* \"#utility.yul\":24738:24918   */\n    tag_560:\n        /* \"#utility.yul\":24786:24863   */\n      0x4e487b7100000000000000000000000000000000000000000000000000000000\n        /* \"#utility.yul\":24783:24784   */\n      0x00\n        /* \"#utility.yul\":24776:24864   */\n      mstore\n        /* \"#utility.yul\":24883:24887   */\n      0x11\n        /* \"#utility.yul\":24880:24881   */\n      0x04\n        /* \"#utility.yul\":24873:24888   */\n      mstore\n        /* \"#utility.yul\":24907:24911   */\n      0x24\n        /* \"#utility.yul\":24904:24905   */\n      0x00\n        /* \"#utility.yul\":24897:24912   */\n      revert\n        /* \"#utility.yul\":24924:25104   */\n    tag_566:\n        /* \"#utility.yul\":24972:25049   */\n      0x4e487b7100000000000000000000000000000000000000000000000000000000\n        /* \"#utility.yul\":24969:24970   */\n      0x00\n        /* \"#utility.yul\":24962:25050   */\n      mstore\n        /* \"#utility.yul\":25069:25073   */\n      0x12\n        /* \"#utility.yul\":25066:25067   */\n      0x04\n        /* \"#utility.yul\":25059:25074   */\n      mstore\n        /* \"#utility.yul\":25093:25097   */\n      0x24\n        /* \"#utility.yul\":25090:25091   */\n      0x00\n        /* \"#utility.yul\":25083:25098   */\n      revert\n        /* \"#utility.yul\":25110:25290   */\n    tag_127:\n        /* \"#utility.yul\":25158:25235   */\n      0x4e487b7100000000000000000000000000000000000000000000000000000000\n        /* \"#utility.yul\":25155:25156   */\n      0x00\n        /* \"#utility.yul\":25148:25236   */\n      mstore\n        /* \"#utility.yul\":25255:25259   */\n      0x21\n        /* \"#utility.yul\":25252:25253   */\n      0x04\n        /* \"#utility.yul\":25245:25260   */\n      mstore\n        /* \"#utility.yul\":25279:25283   */\n      0x24\n        /* \"#utility.yul\":25276:25277   */\n      0x00\n        /* \"#utility.yul\":25269:25284   */\n      revert\n        /* \"#utility.yul\":25296:25476   */\n    tag_603:\n        /* \"#utility.yul\":25344:25421   */\n      0x4e487b7100000000000000000000000000000000000000000000000000000000\n        /* \"#utility.yul\":25341:25342   */\n      0x00\n        /* \"#utility.yul\":25334:25422   */\n      mstore\n        /* \"#utility.yul\":25441:25445   */\n      0x22\n        /* \"#utility.yul\":25438:25439   */\n      0x04\n        /* \"#utility.yul\":25431:25446   */\n      mstore\n        /* \"#utility.yul\":25465:25469   */\n      0x24\n        /* \"#utility.yul\":25462:25463   */\n      0x00\n        /* \"#utility.yul\":25455:25470   */\n      revert\n        /* \"#utility.yul\":25482:25662   */\n    tag_160:\n        /* \"#utility.yul\":25530:25607   */\n      0x4e487b7100000000000000000000000000000000000000000000000000000000\n        /* \"#utility.yul\":25527:25528   */\n      0x00\n        /* \"#utility.yul\":25520:25608   */\n      mstore\n        /* \"#utility.yul\":25627:25631   */\n      0x32\n        /* \"#utility.yul\":25624:25625   */\n      0x04\n        /* \"#utility.yul\":25617:25632   */\n      mstore\n        /* \"#utility.yul\":25651:25655   */\n      0x24\n        /* \"#utility.yul\":25648:25649   */\n      0x00\n        /* \"#utility.yul\":25641:25656   */\n      revert\n        /* \"#utility.yul\":25668:25848   */\n    tag_550:\n        /* \"#utility.yul\":25716:25793   */\n      0x4e487b7100000000000000000000000000000000000000000000000000000000\n        /* \"#utility.yul\":25713:25714   */\n      0x00\n        /* \"#utility.yul\":25706:25794   */\n      mstore\n        /* \"#utility.yul\":25813:25817   */\n      0x41\n        /* \"#utility.yul\":25810:25811   */\n      0x04\n        /* \"#utility.yul\":25803:25818   */\n      mstore\n        /* \"#utility.yul\":25837:25841   */\n      0x24\n        /* \"#utility.yul\":25834:25835   */\n      0x00\n        /* \"#utility.yul\":25827:25842   */\n      revert\n        /* \"#utility.yul\":25854:25971   */\n    tag_335:\n        /* \"#utility.yul\":25963:25964   */\n      0x00\n        /* \"#utility.yul\":25960:25961   */\n      dup1\n        /* \"#utility.yul\":25953:25965   */\n      revert\n        /* \"#utility.yul\":25977:26094   */\n    tag_341:\n        /* \"#utility.yul\":26086:26087   */\n      0x00\n        /* \"#utility.yul\":26083:26084   */\n      dup1\n        /* \"#utility.yul\":26076:26088   */\n      revert\n        /* \"#utility.yul\":26100:26217   */\n    tag_345:\n        /* \"#utility.yul\":26209:26210   */\n      0x00\n        /* \"#utility.yul\":26206:26207   */\n      dup1\n        /* \"#utility.yul\":26199:26211   */\n      revert\n        /* \"#utility.yul\":26223:26340   */\n    tag_320:\n        /* \"#utility.yul\":26332:26333   */\n      0x00\n        /* \"#utility.yul\":26329:26330   */\n      dup1\n        /* \"#utility.yul\":26322:26334   */\n      revert\n        /* \"#utility.yul\":26346:26463   */\n    tag_381:\n        /* \"#utility.yul\":26455:26456   */\n      0x00\n        /* \"#utility.yul\":26452:26453   */\n      dup1\n        /* \"#utility.yul\":26445:26457   */\n      revert\n        /* \"#utility.yul\":26469:26586   */\n    tag_372:\n        /* \"#utility.yul\":26578:26579   */\n      0x00\n        /* \"#utility.yul\":26575:26576   */\n      dup1\n        /* \"#utility.yul\":26568:26580   */\n      revert\n        /* \"#utility.yul\":26592:26694   */\n    tag_464:\n        /* \"#utility.yul\":26633:26639   */\n      0x00\n        /* \"#utility.yul\":26684:26686   */\n      0x1f\n        /* \"#utility.yul\":26680:26687   */\n      not\n        /* \"#utility.yul\":26675:26677   */\n      0x1f\n        /* \"#utility.yul\":26668:26673   */\n      dup4\n        /* \"#utility.yul\":26664:26678   */\n      add\n        /* \"#utility.yul\":26660:26688   */\n      and\n        /* \"#utility.yul\":26650:26688   */\n      swap1\n      pop\n        /* \"#utility.yul\":26592:26694   */\n      swap2\n      swap1\n      pop\n      jump\t// out\n        /* \"#utility.yul\":26700:26878   */\n    tag_476:\n        /* \"#utility.yul\":26840:26870   */\n      0x63616c6c6572206973206e6f742061206469737472696275746f722e00000000\n        /* \"#utility.yul\":26836:26837   */\n      0x00\n        /* \"#utility.yul\":26828:26834   */\n      dup3\n        /* \"#utility.yul\":26824:26838   */\n      add\n        /* \"#utility.yul\":26817:26871   */\n      mstore\n        /* \"#utility.yul\":26700:26878   */\n      pop\n      jump\t// out\n        /* \"#utility.yul\":26884:27059   */\n    tag_481:\n        /* \"#utility.yul\":27024:27051   */\n      0x63616c6c6572206973206e6f7420612070726f64756365722e00000000000000\n        /* \"#utility.yul\":27020:27021   */\n      0x00\n        /* \"#utility.yul\":27012:27018   */\n      dup3\n        /* \"#utility.yul\":27008:27022   */\n      add\n        /* \"#utility.yul\":27001:27052   */\n      mstore\n        /* \"#utility.yul\":26884:27059   */\n      pop\n      jump\t// out\n        /* \"#utility.yul\":27065:27245   */\n    tag_486:\n        /* \"#utility.yul\":27205:27237   */\n      0x63616c6c6572206973206e6f742074686520746f6b656e206f776e65722e0000\n        /* \"#utility.yul\":27201:27202   */\n      0x00\n        /* \"#utility.yul\":27193:27199   */\n      dup3\n        /* \"#utility.yul\":27189:27203   */\n      add\n        /* \"#utility.yul\":27182:27238   */\n      mstore\n        /* \"#utility.yul\":27065:27245   */\n      pop\n      jump\t// out\n        /* \"#utility.yul\":27251:27363   */\n    tag_581:\n        /* \"#utility.yul\":27331:27332   */\n      0x05\n        /* \"#utility.yul\":27324:27329   */\n      dup2\n        /* \"#utility.yul\":27321:27333   */\n      lt\n        /* \"#utility.yul\":27311:27357   */\n      tag_625\n      jumpi\n        /* \"#utility.yul\":27337:27355   */\n      tag_626\n      tag_127\n      jump\t// in\n    tag_626:\n        /* \"#utility.yul\":27311:27357   */\n    tag_625:\n        /* \"#utility.yul\":27251:27363   */\n      pop\n      jump\t// out\n        /* \"#utility.yul\":27369:27482   */\n    tag_585:\n        /* \"#utility.yul\":27450:27451   */\n      0x06\n        /* \"#utility.yul\":27443:27448   */\n      dup2\n        /* \"#utility.yul\":27440:27452   */\n      lt\n        /* \"#utility.yul\":27430:27476   */\n      tag_628\n      jumpi\n        /* \"#utility.yul\":27456:27474   */\n      tag_629\n      tag_127\n      jump\t// in\n    tag_629:\n        /* \"#utility.yul\":27430:27476   */\n    tag_628:\n        /* \"#utility.yul\":27369:27482   */\n      pop\n      jump\t// out\n        /* \"#utility.yul\":27488:27610   */\n    tag_326:\n        /* \"#utility.yul\":27561:27585   */\n      tag_631\n        /* \"#utility.yul\":27579:27584   */\n      dup2\n        /* \"#utility.yul\":27561:27585   */\n      tag_438\n      jump\t// in\n    tag_631:\n        /* \"#utility.yul\":27554:27559   */\n      dup2\n        /* \"#utility.yul\":27551:27586   */\n      eq\n        /* \"#utility.yul\":27541:27604   */\n      tag_632\n      jumpi\n        /* \"#utility.yul\":27600:27601   */\n      0x00\n        /* \"#utility.yul\":27597:27598   */\n      dup1\n        /* \"#utility.yul\":27590:27602   */\n      revert\n        /* \"#utility.yul\":27541:27604   */\n    tag_632:\n        /* \"#utility.yul\":27488:27610   */\n      pop\n      jump\t// out\n        /* \"#utility.yul\":27616:27722   */\n    tag_330:\n        /* \"#utility.yul\":27696:27697   */\n      0x05\n        /* \"#utility.yul\":27689:27694   */\n      dup2\n        /* \"#utility.yul\":27686:27698   */\n      lt\n        /* \"#utility.yul\":27676:27716   */\n      tag_634\n      jumpi\n        /* \"#utility.yul\":27712:27713   */\n      0x00\n        /* \"#utility.yul\":27709:27710   */\n      dup1\n        /* \"#utility.yul\":27702:27714   */\n      revert\n        /* \"#utility.yul\":27676:27716   */\n    tag_634:\n        /* \"#utility.yul\":27616:27722   */\n      pop\n      jump\t// out\n        /* \"#utility.yul\":27728:27850   */\n    tag_368:\n        /* \"#utility.yul\":27801:27825   */\n      tag_636\n        /* \"#utility.yul\":27819:27824   */\n      dup2\n        /* \"#utility.yul\":27801:27825   */\n      tag_499\n      jump\t// in\n    tag_636:\n        /* \"#utility.yul\":27794:27799   */\n      dup2\n        /* \"#utility.yul\":27791:27826   */\n      eq\n        /* \"#utility.yul\":27781:27844   */\n      tag_637\n      jumpi\n        /* \"#utility.yul\":27840:27841   */\n      0x00\n        /* \"#utility.yul\":27837:27838   */\n      dup1\n        /* \"#utility.yul\":27830:27842   */\n      revert\n        /* \"#utility.yul\":27781:27844   */\n    tag_637:\n        /* \"#utility.yul\":27728:27850   */\n      pop\n      jump\t// out\n\n    auxdata: 0xa26469706673582212208a3ee832d1fd2519f628ff2f2a71ed319495fbf7efee27e63c8b0db1484ba33264736f6c63430008070033\n}\n",
				"bytecode": {
					"linkReferences": {},
					"object": "60806040523480156200001157600080fd5b50604051620034ec380380620034ec833981810160405281019062000037919062000243565b82600090805190602001906200004f929190620000fe565b50816001908051906020019062000068929190620000fe565b508060048190555033600260006101000a81548173ffffffffffffffffffffffffffffffffffffffff021916908373ffffffffffffffffffffffffffffffffffffffff16021790555080600560003373ffffffffffffffffffffffffffffffffffffffff1673ffffffffffffffffffffffffffffffffffffffff1681526020019081526020016000208190555050505062000485565b8280546200010c906200037c565b90600052602060002090601f0160209004810192826200013057600085556200017c565b82601f106200014b57805160ff19168380011785556200017c565b828001600101855582156200017c579182015b828111156200017b5782518255916020019190600101906200015e565b5b5090506200018b91906200018f565b5090565b5b80821115620001aa57600081600090555060010162000190565b5090565b6000620001c5620001bf8462000306565b620002dd565b905082815260208101848484011115620001e457620001e36200044b565b5b620001f184828562000346565b509392505050565b600082601f83011262000211576200021062000446565b5b815162000223848260208601620001ae565b91505092915050565b6000815190506200023d816200046b565b92915050565b6000806000606084860312156200025f576200025e62000455565b5b600084015167ffffffffffffffff81111562000280576200027f62000450565b5b6200028e86828701620001f9565b935050602084015167ffffffffffffffff811115620002b257620002b162000450565b5b620002c086828701620001f9565b9250506040620002d3868287016200022c565b9150509250925092565b6000620002e9620002fc565b9050620002f78282620003b2565b919050565b6000604051905090565b600067ffffffffffffffff82111562000324576200032362000417565b5b6200032f826200045a565b9050602081019050919050565b6000819050919050565b60005b838110156200036657808201518184015260208101905062000349565b8381111562000376576000848401525b50505050565b600060028204905060018216806200039557607f821691505b60208210811415620003ac57620003ab620003e8565b5b50919050565b620003bd826200045a565b810181811067ffffffffffffffff82111715620003df57620003de62000417565b5b80604052505050565b7f4e487b7100000000000000000000000000000000000000000000000000000000600052602260045260246000fd5b7f4e487b7100000000000000000000000000000000000000000000000000000000600052604160045260246000fd5b600080fd5b600080fd5b600080fd5b600080fd5b6000601f19601f8301169050919050565b62000476816200033c565b81146200048257600080fd5b50565b61305780620004956000396000f3fe6080604052600436106100fe5760003560e01c806379a85e6c11610095578063a3e6761011610064578063a3e6761014610355578063a482171914610380578063b292abf11461038a578063cd0c5896146103c8578063eedc966a14610405576100fe565b806379a85e6c1461029357806395d89b41146102d85780639dc29fac14610303578063a0712d681461032c576100fe565b806353b62866116100d157806353b62866146101bd578063561e0e98146101e65780636813b53b1461020f57806368cdafe614610256576100fe565b806306fdde03146101035780632bd5889f1461012e57806340932fc2146101575780634f64b2be14610180575b600080fd5b34801561010f57600080fd5b50610118610442565b6040516101259190612959565b60405180910390f35b34801561013a57600080fd5b506101556004803603810190610150919061248f565b6104d0565b005b34801561016357600080fd5b5061017e600480360381019061017991906123b3565b6105d3565b005b34801561018c57600080fd5b506101a760048036038101906101a29190612462565b610809565b6040516101b4919061293e565b60405180910390f35b3480156101c957600080fd5b506101e460048036038101906101df91906124eb565b610821565b005b3480156101f257600080fd5b5061020d6004803603810190610208919061252b565b610ae8565b005b34801561021b57600080fd5b5061023660048036038101906102319190612462565b610e34565b60405161024d9b9a99989796959493929190612a8a565b60405180910390f35b34801561026257600080fd5b5061027d60048036038101906102789190612422565b611361565b60405161028a91906128f3565b60405180910390f35b34801561029f57600080fd5b506102ba60048036038101906102b59190612462565b61149f565b6040516102cf999897969594939291906129f6565b60405180910390f35b3480156102e457600080fd5b506102ed611a56565b6040516102fa9190612959565b60405180910390f35b34801561030f57600080fd5b5061032a60048036038101906103259190612422565b611ae4565b005b34801561033857600080fd5b50610353600480360381019061034e9190612462565b611c6d565b005b34801561036157600080fd5b5061036a611d6f565b60405161037791906128d8565b60405180910390f35b610388611d95565b005b34801561039657600080fd5b506103b160048036038101906103ac9190612386565b611eed565b6040516103bf92919061290e565b60405180910390f35b3480156103d457600080fd5b506103ef60048036038101906103ea9190612386565b612015565b6040516103fc91906129db565b60405180910390f35b34801561041157600080fd5b5061042c60048036038101906104279190612386565b612036565b60405161043991906129db565b60405180910390f35b6000805461044f90612d94565b80601f016020809104026020016040519081016040528092919081815260200182805461047b90612d94565b80156104c85780601f1061049d576101008083540402835291602001916104c8565b820191906000526020600020905b8154815290600101906020018083116104ab57829003601f168201915b505050505081565b600260009054906101000a900473ffffffffffffffffffffffffffffffffffffffff1673ffffffffffffffffffffffffffffffffffffffff163373ffffffffffffffffffffffffffffffffffffffff1614610560576040517f08c379a0000000000000000000000000000000000000000000000000000000008152600401610557906129bb565b60405180910390fd5b81600460008282546105729190612be9565b9250508190555081600560003373ffffffffffffffffffffffffffffffffffffffff1673ffffffffffffffffffffffffffffffffffffffff16815260200190815260200160002060008282546105c89190612be9565b925050819055505050565b6000600660008573ffffffffffffffffffffffffffffffffffffffff1673ffffffffffffffffffffffffffffffffffffffff1681526020019081526020016000206040518060600160405290816000820160009054906101000a900460ff16600481111561064457610643612e55565b5b600481111561065657610655612e55565b5b815260200160018201805461066a90612d94565b80601f016020809104026020016040519081016040528092919081815260200182805461069690612d94565b80156106e35780601f106106b8576101008083540402835291602001916106e3565b820191906000526020600020905b8154815290600101906020018083116106c657829003601f168201915b505050505081526020016002820160009054906101000a900460ff1615151515815250509050828160000190600481111561072157610720612e55565b5b9081600481111561073557610734612e55565b5b81525050818160200181905250600181604001901515908115158152505080600660008673ffffffffffffffffffffffffffffffffffffffff1673ffffffffffffffffffffffffffffffffffffffff16815260200190815260200160002060008201518160000160006101000a81548160ff021916908360048111156107be576107bd612e55565b5b021790555060208201518160010190805190602001906107df92919061207f565b5060408201518160020160006101000a81548160ff02191690831515021790555090505050505050565b60036020528060005260406000206000915090505481565b6001600481111561083557610834612e55565b5b600660003373ffffffffffffffffffffffffffffffffffffffff1673ffffffffffffffffffffffffffffffffffffffff16815260200190815260200160002060000160009054906101000a900460ff16600481111561089757610896612e55565b5b146108d7576040517f08c379a00000000000000000000000000000000000000000000000000000000081526004016108ce9061297b565b60405180910390fd5b60006007600084815260200190815260200160002090506000600560003373ffffffffffffffffffffffffffffffffffffffff1673ffffffffffffffffffffffffffffffffffffffff16815260200190815260200160002054905081600a015481101561094357600080fd5b6001600581111561095757610956612e55565b5b8260090160009054906101000a900460ff16600581111561097b5761097a612e55565b5b1461098557600080fd5b82600760008681526020019081526020016000206003016001600681106109af576109ae612eb3565b5b01819055503360076000868152602001908152602001600020600b0160006101000a81548173ffffffffffffffffffffffffffffffffffffffff021916908373ffffffffffffffffffffffffffffffffffffffff160217905550610a4d6007600086815260200190815260200160002060010160009054906101000a900473ffffffffffffffffffffffffffffffffffffffff1683600a0154611361565b5060056007600086815260200190815260200160002060090160006101000a81548160ff02191690836005811115610a8857610a87612e55565b5b0217905550336007600086815260200190815260200160002060010160006101000a81548173ffffffffffffffffffffffffffffffffffffffff021916908373ffffffffffffffffffffffffffffffffffffffff16021790555050505050565b60006004811115610afc57610afb612e55565b5b600660003373ffffffffffffffffffffffffffffffffffffffff1673ffffffffffffffffffffffffffffffffffffffff16815260200190815260200160002060000160009054906101000a900460ff166004811115610b5e57610b5d612e55565b5b14610b9e576040517f08c379a0000000000000000000000000000000000000000000000000000000008152600401610b959061299b565b60405180910390fd5b6000600760008c815260200190815260200160002090508a8160000181905550338160010160006101000a81548173ffffffffffffffffffffffffffffffffffffffff021916908373ffffffffffffffffffffffffffffffffffffffff160217905550338160020160006101000a81548173ffffffffffffffffffffffffffffffffffffffff021916908373ffffffffffffffffffffffffffffffffffffffff1602179055508981600301600060068110610c5c57610c5b612eb3565b5b018190555060018160090160006101000a81548160ff02191690836005811115610c8957610c88612e55565b5b02179055508881600a0181905550600081600b0160006101000a81548173ffffffffffffffffffffffffffffffffffffffff021916908373ffffffffffffffffffffffffffffffffffffffff160217905550600081600c0160006101000a81548173ffffffffffffffffffffffffffffffffffffffff021916908373ffffffffffffffffffffffffffffffffffffffff160217905550600081600d0160006101000a81548173ffffffffffffffffffffffffffffffffffffffff021916908373ffffffffffffffffffffffffffffffffffffffff1602179055508781600e016000019080519060200190610d7e92919061207f565b508681600e016001019080519060200190610d9a92919061207f565b508581600e016002019080519060200190610db692919061207f565b508481600e016003019080519060200190610dd292919061207f565b508381600e016004019080519060200190610dee92919061207f565b508281600e016005019080519060200190610e0a92919061207f565b508181600e016006019080519060200190610e2692919061207f565b505050505050505050505050565b6000806000806060806060806060806060600760008d8152602001908152602001600020600001549a50600760008d815260200190815260200160002060010160009054906101000a900473ffffffffffffffffffffffffffffffffffffffff169950600760008d815260200190815260200160002060090160009054906101000a900460ff169850600760008d8152602001908152602001600020600a01549750600760008d8152602001908152602001600020600e016000018054610efa90612d94565b80601f0160208091040260200160405190810160405280929190818152602001828054610f2690612d94565b8015610f735780601f10610f4857610100808354040283529160200191610f73565b820191906000526020600020905b815481529060010190602001808311610f5657829003601f168201915b50505050509650600760008d8152602001908152602001600020600e016001018054610f9e90612d94565b80601f0160208091040260200160405190810160405280929190818152602001828054610fca90612d94565b80156110175780601f10610fec57610100808354040283529160200191611017565b820191906000526020600020905b815481529060010190602001808311610ffa57829003601f168201915b50505050509550600760008d8152602001908152602001600020600e01600201805461104290612d94565b80601f016020809104026020016040519081016040528092919081815260200182805461106e90612d94565b80156110bb5780601f10611090576101008083540402835291602001916110bb565b820191906000526020600020905b81548152906001019060200180831161109e57829003601f168201915b50505050509450600760008d8152602001908152602001600020600e0160030180546110e690612d94565b80601f016020809104026020016040519081016040528092919081815260200182805461111290612d94565b801561115f5780601f106111345761010080835404028352916020019161115f565b820191906000526020600020905b81548152906001019060200180831161114257829003601f168201915b50505050509350600760008d8152602001908152602001600020600e01600401805461118a90612d94565b80601f01602080910402602001604051908101604052809291908181526020018280546111b690612d94565b80156112035780601f106111d857610100808354040283529160200191611203565b820191906000526020600020905b8154815290600101906020018083116111e657829003601f168201915b50505050509250600760008d8152602001908152602001600020600e01600501805461122e90612d94565b80601f016020809104026020016040519081016040528092919081815260200182805461125a90612d94565b80156112a75780601f1061127c576101008083540402835291602001916112a7565b820191906000526020600020905b81548152906001019060200180831161128a57829003601f168201915b50505050509150600760008d8152602001908152602001600020600e0160060180546112d290612d94565b80601f01602080910402602001604051908101604052809291908181526020018280546112fe90612d94565b801561134b5780601f106113205761010080835404028352916020019161134b565b820191906000526020600020905b81548152906001019060200180831161132e57829003601f168201915b5050505050905091939597999b90929496989a50565b600081600560003373ffffffffffffffffffffffffffffffffffffffff1673ffffffffffffffffffffffffffffffffffffffff1681526020019081526020016000205410156113af57600080fd5b600073ffffffffffffffffffffffffffffffffffffffff168373ffffffffffffffffffffffffffffffffffffffff1614156113e957600080fd5b81600560003373ffffffffffffffffffffffffffffffffffffffff1673ffffffffffffffffffffffffffffffffffffffff16815260200190815260200160002060008282546114389190612c70565b9250508190555081600560008573ffffffffffffffffffffffffffffffffffffffff1673ffffffffffffffffffffffffffffffffffffffff168152602001908152602001600020600082825461148e9190612be9565b925050819055506001905092915050565b6000806000806000806000806114b3612105565b600760008b8152602001908152602001600020600001549850600760008b815260200190815260200160002060020160009054906101000a900473ffffffffffffffffffffffffffffffffffffffff169750600760008b815260200190815260200160002060010160009054906101000a900473ffffffffffffffffffffffffffffffffffffffff169650600760008b8152602001908152602001600020600b0160009054906101000a900473ffffffffffffffffffffffffffffffffffffffff169350600760008b8152602001908152602001600020600c0160009054906101000a900473ffffffffffffffffffffffffffffffffffffffff169250600760008b8152602001908152602001600020600d0160009054906101000a900473ffffffffffffffffffffffffffffffffffffffff169150600760008b815260200190815260200160002060090160009054906101000a900460ff169550600760008b8152602001908152602001600020600a01549450600760008b8152602001908152602001600020600e016040518060e001604052908160008201805461165990612d94565b80601f016020809104026020016040519081016040528092919081815260200182805461168590612d94565b80156116d25780601f106116a7576101008083540402835291602001916116d2565b820191906000526020600020905b8154815290600101906020018083116116b557829003601f168201915b505050505081526020016001820180546116eb90612d94565b80601f016020809104026020016040519081016040528092919081815260200182805461171790612d94565b80156117645780601f1061173957610100808354040283529160200191611764565b820191906000526020600020905b81548152906001019060200180831161174757829003601f168201915b5050505050815260200160028201805461177d90612d94565b80601f01602080910402602001604051908101604052809291908181526020018280546117a990612d94565b80156117f65780601f106117cb576101008083540402835291602001916117f6565b820191906000526020600020905b8154815290600101906020018083116117d957829003601f168201915b5050505050815260200160038201805461180f90612d94565b80601f016020809104026020016040519081016040528092919081815260200182805461183b90612d94565b80156118885780601f1061185d57610100808354040283529160200191611888565b820191906000526020600020905b81548152906001019060200180831161186b57829003601f168201915b505050505081526020016004820180546118a190612d94565b80601f01602080910402602001604051908101604052809291908181526020018280546118cd90612d94565b801561191a5780601f106118ef5761010080835404028352916020019161191a565b820191906000526020600020905b8154815290600101906020018083116118fd57829003601f168201915b5050505050815260200160058201805461193390612d94565b80601f016020809104026020016040519081016040528092919081815260200182805461195f90612d94565b80156119ac5780601f10611981576101008083540402835291602001916119ac565b820191906000526020600020905b81548152906001019060200180831161198f57829003601f168201915b505050505081526020016006820180546119c590612d94565b80601f01602080910402602001604051908101604052809291908181526020018280546119f190612d94565b8015611a3e5780601f10611a1357610100808354040283529160200191611a3e565b820191906000526020600020905b815481529060010190602001808311611a2157829003601f168201915b50505050508152505090509193959799909294969850565b60018054611a6390612d94565b80601f0160208091040260200160405190810160405280929190818152602001828054611a8f90612d94565b8015611adc5780601f10611ab157610100808354040283529160200191611adc565b820191906000526020600020905b815481529060010190602001808311611abf57829003601f168201915b505050505081565b600260009054906101000a900473ffffffffffffffffffffffffffffffffffffffff1673ffffffffffffffffffffffffffffffffffffffff163373ffffffffffffffffffffffffffffffffffffffff1614611b74576040517f08c379a0000000000000000000000000000000000000000000000000000000008152600401611b6b906129bb565b60405180910390fd5b600073ffffffffffffffffffffffffffffffffffffffff168273ffffffffffffffffffffffffffffffffffffffff161415611bae57600080fd5b600560008373ffffffffffffffffffffffffffffffffffffffff1673ffffffffffffffffffffffffffffffffffffffff16815260200190815260200160002054811115611bfa57600080fd5b8060046000828254611c0c9190612c70565b9250508190555080600560008473ffffffffffffffffffffffffffffffffffffffff1673ffffffffffffffffffffffffffffffffffffffff1681526020019081526020016000206000828254611c629190612c70565b925050819055505050565b600260009054906101000a900473ffffffffffffffffffffffffffffffffffffffff1673ffffffffffffffffffffffffffffffffffffffff163373ffffffffffffffffffffffffffffffffffffffff1614611cfd576040517f08c379a0000000000000000000000000000000000000000000000000000000008152600401611cf4906129bb565b60405180910390fd5b8060046000828254611d0f9190612be9565b9250508190555080600560003373ffffffffffffffffffffffffffffffffffffffff1673ffffffffffffffffffffffffffffffffffffffff1681526020019081526020016000206000828254611d659190612be9565b9250508190555050565b600260009054906101000a900473ffffffffffffffffffffffffffffffffffffffff1681565b6000606434611da49190612c3f565b905060003411611db357600080fd5b600260009054906101000a900473ffffffffffffffffffffffffffffffffffffffff1673ffffffffffffffffffffffffffffffffffffffff166108fc349081150290604051600060405180830381858888f19350505050158015611e1b573d6000803e3d6000fd5b508060056000600260009054906101000a900473ffffffffffffffffffffffffffffffffffffffff1673ffffffffffffffffffffffffffffffffffffffff1673ffffffffffffffffffffffffffffffffffffffff1681526020019081526020016000206000828254611e8d9190612c70565b9250508190555080600560003373ffffffffffffffffffffffffffffffffffffffff1673ffffffffffffffffffffffffffffffffffffffff1681526020019081526020016000206000828254611ee39190612be9565b9250508190555050565b60006060600660008473ffffffffffffffffffffffffffffffffffffffff1673ffffffffffffffffffffffffffffffffffffffff16815260200190815260200160002060000160009054906101000a900460ff169150600660008473ffffffffffffffffffffffffffffffffffffffff1673ffffffffffffffffffffffffffffffffffffffff1681526020019081526020016000206001018054611f9090612d94565b80601f0160208091040260200160405190810160405280929190818152602001828054611fbc90612d94565b80156120095780601f10611fde57610100808354040283529160200191612009565b820191906000526020600020905b815481529060010190602001808311611fec57829003601f168201915b50505050509050915091565b60008173ffffffffffffffffffffffffffffffffffffffff16319050919050565b6000600560008373ffffffffffffffffffffffffffffffffffffffff1673ffffffffffffffffffffffffffffffffffffffff168152602001908152602001600020549050919050565b82805461208b90612d94565b90600052602060002090601f0160209004810192826120ad57600085556120f4565b82601f106120c657805160ff19168380011785556120f4565b828001600101855582156120f4579182015b828111156120f35782518255916020019190600101906120d8565b5b5090506121019190612142565b5090565b6040518060e00160405280606081526020016060815260200160608152602001606081526020016060815260200160608152602001606081525090565b5b8082111561215b576000816000905550600101612143565b5090565b600061217261216d84612b8b565b612b66565b90508281526020810184848401111561218e5761218d612f20565b5b612199848285612d52565b509392505050565b6000813590506121b081612fe3565b92915050565b6000813590506121c581612ffa565b92915050565b600082601f8301126121e0576121df612f11565b5b81356121f084826020860161215f565b91505092915050565b600060e0828403121561220f5761220e612f16565b5b61221960e0612b66565b9050600082013567ffffffffffffffff81111561223957612238612f1b565b5b612245848285016121cb565b600083015250602082013567ffffffffffffffff81111561226957612268612f1b565b5b612275848285016121cb565b602083015250604082013567ffffffffffffffff81111561229957612298612f1b565b5b6122a5848285016121cb565b604083015250606082013567ffffffffffffffff8111156122c9576122c8612f1b565b5b6122d5848285016121cb565b606083015250608082013567ffffffffffffffff8111156122f9576122f8612f1b565b5b612305848285016121cb565b60808301525060a082013567ffffffffffffffff81111561232957612328612f1b565b5b612335848285016121cb565b60a08301525060c082013567ffffffffffffffff81111561235957612358612f1b565b5b612365848285016121cb565b60c08301525092915050565b6000813590506123808161300a565b92915050565b60006020828403121561239c5761239b612f2a565b5b60006123aa848285016121a1565b91505092915050565b6000806000606084860312156123cc576123cb612f2a565b5b60006123da868287016121a1565b93505060206123eb868287016121b6565b925050604084013567ffffffffffffffff81111561240c5761240b612f25565b5b612418868287016121cb565b9150509250925092565b6000806040838503121561243957612438612f2a565b5b6000612447858286016121a1565b925050602061245885828601612371565b9150509250929050565b60006020828403121561247857612477612f2a565b5b600061248684828501612371565b91505092915050565b600080604083850312156124a6576124a5612f2a565b5b60006124b485828601612371565b925050602083013567ffffffffffffffff8111156124d5576124d4612f25565b5b6124e1858286016121f9565b9150509250929050565b6000806040838503121561250257612501612f2a565b5b600061251085828601612371565b925050602061252185828601612371565b9150509250929050565b6000806000806000806000806000806101408b8d03121561254f5761254e612f2a565b5b600061255d8d828e01612371565b9a5050602061256e8d828e01612371565b995050604061257f8d828e01612371565b98505060608b013567ffffffffffffffff8111156125a05761259f612f25565b5b6125ac8d828e016121cb565b97505060808b013567ffffffffffffffff8111156125cd576125cc612f25565b5b6125d98d828e016121cb565b96505060a08b013567ffffffffffffffff8111156125fa576125f9612f25565b5b6126068d828e016121cb565b95505060c08b013567ffffffffffffffff81111561262757612626612f25565b5b6126338d828e016121cb565b94505060e08b013567ffffffffffffffff81111561265457612653612f25565b5b6126608d828e016121cb565b9350506101008b013567ffffffffffffffff81111561268257612681612f25565b5b61268e8d828e016121cb565b9250506101208b013567ffffffffffffffff8111156126b0576126af612f25565b5b6126bc8d828e016121cb565b9150509295989b9194979a5092959850565b6126d781612cb6565b82525050565b6126e681612ca4565b82525050565b6126f581612cc8565b82525050565b61270481612d2e565b82525050565b61271381612d40565b82525050565b61272281612cfa565b82525050565b600061273382612bbc565b61273d8185612bc7565b935061274d818560208601612d61565b61275681612f2f565b840191505092915050565b600061276c82612bbc565b6127768185612bd8565b9350612786818560208601612d61565b61278f81612f2f565b840191505092915050565b60006127a7601c83612bd8565b91506127b282612f40565b602082019050919050565b60006127ca601983612bd8565b91506127d582612f69565b602082019050919050565b60006127ed601e83612bd8565b91506127f882612f92565b602082019050919050565b600060e08301600083015184820360008601526128208282612728565b9150506020830151848203602086015261283a8282612728565b915050604083015184820360408601526128548282612728565b9150506060830151848203606086015261286e8282612728565b915050608083015184820360808601526128888282612728565b91505060a083015184820360a08601526128a28282612728565b91505060c083015184820360c08601526128bc8282612728565b9150508091505092915050565b6128d281612d24565b82525050565b60006020820190506128ed60008301846126ce565b92915050565b600060208201905061290860008301846126ec565b92915050565b600060408201905061292360008301856126fb565b81810360208301526129358184612761565b90509392505050565b60006020820190506129536000830184612719565b92915050565b600060208201905081810360008301526129738184612761565b905092915050565b600060208201905081810360008301526129948161279a565b9050919050565b600060208201905081810360008301526129b4816127bd565b9050919050565b600060208201905081810360008301526129d4816127e0565b9050919050565b60006020820190506129f060008301846128c9565b92915050565b600061012082019050612a0c600083018c6128c9565b612a19602083018b6126dd565b612a26604083018a6126dd565b612a33606083018961270a565b612a4060808301886128c9565b612a4d60a08301876126dd565b612a5a60c08301866126dd565b612a6760e08301856126dd565b818103610100830152612a7a8184612803565b90509a9950505050505050505050565b600061016082019050612aa0600083018e6128c9565b612aad602083018d6126dd565b612aba604083018c61270a565b612ac7606083018b6128c9565b8181036080830152612ad9818a612761565b905081810360a0830152612aed8189612761565b905081810360c0830152612b018188612761565b905081810360e0830152612b158187612761565b9050818103610100830152612b2a8186612761565b9050818103610120830152612b3f8185612761565b9050818103610140830152612b548184612761565b90509c9b505050505050505050505050565b6000612b70612b81565b9050612b7c8282612dc6565b919050565b6000604051905090565b600067ffffffffffffffff821115612ba657612ba5612ee2565b5b612baf82612f2f565b9050602081019050919050565b600081519050919050565b600082825260208201905092915050565b600082825260208201905092915050565b6000612bf482612d24565b9150612bff83612d24565b9250827fffffffffffffffffffffffffffffffffffffffffffffffffffffffffffffffff03821115612c3457612c33612df7565b5b828201905092915050565b6000612c4a82612d24565b9150612c5583612d24565b925082612c6557612c64612e26565b5b828204905092915050565b6000612c7b82612d24565b9150612c8683612d24565b925082821015612c9957612c98612df7565b5b828203905092915050565b6000612caf82612d04565b9050919050565b6000612cc182612d04565b9050919050565b60008115159050919050565b6000819050612ce282612fbb565b919050565b6000819050612cf582612fcf565b919050565b6000819050919050565b600073ffffffffffffffffffffffffffffffffffffffff82169050919050565b6000819050919050565b6000612d3982612cd4565b9050919050565b6000612d4b82612ce7565b9050919050565b82818337600083830152505050565b60005b83811015612d7f578082015181840152602081019050612d64565b83811115612d8e576000848401525b50505050565b60006002820490506001821680612dac57607f821691505b60208210811415612dc057612dbf612e84565b5b50919050565b612dcf82612f2f565b810181811067ffffffffffffffff82111715612dee57612ded612ee2565b5b80604052505050565b7f4e487b7100000000000000000000000000000000000000000000000000000000600052601160045260246000fd5b7f4e487b7100000000000000000000000000000000000000000000000000000000600052601260045260246000fd5b7f4e487b7100000000000000000000000000000000000000000000000000000000600052602160045260246000fd5b7f4e487b7100000000000000000000000000000000000000000000000000000000600052602260045260246000fd5b7f4e487b7100000000000000000000000000000000000000000000000000000000600052603260045260246000fd5b7f4e487b7100000000000000000000000000000000000000000000000000000000600052604160045260246000fd5b600080fd5b600080fd5b600080fd5b600080fd5b600080fd5b600080fd5b6000601f19601f8301169050919050565b7f63616c6c6572206973206e6f742061206469737472696275746f722e00000000600082015250565b7f63616c6c6572206973206e6f7420612070726f64756365722e00000000000000600082015250565b7f63616c6c6572206973206e6f742074686520746f6b656e206f776e65722e0000600082015250565b60058110612fcc57612fcb612e55565b5b50565b60068110612fe057612fdf612e55565b5b50565b612fec81612ca4565b8114612ff757600080fd5b50565b6005811061300757600080fd5b50565b61301381612d24565b811461301e57600080fd5b5056fea26469706673582212208a3ee832d1fd2519f628ff2f2a71ed319495fbf7efee27e63c8b0db1484ba33264736f6c63430008070033",
					"opcodes": "PUSH1 0x80 PUSH1 0x40 MSTORE CALLVALUE DUP1 ISZERO PUSH3 0x11 JUMPI PUSH1 0x0 DUP1 REVERT JUMPDEST POP PUSH1 0x40 MLOAD PUSH3 0x34EC CODESIZE SUB DUP1 PUSH3 0x34EC DUP4 CODECOPY DUP2 DUP2 ADD PUSH1 0x40 MSTORE DUP2 ADD SWAP1 PUSH3 0x37 SWAP2 SWAP1 PUSH3 0x243 JUMP JUMPDEST DUP3 PUSH1 0x0 SWAP1 DUP1 MLOAD SWAP1 PUSH1 0x20 ADD SWAP1 PUSH3 0x4F SWAP3 SWAP2 SWAP1 PUSH3 0xFE JUMP JUMPDEST POP DUP2 PUSH1 0x1 SWAP1 DUP1 MLOAD SWAP1 PUSH1 0x20 ADD SWAP1 PUSH3 0x68 SWAP3 SWAP2 SWAP1 PUSH3 0xFE JUMP JUMPDEST POP DUP1 PUSH1 0x4 DUP2 SWAP1 SSTORE POP CALLER PUSH1 0x2 PUSH1 0x0 PUSH2 0x100 EXP DUP2 SLOAD DUP2 PUSH20 0xFFFFFFFFFFFFFFFFFFFFFFFFFFFFFFFFFFFFFFFF MUL NOT AND SWAP1 DUP4 PUSH20 0xFFFFFFFFFFFFFFFFFFFFFFFFFFFFFFFFFFFFFFFF AND MUL OR SWAP1 SSTORE POP DUP1 PUSH1 0x5 PUSH1 0x0 CALLER PUSH20 0xFFFFFFFFFFFFFFFFFFFFFFFFFFFFFFFFFFFFFFFF AND PUSH20 0xFFFFFFFFFFFFFFFFFFFFFFFFFFFFFFFFFFFFFFFF AND DUP2 MSTORE PUSH1 0x20 ADD SWAP1 DUP2 MSTORE PUSH1 0x20 ADD PUSH1 0x0 KECCAK256 DUP2 SWAP1 SSTORE POP POP POP POP PUSH3 0x485 JUMP JUMPDEST DUP3 DUP1 SLOAD PUSH3 0x10C SWAP1 PUSH3 0x37C JUMP JUMPDEST SWAP1 PUSH1 0x0 MSTORE PUSH1 0x20 PUSH1 0x0 KECCAK256 SWAP1 PUSH1 0x1F ADD PUSH1 0x20 SWAP1 DIV DUP2 ADD SWAP3 DUP3 PUSH3 0x130 JUMPI PUSH1 0x0 DUP6 SSTORE PUSH3 0x17C JUMP JUMPDEST DUP3 PUSH1 0x1F LT PUSH3 0x14B JUMPI DUP1 MLOAD PUSH1 0xFF NOT AND DUP4 DUP1 ADD OR DUP6 SSTORE PUSH3 0x17C JUMP JUMPDEST DUP3 DUP1 ADD PUSH1 0x1 ADD DUP6 SSTORE DUP3 ISZERO PUSH3 0x17C JUMPI SWAP2 DUP3 ADD JUMPDEST DUP3 DUP2 GT ISZERO PUSH3 0x17B JUMPI DUP3 MLOAD DUP3 SSTORE SWAP2 PUSH1 0x20 ADD SWAP2 SWAP1 PUSH1 0x1 ADD SWAP1 PUSH3 0x15E JUMP JUMPDEST JUMPDEST POP SWAP1 POP PUSH3 0x18B SWAP2 SWAP1 PUSH3 0x18F JUMP JUMPDEST POP SWAP1 JUMP JUMPDEST JUMPDEST DUP1 DUP3 GT ISZERO PUSH3 0x1AA JUMPI PUSH1 0x0 DUP2 PUSH1 0x0 SWAP1 SSTORE POP PUSH1 0x1 ADD PUSH3 0x190 JUMP JUMPDEST POP SWAP1 JUMP JUMPDEST PUSH1 0x0 PUSH3 0x1C5 PUSH3 0x1BF DUP5 PUSH3 0x306 JUMP JUMPDEST PUSH3 0x2DD JUMP JUMPDEST SWAP1 POP DUP3 DUP2 MSTORE PUSH1 0x20 DUP2 ADD DUP5 DUP5 DUP5 ADD GT ISZERO PUSH3 0x1E4 JUMPI PUSH3 0x1E3 PUSH3 0x44B JUMP JUMPDEST JUMPDEST PUSH3 0x1F1 DUP5 DUP3 DUP6 PUSH3 0x346 JUMP JUMPDEST POP SWAP4 SWAP3 POP POP POP JUMP JUMPDEST PUSH1 0x0 DUP3 PUSH1 0x1F DUP4 ADD SLT PUSH3 0x211 JUMPI PUSH3 0x210 PUSH3 0x446 JUMP JUMPDEST JUMPDEST DUP2 MLOAD PUSH3 0x223 DUP5 DUP3 PUSH1 0x20 DUP7 ADD PUSH3 0x1AE JUMP JUMPDEST SWAP2 POP POP SWAP3 SWAP2 POP POP JUMP JUMPDEST PUSH1 0x0 DUP2 MLOAD SWAP1 POP PUSH3 0x23D DUP2 PUSH3 0x46B JUMP JUMPDEST SWAP3 SWAP2 POP POP JUMP JUMPDEST PUSH1 0x0 DUP1 PUSH1 0x0 PUSH1 0x60 DUP5 DUP7 SUB SLT ISZERO PUSH3 0x25F JUMPI PUSH3 0x25E PUSH3 0x455 JUMP JUMPDEST JUMPDEST PUSH1 0x0 DUP5 ADD MLOAD PUSH8 0xFFFFFFFFFFFFFFFF DUP2 GT ISZERO PUSH3 0x280 JUMPI PUSH3 0x27F PUSH3 0x450 JUMP JUMPDEST JUMPDEST PUSH3 0x28E DUP7 DUP3 DUP8 ADD PUSH3 0x1F9 JUMP JUMPDEST SWAP4 POP POP PUSH1 0x20 DUP5 ADD MLOAD PUSH8 0xFFFFFFFFFFFFFFFF DUP2 GT ISZERO PUSH3 0x2B2 JUMPI PUSH3 0x2B1 PUSH3 0x450 JUMP JUMPDEST JUMPDEST PUSH3 0x2C0 DUP7 DUP3 DUP8 ADD PUSH3 0x1F9 JUMP JUMPDEST SWAP3 POP POP PUSH1 0x40 PUSH3 0x2D3 DUP7 DUP3 DUP8 ADD PUSH3 0x22C JUMP JUMPDEST SWAP2 POP POP SWAP3 POP SWAP3 POP SWAP3 JUMP JUMPDEST PUSH1 0x0 PUSH3 0x2E9 PUSH3 0x2FC JUMP JUMPDEST SWAP1 POP PUSH3 0x2F7 DUP3 DUP3 PUSH3 0x3B2 JUMP JUMPDEST SWAP2 SWAP1 POP JUMP JUMPDEST PUSH1 0x0 PUSH1 0x40 MLOAD SWAP1 POP SWAP1 JUMP JUMPDEST PUSH1 0x0 PUSH8 0xFFFFFFFFFFFFFFFF DUP3 GT ISZERO PUSH3 0x324 JUMPI PUSH3 0x323 PUSH3 0x417 JUMP JUMPDEST JUMPDEST PUSH3 0x32F DUP3 PUSH3 0x45A JUMP JUMPDEST SWAP1 POP PUSH1 0x20 DUP2 ADD SWAP1 POP SWAP2 SWAP1 POP JUMP JUMPDEST PUSH1 0x0 DUP2 SWAP1 POP SWAP2 SWAP1 POP JUMP JUMPDEST PUSH1 0x0 JUMPDEST DUP4 DUP2 LT ISZERO PUSH3 0x366 JUMPI DUP1 DUP3 ADD MLOAD DUP2 DUP5 ADD MSTORE PUSH1 0x20 DUP2 ADD SWAP1 POP PUSH3 0x349 JUMP JUMPDEST DUP4 DUP2 GT ISZERO PUSH3 0x376 JUMPI PUSH1 0x0 DUP5 DUP5 ADD MSTORE JUMPDEST POP POP POP POP JUMP JUMPDEST PUSH1 0x0 PUSH1 0x2 DUP3 DIV SWAP1 POP PUSH1 0x1 DUP3 AND DUP1 PUSH3 0x395 JUMPI PUSH1 0x7F DUP3 AND SWAP2 POP JUMPDEST PUSH1 0x20 DUP3 LT DUP2 EQ ISZERO PUSH3 0x3AC JUMPI PUSH3 0x3AB PUSH3 0x3E8 JUMP JUMPDEST JUMPDEST POP SWAP2 SWAP1 POP JUMP JUMPDEST PUSH3 0x3BD DUP3 PUSH3 0x45A JUMP JUMPDEST DUP2 ADD DUP2 DUP2 LT PUSH8 0xFFFFFFFFFFFFFFFF DUP3 GT OR ISZERO PUSH3 0x3DF JUMPI PUSH3 0x3DE PUSH3 0x417 JUMP JUMPDEST JUMPDEST DUP1 PUSH1 0x40 MSTORE POP POP POP JUMP JUMPDEST PUSH32 0x4E487B7100000000000000000000000000000000000000000000000000000000 PUSH1 0x0 MSTORE PUSH1 0x22 PUSH1 0x4 MSTORE PUSH1 0x24 PUSH1 0x0 REVERT JUMPDEST PUSH32 0x4E487B7100000000000000000000000000000000000000000000000000000000 PUSH1 0x0 MSTORE PUSH1 0x41 PUSH1 0x4 MSTORE PUSH1 0x24 PUSH1 0x0 REVERT JUMPDEST PUSH1 0x0 DUP1 REVERT JUMPDEST PUSH1 0x0 DUP1 REVERT JUMPDEST PUSH1 0x0 DUP1 REVERT JUMPDEST PUSH1 0x0 DUP1 REVERT JUMPDEST PUSH1 0x0 PUSH1 0x1F NOT PUSH1 0x1F DUP4 ADD AND SWAP1 POP SWAP2 SWAP1 POP JUMP JUMPDEST PUSH3 0x476 DUP2 PUSH3 0x33C JUMP JUMPDEST DUP2 EQ PUSH3 0x482 JUMPI PUSH1 0x0 DUP1 REVERT JUMPDEST POP JUMP JUMPDEST PUSH2 0x3057 DUP1 PUSH3 0x495 PUSH1 0x0 CODECOPY PUSH1 0x0 RETURN INVALID PUSH1 0x80 PUSH1 0x40 MSTORE PUSH1 0x4 CALLDATASIZE LT PUSH2 0xFE JUMPI PUSH1 0x0 CALLDATALOAD PUSH1 0xE0 SHR DUP1 PUSH4 0x79A85E6C GT PUSH2 0x95 JUMPI DUP1 PUSH4 0xA3E67610 GT PUSH2 0x64 JUMPI DUP1 PUSH4 0xA3E67610 EQ PUSH2 0x355 JUMPI DUP1 PUSH4 0xA4821719 EQ PUSH2 0x380 JUMPI DUP1 PUSH4 0xB292ABF1 EQ PUSH2 0x38A JUMPI DUP1 PUSH4 0xCD0C5896 EQ PUSH2 0x3C8 JUMPI DUP1 PUSH4 0xEEDC966A EQ PUSH2 0x405 JUMPI PUSH2 0xFE JUMP JUMPDEST DUP1 PUSH4 0x79A85E6C EQ PUSH2 0x293 JUMPI DUP1 PUSH4 0x95D89B41 EQ PUSH2 0x2D8 JUMPI DUP1 PUSH4 0x9DC29FAC EQ PUSH2 0x303 JUMPI DUP1 PUSH4 0xA0712D68 EQ PUSH2 0x32C JUMPI PUSH2 0xFE JUMP JUMPDEST DUP1 PUSH4 0x53B62866 GT PUSH2 0xD1 JUMPI DUP1 PUSH4 0x53B62866 EQ PUSH2 0x1BD JUMPI DUP1 PUSH4 0x561E0E98 EQ PUSH2 0x1E6 JUMPI DUP1 PUSH4 0x6813B53B EQ PUSH2 0x20F JUMPI DUP1 PUSH4 0x68CDAFE6 EQ PUSH2 0x256 JUMPI PUSH2 0xFE JUMP JUMPDEST DUP1 PUSH4 0x6FDDE03 EQ PUSH2 0x103 JUMPI DUP1 PUSH4 0x2BD5889F EQ PUSH2 0x12E JUMPI DUP1 PUSH4 0x40932FC2 EQ PUSH2 0x157 JUMPI DUP1 PUSH4 0x4F64B2BE EQ PUSH2 0x180 JUMPI JUMPDEST PUSH1 0x0 DUP1 REVERT JUMPDEST CALLVALUE DUP1 ISZERO PUSH2 0x10F JUMPI PUSH1 0x0 DUP1 REVERT JUMPDEST POP PUSH2 0x118 PUSH2 0x442 JUMP JUMPDEST PUSH1 0x40 MLOAD PUSH2 0x125 SWAP2 SWAP1 PUSH2 0x2959 JUMP JUMPDEST PUSH1 0x40 MLOAD DUP1 SWAP2 SUB SWAP1 RETURN JUMPDEST CALLVALUE DUP1 ISZERO PUSH2 0x13A JUMPI PUSH1 0x0 DUP1 REVERT JUMPDEST POP PUSH2 0x155 PUSH1 0x4 DUP1 CALLDATASIZE SUB DUP2 ADD SWAP1 PUSH2 0x150 SWAP2 SWAP1 PUSH2 0x248F JUMP JUMPDEST PUSH2 0x4D0 JUMP JUMPDEST STOP JUMPDEST CALLVALUE DUP1 ISZERO PUSH2 0x163 JUMPI PUSH1 0x0 DUP1 REVERT JUMPDEST POP PUSH2 0x17E PUSH1 0x4 DUP1 CALLDATASIZE SUB DUP2 ADD SWAP1 PUSH2 0x179 SWAP2 SWAP1 PUSH2 0x23B3 JUMP JUMPDEST PUSH2 0x5D3 JUMP JUMPDEST STOP JUMPDEST CALLVALUE DUP1 ISZERO PUSH2 0x18C JUMPI PUSH1 0x0 DUP1 REVERT JUMPDEST POP PUSH2 0x1A7 PUSH1 0x4 DUP1 CALLDATASIZE SUB DUP2 ADD SWAP1 PUSH2 0x1A2 SWAP2 SWAP1 PUSH2 0x2462 JUMP JUMPDEST PUSH2 0x809 JUMP JUMPDEST PUSH1 0x40 MLOAD PUSH2 0x1B4 SWAP2 SWAP1 PUSH2 0x293E JUMP JUMPDEST PUSH1 0x40 MLOAD DUP1 SWAP2 SUB SWAP1 RETURN JUMPDEST CALLVALUE DUP1 ISZERO PUSH2 0x1C9 JUMPI PUSH1 0x0 DUP1 REVERT JUMPDEST POP PUSH2 0x1E4 PUSH1 0x4 DUP1 CALLDATASIZE SUB DUP2 ADD SWAP1 PUSH2 0x1DF SWAP2 SWAP1 PUSH2 0x24EB JUMP JUMPDEST PUSH2 0x821 JUMP JUMPDEST STOP JUMPDEST CALLVALUE DUP1 ISZERO PUSH2 0x1F2 JUMPI PUSH1 0x0 DUP1 REVERT JUMPDEST POP PUSH2 0x20D PUSH1 0x4 DUP1 CALLDATASIZE SUB DUP2 ADD SWAP1 PUSH2 0x208 SWAP2 SWAP1 PUSH2 0x252B JUMP JUMPDEST PUSH2 0xAE8 JUMP JUMPDEST STOP JUMPDEST CALLVALUE DUP1 ISZERO PUSH2 0x21B JUMPI PUSH1 0x0 DUP1 REVERT JUMPDEST POP PUSH2 0x236 PUSH1 0x4 DUP1 CALLDATASIZE SUB DUP2 ADD SWAP1 PUSH2 0x231 SWAP2 SWAP1 PUSH2 0x2462 JUMP JUMPDEST PUSH2 0xE34 JUMP JUMPDEST PUSH1 0x40 MLOAD PUSH2 0x24D SWAP12 SWAP11 SWAP10 SWAP9 SWAP8 SWAP7 SWAP6 SWAP5 SWAP4 SWAP3 SWAP2 SWAP1 PUSH2 0x2A8A JUMP JUMPDEST PUSH1 0x40 MLOAD DUP1 SWAP2 SUB SWAP1 RETURN JUMPDEST CALLVALUE DUP1 ISZERO PUSH2 0x262 JUMPI PUSH1 0x0 DUP1 REVERT JUMPDEST POP PUSH2 0x27D PUSH1 0x4 DUP1 CALLDATASIZE SUB DUP2 ADD SWAP1 PUSH2 0x278 SWAP2 SWAP1 PUSH2 0x2422 JUMP JUMPDEST PUSH2 0x1361 JUMP JUMPDEST PUSH1 0x40 MLOAD PUSH2 0x28A SWAP2 SWAP1 PUSH2 0x28F3 JUMP JUMPDEST PUSH1 0x40 MLOAD DUP1 SWAP2 SUB SWAP1 RETURN JUMPDEST CALLVALUE DUP1 ISZERO PUSH2 0x29F JUMPI PUSH1 0x0 DUP1 REVERT JUMPDEST POP PUSH2 0x2BA PUSH1 0x4 DUP1 CALLDATASIZE SUB DUP2 ADD SWAP1 PUSH2 0x2B5 SWAP2 SWAP1 PUSH2 0x2462 JUMP JUMPDEST PUSH2 0x149F JUMP JUMPDEST PUSH1 0x40 MLOAD PUSH2 0x2CF SWAP10 SWAP9 SWAP8 SWAP7 SWAP6 SWAP5 SWAP4 SWAP3 SWAP2 SWAP1 PUSH2 0x29F6 JUMP JUMPDEST PUSH1 0x40 MLOAD DUP1 SWAP2 SUB SWAP1 RETURN JUMPDEST CALLVALUE DUP1 ISZERO PUSH2 0x2E4 JUMPI PUSH1 0x0 DUP1 REVERT JUMPDEST POP PUSH2 0x2ED PUSH2 0x1A56 JUMP JUMPDEST PUSH1 0x40 MLOAD PUSH2 0x2FA SWAP2 SWAP1 PUSH2 0x2959 JUMP JUMPDEST PUSH1 0x40 MLOAD DUP1 SWAP2 SUB SWAP1 RETURN JUMPDEST CALLVALUE DUP1 ISZERO PUSH2 0x30F JUMPI PUSH1 0x0 DUP1 REVERT JUMPDEST POP PUSH2 0x32A PUSH1 0x4 DUP1 CALLDATASIZE SUB DUP2 ADD SWAP1 PUSH2 0x325 SWAP2 SWAP1 PUSH2 0x2422 JUMP JUMPDEST PUSH2 0x1AE4 JUMP JUMPDEST STOP JUMPDEST CALLVALUE DUP1 ISZERO PUSH2 0x338 JUMPI PUSH1 0x0 DUP1 REVERT JUMPDEST POP PUSH2 0x353 PUSH1 0x4 DUP1 CALLDATASIZE SUB DUP2 ADD SWAP1 PUSH2 0x34E SWAP2 SWAP1 PUSH2 0x2462 JUMP JUMPDEST PUSH2 0x1C6D JUMP JUMPDEST STOP JUMPDEST CALLVALUE DUP1 ISZERO PUSH2 0x361 JUMPI PUSH1 0x0 DUP1 REVERT JUMPDEST POP PUSH2 0x36A PUSH2 0x1D6F JUMP JUMPDEST PUSH1 0x40 MLOAD PUSH2 0x377 SWAP2 SWAP1 PUSH2 0x28D8 JUMP JUMPDEST PUSH1 0x40 MLOAD DUP1 SWAP2 SUB SWAP1 RETURN JUMPDEST PUSH2 0x388 PUSH2 0x1D95 JUMP JUMPDEST STOP JUMPDEST CALLVALUE DUP1 ISZERO PUSH2 0x396 JUMPI PUSH1 0x0 DUP1 REVERT JUMPDEST POP PUSH2 0x3B1 PUSH1 0x4 DUP1 CALLDATASIZE SUB DUP2 ADD SWAP1 PUSH2 0x3AC SWAP2 SWAP1 PUSH2 0x2386 JUMP JUMPDEST PUSH2 0x1EED JUMP JUMPDEST PUSH1 0x40 MLOAD PUSH2 0x3BF SWAP3 SWAP2 SWAP1 PUSH2 0x290E JUMP JUMPDEST PUSH1 0x40 MLOAD DUP1 SWAP2 SUB SWAP1 RETURN JUMPDEST CALLVALUE DUP1 ISZERO PUSH2 0x3D4 JUMPI PUSH1 0x0 DUP1 REVERT JUMPDEST POP PUSH2 0x3EF PUSH1 0x4 DUP1 CALLDATASIZE SUB DUP2 ADD SWAP1 PUSH2 0x3EA SWAP2 SWAP1 PUSH2 0x2386 JUMP JUMPDEST PUSH2 0x2015 JUMP JUMPDEST PUSH1 0x40 MLOAD PUSH2 0x3FC SWAP2 SWAP1 PUSH2 0x29DB JUMP JUMPDEST PUSH1 0x40 MLOAD DUP1 SWAP2 SUB SWAP1 RETURN JUMPDEST CALLVALUE DUP1 ISZERO PUSH2 0x411 JUMPI PUSH1 0x0 DUP1 REVERT JUMPDEST POP PUSH2 0x42C PUSH1 0x4 DUP1 CALLDATASIZE SUB DUP2 ADD SWAP1 PUSH2 0x427 SWAP2 SWAP1 PUSH2 0x2386 JUMP JUMPDEST PUSH2 0x2036 JUMP JUMPDEST PUSH1 0x40 MLOAD PUSH2 0x439 SWAP2 SWAP1 PUSH2 0x29DB JUMP JUMPDEST PUSH1 0x40 MLOAD DUP1 SWAP2 SUB SWAP1 RETURN JUMPDEST PUSH1 0x0 DUP1 SLOAD PUSH2 0x44F SWAP1 PUSH2 0x2D94 JUMP JUMPDEST DUP1 PUSH1 0x1F ADD PUSH1 0x20 DUP1 SWAP2 DIV MUL PUSH1 0x20 ADD PUSH1 0x40 MLOAD SWAP1 DUP2 ADD PUSH1 0x40 MSTORE DUP1 SWAP3 SWAP2 SWAP1 DUP2 DUP2 MSTORE PUSH1 0x20 ADD DUP3 DUP1 SLOAD PUSH2 0x47B SWAP1 PUSH2 0x2D94 JUMP JUMPDEST DUP1 ISZERO PUSH2 0x4C8 JUMPI DUP1 PUSH1 0x1F LT PUSH2 0x49D JUMPI PUSH2 0x100 DUP1 DUP4 SLOAD DIV MUL DUP4 MSTORE SWAP2 PUSH1 0x20 ADD SWAP2 PUSH2 0x4C8 JUMP JUMPDEST DUP3 ADD SWAP2 SWAP1 PUSH1 0x0 MSTORE PUSH1 0x20 PUSH1 0x0 KECCAK256 SWAP1 JUMPDEST DUP2 SLOAD DUP2 MSTORE SWAP1 PUSH1 0x1 ADD SWAP1 PUSH1 0x20 ADD DUP1 DUP4 GT PUSH2 0x4AB JUMPI DUP3 SWAP1 SUB PUSH1 0x1F AND DUP3 ADD SWAP2 JUMPDEST POP POP POP POP POP DUP2 JUMP JUMPDEST PUSH1 0x2 PUSH1 0x0 SWAP1 SLOAD SWAP1 PUSH2 0x100 EXP SWAP1 DIV PUSH20 0xFFFFFFFFFFFFFFFFFFFFFFFFFFFFFFFFFFFFFFFF AND PUSH20 0xFFFFFFFFFFFFFFFFFFFFFFFFFFFFFFFFFFFFFFFF AND CALLER PUSH20 0xFFFFFFFFFFFFFFFFFFFFFFFFFFFFFFFFFFFFFFFF AND EQ PUSH2 0x560 JUMPI PUSH1 0x40 MLOAD PUSH32 0x8C379A000000000000000000000000000000000000000000000000000000000 DUP2 MSTORE PUSH1 0x4 ADD PUSH2 0x557 SWAP1 PUSH2 0x29BB JUMP JUMPDEST PUSH1 0x40 MLOAD DUP1 SWAP2 SUB SWAP1 REVERT JUMPDEST DUP2 PUSH1 0x4 PUSH1 0x0 DUP3 DUP3 SLOAD PUSH2 0x572 SWAP2 SWAP1 PUSH2 0x2BE9 JUMP JUMPDEST SWAP3 POP POP DUP2 SWAP1 SSTORE POP DUP2 PUSH1 0x5 PUSH1 0x0 CALLER PUSH20 0xFFFFFFFFFFFFFFFFFFFFFFFFFFFFFFFFFFFFFFFF AND PUSH20 0xFFFFFFFFFFFFFFFFFFFFFFFFFFFFFFFFFFFFFFFF AND DUP2 MSTORE PUSH1 0x20 ADD SWAP1 DUP2 MSTORE PUSH1 0x20 ADD PUSH1 0x0 KECCAK256 PUSH1 0x0 DUP3 DUP3 SLOAD PUSH2 0x5C8 SWAP2 SWAP1 PUSH2 0x2BE9 JUMP JUMPDEST SWAP3 POP POP DUP2 SWAP1 SSTORE POP POP POP JUMP JUMPDEST PUSH1 0x0 PUSH1 0x6 PUSH1 0x0 DUP6 PUSH20 0xFFFFFFFFFFFFFFFFFFFFFFFFFFFFFFFFFFFFFFFF AND PUSH20 0xFFFFFFFFFFFFFFFFFFFFFFFFFFFFFFFFFFFFFFFF AND DUP2 MSTORE PUSH1 0x20 ADD SWAP1 DUP2 MSTORE PUSH1 0x20 ADD PUSH1 0x0 KECCAK256 PUSH1 0x40 MLOAD DUP1 PUSH1 0x60 ADD PUSH1 0x40 MSTORE SWAP1 DUP2 PUSH1 0x0 DUP3 ADD PUSH1 0x0 SWAP1 SLOAD SWAP1 PUSH2 0x100 EXP SWAP1 DIV PUSH1 0xFF AND PUSH1 0x4 DUP2 GT ISZERO PUSH2 0x644 JUMPI PUSH2 0x643 PUSH2 0x2E55 JUMP JUMPDEST JUMPDEST PUSH1 0x4 DUP2 GT ISZERO PUSH2 0x656 JUMPI PUSH2 0x655 PUSH2 0x2E55 JUMP JUMPDEST JUMPDEST DUP2 MSTORE PUSH1 0x20 ADD PUSH1 0x1 DUP3 ADD DUP1 SLOAD PUSH2 0x66A SWAP1 PUSH2 0x2D94 JUMP JUMPDEST DUP1 PUSH1 0x1F ADD PUSH1 0x20 DUP1 SWAP2 DIV MUL PUSH1 0x20 ADD PUSH1 0x40 MLOAD SWAP1 DUP2 ADD PUSH1 0x40 MSTORE DUP1 SWAP3 SWAP2 SWAP1 DUP2 DUP2 MSTORE PUSH1 0x20 ADD DUP3 DUP1 SLOAD PUSH2 0x696 SWAP1 PUSH2 0x2D94 JUMP JUMPDEST DUP1 ISZERO PUSH2 0x6E3 JUMPI DUP1 PUSH1 0x1F LT PUSH2 0x6B8 JUMPI PUSH2 0x100 DUP1 DUP4 SLOAD DIV MUL DUP4 MSTORE SWAP2 PUSH1 0x20 ADD SWAP2 PUSH2 0x6E3 JUMP JUMPDEST DUP3 ADD SWAP2 SWAP1 PUSH1 0x0 MSTORE PUSH1 0x20 PUSH1 0x0 KECCAK256 SWAP1 JUMPDEST DUP2 SLOAD DUP2 MSTORE SWAP1 PUSH1 0x1 ADD SWAP1 PUSH1 0x20 ADD DUP1 DUP4 GT PUSH2 0x6C6 JUMPI DUP3 SWAP1 SUB PUSH1 0x1F AND DUP3 ADD SWAP2 JUMPDEST POP POP POP POP POP DUP2 MSTORE PUSH1 0x20 ADD PUSH1 0x2 DUP3 ADD PUSH1 0x0 SWAP1 SLOAD SWAP1 PUSH2 0x100 EXP SWAP1 DIV PUSH1 0xFF AND ISZERO ISZERO ISZERO ISZERO DUP2 MSTORE POP POP SWAP1 POP DUP3 DUP2 PUSH1 0x0 ADD SWAP1 PUSH1 0x4 DUP2 GT ISZERO PUSH2 0x721 JUMPI PUSH2 0x720 PUSH2 0x2E55 JUMP JUMPDEST JUMPDEST SWAP1 DUP2 PUSH1 0x4 DUP2 GT ISZERO PUSH2 0x735 JUMPI PUSH2 0x734 PUSH2 0x2E55 JUMP JUMPDEST JUMPDEST DUP2 MSTORE POP POP DUP2 DUP2 PUSH1 0x20 ADD DUP2 SWAP1 MSTORE POP PUSH1 0x1 DUP2 PUSH1 0x40 ADD SWAP1 ISZERO ISZERO SWAP1 DUP2 ISZERO ISZERO DUP2 MSTORE POP POP DUP1 PUSH1 0x6 PUSH1 0x0 DUP7 PUSH20 0xFFFFFFFFFFFFFFFFFFFFFFFFFFFFFFFFFFFFFFFF AND PUSH20 0xFFFFFFFFFFFFFFFFFFFFFFFFFFFFFFFFFFFFFFFF AND DUP2 MSTORE PUSH1 0x20 ADD SWAP1 DUP2 MSTORE PUSH1 0x20 ADD PUSH1 0x0 KECCAK256 PUSH1 0x0 DUP3 ADD MLOAD DUP2 PUSH1 0x0 ADD PUSH1 0x0 PUSH2 0x100 EXP DUP2 SLOAD DUP2 PUSH1 0xFF MUL NOT AND SWAP1 DUP4 PUSH1 0x4 DUP2 GT ISZERO PUSH2 0x7BE JUMPI PUSH2 0x7BD PUSH2 0x2E55 JUMP JUMPDEST JUMPDEST MUL OR SWAP1 SSTORE POP PUSH1 0x20 DUP3 ADD MLOAD DUP2 PUSH1 0x1 ADD SWAP1 DUP1 MLOAD SWAP1 PUSH1 0x20 ADD SWAP1 PUSH2 0x7DF SWAP3 SWAP2 SWAP1 PUSH2 0x207F JUMP JUMPDEST POP PUSH1 0x40 DUP3 ADD MLOAD DUP2 PUSH1 0x2 ADD PUSH1 0x0 PUSH2 0x100 EXP DUP2 SLOAD DUP2 PUSH1 0xFF MUL NOT AND SWAP1 DUP4 ISZERO ISZERO MUL OR SWAP1 SSTORE POP SWAP1 POP POP POP POP POP POP JUMP JUMPDEST PUSH1 0x3 PUSH1 0x20 MSTORE DUP1 PUSH1 0x0 MSTORE PUSH1 0x40 PUSH1 0x0 KECCAK256 PUSH1 0x0 SWAP2 POP SWAP1 POP SLOAD DUP2 JUMP JUMPDEST PUSH1 0x1 PUSH1 0x4 DUP2 GT ISZERO PUSH2 0x835 JUMPI PUSH2 0x834 PUSH2 0x2E55 JUMP JUMPDEST JUMPDEST PUSH1 0x6 PUSH1 0x0 CALLER PUSH20 0xFFFFFFFFFFFFFFFFFFFFFFFFFFFFFFFFFFFFFFFF AND PUSH20 0xFFFFFFFFFFFFFFFFFFFFFFFFFFFFFFFFFFFFFFFF AND DUP2 MSTORE PUSH1 0x20 ADD SWAP1 DUP2 MSTORE PUSH1 0x20 ADD PUSH1 0x0 KECCAK256 PUSH1 0x0 ADD PUSH1 0x0 SWAP1 SLOAD SWAP1 PUSH2 0x100 EXP SWAP1 DIV PUSH1 0xFF AND PUSH1 0x4 DUP2 GT ISZERO PUSH2 0x897 JUMPI PUSH2 0x896 PUSH2 0x2E55 JUMP JUMPDEST JUMPDEST EQ PUSH2 0x8D7 JUMPI PUSH1 0x40 MLOAD PUSH32 0x8C379A000000000000000000000000000000000000000000000000000000000 DUP2 MSTORE PUSH1 0x4 ADD PUSH2 0x8CE SWAP1 PUSH2 0x297B JUMP JUMPDEST PUSH1 0x40 MLOAD DUP1 SWAP2 SUB SWAP1 REVERT JUMPDEST PUSH1 0x0 PUSH1 0x7 PUSH1 0x0 DUP5 DUP2 MSTORE PUSH1 0x20 ADD SWAP1 DUP2 MSTORE PUSH1 0x20 ADD PUSH1 0x0 KECCAK256 SWAP1 POP PUSH1 0x0 PUSH1 0x5 PUSH1 0x0 CALLER PUSH20 0xFFFFFFFFFFFFFFFFFFFFFFFFFFFFFFFFFFFFFFFF AND PUSH20 0xFFFFFFFFFFFFFFFFFFFFFFFFFFFFFFFFFFFFFFFF AND DUP2 MSTORE PUSH1 0x20 ADD SWAP1 DUP2 MSTORE PUSH1 0x20 ADD PUSH1 0x0 KECCAK256 SLOAD SWAP1 POP DUP2 PUSH1 0xA ADD SLOAD DUP2 LT ISZERO PUSH2 0x943 JUMPI PUSH1 0x0 DUP1 REVERT JUMPDEST PUSH1 0x1 PUSH1 0x5 DUP2 GT ISZERO PUSH2 0x957 JUMPI PUSH2 0x956 PUSH2 0x2E55 JUMP JUMPDEST JUMPDEST DUP3 PUSH1 0x9 ADD PUSH1 0x0 SWAP1 SLOAD SWAP1 PUSH2 0x100 EXP SWAP1 DIV PUSH1 0xFF AND PUSH1 0x5 DUP2 GT ISZERO PUSH2 0x97B JUMPI PUSH2 0x97A PUSH2 0x2E55 JUMP JUMPDEST JUMPDEST EQ PUSH2 0x985 JUMPI PUSH1 0x0 DUP1 REVERT JUMPDEST DUP3 PUSH1 0x7 PUSH1 0x0 DUP7 DUP2 MSTORE PUSH1 0x20 ADD SWAP1 DUP2 MSTORE PUSH1 0x20 ADD PUSH1 0x0 KECCAK256 PUSH1 0x3 ADD PUSH1 0x1 PUSH1 0x6 DUP2 LT PUSH2 0x9AF JUMPI PUSH2 0x9AE PUSH2 0x2EB3 JUMP JUMPDEST JUMPDEST ADD DUP2 SWAP1 SSTORE POP CALLER PUSH1 0x7 PUSH1 0x0 DUP7 DUP2 MSTORE PUSH1 0x20 ADD SWAP1 DUP2 MSTORE PUSH1 0x20 ADD PUSH1 0x0 KECCAK256 PUSH1 0xB ADD PUSH1 0x0 PUSH2 0x100 EXP DUP2 SLOAD DUP2 PUSH20 0xFFFFFFFFFFFFFFFFFFFFFFFFFFFFFFFFFFFFFFFF MUL NOT AND SWAP1 DUP4 PUSH20 0xFFFFFFFFFFFFFFFFFFFFFFFFFFFFFFFFFFFFFFFF AND MUL OR SWAP1 SSTORE POP PUSH2 0xA4D PUSH1 0x7 PUSH1 0x0 DUP7 DUP2 MSTORE PUSH1 0x20 ADD SWAP1 DUP2 MSTORE PUSH1 0x20 ADD PUSH1 0x0 KECCAK256 PUSH1 0x1 ADD PUSH1 0x0 SWAP1 SLOAD SWAP1 PUSH2 0x100 EXP SWAP1 DIV PUSH20 0xFFFFFFFFFFFFFFFFFFFFFFFFFFFFFFFFFFFFFFFF AND DUP4 PUSH1 0xA ADD SLOAD PUSH2 0x1361 JUMP JUMPDEST POP PUSH1 0x5 PUSH1 0x7 PUSH1 0x0 DUP7 DUP2 MSTORE PUSH1 0x20 ADD SWAP1 DUP2 MSTORE PUSH1 0x20 ADD PUSH1 0x0 KECCAK256 PUSH1 0x9 ADD PUSH1 0x0 PUSH2 0x100 EXP DUP2 SLOAD DUP2 PUSH1 0xFF MUL NOT AND SWAP1 DUP4 PUSH1 0x5 DUP2 GT ISZERO PUSH2 0xA88 JUMPI PUSH2 0xA87 PUSH2 0x2E55 JUMP JUMPDEST JUMPDEST MUL OR SWAP1 SSTORE POP CALLER PUSH1 0x7 PUSH1 0x0 DUP7 DUP2 MSTORE PUSH1 0x20 ADD SWAP1 DUP2 MSTORE PUSH1 0x20 ADD PUSH1 0x0 KECCAK256 PUSH1 0x1 ADD PUSH1 0x0 PUSH2 0x100 EXP DUP2 SLOAD DUP2 PUSH20 0xFFFFFFFFFFFFFFFFFFFFFFFFFFFFFFFFFFFFFFFF MUL NOT AND SWAP1 DUP4 PUSH20 0xFFFFFFFFFFFFFFFFFFFFFFFFFFFFFFFFFFFFFFFF AND MUL OR SWAP1 SSTORE POP POP POP POP POP JUMP JUMPDEST PUSH1 0x0 PUSH1 0x4 DUP2 GT ISZERO PUSH2 0xAFC JUMPI PUSH2 0xAFB PUSH2 0x2E55 JUMP JUMPDEST JUMPDEST PUSH1 0x6 PUSH1 0x0 CALLER PUSH20 0xFFFFFFFFFFFFFFFFFFFFFFFFFFFFFFFFFFFFFFFF AND PUSH20 0xFFFFFFFFFFFFFFFFFFFFFFFFFFFFFFFFFFFFFFFF AND DUP2 MSTORE PUSH1 0x20 ADD SWAP1 DUP2 MSTORE PUSH1 0x20 ADD PUSH1 0x0 KECCAK256 PUSH1 0x0 ADD PUSH1 0x0 SWAP1 SLOAD SWAP1 PUSH2 0x100 EXP SWAP1 DIV PUSH1 0xFF AND PUSH1 0x4 DUP2 GT ISZERO PUSH2 0xB5E JUMPI PUSH2 0xB5D PUSH2 0x2E55 JUMP JUMPDEST JUMPDEST EQ PUSH2 0xB9E JUMPI PUSH1 0x40 MLOAD PUSH32 0x8C379A000000000000000000000000000000000000000000000000000000000 DUP2 MSTORE PUSH1 0x4 ADD PUSH2 0xB95 SWAP1 PUSH2 0x299B JUMP JUMPDEST PUSH1 0x40 MLOAD DUP1 SWAP2 SUB SWAP1 REVERT JUMPDEST PUSH1 0x0 PUSH1 0x7 PUSH1 0x0 DUP13 DUP2 MSTORE PUSH1 0x20 ADD SWAP1 DUP2 MSTORE PUSH1 0x20 ADD PUSH1 0x0 KECCAK256 SWAP1 POP DUP11 DUP2 PUSH1 0x0 ADD DUP2 SWAP1 SSTORE POP CALLER DUP2 PUSH1 0x1 ADD PUSH1 0x0 PUSH2 0x100 EXP DUP2 SLOAD DUP2 PUSH20 0xFFFFFFFFFFFFFFFFFFFFFFFFFFFFFFFFFFFFFFFF MUL NOT AND SWAP1 DUP4 PUSH20 0xFFFFFFFFFFFFFFFFFFFFFFFFFFFFFFFFFFFFFFFF AND MUL OR SWAP1 SSTORE POP CALLER DUP2 PUSH1 0x2 ADD PUSH1 0x0 PUSH2 0x100 EXP DUP2 SLOAD DUP2 PUSH20 0xFFFFFFFFFFFFFFFFFFFFFFFFFFFFFFFFFFFFFFFF MUL NOT AND SWAP1 DUP4 PUSH20 0xFFFFFFFFFFFFFFFFFFFFFFFFFFFFFFFFFFFFFFFF AND MUL OR SWAP1 SSTORE POP DUP10 DUP2 PUSH1 0x3 ADD PUSH1 0x0 PUSH1 0x6 DUP2 LT PUSH2 0xC5C JUMPI PUSH2 0xC5B PUSH2 0x2EB3 JUMP JUMPDEST JUMPDEST ADD DUP2 SWAP1 SSTORE POP PUSH1 0x1 DUP2 PUSH1 0x9 ADD PUSH1 0x0 PUSH2 0x100 EXP DUP2 SLOAD DUP2 PUSH1 0xFF MUL NOT AND SWAP1 DUP4 PUSH1 0x5 DUP2 GT ISZERO PUSH2 0xC89 JUMPI PUSH2 0xC88 PUSH2 0x2E55 JUMP JUMPDEST JUMPDEST MUL OR SWAP1 SSTORE POP DUP9 DUP2 PUSH1 0xA ADD DUP2 SWAP1 SSTORE POP PUSH1 0x0 DUP2 PUSH1 0xB ADD PUSH1 0x0 PUSH2 0x100 EXP DUP2 SLOAD DUP2 PUSH20 0xFFFFFFFFFFFFFFFFFFFFFFFFFFFFFFFFFFFFFFFF MUL NOT AND SWAP1 DUP4 PUSH20 0xFFFFFFFFFFFFFFFFFFFFFFFFFFFFFFFFFFFFFFFF AND MUL OR SWAP1 SSTORE POP PUSH1 0x0 DUP2 PUSH1 0xC ADD PUSH1 0x0 PUSH2 0x100 EXP DUP2 SLOAD DUP2 PUSH20 0xFFFFFFFFFFFFFFFFFFFFFFFFFFFFFFFFFFFFFFFF MUL NOT AND SWAP1 DUP4 PUSH20 0xFFFFFFFFFFFFFFFFFFFFFFFFFFFFFFFFFFFFFFFF AND MUL OR SWAP1 SSTORE POP PUSH1 0x0 DUP2 PUSH1 0xD ADD PUSH1 0x0 PUSH2 0x100 EXP DUP2 SLOAD DUP2 PUSH20 0xFFFFFFFFFFFFFFFFFFFFFFFFFFFFFFFFFFFFFFFF MUL NOT AND SWAP1 DUP4 PUSH20 0xFFFFFFFFFFFFFFFFFFFFFFFFFFFFFFFFFFFFFFFF AND MUL OR SWAP1 SSTORE POP DUP8 DUP2 PUSH1 0xE ADD PUSH1 0x0 ADD SWAP1 DUP1 MLOAD SWAP1 PUSH1 0x20 ADD SWAP1 PUSH2 0xD7E SWAP3 SWAP2 SWAP1 PUSH2 0x207F JUMP JUMPDEST POP DUP7 DUP2 PUSH1 0xE ADD PUSH1 0x1 ADD SWAP1 DUP1 MLOAD SWAP1 PUSH1 0x20 ADD SWAP1 PUSH2 0xD9A SWAP3 SWAP2 SWAP1 PUSH2 0x207F JUMP JUMPDEST POP DUP6 DUP2 PUSH1 0xE ADD PUSH1 0x2 ADD SWAP1 DUP1 MLOAD SWAP1 PUSH1 0x20 ADD SWAP1 PUSH2 0xDB6 SWAP3 SWAP2 SWAP1 PUSH2 0x207F JUMP JUMPDEST POP DUP5 DUP2 PUSH1 0xE ADD PUSH1 0x3 ADD SWAP1 DUP1 MLOAD SWAP1 PUSH1 0x20 ADD SWAP1 PUSH2 0xDD2 SWAP3 SWAP2 SWAP1 PUSH2 0x207F JUMP JUMPDEST POP DUP4 DUP2 PUSH1 0xE ADD PUSH1 0x4 ADD SWAP1 DUP1 MLOAD SWAP1 PUSH1 0x20 ADD SWAP1 PUSH2 0xDEE SWAP3 SWAP2 SWAP1 PUSH2 0x207F JUMP JUMPDEST POP DUP3 DUP2 PUSH1 0xE ADD PUSH1 0x5 ADD SWAP1 DUP1 MLOAD SWAP1 PUSH1 0x20 ADD SWAP1 PUSH2 0xE0A SWAP3 SWAP2 SWAP1 PUSH2 0x207F JUMP JUMPDEST POP DUP2 DUP2 PUSH1 0xE ADD PUSH1 0x6 ADD SWAP1 DUP1 MLOAD SWAP1 PUSH1 0x20 ADD SWAP1 PUSH2 0xE26 SWAP3 SWAP2 SWAP1 PUSH2 0x207F JUMP JUMPDEST POP POP POP POP POP POP POP POP POP POP POP POP JUMP JUMPDEST PUSH1 0x0 DUP1 PUSH1 0x0 DUP1 PUSH1 0x60 DUP1 PUSH1 0x60 DUP1 PUSH1 0x60 DUP1 PUSH1 0x60 PUSH1 0x7 PUSH1 0x0 DUP14 DUP2 MSTORE PUSH1 0x20 ADD SWAP1 DUP2 MSTORE PUSH1 0x20 ADD PUSH1 0x0 KECCAK256 PUSH1 0x0 ADD SLOAD SWAP11 POP PUSH1 0x7 PUSH1 0x0 DUP14 DUP2 MSTORE PUSH1 0x20 ADD SWAP1 DUP2 MSTORE PUSH1 0x20 ADD PUSH1 0x0 KECCAK256 PUSH1 0x1 ADD PUSH1 0x0 SWAP1 SLOAD SWAP1 PUSH2 0x100 EXP SWAP1 DIV PUSH20 0xFFFFFFFFFFFFFFFFFFFFFFFFFFFFFFFFFFFFFFFF AND SWAP10 POP PUSH1 0x7 PUSH1 0x0 DUP14 DUP2 MSTORE PUSH1 0x20 ADD SWAP1 DUP2 MSTORE PUSH1 0x20 ADD PUSH1 0x0 KECCAK256 PUSH1 0x9 ADD PUSH1 0x0 SWAP1 SLOAD SWAP1 PUSH2 0x100 EXP SWAP1 DIV PUSH1 0xFF AND SWAP9 POP PUSH1 0x7 PUSH1 0x0 DUP14 DUP2 MSTORE PUSH1 0x20 ADD SWAP1 DUP2 MSTORE PUSH1 0x20 ADD PUSH1 0x0 KECCAK256 PUSH1 0xA ADD SLOAD SWAP8 POP PUSH1 0x7 PUSH1 0x0 DUP14 DUP2 MSTORE PUSH1 0x20 ADD SWAP1 DUP2 MSTORE PUSH1 0x20 ADD PUSH1 0x0 KECCAK256 PUSH1 0xE ADD PUSH1 0x0 ADD DUP1 SLOAD PUSH2 0xEFA SWAP1 PUSH2 0x2D94 JUMP JUMPDEST DUP1 PUSH1 0x1F ADD PUSH1 0x20 DUP1 SWAP2 DIV MUL PUSH1 0x20 ADD PUSH1 0x40 MLOAD SWAP1 DUP2 ADD PUSH1 0x40 MSTORE DUP1 SWAP3 SWAP2 SWAP1 DUP2 DUP2 MSTORE PUSH1 0x20 ADD DUP3 DUP1 SLOAD PUSH2 0xF26 SWAP1 PUSH2 0x2D94 JUMP JUMPDEST DUP1 ISZERO PUSH2 0xF73 JUMPI DUP1 PUSH1 0x1F LT PUSH2 0xF48 JUMPI PUSH2 0x100 DUP1 DUP4 SLOAD DIV MUL DUP4 MSTORE SWAP2 PUSH1 0x20 ADD SWAP2 PUSH2 0xF73 JUMP JUMPDEST DUP3 ADD SWAP2 SWAP1 PUSH1 0x0 MSTORE PUSH1 0x20 PUSH1 0x0 KECCAK256 SWAP1 JUMPDEST DUP2 SLOAD DUP2 MSTORE SWAP1 PUSH1 0x1 ADD SWAP1 PUSH1 0x20 ADD DUP1 DUP4 GT PUSH2 0xF56 JUMPI DUP3 SWAP1 SUB PUSH1 0x1F AND DUP3 ADD SWAP2 JUMPDEST POP POP POP POP POP SWAP7 POP PUSH1 0x7 PUSH1 0x0 DUP14 DUP2 MSTORE PUSH1 0x20 ADD SWAP1 DUP2 MSTORE PUSH1 0x20 ADD PUSH1 0x0 KECCAK256 PUSH1 0xE ADD PUSH1 0x1 ADD DUP1 SLOAD PUSH2 0xF9E SWAP1 PUSH2 0x2D94 JUMP JUMPDEST DUP1 PUSH1 0x1F ADD PUSH1 0x20 DUP1 SWAP2 DIV MUL PUSH1 0x20 ADD PUSH1 0x40 MLOAD SWAP1 DUP2 ADD PUSH1 0x40 MSTORE DUP1 SWAP3 SWAP2 SWAP1 DUP2 DUP2 MSTORE PUSH1 0x20 ADD DUP3 DUP1 SLOAD PUSH2 0xFCA SWAP1 PUSH2 0x2D94 JUMP JUMPDEST DUP1 ISZERO PUSH2 0x1017 JUMPI DUP1 PUSH1 0x1F LT PUSH2 0xFEC JUMPI PUSH2 0x100 DUP1 DUP4 SLOAD DIV MUL DUP4 MSTORE SWAP2 PUSH1 0x20 ADD SWAP2 PUSH2 0x1017 JUMP JUMPDEST DUP3 ADD SWAP2 SWAP1 PUSH1 0x0 MSTORE PUSH1 0x20 PUSH1 0x0 KECCAK256 SWAP1 JUMPDEST DUP2 SLOAD DUP2 MSTORE SWAP1 PUSH1 0x1 ADD SWAP1 PUSH1 0x20 ADD DUP1 DUP4 GT PUSH2 0xFFA JUMPI DUP3 SWAP1 SUB PUSH1 0x1F AND DUP3 ADD SWAP2 JUMPDEST POP POP POP POP POP SWAP6 POP PUSH1 0x7 PUSH1 0x0 DUP14 DUP2 MSTORE PUSH1 0x20 ADD SWAP1 DUP2 MSTORE PUSH1 0x20 ADD PUSH1 0x0 KECCAK256 PUSH1 0xE ADD PUSH1 0x2 ADD DUP1 SLOAD PUSH2 0x1042 SWAP1 PUSH2 0x2D94 JUMP JUMPDEST DUP1 PUSH1 0x1F ADD PUSH1 0x20 DUP1 SWAP2 DIV MUL PUSH1 0x20 ADD PUSH1 0x40 MLOAD SWAP1 DUP2 ADD PUSH1 0x40 MSTORE DUP1 SWAP3 SWAP2 SWAP1 DUP2 DUP2 MSTORE PUSH1 0x20 ADD DUP3 DUP1 SLOAD PUSH2 0x106E SWAP1 PUSH2 0x2D94 JUMP JUMPDEST DUP1 ISZERO PUSH2 0x10BB JUMPI DUP1 PUSH1 0x1F LT PUSH2 0x1090 JUMPI PUSH2 0x100 DUP1 DUP4 SLOAD DIV MUL DUP4 MSTORE SWAP2 PUSH1 0x20 ADD SWAP2 PUSH2 0x10BB JUMP JUMPDEST DUP3 ADD SWAP2 SWAP1 PUSH1 0x0 MSTORE PUSH1 0x20 PUSH1 0x0 KECCAK256 SWAP1 JUMPDEST DUP2 SLOAD DUP2 MSTORE SWAP1 PUSH1 0x1 ADD SWAP1 PUSH1 0x20 ADD DUP1 DUP4 GT PUSH2 0x109E JUMPI DUP3 SWAP1 SUB PUSH1 0x1F AND DUP3 ADD SWAP2 JUMPDEST POP POP POP POP POP SWAP5 POP PUSH1 0x7 PUSH1 0x0 DUP14 DUP2 MSTORE PUSH1 0x20 ADD SWAP1 DUP2 MSTORE PUSH1 0x20 ADD PUSH1 0x0 KECCAK256 PUSH1 0xE ADD PUSH1 0x3 ADD DUP1 SLOAD PUSH2 0x10E6 SWAP1 PUSH2 0x2D94 JUMP JUMPDEST DUP1 PUSH1 0x1F ADD PUSH1 0x20 DUP1 SWAP2 DIV MUL PUSH1 0x20 ADD PUSH1 0x40 MLOAD SWAP1 DUP2 ADD PUSH1 0x40 MSTORE DUP1 SWAP3 SWAP2 SWAP1 DUP2 DUP2 MSTORE PUSH1 0x20 ADD DUP3 DUP1 SLOAD PUSH2 0x1112 SWAP1 PUSH2 0x2D94 JUMP JUMPDEST DUP1 ISZERO PUSH2 0x115F JUMPI DUP1 PUSH1 0x1F LT PUSH2 0x1134 JUMPI PUSH2 0x100 DUP1 DUP4 SLOAD DIV MUL DUP4 MSTORE SWAP2 PUSH1 0x20 ADD SWAP2 PUSH2 0x115F JUMP JUMPDEST DUP3 ADD SWAP2 SWAP1 PUSH1 0x0 MSTORE PUSH1 0x20 PUSH1 0x0 KECCAK256 SWAP1 JUMPDEST DUP2 SLOAD DUP2 MSTORE SWAP1 PUSH1 0x1 ADD SWAP1 PUSH1 0x20 ADD DUP1 DUP4 GT PUSH2 0x1142 JUMPI DUP3 SWAP1 SUB PUSH1 0x1F AND DUP3 ADD SWAP2 JUMPDEST POP POP POP POP POP SWAP4 POP PUSH1 0x7 PUSH1 0x0 DUP14 DUP2 MSTORE PUSH1 0x20 ADD SWAP1 DUP2 MSTORE PUSH1 0x20 ADD PUSH1 0x0 KECCAK256 PUSH1 0xE ADD PUSH1 0x4 ADD DUP1 SLOAD PUSH2 0x118A SWAP1 PUSH2 0x2D94 JUMP JUMPDEST DUP1 PUSH1 0x1F ADD PUSH1 0x20 DUP1 SWAP2 DIV MUL PUSH1 0x20 ADD PUSH1 0x40 MLOAD SWAP1 DUP2 ADD PUSH1 0x40 MSTORE DUP1 SWAP3 SWAP2 SWAP1 DUP2 DUP2 MSTORE PUSH1 0x20 ADD DUP3 DUP1 SLOAD PUSH2 0x11B6 SWAP1 PUSH2 0x2D94 JUMP JUMPDEST DUP1 ISZERO PUSH2 0x1203 JUMPI DUP1 PUSH1 0x1F LT PUSH2 0x11D8 JUMPI PUSH2 0x100 DUP1 DUP4 SLOAD DIV MUL DUP4 MSTORE SWAP2 PUSH1 0x20 ADD SWAP2 PUSH2 0x1203 JUMP JUMPDEST DUP3 ADD SWAP2 SWAP1 PUSH1 0x0 MSTORE PUSH1 0x20 PUSH1 0x0 KECCAK256 SWAP1 JUMPDEST DUP2 SLOAD DUP2 MSTORE SWAP1 PUSH1 0x1 ADD SWAP1 PUSH1 0x20 ADD DUP1 DUP4 GT PUSH2 0x11E6 JUMPI DUP3 SWAP1 SUB PUSH1 0x1F AND DUP3 ADD SWAP2 JUMPDEST POP POP POP POP POP SWAP3 POP PUSH1 0x7 PUSH1 0x0 DUP14 DUP2 MSTORE PUSH1 0x20 ADD SWAP1 DUP2 MSTORE PUSH1 0x20 ADD PUSH1 0x0 KECCAK256 PUSH1 0xE ADD PUSH1 0x5 ADD DUP1 SLOAD PUSH2 0x122E SWAP1 PUSH2 0x2D94 JUMP JUMPDEST DUP1 PUSH1 0x1F ADD PUSH1 0x20 DUP1 SWAP2 DIV MUL PUSH1 0x20 ADD PUSH1 0x40 MLOAD SWAP1 DUP2 ADD PUSH1 0x40 MSTORE DUP1 SWAP3 SWAP2 SWAP1 DUP2 DUP2 MSTORE PUSH1 0x20 ADD DUP3 DUP1 SLOAD PUSH2 0x125A SWAP1 PUSH2 0x2D94 JUMP JUMPDEST DUP1 ISZERO PUSH2 0x12A7 JUMPI DUP1 PUSH1 0x1F LT PUSH2 0x127C JUMPI PUSH2 0x100 DUP1 DUP4 SLOAD DIV MUL DUP4 MSTORE SWAP2 PUSH1 0x20 ADD SWAP2 PUSH2 0x12A7 JUMP JUMPDEST DUP3 ADD SWAP2 SWAP1 PUSH1 0x0 MSTORE PUSH1 0x20 PUSH1 0x0 KECCAK256 SWAP1 JUMPDEST DUP2 SLOAD DUP2 MSTORE SWAP1 PUSH1 0x1 ADD SWAP1 PUSH1 0x20 ADD DUP1 DUP4 GT PUSH2 0x128A JUMPI DUP3 SWAP1 SUB PUSH1 0x1F AND DUP3 ADD SWAP2 JUMPDEST POP POP POP POP POP SWAP2 POP PUSH1 0x7 PUSH1 0x0 DUP14 DUP2 MSTORE PUSH1 0x20 ADD SWAP1 DUP2 MSTORE PUSH1 0x20 ADD PUSH1 0x0 KECCAK256 PUSH1 0xE ADD PUSH1 0x6 ADD DUP1 SLOAD PUSH2 0x12D2 SWAP1 PUSH2 0x2D94 JUMP JUMPDEST DUP1 PUSH1 0x1F ADD PUSH1 0x20 DUP1 SWAP2 DIV MUL PUSH1 0x20 ADD PUSH1 0x40 MLOAD SWAP1 DUP2 ADD PUSH1 0x40 MSTORE DUP1 SWAP3 SWAP2 SWAP1 DUP2 DUP2 MSTORE PUSH1 0x20 ADD DUP3 DUP1 SLOAD PUSH2 0x12FE SWAP1 PUSH2 0x2D94 JUMP JUMPDEST DUP1 ISZERO PUSH2 0x134B JUMPI DUP1 PUSH1 0x1F LT PUSH2 0x1320 JUMPI PUSH2 0x100 DUP1 DUP4 SLOAD DIV MUL DUP4 MSTORE SWAP2 PUSH1 0x20 ADD SWAP2 PUSH2 0x134B JUMP JUMPDEST DUP3 ADD SWAP2 SWAP1 PUSH1 0x0 MSTORE PUSH1 0x20 PUSH1 0x0 KECCAK256 SWAP1 JUMPDEST DUP2 SLOAD DUP2 MSTORE SWAP1 PUSH1 0x1 ADD SWAP1 PUSH1 0x20 ADD DUP1 DUP4 GT PUSH2 0x132E JUMPI DUP3 SWAP1 SUB PUSH1 0x1F AND DUP3 ADD SWAP2 JUMPDEST POP POP POP POP POP SWAP1 POP SWAP2 SWAP4 SWAP6 SWAP8 SWAP10 SWAP12 SWAP1 SWAP3 SWAP5 SWAP7 SWAP9 SWAP11 POP JUMP JUMPDEST PUSH1 0x0 DUP2 PUSH1 0x5 PUSH1 0x0 CALLER PUSH20 0xFFFFFFFFFFFFFFFFFFFFFFFFFFFFFFFFFFFFFFFF AND PUSH20 0xFFFFFFFFFFFFFFFFFFFFFFFFFFFFFFFFFFFFFFFF AND DUP2 MSTORE PUSH1 0x20 ADD SWAP1 DUP2 MSTORE PUSH1 0x20 ADD PUSH1 0x0 KECCAK256 SLOAD LT ISZERO PUSH2 0x13AF JUMPI PUSH1 0x0 DUP1 REVERT JUMPDEST PUSH1 0x0 PUSH20 0xFFFFFFFFFFFFFFFFFFFFFFFFFFFFFFFFFFFFFFFF AND DUP4 PUSH20 0xFFFFFFFFFFFFFFFFFFFFFFFFFFFFFFFFFFFFFFFF AND EQ ISZERO PUSH2 0x13E9 JUMPI PUSH1 0x0 DUP1 REVERT JUMPDEST DUP2 PUSH1 0x5 PUSH1 0x0 CALLER PUSH20 0xFFFFFFFFFFFFFFFFFFFFFFFFFFFFFFFFFFFFFFFF AND PUSH20 0xFFFFFFFFFFFFFFFFFFFFFFFFFFFFFFFFFFFFFFFF AND DUP2 MSTORE PUSH1 0x20 ADD SWAP1 DUP2 MSTORE PUSH1 0x20 ADD PUSH1 0x0 KECCAK256 PUSH1 0x0 DUP3 DUP3 SLOAD PUSH2 0x1438 SWAP2 SWAP1 PUSH2 0x2C70 JUMP JUMPDEST SWAP3 POP POP DUP2 SWAP1 SSTORE POP DUP2 PUSH1 0x5 PUSH1 0x0 DUP6 PUSH20 0xFFFFFFFFFFFFFFFFFFFFFFFFFFFFFFFFFFFFFFFF AND PUSH20 0xFFFFFFFFFFFFFFFFFFFFFFFFFFFFFFFFFFFFFFFF AND DUP2 MSTORE PUSH1 0x20 ADD SWAP1 DUP2 MSTORE PUSH1 0x20 ADD PUSH1 0x0 KECCAK256 PUSH1 0x0 DUP3 DUP3 SLOAD PUSH2 0x148E SWAP2 SWAP1 PUSH2 0x2BE9 JUMP JUMPDEST SWAP3 POP POP DUP2 SWAP1 SSTORE POP PUSH1 0x1 SWAP1 POP SWAP3 SWAP2 POP POP JUMP JUMPDEST PUSH1 0x0 DUP1 PUSH1 0x0 DUP1 PUSH1 0x0 DUP1 PUSH1 0x0 DUP1 PUSH2 0x14B3 PUSH2 0x2105 JUMP JUMPDEST PUSH1 0x7 PUSH1 0x0 DUP12 DUP2 MSTORE PUSH1 0x20 ADD SWAP1 DUP2 MSTORE PUSH1 0x20 ADD PUSH1 0x0 KECCAK256 PUSH1 0x0 ADD SLOAD SWAP9 POP PUSH1 0x7 PUSH1 0x0 DUP12 DUP2 MSTORE PUSH1 0x20 ADD SWAP1 DUP2 MSTORE PUSH1 0x20 ADD PUSH1 0x0 KECCAK256 PUSH1 0x2 ADD PUSH1 0x0 SWAP1 SLOAD SWAP1 PUSH2 0x100 EXP SWAP1 DIV PUSH20 0xFFFFFFFFFFFFFFFFFFFFFFFFFFFFFFFFFFFFFFFF AND SWAP8 POP PUSH1 0x7 PUSH1 0x0 DUP12 DUP2 MSTORE PUSH1 0x20 ADD SWAP1 DUP2 MSTORE PUSH1 0x20 ADD PUSH1 0x0 KECCAK256 PUSH1 0x1 ADD PUSH1 0x0 SWAP1 SLOAD SWAP1 PUSH2 0x100 EXP SWAP1 DIV PUSH20 0xFFFFFFFFFFFFFFFFFFFFFFFFFFFFFFFFFFFFFFFF AND SWAP7 POP PUSH1 0x7 PUSH1 0x0 DUP12 DUP2 MSTORE PUSH1 0x20 ADD SWAP1 DUP2 MSTORE PUSH1 0x20 ADD PUSH1 0x0 KECCAK256 PUSH1 0xB ADD PUSH1 0x0 SWAP1 SLOAD SWAP1 PUSH2 0x100 EXP SWAP1 DIV PUSH20 0xFFFFFFFFFFFFFFFFFFFFFFFFFFFFFFFFFFFFFFFF AND SWAP4 POP PUSH1 0x7 PUSH1 0x0 DUP12 DUP2 MSTORE PUSH1 0x20 ADD SWAP1 DUP2 MSTORE PUSH1 0x20 ADD PUSH1 0x0 KECCAK256 PUSH1 0xC ADD PUSH1 0x0 SWAP1 SLOAD SWAP1 PUSH2 0x100 EXP SWAP1 DIV PUSH20 0xFFFFFFFFFFFFFFFFFFFFFFFFFFFFFFFFFFFFFFFF AND SWAP3 POP PUSH1 0x7 PUSH1 0x0 DUP12 DUP2 MSTORE PUSH1 0x20 ADD SWAP1 DUP2 MSTORE PUSH1 0x20 ADD PUSH1 0x0 KECCAK256 PUSH1 0xD ADD PUSH1 0x0 SWAP1 SLOAD SWAP1 PUSH2 0x100 EXP SWAP1 DIV PUSH20 0xFFFFFFFFFFFFFFFFFFFFFFFFFFFFFFFFFFFFFFFF AND SWAP2 POP PUSH1 0x7 PUSH1 0x0 DUP12 DUP2 MSTORE PUSH1 0x20 ADD SWAP1 DUP2 MSTORE PUSH1 0x20 ADD PUSH1 0x0 KECCAK256 PUSH1 0x9 ADD PUSH1 0x0 SWAP1 SLOAD SWAP1 PUSH2 0x100 EXP SWAP1 DIV PUSH1 0xFF AND SWAP6 POP PUSH1 0x7 PUSH1 0x0 DUP12 DUP2 MSTORE PUSH1 0x20 ADD SWAP1 DUP2 MSTORE PUSH1 0x20 ADD PUSH1 0x0 KECCAK256 PUSH1 0xA ADD SLOAD SWAP5 POP PUSH1 0x7 PUSH1 0x0 DUP12 DUP2 MSTORE PUSH1 0x20 ADD SWAP1 DUP2 MSTORE PUSH1 0x20 ADD PUSH1 0x0 KECCAK256 PUSH1 0xE ADD PUSH1 0x40 MLOAD DUP1 PUSH1 0xE0 ADD PUSH1 0x40 MSTORE SWAP1 DUP2 PUSH1 0x0 DUP3 ADD DUP1 SLOAD PUSH2 0x1659 SWAP1 PUSH2 0x2D94 JUMP JUMPDEST DUP1 PUSH1 0x1F ADD PUSH1 0x20 DUP1 SWAP2 DIV MUL PUSH1 0x20 ADD PUSH1 0x40 MLOAD SWAP1 DUP2 ADD PUSH1 0x40 MSTORE DUP1 SWAP3 SWAP2 SWAP1 DUP2 DUP2 MSTORE PUSH1 0x20 ADD DUP3 DUP1 SLOAD PUSH2 0x1685 SWAP1 PUSH2 0x2D94 JUMP JUMPDEST DUP1 ISZERO PUSH2 0x16D2 JUMPI DUP1 PUSH1 0x1F LT PUSH2 0x16A7 JUMPI PUSH2 0x100 DUP1 DUP4 SLOAD DIV MUL DUP4 MSTORE SWAP2 PUSH1 0x20 ADD SWAP2 PUSH2 0x16D2 JUMP JUMPDEST DUP3 ADD SWAP2 SWAP1 PUSH1 0x0 MSTORE PUSH1 0x20 PUSH1 0x0 KECCAK256 SWAP1 JUMPDEST DUP2 SLOAD DUP2 MSTORE SWAP1 PUSH1 0x1 ADD SWAP1 PUSH1 0x20 ADD DUP1 DUP4 GT PUSH2 0x16B5 JUMPI DUP3 SWAP1 SUB PUSH1 0x1F AND DUP3 ADD SWAP2 JUMPDEST POP POP POP POP POP DUP2 MSTORE PUSH1 0x20 ADD PUSH1 0x1 DUP3 ADD DUP1 SLOAD PUSH2 0x16EB SWAP1 PUSH2 0x2D94 JUMP JUMPDEST DUP1 PUSH1 0x1F ADD PUSH1 0x20 DUP1 SWAP2 DIV MUL PUSH1 0x20 ADD PUSH1 0x40 MLOAD SWAP1 DUP2 ADD PUSH1 0x40 MSTORE DUP1 SWAP3 SWAP2 SWAP1 DUP2 DUP2 MSTORE PUSH1 0x20 ADD DUP3 DUP1 SLOAD PUSH2 0x1717 SWAP1 PUSH2 0x2D94 JUMP JUMPDEST DUP1 ISZERO PUSH2 0x1764 JUMPI DUP1 PUSH1 0x1F LT PUSH2 0x1739 JUMPI PUSH2 0x100 DUP1 DUP4 SLOAD DIV MUL DUP4 MSTORE SWAP2 PUSH1 0x20 ADD SWAP2 PUSH2 0x1764 JUMP JUMPDEST DUP3 ADD SWAP2 SWAP1 PUSH1 0x0 MSTORE PUSH1 0x20 PUSH1 0x0 KECCAK256 SWAP1 JUMPDEST DUP2 SLOAD DUP2 MSTORE SWAP1 PUSH1 0x1 ADD SWAP1 PUSH1 0x20 ADD DUP1 DUP4 GT PUSH2 0x1747 JUMPI DUP3 SWAP1 SUB PUSH1 0x1F AND DUP3 ADD SWAP2 JUMPDEST POP POP POP POP POP DUP2 MSTORE PUSH1 0x20 ADD PUSH1 0x2 DUP3 ADD DUP1 SLOAD PUSH2 0x177D SWAP1 PUSH2 0x2D94 JUMP JUMPDEST DUP1 PUSH1 0x1F ADD PUSH1 0x20 DUP1 SWAP2 DIV MUL PUSH1 0x20 ADD PUSH1 0x40 MLOAD SWAP1 DUP2 ADD PUSH1 0x40 MSTORE DUP1 SWAP3 SWAP2 SWAP1 DUP2 DUP2 MSTORE PUSH1 0x20 ADD DUP3 DUP1 SLOAD PUSH2 0x17A9 SWAP1 PUSH2 0x2D94 JUMP JUMPDEST DUP1 ISZERO PUSH2 0x17F6 JUMPI DUP1 PUSH1 0x1F LT PUSH2 0x17CB JUMPI PUSH2 0x100 DUP1 DUP4 SLOAD DIV MUL DUP4 MSTORE SWAP2 PUSH1 0x20 ADD SWAP2 PUSH2 0x17F6 JUMP JUMPDEST DUP3 ADD SWAP2 SWAP1 PUSH1 0x0 MSTORE PUSH1 0x20 PUSH1 0x0 KECCAK256 SWAP1 JUMPDEST DUP2 SLOAD DUP2 MSTORE SWAP1 PUSH1 0x1 ADD SWAP1 PUSH1 0x20 ADD DUP1 DUP4 GT PUSH2 0x17D9 JUMPI DUP3 SWAP1 SUB PUSH1 0x1F AND DUP3 ADD SWAP2 JUMPDEST POP POP POP POP POP DUP2 MSTORE PUSH1 0x20 ADD PUSH1 0x3 DUP3 ADD DUP1 SLOAD PUSH2 0x180F SWAP1 PUSH2 0x2D94 JUMP JUMPDEST DUP1 PUSH1 0x1F ADD PUSH1 0x20 DUP1 SWAP2 DIV MUL PUSH1 0x20 ADD PUSH1 0x40 MLOAD SWAP1 DUP2 ADD PUSH1 0x40 MSTORE DUP1 SWAP3 SWAP2 SWAP1 DUP2 DUP2 MSTORE PUSH1 0x20 ADD DUP3 DUP1 SLOAD PUSH2 0x183B SWAP1 PUSH2 0x2D94 JUMP JUMPDEST DUP1 ISZERO PUSH2 0x1888 JUMPI DUP1 PUSH1 0x1F LT PUSH2 0x185D JUMPI PUSH2 0x100 DUP1 DUP4 SLOAD DIV MUL DUP4 MSTORE SWAP2 PUSH1 0x20 ADD SWAP2 PUSH2 0x1888 JUMP JUMPDEST DUP3 ADD SWAP2 SWAP1 PUSH1 0x0 MSTORE PUSH1 0x20 PUSH1 0x0 KECCAK256 SWAP1 JUMPDEST DUP2 SLOAD DUP2 MSTORE SWAP1 PUSH1 0x1 ADD SWAP1 PUSH1 0x20 ADD DUP1 DUP4 GT PUSH2 0x186B JUMPI DUP3 SWAP1 SUB PUSH1 0x1F AND DUP3 ADD SWAP2 JUMPDEST POP POP POP POP POP DUP2 MSTORE PUSH1 0x20 ADD PUSH1 0x4 DUP3 ADD DUP1 SLOAD PUSH2 0x18A1 SWAP1 PUSH2 0x2D94 JUMP JUMPDEST DUP1 PUSH1 0x1F ADD PUSH1 0x20 DUP1 SWAP2 DIV MUL PUSH1 0x20 ADD PUSH1 0x40 MLOAD SWAP1 DUP2 ADD PUSH1 0x40 MSTORE DUP1 SWAP3 SWAP2 SWAP1 DUP2 DUP2 MSTORE PUSH1 0x20 ADD DUP3 DUP1 SLOAD PUSH2 0x18CD SWAP1 PUSH2 0x2D94 JUMP JUMPDEST DUP1 ISZERO PUSH2 0x191A JUMPI DUP1 PUSH1 0x1F LT PUSH2 0x18EF JUMPI PUSH2 0x100 DUP1 DUP4 SLOAD DIV MUL DUP4 MSTORE SWAP2 PUSH1 0x20 ADD SWAP2 PUSH2 0x191A JUMP JUMPDEST DUP3 ADD SWAP2 SWAP1 PUSH1 0x0 MSTORE PUSH1 0x20 PUSH1 0x0 KECCAK256 SWAP1 JUMPDEST DUP2 SLOAD DUP2 MSTORE SWAP1 PUSH1 0x1 ADD SWAP1 PUSH1 0x20 ADD DUP1 DUP4 GT PUSH2 0x18FD JUMPI DUP3 SWAP1 SUB PUSH1 0x1F AND DUP3 ADD SWAP2 JUMPDEST POP POP POP POP POP DUP2 MSTORE PUSH1 0x20 ADD PUSH1 0x5 DUP3 ADD DUP1 SLOAD PUSH2 0x1933 SWAP1 PUSH2 0x2D94 JUMP JUMPDEST DUP1 PUSH1 0x1F ADD PUSH1 0x20 DUP1 SWAP2 DIV MUL PUSH1 0x20 ADD PUSH1 0x40 MLOAD SWAP1 DUP2 ADD PUSH1 0x40 MSTORE DUP1 SWAP3 SWAP2 SWAP1 DUP2 DUP2 MSTORE PUSH1 0x20 ADD DUP3 DUP1 SLOAD PUSH2 0x195F SWAP1 PUSH2 0x2D94 JUMP JUMPDEST DUP1 ISZERO PUSH2 0x19AC JUMPI DUP1 PUSH1 0x1F LT PUSH2 0x1981 JUMPI PUSH2 0x100 DUP1 DUP4 SLOAD DIV MUL DUP4 MSTORE SWAP2 PUSH1 0x20 ADD SWAP2 PUSH2 0x19AC JUMP JUMPDEST DUP3 ADD SWAP2 SWAP1 PUSH1 0x0 MSTORE PUSH1 0x20 PUSH1 0x0 KECCAK256 SWAP1 JUMPDEST DUP2 SLOAD DUP2 MSTORE SWAP1 PUSH1 0x1 ADD SWAP1 PUSH1 0x20 ADD DUP1 DUP4 GT PUSH2 0x198F JUMPI DUP3 SWAP1 SUB PUSH1 0x1F AND DUP3 ADD SWAP2 JUMPDEST POP POP POP POP POP DUP2 MSTORE PUSH1 0x20 ADD PUSH1 0x6 DUP3 ADD DUP1 SLOAD PUSH2 0x19C5 SWAP1 PUSH2 0x2D94 JUMP JUMPDEST DUP1 PUSH1 0x1F ADD PUSH1 0x20 DUP1 SWAP2 DIV MUL PUSH1 0x20 ADD PUSH1 0x40 MLOAD SWAP1 DUP2 ADD PUSH1 0x40 MSTORE DUP1 SWAP3 SWAP2 SWAP1 DUP2 DUP2 MSTORE PUSH1 0x20 ADD DUP3 DUP1 SLOAD PUSH2 0x19F1 SWAP1 PUSH2 0x2D94 JUMP JUMPDEST DUP1 ISZERO PUSH2 0x1A3E JUMPI DUP1 PUSH1 0x1F LT PUSH2 0x1A13 JUMPI PUSH2 0x100 DUP1 DUP4 SLOAD DIV MUL DUP4 MSTORE SWAP2 PUSH1 0x20 ADD SWAP2 PUSH2 0x1A3E JUMP JUMPDEST DUP3 ADD SWAP2 SWAP1 PUSH1 0x0 MSTORE PUSH1 0x20 PUSH1 0x0 KECCAK256 SWAP1 JUMPDEST DUP2 SLOAD DUP2 MSTORE SWAP1 PUSH1 0x1 ADD SWAP1 PUSH1 0x20 ADD DUP1 DUP4 GT PUSH2 0x1A21 JUMPI DUP3 SWAP1 SUB PUSH1 0x1F AND DUP3 ADD SWAP2 JUMPDEST POP POP POP POP POP DUP2 MSTORE POP POP SWAP1 POP SWAP2 SWAP4 SWAP6 SWAP8 SWAP10 SWAP1 SWAP3 SWAP5 SWAP7 SWAP9 POP JUMP JUMPDEST PUSH1 0x1 DUP1 SLOAD PUSH2 0x1A63 SWAP1 PUSH2 0x2D94 JUMP JUMPDEST DUP1 PUSH1 0x1F ADD PUSH1 0x20 DUP1 SWAP2 DIV MUL PUSH1 0x20 ADD PUSH1 0x40 MLOAD SWAP1 DUP2 ADD PUSH1 0x40 MSTORE DUP1 SWAP3 SWAP2 SWAP1 DUP2 DUP2 MSTORE PUSH1 0x20 ADD DUP3 DUP1 SLOAD PUSH2 0x1A8F SWAP1 PUSH2 0x2D94 JUMP JUMPDEST DUP1 ISZERO PUSH2 0x1ADC JUMPI DUP1 PUSH1 0x1F LT PUSH2 0x1AB1 JUMPI PUSH2 0x100 DUP1 DUP4 SLOAD DIV MUL DUP4 MSTORE SWAP2 PUSH1 0x20 ADD SWAP2 PUSH2 0x1ADC JUMP JUMPDEST DUP3 ADD SWAP2 SWAP1 PUSH1 0x0 MSTORE PUSH1 0x20 PUSH1 0x0 KECCAK256 SWAP1 JUMPDEST DUP2 SLOAD DUP2 MSTORE SWAP1 PUSH1 0x1 ADD SWAP1 PUSH1 0x20 ADD DUP1 DUP4 GT PUSH2 0x1ABF JUMPI DUP3 SWAP1 SUB PUSH1 0x1F AND DUP3 ADD SWAP2 JUMPDEST POP POP POP POP POP DUP2 JUMP JUMPDEST PUSH1 0x2 PUSH1 0x0 SWAP1 SLOAD SWAP1 PUSH2 0x100 EXP SWAP1 DIV PUSH20 0xFFFFFFFFFFFFFFFFFFFFFFFFFFFFFFFFFFFFFFFF AND PUSH20 0xFFFFFFFFFFFFFFFFFFFFFFFFFFFFFFFFFFFFFFFF AND CALLER PUSH20 0xFFFFFFFFFFFFFFFFFFFFFFFFFFFFFFFFFFFFFFFF AND EQ PUSH2 0x1B74 JUMPI PUSH1 0x40 MLOAD PUSH32 0x8C379A000000000000000000000000000000000000000000000000000000000 DUP2 MSTORE PUSH1 0x4 ADD PUSH2 0x1B6B SWAP1 PUSH2 0x29BB JUMP JUMPDEST PUSH1 0x40 MLOAD DUP1 SWAP2 SUB SWAP1 REVERT JUMPDEST PUSH1 0x0 PUSH20 0xFFFFFFFFFFFFFFFFFFFFFFFFFFFFFFFFFFFFFFFF AND DUP3 PUSH20 0xFFFFFFFFFFFFFFFFFFFFFFFFFFFFFFFFFFFFFFFF AND EQ ISZERO PUSH2 0x1BAE JUMPI PUSH1 0x0 DUP1 REVERT JUMPDEST PUSH1 0x5 PUSH1 0x0 DUP4 PUSH20 0xFFFFFFFFFFFFFFFFFFFFFFFFFFFFFFFFFFFFFFFF AND PUSH20 0xFFFFFFFFFFFFFFFFFFFFFFFFFFFFFFFFFFFFFFFF AND DUP2 MSTORE PUSH1 0x20 ADD SWAP1 DUP2 MSTORE PUSH1 0x20 ADD PUSH1 0x0 KECCAK256 SLOAD DUP2 GT ISZERO PUSH2 0x1BFA JUMPI PUSH1 0x0 DUP1 REVERT JUMPDEST DUP1 PUSH1 0x4 PUSH1 0x0 DUP3 DUP3 SLOAD PUSH2 0x1C0C SWAP2 SWAP1 PUSH2 0x2C70 JUMP JUMPDEST SWAP3 POP POP DUP2 SWAP1 SSTORE POP DUP1 PUSH1 0x5 PUSH1 0x0 DUP5 PUSH20 0xFFFFFFFFFFFFFFFFFFFFFFFFFFFFFFFFFFFFFFFF AND PUSH20 0xFFFFFFFFFFFFFFFFFFFFFFFFFFFFFFFFFFFFFFFF AND DUP2 MSTORE PUSH1 0x20 ADD SWAP1 DUP2 MSTORE PUSH1 0x20 ADD PUSH1 0x0 KECCAK256 PUSH1 0x0 DUP3 DUP3 SLOAD PUSH2 0x1C62 SWAP2 SWAP1 PUSH2 0x2C70 JUMP JUMPDEST SWAP3 POP POP DUP2 SWAP1 SSTORE POP POP POP JUMP JUMPDEST PUSH1 0x2 PUSH1 0x0 SWAP1 SLOAD SWAP1 PUSH2 0x100 EXP SWAP1 DIV PUSH20 0xFFFFFFFFFFFFFFFFFFFFFFFFFFFFFFFFFFFFFFFF AND PUSH20 0xFFFFFFFFFFFFFFFFFFFFFFFFFFFFFFFFFFFFFFFF AND CALLER PUSH20 0xFFFFFFFFFFFFFFFFFFFFFFFFFFFFFFFFFFFFFFFF AND EQ PUSH2 0x1CFD JUMPI PUSH1 0x40 MLOAD PUSH32 0x8C379A000000000000000000000000000000000000000000000000000000000 DUP2 MSTORE PUSH1 0x4 ADD PUSH2 0x1CF4 SWAP1 PUSH2 0x29BB JUMP JUMPDEST PUSH1 0x40 MLOAD DUP1 SWAP2 SUB SWAP1 REVERT JUMPDEST DUP1 PUSH1 0x4 PUSH1 0x0 DUP3 DUP3 SLOAD PUSH2 0x1D0F SWAP2 SWAP1 PUSH2 0x2BE9 JUMP JUMPDEST SWAP3 POP POP DUP2 SWAP1 SSTORE POP DUP1 PUSH1 0x5 PUSH1 0x0 CALLER PUSH20 0xFFFFFFFFFFFFFFFFFFFFFFFFFFFFFFFFFFFFFFFF AND PUSH20 0xFFFFFFFFFFFFFFFFFFFFFFFFFFFFFFFFFFFFFFFF AND DUP2 MSTORE PUSH1 0x20 ADD SWAP1 DUP2 MSTORE PUSH1 0x20 ADD PUSH1 0x0 KECCAK256 PUSH1 0x0 DUP3 DUP3 SLOAD PUSH2 0x1D65 SWAP2 SWAP1 PUSH2 0x2BE9 JUMP JUMPDEST SWAP3 POP POP DUP2 SWAP1 SSTORE POP POP JUMP JUMPDEST PUSH1 0x2 PUSH1 0x0 SWAP1 SLOAD SWAP1 PUSH2 0x100 EXP SWAP1 DIV PUSH20 0xFFFFFFFFFFFFFFFFFFFFFFFFFFFFFFFFFFFFFFFF AND DUP2 JUMP JUMPDEST PUSH1 0x0 PUSH1 0x64 CALLVALUE PUSH2 0x1DA4 SWAP2 SWAP1 PUSH2 0x2C3F JUMP JUMPDEST SWAP1 POP PUSH1 0x0 CALLVALUE GT PUSH2 0x1DB3 JUMPI PUSH1 0x0 DUP1 REVERT JUMPDEST PUSH1 0x2 PUSH1 0x0 SWAP1 SLOAD SWAP1 PUSH2 0x100 EXP SWAP1 DIV PUSH20 0xFFFFFFFFFFFFFFFFFFFFFFFFFFFFFFFFFFFFFFFF AND PUSH20 0xFFFFFFFFFFFFFFFFFFFFFFFFFFFFFFFFFFFFFFFF AND PUSH2 0x8FC CALLVALUE SWAP1 DUP2 ISZERO MUL SWAP1 PUSH1 0x40 MLOAD PUSH1 0x0 PUSH1 0x40 MLOAD DUP1 DUP4 SUB DUP2 DUP6 DUP9 DUP9 CALL SWAP4 POP POP POP POP ISZERO DUP1 ISZERO PUSH2 0x1E1B JUMPI RETURNDATASIZE PUSH1 0x0 DUP1 RETURNDATACOPY RETURNDATASIZE PUSH1 0x0 REVERT JUMPDEST POP DUP1 PUSH1 0x5 PUSH1 0x0 PUSH1 0x2 PUSH1 0x0 SWAP1 SLOAD SWAP1 PUSH2 0x100 EXP SWAP1 DIV PUSH20 0xFFFFFFFFFFFFFFFFFFFFFFFFFFFFFFFFFFFFFFFF AND PUSH20 0xFFFFFFFFFFFFFFFFFFFFFFFFFFFFFFFFFFFFFFFF AND PUSH20 0xFFFFFFFFFFFFFFFFFFFFFFFFFFFFFFFFFFFFFFFF AND DUP2 MSTORE PUSH1 0x20 ADD SWAP1 DUP2 MSTORE PUSH1 0x20 ADD PUSH1 0x0 KECCAK256 PUSH1 0x0 DUP3 DUP3 SLOAD PUSH2 0x1E8D SWAP2 SWAP1 PUSH2 0x2C70 JUMP JUMPDEST SWAP3 POP POP DUP2 SWAP1 SSTORE POP DUP1 PUSH1 0x5 PUSH1 0x0 CALLER PUSH20 0xFFFFFFFFFFFFFFFFFFFFFFFFFFFFFFFFFFFFFFFF AND PUSH20 0xFFFFFFFFFFFFFFFFFFFFFFFFFFFFFFFFFFFFFFFF AND DUP2 MSTORE PUSH1 0x20 ADD SWAP1 DUP2 MSTORE PUSH1 0x20 ADD PUSH1 0x0 KECCAK256 PUSH1 0x0 DUP3 DUP3 SLOAD PUSH2 0x1EE3 SWAP2 SWAP1 PUSH2 0x2BE9 JUMP JUMPDEST SWAP3 POP POP DUP2 SWAP1 SSTORE POP POP JUMP JUMPDEST PUSH1 0x0 PUSH1 0x60 PUSH1 0x6 PUSH1 0x0 DUP5 PUSH20 0xFFFFFFFFFFFFFFFFFFFFFFFFFFFFFFFFFFFFFFFF AND PUSH20 0xFFFFFFFFFFFFFFFFFFFFFFFFFFFFFFFFFFFFFFFF AND DUP2 MSTORE PUSH1 0x20 ADD SWAP1 DUP2 MSTORE PUSH1 0x20 ADD PUSH1 0x0 KECCAK256 PUSH1 0x0 ADD PUSH1 0x0 SWAP1 SLOAD SWAP1 PUSH2 0x100 EXP SWAP1 DIV PUSH1 0xFF AND SWAP2 POP PUSH1 0x6 PUSH1 0x0 DUP5 PUSH20 0xFFFFFFFFFFFFFFFFFFFFFFFFFFFFFFFFFFFFFFFF AND PUSH20 0xFFFFFFFFFFFFFFFFFFFFFFFFFFFFFFFFFFFFFFFF AND DUP2 MSTORE PUSH1 0x20 ADD SWAP1 DUP2 MSTORE PUSH1 0x20 ADD PUSH1 0x0 KECCAK256 PUSH1 0x1 ADD DUP1 SLOAD PUSH2 0x1F90 SWAP1 PUSH2 0x2D94 JUMP JUMPDEST DUP1 PUSH1 0x1F ADD PUSH1 0x20 DUP1 SWAP2 DIV MUL PUSH1 0x20 ADD PUSH1 0x40 MLOAD SWAP1 DUP2 ADD PUSH1 0x40 MSTORE DUP1 SWAP3 SWAP2 SWAP1 DUP2 DUP2 MSTORE PUSH1 0x20 ADD DUP3 DUP1 SLOAD PUSH2 0x1FBC SWAP1 PUSH2 0x2D94 JUMP JUMPDEST DUP1 ISZERO PUSH2 0x2009 JUMPI DUP1 PUSH1 0x1F LT PUSH2 0x1FDE JUMPI PUSH2 0x100 DUP1 DUP4 SLOAD DIV MUL DUP4 MSTORE SWAP2 PUSH1 0x20 ADD SWAP2 PUSH2 0x2009 JUMP JUMPDEST DUP3 ADD SWAP2 SWAP1 PUSH1 0x0 MSTORE PUSH1 0x20 PUSH1 0x0 KECCAK256 SWAP1 JUMPDEST DUP2 SLOAD DUP2 MSTORE SWAP1 PUSH1 0x1 ADD SWAP1 PUSH1 0x20 ADD DUP1 DUP4 GT PUSH2 0x1FEC JUMPI DUP3 SWAP1 SUB PUSH1 0x1F AND DUP3 ADD SWAP2 JUMPDEST POP POP POP POP POP SWAP1 POP SWAP2 POP SWAP2 JUMP JUMPDEST PUSH1 0x0 DUP2 PUSH20 0xFFFFFFFFFFFFFFFFFFFFFFFFFFFFFFFFFFFFFFFF AND BALANCE SWAP1 POP SWAP2 SWAP1 POP JUMP JUMPDEST PUSH1 0x0 PUSH1 0x5 PUSH1 0x0 DUP4 PUSH20 0xFFFFFFFFFFFFFFFFFFFFFFFFFFFFFFFFFFFFFFFF AND PUSH20 0xFFFFFFFFFFFFFFFFFFFFFFFFFFFFFFFFFFFFFFFF AND DUP2 MSTORE PUSH1 0x20 ADD SWAP1 DUP2 MSTORE PUSH1 0x20 ADD PUSH1 0x0 KECCAK256 SLOAD SWAP1 POP SWAP2 SWAP1 POP JUMP JUMPDEST DUP3 DUP1 SLOAD PUSH2 0x208B SWAP1 PUSH2 0x2D94 JUMP JUMPDEST SWAP1 PUSH1 0x0 MSTORE PUSH1 0x20 PUSH1 0x0 KECCAK256 SWAP1 PUSH1 0x1F ADD PUSH1 0x20 SWAP1 DIV DUP2 ADD SWAP3 DUP3 PUSH2 0x20AD JUMPI PUSH1 0x0 DUP6 SSTORE PUSH2 0x20F4 JUMP JUMPDEST DUP3 PUSH1 0x1F LT PUSH2 0x20C6 JUMPI DUP1 MLOAD PUSH1 0xFF NOT AND DUP4 DUP1 ADD OR DUP6 SSTORE PUSH2 0x20F4 JUMP JUMPDEST DUP3 DUP1 ADD PUSH1 0x1 ADD DUP6 SSTORE DUP3 ISZERO PUSH2 0x20F4 JUMPI SWAP2 DUP3 ADD JUMPDEST DUP3 DUP2 GT ISZERO PUSH2 0x20F3 JUMPI DUP3 MLOAD DUP3 SSTORE SWAP2 PUSH1 0x20 ADD SWAP2 SWAP1 PUSH1 0x1 ADD SWAP1 PUSH2 0x20D8 JUMP JUMPDEST JUMPDEST POP SWAP1 POP PUSH2 0x2101 SWAP2 SWAP1 PUSH2 0x2142 JUMP JUMPDEST POP SWAP1 JUMP JUMPDEST PUSH1 0x40 MLOAD DUP1 PUSH1 0xE0 ADD PUSH1 0x40 MSTORE DUP1 PUSH1 0x60 DUP2 MSTORE PUSH1 0x20 ADD PUSH1 0x60 DUP2 MSTORE PUSH1 0x20 ADD PUSH1 0x60 DUP2 MSTORE PUSH1 0x20 ADD PUSH1 0x60 DUP2 MSTORE PUSH1 0x20 ADD PUSH1 0x60 DUP2 MSTORE PUSH1 0x20 ADD PUSH1 0x60 DUP2 MSTORE PUSH1 0x20 ADD PUSH1 0x60 DUP2 MSTORE POP SWAP1 JUMP JUMPDEST JUMPDEST DUP1 DUP3 GT ISZERO PUSH2 0x215B JUMPI PUSH1 0x0 DUP2 PUSH1 0x0 SWAP1 SSTORE POP PUSH1 0x1 ADD PUSH2 0x2143 JUMP JUMPDEST POP SWAP1 JUMP JUMPDEST PUSH1 0x0 PUSH2 0x2172 PUSH2 0x216D DUP5 PUSH2 0x2B8B JUMP JUMPDEST PUSH2 0x2B66 JUMP JUMPDEST SWAP1 POP DUP3 DUP2 MSTORE PUSH1 0x20 DUP2 ADD DUP5 DUP5 DUP5 ADD GT ISZERO PUSH2 0x218E JUMPI PUSH2 0x218D PUSH2 0x2F20 JUMP JUMPDEST JUMPDEST PUSH2 0x2199 DUP5 DUP3 DUP6 PUSH2 0x2D52 JUMP JUMPDEST POP SWAP4 SWAP3 POP POP POP JUMP JUMPDEST PUSH1 0x0 DUP2 CALLDATALOAD SWAP1 POP PUSH2 0x21B0 DUP2 PUSH2 0x2FE3 JUMP JUMPDEST SWAP3 SWAP2 POP POP JUMP JUMPDEST PUSH1 0x0 DUP2 CALLDATALOAD SWAP1 POP PUSH2 0x21C5 DUP2 PUSH2 0x2FFA JUMP JUMPDEST SWAP3 SWAP2 POP POP JUMP JUMPDEST PUSH1 0x0 DUP3 PUSH1 0x1F DUP4 ADD SLT PUSH2 0x21E0 JUMPI PUSH2 0x21DF PUSH2 0x2F11 JUMP JUMPDEST JUMPDEST DUP2 CALLDATALOAD PUSH2 0x21F0 DUP5 DUP3 PUSH1 0x20 DUP7 ADD PUSH2 0x215F JUMP JUMPDEST SWAP2 POP POP SWAP3 SWAP2 POP POP JUMP JUMPDEST PUSH1 0x0 PUSH1 0xE0 DUP3 DUP5 SUB SLT ISZERO PUSH2 0x220F JUMPI PUSH2 0x220E PUSH2 0x2F16 JUMP JUMPDEST JUMPDEST PUSH2 0x2219 PUSH1 0xE0 PUSH2 0x2B66 JUMP JUMPDEST SWAP1 POP PUSH1 0x0 DUP3 ADD CALLDATALOAD PUSH8 0xFFFFFFFFFFFFFFFF DUP2 GT ISZERO PUSH2 0x2239 JUMPI PUSH2 0x2238 PUSH2 0x2F1B JUMP JUMPDEST JUMPDEST PUSH2 0x2245 DUP5 DUP3 DUP6 ADD PUSH2 0x21CB JUMP JUMPDEST PUSH1 0x0 DUP4 ADD MSTORE POP PUSH1 0x20 DUP3 ADD CALLDATALOAD PUSH8 0xFFFFFFFFFFFFFFFF DUP2 GT ISZERO PUSH2 0x2269 JUMPI PUSH2 0x2268 PUSH2 0x2F1B JUMP JUMPDEST JUMPDEST PUSH2 0x2275 DUP5 DUP3 DUP6 ADD PUSH2 0x21CB JUMP JUMPDEST PUSH1 0x20 DUP4 ADD MSTORE POP PUSH1 0x40 DUP3 ADD CALLDATALOAD PUSH8 0xFFFFFFFFFFFFFFFF DUP2 GT ISZERO PUSH2 0x2299 JUMPI PUSH2 0x2298 PUSH2 0x2F1B JUMP JUMPDEST JUMPDEST PUSH2 0x22A5 DUP5 DUP3 DUP6 ADD PUSH2 0x21CB JUMP JUMPDEST PUSH1 0x40 DUP4 ADD MSTORE POP PUSH1 0x60 DUP3 ADD CALLDATALOAD PUSH8 0xFFFFFFFFFFFFFFFF DUP2 GT ISZERO PUSH2 0x22C9 JUMPI PUSH2 0x22C8 PUSH2 0x2F1B JUMP JUMPDEST JUMPDEST PUSH2 0x22D5 DUP5 DUP3 DUP6 ADD PUSH2 0x21CB JUMP JUMPDEST PUSH1 0x60 DUP4 ADD MSTORE POP PUSH1 0x80 DUP3 ADD CALLDATALOAD PUSH8 0xFFFFFFFFFFFFFFFF DUP2 GT ISZERO PUSH2 0x22F9 JUMPI PUSH2 0x22F8 PUSH2 0x2F1B JUMP JUMPDEST JUMPDEST PUSH2 0x2305 DUP5 DUP3 DUP6 ADD PUSH2 0x21CB JUMP JUMPDEST PUSH1 0x80 DUP4 ADD MSTORE POP PUSH1 0xA0 DUP3 ADD CALLDATALOAD PUSH8 0xFFFFFFFFFFFFFFFF DUP2 GT ISZERO PUSH2 0x2329 JUMPI PUSH2 0x2328 PUSH2 0x2F1B JUMP JUMPDEST JUMPDEST PUSH2 0x2335 DUP5 DUP3 DUP6 ADD PUSH2 0x21CB JUMP JUMPDEST PUSH1 0xA0 DUP4 ADD MSTORE POP PUSH1 0xC0 DUP3 ADD CALLDATALOAD PUSH8 0xFFFFFFFFFFFFFFFF DUP2 GT ISZERO PUSH2 0x2359 JUMPI PUSH2 0x2358 PUSH2 0x2F1B JUMP JUMPDEST JUMPDEST PUSH2 0x2365 DUP5 DUP3 DUP6 ADD PUSH2 0x21CB JUMP JUMPDEST PUSH1 0xC0 DUP4 ADD MSTORE POP SWAP3 SWAP2 POP POP JUMP JUMPDEST PUSH1 0x0 DUP2 CALLDATALOAD SWAP1 POP PUSH2 0x2380 DUP2 PUSH2 0x300A JUMP JUMPDEST SWAP3 SWAP2 POP POP JUMP JUMPDEST PUSH1 0x0 PUSH1 0x20 DUP3 DUP5 SUB SLT ISZERO PUSH2 0x239C JUMPI PUSH2 0x239B PUSH2 0x2F2A JUMP JUMPDEST JUMPDEST PUSH1 0x0 PUSH2 0x23AA DUP5 DUP3 DUP6 ADD PUSH2 0x21A1 JUMP JUMPDEST SWAP2 POP POP SWAP3 SWAP2 POP POP JUMP JUMPDEST PUSH1 0x0 DUP1 PUSH1 0x0 PUSH1 0x60 DUP5 DUP7 SUB SLT ISZERO PUSH2 0x23CC JUMPI PUSH2 0x23CB PUSH2 0x2F2A JUMP JUMPDEST JUMPDEST PUSH1 0x0 PUSH2 0x23DA DUP7 DUP3 DUP8 ADD PUSH2 0x21A1 JUMP JUMPDEST SWAP4 POP POP PUSH1 0x20 PUSH2 0x23EB DUP7 DUP3 DUP8 ADD PUSH2 0x21B6 JUMP JUMPDEST SWAP3 POP POP PUSH1 0x40 DUP5 ADD CALLDATALOAD PUSH8 0xFFFFFFFFFFFFFFFF DUP2 GT ISZERO PUSH2 0x240C JUMPI PUSH2 0x240B PUSH2 0x2F25 JUMP JUMPDEST JUMPDEST PUSH2 0x2418 DUP7 DUP3 DUP8 ADD PUSH2 0x21CB JUMP JUMPDEST SWAP2 POP POP SWAP3 POP SWAP3 POP SWAP3 JUMP JUMPDEST PUSH1 0x0 DUP1 PUSH1 0x40 DUP4 DUP6 SUB SLT ISZERO PUSH2 0x2439 JUMPI PUSH2 0x2438 PUSH2 0x2F2A JUMP JUMPDEST JUMPDEST PUSH1 0x0 PUSH2 0x2447 DUP6 DUP3 DUP7 ADD PUSH2 0x21A1 JUMP JUMPDEST SWAP3 POP POP PUSH1 0x20 PUSH2 0x2458 DUP6 DUP3 DUP7 ADD PUSH2 0x2371 JUMP JUMPDEST SWAP2 POP POP SWAP3 POP SWAP3 SWAP1 POP JUMP JUMPDEST PUSH1 0x0 PUSH1 0x20 DUP3 DUP5 SUB SLT ISZERO PUSH2 0x2478 JUMPI PUSH2 0x2477 PUSH2 0x2F2A JUMP JUMPDEST JUMPDEST PUSH1 0x0 PUSH2 0x2486 DUP5 DUP3 DUP6 ADD PUSH2 0x2371 JUMP JUMPDEST SWAP2 POP POP SWAP3 SWAP2 POP POP JUMP JUMPDEST PUSH1 0x0 DUP1 PUSH1 0x40 DUP4 DUP6 SUB SLT ISZERO PUSH2 0x24A6 JUMPI PUSH2 0x24A5 PUSH2 0x2F2A JUMP JUMPDEST JUMPDEST PUSH1 0x0 PUSH2 0x24B4 DUP6 DUP3 DUP7 ADD PUSH2 0x2371 JUMP JUMPDEST SWAP3 POP POP PUSH1 0x20 DUP4 ADD CALLDATALOAD PUSH8 0xFFFFFFFFFFFFFFFF DUP2 GT ISZERO PUSH2 0x24D5 JUMPI PUSH2 0x24D4 PUSH2 0x2F25 JUMP JUMPDEST JUMPDEST PUSH2 0x24E1 DUP6 DUP3 DUP7 ADD PUSH2 0x21F9 JUMP JUMPDEST SWAP2 POP POP SWAP3 POP SWAP3 SWAP1 POP JUMP JUMPDEST PUSH1 0x0 DUP1 PUSH1 0x40 DUP4 DUP6 SUB SLT ISZERO PUSH2 0x2502 JUMPI PUSH2 0x2501 PUSH2 0x2F2A JUMP JUMPDEST JUMPDEST PUSH1 0x0 PUSH2 0x2510 DUP6 DUP3 DUP7 ADD PUSH2 0x2371 JUMP JUMPDEST SWAP3 POP POP PUSH1 0x20 PUSH2 0x2521 DUP6 DUP3 DUP7 ADD PUSH2 0x2371 JUMP JUMPDEST SWAP2 POP POP SWAP3 POP SWAP3 SWAP1 POP JUMP JUMPDEST PUSH1 0x0 DUP1 PUSH1 0x0 DUP1 PUSH1 0x0 DUP1 PUSH1 0x0 DUP1 PUSH1 0x0 DUP1 PUSH2 0x140 DUP12 DUP14 SUB SLT ISZERO PUSH2 0x254F JUMPI PUSH2 0x254E PUSH2 0x2F2A JUMP JUMPDEST JUMPDEST PUSH1 0x0 PUSH2 0x255D DUP14 DUP3 DUP15 ADD PUSH2 0x2371 JUMP JUMPDEST SWAP11 POP POP PUSH1 0x20 PUSH2 0x256E DUP14 DUP3 DUP15 ADD PUSH2 0x2371 JUMP JUMPDEST SWAP10 POP POP PUSH1 0x40 PUSH2 0x257F DUP14 DUP3 DUP15 ADD PUSH2 0x2371 JUMP JUMPDEST SWAP9 POP POP PUSH1 0x60 DUP12 ADD CALLDATALOAD PUSH8 0xFFFFFFFFFFFFFFFF DUP2 GT ISZERO PUSH2 0x25A0 JUMPI PUSH2 0x259F PUSH2 0x2F25 JUMP JUMPDEST JUMPDEST PUSH2 0x25AC DUP14 DUP3 DUP15 ADD PUSH2 0x21CB JUMP JUMPDEST SWAP8 POP POP PUSH1 0x80 DUP12 ADD CALLDATALOAD PUSH8 0xFFFFFFFFFFFFFFFF DUP2 GT ISZERO PUSH2 0x25CD JUMPI PUSH2 0x25CC PUSH2 0x2F25 JUMP JUMPDEST JUMPDEST PUSH2 0x25D9 DUP14 DUP3 DUP15 ADD PUSH2 0x21CB JUMP JUMPDEST SWAP7 POP POP PUSH1 0xA0 DUP12 ADD CALLDATALOAD PUSH8 0xFFFFFFFFFFFFFFFF DUP2 GT ISZERO PUSH2 0x25FA JUMPI PUSH2 0x25F9 PUSH2 0x2F25 JUMP JUMPDEST JUMPDEST PUSH2 0x2606 DUP14 DUP3 DUP15 ADD PUSH2 0x21CB JUMP JUMPDEST SWAP6 POP POP PUSH1 0xC0 DUP12 ADD CALLDATALOAD PUSH8 0xFFFFFFFFFFFFFFFF DUP2 GT ISZERO PUSH2 0x2627 JUMPI PUSH2 0x2626 PUSH2 0x2F25 JUMP JUMPDEST JUMPDEST PUSH2 0x2633 DUP14 DUP3 DUP15 ADD PUSH2 0x21CB JUMP JUMPDEST SWAP5 POP POP PUSH1 0xE0 DUP12 ADD CALLDATALOAD PUSH8 0xFFFFFFFFFFFFFFFF DUP2 GT ISZERO PUSH2 0x2654 JUMPI PUSH2 0x2653 PUSH2 0x2F25 JUMP JUMPDEST JUMPDEST PUSH2 0x2660 DUP14 DUP3 DUP15 ADD PUSH2 0x21CB JUMP JUMPDEST SWAP4 POP POP PUSH2 0x100 DUP12 ADD CALLDATALOAD PUSH8 0xFFFFFFFFFFFFFFFF DUP2 GT ISZERO PUSH2 0x2682 JUMPI PUSH2 0x2681 PUSH2 0x2F25 JUMP JUMPDEST JUMPDEST PUSH2 0x268E DUP14 DUP3 DUP15 ADD PUSH2 0x21CB JUMP JUMPDEST SWAP3 POP POP PUSH2 0x120 DUP12 ADD CALLDATALOAD PUSH8 0xFFFFFFFFFFFFFFFF DUP2 GT ISZERO PUSH2 0x26B0 JUMPI PUSH2 0x26AF PUSH2 0x2F25 JUMP JUMPDEST JUMPDEST PUSH2 0x26BC DUP14 DUP3 DUP15 ADD PUSH2 0x21CB JUMP JUMPDEST SWAP2 POP POP SWAP3 SWAP6 SWAP9 SWAP12 SWAP2 SWAP5 SWAP8 SWAP11 POP SWAP3 SWAP6 SWAP9 POP JUMP JUMPDEST PUSH2 0x26D7 DUP2 PUSH2 0x2CB6 JUMP JUMPDEST DUP3 MSTORE POP POP JUMP JUMPDEST PUSH2 0x26E6 DUP2 PUSH2 0x2CA4 JUMP JUMPDEST DUP3 MSTORE POP POP JUMP JUMPDEST PUSH2 0x26F5 DUP2 PUSH2 0x2CC8 JUMP JUMPDEST DUP3 MSTORE POP POP JUMP JUMPDEST PUSH2 0x2704 DUP2 PUSH2 0x2D2E JUMP JUMPDEST DUP3 MSTORE POP POP JUMP JUMPDEST PUSH2 0x2713 DUP2 PUSH2 0x2D40 JUMP JUMPDEST DUP3 MSTORE POP POP JUMP JUMPDEST PUSH2 0x2722 DUP2 PUSH2 0x2CFA JUMP JUMPDEST DUP3 MSTORE POP POP JUMP JUMPDEST PUSH1 0x0 PUSH2 0x2733 DUP3 PUSH2 0x2BBC JUMP JUMPDEST PUSH2 0x273D DUP2 DUP6 PUSH2 0x2BC7 JUMP JUMPDEST SWAP4 POP PUSH2 0x274D DUP2 DUP6 PUSH1 0x20 DUP7 ADD PUSH2 0x2D61 JUMP JUMPDEST PUSH2 0x2756 DUP2 PUSH2 0x2F2F JUMP JUMPDEST DUP5 ADD SWAP2 POP POP SWAP3 SWAP2 POP POP JUMP JUMPDEST PUSH1 0x0 PUSH2 0x276C DUP3 PUSH2 0x2BBC JUMP JUMPDEST PUSH2 0x2776 DUP2 DUP6 PUSH2 0x2BD8 JUMP JUMPDEST SWAP4 POP PUSH2 0x2786 DUP2 DUP6 PUSH1 0x20 DUP7 ADD PUSH2 0x2D61 JUMP JUMPDEST PUSH2 0x278F DUP2 PUSH2 0x2F2F JUMP JUMPDEST DUP5 ADD SWAP2 POP POP SWAP3 SWAP2 POP POP JUMP JUMPDEST PUSH1 0x0 PUSH2 0x27A7 PUSH1 0x1C DUP4 PUSH2 0x2BD8 JUMP JUMPDEST SWAP2 POP PUSH2 0x27B2 DUP3 PUSH2 0x2F40 JUMP JUMPDEST PUSH1 0x20 DUP3 ADD SWAP1 POP SWAP2 SWAP1 POP JUMP JUMPDEST PUSH1 0x0 PUSH2 0x27CA PUSH1 0x19 DUP4 PUSH2 0x2BD8 JUMP JUMPDEST SWAP2 POP PUSH2 0x27D5 DUP3 PUSH2 0x2F69 JUMP JUMPDEST PUSH1 0x20 DUP3 ADD SWAP1 POP SWAP2 SWAP1 POP JUMP JUMPDEST PUSH1 0x0 PUSH2 0x27ED PUSH1 0x1E DUP4 PUSH2 0x2BD8 JUMP JUMPDEST SWAP2 POP PUSH2 0x27F8 DUP3 PUSH2 0x2F92 JUMP JUMPDEST PUSH1 0x20 DUP3 ADD SWAP1 POP SWAP2 SWAP1 POP JUMP JUMPDEST PUSH1 0x0 PUSH1 0xE0 DUP4 ADD PUSH1 0x0 DUP4 ADD MLOAD DUP5 DUP3 SUB PUSH1 0x0 DUP7 ADD MSTORE PUSH2 0x2820 DUP3 DUP3 PUSH2 0x2728 JUMP JUMPDEST SWAP2 POP POP PUSH1 0x20 DUP4 ADD MLOAD DUP5 DUP3 SUB PUSH1 0x20 DUP7 ADD MSTORE PUSH2 0x283A DUP3 DUP3 PUSH2 0x2728 JUMP JUMPDEST SWAP2 POP POP PUSH1 0x40 DUP4 ADD MLOAD DUP5 DUP3 SUB PUSH1 0x40 DUP7 ADD MSTORE PUSH2 0x2854 DUP3 DUP3 PUSH2 0x2728 JUMP JUMPDEST SWAP2 POP POP PUSH1 0x60 DUP4 ADD MLOAD DUP5 DUP3 SUB PUSH1 0x60 DUP7 ADD MSTORE PUSH2 0x286E DUP3 DUP3 PUSH2 0x2728 JUMP JUMPDEST SWAP2 POP POP PUSH1 0x80 DUP4 ADD MLOAD DUP5 DUP3 SUB PUSH1 0x80 DUP7 ADD MSTORE PUSH2 0x2888 DUP3 DUP3 PUSH2 0x2728 JUMP JUMPDEST SWAP2 POP POP PUSH1 0xA0 DUP4 ADD MLOAD DUP5 DUP3 SUB PUSH1 0xA0 DUP7 ADD MSTORE PUSH2 0x28A2 DUP3 DUP3 PUSH2 0x2728 JUMP JUMPDEST SWAP2 POP POP PUSH1 0xC0 DUP4 ADD MLOAD DUP5 DUP3 SUB PUSH1 0xC0 DUP7 ADD MSTORE PUSH2 0x28BC DUP3 DUP3 PUSH2 0x2728 JUMP JUMPDEST SWAP2 POP POP DUP1 SWAP2 POP POP SWAP3 SWAP2 POP POP JUMP JUMPDEST PUSH2 0x28D2 DUP2 PUSH2 0x2D24 JUMP JUMPDEST DUP3 MSTORE POP POP JUMP JUMPDEST PUSH1 0x0 PUSH1 0x20 DUP3 ADD SWAP1 POP PUSH2 0x28ED PUSH1 0x0 DUP4 ADD DUP5 PUSH2 0x26CE JUMP JUMPDEST SWAP3 SWAP2 POP POP JUMP JUMPDEST PUSH1 0x0 PUSH1 0x20 DUP3 ADD SWAP1 POP PUSH2 0x2908 PUSH1 0x0 DUP4 ADD DUP5 PUSH2 0x26EC JUMP JUMPDEST SWAP3 SWAP2 POP POP JUMP JUMPDEST PUSH1 0x0 PUSH1 0x40 DUP3 ADD SWAP1 POP PUSH2 0x2923 PUSH1 0x0 DUP4 ADD DUP6 PUSH2 0x26FB JUMP JUMPDEST DUP2 DUP2 SUB PUSH1 0x20 DUP4 ADD MSTORE PUSH2 0x2935 DUP2 DUP5 PUSH2 0x2761 JUMP JUMPDEST SWAP1 POP SWAP4 SWAP3 POP POP POP JUMP JUMPDEST PUSH1 0x0 PUSH1 0x20 DUP3 ADD SWAP1 POP PUSH2 0x2953 PUSH1 0x0 DUP4 ADD DUP5 PUSH2 0x2719 JUMP JUMPDEST SWAP3 SWAP2 POP POP JUMP JUMPDEST PUSH1 0x0 PUSH1 0x20 DUP3 ADD SWAP1 POP DUP2 DUP2 SUB PUSH1 0x0 DUP4 ADD MSTORE PUSH2 0x2973 DUP2 DUP5 PUSH2 0x2761 JUMP JUMPDEST SWAP1 POP SWAP3 SWAP2 POP POP JUMP JUMPDEST PUSH1 0x0 PUSH1 0x20 DUP3 ADD SWAP1 POP DUP2 DUP2 SUB PUSH1 0x0 DUP4 ADD MSTORE PUSH2 0x2994 DUP2 PUSH2 0x279A JUMP JUMPDEST SWAP1 POP SWAP2 SWAP1 POP JUMP JUMPDEST PUSH1 0x0 PUSH1 0x20 DUP3 ADD SWAP1 POP DUP2 DUP2 SUB PUSH1 0x0 DUP4 ADD MSTORE PUSH2 0x29B4 DUP2 PUSH2 0x27BD JUMP JUMPDEST SWAP1 POP SWAP2 SWAP1 POP JUMP JUMPDEST PUSH1 0x0 PUSH1 0x20 DUP3 ADD SWAP1 POP DUP2 DUP2 SUB PUSH1 0x0 DUP4 ADD MSTORE PUSH2 0x29D4 DUP2 PUSH2 0x27E0 JUMP JUMPDEST SWAP1 POP SWAP2 SWAP1 POP JUMP JUMPDEST PUSH1 0x0 PUSH1 0x20 DUP3 ADD SWAP1 POP PUSH2 0x29F0 PUSH1 0x0 DUP4 ADD DUP5 PUSH2 0x28C9 JUMP JUMPDEST SWAP3 SWAP2 POP POP JUMP JUMPDEST PUSH1 0x0 PUSH2 0x120 DUP3 ADD SWAP1 POP PUSH2 0x2A0C PUSH1 0x0 DUP4 ADD DUP13 PUSH2 0x28C9 JUMP JUMPDEST PUSH2 0x2A19 PUSH1 0x20 DUP4 ADD DUP12 PUSH2 0x26DD JUMP JUMPDEST PUSH2 0x2A26 PUSH1 0x40 DUP4 ADD DUP11 PUSH2 0x26DD JUMP JUMPDEST PUSH2 0x2A33 PUSH1 0x60 DUP4 ADD DUP10 PUSH2 0x270A JUMP JUMPDEST PUSH2 0x2A40 PUSH1 0x80 DUP4 ADD DUP9 PUSH2 0x28C9 JUMP JUMPDEST PUSH2 0x2A4D PUSH1 0xA0 DUP4 ADD DUP8 PUSH2 0x26DD JUMP JUMPDEST PUSH2 0x2A5A PUSH1 0xC0 DUP4 ADD DUP7 PUSH2 0x26DD JUMP JUMPDEST PUSH2 0x2A67 PUSH1 0xE0 DUP4 ADD DUP6 PUSH2 0x26DD JUMP JUMPDEST DUP2 DUP2 SUB PUSH2 0x100 DUP4 ADD MSTORE PUSH2 0x2A7A DUP2 DUP5 PUSH2 0x2803 JUMP JUMPDEST SWAP1 POP SWAP11 SWAP10 POP POP POP POP POP POP POP POP POP POP JUMP JUMPDEST PUSH1 0x0 PUSH2 0x160 DUP3 ADD SWAP1 POP PUSH2 0x2AA0 PUSH1 0x0 DUP4 ADD DUP15 PUSH2 0x28C9 JUMP JUMPDEST PUSH2 0x2AAD PUSH1 0x20 DUP4 ADD DUP14 PUSH2 0x26DD JUMP JUMPDEST PUSH2 0x2ABA PUSH1 0x40 DUP4 ADD DUP13 PUSH2 0x270A JUMP JUMPDEST PUSH2 0x2AC7 PUSH1 0x60 DUP4 ADD DUP12 PUSH2 0x28C9 JUMP JUMPDEST DUP2 DUP2 SUB PUSH1 0x80 DUP4 ADD MSTORE PUSH2 0x2AD9 DUP2 DUP11 PUSH2 0x2761 JUMP JUMPDEST SWAP1 POP DUP2 DUP2 SUB PUSH1 0xA0 DUP4 ADD MSTORE PUSH2 0x2AED DUP2 DUP10 PUSH2 0x2761 JUMP JUMPDEST SWAP1 POP DUP2 DUP2 SUB PUSH1 0xC0 DUP4 ADD MSTORE PUSH2 0x2B01 DUP2 DUP9 PUSH2 0x2761 JUMP JUMPDEST SWAP1 POP DUP2 DUP2 SUB PUSH1 0xE0 DUP4 ADD MSTORE PUSH2 0x2B15 DUP2 DUP8 PUSH2 0x2761 JUMP JUMPDEST SWAP1 POP DUP2 DUP2 SUB PUSH2 0x100 DUP4 ADD MSTORE PUSH2 0x2B2A DUP2 DUP7 PUSH2 0x2761 JUMP JUMPDEST SWAP1 POP DUP2 DUP2 SUB PUSH2 0x120 DUP4 ADD MSTORE PUSH2 0x2B3F DUP2 DUP6 PUSH2 0x2761 JUMP JUMPDEST SWAP1 POP DUP2 DUP2 SUB PUSH2 0x140 DUP4 ADD MSTORE PUSH2 0x2B54 DUP2 DUP5 PUSH2 0x2761 JUMP JUMPDEST SWAP1 POP SWAP13 SWAP12 POP POP POP POP POP POP POP POP POP POP POP POP JUMP JUMPDEST PUSH1 0x0 PUSH2 0x2B70 PUSH2 0x2B81 JUMP JUMPDEST SWAP1 POP PUSH2 0x2B7C DUP3 DUP3 PUSH2 0x2DC6 JUMP JUMPDEST SWAP2 SWAP1 POP JUMP JUMPDEST PUSH1 0x0 PUSH1 0x40 MLOAD SWAP1 POP SWAP1 JUMP JUMPDEST PUSH1 0x0 PUSH8 0xFFFFFFFFFFFFFFFF DUP3 GT ISZERO PUSH2 0x2BA6 JUMPI PUSH2 0x2BA5 PUSH2 0x2EE2 JUMP JUMPDEST JUMPDEST PUSH2 0x2BAF DUP3 PUSH2 0x2F2F JUMP JUMPDEST SWAP1 POP PUSH1 0x20 DUP2 ADD SWAP1 POP SWAP2 SWAP1 POP JUMP JUMPDEST PUSH1 0x0 DUP2 MLOAD SWAP1 POP SWAP2 SWAP1 POP JUMP JUMPDEST PUSH1 0x0 DUP3 DUP3 MSTORE PUSH1 0x20 DUP3 ADD SWAP1 POP SWAP3 SWAP2 POP POP JUMP JUMPDEST PUSH1 0x0 DUP3 DUP3 MSTORE PUSH1 0x20 DUP3 ADD SWAP1 POP SWAP3 SWAP2 POP POP JUMP JUMPDEST PUSH1 0x0 PUSH2 0x2BF4 DUP3 PUSH2 0x2D24 JUMP JUMPDEST SWAP2 POP PUSH2 0x2BFF DUP4 PUSH2 0x2D24 JUMP JUMPDEST SWAP3 POP DUP3 PUSH32 0xFFFFFFFFFFFFFFFFFFFFFFFFFFFFFFFFFFFFFFFFFFFFFFFFFFFFFFFFFFFFFFFF SUB DUP3 GT ISZERO PUSH2 0x2C34 JUMPI PUSH2 0x2C33 PUSH2 0x2DF7 JUMP JUMPDEST JUMPDEST DUP3 DUP3 ADD SWAP1 POP SWAP3 SWAP2 POP POP JUMP JUMPDEST PUSH1 0x0 PUSH2 0x2C4A DUP3 PUSH2 0x2D24 JUMP JUMPDEST SWAP2 POP PUSH2 0x2C55 DUP4 PUSH2 0x2D24 JUMP JUMPDEST SWAP3 POP DUP3 PUSH2 0x2C65 JUMPI PUSH2 0x2C64 PUSH2 0x2E26 JUMP JUMPDEST JUMPDEST DUP3 DUP3 DIV SWAP1 POP SWAP3 SWAP2 POP POP JUMP JUMPDEST PUSH1 0x0 PUSH2 0x2C7B DUP3 PUSH2 0x2D24 JUMP JUMPDEST SWAP2 POP PUSH2 0x2C86 DUP4 PUSH2 0x2D24 JUMP JUMPDEST SWAP3 POP DUP3 DUP3 LT ISZERO PUSH2 0x2C99 JUMPI PUSH2 0x2C98 PUSH2 0x2DF7 JUMP JUMPDEST JUMPDEST DUP3 DUP3 SUB SWAP1 POP SWAP3 SWAP2 POP POP JUMP JUMPDEST PUSH1 0x0 PUSH2 0x2CAF DUP3 PUSH2 0x2D04 JUMP JUMPDEST SWAP1 POP SWAP2 SWAP1 POP JUMP JUMPDEST PUSH1 0x0 PUSH2 0x2CC1 DUP3 PUSH2 0x2D04 JUMP JUMPDEST SWAP1 POP SWAP2 SWAP1 POP JUMP JUMPDEST PUSH1 0x0 DUP2 ISZERO ISZERO SWAP1 POP SWAP2 SWAP1 POP JUMP JUMPDEST PUSH1 0x0 DUP2 SWAP1 POP PUSH2 0x2CE2 DUP3 PUSH2 0x2FBB JUMP JUMPDEST SWAP2 SWAP1 POP JUMP JUMPDEST PUSH1 0x0 DUP2 SWAP1 POP PUSH2 0x2CF5 DUP3 PUSH2 0x2FCF JUMP JUMPDEST SWAP2 SWAP1 POP JUMP JUMPDEST PUSH1 0x0 DUP2 SWAP1 POP SWAP2 SWAP1 POP JUMP JUMPDEST PUSH1 0x0 PUSH20 0xFFFFFFFFFFFFFFFFFFFFFFFFFFFFFFFFFFFFFFFF DUP3 AND SWAP1 POP SWAP2 SWAP1 POP JUMP JUMPDEST PUSH1 0x0 DUP2 SWAP1 POP SWAP2 SWAP1 POP JUMP JUMPDEST PUSH1 0x0 PUSH2 0x2D39 DUP3 PUSH2 0x2CD4 JUMP JUMPDEST SWAP1 POP SWAP2 SWAP1 POP JUMP JUMPDEST PUSH1 0x0 PUSH2 0x2D4B DUP3 PUSH2 0x2CE7 JUMP JUMPDEST SWAP1 POP SWAP2 SWAP1 POP JUMP JUMPDEST DUP3 DUP2 DUP4 CALLDATACOPY PUSH1 0x0 DUP4 DUP4 ADD MSTORE POP POP POP JUMP JUMPDEST PUSH1 0x0 JUMPDEST DUP4 DUP2 LT ISZERO PUSH2 0x2D7F JUMPI DUP1 DUP3 ADD MLOAD DUP2 DUP5 ADD MSTORE PUSH1 0x20 DUP2 ADD SWAP1 POP PUSH2 0x2D64 JUMP JUMPDEST DUP4 DUP2 GT ISZERO PUSH2 0x2D8E JUMPI PUSH1 0x0 DUP5 DUP5 ADD MSTORE JUMPDEST POP POP POP POP JUMP JUMPDEST PUSH1 0x0 PUSH1 0x2 DUP3 DIV SWAP1 POP PUSH1 0x1 DUP3 AND DUP1 PUSH2 0x2DAC JUMPI PUSH1 0x7F DUP3 AND SWAP2 POP JUMPDEST PUSH1 0x20 DUP3 LT DUP2 EQ ISZERO PUSH2 0x2DC0 JUMPI PUSH2 0x2DBF PUSH2 0x2E84 JUMP JUMPDEST JUMPDEST POP SWAP2 SWAP1 POP JUMP JUMPDEST PUSH2 0x2DCF DUP3 PUSH2 0x2F2F JUMP JUMPDEST DUP2 ADD DUP2 DUP2 LT PUSH8 0xFFFFFFFFFFFFFFFF DUP3 GT OR ISZERO PUSH2 0x2DEE JUMPI PUSH2 0x2DED PUSH2 0x2EE2 JUMP JUMPDEST JUMPDEST DUP1 PUSH1 0x40 MSTORE POP POP POP JUMP JUMPDEST PUSH32 0x4E487B7100000000000000000000000000000000000000000000000000000000 PUSH1 0x0 MSTORE PUSH1 0x11 PUSH1 0x4 MSTORE PUSH1 0x24 PUSH1 0x0 REVERT JUMPDEST PUSH32 0x4E487B7100000000000000000000000000000000000000000000000000000000 PUSH1 0x0 MSTORE PUSH1 0x12 PUSH1 0x4 MSTORE PUSH1 0x24 PUSH1 0x0 REVERT JUMPDEST PUSH32 0x4E487B7100000000000000000000000000000000000000000000000000000000 PUSH1 0x0 MSTORE PUSH1 0x21 PUSH1 0x4 MSTORE PUSH1 0x24 PUSH1 0x0 REVERT JUMPDEST PUSH32 0x4E487B7100000000000000000000000000000000000000000000000000000000 PUSH1 0x0 MSTORE PUSH1 0x22 PUSH1 0x4 MSTORE PUSH1 0x24 PUSH1 0x0 REVERT JUMPDEST PUSH32 0x4E487B7100000000000000000000000000000000000000000000000000000000 PUSH1 0x0 MSTORE PUSH1 0x32 PUSH1 0x4 MSTORE PUSH1 0x24 PUSH1 0x0 REVERT JUMPDEST PUSH32 0x4E487B7100000000000000000000000000000000000000000000000000000000 PUSH1 0x0 MSTORE PUSH1 0x41 PUSH1 0x4 MSTORE PUSH1 0x24 PUSH1 0x0 REVERT JUMPDEST PUSH1 0x0 DUP1 REVERT JUMPDEST PUSH1 0x0 DUP1 REVERT JUMPDEST PUSH1 0x0 DUP1 REVERT JUMPDEST PUSH1 0x0 DUP1 REVERT JUMPDEST PUSH1 0x0 DUP1 REVERT JUMPDEST PUSH1 0x0 DUP1 REVERT JUMPDEST PUSH1 0x0 PUSH1 0x1F NOT PUSH1 0x1F DUP4 ADD AND SWAP1 POP SWAP2 SWAP1 POP JUMP JUMPDEST PUSH32 0x63616C6C6572206973206E6F742061206469737472696275746F722E00000000 PUSH1 0x0 DUP3 ADD MSTORE POP JUMP JUMPDEST PUSH32 0x63616C6C6572206973206E6F7420612070726F64756365722E00000000000000 PUSH1 0x0 DUP3 ADD MSTORE POP JUMP JUMPDEST PUSH32 0x63616C6C6572206973206E6F742074686520746F6B656E206F776E65722E0000 PUSH1 0x0 DUP3 ADD MSTORE POP JUMP JUMPDEST PUSH1 0x5 DUP2 LT PUSH2 0x2FCC JUMPI PUSH2 0x2FCB PUSH2 0x2E55 JUMP JUMPDEST JUMPDEST POP JUMP JUMPDEST PUSH1 0x6 DUP2 LT PUSH2 0x2FE0 JUMPI PUSH2 0x2FDF PUSH2 0x2E55 JUMP JUMPDEST JUMPDEST POP JUMP JUMPDEST PUSH2 0x2FEC DUP2 PUSH2 0x2CA4 JUMP JUMPDEST DUP2 EQ PUSH2 0x2FF7 JUMPI PUSH1 0x0 DUP1 REVERT JUMPDEST POP JUMP JUMPDEST PUSH1 0x5 DUP2 LT PUSH2 0x3007 JUMPI PUSH1 0x0 DUP1 REVERT JUMPDEST POP JUMP JUMPDEST PUSH2 0x3013 DUP2 PUSH2 0x2D24 JUMP JUMPDEST DUP2 EQ PUSH2 0x301E JUMPI PUSH1 0x0 DUP1 REVERT JUMPDEST POP JUMP INVALID LOG2 PUSH5 0x6970667358 0x22 SLT KECCAK256 DUP11 RETURNDATACOPY 0xE8 ORIGIN 0xD1 REVERT 0x25 NOT 0xF6 0x28 SELFDESTRUCT 0x2F 0x2A PUSH18 0xED319495FBF7EFEE27E63C8B0DB1484BA332 PUSH5 0x736F6C6343 STOP ADDMOD SMOD STOP CALLER "
				},
				"gasEstimates": {
					"creation": {
						"codeDepositCost": "2475000",
						"executionCost": "infinite",
						"totalCost": "infinite"
					},
					"external": {
						"burn(address,uint256)": "infinite",
						"buyProduct(uint256,uint256)": "infinite",
						"buyToken()": "infinite",
						"etherBalance(address)": "3345",
						"getActorInfo(address)": "infinite",
						"getProductDetails(uint256)": "infinite",
						"getProductInfo(uint256)": "infinite",
						"mint(uint256)": "infinite",
						"name()": "infinite",
						"orderProduct(uint256,(string,string,string,string,string,string,string))": "infinite",
						"produceProduct(uint256,uint256,uint256,string,string,string,string,string,string,string)": "infinite",
						"register(address,uint8,string)": "infinite",
						"symbol()": "infinite",
						"tokenBalance(address)": "2951",
						"tokenOwner()": "2536",
						"tokenTransfer(address,uint256)": "infinite",
						"tokens(uint256)": "2855"
					}
				},
				"methodIdentifiers": {
					"burn(address,uint256)": "9dc29fac",
					"buyProduct(uint256,uint256)": "53b62866",
					"buyToken()": "a4821719",
					"etherBalance(address)": "cd0c5896",
					"getActorInfo(address)": "b292abf1",
					"getProductDetails(uint256)": "6813b53b",
					"getProductInfo(uint256)": "79a85e6c",
					"mint(uint256)": "a0712d68",
					"name()": "06fdde03",
					"orderProduct(uint256,(string,string,string,string,string,string,string))": "2bd5889f",
					"produceProduct(uint256,uint256,uint256,string,string,string,string,string,string,string)": "561e0e98",
					"register(address,uint8,string)": "40932fc2",
					"symbol()": "95d89b41",
					"tokenBalance(address)": "eedc966a",
					"tokenOwner()": "a3e67610",
					"tokenTransfer(address,uint256)": "68cdafe6",
					"tokens(uint256)": "4f64b2be"
				}
			},
			"storageLayout": {
				"storage": [
					{
						"astId": 3,
						"contract": "contracts/4_Product.sol:ProductSC",
						"label": "name",
						"offset": 0,
						"slot": "0",
						"type": "t_string_storage"
					},
					{
						"astId": 5,
						"contract": "contracts/4_Product.sol:ProductSC",
						"label": "symbol",
						"offset": 0,
						"slot": "1",
						"type": "t_string_storage"
					},
					{
						"astId": 7,
						"contract": "contracts/4_Product.sol:ProductSC",
						"label": "tokenOwner",
						"offset": 0,
						"slot": "2",
						"type": "t_address_payable"
					},
					{
						"astId": 17,
						"contract": "contracts/4_Product.sol:ProductSC",
						"label": "tokens",
						"offset": 0,
						"slot": "3",
						"type": "t_mapping(t_uint256,t_int256)"
					},
					{
						"astId": 19,
						"contract": "contracts/4_Product.sol:ProductSC",
						"label": "_totalSupply",
						"offset": 0,
						"slot": "4",
						"type": "t_uint256"
					},
					{
						"astId": 84,
						"contract": "contracts/4_Product.sol:ProductSC",
						"label": "balances",
						"offset": 0,
						"slot": "5",
						"type": "t_mapping(t_address,t_uint256)"
					},
					{
						"astId": 89,
						"contract": "contracts/4_Product.sol:ProductSC",
						"label": "actors",
						"offset": 0,
						"slot": "6",
						"type": "t_mapping(t_address,t_struct(Actor)65_storage)"
					},
					{
						"astId": 94,
						"contract": "contracts/4_Product.sol:ProductSC",
						"label": "product",
						"offset": 0,
						"slot": "7",
						"type": "t_mapping(t_uint256,t_struct(Product)57_storage)"
					}
				],
				"types": {
					"t_address": {
						"encoding": "inplace",
						"label": "address",
						"numberOfBytes": "20"
					},
					"t_address_payable": {
						"encoding": "inplace",
						"label": "address payable",
						"numberOfBytes": "20"
					},
					"t_array(t_uint256)6_storage": {
						"base": "t_uint256",
						"encoding": "inplace",
						"label": "uint256[6]",
						"numberOfBytes": "192"
					},
					"t_bool": {
						"encoding": "inplace",
						"label": "bool",
						"numberOfBytes": "1"
					},
					"t_enum(Role)32": {
						"encoding": "inplace",
						"label": "enum ProductSC.Role",
						"numberOfBytes": "1"
					},
					"t_enum(State)26": {
						"encoding": "inplace",
						"label": "enum ProductSC.State",
						"numberOfBytes": "1"
					},
					"t_int256": {
						"encoding": "inplace",
						"label": "int256",
						"numberOfBytes": "32"
					},
					"t_mapping(t_address,t_struct(Actor)65_storage)": {
						"encoding": "mapping",
						"key": "t_address",
						"label": "mapping(address => struct ProductSC.Actor)",
						"numberOfBytes": "32",
						"value": "t_struct(Actor)65_storage"
					},
					"t_mapping(t_address,t_uint256)": {
						"encoding": "mapping",
						"key": "t_address",
						"label": "mapping(address => uint256)",
						"numberOfBytes": "32",
						"value": "t_uint256"
					},
					"t_mapping(t_uint256,t_int256)": {
						"encoding": "mapping",
						"key": "t_uint256",
						"label": "mapping(uint256 => int256)",
						"numberOfBytes": "32",
						"value": "t_int256"
					},
					"t_mapping(t_uint256,t_struct(Product)57_storage)": {
						"encoding": "mapping",
						"key": "t_uint256",
						"label": "mapping(uint256 => struct ProductSC.Product)",
						"numberOfBytes": "32",
						"value": "t_struct(Product)57_storage"
					},
					"t_string_storage": {
						"encoding": "bytes",
						"label": "string",
						"numberOfBytes": "32"
					},
					"t_struct(Actor)65_storage": {
						"encoding": "inplace",
						"label": "struct ProductSC.Actor",
						"members": [
							{
								"astId": 60,
								"contract": "contracts/4_Product.sol:ProductSC",
								"label": "role",
								"offset": 0,
								"slot": "0",
								"type": "t_enum(Role)32"
							},
							{
								"astId": 62,
								"contract": "contracts/4_Product.sol:ProductSC",
								"label": "name",
								"offset": 0,
								"slot": "1",
								"type": "t_string_storage"
							},
							{
								"astId": 64,
								"contract": "contracts/4_Product.sol:ProductSC",
								"label": "isDefined",
								"offset": 0,
								"slot": "2",
								"type": "t_bool"
							}
						],
						"numberOfBytes": "96"
					},
					"t_struct(Details)80_storage": {
						"encoding": "inplace",
						"label": "struct ProductSC.Details",
						"members": [
							{
								"astId": 67,
								"contract": "contracts/4_Product.sol:ProductSC",
								"label": "name",
								"offset": 0,
								"slot": "0",
								"type": "t_string_storage"
							},
							{
								"astId": 69,
								"contract": "contracts/4_Product.sol:ProductSC",
								"label": "brand",
								"offset": 0,
								"slot": "1",
								"type": "t_string_storage"
							},
							{
								"astId": 71,
								"contract": "contracts/4_Product.sol:ProductSC",
								"label": "size",
								"offset": 0,
								"slot": "2",
								"type": "t_string_storage"
							},
							{
								"astId": 73,
								"contract": "contracts/4_Product.sol:ProductSC",
								"label": "weight",
								"offset": 0,
								"slot": "3",
								"type": "t_string_storage"
							},
							{
								"astId": 75,
								"contract": "contracts/4_Product.sol:ProductSC",
								"label": "length",
								"offset": 0,
								"slot": "4",
								"type": "t_string_storage"
							},
							{
								"astId": 77,
								"contract": "contracts/4_Product.sol:ProductSC",
								"label": "width",
								"offset": 0,
								"slot": "5",
								"type": "t_string_storage"
							},
							{
								"astId": 79,
								"contract": "contracts/4_Product.sol:ProductSC",
								"label": "height",
								"offset": 0,
								"slot": "6",
								"type": "t_string_storage"
							}
						],
						"numberOfBytes": "224"
					},
					"t_struct(Product)57_storage": {
						"encoding": "inplace",
						"label": "struct ProductSC.Product",
						"members": [
							{
								"astId": 34,
								"contract": "contracts/4_Product.sol:ProductSC",
								"label": "ID",
								"offset": 0,
								"slot": "0",
								"type": "t_uint256"
							},
							{
								"astId": 36,
								"contract": "contracts/4_Product.sol:ProductSC",
								"label": "ownerID",
								"offset": 0,
								"slot": "1",
								"type": "t_address"
							},
							{
								"astId": 38,
								"contract": "contracts/4_Product.sol:ProductSC",
								"label": "producerID",
								"offset": 0,
								"slot": "2",
								"type": "t_address"
							},
							{
								"astId": 42,
								"contract": "contracts/4_Product.sol:ProductSC",
								"label": "timestamp",
								"offset": 0,
								"slot": "3",
								"type": "t_array(t_uint256)6_storage"
							},
							{
								"astId": 45,
								"contract": "contracts/4_Product.sol:ProductSC",
								"label": "productState",
								"offset": 0,
								"slot": "9",
								"type": "t_enum(State)26"
							},
							{
								"astId": 47,
								"contract": "contracts/4_Product.sol:ProductSC",
								"label": "productPrice",
								"offset": 0,
								"slot": "10",
								"type": "t_uint256"
							},
							{
								"astId": 49,
								"contract": "contracts/4_Product.sol:ProductSC",
								"label": "distributorID",
								"offset": 0,
								"slot": "11",
								"type": "t_address"
							},
							{
								"astId": 51,
								"contract": "contracts/4_Product.sol:ProductSC",
								"label": "retailerID",
								"offset": 0,
								"slot": "12",
								"type": "t_address"
							},
							{
								"astId": 53,
								"contract": "contracts/4_Product.sol:ProductSC",
								"label": "consumerID",
								"offset": 0,
								"slot": "13",
								"type": "t_address"
							},
							{
								"astId": 56,
								"contract": "contracts/4_Product.sol:ProductSC",
								"label": "details",
								"offset": 0,
								"slot": "14",
								"type": "t_struct(Details)80_storage"
							}
						],
						"numberOfBytes": "672"
					},
					"t_uint256": {
						"encoding": "inplace",
						"label": "uint256",
						"numberOfBytes": "32"
					}
				}
			},
			"userdoc": {
				"kind": "user",
				"methods": {},
				"version": 1
			}
		}
	}
}